{
  "_format": "hh-sol-artifact-1",
  "contractName": "StakeRewardsFactory",
  "sourceName": "contracts/StakeRewardsFactory.sol",
  "abi": [
    {
      "inputs": [
        {
          "internalType": "address",
          "name": "_masterContract",
          "type": "address"
        },
        {
          "internalType": "address",
          "name": "_owner",
          "type": "address"
        }
      ],
      "stateMutability": "nonpayable",
      "type": "constructor"
    },
    {
      "inputs": [
        {
          "internalType": "address",
          "name": "_tenant",
          "type": "address"
        },
        {
          "internalType": "address",
          "name": "_stakingToken",
          "type": "address"
        },
        {
          "internalType": "address",
          "name": "_rewardsToken",
          "type": "address"
        },
        {
          "internalType": "uint256",
          "name": "_rewardRate",
          "type": "uint256"
        }
      ],
      "name": "createInstance",
      "outputs": [],
      "stateMutability": "nonpayable",
      "type": "function"
    },
    {
      "inputs": [
        {
          "internalType": "address",
          "name": "_owner",
          "type": "address"
        }
      ],
      "name": "getProxy",
      "outputs": [
        {
          "internalType": "contract StakeRewardsToken",
          "name": "",
          "type": "address"
        }
      ],
      "stateMutability": "view",
      "type": "function"
    },
    {
      "inputs": [],
      "name": "masterContract",
      "outputs": [
        {
          "internalType": "address",
          "name": "",
          "type": "address"
        }
      ],
      "stateMutability": "view",
      "type": "function"
    },
    {
      "inputs": [],
      "name": "owner",
      "outputs": [
        {
          "internalType": "address",
          "name": "",
          "type": "address"
        }
      ],
      "stateMutability": "view",
      "type": "function"
    },
    {
      "inputs": [
        {
          "internalType": "address",
          "name": "",
          "type": "address"
        }
      ],
      "name": "tenants",
      "outputs": [
        {
          "internalType": "contract StakeRewardsToken",
          "name": "stakeRewards",
          "type": "address"
        },
        {
          "internalType": "address",
          "name": "owner",
          "type": "address"
        }
      ],
      "stateMutability": "view",
      "type": "function"
    }
  ],
  "bytecode": "0x60c06040527362a7aa79a52591ccc62b71729329a80a666fa50f600260006101000a81548173ffffffffffffffffffffffffffffffffffffffff021916908373ffffffffffffffffffffffffffffffffffffffff16021790555034801561006557600080fd5b50604051610f00380380610f0083398181016040528101906100879190610111565b8173ffffffffffffffffffffffffffffffffffffffff1660808173ffffffffffffffffffffffffffffffffffffffff1660601b815250508073ffffffffffffffffffffffffffffffffffffffff1660a08173ffffffffffffffffffffffffffffffffffffffff1660601b815250505050610196565b60008151905061010b8161017f565b92915050565b6000806040838503121561012457600080fd5b6000610132858286016100fc565b9250506020610143858286016100fc565b9150509250929050565b60006101588261015f565b9050919050565b600073ffffffffffffffffffffffffffffffffffffffff82169050919050565b6101888161014d565b811461019357600080fd5b50565b60805160601c60a05160601c610d386101c860003960006101170152600081816101a601526105860152610d386000f3fe608060405234801561001057600080fd5b50600436106100575760003560e01c80638da5cb5b1461005c578063b7fba4d31461007a578063cd446e22146100aa578063d9ed9230146100c8578063fd9153a3146100e4575b600080fd5b610064610115565b60405161007191906109d0565b60405180910390f35b610094600480360381019061008f9190610853565b610139565b6040516100a19190610a59565b60405180910390f35b6100b26101a4565b6040516100bf91906109d0565b60405180910390f35b6100e260048036038101906100dd91906108a5565b6101c8565b005b6100fe60048036038101906100f99190610853565b610746565b60405161010c929190610a74565b60405180910390f35b7f000000000000000000000000000000000000000000000000000000000000000081565b60008060008373ffffffffffffffffffffffffffffffffffffffff1673ffffffffffffffffffffffffffffffffffffffff16815260200190815260200160002060000160009054906101000a900473ffffffffffffffffffffffffffffffffffffffff169050919050565b7f000000000000000000000000000000000000000000000000000000000000000081565b8360001515600160008373ffffffffffffffffffffffffffffffffffffffff1673ffffffffffffffffffffffffffffffffffffffff16815260200190815260200160002060009054906101000a900460ff1615151461025c576040517f08c379a000000000000000000000000000000000000000000000000000000000815260040161025390610a9d565b60405180910390fd5b848073ffffffffffffffffffffffffffffffffffffffff163373ffffffffffffffffffffffffffffffffffffffff1614806102e45750600260009054906101000a900473ffffffffffffffffffffffffffffffffffffffff1673ffffffffffffffffffffffffffffffffffffffff163373ffffffffffffffffffffffffffffffffffffffff16145b610323576040517f08c379a000000000000000000000000000000000000000000000000000000000815260040161031a90610abd565b60405180910390fd5b600073ffffffffffffffffffffffffffffffffffffffff16731820a4b7618bde71dce8cdc73aab6c95905fad2473ffffffffffffffffffffffffffffffffffffffff1663aabbb8ca877fac7fbab5f54a3ca8194167523c6753bfeb96a445279294b6125b68cce21770546040518363ffffffff1660e01b81526004016103aa929190610a30565b60206040518083038186803b1580156103c257600080fd5b505afa1580156103d6573d6000803e3d6000fd5b505050506040513d601f19601f820116820180604052508101906103fa919061087c565b73ffffffffffffffffffffffffffffffffffffffff161415610451576040517f08c379a000000000000000000000000000000000000000000000000000000000815260040161044890610add565b60405180910390fd5b600073ffffffffffffffffffffffffffffffffffffffff16731820a4b7618bde71dce8cdc73aab6c95905fad2473ffffffffffffffffffffffffffffffffffffffff1663aabbb8ca867fac7fbab5f54a3ca8194167523c6753bfeb96a445279294b6125b68cce21770546040518363ffffffff1660e01b81526004016104d8929190610a30565b60206040518083038186803b1580156104f057600080fd5b505afa158015610504573d6000803e3d6000fd5b505050506040513d601f19601f82011682018060405250810190610528919061087c565b73ffffffffffffffffffffffffffffffffffffffff16141561057f576040517f08c379a000000000000000000000000000000000000000000000000000000000815260040161057690610afd565b60405180910390fd5b60006105aa7f00000000000000000000000000000000000000000000000000000000000000006107aa565b90508073ffffffffffffffffffffffffffffffffffffffff166346639dba888888886040518563ffffffff1660e01b81526004016105eb94939291906109eb565b600060405180830381600087803b15801561060557600080fd5b505af1158015610619573d6000803e3d6000fd5b5050505060008060008973ffffffffffffffffffffffffffffffffffffffff1673ffffffffffffffffffffffffffffffffffffffff1681526020019081526020016000209050818160000160006101000a81548173ffffffffffffffffffffffffffffffffffffffff021916908373ffffffffffffffffffffffffffffffffffffffff160217905550878160010160006101000a81548173ffffffffffffffffffffffffffffffffffffffff021916908373ffffffffffffffffffffffffffffffffffffffff16021790555060018060008a73ffffffffffffffffffffffffffffffffffffffff1673ffffffffffffffffffffffffffffffffffffffff16815260200190815260200160002060006101000a81548160ff0219169083151502179055505050505050505050565b60006020528060005260406000206000915090508060000160009054906101000a900473ffffffffffffffffffffffffffffffffffffffff16908060010160009054906101000a900473ffffffffffffffffffffffffffffffffffffffff16905082565b6000808260601b90506040517f3d602d80600a3d3981f3363d3d373d3d3d363d7300000000000000000000000081528160148201527f5af43d82803e903d91602b57fd5bf3000000000000000000000000000000000060288201526037816000f092505050919050565b60008135905061082381610cd4565b92915050565b60008151905061083881610cd4565b92915050565b60008135905061084d81610ceb565b92915050565b60006020828403121561086557600080fd5b600061087384828501610814565b91505092915050565b60006020828403121561088e57600080fd5b600061089c84828501610829565b91505092915050565b600080600080608085870312156108bb57600080fd5b60006108c987828801610814565b94505060206108da87828801610814565b93505060406108eb87828801610814565b92505060606108fc8782880161083e565b91505092959194509250565b61091181610b2e565b82525050565b61092081610b40565b82525050565b61092f81610b74565b82525050565b6000610942602283610b1d565b915061094d82610b98565b604082019050919050565b6000610965603083610b1d565b915061097082610be7565b604082019050919050565b6000610988602783610b1d565b915061099382610c36565b604082019050919050565b60006109ab602683610b1d565b91506109b682610c85565b604082019050919050565b6109ca81610b6a565b82525050565b60006020820190506109e56000830184610908565b92915050565b6000608082019050610a006000830187610908565b610a0d6020830186610908565b610a1a6040830185610908565b610a2760608301846109c1565b95945050505050565b6000604082019050610a456000830185610908565b610a526020830184610917565b9392505050565b6000602082019050610a6e6000830184610926565b92915050565b6000604082019050610a896000830185610926565b610a966020830184610908565b9392505050565b60006020820190508181036000830152610ab681610935565b9050919050565b60006020820190508181036000830152610ad681610958565b9050919050565b60006020820190508181036000830152610af68161097b565b9050919050565b60006020820190508181036000830152610b168161099e565b9050919050565b600082825260208201905092915050565b6000610b3982610b4a565b9050919050565b6000819050919050565b600073ffffffffffffffffffffffffffffffffffffffff82169050919050565b6000819050919050565b6000610b7f82610b86565b9050919050565b6000610b9182610b4a565b9050919050565b7f5468652074656e616e7420616c72656164792068617320616e20696e7374616e60008201527f6365000000000000000000000000000000000000000000000000000000000000602082015250565b7f506c656173652075736520612076616c6964206164647265737320746f20637260008201527f6561746520616e20696e7374616e636500000000000000000000000000000000602082015250565b7f546865207374616b696e6720746f6b656e206973206e6f7420616e204552433760008201527f3737546f6b656e00000000000000000000000000000000000000000000000000602082015250565b7f5468652072657761726420746f6b656e206973206e6f7420616e20455243373760008201527f37546f6b656e0000000000000000000000000000000000000000000000000000602082015250565b610cdd81610b2e565b8114610ce857600080fd5b50565b610cf481610b6a565b8114610cff57600080fd5b5056fea264697066735822122004ef094a4ba3d5e8e81848b82f3da1d978e4729cdd9847c83dc4c6575bfbca2764736f6c63430008040033",
  "linkReferences": {},
  "deployedLinkReferences": {}
}