{
  "_format": "hh-sol-artifact-1",
  "contractName": "StakeRewardsFactory",
  "sourceName": "contracts/StakeRewardsFactory.sol",
  "abi": [
    {
      "inputs": [
        {
          "internalType": "address",
          "name": "_masterContract",
          "type": "address"
        },
        {
          "internalType": "address",
          "name": "_owner",
          "type": "address"
        }
      ],
      "stateMutability": "nonpayable",
      "type": "constructor"
    },
    {
      "inputs": [],
      "name": "InstanceAlreadyInitialized",
      "type": "error"
    },
    {
      "inputs": [],
      "name": "InstanceDoesNotExist",
      "type": "error"
    },
    {
      "inputs": [],
      "name": "InvalidTokenAddress",
      "type": "error"
    },
    {
      "inputs": [],
      "name": "Unauthorized",
      "type": "error"
    },
    {
      "inputs": [],
      "name": "ZeroAddress",
      "type": "error"
    },
    {
      "anonymous": false,
      "inputs": [
        {
          "indexed": false,
          "internalType": "address",
          "name": "_tenant",
          "type": "address"
        },
        {
          "indexed": false,
          "internalType": "address",
          "name": "_proxy",
          "type": "address"
        }
      ],
      "name": "TenantCreated",
      "type": "event"
    },
    {
      "inputs": [
        {
          "internalType": "address",
          "name": "_tenant",
          "type": "address"
        },
        {
          "internalType": "address",
          "name": "_stakingToken",
          "type": "address"
        },
        {
          "internalType": "address",
          "name": "_rewardsToken",
          "type": "address"
        },
        {
          "internalType": "uint256",
          "name": "_rewardRate",
          "type": "uint256"
        }
      ],
      "name": "createInstance",
      "outputs": [],
      "stateMutability": "nonpayable",
      "type": "function"
    },
    {
      "inputs": [
        {
          "internalType": "address",
          "name": "_tenant",
          "type": "address"
        }
      ],
      "name": "getProxy",
      "outputs": [
        {
          "internalType": "contract StakeRewardsToken",
          "name": "",
          "type": "address"
        }
      ],
      "stateMutability": "view",
      "type": "function"
    },
    {
      "inputs": [
        {
          "internalType": "address",
          "name": "",
          "type": "address"
        }
      ],
      "name": "instance",
      "outputs": [
        {
          "internalType": "bool",
          "name": "",
          "type": "bool"
        }
      ],
      "stateMutability": "view",
      "type": "function"
    },
    {
      "inputs": [],
      "name": "masterContract",
      "outputs": [
        {
          "internalType": "address",
          "name": "",
          "type": "address"
        }
      ],
      "stateMutability": "view",
      "type": "function"
    },
    {
      "inputs": [],
      "name": "owner",
      "outputs": [
        {
          "internalType": "address",
          "name": "",
          "type": "address"
        }
      ],
      "stateMutability": "view",
      "type": "function"
    },
    {
      "inputs": [],
      "name": "tenantCounter",
      "outputs": [
        {
          "internalType": "uint256",
          "name": "_value",
          "type": "uint256"
        }
      ],
      "stateMutability": "view",
      "type": "function"
    },
    {
      "inputs": [
        {
          "internalType": "address",
          "name": "",
          "type": "address"
        }
      ],
      "name": "tenants",
      "outputs": [
        {
          "internalType": "contract StakeRewardsToken",
          "name": "stakeRewards",
          "type": "address"
        },
        {
          "internalType": "address",
          "name": "owner",
          "type": "address"
        }
      ],
      "stateMutability": "view",
      "type": "function"
    }
  ],
  "bytecode": "0x60c06040527362a7aa79a52591ccc62b71729329a80a666fa50f600360006101000a81548173ffffffffffffffffffffffffffffffffffffffff021916908373ffffffffffffffffffffffffffffffffffffffff16021790555034801561006557600080fd5b50604051610eb1380380610eb183398181016040528101906100879190610111565b8173ffffffffffffffffffffffffffffffffffffffff1660a08173ffffffffffffffffffffffffffffffffffffffff1660601b815250508073ffffffffffffffffffffffffffffffffffffffff1660808173ffffffffffffffffffffffffffffffffffffffff1660601b815250505050610196565b60008151905061010b8161017f565b92915050565b6000806040838503121561012457600080fd5b6000610132858286016100fc565b9250506020610143858286016100fc565b9150509250929050565b60006101588261015f565b9050919050565b600073ffffffffffffffffffffffffffffffffffffffff82169050919050565b6101888161014d565b811461019357600080fd5b50565b60805160601c60a05160601c610ce96101c8600039600081816102aa01526106b9015260006101970152610ce96000f3fe608060405234801561001057600080fd5b506004361061007d5760003560e01c8063cd446e221161005b578063cd446e22146100ee578063cf33d5881461010c578063d9ed92301461013c578063fd9153a3146101585761007d565b80631e9b4755146100825780638da5cb5b146100a0578063b7fba4d3146100be575b600080fd5b61008a610189565b6040516100979190610bf4565b60405180910390f35b6100a8610195565b6040516100b59190610ae3565b60405180910390f35b6100d860048036038101906100d391906109e3565b6101b9565b6040516100e59190610bb0565b60405180910390f35b6100f66102a8565b6040516101039190610ae3565b60405180910390f35b610126600480360381019061012191906109e3565b6102cc565b6040516101339190610b95565b60405180910390f35b61015660048036038101906101519190610a35565b6102ec565b005b610172600480360381019061016d91906109e3565b6108c0565b604051610180929190610bcb565b60405180910390f35b60008060000154905081565b7f000000000000000000000000000000000000000000000000000000000000000081565b6000600260008373ffffffffffffffffffffffffffffffffffffffff1673ffffffffffffffffffffffffffffffffffffffff16815260200190815260200160002060009054906101000a900460ff1661023e576040517f5173702000000000000000000000000000000000000000000000000000000000815260040160405180910390fd5b600160008373ffffffffffffffffffffffffffffffffffffffff1673ffffffffffffffffffffffffffffffffffffffff16815260200190815260200160002060000160009054906101000a900473ffffffffffffffffffffffffffffffffffffffff169050919050565b7f000000000000000000000000000000000000000000000000000000000000000081565b60026020528060005260406000206000915054906101000a900460ff1681565b83600073ffffffffffffffffffffffffffffffffffffffff168173ffffffffffffffffffffffffffffffffffffffff161415610354576040517fd92e233d00000000000000000000000000000000000000000000000000000000815260040160405180910390fd5b8073ffffffffffffffffffffffffffffffffffffffff163373ffffffffffffffffffffffffffffffffffffffff1614806103db5750600360009054906101000a900473ffffffffffffffffffffffffffffffffffffffff1673ffffffffffffffffffffffffffffffffffffffff163373ffffffffffffffffffffffffffffffffffffffff16145b610411576040517f82b4290000000000000000000000000000000000000000000000000000000000815260040160405180910390fd5b84600260008273ffffffffffffffffffffffffffffffffffffffff1673ffffffffffffffffffffffffffffffffffffffff16815260200190815260200160002060009054906101000a900460ff1615610496576040517ff76d29a900000000000000000000000000000000000000000000000000000000815260040160405180910390fd5b8484600073ffffffffffffffffffffffffffffffffffffffff16731820a4b7618bde71dce8cdc73aab6c95905fad2473ffffffffffffffffffffffffffffffffffffffff1663aabbb8ca847fac7fbab5f54a3ca8194167523c6753bfeb96a445279294b6125b68cce21770546040518363ffffffff1660e01b815260040161051f929190610b6c565b60206040518083038186803b15801561053757600080fd5b505afa15801561054b573d6000803e3d6000fd5b505050506040513d601f19601f8201168201806040525081019061056f9190610a0c565b73ffffffffffffffffffffffffffffffffffffffff16148061067b5750600073ffffffffffffffffffffffffffffffffffffffff16731820a4b7618bde71dce8cdc73aab6c95905fad2473ffffffffffffffffffffffffffffffffffffffff1663aabbb8ca837fac7fbab5f54a3ca8194167523c6753bfeb96a445279294b6125b68cce21770546040518363ffffffff1660e01b8152600401610613929190610b6c565b60206040518083038186803b15801561062b57600080fd5b505afa15801561063f573d6000803e3d6000fd5b505050506040513d601f19601f820116820180604052508101906106639190610a0c565b73ffffffffffffffffffffffffffffffffffffffff16145b156106b2576040517f1eb00b0600000000000000000000000000000000000000000000000000000000815260040160405180910390fd5b60006106dd7f0000000000000000000000000000000000000000000000000000000000000000610924565b90508073ffffffffffffffffffffffffffffffffffffffff1663cf756fdf8a8a8a8a6040518563ffffffff1660e01b815260040161071e9493929190610b27565b600060405180830381600087803b15801561073857600080fd5b505af115801561074c573d6000803e3d6000fd5b505050506000600160008b73ffffffffffffffffffffffffffffffffffffffff1673ffffffffffffffffffffffffffffffffffffffff1681526020019081526020016000209050818160000160006101000a81548173ffffffffffffffffffffffffffffffffffffffff021916908373ffffffffffffffffffffffffffffffffffffffff160217905550898160010160006101000a81548173ffffffffffffffffffffffffffffffffffffffff021916908373ffffffffffffffffffffffffffffffffffffffff1602179055506001600260008c73ffffffffffffffffffffffffffffffffffffffff1673ffffffffffffffffffffffffffffffffffffffff16815260200190815260200160002060006101000a81548160ff02191690831515021790555061087b600061098e565b7f6c253b297385738b44c5cd705bc77dfaf43a58b0a4e9fe4f4eb44eebb417db118a836040516108ac929190610afe565b60405180910390a150505050505050505050565b60016020528060005260406000206000915090508060000160009054906101000a900473ffffffffffffffffffffffffffffffffffffffff16908060010160009054906101000a900473ffffffffffffffffffffffffffffffffffffffff16905082565b6000808260601b90506040517f3d602d80600a3d3981f3363d3d373d3d3d363d7300000000000000000000000081528160148201527f5af43d82803e903d91602b57fd5bf3000000000000000000000000000000000060288201526037816000f092505050919050565b6001816000016000828254019250508190555050565b6000813590506109b381610c85565b92915050565b6000815190506109c881610c85565b92915050565b6000813590506109dd81610c9c565b92915050565b6000602082840312156109f557600080fd5b6000610a03848285016109a4565b91505092915050565b600060208284031215610a1e57600080fd5b6000610a2c848285016109b9565b91505092915050565b60008060008060808587031215610a4b57600080fd5b6000610a59878288016109a4565b9450506020610a6a878288016109a4565b9350506040610a7b878288016109a4565b9250506060610a8c878288016109ce565b91505092959194509250565b610aa181610c0f565b82525050565b610ab081610c21565b82525050565b610abf81610c2d565b82525050565b610ace81610c61565b82525050565b610add81610c57565b82525050565b6000602082019050610af86000830184610a98565b92915050565b6000604082019050610b136000830185610a98565b610b206020830184610a98565b9392505050565b6000608082019050610b3c6000830187610a98565b610b496020830186610a98565b610b566040830185610a98565b610b636060830184610ad4565b95945050505050565b6000604082019050610b816000830185610a98565b610b8e6020830184610ab6565b9392505050565b6000602082019050610baa6000830184610aa7565b92915050565b6000602082019050610bc56000830184610ac5565b92915050565b6000604082019050610be06000830185610ac5565b610bed6020830184610a98565b9392505050565b6000602082019050610c096000830184610ad4565b92915050565b6000610c1a82610c37565b9050919050565b60008115159050919050565b6000819050919050565b600073ffffffffffffffffffffffffffffffffffffffff82169050919050565b6000819050919050565b6000610c6c82610c73565b9050919050565b6000610c7e82610c37565b9050919050565b610c8e81610c0f565b8114610c9957600080fd5b50565b610ca581610c57565b8114610cb057600080fd5b5056fea26469706673582212200576d50f11961c63595697d0fc2800d9999d7898f989c22e8070d783be12d88d64736f6c63430008040033",
  "linkReferences": {},
  "deployedLinkReferences": {}
}