{
  "_format": "hh-sol-artifact-1",
  "contractName": "StakeRewardsFactory",
  "sourceName": "contracts/StakeRewardsFactory.sol",
  "abi": [
    {
      "inputs": [
        {
          "internalType": "address",
          "name": "_masterContract",
          "type": "address"
        },
        {
          "internalType": "address",
          "name": "_owner",
          "type": "address"
        }
      ],
      "stateMutability": "nonpayable",
      "type": "constructor"
    },
    {
      "inputs": [],
      "name": "InstanceAlreadyInitialized",
      "type": "error"
    },
    {
      "inputs": [],
      "name": "InstanceDoesNotExist",
      "type": "error"
    },
    {
      "inputs": [],
      "name": "InvalidTokenAddress",
      "type": "error"
    },
    {
      "inputs": [],
      "name": "Unauthorized",
      "type": "error"
    },
    {
      "inputs": [],
      "name": "ZeroAddress",
      "type": "error"
    },
    {
      "anonymous": false,
      "inputs": [
        {
          "indexed": false,
          "internalType": "address",
          "name": "_tenant",
          "type": "address"
        },
        {
          "indexed": false,
          "internalType": "address",
          "name": "_proxy",
          "type": "address"
        }
      ],
      "name": "TenantCreated",
      "type": "event"
    },
    {
      "inputs": [
        {
          "internalType": "address",
          "name": "_tenant",
          "type": "address"
        },
        {
          "internalType": "address",
          "name": "_stakingToken",
          "type": "address"
        },
        {
          "internalType": "address",
          "name": "_rewardsToken",
          "type": "address"
        },
        {
          "internalType": "uint256",
          "name": "_rewardRate",
          "type": "uint256"
        }
      ],
      "name": "createInstance",
      "outputs": [],
      "stateMutability": "nonpayable",
      "type": "function"
    },
    {
      "inputs": [
        {
          "internalType": "address",
          "name": "_tenant",
          "type": "address"
        }
      ],
      "name": "getProxy",
      "outputs": [
        {
          "internalType": "contract StakeRewardsToken",
          "name": "",
          "type": "address"
        }
      ],
      "stateMutability": "view",
      "type": "function"
    },
    {
      "inputs": [
        {
          "internalType": "address",
          "name": "",
          "type": "address"
        }
      ],
      "name": "instance",
      "outputs": [
        {
          "internalType": "bool",
          "name": "",
          "type": "bool"
        }
      ],
      "stateMutability": "view",
      "type": "function"
    },
    {
      "inputs": [],
      "name": "masterContract",
      "outputs": [
        {
          "internalType": "address",
          "name": "",
          "type": "address"
        }
      ],
      "stateMutability": "view",
      "type": "function"
    },
    {
      "inputs": [],
      "name": "owner",
      "outputs": [
        {
          "internalType": "address",
          "name": "",
          "type": "address"
        }
      ],
      "stateMutability": "view",
      "type": "function"
    },
    {
      "inputs": [],
      "name": "tenantCounter",
      "outputs": [
        {
          "internalType": "uint256",
          "name": "_value",
          "type": "uint256"
        }
      ],
      "stateMutability": "view",
      "type": "function"
    },
    {
      "inputs": [
        {
          "internalType": "address",
          "name": "",
          "type": "address"
        }
      ],
      "name": "tenants",
      "outputs": [
        {
          "internalType": "contract StakeRewardsToken",
          "name": "stakeRewards",
          "type": "address"
        },
        {
          "internalType": "address",
          "name": "owner",
          "type": "address"
        }
      ],
      "stateMutability": "view",
      "type": "function"
    }
  ],
  "bytecode": "0x60c06040527362a7aa79a52591ccc62b71729329a80a666fa50f600360006101000a81548173ffffffffffffffffffffffffffffffffffffffff021916908373ffffffffffffffffffffffffffffffffffffffff16021790555034801561006557600080fd5b50604051620010c0380380620010c083398181016040528101906100899190610113565b8173ffffffffffffffffffffffffffffffffffffffff1660a08173ffffffffffffffffffffffffffffffffffffffff1660601b815250508073ffffffffffffffffffffffffffffffffffffffff1660808173ffffffffffffffffffffffffffffffffffffffff1660601b815250505050610198565b60008151905061010d81610181565b92915050565b6000806040838503121561012657600080fd5b6000610134858286016100fe565b9250506020610145858286016100fe565b9150509250929050565b600061015a82610161565b9050919050565b600073ffffffffffffffffffffffffffffffffffffffff82169050919050565b61018a8161014f565b811461019557600080fd5b50565b60805160601c60a05160601c610ef5620001cb600039600081816102e90152610737015260006101970152610ef56000f3fe608060405234801561001057600080fd5b506004361061007d5760003560e01c8063cd446e221161005b578063cd446e22146100ee578063cf33d5881461010c578063d9ed92301461013c578063fd9153a3146101585761007d565b80631e9b4755146100825780638da5cb5b146100a0578063b7fba4d3146100be575b600080fd5b61008a610189565b6040516100979190610da0565b60405180910390f35b6100a8610195565b6040516100b59190610c5f565b60405180910390f35b6100d860048036038101906100d39190610b26565b6101b9565b6040516100e59190610d2c565b60405180910390f35b6100f66102e7565b6040516101039190610c5f565b60405180910390f35b61012660048036038101906101219190610b26565b61030b565b6040516101339190610d11565b60405180910390f35b61015660048036038101906101519190610b78565b61032b565b005b610172600480360381019061016d9190610b26565b61093e565b604051610180929190610d47565b60405180910390f35b60008060000154905081565b7f000000000000000000000000000000000000000000000000000000000000000081565b60006101fa6040518060400160405280600d81526020017f67657474696e672070726f787900000000000000000000000000000000000000815250836109a2565b600260008373ffffffffffffffffffffffffffffffffffffffff1673ffffffffffffffffffffffffffffffffffffffff16815260200190815260200160002060009054906101000a900460ff1661027d576040517f5173702000000000000000000000000000000000000000000000000000000000815260040160405180910390fd5b600160008373ffffffffffffffffffffffffffffffffffffffff1673ffffffffffffffffffffffffffffffffffffffff16815260200190815260200160002060000160009054906101000a900473ffffffffffffffffffffffffffffffffffffffff169050919050565b7f000000000000000000000000000000000000000000000000000000000000000081565b60026020528060005260406000206000915054906101000a900460ff1681565b83600073ffffffffffffffffffffffffffffffffffffffff168173ffffffffffffffffffffffffffffffffffffffff161415610393576040517fd92e233d00000000000000000000000000000000000000000000000000000000815260040160405180910390fd5b8073ffffffffffffffffffffffffffffffffffffffff163373ffffffffffffffffffffffffffffffffffffffff16148061041a5750600360009054906101000a900473ffffffffffffffffffffffffffffffffffffffff1673ffffffffffffffffffffffffffffffffffffffff163373ffffffffffffffffffffffffffffffffffffffff16145b610450576040517f82b4290000000000000000000000000000000000000000000000000000000000815260040160405180910390fd5b84600260008273ffffffffffffffffffffffffffffffffffffffff1673ffffffffffffffffffffffffffffffffffffffff16815260200190815260200160002060009054906101000a900460ff16156104d5576040517ff76d29a900000000000000000000000000000000000000000000000000000000815260040160405180910390fd5b8484600073ffffffffffffffffffffffffffffffffffffffff16731820a4b7618bde71dce8cdc73aab6c95905fad2473ffffffffffffffffffffffffffffffffffffffff1663aabbb8ca847fac7fbab5f54a3ca8194167523c6753bfeb96a445279294b6125b68cce21770546040518363ffffffff1660e01b815260040161055e929190610ce8565b60206040518083038186803b15801561057657600080fd5b505afa15801561058a573d6000803e3d6000fd5b505050506040513d601f19601f820116820180604052508101906105ae9190610b4f565b73ffffffffffffffffffffffffffffffffffffffff1614806106ba5750600073ffffffffffffffffffffffffffffffffffffffff16731820a4b7618bde71dce8cdc73aab6c95905fad2473ffffffffffffffffffffffffffffffffffffffff1663aabbb8ca837fac7fbab5f54a3ca8194167523c6753bfeb96a445279294b6125b68cce21770546040518363ffffffff1660e01b8152600401610652929190610ce8565b60206040518083038186803b15801561066a57600080fd5b505afa15801561067e573d6000803e3d6000fd5b505050506040513d601f19601f820116820180604052508101906106a29190610b4f565b73ffffffffffffffffffffffffffffffffffffffff16145b156106f1576040517f1eb00b0600000000000000000000000000000000000000000000000000000000815260040160405180910390fd5b6107306040518060400160405280601181526020017f6372656174696e6720696e7374616e6365000000000000000000000000000000815250896109a2565b600061075b7f0000000000000000000000000000000000000000000000000000000000000000610a3e565b90508073ffffffffffffffffffffffffffffffffffffffff1663cf756fdf8a8a8a8a6040518563ffffffff1660e01b815260040161079c9493929190610ca3565b600060405180830381600087803b1580156107b657600080fd5b505af11580156107ca573d6000803e3d6000fd5b505050506000600160008b73ffffffffffffffffffffffffffffffffffffffff1673ffffffffffffffffffffffffffffffffffffffff1681526020019081526020016000209050818160000160006101000a81548173ffffffffffffffffffffffffffffffffffffffff021916908373ffffffffffffffffffffffffffffffffffffffff160217905550898160010160006101000a81548173ffffffffffffffffffffffffffffffffffffffff021916908373ffffffffffffffffffffffffffffffffffffffff1602179055506001600260008c73ffffffffffffffffffffffffffffffffffffffff1673ffffffffffffffffffffffffffffffffffffffff16815260200190815260200160002060006101000a81548160ff0219169083151502179055506108f96000610aa8565b7f6c253b297385738b44c5cd705bc77dfaf43a58b0a4e9fe4f4eb44eebb417db118a8360405161092a929190610c7a565b60405180910390a150505050505050505050565b60016020528060005260406000206000915090508060000160009054906101000a900473ffffffffffffffffffffffffffffffffffffffff16908060010160009054906101000a900473ffffffffffffffffffffffffffffffffffffffff16905082565b610a3a82826040516024016109b8929190610d70565b6040516020818303038152906040527f319af333000000000000000000000000000000000000000000000000000000007bffffffffffffffffffffffffffffffffffffffffffffffffffffffff19166020820180517bffffffffffffffffffffffffffffffffffffffffffffffffffffffff8381831617835250505050610abe565b5050565b6000808260601b90506040517f3d602d80600a3d3981f3363d3d373d3d3d363d7300000000000000000000000081528160148201527f5af43d82803e903d91602b57fd5bf3000000000000000000000000000000000060288201526037816000f092505050919050565b6001816000016000828254019250508190555050565b60008151905060006a636f6e736f6c652e6c6f679050602083016000808483855afa5050505050565b600081359050610af681610e91565b92915050565b600081519050610b0b81610e91565b92915050565b600081359050610b2081610ea8565b92915050565b600060208284031215610b3857600080fd5b6000610b4684828501610ae7565b91505092915050565b600060208284031215610b6157600080fd5b6000610b6f84828501610afc565b91505092915050565b60008060008060808587031215610b8e57600080fd5b6000610b9c87828801610ae7565b9450506020610bad87828801610ae7565b9350506040610bbe87828801610ae7565b9250506060610bcf87828801610b11565b91505092959194509250565b610be481610dd7565b82525050565b610bf381610de9565b82525050565b610c0281610df5565b82525050565b610c1181610e29565b82525050565b6000610c2282610dbb565b610c2c8185610dc6565b9350610c3c818560208601610e4d565b610c4581610e80565b840191505092915050565b610c5981610e1f565b82525050565b6000602082019050610c746000830184610bdb565b92915050565b6000604082019050610c8f6000830185610bdb565b610c9c6020830184610bdb565b9392505050565b6000608082019050610cb86000830187610bdb565b610cc56020830186610bdb565b610cd26040830185610bdb565b610cdf6060830184610c50565b95945050505050565b6000604082019050610cfd6000830185610bdb565b610d0a6020830184610bf9565b9392505050565b6000602082019050610d266000830184610bea565b92915050565b6000602082019050610d416000830184610c08565b92915050565b6000604082019050610d5c6000830185610c08565b610d696020830184610bdb565b9392505050565b60006040820190508181036000830152610d8a8185610c17565b9050610d996020830184610bdb565b9392505050565b6000602082019050610db56000830184610c50565b92915050565b600081519050919050565b600082825260208201905092915050565b6000610de282610dff565b9050919050565b60008115159050919050565b6000819050919050565b600073ffffffffffffffffffffffffffffffffffffffff82169050919050565b6000819050919050565b6000610e3482610e3b565b9050919050565b6000610e4682610dff565b9050919050565b60005b83811015610e6b578082015181840152602081019050610e50565b83811115610e7a576000848401525b50505050565b6000601f19601f8301169050919050565b610e9a81610dd7565b8114610ea557600080fd5b50565b610eb181610e1f565b8114610ebc57600080fd5b5056fea2646970667358221220a821484d2f05b595ad516fc054c2c000808144704f9447039a141aa9007eac4864736f6c63430008040033",
  "linkReferences": {},
  "deployedLinkReferences": {}
}