{
  "_format": "hh-sol-artifact-1",
  "contractName": "MERC721",
  "sourceName": "contracts/MERC721.sol",
  "abi": [
    {
      "inputs": [],
      "stateMutability": "nonpayable",
      "type": "constructor"
    },
    {
      "anonymous": false,
      "inputs": [
        {
          "indexed": true,
          "internalType": "address",
          "name": "owner",
          "type": "address"
        },
        {
          "indexed": true,
          "internalType": "address",
          "name": "approved",
          "type": "address"
        },
        {
          "indexed": true,
          "internalType": "uint256",
          "name": "tokenId",
          "type": "uint256"
        }
      ],
      "name": "Approval",
      "type": "event"
    },
    {
      "anonymous": false,
      "inputs": [
        {
          "indexed": true,
          "internalType": "address",
          "name": "owner",
          "type": "address"
        },
        {
          "indexed": true,
          "internalType": "address",
          "name": "operator",
          "type": "address"
        },
        {
          "indexed": false,
          "internalType": "bool",
          "name": "approved",
          "type": "bool"
        }
      ],
      "name": "ApprovalForAll",
      "type": "event"
    },
    {
      "anonymous": false,
      "inputs": [
        {
          "indexed": true,
          "internalType": "address",
          "name": "from",
          "type": "address"
        },
        {
          "indexed": true,
          "internalType": "address",
          "name": "to",
          "type": "address"
        },
        {
          "indexed": true,
          "internalType": "uint256",
          "name": "tokenId",
          "type": "uint256"
        }
      ],
      "name": "Transfer",
      "type": "event"
    },
    {
      "inputs": [
        {
          "internalType": "address",
          "name": "to",
          "type": "address"
        },
        {
          "internalType": "uint256",
          "name": "tokenId",
          "type": "uint256"
        }
      ],
      "name": "approve",
      "outputs": [],
      "stateMutability": "nonpayable",
      "type": "function"
    },
    {
      "inputs": [
        {
          "internalType": "address",
          "name": "owner",
          "type": "address"
        }
      ],
      "name": "balanceOf",
      "outputs": [
        {
          "internalType": "uint256",
          "name": "",
          "type": "uint256"
        }
      ],
      "stateMutability": "view",
      "type": "function"
    },
    {
      "inputs": [],
      "name": "baseURI",
      "outputs": [
        {
          "internalType": "string",
          "name": "",
          "type": "string"
        }
      ],
      "stateMutability": "view",
      "type": "function"
    },
    {
      "inputs": [
        {
          "internalType": "uint256",
          "name": "tokenId",
          "type": "uint256"
        }
      ],
      "name": "getApproved",
      "outputs": [
        {
          "internalType": "address",
          "name": "",
          "type": "address"
        }
      ],
      "stateMutability": "view",
      "type": "function"
    },
    {
      "inputs": [],
      "name": "initialized",
      "outputs": [
        {
          "internalType": "bool",
          "name": "",
          "type": "bool"
        }
      ],
      "stateMutability": "view",
      "type": "function"
    },
    {
      "inputs": [
        {
          "internalType": "address",
          "name": "owner",
          "type": "address"
        },
        {
          "internalType": "address",
          "name": "operator",
          "type": "address"
        }
      ],
      "name": "isApprovedForAll",
      "outputs": [
        {
          "internalType": "bool",
          "name": "",
          "type": "bool"
        }
      ],
      "stateMutability": "view",
      "type": "function"
    },
    {
      "inputs": [],
      "name": "name",
      "outputs": [
        {
          "internalType": "string",
          "name": "",
          "type": "string"
        }
      ],
      "stateMutability": "view",
      "type": "function"
    },
    {
      "inputs": [
        {
          "internalType": "uint256",
          "name": "tokenId",
          "type": "uint256"
        }
      ],
      "name": "ownerOf",
      "outputs": [
        {
          "internalType": "address",
          "name": "",
          "type": "address"
        }
      ],
      "stateMutability": "view",
      "type": "function"
    },
    {
      "inputs": [
        {
          "internalType": "address",
          "name": "from",
          "type": "address"
        },
        {
          "internalType": "address",
          "name": "to",
          "type": "address"
        },
        {
          "internalType": "uint256",
          "name": "tokenId",
          "type": "uint256"
        }
      ],
      "name": "safeTransferFrom",
      "outputs": [],
      "stateMutability": "nonpayable",
      "type": "function"
    },
    {
      "inputs": [
        {
          "internalType": "address",
          "name": "from",
          "type": "address"
        },
        {
          "internalType": "address",
          "name": "to",
          "type": "address"
        },
        {
          "internalType": "uint256",
          "name": "tokenId",
          "type": "uint256"
        },
        {
          "internalType": "bytes",
          "name": "_data",
          "type": "bytes"
        }
      ],
      "name": "safeTransferFrom",
      "outputs": [],
      "stateMutability": "nonpayable",
      "type": "function"
    },
    {
      "inputs": [
        {
          "internalType": "address",
          "name": "operator",
          "type": "address"
        },
        {
          "internalType": "bool",
          "name": "approved",
          "type": "bool"
        }
      ],
      "name": "setApprovalForAll",
      "outputs": [],
      "stateMutability": "nonpayable",
      "type": "function"
    },
    {
      "inputs": [
        {
          "internalType": "bytes4",
          "name": "interfaceId",
          "type": "bytes4"
        }
      ],
      "name": "supportsInterface",
      "outputs": [
        {
          "internalType": "bool",
          "name": "",
          "type": "bool"
        }
      ],
      "stateMutability": "view",
      "type": "function"
    },
    {
      "inputs": [],
      "name": "symbol",
      "outputs": [
        {
          "internalType": "string",
          "name": "",
          "type": "string"
        }
      ],
      "stateMutability": "view",
      "type": "function"
    },
    {
      "inputs": [
        {
          "internalType": "uint256",
          "name": "tokenId",
          "type": "uint256"
        }
      ],
      "name": "tokenURI",
      "outputs": [
        {
          "internalType": "string",
          "name": "",
          "type": "string"
        }
      ],
      "stateMutability": "view",
      "type": "function"
    },
    {
      "inputs": [
        {
          "internalType": "address",
          "name": "from",
          "type": "address"
        },
        {
          "internalType": "address",
          "name": "to",
          "type": "address"
        },
        {
          "internalType": "uint256",
          "name": "tokenId",
          "type": "uint256"
        }
      ],
      "name": "transferFrom",
      "outputs": [],
      "stateMutability": "nonpayable",
      "type": "function"
    }
  ],
  "bytecode": "0x608060405234801561001057600080fd5b506100216301ffc9a760e01b610026565b6100aa565b6001600160e01b03198082161415610085576040805162461bcd60e51b815260206004820152601c60248201527f4552433136353a20696e76616c696420696e7465726661636520696400000000604482015290519081900360640190fd5b6001600160e01b0319166000908152602081905260409020805460ff19166001179055565b6112f0806100b96000396000f3fe608060405234801561001057600080fd5b50600436106100f55760003560e01c80636352211e11610097578063a22cb46511610066578063a22cb465146102f2578063b88d4fde14610320578063c87b56dd146103e6578063e985e9c514610403576100f5565b80636352211e1461028d5780636c0360eb146102aa57806370a08231146102b257806395d89b41146102ea576100f5565b8063095ea7b3116100d3578063095ea7b3146101eb578063158ef93e1461021957806323b872dd1461022157806342842e0e14610257576100f5565b806301ffc9a7146100fa57806306fdde0314610135578063081812fc146101b2575b600080fd5b6101216004803603602081101561011057600080fd5b50356001600160e01b031916610431565b604080519115158252519081900360200190f35b61013d610479565b6040805160208082528351818301528351919283929083019185019080838360005b8381101561017757818101518382015260200161015f565b50505050905090810190601f1680156101a45780820380516001836020036101000a031916815260200191505b509250505060405180910390f35b6101cf600480360360208110156101c857600080fd5b503561050e565b604080516001600160a01b039092168252519081900360200190f35b6102176004803603604081101561020157600080fd5b506001600160a01b038135169060200135610570565b005b61012161064b565b6102176004803603606081101561023757600080fd5b506001600160a01b03813581169160208101359091169060400135610654565b6102176004803603606081101561026d57600080fd5b506001600160a01b038135811691602081013590911690604001356106ab565b6101cf600480360360208110156102a357600080fd5b50356106c6565b61013d61071a565b6102d8600480360360208110156102c857600080fd5b50356001600160a01b031661077b565b60408051918252519081900360200190f35b61013d6107de565b6102176004803603604081101561030857600080fd5b506001600160a01b038135169060200135151561083c565b6102176004803603608081101561033657600080fd5b6001600160a01b0382358116926020810135909116916040820135919081019060808101606082013564010000000081111561037157600080fd5b82018360208201111561038357600080fd5b803590602001918460018302840111640100000000831117156103a557600080fd5b91908080601f016020809104026020016040519081016040528093929190818152602001838380828437600092019190915250929550610852945050505050565b61013d600480360360208110156103fc57600080fd5b50356108b0565b6101216004803603604081101561041957600080fd5b506001600160a01b0381358116916020013516610a68565b60006001600160e01b031982166380ac58cd60e01b148061046257506001600160e01b03198216635b5e139f60e01b145b80610471575061047182610a96565b90505b919050565b60018054604080516020601f600260001961010087891615020190951694909404938401819004810282018101909252828152606093909290918301828280156105045780601f106104d957610100808354040283529160200191610504565b820191906000526020600020905b8154815290600101906020018083116104e757829003601f168201915b5050505050905090565b600061051982610ab5565b6105545760405162461bcd60e51b815260040180806020018281038252602c81526020018061120e602c913960400191505060405180910390fd5b506000908152600660205260409020546001600160a01b031690565b600061057b826106c6565b9050806001600160a01b0316836001600160a01b031614156105ce5760405162461bcd60e51b81526004018080602001828103825260218152602001806112696021913960400191505060405180910390fd5b806001600160a01b03166105e0610ad2565b6001600160a01b031614806106015750610601816105fc610ad2565b610a68565b61063c5760405162461bcd60e51b81526004018080602001828103825260388152602001806111836038913960400191505060405180910390fd5b6106468383610ad6565b505050565b60035460ff1681565b61066561065f610ad2565b82610b44565b6106a05760405162461bcd60e51b815260040180806020018281038252603181526020018061128a6031913960400191505060405180910390fd5b610646838383610be8565b61064683838360405180602001604052806000815250610852565b6000818152600460205260408120546001600160a01b0316806104715760405162461bcd60e51b81526004018080602001828103825260298152602001806111e56029913960400191505060405180910390fd5b60088054604080516020601f60026000196101006001881615020190951694909404938401819004810282018101909252828152606093909290918301828280156105045780601f106104d957610100808354040283529160200191610504565b60006001600160a01b0382166107c25760405162461bcd60e51b815260040180806020018281038252602a8152602001806111bb602a913960400191505060405180910390fd5b506001600160a01b031660009081526005602052604090205490565b60028054604080516020601f60001961010060018716150201909416859004938401819004810282018101909252828152606093909290918301828280156105045780601f106104d957610100808354040283529160200191610504565b61084e610847610ad2565b8383610d1e565b5050565b61086361085d610ad2565b83610b44565b61089e5760405162461bcd60e51b815260040180806020018281038252603181526020018061128a6031913960400191505060405180910390fd5b6108aa84848484610df3565b50505050565b60606108bb82610ab5565b6108f65760405162461bcd60e51b815260040180806020018281038252602f81526020018061123a602f913960400191505060405180910390fd5b60088054604080516020601f60026000196101006001881615020190951694909404938401819004810282018101909252828152606093909290918301828280156109825780601f1061095757610100808354040283529160200191610982565b820191906000526020600020905b81548152906001019060200180831161096557829003601f168201915b5050505050905060008151116109a75760405180602001604052806000815250610a61565b806109b184610e45565b6040516020018083805190602001908083835b602083106109e35780518252601f1990920191602091820191016109c4565b51815160209384036101000a600019018019909216911617905285519190930192850191508083835b60208310610a2b5780518252601f199092019160209182019101610a0c565b6001836020036101000a038019825116818451168082178552505050505050905001925050506040516020818303038152906040525b9392505050565b6001600160a01b03918216600090815260076020908152604080832093909416825291909152205460ff1690565b6001600160e01b03191660009081526020819052604090205460ff1690565b6000908152600460205260409020546001600160a01b0316151590565b3390565b600081815260066020526040902080546001600160a01b0319166001600160a01b0384169081179091558190610b0b826106c6565b6001600160a01b03167f8c5be1e5ebec7d5bd14f71427d1e84f3dd0314c0f7b2291e5b200ac8c7c3b92560405160405180910390a45050565b6000610b4f82610ab5565b610b8a5760405162461bcd60e51b815260040180806020018281038252602c815260200180611157602c913960400191505060405180910390fd5b6000610b95836106c6565b9050806001600160a01b0316846001600160a01b03161480610bd05750836001600160a01b0316610bc58461050e565b6001600160a01b0316145b80610be05750610be08185610a68565b949350505050565b826001600160a01b0316610bfb826106c6565b6001600160a01b031614610c405760405162461bcd60e51b815260040180806020018281038252602581526020018061110e6025913960400191505060405180910390fd5b6001600160a01b038216610c855760405162461bcd60e51b81526004018080602001828103825260248152602001806111336024913960400191505060405180910390fd5b610c90838383610646565b610c9b600082610ad6565b6001600160a01b038084166000818152600560209081526040808320805460001901905593861680835284832080546001019055858352600490915283822080546001600160a01b031916821790559251849392917fddf252ad1be2c89b69c2b068fc378daa952ba7f163c4a11628f55a4df523b3ef91a4610646838383610646565b816001600160a01b0316836001600160a01b03161415610d85576040805162461bcd60e51b815260206004820152601960248201527f4552433732313a20617070726f766520746f2063616c6c657200000000000000604482015290519081900360640190fd5b6001600160a01b03838116600081815260076020908152604080832094871680845294825291829020805460ff1916861515908117909155825190815291517f17307eab39ab6107e8899845ad3d59bd9653f200f220920489ca2b5937696c319281900390910190a3505050565b610dfe848484610be8565b610e0a84848484610f20565b6108aa5760405162461bcd60e51b81526004018080602001828103825260328152602001806110dc6032913960400191505060405180910390fd5b606081610e6a57506040805180820190915260018152600360fc1b6020820152610474565b8160005b8115610e8257600101600a82049150610e6e565b60608167ffffffffffffffff81118015610e9b57600080fd5b506040519080825280601f01601f191660200182016040528015610ec6576020820181803683370190505b50859350905060001982015b8315610f1757600a840660300160f81b82828060019003935081518110610ef557fe5b60200101906001600160f81b031916908160001a905350600a84049350610ed2565b50949350505050565b6000610f34846001600160a01b03166110d5565b156110ca57836001600160a01b031663150b7a02610f50610ad2565b8786866040518563ffffffff1660e01b815260040180856001600160a01b03168152602001846001600160a01b0316815260200183815260200180602001828103825283818151815260200191508051906020019080838360005b83811015610fc3578181015183820152602001610fab565b50505050905090810190601f168015610ff05780820380516001836020036101000a031916815260200191505b5095505050505050602060405180830381600087803b15801561101257600080fd5b505af192505050801561103757506040513d602081101561103257600080fd5b505160015b6110b0573d808015611065576040519150601f19603f3d011682016040523d82523d6000602084013e61106a565b606091505b5080516110a85760405162461bcd60e51b81526004018080602001828103825260328152602001806110dc6032913960400191505060405180910390fd5b805181602001fd5b6001600160e01b031916630a85bd0160e11b149050610be0565b506001949350505050565b3b15159056fe4552433732313a207472616e7366657220746f206e6f6e20455243373231526563656976657220696d706c656d656e7465724552433732313a207472616e736665722066726f6d20696e636f7272656374206f776e65724552433732313a207472616e7366657220746f20746865207a65726f20616464726573734552433732313a206f70657261746f7220717565727920666f72206e6f6e6578697374656e7420746f6b656e4552433732313a20617070726f76652063616c6c6572206973206e6f74206f776e6572206e6f7220617070726f76656420666f7220616c6c4552433732313a2062616c616e636520717565727920666f7220746865207a65726f20616464726573734552433732313a206f776e657220717565727920666f72206e6f6e6578697374656e7420746f6b656e4552433732313a20617070726f76656420717565727920666f72206e6f6e6578697374656e7420746f6b656e4552433732314d657461646174613a2055524920717565727920666f72206e6f6e6578697374656e7420746f6b656e4552433732313a20617070726f76616c20746f2063757272656e74206f776e65724552433732313a207472616e736665722063616c6c6572206973206e6f74206f776e6572206e6f7220617070726f766564a26469706673582212207e7a618c3cee2f4900d059b415878c5606949da8f6abef98e77b0bb2825e4dc464736f6c63430007010033",
  "linkReferences": {},
  "deployedLinkReferences": {}
}