{
  "_format": "hh-sol-artifact-1",
  "contractName": "Tribes",
  "sourceName": "contracts/Tribes.sol",
  "abi": [
    {
      "inputs": [],
      "stateMutability": "nonpayable",
      "type": "constructor"
    },
    {
      "anonymous": false,
      "inputs": [
        {
          "indexed": false,
          "internalType": "uint256",
          "name": "tribeId",
          "type": "uint256"
        },
        {
          "indexed": false,
          "internalType": "address",
          "name": "newMember",
          "type": "address"
        }
      ],
      "name": "JoinedTribe",
      "type": "event"
    },
    {
      "anonymous": false,
      "inputs": [
        {
          "indexed": false,
          "internalType": "uint256",
          "name": "tribeId",
          "type": "uint256"
        },
        {
          "indexed": false,
          "internalType": "address",
          "name": "member",
          "type": "address"
        }
      ],
      "name": "LeftTribe",
      "type": "event"
    },
    {
      "anonymous": false,
      "inputs": [
        {
          "indexed": false,
          "internalType": "address",
          "name": "tenant",
          "type": "address"
        }
      ],
      "name": "NewTenantInstance",
      "type": "event"
    },
    {
      "anonymous": false,
      "inputs": [
        {
          "indexed": false,
          "internalType": "string",
          "name": "metadata",
          "type": "string"
        }
      ],
      "name": "NewTribeCreated",
      "type": "event"
    },
    {
      "inputs": [
        {
          "internalType": "string",
          "name": "metadata",
          "type": "string"
        }
      ],
      "name": "addNewTribe",
      "outputs": [],
      "stateMutability": "nonpayable",
      "type": "function"
    },
    {
      "inputs": [],
      "name": "createInstance",
      "outputs": [],
      "stateMutability": "nonpayable",
      "type": "function"
    },
    {
      "inputs": [
        {
          "internalType": "address",
          "name": "tenant",
          "type": "address"
        },
        {
          "internalType": "uint256",
          "name": "tribeId",
          "type": "uint256"
        }
      ],
      "name": "getTribeData",
      "outputs": [
        {
          "internalType": "string",
          "name": "",
          "type": "string"
        }
      ],
      "stateMutability": "view",
      "type": "function"
    },
    {
      "inputs": [
        {
          "internalType": "address",
          "name": "tenant",
          "type": "address"
        },
        {
          "internalType": "address",
          "name": "user",
          "type": "address"
        }
      ],
      "name": "getUserTribe",
      "outputs": [
        {
          "internalType": "uint256",
          "name": "",
          "type": "uint256"
        }
      ],
      "stateMutability": "view",
      "type": "function"
    },
    {
      "inputs": [
        {
          "internalType": "address",
          "name": "",
          "type": "address"
        }
      ],
      "name": "instance",
      "outputs": [
        {
          "internalType": "bool",
          "name": "",
          "type": "bool"
        }
      ],
      "stateMutability": "view",
      "type": "function"
    },
    {
      "inputs": [
        {
          "internalType": "address",
          "name": "tenant",
          "type": "address"
        },
        {
          "internalType": "uint256",
          "name": "tribeId",
          "type": "uint256"
        }
      ],
      "name": "joinTribe",
      "outputs": [],
      "stateMutability": "nonpayable",
      "type": "function"
    },
    {
      "inputs": [
        {
          "internalType": "address",
          "name": "tenant",
          "type": "address"
        }
      ],
      "name": "leaveTribe",
      "outputs": [],
      "stateMutability": "nonpayable",
      "type": "function"
    },
    {
      "inputs": [],
      "name": "metadata",
      "outputs": [
        {
          "internalType": "bytes",
          "name": "title",
          "type": "bytes"
        },
        {
          "components": [
            {
              "internalType": "address",
              "name": "authorAddress",
              "type": "address"
            },
            {
              "internalType": "string",
              "name": "externalLink",
              "type": "string"
            }
          ],
          "internalType": "struct IHyperverseModule.Author",
          "name": "author",
          "type": "tuple"
        },
        {
          "internalType": "bytes",
          "name": "version",
          "type": "bytes"
        },
        {
          "internalType": "uint64",
          "name": "publishedAt",
          "type": "uint64"
        },
        {
          "internalType": "bytes",
          "name": "externalLink",
          "type": "bytes"
        }
      ],
      "stateMutability": "view",
      "type": "function"
    },
    {
      "inputs": [],
      "name": "owner",
      "outputs": [
        {
          "internalType": "address",
          "name": "",
          "type": "address"
        }
      ],
      "stateMutability": "view",
      "type": "function"
    },
    {
      "inputs": [],
      "name": "tenantCount",
      "outputs": [
        {
          "internalType": "uint256",
          "name": "_value",
          "type": "uint256"
        }
      ],
      "stateMutability": "view",
      "type": "function"
    },
    {
      "inputs": [
        {
          "internalType": "address",
          "name": "",
          "type": "address"
        }
      ],
      "name": "tenants",
      "outputs": [
        {
          "components": [
            {
              "internalType": "uint256",
              "name": "_value",
              "type": "uint256"
            }
          ],
          "internalType": "struct Counters.Counter",
          "name": "tribeIds",
          "type": "tuple"
        }
      ],
      "stateMutability": "view",
      "type": "function"
    },
    {
      "inputs": [
        {
          "internalType": "address",
          "name": "tenant",
          "type": "address"
        }
      ],
      "name": "totalTribes",
      "outputs": [
        {
          "internalType": "uint256",
          "name": "",
          "type": "uint256"
        }
      ],
      "stateMutability": "view",
      "type": "function"
    }
  ],
  "bytecode": "0x60806040523480156200001157600080fd5b506040518060a001604052806040518060400160405280600681526020017f5472696265730000000000000000000000000000000000000000000000000000815250815260200160405180604001604052803373ffffffffffffffffffffffffffffffffffffffff1681526020016040518060400160405280601881526020017f68747470733a2f2f65787465726e616c6c696e6b2e6e6574000000000000000081525081525081526020016040518060400160405280600581526020017f302e302e31000000000000000000000000000000000000000000000000000000815250815260200165032a361e860667ffffffffffffffff1681526020016040518060400160405280601881526020017f68747470733a2f2f65787465726e616c4c696e6b2e6e65740000000000000000815250815250600080820151816000019080519060200190620001669291906200028f565b5060208201518160010160008201518160000160006101000a81548173ffffffffffffffffffffffffffffffffffffffff021916908373ffffffffffffffffffffffffffffffffffffffff1602179055506020820151816001019080519060200190620001d592919062000320565b5050506040820151816003019080519060200190620001f69291906200028f565b5060608201518160040160006101000a81548167ffffffffffffffff021916908367ffffffffffffffff1602179055506080820151816005019080519060200190620002449291906200028f565b5090505033600760006101000a81548173ffffffffffffffffffffffffffffffffffffffff021916908373ffffffffffffffffffffffffffffffffffffffff16021790555062000435565b8280546200029d90620003d0565b90600052602060002090601f016020900481019282620002c157600085556200030d565b82601f10620002dc57805160ff19168380011785556200030d565b828001600101855582156200030d579182015b828111156200030c578251825591602001919060010190620002ef565b5b5090506200031c9190620003b1565b5090565b8280546200032e90620003d0565b90600052602060002090601f0160209004810192826200035257600085556200039e565b82601f106200036d57805160ff19168380011785556200039e565b828001600101855582156200039e579182015b828111156200039d57825182559160200191906001019062000380565b5b509050620003ad9190620003b1565b5090565b5b80821115620003cc576000816000905550600101620003b2565b5090565b60006002820490506001821680620003e957607f821691505b602082108114156200040057620003ff62000406565b5b50919050565b7f4e487b7100000000000000000000000000000000000000000000000000000000600052602260045260246000fd5b61190c80620004456000396000f3fe608060405234801561001057600080fd5b50600436106100b45760003560e01c80638da5cb5b116100715780638da5cb5b1461017d578063aae9f2591461019b578063ad501467146101cb578063be51f4f8146101d5578063cf33d58814610205578063fd9153a314610235576100b4565b80631307430a146100b957806316d24710146100d75780633269c74e146100f357806333d03bcc1461010f578063392f37e91461013f5780636d019c9214610161575b600080fd5b6100c1610265565b6040516100ce91906114cf565b60405180910390f35b6100f160048036038101906100ec91906110c3565b610271565b005b61010d6004803603810190610108919061105e565b61046a565b005b6101296004803603810190610124919061105e565b610698565b60405161013691906114cf565b60405180910390f35b6101476106b5565b604051610158959493929190611383565b60405180910390f35b61017b600480360381019061017691906110ff565b610977565b005b610185610aa6565b604051610192919061134d565b60405180910390f35b6101b560048036038101906101b09190611087565b610acc565b6040516101c291906114cf565b60405180910390f35b6101d3610bb0565b005b6101ef60048036038101906101ea91906110c3565b610d1e565b6040516101fc91906113f2565b60405180910390f35b61021f600480360381019061021a919061105e565b610ddd565b60405161022c9190611368565b60405180910390f35b61024f600480360381019061024a919061105e565b610dfd565b60405161025c91906114b4565b60405180910390f35b60088060000154905081565b6000339050600061028184610e2f565b905060008160010160008473ffffffffffffffffffffffffffffffffffffffff1673ffffffffffffffffffffffffffffffffffffffff1681526020019081526020016000205414610307576040517f08c379a00000000000000000000000000000000000000000000000000000000081526004016102fe90611474565b60405180910390fd5b8261031482600201610f05565b1015610355576040517f08c379a000000000000000000000000000000000000000000000000000000000815260040161034c90611494565b60405180910390fd5b828160010160008473ffffffffffffffffffffffffffffffffffffffff1673ffffffffffffffffffffffffffffffffffffffff168152602001908152602001600020819055506000816000016000858152602001908152602001600020905060018160010160008573ffffffffffffffffffffffffffffffffffffffff1673ffffffffffffffffffffffffffffffffffffffff16815260200190815260200160002060006101000a81548160ff021916908315150217905550600181600201600082825461042391906115b2565b925050819055507f8e0fdde8512c413931ab05e9ae74b54525259ce920b11c355705e510829841db848460405161045b9291906114ea565b60405180910390a15050505050565b600061047582610e2f565b905060008160010160003373ffffffffffffffffffffffffffffffffffffffff1673ffffffffffffffffffffffffffffffffffffffff1681526020019081526020016000205414156104fc576040517f08c379a00000000000000000000000000000000000000000000000000000000081526004016104f390611414565b60405180910390fd5b60008160000160008360010160003373ffffffffffffffffffffffffffffffffffffffff1673ffffffffffffffffffffffffffffffffffffffff168152602001908152602001600020548152602001908152602001600020905060008260010160003373ffffffffffffffffffffffffffffffffffffffff1673ffffffffffffffffffffffffffffffffffffffff16815260200190815260200160002054905060008360010160003373ffffffffffffffffffffffffffffffffffffffff1673ffffffffffffffffffffffffffffffffffffffff1681526020019081526020016000208190555060008260010160003373ffffffffffffffffffffffffffffffffffffffff1673ffffffffffffffffffffffffffffffffffffffff16815260200190815260200160002060006101000a81548160ff02191690831515021790555060018260020160008282546106529190611608565b925050819055507fbeae83c5a8a13a5d2a71926ba1055d7a1d9de899e96f7244654799627236644d813360405161068a9291906114ea565b60405180910390a150505050565b60006106ae6106a683610e2f565b600201610f05565b9050919050565b60008060000180546106c6906116da565b80601f01602080910402602001604051908101604052809291908181526020018280546106f2906116da565b801561073f5780601f106107145761010080835404028352916020019161073f565b820191906000526020600020905b81548152906001019060200180831161072257829003601f168201915b505050505090806001016040518060400160405290816000820160009054906101000a900473ffffffffffffffffffffffffffffffffffffffff1673ffffffffffffffffffffffffffffffffffffffff1673ffffffffffffffffffffffffffffffffffffffff1681526020016001820180546107ba906116da565b80601f01602080910402602001604051908101604052809291908181526020018280546107e6906116da565b80156108335780601f1061080857610100808354040283529160200191610833565b820191906000526020600020905b81548152906001019060200180831161081657829003601f168201915b5050505050815250509080600301805461084c906116da565b80601f0160208091040260200160405190810160405280929190818152602001828054610878906116da565b80156108c55780601f1061089a576101008083540402835291602001916108c5565b820191906000526020600020905b8154815290600101906020018083116108a857829003601f168201915b5050505050908060040160009054906101000a900467ffffffffffffffff16908060050180546108f4906116da565b80601f0160208091040260200160405190810160405280929190818152602001828054610920906116da565b801561096d5780601f106109425761010080835404028352916020019161096d565b820191906000526020600020905b81548152906001019060200180831161095057829003601f168201915b5050505050905085565b33600a60008273ffffffffffffffffffffffffffffffffffffffff1673ffffffffffffffffffffffffffffffffffffffff16815260200190815260200160002060009054906101000a900460ff16610a04576040517f08c379a00000000000000000000000000000000000000000000000000000000081526004016109fb90611434565b60405180910390fd5b6000610a0f33610e2f565b9050610a1d81600201610f13565b6000610a2b82600201610f05565b90506000826000016000838152602001908152602001600020905084816000019080519060200190610a5e929190610f29565b508181600301819055507f2d06fe5eff482a0b08e70bd38f111a1a397e6952391bdc714df3eacb735b354c85604051610a9791906113f2565b60405180910390a15050505050565b600760009054906101000a900473ffffffffffffffffffffffffffffffffffffffff1681565b600080610ad884610e2f565b905060008160010160008573ffffffffffffffffffffffffffffffffffffffff1673ffffffffffffffffffffffffffffffffffffffff168152602001908152602001600020541415610b5f576040517f08c379a0000000000000000000000000000000000000000000000000000000008152600401610b5690611414565b60405180910390fd5b60008160010160008573ffffffffffffffffffffffffffffffffffffffff1673ffffffffffffffffffffffffffffffffffffffff168152602001908152602001600020549050809250505092915050565b60001515600a60003373ffffffffffffffffffffffffffffffffffffffff1673ffffffffffffffffffffffffffffffffffffffff16815260200190815260200160002060009054906101000a900460ff16151514610c43576040517f08c379a0000000000000000000000000000000000000000000000000000000008152600401610c3a90611454565b60405180910390fd5b600960003373ffffffffffffffffffffffffffffffffffffffff1673ffffffffffffffffffffffffffffffffffffffff168152602001908152602001600020506001600a60003373ffffffffffffffffffffffffffffffffffffffff1673ffffffffffffffffffffffffffffffffffffffff16815260200190815260200160002060006101000a81548160ff021916908315150217905550610ce56008610f13565b7fa7c4d74046e6121f6c1f91b52d5af6460c49a30ba0cb5920a2dd4434af77933a33604051610d14919061134d565b60405180910390a1565b60606000610d2b84610e2f565b905060008160000160008581526020019081526020016000209050806000018054610d55906116da565b80601f0160208091040260200160405190810160405280929190818152602001828054610d81906116da565b8015610dce5780601f10610da357610100808354040283529160200191610dce565b820191906000526020600020905b815481529060010190602001808311610db157829003601f168201915b50505050509250505092915050565b600a6020528060005260406000206000915054906101000a900460ff1681565b600960205280600052604060002060009150905080600201604051806020016040529081600082015481525050905081565b600081600a60008273ffffffffffffffffffffffffffffffffffffffff1673ffffffffffffffffffffffffffffffffffffffff16815260200190815260200160002060009054906101000a900460ff16610ebe576040517f08c379a0000000000000000000000000000000000000000000000000000000008152600401610eb590611434565b60405180910390fd5b600960008473ffffffffffffffffffffffffffffffffffffffff1673ffffffffffffffffffffffffffffffffffffffff168152602001908152602001600020915050919050565b600081600001549050919050565b6001816000016000828254019250508190555050565b828054610f35906116da565b90600052602060002090601f016020900481019282610f575760008555610f9e565b82601f10610f7057805160ff1916838001178555610f9e565b82800160010185558215610f9e579182015b82811115610f9d578251825591602001919060010190610f82565b5b509050610fab9190610faf565b5090565b5b80821115610fc8576000816000905550600101610fb0565b5090565b6000610fdf610fda84611538565b611513565b905082815260208101848484011115610ff757600080fd5b611002848285611698565b509392505050565b600081359050611019816118a8565b92915050565b600082601f83011261103057600080fd5b8135611040848260208601610fcc565b91505092915050565b600081359050611058816118bf565b92915050565b60006020828403121561107057600080fd5b600061107e8482850161100a565b91505092915050565b6000806040838503121561109a57600080fd5b60006110a88582860161100a565b92505060206110b98582860161100a565b9150509250929050565b600080604083850312156110d657600080fd5b60006110e48582860161100a565b92505060206110f585828601611049565b9150509250929050565b60006020828403121561111157600080fd5b600082013567ffffffffffffffff81111561112b57600080fd5b6111378482850161101f565b91505092915050565b6111498161163c565b82525050565b6111588161163c565b82525050565b6111678161164e565b82525050565b600061117882611569565b611182818561157f565b93506111928185602086016116a7565b61119b816117ca565b840191505092915050565b60006111b182611574565b6111bb8185611590565b93506111cb8185602086016116a7565b6111d4816117ca565b840191505092915050565b60006111ea82611574565b6111f481856115a1565b93506112048185602086016116a7565b61120d816117ca565b840191505092915050565b6000611225601e836115a1565b9150611230826117db565b602082019050919050565b60006112486020836115a1565b915061125382611804565b602082019050919050565b600061126b601c836115a1565b91506112768261182d565b602082019050919050565b600061128e601b836115a1565b915061129982611856565b602082019050919050565b60006112b16014836115a1565b91506112bc8261187f565b602082019050919050565b60006040830160008301516112df6000860182611140565b50602083015184820360208601526112f782826111a6565b9150508091505092915050565b60208201600082015161131a6000850182611320565b50505050565b6113298161167a565b82525050565b6113388161167a565b82525050565b61134781611684565b82525050565b6000602082019050611362600083018461114f565b92915050565b600060208201905061137d600083018461115e565b92915050565b600060a082019050818103600083015261139d818861116d565b905081810360208301526113b181876112c7565b905081810360408301526113c5818661116d565b90506113d4606083018561133e565b81810360808301526113e6818461116d565b90509695505050505050565b6000602082019050818103600083015261140c81846111df565b905092915050565b6000602082019050818103600083015261142d81611218565b9050919050565b6000602082019050818103600083015261144d8161123b565b9050919050565b6000602082019050818103600083015261146d8161125e565b9050919050565b6000602082019050818103600083015261148d81611281565b9050919050565b600060208201905081810360008301526114ad816112a4565b9050919050565b60006020820190506114c96000830184611304565b92915050565b60006020820190506114e4600083018461132f565b92915050565b60006040820190506114ff600083018561132f565b61150c602083018461114f565b9392505050565b600061151d61152e565b9050611529828261170c565b919050565b6000604051905090565b600067ffffffffffffffff8211156115535761155261179b565b5b61155c826117ca565b9050602081019050919050565b600081519050919050565b600081519050919050565b600082825260208201905092915050565b600082825260208201905092915050565b600082825260208201905092915050565b60006115bd8261167a565b91506115c88361167a565b9250827fffffffffffffffffffffffffffffffffffffffffffffffffffffffffffffffff038211156115fd576115fc61173d565b5b828201905092915050565b60006116138261167a565b915061161e8361167a565b9250828210156116315761163061173d565b5b828203905092915050565b60006116478261165a565b9050919050565b60008115159050919050565b600073ffffffffffffffffffffffffffffffffffffffff82169050919050565b6000819050919050565b600067ffffffffffffffff82169050919050565b82818337600083830152505050565b60005b838110156116c55780820151818401526020810190506116aa565b838111156116d4576000848401525b50505050565b600060028204905060018216806116f257607f821691505b602082108114156117065761170561176c565b5b50919050565b611715826117ca565b810181811067ffffffffffffffff821117156117345761173361179b565b5b80604052505050565b7f4e487b7100000000000000000000000000000000000000000000000000000000600052601160045260246000fd5b7f4e487b7100000000000000000000000000000000000000000000000000000000600052602260045260246000fd5b7f4e487b7100000000000000000000000000000000000000000000000000000000600052604160045260246000fd5b6000601f19601f8301169050919050565b7f54686973206d656d626572206973206e6f7420696e2061205472696265210000600082015250565b7f54656e616e7420646f6573206e6f74206861766520616e20696e7374616e6365600082015250565b7f596f7520616c7265616479206861766520616e20696e7374616e636500000000600082015250565b7f5573657220697320616c726561647920696e2061205472696265210000000000600082015250565b7f547269626520646f6573206e6f74206578697374000000000000000000000000600082015250565b6118b18161163c565b81146118bc57600080fd5b50565b6118c88161167a565b81146118d357600080fd5b5056fea2646970667358221220ebe031daa7895c6bbfbbc341e12d1c27c4ddaf19caf64e15506af591a7e70f1364736f6c63430008040033",
  "linkReferences": {},
  "deployedLinkReferences": {}
}