{
  "contracts/FluidNFTFactory.sol": {
    "FluidNFTFactory": {
      "abi": [
        {
          "inputs": [
            {
              "internalType": "address",
              "name": "_masterContract",
              "type": "address"
            }
          ],
          "stateMutability": "nonpayable",
          "type": "constructor"
        },
        {
          "inputs": [
            {
              "internalType": "string",
              "name": "name",
              "type": "string"
            },
            {
              "internalType": "string",
              "name": "symbol",
              "type": "string"
            },
            {
              "internalType": "contract ISuperfluid",
              "name": "host",
              "type": "address"
            },
            {
              "internalType": "contract IConstantFlowAgreementV1",
              "name": "cfa",
              "type": "address"
            },
            {
              "internalType": "contract ISuperToken",
              "name": "acceptedToken",
              "type": "address"
            }
          ],
          "name": "createInstance",
          "outputs": [],
          "stateMutability": "nonpayable",
          "type": "function"
        },
        {
          "inputs": [
            {
              "internalType": "address",
              "name": "_tenant",
              "type": "address"
            }
          ],
          "name": "getProxy",
          "outputs": [
            {
              "internalType": "contract FluidNFT",
              "name": "",
              "type": "address"
            }
          ],
          "stateMutability": "view",
          "type": "function"
        },
        {
          "inputs": [],
          "name": "masterContract",
          "outputs": [
            {
              "internalType": "address",
              "name": "",
              "type": "address"
            }
          ],
          "stateMutability": "view",
          "type": "function"
        },
        {
          "inputs": [
            {
              "internalType": "address",
              "name": "",
              "type": "address"
            }
          ],
          "name": "tenants",
          "outputs": [
            {
              "internalType": "contract FluidNFT",
              "name": "nft",
              "type": "address"
            },
            {
              "internalType": "address",
              "name": "owner",
              "type": "address"
            }
          ],
          "stateMutability": "view",
          "type": "function"
        }
      ],
      "evm": {
        "bytecode": {
          "linkReferences": {},
          "object": "60a0604052600180546001600160a01b03191673d847c7408c48b6b6720cca75eb30a93acbf5163d17905534801561003657600080fd5b506040516105623803806105628339810160408190526100559161006a565b60601b6001600160601b031916608052610098565b60006020828403121561007b578081fd5b81516001600160a01b0381168114610091578182fd5b9392505050565b60805160601c6104a96100b96000398060c052806101b352506104a96000f3fe608060405234801561001057600080fd5b506004361061004c5760003560e01c806319160fbf14610051578063b7fba4d314610066578063cd446e221461008f578063fd9153a314610097575b600080fd5b61006461005f3660046102ee565b6100b8565b005b6100796100743660046102cb565b610193565b60405161008691906103d4565b60405180910390f35b6100796101b1565b6100aa6100a53660046102cb565b6101d5565b6040516100869291906103e8565b3360006100e47f00000000000000000000000000000000000000000000000000000000000000006101fb565b604051630a30735b60e41b81529091506001600160a01b0382169063a30735b09061011d908a908a9087908b908b908b90600401610402565b600060405180830381600087803b15801561013757600080fd5b505af115801561014b573d6000803e3d6000fd5b5050506001600160a01b0392831660008181526020819052604090208054939094166001600160a01b0319938416178455600190930180549092169092179055505050505050565b6001600160a01b039081166000908152602081905260409020541690565b7f000000000000000000000000000000000000000000000000000000000000000081565b600060208190529081526040902080546001909101546001600160a01b03918216911682565b6000808260601b9050604051733d602d80600a3d3981f3363d3d373d3d3d363d7360601b81528160148201526e5af43d82803e903d91602b57fd5bf360881b60288201526037816000f0949350505050565b600082601f83011261025d578081fd5b813567ffffffffffffffff80821115610274578283fd5b604051601f8301601f191681016020018281118282101715610294578485fd5b6040528281529250828483016020018610156102af57600080fd5b8260208601602083013760006020848301015250505092915050565b6000602082840312156102dc578081fd5b81356102e78161045b565b9392505050565b600080600080600060a08688031215610305578081fd5b853567ffffffffffffffff8082111561031c578283fd5b61032889838a0161024d565b9650602088013591508082111561033d578283fd5b5061034a8882890161024d565b945050604086013561035b8161045b565b9250606086013561036b8161045b565b9150608086013561037b8161045b565b809150509295509295909350565b60008151808452815b818110156103ae57602081850181015186830182015201610392565b818111156103bf5782602083870101525b50601f01601f19169290920160200192915050565b6001600160a01b0391909116815260200190565b6001600160a01b0392831681529116602082015260400190565b600060c0825261041560c0830189610389565b82810360208401526104278189610389565b6001600160a01b03978816604085015295871660608401525050918416608083015290921660a09092019190915292915050565b6001600160a01b038116811461047057600080fd5b5056fea26469706673582212203dbe5c6e1bf2dc90da79f97c16d11dddfe2e27045116cc80705de83494772a3664736f6c63430007010033",
          "opcodes": "PUSH1 0xA0 PUSH1 0x40 MSTORE PUSH1 0x1 DUP1 SLOAD PUSH1 0x1 PUSH1 0x1 PUSH1 0xA0 SHL SUB NOT AND PUSH20 0xD847C7408C48B6B6720CCA75EB30A93ACBF5163D OR SWAP1 SSTORE CALLVALUE DUP1 ISZERO PUSH2 0x36 JUMPI PUSH1 0x0 DUP1 REVERT JUMPDEST POP PUSH1 0x40 MLOAD PUSH2 0x562 CODESIZE SUB DUP1 PUSH2 0x562 DUP4 CODECOPY DUP2 ADD PUSH1 0x40 DUP2 SWAP1 MSTORE PUSH2 0x55 SWAP2 PUSH2 0x6A JUMP JUMPDEST PUSH1 0x60 SHL PUSH1 0x1 PUSH1 0x1 PUSH1 0x60 SHL SUB NOT AND PUSH1 0x80 MSTORE PUSH2 0x98 JUMP JUMPDEST PUSH1 0x0 PUSH1 0x20 DUP3 DUP5 SUB SLT ISZERO PUSH2 0x7B JUMPI DUP1 DUP2 REVERT JUMPDEST DUP2 MLOAD PUSH1 0x1 PUSH1 0x1 PUSH1 0xA0 SHL SUB DUP2 AND DUP2 EQ PUSH2 0x91 JUMPI DUP2 DUP3 REVERT JUMPDEST SWAP4 SWAP3 POP POP POP JUMP JUMPDEST PUSH1 0x80 MLOAD PUSH1 0x60 SHR PUSH2 0x4A9 PUSH2 0xB9 PUSH1 0x0 CODECOPY DUP1 PUSH1 0xC0 MSTORE DUP1 PUSH2 0x1B3 MSTORE POP PUSH2 0x4A9 PUSH1 0x0 RETURN INVALID PUSH1 0x80 PUSH1 0x40 MSTORE CALLVALUE DUP1 ISZERO PUSH2 0x10 JUMPI PUSH1 0x0 DUP1 REVERT JUMPDEST POP PUSH1 0x4 CALLDATASIZE LT PUSH2 0x4C JUMPI PUSH1 0x0 CALLDATALOAD PUSH1 0xE0 SHR DUP1 PUSH4 0x19160FBF EQ PUSH2 0x51 JUMPI DUP1 PUSH4 0xB7FBA4D3 EQ PUSH2 0x66 JUMPI DUP1 PUSH4 0xCD446E22 EQ PUSH2 0x8F JUMPI DUP1 PUSH4 0xFD9153A3 EQ PUSH2 0x97 JUMPI JUMPDEST PUSH1 0x0 DUP1 REVERT JUMPDEST PUSH2 0x64 PUSH2 0x5F CALLDATASIZE PUSH1 0x4 PUSH2 0x2EE JUMP JUMPDEST PUSH2 0xB8 JUMP JUMPDEST STOP JUMPDEST PUSH2 0x79 PUSH2 0x74 CALLDATASIZE PUSH1 0x4 PUSH2 0x2CB JUMP JUMPDEST PUSH2 0x193 JUMP JUMPDEST PUSH1 0x40 MLOAD PUSH2 0x86 SWAP2 SWAP1 PUSH2 0x3D4 JUMP JUMPDEST PUSH1 0x40 MLOAD DUP1 SWAP2 SUB SWAP1 RETURN JUMPDEST PUSH2 0x79 PUSH2 0x1B1 JUMP JUMPDEST PUSH2 0xAA PUSH2 0xA5 CALLDATASIZE PUSH1 0x4 PUSH2 0x2CB JUMP JUMPDEST PUSH2 0x1D5 JUMP JUMPDEST PUSH1 0x40 MLOAD PUSH2 0x86 SWAP3 SWAP2 SWAP1 PUSH2 0x3E8 JUMP JUMPDEST CALLER PUSH1 0x0 PUSH2 0xE4 PUSH32 0x0 PUSH2 0x1FB JUMP JUMPDEST PUSH1 0x40 MLOAD PUSH4 0xA30735B PUSH1 0xE4 SHL DUP2 MSTORE SWAP1 SWAP2 POP PUSH1 0x1 PUSH1 0x1 PUSH1 0xA0 SHL SUB DUP3 AND SWAP1 PUSH4 0xA30735B0 SWAP1 PUSH2 0x11D SWAP1 DUP11 SWAP1 DUP11 SWAP1 DUP8 SWAP1 DUP12 SWAP1 DUP12 SWAP1 DUP12 SWAP1 PUSH1 0x4 ADD PUSH2 0x402 JUMP JUMPDEST PUSH1 0x0 PUSH1 0x40 MLOAD DUP1 DUP4 SUB DUP2 PUSH1 0x0 DUP8 DUP1 EXTCODESIZE ISZERO DUP1 ISZERO PUSH2 0x137 JUMPI PUSH1 0x0 DUP1 REVERT JUMPDEST POP GAS CALL ISZERO DUP1 ISZERO PUSH2 0x14B JUMPI RETURNDATASIZE PUSH1 0x0 DUP1 RETURNDATACOPY RETURNDATASIZE PUSH1 0x0 REVERT JUMPDEST POP POP POP PUSH1 0x1 PUSH1 0x1 PUSH1 0xA0 SHL SUB SWAP3 DUP4 AND PUSH1 0x0 DUP2 DUP2 MSTORE PUSH1 0x20 DUP2 SWAP1 MSTORE PUSH1 0x40 SWAP1 KECCAK256 DUP1 SLOAD SWAP4 SWAP1 SWAP5 AND PUSH1 0x1 PUSH1 0x1 PUSH1 0xA0 SHL SUB NOT SWAP4 DUP5 AND OR DUP5 SSTORE PUSH1 0x1 SWAP1 SWAP4 ADD DUP1 SLOAD SWAP1 SWAP3 AND SWAP1 SWAP3 OR SWAP1 SSTORE POP POP POP POP POP POP JUMP JUMPDEST PUSH1 0x1 PUSH1 0x1 PUSH1 0xA0 SHL SUB SWAP1 DUP2 AND PUSH1 0x0 SWAP1 DUP2 MSTORE PUSH1 0x20 DUP2 SWAP1 MSTORE PUSH1 0x40 SWAP1 KECCAK256 SLOAD AND SWAP1 JUMP JUMPDEST PUSH32 0x0 DUP2 JUMP JUMPDEST PUSH1 0x0 PUSH1 0x20 DUP2 SWAP1 MSTORE SWAP1 DUP2 MSTORE PUSH1 0x40 SWAP1 KECCAK256 DUP1 SLOAD PUSH1 0x1 SWAP1 SWAP2 ADD SLOAD PUSH1 0x1 PUSH1 0x1 PUSH1 0xA0 SHL SUB SWAP2 DUP3 AND SWAP2 AND DUP3 JUMP JUMPDEST PUSH1 0x0 DUP1 DUP3 PUSH1 0x60 SHL SWAP1 POP PUSH1 0x40 MLOAD PUSH20 0x3D602D80600A3D3981F3363D3D373D3D3D363D73 PUSH1 0x60 SHL DUP2 MSTORE DUP2 PUSH1 0x14 DUP3 ADD MSTORE PUSH15 0x5AF43D82803E903D91602B57FD5BF3 PUSH1 0x88 SHL PUSH1 0x28 DUP3 ADD MSTORE PUSH1 0x37 DUP2 PUSH1 0x0 CREATE SWAP5 SWAP4 POP POP POP POP JUMP JUMPDEST PUSH1 0x0 DUP3 PUSH1 0x1F DUP4 ADD SLT PUSH2 0x25D JUMPI DUP1 DUP2 REVERT JUMPDEST DUP2 CALLDATALOAD PUSH8 0xFFFFFFFFFFFFFFFF DUP1 DUP3 GT ISZERO PUSH2 0x274 JUMPI DUP3 DUP4 REVERT JUMPDEST PUSH1 0x40 MLOAD PUSH1 0x1F DUP4 ADD PUSH1 0x1F NOT AND DUP2 ADD PUSH1 0x20 ADD DUP3 DUP2 GT DUP3 DUP3 LT OR ISZERO PUSH2 0x294 JUMPI DUP5 DUP6 REVERT JUMPDEST PUSH1 0x40 MSTORE DUP3 DUP2 MSTORE SWAP3 POP DUP3 DUP5 DUP4 ADD PUSH1 0x20 ADD DUP7 LT ISZERO PUSH2 0x2AF JUMPI PUSH1 0x0 DUP1 REVERT JUMPDEST DUP3 PUSH1 0x20 DUP7 ADD PUSH1 0x20 DUP4 ADD CALLDATACOPY PUSH1 0x0 PUSH1 0x20 DUP5 DUP4 ADD ADD MSTORE POP POP POP SWAP3 SWAP2 POP POP JUMP JUMPDEST PUSH1 0x0 PUSH1 0x20 DUP3 DUP5 SUB SLT ISZERO PUSH2 0x2DC JUMPI DUP1 DUP2 REVERT JUMPDEST DUP2 CALLDATALOAD PUSH2 0x2E7 DUP2 PUSH2 0x45B JUMP JUMPDEST SWAP4 SWAP3 POP POP POP JUMP JUMPDEST PUSH1 0x0 DUP1 PUSH1 0x0 DUP1 PUSH1 0x0 PUSH1 0xA0 DUP7 DUP9 SUB SLT ISZERO PUSH2 0x305 JUMPI DUP1 DUP2 REVERT JUMPDEST DUP6 CALLDATALOAD PUSH8 0xFFFFFFFFFFFFFFFF DUP1 DUP3 GT ISZERO PUSH2 0x31C JUMPI DUP3 DUP4 REVERT JUMPDEST PUSH2 0x328 DUP10 DUP4 DUP11 ADD PUSH2 0x24D JUMP JUMPDEST SWAP7 POP PUSH1 0x20 DUP9 ADD CALLDATALOAD SWAP2 POP DUP1 DUP3 GT ISZERO PUSH2 0x33D JUMPI DUP3 DUP4 REVERT JUMPDEST POP PUSH2 0x34A DUP9 DUP3 DUP10 ADD PUSH2 0x24D JUMP JUMPDEST SWAP5 POP POP PUSH1 0x40 DUP7 ADD CALLDATALOAD PUSH2 0x35B DUP2 PUSH2 0x45B JUMP JUMPDEST SWAP3 POP PUSH1 0x60 DUP7 ADD CALLDATALOAD PUSH2 0x36B DUP2 PUSH2 0x45B JUMP JUMPDEST SWAP2 POP PUSH1 0x80 DUP7 ADD CALLDATALOAD PUSH2 0x37B DUP2 PUSH2 0x45B JUMP JUMPDEST DUP1 SWAP2 POP POP SWAP3 SWAP6 POP SWAP3 SWAP6 SWAP1 SWAP4 POP JUMP JUMPDEST PUSH1 0x0 DUP2 MLOAD DUP1 DUP5 MSTORE DUP2 JUMPDEST DUP2 DUP2 LT ISZERO PUSH2 0x3AE JUMPI PUSH1 0x20 DUP2 DUP6 ADD DUP2 ADD MLOAD DUP7 DUP4 ADD DUP3 ADD MSTORE ADD PUSH2 0x392 JUMP JUMPDEST DUP2 DUP2 GT ISZERO PUSH2 0x3BF JUMPI DUP3 PUSH1 0x20 DUP4 DUP8 ADD ADD MSTORE JUMPDEST POP PUSH1 0x1F ADD PUSH1 0x1F NOT AND SWAP3 SWAP1 SWAP3 ADD PUSH1 0x20 ADD SWAP3 SWAP2 POP POP JUMP JUMPDEST PUSH1 0x1 PUSH1 0x1 PUSH1 0xA0 SHL SUB SWAP2 SWAP1 SWAP2 AND DUP2 MSTORE PUSH1 0x20 ADD SWAP1 JUMP JUMPDEST PUSH1 0x1 PUSH1 0x1 PUSH1 0xA0 SHL SUB SWAP3 DUP4 AND DUP2 MSTORE SWAP2 AND PUSH1 0x20 DUP3 ADD MSTORE PUSH1 0x40 ADD SWAP1 JUMP JUMPDEST PUSH1 0x0 PUSH1 0xC0 DUP3 MSTORE PUSH2 0x415 PUSH1 0xC0 DUP4 ADD DUP10 PUSH2 0x389 JUMP JUMPDEST DUP3 DUP2 SUB PUSH1 0x20 DUP5 ADD MSTORE PUSH2 0x427 DUP2 DUP10 PUSH2 0x389 JUMP JUMPDEST PUSH1 0x1 PUSH1 0x1 PUSH1 0xA0 SHL SUB SWAP8 DUP9 AND PUSH1 0x40 DUP6 ADD MSTORE SWAP6 DUP8 AND PUSH1 0x60 DUP5 ADD MSTORE POP POP SWAP2 DUP5 AND PUSH1 0x80 DUP4 ADD MSTORE SWAP1 SWAP3 AND PUSH1 0xA0 SWAP1 SWAP3 ADD SWAP2 SWAP1 SWAP2 MSTORE SWAP3 SWAP2 POP POP JUMP JUMPDEST PUSH1 0x1 PUSH1 0x1 PUSH1 0xA0 SHL SUB DUP2 AND DUP2 EQ PUSH2 0x470 JUMPI PUSH1 0x0 DUP1 REVERT JUMPDEST POP JUMP INVALID LOG2 PUSH5 0x6970667358 0x22 SLT KECCAK256 RETURNDATASIZE 0xBE 0x5C PUSH15 0x1BF2DC90DA79F97C16D11DDDFE2E27 DIV MLOAD AND 0xCC DUP1 PUSH17 0x5DE83494772A3664736F6C634300070100 CALLER "
        },
        "methodIdentifiers": {
          "createInstance(string,string,address,address,address)": "19160fbf",
          "getProxy(address)": "b7fba4d3",
          "masterContract()": "cd446e22",
          "tenants(address)": "fd9153a3"
        }
      }
    }
  }
}