{
  "_format": "hh-sol-artifact-1",
  "contractName": "NFT",
  "sourceName": "contracts/NFT.sol",
  "abi": [
    {
      "inputs": [],
      "stateMutability": "nonpayable",
      "type": "constructor"
    },
    {
      "anonymous": false,
      "inputs": [
        {
          "indexed": true,
          "internalType": "address",
          "name": "owner",
          "type": "address"
        },
        {
          "indexed": true,
          "internalType": "address",
          "name": "approved",
          "type": "address"
        },
        {
          "indexed": true,
          "internalType": "uint256",
          "name": "tokenId",
          "type": "uint256"
        }
      ],
      "name": "Approval",
      "type": "event"
    },
    {
      "anonymous": false,
      "inputs": [
        {
          "indexed": true,
          "internalType": "address",
          "name": "owner",
          "type": "address"
        },
        {
          "indexed": true,
          "internalType": "address",
          "name": "operator",
          "type": "address"
        },
        {
          "indexed": false,
          "internalType": "bool",
          "name": "approved",
          "type": "bool"
        }
      ],
      "name": "ApprovalForAll",
      "type": "event"
    },
    {
      "anonymous": false,
      "inputs": [
        {
          "indexed": true,
          "internalType": "address",
          "name": "from",
          "type": "address"
        },
        {
          "indexed": true,
          "internalType": "address",
          "name": "to",
          "type": "address"
        },
        {
          "indexed": true,
          "internalType": "uint256",
          "name": "tokenId",
          "type": "uint256"
        }
      ],
      "name": "Transfer",
      "type": "event"
    },
    {
      "inputs": [
        {
          "internalType": "address",
          "name": "to",
          "type": "address"
        },
        {
          "internalType": "uint256",
          "name": "tokenId",
          "type": "uint256"
        }
      ],
      "name": "approve",
      "outputs": [],
      "stateMutability": "nonpayable",
      "type": "function"
    },
    {
      "inputs": [
        {
          "internalType": "address",
          "name": "owner",
          "type": "address"
        }
      ],
      "name": "balanceOf",
      "outputs": [
        {
          "internalType": "uint256",
          "name": "",
          "type": "uint256"
        }
      ],
      "stateMutability": "view",
      "type": "function"
    },
    {
      "inputs": [],
      "name": "contractOwner",
      "outputs": [
        {
          "internalType": "address",
          "name": "",
          "type": "address"
        }
      ],
      "stateMutability": "view",
      "type": "function"
    },
    {
      "inputs": [
        {
          "internalType": "address",
          "name": "to",
          "type": "address"
        }
      ],
      "name": "createNFT",
      "outputs": [
        {
          "internalType": "uint256",
          "name": "",
          "type": "uint256"
        }
      ],
      "stateMutability": "nonpayable",
      "type": "function"
    },
    {
      "inputs": [
        {
          "internalType": "uint256",
          "name": "tokenId",
          "type": "uint256"
        }
      ],
      "name": "getApproved",
      "outputs": [
        {
          "internalType": "address",
          "name": "",
          "type": "address"
        }
      ],
      "stateMutability": "view",
      "type": "function"
    },
    {
      "inputs": [
        {
          "internalType": "string",
          "name": "name_",
          "type": "string"
        },
        {
          "internalType": "string",
          "name": "symbol_",
          "type": "string"
        },
        {
          "internalType": "address",
          "name": "_tenant",
          "type": "address"
        }
      ],
      "name": "init",
      "outputs": [],
      "stateMutability": "nonpayable",
      "type": "function"
    },
    {
      "inputs": [],
      "name": "initialized",
      "outputs": [
        {
          "internalType": "bool",
          "name": "",
          "type": "bool"
        }
      ],
      "stateMutability": "view",
      "type": "function"
    },
    {
      "inputs": [
        {
          "internalType": "address",
          "name": "owner",
          "type": "address"
        },
        {
          "internalType": "address",
          "name": "operator",
          "type": "address"
        }
      ],
      "name": "isApprovedForAll",
      "outputs": [
        {
          "internalType": "bool",
          "name": "",
          "type": "bool"
        }
      ],
      "stateMutability": "view",
      "type": "function"
    },
    {
      "inputs": [],
      "name": "name",
      "outputs": [
        {
          "internalType": "string",
          "name": "",
          "type": "string"
        }
      ],
      "stateMutability": "view",
      "type": "function"
    },
    {
      "inputs": [
        {
          "internalType": "uint256",
          "name": "tokenId",
          "type": "uint256"
        }
      ],
      "name": "ownerOf",
      "outputs": [
        {
          "internalType": "address",
          "name": "",
          "type": "address"
        }
      ],
      "stateMutability": "view",
      "type": "function"
    },
    {
      "inputs": [
        {
          "internalType": "address",
          "name": "from",
          "type": "address"
        },
        {
          "internalType": "address",
          "name": "to",
          "type": "address"
        },
        {
          "internalType": "uint256",
          "name": "tokenId",
          "type": "uint256"
        }
      ],
      "name": "safeTransferFrom",
      "outputs": [],
      "stateMutability": "nonpayable",
      "type": "function"
    },
    {
      "inputs": [
        {
          "internalType": "address",
          "name": "from",
          "type": "address"
        },
        {
          "internalType": "address",
          "name": "to",
          "type": "address"
        },
        {
          "internalType": "uint256",
          "name": "tokenId",
          "type": "uint256"
        },
        {
          "internalType": "bytes",
          "name": "_data",
          "type": "bytes"
        }
      ],
      "name": "safeTransferFrom",
      "outputs": [],
      "stateMutability": "nonpayable",
      "type": "function"
    },
    {
      "inputs": [
        {
          "internalType": "address",
          "name": "operator",
          "type": "address"
        },
        {
          "internalType": "bool",
          "name": "approved",
          "type": "bool"
        }
      ],
      "name": "setApprovalForAll",
      "outputs": [],
      "stateMutability": "nonpayable",
      "type": "function"
    },
    {
      "inputs": [
        {
          "internalType": "bytes4",
          "name": "interfaceId",
          "type": "bytes4"
        }
      ],
      "name": "supportsInterface",
      "outputs": [
        {
          "internalType": "bool",
          "name": "",
          "type": "bool"
        }
      ],
      "stateMutability": "view",
      "type": "function"
    },
    {
      "inputs": [],
      "name": "symbol",
      "outputs": [
        {
          "internalType": "string",
          "name": "",
          "type": "string"
        }
      ],
      "stateMutability": "view",
      "type": "function"
    },
    {
      "inputs": [],
      "name": "tokenCounter",
      "outputs": [
        {
          "internalType": "uint256",
          "name": "",
          "type": "uint256"
        }
      ],
      "stateMutability": "view",
      "type": "function"
    },
    {
      "inputs": [
        {
          "internalType": "uint256",
          "name": "tokenId",
          "type": "uint256"
        }
      ],
      "name": "tokenURI",
      "outputs": [
        {
          "internalType": "string",
          "name": "",
          "type": "string"
        }
      ],
      "stateMutability": "view",
      "type": "function"
    },
    {
      "inputs": [
        {
          "internalType": "address",
          "name": "from",
          "type": "address"
        },
        {
          "internalType": "address",
          "name": "to",
          "type": "address"
        },
        {
          "internalType": "uint256",
          "name": "tokenId",
          "type": "uint256"
        }
      ],
      "name": "transferFrom",
      "outputs": [],
      "stateMutability": "nonpayable",
      "type": "function"
    }
  ],
  "bytecode": "0x60a060405234801561001057600080fd5b503373ffffffffffffffffffffffffffffffffffffffff1660808173ffffffffffffffffffffffffffffffffffffffff1660601b8152505060805160601c612c856100666000396000610b8d0152612c856000f3fe608060405234801561001057600080fd5b50600436106101165760003560e01c80636ee5741a116100a2578063b88d4fde11610071578063b88d4fde146102f1578063c87b56dd1461030d578063ce606ee01461033d578063d082e3811461035b578063e985e9c51461037957610116565b80636ee5741a1461026b57806370a082311461028757806395d89b41146102b7578063a22cb465146102d557610116565b8063158ef93e116100e9578063158ef93e146101b557806317e5883c146101d357806323b872dd1461020357806342842e0e1461021f5780636352211e1461023b57610116565b806301ffc9a71461011b57806306fdde031461014b578063081812fc14610169578063095ea7b314610199575b600080fd5b61013560048036038101906101309190611cd9565b6103a9565b604051610142919061215e565b60405180910390f35b61015361048b565b6040516101609190612179565b60405180910390f35b610183600480360381019061017e9190611daa565b61051d565b60405161019091906120f7565b60405180910390f35b6101b360048036038101906101ae9190611c9d565b6105a2565b005b6101bd6106ba565b6040516101ca919061215e565b60405180910390f35b6101ed60048036038101906101e89190611b32565b6106cd565b6040516101fa919061239b565b60405180910390f35b61021d60048036038101906102189190611b97565b610798565b005b61023960048036038101906102349190611b97565b6107f8565b005b61025560048036038101906102509190611daa565b610818565b60405161026291906120f7565b60405180910390f35b61028560048036038101906102809190611d2b565b6108ca565b005b6102a1600480360381019061029c9190611b32565b610922565b6040516102ae919061239b565b60405180910390f35b6102bf6109da565b6040516102cc9190612179565b60405180910390f35b6102ef60048036038101906102ea9190611c61565b610a6c565b005b61030b60048036038101906103069190611be6565b610a82565b005b61032760048036038101906103229190611daa565b610ae4565b6040516103349190612179565b60405180910390f35b610345610b8b565b60405161035291906120f7565b60405180910390f35b610363610baf565b604051610370919061239b565b60405180910390f35b610393600480360381019061038e9190611b5b565b610bb5565b6040516103a0919061215e565b60405180910390f35b60007f80ac58cd000000000000000000000000000000000000000000000000000000007bffffffffffffffffffffffffffffffffffffffffffffffffffffffff1916827bffffffffffffffffffffffffffffffffffffffffffffffffffffffff1916148061047457507f5b5e139f000000000000000000000000000000000000000000000000000000007bffffffffffffffffffffffffffffffffffffffffffffffffffffffff1916827bffffffffffffffffffffffffffffffffffffffffffffffffffffffff1916145b80610484575061048382610c49565b5b9050919050565b60606000805461049a906125f1565b80601f01602080910402602001604051908101604052809291908181526020018280546104c6906125f1565b80156105135780601f106104e857610100808354040283529160200191610513565b820191906000526020600020905b8154815290600101906020018083116104f657829003601f168201915b5050505050905090565b600061052882610cb3565b610567576040517f08c379a000000000000000000000000000000000000000000000000000000000815260040161055e906122db565b60405180910390fd5b6005600083815260200190815260200160002060009054906101000a900473ffffffffffffffffffffffffffffffffffffffff169050919050565b60006105ad82610818565b90508073ffffffffffffffffffffffffffffffffffffffff168373ffffffffffffffffffffffffffffffffffffffff16141561061e576040517f08c379a00000000000000000000000000000000000000000000000000000000081526004016106159061233b565b60405180910390fd5b8073ffffffffffffffffffffffffffffffffffffffff1661063d610d1f565b73ffffffffffffffffffffffffffffffffffffffff16148061066c575061066b81610666610d1f565b610bb5565b5b6106ab576040517f08c379a00000000000000000000000000000000000000000000000000000000081526004016106a29061225b565b60405180910390fd5b6106b58383610d27565b505050565b600260009054906101000a900460ff1681565b6000600860009054906101000a900473ffffffffffffffffffffffffffffffffffffffff1673ffffffffffffffffffffffffffffffffffffffff163373ffffffffffffffffffffffffffffffffffffffff161461075f576040517f08c379a00000000000000000000000000000000000000000000000000000000081526004016107569061231b565b60405180910390fd5b600060075490506107708382610de0565b61077981610ae4565b5060016007546107899190612480565b60078190555080915050919050565b6107a96107a3610d1f565b82610dfe565b6107e8576040517f08c379a00000000000000000000000000000000000000000000000000000000081526004016107df9061235b565b60405180910390fd5b6107f3838383610edc565b505050565b61081383838360405180602001604052806000815250610a82565b505050565b6000806003600084815260200190815260200160002060009054906101000a900473ffffffffffffffffffffffffffffffffffffffff169050600073ffffffffffffffffffffffffffffffffffffffff168173ffffffffffffffffffffffffffffffffffffffff1614156108c1576040517f08c379a00000000000000000000000000000000000000000000000000000000081526004016108b89061229b565b60405180910390fd5b80915050919050565b6108d48383611143565b80600860006101000a81548173ffffffffffffffffffffffffffffffffffffffff021916908373ffffffffffffffffffffffffffffffffffffffff1602179055506000600781905550505050565b60008073ffffffffffffffffffffffffffffffffffffffff168273ffffffffffffffffffffffffffffffffffffffff161415610993576040517f08c379a000000000000000000000000000000000000000000000000000000000815260040161098a9061227b565b60405180910390fd5b600460008373ffffffffffffffffffffffffffffffffffffffff1673ffffffffffffffffffffffffffffffffffffffff168152602001908152602001600020549050919050565b6060600180546109e9906125f1565b80601f0160208091040260200160405190810160405280929190818152602001828054610a15906125f1565b8015610a625780601f10610a3757610100808354040283529160200191610a62565b820191906000526020600020905b815481529060010190602001808311610a4557829003601f168201915b5050505050905090565b610a7e610a77610d1f565b83836111e0565b5050565b610a93610a8d610d1f565b83610dfe565b610ad2576040517f08c379a0000000000000000000000000000000000000000000000000000000008152600401610ac99061235b565b60405180910390fd5b610ade8484848461134d565b50505050565b6060610aef82610cb3565b610b2e576040517f08c379a0000000000000000000000000000000000000000000000000000000008152600401610b25906122fb565b60405180910390fd5b6000610b386113a9565b90506000815111610b585760405180602001604052806000815250610b83565b80610b62846113c0565b604051602001610b739291906120d3565b6040516020818303038152906040525b915050919050565b7f000000000000000000000000000000000000000000000000000000000000000081565b60075481565b6000600660008473ffffffffffffffffffffffffffffffffffffffff1673ffffffffffffffffffffffffffffffffffffffff16815260200190815260200160002060008373ffffffffffffffffffffffffffffffffffffffff1673ffffffffffffffffffffffffffffffffffffffff16815260200190815260200160002060009054906101000a900460ff16905092915050565b60007f01ffc9a7000000000000000000000000000000000000000000000000000000007bffffffffffffffffffffffffffffffffffffffffffffffffffffffff1916827bffffffffffffffffffffffffffffffffffffffffffffffffffffffff1916149050919050565b60008073ffffffffffffffffffffffffffffffffffffffff166003600084815260200190815260200160002060009054906101000a900473ffffffffffffffffffffffffffffffffffffffff1673ffffffffffffffffffffffffffffffffffffffff1614159050919050565b600033905090565b816005600083815260200190815260200160002060006101000a81548173ffffffffffffffffffffffffffffffffffffffff021916908373ffffffffffffffffffffffffffffffffffffffff160217905550808273ffffffffffffffffffffffffffffffffffffffff16610d9a83610818565b73ffffffffffffffffffffffffffffffffffffffff167f8c5be1e5ebec7d5bd14f71427d1e84f3dd0314c0f7b2291e5b200ac8c7c3b92560405160405180910390a45050565b610dfa82826040518060200160405280600081525061156d565b5050565b6000610e0982610cb3565b610e48576040517f08c379a0000000000000000000000000000000000000000000000000000000008152600401610e3f9061223b565b60405180910390fd5b6000610e5383610818565b90508073ffffffffffffffffffffffffffffffffffffffff168473ffffffffffffffffffffffffffffffffffffffff161480610ec257508373ffffffffffffffffffffffffffffffffffffffff16610eaa8461051d565b73ffffffffffffffffffffffffffffffffffffffff16145b80610ed35750610ed28185610bb5565b5b91505092915050565b8273ffffffffffffffffffffffffffffffffffffffff16610efc82610818565b73ffffffffffffffffffffffffffffffffffffffff1614610f52576040517f08c379a0000000000000000000000000000000000000000000000000000000008152600401610f49906121bb565b60405180910390fd5b600073ffffffffffffffffffffffffffffffffffffffff168273ffffffffffffffffffffffffffffffffffffffff161415610fc2576040517f08c379a0000000000000000000000000000000000000000000000000000000008152600401610fb9906121fb565b60405180910390fd5b610fcd8383836115c8565b610fd8600082610d27565b6001600460008573ffffffffffffffffffffffffffffffffffffffff1673ffffffffffffffffffffffffffffffffffffffff16815260200190815260200160002060008282546110289190612507565b925050819055506001600460008473ffffffffffffffffffffffffffffffffffffffff1673ffffffffffffffffffffffffffffffffffffffff168152602001908152602001600020600082825461107f9190612480565b92505081905550816003600083815260200190815260200160002060006101000a81548173ffffffffffffffffffffffffffffffffffffffff021916908373ffffffffffffffffffffffffffffffffffffffff160217905550808273ffffffffffffffffffffffffffffffffffffffff168473ffffffffffffffffffffffffffffffffffffffff167fddf252ad1be2c89b69c2b068fc378daa952ba7f163c4a11628f55a4df523b3ef60405160405180910390a461113e8383836115cd565b505050565b600260009054906101000a900460ff1615611193576040517f08c379a000000000000000000000000000000000000000000000000000000000815260040161118a9061237b565b60405180910390fd5b81600090805190602001906111a9929190611956565b5080600190805190602001906111c0929190611956565b506001600260006101000a81548160ff0219169083151502179055505050565b8173ffffffffffffffffffffffffffffffffffffffff168373ffffffffffffffffffffffffffffffffffffffff16141561124f576040517f08c379a00000000000000000000000000000000000000000000000000000000081526004016112469061221b565b60405180910390fd5b80600660008573ffffffffffffffffffffffffffffffffffffffff1673ffffffffffffffffffffffffffffffffffffffff16815260200190815260200160002060008473ffffffffffffffffffffffffffffffffffffffff1673ffffffffffffffffffffffffffffffffffffffff16815260200190815260200160002060006101000a81548160ff0219169083151502179055508173ffffffffffffffffffffffffffffffffffffffff168373ffffffffffffffffffffffffffffffffffffffff167f17307eab39ab6107e8899845ad3d59bd9653f200f220920489ca2b5937696c3183604051611340919061215e565b60405180910390a3505050565b611358848484610edc565b611364848484846115d2565b6113a3576040517f08c379a000000000000000000000000000000000000000000000000000000000815260040161139a9061219b565b60405180910390fd5b50505050565b606060405180602001604052806000815250905090565b60606000821415611408576040518060400160405280600181526020017f30000000000000000000000000000000000000000000000000000000000000008152509050611568565b600082905060005b6000821461143a57808061142390612654565b915050600a8261143391906124d6565b9150611410565b60008167ffffffffffffffff81111561147c577f4e487b7100000000000000000000000000000000000000000000000000000000600052604160045260246000fd5b6040519080825280601f01601f1916602001820160405280156114ae5781602001600182028036833780820191505090505b5090505b60008514611561576001826114c79190612507565b9150600a856114d6919061269d565b60306114e29190612480565b60f81b81838151811061151e577f4e487b7100000000000000000000000000000000000000000000000000000000600052603260045260246000fd5b60200101907effffffffffffffffffffffffffffffffffffffffffffffffffffffffffffff1916908160001a905350600a8561155a91906124d6565b94506114b2565b8093505050505b919050565b6115778383611769565b61158460008484846115d2565b6115c3576040517f08c379a00000000000000000000000000000000000000000000000000000000081526004016115ba9061219b565b60405180910390fd5b505050565b505050565b505050565b60006115f38473ffffffffffffffffffffffffffffffffffffffff16611943565b1561175c578373ffffffffffffffffffffffffffffffffffffffff1663150b7a0261161c610d1f565b8786866040518563ffffffff1660e01b815260040161163e9493929190612112565b602060405180830381600087803b15801561165857600080fd5b505af192505050801561168957506040513d601f19601f820116820180604052508101906116869190611d02565b60015b61170c573d80600081146116b9576040519150601f19603f3d011682016040523d82523d6000602084013e6116be565b606091505b50600081511415611704576040517f08c379a00000000000000000000000000000000000000000000000000000000081526004016116fb9061219b565b60405180910390fd5b805181602001fd5b63150b7a0260e01b7bffffffffffffffffffffffffffffffffffffffffffffffffffffffff1916817bffffffffffffffffffffffffffffffffffffffffffffffffffffffff191614915050611761565b600190505b949350505050565b600073ffffffffffffffffffffffffffffffffffffffff168273ffffffffffffffffffffffffffffffffffffffff1614156117d9576040517f08c379a00000000000000000000000000000000000000000000000000000000081526004016117d0906122bb565b60405180910390fd5b6117e281610cb3565b15611822576040517f08c379a0000000000000000000000000000000000000000000000000000000008152600401611819906121db565b60405180910390fd5b61182e600083836115c8565b6001600460008473ffffffffffffffffffffffffffffffffffffffff1673ffffffffffffffffffffffffffffffffffffffff168152602001908152602001600020600082825461187e9190612480565b92505081905550816003600083815260200190815260200160002060006101000a81548173ffffffffffffffffffffffffffffffffffffffff021916908373ffffffffffffffffffffffffffffffffffffffff160217905550808273ffffffffffffffffffffffffffffffffffffffff16600073ffffffffffffffffffffffffffffffffffffffff167fddf252ad1be2c89b69c2b068fc378daa952ba7f163c4a11628f55a4df523b3ef60405160405180910390a461193f600083836115cd565b5050565b600080823b905060008111915050919050565b828054611962906125f1565b90600052602060002090601f01602090048101928261198457600085556119cb565b82601f1061199d57805160ff19168380011785556119cb565b828001600101855582156119cb579182015b828111156119ca5782518255916020019190600101906119af565b5b5090506119d891906119dc565b5090565b5b808211156119f55760008160009055506001016119dd565b5090565b6000611a0c611a07846123db565b6123b6565b905082815260208101848484011115611a2457600080fd5b611a2f8482856125af565b509392505050565b6000611a4a611a458461240c565b6123b6565b905082815260208101848484011115611a6257600080fd5b611a6d8482856125af565b509392505050565b600081359050611a8481612bf3565b92915050565b600081359050611a9981612c0a565b92915050565b600081359050611aae81612c21565b92915050565b600081519050611ac381612c21565b92915050565b600082601f830112611ada57600080fd5b8135611aea8482602086016119f9565b91505092915050565b600082601f830112611b0457600080fd5b8135611b14848260208601611a37565b91505092915050565b600081359050611b2c81612c38565b92915050565b600060208284031215611b4457600080fd5b6000611b5284828501611a75565b91505092915050565b60008060408385031215611b6e57600080fd5b6000611b7c85828601611a75565b9250506020611b8d85828601611a75565b9150509250929050565b600080600060608486031215611bac57600080fd5b6000611bba86828701611a75565b9350506020611bcb86828701611a75565b9250506040611bdc86828701611b1d565b9150509250925092565b60008060008060808587031215611bfc57600080fd5b6000611c0a87828801611a75565b9450506020611c1b87828801611a75565b9350506040611c2c87828801611b1d565b925050606085013567ffffffffffffffff811115611c4957600080fd5b611c5587828801611ac9565b91505092959194509250565b60008060408385031215611c7457600080fd5b6000611c8285828601611a75565b9250506020611c9385828601611a8a565b9150509250929050565b60008060408385031215611cb057600080fd5b6000611cbe85828601611a75565b9250506020611ccf85828601611b1d565b9150509250929050565b600060208284031215611ceb57600080fd5b6000611cf984828501611a9f565b91505092915050565b600060208284031215611d1457600080fd5b6000611d2284828501611ab4565b91505092915050565b600080600060608486031215611d4057600080fd5b600084013567ffffffffffffffff811115611d5a57600080fd5b611d6686828701611af3565b935050602084013567ffffffffffffffff811115611d8357600080fd5b611d8f86828701611af3565b9250506040611da086828701611a75565b9150509250925092565b600060208284031215611dbc57600080fd5b6000611dca84828501611b1d565b91505092915050565b611ddc8161253b565b82525050565b611deb8161254d565b82525050565b6000611dfc8261243d565b611e068185612453565b9350611e168185602086016125be565b611e1f8161278a565b840191505092915050565b6000611e3582612448565b611e3f8185612464565b9350611e4f8185602086016125be565b611e588161278a565b840191505092915050565b6000611e6e82612448565b611e788185612475565b9350611e888185602086016125be565b80840191505092915050565b6000611ea1603283612464565b9150611eac8261279b565b604082019050919050565b6000611ec4602583612464565b9150611ecf826127ea565b604082019050919050565b6000611ee7601c83612464565b9150611ef282612839565b602082019050919050565b6000611f0a602483612464565b9150611f1582612862565b604082019050919050565b6000611f2d601983612464565b9150611f38826128b1565b602082019050919050565b6000611f50602c83612464565b9150611f5b826128da565b604082019050919050565b6000611f73603883612464565b9150611f7e82612929565b604082019050919050565b6000611f96602a83612464565b9150611fa182612978565b604082019050919050565b6000611fb9602983612464565b9150611fc4826129c7565b604082019050919050565b6000611fdc602083612464565b9150611fe782612a16565b602082019050919050565b6000611fff602c83612464565b915061200a82612a3f565b604082019050919050565b6000612022602f83612464565b915061202d82612a8e565b604082019050919050565b6000612045602583612464565b915061205082612add565b604082019050919050565b6000612068602183612464565b915061207382612b2c565b604082019050919050565b600061208b603183612464565b915061209682612b7b565b604082019050919050565b60006120ae601e83612464565b91506120b982612bca565b602082019050919050565b6120cd816125a5565b82525050565b60006120df8285611e63565b91506120eb8284611e63565b91508190509392505050565b600060208201905061210c6000830184611dd3565b92915050565b60006080820190506121276000830187611dd3565b6121346020830186611dd3565b61214160408301856120c4565b81810360608301526121538184611df1565b905095945050505050565b60006020820190506121736000830184611de2565b92915050565b600060208201905081810360008301526121938184611e2a565b905092915050565b600060208201905081810360008301526121b481611e94565b9050919050565b600060208201905081810360008301526121d481611eb7565b9050919050565b600060208201905081810360008301526121f481611eda565b9050919050565b6000602082019050818103600083015261221481611efd565b9050919050565b6000602082019050818103600083015261223481611f20565b9050919050565b6000602082019050818103600083015261225481611f43565b9050919050565b6000602082019050818103600083015261227481611f66565b9050919050565b6000602082019050818103600083015261229481611f89565b9050919050565b600060208201905081810360008301526122b481611fac565b9050919050565b600060208201905081810360008301526122d481611fcf565b9050919050565b600060208201905081810360008301526122f481611ff2565b9050919050565b6000602082019050818103600083015261231481612015565b9050919050565b6000602082019050818103600083015261233481612038565b9050919050565b600060208201905081810360008301526123548161205b565b9050919050565b600060208201905081810360008301526123748161207e565b9050919050565b60006020820190508181036000830152612394816120a1565b9050919050565b60006020820190506123b060008301846120c4565b92915050565b60006123c06123d1565b90506123cc8282612623565b919050565b6000604051905090565b600067ffffffffffffffff8211156123f6576123f561275b565b5b6123ff8261278a565b9050602081019050919050565b600067ffffffffffffffff8211156124275761242661275b565b5b6124308261278a565b9050602081019050919050565b600081519050919050565b600081519050919050565b600082825260208201905092915050565b600082825260208201905092915050565b600081905092915050565b600061248b826125a5565b9150612496836125a5565b9250827fffffffffffffffffffffffffffffffffffffffffffffffffffffffffffffffff038211156124cb576124ca6126ce565b5b828201905092915050565b60006124e1826125a5565b91506124ec836125a5565b9250826124fc576124fb6126fd565b5b828204905092915050565b6000612512826125a5565b915061251d836125a5565b9250828210156125305761252f6126ce565b5b828203905092915050565b600061254682612585565b9050919050565b60008115159050919050565b60007fffffffff0000000000000000000000000000000000000000000000000000000082169050919050565b600073ffffffffffffffffffffffffffffffffffffffff82169050919050565b6000819050919050565b82818337600083830152505050565b60005b838110156125dc5780820151818401526020810190506125c1565b838111156125eb576000848401525b50505050565b6000600282049050600182168061260957607f821691505b6020821081141561261d5761261c61272c565b5b50919050565b61262c8261278a565b810181811067ffffffffffffffff8211171561264b5761264a61275b565b5b80604052505050565b600061265f826125a5565b91507fffffffffffffffffffffffffffffffffffffffffffffffffffffffffffffffff821415612692576126916126ce565b5b600182019050919050565b60006126a8826125a5565b91506126b3836125a5565b9250826126c3576126c26126fd565b5b828206905092915050565b7f4e487b7100000000000000000000000000000000000000000000000000000000600052601160045260246000fd5b7f4e487b7100000000000000000000000000000000000000000000000000000000600052601260045260246000fd5b7f4e487b7100000000000000000000000000000000000000000000000000000000600052602260045260246000fd5b7f4e487b7100000000000000000000000000000000000000000000000000000000600052604160045260246000fd5b6000601f19601f8301169050919050565b7f4552433732313a207472616e7366657220746f206e6f6e20455243373231526560008201527f63656976657220696d706c656d656e7465720000000000000000000000000000602082015250565b7f4552433732313a207472616e736665722066726f6d20696e636f72726563742060008201527f6f776e6572000000000000000000000000000000000000000000000000000000602082015250565b7f4552433732313a20746f6b656e20616c7265616479206d696e74656400000000600082015250565b7f4552433732313a207472616e7366657220746f20746865207a65726f2061646460008201527f7265737300000000000000000000000000000000000000000000000000000000602082015250565b7f4552433732313a20617070726f766520746f2063616c6c657200000000000000600082015250565b7f4552433732313a206f70657261746f7220717565727920666f72206e6f6e657860008201527f697374656e7420746f6b656e0000000000000000000000000000000000000000602082015250565b7f4552433732313a20617070726f76652063616c6c6572206973206e6f74206f7760008201527f6e6572206e6f7220617070726f76656420666f7220616c6c0000000000000000602082015250565b7f4552433732313a2062616c616e636520717565727920666f7220746865207a6560008201527f726f206164647265737300000000000000000000000000000000000000000000602082015250565b7f4552433732313a206f776e657220717565727920666f72206e6f6e657869737460008201527f656e7420746f6b656e0000000000000000000000000000000000000000000000602082015250565b7f4552433732313a206d696e7420746f20746865207a65726f2061646472657373600082015250565b7f4552433732313a20617070726f76656420717565727920666f72206e6f6e657860008201527f697374656e7420746f6b656e0000000000000000000000000000000000000000602082015250565b7f4552433732314d657461646174613a2055524920717565727920666f72206e6f60008201527f6e6578697374656e7420746f6b656e0000000000000000000000000000000000602082015250565b7f4f6e6c79207468652054656e616e74206f776e65722063616e206d696e74206160008201527f6e204e4654000000000000000000000000000000000000000000000000000000602082015250565b7f4552433732313a20617070726f76616c20746f2063757272656e74206f776e6560008201527f7200000000000000000000000000000000000000000000000000000000000000602082015250565b7f4552433732313a207472616e736665722063616c6c6572206973206e6f74206f60008201527f776e6572206e6f7220617070726f766564000000000000000000000000000000602082015250565b7f416c726561647920696e697469616c697a6564207468652073746174652e0000600082015250565b612bfc8161253b565b8114612c0757600080fd5b50565b612c138161254d565b8114612c1e57600080fd5b50565b612c2a81612559565b8114612c3557600080fd5b50565b612c41816125a5565b8114612c4c57600080fd5b5056fea2646970667358221220928cc349c3fcd70374183275990ce0c4ec4948b79fb21599ec5f74cc829c201364736f6c63430008040033",
  "linkReferences": {},
  "deployedLinkReferences": {}
}