{
  "_format": "hh-sol-artifact-1",
  "contractName": "ERC721",
  "sourceName": "contracts/ERC721.sol",
  "abi": [
    {
      "inputs": [
        {
          "internalType": "address",
          "name": "_owner",
          "type": "address"
        }
      ],
      "stateMutability": "nonpayable",
      "type": "constructor"
    },
    {
      "inputs": [],
      "name": "AlreadyInitialized",
      "type": "error"
    },
    {
      "inputs": [],
      "name": "CollectionLocked",
      "type": "error"
    },
    {
      "inputs": [],
      "name": "IncorrectOwner",
      "type": "error"
    },
    {
      "inputs": [],
      "name": "InsufficientAllowance",
      "type": "error"
    },
    {
      "inputs": [],
      "name": "InsufficientBalance",
      "type": "error"
    },
    {
      "inputs": [],
      "name": "InvalidTokenId",
      "type": "error"
    },
    {
      "inputs": [],
      "name": "MaxPerUserExceeded",
      "type": "error"
    },
    {
      "inputs": [],
      "name": "MaxSupplyExceeded",
      "type": "error"
    },
    {
      "inputs": [],
      "name": "MissingERC721Receiver",
      "type": "error"
    },
    {
      "inputs": [],
      "name": "NotACollection",
      "type": "error"
    },
    {
      "inputs": [],
      "name": "PublicMintInactive",
      "type": "error"
    },
    {
      "inputs": [],
      "name": "SameAddress",
      "type": "error"
    },
    {
      "inputs": [],
      "name": "SameOwnerAndOperator",
      "type": "error"
    },
    {
      "inputs": [],
      "name": "TokenAlreadyMinted",
      "type": "error"
    },
    {
      "inputs": [],
      "name": "Unauthorized",
      "type": "error"
    },
    {
      "inputs": [],
      "name": "ZeroAddress",
      "type": "error"
    },
    {
      "anonymous": false,
      "inputs": [
        {
          "indexed": true,
          "internalType": "address",
          "name": "owner",
          "type": "address"
        },
        {
          "indexed": true,
          "internalType": "address",
          "name": "approved",
          "type": "address"
        },
        {
          "indexed": true,
          "internalType": "uint256",
          "name": "tokenId",
          "type": "uint256"
        }
      ],
      "name": "Approval",
      "type": "event"
    },
    {
      "anonymous": false,
      "inputs": [
        {
          "indexed": true,
          "internalType": "address",
          "name": "owner",
          "type": "address"
        },
        {
          "indexed": true,
          "internalType": "address",
          "name": "operator",
          "type": "address"
        },
        {
          "indexed": false,
          "internalType": "bool",
          "name": "approved",
          "type": "bool"
        }
      ],
      "name": "ApprovalForAll",
      "type": "event"
    },
    {
      "anonymous": false,
      "inputs": [
        {
          "indexed": false,
          "internalType": "uint8",
          "name": "version",
          "type": "uint8"
        }
      ],
      "name": "Initialized",
      "type": "event"
    },
    {
      "anonymous": false,
      "inputs": [
        {
          "indexed": true,
          "internalType": "address",
          "name": "from",
          "type": "address"
        },
        {
          "indexed": true,
          "internalType": "address",
          "name": "to",
          "type": "address"
        },
        {
          "indexed": true,
          "internalType": "uint256",
          "name": "tokenId",
          "type": "uint256"
        }
      ],
      "name": "Transfer",
      "type": "event"
    },
    {
      "inputs": [],
      "name": "_tenantOwner",
      "outputs": [
        {
          "internalType": "address",
          "name": "",
          "type": "address"
        }
      ],
      "stateMutability": "view",
      "type": "function"
    },
    {
      "inputs": [
        {
          "internalType": "address",
          "name": "_to",
          "type": "address"
        },
        {
          "internalType": "uint256",
          "name": "_tokenId",
          "type": "uint256"
        }
      ],
      "name": "approve",
      "outputs": [],
      "stateMutability": "nonpayable",
      "type": "function"
    },
    {
      "inputs": [
        {
          "internalType": "address",
          "name": "_owner",
          "type": "address"
        }
      ],
      "name": "balanceOf",
      "outputs": [
        {
          "internalType": "uint256",
          "name": "",
          "type": "uint256"
        }
      ],
      "stateMutability": "view",
      "type": "function"
    },
    {
      "inputs": [
        {
          "internalType": "uint256",
          "name": "_tokenId",
          "type": "uint256"
        }
      ],
      "name": "burn",
      "outputs": [],
      "stateMutability": "nonpayable",
      "type": "function"
    },
    {
      "inputs": [],
      "name": "collectionInfo",
      "outputs": [
        {
          "internalType": "uint256",
          "name": "price",
          "type": "uint256"
        },
        {
          "internalType": "uint256",
          "name": "maxSupply",
          "type": "uint256"
        },
        {
          "internalType": "uint256",
          "name": "maxPerUser",
          "type": "uint256"
        },
        {
          "internalType": "bool",
          "name": "isPublicSaleActive",
          "type": "bool"
        }
      ],
      "stateMutability": "view",
      "type": "function"
    },
    {
      "inputs": [],
      "name": "collectionLock",
      "outputs": [
        {
          "internalType": "bool",
          "name": "",
          "type": "bool"
        }
      ],
      "stateMutability": "view",
      "type": "function"
    },
    {
      "inputs": [],
      "name": "contractOwner",
      "outputs": [
        {
          "internalType": "address",
          "name": "",
          "type": "address"
        }
      ],
      "stateMutability": "view",
      "type": "function"
    },
    {
      "inputs": [
        {
          "internalType": "uint256",
          "name": "_tokenId",
          "type": "uint256"
        }
      ],
      "name": "getApproved",
      "outputs": [
        {
          "internalType": "address",
          "name": "",
          "type": "address"
        }
      ],
      "stateMutability": "view",
      "type": "function"
    },
    {
      "inputs": [],
      "name": "getBaseURI",
      "outputs": [
        {
          "internalType": "string",
          "name": "",
          "type": "string"
        }
      ],
      "stateMutability": "view",
      "type": "function"
    },
    {
      "inputs": [
        {
          "internalType": "string",
          "name": "name_",
          "type": "string"
        },
        {
          "internalType": "string",
          "name": "symbol_",
          "type": "string"
        },
        {
          "internalType": "address",
          "name": "tenant_",
          "type": "address"
        }
      ],
      "name": "initialize",
      "outputs": [],
      "stateMutability": "nonpayable",
      "type": "function"
    },
    {
      "inputs": [
        {
          "internalType": "uint256",
          "name": "_price",
          "type": "uint256"
        },
        {
          "internalType": "uint256",
          "name": "_maxSupply",
          "type": "uint256"
        },
        {
          "internalType": "uint256",
          "name": "_maxPerUser",
          "type": "uint256"
        },
        {
          "internalType": "bool",
          "name": "_lockCollection",
          "type": "bool"
        }
      ],
      "name": "initializeCollection",
      "outputs": [],
      "stateMutability": "nonpayable",
      "type": "function"
    },
    {
      "inputs": [
        {
          "internalType": "address",
          "name": "_owner",
          "type": "address"
        },
        {
          "internalType": "address",
          "name": "_operator",
          "type": "address"
        }
      ],
      "name": "isApprovedForAll",
      "outputs": [
        {
          "internalType": "bool",
          "name": "",
          "type": "bool"
        }
      ],
      "stateMutability": "view",
      "type": "function"
    },
    {
      "inputs": [],
      "name": "lockCollection",
      "outputs": [],
      "stateMutability": "nonpayable",
      "type": "function"
    },
    {
      "inputs": [],
      "name": "metadata",
      "outputs": [
        {
          "internalType": "bytes",
          "name": "title",
          "type": "bytes"
        },
        {
          "internalType": "address",
          "name": "author",
          "type": "address"
        },
        {
          "internalType": "bytes",
          "name": "version",
          "type": "bytes"
        },
        {
          "internalType": "uint256",
          "name": "publishedAt",
          "type": "uint256"
        },
        {
          "internalType": "bytes",
          "name": "externalLink",
          "type": "bytes"
        }
      ],
      "stateMutability": "view",
      "type": "function"
    },
    {
      "inputs": [
        {
          "internalType": "address",
          "name": "_to",
          "type": "address"
        }
      ],
      "name": "mint",
      "outputs": [
        {
          "internalType": "uint256",
          "name": "",
          "type": "uint256"
        }
      ],
      "stateMutability": "payable",
      "type": "function"
    },
    {
      "inputs": [
        {
          "internalType": "address",
          "name": "_to",
          "type": "address"
        },
        {
          "internalType": "uint256",
          "name": "_count",
          "type": "uint256"
        }
      ],
      "name": "mintBatch",
      "outputs": [
        {
          "internalType": "uint256[]",
          "name": "",
          "type": "uint256[]"
        }
      ],
      "stateMutability": "payable",
      "type": "function"
    },
    {
      "inputs": [],
      "name": "name",
      "outputs": [
        {
          "internalType": "string",
          "name": "",
          "type": "string"
        }
      ],
      "stateMutability": "view",
      "type": "function"
    },
    {
      "inputs": [
        {
          "internalType": "uint256",
          "name": "_tokenId",
          "type": "uint256"
        }
      ],
      "name": "ownerOf",
      "outputs": [
        {
          "internalType": "address",
          "name": "",
          "type": "address"
        }
      ],
      "stateMutability": "view",
      "type": "function"
    },
    {
      "inputs": [
        {
          "internalType": "address",
          "name": "_from",
          "type": "address"
        },
        {
          "internalType": "address",
          "name": "_to",
          "type": "address"
        },
        {
          "internalType": "uint256",
          "name": "_tokenId",
          "type": "uint256"
        }
      ],
      "name": "safeTransferFrom",
      "outputs": [],
      "stateMutability": "nonpayable",
      "type": "function"
    },
    {
      "inputs": [
        {
          "internalType": "address",
          "name": "_from",
          "type": "address"
        },
        {
          "internalType": "address",
          "name": "_to",
          "type": "address"
        },
        {
          "internalType": "uint256",
          "name": "_tokenId",
          "type": "uint256"
        },
        {
          "internalType": "bytes",
          "name": "_data",
          "type": "bytes"
        }
      ],
      "name": "safeTransferFrom",
      "outputs": [],
      "stateMutability": "nonpayable",
      "type": "function"
    },
    {
      "inputs": [
        {
          "internalType": "address",
          "name": "_operator",
          "type": "address"
        },
        {
          "internalType": "bool",
          "name": "_approved",
          "type": "bool"
        }
      ],
      "name": "setApprovalForAll",
      "outputs": [],
      "stateMutability": "nonpayable",
      "type": "function"
    },
    {
      "inputs": [
        {
          "internalType": "string",
          "name": "baseURI_",
          "type": "string"
        }
      ],
      "name": "setBaseURI",
      "outputs": [],
      "stateMutability": "nonpayable",
      "type": "function"
    },
    {
      "inputs": [
        {
          "internalType": "bool",
          "name": "_isActive",
          "type": "bool"
        }
      ],
      "name": "setMintPermissions",
      "outputs": [],
      "stateMutability": "nonpayable",
      "type": "function"
    },
    {
      "inputs": [
        {
          "internalType": "bytes4",
          "name": "_interfaceId",
          "type": "bytes4"
        }
      ],
      "name": "supportsInterface",
      "outputs": [
        {
          "internalType": "bool",
          "name": "",
          "type": "bool"
        }
      ],
      "stateMutability": "view",
      "type": "function"
    },
    {
      "inputs": [],
      "name": "symbol",
      "outputs": [
        {
          "internalType": "string",
          "name": "",
          "type": "string"
        }
      ],
      "stateMutability": "view",
      "type": "function"
    },
    {
      "inputs": [
        {
          "internalType": "address",
          "name": "_reciever",
          "type": "address"
        }
      ],
      "name": "tenantMint",
      "outputs": [
        {
          "internalType": "uint256",
          "name": "",
          "type": "uint256"
        }
      ],
      "stateMutability": "nonpayable",
      "type": "function"
    },
    {
      "inputs": [
        {
          "internalType": "address",
          "name": "_reciever",
          "type": "address"
        },
        {
          "internalType": "string",
          "name": "_tokenUri",
          "type": "string"
        }
      ],
      "name": "tenantMint",
      "outputs": [
        {
          "internalType": "uint256",
          "name": "",
          "type": "uint256"
        }
      ],
      "stateMutability": "nonpayable",
      "type": "function"
    },
    {
      "inputs": [],
      "name": "tokenCounter",
      "outputs": [
        {
          "internalType": "uint256",
          "name": "_value",
          "type": "uint256"
        }
      ],
      "stateMutability": "view",
      "type": "function"
    },
    {
      "inputs": [
        {
          "internalType": "uint256",
          "name": "_tokenId",
          "type": "uint256"
        }
      ],
      "name": "tokenURI",
      "outputs": [
        {
          "internalType": "string",
          "name": "",
          "type": "string"
        }
      ],
      "stateMutability": "view",
      "type": "function"
    },
    {
      "inputs": [
        {
          "internalType": "address",
          "name": "_from",
          "type": "address"
        },
        {
          "internalType": "address",
          "name": "_to",
          "type": "address"
        },
        {
          "internalType": "uint256",
          "name": "_tokenId",
          "type": "uint256"
        }
      ],
      "name": "transferFrom",
      "outputs": [],
      "stateMutability": "nonpayable",
      "type": "function"
    },
    {
      "inputs": [
        {
          "internalType": "uint256",
          "name": "_maxPerUser",
          "type": "uint256"
        }
      ],
      "name": "updateMaxPerUser",
      "outputs": [],
      "stateMutability": "nonpayable",
      "type": "function"
    },
    {
      "inputs": [
        {
          "internalType": "uint256",
          "name": "_maxSupply",
          "type": "uint256"
        }
      ],
      "name": "updateMaxSupply",
      "outputs": [],
      "stateMutability": "nonpayable",
      "type": "function"
    },
    {
      "inputs": [
        {
          "internalType": "uint256",
          "name": "_price",
          "type": "uint256"
        }
      ],
      "name": "updatePrice",
      "outputs": [],
      "stateMutability": "nonpayable",
      "type": "function"
    },
    {
      "inputs": [],
      "name": "withdraw",
      "outputs": [],
      "stateMutability": "nonpayable",
      "type": "function"
    }
  ],
  "bytecode": "0x60a06040523480156200001157600080fd5b506040516200457f3803806200457f8339818101604052810190620000379190620002d3565b60016000819055506040518060a001604052806040518060400160405280600681526020017f455243373231000000000000000000000000000000000000000000000000000081525081526020018273ffffffffffffffffffffffffffffffffffffffff1681526020016040518060400160405280600581526020017f302e302e3100000000000000000000000000000000000000000000000000000081525081526020014281526020016040518060400160405280601b81526020017f68747470733a2f2f7777772e687970657276657273652e6465762f0000000000815250815250600260008201518160000190805190602001906200013b9291906200020c565b5060208201518160010160006101000a81548173ffffffffffffffffffffffffffffffffffffffff021916908373ffffffffffffffffffffffffffffffffffffffff1602179055506040820151816002019080519060200190620001a19291906200020c565b50606082015181600301556080820151816004019080519060200190620001ca9291906200020c565b509050508073ffffffffffffffffffffffffffffffffffffffff1660808173ffffffffffffffffffffffffffffffffffffffff1660601b8152505050620003b2565b8280546200021a9062000333565b90600052602060002090601f0160209004810192826200023e57600085556200028a565b82601f106200025957805160ff19168380011785556200028a565b828001600101855582156200028a579182015b82811115620002895782518255916020019190600101906200026c565b5b5090506200029991906200029d565b5090565b5b80821115620002b85760008160009055506001016200029e565b5090565b600081519050620002cd8162000398565b92915050565b600060208284031215620002e657600080fd5b6000620002f684828501620002bc565b91505092915050565b60006200030c8262000313565b9050919050565b600073ffffffffffffffffffffffffffffffffffffffff82169050919050565b600060028204905060018216806200034c57607f821691505b6020821081141562000363576200036262000369565b5b50919050565b7f4e487b7100000000000000000000000000000000000000000000000000000000600052602260045260246000fd5b620003a381620002ff565b8114620003af57600080fd5b50565b60805160601c6141ae620003d1600039600061219001526141ae6000f3fe6080604052600436106101f95760003560e01c806342966c681161010d57806395d89b41116100a0578063ce606ee01161006f578063ce606ee014610729578063d082e38114610754578063e985e9c51461077f578063f103b433146107bc578063fdd173b4146107e5576101f9565b806395d89b411461066f578063a22cb4651461069a578063b88d4fde146106c3578063c87b56dd146106ec576101f9565b80636a627842116100dc5780636a627842146105ae57806370a08231146105de578063714c53981461061b5780638d6cc56d14610646576101f9565b806342966c68146104f657806355f804b31461051f5780636352211e14610548578063694babe414610585576101f9565b806322685c721161019057806327fbceac1161015f57806327fbceac14610421578063392f37e91461045e5780633ccfd60b1461048d5780633e2b81c4146104a457806342842e0e146104cd576101f9565b806322685c721461037457806323b872dd1461039f578063248b71fc146103c857806324963c96146103f8576101f9565b8063095ea7b3116101cc578063095ea7b3146102cc5780630b8eb2cf146102f55780630ee83a7114610320578063217cc2b414610337576101f9565b806301ffc9a7146101fe57806306fdde031461023b578063077f224a14610266578063081812fc1461028f575b600080fd5b34801561020a57600080fd5b50610225600480360381019061022091906136b8565b610813565b6040516102329190613aad565b60405180910390f35b34801561024757600080fd5b506102506108f5565b60405161025d9190613b4b565b60405180910390f35b34801561027257600080fd5b5061028d6004803603810190610288919061374b565b610987565b005b34801561029b57600080fd5b506102b660048036038101906102b191906137ca565b610b0e565b6040516102c39190613a24565b60405180910390f35b3480156102d857600080fd5b506102f360048036038101906102ee9190613653565b610b54565b005b34801561030157600080fd5b5061030a610c5d565b6040516103179190613a24565b60405180910390f35b34801561032c57600080fd5b50610335610c83565b005b34801561034357600080fd5b5061035e60048036038101906103599190613490565b610d75565b60405161036b9190613bad565b60405180910390f35b34801561038057600080fd5b50610389610e6b565b6040516103969190613aad565b60405180910390f35b3480156103ab57600080fd5b506103c660048036038101906103c191906134f5565b610e7e565b005b6103e260048036038101906103dd9190613653565b610ed5565b6040516103ef9190613a8b565b60405180910390f35b34801561040457600080fd5b5061041f600480360381019061041a91906137f3565b6111f1565b005b34801561042d57600080fd5b50610448600480360381019061044391906135fb565b61131f565b6040516104559190613bad565b60405180910390f35b34801561046a57600080fd5b506104736113f9565b604051610484959493929190613ac8565b60405180910390f35b34801561049957600080fd5b506104a26115d5565b005b3480156104b057600080fd5b506104cb60048036038101906104c6919061368f565b6116ab565b005b3480156104d957600080fd5b506104f460048036038101906104ef91906134f5565b6117a0565b005b34801561050257600080fd5b5061051d600480360381019061051891906137ca565b6117c0565b005b34801561052b57600080fd5b506105466004803603810190610541919061370a565b61183f565b005b34801561055457600080fd5b5061056f600480360381019061056a91906137ca565b6118e0565b60405161057c9190613a24565b60405180910390f35b34801561059157600080fd5b506105ac60048036038101906105a791906137ca565b611989565b005b6105c860048036038101906105c39190613490565b611a6b565b6040516105d59190613bad565b60405180910390f35b3480156105ea57600080fd5b5061060560048036038101906106009190613490565b611d0d565b6040516106129190613bad565b60405180910390f35b34801561062757600080fd5b50610630611dbc565b60405161063d9190613b4b565b60405180910390f35b34801561065257600080fd5b5061066d600480360381019061066891906137ca565b611e4e565b005b34801561067b57600080fd5b50610684611f30565b6040516106919190613b4b565b60405180910390f35b3480156106a657600080fd5b506106c160048036038101906106bc91906135bf565b611fc2565b005b3480156106cf57600080fd5b506106ea60048036038101906106e59190613544565b611fd8565b005b3480156106f857600080fd5b50610713600480360381019061070e91906137ca565b612031565b6040516107209190613b4b565b60405180910390f35b34801561073557600080fd5b5061073e61218e565b60405161074b9190613a24565b60405180910390f35b34801561076057600080fd5b506107696121b2565b6040516107769190613bad565b60405180910390f35b34801561078b57600080fd5b506107a660048036038101906107a191906134b9565b6121be565b6040516107b39190613aad565b60405180910390f35b3480156107c857600080fd5b506107e360048036038101906107de91906137ca565b612252565b005b3480156107f157600080fd5b506107fa612334565b60405161080a9493929190613bc8565b60405180910390f35b60007f80ac58cd000000000000000000000000000000000000000000000000000000007bffffffffffffffffffffffffffffffffffffffffffffffffffffffff1916827bffffffffffffffffffffffffffffffffffffffffffffffffffffffff191614806108de57507f5b5e139f000000000000000000000000000000000000000000000000000000007bffffffffffffffffffffffffffffffffffffffffffffffffffffffff1916827bffffffffffffffffffffffffffffffffffffffffffffffffffffffff1916145b806108ee57506108ed8261235f565b5b9050919050565b6060600a805461090490613efa565b80601f016020809104026020016040519081016040528092919081815260200182805461093090613efa565b801561097d5780601f106109525761010080835404028352916020019161097d565b820191906000526020600020905b81548152906001019060200180831161096057829003601f168201915b5050505050905090565b600061099360016123c9565b905080156109b65760018060016101000a81548160ff0219169083151502179055505b81600073ffffffffffffffffffffffffffffffffffffffff16600860009054906101000a900473ffffffffffffffffffffffffffffffffffffffff1673ffffffffffffffffffffffffffffffffffffffff1614610a3f576040517f0dc149f000000000000000000000000000000000000000000000000000000000815260040160405180910390fd5b84600a9080519060200190610a559291906131e4565b5083600b9080519060200190610a6c9291906131e4565b5082600860006101000a81548173ffffffffffffffffffffffffffffffffffffffff021916908373ffffffffffffffffffffffffffffffffffffffff160217905550508015610b085760006001806101000a81548160ff0219169083151502179055507f7f26b83ff96e1f2b6a682f133852f6798a09c465da95921460cefb38474024986001604051610aff9190613b30565b60405180910390a15b50505050565b6000610b19826124bb565b6014600083815260200190815260200160002060009054906101000a900473ffffffffffffffffffffffffffffffffffffffff169050919050565b6000610b5f826118e0565b90508273ffffffffffffffffffffffffffffffffffffffff168173ffffffffffffffffffffffffffffffffffffffff161415610bc7576040517f367558c300000000000000000000000000000000000000000000000000000000815260040160405180910390fd5b8073ffffffffffffffffffffffffffffffffffffffff16610be66124fd565b73ffffffffffffffffffffffffffffffffffffffff16141580610c175750610c1581610c106124fd565b6121be565b155b15610c4e576040517f82b4290000000000000000000000000000000000000000000000000000000000815260040160405180910390fd5b610c588383612505565b505050565b600860009054906101000a900473ffffffffffffffffffffffffffffffffffffffff1681565b600860009054906101000a900473ffffffffffffffffffffffffffffffffffffffff1673ffffffffffffffffffffffffffffffffffffffff163373ffffffffffffffffffffffffffffffffffffffff1614610d0a576040517f82b4290000000000000000000000000000000000000000000000000000000000815260040160405180910390fd5b60011515600d60019054906101000a900460ff1615151415610d58576040517f1bd131c300000000000000000000000000000000000000000000000000000000815260040160405180910390fd5b6001600d60016101000a81548160ff021916908315150217905550565b6000600860009054906101000a900473ffffffffffffffffffffffffffffffffffffffff1673ffffffffffffffffffffffffffffffffffffffff163373ffffffffffffffffffffffffffffffffffffffff1614610dfe576040517f82b4290000000000000000000000000000000000000000000000000000000000815260040160405180910390fd5b60001515600d60009054906101000a900460ff1615151415610e4c576040517fdbc28d8300000000000000000000000000000000000000000000000000000000815260040160405180910390fd5b6000610e566125be565b9050610e6283826125d9565b80915050919050565b600d60019054906101000a900460ff1681565b610e8f610e896124fd565b826125f7565b610ec5576040517f82b4290000000000000000000000000000000000000000000000000000000000815260040160405180910390fd5b610ed083838361268c565b505050565b606060026000541415610f1d576040517f08c379a0000000000000000000000000000000000000000000000000000000008152600401610f1490613b8d565b60405180910390fd5b60026000819055508160001515600e60030160009054906101000a900460ff1615151415610f77576040517f15b1bdcd00000000000000000000000000000000000000000000000000000000815260040160405180910390fd5b600e60010154610f8760096128cb565b1180610fab5750600e6001015481610f9f60096128cb565b610fa99190613d10565b115b15610fe2576040517f8a164f6300000000000000000000000000000000000000000000000000000000815260040160405180910390fd5b80600e60000154610ff39190613d97565b8134610fff9190613d97565b14611036576040517ff4d678b800000000000000000000000000000000000000000000000000000000815260040160405180910390fd5b6000600e60020154141580156110635750600e600201548161105733611d0d565b6110619190613d10565b115b1561109a576040517fecdd05c000000000000000000000000000000000000000000000000000000000815260040160405180910390fd5b6000600e600201541480156110b85750600e60010154600e60020154145b156110ef576040517fecdd05c000000000000000000000000000000000000000000000000000000000815260040160405180910390fd5b60008367ffffffffffffffff811115611131577f4e487b7100000000000000000000000000000000000000000000000000000000600052604160045260246000fd5b60405190808252806020026020018201604052801561115f5781602001602082028036833780820191505090505b50905060005b848110156111dd5760006111776125be565b9050808383815181106111b3577f4e487b7100000000000000000000000000000000000000000000000000000000600052603260045260246000fd5b6020026020010181815250506111c987826125d9565b5080806111d590613f5d565b915050611165565b508092505050600160008190555092915050565b600860009054906101000a900473ffffffffffffffffffffffffffffffffffffffff1673ffffffffffffffffffffffffffffffffffffffff163373ffffffffffffffffffffffffffffffffffffffff1614611278576040517f82b4290000000000000000000000000000000000000000000000000000000000815260040160405180910390fd5b60011515600d60009054906101000a900460ff16151514156112c6576040517f0dc149f000000000000000000000000000000000000000000000000000000000815260040160405180910390fd5b83600e6000018190555082600e6001018190555081600e6002018190555080600d60016101000a81548160ff0219169083151502179055506001600d60006101000a81548160ff02191690831515021790555050505050565b6000600860009054906101000a900473ffffffffffffffffffffffffffffffffffffffff1673ffffffffffffffffffffffffffffffffffffffff163373ffffffffffffffffffffffffffffffffffffffff16146113a8576040517f82b4290000000000000000000000000000000000000000000000000000000000815260040160405180910390fd5b60006113b26125be565b90506113be85826125d9565b60008484905011156113ee5783836016600084815260200190815260200160002091906113ec92919061326a565b505b809150509392505050565b600280600001805461140a90613efa565b80601f016020809104026020016040519081016040528092919081815260200182805461143690613efa565b80156114835780601f1061145857610100808354040283529160200191611483565b820191906000526020600020905b81548152906001019060200180831161146657829003601f168201915b5050505050908060010160009054906101000a900473ffffffffffffffffffffffffffffffffffffffff16908060020180546114be90613efa565b80601f01602080910402602001604051908101604052809291908181526020018280546114ea90613efa565b80156115375780601f1061150c57610100808354040283529160200191611537565b820191906000526020600020905b81548152906001019060200180831161151a57829003601f168201915b50505050509080600301549080600401805461155290613efa565b80601f016020809104026020016040519081016040528092919081815260200182805461157e90613efa565b80156115cb5780601f106115a0576101008083540402835291602001916115cb565b820191906000526020600020905b8154815290600101906020018083116115ae57829003601f168201915b5050505050905085565b600860009054906101000a900473ffffffffffffffffffffffffffffffffffffffff1673ffffffffffffffffffffffffffffffffffffffff163373ffffffffffffffffffffffffffffffffffffffff161461165c576040517f82b4290000000000000000000000000000000000000000000000000000000000815260040160405180910390fd5b60004790503373ffffffffffffffffffffffffffffffffffffffff166108fc829081150290604051600060405180830381858888f193505050501580156116a7573d6000803e3d6000fd5b5050565b60001515600d60009054906101000a900460ff16151514156116f9576040517fdbc28d8300000000000000000000000000000000000000000000000000000000815260040160405180910390fd5b600860009054906101000a900473ffffffffffffffffffffffffffffffffffffffff1673ffffffffffffffffffffffffffffffffffffffff163373ffffffffffffffffffffffffffffffffffffffff1614611780576040517f82b4290000000000000000000000000000000000000000000000000000000000815260040160405180910390fd5b80600e60030160006101000a81548160ff02191690831515021790555050565b6117bb83838360405180602001604052806000815250611fd8565b505050565b60006117cb826118e0565b90503373ffffffffffffffffffffffffffffffffffffffff168173ffffffffffffffffffffffffffffffffffffffff1614611832576040517f82b4290000000000000000000000000000000000000000000000000000000000815260040160405180910390fd5b61183b826128d9565b5050565b600860009054906101000a900473ffffffffffffffffffffffffffffffffffffffff1673ffffffffffffffffffffffffffffffffffffffff163373ffffffffffffffffffffffffffffffffffffffff16146118c6576040517f82b4290000000000000000000000000000000000000000000000000000000000815260040160405180910390fd5b80600c90805190602001906118dc9291906131e4565b5050565b6000806012600084815260200190815260200160002060009054906101000a900473ffffffffffffffffffffffffffffffffffffffff169050600073ffffffffffffffffffffffffffffffffffffffff168173ffffffffffffffffffffffffffffffffffffffff161415611980576040517f3f6cc76800000000000000000000000000000000000000000000000000000000815260040160405180910390fd5b80915050919050565b600860009054906101000a900473ffffffffffffffffffffffffffffffffffffffff1673ffffffffffffffffffffffffffffffffffffffff163373ffffffffffffffffffffffffffffffffffffffff1614611a10576040517f82b4290000000000000000000000000000000000000000000000000000000000815260040160405180910390fd5b60011515600d60019054906101000a900460ff1615151415611a5e576040517f1bd131c300000000000000000000000000000000000000000000000000000000815260040160405180910390fd5b80600e6002018190555050565b600060026000541415611ab3576040517f08c379a0000000000000000000000000000000000000000000000000000000008152600401611aaa90613b8d565b60405180910390fd5b600260008190555060001515600d60009054906101000a900460ff1615151415611b09576040517fdbc28d8300000000000000000000000000000000000000000000000000000000815260040160405180910390fd5b600160001515600e60030160009054906101000a900460ff1615151415611b5c576040517f15b1bdcd00000000000000000000000000000000000000000000000000000000815260040160405180910390fd5b600e60010154611b6c60096128cb565b1180611b905750600e6001015481611b8460096128cb565b611b8e9190613d10565b115b15611bc7576040517f8a164f6300000000000000000000000000000000000000000000000000000000815260040160405180910390fd5b80600e60000154611bd89190613d97565b8134611be49190613d97565b14611c1b576040517ff4d678b800000000000000000000000000000000000000000000000000000000815260040160405180910390fd5b6000600e6002015414158015611c485750600e6002015481611c3c33611d0d565b611c469190613d10565b115b15611c7f576040517fecdd05c000000000000000000000000000000000000000000000000000000000815260040160405180910390fd5b6000600e60020154148015611c9d5750600e60010154600e60020154145b15611cd4576040517fecdd05c000000000000000000000000000000000000000000000000000000000815260040160405180910390fd5b600e600001543414611ce557600080fd5b6000611cef6125be565b9050611cfb84826125d9565b80925050506001600081905550919050565b60008073ffffffffffffffffffffffffffffffffffffffff168273ffffffffffffffffffffffffffffffffffffffff161415611d75576040517fd92e233d00000000000000000000000000000000000000000000000000000000815260040160405180910390fd5b601360008373ffffffffffffffffffffffffffffffffffffffff1673ffffffffffffffffffffffffffffffffffffffff168152602001908152602001600020549050919050565b6060600c8054611dcb90613efa565b80601f0160208091040260200160405190810160405280929190818152602001828054611df790613efa565b8015611e445780601f10611e1957610100808354040283529160200191611e44565b820191906000526020600020905b815481529060010190602001808311611e2757829003601f168201915b5050505050905090565b600860009054906101000a900473ffffffffffffffffffffffffffffffffffffffff1673ffffffffffffffffffffffffffffffffffffffff163373ffffffffffffffffffffffffffffffffffffffff1614611ed5576040517f82b4290000000000000000000000000000000000000000000000000000000000815260040160405180910390fd5b60011515600d60019054906101000a900460ff1615151415611f23576040517f1bd131c300000000000000000000000000000000000000000000000000000000815260040160405180910390fd5b80600e6000018190555050565b6060600b8054611f3f90613efa565b80601f0160208091040260200160405190810160405280929190818152602001828054611f6b90613efa565b8015611fb85780601f10611f8d57610100808354040283529160200191611fb8565b820191906000526020600020905b815481529060010190602001808311611f9b57829003601f168201915b5050505050905090565b611fd4611fcd6124fd565b83836129de565b5050565b611fe9611fe36124fd565b836125f7565b61201f576040517f82b4290000000000000000000000000000000000000000000000000000000000815260040160405180910390fd5b61202b84848484612ba9565b50505050565b606061203c826124bb565b600d60009054906101000a900460ff1661213057600060166000848152602001908152602001600020805461207090613efa565b90501161208c5760405180602001604052806000815250612129565b6016600083815260200190815260200160002080546120aa90613efa565b80601f01602080910402602001604051908101604052809291908181526020018280546120d690613efa565b80156121235780601f106120f857610100808354040283529160200191612123565b820191906000526020600020905b81548152906001019060200180831161210657829003601f168201915b50505050505b9050612189565b600061213a612bfc565b9050600081511161215a5760405180602001604052806000815250612185565b8061216484612c13565b604051602001612175929190613a00565b6040516020818303038152906040525b9150505b919050565b7f000000000000000000000000000000000000000000000000000000000000000081565b60098060000154905081565b6000601560008473ffffffffffffffffffffffffffffffffffffffff1673ffffffffffffffffffffffffffffffffffffffff16815260200190815260200160002060008373ffffffffffffffffffffffffffffffffffffffff1673ffffffffffffffffffffffffffffffffffffffff16815260200190815260200160002060009054906101000a900460ff16905092915050565b600860009054906101000a900473ffffffffffffffffffffffffffffffffffffffff1673ffffffffffffffffffffffffffffffffffffffff163373ffffffffffffffffffffffffffffffffffffffff16146122d9576040517f82b4290000000000000000000000000000000000000000000000000000000000815260040160405180910390fd5b60011515600d60019054906101000a900460ff1615151415612327576040517f1bd131c300000000000000000000000000000000000000000000000000000000815260040160405180910390fd5b80600e6001018190555050565b600e8060000154908060010154908060020154908060030160009054906101000a900460ff16905084565b60007f01ffc9a7000000000000000000000000000000000000000000000000000000007bffffffffffffffffffffffffffffffffffffffffffffffffffffffff1916827bffffffffffffffffffffffffffffffffffffffffffffffffffffffff1916149050919050565b600060018054906101000a900460ff161561243f5760018260ff161480156123f757506123f530612dc0565b155b612436576040517f08c379a000000000000000000000000000000000000000000000000000000000815260040161242d90613b6d565b60405180910390fd5b600090506124b6565b8160ff16600160009054906101000a900460ff1660ff1610612496576040517f08c379a000000000000000000000000000000000000000000000000000000000815260040161248d90613b6d565b60405180910390fd5b81600160006101000a81548160ff021916908360ff160217905550600190505b919050565b6124c481612dd3565b6124fa576040517f3f6cc76800000000000000000000000000000000000000000000000000000000815260040160405180910390fd5b50565b600033905090565b816014600083815260200190815260200160002060006101000a81548173ffffffffffffffffffffffffffffffffffffffff021916908373ffffffffffffffffffffffffffffffffffffffff160217905550808273ffffffffffffffffffffffffffffffffffffffff16612578836118e0565b73ffffffffffffffffffffffffffffffffffffffff167f8c5be1e5ebec7d5bd14f71427d1e84f3dd0314c0f7b2291e5b200ac8c7c3b92560405160405180910390a45050565b60006125ca6009612e3f565b6125d460096128cb565b905090565b6125f3828260405180602001604052806000815250612e55565b5050565b600080612603836118e0565b90508073ffffffffffffffffffffffffffffffffffffffff168473ffffffffffffffffffffffffffffffffffffffff161480612645575061264481856121be565b5b8061268357508373ffffffffffffffffffffffffffffffffffffffff1661266b84610b0e565b73ffffffffffffffffffffffffffffffffffffffff16145b91505092915050565b8273ffffffffffffffffffffffffffffffffffffffff166126ac826118e0565b73ffffffffffffffffffffffffffffffffffffffff16146126f9576040517f3a6bbed300000000000000000000000000000000000000000000000000000000815260040160405180910390fd5b600073ffffffffffffffffffffffffffffffffffffffff168273ffffffffffffffffffffffffffffffffffffffff161415612760576040517fd92e233d00000000000000000000000000000000000000000000000000000000815260040160405180910390fd5b61276b600082612505565b6001601360008573ffffffffffffffffffffffffffffffffffffffff1673ffffffffffffffffffffffffffffffffffffffff16815260200190815260200160002060008282546127bb9190613df1565b925050819055506001601360008473ffffffffffffffffffffffffffffffffffffffff1673ffffffffffffffffffffffffffffffffffffffff16815260200190815260200160002060008282546128129190613d10565b92505081905550816012600083815260200190815260200160002060006101000a81548173ffffffffffffffffffffffffffffffffffffffff021916908373ffffffffffffffffffffffffffffffffffffffff160217905550808273ffffffffffffffffffffffffffffffffffffffff168473ffffffffffffffffffffffffffffffffffffffff167fddf252ad1be2c89b69c2b068fc378daa952ba7f163c4a11628f55a4df523b3ef60405160405180910390a4505050565b600081600001549050919050565b60006128e4826118e0565b90506128f1600083612505565b6001601360008373ffffffffffffffffffffffffffffffffffffffff1673ffffffffffffffffffffffffffffffffffffffff16815260200190815260200160002060008282546129419190613df1565b925050819055506012600083815260200190815260200160002060006101000a81549073ffffffffffffffffffffffffffffffffffffffff021916905581600073ffffffffffffffffffffffffffffffffffffffff168273ffffffffffffffffffffffffffffffffffffffff167fddf252ad1be2c89b69c2b068fc378daa952ba7f163c4a11628f55a4df523b3ef60405160405180910390a45050565b600073ffffffffffffffffffffffffffffffffffffffff168273ffffffffffffffffffffffffffffffffffffffff161415612a45576040517fd92e233d00000000000000000000000000000000000000000000000000000000815260040160405180910390fd5b8173ffffffffffffffffffffffffffffffffffffffff168373ffffffffffffffffffffffffffffffffffffffff161415612aab576040517ff4b33eeb00000000000000000000000000000000000000000000000000000000815260040160405180910390fd5b80601560008573ffffffffffffffffffffffffffffffffffffffff1673ffffffffffffffffffffffffffffffffffffffff16815260200190815260200160002060008473ffffffffffffffffffffffffffffffffffffffff1673ffffffffffffffffffffffffffffffffffffffff16815260200190815260200160002060006101000a81548160ff0219169083151502179055508173ffffffffffffffffffffffffffffffffffffffff168373ffffffffffffffffffffffffffffffffffffffff167f17307eab39ab6107e8899845ad3d59bd9653f200f220920489ca2b5937696c3183604051612b9c9190613aad565b60405180910390a3505050565b612bb484848461268c565b612bc084848484612ea7565b612bf6576040517f44ccafd600000000000000000000000000000000000000000000000000000000815260040160405180910390fd5b50505050565b606060405180602001604052806000815250905090565b60606000821415612c5b576040518060400160405280600181526020017f30000000000000000000000000000000000000000000000000000000000000008152509050612dbb565b600082905060005b60008214612c8d578080612c7690613f5d565b915050600a82612c869190613d66565b9150612c63565b60008167ffffffffffffffff811115612ccf577f4e487b7100000000000000000000000000000000000000000000000000000000600052604160045260246000fd5b6040519080825280601f01601f191660200182016040528015612d015781602001600182028036833780820191505090505b5090505b60008514612db457600182612d1a9190613df1565b9150600a85612d299190613fa6565b6030612d359190613d10565b60f81b818381518110612d71577f4e487b7100000000000000000000000000000000000000000000000000000000600052603260045260246000fd5b60200101907effffffffffffffffffffffffffffffffffffffffffffffffffffffffffffff1916908160001a905350600a85612dad9190613d66565b9450612d05565b8093505050505b919050565b600080823b905060008111915050919050565b60008073ffffffffffffffffffffffffffffffffffffffff166012600084815260200190815260200160002060009054906101000a900473ffffffffffffffffffffffffffffffffffffffff1673ffffffffffffffffffffffffffffffffffffffff1614159050919050565b6001816000016000828254019250508190555050565b612e5f8383613035565b612e6c6000848484612ea7565b612ea2576040517f44ccafd600000000000000000000000000000000000000000000000000000000815260040160405180910390fd5b505050565b6000612ec88473ffffffffffffffffffffffffffffffffffffffff16612dc0565b15613028578373ffffffffffffffffffffffffffffffffffffffff1663150b7a02612ef16124fd565b8786866040518563ffffffff1660e01b8152600401612f139493929190613a3f565b602060405180830381600087803b158015612f2d57600080fd5b505af1925050508015612f5e57506040513d601f19601f82011682018060405250810190612f5b91906136e1565b60015b612fd8573d8060008114612f8e576040519150601f19603f3d011682016040523d82523d6000602084013e612f93565b606091505b50600081511415612fd0576040517f44ccafd600000000000000000000000000000000000000000000000000000000815260040160405180910390fd5b805181602001fd5b63150b7a0260e01b7bffffffffffffffffffffffffffffffffffffffffffffffffffffffff1916817bffffffffffffffffffffffffffffffffffffffffffffffffffffffff19161491505061302d565b600190505b949350505050565b600073ffffffffffffffffffffffffffffffffffffffff168273ffffffffffffffffffffffffffffffffffffffff16141561309c576040517fd92e233d00000000000000000000000000000000000000000000000000000000815260040160405180910390fd5b6130a581612dd3565b156130db576040517ea5a1f500000000000000000000000000000000000000000000000000000000815260040160405180910390fd5b6001601360008473ffffffffffffffffffffffffffffffffffffffff1673ffffffffffffffffffffffffffffffffffffffff168152602001908152602001600020600082825461312b9190613d10565b92505081905550816012600083815260200190815260200160002060006101000a81548173ffffffffffffffffffffffffffffffffffffffff021916908373ffffffffffffffffffffffffffffffffffffffff160217905550808273ffffffffffffffffffffffffffffffffffffffff16600073ffffffffffffffffffffffffffffffffffffffff167fddf252ad1be2c89b69c2b068fc378daa952ba7f163c4a11628f55a4df523b3ef60405160405180910390a45050565b8280546131f090613efa565b90600052602060002090601f0160209004810192826132125760008555613259565b82601f1061322b57805160ff1916838001178555613259565b82800160010185558215613259579182015b8281111561325857825182559160200191906001019061323d565b5b50905061326691906132f0565b5090565b82805461327690613efa565b90600052602060002090601f01602090048101928261329857600085556132df565b82601f106132b157803560ff19168380011785556132df565b828001600101855582156132df579182015b828111156132de5782358255916020019190600101906132c3565b5b5090506132ec91906132f0565b5090565b5b808211156133095760008160009055506001016132f1565b5090565b600061332061331b84613c32565b613c0d565b90508281526020810184848401111561333857600080fd5b613343848285613eb8565b509392505050565b600061335e61335984613c63565b613c0d565b90508281526020810184848401111561337657600080fd5b613381848285613eb8565b509392505050565b6000813590506133988161411c565b92915050565b6000813590506133ad81614133565b92915050565b6000813590506133c28161414a565b92915050565b6000815190506133d78161414a565b92915050565b600082601f8301126133ee57600080fd5b81356133fe84826020860161330d565b91505092915050565b60008083601f84011261341957600080fd5b8235905067ffffffffffffffff81111561343257600080fd5b60208301915083600182028301111561344a57600080fd5b9250929050565b600082601f83011261346257600080fd5b813561347284826020860161334b565b91505092915050565b60008135905061348a81614161565b92915050565b6000602082840312156134a257600080fd5b60006134b084828501613389565b91505092915050565b600080604083850312156134cc57600080fd5b60006134da85828601613389565b92505060206134eb85828601613389565b9150509250929050565b60008060006060848603121561350a57600080fd5b600061351886828701613389565b935050602061352986828701613389565b925050604061353a8682870161347b565b9150509250925092565b6000806000806080858703121561355a57600080fd5b600061356887828801613389565b945050602061357987828801613389565b935050604061358a8782880161347b565b925050606085013567ffffffffffffffff8111156135a757600080fd5b6135b3878288016133dd565b91505092959194509250565b600080604083850312156135d257600080fd5b60006135e085828601613389565b92505060206135f18582860161339e565b9150509250929050565b60008060006040848603121561361057600080fd5b600061361e86828701613389565b935050602084013567ffffffffffffffff81111561363b57600080fd5b61364786828701613407565b92509250509250925092565b6000806040838503121561366657600080fd5b600061367485828601613389565b92505060206136858582860161347b565b9150509250929050565b6000602082840312156136a157600080fd5b60006136af8482850161339e565b91505092915050565b6000602082840312156136ca57600080fd5b60006136d8848285016133b3565b91505092915050565b6000602082840312156136f357600080fd5b6000613701848285016133c8565b91505092915050565b60006020828403121561371c57600080fd5b600082013567ffffffffffffffff81111561373657600080fd5b61374284828501613451565b91505092915050565b60008060006060848603121561376057600080fd5b600084013567ffffffffffffffff81111561377a57600080fd5b61378686828701613451565b935050602084013567ffffffffffffffff8111156137a357600080fd5b6137af86828701613451565b92505060406137c086828701613389565b9150509250925092565b6000602082840312156137dc57600080fd5b60006137ea8482850161347b565b91505092915050565b6000806000806080858703121561380957600080fd5b60006138178782880161347b565b94505060206138288782880161347b565b93505060406138398782880161347b565b925050606061384a8782880161339e565b91505092959194509250565b600061386283836139e2565b60208301905092915050565b61387781613e25565b82525050565b600061388882613ca4565b6138928185613cd2565b935061389d83613c94565b8060005b838110156138ce5781516138b58882613856565b97506138c083613cc5565b9250506001810190506138a1565b5085935050505092915050565b6138e481613e37565b82525050565b60006138f582613caf565b6138ff8185613ce3565b935061390f818560208601613ec7565b61391881614093565b840191505092915050565b61392c81613ea6565b82525050565b600061393d82613cba565b6139478185613cf4565b9350613957818560208601613ec7565b61396081614093565b840191505092915050565b600061397682613cba565b6139808185613d05565b9350613990818560208601613ec7565b80840191505092915050565b60006139a9602e83613cf4565b91506139b4826140a4565b604082019050919050565b60006139cc601f83613cf4565b91506139d7826140f3565b602082019050919050565b6139eb81613e8f565b82525050565b6139fa81613e8f565b82525050565b6000613a0c828561396b565b9150613a18828461396b565b91508190509392505050565b6000602082019050613a39600083018461386e565b92915050565b6000608082019050613a54600083018761386e565b613a61602083018661386e565b613a6e60408301856139f1565b8181036060830152613a8081846138ea565b905095945050505050565b60006020820190508181036000830152613aa5818461387d565b905092915050565b6000602082019050613ac260008301846138db565b92915050565b600060a0820190508181036000830152613ae281886138ea565b9050613af1602083018761386e565b8181036040830152613b0381866138ea565b9050613b1260608301856139f1565b8181036080830152613b2481846138ea565b90509695505050505050565b6000602082019050613b456000830184613923565b92915050565b60006020820190508181036000830152613b658184613932565b905092915050565b60006020820190508181036000830152613b868161399c565b9050919050565b60006020820190508181036000830152613ba6816139bf565b9050919050565b6000602082019050613bc260008301846139f1565b92915050565b6000608082019050613bdd60008301876139f1565b613bea60208301866139f1565b613bf760408301856139f1565b613c0460608301846138db565b95945050505050565b6000613c17613c28565b9050613c238282613f2c565b919050565b6000604051905090565b600067ffffffffffffffff821115613c4d57613c4c614064565b5b613c5682614093565b9050602081019050919050565b600067ffffffffffffffff821115613c7e57613c7d614064565b5b613c8782614093565b9050602081019050919050565b6000819050602082019050919050565b600081519050919050565b600081519050919050565b600081519050919050565b6000602082019050919050565b600082825260208201905092915050565b600082825260208201905092915050565b600082825260208201905092915050565b600081905092915050565b6000613d1b82613e8f565b9150613d2683613e8f565b9250827fffffffffffffffffffffffffffffffffffffffffffffffffffffffffffffffff03821115613d5b57613d5a613fd7565b5b828201905092915050565b6000613d7182613e8f565b9150613d7c83613e8f565b925082613d8c57613d8b614006565b5b828204905092915050565b6000613da282613e8f565b9150613dad83613e8f565b9250817fffffffffffffffffffffffffffffffffffffffffffffffffffffffffffffffff0483118215151615613de657613de5613fd7565b5b828202905092915050565b6000613dfc82613e8f565b9150613e0783613e8f565b925082821015613e1a57613e19613fd7565b5b828203905092915050565b6000613e3082613e6f565b9050919050565b60008115159050919050565b60007fffffffff0000000000000000000000000000000000000000000000000000000082169050919050565b600073ffffffffffffffffffffffffffffffffffffffff82169050919050565b6000819050919050565b600060ff82169050919050565b6000613eb182613e99565b9050919050565b82818337600083830152505050565b60005b83811015613ee5578082015181840152602081019050613eca565b83811115613ef4576000848401525b50505050565b60006002820490506001821680613f1257607f821691505b60208210811415613f2657613f25614035565b5b50919050565b613f3582614093565b810181811067ffffffffffffffff82111715613f5457613f53614064565b5b80604052505050565b6000613f6882613e8f565b91507fffffffffffffffffffffffffffffffffffffffffffffffffffffffffffffffff821415613f9b57613f9a613fd7565b5b600182019050919050565b6000613fb182613e8f565b9150613fbc83613e8f565b925082613fcc57613fcb614006565b5b828206905092915050565b7f4e487b7100000000000000000000000000000000000000000000000000000000600052601160045260246000fd5b7f4e487b7100000000000000000000000000000000000000000000000000000000600052601260045260246000fd5b7f4e487b7100000000000000000000000000000000000000000000000000000000600052602260045260246000fd5b7f4e487b7100000000000000000000000000000000000000000000000000000000600052604160045260246000fd5b6000601f19601f8301169050919050565b7f496e697469616c697a61626c653a20636f6e747261637420697320616c72656160008201527f647920696e697469616c697a6564000000000000000000000000000000000000602082015250565b7f5265656e7472616e637947756172643a207265656e7472616e742063616c6c00600082015250565b61412581613e25565b811461413057600080fd5b50565b61413c81613e37565b811461414757600080fd5b50565b61415381613e43565b811461415e57600080fd5b50565b61416a81613e8f565b811461417557600080fd5b5056fea2646970667358221220f443b8c9612da5159a16a6ae1bdb5e86607f8d3dd1f02dd114aa42113a87e2a964736f6c63430008040033",
  "linkReferences": {},
  "deployedLinkReferences": {}
}