{
  "_format": "hh-sol-artifact-1",
  "contractName": "ERC721",
  "sourceName": "contracts/ERC721.sol",
  "abi": [
    {
      "inputs": [
        {
          "internalType": "address",
          "name": "_owner",
          "type": "address"
        }
      ],
      "stateMutability": "nonpayable",
      "type": "constructor"
    },
    {
      "inputs": [],
      "name": "AlreadyInitialized",
      "type": "error"
    },
    {
      "inputs": [],
      "name": "IncorrectOwner",
      "type": "error"
    },
    {
      "inputs": [],
      "name": "InsufficientAllowance",
      "type": "error"
    },
    {
      "inputs": [],
      "name": "InsufficientBalance",
      "type": "error"
    },
    {
      "inputs": [],
      "name": "InvalidTokenId",
      "type": "error"
    },
    {
      "inputs": [],
      "name": "MissingERC721Receiver",
      "type": "error"
    },
    {
      "inputs": [],
      "name": "PublicMintInactive",
      "type": "error"
    },
    {
      "inputs": [],
      "name": "SameAddress",
      "type": "error"
    },
    {
      "inputs": [],
      "name": "SameOwnerAndOperator",
      "type": "error"
    },
    {
      "inputs": [],
      "name": "TokenAlreadyMinted",
      "type": "error"
    },
    {
      "inputs": [],
      "name": "Unauthorized",
      "type": "error"
    },
    {
      "inputs": [],
      "name": "ZeroAddress",
      "type": "error"
    },
    {
      "anonymous": false,
      "inputs": [
        {
          "indexed": true,
          "internalType": "address",
          "name": "owner",
          "type": "address"
        },
        {
          "indexed": true,
          "internalType": "address",
          "name": "approved",
          "type": "address"
        },
        {
          "indexed": true,
          "internalType": "uint256",
          "name": "tokenId",
          "type": "uint256"
        }
      ],
      "name": "Approval",
      "type": "event"
    },
    {
      "anonymous": false,
      "inputs": [
        {
          "indexed": true,
          "internalType": "address",
          "name": "owner",
          "type": "address"
        },
        {
          "indexed": true,
          "internalType": "address",
          "name": "operator",
          "type": "address"
        },
        {
          "indexed": false,
          "internalType": "bool",
          "name": "approved",
          "type": "bool"
        }
      ],
      "name": "ApprovalForAll",
      "type": "event"
    },
    {
      "anonymous": false,
      "inputs": [
        {
          "indexed": false,
          "internalType": "uint8",
          "name": "version",
          "type": "uint8"
        }
      ],
      "name": "Initialized",
      "type": "event"
    },
    {
      "anonymous": false,
      "inputs": [
        {
          "indexed": true,
          "internalType": "address",
          "name": "from",
          "type": "address"
        },
        {
          "indexed": true,
          "internalType": "address",
          "name": "to",
          "type": "address"
        },
        {
          "indexed": true,
          "internalType": "uint256",
          "name": "tokenId",
          "type": "uint256"
        }
      ],
      "name": "Transfer",
      "type": "event"
    },
    {
      "inputs": [
        {
          "internalType": "address",
          "name": "_to",
          "type": "address"
        },
        {
          "internalType": "uint256",
          "name": "_tokenId",
          "type": "uint256"
        }
      ],
      "name": "approve",
      "outputs": [],
      "stateMutability": "nonpayable",
      "type": "function"
    },
    {
      "inputs": [
        {
          "internalType": "address",
          "name": "_owner",
          "type": "address"
        }
      ],
      "name": "balanceOf",
      "outputs": [
        {
          "internalType": "uint256",
          "name": "",
          "type": "uint256"
        }
      ],
      "stateMutability": "view",
      "type": "function"
    },
    {
      "inputs": [],
      "name": "contractOwner",
      "outputs": [
        {
          "internalType": "address",
          "name": "",
          "type": "address"
        }
      ],
      "stateMutability": "view",
      "type": "function"
    },
    {
      "inputs": [
        {
          "internalType": "uint256",
          "name": "_tokenId",
          "type": "uint256"
        }
      ],
      "name": "getApproved",
      "outputs": [
        {
          "internalType": "address",
          "name": "",
          "type": "address"
        }
      ],
      "stateMutability": "view",
      "type": "function"
    },
    {
      "inputs": [],
      "name": "getBaseURI",
      "outputs": [
        {
          "internalType": "string",
          "name": "",
          "type": "string"
        }
      ],
      "stateMutability": "view",
      "type": "function"
    },
    {
      "inputs": [
        {
          "internalType": "string",
          "name": "name_",
          "type": "string"
        },
        {
          "internalType": "string",
          "name": "symbol_",
          "type": "string"
        },
        {
          "internalType": "address",
          "name": "tenant_",
          "type": "address"
        }
      ],
      "name": "initialize",
      "outputs": [],
      "stateMutability": "nonpayable",
      "type": "function"
    },
    {
      "inputs": [
        {
          "internalType": "address",
          "name": "_owner",
          "type": "address"
        },
        {
          "internalType": "address",
          "name": "_operator",
          "type": "address"
        }
      ],
      "name": "isApprovedForAll",
      "outputs": [
        {
          "internalType": "bool",
          "name": "",
          "type": "bool"
        }
      ],
      "stateMutability": "view",
      "type": "function"
    },
    {
      "inputs": [],
      "name": "isPublicSaleActive",
      "outputs": [
        {
          "internalType": "bool",
          "name": "",
          "type": "bool"
        }
      ],
      "stateMutability": "view",
      "type": "function"
    },
    {
      "inputs": [],
      "name": "metadata",
      "outputs": [
        {
          "internalType": "bytes",
          "name": "title",
          "type": "bytes"
        },
        {
          "components": [
            {
              "internalType": "address",
              "name": "authorAddress",
              "type": "address"
            },
            {
              "internalType": "string",
              "name": "externalLink",
              "type": "string"
            }
          ],
          "internalType": "struct IHyperverseModule.Author",
          "name": "author",
          "type": "tuple"
        },
        {
          "internalType": "bytes",
          "name": "version",
          "type": "bytes"
        },
        {
          "internalType": "uint64",
          "name": "publishedAt",
          "type": "uint64"
        },
        {
          "internalType": "bytes",
          "name": "externalLink",
          "type": "bytes"
        }
      ],
      "stateMutability": "view",
      "type": "function"
    },
    {
      "inputs": [
        {
          "internalType": "address",
          "name": "_to",
          "type": "address"
        }
      ],
      "name": "mint",
      "outputs": [
        {
          "internalType": "uint256",
          "name": "",
          "type": "uint256"
        }
      ],
      "stateMutability": "payable",
      "type": "function"
    },
    {
      "inputs": [],
      "name": "name",
      "outputs": [
        {
          "internalType": "string",
          "name": "",
          "type": "string"
        }
      ],
      "stateMutability": "view",
      "type": "function"
    },
    {
      "inputs": [
        {
          "internalType": "uint256",
          "name": "_tokenId",
          "type": "uint256"
        }
      ],
      "name": "ownerOf",
      "outputs": [
        {
          "internalType": "address",
          "name": "",
          "type": "address"
        }
      ],
      "stateMutability": "view",
      "type": "function"
    },
    {
      "inputs": [],
      "name": "price",
      "outputs": [
        {
          "internalType": "uint256",
          "name": "",
          "type": "uint256"
        }
      ],
      "stateMutability": "view",
      "type": "function"
    },
    {
      "inputs": [
        {
          "internalType": "address",
          "name": "_from",
          "type": "address"
        },
        {
          "internalType": "address",
          "name": "_to",
          "type": "address"
        },
        {
          "internalType": "uint256",
          "name": "_tokenId",
          "type": "uint256"
        }
      ],
      "name": "safeTransferFrom",
      "outputs": [],
      "stateMutability": "nonpayable",
      "type": "function"
    },
    {
      "inputs": [
        {
          "internalType": "address",
          "name": "_from",
          "type": "address"
        },
        {
          "internalType": "address",
          "name": "_to",
          "type": "address"
        },
        {
          "internalType": "uint256",
          "name": "_tokenId",
          "type": "uint256"
        },
        {
          "internalType": "bytes",
          "name": "_data",
          "type": "bytes"
        }
      ],
      "name": "safeTransferFrom",
      "outputs": [],
      "stateMutability": "nonpayable",
      "type": "function"
    },
    {
      "inputs": [
        {
          "internalType": "address",
          "name": "_operator",
          "type": "address"
        },
        {
          "internalType": "bool",
          "name": "_approved",
          "type": "bool"
        }
      ],
      "name": "setApprovalForAll",
      "outputs": [],
      "stateMutability": "nonpayable",
      "type": "function"
    },
    {
      "inputs": [
        {
          "internalType": "string",
          "name": "baseURI_",
          "type": "string"
        }
      ],
      "name": "setBaseURI",
      "outputs": [],
      "stateMutability": "nonpayable",
      "type": "function"
    },
    {
      "inputs": [
        {
          "internalType": "uint256",
          "name": "_price",
          "type": "uint256"
        }
      ],
      "name": "setMintPrice",
      "outputs": [],
      "stateMutability": "nonpayable",
      "type": "function"
    },
    {
      "inputs": [
        {
          "internalType": "bool",
          "name": "_isActive",
          "type": "bool"
        }
      ],
      "name": "setPublicSale",
      "outputs": [],
      "stateMutability": "nonpayable",
      "type": "function"
    },
    {
      "inputs": [
        {
          "internalType": "bytes4",
          "name": "_interfaceId",
          "type": "bytes4"
        }
      ],
      "name": "supportsInterface",
      "outputs": [
        {
          "internalType": "bool",
          "name": "",
          "type": "bool"
        }
      ],
      "stateMutability": "view",
      "type": "function"
    },
    {
      "inputs": [],
      "name": "symbol",
      "outputs": [
        {
          "internalType": "string",
          "name": "",
          "type": "string"
        }
      ],
      "stateMutability": "view",
      "type": "function"
    },
    {
      "inputs": [
        {
          "internalType": "address",
          "name": "_reciever",
          "type": "address"
        }
      ],
      "name": "tenantMint",
      "outputs": [],
      "stateMutability": "nonpayable",
      "type": "function"
    },
    {
      "inputs": [
        {
          "internalType": "address",
          "name": "_to",
          "type": "address"
        },
        {
          "internalType": "string",
          "name": "_uri",
          "type": "string"
        }
      ],
      "name": "tenantMint",
      "outputs": [
        {
          "internalType": "uint256",
          "name": "",
          "type": "uint256"
        }
      ],
      "stateMutability": "payable",
      "type": "function"
    },
    {
      "inputs": [
        {
          "internalType": "uint256",
          "name": "_tokenId",
          "type": "uint256"
        }
      ],
      "name": "tokenURI",
      "outputs": [
        {
          "internalType": "string",
          "name": "",
          "type": "string"
        }
      ],
      "stateMutability": "view",
      "type": "function"
    },
    {
      "inputs": [
        {
          "internalType": "address",
          "name": "_from",
          "type": "address"
        },
        {
          "internalType": "address",
          "name": "_to",
          "type": "address"
        },
        {
          "internalType": "uint256",
          "name": "_tokenId",
          "type": "uint256"
        }
      ],
      "name": "transferFrom",
      "outputs": [],
      "stateMutability": "nonpayable",
      "type": "function"
    },
    {
      "inputs": [],
      "name": "withdraw",
      "outputs": [],
      "stateMutability": "nonpayable",
      "type": "function"
    },
    {
      "inputs": [
        {
          "internalType": "contract IERC20",
          "name": "_token",
          "type": "address"
        }
      ],
      "name": "withdrawTokens",
      "outputs": [],
      "stateMutability": "nonpayable",
      "type": "function"
    }
  ],
  "bytecode": "0x60a06040523480156200001157600080fd5b5060405162003b5e38038062003b5e83398181016040528101906200003791906200040c565b60016000819055506040518060a001604052806040518060400160405280600681526020017f4552433732310000000000000000000000000000000000000000000000000000815250815260200160405180604001604052808473ffffffffffffffffffffffffffffffffffffffff1681526020016040518060400160405280601881526020017f68747470733a2f2f65787465726e616c6c696e6b2e6e6574000000000000000081525081525081526020016040518060400160405280600581526020017f302e302e31000000000000000000000000000000000000000000000000000000815250815260200165032a361e860667ffffffffffffffff1681526020016040518060400160405280601881526020017f68747470733a2f2f65787465726e616c4c696e6b2e6e657400000000000000008152508152506002600082015181600001908051906020019062000194929190620002b4565b5060208201518160010160008201518160000160006101000a81548173ffffffffffffffffffffffffffffffffffffffff021916908373ffffffffffffffffffffffffffffffffffffffff16021790555060208201518160010190805190602001906200020392919062000345565b505050604082015181600301908051906020019062000224929190620002b4565b5060608201518160040160006101000a81548167ffffffffffffffff021916908367ffffffffffffffff160217905550608082015181600501908051906020019062000272929190620002b4565b509050508073ffffffffffffffffffffffffffffffffffffffff1660808173ffffffffffffffffffffffffffffffffffffffff1660601b8152505050620004eb565b828054620002c2906200046c565b90600052602060002090601f016020900481019282620002e6576000855562000332565b82601f106200030157805160ff191683800117855562000332565b8280016001018555821562000332579182015b828111156200033157825182559160200191906001019062000314565b5b509050620003419190620003d6565b5090565b82805462000353906200046c565b90600052602060002090601f016020900481019282620003775760008555620003c3565b82601f106200039257805160ff1916838001178555620003c3565b82800160010185558215620003c3579182015b82811115620003c2578251825591602001919060010190620003a5565b5b509050620003d29190620003d6565b5090565b5b80821115620003f1576000816000905550600101620003d7565b5090565b6000815190506200040681620004d1565b92915050565b6000602082840312156200041f57600080fd5b60006200042f84828501620003f5565b91505092915050565b600062000445826200044c565b9050919050565b600073ffffffffffffffffffffffffffffffffffffffff82169050919050565b600060028204905060018216806200048557607f821691505b602082108114156200049c576200049b620004a2565b5b50919050565b7f4e487b7100000000000000000000000000000000000000000000000000000000600052602260045260246000fd5b620004dc8162000438565b8114620004e857600080fd5b50565b60805160601c6136546200050a60003960006117a101526136546000f3fe60806040526004361061019c5760003560e01c806355f804b3116100ec578063a035b1fe1161008a578063c87b56dd11610064578063c87b56dd146105ac578063ce606ee0146105e9578063e985e9c514610614578063f4a0a528146106515761019c565b8063a035b1fe1461052f578063a22cb4651461055a578063b88d4fde146105835761019c565b80636a627842116100c65780636a6278421461046c57806370a082311461049c578063714c5398146104d957806395d89b41146105045761019c565b806355f804b3146103dd5780635aca1bb6146104065780636352211e1461042f5761019c565b8063217cc2b411610159578063392f37e911610133578063392f37e9146103455780633ccfd60b1461037457806342842e0e1461038b57806349df728c146103b45761019c565b8063217cc2b4146102c357806323b872dd146102ec57806327fbceac146103155761019c565b806301ffc9a7146101a157806306fdde03146101de578063077f224a14610209578063081812fc14610232578063095ea7b31461026f5780631e84c41314610298575b600080fd5b3480156101ad57600080fd5b506101c860048036038101906101c39190612bdc565b61067a565b6040516101d59190612fd6565b60405180910390f35b3480156101ea57600080fd5b506101f361075c565b604051610200919061307b565b60405180910390f35b34801561021557600080fd5b50610230600480360381019061022b9190612c98565b6107ee565b005b34801561023e57600080fd5b5061025960048036038101906102549190612d17565b610975565b6040516102669190612f46565b60405180910390f35b34801561027b57600080fd5b5061029660048036038101906102919190612b4e565b6109bb565b005b3480156102a457600080fd5b506102ad610ac4565b6040516102ba9190612fd6565b60405180910390f35b3480156102cf57600080fd5b506102ea60048036038101906102e5919061298b565b610ad7565b005b3480156102f857600080fd5b50610313600480360381019061030e91906129f0565b610b72565b005b61032f600480360381019061032a9190612af6565b610bc9565b60405161033c91906130dd565b60405180910390f35b34801561035157600080fd5b5061035a610ca3565b60405161036b959493929190612ff1565b60405180910390f35b34801561038057600080fd5b50610389610f65565b005b34801561039757600080fd5b506103b260048036038101906103ad91906129f0565b61103b565b005b3480156103c057600080fd5b506103db60048036038101906103d69190612c2e565b61105b565b005b3480156103e957600080fd5b5061040460048036038101906103ff9190612c57565b611201565b005b34801561041257600080fd5b5061042d60048036038101906104289190612b8a565b6112a2565b005b34801561043b57600080fd5b5061045660048036038101906104519190612d17565b611346565b6040516104639190612f46565b60405180910390f35b6104866004803603810190610481919061298b565b6113ef565b60405161049391906130dd565b60405180910390f35b3480156104a857600080fd5b506104c360048036038101906104be919061298b565b6114ef565b6040516104d091906130dd565b60405180910390f35b3480156104e557600080fd5b506104ee61159e565b6040516104fb919061307b565b60405180910390f35b34801561051057600080fd5b50610519611630565b604051610526919061307b565b60405180910390f35b34801561053b57600080fd5b506105446116c2565b60405161055191906130dd565b60405180910390f35b34801561056657600080fd5b50610581600480360381019061057c9190612aba565b6116c8565b005b34801561058f57600080fd5b506105aa60048036038101906105a59190612a3f565b6116de565b005b3480156105b857600080fd5b506105d360048036038101906105ce9190612d17565b611737565b6040516105e0919061307b565b60405180910390f35b3480156105f557600080fd5b506105fe61179f565b60405161060b9190612f46565b60405180910390f35b34801561062057600080fd5b5061063b600480360381019061063691906129b4565b6117c3565b6040516106489190612fd6565b60405180910390f35b34801561065d57600080fd5b5061067860048036038101906106739190612d17565b611857565b005b60007f80ac58cd000000000000000000000000000000000000000000000000000000007bffffffffffffffffffffffffffffffffffffffffffffffffffffffff1916827bffffffffffffffffffffffffffffffffffffffffffffffffffffffff1916148061074557507f5b5e139f000000000000000000000000000000000000000000000000000000007bffffffffffffffffffffffffffffffffffffffffffffffffffffffff1916827bffffffffffffffffffffffffffffffffffffffffffffffffffffffff1916145b806107555750610754826118e8565b5b9050919050565b6060600b805461076b90613389565b80601f016020809104026020016040519081016040528092919081815260200182805461079790613389565b80156107e45780601f106107b9576101008083540402835291602001916107e4565b820191906000526020600020905b8154815290600101906020018083116107c757829003601f168201915b5050505050905090565b60006107fa6001611952565b9050801561081d5760018060016101000a81548160ff0219169083151502179055505b81600073ffffffffffffffffffffffffffffffffffffffff16600960009054906101000a900473ffffffffffffffffffffffffffffffffffffffff1673ffffffffffffffffffffffffffffffffffffffff16146108a6576040517f0dc149f000000000000000000000000000000000000000000000000000000000815260040160405180910390fd5b84600b90805190602001906108bc9291906126a0565b5083600c90805190602001906108d39291906126a0565b5082600960006101000a81548173ffffffffffffffffffffffffffffffffffffffff021916908373ffffffffffffffffffffffffffffffffffffffff16021790555050801561096f5760006001806101000a81548160ff0219169083151502179055507f7f26b83ff96e1f2b6a682f133852f6798a09c465da95921460cefb384740249860016040516109669190613060565b60405180910390a15b50505050565b600061098082611a44565b6012600083815260200190815260200160002060009054906101000a900473ffffffffffffffffffffffffffffffffffffffff169050919050565b60006109c682611346565b90508273ffffffffffffffffffffffffffffffffffffffff168173ffffffffffffffffffffffffffffffffffffffff161415610a2e576040517f367558c300000000000000000000000000000000000000000000000000000000815260040160405180910390fd5b8073ffffffffffffffffffffffffffffffffffffffff16610a4d611a86565b73ffffffffffffffffffffffffffffffffffffffff16141580610a7e5750610a7c81610a77611a86565b6117c3565b155b15610ab5576040517f82b4290000000000000000000000000000000000000000000000000000000000815260040160405180910390fd5b610abf8383611a8e565b505050565b600f60009054906101000a900460ff1681565b600960009054906101000a900473ffffffffffffffffffffffffffffffffffffffff1673ffffffffffffffffffffffffffffffffffffffff163373ffffffffffffffffffffffffffffffffffffffff1614610b5e576040517f82b4290000000000000000000000000000000000000000000000000000000000815260040160405180910390fd5b610b6f81610b6a611b47565b611b62565b50565b610b83610b7d611a86565b82611b80565b610bb9576040517f82b4290000000000000000000000000000000000000000000000000000000000815260040160405180910390fd5b610bc4838383611c15565b505050565b6000600960009054906101000a900473ffffffffffffffffffffffffffffffffffffffff1673ffffffffffffffffffffffffffffffffffffffff163373ffffffffffffffffffffffffffffffffffffffff1614610c52576040517f82b4290000000000000000000000000000000000000000000000000000000000815260040160405180910390fd5b6000610c5c611b47565b9050610c688582611b62565b6000848490501115610c98578383601460008481526020019081526020016000209190610c96929190612726565b505b809150509392505050565b6002806000018054610cb490613389565b80601f0160208091040260200160405190810160405280929190818152602001828054610ce090613389565b8015610d2d5780601f10610d0257610100808354040283529160200191610d2d565b820191906000526020600020905b815481529060010190602001808311610d1057829003601f168201915b505050505090806001016040518060400160405290816000820160009054906101000a900473ffffffffffffffffffffffffffffffffffffffff1673ffffffffffffffffffffffffffffffffffffffff1673ffffffffffffffffffffffffffffffffffffffff168152602001600182018054610da890613389565b80601f0160208091040260200160405190810160405280929190818152602001828054610dd490613389565b8015610e215780601f10610df657610100808354040283529160200191610e21565b820191906000526020600020905b815481529060010190602001808311610e0457829003601f168201915b50505050508152505090806003018054610e3a90613389565b80601f0160208091040260200160405190810160405280929190818152602001828054610e6690613389565b8015610eb35780601f10610e8857610100808354040283529160200191610eb3565b820191906000526020600020905b815481529060010190602001808311610e9657829003601f168201915b5050505050908060040160009054906101000a900467ffffffffffffffff1690806005018054610ee290613389565b80601f0160208091040260200160405190810160405280929190818152602001828054610f0e90613389565b8015610f5b5780601f10610f3057610100808354040283529160200191610f5b565b820191906000526020600020905b815481529060010190602001808311610f3e57829003601f168201915b5050505050905085565b600960009054906101000a900473ffffffffffffffffffffffffffffffffffffffff1673ffffffffffffffffffffffffffffffffffffffff163373ffffffffffffffffffffffffffffffffffffffff1614610fec576040517f82b4290000000000000000000000000000000000000000000000000000000000815260040160405180910390fd5b60004790503373ffffffffffffffffffffffffffffffffffffffff166108fc829081150290604051600060405180830381858888f19350505050158015611037573d6000803e3d6000fd5b5050565b611056838383604051806020016040528060008152506116de565b505050565b600960009054906101000a900473ffffffffffffffffffffffffffffffffffffffff1673ffffffffffffffffffffffffffffffffffffffff163373ffffffffffffffffffffffffffffffffffffffff16146110e2576040517f82b4290000000000000000000000000000000000000000000000000000000000815260040160405180910390fd5b60008173ffffffffffffffffffffffffffffffffffffffff166370a08231306040518263ffffffff1660e01b815260040161111d9190612f46565b60206040518083038186803b15801561113557600080fd5b505afa158015611149573d6000803e3d6000fd5b505050506040513d601f19601f8201168201806040525081019061116d9190612d40565b90508173ffffffffffffffffffffffffffffffffffffffff1663a9059cbb33836040518363ffffffff1660e01b81526004016111aa929190612fad565b602060405180830381600087803b1580156111c457600080fd5b505af11580156111d8573d6000803e3d6000fd5b505050506040513d601f19601f820116820180604052508101906111fc9190612bb3565b505050565b600960009054906101000a900473ffffffffffffffffffffffffffffffffffffffff1673ffffffffffffffffffffffffffffffffffffffff163373ffffffffffffffffffffffffffffffffffffffff1614611288576040517f82b4290000000000000000000000000000000000000000000000000000000000815260040160405180910390fd5b80600d908051906020019061129e9291906126a0565b5050565b600960009054906101000a900473ffffffffffffffffffffffffffffffffffffffff1673ffffffffffffffffffffffffffffffffffffffff163373ffffffffffffffffffffffffffffffffffffffff1614611329576040517f82b4290000000000000000000000000000000000000000000000000000000000815260040160405180910390fd5b80600f60006101000a81548160ff02191690831515021790555050565b6000806010600084815260200190815260200160002060009054906101000a900473ffffffffffffffffffffffffffffffffffffffff169050600073ffffffffffffffffffffffffffffffffffffffff168173ffffffffffffffffffffffffffffffffffffffff1614156113e6576040517f3f6cc76800000000000000000000000000000000000000000000000000000000815260040160405180910390fd5b80915050919050565b600060026000541415611437576040517f08c379a000000000000000000000000000000000000000000000000000000000815260040161142e906130bd565b60405180910390fd5b600260008190555060001515600f60009054906101000a900460ff161515141561148d576040517f15b1bdcd00000000000000000000000000000000000000000000000000000000815260040160405180910390fd5b600e5434146114c8576040517ff4d678b800000000000000000000000000000000000000000000000000000000815260040160405180910390fd5b60006114d2611b47565b90506114de8382611b62565b809150506001600081905550919050565b60008073ffffffffffffffffffffffffffffffffffffffff168273ffffffffffffffffffffffffffffffffffffffff161415611557576040517fd92e233d00000000000000000000000000000000000000000000000000000000815260040160405180910390fd5b601160008373ffffffffffffffffffffffffffffffffffffffff1673ffffffffffffffffffffffffffffffffffffffff168152602001908152602001600020549050919050565b6060600d80546115ad90613389565b80601f01602080910402602001604051908101604052809291908181526020018280546115d990613389565b80156116265780601f106115fb57610100808354040283529160200191611626565b820191906000526020600020905b81548152906001019060200180831161160957829003601f168201915b5050505050905090565b6060600c805461163f90613389565b80601f016020809104026020016040519081016040528092919081815260200182805461166b90613389565b80156116b85780601f1061168d576101008083540402835291602001916116b8565b820191906000526020600020905b81548152906001019060200180831161169b57829003601f168201915b5050505050905090565b600e5481565b6116da6116d3611a86565b8383611e6a565b5050565b6116ef6116e9611a86565b83611b80565b611725576040517f82b4290000000000000000000000000000000000000000000000000000000000815260040160405180910390fd5b61173184848484612035565b50505050565b606061174282611a44565b600061174c612088565b9050600081511161176c5760405180602001604052806000815250611797565b806117768461209f565b604051602001611787929190612f22565b6040516020818303038152906040525b915050919050565b7f000000000000000000000000000000000000000000000000000000000000000081565b6000601360008473ffffffffffffffffffffffffffffffffffffffff1673ffffffffffffffffffffffffffffffffffffffff16815260200190815260200160002060008373ffffffffffffffffffffffffffffffffffffffff1673ffffffffffffffffffffffffffffffffffffffff16815260200190815260200160002060009054906101000a900460ff16905092915050565b600960009054906101000a900473ffffffffffffffffffffffffffffffffffffffff1673ffffffffffffffffffffffffffffffffffffffff163373ffffffffffffffffffffffffffffffffffffffff16146118de576040517f82b4290000000000000000000000000000000000000000000000000000000000815260040160405180910390fd5b80600e8190555050565b60007f01ffc9a7000000000000000000000000000000000000000000000000000000007bffffffffffffffffffffffffffffffffffffffffffffffffffffffff1916827bffffffffffffffffffffffffffffffffffffffffffffffffffffffff1916149050919050565b600060018054906101000a900460ff16156119c85760018260ff16148015611980575061197e3061224c565b155b6119bf576040517f08c379a00000000000000000000000000000000000000000000000000000000081526004016119b69061309d565b60405180910390fd5b60009050611a3f565b8160ff16600160009054906101000a900460ff1660ff1610611a1f576040517f08c379a0000000000000000000000000000000000000000000000000000000008152600401611a169061309d565b60405180910390fd5b81600160006101000a81548160ff021916908360ff160217905550600190505b919050565b611a4d8161225f565b611a83576040517f3f6cc76800000000000000000000000000000000000000000000000000000000815260040160405180910390fd5b50565b600033905090565b816012600083815260200190815260200160002060006101000a81548173ffffffffffffffffffffffffffffffffffffffff021916908373ffffffffffffffffffffffffffffffffffffffff160217905550808273ffffffffffffffffffffffffffffffffffffffff16611b0183611346565b73ffffffffffffffffffffffffffffffffffffffff167f8c5be1e5ebec7d5bd14f71427d1e84f3dd0314c0f7b2291e5b200ac8c7c3b92560405160405180910390a45050565b6000611b53600a6122cb565b611b5d600a6122e1565b905090565b611b7c8282604051806020016040528060008152506122ef565b5050565b600080611b8c83611346565b90508073ffffffffffffffffffffffffffffffffffffffff168473ffffffffffffffffffffffffffffffffffffffff161480611bce5750611bcd81856117c3565b5b80611c0c57508373ffffffffffffffffffffffffffffffffffffffff16611bf484610975565b73ffffffffffffffffffffffffffffffffffffffff16145b91505092915050565b8273ffffffffffffffffffffffffffffffffffffffff16611c3582611346565b73ffffffffffffffffffffffffffffffffffffffff1614611c82576040517f3a6bbed300000000000000000000000000000000000000000000000000000000815260040160405180910390fd5b600073ffffffffffffffffffffffffffffffffffffffff168273ffffffffffffffffffffffffffffffffffffffff161415611ce9576040517fd92e233d00000000000000000000000000000000000000000000000000000000815260040160405180910390fd5b611cf4838383612341565b611cff600082611a8e565b6001601160008573ffffffffffffffffffffffffffffffffffffffff1673ffffffffffffffffffffffffffffffffffffffff1681526020019081526020016000206000828254611d4f919061325a565b925050819055506001601160008473ffffffffffffffffffffffffffffffffffffffff1673ffffffffffffffffffffffffffffffffffffffff1681526020019081526020016000206000828254611da691906131d3565b92505081905550816010600083815260200190815260200160002060006101000a81548173ffffffffffffffffffffffffffffffffffffffff021916908373ffffffffffffffffffffffffffffffffffffffff160217905550808273ffffffffffffffffffffffffffffffffffffffff168473ffffffffffffffffffffffffffffffffffffffff167fddf252ad1be2c89b69c2b068fc378daa952ba7f163c4a11628f55a4df523b3ef60405160405180910390a4611e65838383612346565b505050565b600073ffffffffffffffffffffffffffffffffffffffff168273ffffffffffffffffffffffffffffffffffffffff161415611ed1576040517fd92e233d00000000000000000000000000000000000000000000000000000000815260040160405180910390fd5b8173ffffffffffffffffffffffffffffffffffffffff168373ffffffffffffffffffffffffffffffffffffffff161415611f37576040517ff4b33eeb00000000000000000000000000000000000000000000000000000000815260040160405180910390fd5b80601360008573ffffffffffffffffffffffffffffffffffffffff1673ffffffffffffffffffffffffffffffffffffffff16815260200190815260200160002060008473ffffffffffffffffffffffffffffffffffffffff1673ffffffffffffffffffffffffffffffffffffffff16815260200190815260200160002060006101000a81548160ff0219169083151502179055508173ffffffffffffffffffffffffffffffffffffffff168373ffffffffffffffffffffffffffffffffffffffff167f17307eab39ab6107e8899845ad3d59bd9653f200f220920489ca2b5937696c31836040516120289190612fd6565b60405180910390a3505050565b612040848484611c15565b61204c8484848461234b565b612082576040517f44ccafd600000000000000000000000000000000000000000000000000000000815260040160405180910390fd5b50505050565b606060405180602001604052806000815250905090565b606060008214156120e7576040518060400160405280600181526020017f30000000000000000000000000000000000000000000000000000000000000008152509050612247565b600082905060005b60008214612119578080612102906133ec565b915050600a826121129190613229565b91506120ef565b60008167ffffffffffffffff81111561215b577f4e487b7100000000000000000000000000000000000000000000000000000000600052604160045260246000fd5b6040519080825280601f01601f19166020018201604052801561218d5781602001600182028036833780820191505090505b5090505b60008514612240576001826121a6919061325a565b9150600a856121b59190613435565b60306121c191906131d3565b60f81b8183815181106121fd577f4e487b7100000000000000000000000000000000000000000000000000000000600052603260045260246000fd5b60200101907effffffffffffffffffffffffffffffffffffffffffffffffffffffffffffff1916908160001a905350600a856122399190613229565b9450612191565b8093505050505b919050565b600080823b905060008111915050919050565b60008073ffffffffffffffffffffffffffffffffffffffff166010600084815260200190815260200160002060009054906101000a900473ffffffffffffffffffffffffffffffffffffffff1673ffffffffffffffffffffffffffffffffffffffff1614159050919050565b6001816000016000828254019250508190555050565b600081600001549050919050565b6122f983836124d9565b612306600084848461234b565b61233c576040517f44ccafd600000000000000000000000000000000000000000000000000000000815260040160405180910390fd5b505050565b505050565b505050565b600061236c8473ffffffffffffffffffffffffffffffffffffffff1661224c565b156124cc578373ffffffffffffffffffffffffffffffffffffffff1663150b7a02612395611a86565b8786866040518563ffffffff1660e01b81526004016123b79493929190612f61565b602060405180830381600087803b1580156123d157600080fd5b505af192505050801561240257506040513d601f19601f820116820180604052508101906123ff9190612c05565b60015b61247c573d8060008114612432576040519150601f19603f3d011682016040523d82523d6000602084013e612437565b606091505b50600081511415612474576040517f44ccafd600000000000000000000000000000000000000000000000000000000815260040160405180910390fd5b805181602001fd5b63150b7a0260e01b7bffffffffffffffffffffffffffffffffffffffffffffffffffffffff1916817bffffffffffffffffffffffffffffffffffffffffffffffffffffffff1916149150506124d1565b600190505b949350505050565b600073ffffffffffffffffffffffffffffffffffffffff168273ffffffffffffffffffffffffffffffffffffffff161415612540576040517fd92e233d00000000000000000000000000000000000000000000000000000000815260040160405180910390fd5b6125498161225f565b1561257f576040517ea5a1f500000000000000000000000000000000000000000000000000000000815260040160405180910390fd5b61258b60008383612341565b6001601160008473ffffffffffffffffffffffffffffffffffffffff1673ffffffffffffffffffffffffffffffffffffffff16815260200190815260200160002060008282546125db91906131d3565b92505081905550816010600083815260200190815260200160002060006101000a81548173ffffffffffffffffffffffffffffffffffffffff021916908373ffffffffffffffffffffffffffffffffffffffff160217905550808273ffffffffffffffffffffffffffffffffffffffff16600073ffffffffffffffffffffffffffffffffffffffff167fddf252ad1be2c89b69c2b068fc378daa952ba7f163c4a11628f55a4df523b3ef60405160405180910390a461269c60008383612346565b5050565b8280546126ac90613389565b90600052602060002090601f0160209004810192826126ce5760008555612715565b82601f106126e757805160ff1916838001178555612715565b82800160010185558215612715579182015b828111156127145782518255916020019190600101906126f9565b5b50905061272291906127ac565b5090565b82805461273290613389565b90600052602060002090601f016020900481019282612754576000855561279b565b82601f1061276d57803560ff191683800117855561279b565b8280016001018555821561279b579182015b8281111561279a57823582559160200191906001019061277f565b5b5090506127a891906127ac565b5090565b5b808211156127c55760008160009055506001016127ad565b5090565b60006127dc6127d78461311d565b6130f8565b9050828152602081018484840111156127f457600080fd5b6127ff848285613347565b509392505050565b600061281a6128158461314e565b6130f8565b90508281526020810184848401111561283257600080fd5b61283d848285613347565b509392505050565b600081359050612854816135ab565b92915050565b600081359050612869816135c2565b92915050565b60008151905061287e816135c2565b92915050565b600081359050612893816135d9565b92915050565b6000815190506128a8816135d9565b92915050565b600082601f8301126128bf57600080fd5b81356128cf8482602086016127c9565b91505092915050565b6000813590506128e7816135f0565b92915050565b60008083601f8401126128ff57600080fd5b8235905067ffffffffffffffff81111561291857600080fd5b60208301915083600182028301111561293057600080fd5b9250929050565b600082601f83011261294857600080fd5b8135612958848260208601612807565b91505092915050565b60008135905061297081613607565b92915050565b60008151905061298581613607565b92915050565b60006020828403121561299d57600080fd5b60006129ab84828501612845565b91505092915050565b600080604083850312156129c757600080fd5b60006129d585828601612845565b92505060206129e685828601612845565b9150509250929050565b600080600060608486031215612a0557600080fd5b6000612a1386828701612845565b9350506020612a2486828701612845565b9250506040612a3586828701612961565b9150509250925092565b60008060008060808587031215612a5557600080fd5b6000612a6387828801612845565b9450506020612a7487828801612845565b9350506040612a8587828801612961565b925050606085013567ffffffffffffffff811115612aa257600080fd5b612aae878288016128ae565b91505092959194509250565b60008060408385031215612acd57600080fd5b6000612adb85828601612845565b9250506020612aec8582860161285a565b9150509250929050565b600080600060408486031215612b0b57600080fd5b6000612b1986828701612845565b935050602084013567ffffffffffffffff811115612b3657600080fd5b612b42868287016128ed565b92509250509250925092565b60008060408385031215612b6157600080fd5b6000612b6f85828601612845565b9250506020612b8085828601612961565b9150509250929050565b600060208284031215612b9c57600080fd5b6000612baa8482850161285a565b91505092915050565b600060208284031215612bc557600080fd5b6000612bd38482850161286f565b91505092915050565b600060208284031215612bee57600080fd5b6000612bfc84828501612884565b91505092915050565b600060208284031215612c1757600080fd5b6000612c2584828501612899565b91505092915050565b600060208284031215612c4057600080fd5b6000612c4e848285016128d8565b91505092915050565b600060208284031215612c6957600080fd5b600082013567ffffffffffffffff811115612c8357600080fd5b612c8f84828501612937565b91505092915050565b600080600060608486031215612cad57600080fd5b600084013567ffffffffffffffff811115612cc757600080fd5b612cd386828701612937565b935050602084013567ffffffffffffffff811115612cf057600080fd5b612cfc86828701612937565b9250506040612d0d86828701612845565b9150509250925092565b600060208284031215612d2957600080fd5b6000612d3784828501612961565b91505092915050565b600060208284031215612d5257600080fd5b6000612d6084828501612976565b91505092915050565b612d728161328e565b82525050565b612d818161328e565b82525050565b612d90816132a0565b82525050565b6000612da18261317f565b612dab8185613195565b9350612dbb818560208601613356565b612dc481613522565b840191505092915050565b612dd881613335565b82525050565b6000612de98261318a565b612df381856131a6565b9350612e03818560208601613356565b612e0c81613522565b840191505092915050565b6000612e228261318a565b612e2c81856131b7565b9350612e3c818560208601613356565b612e4581613522565b840191505092915050565b6000612e5b8261318a565b612e6581856131c8565b9350612e75818560208601613356565b80840191505092915050565b6000612e8e602e836131b7565b9150612e9982613533565b604082019050919050565b6000612eb1601f836131b7565b9150612ebc82613582565b602082019050919050565b6000604083016000830151612edf6000860182612d69565b5060208301518482036020860152612ef78282612dde565b9150508091505092915050565b612f0d8161330a565b82525050565b612f1c81613314565b82525050565b6000612f2e8285612e50565b9150612f3a8284612e50565b91508190509392505050565b6000602082019050612f5b6000830184612d78565b92915050565b6000608082019050612f766000830187612d78565b612f836020830186612d78565b612f906040830185612f04565b8181036060830152612fa28184612d96565b905095945050505050565b6000604082019050612fc26000830185612d78565b612fcf6020830184612f04565b9392505050565b6000602082019050612feb6000830184612d87565b92915050565b600060a082019050818103600083015261300b8188612d96565b9050818103602083015261301f8187612ec7565b905081810360408301526130338186612d96565b90506130426060830185612f13565b81810360808301526130548184612d96565b90509695505050505050565b60006020820190506130756000830184612dcf565b92915050565b600060208201905081810360008301526130958184612e17565b905092915050565b600060208201905081810360008301526130b681612e81565b9050919050565b600060208201905081810360008301526130d681612ea4565b9050919050565b60006020820190506130f26000830184612f04565b92915050565b6000613102613113565b905061310e82826133bb565b919050565b6000604051905090565b600067ffffffffffffffff821115613138576131376134f3565b5b61314182613522565b9050602081019050919050565b600067ffffffffffffffff821115613169576131686134f3565b5b61317282613522565b9050602081019050919050565b600081519050919050565b600081519050919050565b600082825260208201905092915050565b600082825260208201905092915050565b600082825260208201905092915050565b600081905092915050565b60006131de8261330a565b91506131e98361330a565b9250827fffffffffffffffffffffffffffffffffffffffffffffffffffffffffffffffff0382111561321e5761321d613466565b5b828201905092915050565b60006132348261330a565b915061323f8361330a565b92508261324f5761324e613495565b5b828204905092915050565b60006132658261330a565b91506132708361330a565b92508282101561328357613282613466565b5b828203905092915050565b6000613299826132ea565b9050919050565b60008115159050919050565b60007fffffffff0000000000000000000000000000000000000000000000000000000082169050919050565b60006132e38261328e565b9050919050565b600073ffffffffffffffffffffffffffffffffffffffff82169050919050565b6000819050919050565b600067ffffffffffffffff82169050919050565b600060ff82169050919050565b600061334082613328565b9050919050565b82818337600083830152505050565b60005b83811015613374578082015181840152602081019050613359565b83811115613383576000848401525b50505050565b600060028204905060018216806133a157607f821691505b602082108114156133b5576133b46134c4565b5b50919050565b6133c482613522565b810181811067ffffffffffffffff821117156133e3576133e26134f3565b5b80604052505050565b60006133f78261330a565b91507fffffffffffffffffffffffffffffffffffffffffffffffffffffffffffffffff82141561342a57613429613466565b5b600182019050919050565b60006134408261330a565b915061344b8361330a565b92508261345b5761345a613495565b5b828206905092915050565b7f4e487b7100000000000000000000000000000000000000000000000000000000600052601160045260246000fd5b7f4e487b7100000000000000000000000000000000000000000000000000000000600052601260045260246000fd5b7f4e487b7100000000000000000000000000000000000000000000000000000000600052602260045260246000fd5b7f4e487b7100000000000000000000000000000000000000000000000000000000600052604160045260246000fd5b6000601f19601f8301169050919050565b7f496e697469616c697a61626c653a20636f6e747261637420697320616c72656160008201527f647920696e697469616c697a6564000000000000000000000000000000000000602082015250565b7f5265656e7472616e637947756172643a207265656e7472616e742063616c6c00600082015250565b6135b48161328e565b81146135bf57600080fd5b50565b6135cb816132a0565b81146135d657600080fd5b50565b6135e2816132ac565b81146135ed57600080fd5b50565b6135f9816132d8565b811461360457600080fd5b50565b6136108161330a565b811461361b57600080fd5b5056fea26469706673582212200ed637e339b54df237a60571cf3e14f417cf818f9ac1b93106fc0d679a8da4a564736f6c63430008040033",
  "linkReferences": {},
  "deployedLinkReferences": {}
}