{
  "_format": "hh-sol-artifact-1",
  "contractName": "ERC721",
  "sourceName": "contracts/ERC721.sol",
  "abi": [
    {
      "inputs": [
        {
          "internalType": "address",
          "name": "_owner",
          "type": "address"
        }
      ],
      "stateMutability": "nonpayable",
      "type": "constructor"
    },
    {
      "inputs": [],
      "name": "AlreadyInitialized",
      "type": "error"
    },
    {
      "inputs": [],
      "name": "CollectionLocked",
      "type": "error"
    },
    {
      "inputs": [],
      "name": "IncorrectOwner",
      "type": "error"
    },
    {
      "inputs": [],
      "name": "InitializeLocked",
      "type": "error"
    },
    {
      "inputs": [],
      "name": "InsufficientAllowance",
      "type": "error"
    },
    {
      "inputs": [],
      "name": "InsufficientBalance",
      "type": "error"
    },
    {
      "inputs": [],
      "name": "InvalidTokenId",
      "type": "error"
    },
    {
      "inputs": [],
      "name": "MaxPerUserExceeded",
      "type": "error"
    },
    {
      "inputs": [],
      "name": "MaxSupplyExceeded",
      "type": "error"
    },
    {
      "inputs": [],
      "name": "MissingERC721Receiver",
      "type": "error"
    },
    {
      "inputs": [],
      "name": "NotACollection",
      "type": "error"
    },
    {
      "inputs": [],
      "name": "PublicMintInactive",
      "type": "error"
    },
    {
      "inputs": [],
      "name": "SameAddress",
      "type": "error"
    },
    {
      "inputs": [],
      "name": "SameOwnerAndOperator",
      "type": "error"
    },
    {
      "inputs": [],
      "name": "TokenAlreadyMinted",
      "type": "error"
    },
    {
      "inputs": [],
      "name": "Unauthorized",
      "type": "error"
    },
    {
      "inputs": [],
      "name": "ZeroAddress",
      "type": "error"
    },
    {
      "anonymous": false,
      "inputs": [
        {
          "indexed": true,
          "internalType": "address",
          "name": "owner",
          "type": "address"
        },
        {
          "indexed": true,
          "internalType": "address",
          "name": "approved",
          "type": "address"
        },
        {
          "indexed": true,
          "internalType": "uint256",
          "name": "tokenId",
          "type": "uint256"
        }
      ],
      "name": "Approval",
      "type": "event"
    },
    {
      "anonymous": false,
      "inputs": [
        {
          "indexed": true,
          "internalType": "address",
          "name": "owner",
          "type": "address"
        },
        {
          "indexed": true,
          "internalType": "address",
          "name": "operator",
          "type": "address"
        },
        {
          "indexed": false,
          "internalType": "bool",
          "name": "approved",
          "type": "bool"
        }
      ],
      "name": "ApprovalForAll",
      "type": "event"
    },
    {
      "anonymous": false,
      "inputs": [
        {
          "indexed": false,
          "internalType": "uint8",
          "name": "version",
          "type": "uint8"
        }
      ],
      "name": "Initialized",
      "type": "event"
    },
    {
      "anonymous": false,
      "inputs": [
        {
          "indexed": true,
          "internalType": "address",
          "name": "from",
          "type": "address"
        },
        {
          "indexed": true,
          "internalType": "address",
          "name": "to",
          "type": "address"
        },
        {
          "indexed": true,
          "internalType": "uint256",
          "name": "tokenId",
          "type": "uint256"
        }
      ],
      "name": "Transfer",
      "type": "event"
    },
    {
      "inputs": [],
      "name": "_tenantOwner",
      "outputs": [
        {
          "internalType": "address",
          "name": "",
          "type": "address"
        }
      ],
      "stateMutability": "view",
      "type": "function"
    },
    {
      "inputs": [
        {
          "internalType": "address",
          "name": "_to",
          "type": "address"
        },
        {
          "internalType": "uint256",
          "name": "_tokenId",
          "type": "uint256"
        }
      ],
      "name": "approve",
      "outputs": [],
      "stateMutability": "nonpayable",
      "type": "function"
    },
    {
      "inputs": [
        {
          "internalType": "address",
          "name": "_owner",
          "type": "address"
        }
      ],
      "name": "balanceOf",
      "outputs": [
        {
          "internalType": "uint256",
          "name": "",
          "type": "uint256"
        }
      ],
      "stateMutability": "view",
      "type": "function"
    },
    {
      "inputs": [
        {
          "internalType": "uint256",
          "name": "_tokenId",
          "type": "uint256"
        }
      ],
      "name": "burn",
      "outputs": [],
      "stateMutability": "nonpayable",
      "type": "function"
    },
    {
      "inputs": [],
      "name": "collectionInfo",
      "outputs": [
        {
          "internalType": "uint256",
          "name": "price",
          "type": "uint256"
        },
        {
          "internalType": "uint256",
          "name": "maxSupply",
          "type": "uint256"
        },
        {
          "internalType": "uint256",
          "name": "maxPerUser",
          "type": "uint256"
        },
        {
          "internalType": "bool",
          "name": "isPublicSaleActive",
          "type": "bool"
        },
        {
          "internalType": "bool",
          "name": "isCollectionLocked",
          "type": "bool"
        }
      ],
      "stateMutability": "view",
      "type": "function"
    },
    {
      "inputs": [],
      "name": "contractOwner",
      "outputs": [
        {
          "internalType": "address",
          "name": "",
          "type": "address"
        }
      ],
      "stateMutability": "view",
      "type": "function"
    },
    {
      "inputs": [
        {
          "internalType": "uint256",
          "name": "_tokenId",
          "type": "uint256"
        }
      ],
      "name": "getApproved",
      "outputs": [
        {
          "internalType": "address",
          "name": "",
          "type": "address"
        }
      ],
      "stateMutability": "view",
      "type": "function"
    },
    {
      "inputs": [],
      "name": "getBaseURI",
      "outputs": [
        {
          "internalType": "string",
          "name": "",
          "type": "string"
        }
      ],
      "stateMutability": "view",
      "type": "function"
    },
    {
      "inputs": [
        {
          "internalType": "string",
          "name": "name_",
          "type": "string"
        },
        {
          "internalType": "string",
          "name": "symbol_",
          "type": "string"
        },
        {
          "internalType": "address",
          "name": "tenant_",
          "type": "address"
        }
      ],
      "name": "initialize",
      "outputs": [],
      "stateMutability": "nonpayable",
      "type": "function"
    },
    {
      "inputs": [
        {
          "internalType": "uint256",
          "name": "_price",
          "type": "uint256"
        },
        {
          "internalType": "uint256",
          "name": "_maxSupply",
          "type": "uint256"
        },
        {
          "internalType": "uint256",
          "name": "_maxPerUser",
          "type": "uint256"
        }
      ],
      "name": "initializeCollection",
      "outputs": [],
      "stateMutability": "nonpayable",
      "type": "function"
    },
    {
      "inputs": [
        {
          "internalType": "address",
          "name": "_owner",
          "type": "address"
        },
        {
          "internalType": "address",
          "name": "_operator",
          "type": "address"
        }
      ],
      "name": "isApprovedForAll",
      "outputs": [
        {
          "internalType": "bool",
          "name": "",
          "type": "bool"
        }
      ],
      "stateMutability": "view",
      "type": "function"
    },
    {
      "inputs": [],
      "name": "lockCollection",
      "outputs": [],
      "stateMutability": "nonpayable",
      "type": "function"
    },
    {
      "inputs": [],
      "name": "metadata",
      "outputs": [
        {
          "internalType": "bytes",
          "name": "title",
          "type": "bytes"
        },
        {
          "internalType": "address",
          "name": "author",
          "type": "address"
        },
        {
          "internalType": "bytes",
          "name": "version",
          "type": "bytes"
        },
        {
          "internalType": "uint256",
          "name": "publishedAt",
          "type": "uint256"
        },
        {
          "internalType": "bytes",
          "name": "externalLink",
          "type": "bytes"
        }
      ],
      "stateMutability": "view",
      "type": "function"
    },
    {
      "inputs": [
        {
          "internalType": "address",
          "name": "_to",
          "type": "address"
        }
      ],
      "name": "mint",
      "outputs": [
        {
          "internalType": "uint256",
          "name": "",
          "type": "uint256"
        }
      ],
      "stateMutability": "payable",
      "type": "function"
    },
    {
      "inputs": [
        {
          "internalType": "address",
          "name": "_to",
          "type": "address"
        },
        {
          "internalType": "uint256",
          "name": "_count",
          "type": "uint256"
        }
      ],
      "name": "mintBatch",
      "outputs": [
        {
          "internalType": "uint256[]",
          "name": "",
          "type": "uint256[]"
        }
      ],
      "stateMutability": "payable",
      "type": "function"
    },
    {
      "inputs": [],
      "name": "name",
      "outputs": [
        {
          "internalType": "string",
          "name": "",
          "type": "string"
        }
      ],
      "stateMutability": "view",
      "type": "function"
    },
    {
      "inputs": [
        {
          "internalType": "uint256",
          "name": "_tokenId",
          "type": "uint256"
        }
      ],
      "name": "ownerOf",
      "outputs": [
        {
          "internalType": "address",
          "name": "",
          "type": "address"
        }
      ],
      "stateMutability": "view",
      "type": "function"
    },
    {
      "inputs": [
        {
          "internalType": "address",
          "name": "_from",
          "type": "address"
        },
        {
          "internalType": "address",
          "name": "_to",
          "type": "address"
        },
        {
          "internalType": "uint256",
          "name": "_tokenId",
          "type": "uint256"
        }
      ],
      "name": "safeTransferFrom",
      "outputs": [],
      "stateMutability": "nonpayable",
      "type": "function"
    },
    {
      "inputs": [
        {
          "internalType": "address",
          "name": "_from",
          "type": "address"
        },
        {
          "internalType": "address",
          "name": "_to",
          "type": "address"
        },
        {
          "internalType": "uint256",
          "name": "_tokenId",
          "type": "uint256"
        },
        {
          "internalType": "bytes",
          "name": "_data",
          "type": "bytes"
        }
      ],
      "name": "safeTransferFrom",
      "outputs": [],
      "stateMutability": "nonpayable",
      "type": "function"
    },
    {
      "inputs": [
        {
          "internalType": "address",
          "name": "_operator",
          "type": "address"
        },
        {
          "internalType": "bool",
          "name": "_approved",
          "type": "bool"
        }
      ],
      "name": "setApprovalForAll",
      "outputs": [],
      "stateMutability": "nonpayable",
      "type": "function"
    },
    {
      "inputs": [
        {
          "internalType": "string",
          "name": "baseURI_",
          "type": "string"
        }
      ],
      "name": "setBaseURI",
      "outputs": [],
      "stateMutability": "nonpayable",
      "type": "function"
    },
    {
      "inputs": [
        {
          "internalType": "bool",
          "name": "_isActive",
          "type": "bool"
        }
      ],
      "name": "setMintPermissions",
      "outputs": [],
      "stateMutability": "nonpayable",
      "type": "function"
    },
    {
      "inputs": [
        {
          "internalType": "bytes4",
          "name": "_interfaceId",
          "type": "bytes4"
        }
      ],
      "name": "supportsInterface",
      "outputs": [
        {
          "internalType": "bool",
          "name": "",
          "type": "bool"
        }
      ],
      "stateMutability": "view",
      "type": "function"
    },
    {
      "inputs": [],
      "name": "symbol",
      "outputs": [
        {
          "internalType": "string",
          "name": "",
          "type": "string"
        }
      ],
      "stateMutability": "view",
      "type": "function"
    },
    {
      "inputs": [
        {
          "internalType": "address",
          "name": "_reciever",
          "type": "address"
        }
      ],
      "name": "tenantMint",
      "outputs": [
        {
          "internalType": "uint256",
          "name": "",
          "type": "uint256"
        }
      ],
      "stateMutability": "nonpayable",
      "type": "function"
    },
    {
      "inputs": [
        {
          "internalType": "address",
          "name": "_reciever",
          "type": "address"
        },
        {
          "internalType": "string",
          "name": "_tokenUri",
          "type": "string"
        }
      ],
      "name": "tenantMint",
      "outputs": [
        {
          "internalType": "uint256",
          "name": "",
          "type": "uint256"
        }
      ],
      "stateMutability": "nonpayable",
      "type": "function"
    },
    {
      "inputs": [],
      "name": "tokenCounter",
      "outputs": [
        {
          "internalType": "uint256",
          "name": "_value",
          "type": "uint256"
        }
      ],
      "stateMutability": "view",
      "type": "function"
    },
    {
      "inputs": [
        {
          "internalType": "uint256",
          "name": "_tokenId",
          "type": "uint256"
        }
      ],
      "name": "tokenURI",
      "outputs": [
        {
          "internalType": "string",
          "name": "",
          "type": "string"
        }
      ],
      "stateMutability": "view",
      "type": "function"
    },
    {
      "inputs": [
        {
          "internalType": "address",
          "name": "_from",
          "type": "address"
        },
        {
          "internalType": "address",
          "name": "_to",
          "type": "address"
        },
        {
          "internalType": "uint256",
          "name": "_tokenId",
          "type": "uint256"
        }
      ],
      "name": "transferFrom",
      "outputs": [],
      "stateMutability": "nonpayable",
      "type": "function"
    },
    {
      "inputs": [
        {
          "internalType": "uint256",
          "name": "_maxPerUser",
          "type": "uint256"
        }
      ],
      "name": "updateMaxPerUser",
      "outputs": [],
      "stateMutability": "nonpayable",
      "type": "function"
    },
    {
      "inputs": [
        {
          "internalType": "uint256",
          "name": "_maxSupply",
          "type": "uint256"
        }
      ],
      "name": "updateMaxSupply",
      "outputs": [],
      "stateMutability": "nonpayable",
      "type": "function"
    },
    {
      "inputs": [
        {
          "internalType": "uint256",
          "name": "_price",
          "type": "uint256"
        }
      ],
      "name": "updatePrice",
      "outputs": [],
      "stateMutability": "nonpayable",
      "type": "function"
    },
    {
      "inputs": [],
      "name": "withdraw",
      "outputs": [],
      "stateMutability": "nonpayable",
      "type": "function"
    }
  ],
  "bytecode": "0x60a06040523480156200001157600080fd5b5060405162004514380380620045148339818101604052810190620000379190620002d3565b60016000819055506040518060a001604052806040518060400160405280600681526020017f455243373231000000000000000000000000000000000000000000000000000081525081526020018273ffffffffffffffffffffffffffffffffffffffff1681526020016040518060400160405280600581526020017f302e302e3100000000000000000000000000000000000000000000000000000081525081526020014281526020016040518060400160405280601b81526020017f68747470733a2f2f7777772e687970657276657273652e6465762f0000000000815250815250600260008201518160000190805190602001906200013b9291906200020c565b5060208201518160010160006101000a81548173ffffffffffffffffffffffffffffffffffffffff021916908373ffffffffffffffffffffffffffffffffffffffff1602179055506040820151816002019080519060200190620001a19291906200020c565b50606082015181600301556080820151816004019080519060200190620001ca9291906200020c565b509050508073ffffffffffffffffffffffffffffffffffffffff1660808173ffffffffffffffffffffffffffffffffffffffff1660601b8152505050620003b2565b8280546200021a9062000333565b90600052602060002090601f0160209004810192826200023e57600085556200028a565b82601f106200025957805160ff19168380011785556200028a565b828001600101855582156200028a579182015b82811115620002895782518255916020019190600101906200026c565b5b5090506200029991906200029d565b5090565b5b80821115620002b85760008160009055506001016200029e565b5090565b600081519050620002cd8162000398565b92915050565b600060208284031215620002e657600080fd5b6000620002f684828501620002bc565b91505092915050565b60006200030c8262000313565b9050919050565b600073ffffffffffffffffffffffffffffffffffffffff82169050919050565b600060028204905060018216806200034c57607f821691505b6020821081141562000363576200036262000369565b5b50919050565b7f4e487b7100000000000000000000000000000000000000000000000000000000600052602260045260246000fd5b620003a381620002ff565b8114620003af57600080fd5b50565b60805160601c614143620003d1600039600061211501526141436000f3fe6080604052600436106101ee5760003560e01c80634d2f929a1161010d57806395d89b41116100a0578063ce606ee01161006f578063ce606ee0146106f3578063d082e3811461071e578063e985e9c514610749578063f103b43314610786578063fdd173b4146107af576101ee565b806395d89b4114610639578063a22cb46514610664578063b88d4fde1461068d578063c87b56dd146106b6576101ee565b80636a627842116100dc5780636a6278421461057857806370a08231146105a8578063714c5398146105e55780638d6cc56d14610610576101ee565b80634d2f929a146104c057806355f804b3146104e95780636352211e14610512578063694babe41461054f576101ee565b806323b872dd116101855780633ccfd60b116101545780633ccfd60b1461042e5780633e2b81c41461044557806342842e0e1461046e57806342966c6814610497576101ee565b806323b872dd14610369578063248b71fc1461039257806327fbceac146103c2578063392f37e9146103ff576101ee565b8063095ea7b3116101c1578063095ea7b3146102c15780630b8eb2cf146102ea5780630ee83a7114610315578063217cc2b41461032c576101ee565b806301ffc9a7146101f357806306fdde0314610230578063077f224a1461025b578063081812fc14610284575b600080fd5b3480156101ff57600080fd5b5061021a60048036038101906102159190613653565b6107de565b6040516102279190613a34565b60405180910390f35b34801561023c57600080fd5b506102456108c0565b6040516102529190613ad2565b60405180910390f35b34801561026757600080fd5b50610282600480360381019061027d91906136e6565b610952565b005b34801561029057600080fd5b506102ab60048036038101906102a69190613765565b610ad9565b6040516102b891906139ab565b60405180910390f35b3480156102cd57600080fd5b506102e860048036038101906102e391906135ee565b610b1f565b005b3480156102f657600080fd5b506102ff610c28565b60405161030c91906139ab565b60405180910390f35b34801561032157600080fd5b5061032a610c4e565b005b34801561033857600080fd5b50610353600480360381019061034e919061342b565b610d46565b6040516103609190613b34565b60405180910390f35b34801561037557600080fd5b50610390600480360381019061038b9190613490565b610e3c565b005b6103ac60048036038101906103a791906135ee565b610e93565b6040516103b99190613a12565b60405180910390f35b3480156103ce57600080fd5b506103e960048036038101906103e49190613596565b6111a4565b6040516103f69190613b34565b60405180910390f35b34801561040b57600080fd5b5061041461127e565b604051610425959493929190613a4f565b60405180910390f35b34801561043a57600080fd5b5061044361145a565b005b34801561045157600080fd5b5061046c6004803603810190610467919061362a565b611530565b005b34801561047a57600080fd5b5061049560048036038101906104909190613490565b611625565b005b3480156104a357600080fd5b506104be60048036038101906104b99190613765565b611645565b005b3480156104cc57600080fd5b506104e760048036038101906104e2919061378e565b6116c4565b005b3480156104f557600080fd5b50610510600480360381019061050b91906136a5565b6117da565b005b34801561051e57600080fd5b5061053960048036038101906105349190613765565b61187b565b60405161054691906139ab565b60405180910390f35b34801561055b57600080fd5b5061057660048036038101906105719190613765565b611924565b005b610592600480360381019061058d919061342b565b611a09565b60405161059f9190613b34565b60405180910390f35b3480156105b457600080fd5b506105cf60048036038101906105ca919061342b565b611c8f565b6040516105dc9190613b34565b60405180910390f35b3480156105f157600080fd5b506105fa611d3e565b6040516106079190613ad2565b60405180910390f35b34801561061c57600080fd5b5061063760048036038101906106329190613765565b611dd0565b005b34801561064557600080fd5b5061064e611eb5565b60405161065b9190613ad2565b60405180910390f35b34801561067057600080fd5b5061068b6004803603810190610686919061355a565b611f47565b005b34801561069957600080fd5b506106b460048036038101906106af91906134df565b611f5d565b005b3480156106c257600080fd5b506106dd60048036038101906106d89190613765565b611fb6565b6040516106ea9190613ad2565b60405180910390f35b3480156106ff57600080fd5b50610708612113565b60405161071591906139ab565b60405180910390f35b34801561072a57600080fd5b50610733612137565b6040516107409190613b34565b60405180910390f35b34801561075557600080fd5b50610770600480360381019061076b9190613454565b612143565b60405161077d9190613a34565b60405180910390f35b34801561079257600080fd5b506107ad60048036038101906107a89190613765565b6121d7565b005b3480156107bb57600080fd5b506107c46122bc565b6040516107d5959493929190613b4f565b60405180910390f35b60007f80ac58cd000000000000000000000000000000000000000000000000000000007bffffffffffffffffffffffffffffffffffffffffffffffffffffffff1916827bffffffffffffffffffffffffffffffffffffffffffffffffffffffff191614806108a957507f5b5e139f000000000000000000000000000000000000000000000000000000007bffffffffffffffffffffffffffffffffffffffffffffffffffffffff1916827bffffffffffffffffffffffffffffffffffffffffffffffffffffffff1916145b806108b957506108b8826122fa565b5b9050919050565b6060600a80546108cf90613e8f565b80601f01602080910402602001604051908101604052809291908181526020018280546108fb90613e8f565b80156109485780601f1061091d57610100808354040283529160200191610948565b820191906000526020600020905b81548152906001019060200180831161092b57829003601f168201915b5050505050905090565b600061095e6001612364565b905080156109815760018060016101000a81548160ff0219169083151502179055505b81600073ffffffffffffffffffffffffffffffffffffffff16600860009054906101000a900473ffffffffffffffffffffffffffffffffffffffff1673ffffffffffffffffffffffffffffffffffffffff1614610a0a576040517f0dc149f000000000000000000000000000000000000000000000000000000000815260040160405180910390fd5b84600a9080519060200190610a2092919061317f565b5083600b9080519060200190610a3792919061317f565b5082600860006101000a81548173ffffffffffffffffffffffffffffffffffffffff021916908373ffffffffffffffffffffffffffffffffffffffff160217905550508015610ad35760006001806101000a81548160ff0219169083151502179055507f7f26b83ff96e1f2b6a682f133852f6798a09c465da95921460cefb38474024986001604051610aca9190613ab7565b60405180910390a15b50505050565b6000610ae482612456565b6014600083815260200190815260200160002060009054906101000a900473ffffffffffffffffffffffffffffffffffffffff169050919050565b6000610b2a8261187b565b90508273ffffffffffffffffffffffffffffffffffffffff168173ffffffffffffffffffffffffffffffffffffffff161415610b92576040517f367558c300000000000000000000000000000000000000000000000000000000815260040160405180910390fd5b8073ffffffffffffffffffffffffffffffffffffffff16610bb1612498565b73ffffffffffffffffffffffffffffffffffffffff16141580610be25750610be081610bdb612498565b612143565b155b15610c19576040517f82b4290000000000000000000000000000000000000000000000000000000000815260040160405180910390fd5b610c2383836124a0565b505050565b600860009054906101000a900473ffffffffffffffffffffffffffffffffffffffff1681565b600860009054906101000a900473ffffffffffffffffffffffffffffffffffffffff1673ffffffffffffffffffffffffffffffffffffffff163373ffffffffffffffffffffffffffffffffffffffff1614610cd5576040517f82b4290000000000000000000000000000000000000000000000000000000000815260040160405180910390fd5b60011515600e60030160019054906101000a900460ff1615151415610d26576040517f1bd131c300000000000000000000000000000000000000000000000000000000815260040160405180910390fd5b6001600e60030160016101000a81548160ff021916908315150217905550565b6000600860009054906101000a900473ffffffffffffffffffffffffffffffffffffffff1673ffffffffffffffffffffffffffffffffffffffff163373ffffffffffffffffffffffffffffffffffffffff1614610dcf576040517f82b4290000000000000000000000000000000000000000000000000000000000815260040160405180910390fd5b60001515600d60009054906101000a900460ff1615151415610e1d576040517fdbc28d8300000000000000000000000000000000000000000000000000000000815260040160405180910390fd5b6000610e27612559565b9050610e338382612574565b80915050919050565b610e4d610e47612498565b82612592565b610e83576040517f82b4290000000000000000000000000000000000000000000000000000000000815260040160405180910390fd5b610e8e838383612627565b505050565b606060026000541415610edb576040517f08c379a0000000000000000000000000000000000000000000000000000000008152600401610ed290613b14565b60405180910390fd5b60026000819055508160001515600e60030160009054906101000a900460ff1615151415610f35576040517f15b1bdcd00000000000000000000000000000000000000000000000000000000815260040160405180910390fd5b600e60010154610f456009612866565b1180610f695750600e6001015481610f5d6009612866565b610f679190613ca5565b115b15610fa0576040517f8a164f6300000000000000000000000000000000000000000000000000000000815260040160405180910390fd5b80600e60000154610fb19190613d2c565b3414610fe9576040517ff4d678b800000000000000000000000000000000000000000000000000000000815260040160405180910390fd5b6000600e60020154141580156110165750600e600201548161100a33611c8f565b6110149190613ca5565b115b1561104d576040517fecdd05c000000000000000000000000000000000000000000000000000000000815260040160405180910390fd5b6000600e6002015414801561106b5750600e60010154600e60020154145b156110a2576040517fecdd05c000000000000000000000000000000000000000000000000000000000815260040160405180910390fd5b60008367ffffffffffffffff8111156110e4577f4e487b7100000000000000000000000000000000000000000000000000000000600052604160045260246000fd5b6040519080825280602002602001820160405280156111125781602001602082028036833780820191505090505b50905060005b8481101561119057600061112a612559565b905080838381518110611166577f4e487b7100000000000000000000000000000000000000000000000000000000600052603260045260246000fd5b60200260200101818152505061117c8782612574565b50808061118890613ef2565b915050611118565b508092505050600160008190555092915050565b6000600860009054906101000a900473ffffffffffffffffffffffffffffffffffffffff1673ffffffffffffffffffffffffffffffffffffffff163373ffffffffffffffffffffffffffffffffffffffff161461122d576040517f82b4290000000000000000000000000000000000000000000000000000000000815260040160405180910390fd5b6000611237612559565b90506112438582612574565b6000848490501115611273578383601660008481526020019081526020016000209190611271929190613205565b505b809150509392505050565b600280600001805461128f90613e8f565b80601f01602080910402602001604051908101604052809291908181526020018280546112bb90613e8f565b80156113085780601f106112dd57610100808354040283529160200191611308565b820191906000526020600020905b8154815290600101906020018083116112eb57829003601f168201915b5050505050908060010160009054906101000a900473ffffffffffffffffffffffffffffffffffffffff169080600201805461134390613e8f565b80601f016020809104026020016040519081016040528092919081815260200182805461136f90613e8f565b80156113bc5780601f10611391576101008083540402835291602001916113bc565b820191906000526020600020905b81548152906001019060200180831161139f57829003601f168201915b5050505050908060030154908060040180546113d790613e8f565b80601f016020809104026020016040519081016040528092919081815260200182805461140390613e8f565b80156114505780601f1061142557610100808354040283529160200191611450565b820191906000526020600020905b81548152906001019060200180831161143357829003601f168201915b5050505050905085565b600860009054906101000a900473ffffffffffffffffffffffffffffffffffffffff1673ffffffffffffffffffffffffffffffffffffffff163373ffffffffffffffffffffffffffffffffffffffff16146114e1576040517f82b4290000000000000000000000000000000000000000000000000000000000815260040160405180910390fd5b60004790503373ffffffffffffffffffffffffffffffffffffffff166108fc829081150290604051600060405180830381858888f1935050505015801561152c573d6000803e3d6000fd5b5050565b60001515600d60009054906101000a900460ff161515141561157e576040517fdbc28d8300000000000000000000000000000000000000000000000000000000815260040160405180910390fd5b600860009054906101000a900473ffffffffffffffffffffffffffffffffffffffff1673ffffffffffffffffffffffffffffffffffffffff163373ffffffffffffffffffffffffffffffffffffffff1614611605576040517f82b4290000000000000000000000000000000000000000000000000000000000815260040160405180910390fd5b80600e60030160006101000a81548160ff02191690831515021790555050565b61164083838360405180602001604052806000815250611f5d565b505050565b60006116508261187b565b90503373ffffffffffffffffffffffffffffffffffffffff168173ffffffffffffffffffffffffffffffffffffffff16146116b7576040517f82b4290000000000000000000000000000000000000000000000000000000000815260040160405180910390fd5b6116c082612874565b5050565b600860009054906101000a900473ffffffffffffffffffffffffffffffffffffffff1673ffffffffffffffffffffffffffffffffffffffff163373ffffffffffffffffffffffffffffffffffffffff161461174b576040517f82b4290000000000000000000000000000000000000000000000000000000000815260040160405180910390fd5b60011515600e60030160019054906101000a900460ff161515141561179c576040517f1adf1bf000000000000000000000000000000000000000000000000000000000815260040160405180910390fd5b82600e6000018190555081600e6001018190555080600e600201819055506001600d60006101000a81548160ff021916908315150217905550505050565b600860009054906101000a900473ffffffffffffffffffffffffffffffffffffffff1673ffffffffffffffffffffffffffffffffffffffff163373ffffffffffffffffffffffffffffffffffffffff1614611861576040517f82b4290000000000000000000000000000000000000000000000000000000000815260040160405180910390fd5b80600c908051906020019061187792919061317f565b5050565b6000806012600084815260200190815260200160002060009054906101000a900473ffffffffffffffffffffffffffffffffffffffff169050600073ffffffffffffffffffffffffffffffffffffffff168173ffffffffffffffffffffffffffffffffffffffff16141561191b576040517f3f6cc76800000000000000000000000000000000000000000000000000000000815260040160405180910390fd5b80915050919050565b600860009054906101000a900473ffffffffffffffffffffffffffffffffffffffff1673ffffffffffffffffffffffffffffffffffffffff163373ffffffffffffffffffffffffffffffffffffffff16146119ab576040517f82b4290000000000000000000000000000000000000000000000000000000000815260040160405180910390fd5b60011515600e60030160019054906101000a900460ff16151514156119fc576040517f1bd131c300000000000000000000000000000000000000000000000000000000815260040160405180910390fd5b80600e6002018190555050565b600060026000541415611a51576040517f08c379a0000000000000000000000000000000000000000000000000000000008152600401611a4890613b14565b60405180910390fd5b600260008190555060001515600d60009054906101000a900460ff1615151415611aa7576040517fdbc28d8300000000000000000000000000000000000000000000000000000000815260040160405180910390fd5b600160001515600e60030160009054906101000a900460ff1615151415611afa576040517f15b1bdcd00000000000000000000000000000000000000000000000000000000815260040160405180910390fd5b600e60010154611b0a6009612866565b1180611b2e5750600e6001015481611b226009612866565b611b2c9190613ca5565b115b15611b65576040517f8a164f6300000000000000000000000000000000000000000000000000000000815260040160405180910390fd5b80600e60000154611b769190613d2c565b3414611bae576040517ff4d678b800000000000000000000000000000000000000000000000000000000815260040160405180910390fd5b6000600e6002015414158015611bdb5750600e6002015481611bcf33611c8f565b611bd99190613ca5565b115b15611c12576040517fecdd05c000000000000000000000000000000000000000000000000000000000815260040160405180910390fd5b6000600e60020154148015611c305750600e60010154600e60020154145b15611c67576040517fecdd05c000000000000000000000000000000000000000000000000000000000815260040160405180910390fd5b6000611c71612559565b9050611c7d8482612574565b80925050506001600081905550919050565b60008073ffffffffffffffffffffffffffffffffffffffff168273ffffffffffffffffffffffffffffffffffffffff161415611cf7576040517fd92e233d00000000000000000000000000000000000000000000000000000000815260040160405180910390fd5b601360008373ffffffffffffffffffffffffffffffffffffffff1673ffffffffffffffffffffffffffffffffffffffff168152602001908152602001600020549050919050565b6060600c8054611d4d90613e8f565b80601f0160208091040260200160405190810160405280929190818152602001828054611d7990613e8f565b8015611dc65780601f10611d9b57610100808354040283529160200191611dc6565b820191906000526020600020905b815481529060010190602001808311611da957829003601f168201915b5050505050905090565b600860009054906101000a900473ffffffffffffffffffffffffffffffffffffffff1673ffffffffffffffffffffffffffffffffffffffff163373ffffffffffffffffffffffffffffffffffffffff1614611e57576040517f82b4290000000000000000000000000000000000000000000000000000000000815260040160405180910390fd5b60011515600e60030160019054906101000a900460ff1615151415611ea8576040517f1bd131c300000000000000000000000000000000000000000000000000000000815260040160405180910390fd5b80600e6000018190555050565b6060600b8054611ec490613e8f565b80601f0160208091040260200160405190810160405280929190818152602001828054611ef090613e8f565b8015611f3d5780601f10611f1257610100808354040283529160200191611f3d565b820191906000526020600020905b815481529060010190602001808311611f2057829003601f168201915b5050505050905090565b611f59611f52612498565b8383612979565b5050565b611f6e611f68612498565b83612592565b611fa4576040517f82b4290000000000000000000000000000000000000000000000000000000000815260040160405180910390fd5b611fb084848484612b44565b50505050565b6060611fc182612456565b600d60009054906101000a900460ff166120b5576000601660008481526020019081526020016000208054611ff590613e8f565b90501161201157604051806020016040528060008152506120ae565b60166000838152602001908152602001600020805461202f90613e8f565b80601f016020809104026020016040519081016040528092919081815260200182805461205b90613e8f565b80156120a85780601f1061207d576101008083540402835291602001916120a8565b820191906000526020600020905b81548152906001019060200180831161208b57829003601f168201915b50505050505b905061210e565b60006120bf612b97565b905060008151116120df576040518060200160405280600081525061210a565b806120e984612bae565b6040516020016120fa929190613987565b6040516020818303038152906040525b9150505b919050565b7f000000000000000000000000000000000000000000000000000000000000000081565b60098060000154905081565b6000601560008473ffffffffffffffffffffffffffffffffffffffff1673ffffffffffffffffffffffffffffffffffffffff16815260200190815260200160002060008373ffffffffffffffffffffffffffffffffffffffff1673ffffffffffffffffffffffffffffffffffffffff16815260200190815260200160002060009054906101000a900460ff16905092915050565b600860009054906101000a900473ffffffffffffffffffffffffffffffffffffffff1673ffffffffffffffffffffffffffffffffffffffff163373ffffffffffffffffffffffffffffffffffffffff161461225e576040517f82b4290000000000000000000000000000000000000000000000000000000000815260040160405180910390fd5b60011515600e60030160019054906101000a900460ff16151514156122af576040517f1bd131c300000000000000000000000000000000000000000000000000000000815260040160405180910390fd5b80600e6001018190555050565b600e8060000154908060010154908060020154908060030160009054906101000a900460ff16908060030160019054906101000a900460ff16905085565b60007f01ffc9a7000000000000000000000000000000000000000000000000000000007bffffffffffffffffffffffffffffffffffffffffffffffffffffffff1916827bffffffffffffffffffffffffffffffffffffffffffffffffffffffff1916149050919050565b600060018054906101000a900460ff16156123da5760018260ff16148015612392575061239030612d5b565b155b6123d1576040517f08c379a00000000000000000000000000000000000000000000000000000000081526004016123c890613af4565b60405180910390fd5b60009050612451565b8160ff16600160009054906101000a900460ff1660ff1610612431576040517f08c379a000000000000000000000000000000000000000000000000000000000815260040161242890613af4565b60405180910390fd5b81600160006101000a81548160ff021916908360ff160217905550600190505b919050565b61245f81612d6e565b612495576040517f3f6cc76800000000000000000000000000000000000000000000000000000000815260040160405180910390fd5b50565b600033905090565b816014600083815260200190815260200160002060006101000a81548173ffffffffffffffffffffffffffffffffffffffff021916908373ffffffffffffffffffffffffffffffffffffffff160217905550808273ffffffffffffffffffffffffffffffffffffffff166125138361187b565b73ffffffffffffffffffffffffffffffffffffffff167f8c5be1e5ebec7d5bd14f71427d1e84f3dd0314c0f7b2291e5b200ac8c7c3b92560405160405180910390a45050565b60006125656009612dda565b61256f6009612866565b905090565b61258e828260405180602001604052806000815250612df0565b5050565b60008061259e8361187b565b90508073ffffffffffffffffffffffffffffffffffffffff168473ffffffffffffffffffffffffffffffffffffffff1614806125e057506125df8185612143565b5b8061261e57508373ffffffffffffffffffffffffffffffffffffffff1661260684610ad9565b73ffffffffffffffffffffffffffffffffffffffff16145b91505092915050565b8273ffffffffffffffffffffffffffffffffffffffff166126478261187b565b73ffffffffffffffffffffffffffffffffffffffff1614612694576040517f3a6bbed300000000000000000000000000000000000000000000000000000000815260040160405180910390fd5b600073ffffffffffffffffffffffffffffffffffffffff168273ffffffffffffffffffffffffffffffffffffffff1614156126fb576040517fd92e233d00000000000000000000000000000000000000000000000000000000815260040160405180910390fd5b6127066000826124a0565b6001601360008573ffffffffffffffffffffffffffffffffffffffff1673ffffffffffffffffffffffffffffffffffffffff16815260200190815260200160002060008282546127569190613d86565b925050819055506001601360008473ffffffffffffffffffffffffffffffffffffffff1673ffffffffffffffffffffffffffffffffffffffff16815260200190815260200160002060008282546127ad9190613ca5565b92505081905550816012600083815260200190815260200160002060006101000a81548173ffffffffffffffffffffffffffffffffffffffff021916908373ffffffffffffffffffffffffffffffffffffffff160217905550808273ffffffffffffffffffffffffffffffffffffffff168473ffffffffffffffffffffffffffffffffffffffff167fddf252ad1be2c89b69c2b068fc378daa952ba7f163c4a11628f55a4df523b3ef60405160405180910390a4505050565b600081600001549050919050565b600061287f8261187b565b905061288c6000836124a0565b6001601360008373ffffffffffffffffffffffffffffffffffffffff1673ffffffffffffffffffffffffffffffffffffffff16815260200190815260200160002060008282546128dc9190613d86565b925050819055506012600083815260200190815260200160002060006101000a81549073ffffffffffffffffffffffffffffffffffffffff021916905581600073ffffffffffffffffffffffffffffffffffffffff168273ffffffffffffffffffffffffffffffffffffffff167fddf252ad1be2c89b69c2b068fc378daa952ba7f163c4a11628f55a4df523b3ef60405160405180910390a45050565b600073ffffffffffffffffffffffffffffffffffffffff168273ffffffffffffffffffffffffffffffffffffffff1614156129e0576040517fd92e233d00000000000000000000000000000000000000000000000000000000815260040160405180910390fd5b8173ffffffffffffffffffffffffffffffffffffffff168373ffffffffffffffffffffffffffffffffffffffff161415612a46576040517ff4b33eeb00000000000000000000000000000000000000000000000000000000815260040160405180910390fd5b80601560008573ffffffffffffffffffffffffffffffffffffffff1673ffffffffffffffffffffffffffffffffffffffff16815260200190815260200160002060008473ffffffffffffffffffffffffffffffffffffffff1673ffffffffffffffffffffffffffffffffffffffff16815260200190815260200160002060006101000a81548160ff0219169083151502179055508173ffffffffffffffffffffffffffffffffffffffff168373ffffffffffffffffffffffffffffffffffffffff167f17307eab39ab6107e8899845ad3d59bd9653f200f220920489ca2b5937696c3183604051612b379190613a34565b60405180910390a3505050565b612b4f848484612627565b612b5b84848484612e42565b612b91576040517f44ccafd600000000000000000000000000000000000000000000000000000000815260040160405180910390fd5b50505050565b606060405180602001604052806000815250905090565b60606000821415612bf6576040518060400160405280600181526020017f30000000000000000000000000000000000000000000000000000000000000008152509050612d56565b600082905060005b60008214612c28578080612c1190613ef2565b915050600a82612c219190613cfb565b9150612bfe565b60008167ffffffffffffffff811115612c6a577f4e487b7100000000000000000000000000000000000000000000000000000000600052604160045260246000fd5b6040519080825280601f01601f191660200182016040528015612c9c5781602001600182028036833780820191505090505b5090505b60008514612d4f57600182612cb59190613d86565b9150600a85612cc49190613f3b565b6030612cd09190613ca5565b60f81b818381518110612d0c577f4e487b7100000000000000000000000000000000000000000000000000000000600052603260045260246000fd5b60200101907effffffffffffffffffffffffffffffffffffffffffffffffffffffffffffff1916908160001a905350600a85612d489190613cfb565b9450612ca0565b8093505050505b919050565b600080823b905060008111915050919050565b60008073ffffffffffffffffffffffffffffffffffffffff166012600084815260200190815260200160002060009054906101000a900473ffffffffffffffffffffffffffffffffffffffff1673ffffffffffffffffffffffffffffffffffffffff1614159050919050565b6001816000016000828254019250508190555050565b612dfa8383612fd0565b612e076000848484612e42565b612e3d576040517f44ccafd600000000000000000000000000000000000000000000000000000000815260040160405180910390fd5b505050565b6000612e638473ffffffffffffffffffffffffffffffffffffffff16612d5b565b15612fc3578373ffffffffffffffffffffffffffffffffffffffff1663150b7a02612e8c612498565b8786866040518563ffffffff1660e01b8152600401612eae94939291906139c6565b602060405180830381600087803b158015612ec857600080fd5b505af1925050508015612ef957506040513d601f19601f82011682018060405250810190612ef6919061367c565b60015b612f73573d8060008114612f29576040519150601f19603f3d011682016040523d82523d6000602084013e612f2e565b606091505b50600081511415612f6b576040517f44ccafd600000000000000000000000000000000000000000000000000000000815260040160405180910390fd5b805181602001fd5b63150b7a0260e01b7bffffffffffffffffffffffffffffffffffffffffffffffffffffffff1916817bffffffffffffffffffffffffffffffffffffffffffffffffffffffff191614915050612fc8565b600190505b949350505050565b600073ffffffffffffffffffffffffffffffffffffffff168273ffffffffffffffffffffffffffffffffffffffff161415613037576040517fd92e233d00000000000000000000000000000000000000000000000000000000815260040160405180910390fd5b61304081612d6e565b15613076576040517ea5a1f500000000000000000000000000000000000000000000000000000000815260040160405180910390fd5b6001601360008473ffffffffffffffffffffffffffffffffffffffff1673ffffffffffffffffffffffffffffffffffffffff16815260200190815260200160002060008282546130c69190613ca5565b92505081905550816012600083815260200190815260200160002060006101000a81548173ffffffffffffffffffffffffffffffffffffffff021916908373ffffffffffffffffffffffffffffffffffffffff160217905550808273ffffffffffffffffffffffffffffffffffffffff16600073ffffffffffffffffffffffffffffffffffffffff167fddf252ad1be2c89b69c2b068fc378daa952ba7f163c4a11628f55a4df523b3ef60405160405180910390a45050565b82805461318b90613e8f565b90600052602060002090601f0160209004810192826131ad57600085556131f4565b82601f106131c657805160ff19168380011785556131f4565b828001600101855582156131f4579182015b828111156131f35782518255916020019190600101906131d8565b5b509050613201919061328b565b5090565b82805461321190613e8f565b90600052602060002090601f016020900481019282613233576000855561327a565b82601f1061324c57803560ff191683800117855561327a565b8280016001018555821561327a579182015b8281111561327957823582559160200191906001019061325e565b5b509050613287919061328b565b5090565b5b808211156132a457600081600090555060010161328c565b5090565b60006132bb6132b684613bc7565b613ba2565b9050828152602081018484840111156132d357600080fd5b6132de848285613e4d565b509392505050565b60006132f96132f484613bf8565b613ba2565b90508281526020810184848401111561331157600080fd5b61331c848285613e4d565b509392505050565b600081359050613333816140b1565b92915050565b600081359050613348816140c8565b92915050565b60008135905061335d816140df565b92915050565b600081519050613372816140df565b92915050565b600082601f83011261338957600080fd5b81356133998482602086016132a8565b91505092915050565b60008083601f8401126133b457600080fd5b8235905067ffffffffffffffff8111156133cd57600080fd5b6020830191508360018202830111156133e557600080fd5b9250929050565b600082601f8301126133fd57600080fd5b813561340d8482602086016132e6565b91505092915050565b600081359050613425816140f6565b92915050565b60006020828403121561343d57600080fd5b600061344b84828501613324565b91505092915050565b6000806040838503121561346757600080fd5b600061347585828601613324565b925050602061348685828601613324565b9150509250929050565b6000806000606084860312156134a557600080fd5b60006134b386828701613324565b93505060206134c486828701613324565b92505060406134d586828701613416565b9150509250925092565b600080600080608085870312156134f557600080fd5b600061350387828801613324565b945050602061351487828801613324565b935050604061352587828801613416565b925050606085013567ffffffffffffffff81111561354257600080fd5b61354e87828801613378565b91505092959194509250565b6000806040838503121561356d57600080fd5b600061357b85828601613324565b925050602061358c85828601613339565b9150509250929050565b6000806000604084860312156135ab57600080fd5b60006135b986828701613324565b935050602084013567ffffffffffffffff8111156135d657600080fd5b6135e2868287016133a2565b92509250509250925092565b6000806040838503121561360157600080fd5b600061360f85828601613324565b925050602061362085828601613416565b9150509250929050565b60006020828403121561363c57600080fd5b600061364a84828501613339565b91505092915050565b60006020828403121561366557600080fd5b60006136738482850161334e565b91505092915050565b60006020828403121561368e57600080fd5b600061369c84828501613363565b91505092915050565b6000602082840312156136b757600080fd5b600082013567ffffffffffffffff8111156136d157600080fd5b6136dd848285016133ec565b91505092915050565b6000806000606084860312156136fb57600080fd5b600084013567ffffffffffffffff81111561371557600080fd5b613721868287016133ec565b935050602084013567ffffffffffffffff81111561373e57600080fd5b61374a868287016133ec565b925050604061375b86828701613324565b9150509250925092565b60006020828403121561377757600080fd5b600061378584828501613416565b91505092915050565b6000806000606084860312156137a357600080fd5b60006137b186828701613416565b93505060206137c286828701613416565b92505060406137d386828701613416565b9150509250925092565b60006137e98383613969565b60208301905092915050565b6137fe81613dba565b82525050565b600061380f82613c39565b6138198185613c67565b935061382483613c29565b8060005b8381101561385557815161383c88826137dd565b975061384783613c5a565b925050600181019050613828565b5085935050505092915050565b61386b81613dcc565b82525050565b600061387c82613c44565b6138868185613c78565b9350613896818560208601613e5c565b61389f81614028565b840191505092915050565b6138b381613e3b565b82525050565b60006138c482613c4f565b6138ce8185613c89565b93506138de818560208601613e5c565b6138e781614028565b840191505092915050565b60006138fd82613c4f565b6139078185613c9a565b9350613917818560208601613e5c565b80840191505092915050565b6000613930602e83613c89565b915061393b82614039565b604082019050919050565b6000613953601f83613c89565b915061395e82614088565b602082019050919050565b61397281613e24565b82525050565b61398181613e24565b82525050565b600061399382856138f2565b915061399f82846138f2565b91508190509392505050565b60006020820190506139c060008301846137f5565b92915050565b60006080820190506139db60008301876137f5565b6139e860208301866137f5565b6139f56040830185613978565b8181036060830152613a078184613871565b905095945050505050565b60006020820190508181036000830152613a2c8184613804565b905092915050565b6000602082019050613a496000830184613862565b92915050565b600060a0820190508181036000830152613a698188613871565b9050613a7860208301876137f5565b8181036040830152613a8a8186613871565b9050613a996060830185613978565b8181036080830152613aab8184613871565b90509695505050505050565b6000602082019050613acc60008301846138aa565b92915050565b60006020820190508181036000830152613aec81846138b9565b905092915050565b60006020820190508181036000830152613b0d81613923565b9050919050565b60006020820190508181036000830152613b2d81613946565b9050919050565b6000602082019050613b496000830184613978565b92915050565b600060a082019050613b646000830188613978565b613b716020830187613978565b613b7e6040830186613978565b613b8b6060830185613862565b613b986080830184613862565b9695505050505050565b6000613bac613bbd565b9050613bb88282613ec1565b919050565b6000604051905090565b600067ffffffffffffffff821115613be257613be1613ff9565b5b613beb82614028565b9050602081019050919050565b600067ffffffffffffffff821115613c1357613c12613ff9565b5b613c1c82614028565b9050602081019050919050565b6000819050602082019050919050565b600081519050919050565b600081519050919050565b600081519050919050565b6000602082019050919050565b600082825260208201905092915050565b600082825260208201905092915050565b600082825260208201905092915050565b600081905092915050565b6000613cb082613e24565b9150613cbb83613e24565b9250827fffffffffffffffffffffffffffffffffffffffffffffffffffffffffffffffff03821115613cf057613cef613f6c565b5b828201905092915050565b6000613d0682613e24565b9150613d1183613e24565b925082613d2157613d20613f9b565b5b828204905092915050565b6000613d3782613e24565b9150613d4283613e24565b9250817fffffffffffffffffffffffffffffffffffffffffffffffffffffffffffffffff0483118215151615613d7b57613d7a613f6c565b5b828202905092915050565b6000613d9182613e24565b9150613d9c83613e24565b925082821015613daf57613dae613f6c565b5b828203905092915050565b6000613dc582613e04565b9050919050565b60008115159050919050565b60007fffffffff0000000000000000000000000000000000000000000000000000000082169050919050565b600073ffffffffffffffffffffffffffffffffffffffff82169050919050565b6000819050919050565b600060ff82169050919050565b6000613e4682613e2e565b9050919050565b82818337600083830152505050565b60005b83811015613e7a578082015181840152602081019050613e5f565b83811115613e89576000848401525b50505050565b60006002820490506001821680613ea757607f821691505b60208210811415613ebb57613eba613fca565b5b50919050565b613eca82614028565b810181811067ffffffffffffffff82111715613ee957613ee8613ff9565b5b80604052505050565b6000613efd82613e24565b91507fffffffffffffffffffffffffffffffffffffffffffffffffffffffffffffffff821415613f3057613f2f613f6c565b5b600182019050919050565b6000613f4682613e24565b9150613f5183613e24565b925082613f6157613f60613f9b565b5b828206905092915050565b7f4e487b7100000000000000000000000000000000000000000000000000000000600052601160045260246000fd5b7f4e487b7100000000000000000000000000000000000000000000000000000000600052601260045260246000fd5b7f4e487b7100000000000000000000000000000000000000000000000000000000600052602260045260246000fd5b7f4e487b7100000000000000000000000000000000000000000000000000000000600052604160045260246000fd5b6000601f19601f8301169050919050565b7f496e697469616c697a61626c653a20636f6e747261637420697320616c72656160008201527f647920696e697469616c697a6564000000000000000000000000000000000000602082015250565b7f5265656e7472616e637947756172643a207265656e7472616e742063616c6c00600082015250565b6140ba81613dba565b81146140c557600080fd5b50565b6140d181613dcc565b81146140dc57600080fd5b50565b6140e881613dd8565b81146140f357600080fd5b50565b6140ff81613e24565b811461410a57600080fd5b5056fea2646970667358221220ea37c32bd7c09e1d01d1cccb28ec5508ea9a911541b91699f80158f5dc0e464e64736f6c63430008040033",
  "linkReferences": {},
  "deployedLinkReferences": {}
}