{
  "_format": "hh-sol-artifact-1",
  "contractName": "ERC721",
  "sourceName": "contracts/ERC721.sol",
  "abi": [
    {
      "inputs": [
        {
          "internalType": "address",
          "name": "_owner",
          "type": "address"
        }
      ],
      "stateMutability": "nonpayable",
      "type": "constructor"
    },
    {
      "inputs": [],
      "name": "AlreadyInitialized",
      "type": "error"
    },
    {
      "inputs": [],
      "name": "IncorrectOwner",
      "type": "error"
    },
    {
      "inputs": [],
      "name": "InsufficientAllowance",
      "type": "error"
    },
    {
      "inputs": [],
      "name": "InsufficientBalance",
      "type": "error"
    },
    {
      "inputs": [],
      "name": "InvalidTokenId",
      "type": "error"
    },
    {
      "inputs": [],
      "name": "MaxPerUserExceeded",
      "type": "error"
    },
    {
      "inputs": [],
      "name": "MaxSupplyExceeded",
      "type": "error"
    },
    {
      "inputs": [],
      "name": "MissingERC721Receiver",
      "type": "error"
    },
    {
      "inputs": [],
      "name": "NotACollection",
      "type": "error"
    },
    {
      "inputs": [],
      "name": "PublicMintInactive",
      "type": "error"
    },
    {
      "inputs": [],
      "name": "SameAddress",
      "type": "error"
    },
    {
      "inputs": [],
      "name": "SameOwnerAndOperator",
      "type": "error"
    },
    {
      "inputs": [],
      "name": "TokenAlreadyMinted",
      "type": "error"
    },
    {
      "inputs": [],
      "name": "Unauthorized",
      "type": "error"
    },
    {
      "inputs": [],
      "name": "ZeroAddress",
      "type": "error"
    },
    {
      "anonymous": false,
      "inputs": [
        {
          "indexed": true,
          "internalType": "address",
          "name": "owner",
          "type": "address"
        },
        {
          "indexed": true,
          "internalType": "address",
          "name": "approved",
          "type": "address"
        },
        {
          "indexed": true,
          "internalType": "uint256",
          "name": "tokenId",
          "type": "uint256"
        }
      ],
      "name": "Approval",
      "type": "event"
    },
    {
      "anonymous": false,
      "inputs": [
        {
          "indexed": true,
          "internalType": "address",
          "name": "owner",
          "type": "address"
        },
        {
          "indexed": true,
          "internalType": "address",
          "name": "operator",
          "type": "address"
        },
        {
          "indexed": false,
          "internalType": "bool",
          "name": "approved",
          "type": "bool"
        }
      ],
      "name": "ApprovalForAll",
      "type": "event"
    },
    {
      "anonymous": false,
      "inputs": [
        {
          "indexed": false,
          "internalType": "uint8",
          "name": "version",
          "type": "uint8"
        }
      ],
      "name": "Initialized",
      "type": "event"
    },
    {
      "anonymous": false,
      "inputs": [
        {
          "indexed": true,
          "internalType": "address",
          "name": "from",
          "type": "address"
        },
        {
          "indexed": true,
          "internalType": "address",
          "name": "to",
          "type": "address"
        },
        {
          "indexed": true,
          "internalType": "uint256",
          "name": "tokenId",
          "type": "uint256"
        }
      ],
      "name": "Transfer",
      "type": "event"
    },
    {
      "inputs": [],
      "name": "_collectionInfo",
      "outputs": [
        {
          "internalType": "uint256",
          "name": "price",
          "type": "uint256"
        },
        {
          "internalType": "uint256",
          "name": "maxSupply",
          "type": "uint256"
        },
        {
          "internalType": "uint256",
          "name": "maxPerUser",
          "type": "uint256"
        },
        {
          "internalType": "bool",
          "name": "isPublicSaleActive",
          "type": "bool"
        }
      ],
      "stateMutability": "view",
      "type": "function"
    },
    {
      "inputs": [],
      "name": "_tenantOwner",
      "outputs": [
        {
          "internalType": "address",
          "name": "",
          "type": "address"
        }
      ],
      "stateMutability": "view",
      "type": "function"
    },
    {
      "inputs": [
        {
          "internalType": "address",
          "name": "_to",
          "type": "address"
        },
        {
          "internalType": "uint256",
          "name": "_tokenId",
          "type": "uint256"
        }
      ],
      "name": "approve",
      "outputs": [],
      "stateMutability": "nonpayable",
      "type": "function"
    },
    {
      "inputs": [
        {
          "internalType": "address",
          "name": "_owner",
          "type": "address"
        }
      ],
      "name": "balanceOf",
      "outputs": [
        {
          "internalType": "uint256",
          "name": "",
          "type": "uint256"
        }
      ],
      "stateMutability": "view",
      "type": "function"
    },
    {
      "inputs": [],
      "name": "contractOwner",
      "outputs": [
        {
          "internalType": "address",
          "name": "",
          "type": "address"
        }
      ],
      "stateMutability": "view",
      "type": "function"
    },
    {
      "inputs": [
        {
          "internalType": "uint256",
          "name": "_tokenId",
          "type": "uint256"
        }
      ],
      "name": "getApproved",
      "outputs": [
        {
          "internalType": "address",
          "name": "",
          "type": "address"
        }
      ],
      "stateMutability": "view",
      "type": "function"
    },
    {
      "inputs": [],
      "name": "getBaseURI",
      "outputs": [
        {
          "internalType": "string",
          "name": "",
          "type": "string"
        }
      ],
      "stateMutability": "view",
      "type": "function"
    },
    {
      "inputs": [
        {
          "internalType": "string",
          "name": "name_",
          "type": "string"
        },
        {
          "internalType": "string",
          "name": "symbol_",
          "type": "string"
        },
        {
          "internalType": "address",
          "name": "tenant_",
          "type": "address"
        }
      ],
      "name": "initialize",
      "outputs": [],
      "stateMutability": "nonpayable",
      "type": "function"
    },
    {
      "inputs": [
        {
          "internalType": "uint256",
          "name": "_price",
          "type": "uint256"
        },
        {
          "internalType": "uint256",
          "name": "_maxSupply",
          "type": "uint256"
        },
        {
          "internalType": "uint256",
          "name": "_maxPerUser",
          "type": "uint256"
        }
      ],
      "name": "initializeCollection",
      "outputs": [],
      "stateMutability": "nonpayable",
      "type": "function"
    },
    {
      "inputs": [
        {
          "internalType": "address",
          "name": "_owner",
          "type": "address"
        },
        {
          "internalType": "address",
          "name": "_operator",
          "type": "address"
        }
      ],
      "name": "isApprovedForAll",
      "outputs": [
        {
          "internalType": "bool",
          "name": "",
          "type": "bool"
        }
      ],
      "stateMutability": "view",
      "type": "function"
    },
    {
      "inputs": [],
      "name": "isPublicSaleActive",
      "outputs": [
        {
          "internalType": "bool",
          "name": "",
          "type": "bool"
        }
      ],
      "stateMutability": "view",
      "type": "function"
    },
    {
      "inputs": [],
      "name": "metadata",
      "outputs": [
        {
          "internalType": "bytes",
          "name": "title",
          "type": "bytes"
        },
        {
          "components": [
            {
              "internalType": "address",
              "name": "authorAddress",
              "type": "address"
            },
            {
              "internalType": "string",
              "name": "externalLink",
              "type": "string"
            }
          ],
          "internalType": "struct IHyperverseModule.Author",
          "name": "author",
          "type": "tuple"
        },
        {
          "internalType": "bytes",
          "name": "version",
          "type": "bytes"
        },
        {
          "internalType": "uint64",
          "name": "publishedAt",
          "type": "uint64"
        },
        {
          "internalType": "bytes",
          "name": "externalLink",
          "type": "bytes"
        }
      ],
      "stateMutability": "view",
      "type": "function"
    },
    {
      "inputs": [
        {
          "internalType": "address",
          "name": "_to",
          "type": "address"
        }
      ],
      "name": "mint",
      "outputs": [
        {
          "internalType": "uint256",
          "name": "",
          "type": "uint256"
        }
      ],
      "stateMutability": "payable",
      "type": "function"
    },
    {
      "inputs": [
        {
          "internalType": "address",
          "name": "_to",
          "type": "address"
        },
        {
          "internalType": "uint256",
          "name": "_count",
          "type": "uint256"
        }
      ],
      "name": "mintBatch",
      "outputs": [
        {
          "internalType": "uint256[]",
          "name": "",
          "type": "uint256[]"
        }
      ],
      "stateMutability": "payable",
      "type": "function"
    },
    {
      "inputs": [],
      "name": "name",
      "outputs": [
        {
          "internalType": "string",
          "name": "",
          "type": "string"
        }
      ],
      "stateMutability": "view",
      "type": "function"
    },
    {
      "inputs": [
        {
          "internalType": "uint256",
          "name": "_tokenId",
          "type": "uint256"
        }
      ],
      "name": "ownerOf",
      "outputs": [
        {
          "internalType": "address",
          "name": "",
          "type": "address"
        }
      ],
      "stateMutability": "view",
      "type": "function"
    },
    {
      "inputs": [
        {
          "internalType": "address",
          "name": "_from",
          "type": "address"
        },
        {
          "internalType": "address",
          "name": "_to",
          "type": "address"
        },
        {
          "internalType": "uint256",
          "name": "_tokenId",
          "type": "uint256"
        }
      ],
      "name": "safeTransferFrom",
      "outputs": [],
      "stateMutability": "nonpayable",
      "type": "function"
    },
    {
      "inputs": [
        {
          "internalType": "address",
          "name": "_from",
          "type": "address"
        },
        {
          "internalType": "address",
          "name": "_to",
          "type": "address"
        },
        {
          "internalType": "uint256",
          "name": "_tokenId",
          "type": "uint256"
        },
        {
          "internalType": "bytes",
          "name": "_data",
          "type": "bytes"
        }
      ],
      "name": "safeTransferFrom",
      "outputs": [],
      "stateMutability": "nonpayable",
      "type": "function"
    },
    {
      "inputs": [
        {
          "internalType": "address",
          "name": "_operator",
          "type": "address"
        },
        {
          "internalType": "bool",
          "name": "_approved",
          "type": "bool"
        }
      ],
      "name": "setApprovalForAll",
      "outputs": [],
      "stateMutability": "nonpayable",
      "type": "function"
    },
    {
      "inputs": [
        {
          "internalType": "string",
          "name": "baseURI_",
          "type": "string"
        }
      ],
      "name": "setBaseURI",
      "outputs": [],
      "stateMutability": "nonpayable",
      "type": "function"
    },
    {
      "inputs": [
        {
          "internalType": "bool",
          "name": "_isActive",
          "type": "bool"
        }
      ],
      "name": "setMintPermissions",
      "outputs": [],
      "stateMutability": "nonpayable",
      "type": "function"
    },
    {
      "inputs": [
        {
          "internalType": "bytes4",
          "name": "_interfaceId",
          "type": "bytes4"
        }
      ],
      "name": "supportsInterface",
      "outputs": [
        {
          "internalType": "bool",
          "name": "",
          "type": "bool"
        }
      ],
      "stateMutability": "view",
      "type": "function"
    },
    {
      "inputs": [],
      "name": "symbol",
      "outputs": [
        {
          "internalType": "string",
          "name": "",
          "type": "string"
        }
      ],
      "stateMutability": "view",
      "type": "function"
    },
    {
      "inputs": [
        {
          "internalType": "address",
          "name": "_reciever",
          "type": "address"
        }
      ],
      "name": "tenantMint",
      "outputs": [
        {
          "internalType": "uint256",
          "name": "",
          "type": "uint256"
        }
      ],
      "stateMutability": "nonpayable",
      "type": "function"
    },
    {
      "inputs": [
        {
          "internalType": "address",
          "name": "_to",
          "type": "address"
        },
        {
          "internalType": "string",
          "name": "_uri",
          "type": "string"
        }
      ],
      "name": "tenantMint",
      "outputs": [
        {
          "internalType": "uint256",
          "name": "",
          "type": "uint256"
        }
      ],
      "stateMutability": "nonpayable",
      "type": "function"
    },
    {
      "inputs": [],
      "name": "tokenCounter",
      "outputs": [
        {
          "internalType": "uint256",
          "name": "_value",
          "type": "uint256"
        }
      ],
      "stateMutability": "view",
      "type": "function"
    },
    {
      "inputs": [
        {
          "internalType": "uint256",
          "name": "_tokenId",
          "type": "uint256"
        }
      ],
      "name": "tokenURI",
      "outputs": [
        {
          "internalType": "string",
          "name": "",
          "type": "string"
        }
      ],
      "stateMutability": "view",
      "type": "function"
    },
    {
      "inputs": [
        {
          "internalType": "address",
          "name": "_from",
          "type": "address"
        },
        {
          "internalType": "address",
          "name": "_to",
          "type": "address"
        },
        {
          "internalType": "uint256",
          "name": "_tokenId",
          "type": "uint256"
        }
      ],
      "name": "transferFrom",
      "outputs": [],
      "stateMutability": "nonpayable",
      "type": "function"
    },
    {
      "inputs": [],
      "name": "withdraw",
      "outputs": [],
      "stateMutability": "nonpayable",
      "type": "function"
    },
    {
      "inputs": [
        {
          "internalType": "contract IERC20",
          "name": "_token",
          "type": "address"
        }
      ],
      "name": "withdrawTokens",
      "outputs": [],
      "stateMutability": "nonpayable",
      "type": "function"
    }
  ],
  "bytecode": "0x60a06040523480156200001157600080fd5b506040516200459e3803806200459e83398181016040528101906200003791906200040c565b60016000819055506040518060a001604052806040518060400160405280600681526020017f4552433732310000000000000000000000000000000000000000000000000000815250815260200160405180604001604052808473ffffffffffffffffffffffffffffffffffffffff1681526020016040518060400160405280601881526020017f68747470733a2f2f65787465726e616c6c696e6b2e6e6574000000000000000081525081525081526020016040518060400160405280600581526020017f302e302e31000000000000000000000000000000000000000000000000000000815250815260200165032a361e860667ffffffffffffffff1681526020016040518060400160405280601881526020017f68747470733a2f2f65787465726e616c4c696e6b2e6e657400000000000000008152508152506002600082015181600001908051906020019062000194929190620002b4565b5060208201518160010160008201518160000160006101000a81548173ffffffffffffffffffffffffffffffffffffffff021916908373ffffffffffffffffffffffffffffffffffffffff16021790555060208201518160010190805190602001906200020392919062000345565b505050604082015181600301908051906020019062000224929190620002b4565b5060608201518160040160006101000a81548167ffffffffffffffff021916908367ffffffffffffffff160217905550608082015181600501908051906020019062000272929190620002b4565b509050508073ffffffffffffffffffffffffffffffffffffffff1660808173ffffffffffffffffffffffffffffffffffffffff1660601b8152505050620004eb565b828054620002c2906200046c565b90600052602060002090601f016020900481019282620002e6576000855562000332565b82601f106200030157805160ff191683800117855562000332565b8280016001018555821562000332579182015b828111156200033157825182559160200191906001019062000314565b5b509050620003419190620003d6565b5090565b82805462000353906200046c565b90600052602060002090601f016020900481019282620003775760008555620003c3565b82601f106200039257805160ff1916838001178555620003c3565b82800160010185558215620003c3579182015b82811115620003c2578251825591602001919060010190620003a5565b5b509050620003d29190620003d6565b5090565b5b80821115620003f1576000816000905550600101620003d7565b5090565b6000815190506200040681620004d1565b92915050565b6000602082840312156200041f57600080fd5b60006200042f84828501620003f5565b91505092915050565b600062000445826200044c565b9050919050565b600073ffffffffffffffffffffffffffffffffffffffff82169050919050565b600060028204905060018216806200048557607f821691505b602082108114156200049c576200049b620004a2565b5b50919050565b7f4e487b7100000000000000000000000000000000000000000000000000000000600052602260045260246000fd5b620004dc8162000438565b8114620004e857600080fd5b50565b60805160601c6140946200050a600039600061209801526140946000f3fe6080604052600436106101cd5760003560e01c806349df728c116100f757806395d89b4111610095578063c87b56dd11610064578063c87b56dd14610685578063ce606ee0146106c2578063d082e381146106ed578063e985e9c514610718576101cd565b806395d89b41146105da57806397ee73bb14610605578063a22cb46514610633578063b88d4fde1461065c576101cd565b80636352211e116100d15780636352211e146105055780636a6278421461054257806370a0823114610572578063714c5398146105af576101cd565b806349df728c1461048a5780634d2f929a146104b357806355f804b3146104dc576101cd565b8063217cc2b41161016f578063392f37e91161013e578063392f37e9146103f25780633ccfd60b146104215780633e2b81c41461043857806342842e0e14610461576101cd565b8063217cc2b41461031f57806323b872dd1461035c578063248b71fc1461038557806327fbceac146103b5576101cd565b8063081812fc116101ab578063081812fc14610263578063095ea7b3146102a05780630b8eb2cf146102c95780631e84c413146102f4576101cd565b806301ffc9a7146101d257806306fdde031461020f578063077f224a1461023a575b600080fd5b3480156101de57600080fd5b506101f960048036038101906101f4919061344e565b610755565b604051610206919061393e565b60405180910390f35b34801561021b57600080fd5b50610224610837565b60405161023191906139e3565b60405180910390f35b34801561024657600080fd5b50610261600480360381019061025c919061350a565b6108c9565b005b34801561026f57600080fd5b5061028a60048036038101906102859190613589565b610a50565b604051610297919061388c565b60405180910390f35b3480156102ac57600080fd5b506102c760048036038101906102c291906133c0565b610a96565b005b3480156102d557600080fd5b506102de610b9f565b6040516102eb919061388c565b60405180910390f35b34801561030057600080fd5b50610309610bc5565b604051610316919061393e565b60405180910390f35b34801561032b57600080fd5b50610346600480360381019061034191906131fd565b610bd8565b6040516103539190613a45565b60405180910390f35b34801561036857600080fd5b50610383600480360381019061037e9190613262565b610cce565b005b61039f600480360381019061039a91906133c0565b610d25565b6040516103ac919061391c565b60405180910390f35b3480156103c157600080fd5b506103dc60048036038101906103d79190613368565b61113d565b6040516103e99190613a45565b60405180910390f35b3480156103fe57600080fd5b50610407611217565b604051610418959493929190613959565b60405180910390f35b34801561042d57600080fd5b506104366114d9565b005b34801561044457600080fd5b5061045f600480360381019061045a91906133fc565b6115af565b005b34801561046d57600080fd5b5061048860048036038101906104839190613262565b611692565b005b34801561049657600080fd5b506104b160048036038101906104ac91906134a0565b6116b2565b005b3480156104bf57600080fd5b506104da60048036038101906104d591906135db565b611858565b005b3480156104e857600080fd5b5061050360048036038101906104fe91906134c9565b61191d565b005b34801561051157600080fd5b5061052c60048036038101906105279190613589565b6119be565b604051610539919061388c565b60405180910390f35b61055c600480360381019061055791906131fd565b611a67565b6040516105699190613a45565b60405180910390f35b34801561057e57600080fd5b50610599600480360381019061059491906131fd565b611ccc565b6040516105a69190613a45565b60405180910390f35b3480156105bb57600080fd5b506105c4611d7b565b6040516105d191906139e3565b60405180910390f35b3480156105e657600080fd5b506105ef611e0d565b6040516105fc91906139e3565b60405180910390f35b34801561061157600080fd5b5061061a611e9f565b60405161062a9493929190613a60565b60405180910390f35b34801561063f57600080fd5b5061065a6004803603810190610655919061332c565b611eca565b005b34801561066857600080fd5b50610683600480360381019061067e91906132b1565b611ee0565b005b34801561069157600080fd5b506106ac60048036038101906106a79190613589565b611f39565b6040516106b991906139e3565b60405180910390f35b3480156106ce57600080fd5b506106d7612096565b6040516106e4919061388c565b60405180910390f35b3480156106f957600080fd5b506107026120ba565b60405161070f9190613a45565b60405180910390f35b34801561072457600080fd5b5061073f600480360381019061073a9190613226565b6120c6565b60405161074c919061393e565b60405180910390f35b60007f80ac58cd000000000000000000000000000000000000000000000000000000007bffffffffffffffffffffffffffffffffffffffffffffffffffffffff1916827bffffffffffffffffffffffffffffffffffffffffffffffffffffffff1916148061082057507f5b5e139f000000000000000000000000000000000000000000000000000000007bffffffffffffffffffffffffffffffffffffffffffffffffffffffff1916827bffffffffffffffffffffffffffffffffffffffffffffffffffffffff1916145b80610830575061082f8261215a565b5b9050919050565b6060600b805461084690613dc9565b80601f016020809104026020016040519081016040528092919081815260200182805461087290613dc9565b80156108bf5780601f10610894576101008083540402835291602001916108bf565b820191906000526020600020905b8154815290600101906020018083116108a257829003601f168201915b5050505050905090565b60006108d560016121c4565b905080156108f85760018060016101000a81548160ff0219169083151502179055505b81600073ffffffffffffffffffffffffffffffffffffffff16600960009054906101000a900473ffffffffffffffffffffffffffffffffffffffff1673ffffffffffffffffffffffffffffffffffffffff1614610981576040517f0dc149f000000000000000000000000000000000000000000000000000000000815260040160405180910390fd5b84600b9080519060200190610997929190612f12565b5083600c90805190602001906109ae929190612f12565b5082600960006101000a81548173ffffffffffffffffffffffffffffffffffffffff021916908373ffffffffffffffffffffffffffffffffffffffff160217905550508015610a4a5760006001806101000a81548160ff0219169083151502179055507f7f26b83ff96e1f2b6a682f133852f6798a09c465da95921460cefb38474024986001604051610a4191906139c8565b60405180910390a15b50505050565b6000610a5b826122b6565b6015600083815260200190815260200160002060009054906101000a900473ffffffffffffffffffffffffffffffffffffffff169050919050565b6000610aa1826119be565b90508273ffffffffffffffffffffffffffffffffffffffff168173ffffffffffffffffffffffffffffffffffffffff161415610b09576040517f367558c300000000000000000000000000000000000000000000000000000000815260040160405180910390fd5b8073ffffffffffffffffffffffffffffffffffffffff16610b286122f8565b73ffffffffffffffffffffffffffffffffffffffff16141580610b595750610b5781610b526122f8565b6120c6565b155b15610b90576040517f82b4290000000000000000000000000000000000000000000000000000000000815260040160405180910390fd5b610b9a8383612300565b505050565b600960009054906101000a900473ffffffffffffffffffffffffffffffffffffffff1681565b600e60009054906101000a900460ff1681565b6000600960009054906101000a900473ffffffffffffffffffffffffffffffffffffffff1673ffffffffffffffffffffffffffffffffffffffff163373ffffffffffffffffffffffffffffffffffffffff1614610c61576040517f82b4290000000000000000000000000000000000000000000000000000000000815260040160405180910390fd5b60001515600e60019054906101000a900460ff1615151415610caf576040517fdbc28d8300000000000000000000000000000000000000000000000000000000815260040160405180910390fd5b6000610cb96123b9565b9050610cc583826123d4565b80915050919050565b610cdf610cd96122f8565b826123f2565b610d15576040517f82b4290000000000000000000000000000000000000000000000000000000000815260040160405180910390fd5b610d20838383612487565b505050565b606060026000541415610d6d576040517f08c379a0000000000000000000000000000000000000000000000000000000008152600401610d6490613a25565b60405180910390fd5b60026000819055508160011515600e60019054906101000a900460ff1615151415610ef95760001515600f60030160009054906101000a900460ff1615151415610de3576040517f15b1bdcd00000000000000000000000000000000000000000000000000000000815260040160405180910390fd5b600f60010154610df3600a6126dc565b1180610e175750600f6001015481610e0b600a6126dc565b610e159190613bb9565b115b15610e4e576040517f8a164f6300000000000000000000000000000000000000000000000000000000815260040160405180910390fd5b80600f60000154610e5f9190613c40565b8134610e6b9190613c40565b14610ea2576040517ff4d678b800000000000000000000000000000000000000000000000000000000815260040160405180910390fd5b600f6002015481610eb233611ccc565b610ebc9190613bb9565b1115610ef4576040517fecdd05c000000000000000000000000000000000000000000000000000000000815260040160405180910390fd5b61103b565b60001515600e60009054906101000a900460ff1615151415610f47576040517f15b1bdcd00000000000000000000000000000000000000000000000000000000815260040160405180910390fd5b60008367ffffffffffffffff811115610f89577f4e487b7100000000000000000000000000000000000000000000000000000000600052604160045260246000fd5b604051908082528060200260200182016040528015610fb75781602001602082028036833780820191505090505b50905060005b84811015611035576000610fcf6123b9565b90508083838151811061100b577f4e487b7100000000000000000000000000000000000000000000000000000000600052603260045260246000fd5b60200260200101818152505061102187826123d4565b50808061102d90613e2c565b915050610fbd565b50809250505b60008367ffffffffffffffff81111561107d577f4e487b7100000000000000000000000000000000000000000000000000000000600052604160045260246000fd5b6040519080825280602002602001820160405280156110ab5781602001602082028036833780820191505090505b50905060005b848110156111295760006110c36123b9565b9050808383815181106110ff577f4e487b7100000000000000000000000000000000000000000000000000000000600052603260045260246000fd5b60200260200101818152505061111587826123d4565b50808061112190613e2c565b9150506110b1565b508092505050600160008190555092915050565b6000600960009054906101000a900473ffffffffffffffffffffffffffffffffffffffff1673ffffffffffffffffffffffffffffffffffffffff163373ffffffffffffffffffffffffffffffffffffffff16146111c6576040517f82b4290000000000000000000000000000000000000000000000000000000000815260040160405180910390fd5b60006111d06123b9565b90506111dc85826123d4565b600084849050111561120c57838360176000848152602001908152602001600020919061120a929190612f98565b505b809150509392505050565b600280600001805461122890613dc9565b80601f016020809104026020016040519081016040528092919081815260200182805461125490613dc9565b80156112a15780601f10611276576101008083540402835291602001916112a1565b820191906000526020600020905b81548152906001019060200180831161128457829003601f168201915b505050505090806001016040518060400160405290816000820160009054906101000a900473ffffffffffffffffffffffffffffffffffffffff1673ffffffffffffffffffffffffffffffffffffffff1673ffffffffffffffffffffffffffffffffffffffff16815260200160018201805461131c90613dc9565b80601f016020809104026020016040519081016040528092919081815260200182805461134890613dc9565b80156113955780601f1061136a57610100808354040283529160200191611395565b820191906000526020600020905b81548152906001019060200180831161137857829003601f168201915b505050505081525050908060030180546113ae90613dc9565b80601f01602080910402602001604051908101604052809291908181526020018280546113da90613dc9565b80156114275780601f106113fc57610100808354040283529160200191611427565b820191906000526020600020905b81548152906001019060200180831161140a57829003601f168201915b5050505050908060040160009054906101000a900467ffffffffffffffff169080600501805461145690613dc9565b80601f016020809104026020016040519081016040528092919081815260200182805461148290613dc9565b80156114cf5780601f106114a4576101008083540402835291602001916114cf565b820191906000526020600020905b8154815290600101906020018083116114b257829003601f168201915b5050505050905085565b600960009054906101000a900473ffffffffffffffffffffffffffffffffffffffff1673ffffffffffffffffffffffffffffffffffffffff163373ffffffffffffffffffffffffffffffffffffffff1614611560576040517f82b4290000000000000000000000000000000000000000000000000000000000815260040160405180910390fd5b60004790503373ffffffffffffffffffffffffffffffffffffffff166108fc829081150290604051600060405180830381858888f193505050501580156115ab573d6000803e3d6000fd5b5050565b600960009054906101000a900473ffffffffffffffffffffffffffffffffffffffff1673ffffffffffffffffffffffffffffffffffffffff163373ffffffffffffffffffffffffffffffffffffffff1614611636576040517f82b4290000000000000000000000000000000000000000000000000000000000815260040160405180910390fd5b60011515600e60019054906101000a900460ff16151514156116745780600f60030160006101000a81548160ff02191690831515021790555061168f565b80600e60006101000a81548160ff0219169083151502179055505b50565b6116ad83838360405180602001604052806000815250611ee0565b505050565b600960009054906101000a900473ffffffffffffffffffffffffffffffffffffffff1673ffffffffffffffffffffffffffffffffffffffff163373ffffffffffffffffffffffffffffffffffffffff1614611739576040517f82b4290000000000000000000000000000000000000000000000000000000000815260040160405180910390fd5b60008173ffffffffffffffffffffffffffffffffffffffff166370a08231306040518263ffffffff1660e01b8152600401611774919061388c565b60206040518083038186803b15801561178c57600080fd5b505afa1580156117a0573d6000803e3d6000fd5b505050506040513d601f19601f820116820180604052508101906117c491906135b2565b90508173ffffffffffffffffffffffffffffffffffffffff1663a9059cbb33836040518363ffffffff1660e01b81526004016118019291906138f3565b602060405180830381600087803b15801561181b57600080fd5b505af115801561182f573d6000803e3d6000fd5b505050506040513d601f19601f820116820180604052508101906118539190613425565b505050565b600960009054906101000a900473ffffffffffffffffffffffffffffffffffffffff1673ffffffffffffffffffffffffffffffffffffffff163373ffffffffffffffffffffffffffffffffffffffff16146118df576040517f82b4290000000000000000000000000000000000000000000000000000000000815260040160405180910390fd5b82600f6000018190555081600f6001018190555080600f600201819055506001600e60016101000a81548160ff021916908315150217905550505050565b600960009054906101000a900473ffffffffffffffffffffffffffffffffffffffff1673ffffffffffffffffffffffffffffffffffffffff163373ffffffffffffffffffffffffffffffffffffffff16146119a4576040517f82b4290000000000000000000000000000000000000000000000000000000000815260040160405180910390fd5b80600d90805190602001906119ba929190612f12565b5050565b6000806013600084815260200190815260200160002060009054906101000a900473ffffffffffffffffffffffffffffffffffffffff169050600073ffffffffffffffffffffffffffffffffffffffff168173ffffffffffffffffffffffffffffffffffffffff161415611a5e576040517f3f6cc76800000000000000000000000000000000000000000000000000000000815260040160405180910390fd5b80915050919050565b600060026000541415611aaf576040517f08c379a0000000000000000000000000000000000000000000000000000000008152600401611aa690613a25565b60405180910390fd5b60026000819055506001801515600e60019054906101000a900460ff1615151415611c3b5760001515600f60030160009054906101000a900460ff1615151415611b25576040517f15b1bdcd00000000000000000000000000000000000000000000000000000000815260040160405180910390fd5b600f60010154611b35600a6126dc565b1180611b595750600f6001015481611b4d600a6126dc565b611b579190613bb9565b115b15611b90576040517f8a164f6300000000000000000000000000000000000000000000000000000000815260040160405180910390fd5b80600f60000154611ba19190613c40565b8134611bad9190613c40565b14611be4576040517ff4d678b800000000000000000000000000000000000000000000000000000000815260040160405180910390fd5b600f6002015481611bf433611ccc565b611bfe9190613bb9565b1115611c36576040517fecdd05c000000000000000000000000000000000000000000000000000000000815260040160405180910390fd5b611ca4565b60001515600e60009054906101000a900460ff1615151415611c89576040517f15b1bdcd00000000000000000000000000000000000000000000000000000000815260040160405180910390fd5b6000611c936123b9565b9050611c9f84826123d4565b809250505b6000611cae6123b9565b9050611cba84826123d4565b80925050506001600081905550919050565b60008073ffffffffffffffffffffffffffffffffffffffff168273ffffffffffffffffffffffffffffffffffffffff161415611d34576040517fd92e233d00000000000000000000000000000000000000000000000000000000815260040160405180910390fd5b601460008373ffffffffffffffffffffffffffffffffffffffff1673ffffffffffffffffffffffffffffffffffffffff168152602001908152602001600020549050919050565b6060600d8054611d8a90613dc9565b80601f0160208091040260200160405190810160405280929190818152602001828054611db690613dc9565b8015611e035780601f10611dd857610100808354040283529160200191611e03565b820191906000526020600020905b815481529060010190602001808311611de657829003601f168201915b5050505050905090565b6060600c8054611e1c90613dc9565b80601f0160208091040260200160405190810160405280929190818152602001828054611e4890613dc9565b8015611e955780601f10611e6a57610100808354040283529160200191611e95565b820191906000526020600020905b815481529060010190602001808311611e7857829003601f168201915b5050505050905090565b600f8060000154908060010154908060020154908060030160009054906101000a900460ff16905084565b611edc611ed56122f8565b83836126ea565b5050565b611ef1611eeb6122f8565b836123f2565b611f27576040517f82b4290000000000000000000000000000000000000000000000000000000000815260040160405180910390fd5b611f33848484846128b5565b50505050565b6060611f44826122b6565b600e60019054906101000a900460ff16612038576000601760008481526020019081526020016000208054611f7890613dc9565b905011611f945760405180602001604052806000815250612031565b601760008381526020019081526020016000208054611fb290613dc9565b80601f0160208091040260200160405190810160405280929190818152602001828054611fde90613dc9565b801561202b5780601f106120005761010080835404028352916020019161202b565b820191906000526020600020905b81548152906001019060200180831161200e57829003601f168201915b50505050505b9050612091565b6000612042612908565b90506000815111612062576040518060200160405280600081525061208d565b8061206c8461291f565b60405160200161207d929190613868565b6040516020818303038152906040525b9150505b919050565b7f000000000000000000000000000000000000000000000000000000000000000081565b600a8060000154905081565b6000601660008473ffffffffffffffffffffffffffffffffffffffff1673ffffffffffffffffffffffffffffffffffffffff16815260200190815260200160002060008373ffffffffffffffffffffffffffffffffffffffff1673ffffffffffffffffffffffffffffffffffffffff16815260200190815260200160002060009054906101000a900460ff16905092915050565b60007f01ffc9a7000000000000000000000000000000000000000000000000000000007bffffffffffffffffffffffffffffffffffffffffffffffffffffffff1916827bffffffffffffffffffffffffffffffffffffffffffffffffffffffff1916149050919050565b600060018054906101000a900460ff161561223a5760018260ff161480156121f257506121f030612acc565b155b612231576040517f08c379a000000000000000000000000000000000000000000000000000000000815260040161222890613a05565b60405180910390fd5b600090506122b1565b8160ff16600160009054906101000a900460ff1660ff1610612291576040517f08c379a000000000000000000000000000000000000000000000000000000000815260040161228890613a05565b60405180910390fd5b81600160006101000a81548160ff021916908360ff160217905550600190505b919050565b6122bf81612adf565b6122f5576040517f3f6cc76800000000000000000000000000000000000000000000000000000000815260040160405180910390fd5b50565b600033905090565b816015600083815260200190815260200160002060006101000a81548173ffffffffffffffffffffffffffffffffffffffff021916908373ffffffffffffffffffffffffffffffffffffffff160217905550808273ffffffffffffffffffffffffffffffffffffffff16612373836119be565b73ffffffffffffffffffffffffffffffffffffffff167f8c5be1e5ebec7d5bd14f71427d1e84f3dd0314c0f7b2291e5b200ac8c7c3b92560405160405180910390a45050565b60006123c5600a612b4b565b6123cf600a6126dc565b905090565b6123ee828260405180602001604052806000815250612b61565b5050565b6000806123fe836119be565b90508073ffffffffffffffffffffffffffffffffffffffff168473ffffffffffffffffffffffffffffffffffffffff161480612440575061243f81856120c6565b5b8061247e57508373ffffffffffffffffffffffffffffffffffffffff1661246684610a50565b73ffffffffffffffffffffffffffffffffffffffff16145b91505092915050565b8273ffffffffffffffffffffffffffffffffffffffff166124a7826119be565b73ffffffffffffffffffffffffffffffffffffffff16146124f4576040517f3a6bbed300000000000000000000000000000000000000000000000000000000815260040160405180910390fd5b600073ffffffffffffffffffffffffffffffffffffffff168273ffffffffffffffffffffffffffffffffffffffff16141561255b576040517fd92e233d00000000000000000000000000000000000000000000000000000000815260040160405180910390fd5b612566838383612bb3565b612571600082612300565b6001601460008573ffffffffffffffffffffffffffffffffffffffff1673ffffffffffffffffffffffffffffffffffffffff16815260200190815260200160002060008282546125c19190613c9a565b925050819055506001601460008473ffffffffffffffffffffffffffffffffffffffff1673ffffffffffffffffffffffffffffffffffffffff16815260200190815260200160002060008282546126189190613bb9565b92505081905550816013600083815260200190815260200160002060006101000a81548173ffffffffffffffffffffffffffffffffffffffff021916908373ffffffffffffffffffffffffffffffffffffffff160217905550808273ffffffffffffffffffffffffffffffffffffffff168473ffffffffffffffffffffffffffffffffffffffff167fddf252ad1be2c89b69c2b068fc378daa952ba7f163c4a11628f55a4df523b3ef60405160405180910390a46126d7838383612bb8565b505050565b600081600001549050919050565b600073ffffffffffffffffffffffffffffffffffffffff168273ffffffffffffffffffffffffffffffffffffffff161415612751576040517fd92e233d00000000000000000000000000000000000000000000000000000000815260040160405180910390fd5b8173ffffffffffffffffffffffffffffffffffffffff168373ffffffffffffffffffffffffffffffffffffffff1614156127b7576040517ff4b33eeb00000000000000000000000000000000000000000000000000000000815260040160405180910390fd5b80601660008573ffffffffffffffffffffffffffffffffffffffff1673ffffffffffffffffffffffffffffffffffffffff16815260200190815260200160002060008473ffffffffffffffffffffffffffffffffffffffff1673ffffffffffffffffffffffffffffffffffffffff16815260200190815260200160002060006101000a81548160ff0219169083151502179055508173ffffffffffffffffffffffffffffffffffffffff168373ffffffffffffffffffffffffffffffffffffffff167f17307eab39ab6107e8899845ad3d59bd9653f200f220920489ca2b5937696c31836040516128a8919061393e565b60405180910390a3505050565b6128c0848484612487565b6128cc84848484612bbd565b612902576040517f44ccafd600000000000000000000000000000000000000000000000000000000815260040160405180910390fd5b50505050565b606060405180602001604052806000815250905090565b60606000821415612967576040518060400160405280600181526020017f30000000000000000000000000000000000000000000000000000000000000008152509050612ac7565b600082905060005b6000821461299957808061298290613e2c565b915050600a826129929190613c0f565b915061296f565b60008167ffffffffffffffff8111156129db577f4e487b7100000000000000000000000000000000000000000000000000000000600052604160045260246000fd5b6040519080825280601f01601f191660200182016040528015612a0d5781602001600182028036833780820191505090505b5090505b60008514612ac057600182612a269190613c9a565b9150600a85612a359190613e75565b6030612a419190613bb9565b60f81b818381518110612a7d577f4e487b7100000000000000000000000000000000000000000000000000000000600052603260045260246000fd5b60200101907effffffffffffffffffffffffffffffffffffffffffffffffffffffffffffff1916908160001a905350600a85612ab99190613c0f565b9450612a11565b8093505050505b919050565b600080823b905060008111915050919050565b60008073ffffffffffffffffffffffffffffffffffffffff166013600084815260200190815260200160002060009054906101000a900473ffffffffffffffffffffffffffffffffffffffff1673ffffffffffffffffffffffffffffffffffffffff1614159050919050565b6001816000016000828254019250508190555050565b612b6b8383612d4b565b612b786000848484612bbd565b612bae576040517f44ccafd600000000000000000000000000000000000000000000000000000000815260040160405180910390fd5b505050565b505050565b505050565b6000612bde8473ffffffffffffffffffffffffffffffffffffffff16612acc565b15612d3e578373ffffffffffffffffffffffffffffffffffffffff1663150b7a02612c076122f8565b8786866040518563ffffffff1660e01b8152600401612c2994939291906138a7565b602060405180830381600087803b158015612c4357600080fd5b505af1925050508015612c7457506040513d601f19601f82011682018060405250810190612c719190613477565b60015b612cee573d8060008114612ca4576040519150601f19603f3d011682016040523d82523d6000602084013e612ca9565b606091505b50600081511415612ce6576040517f44ccafd600000000000000000000000000000000000000000000000000000000815260040160405180910390fd5b805181602001fd5b63150b7a0260e01b7bffffffffffffffffffffffffffffffffffffffffffffffffffffffff1916817bffffffffffffffffffffffffffffffffffffffffffffffffffffffff191614915050612d43565b600190505b949350505050565b600073ffffffffffffffffffffffffffffffffffffffff168273ffffffffffffffffffffffffffffffffffffffff161415612db2576040517fd92e233d00000000000000000000000000000000000000000000000000000000815260040160405180910390fd5b612dbb81612adf565b15612df1576040517ea5a1f500000000000000000000000000000000000000000000000000000000815260040160405180910390fd5b612dfd60008383612bb3565b6001601460008473ffffffffffffffffffffffffffffffffffffffff1673ffffffffffffffffffffffffffffffffffffffff1681526020019081526020016000206000828254612e4d9190613bb9565b92505081905550816013600083815260200190815260200160002060006101000a81548173ffffffffffffffffffffffffffffffffffffffff021916908373ffffffffffffffffffffffffffffffffffffffff160217905550808273ffffffffffffffffffffffffffffffffffffffff16600073ffffffffffffffffffffffffffffffffffffffff167fddf252ad1be2c89b69c2b068fc378daa952ba7f163c4a11628f55a4df523b3ef60405160405180910390a4612f0e60008383612bb8565b5050565b828054612f1e90613dc9565b90600052602060002090601f016020900481019282612f405760008555612f87565b82601f10612f5957805160ff1916838001178555612f87565b82800160010185558215612f87579182015b82811115612f86578251825591602001919060010190612f6b565b5b509050612f94919061301e565b5090565b828054612fa490613dc9565b90600052602060002090601f016020900481019282612fc6576000855561300d565b82601f10612fdf57803560ff191683800117855561300d565b8280016001018555821561300d579182015b8281111561300c578235825591602001919060010190612ff1565b5b50905061301a919061301e565b5090565b5b8082111561303757600081600090555060010161301f565b5090565b600061304e61304984613aca565b613aa5565b90508281526020810184848401111561306657600080fd5b613071848285613d87565b509392505050565b600061308c61308784613afb565b613aa5565b9050828152602081018484840111156130a457600080fd5b6130af848285613d87565b509392505050565b6000813590506130c681613feb565b92915050565b6000813590506130db81614002565b92915050565b6000815190506130f081614002565b92915050565b60008135905061310581614019565b92915050565b60008151905061311a81614019565b92915050565b600082601f83011261313157600080fd5b813561314184826020860161303b565b91505092915050565b60008135905061315981614030565b92915050565b60008083601f84011261317157600080fd5b8235905067ffffffffffffffff81111561318a57600080fd5b6020830191508360018202830111156131a257600080fd5b9250929050565b600082601f8301126131ba57600080fd5b81356131ca848260208601613079565b91505092915050565b6000813590506131e281614047565b92915050565b6000815190506131f781614047565b92915050565b60006020828403121561320f57600080fd5b600061321d848285016130b7565b91505092915050565b6000806040838503121561323957600080fd5b6000613247858286016130b7565b9250506020613258858286016130b7565b9150509250929050565b60008060006060848603121561327757600080fd5b6000613285868287016130b7565b9350506020613296868287016130b7565b92505060406132a7868287016131d3565b9150509250925092565b600080600080608085870312156132c757600080fd5b60006132d5878288016130b7565b94505060206132e6878288016130b7565b93505060406132f7878288016131d3565b925050606085013567ffffffffffffffff81111561331457600080fd5b61332087828801613120565b91505092959194509250565b6000806040838503121561333f57600080fd5b600061334d858286016130b7565b925050602061335e858286016130cc565b9150509250929050565b60008060006040848603121561337d57600080fd5b600061338b868287016130b7565b935050602084013567ffffffffffffffff8111156133a857600080fd5b6133b48682870161315f565b92509250509250925092565b600080604083850312156133d357600080fd5b60006133e1858286016130b7565b92505060206133f2858286016131d3565b9150509250929050565b60006020828403121561340e57600080fd5b600061341c848285016130cc565b91505092915050565b60006020828403121561343757600080fd5b6000613445848285016130e1565b91505092915050565b60006020828403121561346057600080fd5b600061346e848285016130f6565b91505092915050565b60006020828403121561348957600080fd5b60006134978482850161310b565b91505092915050565b6000602082840312156134b257600080fd5b60006134c08482850161314a565b91505092915050565b6000602082840312156134db57600080fd5b600082013567ffffffffffffffff8111156134f557600080fd5b613501848285016131a9565b91505092915050565b60008060006060848603121561351f57600080fd5b600084013567ffffffffffffffff81111561353957600080fd5b613545868287016131a9565b935050602084013567ffffffffffffffff81111561356257600080fd5b61356e868287016131a9565b925050604061357f868287016130b7565b9150509250925092565b60006020828403121561359b57600080fd5b60006135a9848285016131d3565b91505092915050565b6000602082840312156135c457600080fd5b60006135d2848285016131e8565b91505092915050565b6000806000606084860312156135f057600080fd5b60006135fe868287016131d3565b935050602061360f868287016131d3565b9250506040613620868287016131d3565b9150509250925092565b6000613636838361383b565b60208301905092915050565b61364b81613cce565b82525050565b61365a81613cce565b82525050565b600061366b82613b3c565b6136758185613b6a565b935061368083613b2c565b8060005b838110156136b1578151613698888261362a565b97506136a383613b5d565b925050600181019050613684565b5085935050505092915050565b6136c781613ce0565b82525050565b60006136d882613b47565b6136e28185613b7b565b93506136f2818560208601613d96565b6136fb81613f62565b840191505092915050565b61370f81613d75565b82525050565b600061372082613b52565b61372a8185613b8c565b935061373a818560208601613d96565b61374381613f62565b840191505092915050565b600061375982613b52565b6137638185613b9d565b9350613773818560208601613d96565b61377c81613f62565b840191505092915050565b600061379282613b52565b61379c8185613bae565b93506137ac818560208601613d96565b80840191505092915050565b60006137c5602e83613b9d565b91506137d082613f73565b604082019050919050565b60006137e8601f83613b9d565b91506137f382613fc2565b602082019050919050565b60006040830160008301516138166000860182613642565b506020830151848203602086015261382e8282613715565b9150508091505092915050565b61384481613d4a565b82525050565b61385381613d4a565b82525050565b61386281613d54565b82525050565b60006138748285613787565b91506138808284613787565b91508190509392505050565b60006020820190506138a16000830184613651565b92915050565b60006080820190506138bc6000830187613651565b6138c96020830186613651565b6138d6604083018561384a565b81810360608301526138e881846136cd565b905095945050505050565b60006040820190506139086000830185613651565b613915602083018461384a565b9392505050565b600060208201905081810360008301526139368184613660565b905092915050565b600060208201905061395360008301846136be565b92915050565b600060a082019050818103600083015261397381886136cd565b9050818103602083015261398781876137fe565b9050818103604083015261399b81866136cd565b90506139aa6060830185613859565b81810360808301526139bc81846136cd565b90509695505050505050565b60006020820190506139dd6000830184613706565b92915050565b600060208201905081810360008301526139fd818461374e565b905092915050565b60006020820190508181036000830152613a1e816137b8565b9050919050565b60006020820190508181036000830152613a3e816137db565b9050919050565b6000602082019050613a5a600083018461384a565b92915050565b6000608082019050613a75600083018761384a565b613a82602083018661384a565b613a8f604083018561384a565b613a9c60608301846136be565b95945050505050565b6000613aaf613ac0565b9050613abb8282613dfb565b919050565b6000604051905090565b600067ffffffffffffffff821115613ae557613ae4613f33565b5b613aee82613f62565b9050602081019050919050565b600067ffffffffffffffff821115613b1657613b15613f33565b5b613b1f82613f62565b9050602081019050919050565b6000819050602082019050919050565b600081519050919050565b600081519050919050565b600081519050919050565b6000602082019050919050565b600082825260208201905092915050565b600082825260208201905092915050565b600082825260208201905092915050565b600082825260208201905092915050565b600081905092915050565b6000613bc482613d4a565b9150613bcf83613d4a565b9250827fffffffffffffffffffffffffffffffffffffffffffffffffffffffffffffffff03821115613c0457613c03613ea6565b5b828201905092915050565b6000613c1a82613d4a565b9150613c2583613d4a565b925082613c3557613c34613ed5565b5b828204905092915050565b6000613c4b82613d4a565b9150613c5683613d4a565b9250817fffffffffffffffffffffffffffffffffffffffffffffffffffffffffffffffff0483118215151615613c8f57613c8e613ea6565b5b828202905092915050565b6000613ca582613d4a565b9150613cb083613d4a565b925082821015613cc357613cc2613ea6565b5b828203905092915050565b6000613cd982613d2a565b9050919050565b60008115159050919050565b60007fffffffff0000000000000000000000000000000000000000000000000000000082169050919050565b6000613d2382613cce565b9050919050565b600073ffffffffffffffffffffffffffffffffffffffff82169050919050565b6000819050919050565b600067ffffffffffffffff82169050919050565b600060ff82169050919050565b6000613d8082613d68565b9050919050565b82818337600083830152505050565b60005b83811015613db4578082015181840152602081019050613d99565b83811115613dc3576000848401525b50505050565b60006002820490506001821680613de157607f821691505b60208210811415613df557613df4613f04565b5b50919050565b613e0482613f62565b810181811067ffffffffffffffff82111715613e2357613e22613f33565b5b80604052505050565b6000613e3782613d4a565b91507fffffffffffffffffffffffffffffffffffffffffffffffffffffffffffffffff821415613e6a57613e69613ea6565b5b600182019050919050565b6000613e8082613d4a565b9150613e8b83613d4a565b925082613e9b57613e9a613ed5565b5b828206905092915050565b7f4e487b7100000000000000000000000000000000000000000000000000000000600052601160045260246000fd5b7f4e487b7100000000000000000000000000000000000000000000000000000000600052601260045260246000fd5b7f4e487b7100000000000000000000000000000000000000000000000000000000600052602260045260246000fd5b7f4e487b7100000000000000000000000000000000000000000000000000000000600052604160045260246000fd5b6000601f19601f8301169050919050565b7f496e697469616c697a61626c653a20636f6e747261637420697320616c72656160008201527f647920696e697469616c697a6564000000000000000000000000000000000000602082015250565b7f5265656e7472616e637947756172643a207265656e7472616e742063616c6c00600082015250565b613ff481613cce565b8114613fff57600080fd5b50565b61400b81613ce0565b811461401657600080fd5b50565b61402281613cec565b811461402d57600080fd5b50565b61403981613d18565b811461404457600080fd5b50565b61405081613d4a565b811461405b57600080fd5b5056fea2646970667358221220794802aa71c410f7d533d0ddd6f05e9fcfa1fbea3c56c6a5889cf72d3dc4926764736f6c63430008040033",
  "linkReferences": {},
  "deployedLinkReferences": {}
}