{
  "_format": "hh-sol-artifact-1",
  "contractName": "ERC721",
  "sourceName": "contracts/ERC721.sol",
  "abi": [
    {
      "inputs": [
        {
          "internalType": "address",
          "name": "_owner",
          "type": "address"
        }
      ],
      "stateMutability": "nonpayable",
      "type": "constructor"
    },
    {
      "inputs": [],
      "name": "AlreadyInitialized",
      "type": "error"
    },
    {
      "inputs": [],
      "name": "CollectionLocked",
      "type": "error"
    },
    {
      "inputs": [],
      "name": "IncorrectOwner",
      "type": "error"
    },
    {
      "inputs": [],
      "name": "InsufficientAllowance",
      "type": "error"
    },
    {
      "inputs": [],
      "name": "InsufficientBalance",
      "type": "error"
    },
    {
      "inputs": [],
      "name": "InvalidTokenId",
      "type": "error"
    },
    {
      "inputs": [],
      "name": "MaxPerUserExceeded",
      "type": "error"
    },
    {
      "inputs": [],
      "name": "MaxSupplyExceeded",
      "type": "error"
    },
    {
      "inputs": [],
      "name": "MissingERC721Receiver",
      "type": "error"
    },
    {
      "inputs": [],
      "name": "NotACollection",
      "type": "error"
    },
    {
      "inputs": [],
      "name": "PublicMintInactive",
      "type": "error"
    },
    {
      "inputs": [],
      "name": "SameAddress",
      "type": "error"
    },
    {
      "inputs": [],
      "name": "SameOwnerAndOperator",
      "type": "error"
    },
    {
      "inputs": [],
      "name": "TokenAlreadyMinted",
      "type": "error"
    },
    {
      "inputs": [],
      "name": "Unauthorized",
      "type": "error"
    },
    {
      "inputs": [],
      "name": "ZeroAddress",
      "type": "error"
    },
    {
      "anonymous": false,
      "inputs": [
        {
          "indexed": true,
          "internalType": "address",
          "name": "owner",
          "type": "address"
        },
        {
          "indexed": true,
          "internalType": "address",
          "name": "approved",
          "type": "address"
        },
        {
          "indexed": true,
          "internalType": "uint256",
          "name": "tokenId",
          "type": "uint256"
        }
      ],
      "name": "Approval",
      "type": "event"
    },
    {
      "anonymous": false,
      "inputs": [
        {
          "indexed": true,
          "internalType": "address",
          "name": "owner",
          "type": "address"
        },
        {
          "indexed": true,
          "internalType": "address",
          "name": "operator",
          "type": "address"
        },
        {
          "indexed": false,
          "internalType": "bool",
          "name": "approved",
          "type": "bool"
        }
      ],
      "name": "ApprovalForAll",
      "type": "event"
    },
    {
      "anonymous": false,
      "inputs": [
        {
          "indexed": false,
          "internalType": "uint8",
          "name": "version",
          "type": "uint8"
        }
      ],
      "name": "Initialized",
      "type": "event"
    },
    {
      "anonymous": false,
      "inputs": [
        {
          "indexed": true,
          "internalType": "address",
          "name": "from",
          "type": "address"
        },
        {
          "indexed": true,
          "internalType": "address",
          "name": "to",
          "type": "address"
        },
        {
          "indexed": true,
          "internalType": "uint256",
          "name": "tokenId",
          "type": "uint256"
        }
      ],
      "name": "Transfer",
      "type": "event"
    },
    {
      "inputs": [],
      "name": "_tenantOwner",
      "outputs": [
        {
          "internalType": "address",
          "name": "",
          "type": "address"
        }
      ],
      "stateMutability": "view",
      "type": "function"
    },
    {
      "inputs": [
        {
          "internalType": "address",
          "name": "_to",
          "type": "address"
        },
        {
          "internalType": "uint256",
          "name": "_tokenId",
          "type": "uint256"
        }
      ],
      "name": "approve",
      "outputs": [],
      "stateMutability": "nonpayable",
      "type": "function"
    },
    {
      "inputs": [
        {
          "internalType": "address",
          "name": "_owner",
          "type": "address"
        }
      ],
      "name": "balanceOf",
      "outputs": [
        {
          "internalType": "uint256",
          "name": "",
          "type": "uint256"
        }
      ],
      "stateMutability": "view",
      "type": "function"
    },
    {
      "inputs": [
        {
          "internalType": "uint256",
          "name": "_tokenId",
          "type": "uint256"
        }
      ],
      "name": "burn",
      "outputs": [],
      "stateMutability": "nonpayable",
      "type": "function"
    },
    {
      "inputs": [],
      "name": "collectionInfo",
      "outputs": [
        {
          "internalType": "uint256",
          "name": "price",
          "type": "uint256"
        },
        {
          "internalType": "uint256",
          "name": "maxSupply",
          "type": "uint256"
        },
        {
          "internalType": "uint256",
          "name": "maxPerUser",
          "type": "uint256"
        },
        {
          "internalType": "bool",
          "name": "isPublicSaleActive",
          "type": "bool"
        }
      ],
      "stateMutability": "view",
      "type": "function"
    },
    {
      "inputs": [],
      "name": "collectionLock",
      "outputs": [
        {
          "internalType": "bool",
          "name": "",
          "type": "bool"
        }
      ],
      "stateMutability": "view",
      "type": "function"
    },
    {
      "inputs": [],
      "name": "contractOwner",
      "outputs": [
        {
          "internalType": "address",
          "name": "",
          "type": "address"
        }
      ],
      "stateMutability": "view",
      "type": "function"
    },
    {
      "inputs": [
        {
          "internalType": "uint256",
          "name": "_tokenId",
          "type": "uint256"
        }
      ],
      "name": "getApproved",
      "outputs": [
        {
          "internalType": "address",
          "name": "",
          "type": "address"
        }
      ],
      "stateMutability": "view",
      "type": "function"
    },
    {
      "inputs": [],
      "name": "getBaseURI",
      "outputs": [
        {
          "internalType": "string",
          "name": "",
          "type": "string"
        }
      ],
      "stateMutability": "view",
      "type": "function"
    },
    {
      "inputs": [
        {
          "internalType": "string",
          "name": "name_",
          "type": "string"
        },
        {
          "internalType": "string",
          "name": "symbol_",
          "type": "string"
        },
        {
          "internalType": "address",
          "name": "tenant_",
          "type": "address"
        }
      ],
      "name": "initialize",
      "outputs": [],
      "stateMutability": "nonpayable",
      "type": "function"
    },
    {
      "inputs": [
        {
          "internalType": "uint256",
          "name": "_price",
          "type": "uint256"
        },
        {
          "internalType": "uint256",
          "name": "_maxSupply",
          "type": "uint256"
        },
        {
          "internalType": "uint256",
          "name": "_maxPerUser",
          "type": "uint256"
        },
        {
          "internalType": "bool",
          "name": "_lockCollection",
          "type": "bool"
        }
      ],
      "name": "initializeCollection",
      "outputs": [],
      "stateMutability": "nonpayable",
      "type": "function"
    },
    {
      "inputs": [
        {
          "internalType": "address",
          "name": "_owner",
          "type": "address"
        },
        {
          "internalType": "address",
          "name": "_operator",
          "type": "address"
        }
      ],
      "name": "isApprovedForAll",
      "outputs": [
        {
          "internalType": "bool",
          "name": "",
          "type": "bool"
        }
      ],
      "stateMutability": "view",
      "type": "function"
    },
    {
      "inputs": [],
      "name": "lockCollection",
      "outputs": [],
      "stateMutability": "nonpayable",
      "type": "function"
    },
    {
      "inputs": [],
      "name": "metadata",
      "outputs": [
        {
          "internalType": "bytes",
          "name": "title",
          "type": "bytes"
        },
        {
          "internalType": "address",
          "name": "author",
          "type": "address"
        },
        {
          "internalType": "bytes",
          "name": "version",
          "type": "bytes"
        },
        {
          "internalType": "uint256",
          "name": "publishedAt",
          "type": "uint256"
        },
        {
          "internalType": "bytes",
          "name": "externalLink",
          "type": "bytes"
        }
      ],
      "stateMutability": "view",
      "type": "function"
    },
    {
      "inputs": [
        {
          "internalType": "address",
          "name": "_to",
          "type": "address"
        }
      ],
      "name": "mint",
      "outputs": [
        {
          "internalType": "uint256",
          "name": "",
          "type": "uint256"
        }
      ],
      "stateMutability": "payable",
      "type": "function"
    },
    {
      "inputs": [
        {
          "internalType": "address",
          "name": "_to",
          "type": "address"
        },
        {
          "internalType": "uint256",
          "name": "_count",
          "type": "uint256"
        }
      ],
      "name": "mintBatch",
      "outputs": [
        {
          "internalType": "uint256[]",
          "name": "",
          "type": "uint256[]"
        }
      ],
      "stateMutability": "payable",
      "type": "function"
    },
    {
      "inputs": [],
      "name": "name",
      "outputs": [
        {
          "internalType": "string",
          "name": "",
          "type": "string"
        }
      ],
      "stateMutability": "view",
      "type": "function"
    },
    {
      "inputs": [
        {
          "internalType": "uint256",
          "name": "_tokenId",
          "type": "uint256"
        }
      ],
      "name": "ownerOf",
      "outputs": [
        {
          "internalType": "address",
          "name": "",
          "type": "address"
        }
      ],
      "stateMutability": "view",
      "type": "function"
    },
    {
      "inputs": [
        {
          "internalType": "address",
          "name": "_from",
          "type": "address"
        },
        {
          "internalType": "address",
          "name": "_to",
          "type": "address"
        },
        {
          "internalType": "uint256",
          "name": "_tokenId",
          "type": "uint256"
        }
      ],
      "name": "safeTransferFrom",
      "outputs": [],
      "stateMutability": "nonpayable",
      "type": "function"
    },
    {
      "inputs": [
        {
          "internalType": "address",
          "name": "_from",
          "type": "address"
        },
        {
          "internalType": "address",
          "name": "_to",
          "type": "address"
        },
        {
          "internalType": "uint256",
          "name": "_tokenId",
          "type": "uint256"
        },
        {
          "internalType": "bytes",
          "name": "_data",
          "type": "bytes"
        }
      ],
      "name": "safeTransferFrom",
      "outputs": [],
      "stateMutability": "nonpayable",
      "type": "function"
    },
    {
      "inputs": [
        {
          "internalType": "address",
          "name": "_operator",
          "type": "address"
        },
        {
          "internalType": "bool",
          "name": "_approved",
          "type": "bool"
        }
      ],
      "name": "setApprovalForAll",
      "outputs": [],
      "stateMutability": "nonpayable",
      "type": "function"
    },
    {
      "inputs": [
        {
          "internalType": "string",
          "name": "baseURI_",
          "type": "string"
        }
      ],
      "name": "setBaseURI",
      "outputs": [],
      "stateMutability": "nonpayable",
      "type": "function"
    },
    {
      "inputs": [
        {
          "internalType": "bool",
          "name": "_isActive",
          "type": "bool"
        }
      ],
      "name": "setMintPermissions",
      "outputs": [],
      "stateMutability": "nonpayable",
      "type": "function"
    },
    {
      "inputs": [
        {
          "internalType": "bytes4",
          "name": "_interfaceId",
          "type": "bytes4"
        }
      ],
      "name": "supportsInterface",
      "outputs": [
        {
          "internalType": "bool",
          "name": "",
          "type": "bool"
        }
      ],
      "stateMutability": "view",
      "type": "function"
    },
    {
      "inputs": [],
      "name": "symbol",
      "outputs": [
        {
          "internalType": "string",
          "name": "",
          "type": "string"
        }
      ],
      "stateMutability": "view",
      "type": "function"
    },
    {
      "inputs": [
        {
          "internalType": "address",
          "name": "_reciever",
          "type": "address"
        }
      ],
      "name": "tenantMint",
      "outputs": [
        {
          "internalType": "uint256",
          "name": "",
          "type": "uint256"
        }
      ],
      "stateMutability": "nonpayable",
      "type": "function"
    },
    {
      "inputs": [
        {
          "internalType": "address",
          "name": "_reciever",
          "type": "address"
        },
        {
          "internalType": "string",
          "name": "_tokenUri",
          "type": "string"
        }
      ],
      "name": "tenantMint",
      "outputs": [
        {
          "internalType": "uint256",
          "name": "",
          "type": "uint256"
        }
      ],
      "stateMutability": "nonpayable",
      "type": "function"
    },
    {
      "inputs": [],
      "name": "tokenCounter",
      "outputs": [
        {
          "internalType": "uint256",
          "name": "_value",
          "type": "uint256"
        }
      ],
      "stateMutability": "view",
      "type": "function"
    },
    {
      "inputs": [
        {
          "internalType": "uint256",
          "name": "_tokenId",
          "type": "uint256"
        }
      ],
      "name": "tokenURI",
      "outputs": [
        {
          "internalType": "string",
          "name": "",
          "type": "string"
        }
      ],
      "stateMutability": "view",
      "type": "function"
    },
    {
      "inputs": [
        {
          "internalType": "address",
          "name": "_from",
          "type": "address"
        },
        {
          "internalType": "address",
          "name": "_to",
          "type": "address"
        },
        {
          "internalType": "uint256",
          "name": "_tokenId",
          "type": "uint256"
        }
      ],
      "name": "transferFrom",
      "outputs": [],
      "stateMutability": "nonpayable",
      "type": "function"
    },
    {
      "inputs": [
        {
          "internalType": "uint256",
          "name": "_maxPerUser",
          "type": "uint256"
        }
      ],
      "name": "updateMaxPerUser",
      "outputs": [],
      "stateMutability": "nonpayable",
      "type": "function"
    },
    {
      "inputs": [
        {
          "internalType": "uint256",
          "name": "_maxSupply",
          "type": "uint256"
        }
      ],
      "name": "updateMaxSupply",
      "outputs": [],
      "stateMutability": "nonpayable",
      "type": "function"
    },
    {
      "inputs": [
        {
          "internalType": "uint256",
          "name": "_price",
          "type": "uint256"
        }
      ],
      "name": "updatePrice",
      "outputs": [],
      "stateMutability": "nonpayable",
      "type": "function"
    },
    {
      "inputs": [],
      "name": "withdraw",
      "outputs": [],
      "stateMutability": "nonpayable",
      "type": "function"
    }
  ],
  "bytecode": "0x60a06040523480156200001157600080fd5b506040516200456e3803806200456e8339818101604052810190620000379190620002d3565b60016000819055506040518060a001604052806040518060400160405280600681526020017f455243373231000000000000000000000000000000000000000000000000000081525081526020018273ffffffffffffffffffffffffffffffffffffffff1681526020016040518060400160405280600581526020017f302e302e3100000000000000000000000000000000000000000000000000000081525081526020014281526020016040518060400160405280601b81526020017f68747470733a2f2f7777772e687970657276657273652e6465762f0000000000815250815250600260008201518160000190805190602001906200013b9291906200020c565b5060208201518160010160006101000a81548173ffffffffffffffffffffffffffffffffffffffff021916908373ffffffffffffffffffffffffffffffffffffffff1602179055506040820151816002019080519060200190620001a19291906200020c565b50606082015181600301556080820151816004019080519060200190620001ca9291906200020c565b509050508073ffffffffffffffffffffffffffffffffffffffff1660808173ffffffffffffffffffffffffffffffffffffffff1660601b8152505050620003b2565b8280546200021a9062000333565b90600052602060002090601f0160209004810192826200023e57600085556200028a565b82601f106200025957805160ff19168380011785556200028a565b828001600101855582156200028a579182015b82811115620002895782518255916020019190600101906200026c565b5b5090506200029991906200029d565b5090565b5b80821115620002b85760008160009055506001016200029e565b5090565b600081519050620002cd8162000398565b92915050565b600060208284031215620002e657600080fd5b6000620002f684828501620002bc565b91505092915050565b60006200030c8262000313565b9050919050565b600073ffffffffffffffffffffffffffffffffffffffff82169050919050565b600060028204905060018216806200034c57607f821691505b6020821081141562000363576200036262000369565b5b50919050565b7f4e487b7100000000000000000000000000000000000000000000000000000000600052602260045260246000fd5b620003a381620002ff565b8114620003af57600080fd5b50565b60805160601c61419d620003d1600039600061217f015261419d6000f3fe6080604052600436106101f95760003560e01c806342966c681161010d57806395d89b41116100a0578063ce606ee01161006f578063ce606ee014610729578063d082e38114610754578063e985e9c51461077f578063f103b433146107bc578063fdd173b4146107e5576101f9565b806395d89b411461066f578063a22cb4651461069a578063b88d4fde146106c3578063c87b56dd146106ec576101f9565b80636a627842116100dc5780636a627842146105ae57806370a08231146105de578063714c53981461061b5780638d6cc56d14610646576101f9565b806342966c68146104f657806355f804b31461051f5780636352211e14610548578063694babe414610585576101f9565b806322685c721161019057806327fbceac1161015f57806327fbceac14610421578063392f37e91461045e5780633ccfd60b1461048d5780633e2b81c4146104a457806342842e0e146104cd576101f9565b806322685c721461037457806323b872dd1461039f578063248b71fc146103c857806324963c96146103f8576101f9565b8063095ea7b3116101cc578063095ea7b3146102cc5780630b8eb2cf146102f55780630ee83a7114610320578063217cc2b414610337576101f9565b806301ffc9a7146101fe57806306fdde031461023b578063077f224a14610266578063081812fc1461028f575b600080fd5b34801561020a57600080fd5b50610225600480360381019061022091906136a7565b610813565b6040516102329190613a9c565b60405180910390f35b34801561024757600080fd5b506102506108f5565b60405161025d9190613b3a565b60405180910390f35b34801561027257600080fd5b5061028d6004803603810190610288919061373a565b610987565b005b34801561029b57600080fd5b506102b660048036038101906102b191906137b9565b610b0e565b6040516102c39190613a13565b60405180910390f35b3480156102d857600080fd5b506102f360048036038101906102ee9190613642565b610b54565b005b34801561030157600080fd5b5061030a610c5d565b6040516103179190613a13565b60405180910390f35b34801561032c57600080fd5b50610335610c83565b005b34801561034357600080fd5b5061035e6004803603810190610359919061347f565b610d75565b60405161036b9190613b9c565b60405180910390f35b34801561038057600080fd5b50610389610e6b565b6040516103969190613a9c565b60405180910390f35b3480156103ab57600080fd5b506103c660048036038101906103c191906134e4565b610e7e565b005b6103e260048036038101906103dd9190613642565b610ed5565b6040516103ef9190613a7a565b60405180910390f35b34801561040457600080fd5b5061041f600480360381019061041a91906137e2565b6111f1565b005b34801561042d57600080fd5b50610448600480360381019061044391906135ea565b61131f565b6040516104559190613b9c565b60405180910390f35b34801561046a57600080fd5b506104736113f9565b604051610484959493929190613ab7565b60405180910390f35b34801561049957600080fd5b506104a26115d5565b005b3480156104b057600080fd5b506104cb60048036038101906104c6919061367e565b6116ab565b005b3480156104d957600080fd5b506104f460048036038101906104ef91906134e4565b6117a0565b005b34801561050257600080fd5b5061051d600480360381019061051891906137b9565b6117c0565b005b34801561052b57600080fd5b50610546600480360381019061054191906136f9565b61183f565b005b34801561055457600080fd5b5061056f600480360381019061056a91906137b9565b6118e0565b60405161057c9190613a13565b60405180910390f35b34801561059157600080fd5b506105ac60048036038101906105a791906137b9565b611989565b005b6105c860048036038101906105c3919061347f565b611a6b565b6040516105d59190613b9c565b60405180910390f35b3480156105ea57600080fd5b506106056004803603810190610600919061347f565b611cfc565b6040516106129190613b9c565b60405180910390f35b34801561062757600080fd5b50610630611dab565b60405161063d9190613b3a565b60405180910390f35b34801561065257600080fd5b5061066d600480360381019061066891906137b9565b611e3d565b005b34801561067b57600080fd5b50610684611f1f565b6040516106919190613b3a565b60405180910390f35b3480156106a657600080fd5b506106c160048036038101906106bc91906135ae565b611fb1565b005b3480156106cf57600080fd5b506106ea60048036038101906106e59190613533565b611fc7565b005b3480156106f857600080fd5b50610713600480360381019061070e91906137b9565b612020565b6040516107209190613b3a565b60405180910390f35b34801561073557600080fd5b5061073e61217d565b60405161074b9190613a13565b60405180910390f35b34801561076057600080fd5b506107696121a1565b6040516107769190613b9c565b60405180910390f35b34801561078b57600080fd5b506107a660048036038101906107a191906134a8565b6121ad565b6040516107b39190613a9c565b60405180910390f35b3480156107c857600080fd5b506107e360048036038101906107de91906137b9565b612241565b005b3480156107f157600080fd5b506107fa612323565b60405161080a9493929190613bb7565b60405180910390f35b60007f80ac58cd000000000000000000000000000000000000000000000000000000007bffffffffffffffffffffffffffffffffffffffffffffffffffffffff1916827bffffffffffffffffffffffffffffffffffffffffffffffffffffffff191614806108de57507f5b5e139f000000000000000000000000000000000000000000000000000000007bffffffffffffffffffffffffffffffffffffffffffffffffffffffff1916827bffffffffffffffffffffffffffffffffffffffffffffffffffffffff1916145b806108ee57506108ed8261234e565b5b9050919050565b6060600a805461090490613ee9565b80601f016020809104026020016040519081016040528092919081815260200182805461093090613ee9565b801561097d5780601f106109525761010080835404028352916020019161097d565b820191906000526020600020905b81548152906001019060200180831161096057829003601f168201915b5050505050905090565b600061099360016123b8565b905080156109b65760018060016101000a81548160ff0219169083151502179055505b81600073ffffffffffffffffffffffffffffffffffffffff16600860009054906101000a900473ffffffffffffffffffffffffffffffffffffffff1673ffffffffffffffffffffffffffffffffffffffff1614610a3f576040517f0dc149f000000000000000000000000000000000000000000000000000000000815260040160405180910390fd5b84600a9080519060200190610a559291906131d3565b5083600b9080519060200190610a6c9291906131d3565b5082600860006101000a81548173ffffffffffffffffffffffffffffffffffffffff021916908373ffffffffffffffffffffffffffffffffffffffff160217905550508015610b085760006001806101000a81548160ff0219169083151502179055507f7f26b83ff96e1f2b6a682f133852f6798a09c465da95921460cefb38474024986001604051610aff9190613b1f565b60405180910390a15b50505050565b6000610b19826124aa565b6014600083815260200190815260200160002060009054906101000a900473ffffffffffffffffffffffffffffffffffffffff169050919050565b6000610b5f826118e0565b90508273ffffffffffffffffffffffffffffffffffffffff168173ffffffffffffffffffffffffffffffffffffffff161415610bc7576040517f367558c300000000000000000000000000000000000000000000000000000000815260040160405180910390fd5b8073ffffffffffffffffffffffffffffffffffffffff16610be66124ec565b73ffffffffffffffffffffffffffffffffffffffff16141580610c175750610c1581610c106124ec565b6121ad565b155b15610c4e576040517f82b4290000000000000000000000000000000000000000000000000000000000815260040160405180910390fd5b610c5883836124f4565b505050565b600860009054906101000a900473ffffffffffffffffffffffffffffffffffffffff1681565b600860009054906101000a900473ffffffffffffffffffffffffffffffffffffffff1673ffffffffffffffffffffffffffffffffffffffff163373ffffffffffffffffffffffffffffffffffffffff1614610d0a576040517f82b4290000000000000000000000000000000000000000000000000000000000815260040160405180910390fd5b60011515600d60019054906101000a900460ff1615151415610d58576040517f1bd131c300000000000000000000000000000000000000000000000000000000815260040160405180910390fd5b6001600d60016101000a81548160ff021916908315150217905550565b6000600860009054906101000a900473ffffffffffffffffffffffffffffffffffffffff1673ffffffffffffffffffffffffffffffffffffffff163373ffffffffffffffffffffffffffffffffffffffff1614610dfe576040517f82b4290000000000000000000000000000000000000000000000000000000000815260040160405180910390fd5b60001515600d60009054906101000a900460ff1615151415610e4c576040517fdbc28d8300000000000000000000000000000000000000000000000000000000815260040160405180910390fd5b6000610e566125ad565b9050610e6283826125c8565b80915050919050565b600d60019054906101000a900460ff1681565b610e8f610e896124ec565b826125e6565b610ec5576040517f82b4290000000000000000000000000000000000000000000000000000000000815260040160405180910390fd5b610ed083838361267b565b505050565b606060026000541415610f1d576040517f08c379a0000000000000000000000000000000000000000000000000000000008152600401610f1490613b7c565b60405180910390fd5b60026000819055508160001515600e60030160009054906101000a900460ff1615151415610f77576040517f15b1bdcd00000000000000000000000000000000000000000000000000000000815260040160405180910390fd5b600e60010154610f8760096128ba565b1180610fab5750600e6001015481610f9f60096128ba565b610fa99190613cff565b115b15610fe2576040517f8a164f6300000000000000000000000000000000000000000000000000000000815260040160405180910390fd5b80600e60000154610ff39190613d86565b8134610fff9190613d86565b14611036576040517ff4d678b800000000000000000000000000000000000000000000000000000000815260040160405180910390fd5b6000600e60020154141580156110635750600e600201548161105733611cfc565b6110619190613cff565b115b1561109a576040517fecdd05c000000000000000000000000000000000000000000000000000000000815260040160405180910390fd5b6000600e600201541480156110b85750600e60010154600e60020154145b156110ef576040517fecdd05c000000000000000000000000000000000000000000000000000000000815260040160405180910390fd5b60008367ffffffffffffffff811115611131577f4e487b7100000000000000000000000000000000000000000000000000000000600052604160045260246000fd5b60405190808252806020026020018201604052801561115f5781602001602082028036833780820191505090505b50905060005b848110156111dd5760006111776125ad565b9050808383815181106111b3577f4e487b7100000000000000000000000000000000000000000000000000000000600052603260045260246000fd5b6020026020010181815250506111c987826125c8565b5080806111d590613f4c565b915050611165565b508092505050600160008190555092915050565b600860009054906101000a900473ffffffffffffffffffffffffffffffffffffffff1673ffffffffffffffffffffffffffffffffffffffff163373ffffffffffffffffffffffffffffffffffffffff1614611278576040517f82b4290000000000000000000000000000000000000000000000000000000000815260040160405180910390fd5b60011515600d60009054906101000a900460ff16151514156112c6576040517f0dc149f000000000000000000000000000000000000000000000000000000000815260040160405180910390fd5b83600e6000018190555082600e6001018190555081600e6002018190555080600d60016101000a81548160ff0219169083151502179055506001600d60006101000a81548160ff02191690831515021790555050505050565b6000600860009054906101000a900473ffffffffffffffffffffffffffffffffffffffff1673ffffffffffffffffffffffffffffffffffffffff163373ffffffffffffffffffffffffffffffffffffffff16146113a8576040517f82b4290000000000000000000000000000000000000000000000000000000000815260040160405180910390fd5b60006113b26125ad565b90506113be85826125c8565b60008484905011156113ee5783836016600084815260200190815260200160002091906113ec929190613259565b505b809150509392505050565b600280600001805461140a90613ee9565b80601f016020809104026020016040519081016040528092919081815260200182805461143690613ee9565b80156114835780601f1061145857610100808354040283529160200191611483565b820191906000526020600020905b81548152906001019060200180831161146657829003601f168201915b5050505050908060010160009054906101000a900473ffffffffffffffffffffffffffffffffffffffff16908060020180546114be90613ee9565b80601f01602080910402602001604051908101604052809291908181526020018280546114ea90613ee9565b80156115375780601f1061150c57610100808354040283529160200191611537565b820191906000526020600020905b81548152906001019060200180831161151a57829003601f168201915b50505050509080600301549080600401805461155290613ee9565b80601f016020809104026020016040519081016040528092919081815260200182805461157e90613ee9565b80156115cb5780601f106115a0576101008083540402835291602001916115cb565b820191906000526020600020905b8154815290600101906020018083116115ae57829003601f168201915b5050505050905085565b600860009054906101000a900473ffffffffffffffffffffffffffffffffffffffff1673ffffffffffffffffffffffffffffffffffffffff163373ffffffffffffffffffffffffffffffffffffffff161461165c576040517f82b4290000000000000000000000000000000000000000000000000000000000815260040160405180910390fd5b60004790503373ffffffffffffffffffffffffffffffffffffffff166108fc829081150290604051600060405180830381858888f193505050501580156116a7573d6000803e3d6000fd5b5050565b60001515600d60009054906101000a900460ff16151514156116f9576040517fdbc28d8300000000000000000000000000000000000000000000000000000000815260040160405180910390fd5b600860009054906101000a900473ffffffffffffffffffffffffffffffffffffffff1673ffffffffffffffffffffffffffffffffffffffff163373ffffffffffffffffffffffffffffffffffffffff1614611780576040517f82b4290000000000000000000000000000000000000000000000000000000000815260040160405180910390fd5b80600e60030160006101000a81548160ff02191690831515021790555050565b6117bb83838360405180602001604052806000815250611fc7565b505050565b60006117cb826118e0565b90503373ffffffffffffffffffffffffffffffffffffffff168173ffffffffffffffffffffffffffffffffffffffff1614611832576040517f82b4290000000000000000000000000000000000000000000000000000000000815260040160405180910390fd5b61183b826128c8565b5050565b600860009054906101000a900473ffffffffffffffffffffffffffffffffffffffff1673ffffffffffffffffffffffffffffffffffffffff163373ffffffffffffffffffffffffffffffffffffffff16146118c6576040517f82b4290000000000000000000000000000000000000000000000000000000000815260040160405180910390fd5b80600c90805190602001906118dc9291906131d3565b5050565b6000806012600084815260200190815260200160002060009054906101000a900473ffffffffffffffffffffffffffffffffffffffff169050600073ffffffffffffffffffffffffffffffffffffffff168173ffffffffffffffffffffffffffffffffffffffff161415611980576040517f3f6cc76800000000000000000000000000000000000000000000000000000000815260040160405180910390fd5b80915050919050565b600860009054906101000a900473ffffffffffffffffffffffffffffffffffffffff1673ffffffffffffffffffffffffffffffffffffffff163373ffffffffffffffffffffffffffffffffffffffff1614611a10576040517f82b4290000000000000000000000000000000000000000000000000000000000815260040160405180910390fd5b60011515600d60019054906101000a900460ff1615151415611a5e576040517f1bd131c300000000000000000000000000000000000000000000000000000000815260040160405180910390fd5b80600e6002018190555050565b600060026000541415611ab3576040517f08c379a0000000000000000000000000000000000000000000000000000000008152600401611aaa90613b7c565b60405180910390fd5b600260008190555060001515600d60009054906101000a900460ff1615151415611b09576040517fdbc28d8300000000000000000000000000000000000000000000000000000000815260040160405180910390fd5b600160001515600e60030160009054906101000a900460ff1615151415611b5c576040517f15b1bdcd00000000000000000000000000000000000000000000000000000000815260040160405180910390fd5b600e60010154611b6c60096128ba565b1180611b905750600e6001015481611b8460096128ba565b611b8e9190613cff565b115b15611bc7576040517f8a164f6300000000000000000000000000000000000000000000000000000000815260040160405180910390fd5b80600e60000154611bd89190613d86565b8134611be49190613d86565b14611c1b576040517ff4d678b800000000000000000000000000000000000000000000000000000000815260040160405180910390fd5b6000600e6002015414158015611c485750600e6002015481611c3c33611cfc565b611c469190613cff565b115b15611c7f576040517fecdd05c000000000000000000000000000000000000000000000000000000000815260040160405180910390fd5b6000600e60020154148015611c9d5750600e60010154600e60020154145b15611cd4576040517fecdd05c000000000000000000000000000000000000000000000000000000000815260040160405180910390fd5b6000611cde6125ad565b9050611cea84826125c8565b80925050506001600081905550919050565b60008073ffffffffffffffffffffffffffffffffffffffff168273ffffffffffffffffffffffffffffffffffffffff161415611d64576040517fd92e233d00000000000000000000000000000000000000000000000000000000815260040160405180910390fd5b601360008373ffffffffffffffffffffffffffffffffffffffff1673ffffffffffffffffffffffffffffffffffffffff168152602001908152602001600020549050919050565b6060600c8054611dba90613ee9565b80601f0160208091040260200160405190810160405280929190818152602001828054611de690613ee9565b8015611e335780601f10611e0857610100808354040283529160200191611e33565b820191906000526020600020905b815481529060010190602001808311611e1657829003601f168201915b5050505050905090565b600860009054906101000a900473ffffffffffffffffffffffffffffffffffffffff1673ffffffffffffffffffffffffffffffffffffffff163373ffffffffffffffffffffffffffffffffffffffff1614611ec4576040517f82b4290000000000000000000000000000000000000000000000000000000000815260040160405180910390fd5b60011515600d60019054906101000a900460ff1615151415611f12576040517f1bd131c300000000000000000000000000000000000000000000000000000000815260040160405180910390fd5b80600e6000018190555050565b6060600b8054611f2e90613ee9565b80601f0160208091040260200160405190810160405280929190818152602001828054611f5a90613ee9565b8015611fa75780601f10611f7c57610100808354040283529160200191611fa7565b820191906000526020600020905b815481529060010190602001808311611f8a57829003601f168201915b5050505050905090565b611fc3611fbc6124ec565b83836129cd565b5050565b611fd8611fd26124ec565b836125e6565b61200e576040517f82b4290000000000000000000000000000000000000000000000000000000000815260040160405180910390fd5b61201a84848484612b98565b50505050565b606061202b826124aa565b600d60009054906101000a900460ff1661211f57600060166000848152602001908152602001600020805461205f90613ee9565b90501161207b5760405180602001604052806000815250612118565b60166000838152602001908152602001600020805461209990613ee9565b80601f01602080910402602001604051908101604052809291908181526020018280546120c590613ee9565b80156121125780601f106120e757610100808354040283529160200191612112565b820191906000526020600020905b8154815290600101906020018083116120f557829003601f168201915b50505050505b9050612178565b6000612129612beb565b905060008151116121495760405180602001604052806000815250612174565b8061215384612c02565b6040516020016121649291906139ef565b6040516020818303038152906040525b9150505b919050565b7f000000000000000000000000000000000000000000000000000000000000000081565b60098060000154905081565b6000601560008473ffffffffffffffffffffffffffffffffffffffff1673ffffffffffffffffffffffffffffffffffffffff16815260200190815260200160002060008373ffffffffffffffffffffffffffffffffffffffff1673ffffffffffffffffffffffffffffffffffffffff16815260200190815260200160002060009054906101000a900460ff16905092915050565b600860009054906101000a900473ffffffffffffffffffffffffffffffffffffffff1673ffffffffffffffffffffffffffffffffffffffff163373ffffffffffffffffffffffffffffffffffffffff16146122c8576040517f82b4290000000000000000000000000000000000000000000000000000000000815260040160405180910390fd5b60011515600d60019054906101000a900460ff1615151415612316576040517f1bd131c300000000000000000000000000000000000000000000000000000000815260040160405180910390fd5b80600e6001018190555050565b600e8060000154908060010154908060020154908060030160009054906101000a900460ff16905084565b60007f01ffc9a7000000000000000000000000000000000000000000000000000000007bffffffffffffffffffffffffffffffffffffffffffffffffffffffff1916827bffffffffffffffffffffffffffffffffffffffffffffffffffffffff1916149050919050565b600060018054906101000a900460ff161561242e5760018260ff161480156123e657506123e430612daf565b155b612425576040517f08c379a000000000000000000000000000000000000000000000000000000000815260040161241c90613b5c565b60405180910390fd5b600090506124a5565b8160ff16600160009054906101000a900460ff1660ff1610612485576040517f08c379a000000000000000000000000000000000000000000000000000000000815260040161247c90613b5c565b60405180910390fd5b81600160006101000a81548160ff021916908360ff160217905550600190505b919050565b6124b381612dc2565b6124e9576040517f3f6cc76800000000000000000000000000000000000000000000000000000000815260040160405180910390fd5b50565b600033905090565b816014600083815260200190815260200160002060006101000a81548173ffffffffffffffffffffffffffffffffffffffff021916908373ffffffffffffffffffffffffffffffffffffffff160217905550808273ffffffffffffffffffffffffffffffffffffffff16612567836118e0565b73ffffffffffffffffffffffffffffffffffffffff167f8c5be1e5ebec7d5bd14f71427d1e84f3dd0314c0f7b2291e5b200ac8c7c3b92560405160405180910390a45050565b60006125b96009612e2e565b6125c360096128ba565b905090565b6125e2828260405180602001604052806000815250612e44565b5050565b6000806125f2836118e0565b90508073ffffffffffffffffffffffffffffffffffffffff168473ffffffffffffffffffffffffffffffffffffffff161480612634575061263381856121ad565b5b8061267257508373ffffffffffffffffffffffffffffffffffffffff1661265a84610b0e565b73ffffffffffffffffffffffffffffffffffffffff16145b91505092915050565b8273ffffffffffffffffffffffffffffffffffffffff1661269b826118e0565b73ffffffffffffffffffffffffffffffffffffffff16146126e8576040517f3a6bbed300000000000000000000000000000000000000000000000000000000815260040160405180910390fd5b600073ffffffffffffffffffffffffffffffffffffffff168273ffffffffffffffffffffffffffffffffffffffff16141561274f576040517fd92e233d00000000000000000000000000000000000000000000000000000000815260040160405180910390fd5b61275a6000826124f4565b6001601360008573ffffffffffffffffffffffffffffffffffffffff1673ffffffffffffffffffffffffffffffffffffffff16815260200190815260200160002060008282546127aa9190613de0565b925050819055506001601360008473ffffffffffffffffffffffffffffffffffffffff1673ffffffffffffffffffffffffffffffffffffffff16815260200190815260200160002060008282546128019190613cff565b92505081905550816012600083815260200190815260200160002060006101000a81548173ffffffffffffffffffffffffffffffffffffffff021916908373ffffffffffffffffffffffffffffffffffffffff160217905550808273ffffffffffffffffffffffffffffffffffffffff168473ffffffffffffffffffffffffffffffffffffffff167fddf252ad1be2c89b69c2b068fc378daa952ba7f163c4a11628f55a4df523b3ef60405160405180910390a4505050565b600081600001549050919050565b60006128d3826118e0565b90506128e06000836124f4565b6001601360008373ffffffffffffffffffffffffffffffffffffffff1673ffffffffffffffffffffffffffffffffffffffff16815260200190815260200160002060008282546129309190613de0565b925050819055506012600083815260200190815260200160002060006101000a81549073ffffffffffffffffffffffffffffffffffffffff021916905581600073ffffffffffffffffffffffffffffffffffffffff168273ffffffffffffffffffffffffffffffffffffffff167fddf252ad1be2c89b69c2b068fc378daa952ba7f163c4a11628f55a4df523b3ef60405160405180910390a45050565b600073ffffffffffffffffffffffffffffffffffffffff168273ffffffffffffffffffffffffffffffffffffffff161415612a34576040517fd92e233d00000000000000000000000000000000000000000000000000000000815260040160405180910390fd5b8173ffffffffffffffffffffffffffffffffffffffff168373ffffffffffffffffffffffffffffffffffffffff161415612a9a576040517ff4b33eeb00000000000000000000000000000000000000000000000000000000815260040160405180910390fd5b80601560008573ffffffffffffffffffffffffffffffffffffffff1673ffffffffffffffffffffffffffffffffffffffff16815260200190815260200160002060008473ffffffffffffffffffffffffffffffffffffffff1673ffffffffffffffffffffffffffffffffffffffff16815260200190815260200160002060006101000a81548160ff0219169083151502179055508173ffffffffffffffffffffffffffffffffffffffff168373ffffffffffffffffffffffffffffffffffffffff167f17307eab39ab6107e8899845ad3d59bd9653f200f220920489ca2b5937696c3183604051612b8b9190613a9c565b60405180910390a3505050565b612ba384848461267b565b612baf84848484612e96565b612be5576040517f44ccafd600000000000000000000000000000000000000000000000000000000815260040160405180910390fd5b50505050565b606060405180602001604052806000815250905090565b60606000821415612c4a576040518060400160405280600181526020017f30000000000000000000000000000000000000000000000000000000000000008152509050612daa565b600082905060005b60008214612c7c578080612c6590613f4c565b915050600a82612c759190613d55565b9150612c52565b60008167ffffffffffffffff811115612cbe577f4e487b7100000000000000000000000000000000000000000000000000000000600052604160045260246000fd5b6040519080825280601f01601f191660200182016040528015612cf05781602001600182028036833780820191505090505b5090505b60008514612da357600182612d099190613de0565b9150600a85612d189190613f95565b6030612d249190613cff565b60f81b818381518110612d60577f4e487b7100000000000000000000000000000000000000000000000000000000600052603260045260246000fd5b60200101907effffffffffffffffffffffffffffffffffffffffffffffffffffffffffffff1916908160001a905350600a85612d9c9190613d55565b9450612cf4565b8093505050505b919050565b600080823b905060008111915050919050565b60008073ffffffffffffffffffffffffffffffffffffffff166012600084815260200190815260200160002060009054906101000a900473ffffffffffffffffffffffffffffffffffffffff1673ffffffffffffffffffffffffffffffffffffffff1614159050919050565b6001816000016000828254019250508190555050565b612e4e8383613024565b612e5b6000848484612e96565b612e91576040517f44ccafd600000000000000000000000000000000000000000000000000000000815260040160405180910390fd5b505050565b6000612eb78473ffffffffffffffffffffffffffffffffffffffff16612daf565b15613017578373ffffffffffffffffffffffffffffffffffffffff1663150b7a02612ee06124ec565b8786866040518563ffffffff1660e01b8152600401612f029493929190613a2e565b602060405180830381600087803b158015612f1c57600080fd5b505af1925050508015612f4d57506040513d601f19601f82011682018060405250810190612f4a91906136d0565b60015b612fc7573d8060008114612f7d576040519150601f19603f3d011682016040523d82523d6000602084013e612f82565b606091505b50600081511415612fbf576040517f44ccafd600000000000000000000000000000000000000000000000000000000815260040160405180910390fd5b805181602001fd5b63150b7a0260e01b7bffffffffffffffffffffffffffffffffffffffffffffffffffffffff1916817bffffffffffffffffffffffffffffffffffffffffffffffffffffffff19161491505061301c565b600190505b949350505050565b600073ffffffffffffffffffffffffffffffffffffffff168273ffffffffffffffffffffffffffffffffffffffff16141561308b576040517fd92e233d00000000000000000000000000000000000000000000000000000000815260040160405180910390fd5b61309481612dc2565b156130ca576040517ea5a1f500000000000000000000000000000000000000000000000000000000815260040160405180910390fd5b6001601360008473ffffffffffffffffffffffffffffffffffffffff1673ffffffffffffffffffffffffffffffffffffffff168152602001908152602001600020600082825461311a9190613cff565b92505081905550816012600083815260200190815260200160002060006101000a81548173ffffffffffffffffffffffffffffffffffffffff021916908373ffffffffffffffffffffffffffffffffffffffff160217905550808273ffffffffffffffffffffffffffffffffffffffff16600073ffffffffffffffffffffffffffffffffffffffff167fddf252ad1be2c89b69c2b068fc378daa952ba7f163c4a11628f55a4df523b3ef60405160405180910390a45050565b8280546131df90613ee9565b90600052602060002090601f0160209004810192826132015760008555613248565b82601f1061321a57805160ff1916838001178555613248565b82800160010185558215613248579182015b8281111561324757825182559160200191906001019061322c565b5b50905061325591906132df565b5090565b82805461326590613ee9565b90600052602060002090601f01602090048101928261328757600085556132ce565b82601f106132a057803560ff19168380011785556132ce565b828001600101855582156132ce579182015b828111156132cd5782358255916020019190600101906132b2565b5b5090506132db91906132df565b5090565b5b808211156132f85760008160009055506001016132e0565b5090565b600061330f61330a84613c21565b613bfc565b90508281526020810184848401111561332757600080fd5b613332848285613ea7565b509392505050565b600061334d61334884613c52565b613bfc565b90508281526020810184848401111561336557600080fd5b613370848285613ea7565b509392505050565b6000813590506133878161410b565b92915050565b60008135905061339c81614122565b92915050565b6000813590506133b181614139565b92915050565b6000815190506133c681614139565b92915050565b600082601f8301126133dd57600080fd5b81356133ed8482602086016132fc565b91505092915050565b60008083601f84011261340857600080fd5b8235905067ffffffffffffffff81111561342157600080fd5b60208301915083600182028301111561343957600080fd5b9250929050565b600082601f83011261345157600080fd5b813561346184826020860161333a565b91505092915050565b60008135905061347981614150565b92915050565b60006020828403121561349157600080fd5b600061349f84828501613378565b91505092915050565b600080604083850312156134bb57600080fd5b60006134c985828601613378565b92505060206134da85828601613378565b9150509250929050565b6000806000606084860312156134f957600080fd5b600061350786828701613378565b935050602061351886828701613378565b92505060406135298682870161346a565b9150509250925092565b6000806000806080858703121561354957600080fd5b600061355787828801613378565b945050602061356887828801613378565b93505060406135798782880161346a565b925050606085013567ffffffffffffffff81111561359657600080fd5b6135a2878288016133cc565b91505092959194509250565b600080604083850312156135c157600080fd5b60006135cf85828601613378565b92505060206135e08582860161338d565b9150509250929050565b6000806000604084860312156135ff57600080fd5b600061360d86828701613378565b935050602084013567ffffffffffffffff81111561362a57600080fd5b613636868287016133f6565b92509250509250925092565b6000806040838503121561365557600080fd5b600061366385828601613378565b92505060206136748582860161346a565b9150509250929050565b60006020828403121561369057600080fd5b600061369e8482850161338d565b91505092915050565b6000602082840312156136b957600080fd5b60006136c7848285016133a2565b91505092915050565b6000602082840312156136e257600080fd5b60006136f0848285016133b7565b91505092915050565b60006020828403121561370b57600080fd5b600082013567ffffffffffffffff81111561372557600080fd5b61373184828501613440565b91505092915050565b60008060006060848603121561374f57600080fd5b600084013567ffffffffffffffff81111561376957600080fd5b61377586828701613440565b935050602084013567ffffffffffffffff81111561379257600080fd5b61379e86828701613440565b92505060406137af86828701613378565b9150509250925092565b6000602082840312156137cb57600080fd5b60006137d98482850161346a565b91505092915050565b600080600080608085870312156137f857600080fd5b60006138068782880161346a565b94505060206138178782880161346a565b93505060406138288782880161346a565b92505060606138398782880161338d565b91505092959194509250565b600061385183836139d1565b60208301905092915050565b61386681613e14565b82525050565b600061387782613c93565b6138818185613cc1565b935061388c83613c83565b8060005b838110156138bd5781516138a48882613845565b97506138af83613cb4565b925050600181019050613890565b5085935050505092915050565b6138d381613e26565b82525050565b60006138e482613c9e565b6138ee8185613cd2565b93506138fe818560208601613eb6565b61390781614082565b840191505092915050565b61391b81613e95565b82525050565b600061392c82613ca9565b6139368185613ce3565b9350613946818560208601613eb6565b61394f81614082565b840191505092915050565b600061396582613ca9565b61396f8185613cf4565b935061397f818560208601613eb6565b80840191505092915050565b6000613998602e83613ce3565b91506139a382614093565b604082019050919050565b60006139bb601f83613ce3565b91506139c6826140e2565b602082019050919050565b6139da81613e7e565b82525050565b6139e981613e7e565b82525050565b60006139fb828561395a565b9150613a07828461395a565b91508190509392505050565b6000602082019050613a28600083018461385d565b92915050565b6000608082019050613a43600083018761385d565b613a50602083018661385d565b613a5d60408301856139e0565b8181036060830152613a6f81846138d9565b905095945050505050565b60006020820190508181036000830152613a94818461386c565b905092915050565b6000602082019050613ab160008301846138ca565b92915050565b600060a0820190508181036000830152613ad181886138d9565b9050613ae0602083018761385d565b8181036040830152613af281866138d9565b9050613b0160608301856139e0565b8181036080830152613b1381846138d9565b90509695505050505050565b6000602082019050613b346000830184613912565b92915050565b60006020820190508181036000830152613b548184613921565b905092915050565b60006020820190508181036000830152613b758161398b565b9050919050565b60006020820190508181036000830152613b95816139ae565b9050919050565b6000602082019050613bb160008301846139e0565b92915050565b6000608082019050613bcc60008301876139e0565b613bd960208301866139e0565b613be660408301856139e0565b613bf360608301846138ca565b95945050505050565b6000613c06613c17565b9050613c128282613f1b565b919050565b6000604051905090565b600067ffffffffffffffff821115613c3c57613c3b614053565b5b613c4582614082565b9050602081019050919050565b600067ffffffffffffffff821115613c6d57613c6c614053565b5b613c7682614082565b9050602081019050919050565b6000819050602082019050919050565b600081519050919050565b600081519050919050565b600081519050919050565b6000602082019050919050565b600082825260208201905092915050565b600082825260208201905092915050565b600082825260208201905092915050565b600081905092915050565b6000613d0a82613e7e565b9150613d1583613e7e565b9250827fffffffffffffffffffffffffffffffffffffffffffffffffffffffffffffffff03821115613d4a57613d49613fc6565b5b828201905092915050565b6000613d6082613e7e565b9150613d6b83613e7e565b925082613d7b57613d7a613ff5565b5b828204905092915050565b6000613d9182613e7e565b9150613d9c83613e7e565b9250817fffffffffffffffffffffffffffffffffffffffffffffffffffffffffffffffff0483118215151615613dd557613dd4613fc6565b5b828202905092915050565b6000613deb82613e7e565b9150613df683613e7e565b925082821015613e0957613e08613fc6565b5b828203905092915050565b6000613e1f82613e5e565b9050919050565b60008115159050919050565b60007fffffffff0000000000000000000000000000000000000000000000000000000082169050919050565b600073ffffffffffffffffffffffffffffffffffffffff82169050919050565b6000819050919050565b600060ff82169050919050565b6000613ea082613e88565b9050919050565b82818337600083830152505050565b60005b83811015613ed4578082015181840152602081019050613eb9565b83811115613ee3576000848401525b50505050565b60006002820490506001821680613f0157607f821691505b60208210811415613f1557613f14614024565b5b50919050565b613f2482614082565b810181811067ffffffffffffffff82111715613f4357613f42614053565b5b80604052505050565b6000613f5782613e7e565b91507fffffffffffffffffffffffffffffffffffffffffffffffffffffffffffffffff821415613f8a57613f89613fc6565b5b600182019050919050565b6000613fa082613e7e565b9150613fab83613e7e565b925082613fbb57613fba613ff5565b5b828206905092915050565b7f4e487b7100000000000000000000000000000000000000000000000000000000600052601160045260246000fd5b7f4e487b7100000000000000000000000000000000000000000000000000000000600052601260045260246000fd5b7f4e487b7100000000000000000000000000000000000000000000000000000000600052602260045260246000fd5b7f4e487b7100000000000000000000000000000000000000000000000000000000600052604160045260246000fd5b6000601f19601f8301169050919050565b7f496e697469616c697a61626c653a20636f6e747261637420697320616c72656160008201527f647920696e697469616c697a6564000000000000000000000000000000000000602082015250565b7f5265656e7472616e637947756172643a207265656e7472616e742063616c6c00600082015250565b61411481613e14565b811461411f57600080fd5b50565b61412b81613e26565b811461413657600080fd5b50565b61414281613e32565b811461414d57600080fd5b50565b61415981613e7e565b811461416457600080fd5b5056fea2646970667358221220bdfc76db61cfe6664e46d9d475843a357aa59b2b73e7143e6a346413eecdefa164736f6c63430008040033",
  "linkReferences": {},
  "deployedLinkReferences": {}
}