{
  "_format": "hh-sol-artifact-1",
  "contractName": "ERC721",
  "sourceName": "contracts/ERC721.sol",
  "abi": [
    {
      "inputs": [
        {
          "internalType": "address",
          "name": "_owner",
          "type": "address"
        }
      ],
      "stateMutability": "nonpayable",
      "type": "constructor"
    },
    {
      "inputs": [],
      "name": "AlreadyInitialized",
      "type": "error"
    },
    {
      "inputs": [],
      "name": "IncorrectOwner",
      "type": "error"
    },
    {
      "inputs": [],
      "name": "InsufficientAllowance",
      "type": "error"
    },
    {
      "inputs": [],
      "name": "InsufficientBalance",
      "type": "error"
    },
    {
      "inputs": [],
      "name": "InvalidTokenId",
      "type": "error"
    },
    {
      "inputs": [],
      "name": "MaxPerUserExceeded",
      "type": "error"
    },
    {
      "inputs": [],
      "name": "MaxSupplyExceeded",
      "type": "error"
    },
    {
      "inputs": [],
      "name": "MissingERC721Receiver",
      "type": "error"
    },
    {
      "inputs": [],
      "name": "NotACollection",
      "type": "error"
    },
    {
      "inputs": [],
      "name": "PublicMintInactive",
      "type": "error"
    },
    {
      "inputs": [],
      "name": "SameAddress",
      "type": "error"
    },
    {
      "inputs": [],
      "name": "SameOwnerAndOperator",
      "type": "error"
    },
    {
      "inputs": [],
      "name": "TokenAlreadyMinted",
      "type": "error"
    },
    {
      "inputs": [],
      "name": "Unauthorized",
      "type": "error"
    },
    {
      "inputs": [],
      "name": "ZeroAddress",
      "type": "error"
    },
    {
      "anonymous": false,
      "inputs": [
        {
          "indexed": true,
          "internalType": "address",
          "name": "owner",
          "type": "address"
        },
        {
          "indexed": true,
          "internalType": "address",
          "name": "approved",
          "type": "address"
        },
        {
          "indexed": true,
          "internalType": "uint256",
          "name": "tokenId",
          "type": "uint256"
        }
      ],
      "name": "Approval",
      "type": "event"
    },
    {
      "anonymous": false,
      "inputs": [
        {
          "indexed": true,
          "internalType": "address",
          "name": "owner",
          "type": "address"
        },
        {
          "indexed": true,
          "internalType": "address",
          "name": "operator",
          "type": "address"
        },
        {
          "indexed": false,
          "internalType": "bool",
          "name": "approved",
          "type": "bool"
        }
      ],
      "name": "ApprovalForAll",
      "type": "event"
    },
    {
      "anonymous": false,
      "inputs": [
        {
          "indexed": false,
          "internalType": "uint8",
          "name": "version",
          "type": "uint8"
        }
      ],
      "name": "Initialized",
      "type": "event"
    },
    {
      "anonymous": false,
      "inputs": [
        {
          "indexed": true,
          "internalType": "address",
          "name": "from",
          "type": "address"
        },
        {
          "indexed": true,
          "internalType": "address",
          "name": "to",
          "type": "address"
        },
        {
          "indexed": true,
          "internalType": "uint256",
          "name": "tokenId",
          "type": "uint256"
        }
      ],
      "name": "Transfer",
      "type": "event"
    },
    {
      "inputs": [],
      "name": "_collectionInfo",
      "outputs": [
        {
          "internalType": "uint256",
          "name": "price",
          "type": "uint256"
        },
        {
          "internalType": "uint256",
          "name": "maxSupply",
          "type": "uint256"
        },
        {
          "internalType": "uint256",
          "name": "maxPerUser",
          "type": "uint256"
        },
        {
          "internalType": "bool",
          "name": "isPublicSaleActive",
          "type": "bool"
        }
      ],
      "stateMutability": "view",
      "type": "function"
    },
    {
      "inputs": [],
      "name": "_tenantOwner",
      "outputs": [
        {
          "internalType": "address",
          "name": "",
          "type": "address"
        }
      ],
      "stateMutability": "view",
      "type": "function"
    },
    {
      "inputs": [
        {
          "internalType": "address",
          "name": "_to",
          "type": "address"
        },
        {
          "internalType": "uint256",
          "name": "_tokenId",
          "type": "uint256"
        }
      ],
      "name": "approve",
      "outputs": [],
      "stateMutability": "nonpayable",
      "type": "function"
    },
    {
      "inputs": [
        {
          "internalType": "address",
          "name": "_owner",
          "type": "address"
        }
      ],
      "name": "balanceOf",
      "outputs": [
        {
          "internalType": "uint256",
          "name": "",
          "type": "uint256"
        }
      ],
      "stateMutability": "view",
      "type": "function"
    },
    {
      "inputs": [],
      "name": "contractOwner",
      "outputs": [
        {
          "internalType": "address",
          "name": "",
          "type": "address"
        }
      ],
      "stateMutability": "view",
      "type": "function"
    },
    {
      "inputs": [
        {
          "internalType": "uint256",
          "name": "_tokenId",
          "type": "uint256"
        }
      ],
      "name": "getApproved",
      "outputs": [
        {
          "internalType": "address",
          "name": "",
          "type": "address"
        }
      ],
      "stateMutability": "view",
      "type": "function"
    },
    {
      "inputs": [],
      "name": "getBaseURI",
      "outputs": [
        {
          "internalType": "string",
          "name": "",
          "type": "string"
        }
      ],
      "stateMutability": "view",
      "type": "function"
    },
    {
      "inputs": [
        {
          "internalType": "string",
          "name": "name_",
          "type": "string"
        },
        {
          "internalType": "string",
          "name": "symbol_",
          "type": "string"
        },
        {
          "internalType": "address",
          "name": "tenant_",
          "type": "address"
        }
      ],
      "name": "initialize",
      "outputs": [],
      "stateMutability": "nonpayable",
      "type": "function"
    },
    {
      "inputs": [
        {
          "internalType": "uint256",
          "name": "_price",
          "type": "uint256"
        },
        {
          "internalType": "uint256",
          "name": "_maxSupply",
          "type": "uint256"
        },
        {
          "internalType": "uint256",
          "name": "_maxPerUser",
          "type": "uint256"
        }
      ],
      "name": "initializeCollection",
      "outputs": [],
      "stateMutability": "nonpayable",
      "type": "function"
    },
    {
      "inputs": [
        {
          "internalType": "address",
          "name": "_owner",
          "type": "address"
        },
        {
          "internalType": "address",
          "name": "_operator",
          "type": "address"
        }
      ],
      "name": "isApprovedForAll",
      "outputs": [
        {
          "internalType": "bool",
          "name": "",
          "type": "bool"
        }
      ],
      "stateMutability": "view",
      "type": "function"
    },
    {
      "inputs": [],
      "name": "metadata",
      "outputs": [
        {
          "internalType": "bytes",
          "name": "title",
          "type": "bytes"
        },
        {
          "components": [
            {
              "internalType": "address",
              "name": "authorAddress",
              "type": "address"
            },
            {
              "internalType": "string",
              "name": "externalLink",
              "type": "string"
            }
          ],
          "internalType": "struct IHyperverseModule.Author",
          "name": "author",
          "type": "tuple"
        },
        {
          "internalType": "bytes",
          "name": "version",
          "type": "bytes"
        },
        {
          "internalType": "uint64",
          "name": "publishedAt",
          "type": "uint64"
        },
        {
          "internalType": "bytes",
          "name": "externalLink",
          "type": "bytes"
        }
      ],
      "stateMutability": "view",
      "type": "function"
    },
    {
      "inputs": [
        {
          "internalType": "address",
          "name": "_to",
          "type": "address"
        }
      ],
      "name": "mint",
      "outputs": [
        {
          "internalType": "uint256",
          "name": "",
          "type": "uint256"
        }
      ],
      "stateMutability": "payable",
      "type": "function"
    },
    {
      "inputs": [
        {
          "internalType": "address",
          "name": "_to",
          "type": "address"
        },
        {
          "internalType": "uint256",
          "name": "_count",
          "type": "uint256"
        }
      ],
      "name": "mintBatch",
      "outputs": [
        {
          "internalType": "uint256[]",
          "name": "",
          "type": "uint256[]"
        }
      ],
      "stateMutability": "payable",
      "type": "function"
    },
    {
      "inputs": [],
      "name": "name",
      "outputs": [
        {
          "internalType": "string",
          "name": "",
          "type": "string"
        }
      ],
      "stateMutability": "view",
      "type": "function"
    },
    {
      "inputs": [
        {
          "internalType": "uint256",
          "name": "_tokenId",
          "type": "uint256"
        }
      ],
      "name": "ownerOf",
      "outputs": [
        {
          "internalType": "address",
          "name": "",
          "type": "address"
        }
      ],
      "stateMutability": "view",
      "type": "function"
    },
    {
      "inputs": [
        {
          "internalType": "address",
          "name": "_from",
          "type": "address"
        },
        {
          "internalType": "address",
          "name": "_to",
          "type": "address"
        },
        {
          "internalType": "uint256",
          "name": "_tokenId",
          "type": "uint256"
        }
      ],
      "name": "safeTransferFrom",
      "outputs": [],
      "stateMutability": "nonpayable",
      "type": "function"
    },
    {
      "inputs": [
        {
          "internalType": "address",
          "name": "_from",
          "type": "address"
        },
        {
          "internalType": "address",
          "name": "_to",
          "type": "address"
        },
        {
          "internalType": "uint256",
          "name": "_tokenId",
          "type": "uint256"
        },
        {
          "internalType": "bytes",
          "name": "_data",
          "type": "bytes"
        }
      ],
      "name": "safeTransferFrom",
      "outputs": [],
      "stateMutability": "nonpayable",
      "type": "function"
    },
    {
      "inputs": [
        {
          "internalType": "address",
          "name": "_operator",
          "type": "address"
        },
        {
          "internalType": "bool",
          "name": "_approved",
          "type": "bool"
        }
      ],
      "name": "setApprovalForAll",
      "outputs": [],
      "stateMutability": "nonpayable",
      "type": "function"
    },
    {
      "inputs": [
        {
          "internalType": "string",
          "name": "baseURI_",
          "type": "string"
        }
      ],
      "name": "setBaseURI",
      "outputs": [],
      "stateMutability": "nonpayable",
      "type": "function"
    },
    {
      "inputs": [
        {
          "internalType": "bool",
          "name": "_isActive",
          "type": "bool"
        }
      ],
      "name": "setMintPermissions",
      "outputs": [],
      "stateMutability": "nonpayable",
      "type": "function"
    },
    {
      "inputs": [
        {
          "internalType": "bytes4",
          "name": "_interfaceId",
          "type": "bytes4"
        }
      ],
      "name": "supportsInterface",
      "outputs": [
        {
          "internalType": "bool",
          "name": "",
          "type": "bool"
        }
      ],
      "stateMutability": "view",
      "type": "function"
    },
    {
      "inputs": [],
      "name": "symbol",
      "outputs": [
        {
          "internalType": "string",
          "name": "",
          "type": "string"
        }
      ],
      "stateMutability": "view",
      "type": "function"
    },
    {
      "inputs": [
        {
          "internalType": "address",
          "name": "_reciever",
          "type": "address"
        }
      ],
      "name": "tenantMint",
      "outputs": [
        {
          "internalType": "uint256",
          "name": "",
          "type": "uint256"
        }
      ],
      "stateMutability": "nonpayable",
      "type": "function"
    },
    {
      "inputs": [
        {
          "internalType": "address",
          "name": "_to",
          "type": "address"
        },
        {
          "internalType": "string",
          "name": "_uri",
          "type": "string"
        }
      ],
      "name": "tenantMint",
      "outputs": [
        {
          "internalType": "uint256",
          "name": "",
          "type": "uint256"
        }
      ],
      "stateMutability": "nonpayable",
      "type": "function"
    },
    {
      "inputs": [
        {
          "internalType": "uint256",
          "name": "_tokenId",
          "type": "uint256"
        }
      ],
      "name": "tokenURI",
      "outputs": [
        {
          "internalType": "string",
          "name": "",
          "type": "string"
        }
      ],
      "stateMutability": "view",
      "type": "function"
    },
    {
      "inputs": [
        {
          "internalType": "address",
          "name": "_from",
          "type": "address"
        },
        {
          "internalType": "address",
          "name": "_to",
          "type": "address"
        },
        {
          "internalType": "uint256",
          "name": "_tokenId",
          "type": "uint256"
        }
      ],
      "name": "transferFrom",
      "outputs": [],
      "stateMutability": "nonpayable",
      "type": "function"
    },
    {
      "inputs": [],
      "name": "withdraw",
      "outputs": [],
      "stateMutability": "nonpayable",
      "type": "function"
    },
    {
      "inputs": [
        {
          "internalType": "contract IERC20",
          "name": "_token",
          "type": "address"
        }
      ],
      "name": "withdrawTokens",
      "outputs": [],
      "stateMutability": "nonpayable",
      "type": "function"
    }
  ],
  "bytecode": "0x60a06040523480156200001157600080fd5b50604051620045af380380620045af83398181016040528101906200003791906200040c565b60016000819055506040518060a001604052806040518060400160405280600681526020017f4552433732310000000000000000000000000000000000000000000000000000815250815260200160405180604001604052808473ffffffffffffffffffffffffffffffffffffffff1681526020016040518060400160405280601881526020017f68747470733a2f2f65787465726e616c6c696e6b2e6e6574000000000000000081525081525081526020016040518060400160405280600581526020017f302e302e31000000000000000000000000000000000000000000000000000000815250815260200165032a361e860667ffffffffffffffff1681526020016040518060400160405280601881526020017f68747470733a2f2f65787465726e616c4c696e6b2e6e657400000000000000008152508152506002600082015181600001908051906020019062000194929190620002b4565b5060208201518160010160008201518160000160006101000a81548173ffffffffffffffffffffffffffffffffffffffff021916908373ffffffffffffffffffffffffffffffffffffffff16021790555060208201518160010190805190602001906200020392919062000345565b505050604082015181600301908051906020019062000224929190620002b4565b5060608201518160040160006101000a81548167ffffffffffffffff021916908367ffffffffffffffff160217905550608082015181600501908051906020019062000272929190620002b4565b509050508073ffffffffffffffffffffffffffffffffffffffff1660808173ffffffffffffffffffffffffffffffffffffffff1660601b8152505050620004eb565b828054620002c2906200046c565b90600052602060002090601f016020900481019282620002e6576000855562000332565b82601f106200030157805160ff191683800117855562000332565b8280016001018555821562000332579182015b828111156200033157825182559160200191906001019062000314565b5b509050620003419190620003d6565b5090565b82805462000353906200046c565b90600052602060002090601f016020900481019282620003775760008555620003c3565b82601f106200039257805160ff1916838001178555620003c3565b82800160010185558215620003c3579182015b82811115620003c2578251825591602001919060010190620003a5565b5b509050620003d29190620003d6565b5090565b5b80821115620003f1576000816000905550600101620003d7565b5090565b6000815190506200040681620004d1565b92915050565b6000602082840312156200041f57600080fd5b60006200042f84828501620003f5565b91505092915050565b600062000445826200044c565b9050919050565b600073ffffffffffffffffffffffffffffffffffffffff82169050919050565b600060028204905060018216806200048557607f821691505b602082108114156200049c576200049b620004a2565b5b50919050565b7f4e487b7100000000000000000000000000000000000000000000000000000000600052602260045260246000fd5b620004dc8162000438565b8114620004e857600080fd5b50565b60805160601c6140a56200050a6000396000611fc601526140a56000f3fe6080604052600436106101b75760003560e01c806349df728c116100ec57806395d89b411161008a578063b88d4fde11610064578063b88d4fde1461061b578063c87b56dd14610644578063ce606ee014610681578063e985e9c5146106ac576101b7565b806395d89b411461059957806397ee73bb146105c4578063a22cb465146105f2576101b7565b80636352211e116100c65780636352211e146104c45780636a6278421461050157806370a0823114610531578063714c53981461056e576101b7565b806349df728c146104495780634d2f929a1461047257806355f804b31461049b576101b7565b806323b872dd11610159578063392f37e911610133578063392f37e9146103b15780633ccfd60b146103e05780633e2b81c4146103f757806342842e0e14610420576101b7565b806323b872dd1461031b578063248b71fc1461034457806327fbceac14610374576101b7565b8063081812fc11610195578063081812fc1461024d578063095ea7b31461028a5780630b8eb2cf146102b3578063217cc2b4146102de576101b7565b806301ffc9a7146101bc57806306fdde03146101f9578063077f224a14610224575b600080fd5b3480156101c857600080fd5b506101e360048036038101906101de9190613421565b6106e9565b6040516101f09190613911565b60405180910390f35b34801561020557600080fd5b5061020e6107cb565b60405161021b91906139b6565b60405180910390f35b34801561023057600080fd5b5061024b600480360381019061024691906134dd565b61085d565b005b34801561025957600080fd5b50610274600480360381019061026f919061355c565b6109e4565b604051610281919061385f565b60405180910390f35b34801561029657600080fd5b506102b160048036038101906102ac9190613393565b610a2a565b005b3480156102bf57600080fd5b506102c8610b33565b6040516102d5919061385f565b60405180910390f35b3480156102ea57600080fd5b50610305600480360381019061030091906131d0565b610b59565b6040516103129190613a56565b60405180910390f35b34801561032757600080fd5b50610342600480360381019061033d9190613235565b610c4f565b005b61035e60048036038101906103599190613393565b610ca6565b60405161036b91906138ef565b60405180910390f35b34801561038057600080fd5b5061039b6004803603810190610396919061333b565b611021565b6040516103a89190613a56565b60405180910390f35b3480156103bd57600080fd5b506103c66110fb565b6040516103d795949392919061392c565b60405180910390f35b3480156103ec57600080fd5b506103f56113bd565b005b34801561040357600080fd5b5061041e600480360381019061041991906133cf565b611493565b005b34801561042c57600080fd5b5061044760048036038101906104429190613235565b611557565b005b34801561045557600080fd5b50610470600480360381019061046b9190613473565b611577565b005b34801561047e57600080fd5b50610499600480360381019061049491906135ae565b61171d565b005b3480156104a757600080fd5b506104c260048036038101906104bd919061349c565b6117e2565b005b3480156104d057600080fd5b506104eb60048036038101906104e6919061355c565b611883565b6040516104f8919061385f565b60405180910390f35b61051b600480360381019061051691906131d0565b61192c565b6040516105289190613a56565b60405180910390f35b34801561053d57600080fd5b50610558600480360381019061055391906131d0565b611bce565b6040516105659190613a56565b60405180910390f35b34801561057a57600080fd5b50610583611c7d565b60405161059091906139b6565b60405180910390f35b3480156105a557600080fd5b506105ae611d3b565b6040516105bb91906139b6565b60405180910390f35b3480156105d057600080fd5b506105d9611dcd565b6040516105e99493929190613a71565b60405180910390f35b3480156105fe57600080fd5b50610619600480360381019061061491906132ff565b611df8565b005b34801561062757600080fd5b50610642600480360381019061063d9190613284565b611e0e565b005b34801561065057600080fd5b5061066b6004803603810190610666919061355c565b611e67565b60405161067891906139b6565b60405180910390f35b34801561068d57600080fd5b50610696611fc4565b6040516106a3919061385f565b60405180910390f35b3480156106b857600080fd5b506106d360048036038101906106ce91906131f9565b611fe8565b6040516106e09190613911565b60405180910390f35b60007f80ac58cd000000000000000000000000000000000000000000000000000000007bffffffffffffffffffffffffffffffffffffffffffffffffffffffff1916827bffffffffffffffffffffffffffffffffffffffffffffffffffffffff191614806107b457507f5b5e139f000000000000000000000000000000000000000000000000000000007bffffffffffffffffffffffffffffffffffffffffffffffffffffffff1916827bffffffffffffffffffffffffffffffffffffffffffffffffffffffff1916145b806107c457506107c38261207c565b5b9050919050565b6060600b80546107da90613dda565b80601f016020809104026020016040519081016040528092919081815260200182805461080690613dda565b80156108535780601f1061082857610100808354040283529160200191610853565b820191906000526020600020905b81548152906001019060200180831161083657829003601f168201915b5050505050905090565b600061086960016120e6565b9050801561088c5760018060016101000a81548160ff0219169083151502179055505b81600073ffffffffffffffffffffffffffffffffffffffff16600960009054906101000a900473ffffffffffffffffffffffffffffffffffffffff1673ffffffffffffffffffffffffffffffffffffffff1614610915576040517f0dc149f000000000000000000000000000000000000000000000000000000000815260040160405180910390fd5b84600b908051906020019061092b929190612ee5565b5083600c9080519060200190610942929190612ee5565b5082600960006101000a81548173ffffffffffffffffffffffffffffffffffffffff021916908373ffffffffffffffffffffffffffffffffffffffff1602179055505080156109de5760006001806101000a81548160ff0219169083151502179055507f7f26b83ff96e1f2b6a682f133852f6798a09c465da95921460cefb384740249860016040516109d5919061399b565b60405180910390a15b50505050565b60006109ef826121d8565b6015600083815260200190815260200160002060009054906101000a900473ffffffffffffffffffffffffffffffffffffffff169050919050565b6000610a3582611883565b90508273ffffffffffffffffffffffffffffffffffffffff168173ffffffffffffffffffffffffffffffffffffffff161415610a9d576040517f367558c300000000000000000000000000000000000000000000000000000000815260040160405180910390fd5b8073ffffffffffffffffffffffffffffffffffffffff16610abc61221a565b73ffffffffffffffffffffffffffffffffffffffff16141580610aed5750610aeb81610ae661221a565b611fe8565b155b15610b24576040517f82b4290000000000000000000000000000000000000000000000000000000000815260040160405180910390fd5b610b2e8383612222565b505050565b600960009054906101000a900473ffffffffffffffffffffffffffffffffffffffff1681565b6000600960009054906101000a900473ffffffffffffffffffffffffffffffffffffffff1673ffffffffffffffffffffffffffffffffffffffff163373ffffffffffffffffffffffffffffffffffffffff1614610be2576040517f82b4290000000000000000000000000000000000000000000000000000000000815260040160405180910390fd5b60001515600e60009054906101000a900460ff1615151415610c30576040517fdbc28d8300000000000000000000000000000000000000000000000000000000815260040160405180910390fd5b6000610c3a6122db565b9050610c4683826122f6565b80915050919050565b610c60610c5a61221a565b82612314565b610c96576040517f82b4290000000000000000000000000000000000000000000000000000000000815260040160405180910390fd5b610ca18383836123a9565b505050565b606060026000541415610cee576040517f08c379a0000000000000000000000000000000000000000000000000000000008152600401610ce590613a36565b60405180910390fd5b600260008190555060001515600e60009054906101000a900460ff1615151415610d44576040517fdbc28d8300000000000000000000000000000000000000000000000000000000815260040160405180910390fd5b81610da06040518060400160405280600581526020017f636f756e740000000000000000000000000000000000000000000000000000008152508234610d8a9190613c51565b83600f60000154610d9b9190613c51565b6125fe565b60011515600e60009054906101000a900460ff1615151415610f1f5760001515600f60030160009054906101000a900460ff1615151415610e0d576040517f15b1bdcd00000000000000000000000000000000000000000000000000000000815260040160405180910390fd5b600f60010154610e1d600a61269d565b1180610e415750600f6001015481610e35600a61269d565b610e3f9190613bca565b115b15610e78576040517f8a164f6300000000000000000000000000000000000000000000000000000000815260040160405180910390fd5b80600f60000154610e899190613c51565b8134610e959190613c51565b14610ecc576040517ff4d678b800000000000000000000000000000000000000000000000000000000815260040160405180910390fd5b600f6002015481610edc33611bce565b610ee69190613bca565b1115610f1e576040517fecdd05c000000000000000000000000000000000000000000000000000000000815260040160405180910390fd5b5b60008367ffffffffffffffff811115610f61577f4e487b7100000000000000000000000000000000000000000000000000000000600052604160045260246000fd5b604051908082528060200260200182016040528015610f8f5781602001602082028036833780820191505090505b50905060005b8481101561100d576000610fa76122db565b905080838381518110610fe3577f4e487b7100000000000000000000000000000000000000000000000000000000600052603260045260246000fd5b602002602001018181525050610ff987826122f6565b50808061100590613e3d565b915050610f95565b508092505050600160008190555092915050565b6000600960009054906101000a900473ffffffffffffffffffffffffffffffffffffffff1673ffffffffffffffffffffffffffffffffffffffff163373ffffffffffffffffffffffffffffffffffffffff16146110aa576040517f82b4290000000000000000000000000000000000000000000000000000000000815260040160405180910390fd5b60006110b46122db565b90506110c085826122f6565b60008484905011156110f05783836017600084815260200190815260200160002091906110ee929190612f6b565b505b809150509392505050565b600280600001805461110c90613dda565b80601f016020809104026020016040519081016040528092919081815260200182805461113890613dda565b80156111855780601f1061115a57610100808354040283529160200191611185565b820191906000526020600020905b81548152906001019060200180831161116857829003601f168201915b505050505090806001016040518060400160405290816000820160009054906101000a900473ffffffffffffffffffffffffffffffffffffffff1673ffffffffffffffffffffffffffffffffffffffff1673ffffffffffffffffffffffffffffffffffffffff16815260200160018201805461120090613dda565b80601f016020809104026020016040519081016040528092919081815260200182805461122c90613dda565b80156112795780601f1061124e57610100808354040283529160200191611279565b820191906000526020600020905b81548152906001019060200180831161125c57829003601f168201915b5050505050815250509080600301805461129290613dda565b80601f01602080910402602001604051908101604052809291908181526020018280546112be90613dda565b801561130b5780601f106112e05761010080835404028352916020019161130b565b820191906000526020600020905b8154815290600101906020018083116112ee57829003601f168201915b5050505050908060040160009054906101000a900467ffffffffffffffff169080600501805461133a90613dda565b80601f016020809104026020016040519081016040528092919081815260200182805461136690613dda565b80156113b35780601f10611388576101008083540402835291602001916113b3565b820191906000526020600020905b81548152906001019060200180831161139657829003601f168201915b5050505050905085565b600960009054906101000a900473ffffffffffffffffffffffffffffffffffffffff1673ffffffffffffffffffffffffffffffffffffffff163373ffffffffffffffffffffffffffffffffffffffff1614611444576040517f82b4290000000000000000000000000000000000000000000000000000000000815260040160405180910390fd5b60004790503373ffffffffffffffffffffffffffffffffffffffff166108fc829081150290604051600060405180830381858888f1935050505015801561148f573d6000803e3d6000fd5b5050565b600960009054906101000a900473ffffffffffffffffffffffffffffffffffffffff1673ffffffffffffffffffffffffffffffffffffffff163373ffffffffffffffffffffffffffffffffffffffff161461151a576040517f82b4290000000000000000000000000000000000000000000000000000000000815260040160405180910390fd5b60011515600e60009054906101000a900460ff16151514156115545780600f60030160006101000a81548160ff0219169083151502179055505b50565b61157283838360405180602001604052806000815250611e0e565b505050565b600960009054906101000a900473ffffffffffffffffffffffffffffffffffffffff1673ffffffffffffffffffffffffffffffffffffffff163373ffffffffffffffffffffffffffffffffffffffff16146115fe576040517f82b4290000000000000000000000000000000000000000000000000000000000815260040160405180910390fd5b60008173ffffffffffffffffffffffffffffffffffffffff166370a08231306040518263ffffffff1660e01b8152600401611639919061385f565b60206040518083038186803b15801561165157600080fd5b505afa158015611665573d6000803e3d6000fd5b505050506040513d601f19601f820116820180604052508101906116899190613585565b90508173ffffffffffffffffffffffffffffffffffffffff1663a9059cbb33836040518363ffffffff1660e01b81526004016116c69291906138c6565b602060405180830381600087803b1580156116e057600080fd5b505af11580156116f4573d6000803e3d6000fd5b505050506040513d601f19601f8201168201806040525081019061171891906133f8565b505050565b600960009054906101000a900473ffffffffffffffffffffffffffffffffffffffff1673ffffffffffffffffffffffffffffffffffffffff163373ffffffffffffffffffffffffffffffffffffffff16146117a4576040517f82b4290000000000000000000000000000000000000000000000000000000000815260040160405180910390fd5b82600f6000018190555081600f6001018190555080600f600201819055506001600e60006101000a81548160ff021916908315150217905550505050565b600960009054906101000a900473ffffffffffffffffffffffffffffffffffffffff1673ffffffffffffffffffffffffffffffffffffffff163373ffffffffffffffffffffffffffffffffffffffff1614611869576040517f82b4290000000000000000000000000000000000000000000000000000000000815260040160405180910390fd5b80600d908051906020019061187f929190612ee5565b5050565b6000806013600084815260200190815260200160002060009054906101000a900473ffffffffffffffffffffffffffffffffffffffff169050600073ffffffffffffffffffffffffffffffffffffffff168173ffffffffffffffffffffffffffffffffffffffff161415611923576040517f3f6cc76800000000000000000000000000000000000000000000000000000000815260040160405180910390fd5b80915050919050565b600060026000541415611974576040517f08c379a000000000000000000000000000000000000000000000000000000000815260040161196b90613a36565b60405180910390fd5b600260008190555060001515600e60009054906101000a900460ff16151514156119ca576040517fdbc28d8300000000000000000000000000000000000000000000000000000000815260040160405180910390fd5b6001611a276040518060400160405280600581526020017f636f756e740000000000000000000000000000000000000000000000000000008152508234611a119190613c51565b83600f60000154611a229190613c51565b6125fe565b60011515600e60009054906101000a900460ff1615151415611ba65760001515600f60030160009054906101000a900460ff1615151415611a94576040517f15b1bdcd00000000000000000000000000000000000000000000000000000000815260040160405180910390fd5b600f60010154611aa4600a61269d565b1180611ac85750600f6001015481611abc600a61269d565b611ac69190613bca565b115b15611aff576040517f8a164f6300000000000000000000000000000000000000000000000000000000815260040160405180910390fd5b80600f60000154611b109190613c51565b8134611b1c9190613c51565b14611b53576040517ff4d678b800000000000000000000000000000000000000000000000000000000815260040160405180910390fd5b600f6002015481611b6333611bce565b611b6d9190613bca565b1115611ba5576040517fecdd05c000000000000000000000000000000000000000000000000000000000815260040160405180910390fd5b5b6000611bb06122db565b9050611bbc84826122f6565b80925050506001600081905550919050565b60008073ffffffffffffffffffffffffffffffffffffffff168273ffffffffffffffffffffffffffffffffffffffff161415611c36576040517fd92e233d00000000000000000000000000000000000000000000000000000000815260040160405180910390fd5b601460008373ffffffffffffffffffffffffffffffffffffffff1673ffffffffffffffffffffffffffffffffffffffff168152602001908152602001600020549050919050565b60606000600d8054611c8e90613dda565b905011611caa5760405180602001604052806000815250611d36565b600d8054611cb790613dda565b80601f0160208091040260200160405190810160405280929190818152602001828054611ce390613dda565b8015611d305780601f10611d0557610100808354040283529160200191611d30565b820191906000526020600020905b815481529060010190602001808311611d1357829003601f168201915b50505050505b905090565b6060600c8054611d4a90613dda565b80601f0160208091040260200160405190810160405280929190818152602001828054611d7690613dda565b8015611dc35780601f10611d9857610100808354040283529160200191611dc3565b820191906000526020600020905b815481529060010190602001808311611da657829003601f168201915b5050505050905090565b600f8060000154908060010154908060020154908060030160009054906101000a900460ff16905084565b611e0a611e0361221a565b83836126ab565b5050565b611e1f611e1961221a565b83612314565b611e55576040517f82b4290000000000000000000000000000000000000000000000000000000000815260040160405180910390fd5b611e6184848484612876565b50505050565b6060611e72826121d8565b600e60009054906101000a900460ff16611f66576000601760008481526020019081526020016000208054611ea690613dda565b905011611ec25760405180602001604052806000815250611f5f565b601760008381526020019081526020016000208054611ee090613dda565b80601f0160208091040260200160405190810160405280929190818152602001828054611f0c90613dda565b8015611f595780601f10611f2e57610100808354040283529160200191611f59565b820191906000526020600020905b815481529060010190602001808311611f3c57829003601f168201915b50505050505b9050611fbf565b6000611f70611c7d565b90506000815111611f905760405180602001604052806000815250611fbb565b80611f9a846128c9565b604051602001611fab92919061383b565b6040516020818303038152906040525b9150505b919050565b7f000000000000000000000000000000000000000000000000000000000000000081565b6000601660008473ffffffffffffffffffffffffffffffffffffffff1673ffffffffffffffffffffffffffffffffffffffff16815260200190815260200160002060008373ffffffffffffffffffffffffffffffffffffffff1673ffffffffffffffffffffffffffffffffffffffff16815260200190815260200160002060009054906101000a900460ff16905092915050565b60007f01ffc9a7000000000000000000000000000000000000000000000000000000007bffffffffffffffffffffffffffffffffffffffffffffffffffffffff1916827bffffffffffffffffffffffffffffffffffffffffffffffffffffffff1916149050919050565b600060018054906101000a900460ff161561215c5760018260ff16148015612114575061211230612a76565b155b612153576040517f08c379a000000000000000000000000000000000000000000000000000000000815260040161214a90613a16565b60405180910390fd5b600090506121d3565b8160ff16600160009054906101000a900460ff1660ff16106121b3576040517f08c379a00000000000000000000000000000000000000000000000000000000081526004016121aa90613a16565b60405180910390fd5b81600160006101000a81548160ff021916908360ff160217905550600190505b919050565b6121e181612a89565b612217576040517f3f6cc76800000000000000000000000000000000000000000000000000000000815260040160405180910390fd5b50565b600033905090565b816015600083815260200190815260200160002060006101000a81548173ffffffffffffffffffffffffffffffffffffffff021916908373ffffffffffffffffffffffffffffffffffffffff160217905550808273ffffffffffffffffffffffffffffffffffffffff1661229583611883565b73ffffffffffffffffffffffffffffffffffffffff167f8c5be1e5ebec7d5bd14f71427d1e84f3dd0314c0f7b2291e5b200ac8c7c3b92560405160405180910390a45050565b60006122e7600a612af5565b6122f1600a61269d565b905090565b612310828260405180602001604052806000815250612b0b565b5050565b60008061232083611883565b90508073ffffffffffffffffffffffffffffffffffffffff168473ffffffffffffffffffffffffffffffffffffffff16148061236257506123618185611fe8565b5b806123a057508373ffffffffffffffffffffffffffffffffffffffff16612388846109e4565b73ffffffffffffffffffffffffffffffffffffffff16145b91505092915050565b8273ffffffffffffffffffffffffffffffffffffffff166123c982611883565b73ffffffffffffffffffffffffffffffffffffffff1614612416576040517f3a6bbed300000000000000000000000000000000000000000000000000000000815260040160405180910390fd5b600073ffffffffffffffffffffffffffffffffffffffff168273ffffffffffffffffffffffffffffffffffffffff16141561247d576040517fd92e233d00000000000000000000000000000000000000000000000000000000815260040160405180910390fd5b612488838383612b5d565b612493600082612222565b6001601460008573ffffffffffffffffffffffffffffffffffffffff1673ffffffffffffffffffffffffffffffffffffffff16815260200190815260200160002060008282546124e39190613cab565b925050819055506001601460008473ffffffffffffffffffffffffffffffffffffffff1673ffffffffffffffffffffffffffffffffffffffff168152602001908152602001600020600082825461253a9190613bca565b92505081905550816013600083815260200190815260200160002060006101000a81548173ffffffffffffffffffffffffffffffffffffffff021916908373ffffffffffffffffffffffffffffffffffffffff160217905550808273ffffffffffffffffffffffffffffffffffffffff168473ffffffffffffffffffffffffffffffffffffffff167fddf252ad1be2c89b69c2b068fc378daa952ba7f163c4a11628f55a4df523b3ef60405160405180910390a46125f9838383612b62565b505050565b612698838383604051602401612616939291906139d8565b6040516020818303038152906040527f969cdd03000000000000000000000000000000000000000000000000000000007bffffffffffffffffffffffffffffffffffffffffffffffffffffffff19166020820180517bffffffffffffffffffffffffffffffffffffffffffffffffffffffff8381831617835250505050612b67565b505050565b600081600001549050919050565b600073ffffffffffffffffffffffffffffffffffffffff168273ffffffffffffffffffffffffffffffffffffffff161415612712576040517fd92e233d00000000000000000000000000000000000000000000000000000000815260040160405180910390fd5b8173ffffffffffffffffffffffffffffffffffffffff168373ffffffffffffffffffffffffffffffffffffffff161415612778576040517ff4b33eeb00000000000000000000000000000000000000000000000000000000815260040160405180910390fd5b80601660008573ffffffffffffffffffffffffffffffffffffffff1673ffffffffffffffffffffffffffffffffffffffff16815260200190815260200160002060008473ffffffffffffffffffffffffffffffffffffffff1673ffffffffffffffffffffffffffffffffffffffff16815260200190815260200160002060006101000a81548160ff0219169083151502179055508173ffffffffffffffffffffffffffffffffffffffff168373ffffffffffffffffffffffffffffffffffffffff167f17307eab39ab6107e8899845ad3d59bd9653f200f220920489ca2b5937696c31836040516128699190613911565b60405180910390a3505050565b6128818484846123a9565b61288d84848484612b90565b6128c3576040517f44ccafd600000000000000000000000000000000000000000000000000000000815260040160405180910390fd5b50505050565b60606000821415612911576040518060400160405280600181526020017f30000000000000000000000000000000000000000000000000000000000000008152509050612a71565b600082905060005b6000821461294357808061292c90613e3d565b915050600a8261293c9190613c20565b9150612919565b60008167ffffffffffffffff811115612985577f4e487b7100000000000000000000000000000000000000000000000000000000600052604160045260246000fd5b6040519080825280601f01601f1916602001820160405280156129b75781602001600182028036833780820191505090505b5090505b60008514612a6a576001826129d09190613cab565b9150600a856129df9190613e86565b60306129eb9190613bca565b60f81b818381518110612a27577f4e487b7100000000000000000000000000000000000000000000000000000000600052603260045260246000fd5b60200101907effffffffffffffffffffffffffffffffffffffffffffffffffffffffffffff1916908160001a905350600a85612a639190613c20565b94506129bb565b8093505050505b919050565b600080823b905060008111915050919050565b60008073ffffffffffffffffffffffffffffffffffffffff166013600084815260200190815260200160002060009054906101000a900473ffffffffffffffffffffffffffffffffffffffff1673ffffffffffffffffffffffffffffffffffffffff1614159050919050565b6001816000016000828254019250508190555050565b612b158383612d1e565b612b226000848484612b90565b612b58576040517f44ccafd600000000000000000000000000000000000000000000000000000000815260040160405180910390fd5b505050565b505050565b505050565b60008151905060006a636f6e736f6c652e6c6f679050602083016000808483855afa5050505050565b6000612bb18473ffffffffffffffffffffffffffffffffffffffff16612a76565b15612d11578373ffffffffffffffffffffffffffffffffffffffff1663150b7a02612bda61221a565b8786866040518563ffffffff1660e01b8152600401612bfc949392919061387a565b602060405180830381600087803b158015612c1657600080fd5b505af1925050508015612c4757506040513d601f19601f82011682018060405250810190612c44919061344a565b60015b612cc1573d8060008114612c77576040519150601f19603f3d011682016040523d82523d6000602084013e612c7c565b606091505b50600081511415612cb9576040517f44ccafd600000000000000000000000000000000000000000000000000000000815260040160405180910390fd5b805181602001fd5b63150b7a0260e01b7bffffffffffffffffffffffffffffffffffffffffffffffffffffffff1916817bffffffffffffffffffffffffffffffffffffffffffffffffffffffff191614915050612d16565b600190505b949350505050565b600073ffffffffffffffffffffffffffffffffffffffff168273ffffffffffffffffffffffffffffffffffffffff161415612d85576040517fd92e233d00000000000000000000000000000000000000000000000000000000815260040160405180910390fd5b612d8e81612a89565b15612dc4576040517ea5a1f500000000000000000000000000000000000000000000000000000000815260040160405180910390fd5b612dd060008383612b5d565b6001601460008473ffffffffffffffffffffffffffffffffffffffff1673ffffffffffffffffffffffffffffffffffffffff1681526020019081526020016000206000828254612e209190613bca565b92505081905550816013600083815260200190815260200160002060006101000a81548173ffffffffffffffffffffffffffffffffffffffff021916908373ffffffffffffffffffffffffffffffffffffffff160217905550808273ffffffffffffffffffffffffffffffffffffffff16600073ffffffffffffffffffffffffffffffffffffffff167fddf252ad1be2c89b69c2b068fc378daa952ba7f163c4a11628f55a4df523b3ef60405160405180910390a4612ee160008383612b62565b5050565b828054612ef190613dda565b90600052602060002090601f016020900481019282612f135760008555612f5a565b82601f10612f2c57805160ff1916838001178555612f5a565b82800160010185558215612f5a579182015b82811115612f59578251825591602001919060010190612f3e565b5b509050612f679190612ff1565b5090565b828054612f7790613dda565b90600052602060002090601f016020900481019282612f995760008555612fe0565b82601f10612fb257803560ff1916838001178555612fe0565b82800160010185558215612fe0579182015b82811115612fdf578235825591602001919060010190612fc4565b5b509050612fed9190612ff1565b5090565b5b8082111561300a576000816000905550600101612ff2565b5090565b600061302161301c84613adb565b613ab6565b90508281526020810184848401111561303957600080fd5b613044848285613d98565b509392505050565b600061305f61305a84613b0c565b613ab6565b90508281526020810184848401111561307757600080fd5b613082848285613d98565b509392505050565b60008135905061309981613ffc565b92915050565b6000813590506130ae81614013565b92915050565b6000815190506130c381614013565b92915050565b6000813590506130d88161402a565b92915050565b6000815190506130ed8161402a565b92915050565b600082601f83011261310457600080fd5b813561311484826020860161300e565b91505092915050565b60008135905061312c81614041565b92915050565b60008083601f84011261314457600080fd5b8235905067ffffffffffffffff81111561315d57600080fd5b60208301915083600182028301111561317557600080fd5b9250929050565b600082601f83011261318d57600080fd5b813561319d84826020860161304c565b91505092915050565b6000813590506131b581614058565b92915050565b6000815190506131ca81614058565b92915050565b6000602082840312156131e257600080fd5b60006131f08482850161308a565b91505092915050565b6000806040838503121561320c57600080fd5b600061321a8582860161308a565b925050602061322b8582860161308a565b9150509250929050565b60008060006060848603121561324a57600080fd5b60006132588682870161308a565b93505060206132698682870161308a565b925050604061327a868287016131a6565b9150509250925092565b6000806000806080858703121561329a57600080fd5b60006132a88782880161308a565b94505060206132b98782880161308a565b93505060406132ca878288016131a6565b925050606085013567ffffffffffffffff8111156132e757600080fd5b6132f3878288016130f3565b91505092959194509250565b6000806040838503121561331257600080fd5b60006133208582860161308a565b92505060206133318582860161309f565b9150509250929050565b60008060006040848603121561335057600080fd5b600061335e8682870161308a565b935050602084013567ffffffffffffffff81111561337b57600080fd5b61338786828701613132565b92509250509250925092565b600080604083850312156133a657600080fd5b60006133b48582860161308a565b92505060206133c5858286016131a6565b9150509250929050565b6000602082840312156133e157600080fd5b60006133ef8482850161309f565b91505092915050565b60006020828403121561340a57600080fd5b6000613418848285016130b4565b91505092915050565b60006020828403121561343357600080fd5b6000613441848285016130c9565b91505092915050565b60006020828403121561345c57600080fd5b600061346a848285016130de565b91505092915050565b60006020828403121561348557600080fd5b60006134938482850161311d565b91505092915050565b6000602082840312156134ae57600080fd5b600082013567ffffffffffffffff8111156134c857600080fd5b6134d48482850161317c565b91505092915050565b6000806000606084860312156134f257600080fd5b600084013567ffffffffffffffff81111561350c57600080fd5b6135188682870161317c565b935050602084013567ffffffffffffffff81111561353557600080fd5b6135418682870161317c565b92505060406135528682870161308a565b9150509250925092565b60006020828403121561356e57600080fd5b600061357c848285016131a6565b91505092915050565b60006020828403121561359757600080fd5b60006135a5848285016131bb565b91505092915050565b6000806000606084860312156135c357600080fd5b60006135d1868287016131a6565b93505060206135e2868287016131a6565b92505060406135f3868287016131a6565b9150509250925092565b6000613609838361380e565b60208301905092915050565b61361e81613cdf565b82525050565b61362d81613cdf565b82525050565b600061363e82613b4d565b6136488185613b7b565b935061365383613b3d565b8060005b8381101561368457815161366b88826135fd565b975061367683613b6e565b925050600181019050613657565b5085935050505092915050565b61369a81613cf1565b82525050565b60006136ab82613b58565b6136b58185613b8c565b93506136c5818560208601613da7565b6136ce81613f73565b840191505092915050565b6136e281613d86565b82525050565b60006136f382613b63565b6136fd8185613b9d565b935061370d818560208601613da7565b61371681613f73565b840191505092915050565b600061372c82613b63565b6137368185613bae565b9350613746818560208601613da7565b61374f81613f73565b840191505092915050565b600061376582613b63565b61376f8185613bbf565b935061377f818560208601613da7565b80840191505092915050565b6000613798602e83613bae565b91506137a382613f84565b604082019050919050565b60006137bb601f83613bae565b91506137c682613fd3565b602082019050919050565b60006040830160008301516137e96000860182613615565b506020830151848203602086015261380182826136e8565b9150508091505092915050565b61381781613d5b565b82525050565b61382681613d5b565b82525050565b61383581613d65565b82525050565b6000613847828561375a565b9150613853828461375a565b91508190509392505050565b60006020820190506138746000830184613624565b92915050565b600060808201905061388f6000830187613624565b61389c6020830186613624565b6138a9604083018561381d565b81810360608301526138bb81846136a0565b905095945050505050565b60006040820190506138db6000830185613624565b6138e8602083018461381d565b9392505050565b600060208201905081810360008301526139098184613633565b905092915050565b60006020820190506139266000830184613691565b92915050565b600060a082019050818103600083015261394681886136a0565b9050818103602083015261395a81876137d1565b9050818103604083015261396e81866136a0565b905061397d606083018561382c565b818103608083015261398f81846136a0565b90509695505050505050565b60006020820190506139b060008301846136d9565b92915050565b600060208201905081810360008301526139d08184613721565b905092915050565b600060608201905081810360008301526139f28186613721565b9050613a01602083018561381d565b613a0e604083018461381d565b949350505050565b60006020820190508181036000830152613a2f8161378b565b9050919050565b60006020820190508181036000830152613a4f816137ae565b9050919050565b6000602082019050613a6b600083018461381d565b92915050565b6000608082019050613a86600083018761381d565b613a93602083018661381d565b613aa0604083018561381d565b613aad6060830184613691565b95945050505050565b6000613ac0613ad1565b9050613acc8282613e0c565b919050565b6000604051905090565b600067ffffffffffffffff821115613af657613af5613f44565b5b613aff82613f73565b9050602081019050919050565b600067ffffffffffffffff821115613b2757613b26613f44565b5b613b3082613f73565b9050602081019050919050565b6000819050602082019050919050565b600081519050919050565b600081519050919050565b600081519050919050565b6000602082019050919050565b600082825260208201905092915050565b600082825260208201905092915050565b600082825260208201905092915050565b600082825260208201905092915050565b600081905092915050565b6000613bd582613d5b565b9150613be083613d5b565b9250827fffffffffffffffffffffffffffffffffffffffffffffffffffffffffffffffff03821115613c1557613c14613eb7565b5b828201905092915050565b6000613c2b82613d5b565b9150613c3683613d5b565b925082613c4657613c45613ee6565b5b828204905092915050565b6000613c5c82613d5b565b9150613c6783613d5b565b9250817fffffffffffffffffffffffffffffffffffffffffffffffffffffffffffffffff0483118215151615613ca057613c9f613eb7565b5b828202905092915050565b6000613cb682613d5b565b9150613cc183613d5b565b925082821015613cd457613cd3613eb7565b5b828203905092915050565b6000613cea82613d3b565b9050919050565b60008115159050919050565b60007fffffffff0000000000000000000000000000000000000000000000000000000082169050919050565b6000613d3482613cdf565b9050919050565b600073ffffffffffffffffffffffffffffffffffffffff82169050919050565b6000819050919050565b600067ffffffffffffffff82169050919050565b600060ff82169050919050565b6000613d9182613d79565b9050919050565b82818337600083830152505050565b60005b83811015613dc5578082015181840152602081019050613daa565b83811115613dd4576000848401525b50505050565b60006002820490506001821680613df257607f821691505b60208210811415613e0657613e05613f15565b5b50919050565b613e1582613f73565b810181811067ffffffffffffffff82111715613e3457613e33613f44565b5b80604052505050565b6000613e4882613d5b565b91507fffffffffffffffffffffffffffffffffffffffffffffffffffffffffffffffff821415613e7b57613e7a613eb7565b5b600182019050919050565b6000613e9182613d5b565b9150613e9c83613d5b565b925082613eac57613eab613ee6565b5b828206905092915050565b7f4e487b7100000000000000000000000000000000000000000000000000000000600052601160045260246000fd5b7f4e487b7100000000000000000000000000000000000000000000000000000000600052601260045260246000fd5b7f4e487b7100000000000000000000000000000000000000000000000000000000600052602260045260246000fd5b7f4e487b7100000000000000000000000000000000000000000000000000000000600052604160045260246000fd5b6000601f19601f8301169050919050565b7f496e697469616c697a61626c653a20636f6e747261637420697320616c72656160008201527f647920696e697469616c697a6564000000000000000000000000000000000000602082015250565b7f5265656e7472616e637947756172643a207265656e7472616e742063616c6c00600082015250565b61400581613cdf565b811461401057600080fd5b50565b61401c81613cf1565b811461402757600080fd5b50565b61403381613cfd565b811461403e57600080fd5b50565b61404a81613d29565b811461405557600080fd5b50565b61406181613d5b565b811461406c57600080fd5b5056fea2646970667358221220251f76743c9bbbd5c5eb5d5f95ebe1d4331dabed237de68fcc28d6b068c80d5f64736f6c63430008040033",
  "linkReferences": {},
  "deployedLinkReferences": {}
}