{
  "_format": "hh-sol-artifact-1",
  "contractName": "ERC721",
  "sourceName": "contracts/ERC721.sol",
  "abi": [
    {
      "inputs": [
        {
          "internalType": "address",
          "name": "_owner",
          "type": "address"
        }
      ],
      "stateMutability": "nonpayable",
      "type": "constructor"
    },
    {
      "inputs": [],
      "name": "AlreadyInitialized",
      "type": "error"
    },
    {
      "inputs": [],
      "name": "IncorrectOwner",
      "type": "error"
    },
    {
      "inputs": [],
      "name": "InsufficientAllowance",
      "type": "error"
    },
    {
      "inputs": [],
      "name": "InsufficientBalance",
      "type": "error"
    },
    {
      "inputs": [],
      "name": "InvalidTokenId",
      "type": "error"
    },
    {
      "inputs": [],
      "name": "MissingERC721Receiver",
      "type": "error"
    },
    {
      "inputs": [],
      "name": "NotACollection",
      "type": "error"
    },
    {
      "inputs": [],
      "name": "PublicMintInactive",
      "type": "error"
    },
    {
      "inputs": [],
      "name": "SameAddress",
      "type": "error"
    },
    {
      "inputs": [],
      "name": "SameOwnerAndOperator",
      "type": "error"
    },
    {
      "inputs": [],
      "name": "TokenAlreadyMinted",
      "type": "error"
    },
    {
      "inputs": [],
      "name": "Unauthorized",
      "type": "error"
    },
    {
      "inputs": [],
      "name": "ZeroAddress",
      "type": "error"
    },
    {
      "anonymous": false,
      "inputs": [
        {
          "indexed": true,
          "internalType": "address",
          "name": "owner",
          "type": "address"
        },
        {
          "indexed": true,
          "internalType": "address",
          "name": "approved",
          "type": "address"
        },
        {
          "indexed": true,
          "internalType": "uint256",
          "name": "tokenId",
          "type": "uint256"
        }
      ],
      "name": "Approval",
      "type": "event"
    },
    {
      "anonymous": false,
      "inputs": [
        {
          "indexed": true,
          "internalType": "address",
          "name": "owner",
          "type": "address"
        },
        {
          "indexed": true,
          "internalType": "address",
          "name": "operator",
          "type": "address"
        },
        {
          "indexed": false,
          "internalType": "bool",
          "name": "approved",
          "type": "bool"
        }
      ],
      "name": "ApprovalForAll",
      "type": "event"
    },
    {
      "anonymous": false,
      "inputs": [
        {
          "indexed": false,
          "internalType": "uint8",
          "name": "version",
          "type": "uint8"
        }
      ],
      "name": "Initialized",
      "type": "event"
    },
    {
      "anonymous": false,
      "inputs": [
        {
          "indexed": true,
          "internalType": "address",
          "name": "from",
          "type": "address"
        },
        {
          "indexed": true,
          "internalType": "address",
          "name": "to",
          "type": "address"
        },
        {
          "indexed": true,
          "internalType": "uint256",
          "name": "tokenId",
          "type": "uint256"
        }
      ],
      "name": "Transfer",
      "type": "event"
    },
    {
      "inputs": [],
      "name": "_tenantOwner",
      "outputs": [
        {
          "internalType": "address",
          "name": "",
          "type": "address"
        }
      ],
      "stateMutability": "view",
      "type": "function"
    },
    {
      "inputs": [
        {
          "internalType": "address",
          "name": "_to",
          "type": "address"
        },
        {
          "internalType": "uint256",
          "name": "_tokenId",
          "type": "uint256"
        }
      ],
      "name": "approve",
      "outputs": [],
      "stateMutability": "nonpayable",
      "type": "function"
    },
    {
      "inputs": [
        {
          "internalType": "address",
          "name": "_owner",
          "type": "address"
        }
      ],
      "name": "balanceOf",
      "outputs": [
        {
          "internalType": "uint256",
          "name": "",
          "type": "uint256"
        }
      ],
      "stateMutability": "view",
      "type": "function"
    },
    {
      "inputs": [],
      "name": "contractOwner",
      "outputs": [
        {
          "internalType": "address",
          "name": "",
          "type": "address"
        }
      ],
      "stateMutability": "view",
      "type": "function"
    },
    {
      "inputs": [
        {
          "internalType": "uint256",
          "name": "_tokenId",
          "type": "uint256"
        }
      ],
      "name": "getApproved",
      "outputs": [
        {
          "internalType": "address",
          "name": "",
          "type": "address"
        }
      ],
      "stateMutability": "view",
      "type": "function"
    },
    {
      "inputs": [],
      "name": "getBaseURI",
      "outputs": [
        {
          "internalType": "string",
          "name": "",
          "type": "string"
        }
      ],
      "stateMutability": "view",
      "type": "function"
    },
    {
      "inputs": [
        {
          "internalType": "string",
          "name": "name_",
          "type": "string"
        },
        {
          "internalType": "string",
          "name": "symbol_",
          "type": "string"
        },
        {
          "internalType": "bool",
          "name": "isCollection_",
          "type": "bool"
        },
        {
          "internalType": "address",
          "name": "tenant_",
          "type": "address"
        }
      ],
      "name": "initialize",
      "outputs": [],
      "stateMutability": "nonpayable",
      "type": "function"
    },
    {
      "inputs": [
        {
          "internalType": "address",
          "name": "_owner",
          "type": "address"
        },
        {
          "internalType": "address",
          "name": "_operator",
          "type": "address"
        }
      ],
      "name": "isApprovedForAll",
      "outputs": [
        {
          "internalType": "bool",
          "name": "",
          "type": "bool"
        }
      ],
      "stateMutability": "view",
      "type": "function"
    },
    {
      "inputs": [],
      "name": "isPublicSaleActive",
      "outputs": [
        {
          "internalType": "bool",
          "name": "",
          "type": "bool"
        }
      ],
      "stateMutability": "view",
      "type": "function"
    },
    {
      "inputs": [],
      "name": "metadata",
      "outputs": [
        {
          "internalType": "bytes",
          "name": "title",
          "type": "bytes"
        },
        {
          "components": [
            {
              "internalType": "address",
              "name": "authorAddress",
              "type": "address"
            },
            {
              "internalType": "string",
              "name": "externalLink",
              "type": "string"
            }
          ],
          "internalType": "struct IHyperverseModule.Author",
          "name": "author",
          "type": "tuple"
        },
        {
          "internalType": "bytes",
          "name": "version",
          "type": "bytes"
        },
        {
          "internalType": "uint64",
          "name": "publishedAt",
          "type": "uint64"
        },
        {
          "internalType": "bytes",
          "name": "externalLink",
          "type": "bytes"
        }
      ],
      "stateMutability": "view",
      "type": "function"
    },
    {
      "inputs": [
        {
          "internalType": "address",
          "name": "_to",
          "type": "address"
        }
      ],
      "name": "mint",
      "outputs": [
        {
          "internalType": "uint256",
          "name": "",
          "type": "uint256"
        }
      ],
      "stateMutability": "payable",
      "type": "function"
    },
    {
      "inputs": [],
      "name": "name",
      "outputs": [
        {
          "internalType": "string",
          "name": "",
          "type": "string"
        }
      ],
      "stateMutability": "view",
      "type": "function"
    },
    {
      "inputs": [
        {
          "internalType": "uint256",
          "name": "_tokenId",
          "type": "uint256"
        }
      ],
      "name": "ownerOf",
      "outputs": [
        {
          "internalType": "address",
          "name": "",
          "type": "address"
        }
      ],
      "stateMutability": "view",
      "type": "function"
    },
    {
      "inputs": [],
      "name": "price",
      "outputs": [
        {
          "internalType": "uint256",
          "name": "",
          "type": "uint256"
        }
      ],
      "stateMutability": "view",
      "type": "function"
    },
    {
      "inputs": [
        {
          "internalType": "address",
          "name": "_from",
          "type": "address"
        },
        {
          "internalType": "address",
          "name": "_to",
          "type": "address"
        },
        {
          "internalType": "uint256",
          "name": "_tokenId",
          "type": "uint256"
        }
      ],
      "name": "safeTransferFrom",
      "outputs": [],
      "stateMutability": "nonpayable",
      "type": "function"
    },
    {
      "inputs": [
        {
          "internalType": "address",
          "name": "_from",
          "type": "address"
        },
        {
          "internalType": "address",
          "name": "_to",
          "type": "address"
        },
        {
          "internalType": "uint256",
          "name": "_tokenId",
          "type": "uint256"
        },
        {
          "internalType": "bytes",
          "name": "_data",
          "type": "bytes"
        }
      ],
      "name": "safeTransferFrom",
      "outputs": [],
      "stateMutability": "nonpayable",
      "type": "function"
    },
    {
      "inputs": [
        {
          "internalType": "address",
          "name": "_operator",
          "type": "address"
        },
        {
          "internalType": "bool",
          "name": "_approved",
          "type": "bool"
        }
      ],
      "name": "setApprovalForAll",
      "outputs": [],
      "stateMutability": "nonpayable",
      "type": "function"
    },
    {
      "inputs": [
        {
          "internalType": "string",
          "name": "baseURI_",
          "type": "string"
        }
      ],
      "name": "setBaseURI",
      "outputs": [],
      "stateMutability": "nonpayable",
      "type": "function"
    },
    {
      "inputs": [
        {
          "internalType": "bool",
          "name": "_isActive",
          "type": "bool"
        }
      ],
      "name": "setMintPermissions",
      "outputs": [],
      "stateMutability": "nonpayable",
      "type": "function"
    },
    {
      "inputs": [
        {
          "internalType": "uint256",
          "name": "_price",
          "type": "uint256"
        }
      ],
      "name": "setMintPrice",
      "outputs": [],
      "stateMutability": "nonpayable",
      "type": "function"
    },
    {
      "inputs": [
        {
          "internalType": "bytes4",
          "name": "_interfaceId",
          "type": "bytes4"
        }
      ],
      "name": "supportsInterface",
      "outputs": [
        {
          "internalType": "bool",
          "name": "",
          "type": "bool"
        }
      ],
      "stateMutability": "view",
      "type": "function"
    },
    {
      "inputs": [],
      "name": "symbol",
      "outputs": [
        {
          "internalType": "string",
          "name": "",
          "type": "string"
        }
      ],
      "stateMutability": "view",
      "type": "function"
    },
    {
      "inputs": [
        {
          "internalType": "address",
          "name": "_reciever",
          "type": "address"
        }
      ],
      "name": "tenantMint",
      "outputs": [
        {
          "internalType": "uint256",
          "name": "",
          "type": "uint256"
        }
      ],
      "stateMutability": "nonpayable",
      "type": "function"
    },
    {
      "inputs": [
        {
          "internalType": "address",
          "name": "_to",
          "type": "address"
        },
        {
          "internalType": "string",
          "name": "_uri",
          "type": "string"
        }
      ],
      "name": "tenantMint",
      "outputs": [
        {
          "internalType": "uint256",
          "name": "",
          "type": "uint256"
        }
      ],
      "stateMutability": "nonpayable",
      "type": "function"
    },
    {
      "inputs": [
        {
          "internalType": "uint256",
          "name": "_tokenId",
          "type": "uint256"
        }
      ],
      "name": "tokenURI",
      "outputs": [
        {
          "internalType": "string",
          "name": "",
          "type": "string"
        }
      ],
      "stateMutability": "view",
      "type": "function"
    },
    {
      "inputs": [
        {
          "internalType": "address",
          "name": "_from",
          "type": "address"
        },
        {
          "internalType": "address",
          "name": "_to",
          "type": "address"
        },
        {
          "internalType": "uint256",
          "name": "_tokenId",
          "type": "uint256"
        }
      ],
      "name": "transferFrom",
      "outputs": [],
      "stateMutability": "nonpayable",
      "type": "function"
    },
    {
      "inputs": [],
      "name": "withdraw",
      "outputs": [],
      "stateMutability": "nonpayable",
      "type": "function"
    },
    {
      "inputs": [
        {
          "internalType": "contract IERC20",
          "name": "_token",
          "type": "address"
        }
      ],
      "name": "withdrawTokens",
      "outputs": [],
      "stateMutability": "nonpayable",
      "type": "function"
    }
  ],
  "bytecode": "0x60a06040523480156200001157600080fd5b5060405162003db838038062003db883398181016040528101906200003791906200040c565b60016000819055506040518060a001604052806040518060400160405280600681526020017f4552433732310000000000000000000000000000000000000000000000000000815250815260200160405180604001604052808473ffffffffffffffffffffffffffffffffffffffff1681526020016040518060400160405280601881526020017f68747470733a2f2f65787465726e616c6c696e6b2e6e6574000000000000000081525081525081526020016040518060400160405280600581526020017f302e302e31000000000000000000000000000000000000000000000000000000815250815260200165032a361e860667ffffffffffffffff1681526020016040518060400160405280601881526020017f68747470733a2f2f65787465726e616c4c696e6b2e6e657400000000000000008152508152506002600082015181600001908051906020019062000194929190620002b4565b5060208201518160010160008201518160000160006101000a81548173ffffffffffffffffffffffffffffffffffffffff021916908373ffffffffffffffffffffffffffffffffffffffff16021790555060208201518160010190805190602001906200020392919062000345565b505050604082015181600301908051906020019062000224929190620002b4565b5060608201518160040160006101000a81548167ffffffffffffffff021916908367ffffffffffffffff160217905550608082015181600501908051906020019062000272929190620002b4565b509050508073ffffffffffffffffffffffffffffffffffffffff1660808173ffffffffffffffffffffffffffffffffffffffff1660601b8152505050620004eb565b828054620002c2906200046c565b90600052602060002090601f016020900481019282620002e6576000855562000332565b82601f106200030157805160ff191683800117855562000332565b8280016001018555821562000332579182015b828111156200033157825182559160200191906001019062000314565b5b509050620003419190620003d6565b5090565b82805462000353906200046c565b90600052602060002090601f016020900481019282620003775760008555620003c3565b82601f106200039257805160ff1916838001178555620003c3565b82800160010185558215620003c3579182015b82811115620003c2578251825591602001919060010190620003a5565b5b509050620003d29190620003d6565b5090565b5b80821115620003f1576000816000905550600101620003d7565b5090565b6000815190506200040681620004d1565b92915050565b6000602082840312156200041f57600080fd5b60006200042f84828501620003f5565b91505092915050565b600062000445826200044c565b9050919050565b600073ffffffffffffffffffffffffffffffffffffffff82169050919050565b600060028204905060018216806200048557607f821691505b602082108114156200049c576200049b620004a2565b5b50919050565b7f4e487b7100000000000000000000000000000000000000000000000000000000600052602260045260246000fd5b620004dc8162000438565b8114620004e857600080fd5b50565b60805160601c6138ae6200050a60003960006119e701526138ae6000f3fe6080604052600436106101b75760003560e01c80634f6671f2116100ec578063a035b1fe1161008a578063c87b56dd11610064578063c87b56dd14610613578063ce606ee014610650578063e985e9c51461067b578063f4a0a528146106b8576101b7565b8063a035b1fe14610596578063a22cb465146105c1578063b88d4fde146105ea576101b7565b80636a627842116100c65780636a627842146104d357806370a0823114610503578063714c53981461054057806395d89b411461056b576101b7565b80634f6671f21461044457806355f804b31461046d5780636352211e14610496576101b7565b806323b872dd116101595780633ccfd60b116101335780633ccfd60b146103b25780633e2b81c4146103c957806342842e0e146103f257806349df728c1461041b576101b7565b806323b872dd1461031d57806327fbceac14610346578063392f37e914610383576101b7565b8063095ea7b311610195578063095ea7b3146102615780630b8eb2cf1461028a5780631e84c413146102b5578063217cc2b4146102e0576101b7565b806301ffc9a7146101bc57806306fdde03146101f9578063081812fc14610224575b600080fd5b3480156101c857600080fd5b506101e360048036038101906101de9190612e22565b6106e1565b6040516101f09190613230565b60405180910390f35b34801561020557600080fd5b5061020e6107c3565b60405161021b91906132d5565b60405180910390f35b34801561023057600080fd5b5061024b60048036038101906102469190612f71565b610855565b60405161025891906131a0565b60405180910390f35b34801561026d57600080fd5b5061028860048036038101906102839190612d94565b61089b565b005b34801561029657600080fd5b5061029f6109a4565b6040516102ac91906131a0565b60405180910390f35b3480156102c157600080fd5b506102ca6109ca565b6040516102d79190613230565b60405180910390f35b3480156102ec57600080fd5b5061030760048036038101906103029190612bd1565b6109dd565b6040516103149190613337565b60405180910390f35b34801561032957600080fd5b50610344600480360381019061033f9190612c36565b610ad3565b005b34801561035257600080fd5b5061036d60048036038101906103689190612d3c565b610b2a565b60405161037a9190613337565b60405180910390f35b34801561038f57600080fd5b50610398610c04565b6040516103a995949392919061324b565b60405180910390f35b3480156103be57600080fd5b506103c7610ec6565b005b3480156103d557600080fd5b506103f060048036038101906103eb9190612dd0565b610f9c565b005b3480156103fe57600080fd5b5061041960048036038101906104149190612c36565b61108e565b005b34801561042757600080fd5b50610442600480360381019061043d9190612e74565b6110ae565b005b34801561045057600080fd5b5061046b60048036038101906104669190612ede565b611254565b005b34801561047957600080fd5b50610494600480360381019061048f9190612e9d565b6113f6565b005b3480156104a257600080fd5b506104bd60048036038101906104b89190612f71565b611497565b6040516104ca91906131a0565b60405180910390f35b6104ed60048036038101906104e89190612bd1565b611540565b6040516104fa9190613337565b60405180910390f35b34801561050f57600080fd5b5061052a60048036038101906105259190612bd1565b611640565b6040516105379190613337565b60405180910390f35b34801561054c57600080fd5b506105556116ef565b60405161056291906132d5565b60405180910390f35b34801561057757600080fd5b50610580611781565b60405161058d91906132d5565b60405180910390f35b3480156105a257600080fd5b506105ab611813565b6040516105b89190613337565b60405180910390f35b3480156105cd57600080fd5b506105e860048036038101906105e39190612d00565b611819565b005b3480156105f657600080fd5b50610611600480360381019061060c9190612c85565b61182f565b005b34801561061f57600080fd5b5061063a60048036038101906106359190612f71565b611888565b60405161064791906132d5565b60405180910390f35b34801561065c57600080fd5b506106656119e5565b60405161067291906131a0565b60405180910390f35b34801561068757600080fd5b506106a2600480360381019061069d9190612bfa565b611a09565b6040516106af9190613230565b60405180910390f35b3480156106c457600080fd5b506106df60048036038101906106da9190612f71565b611a9d565b005b60007f80ac58cd000000000000000000000000000000000000000000000000000000007bffffffffffffffffffffffffffffffffffffffffffffffffffffffff1916827bffffffffffffffffffffffffffffffffffffffffffffffffffffffff191614806107ac57507f5b5e139f000000000000000000000000000000000000000000000000000000007bffffffffffffffffffffffffffffffffffffffffffffffffffffffff1916827bffffffffffffffffffffffffffffffffffffffffffffffffffffffff1916145b806107bc57506107bb82611b2e565b5b9050919050565b6060600b80546107d2906135e3565b80601f01602080910402602001604051908101604052809291908181526020018280546107fe906135e3565b801561084b5780601f106108205761010080835404028352916020019161084b565b820191906000526020600020905b81548152906001019060200180831161082e57829003601f168201915b5050505050905090565b600061086082611b98565b6012600083815260200190815260200160002060009054906101000a900473ffffffffffffffffffffffffffffffffffffffff169050919050565b60006108a682611497565b90508273ffffffffffffffffffffffffffffffffffffffff168173ffffffffffffffffffffffffffffffffffffffff16141561090e576040517f367558c300000000000000000000000000000000000000000000000000000000815260040160405180910390fd5b8073ffffffffffffffffffffffffffffffffffffffff1661092d611bda565b73ffffffffffffffffffffffffffffffffffffffff1614158061095e575061095c81610957611bda565b611a09565b155b15610995576040517f82b4290000000000000000000000000000000000000000000000000000000000815260040160405180910390fd5b61099f8383611be2565b505050565b600960009054906101000a900473ffffffffffffffffffffffffffffffffffffffff1681565b600f60019054906101000a900460ff1681565b6000600960009054906101000a900473ffffffffffffffffffffffffffffffffffffffff1673ffffffffffffffffffffffffffffffffffffffff163373ffffffffffffffffffffffffffffffffffffffff1614610a66576040517f82b4290000000000000000000000000000000000000000000000000000000000815260040160405180910390fd5b60001515600f60009054906101000a900460ff1615151415610ab4576040517fdbc28d8300000000000000000000000000000000000000000000000000000000815260040160405180910390fd5b6000610abe611c9b565b9050610aca8382611cb6565b80915050919050565b610ae4610ade611bda565b82611cd4565b610b1a576040517f82b4290000000000000000000000000000000000000000000000000000000000815260040160405180910390fd5b610b25838383611d69565b505050565b6000600960009054906101000a900473ffffffffffffffffffffffffffffffffffffffff1673ffffffffffffffffffffffffffffffffffffffff163373ffffffffffffffffffffffffffffffffffffffff1614610bb3576040517f82b4290000000000000000000000000000000000000000000000000000000000815260040160405180910390fd5b6000610bbd611c9b565b9050610bc98582611cb6565b6000848490501115610bf9578383601460008481526020019081526020016000209190610bf79291906128e6565b505b809150509392505050565b6002806000018054610c15906135e3565b80601f0160208091040260200160405190810160405280929190818152602001828054610c41906135e3565b8015610c8e5780601f10610c6357610100808354040283529160200191610c8e565b820191906000526020600020905b815481529060010190602001808311610c7157829003601f168201915b505050505090806001016040518060400160405290816000820160009054906101000a900473ffffffffffffffffffffffffffffffffffffffff1673ffffffffffffffffffffffffffffffffffffffff1673ffffffffffffffffffffffffffffffffffffffff168152602001600182018054610d09906135e3565b80601f0160208091040260200160405190810160405280929190818152602001828054610d35906135e3565b8015610d825780601f10610d5757610100808354040283529160200191610d82565b820191906000526020600020905b815481529060010190602001808311610d6557829003601f168201915b50505050508152505090806003018054610d9b906135e3565b80601f0160208091040260200160405190810160405280929190818152602001828054610dc7906135e3565b8015610e145780601f10610de957610100808354040283529160200191610e14565b820191906000526020600020905b815481529060010190602001808311610df757829003601f168201915b5050505050908060040160009054906101000a900467ffffffffffffffff1690806005018054610e43906135e3565b80601f0160208091040260200160405190810160405280929190818152602001828054610e6f906135e3565b8015610ebc5780601f10610e9157610100808354040283529160200191610ebc565b820191906000526020600020905b815481529060010190602001808311610e9f57829003601f168201915b5050505050905085565b600960009054906101000a900473ffffffffffffffffffffffffffffffffffffffff1673ffffffffffffffffffffffffffffffffffffffff163373ffffffffffffffffffffffffffffffffffffffff1614610f4d576040517f82b4290000000000000000000000000000000000000000000000000000000000815260040160405180910390fd5b60004790503373ffffffffffffffffffffffffffffffffffffffff166108fc829081150290604051600060405180830381858888f19350505050158015610f98573d6000803e3d6000fd5b5050565b60001515600f60009054906101000a900460ff1615151415610fea576040517fdbc28d8300000000000000000000000000000000000000000000000000000000815260040160405180910390fd5b600960009054906101000a900473ffffffffffffffffffffffffffffffffffffffff1673ffffffffffffffffffffffffffffffffffffffff163373ffffffffffffffffffffffffffffffffffffffff1614611071576040517f82b4290000000000000000000000000000000000000000000000000000000000815260040160405180910390fd5b80600f60016101000a81548160ff02191690831515021790555050565b6110a98383836040518060200160405280600081525061182f565b505050565b600960009054906101000a900473ffffffffffffffffffffffffffffffffffffffff1673ffffffffffffffffffffffffffffffffffffffff163373ffffffffffffffffffffffffffffffffffffffff1614611135576040517f82b4290000000000000000000000000000000000000000000000000000000000815260040160405180910390fd5b60008173ffffffffffffffffffffffffffffffffffffffff166370a08231306040518263ffffffff1660e01b815260040161117091906131a0565b60206040518083038186803b15801561118857600080fd5b505afa15801561119c573d6000803e3d6000fd5b505050506040513d601f19601f820116820180604052508101906111c09190612f9a565b90508173ffffffffffffffffffffffffffffffffffffffff1663a9059cbb33836040518363ffffffff1660e01b81526004016111fd929190613207565b602060405180830381600087803b15801561121757600080fd5b505af115801561122b573d6000803e3d6000fd5b505050506040513d601f19601f8201168201806040525081019061124f9190612df9565b505050565b60006112606001611fbe565b905080156112835760018060016101000a81548160ff0219169083151502179055505b81600073ffffffffffffffffffffffffffffffffffffffff16600960009054906101000a900473ffffffffffffffffffffffffffffffffffffffff1673ffffffffffffffffffffffffffffffffffffffff161461130c576040517f0dc149f000000000000000000000000000000000000000000000000000000000815260040160405180910390fd5b85600b908051906020019061132292919061296c565b5084600c908051906020019061133992919061296c565b5082600960006101000a81548173ffffffffffffffffffffffffffffffffffffffff021916908373ffffffffffffffffffffffffffffffffffffffff16021790555083600f60006101000a81548160ff0219169083151502179055505080156113ef5760006001806101000a81548160ff0219169083151502179055507f7f26b83ff96e1f2b6a682f133852f6798a09c465da95921460cefb384740249860016040516113e691906132ba565b60405180910390a15b5050505050565b600960009054906101000a900473ffffffffffffffffffffffffffffffffffffffff1673ffffffffffffffffffffffffffffffffffffffff163373ffffffffffffffffffffffffffffffffffffffff161461147d576040517f82b4290000000000000000000000000000000000000000000000000000000000815260040160405180910390fd5b80600d908051906020019061149392919061296c565b5050565b6000806010600084815260200190815260200160002060009054906101000a900473ffffffffffffffffffffffffffffffffffffffff169050600073ffffffffffffffffffffffffffffffffffffffff168173ffffffffffffffffffffffffffffffffffffffff161415611537576040517f3f6cc76800000000000000000000000000000000000000000000000000000000815260040160405180910390fd5b80915050919050565b600060026000541415611588576040517f08c379a000000000000000000000000000000000000000000000000000000000815260040161157f90613317565b60405180910390fd5b600260008190555060001515600f60019054906101000a900460ff16151514156115de576040517f15b1bdcd00000000000000000000000000000000000000000000000000000000815260040160405180910390fd5b600e543414611619576040517ff4d678b800000000000000000000000000000000000000000000000000000000815260040160405180910390fd5b6000611623611c9b565b905061162f8382611cb6565b809150506001600081905550919050565b60008073ffffffffffffffffffffffffffffffffffffffff168273ffffffffffffffffffffffffffffffffffffffff1614156116a8576040517fd92e233d00000000000000000000000000000000000000000000000000000000815260040160405180910390fd5b601160008373ffffffffffffffffffffffffffffffffffffffff1673ffffffffffffffffffffffffffffffffffffffff168152602001908152602001600020549050919050565b6060600d80546116fe906135e3565b80601f016020809104026020016040519081016040528092919081815260200182805461172a906135e3565b80156117775780601f1061174c57610100808354040283529160200191611777565b820191906000526020600020905b81548152906001019060200180831161175a57829003601f168201915b5050505050905090565b6060600c8054611790906135e3565b80601f01602080910402602001604051908101604052809291908181526020018280546117bc906135e3565b80156118095780601f106117de57610100808354040283529160200191611809565b820191906000526020600020905b8154815290600101906020018083116117ec57829003601f168201915b5050505050905090565b600e5481565b61182b611824611bda565b83836120b0565b5050565b61184061183a611bda565b83611cd4565b611876576040517f82b4290000000000000000000000000000000000000000000000000000000000815260040160405180910390fd5b6118828484848461227b565b50505050565b606061189382611b98565b600f60009054906101000a900460ff166119875760006014600084815260200190815260200160002080546118c7906135e3565b9050116118e35760405180602001604052806000815250611980565b601460008381526020019081526020016000208054611901906135e3565b80601f016020809104026020016040519081016040528092919081815260200182805461192d906135e3565b801561197a5780601f1061194f5761010080835404028352916020019161197a565b820191906000526020600020905b81548152906001019060200180831161195d57829003601f168201915b50505050505b90506119e0565b60006119916122ce565b905060008151116119b157604051806020016040528060008152506119dc565b806119bb846122e5565b6040516020016119cc92919061317c565b6040516020818303038152906040525b9150505b919050565b7f000000000000000000000000000000000000000000000000000000000000000081565b6000601360008473ffffffffffffffffffffffffffffffffffffffff1673ffffffffffffffffffffffffffffffffffffffff16815260200190815260200160002060008373ffffffffffffffffffffffffffffffffffffffff1673ffffffffffffffffffffffffffffffffffffffff16815260200190815260200160002060009054906101000a900460ff16905092915050565b600960009054906101000a900473ffffffffffffffffffffffffffffffffffffffff1673ffffffffffffffffffffffffffffffffffffffff163373ffffffffffffffffffffffffffffffffffffffff1614611b24576040517f82b4290000000000000000000000000000000000000000000000000000000000815260040160405180910390fd5b80600e8190555050565b60007f01ffc9a7000000000000000000000000000000000000000000000000000000007bffffffffffffffffffffffffffffffffffffffffffffffffffffffff1916827bffffffffffffffffffffffffffffffffffffffffffffffffffffffff1916149050919050565b611ba181612492565b611bd7576040517f3f6cc76800000000000000000000000000000000000000000000000000000000815260040160405180910390fd5b50565b600033905090565b816012600083815260200190815260200160002060006101000a81548173ffffffffffffffffffffffffffffffffffffffff021916908373ffffffffffffffffffffffffffffffffffffffff160217905550808273ffffffffffffffffffffffffffffffffffffffff16611c5583611497565b73ffffffffffffffffffffffffffffffffffffffff167f8c5be1e5ebec7d5bd14f71427d1e84f3dd0314c0f7b2291e5b200ac8c7c3b92560405160405180910390a45050565b6000611ca7600a6124fe565b611cb1600a612514565b905090565b611cd0828260405180602001604052806000815250612522565b5050565b600080611ce083611497565b90508073ffffffffffffffffffffffffffffffffffffffff168473ffffffffffffffffffffffffffffffffffffffff161480611d225750611d218185611a09565b5b80611d6057508373ffffffffffffffffffffffffffffffffffffffff16611d4884610855565b73ffffffffffffffffffffffffffffffffffffffff16145b91505092915050565b8273ffffffffffffffffffffffffffffffffffffffff16611d8982611497565b73ffffffffffffffffffffffffffffffffffffffff1614611dd6576040517f3a6bbed300000000000000000000000000000000000000000000000000000000815260040160405180910390fd5b600073ffffffffffffffffffffffffffffffffffffffff168273ffffffffffffffffffffffffffffffffffffffff161415611e3d576040517fd92e233d00000000000000000000000000000000000000000000000000000000815260040160405180910390fd5b611e48838383612574565b611e53600082611be2565b6001601160008573ffffffffffffffffffffffffffffffffffffffff1673ffffffffffffffffffffffffffffffffffffffff1681526020019081526020016000206000828254611ea391906134b4565b925050819055506001601160008473ffffffffffffffffffffffffffffffffffffffff1673ffffffffffffffffffffffffffffffffffffffff1681526020019081526020016000206000828254611efa919061342d565b92505081905550816010600083815260200190815260200160002060006101000a81548173ffffffffffffffffffffffffffffffffffffffff021916908373ffffffffffffffffffffffffffffffffffffffff160217905550808273ffffffffffffffffffffffffffffffffffffffff168473ffffffffffffffffffffffffffffffffffffffff167fddf252ad1be2c89b69c2b068fc378daa952ba7f163c4a11628f55a4df523b3ef60405160405180910390a4611fb9838383612579565b505050565b600060018054906101000a900460ff16156120345760018260ff16148015611fec5750611fea3061257e565b155b61202b576040517f08c379a0000000000000000000000000000000000000000000000000000000008152600401612022906132f7565b60405180910390fd5b600090506120ab565b8160ff16600160009054906101000a900460ff1660ff161061208b576040517f08c379a0000000000000000000000000000000000000000000000000000000008152600401612082906132f7565b60405180910390fd5b81600160006101000a81548160ff021916908360ff160217905550600190505b919050565b600073ffffffffffffffffffffffffffffffffffffffff168273ffffffffffffffffffffffffffffffffffffffff161415612117576040517fd92e233d00000000000000000000000000000000000000000000000000000000815260040160405180910390fd5b8173ffffffffffffffffffffffffffffffffffffffff168373ffffffffffffffffffffffffffffffffffffffff16141561217d576040517ff4b33eeb00000000000000000000000000000000000000000000000000000000815260040160405180910390fd5b80601360008573ffffffffffffffffffffffffffffffffffffffff1673ffffffffffffffffffffffffffffffffffffffff16815260200190815260200160002060008473ffffffffffffffffffffffffffffffffffffffff1673ffffffffffffffffffffffffffffffffffffffff16815260200190815260200160002060006101000a81548160ff0219169083151502179055508173ffffffffffffffffffffffffffffffffffffffff168373ffffffffffffffffffffffffffffffffffffffff167f17307eab39ab6107e8899845ad3d59bd9653f200f220920489ca2b5937696c318360405161226e9190613230565b60405180910390a3505050565b612286848484611d69565b61229284848484612591565b6122c8576040517f44ccafd600000000000000000000000000000000000000000000000000000000815260040160405180910390fd5b50505050565b606060405180602001604052806000815250905090565b6060600082141561232d576040518060400160405280600181526020017f3000000000000000000000000000000000000000000000000000000000000000815250905061248d565b600082905060005b6000821461235f57808061234890613646565b915050600a826123589190613483565b9150612335565b60008167ffffffffffffffff8111156123a1577f4e487b7100000000000000000000000000000000000000000000000000000000600052604160045260246000fd5b6040519080825280601f01601f1916602001820160405280156123d35781602001600182028036833780820191505090505b5090505b60008514612486576001826123ec91906134b4565b9150600a856123fb919061368f565b6030612407919061342d565b60f81b818381518110612443577f4e487b7100000000000000000000000000000000000000000000000000000000600052603260045260246000fd5b60200101907effffffffffffffffffffffffffffffffffffffffffffffffffffffffffffff1916908160001a905350600a8561247f9190613483565b94506123d7565b8093505050505b919050565b60008073ffffffffffffffffffffffffffffffffffffffff166010600084815260200190815260200160002060009054906101000a900473ffffffffffffffffffffffffffffffffffffffff1673ffffffffffffffffffffffffffffffffffffffff1614159050919050565b6001816000016000828254019250508190555050565b600081600001549050919050565b61252c838361271f565b6125396000848484612591565b61256f576040517f44ccafd600000000000000000000000000000000000000000000000000000000815260040160405180910390fd5b505050565b505050565b505050565b600080823b905060008111915050919050565b60006125b28473ffffffffffffffffffffffffffffffffffffffff1661257e565b15612712578373ffffffffffffffffffffffffffffffffffffffff1663150b7a026125db611bda565b8786866040518563ffffffff1660e01b81526004016125fd94939291906131bb565b602060405180830381600087803b15801561261757600080fd5b505af192505050801561264857506040513d601f19601f820116820180604052508101906126459190612e4b565b60015b6126c2573d8060008114612678576040519150601f19603f3d011682016040523d82523d6000602084013e61267d565b606091505b506000815114156126ba576040517f44ccafd600000000000000000000000000000000000000000000000000000000815260040160405180910390fd5b805181602001fd5b63150b7a0260e01b7bffffffffffffffffffffffffffffffffffffffffffffffffffffffff1916817bffffffffffffffffffffffffffffffffffffffffffffffffffffffff191614915050612717565b600190505b949350505050565b600073ffffffffffffffffffffffffffffffffffffffff168273ffffffffffffffffffffffffffffffffffffffff161415612786576040517fd92e233d00000000000000000000000000000000000000000000000000000000815260040160405180910390fd5b61278f81612492565b156127c5576040517ea5a1f500000000000000000000000000000000000000000000000000000000815260040160405180910390fd5b6127d160008383612574565b6001601160008473ffffffffffffffffffffffffffffffffffffffff1673ffffffffffffffffffffffffffffffffffffffff1681526020019081526020016000206000828254612821919061342d565b92505081905550816010600083815260200190815260200160002060006101000a81548173ffffffffffffffffffffffffffffffffffffffff021916908373ffffffffffffffffffffffffffffffffffffffff160217905550808273ffffffffffffffffffffffffffffffffffffffff16600073ffffffffffffffffffffffffffffffffffffffff167fddf252ad1be2c89b69c2b068fc378daa952ba7f163c4a11628f55a4df523b3ef60405160405180910390a46128e260008383612579565b5050565b8280546128f2906135e3565b90600052602060002090601f016020900481019282612914576000855561295b565b82601f1061292d57803560ff191683800117855561295b565b8280016001018555821561295b579182015b8281111561295a57823582559160200191906001019061293f565b5b50905061296891906129f2565b5090565b828054612978906135e3565b90600052602060002090601f01602090048101928261299a57600085556129e1565b82601f106129b357805160ff19168380011785556129e1565b828001600101855582156129e1579182015b828111156129e05782518255916020019190600101906129c5565b5b5090506129ee91906129f2565b5090565b5b80821115612a0b5760008160009055506001016129f3565b5090565b6000612a22612a1d84613377565b613352565b905082815260208101848484011115612a3a57600080fd5b612a458482856135a1565b509392505050565b6000612a60612a5b846133a8565b613352565b905082815260208101848484011115612a7857600080fd5b612a838482856135a1565b509392505050565b600081359050612a9a81613805565b92915050565b600081359050612aaf8161381c565b92915050565b600081519050612ac48161381c565b92915050565b600081359050612ad981613833565b92915050565b600081519050612aee81613833565b92915050565b600082601f830112612b0557600080fd5b8135612b15848260208601612a0f565b91505092915050565b600081359050612b2d8161384a565b92915050565b60008083601f840112612b4557600080fd5b8235905067ffffffffffffffff811115612b5e57600080fd5b602083019150836001820283011115612b7657600080fd5b9250929050565b600082601f830112612b8e57600080fd5b8135612b9e848260208601612a4d565b91505092915050565b600081359050612bb681613861565b92915050565b600081519050612bcb81613861565b92915050565b600060208284031215612be357600080fd5b6000612bf184828501612a8b565b91505092915050565b60008060408385031215612c0d57600080fd5b6000612c1b85828601612a8b565b9250506020612c2c85828601612a8b565b9150509250929050565b600080600060608486031215612c4b57600080fd5b6000612c5986828701612a8b565b9350506020612c6a86828701612a8b565b9250506040612c7b86828701612ba7565b9150509250925092565b60008060008060808587031215612c9b57600080fd5b6000612ca987828801612a8b565b9450506020612cba87828801612a8b565b9350506040612ccb87828801612ba7565b925050606085013567ffffffffffffffff811115612ce857600080fd5b612cf487828801612af4565b91505092959194509250565b60008060408385031215612d1357600080fd5b6000612d2185828601612a8b565b9250506020612d3285828601612aa0565b9150509250929050565b600080600060408486031215612d5157600080fd5b6000612d5f86828701612a8b565b935050602084013567ffffffffffffffff811115612d7c57600080fd5b612d8886828701612b33565b92509250509250925092565b60008060408385031215612da757600080fd5b6000612db585828601612a8b565b9250506020612dc685828601612ba7565b9150509250929050565b600060208284031215612de257600080fd5b6000612df084828501612aa0565b91505092915050565b600060208284031215612e0b57600080fd5b6000612e1984828501612ab5565b91505092915050565b600060208284031215612e3457600080fd5b6000612e4284828501612aca565b91505092915050565b600060208284031215612e5d57600080fd5b6000612e6b84828501612adf565b91505092915050565b600060208284031215612e8657600080fd5b6000612e9484828501612b1e565b91505092915050565b600060208284031215612eaf57600080fd5b600082013567ffffffffffffffff811115612ec957600080fd5b612ed584828501612b7d565b91505092915050565b60008060008060808587031215612ef457600080fd5b600085013567ffffffffffffffff811115612f0e57600080fd5b612f1a87828801612b7d565b945050602085013567ffffffffffffffff811115612f3757600080fd5b612f4387828801612b7d565b9350506040612f5487828801612aa0565b9250506060612f6587828801612a8b565b91505092959194509250565b600060208284031215612f8357600080fd5b6000612f9184828501612ba7565b91505092915050565b600060208284031215612fac57600080fd5b6000612fba84828501612bbc565b91505092915050565b612fcc816134e8565b82525050565b612fdb816134e8565b82525050565b612fea816134fa565b82525050565b6000612ffb826133d9565b61300581856133ef565b93506130158185602086016135b0565b61301e8161377c565b840191505092915050565b6130328161358f565b82525050565b6000613043826133e4565b61304d8185613400565b935061305d8185602086016135b0565b6130668161377c565b840191505092915050565b600061307c826133e4565b6130868185613411565b93506130968185602086016135b0565b61309f8161377c565b840191505092915050565b60006130b5826133e4565b6130bf8185613422565b93506130cf8185602086016135b0565b80840191505092915050565b60006130e8602e83613411565b91506130f38261378d565b604082019050919050565b600061310b601f83613411565b9150613116826137dc565b602082019050919050565b60006040830160008301516131396000860182612fc3565b50602083015184820360208601526131518282613038565b9150508091505092915050565b61316781613564565b82525050565b6131768161356e565b82525050565b600061318882856130aa565b915061319482846130aa565b91508190509392505050565b60006020820190506131b56000830184612fd2565b92915050565b60006080820190506131d06000830187612fd2565b6131dd6020830186612fd2565b6131ea604083018561315e565b81810360608301526131fc8184612ff0565b905095945050505050565b600060408201905061321c6000830185612fd2565b613229602083018461315e565b9392505050565b60006020820190506132456000830184612fe1565b92915050565b600060a08201905081810360008301526132658188612ff0565b905081810360208301526132798187613121565b9050818103604083015261328d8186612ff0565b905061329c606083018561316d565b81810360808301526132ae8184612ff0565b90509695505050505050565b60006020820190506132cf6000830184613029565b92915050565b600060208201905081810360008301526132ef8184613071565b905092915050565b60006020820190508181036000830152613310816130db565b9050919050565b60006020820190508181036000830152613330816130fe565b9050919050565b600060208201905061334c600083018461315e565b92915050565b600061335c61336d565b90506133688282613615565b919050565b6000604051905090565b600067ffffffffffffffff8211156133925761339161374d565b5b61339b8261377c565b9050602081019050919050565b600067ffffffffffffffff8211156133c3576133c261374d565b5b6133cc8261377c565b9050602081019050919050565b600081519050919050565b600081519050919050565b600082825260208201905092915050565b600082825260208201905092915050565b600082825260208201905092915050565b600081905092915050565b600061343882613564565b915061344383613564565b9250827fffffffffffffffffffffffffffffffffffffffffffffffffffffffffffffffff03821115613478576134776136c0565b5b828201905092915050565b600061348e82613564565b915061349983613564565b9250826134a9576134a86136ef565b5b828204905092915050565b60006134bf82613564565b91506134ca83613564565b9250828210156134dd576134dc6136c0565b5b828203905092915050565b60006134f382613544565b9050919050565b60008115159050919050565b60007fffffffff0000000000000000000000000000000000000000000000000000000082169050919050565b600061353d826134e8565b9050919050565b600073ffffffffffffffffffffffffffffffffffffffff82169050919050565b6000819050919050565b600067ffffffffffffffff82169050919050565b600060ff82169050919050565b600061359a82613582565b9050919050565b82818337600083830152505050565b60005b838110156135ce5780820151818401526020810190506135b3565b838111156135dd576000848401525b50505050565b600060028204905060018216806135fb57607f821691505b6020821081141561360f5761360e61371e565b5b50919050565b61361e8261377c565b810181811067ffffffffffffffff8211171561363d5761363c61374d565b5b80604052505050565b600061365182613564565b91507fffffffffffffffffffffffffffffffffffffffffffffffffffffffffffffffff821415613684576136836136c0565b5b600182019050919050565b600061369a82613564565b91506136a583613564565b9250826136b5576136b46136ef565b5b828206905092915050565b7f4e487b7100000000000000000000000000000000000000000000000000000000600052601160045260246000fd5b7f4e487b7100000000000000000000000000000000000000000000000000000000600052601260045260246000fd5b7f4e487b7100000000000000000000000000000000000000000000000000000000600052602260045260246000fd5b7f4e487b7100000000000000000000000000000000000000000000000000000000600052604160045260246000fd5b6000601f19601f8301169050919050565b7f496e697469616c697a61626c653a20636f6e747261637420697320616c72656160008201527f647920696e697469616c697a6564000000000000000000000000000000000000602082015250565b7f5265656e7472616e637947756172643a207265656e7472616e742063616c6c00600082015250565b61380e816134e8565b811461381957600080fd5b50565b613825816134fa565b811461383057600080fd5b50565b61383c81613506565b811461384757600080fd5b50565b61385381613532565b811461385e57600080fd5b50565b61386a81613564565b811461387557600080fd5b5056fea2646970667358221220aa0eba6c95928b92b252bf319d5e8b2193eaf972a912cc405a450ecb9b8f81f464736f6c63430008040033",
  "linkReferences": {},
  "deployedLinkReferences": {}
}