{
  "_format": "hh-sol-artifact-1",
  "contractName": "ERC721",
  "sourceName": "contracts/ERC721.sol",
  "abi": [
    {
      "inputs": [
        {
          "internalType": "address",
          "name": "_owner",
          "type": "address"
        }
      ],
      "stateMutability": "nonpayable",
      "type": "constructor"
    },
    {
      "inputs": [],
      "name": "AlreadyInitialized",
      "type": "error"
    },
    {
      "inputs": [],
      "name": "InvalidERC721Receiver",
      "type": "error"
    },
    {
      "inputs": [],
      "name": "NonexistentToken",
      "type": "error"
    },
    {
      "inputs": [],
      "name": "SameAddress",
      "type": "error"
    },
    {
      "inputs": [],
      "name": "TokenAlreadyMinted",
      "type": "error"
    },
    {
      "inputs": [],
      "name": "TokenNotOwnedBySender",
      "type": "error"
    },
    {
      "inputs": [],
      "name": "Unauthorized",
      "type": "error"
    },
    {
      "inputs": [],
      "name": "ZeroAddress",
      "type": "error"
    },
    {
      "anonymous": false,
      "inputs": [
        {
          "indexed": true,
          "internalType": "address",
          "name": "owner",
          "type": "address"
        },
        {
          "indexed": true,
          "internalType": "address",
          "name": "approved",
          "type": "address"
        },
        {
          "indexed": true,
          "internalType": "uint256",
          "name": "tokenId",
          "type": "uint256"
        }
      ],
      "name": "Approval",
      "type": "event"
    },
    {
      "anonymous": false,
      "inputs": [
        {
          "indexed": true,
          "internalType": "address",
          "name": "owner",
          "type": "address"
        },
        {
          "indexed": true,
          "internalType": "address",
          "name": "operator",
          "type": "address"
        },
        {
          "indexed": false,
          "internalType": "bool",
          "name": "approved",
          "type": "bool"
        }
      ],
      "name": "ApprovalForAll",
      "type": "event"
    },
    {
      "anonymous": false,
      "inputs": [
        {
          "indexed": false,
          "internalType": "uint8",
          "name": "version",
          "type": "uint8"
        }
      ],
      "name": "Initialized",
      "type": "event"
    },
    {
      "anonymous": false,
      "inputs": [
        {
          "indexed": true,
          "internalType": "address",
          "name": "from",
          "type": "address"
        },
        {
          "indexed": true,
          "internalType": "address",
          "name": "to",
          "type": "address"
        },
        {
          "indexed": true,
          "internalType": "uint256",
          "name": "tokenId",
          "type": "uint256"
        }
      ],
      "name": "Transfer",
      "type": "event"
    },
    {
      "inputs": [
        {
          "internalType": "address",
          "name": "_to",
          "type": "address"
        },
        {
          "internalType": "uint256",
          "name": "_tokenId",
          "type": "uint256"
        }
      ],
      "name": "approve",
      "outputs": [],
      "stateMutability": "nonpayable",
      "type": "function"
    },
    {
      "inputs": [
        {
          "internalType": "address",
          "name": "_owner",
          "type": "address"
        }
      ],
      "name": "balanceOf",
      "outputs": [
        {
          "internalType": "uint256",
          "name": "",
          "type": "uint256"
        }
      ],
      "stateMutability": "view",
      "type": "function"
    },
    {
      "inputs": [],
      "name": "contractOwner",
      "outputs": [
        {
          "internalType": "address",
          "name": "",
          "type": "address"
        }
      ],
      "stateMutability": "view",
      "type": "function"
    },
    {
      "inputs": [
        {
          "internalType": "uint256",
          "name": "_tokenId",
          "type": "uint256"
        }
      ],
      "name": "getApproved",
      "outputs": [
        {
          "internalType": "address",
          "name": "",
          "type": "address"
        }
      ],
      "stateMutability": "view",
      "type": "function"
    },
    {
      "inputs": [
        {
          "internalType": "string",
          "name": "name_",
          "type": "string"
        },
        {
          "internalType": "string",
          "name": "symbol_",
          "type": "string"
        },
        {
          "internalType": "address",
          "name": "_tenant",
          "type": "address"
        }
      ],
      "name": "initialize",
      "outputs": [],
      "stateMutability": "nonpayable",
      "type": "function"
    },
    {
      "inputs": [],
      "name": "initialized",
      "outputs": [
        {
          "internalType": "bool",
          "name": "",
          "type": "bool"
        }
      ],
      "stateMutability": "view",
      "type": "function"
    },
    {
      "inputs": [
        {
          "internalType": "address",
          "name": "_owner",
          "type": "address"
        },
        {
          "internalType": "address",
          "name": "_operator",
          "type": "address"
        }
      ],
      "name": "isApprovedForAll",
      "outputs": [
        {
          "internalType": "bool",
          "name": "",
          "type": "bool"
        }
      ],
      "stateMutability": "view",
      "type": "function"
    },
    {
      "inputs": [],
      "name": "metadata",
      "outputs": [
        {
          "internalType": "bytes",
          "name": "title",
          "type": "bytes"
        },
        {
          "components": [
            {
              "internalType": "address",
              "name": "authorAddress",
              "type": "address"
            },
            {
              "internalType": "string",
              "name": "externalLink",
              "type": "string"
            }
          ],
          "internalType": "struct IHyperverseModule.Author",
          "name": "author",
          "type": "tuple"
        },
        {
          "internalType": "bytes",
          "name": "version",
          "type": "bytes"
        },
        {
          "internalType": "uint64",
          "name": "publishedAt",
          "type": "uint64"
        },
        {
          "internalType": "bytes",
          "name": "externalLink",
          "type": "bytes"
        }
      ],
      "stateMutability": "view",
      "type": "function"
    },
    {
      "inputs": [
        {
          "internalType": "address",
          "name": "_to",
          "type": "address"
        }
      ],
      "name": "mint",
      "outputs": [
        {
          "internalType": "uint256",
          "name": "",
          "type": "uint256"
        }
      ],
      "stateMutability": "nonpayable",
      "type": "function"
    },
    {
      "inputs": [],
      "name": "name",
      "outputs": [
        {
          "internalType": "string",
          "name": "",
          "type": "string"
        }
      ],
      "stateMutability": "view",
      "type": "function"
    },
    {
      "inputs": [
        {
          "internalType": "uint256",
          "name": "_tokenId",
          "type": "uint256"
        }
      ],
      "name": "ownerOf",
      "outputs": [
        {
          "internalType": "address",
          "name": "",
          "type": "address"
        }
      ],
      "stateMutability": "view",
      "type": "function"
    },
    {
      "inputs": [],
      "name": "publicMint",
      "outputs": [
        {
          "internalType": "bool",
          "name": "",
          "type": "bool"
        }
      ],
      "stateMutability": "view",
      "type": "function"
    },
    {
      "inputs": [
        {
          "internalType": "address",
          "name": "_from",
          "type": "address"
        },
        {
          "internalType": "address",
          "name": "_to",
          "type": "address"
        },
        {
          "internalType": "uint256",
          "name": "_tokenId",
          "type": "uint256"
        }
      ],
      "name": "safeTransferFrom",
      "outputs": [],
      "stateMutability": "nonpayable",
      "type": "function"
    },
    {
      "inputs": [
        {
          "internalType": "address",
          "name": "_from",
          "type": "address"
        },
        {
          "internalType": "address",
          "name": "_to",
          "type": "address"
        },
        {
          "internalType": "uint256",
          "name": "_tokenId",
          "type": "uint256"
        },
        {
          "internalType": "bytes",
          "name": "_data",
          "type": "bytes"
        }
      ],
      "name": "safeTransferFrom",
      "outputs": [],
      "stateMutability": "nonpayable",
      "type": "function"
    },
    {
      "inputs": [
        {
          "internalType": "address",
          "name": "_operator",
          "type": "address"
        },
        {
          "internalType": "bool",
          "name": "_approved",
          "type": "bool"
        }
      ],
      "name": "setApprovalForAll",
      "outputs": [],
      "stateMutability": "nonpayable",
      "type": "function"
    },
    {
      "inputs": [
        {
          "internalType": "bytes4",
          "name": "_interfaceId",
          "type": "bytes4"
        }
      ],
      "name": "supportsInterface",
      "outputs": [
        {
          "internalType": "bool",
          "name": "",
          "type": "bool"
        }
      ],
      "stateMutability": "view",
      "type": "function"
    },
    {
      "inputs": [],
      "name": "symbol",
      "outputs": [
        {
          "internalType": "string",
          "name": "",
          "type": "string"
        }
      ],
      "stateMutability": "view",
      "type": "function"
    },
    {
      "inputs": [],
      "name": "togglePublicMint",
      "outputs": [],
      "stateMutability": "nonpayable",
      "type": "function"
    },
    {
      "inputs": [],
      "name": "tokenCounter",
      "outputs": [
        {
          "internalType": "uint256",
          "name": "_value",
          "type": "uint256"
        }
      ],
      "stateMutability": "view",
      "type": "function"
    },
    {
      "inputs": [
        {
          "internalType": "uint256",
          "name": "_tokenId",
          "type": "uint256"
        }
      ],
      "name": "tokenURI",
      "outputs": [
        {
          "internalType": "string",
          "name": "",
          "type": "string"
        }
      ],
      "stateMutability": "view",
      "type": "function"
    },
    {
      "inputs": [
        {
          "internalType": "address",
          "name": "_from",
          "type": "address"
        },
        {
          "internalType": "address",
          "name": "_to",
          "type": "address"
        },
        {
          "internalType": "uint256",
          "name": "_tokenId",
          "type": "uint256"
        }
      ],
      "name": "transferFrom",
      "outputs": [],
      "stateMutability": "nonpayable",
      "type": "function"
    }
  ],
  "bytecode": "0x60a06040523480156200001157600080fd5b506040516200326838038062003268833981810160405281019062000037919062000404565b6040518060a001604052806040518060400160405280600681526020017f4552433732310000000000000000000000000000000000000000000000000000815250815260200160405180604001604052808473ffffffffffffffffffffffffffffffffffffffff1681526020016040518060400160405280601881526020017f68747470733a2f2f65787465726e616c6c696e6b2e6e6574000000000000000081525081525081526020016040518060400160405280600581526020017f302e302e31000000000000000000000000000000000000000000000000000000815250815260200165032a361e860667ffffffffffffffff1681526020016040518060400160405280601881526020017f68747470733a2f2f65787465726e616c4c696e6b2e6e65740000000000000000815250815250600760008201518160000190805190602001906200018c929190620002ac565b5060208201518160010160008201518160000160006101000a81548173ffffffffffffffffffffffffffffffffffffffff021916908373ffffffffffffffffffffffffffffffffffffffff1602179055506020820151816001019080519060200190620001fb9291906200033d565b50505060408201518160030190805190602001906200021c929190620002ac565b5060608201518160040160006101000a81548167ffffffffffffffff021916908367ffffffffffffffff16021790555060808201518160050190805190602001906200026a929190620002ac565b509050508073ffffffffffffffffffffffffffffffffffffffff1660808173ffffffffffffffffffffffffffffffffffffffff1660601b8152505050620004e3565b828054620002ba9062000464565b90600052602060002090601f016020900481019282620002de57600085556200032a565b82601f10620002f957805160ff19168380011785556200032a565b828001600101855582156200032a579182015b82811115620003295782518255916020019190600101906200030c565b5b509050620003399190620003ce565b5090565b8280546200034b9062000464565b90600052602060002090601f0160209004810192826200036f5760008555620003bb565b82601f106200038a57805160ff1916838001178555620003bb565b82800160010185558215620003bb579182015b82811115620003ba5782518255916020019190600101906200039d565b5b509050620003ca9190620003ce565b5090565b5b80821115620003e9576000816000905550600101620003cf565b5090565b600081519050620003fe81620004c9565b92915050565b6000602082840312156200041757600080fd5b60006200042784828501620003ed565b91505092915050565b60006200043d8262000444565b9050919050565b600073ffffffffffffffffffffffffffffffffffffffff82169050919050565b600060028204905060018216806200047d57607f821691505b602082108114156200049457620004936200049a565b5b50919050565b7f4e487b7100000000000000000000000000000000000000000000000000000000600052602260045260246000fd5b620004d48162000430565b8114620004e057600080fd5b50565b60805160601c612d666200050260003960006111980152612d666000f3fe608060405234801561001057600080fd5b50600436106101375760003560e01c806342842e0e116100b8578063a22cb4651161007c578063a22cb46514610340578063b88d4fde1461035c578063c87b56dd14610378578063ce606ee0146103a8578063d082e381146103c6578063e985e9c5146103e457610137565b806342842e0e146102765780636352211e146102925780636a627842146102c257806370a08231146102f257806395d89b411461032257610137565b8063158ef93e116100ff578063158ef93e146101f257806323b872dd1461021057806326092b831461022c578063392f37e91461024a5780634047638d1461026c57610137565b806301ffc9a71461013c57806306fdde031461016c578063077f224a1461018a578063081812fc146101a6578063095ea7b3146101d6575b600080fd5b610156600480360381019061015191906123ad565b610414565b60405161016391906126eb565b60405180910390f35b6101746104f6565b6040516101819190612790565b60405180910390f35b6101a4600480360381019061019f91906123ff565b610584565b005b6101c060048036038101906101bb919061247e565b6106e9565b6040516101cd9190612684565b60405180910390f35b6101f060048036038101906101eb9190612371565b610767565b005b6101fa61090b565b60405161020791906126eb565b60405180910390f35b61022a6004803603810190610225919061226b565b61091e565b005b610234610975565b60405161024191906126eb565b60405180910390f35b610252610988565b604051610263959493929190612706565b60405180910390f35b610274610c4a565b005b610290600480360381019061028b919061226b565b610cfd565b005b6102ac60048036038101906102a7919061247e565b610d1d565b6040516102b99190612684565b60405180910390f35b6102dc60048036038101906102d79190612206565b610d9b565b6040516102e991906127f2565b60405180910390f35b61030c60048036038101906103079190612206565b610ee0565b60405161031991906127f2565b60405180910390f35b61032a610ff9565b6040516103379190612790565b60405180910390f35b61035a60048036038101906103559190612335565b611087565b005b610376600480360381019061037191906122ba565b61109d565b005b610392600480360381019061038d919061247e565b6110f6565b60405161039f9190612790565b60405180910390f35b6103b0611196565b6040516103bd9190612684565b60405180910390f35b6103ce6111ba565b6040516103db91906127f2565b60405180910390f35b6103fe60048036038101906103f9919061222f565b6111c6565b60405161040b91906126eb565b60405180910390f35b60007f80ac58cd000000000000000000000000000000000000000000000000000000007bffffffffffffffffffffffffffffffffffffffffffffffffffffffff1916827bffffffffffffffffffffffffffffffffffffffffffffffffffffffff191614806104df57507f5b5e139f000000000000000000000000000000000000000000000000000000007bffffffffffffffffffffffffffffffffffffffffffffffffffffffff1916827bffffffffffffffffffffffffffffffffffffffffffffffffffffffff1916145b806104ef57506104ee8261125a565b5b9050919050565b6000805461050390612a8c565b80601f016020809104026020016040519081016040528092919081815260200182805461052f90612a8c565b801561057c5780601f106105515761010080835404028352916020019161057c565b820191906000526020600020905b81548152906001019060200180831161055f57829003601f168201915b505050505081565b600061059060016112c4565b905080156105b4576001600d60156101000a81548160ff0219169083151502179055505b81600073ffffffffffffffffffffffffffffffffffffffff16600e60009054906101000a900473ffffffffffffffffffffffffffffffffffffffff1673ffffffffffffffffffffffffffffffffffffffff161461063d576040517f0dc149f000000000000000000000000000000000000000000000000000000000815260040160405180910390fd5b61064785856113b8565b82600e60006101000a81548173ffffffffffffffffffffffffffffffffffffffff021916908373ffffffffffffffffffffffffffffffffffffffff1602179055505080156106e3576000600d60156101000a81548160ff0219169083151502179055507f7f26b83ff96e1f2b6a682f133852f6798a09c465da95921460cefb384740249860016040516106da9190612775565b60405180910390a15b50505050565b6000816106f58161144c565b61072b576040517fb1d04f0800000000000000000000000000000000000000000000000000000000815260040160405180910390fd5b6005600084815260200190815260200160002060009054906101000a900473ffffffffffffffffffffffffffffffffffffffff16915050919050565b600061077282610d1d565b90508073ffffffffffffffffffffffffffffffffffffffff168373ffffffffffffffffffffffffffffffffffffffff1614156107e3576040517f08c379a00000000000000000000000000000000000000000000000000000000081526004016107da906127d2565b60405180910390fd5b8073ffffffffffffffffffffffffffffffffffffffff168373ffffffffffffffffffffffffffffffffffffffff161415610849576040517f367558c300000000000000000000000000000000000000000000000000000000815260040160405180910390fd5b8073ffffffffffffffffffffffffffffffffffffffff166108686114b8565b73ffffffffffffffffffffffffffffffffffffffff16146108b5576040517f82b4290000000000000000000000000000000000000000000000000000000000815260040160405180910390fd5b6108c6816108c16114b8565b6111c6565b6108fc576040517f82b4290000000000000000000000000000000000000000000000000000000000815260040160405180910390fd5b61090683836114c0565b505050565b600260009054906101000a900460ff1681565b61092f6109296114b8565b82611579565b610965576040517f82b4290000000000000000000000000000000000000000000000000000000000815260040160405180910390fd5b610970838383611650565b505050565b601060009054906101000a900460ff1681565b600780600001805461099990612a8c565b80601f01602080910402602001604051908101604052809291908181526020018280546109c590612a8c565b8015610a125780601f106109e757610100808354040283529160200191610a12565b820191906000526020600020905b8154815290600101906020018083116109f557829003601f168201915b505050505090806001016040518060400160405290816000820160009054906101000a900473ffffffffffffffffffffffffffffffffffffffff1673ffffffffffffffffffffffffffffffffffffffff1673ffffffffffffffffffffffffffffffffffffffff168152602001600182018054610a8d90612a8c565b80601f0160208091040260200160405190810160405280929190818152602001828054610ab990612a8c565b8015610b065780601f10610adb57610100808354040283529160200191610b06565b820191906000526020600020905b815481529060010190602001808311610ae957829003601f168201915b50505050508152505090806003018054610b1f90612a8c565b80601f0160208091040260200160405190810160405280929190818152602001828054610b4b90612a8c565b8015610b985780601f10610b6d57610100808354040283529160200191610b98565b820191906000526020600020905b815481529060010190602001808311610b7b57829003601f168201915b5050505050908060040160009054906101000a900467ffffffffffffffff1690806005018054610bc790612a8c565b80601f0160208091040260200160405190810160405280929190818152602001828054610bf390612a8c565b8015610c405780601f10610c1557610100808354040283529160200191610c40565b820191906000526020600020905b815481529060010190602001808311610c2357829003601f168201915b5050505050905085565b600e60009054906101000a900473ffffffffffffffffffffffffffffffffffffffff1673ffffffffffffffffffffffffffffffffffffffff163373ffffffffffffffffffffffffffffffffffffffff1614610cd1576040517f82b4290000000000000000000000000000000000000000000000000000000000815260040160405180910390fd5b601060009054906101000a900460ff1615601060006101000a81548160ff021916908315150217905550565b610d188383836040518060200160405280600081525061109d565b505050565b600081610d298161144c565b610d5f576040517fb1d04f0800000000000000000000000000000000000000000000000000000000815260040160405180910390fd5b6003600084815260200190815260200160002060009054906101000a900473ffffffffffffffffffffffffffffffffffffffff16915050919050565b6000801515601060009054906101000a900460ff161515148015610e0d5750600e60009054906101000a900473ffffffffffffffffffffffffffffffffffffffff1673ffffffffffffffffffffffffffffffffffffffff163373ffffffffffffffffffffffffffffffffffffffff1614155b15610e44576040517f82b4290000000000000000000000000000000000000000000000000000000000815260040160405180910390fd5b600073ffffffffffffffffffffffffffffffffffffffff168273ffffffffffffffffffffffffffffffffffffffff161415610eab576040517fd92e233d00000000000000000000000000000000000000000000000000000000815260040160405180910390fd5b6000610eb7600f6118a7565b9050610ec383826118b5565b610ecc816110f6565b50610ed7600f6118d3565b80915050919050565b600081600073ffffffffffffffffffffffffffffffffffffffff168173ffffffffffffffffffffffffffffffffffffffff161415610f4a576040517fd92e233d00000000000000000000000000000000000000000000000000000000815260040160405180910390fd5b600073ffffffffffffffffffffffffffffffffffffffff168373ffffffffffffffffffffffffffffffffffffffff161415610fb1576040517fd92e233d00000000000000000000000000000000000000000000000000000000815260040160405180910390fd5b600460008473ffffffffffffffffffffffffffffffffffffffff1673ffffffffffffffffffffffffffffffffffffffff16815260200190815260200160002054915050919050565b6001805461100690612a8c565b80601f016020809104026020016040519081016040528092919081815260200182805461103290612a8c565b801561107f5780601f106110545761010080835404028352916020019161107f565b820191906000526020600020905b81548152906001019060200180831161106257829003601f168201915b505050505081565b6110996110926114b8565b83836118e9565b5050565b6110ae6110a86114b8565b83611579565b6110e4576040517f82b4290000000000000000000000000000000000000000000000000000000000815260040160405180910390fd5b6110f084848484611a4d565b50505050565b6060816111028161144c565b611138576040517fb1d04f0800000000000000000000000000000000000000000000000000000000815260040160405180910390fd5b6000611142611aa0565b90506000815111611162576040518060200160405280600081525061118d565b8061116c85611ab7565b60405160200161117d929190612660565b6040516020818303038152906040525b92505050919050565b7f000000000000000000000000000000000000000000000000000000000000000081565b600f8060000154905081565b6000600660008473ffffffffffffffffffffffffffffffffffffffff1673ffffffffffffffffffffffffffffffffffffffff16815260200190815260200160002060008373ffffffffffffffffffffffffffffffffffffffff1673ffffffffffffffffffffffffffffffffffffffff16815260200190815260200160002060009054906101000a900460ff16905092915050565b60007f01ffc9a7000000000000000000000000000000000000000000000000000000007bffffffffffffffffffffffffffffffffffffffffffffffffffffffff1916827bffffffffffffffffffffffffffffffffffffffffffffffffffffffff1916149050919050565b6000600d60159054906101000a900460ff161561133c5760018260ff161480156112f457506112f230611c64565b155b611333576040517f08c379a000000000000000000000000000000000000000000000000000000000815260040161132a906127b2565b60405180910390fd5b600090506113b3565b8160ff16600d60149054906101000a900460ff1660ff1610611393576040517f08c379a000000000000000000000000000000000000000000000000000000000815260040161138a906127b2565b60405180910390fd5b81600d60146101000a81548160ff021916908360ff160217905550600190505b919050565b600260009054906101000a900460ff16156113ff576040517f0dc149f000000000000000000000000000000000000000000000000000000000815260040160405180910390fd5b816000908051906020019061141592919061202a565b50806001908051906020019061142c92919061202a565b506001600260006101000a81548160ff0219169083151502179055505050565b60008073ffffffffffffffffffffffffffffffffffffffff166003600084815260200190815260200160002060009054906101000a900473ffffffffffffffffffffffffffffffffffffffff1673ffffffffffffffffffffffffffffffffffffffff1614159050919050565b600033905090565b816005600083815260200190815260200160002060006101000a81548173ffffffffffffffffffffffffffffffffffffffff021916908373ffffffffffffffffffffffffffffffffffffffff160217905550808273ffffffffffffffffffffffffffffffffffffffff1661153383610d1d565b73ffffffffffffffffffffffffffffffffffffffff167f8c5be1e5ebec7d5bd14f71427d1e84f3dd0314c0f7b2291e5b200ac8c7c3b92560405160405180910390a45050565b6000816115858161144c565b6115bb576040517fb1d04f0800000000000000000000000000000000000000000000000000000000815260040160405180910390fd5b60006115c684610d1d565b90508073ffffffffffffffffffffffffffffffffffffffff168573ffffffffffffffffffffffffffffffffffffffff16148061163557508473ffffffffffffffffffffffffffffffffffffffff1661161d856106e9565b73ffffffffffffffffffffffffffffffffffffffff16145b80611646575061164581866111c6565b5b9250505092915050565b81600073ffffffffffffffffffffffffffffffffffffffff168173ffffffffffffffffffffffffffffffffffffffff1614156116b8576040517fd92e233d00000000000000000000000000000000000000000000000000000000815260040160405180910390fd5b8373ffffffffffffffffffffffffffffffffffffffff166116d883610d1d565b73ffffffffffffffffffffffffffffffffffffffff1614611725576040517f736a9ea700000000000000000000000000000000000000000000000000000000815260040160405180910390fd5b611730848484611c77565b61173b6000836114c0565b6001600460008673ffffffffffffffffffffffffffffffffffffffff1673ffffffffffffffffffffffffffffffffffffffff168152602001908152602001600020600082825461178b919061296f565b925050819055506001600460008573ffffffffffffffffffffffffffffffffffffffff1673ffffffffffffffffffffffffffffffffffffffff16815260200190815260200160002060008282546117e291906128e8565b92505081905550826003600084815260200190815260200160002060006101000a81548173ffffffffffffffffffffffffffffffffffffffff021916908373ffffffffffffffffffffffffffffffffffffffff160217905550818373ffffffffffffffffffffffffffffffffffffffff168573ffffffffffffffffffffffffffffffffffffffff167fddf252ad1be2c89b69c2b068fc378daa952ba7f163c4a11628f55a4df523b3ef60405160405180910390a46118a1848484611c7c565b50505050565b600081600001549050919050565b6118cf828260405180602001604052806000815250611c81565b5050565b6001816000016000828254019250508190555050565b8173ffffffffffffffffffffffffffffffffffffffff168373ffffffffffffffffffffffffffffffffffffffff16141561194f576040517f367558c300000000000000000000000000000000000000000000000000000000815260040160405180910390fd5b80600660008573ffffffffffffffffffffffffffffffffffffffff1673ffffffffffffffffffffffffffffffffffffffff16815260200190815260200160002060008473ffffffffffffffffffffffffffffffffffffffff1673ffffffffffffffffffffffffffffffffffffffff16815260200190815260200160002060006101000a81548160ff0219169083151502179055508173ffffffffffffffffffffffffffffffffffffffff168373ffffffffffffffffffffffffffffffffffffffff167f17307eab39ab6107e8899845ad3d59bd9653f200f220920489ca2b5937696c3183604051611a4091906126eb565b60405180910390a3505050565b611a58848484611650565b611a6484848484611cd3565b611a9a576040517fb5bbd22f00000000000000000000000000000000000000000000000000000000815260040160405180910390fd5b50505050565b606060405180602001604052806000815250905090565b60606000821415611aff576040518060400160405280600181526020017f30000000000000000000000000000000000000000000000000000000000000008152509050611c5f565b600082905060005b60008214611b31578080611b1a90612aef565b915050600a82611b2a919061293e565b9150611b07565b60008167ffffffffffffffff811115611b73577f4e487b7100000000000000000000000000000000000000000000000000000000600052604160045260246000fd5b6040519080825280601f01601f191660200182016040528015611ba55781602001600182028036833780820191505090505b5090505b60008514611c5857600182611bbe919061296f565b9150600a85611bcd9190612b38565b6030611bd991906128e8565b60f81b818381518110611c15577f4e487b7100000000000000000000000000000000000000000000000000000000600052603260045260246000fd5b60200101907effffffffffffffffffffffffffffffffffffffffffffffffffffffffffffff1916908160001a905350600a85611c51919061293e565b9450611ba9565b8093505050505b919050565b600080823b905060008111915050919050565b505050565b505050565b611c8e6000848484611cd3565b611cc4576040517fb5bbd22f00000000000000000000000000000000000000000000000000000000815260040160405180910390fd5b611cce8383611e61565b505050565b6000611cf48473ffffffffffffffffffffffffffffffffffffffff16611c64565b15611e54578373ffffffffffffffffffffffffffffffffffffffff1663150b7a02611d1d6114b8565b8786866040518563ffffffff1660e01b8152600401611d3f949392919061269f565b602060405180830381600087803b158015611d5957600080fd5b505af1925050508015611d8a57506040513d601f19601f82011682018060405250810190611d8791906123d6565b60015b611e04573d8060008114611dba576040519150601f19603f3d011682016040523d82523d6000602084013e611dbf565b606091505b50600081511415611dfc576040517fb5bbd22f00000000000000000000000000000000000000000000000000000000815260040160405180910390fd5b805181602001fd5b63150b7a0260e01b7bffffffffffffffffffffffffffffffffffffffffffffffffffffffff1916817bffffffffffffffffffffffffffffffffffffffffffffffffffffffff191614915050611e59565b600190505b949350505050565b81600073ffffffffffffffffffffffffffffffffffffffff168173ffffffffffffffffffffffffffffffffffffffff161415611ec9576040517fd92e233d00000000000000000000000000000000000000000000000000000000815260040160405180910390fd5b611ed28261144c565b15611f08576040517ea5a1f500000000000000000000000000000000000000000000000000000000815260040160405180910390fd5b611f1460008484611c77565b6001600460008573ffffffffffffffffffffffffffffffffffffffff1673ffffffffffffffffffffffffffffffffffffffff1681526020019081526020016000206000828254611f6491906128e8565b92505081905550826003600084815260200190815260200160002060006101000a81548173ffffffffffffffffffffffffffffffffffffffff021916908373ffffffffffffffffffffffffffffffffffffffff160217905550818373ffffffffffffffffffffffffffffffffffffffff16600073ffffffffffffffffffffffffffffffffffffffff167fddf252ad1be2c89b69c2b068fc378daa952ba7f163c4a11628f55a4df523b3ef60405160405180910390a461202560008484611c7c565b505050565b82805461203690612a8c565b90600052602060002090601f016020900481019282612058576000855561209f565b82601f1061207157805160ff191683800117855561209f565b8280016001018555821561209f579182015b8281111561209e578251825591602001919060010190612083565b5b5090506120ac91906120b0565b5090565b5b808211156120c95760008160009055506001016120b1565b5090565b60006120e06120db84612832565b61280d565b9050828152602081018484840111156120f857600080fd5b612103848285612a4a565b509392505050565b600061211e61211984612863565b61280d565b90508281526020810184848401111561213657600080fd5b612141848285612a4a565b509392505050565b60008135905061215881612cd4565b92915050565b60008135905061216d81612ceb565b92915050565b60008135905061218281612d02565b92915050565b60008151905061219781612d02565b92915050565b600082601f8301126121ae57600080fd5b81356121be8482602086016120cd565b91505092915050565b600082601f8301126121d857600080fd5b81356121e884826020860161210b565b91505092915050565b60008135905061220081612d19565b92915050565b60006020828403121561221857600080fd5b600061222684828501612149565b91505092915050565b6000806040838503121561224257600080fd5b600061225085828601612149565b925050602061226185828601612149565b9150509250929050565b60008060006060848603121561228057600080fd5b600061228e86828701612149565b935050602061229f86828701612149565b92505060406122b0868287016121f1565b9150509250925092565b600080600080608085870312156122d057600080fd5b60006122de87828801612149565b94505060206122ef87828801612149565b9350506040612300878288016121f1565b925050606085013567ffffffffffffffff81111561231d57600080fd5b6123298782880161219d565b91505092959194509250565b6000806040838503121561234857600080fd5b600061235685828601612149565b92505060206123678582860161215e565b9150509250929050565b6000806040838503121561238457600080fd5b600061239285828601612149565b92505060206123a3858286016121f1565b9150509250929050565b6000602082840312156123bf57600080fd5b60006123cd84828501612173565b91505092915050565b6000602082840312156123e857600080fd5b60006123f684828501612188565b91505092915050565b60008060006060848603121561241457600080fd5b600084013567ffffffffffffffff81111561242e57600080fd5b61243a868287016121c7565b935050602084013567ffffffffffffffff81111561245757600080fd5b612463868287016121c7565b925050604061247486828701612149565b9150509250925092565b60006020828403121561249057600080fd5b600061249e848285016121f1565b91505092915050565b6124b0816129a3565b82525050565b6124bf816129a3565b82525050565b6124ce816129b5565b82525050565b60006124df82612894565b6124e981856128aa565b93506124f9818560208601612a59565b61250281612c25565b840191505092915050565b61251681612a38565b82525050565b60006125278261289f565b61253181856128bb565b9350612541818560208601612a59565b61254a81612c25565b840191505092915050565b60006125608261289f565b61256a81856128cc565b935061257a818560208601612a59565b61258381612c25565b840191505092915050565b60006125998261289f565b6125a381856128dd565b93506125b3818560208601612a59565b80840191505092915050565b60006125cc602e836128cc565b91506125d782612c36565b604082019050919050565b60006125ef6021836128cc565b91506125fa82612c85565b604082019050919050565b600060408301600083015161261d60008601826124a7565b5060208301518482036020860152612635828261251c565b9150508091505092915050565b61264b81612a0d565b82525050565b61265a81612a17565b82525050565b600061266c828561258e565b9150612678828461258e565b91508190509392505050565b600060208201905061269960008301846124b6565b92915050565b60006080820190506126b460008301876124b6565b6126c160208301866124b6565b6126ce6040830185612642565b81810360608301526126e081846124d4565b905095945050505050565b600060208201905061270060008301846124c5565b92915050565b600060a082019050818103600083015261272081886124d4565b905081810360208301526127348187612605565b9050818103604083015261274881866124d4565b90506127576060830185612651565b818103608083015261276981846124d4565b90509695505050505050565b600060208201905061278a600083018461250d565b92915050565b600060208201905081810360008301526127aa8184612555565b905092915050565b600060208201905081810360008301526127cb816125bf565b9050919050565b600060208201905081810360008301526127eb816125e2565b9050919050565b60006020820190506128076000830184612642565b92915050565b6000612817612828565b90506128238282612abe565b919050565b6000604051905090565b600067ffffffffffffffff82111561284d5761284c612bf6565b5b61285682612c25565b9050602081019050919050565b600067ffffffffffffffff82111561287e5761287d612bf6565b5b61288782612c25565b9050602081019050919050565b600081519050919050565b600081519050919050565b600082825260208201905092915050565b600082825260208201905092915050565b600082825260208201905092915050565b600081905092915050565b60006128f382612a0d565b91506128fe83612a0d565b9250827fffffffffffffffffffffffffffffffffffffffffffffffffffffffffffffffff0382111561293357612932612b69565b5b828201905092915050565b600061294982612a0d565b915061295483612a0d565b92508261296457612963612b98565b5b828204905092915050565b600061297a82612a0d565b915061298583612a0d565b92508282101561299857612997612b69565b5b828203905092915050565b60006129ae826129ed565b9050919050565b60008115159050919050565b60007fffffffff0000000000000000000000000000000000000000000000000000000082169050919050565b600073ffffffffffffffffffffffffffffffffffffffff82169050919050565b6000819050919050565b600067ffffffffffffffff82169050919050565b600060ff82169050919050565b6000612a4382612a2b565b9050919050565b82818337600083830152505050565b60005b83811015612a77578082015181840152602081019050612a5c565b83811115612a86576000848401525b50505050565b60006002820490506001821680612aa457607f821691505b60208210811415612ab857612ab7612bc7565b5b50919050565b612ac782612c25565b810181811067ffffffffffffffff82111715612ae657612ae5612bf6565b5b80604052505050565b6000612afa82612a0d565b91507fffffffffffffffffffffffffffffffffffffffffffffffffffffffffffffffff821415612b2d57612b2c612b69565b5b600182019050919050565b6000612b4382612a0d565b9150612b4e83612a0d565b925082612b5e57612b5d612b98565b5b828206905092915050565b7f4e487b7100000000000000000000000000000000000000000000000000000000600052601160045260246000fd5b7f4e487b7100000000000000000000000000000000000000000000000000000000600052601260045260246000fd5b7f4e487b7100000000000000000000000000000000000000000000000000000000600052602260045260246000fd5b7f4e487b7100000000000000000000000000000000000000000000000000000000600052604160045260246000fd5b6000601f19601f8301169050919050565b7f496e697469616c697a61626c653a20636f6e747261637420697320616c72656160008201527f647920696e697469616c697a6564000000000000000000000000000000000000602082015250565b7f4552433732313a20617070726f76616c20746f2063757272656e74206f776e6560008201527f7200000000000000000000000000000000000000000000000000000000000000602082015250565b612cdd816129a3565b8114612ce857600080fd5b50565b612cf4816129b5565b8114612cff57600080fd5b50565b612d0b816129c1565b8114612d1657600080fd5b50565b612d2281612a0d565b8114612d2d57600080fd5b5056fea26469706673582212205c527aecc1682cc313a4378542bd3071d5bb10fbe9275bc0ac81fc743990deed64736f6c63430008040033",
  "linkReferences": {},
  "deployedLinkReferences": {}
}