{
  "_format": "hh-sol-artifact-1",
  "contractName": "ERC721",
  "sourceName": "contracts/ERC721.sol",
  "abi": [
    {
      "inputs": [
        {
          "internalType": "address",
          "name": "_owner",
          "type": "address"
        }
      ],
      "stateMutability": "nonpayable",
      "type": "constructor"
    },
    {
      "inputs": [],
      "name": "AlreadyInitialized",
      "type": "error"
    },
    {
      "inputs": [],
      "name": "IncorrectOwner",
      "type": "error"
    },
    {
      "inputs": [],
      "name": "InsufficientAllowance",
      "type": "error"
    },
    {
      "inputs": [],
      "name": "InsufficientBalance",
      "type": "error"
    },
    {
      "inputs": [],
      "name": "InvalidTokenId",
      "type": "error"
    },
    {
      "inputs": [],
      "name": "MissingERC721Receiver",
      "type": "error"
    },
    {
      "inputs": [],
      "name": "PublicMintInactive",
      "type": "error"
    },
    {
      "inputs": [],
      "name": "SameAddress",
      "type": "error"
    },
    {
      "inputs": [],
      "name": "SameOwnerAndOperator",
      "type": "error"
    },
    {
      "inputs": [],
      "name": "TokenAlreadyMinted",
      "type": "error"
    },
    {
      "inputs": [],
      "name": "Unauthorized",
      "type": "error"
    },
    {
      "inputs": [],
      "name": "ZeroAddress",
      "type": "error"
    },
    {
      "anonymous": false,
      "inputs": [
        {
          "indexed": true,
          "internalType": "address",
          "name": "owner",
          "type": "address"
        },
        {
          "indexed": true,
          "internalType": "address",
          "name": "approved",
          "type": "address"
        },
        {
          "indexed": true,
          "internalType": "uint256",
          "name": "tokenId",
          "type": "uint256"
        }
      ],
      "name": "Approval",
      "type": "event"
    },
    {
      "anonymous": false,
      "inputs": [
        {
          "indexed": true,
          "internalType": "address",
          "name": "owner",
          "type": "address"
        },
        {
          "indexed": true,
          "internalType": "address",
          "name": "operator",
          "type": "address"
        },
        {
          "indexed": false,
          "internalType": "bool",
          "name": "approved",
          "type": "bool"
        }
      ],
      "name": "ApprovalForAll",
      "type": "event"
    },
    {
      "anonymous": false,
      "inputs": [
        {
          "indexed": false,
          "internalType": "uint8",
          "name": "version",
          "type": "uint8"
        }
      ],
      "name": "Initialized",
      "type": "event"
    },
    {
      "anonymous": false,
      "inputs": [
        {
          "indexed": true,
          "internalType": "address",
          "name": "from",
          "type": "address"
        },
        {
          "indexed": true,
          "internalType": "address",
          "name": "to",
          "type": "address"
        },
        {
          "indexed": true,
          "internalType": "uint256",
          "name": "tokenId",
          "type": "uint256"
        }
      ],
      "name": "Transfer",
      "type": "event"
    },
    {
      "inputs": [
        {
          "internalType": "address",
          "name": "_to",
          "type": "address"
        },
        {
          "internalType": "uint256",
          "name": "_tokenId",
          "type": "uint256"
        }
      ],
      "name": "approve",
      "outputs": [],
      "stateMutability": "nonpayable",
      "type": "function"
    },
    {
      "inputs": [
        {
          "internalType": "address",
          "name": "_owner",
          "type": "address"
        }
      ],
      "name": "balanceOf",
      "outputs": [
        {
          "internalType": "uint256",
          "name": "",
          "type": "uint256"
        }
      ],
      "stateMutability": "view",
      "type": "function"
    },
    {
      "inputs": [],
      "name": "contractOwner",
      "outputs": [
        {
          "internalType": "address",
          "name": "",
          "type": "address"
        }
      ],
      "stateMutability": "view",
      "type": "function"
    },
    {
      "inputs": [
        {
          "internalType": "uint256",
          "name": "_tokenId",
          "type": "uint256"
        }
      ],
      "name": "getApproved",
      "outputs": [
        {
          "internalType": "address",
          "name": "",
          "type": "address"
        }
      ],
      "stateMutability": "view",
      "type": "function"
    },
    {
      "inputs": [],
      "name": "getBaseURI",
      "outputs": [
        {
          "internalType": "string",
          "name": "",
          "type": "string"
        }
      ],
      "stateMutability": "view",
      "type": "function"
    },
    {
      "inputs": [
        {
          "internalType": "string",
          "name": "name_",
          "type": "string"
        },
        {
          "internalType": "string",
          "name": "symbol_",
          "type": "string"
        },
        {
          "internalType": "address",
          "name": "tenant_",
          "type": "address"
        }
      ],
      "name": "initialize",
      "outputs": [],
      "stateMutability": "nonpayable",
      "type": "function"
    },
    {
      "inputs": [
        {
          "internalType": "address",
          "name": "_owner",
          "type": "address"
        },
        {
          "internalType": "address",
          "name": "_operator",
          "type": "address"
        }
      ],
      "name": "isApprovedForAll",
      "outputs": [
        {
          "internalType": "bool",
          "name": "",
          "type": "bool"
        }
      ],
      "stateMutability": "view",
      "type": "function"
    },
    {
      "inputs": [],
      "name": "isPublicSaleActive",
      "outputs": [
        {
          "internalType": "bool",
          "name": "",
          "type": "bool"
        }
      ],
      "stateMutability": "view",
      "type": "function"
    },
    {
      "inputs": [],
      "name": "metadata",
      "outputs": [
        {
          "internalType": "bytes",
          "name": "title",
          "type": "bytes"
        },
        {
          "components": [
            {
              "internalType": "address",
              "name": "authorAddress",
              "type": "address"
            },
            {
              "internalType": "string",
              "name": "externalLink",
              "type": "string"
            }
          ],
          "internalType": "struct IHyperverseModule.Author",
          "name": "author",
          "type": "tuple"
        },
        {
          "internalType": "bytes",
          "name": "version",
          "type": "bytes"
        },
        {
          "internalType": "uint64",
          "name": "publishedAt",
          "type": "uint64"
        },
        {
          "internalType": "bytes",
          "name": "externalLink",
          "type": "bytes"
        }
      ],
      "stateMutability": "view",
      "type": "function"
    },
    {
      "inputs": [],
      "name": "mint",
      "outputs": [],
      "stateMutability": "payable",
      "type": "function"
    },
    {
      "inputs": [],
      "name": "name",
      "outputs": [
        {
          "internalType": "string",
          "name": "",
          "type": "string"
        }
      ],
      "stateMutability": "view",
      "type": "function"
    },
    {
      "inputs": [
        {
          "internalType": "uint256",
          "name": "_tokenId",
          "type": "uint256"
        }
      ],
      "name": "ownerOf",
      "outputs": [
        {
          "internalType": "address",
          "name": "",
          "type": "address"
        }
      ],
      "stateMutability": "view",
      "type": "function"
    },
    {
      "inputs": [],
      "name": "price",
      "outputs": [
        {
          "internalType": "uint256",
          "name": "",
          "type": "uint256"
        }
      ],
      "stateMutability": "view",
      "type": "function"
    },
    {
      "inputs": [
        {
          "internalType": "address",
          "name": "_from",
          "type": "address"
        },
        {
          "internalType": "address",
          "name": "_to",
          "type": "address"
        },
        {
          "internalType": "uint256",
          "name": "_tokenId",
          "type": "uint256"
        }
      ],
      "name": "safeTransferFrom",
      "outputs": [],
      "stateMutability": "nonpayable",
      "type": "function"
    },
    {
      "inputs": [
        {
          "internalType": "address",
          "name": "_from",
          "type": "address"
        },
        {
          "internalType": "address",
          "name": "_to",
          "type": "address"
        },
        {
          "internalType": "uint256",
          "name": "_tokenId",
          "type": "uint256"
        },
        {
          "internalType": "bytes",
          "name": "_data",
          "type": "bytes"
        }
      ],
      "name": "safeTransferFrom",
      "outputs": [],
      "stateMutability": "nonpayable",
      "type": "function"
    },
    {
      "inputs": [
        {
          "internalType": "address",
          "name": "_operator",
          "type": "address"
        },
        {
          "internalType": "bool",
          "name": "_approved",
          "type": "bool"
        }
      ],
      "name": "setApprovalForAll",
      "outputs": [],
      "stateMutability": "nonpayable",
      "type": "function"
    },
    {
      "inputs": [
        {
          "internalType": "string",
          "name": "baseURI_",
          "type": "string"
        }
      ],
      "name": "setBaseURI",
      "outputs": [],
      "stateMutability": "nonpayable",
      "type": "function"
    },
    {
      "inputs": [
        {
          "internalType": "uint256",
          "name": "_price",
          "type": "uint256"
        }
      ],
      "name": "setMintPrice",
      "outputs": [],
      "stateMutability": "nonpayable",
      "type": "function"
    },
    {
      "inputs": [
        {
          "internalType": "bool",
          "name": "_isActive",
          "type": "bool"
        }
      ],
      "name": "setPublicSale",
      "outputs": [],
      "stateMutability": "nonpayable",
      "type": "function"
    },
    {
      "inputs": [
        {
          "internalType": "bytes4",
          "name": "_interfaceId",
          "type": "bytes4"
        }
      ],
      "name": "supportsInterface",
      "outputs": [
        {
          "internalType": "bool",
          "name": "",
          "type": "bool"
        }
      ],
      "stateMutability": "view",
      "type": "function"
    },
    {
      "inputs": [],
      "name": "symbol",
      "outputs": [
        {
          "internalType": "string",
          "name": "",
          "type": "string"
        }
      ],
      "stateMutability": "view",
      "type": "function"
    },
    {
      "inputs": [
        {
          "internalType": "address",
          "name": "_reciever",
          "type": "address"
        }
      ],
      "name": "tenantMint",
      "outputs": [],
      "stateMutability": "nonpayable",
      "type": "function"
    },
    {
      "inputs": [
        {
          "internalType": "uint256",
          "name": "_tokenId",
          "type": "uint256"
        }
      ],
      "name": "tokenURI",
      "outputs": [
        {
          "internalType": "string",
          "name": "",
          "type": "string"
        }
      ],
      "stateMutability": "view",
      "type": "function"
    },
    {
      "inputs": [
        {
          "internalType": "address",
          "name": "_from",
          "type": "address"
        },
        {
          "internalType": "address",
          "name": "_to",
          "type": "address"
        },
        {
          "internalType": "uint256",
          "name": "_tokenId",
          "type": "uint256"
        }
      ],
      "name": "transferFrom",
      "outputs": [],
      "stateMutability": "nonpayable",
      "type": "function"
    },
    {
      "inputs": [],
      "name": "withdraw",
      "outputs": [],
      "stateMutability": "nonpayable",
      "type": "function"
    },
    {
      "inputs": [
        {
          "internalType": "contract IERC20",
          "name": "_token",
          "type": "address"
        }
      ],
      "name": "withdrawTokens",
      "outputs": [],
      "stateMutability": "nonpayable",
      "type": "function"
    }
  ],
  "bytecode": "0x60a06040523480156200001157600080fd5b50604051620038dd380380620038dd83398181016040528101906200003791906200040c565b60016000819055506040518060a001604052806040518060400160405280600681526020017f4552433732310000000000000000000000000000000000000000000000000000815250815260200160405180604001604052808473ffffffffffffffffffffffffffffffffffffffff1681526020016040518060400160405280601881526020017f68747470733a2f2f65787465726e616c6c696e6b2e6e6574000000000000000081525081525081526020016040518060400160405280600581526020017f302e302e31000000000000000000000000000000000000000000000000000000815250815260200165032a361e860667ffffffffffffffff1681526020016040518060400160405280601881526020017f68747470733a2f2f65787465726e616c4c696e6b2e6e657400000000000000008152508152506002600082015181600001908051906020019062000194929190620002b4565b5060208201518160010160008201518160000160006101000a81548173ffffffffffffffffffffffffffffffffffffffff021916908373ffffffffffffffffffffffffffffffffffffffff16021790555060208201518160010190805190602001906200020392919062000345565b505050604082015181600301908051906020019062000224929190620002b4565b5060608201518160040160006101000a81548167ffffffffffffffff021916908367ffffffffffffffff160217905550608082015181600501908051906020019062000272929190620002b4565b509050508073ffffffffffffffffffffffffffffffffffffffff1660808173ffffffffffffffffffffffffffffffffffffffff1660601b8152505050620004eb565b828054620002c2906200046c565b90600052602060002090601f016020900481019282620002e6576000855562000332565b82601f106200030157805160ff191683800117855562000332565b8280016001018555821562000332579182015b828111156200033157825182559160200191906001019062000314565b5b509050620003419190620003d6565b5090565b82805462000353906200046c565b90600052602060002090601f016020900481019282620003775760008555620003c3565b82601f106200039257805160ff1916838001178555620003c3565b82800160010185558215620003c3579182015b82811115620003c2578251825591602001919060010190620003a5565b5b509050620003d29190620003d6565b5090565b5b80821115620003f1576000816000905550600101620003d7565b5090565b6000815190506200040681620004d1565b92915050565b6000602082840312156200041f57600080fd5b60006200042f84828501620003f5565b91505092915050565b600062000445826200044c565b9050919050565b600073ffffffffffffffffffffffffffffffffffffffff82169050919050565b600060028204905060018216806200048557607f821691505b602082108114156200049c576200049b620004a2565b5b50919050565b7f4e487b7100000000000000000000000000000000000000000000000000000000600052602260045260246000fd5b620004dc8162000438565b8114620004e857600080fd5b50565b60805160601c6133d36200050a600039600061164801526133d36000f3fe6080604052600436106101815760003560e01c806355f804b3116100d1578063a035b1fe1161008a578063c87b56dd11610064578063c87b56dd1461053b578063ce606ee014610578578063e985e9c5146105a3578063f4a0a528146105e057610181565b8063a035b1fe146104be578063a22cb465146104e9578063b88d4fde1461051257610181565b806355f804b31461039c5780635aca1bb6146103c55780636352211e146103ee57806370a082311461042b578063714c53981461046857806395d89b411461049357610181565b80631e84c4131161013e578063392f37e911610118578063392f37e9146103045780633ccfd60b1461033357806342842e0e1461034a57806349df728c1461037357610181565b80631e84c41314610287578063217cc2b4146102b257806323b872dd146102db57610181565b806301ffc9a71461018657806306fdde03146101c3578063077f224a146101ee578063081812fc14610217578063095ea7b3146102545780631249c58b1461027d575b600080fd5b34801561019257600080fd5b506101ad60048036038101906101a8919061295b565b610609565b6040516101ba9190612d55565b60405180910390f35b3480156101cf57600080fd5b506101d86106eb565b6040516101e59190612dfa565b60405180910390f35b3480156101fa57600080fd5b5061021560048036038101906102109190612a17565b61077d565b005b34801561022357600080fd5b5061023e60048036038101906102399190612a96565b610904565b60405161024b9190612cc5565b60405180910390f35b34801561026057600080fd5b5061027b600480360381019061027691906128cd565b61094a565b005b610285610a53565b005b34801561029357600080fd5b5061029c610b45565b6040516102a99190612d55565b60405180910390f35b3480156102be57600080fd5b506102d960048036038101906102d49190612762565b610b58565b005b3480156102e757600080fd5b5061030260048036038101906102fd91906127c7565b610bf3565b005b34801561031057600080fd5b50610319610c4a565b60405161032a959493929190612d70565b60405180910390f35b34801561033f57600080fd5b50610348610f0c565b005b34801561035657600080fd5b50610371600480360381019061036c91906127c7565b610fe2565b005b34801561037f57600080fd5b5061039a600480360381019061039591906129ad565b611002565b005b3480156103a857600080fd5b506103c360048036038101906103be91906129d6565b6111a8565b005b3480156103d157600080fd5b506103ec60048036038101906103e79190612909565b611249565b005b3480156103fa57600080fd5b5061041560048036038101906104109190612a96565b6112ed565b6040516104229190612cc5565b60405180910390f35b34801561043757600080fd5b50610452600480360381019061044d9190612762565b611396565b60405161045f9190612e5c565b60405180910390f35b34801561047457600080fd5b5061047d611445565b60405161048a9190612dfa565b60405180910390f35b34801561049f57600080fd5b506104a86114d7565b6040516104b59190612dfa565b60405180910390f35b3480156104ca57600080fd5b506104d3611569565b6040516104e09190612e5c565b60405180910390f35b3480156104f557600080fd5b50610510600480360381019061050b9190612891565b61156f565b005b34801561051e57600080fd5b5061053960048036038101906105349190612816565b611585565b005b34801561054757600080fd5b50610562600480360381019061055d9190612a96565b6115de565b60405161056f9190612dfa565b60405180910390f35b34801561058457600080fd5b5061058d611646565b60405161059a9190612cc5565b60405180910390f35b3480156105af57600080fd5b506105ca60048036038101906105c5919061278b565b61166a565b6040516105d79190612d55565b60405180910390f35b3480156105ec57600080fd5b5061060760048036038101906106029190612a96565b6116fe565b005b60007f80ac58cd000000000000000000000000000000000000000000000000000000007bffffffffffffffffffffffffffffffffffffffffffffffffffffffff1916827bffffffffffffffffffffffffffffffffffffffffffffffffffffffff191614806106d457507f5b5e139f000000000000000000000000000000000000000000000000000000007bffffffffffffffffffffffffffffffffffffffffffffffffffffffff1916827bffffffffffffffffffffffffffffffffffffffffffffffffffffffff1916145b806106e457506106e38261178f565b5b9050919050565b6060600b80546106fa90613108565b80601f016020809104026020016040519081016040528092919081815260200182805461072690613108565b80156107735780601f1061074857610100808354040283529160200191610773565b820191906000526020600020905b81548152906001019060200180831161075657829003601f168201915b5050505050905090565b600061078960016117f9565b905080156107ac5760018060016101000a81548160ff0219169083151502179055505b81600073ffffffffffffffffffffffffffffffffffffffff16600960009054906101000a900473ffffffffffffffffffffffffffffffffffffffff1673ffffffffffffffffffffffffffffffffffffffff1614610835576040517f0dc149f000000000000000000000000000000000000000000000000000000000815260040160405180910390fd5b84600b908051906020019061084b929190612547565b5083600c9080519060200190610862929190612547565b5082600960006101000a81548173ffffffffffffffffffffffffffffffffffffffff021916908373ffffffffffffffffffffffffffffffffffffffff1602179055505080156108fe5760006001806101000a81548160ff0219169083151502179055507f7f26b83ff96e1f2b6a682f133852f6798a09c465da95921460cefb384740249860016040516108f59190612ddf565b60405180910390a15b50505050565b600061090f826118eb565b6012600083815260200190815260200160002060009054906101000a900473ffffffffffffffffffffffffffffffffffffffff169050919050565b6000610955826112ed565b90508273ffffffffffffffffffffffffffffffffffffffff168173ffffffffffffffffffffffffffffffffffffffff1614156109bd576040517f367558c300000000000000000000000000000000000000000000000000000000815260040160405180910390fd5b8073ffffffffffffffffffffffffffffffffffffffff166109dc61192d565b73ffffffffffffffffffffffffffffffffffffffff16141580610a0d5750610a0b81610a0661192d565b61166a565b155b15610a44576040517f82b4290000000000000000000000000000000000000000000000000000000000815260040160405180910390fd5b610a4e8383611935565b505050565b60026000541415610a99576040517f08c379a0000000000000000000000000000000000000000000000000000000008152600401610a9090612e3c565b60405180910390fd5b600260008190555060001515600f60009054906101000a900460ff1615151415610aef576040517f15b1bdcd00000000000000000000000000000000000000000000000000000000815260040160405180910390fd5b600e543414610b2a576040517ff4d678b800000000000000000000000000000000000000000000000000000000815260040160405180910390fd5b610b3b33610b366119ee565b611a09565b6001600081905550565b600f60009054906101000a900460ff1681565b600960009054906101000a900473ffffffffffffffffffffffffffffffffffffffff1673ffffffffffffffffffffffffffffffffffffffff163373ffffffffffffffffffffffffffffffffffffffff1614610bdf576040517f82b4290000000000000000000000000000000000000000000000000000000000815260040160405180910390fd5b610bf081610beb6119ee565b611a09565b50565b610c04610bfe61192d565b82611a27565b610c3a576040517f82b4290000000000000000000000000000000000000000000000000000000000815260040160405180910390fd5b610c45838383611abc565b505050565b6002806000018054610c5b90613108565b80601f0160208091040260200160405190810160405280929190818152602001828054610c8790613108565b8015610cd45780601f10610ca957610100808354040283529160200191610cd4565b820191906000526020600020905b815481529060010190602001808311610cb757829003601f168201915b505050505090806001016040518060400160405290816000820160009054906101000a900473ffffffffffffffffffffffffffffffffffffffff1673ffffffffffffffffffffffffffffffffffffffff1673ffffffffffffffffffffffffffffffffffffffff168152602001600182018054610d4f90613108565b80601f0160208091040260200160405190810160405280929190818152602001828054610d7b90613108565b8015610dc85780601f10610d9d57610100808354040283529160200191610dc8565b820191906000526020600020905b815481529060010190602001808311610dab57829003601f168201915b50505050508152505090806003018054610de190613108565b80601f0160208091040260200160405190810160405280929190818152602001828054610e0d90613108565b8015610e5a5780601f10610e2f57610100808354040283529160200191610e5a565b820191906000526020600020905b815481529060010190602001808311610e3d57829003601f168201915b5050505050908060040160009054906101000a900467ffffffffffffffff1690806005018054610e8990613108565b80601f0160208091040260200160405190810160405280929190818152602001828054610eb590613108565b8015610f025780601f10610ed757610100808354040283529160200191610f02565b820191906000526020600020905b815481529060010190602001808311610ee557829003601f168201915b5050505050905085565b600960009054906101000a900473ffffffffffffffffffffffffffffffffffffffff1673ffffffffffffffffffffffffffffffffffffffff163373ffffffffffffffffffffffffffffffffffffffff1614610f93576040517f82b4290000000000000000000000000000000000000000000000000000000000815260040160405180910390fd5b60004790503373ffffffffffffffffffffffffffffffffffffffff166108fc829081150290604051600060405180830381858888f19350505050158015610fde573d6000803e3d6000fd5b5050565b610ffd83838360405180602001604052806000815250611585565b505050565b600960009054906101000a900473ffffffffffffffffffffffffffffffffffffffff1673ffffffffffffffffffffffffffffffffffffffff163373ffffffffffffffffffffffffffffffffffffffff1614611089576040517f82b4290000000000000000000000000000000000000000000000000000000000815260040160405180910390fd5b60008173ffffffffffffffffffffffffffffffffffffffff166370a08231306040518263ffffffff1660e01b81526004016110c49190612cc5565b60206040518083038186803b1580156110dc57600080fd5b505afa1580156110f0573d6000803e3d6000fd5b505050506040513d601f19601f820116820180604052508101906111149190612abf565b90508173ffffffffffffffffffffffffffffffffffffffff1663a9059cbb33836040518363ffffffff1660e01b8152600401611151929190612d2c565b602060405180830381600087803b15801561116b57600080fd5b505af115801561117f573d6000803e3d6000fd5b505050506040513d601f19601f820116820180604052508101906111a39190612932565b505050565b600960009054906101000a900473ffffffffffffffffffffffffffffffffffffffff1673ffffffffffffffffffffffffffffffffffffffff163373ffffffffffffffffffffffffffffffffffffffff161461122f576040517f82b4290000000000000000000000000000000000000000000000000000000000815260040160405180910390fd5b80600d9080519060200190611245929190612547565b5050565b600960009054906101000a900473ffffffffffffffffffffffffffffffffffffffff1673ffffffffffffffffffffffffffffffffffffffff163373ffffffffffffffffffffffffffffffffffffffff16146112d0576040517f82b4290000000000000000000000000000000000000000000000000000000000815260040160405180910390fd5b80600f60006101000a81548160ff02191690831515021790555050565b6000806010600084815260200190815260200160002060009054906101000a900473ffffffffffffffffffffffffffffffffffffffff169050600073ffffffffffffffffffffffffffffffffffffffff168173ffffffffffffffffffffffffffffffffffffffff16141561138d576040517f3f6cc76800000000000000000000000000000000000000000000000000000000815260040160405180910390fd5b80915050919050565b60008073ffffffffffffffffffffffffffffffffffffffff168273ffffffffffffffffffffffffffffffffffffffff1614156113fe576040517fd92e233d00000000000000000000000000000000000000000000000000000000815260040160405180910390fd5b601160008373ffffffffffffffffffffffffffffffffffffffff1673ffffffffffffffffffffffffffffffffffffffff168152602001908152602001600020549050919050565b6060600d805461145490613108565b80601f016020809104026020016040519081016040528092919081815260200182805461148090613108565b80156114cd5780601f106114a2576101008083540402835291602001916114cd565b820191906000526020600020905b8154815290600101906020018083116114b057829003601f168201915b5050505050905090565b6060600c80546114e690613108565b80601f016020809104026020016040519081016040528092919081815260200182805461151290613108565b801561155f5780601f106115345761010080835404028352916020019161155f565b820191906000526020600020905b81548152906001019060200180831161154257829003601f168201915b5050505050905090565b600e5481565b61158161157a61192d565b8383611d11565b5050565b61159661159061192d565b83611a27565b6115cc576040517f82b4290000000000000000000000000000000000000000000000000000000000815260040160405180910390fd5b6115d884848484611edc565b50505050565b60606115e9826118eb565b60006115f3611f2f565b90506000815111611613576040518060200160405280600081525061163e565b8061161d84611f46565b60405160200161162e929190612ca1565b6040516020818303038152906040525b915050919050565b7f000000000000000000000000000000000000000000000000000000000000000081565b6000601360008473ffffffffffffffffffffffffffffffffffffffff1673ffffffffffffffffffffffffffffffffffffffff16815260200190815260200160002060008373ffffffffffffffffffffffffffffffffffffffff1673ffffffffffffffffffffffffffffffffffffffff16815260200190815260200160002060009054906101000a900460ff16905092915050565b600960009054906101000a900473ffffffffffffffffffffffffffffffffffffffff1673ffffffffffffffffffffffffffffffffffffffff163373ffffffffffffffffffffffffffffffffffffffff1614611785576040517f82b4290000000000000000000000000000000000000000000000000000000000815260040160405180910390fd5b80600e8190555050565b60007f01ffc9a7000000000000000000000000000000000000000000000000000000007bffffffffffffffffffffffffffffffffffffffffffffffffffffffff1916827bffffffffffffffffffffffffffffffffffffffffffffffffffffffff1916149050919050565b600060018054906101000a900460ff161561186f5760018260ff161480156118275750611825306120f3565b155b611866576040517f08c379a000000000000000000000000000000000000000000000000000000000815260040161185d90612e1c565b60405180910390fd5b600090506118e6565b8160ff16600160009054906101000a900460ff1660ff16106118c6576040517f08c379a00000000000000000000000000000000000000000000000000000000081526004016118bd90612e1c565b60405180910390fd5b81600160006101000a81548160ff021916908360ff160217905550600190505b919050565b6118f481612106565b61192a576040517f3f6cc76800000000000000000000000000000000000000000000000000000000815260040160405180910390fd5b50565b600033905090565b816012600083815260200190815260200160002060006101000a81548173ffffffffffffffffffffffffffffffffffffffff021916908373ffffffffffffffffffffffffffffffffffffffff160217905550808273ffffffffffffffffffffffffffffffffffffffff166119a8836112ed565b73ffffffffffffffffffffffffffffffffffffffff167f8c5be1e5ebec7d5bd14f71427d1e84f3dd0314c0f7b2291e5b200ac8c7c3b92560405160405180910390a45050565b60006119fa600a612172565b611a04600a612188565b905090565b611a23828260405180602001604052806000815250612196565b5050565b600080611a33836112ed565b90508073ffffffffffffffffffffffffffffffffffffffff168473ffffffffffffffffffffffffffffffffffffffff161480611a755750611a74818561166a565b5b80611ab357508373ffffffffffffffffffffffffffffffffffffffff16611a9b84610904565b73ffffffffffffffffffffffffffffffffffffffff16145b91505092915050565b8273ffffffffffffffffffffffffffffffffffffffff16611adc826112ed565b73ffffffffffffffffffffffffffffffffffffffff1614611b29576040517f3a6bbed300000000000000000000000000000000000000000000000000000000815260040160405180910390fd5b600073ffffffffffffffffffffffffffffffffffffffff168273ffffffffffffffffffffffffffffffffffffffff161415611b90576040517fd92e233d00000000000000000000000000000000000000000000000000000000815260040160405180910390fd5b611b9b8383836121e8565b611ba6600082611935565b6001601160008573ffffffffffffffffffffffffffffffffffffffff1673ffffffffffffffffffffffffffffffffffffffff1681526020019081526020016000206000828254611bf69190612fd9565b925050819055506001601160008473ffffffffffffffffffffffffffffffffffffffff1673ffffffffffffffffffffffffffffffffffffffff1681526020019081526020016000206000828254611c4d9190612f52565b92505081905550816010600083815260200190815260200160002060006101000a81548173ffffffffffffffffffffffffffffffffffffffff021916908373ffffffffffffffffffffffffffffffffffffffff160217905550808273ffffffffffffffffffffffffffffffffffffffff168473ffffffffffffffffffffffffffffffffffffffff167fddf252ad1be2c89b69c2b068fc378daa952ba7f163c4a11628f55a4df523b3ef60405160405180910390a4611d0c8383836121ed565b505050565b600073ffffffffffffffffffffffffffffffffffffffff168273ffffffffffffffffffffffffffffffffffffffff161415611d78576040517fd92e233d00000000000000000000000000000000000000000000000000000000815260040160405180910390fd5b8173ffffffffffffffffffffffffffffffffffffffff168373ffffffffffffffffffffffffffffffffffffffff161415611dde576040517ff4b33eeb00000000000000000000000000000000000000000000000000000000815260040160405180910390fd5b80601360008573ffffffffffffffffffffffffffffffffffffffff1673ffffffffffffffffffffffffffffffffffffffff16815260200190815260200160002060008473ffffffffffffffffffffffffffffffffffffffff1673ffffffffffffffffffffffffffffffffffffffff16815260200190815260200160002060006101000a81548160ff0219169083151502179055508173ffffffffffffffffffffffffffffffffffffffff168373ffffffffffffffffffffffffffffffffffffffff167f17307eab39ab6107e8899845ad3d59bd9653f200f220920489ca2b5937696c3183604051611ecf9190612d55565b60405180910390a3505050565b611ee7848484611abc565b611ef3848484846121f2565b611f29576040517f44ccafd600000000000000000000000000000000000000000000000000000000815260040160405180910390fd5b50505050565b606060405180602001604052806000815250905090565b60606000821415611f8e576040518060400160405280600181526020017f300000000000000000000000000000000000000000000000000000000000000081525090506120ee565b600082905060005b60008214611fc0578080611fa99061316b565b915050600a82611fb99190612fa8565b9150611f96565b60008167ffffffffffffffff811115612002577f4e487b7100000000000000000000000000000000000000000000000000000000600052604160045260246000fd5b6040519080825280601f01601f1916602001820160405280156120345781602001600182028036833780820191505090505b5090505b600085146120e75760018261204d9190612fd9565b9150600a8561205c91906131b4565b60306120689190612f52565b60f81b8183815181106120a4577f4e487b7100000000000000000000000000000000000000000000000000000000600052603260045260246000fd5b60200101907effffffffffffffffffffffffffffffffffffffffffffffffffffffffffffff1916908160001a905350600a856120e09190612fa8565b9450612038565b8093505050505b919050565b600080823b905060008111915050919050565b60008073ffffffffffffffffffffffffffffffffffffffff166010600084815260200190815260200160002060009054906101000a900473ffffffffffffffffffffffffffffffffffffffff1673ffffffffffffffffffffffffffffffffffffffff1614159050919050565b6001816000016000828254019250508190555050565b600081600001549050919050565b6121a08383612380565b6121ad60008484846121f2565b6121e3576040517f44ccafd600000000000000000000000000000000000000000000000000000000815260040160405180910390fd5b505050565b505050565b505050565b60006122138473ffffffffffffffffffffffffffffffffffffffff166120f3565b15612373578373ffffffffffffffffffffffffffffffffffffffff1663150b7a0261223c61192d565b8786866040518563ffffffff1660e01b815260040161225e9493929190612ce0565b602060405180830381600087803b15801561227857600080fd5b505af19250505080156122a957506040513d601f19601f820116820180604052508101906122a69190612984565b60015b612323573d80600081146122d9576040519150601f19603f3d011682016040523d82523d6000602084013e6122de565b606091505b5060008151141561231b576040517f44ccafd600000000000000000000000000000000000000000000000000000000815260040160405180910390fd5b805181602001fd5b63150b7a0260e01b7bffffffffffffffffffffffffffffffffffffffffffffffffffffffff1916817bffffffffffffffffffffffffffffffffffffffffffffffffffffffff191614915050612378565b600190505b949350505050565b600073ffffffffffffffffffffffffffffffffffffffff168273ffffffffffffffffffffffffffffffffffffffff1614156123e7576040517fd92e233d00000000000000000000000000000000000000000000000000000000815260040160405180910390fd5b6123f081612106565b15612426576040517ea5a1f500000000000000000000000000000000000000000000000000000000815260040160405180910390fd5b612432600083836121e8565b6001601160008473ffffffffffffffffffffffffffffffffffffffff1673ffffffffffffffffffffffffffffffffffffffff16815260200190815260200160002060008282546124829190612f52565b92505081905550816010600083815260200190815260200160002060006101000a81548173ffffffffffffffffffffffffffffffffffffffff021916908373ffffffffffffffffffffffffffffffffffffffff160217905550808273ffffffffffffffffffffffffffffffffffffffff16600073ffffffffffffffffffffffffffffffffffffffff167fddf252ad1be2c89b69c2b068fc378daa952ba7f163c4a11628f55a4df523b3ef60405160405180910390a4612543600083836121ed565b5050565b82805461255390613108565b90600052602060002090601f01602090048101928261257557600085556125bc565b82601f1061258e57805160ff19168380011785556125bc565b828001600101855582156125bc579182015b828111156125bb5782518255916020019190600101906125a0565b5b5090506125c991906125cd565b5090565b5b808211156125e65760008160009055506001016125ce565b5090565b60006125fd6125f884612e9c565b612e77565b90508281526020810184848401111561261557600080fd5b6126208482856130c6565b509392505050565b600061263b61263684612ecd565b612e77565b90508281526020810184848401111561265357600080fd5b61265e8482856130c6565b509392505050565b6000813590506126758161332a565b92915050565b60008135905061268a81613341565b92915050565b60008151905061269f81613341565b92915050565b6000813590506126b481613358565b92915050565b6000815190506126c981613358565b92915050565b600082601f8301126126e057600080fd5b81356126f08482602086016125ea565b91505092915050565b6000813590506127088161336f565b92915050565b600082601f83011261271f57600080fd5b813561272f848260208601612628565b91505092915050565b60008135905061274781613386565b92915050565b60008151905061275c81613386565b92915050565b60006020828403121561277457600080fd5b600061278284828501612666565b91505092915050565b6000806040838503121561279e57600080fd5b60006127ac85828601612666565b92505060206127bd85828601612666565b9150509250929050565b6000806000606084860312156127dc57600080fd5b60006127ea86828701612666565b93505060206127fb86828701612666565b925050604061280c86828701612738565b9150509250925092565b6000806000806080858703121561282c57600080fd5b600061283a87828801612666565b945050602061284b87828801612666565b935050604061285c87828801612738565b925050606085013567ffffffffffffffff81111561287957600080fd5b612885878288016126cf565b91505092959194509250565b600080604083850312156128a457600080fd5b60006128b285828601612666565b92505060206128c38582860161267b565b9150509250929050565b600080604083850312156128e057600080fd5b60006128ee85828601612666565b92505060206128ff85828601612738565b9150509250929050565b60006020828403121561291b57600080fd5b60006129298482850161267b565b91505092915050565b60006020828403121561294457600080fd5b600061295284828501612690565b91505092915050565b60006020828403121561296d57600080fd5b600061297b848285016126a5565b91505092915050565b60006020828403121561299657600080fd5b60006129a4848285016126ba565b91505092915050565b6000602082840312156129bf57600080fd5b60006129cd848285016126f9565b91505092915050565b6000602082840312156129e857600080fd5b600082013567ffffffffffffffff811115612a0257600080fd5b612a0e8482850161270e565b91505092915050565b600080600060608486031215612a2c57600080fd5b600084013567ffffffffffffffff811115612a4657600080fd5b612a528682870161270e565b935050602084013567ffffffffffffffff811115612a6f57600080fd5b612a7b8682870161270e565b9250506040612a8c86828701612666565b9150509250925092565b600060208284031215612aa857600080fd5b6000612ab684828501612738565b91505092915050565b600060208284031215612ad157600080fd5b6000612adf8482850161274d565b91505092915050565b612af18161300d565b82525050565b612b008161300d565b82525050565b612b0f8161301f565b82525050565b6000612b2082612efe565b612b2a8185612f14565b9350612b3a8185602086016130d5565b612b43816132a1565b840191505092915050565b612b57816130b4565b82525050565b6000612b6882612f09565b612b728185612f25565b9350612b828185602086016130d5565b612b8b816132a1565b840191505092915050565b6000612ba182612f09565b612bab8185612f36565b9350612bbb8185602086016130d5565b612bc4816132a1565b840191505092915050565b6000612bda82612f09565b612be48185612f47565b9350612bf48185602086016130d5565b80840191505092915050565b6000612c0d602e83612f36565b9150612c18826132b2565b604082019050919050565b6000612c30601f83612f36565b9150612c3b82613301565b602082019050919050565b6000604083016000830151612c5e6000860182612ae8565b5060208301518482036020860152612c768282612b5d565b9150508091505092915050565b612c8c81613089565b82525050565b612c9b81613093565b82525050565b6000612cad8285612bcf565b9150612cb98284612bcf565b91508190509392505050565b6000602082019050612cda6000830184612af7565b92915050565b6000608082019050612cf56000830187612af7565b612d026020830186612af7565b612d0f6040830185612c83565b8181036060830152612d218184612b15565b905095945050505050565b6000604082019050612d416000830185612af7565b612d4e6020830184612c83565b9392505050565b6000602082019050612d6a6000830184612b06565b92915050565b600060a0820190508181036000830152612d8a8188612b15565b90508181036020830152612d9e8187612c46565b90508181036040830152612db28186612b15565b9050612dc16060830185612c92565b8181036080830152612dd38184612b15565b90509695505050505050565b6000602082019050612df46000830184612b4e565b92915050565b60006020820190508181036000830152612e148184612b96565b905092915050565b60006020820190508181036000830152612e3581612c00565b9050919050565b60006020820190508181036000830152612e5581612c23565b9050919050565b6000602082019050612e716000830184612c83565b92915050565b6000612e81612e92565b9050612e8d828261313a565b919050565b6000604051905090565b600067ffffffffffffffff821115612eb757612eb6613272565b5b612ec0826132a1565b9050602081019050919050565b600067ffffffffffffffff821115612ee857612ee7613272565b5b612ef1826132a1565b9050602081019050919050565b600081519050919050565b600081519050919050565b600082825260208201905092915050565b600082825260208201905092915050565b600082825260208201905092915050565b600081905092915050565b6000612f5d82613089565b9150612f6883613089565b9250827fffffffffffffffffffffffffffffffffffffffffffffffffffffffffffffffff03821115612f9d57612f9c6131e5565b5b828201905092915050565b6000612fb382613089565b9150612fbe83613089565b925082612fce57612fcd613214565b5b828204905092915050565b6000612fe482613089565b9150612fef83613089565b925082821015613002576130016131e5565b5b828203905092915050565b600061301882613069565b9050919050565b60008115159050919050565b60007fffffffff0000000000000000000000000000000000000000000000000000000082169050919050565b60006130628261300d565b9050919050565b600073ffffffffffffffffffffffffffffffffffffffff82169050919050565b6000819050919050565b600067ffffffffffffffff82169050919050565b600060ff82169050919050565b60006130bf826130a7565b9050919050565b82818337600083830152505050565b60005b838110156130f35780820151818401526020810190506130d8565b83811115613102576000848401525b50505050565b6000600282049050600182168061312057607f821691505b6020821081141561313457613133613243565b5b50919050565b613143826132a1565b810181811067ffffffffffffffff8211171561316257613161613272565b5b80604052505050565b600061317682613089565b91507fffffffffffffffffffffffffffffffffffffffffffffffffffffffffffffffff8214156131a9576131a86131e5565b5b600182019050919050565b60006131bf82613089565b91506131ca83613089565b9250826131da576131d9613214565b5b828206905092915050565b7f4e487b7100000000000000000000000000000000000000000000000000000000600052601160045260246000fd5b7f4e487b7100000000000000000000000000000000000000000000000000000000600052601260045260246000fd5b7f4e487b7100000000000000000000000000000000000000000000000000000000600052602260045260246000fd5b7f4e487b7100000000000000000000000000000000000000000000000000000000600052604160045260246000fd5b6000601f19601f8301169050919050565b7f496e697469616c697a61626c653a20636f6e747261637420697320616c72656160008201527f647920696e697469616c697a6564000000000000000000000000000000000000602082015250565b7f5265656e7472616e637947756172643a207265656e7472616e742063616c6c00600082015250565b6133338161300d565b811461333e57600080fd5b50565b61334a8161301f565b811461335557600080fd5b50565b6133618161302b565b811461336c57600080fd5b50565b61337881613057565b811461338357600080fd5b50565b61338f81613089565b811461339a57600080fd5b5056fea2646970667358221220b076fb0c908bd4bc478734084238e822b5a8272e61ab54eecbf391c81a5da4c764736f6c63430008040033",
  "linkReferences": {},
  "deployedLinkReferences": {}
}