{
  "_format": "hh-sol-artifact-1",
  "contractName": "ERC721",
  "sourceName": "contracts/ERC721.sol",
  "abi": [
    {
      "inputs": [
        {
          "internalType": "address",
          "name": "_owner",
          "type": "address"
        }
      ],
      "stateMutability": "nonpayable",
      "type": "constructor"
    },
    {
      "inputs": [],
      "name": "AlreadyInitialized",
      "type": "error"
    },
    {
      "inputs": [],
      "name": "CollectionLocked",
      "type": "error"
    },
    {
      "inputs": [],
      "name": "IncorrectOwner",
      "type": "error"
    },
    {
      "inputs": [],
      "name": "InitializeLocked",
      "type": "error"
    },
    {
      "inputs": [],
      "name": "InsufficientAllowance",
      "type": "error"
    },
    {
      "inputs": [],
      "name": "InsufficientBalance",
      "type": "error"
    },
    {
      "inputs": [],
      "name": "InvalidTokenId",
      "type": "error"
    },
    {
      "inputs": [],
      "name": "MaxPerUserExceeded",
      "type": "error"
    },
    {
      "inputs": [],
      "name": "MaxSupplyExceeded",
      "type": "error"
    },
    {
      "inputs": [],
      "name": "MissingERC721Receiver",
      "type": "error"
    },
    {
      "inputs": [],
      "name": "NotACollection",
      "type": "error"
    },
    {
      "inputs": [],
      "name": "PublicMintInactive",
      "type": "error"
    },
    {
      "inputs": [],
      "name": "SameAddress",
      "type": "error"
    },
    {
      "inputs": [],
      "name": "SameOwnerAndOperator",
      "type": "error"
    },
    {
      "inputs": [],
      "name": "TokenAlreadyMinted",
      "type": "error"
    },
    {
      "inputs": [],
      "name": "Unauthorized",
      "type": "error"
    },
    {
      "inputs": [],
      "name": "ZeroAddress",
      "type": "error"
    },
    {
      "anonymous": false,
      "inputs": [
        {
          "indexed": true,
          "internalType": "address",
          "name": "owner",
          "type": "address"
        },
        {
          "indexed": true,
          "internalType": "address",
          "name": "approved",
          "type": "address"
        },
        {
          "indexed": true,
          "internalType": "uint256",
          "name": "tokenId",
          "type": "uint256"
        }
      ],
      "name": "Approval",
      "type": "event"
    },
    {
      "anonymous": false,
      "inputs": [
        {
          "indexed": true,
          "internalType": "address",
          "name": "owner",
          "type": "address"
        },
        {
          "indexed": true,
          "internalType": "address",
          "name": "operator",
          "type": "address"
        },
        {
          "indexed": false,
          "internalType": "bool",
          "name": "approved",
          "type": "bool"
        }
      ],
      "name": "ApprovalForAll",
      "type": "event"
    },
    {
      "anonymous": false,
      "inputs": [
        {
          "indexed": false,
          "internalType": "uint8",
          "name": "version",
          "type": "uint8"
        }
      ],
      "name": "Initialized",
      "type": "event"
    },
    {
      "anonymous": false,
      "inputs": [
        {
          "indexed": true,
          "internalType": "address",
          "name": "from",
          "type": "address"
        },
        {
          "indexed": true,
          "internalType": "address",
          "name": "to",
          "type": "address"
        },
        {
          "indexed": true,
          "internalType": "uint256",
          "name": "tokenId",
          "type": "uint256"
        }
      ],
      "name": "Transfer",
      "type": "event"
    },
    {
      "inputs": [],
      "name": "_tenantOwner",
      "outputs": [
        {
          "internalType": "address",
          "name": "",
          "type": "address"
        }
      ],
      "stateMutability": "view",
      "type": "function"
    },
    {
      "inputs": [
        {
          "internalType": "address",
          "name": "_to",
          "type": "address"
        },
        {
          "internalType": "uint256",
          "name": "_tokenId",
          "type": "uint256"
        }
      ],
      "name": "approve",
      "outputs": [],
      "stateMutability": "nonpayable",
      "type": "function"
    },
    {
      "inputs": [
        {
          "internalType": "address",
          "name": "_owner",
          "type": "address"
        }
      ],
      "name": "balanceOf",
      "outputs": [
        {
          "internalType": "uint256",
          "name": "",
          "type": "uint256"
        }
      ],
      "stateMutability": "view",
      "type": "function"
    },
    {
      "inputs": [
        {
          "internalType": "uint256",
          "name": "_tokenId",
          "type": "uint256"
        }
      ],
      "name": "burn",
      "outputs": [],
      "stateMutability": "nonpayable",
      "type": "function"
    },
    {
      "inputs": [],
      "name": "collectionInfo",
      "outputs": [
        {
          "internalType": "uint256",
          "name": "price",
          "type": "uint256"
        },
        {
          "internalType": "uint256",
          "name": "maxSupply",
          "type": "uint256"
        },
        {
          "internalType": "uint256",
          "name": "maxPerUser",
          "type": "uint256"
        },
        {
          "internalType": "bool",
          "name": "isPublicSaleActive",
          "type": "bool"
        },
        {
          "internalType": "bool",
          "name": "isCollectionLocked",
          "type": "bool"
        }
      ],
      "stateMutability": "view",
      "type": "function"
    },
    {
      "inputs": [],
      "name": "contractOwner",
      "outputs": [
        {
          "internalType": "address",
          "name": "",
          "type": "address"
        }
      ],
      "stateMutability": "view",
      "type": "function"
    },
    {
      "inputs": [
        {
          "internalType": "uint256",
          "name": "_tokenId",
          "type": "uint256"
        }
      ],
      "name": "getApproved",
      "outputs": [
        {
          "internalType": "address",
          "name": "",
          "type": "address"
        }
      ],
      "stateMutability": "view",
      "type": "function"
    },
    {
      "inputs": [],
      "name": "getBaseURI",
      "outputs": [
        {
          "internalType": "string",
          "name": "",
          "type": "string"
        }
      ],
      "stateMutability": "view",
      "type": "function"
    },
    {
      "inputs": [
        {
          "internalType": "string",
          "name": "name_",
          "type": "string"
        },
        {
          "internalType": "string",
          "name": "symbol_",
          "type": "string"
        },
        {
          "internalType": "address",
          "name": "tenant_",
          "type": "address"
        }
      ],
      "name": "initialize",
      "outputs": [],
      "stateMutability": "nonpayable",
      "type": "function"
    },
    {
      "inputs": [
        {
          "internalType": "uint256",
          "name": "_price",
          "type": "uint256"
        },
        {
          "internalType": "uint256",
          "name": "_maxSupply",
          "type": "uint256"
        },
        {
          "internalType": "uint256",
          "name": "_maxPerUser",
          "type": "uint256"
        }
      ],
      "name": "initializeCollection",
      "outputs": [],
      "stateMutability": "nonpayable",
      "type": "function"
    },
    {
      "inputs": [
        {
          "internalType": "address",
          "name": "_owner",
          "type": "address"
        },
        {
          "internalType": "address",
          "name": "_operator",
          "type": "address"
        }
      ],
      "name": "isApprovedForAll",
      "outputs": [
        {
          "internalType": "bool",
          "name": "",
          "type": "bool"
        }
      ],
      "stateMutability": "view",
      "type": "function"
    },
    {
      "inputs": [],
      "name": "lockCollection",
      "outputs": [],
      "stateMutability": "nonpayable",
      "type": "function"
    },
    {
      "inputs": [],
      "name": "metadata",
      "outputs": [
        {
          "internalType": "bytes",
          "name": "title",
          "type": "bytes"
        },
        {
          "internalType": "address",
          "name": "author",
          "type": "address"
        },
        {
          "internalType": "bytes",
          "name": "version",
          "type": "bytes"
        },
        {
          "internalType": "uint256",
          "name": "publishedAt",
          "type": "uint256"
        },
        {
          "internalType": "bytes",
          "name": "externalLink",
          "type": "bytes"
        }
      ],
      "stateMutability": "view",
      "type": "function"
    },
    {
      "inputs": [
        {
          "internalType": "address",
          "name": "_to",
          "type": "address"
        }
      ],
      "name": "mint",
      "outputs": [
        {
          "internalType": "uint256",
          "name": "",
          "type": "uint256"
        }
      ],
      "stateMutability": "payable",
      "type": "function"
    },
    {
      "inputs": [
        {
          "internalType": "address",
          "name": "_to",
          "type": "address"
        },
        {
          "internalType": "uint256",
          "name": "_count",
          "type": "uint256"
        }
      ],
      "name": "mintBatch",
      "outputs": [
        {
          "internalType": "uint256[]",
          "name": "",
          "type": "uint256[]"
        }
      ],
      "stateMutability": "payable",
      "type": "function"
    },
    {
      "inputs": [],
      "name": "name",
      "outputs": [
        {
          "internalType": "string",
          "name": "",
          "type": "string"
        }
      ],
      "stateMutability": "view",
      "type": "function"
    },
    {
      "inputs": [
        {
          "internalType": "uint256",
          "name": "_tokenId",
          "type": "uint256"
        }
      ],
      "name": "ownerOf",
      "outputs": [
        {
          "internalType": "address",
          "name": "",
          "type": "address"
        }
      ],
      "stateMutability": "view",
      "type": "function"
    },
    {
      "inputs": [
        {
          "internalType": "address",
          "name": "_from",
          "type": "address"
        },
        {
          "internalType": "address",
          "name": "_to",
          "type": "address"
        },
        {
          "internalType": "uint256",
          "name": "_tokenId",
          "type": "uint256"
        }
      ],
      "name": "safeTransferFrom",
      "outputs": [],
      "stateMutability": "nonpayable",
      "type": "function"
    },
    {
      "inputs": [
        {
          "internalType": "address",
          "name": "_from",
          "type": "address"
        },
        {
          "internalType": "address",
          "name": "_to",
          "type": "address"
        },
        {
          "internalType": "uint256",
          "name": "_tokenId",
          "type": "uint256"
        },
        {
          "internalType": "bytes",
          "name": "_data",
          "type": "bytes"
        }
      ],
      "name": "safeTransferFrom",
      "outputs": [],
      "stateMutability": "nonpayable",
      "type": "function"
    },
    {
      "inputs": [
        {
          "internalType": "address",
          "name": "_operator",
          "type": "address"
        },
        {
          "internalType": "bool",
          "name": "_approved",
          "type": "bool"
        }
      ],
      "name": "setApprovalForAll",
      "outputs": [],
      "stateMutability": "nonpayable",
      "type": "function"
    },
    {
      "inputs": [
        {
          "internalType": "string",
          "name": "baseURI_",
          "type": "string"
        }
      ],
      "name": "setBaseURI",
      "outputs": [],
      "stateMutability": "nonpayable",
      "type": "function"
    },
    {
      "inputs": [
        {
          "internalType": "bool",
          "name": "_isActive",
          "type": "bool"
        }
      ],
      "name": "setMintPermissions",
      "outputs": [],
      "stateMutability": "nonpayable",
      "type": "function"
    },
    {
      "inputs": [
        {
          "internalType": "bytes4",
          "name": "_interfaceId",
          "type": "bytes4"
        }
      ],
      "name": "supportsInterface",
      "outputs": [
        {
          "internalType": "bool",
          "name": "",
          "type": "bool"
        }
      ],
      "stateMutability": "view",
      "type": "function"
    },
    {
      "inputs": [],
      "name": "symbol",
      "outputs": [
        {
          "internalType": "string",
          "name": "",
          "type": "string"
        }
      ],
      "stateMutability": "view",
      "type": "function"
    },
    {
      "inputs": [
        {
          "internalType": "address",
          "name": "_reciever",
          "type": "address"
        }
      ],
      "name": "tenantMint",
      "outputs": [
        {
          "internalType": "uint256",
          "name": "",
          "type": "uint256"
        }
      ],
      "stateMutability": "nonpayable",
      "type": "function"
    },
    {
      "inputs": [
        {
          "internalType": "address",
          "name": "_reciever",
          "type": "address"
        },
        {
          "internalType": "string",
          "name": "_tokenUri",
          "type": "string"
        }
      ],
      "name": "tenantMint",
      "outputs": [
        {
          "internalType": "uint256",
          "name": "",
          "type": "uint256"
        }
      ],
      "stateMutability": "nonpayable",
      "type": "function"
    },
    {
      "inputs": [],
      "name": "tokenCounter",
      "outputs": [
        {
          "internalType": "uint256",
          "name": "_value",
          "type": "uint256"
        }
      ],
      "stateMutability": "view",
      "type": "function"
    },
    {
      "inputs": [
        {
          "internalType": "uint256",
          "name": "_tokenId",
          "type": "uint256"
        }
      ],
      "name": "tokenURI",
      "outputs": [
        {
          "internalType": "string",
          "name": "",
          "type": "string"
        }
      ],
      "stateMutability": "view",
      "type": "function"
    },
    {
      "inputs": [
        {
          "internalType": "address",
          "name": "_from",
          "type": "address"
        },
        {
          "internalType": "address",
          "name": "_to",
          "type": "address"
        },
        {
          "internalType": "uint256",
          "name": "_tokenId",
          "type": "uint256"
        }
      ],
      "name": "transferFrom",
      "outputs": [],
      "stateMutability": "nonpayable",
      "type": "function"
    },
    {
      "inputs": [
        {
          "internalType": "uint256",
          "name": "_maxPerUser",
          "type": "uint256"
        }
      ],
      "name": "updateMaxPerUser",
      "outputs": [],
      "stateMutability": "nonpayable",
      "type": "function"
    },
    {
      "inputs": [
        {
          "internalType": "uint256",
          "name": "_maxSupply",
          "type": "uint256"
        }
      ],
      "name": "updateMaxSupply",
      "outputs": [],
      "stateMutability": "nonpayable",
      "type": "function"
    },
    {
      "inputs": [
        {
          "internalType": "uint256",
          "name": "_price",
          "type": "uint256"
        }
      ],
      "name": "updatePrice",
      "outputs": [],
      "stateMutability": "nonpayable",
      "type": "function"
    },
    {
      "inputs": [],
      "name": "withdraw",
      "outputs": [],
      "stateMutability": "nonpayable",
      "type": "function"
    }
  ],
  "bytecode": "0x60a06040523480156200001157600080fd5b506040516200455c3803806200455c83398181016040528101906200003791906200040c565b60016000819055506040518060a001604052806040518060400160405280600681526020017f4552433732310000000000000000000000000000000000000000000000000000815250815260200160405180604001604052808473ffffffffffffffffffffffffffffffffffffffff1681526020016040518060400160405280601881526020017f68747470733a2f2f65787465726e616c6c696e6b2e6e6574000000000000000081525081525081526020016040518060400160405280600581526020017f302e302e31000000000000000000000000000000000000000000000000000000815250815260200165032a361e860667ffffffffffffffff1681526020016040518060400160405280601881526020017f68747470733a2f2f65787465726e616c4c696e6b2e6e657400000000000000008152508152506002600082015181600001908051906020019062000194929190620002b4565b5060208201518160010160008201518160000160006101000a81548173ffffffffffffffffffffffffffffffffffffffff021916908373ffffffffffffffffffffffffffffffffffffffff16021790555060208201518160010190805190602001906200020392919062000345565b505050604082015181600301908051906020019062000224929190620002b4565b5060608201518160040160006101000a81548167ffffffffffffffff021916908367ffffffffffffffff160217905550608082015181600501908051906020019062000272929190620002b4565b509050508073ffffffffffffffffffffffffffffffffffffffff1660808173ffffffffffffffffffffffffffffffffffffffff1660601b8152505050620004eb565b828054620002c2906200046c565b90600052602060002090601f016020900481019282620002e6576000855562000332565b82601f106200030157805160ff191683800117855562000332565b8280016001018555821562000332579182015b828111156200033157825182559160200191906001019062000314565b5b509050620003419190620003d6565b5090565b82805462000353906200046c565b90600052602060002090601f016020900481019282620003775760008555620003c3565b82601f106200039257805160ff1916838001178555620003c3565b82800160010185558215620003c3579182015b82811115620003c2578251825591602001919060010190620003a5565b5b509050620003d29190620003d6565b5090565b5b80821115620003f1576000816000905550600101620003d7565b5090565b6000815190506200040681620004d1565b92915050565b6000602082840312156200041f57600080fd5b60006200042f84828501620003f5565b91505092915050565b600062000445826200044c565b9050919050565b600073ffffffffffffffffffffffffffffffffffffffff82169050919050565b600060028204905060018216806200048557607f821691505b602082108114156200049c576200049b620004a2565b5b50919050565b7f4e487b7100000000000000000000000000000000000000000000000000000000600052602260045260246000fd5b620004dc8162000438565b8114620004e857600080fd5b50565b60805160601c6140526200050a600039600061206201526140526000f3fe6080604052600436106101c25760003560e01c806342842e0e116100f7578063714c539811610095578063b88d4fde11610064578063b88d4fde14610651578063c87b56dd1461067a578063ce606ee0146106b7578063e985e9c5146106e2576101c2565b8063714c5398146105a457806395d89b41146105cf57806397ee73bb146105fa578063a22cb46514610628576101c2565b806355f804b3116100d157806355f804b3146104d15780636352211e146104fa5780636a6278421461053757806370a0823114610567576101c2565b806342842e0e1461045657806349df728c1461047f5780634d2f929a146104a8576101c2565b8063217cc2b41161016457806327fbceac1161013e57806327fbceac146103aa578063392f37e9146103e75780633ccfd60b146104165780633e2b81c41461042d576101c2565b8063217cc2b41461031457806323b872dd14610351578063248b71fc1461037a576101c2565b8063081812fc116101a0578063081812fc14610258578063095ea7b3146102955780630b8eb2cf146102be5780631e84c413146102e9576101c2565b806301ffc9a7146101c757806306fdde0314610204578063077f224a1461022f575b600080fd5b3480156101d357600080fd5b506101ee60048036038101906101e9919061340c565b61071f565b6040516101fb91906138fc565b60405180910390f35b34801561021057600080fd5b50610219610801565b60405161022691906139a1565b60405180910390f35b34801561023b57600080fd5b50610256600480360381019061025191906134c8565b610893565b005b34801561026457600080fd5b5061027f600480360381019061027a9190613547565b610a1a565b60405161028c919061384a565b60405180910390f35b3480156102a157600080fd5b506102bc60048036038101906102b7919061337e565b610a60565b005b3480156102ca57600080fd5b506102d3610b69565b6040516102e0919061384a565b60405180910390f35b3480156102f557600080fd5b506102fe610b8f565b60405161030b91906138fc565b60405180910390f35b34801561032057600080fd5b5061033b600480360381019061033691906131bb565b610ba2565b6040516103489190613a03565b60405180910390f35b34801561035d57600080fd5b5061037860048036038101906103739190613220565b610c98565b005b610394600480360381019061038f919061337e565b610cef565b6040516103a191906138da565b60405180910390f35b3480156103b657600080fd5b506103d160048036038101906103cc9190613326565b611107565b6040516103de9190613a03565b60405180910390f35b3480156103f357600080fd5b506103fc6111e1565b60405161040d959493929190613917565b60405180910390f35b34801561042257600080fd5b5061042b6114a3565b005b34801561043957600080fd5b50610454600480360381019061044f91906133ba565b611579565b005b34801561046257600080fd5b5061047d60048036038101906104789190613220565b61165c565b005b34801561048b57600080fd5b506104a660048036038101906104a1919061345e565b61167c565b005b3480156104b457600080fd5b506104cf60048036038101906104ca9190613599565b611822565b005b3480156104dd57600080fd5b506104f860048036038101906104f39190613487565b6118e7565b005b34801561050657600080fd5b50610521600480360381019061051c9190613547565b611988565b60405161052e919061384a565b60405180910390f35b610551600480360381019061054c91906131bb565b611a31565b60405161055e9190613a03565b60405180910390f35b34801561057357600080fd5b5061058e600480360381019061058991906131bb565b611c96565b60405161059b9190613a03565b60405180910390f35b3480156105b057600080fd5b506105b9611d45565b6040516105c691906139a1565b60405180910390f35b3480156105db57600080fd5b506105e4611dd7565b6040516105f191906139a1565b60405180910390f35b34801561060657600080fd5b5061060f611e69565b60405161061f9493929190613a1e565b60405180910390f35b34801561063457600080fd5b5061064f600480360381019061064a91906132ea565b611e94565b005b34801561065d57600080fd5b506106786004803603810190610673919061326f565b611eaa565b005b34801561068657600080fd5b506106a1600480360381019061069c9190613547565b611f03565b6040516106ae91906139a1565b60405180910390f35b3480156106c357600080fd5b506106cc612060565b6040516106d9919061384a565b60405180910390f35b3480156106ee57600080fd5b50610709600480360381019061070491906131e4565b612084565b60405161071691906138fc565b60405180910390f35b60007f80ac58cd000000000000000000000000000000000000000000000000000000007bffffffffffffffffffffffffffffffffffffffffffffffffffffffff1916827bffffffffffffffffffffffffffffffffffffffffffffffffffffffff191614806107ea57507f5b5e139f000000000000000000000000000000000000000000000000000000007bffffffffffffffffffffffffffffffffffffffffffffffffffffffff1916827bffffffffffffffffffffffffffffffffffffffffffffffffffffffff1916145b806107fa57506107f982612118565b5b9050919050565b6060600b805461081090613d87565b80601f016020809104026020016040519081016040528092919081815260200182805461083c90613d87565b80156108895780601f1061085e57610100808354040283529160200191610889565b820191906000526020600020905b81548152906001019060200180831161086c57829003601f168201915b5050505050905090565b600061089f6001612182565b905080156108c25760018060016101000a81548160ff0219169083151502179055505b81600073ffffffffffffffffffffffffffffffffffffffff16600960009054906101000a900473ffffffffffffffffffffffffffffffffffffffff1673ffffffffffffffffffffffffffffffffffffffff161461094b576040517f0dc149f000000000000000000000000000000000000000000000000000000000815260040160405180910390fd5b84600b9080519060200190610961929190612ed0565b5083600c9080519060200190610978929190612ed0565b5082600960006101000a81548173ffffffffffffffffffffffffffffffffffffffff021916908373ffffffffffffffffffffffffffffffffffffffff160217905550508015610a145760006001806101000a81548160ff0219169083151502179055507f7f26b83ff96e1f2b6a682f133852f6798a09c465da95921460cefb38474024986001604051610a0b9190613986565b60405180910390a15b50505050565b6000610a2582612274565b6015600083815260200190815260200160002060009054906101000a900473ffffffffffffffffffffffffffffffffffffffff169050919050565b6000610a6b82611988565b90508273ffffffffffffffffffffffffffffffffffffffff168173ffffffffffffffffffffffffffffffffffffffff161415610ad3576040517f367558c300000000000000000000000000000000000000000000000000000000815260040160405180910390fd5b8073ffffffffffffffffffffffffffffffffffffffff16610af26122b6565b73ffffffffffffffffffffffffffffffffffffffff16141580610b235750610b2181610b1c6122b6565b612084565b155b15610b5a576040517f82b4290000000000000000000000000000000000000000000000000000000000815260040160405180910390fd5b610b6483836122be565b505050565b600960009054906101000a900473ffffffffffffffffffffffffffffffffffffffff1681565b600e60009054906101000a900460ff1681565b6000600960009054906101000a900473ffffffffffffffffffffffffffffffffffffffff1673ffffffffffffffffffffffffffffffffffffffff163373ffffffffffffffffffffffffffffffffffffffff1614610c2b576040517f82b4290000000000000000000000000000000000000000000000000000000000815260040160405180910390fd5b60001515600e60019054906101000a900460ff1615151415610c79576040517fdbc28d8300000000000000000000000000000000000000000000000000000000815260040160405180910390fd5b6000610c83612377565b9050610c8f8382612392565b80915050919050565b610ca9610ca36122b6565b826123b0565b610cdf576040517f82b4290000000000000000000000000000000000000000000000000000000000815260040160405180910390fd5b610cea838383612445565b505050565b606060026000541415610d37576040517f08c379a0000000000000000000000000000000000000000000000000000000008152600401610d2e906139e3565b60405180910390fd5b60026000819055508160011515600e60019054906101000a900460ff1615151415610ec35760001515600f60030160009054906101000a900460ff1615151415610dad576040517f15b1bdcd00000000000000000000000000000000000000000000000000000000815260040160405180910390fd5b600f60010154610dbd600a61269a565b1180610de15750600f6001015481610dd5600a61269a565b610ddf9190613b77565b115b15610e18576040517f8a164f6300000000000000000000000000000000000000000000000000000000815260040160405180910390fd5b80600f60000154610e299190613bfe565b8134610e359190613bfe565b14610e6c576040517ff4d678b800000000000000000000000000000000000000000000000000000000815260040160405180910390fd5b600f6002015481610e7c33611c96565b610e869190613b77565b1115610ebe576040517fecdd05c000000000000000000000000000000000000000000000000000000000815260040160405180910390fd5b611005565b60001515600e60009054906101000a900460ff1615151415610f11576040517f15b1bdcd00000000000000000000000000000000000000000000000000000000815260040160405180910390fd5b60008367ffffffffffffffff811115610f53577f4e487b7100000000000000000000000000000000000000000000000000000000600052604160045260246000fd5b604051908082528060200260200182016040528015610f815781602001602082028036833780820191505090505b50905060005b84811015610fff576000610f99612377565b905080838381518110610fd5577f4e487b7100000000000000000000000000000000000000000000000000000000600052603260045260246000fd5b602002602001018181525050610feb8782612392565b508080610ff790613dea565b915050610f87565b50809250505b60008367ffffffffffffffff811115611047577f4e487b7100000000000000000000000000000000000000000000000000000000600052604160045260246000fd5b6040519080825280602002602001820160405280156110755781602001602082028036833780820191505090505b50905060005b848110156110f357600061108d612377565b9050808383815181106110c9577f4e487b7100000000000000000000000000000000000000000000000000000000600052603260045260246000fd5b6020026020010181815250506110df8782612392565b5080806110eb90613dea565b91505061107b565b508092505050600160008190555092915050565b6000600960009054906101000a900473ffffffffffffffffffffffffffffffffffffffff1673ffffffffffffffffffffffffffffffffffffffff163373ffffffffffffffffffffffffffffffffffffffff1614611190576040517f82b4290000000000000000000000000000000000000000000000000000000000815260040160405180910390fd5b600061119a612377565b90506111a68582612392565b60008484905011156111d65783836017600084815260200190815260200160002091906111d4929190612f56565b505b809150509392505050565b60028060000180546111f290613d87565b80601f016020809104026020016040519081016040528092919081815260200182805461121e90613d87565b801561126b5780601f106112405761010080835404028352916020019161126b565b820191906000526020600020905b81548152906001019060200180831161124e57829003601f168201915b505050505090806001016040518060400160405290816000820160009054906101000a900473ffffffffffffffffffffffffffffffffffffffff1673ffffffffffffffffffffffffffffffffffffffff1673ffffffffffffffffffffffffffffffffffffffff1681526020016001820180546112e690613d87565b80601f016020809104026020016040519081016040528092919081815260200182805461131290613d87565b801561135f5780601f106113345761010080835404028352916020019161135f565b820191906000526020600020905b81548152906001019060200180831161134257829003601f168201915b5050505050815250509080600301805461137890613d87565b80601f01602080910402602001604051908101604052809291908181526020018280546113a490613d87565b80156113f15780601f106113c6576101008083540402835291602001916113f1565b820191906000526020600020905b8154815290600101906020018083116113d457829003601f168201915b5050505050908060040160009054906101000a900467ffffffffffffffff169080600501805461142090613d87565b80601f016020809104026020016040519081016040528092919081815260200182805461144c90613d87565b80156114995780601f1061146e57610100808354040283529160200191611499565b820191906000526020600020905b81548152906001019060200180831161147c57829003601f168201915b5050505050905085565b600960009054906101000a900473ffffffffffffffffffffffffffffffffffffffff1673ffffffffffffffffffffffffffffffffffffffff163373ffffffffffffffffffffffffffffffffffffffff161461152a576040517f82b4290000000000000000000000000000000000000000000000000000000000815260040160405180910390fd5b60004790503373ffffffffffffffffffffffffffffffffffffffff166108fc829081150290604051600060405180830381858888f19350505050158015611575573d6000803e3d6000fd5b5050565b600960009054906101000a900473ffffffffffffffffffffffffffffffffffffffff1673ffffffffffffffffffffffffffffffffffffffff163373ffffffffffffffffffffffffffffffffffffffff1614611600576040517f82b4290000000000000000000000000000000000000000000000000000000000815260040160405180910390fd5b60011515600e60019054906101000a900460ff161515141561163e5780600f60030160006101000a81548160ff021916908315150217905550611659565b80600e60006101000a81548160ff0219169083151502179055505b50565b61167783838360405180602001604052806000815250611eaa565b505050565b600960009054906101000a900473ffffffffffffffffffffffffffffffffffffffff1673ffffffffffffffffffffffffffffffffffffffff163373ffffffffffffffffffffffffffffffffffffffff1614611703576040517f82b4290000000000000000000000000000000000000000000000000000000000815260040160405180910390fd5b60008173ffffffffffffffffffffffffffffffffffffffff166370a08231306040518263ffffffff1660e01b815260040161173e919061384a565b60206040518083038186803b15801561175657600080fd5b505afa15801561176a573d6000803e3d6000fd5b505050506040513d601f19601f8201168201806040525081019061178e9190613570565b90508173ffffffffffffffffffffffffffffffffffffffff1663a9059cbb33836040518363ffffffff1660e01b81526004016117cb9291906138b1565b602060405180830381600087803b1580156117e557600080fd5b505af11580156117f9573d6000803e3d6000fd5b505050506040513d601f19601f8201168201806040525081019061181d91906133e3565b505050565b600960009054906101000a900473ffffffffffffffffffffffffffffffffffffffff1673ffffffffffffffffffffffffffffffffffffffff163373ffffffffffffffffffffffffffffffffffffffff16146118a9576040517f82b4290000000000000000000000000000000000000000000000000000000000815260040160405180910390fd5b82600f6000018190555081600f6001018190555080600f600201819055506001600e60016101000a81548160ff021916908315150217905550505050565b600960009054906101000a900473ffffffffffffffffffffffffffffffffffffffff1673ffffffffffffffffffffffffffffffffffffffff163373ffffffffffffffffffffffffffffffffffffffff161461196e576040517f82b4290000000000000000000000000000000000000000000000000000000000815260040160405180910390fd5b80600d9080519060200190611984929190612ed0565b5050565b6000806013600084815260200190815260200160002060009054906101000a900473ffffffffffffffffffffffffffffffffffffffff169050600073ffffffffffffffffffffffffffffffffffffffff168173ffffffffffffffffffffffffffffffffffffffff161415611a28576040517f3f6cc76800000000000000000000000000000000000000000000000000000000815260040160405180910390fd5b80915050919050565b600060026000541415611a79576040517f08c379a0000000000000000000000000000000000000000000000000000000008152600401611a70906139e3565b60405180910390fd5b60026000819055506001801515600e60019054906101000a900460ff1615151415611c055760001515600f60030160009054906101000a900460ff1615151415611aef576040517f15b1bdcd00000000000000000000000000000000000000000000000000000000815260040160405180910390fd5b600f60010154611aff600a61269a565b1180611b235750600f6001015481611b17600a61269a565b611b219190613b77565b115b15611b5a576040517f8a164f6300000000000000000000000000000000000000000000000000000000815260040160405180910390fd5b80600f60000154611b6b9190613bfe565b8134611b779190613bfe565b14611bae576040517ff4d678b800000000000000000000000000000000000000000000000000000000815260040160405180910390fd5b600f6002015481611bbe33611c96565b611bc89190613b77565b1115611c00576040517fecdd05c000000000000000000000000000000000000000000000000000000000815260040160405180910390fd5b611c6e565b60001515600e60009054906101000a900460ff1615151415611c53576040517f15b1bdcd00000000000000000000000000000000000000000000000000000000815260040160405180910390fd5b6000611c5d612377565b9050611c698482612392565b809250505b6000611c78612377565b9050611c848482612392565b80925050506001600081905550919050565b60008073ffffffffffffffffffffffffffffffffffffffff168273ffffffffffffffffffffffffffffffffffffffff161415611cfe576040517fd92e233d00000000000000000000000000000000000000000000000000000000815260040160405180910390fd5b601460008373ffffffffffffffffffffffffffffffffffffffff1673ffffffffffffffffffffffffffffffffffffffff168152602001908152602001600020549050919050565b6060600d8054611d5490613d87565b80601f0160208091040260200160405190810160405280929190818152602001828054611d8090613d87565b8015611dcd5780601f10611da257610100808354040283529160200191611dcd565b820191906000526020600020905b815481529060010190602001808311611db057829003601f168201915b5050505050905090565b6060600c8054611de690613d87565b80601f0160208091040260200160405190810160405280929190818152602001828054611e1290613d87565b8015611e5f5780601f10611e3457610100808354040283529160200191611e5f565b820191906000526020600020905b815481529060010190602001808311611e4257829003601f168201915b5050505050905090565b600f8060000154908060010154908060020154908060030160009054906101000a900460ff16905084565b611ea6611e9f6122b6565b83836126a8565b5050565b611ebb611eb56122b6565b836123b0565b611ef1576040517f82b4290000000000000000000000000000000000000000000000000000000000815260040160405180910390fd5b611efd84848484612873565b50505050565b6060611f0e82612274565b600e60019054906101000a900460ff16612002576000601760008481526020019081526020016000208054611f4290613d87565b905011611f5e5760405180602001604052806000815250611ffb565b601760008381526020019081526020016000208054611f7c90613d87565b80601f0160208091040260200160405190810160405280929190818152602001828054611fa890613d87565b8015611ff55780601f10611fca57610100808354040283529160200191611ff5565b820191906000526020600020905b815481529060010190602001808311611fd857829003601f168201915b50505050505b905061205b565b600061200c6128c6565b9050600081511161202c5760405180602001604052806000815250612057565b80612036846128dd565b604051602001612047929190613826565b6040516020818303038152906040525b9150505b919050565b7f000000000000000000000000000000000000000000000000000000000000000081565b6000601660008473ffffffffffffffffffffffffffffffffffffffff1673ffffffffffffffffffffffffffffffffffffffff16815260200190815260200160002060008373ffffffffffffffffffffffffffffffffffffffff1673ffffffffffffffffffffffffffffffffffffffff16815260200190815260200160002060009054906101000a900460ff16905092915050565b60007f01ffc9a7000000000000000000000000000000000000000000000000000000007bffffffffffffffffffffffffffffffffffffffffffffffffffffffff1916827bffffffffffffffffffffffffffffffffffffffffffffffffffffffff1916149050919050565b600060018054906101000a900460ff16156121f85760018260ff161480156121b057506121ae30612a8a565b155b6121ef576040517f08c379a00000000000000000000000000000000000000000000000000000000081526004016121e6906139c3565b60405180910390fd5b6000905061226f565b8160ff16600160009054906101000a900460ff1660ff161061224f576040517f08c379a0000000000000000000000000000000000000000000000000000000008152600401612246906139c3565b60405180910390fd5b81600160006101000a81548160ff021916908360ff160217905550600190505b919050565b61227d81612a9d565b6122b3576040517f3f6cc76800000000000000000000000000000000000000000000000000000000815260040160405180910390fd5b50565b600033905090565b816015600083815260200190815260200160002060006101000a81548173ffffffffffffffffffffffffffffffffffffffff021916908373ffffffffffffffffffffffffffffffffffffffff160217905550808273ffffffffffffffffffffffffffffffffffffffff1661233183611988565b73ffffffffffffffffffffffffffffffffffffffff167f8c5be1e5ebec7d5bd14f71427d1e84f3dd0314c0f7b2291e5b200ac8c7c3b92560405160405180910390a45050565b6000612383600a612b09565b61238d600a61269a565b905090565b6123ac828260405180602001604052806000815250612b1f565b5050565b6000806123bc83611988565b90508073ffffffffffffffffffffffffffffffffffffffff168473ffffffffffffffffffffffffffffffffffffffff1614806123fe57506123fd8185612084565b5b8061243c57508373ffffffffffffffffffffffffffffffffffffffff1661242484610a1a565b73ffffffffffffffffffffffffffffffffffffffff16145b91505092915050565b8273ffffffffffffffffffffffffffffffffffffffff1661246582611988565b73ffffffffffffffffffffffffffffffffffffffff16146124b2576040517f3a6bbed300000000000000000000000000000000000000000000000000000000815260040160405180910390fd5b600073ffffffffffffffffffffffffffffffffffffffff168273ffffffffffffffffffffffffffffffffffffffff161415612519576040517fd92e233d00000000000000000000000000000000000000000000000000000000815260040160405180910390fd5b612524838383612b71565b61252f6000826122be565b6001601460008573ffffffffffffffffffffffffffffffffffffffff1673ffffffffffffffffffffffffffffffffffffffff168152602001908152602001600020600082825461257f9190613c58565b925050819055506001601460008473ffffffffffffffffffffffffffffffffffffffff1673ffffffffffffffffffffffffffffffffffffffff16815260200190815260200160002060008282546125d69190613b77565b92505081905550816013600083815260200190815260200160002060006101000a81548173ffffffffffffffffffffffffffffffffffffffff021916908373ffffffffffffffffffffffffffffffffffffffff160217905550808273ffffffffffffffffffffffffffffffffffffffff168473ffffffffffffffffffffffffffffffffffffffff167fddf252ad1be2c89b69c2b068fc378daa952ba7f163c4a11628f55a4df523b3ef60405160405180910390a4612695838383612b76565b505050565b600081600001549050919050565b600073ffffffffffffffffffffffffffffffffffffffff168273ffffffffffffffffffffffffffffffffffffffff16141561270f576040517fd92e233d00000000000000000000000000000000000000000000000000000000815260040160405180910390fd5b8173ffffffffffffffffffffffffffffffffffffffff168373ffffffffffffffffffffffffffffffffffffffff161415612775576040517ff4b33eeb00000000000000000000000000000000000000000000000000000000815260040160405180910390fd5b80601660008573ffffffffffffffffffffffffffffffffffffffff1673ffffffffffffffffffffffffffffffffffffffff16815260200190815260200160002060008473ffffffffffffffffffffffffffffffffffffffff1673ffffffffffffffffffffffffffffffffffffffff16815260200190815260200160002060006101000a81548160ff0219169083151502179055508173ffffffffffffffffffffffffffffffffffffffff168373ffffffffffffffffffffffffffffffffffffffff167f17307eab39ab6107e8899845ad3d59bd9653f200f220920489ca2b5937696c318360405161286691906138fc565b60405180910390a3505050565b61287e848484612445565b61288a84848484612b7b565b6128c0576040517f44ccafd600000000000000000000000000000000000000000000000000000000815260040160405180910390fd5b50505050565b606060405180602001604052806000815250905090565b60606000821415612925576040518060400160405280600181526020017f30000000000000000000000000000000000000000000000000000000000000008152509050612a85565b600082905060005b6000821461295757808061294090613dea565b915050600a826129509190613bcd565b915061292d565b60008167ffffffffffffffff811115612999577f4e487b7100000000000000000000000000000000000000000000000000000000600052604160045260246000fd5b6040519080825280601f01601f1916602001820160405280156129cb5781602001600182028036833780820191505090505b5090505b60008514612a7e576001826129e49190613c58565b9150600a856129f39190613e33565b60306129ff9190613b77565b60f81b818381518110612a3b577f4e487b7100000000000000000000000000000000000000000000000000000000600052603260045260246000fd5b60200101907effffffffffffffffffffffffffffffffffffffffffffffffffffffffffffff1916908160001a905350600a85612a779190613bcd565b94506129cf565b8093505050505b919050565b600080823b905060008111915050919050565b60008073ffffffffffffffffffffffffffffffffffffffff166013600084815260200190815260200160002060009054906101000a900473ffffffffffffffffffffffffffffffffffffffff1673ffffffffffffffffffffffffffffffffffffffff1614159050919050565b6001816000016000828254019250508190555050565b612b298383612d09565b612b366000848484612b7b565b612b6c576040517f44ccafd600000000000000000000000000000000000000000000000000000000815260040160405180910390fd5b505050565b505050565b505050565b6000612b9c8473ffffffffffffffffffffffffffffffffffffffff16612a8a565b15612cfc578373ffffffffffffffffffffffffffffffffffffffff1663150b7a02612bc56122b6565b8786866040518563ffffffff1660e01b8152600401612be79493929190613865565b602060405180830381600087803b158015612c0157600080fd5b505af1925050508015612c3257506040513d601f19601f82011682018060405250810190612c2f9190613435565b60015b612cac573d8060008114612c62576040519150601f19603f3d011682016040523d82523d6000602084013e612c67565b606091505b50600081511415612ca4576040517f44ccafd600000000000000000000000000000000000000000000000000000000815260040160405180910390fd5b805181602001fd5b63150b7a0260e01b7bffffffffffffffffffffffffffffffffffffffffffffffffffffffff1916817bffffffffffffffffffffffffffffffffffffffffffffffffffffffff191614915050612d01565b600190505b949350505050565b600073ffffffffffffffffffffffffffffffffffffffff168273ffffffffffffffffffffffffffffffffffffffff161415612d70576040517fd92e233d00000000000000000000000000000000000000000000000000000000815260040160405180910390fd5b612d7981612a9d565b15612daf576040517ea5a1f500000000000000000000000000000000000000000000000000000000815260040160405180910390fd5b612dbb60008383612b71565b6001601460008473ffffffffffffffffffffffffffffffffffffffff1673ffffffffffffffffffffffffffffffffffffffff1681526020019081526020016000206000828254612e0b9190613b77565b92505081905550816013600083815260200190815260200160002060006101000a81548173ffffffffffffffffffffffffffffffffffffffff021916908373ffffffffffffffffffffffffffffffffffffffff160217905550808273ffffffffffffffffffffffffffffffffffffffff16600073ffffffffffffffffffffffffffffffffffffffff167fddf252ad1be2c89b69c2b068fc378daa952ba7f163c4a11628f55a4df523b3ef60405160405180910390a4612ecc60008383612b76565b5050565b828054612edc90613d87565b90600052602060002090601f016020900481019282612efe5760008555612f45565b82601f10612f1757805160ff1916838001178555612f45565b82800160010185558215612f45579182015b82811115612f44578251825591602001919060010190612f29565b5b509050612f529190612fdc565b5090565b828054612f6290613d87565b90600052602060002090601f016020900481019282612f845760008555612fcb565b82601f10612f9d57803560ff1916838001178555612fcb565b82800160010185558215612fcb579182015b82811115612fca578235825591602001919060010190612faf565b5b509050612fd89190612fdc565b5090565b5b80821115612ff5576000816000905550600101612fdd565b5090565b600061300c61300784613a88565b613a63565b90508281526020810184848401111561302457600080fd5b61302f848285613d45565b509392505050565b600061304a61304584613ab9565b613a63565b90508281526020810184848401111561306257600080fd5b61306d848285613d45565b509392505050565b60008135905061308481613fa9565b92915050565b60008135905061309981613fc0565b92915050565b6000815190506130ae81613fc0565b92915050565b6000813590506130c381613fd7565b92915050565b6000815190506130d881613fd7565b92915050565b600082601f8301126130ef57600080fd5b81356130ff848260208601612ff9565b91505092915050565b60008135905061311781613fee565b92915050565b60008083601f84011261312f57600080fd5b8235905067ffffffffffffffff81111561314857600080fd5b60208301915083600182028301111561316057600080fd5b9250929050565b600082601f83011261317857600080fd5b8135613188848260208601613037565b91505092915050565b6000813590506131a081614005565b92915050565b6000815190506131b581614005565b92915050565b6000602082840312156131cd57600080fd5b60006131db84828501613075565b91505092915050565b600080604083850312156131f757600080fd5b600061320585828601613075565b925050602061321685828601613075565b9150509250929050565b60008060006060848603121561323557600080fd5b600061324386828701613075565b935050602061325486828701613075565b925050604061326586828701613191565b9150509250925092565b6000806000806080858703121561328557600080fd5b600061329387828801613075565b94505060206132a487828801613075565b93505060406132b587828801613191565b925050606085013567ffffffffffffffff8111156132d257600080fd5b6132de878288016130de565b91505092959194509250565b600080604083850312156132fd57600080fd5b600061330b85828601613075565b925050602061331c8582860161308a565b9150509250929050565b60008060006040848603121561333b57600080fd5b600061334986828701613075565b935050602084013567ffffffffffffffff81111561336657600080fd5b6133728682870161311d565b92509250509250925092565b6000806040838503121561339157600080fd5b600061339f85828601613075565b92505060206133b085828601613191565b9150509250929050565b6000602082840312156133cc57600080fd5b60006133da8482850161308a565b91505092915050565b6000602082840312156133f557600080fd5b60006134038482850161309f565b91505092915050565b60006020828403121561341e57600080fd5b600061342c848285016130b4565b91505092915050565b60006020828403121561344757600080fd5b6000613455848285016130c9565b91505092915050565b60006020828403121561347057600080fd5b600061347e84828501613108565b91505092915050565b60006020828403121561349957600080fd5b600082013567ffffffffffffffff8111156134b357600080fd5b6134bf84828501613167565b91505092915050565b6000806000606084860312156134dd57600080fd5b600084013567ffffffffffffffff8111156134f757600080fd5b61350386828701613167565b935050602084013567ffffffffffffffff81111561352057600080fd5b61352c86828701613167565b925050604061353d86828701613075565b9150509250925092565b60006020828403121561355957600080fd5b600061356784828501613191565b91505092915050565b60006020828403121561358257600080fd5b6000613590848285016131a6565b91505092915050565b6000806000606084860312156135ae57600080fd5b60006135bc86828701613191565b93505060206135cd86828701613191565b92505060406135de86828701613191565b9150509250925092565b60006135f483836137f9565b60208301905092915050565b61360981613c8c565b82525050565b61361881613c8c565b82525050565b600061362982613afa565b6136338185613b28565b935061363e83613aea565b8060005b8381101561366f57815161365688826135e8565b975061366183613b1b565b925050600181019050613642565b5085935050505092915050565b61368581613c9e565b82525050565b600061369682613b05565b6136a08185613b39565b93506136b0818560208601613d54565b6136b981613f20565b840191505092915050565b6136cd81613d33565b82525050565b60006136de82613b10565b6136e88185613b4a565b93506136f8818560208601613d54565b61370181613f20565b840191505092915050565b600061371782613b10565b6137218185613b5b565b9350613731818560208601613d54565b61373a81613f20565b840191505092915050565b600061375082613b10565b61375a8185613b6c565b935061376a818560208601613d54565b80840191505092915050565b6000613783602e83613b5b565b915061378e82613f31565b604082019050919050565b60006137a6601f83613b5b565b91506137b182613f80565b602082019050919050565b60006040830160008301516137d46000860182613600565b50602083015184820360208601526137ec82826136d3565b9150508091505092915050565b61380281613d08565b82525050565b61381181613d08565b82525050565b61382081613d12565b82525050565b60006138328285613745565b915061383e8284613745565b91508190509392505050565b600060208201905061385f600083018461360f565b92915050565b600060808201905061387a600083018761360f565b613887602083018661360f565b6138946040830185613808565b81810360608301526138a6818461368b565b905095945050505050565b60006040820190506138c6600083018561360f565b6138d36020830184613808565b9392505050565b600060208201905081810360008301526138f4818461361e565b905092915050565b6000602082019050613911600083018461367c565b92915050565b600060a0820190508181036000830152613931818861368b565b9050818103602083015261394581876137bc565b90508181036040830152613959818661368b565b90506139686060830185613817565b818103608083015261397a818461368b565b90509695505050505050565b600060208201905061399b60008301846136c4565b92915050565b600060208201905081810360008301526139bb818461370c565b905092915050565b600060208201905081810360008301526139dc81613776565b9050919050565b600060208201905081810360008301526139fc81613799565b9050919050565b6000602082019050613a186000830184613808565b92915050565b6000608082019050613a336000830187613808565b613a406020830186613808565b613a4d6040830185613808565b613a5a606083018461367c565b95945050505050565b6000613a6d613a7e565b9050613a798282613db9565b919050565b6000604051905090565b600067ffffffffffffffff821115613aa357613aa2613ef1565b5b613aac82613f20565b9050602081019050919050565b600067ffffffffffffffff821115613ad457613ad3613ef1565b5b613add82613f20565b9050602081019050919050565b6000819050602082019050919050565b600081519050919050565b600081519050919050565b600081519050919050565b6000602082019050919050565b600082825260208201905092915050565b600082825260208201905092915050565b600082825260208201905092915050565b600082825260208201905092915050565b600081905092915050565b6000613b8282613d08565b9150613b8d83613d08565b9250827fffffffffffffffffffffffffffffffffffffffffffffffffffffffffffffffff03821115613bc257613bc1613e64565b5b828201905092915050565b6000613bd882613d08565b9150613be383613d08565b925082613bf357613bf2613e93565b5b828204905092915050565b6000613c0982613d08565b9150613c1483613d08565b9250817fffffffffffffffffffffffffffffffffffffffffffffffffffffffffffffffff0483118215151615613c4d57613c4c613e64565b5b828202905092915050565b6000613c6382613d08565b9150613c6e83613d08565b925082821015613c8157613c80613e64565b5b828203905092915050565b6000613c9782613ce8565b9050919050565b60008115159050919050565b60007fffffffff0000000000000000000000000000000000000000000000000000000082169050919050565b6000613ce182613c8c565b9050919050565b600073ffffffffffffffffffffffffffffffffffffffff82169050919050565b6000819050919050565b600067ffffffffffffffff82169050919050565b600060ff82169050919050565b6000613d3e82613d26565b9050919050565b82818337600083830152505050565b60005b83811015613d72578082015181840152602081019050613d57565b83811115613d81576000848401525b50505050565b60006002820490506001821680613d9f57607f821691505b60208210811415613db357613db2613ec2565b5b50919050565b613dc282613f20565b810181811067ffffffffffffffff82111715613de157613de0613ef1565b5b80604052505050565b6000613df582613d08565b91507fffffffffffffffffffffffffffffffffffffffffffffffffffffffffffffffff821415613e2857613e27613e64565b5b600182019050919050565b6000613e3e82613d08565b9150613e4983613d08565b925082613e5957613e58613e93565b5b828206905092915050565b7f4e487b7100000000000000000000000000000000000000000000000000000000600052601160045260246000fd5b7f4e487b7100000000000000000000000000000000000000000000000000000000600052601260045260246000fd5b7f4e487b7100000000000000000000000000000000000000000000000000000000600052602260045260246000fd5b7f4e487b7100000000000000000000000000000000000000000000000000000000600052604160045260246000fd5b6000601f19601f8301169050919050565b7f496e697469616c697a61626c653a20636f6e747261637420697320616c72656160008201527f647920696e697469616c697a6564000000000000000000000000000000000000602082015250565b7f5265656e7472616e637947756172643a207265656e7472616e742063616c6c00600082015250565b613fb281613c8c565b8114613fbd57600080fd5b50565b613fc981613c9e565b8114613fd457600080fd5b50565b613fe081613caa565b8114613feb57600080fd5b50565b613ff781613cd6565b811461400257600080fd5b50565b61400e81613d08565b811461401957600080fd5b5056fea26469706673582212208e32b2d85e7027367e86bf8559ab8eedc9ca5d559eba27f96140bc3a9cc5fb1c64736f6c63430008040033",
  "linkReferences": {},
  "deployedLinkReferences": {}
}