{
  "_format": "hh-sol-artifact-1",
  "contractName": "ERC721",
  "sourceName": "contracts/ERC721.sol",
  "abi": [
    {
      "inputs": [
        {
          "internalType": "address",
          "name": "_owner",
          "type": "address"
        }
      ],
      "stateMutability": "nonpayable",
      "type": "constructor"
    },
    {
      "inputs": [],
      "name": "AlreadyInitialized",
      "type": "error"
    },
    {
      "inputs": [],
      "name": "IncorrectOwner",
      "type": "error"
    },
    {
      "inputs": [],
      "name": "InsufficientAllowance",
      "type": "error"
    },
    {
      "inputs": [],
      "name": "InsufficientBalance",
      "type": "error"
    },
    {
      "inputs": [],
      "name": "InvalidTokenId",
      "type": "error"
    },
    {
      "inputs": [],
      "name": "MissingERC721Receiver",
      "type": "error"
    },
    {
      "inputs": [],
      "name": "PublicMintInactive",
      "type": "error"
    },
    {
      "inputs": [],
      "name": "SameAddress",
      "type": "error"
    },
    {
      "inputs": [],
      "name": "SameOwnerAndOperator",
      "type": "error"
    },
    {
      "inputs": [],
      "name": "TokenAlreadyMinted",
      "type": "error"
    },
    {
      "inputs": [],
      "name": "Unauthorized",
      "type": "error"
    },
    {
      "inputs": [],
      "name": "ZeroAddress",
      "type": "error"
    },
    {
      "anonymous": false,
      "inputs": [
        {
          "indexed": true,
          "internalType": "address",
          "name": "owner",
          "type": "address"
        },
        {
          "indexed": true,
          "internalType": "address",
          "name": "approved",
          "type": "address"
        },
        {
          "indexed": true,
          "internalType": "uint256",
          "name": "tokenId",
          "type": "uint256"
        }
      ],
      "name": "Approval",
      "type": "event"
    },
    {
      "anonymous": false,
      "inputs": [
        {
          "indexed": true,
          "internalType": "address",
          "name": "owner",
          "type": "address"
        },
        {
          "indexed": true,
          "internalType": "address",
          "name": "operator",
          "type": "address"
        },
        {
          "indexed": false,
          "internalType": "bool",
          "name": "approved",
          "type": "bool"
        }
      ],
      "name": "ApprovalForAll",
      "type": "event"
    },
    {
      "anonymous": false,
      "inputs": [
        {
          "indexed": false,
          "internalType": "uint8",
          "name": "version",
          "type": "uint8"
        }
      ],
      "name": "Initialized",
      "type": "event"
    },
    {
      "anonymous": false,
      "inputs": [
        {
          "indexed": true,
          "internalType": "address",
          "name": "from",
          "type": "address"
        },
        {
          "indexed": true,
          "internalType": "address",
          "name": "to",
          "type": "address"
        },
        {
          "indexed": true,
          "internalType": "uint256",
          "name": "tokenId",
          "type": "uint256"
        }
      ],
      "name": "Transfer",
      "type": "event"
    },
    {
      "inputs": [
        {
          "internalType": "address",
          "name": "_to",
          "type": "address"
        },
        {
          "internalType": "uint256",
          "name": "_tokenId",
          "type": "uint256"
        }
      ],
      "name": "approve",
      "outputs": [],
      "stateMutability": "nonpayable",
      "type": "function"
    },
    {
      "inputs": [
        {
          "internalType": "address",
          "name": "_owner",
          "type": "address"
        }
      ],
      "name": "balanceOf",
      "outputs": [
        {
          "internalType": "uint256",
          "name": "",
          "type": "uint256"
        }
      ],
      "stateMutability": "view",
      "type": "function"
    },
    {
      "inputs": [],
      "name": "contractOwner",
      "outputs": [
        {
          "internalType": "address",
          "name": "",
          "type": "address"
        }
      ],
      "stateMutability": "view",
      "type": "function"
    },
    {
      "inputs": [
        {
          "internalType": "uint256",
          "name": "_tokenId",
          "type": "uint256"
        }
      ],
      "name": "getApproved",
      "outputs": [
        {
          "internalType": "address",
          "name": "",
          "type": "address"
        }
      ],
      "stateMutability": "view",
      "type": "function"
    },
    {
      "inputs": [],
      "name": "getBaseURI",
      "outputs": [
        {
          "internalType": "string",
          "name": "",
          "type": "string"
        }
      ],
      "stateMutability": "view",
      "type": "function"
    },
    {
      "inputs": [
        {
          "internalType": "string",
          "name": "name_",
          "type": "string"
        },
        {
          "internalType": "string",
          "name": "symbol_",
          "type": "string"
        },
        {
          "internalType": "address",
          "name": "tenant_",
          "type": "address"
        }
      ],
      "name": "initialize",
      "outputs": [],
      "stateMutability": "nonpayable",
      "type": "function"
    },
    {
      "inputs": [
        {
          "internalType": "address",
          "name": "_owner",
          "type": "address"
        },
        {
          "internalType": "address",
          "name": "_operator",
          "type": "address"
        }
      ],
      "name": "isApprovedForAll",
      "outputs": [
        {
          "internalType": "bool",
          "name": "",
          "type": "bool"
        }
      ],
      "stateMutability": "view",
      "type": "function"
    },
    {
      "inputs": [],
      "name": "isPublicSaleActive",
      "outputs": [
        {
          "internalType": "bool",
          "name": "",
          "type": "bool"
        }
      ],
      "stateMutability": "view",
      "type": "function"
    },
    {
      "inputs": [],
      "name": "metadata",
      "outputs": [
        {
          "internalType": "bytes",
          "name": "title",
          "type": "bytes"
        },
        {
          "components": [
            {
              "internalType": "address",
              "name": "authorAddress",
              "type": "address"
            },
            {
              "internalType": "string",
              "name": "externalLink",
              "type": "string"
            }
          ],
          "internalType": "struct IHyperverseModule.Author",
          "name": "author",
          "type": "tuple"
        },
        {
          "internalType": "bytes",
          "name": "version",
          "type": "bytes"
        },
        {
          "internalType": "uint64",
          "name": "publishedAt",
          "type": "uint64"
        },
        {
          "internalType": "bytes",
          "name": "externalLink",
          "type": "bytes"
        }
      ],
      "stateMutability": "view",
      "type": "function"
    },
    {
      "inputs": [
        {
          "internalType": "address",
          "name": "_to",
          "type": "address"
        }
      ],
      "name": "mint",
      "outputs": [
        {
          "internalType": "uint256",
          "name": "",
          "type": "uint256"
        }
      ],
      "stateMutability": "payable",
      "type": "function"
    },
    {
      "inputs": [],
      "name": "name",
      "outputs": [
        {
          "internalType": "string",
          "name": "",
          "type": "string"
        }
      ],
      "stateMutability": "view",
      "type": "function"
    },
    {
      "inputs": [
        {
          "internalType": "uint256",
          "name": "_tokenId",
          "type": "uint256"
        }
      ],
      "name": "ownerOf",
      "outputs": [
        {
          "internalType": "address",
          "name": "",
          "type": "address"
        }
      ],
      "stateMutability": "view",
      "type": "function"
    },
    {
      "inputs": [],
      "name": "price",
      "outputs": [
        {
          "internalType": "uint256",
          "name": "",
          "type": "uint256"
        }
      ],
      "stateMutability": "view",
      "type": "function"
    },
    {
      "inputs": [
        {
          "internalType": "address",
          "name": "_from",
          "type": "address"
        },
        {
          "internalType": "address",
          "name": "_to",
          "type": "address"
        },
        {
          "internalType": "uint256",
          "name": "_tokenId",
          "type": "uint256"
        }
      ],
      "name": "safeTransferFrom",
      "outputs": [],
      "stateMutability": "nonpayable",
      "type": "function"
    },
    {
      "inputs": [
        {
          "internalType": "address",
          "name": "_from",
          "type": "address"
        },
        {
          "internalType": "address",
          "name": "_to",
          "type": "address"
        },
        {
          "internalType": "uint256",
          "name": "_tokenId",
          "type": "uint256"
        },
        {
          "internalType": "bytes",
          "name": "_data",
          "type": "bytes"
        }
      ],
      "name": "safeTransferFrom",
      "outputs": [],
      "stateMutability": "nonpayable",
      "type": "function"
    },
    {
      "inputs": [
        {
          "internalType": "address",
          "name": "_operator",
          "type": "address"
        },
        {
          "internalType": "bool",
          "name": "_approved",
          "type": "bool"
        }
      ],
      "name": "setApprovalForAll",
      "outputs": [],
      "stateMutability": "nonpayable",
      "type": "function"
    },
    {
      "inputs": [
        {
          "internalType": "string",
          "name": "baseURI_",
          "type": "string"
        }
      ],
      "name": "setBaseURI",
      "outputs": [],
      "stateMutability": "nonpayable",
      "type": "function"
    },
    {
      "inputs": [
        {
          "internalType": "uint256",
          "name": "_price",
          "type": "uint256"
        }
      ],
      "name": "setMintPrice",
      "outputs": [],
      "stateMutability": "nonpayable",
      "type": "function"
    },
    {
      "inputs": [
        {
          "internalType": "bool",
          "name": "_isActive",
          "type": "bool"
        }
      ],
      "name": "setPublicSale",
      "outputs": [],
      "stateMutability": "nonpayable",
      "type": "function"
    },
    {
      "inputs": [
        {
          "internalType": "bytes4",
          "name": "_interfaceId",
          "type": "bytes4"
        }
      ],
      "name": "supportsInterface",
      "outputs": [
        {
          "internalType": "bool",
          "name": "",
          "type": "bool"
        }
      ],
      "stateMutability": "view",
      "type": "function"
    },
    {
      "inputs": [],
      "name": "symbol",
      "outputs": [
        {
          "internalType": "string",
          "name": "",
          "type": "string"
        }
      ],
      "stateMutability": "view",
      "type": "function"
    },
    {
      "inputs": [
        {
          "internalType": "address",
          "name": "_reciever",
          "type": "address"
        }
      ],
      "name": "tenantMint",
      "outputs": [
        {
          "internalType": "uint256",
          "name": "",
          "type": "uint256"
        }
      ],
      "stateMutability": "nonpayable",
      "type": "function"
    },
    {
      "inputs": [
        {
          "internalType": "address",
          "name": "_to",
          "type": "address"
        },
        {
          "internalType": "string",
          "name": "_uri",
          "type": "string"
        }
      ],
      "name": "tenantMint",
      "outputs": [
        {
          "internalType": "uint256",
          "name": "",
          "type": "uint256"
        }
      ],
      "stateMutability": "nonpayable",
      "type": "function"
    },
    {
      "inputs": [
        {
          "internalType": "uint256",
          "name": "_tokenId",
          "type": "uint256"
        }
      ],
      "name": "tokenURI",
      "outputs": [
        {
          "internalType": "string",
          "name": "",
          "type": "string"
        }
      ],
      "stateMutability": "view",
      "type": "function"
    },
    {
      "inputs": [
        {
          "internalType": "address",
          "name": "_from",
          "type": "address"
        },
        {
          "internalType": "address",
          "name": "_to",
          "type": "address"
        },
        {
          "internalType": "uint256",
          "name": "_tokenId",
          "type": "uint256"
        }
      ],
      "name": "transferFrom",
      "outputs": [],
      "stateMutability": "nonpayable",
      "type": "function"
    },
    {
      "inputs": [],
      "name": "withdraw",
      "outputs": [],
      "stateMutability": "nonpayable",
      "type": "function"
    },
    {
      "inputs": [
        {
          "internalType": "contract IERC20",
          "name": "_token",
          "type": "address"
        }
      ],
      "name": "withdrawTokens",
      "outputs": [],
      "stateMutability": "nonpayable",
      "type": "function"
    }
  ],
  "bytecode": "0x60a06040523480156200001157600080fd5b5060405162003b8c38038062003b8c83398181016040528101906200003791906200040c565b60016000819055506040518060a001604052806040518060400160405280600681526020017f4552433732310000000000000000000000000000000000000000000000000000815250815260200160405180604001604052808473ffffffffffffffffffffffffffffffffffffffff1681526020016040518060400160405280601881526020017f68747470733a2f2f65787465726e616c6c696e6b2e6e6574000000000000000081525081525081526020016040518060400160405280600581526020017f302e302e31000000000000000000000000000000000000000000000000000000815250815260200165032a361e860667ffffffffffffffff1681526020016040518060400160405280601881526020017f68747470733a2f2f65787465726e616c4c696e6b2e6e657400000000000000008152508152506002600082015181600001908051906020019062000194929190620002b4565b5060208201518160010160008201518160000160006101000a81548173ffffffffffffffffffffffffffffffffffffffff021916908373ffffffffffffffffffffffffffffffffffffffff16021790555060208201518160010190805190602001906200020392919062000345565b505050604082015181600301908051906020019062000224929190620002b4565b5060608201518160040160006101000a81548167ffffffffffffffff021916908367ffffffffffffffff160217905550608082015181600501908051906020019062000272929190620002b4565b509050508073ffffffffffffffffffffffffffffffffffffffff1660808173ffffffffffffffffffffffffffffffffffffffff1660601b8152505050620004eb565b828054620002c2906200046c565b90600052602060002090601f016020900481019282620002e6576000855562000332565b82601f106200030157805160ff191683800117855562000332565b8280016001018555821562000332579182015b828111156200033157825182559160200191906001019062000314565b5b509050620003419190620003d6565b5090565b82805462000353906200046c565b90600052602060002090601f016020900481019282620003775760008555620003c3565b82601f106200039257805160ff1916838001178555620003c3565b82800160010185558215620003c3579182015b82811115620003c2578251825591602001919060010190620003a5565b5b509050620003d29190620003d6565b5090565b5b80821115620003f1576000816000905550600101620003d7565b5090565b6000815190506200040681620004d1565b92915050565b6000602082840312156200041f57600080fd5b60006200042f84828501620003f5565b91505092915050565b600062000445826200044c565b9050919050565b600073ffffffffffffffffffffffffffffffffffffffff82169050919050565b600060028204905060018216806200048557607f821691505b602082108114156200049c576200049b620004a2565b5b50919050565b7f4e487b7100000000000000000000000000000000000000000000000000000000600052602260045260246000fd5b620004dc8162000438565b8114620004e857600080fd5b50565b60805160601c6136826200050a60003960006117cf01526136826000f3fe60806040526004361061019c5760003560e01c806355f804b3116100ec578063a035b1fe1161008a578063c87b56dd11610064578063c87b56dd146105cd578063ce606ee01461060a578063e985e9c514610635578063f4a0a528146106725761019c565b8063a035b1fe14610550578063a22cb4651461057b578063b88d4fde146105a45761019c565b80636a627842116100c65780636a6278421461048d57806370a08231146104bd578063714c5398146104fa57806395d89b41146105255761019c565b806355f804b3146103fe5780635aca1bb6146104275780636352211e146104505761019c565b8063217cc2b411610159578063392f37e911610133578063392f37e9146103665780633ccfd60b1461039557806342842e0e146103ac57806349df728c146103d55761019c565b8063217cc2b4146102c357806323b872dd1461030057806327fbceac146103295761019c565b806301ffc9a7146101a157806306fdde03146101de578063077f224a14610209578063081812fc14610232578063095ea7b31461026f5780631e84c41314610298575b600080fd5b3480156101ad57600080fd5b506101c860048036038101906101c39190612c0a565b61069b565b6040516101d59190613004565b60405180910390f35b3480156101ea57600080fd5b506101f361077d565b60405161020091906130a9565b60405180910390f35b34801561021557600080fd5b50610230600480360381019061022b9190612cc6565b61080f565b005b34801561023e57600080fd5b5061025960048036038101906102549190612d45565b610996565b6040516102669190612f74565b60405180910390f35b34801561027b57600080fd5b5061029660048036038101906102919190612b7c565b6109dc565b005b3480156102a457600080fd5b506102ad610ae5565b6040516102ba9190613004565b60405180910390f35b3480156102cf57600080fd5b506102ea60048036038101906102e591906129b9565b610af8565b6040516102f7919061310b565b60405180910390f35b34801561030c57600080fd5b5061032760048036038101906103229190612a1e565b610ba0565b005b34801561033557600080fd5b50610350600480360381019061034b9190612b24565b610bf7565b60405161035d919061310b565b60405180910390f35b34801561037257600080fd5b5061037b610cd1565b60405161038c95949392919061301f565b60405180910390f35b3480156103a157600080fd5b506103aa610f93565b005b3480156103b857600080fd5b506103d360048036038101906103ce9190612a1e565b611069565b005b3480156103e157600080fd5b506103fc60048036038101906103f79190612c5c565b611089565b005b34801561040a57600080fd5b5061042560048036038101906104209190612c85565b61122f565b005b34801561043357600080fd5b5061044e60048036038101906104499190612bb8565b6112d0565b005b34801561045c57600080fd5b5061047760048036038101906104729190612d45565b611374565b6040516104849190612f74565b60405180910390f35b6104a760048036038101906104a291906129b9565b61141d565b6040516104b4919061310b565b60405180910390f35b3480156104c957600080fd5b506104e460048036038101906104df91906129b9565b61151d565b6040516104f1919061310b565b60405180910390f35b34801561050657600080fd5b5061050f6115cc565b60405161051c91906130a9565b60405180910390f35b34801561053157600080fd5b5061053a61165e565b60405161054791906130a9565b60405180910390f35b34801561055c57600080fd5b506105656116f0565b604051610572919061310b565b60405180910390f35b34801561058757600080fd5b506105a2600480360381019061059d9190612ae8565b6116f6565b005b3480156105b057600080fd5b506105cb60048036038101906105c69190612a6d565b61170c565b005b3480156105d957600080fd5b506105f460048036038101906105ef9190612d45565b611765565b60405161060191906130a9565b60405180910390f35b34801561061657600080fd5b5061061f6117cd565b60405161062c9190612f74565b60405180910390f35b34801561064157600080fd5b5061065c600480360381019061065791906129e2565b6117f1565b6040516106699190613004565b60405180910390f35b34801561067e57600080fd5b5061069960048036038101906106949190612d45565b611885565b005b60007f80ac58cd000000000000000000000000000000000000000000000000000000007bffffffffffffffffffffffffffffffffffffffffffffffffffffffff1916827bffffffffffffffffffffffffffffffffffffffffffffffffffffffff1916148061076657507f5b5e139f000000000000000000000000000000000000000000000000000000007bffffffffffffffffffffffffffffffffffffffffffffffffffffffff1916827bffffffffffffffffffffffffffffffffffffffffffffffffffffffff1916145b80610776575061077582611916565b5b9050919050565b6060600b805461078c906133b7565b80601f01602080910402602001604051908101604052809291908181526020018280546107b8906133b7565b80156108055780601f106107da57610100808354040283529160200191610805565b820191906000526020600020905b8154815290600101906020018083116107e857829003601f168201915b5050505050905090565b600061081b6001611980565b9050801561083e5760018060016101000a81548160ff0219169083151502179055505b81600073ffffffffffffffffffffffffffffffffffffffff16600960009054906101000a900473ffffffffffffffffffffffffffffffffffffffff1673ffffffffffffffffffffffffffffffffffffffff16146108c7576040517f0dc149f000000000000000000000000000000000000000000000000000000000815260040160405180910390fd5b84600b90805190602001906108dd9291906126ce565b5083600c90805190602001906108f49291906126ce565b5082600960006101000a81548173ffffffffffffffffffffffffffffffffffffffff021916908373ffffffffffffffffffffffffffffffffffffffff1602179055505080156109905760006001806101000a81548160ff0219169083151502179055507f7f26b83ff96e1f2b6a682f133852f6798a09c465da95921460cefb38474024986001604051610987919061308e565b60405180910390a15b50505050565b60006109a182611a72565b6012600083815260200190815260200160002060009054906101000a900473ffffffffffffffffffffffffffffffffffffffff169050919050565b60006109e782611374565b90508273ffffffffffffffffffffffffffffffffffffffff168173ffffffffffffffffffffffffffffffffffffffff161415610a4f576040517f367558c300000000000000000000000000000000000000000000000000000000815260040160405180910390fd5b8073ffffffffffffffffffffffffffffffffffffffff16610a6e611ab4565b73ffffffffffffffffffffffffffffffffffffffff16141580610a9f5750610a9d81610a98611ab4565b6117f1565b155b15610ad6576040517f82b4290000000000000000000000000000000000000000000000000000000000815260040160405180910390fd5b610ae08383611abc565b505050565b600f60009054906101000a900460ff1681565b6000600960009054906101000a900473ffffffffffffffffffffffffffffffffffffffff1673ffffffffffffffffffffffffffffffffffffffff163373ffffffffffffffffffffffffffffffffffffffff1614610b81576040517f82b4290000000000000000000000000000000000000000000000000000000000815260040160405180910390fd5b6000610b8b611b75565b9050610b978382611b90565b80915050919050565b610bb1610bab611ab4565b82611bae565b610be7576040517f82b4290000000000000000000000000000000000000000000000000000000000815260040160405180910390fd5b610bf2838383611c43565b505050565b6000600960009054906101000a900473ffffffffffffffffffffffffffffffffffffffff1673ffffffffffffffffffffffffffffffffffffffff163373ffffffffffffffffffffffffffffffffffffffff1614610c80576040517f82b4290000000000000000000000000000000000000000000000000000000000815260040160405180910390fd5b6000610c8a611b75565b9050610c968582611b90565b6000848490501115610cc6578383601460008481526020019081526020016000209190610cc4929190612754565b505b809150509392505050565b6002806000018054610ce2906133b7565b80601f0160208091040260200160405190810160405280929190818152602001828054610d0e906133b7565b8015610d5b5780601f10610d3057610100808354040283529160200191610d5b565b820191906000526020600020905b815481529060010190602001808311610d3e57829003601f168201915b505050505090806001016040518060400160405290816000820160009054906101000a900473ffffffffffffffffffffffffffffffffffffffff1673ffffffffffffffffffffffffffffffffffffffff1673ffffffffffffffffffffffffffffffffffffffff168152602001600182018054610dd6906133b7565b80601f0160208091040260200160405190810160405280929190818152602001828054610e02906133b7565b8015610e4f5780601f10610e2457610100808354040283529160200191610e4f565b820191906000526020600020905b815481529060010190602001808311610e3257829003601f168201915b50505050508152505090806003018054610e68906133b7565b80601f0160208091040260200160405190810160405280929190818152602001828054610e94906133b7565b8015610ee15780601f10610eb657610100808354040283529160200191610ee1565b820191906000526020600020905b815481529060010190602001808311610ec457829003601f168201915b5050505050908060040160009054906101000a900467ffffffffffffffff1690806005018054610f10906133b7565b80601f0160208091040260200160405190810160405280929190818152602001828054610f3c906133b7565b8015610f895780601f10610f5e57610100808354040283529160200191610f89565b820191906000526020600020905b815481529060010190602001808311610f6c57829003601f168201915b5050505050905085565b600960009054906101000a900473ffffffffffffffffffffffffffffffffffffffff1673ffffffffffffffffffffffffffffffffffffffff163373ffffffffffffffffffffffffffffffffffffffff161461101a576040517f82b4290000000000000000000000000000000000000000000000000000000000815260040160405180910390fd5b60004790503373ffffffffffffffffffffffffffffffffffffffff166108fc829081150290604051600060405180830381858888f19350505050158015611065573d6000803e3d6000fd5b5050565b6110848383836040518060200160405280600081525061170c565b505050565b600960009054906101000a900473ffffffffffffffffffffffffffffffffffffffff1673ffffffffffffffffffffffffffffffffffffffff163373ffffffffffffffffffffffffffffffffffffffff1614611110576040517f82b4290000000000000000000000000000000000000000000000000000000000815260040160405180910390fd5b60008173ffffffffffffffffffffffffffffffffffffffff166370a08231306040518263ffffffff1660e01b815260040161114b9190612f74565b60206040518083038186803b15801561116357600080fd5b505afa158015611177573d6000803e3d6000fd5b505050506040513d601f19601f8201168201806040525081019061119b9190612d6e565b90508173ffffffffffffffffffffffffffffffffffffffff1663a9059cbb33836040518363ffffffff1660e01b81526004016111d8929190612fdb565b602060405180830381600087803b1580156111f257600080fd5b505af1158015611206573d6000803e3d6000fd5b505050506040513d601f19601f8201168201806040525081019061122a9190612be1565b505050565b600960009054906101000a900473ffffffffffffffffffffffffffffffffffffffff1673ffffffffffffffffffffffffffffffffffffffff163373ffffffffffffffffffffffffffffffffffffffff16146112b6576040517f82b4290000000000000000000000000000000000000000000000000000000000815260040160405180910390fd5b80600d90805190602001906112cc9291906126ce565b5050565b600960009054906101000a900473ffffffffffffffffffffffffffffffffffffffff1673ffffffffffffffffffffffffffffffffffffffff163373ffffffffffffffffffffffffffffffffffffffff1614611357576040517f82b4290000000000000000000000000000000000000000000000000000000000815260040160405180910390fd5b80600f60006101000a81548160ff02191690831515021790555050565b6000806010600084815260200190815260200160002060009054906101000a900473ffffffffffffffffffffffffffffffffffffffff169050600073ffffffffffffffffffffffffffffffffffffffff168173ffffffffffffffffffffffffffffffffffffffff161415611414576040517f3f6cc76800000000000000000000000000000000000000000000000000000000815260040160405180910390fd5b80915050919050565b600060026000541415611465576040517f08c379a000000000000000000000000000000000000000000000000000000000815260040161145c906130eb565b60405180910390fd5b600260008190555060001515600f60009054906101000a900460ff16151514156114bb576040517f15b1bdcd00000000000000000000000000000000000000000000000000000000815260040160405180910390fd5b600e5434146114f6576040517ff4d678b800000000000000000000000000000000000000000000000000000000815260040160405180910390fd5b6000611500611b75565b905061150c8382611b90565b809150506001600081905550919050565b60008073ffffffffffffffffffffffffffffffffffffffff168273ffffffffffffffffffffffffffffffffffffffff161415611585576040517fd92e233d00000000000000000000000000000000000000000000000000000000815260040160405180910390fd5b601160008373ffffffffffffffffffffffffffffffffffffffff1673ffffffffffffffffffffffffffffffffffffffff168152602001908152602001600020549050919050565b6060600d80546115db906133b7565b80601f0160208091040260200160405190810160405280929190818152602001828054611607906133b7565b80156116545780601f1061162957610100808354040283529160200191611654565b820191906000526020600020905b81548152906001019060200180831161163757829003601f168201915b5050505050905090565b6060600c805461166d906133b7565b80601f0160208091040260200160405190810160405280929190818152602001828054611699906133b7565b80156116e65780601f106116bb576101008083540402835291602001916116e6565b820191906000526020600020905b8154815290600101906020018083116116c957829003601f168201915b5050505050905090565b600e5481565b611708611701611ab4565b8383611e98565b5050565b61171d611717611ab4565b83611bae565b611753576040517f82b4290000000000000000000000000000000000000000000000000000000000815260040160405180910390fd5b61175f84848484612063565b50505050565b606061177082611a72565b600061177a6120b6565b9050600081511161179a57604051806020016040528060008152506117c5565b806117a4846120cd565b6040516020016117b5929190612f50565b6040516020818303038152906040525b915050919050565b7f000000000000000000000000000000000000000000000000000000000000000081565b6000601360008473ffffffffffffffffffffffffffffffffffffffff1673ffffffffffffffffffffffffffffffffffffffff16815260200190815260200160002060008373ffffffffffffffffffffffffffffffffffffffff1673ffffffffffffffffffffffffffffffffffffffff16815260200190815260200160002060009054906101000a900460ff16905092915050565b600960009054906101000a900473ffffffffffffffffffffffffffffffffffffffff1673ffffffffffffffffffffffffffffffffffffffff163373ffffffffffffffffffffffffffffffffffffffff161461190c576040517f82b4290000000000000000000000000000000000000000000000000000000000815260040160405180910390fd5b80600e8190555050565b60007f01ffc9a7000000000000000000000000000000000000000000000000000000007bffffffffffffffffffffffffffffffffffffffffffffffffffffffff1916827bffffffffffffffffffffffffffffffffffffffffffffffffffffffff1916149050919050565b600060018054906101000a900460ff16156119f65760018260ff161480156119ae57506119ac3061227a565b155b6119ed576040517f08c379a00000000000000000000000000000000000000000000000000000000081526004016119e4906130cb565b60405180910390fd5b60009050611a6d565b8160ff16600160009054906101000a900460ff1660ff1610611a4d576040517f08c379a0000000000000000000000000000000000000000000000000000000008152600401611a44906130cb565b60405180910390fd5b81600160006101000a81548160ff021916908360ff160217905550600190505b919050565b611a7b8161228d565b611ab1576040517f3f6cc76800000000000000000000000000000000000000000000000000000000815260040160405180910390fd5b50565b600033905090565b816012600083815260200190815260200160002060006101000a81548173ffffffffffffffffffffffffffffffffffffffff021916908373ffffffffffffffffffffffffffffffffffffffff160217905550808273ffffffffffffffffffffffffffffffffffffffff16611b2f83611374565b73ffffffffffffffffffffffffffffffffffffffff167f8c5be1e5ebec7d5bd14f71427d1e84f3dd0314c0f7b2291e5b200ac8c7c3b92560405160405180910390a45050565b6000611b81600a6122f9565b611b8b600a61230f565b905090565b611baa82826040518060200160405280600081525061231d565b5050565b600080611bba83611374565b90508073ffffffffffffffffffffffffffffffffffffffff168473ffffffffffffffffffffffffffffffffffffffff161480611bfc5750611bfb81856117f1565b5b80611c3a57508373ffffffffffffffffffffffffffffffffffffffff16611c2284610996565b73ffffffffffffffffffffffffffffffffffffffff16145b91505092915050565b8273ffffffffffffffffffffffffffffffffffffffff16611c6382611374565b73ffffffffffffffffffffffffffffffffffffffff1614611cb0576040517f3a6bbed300000000000000000000000000000000000000000000000000000000815260040160405180910390fd5b600073ffffffffffffffffffffffffffffffffffffffff168273ffffffffffffffffffffffffffffffffffffffff161415611d17576040517fd92e233d00000000000000000000000000000000000000000000000000000000815260040160405180910390fd5b611d2283838361236f565b611d2d600082611abc565b6001601160008573ffffffffffffffffffffffffffffffffffffffff1673ffffffffffffffffffffffffffffffffffffffff1681526020019081526020016000206000828254611d7d9190613288565b925050819055506001601160008473ffffffffffffffffffffffffffffffffffffffff1673ffffffffffffffffffffffffffffffffffffffff1681526020019081526020016000206000828254611dd49190613201565b92505081905550816010600083815260200190815260200160002060006101000a81548173ffffffffffffffffffffffffffffffffffffffff021916908373ffffffffffffffffffffffffffffffffffffffff160217905550808273ffffffffffffffffffffffffffffffffffffffff168473ffffffffffffffffffffffffffffffffffffffff167fddf252ad1be2c89b69c2b068fc378daa952ba7f163c4a11628f55a4df523b3ef60405160405180910390a4611e93838383612374565b505050565b600073ffffffffffffffffffffffffffffffffffffffff168273ffffffffffffffffffffffffffffffffffffffff161415611eff576040517fd92e233d00000000000000000000000000000000000000000000000000000000815260040160405180910390fd5b8173ffffffffffffffffffffffffffffffffffffffff168373ffffffffffffffffffffffffffffffffffffffff161415611f65576040517ff4b33eeb00000000000000000000000000000000000000000000000000000000815260040160405180910390fd5b80601360008573ffffffffffffffffffffffffffffffffffffffff1673ffffffffffffffffffffffffffffffffffffffff16815260200190815260200160002060008473ffffffffffffffffffffffffffffffffffffffff1673ffffffffffffffffffffffffffffffffffffffff16815260200190815260200160002060006101000a81548160ff0219169083151502179055508173ffffffffffffffffffffffffffffffffffffffff168373ffffffffffffffffffffffffffffffffffffffff167f17307eab39ab6107e8899845ad3d59bd9653f200f220920489ca2b5937696c31836040516120569190613004565b60405180910390a3505050565b61206e848484611c43565b61207a84848484612379565b6120b0576040517f44ccafd600000000000000000000000000000000000000000000000000000000815260040160405180910390fd5b50505050565b606060405180602001604052806000815250905090565b60606000821415612115576040518060400160405280600181526020017f30000000000000000000000000000000000000000000000000000000000000008152509050612275565b600082905060005b600082146121475780806121309061341a565b915050600a826121409190613257565b915061211d565b60008167ffffffffffffffff811115612189577f4e487b7100000000000000000000000000000000000000000000000000000000600052604160045260246000fd5b6040519080825280601f01601f1916602001820160405280156121bb5781602001600182028036833780820191505090505b5090505b6000851461226e576001826121d49190613288565b9150600a856121e39190613463565b60306121ef9190613201565b60f81b81838151811061222b577f4e487b7100000000000000000000000000000000000000000000000000000000600052603260045260246000fd5b60200101907effffffffffffffffffffffffffffffffffffffffffffffffffffffffffffff1916908160001a905350600a856122679190613257565b94506121bf565b8093505050505b919050565b600080823b905060008111915050919050565b60008073ffffffffffffffffffffffffffffffffffffffff166010600084815260200190815260200160002060009054906101000a900473ffffffffffffffffffffffffffffffffffffffff1673ffffffffffffffffffffffffffffffffffffffff1614159050919050565b6001816000016000828254019250508190555050565b600081600001549050919050565b6123278383612507565b6123346000848484612379565b61236a576040517f44ccafd600000000000000000000000000000000000000000000000000000000815260040160405180910390fd5b505050565b505050565b505050565b600061239a8473ffffffffffffffffffffffffffffffffffffffff1661227a565b156124fa578373ffffffffffffffffffffffffffffffffffffffff1663150b7a026123c3611ab4565b8786866040518563ffffffff1660e01b81526004016123e59493929190612f8f565b602060405180830381600087803b1580156123ff57600080fd5b505af192505050801561243057506040513d601f19601f8201168201806040525081019061242d9190612c33565b60015b6124aa573d8060008114612460576040519150601f19603f3d011682016040523d82523d6000602084013e612465565b606091505b506000815114156124a2576040517f44ccafd600000000000000000000000000000000000000000000000000000000815260040160405180910390fd5b805181602001fd5b63150b7a0260e01b7bffffffffffffffffffffffffffffffffffffffffffffffffffffffff1916817bffffffffffffffffffffffffffffffffffffffffffffffffffffffff1916149150506124ff565b600190505b949350505050565b600073ffffffffffffffffffffffffffffffffffffffff168273ffffffffffffffffffffffffffffffffffffffff16141561256e576040517fd92e233d00000000000000000000000000000000000000000000000000000000815260040160405180910390fd5b6125778161228d565b156125ad576040517ea5a1f500000000000000000000000000000000000000000000000000000000815260040160405180910390fd5b6125b96000838361236f565b6001601160008473ffffffffffffffffffffffffffffffffffffffff1673ffffffffffffffffffffffffffffffffffffffff16815260200190815260200160002060008282546126099190613201565b92505081905550816010600083815260200190815260200160002060006101000a81548173ffffffffffffffffffffffffffffffffffffffff021916908373ffffffffffffffffffffffffffffffffffffffff160217905550808273ffffffffffffffffffffffffffffffffffffffff16600073ffffffffffffffffffffffffffffffffffffffff167fddf252ad1be2c89b69c2b068fc378daa952ba7f163c4a11628f55a4df523b3ef60405160405180910390a46126ca60008383612374565b5050565b8280546126da906133b7565b90600052602060002090601f0160209004810192826126fc5760008555612743565b82601f1061271557805160ff1916838001178555612743565b82800160010185558215612743579182015b82811115612742578251825591602001919060010190612727565b5b50905061275091906127da565b5090565b828054612760906133b7565b90600052602060002090601f01602090048101928261278257600085556127c9565b82601f1061279b57803560ff19168380011785556127c9565b828001600101855582156127c9579182015b828111156127c85782358255916020019190600101906127ad565b5b5090506127d691906127da565b5090565b5b808211156127f35760008160009055506001016127db565b5090565b600061280a6128058461314b565b613126565b90508281526020810184848401111561282257600080fd5b61282d848285613375565b509392505050565b60006128486128438461317c565b613126565b90508281526020810184848401111561286057600080fd5b61286b848285613375565b509392505050565b600081359050612882816135d9565b92915050565b600081359050612897816135f0565b92915050565b6000815190506128ac816135f0565b92915050565b6000813590506128c181613607565b92915050565b6000815190506128d681613607565b92915050565b600082601f8301126128ed57600080fd5b81356128fd8482602086016127f7565b91505092915050565b6000813590506129158161361e565b92915050565b60008083601f84011261292d57600080fd5b8235905067ffffffffffffffff81111561294657600080fd5b60208301915083600182028301111561295e57600080fd5b9250929050565b600082601f83011261297657600080fd5b8135612986848260208601612835565b91505092915050565b60008135905061299e81613635565b92915050565b6000815190506129b381613635565b92915050565b6000602082840312156129cb57600080fd5b60006129d984828501612873565b91505092915050565b600080604083850312156129f557600080fd5b6000612a0385828601612873565b9250506020612a1485828601612873565b9150509250929050565b600080600060608486031215612a3357600080fd5b6000612a4186828701612873565b9350506020612a5286828701612873565b9250506040612a638682870161298f565b9150509250925092565b60008060008060808587031215612a8357600080fd5b6000612a9187828801612873565b9450506020612aa287828801612873565b9350506040612ab38782880161298f565b925050606085013567ffffffffffffffff811115612ad057600080fd5b612adc878288016128dc565b91505092959194509250565b60008060408385031215612afb57600080fd5b6000612b0985828601612873565b9250506020612b1a85828601612888565b9150509250929050565b600080600060408486031215612b3957600080fd5b6000612b4786828701612873565b935050602084013567ffffffffffffffff811115612b6457600080fd5b612b708682870161291b565b92509250509250925092565b60008060408385031215612b8f57600080fd5b6000612b9d85828601612873565b9250506020612bae8582860161298f565b9150509250929050565b600060208284031215612bca57600080fd5b6000612bd884828501612888565b91505092915050565b600060208284031215612bf357600080fd5b6000612c018482850161289d565b91505092915050565b600060208284031215612c1c57600080fd5b6000612c2a848285016128b2565b91505092915050565b600060208284031215612c4557600080fd5b6000612c53848285016128c7565b91505092915050565b600060208284031215612c6e57600080fd5b6000612c7c84828501612906565b91505092915050565b600060208284031215612c9757600080fd5b600082013567ffffffffffffffff811115612cb157600080fd5b612cbd84828501612965565b91505092915050565b600080600060608486031215612cdb57600080fd5b600084013567ffffffffffffffff811115612cf557600080fd5b612d0186828701612965565b935050602084013567ffffffffffffffff811115612d1e57600080fd5b612d2a86828701612965565b9250506040612d3b86828701612873565b9150509250925092565b600060208284031215612d5757600080fd5b6000612d658482850161298f565b91505092915050565b600060208284031215612d8057600080fd5b6000612d8e848285016129a4565b91505092915050565b612da0816132bc565b82525050565b612daf816132bc565b82525050565b612dbe816132ce565b82525050565b6000612dcf826131ad565b612dd981856131c3565b9350612de9818560208601613384565b612df281613550565b840191505092915050565b612e0681613363565b82525050565b6000612e17826131b8565b612e2181856131d4565b9350612e31818560208601613384565b612e3a81613550565b840191505092915050565b6000612e50826131b8565b612e5a81856131e5565b9350612e6a818560208601613384565b612e7381613550565b840191505092915050565b6000612e89826131b8565b612e9381856131f6565b9350612ea3818560208601613384565b80840191505092915050565b6000612ebc602e836131e5565b9150612ec782613561565b604082019050919050565b6000612edf601f836131e5565b9150612eea826135b0565b602082019050919050565b6000604083016000830151612f0d6000860182612d97565b5060208301518482036020860152612f258282612e0c565b9150508091505092915050565b612f3b81613338565b82525050565b612f4a81613342565b82525050565b6000612f5c8285612e7e565b9150612f688284612e7e565b91508190509392505050565b6000602082019050612f896000830184612da6565b92915050565b6000608082019050612fa46000830187612da6565b612fb16020830186612da6565b612fbe6040830185612f32565b8181036060830152612fd08184612dc4565b905095945050505050565b6000604082019050612ff06000830185612da6565b612ffd6020830184612f32565b9392505050565b60006020820190506130196000830184612db5565b92915050565b600060a08201905081810360008301526130398188612dc4565b9050818103602083015261304d8187612ef5565b905081810360408301526130618186612dc4565b90506130706060830185612f41565b81810360808301526130828184612dc4565b90509695505050505050565b60006020820190506130a36000830184612dfd565b92915050565b600060208201905081810360008301526130c38184612e45565b905092915050565b600060208201905081810360008301526130e481612eaf565b9050919050565b6000602082019050818103600083015261310481612ed2565b9050919050565b60006020820190506131206000830184612f32565b92915050565b6000613130613141565b905061313c82826133e9565b919050565b6000604051905090565b600067ffffffffffffffff82111561316657613165613521565b5b61316f82613550565b9050602081019050919050565b600067ffffffffffffffff82111561319757613196613521565b5b6131a082613550565b9050602081019050919050565b600081519050919050565b600081519050919050565b600082825260208201905092915050565b600082825260208201905092915050565b600082825260208201905092915050565b600081905092915050565b600061320c82613338565b915061321783613338565b9250827fffffffffffffffffffffffffffffffffffffffffffffffffffffffffffffffff0382111561324c5761324b613494565b5b828201905092915050565b600061326282613338565b915061326d83613338565b92508261327d5761327c6134c3565b5b828204905092915050565b600061329382613338565b915061329e83613338565b9250828210156132b1576132b0613494565b5b828203905092915050565b60006132c782613318565b9050919050565b60008115159050919050565b60007fffffffff0000000000000000000000000000000000000000000000000000000082169050919050565b6000613311826132bc565b9050919050565b600073ffffffffffffffffffffffffffffffffffffffff82169050919050565b6000819050919050565b600067ffffffffffffffff82169050919050565b600060ff82169050919050565b600061336e82613356565b9050919050565b82818337600083830152505050565b60005b838110156133a2578082015181840152602081019050613387565b838111156133b1576000848401525b50505050565b600060028204905060018216806133cf57607f821691505b602082108114156133e3576133e26134f2565b5b50919050565b6133f282613550565b810181811067ffffffffffffffff8211171561341157613410613521565b5b80604052505050565b600061342582613338565b91507fffffffffffffffffffffffffffffffffffffffffffffffffffffffffffffffff82141561345857613457613494565b5b600182019050919050565b600061346e82613338565b915061347983613338565b925082613489576134886134c3565b5b828206905092915050565b7f4e487b7100000000000000000000000000000000000000000000000000000000600052601160045260246000fd5b7f4e487b7100000000000000000000000000000000000000000000000000000000600052601260045260246000fd5b7f4e487b7100000000000000000000000000000000000000000000000000000000600052602260045260246000fd5b7f4e487b7100000000000000000000000000000000000000000000000000000000600052604160045260246000fd5b6000601f19601f8301169050919050565b7f496e697469616c697a61626c653a20636f6e747261637420697320616c72656160008201527f647920696e697469616c697a6564000000000000000000000000000000000000602082015250565b7f5265656e7472616e637947756172643a207265656e7472616e742063616c6c00600082015250565b6135e2816132bc565b81146135ed57600080fd5b50565b6135f9816132ce565b811461360457600080fd5b50565b613610816132da565b811461361b57600080fd5b50565b61362781613306565b811461363257600080fd5b50565b61363e81613338565b811461364957600080fd5b5056fea2646970667358221220bfda9502f2a23120db54a7644cde6efda41892f8b2963aae9829164d3af739f864736f6c63430008040033",
  "linkReferences": {},
  "deployedLinkReferences": {}
}