{
  "_format": "hh-sol-artifact-1",
  "contractName": "ERC721",
  "sourceName": "contracts/ERC721.sol",
  "abi": [
    {
      "inputs": [
        {
          "internalType": "address",
          "name": "_owner",
          "type": "address"
        }
      ],
      "stateMutability": "nonpayable",
      "type": "constructor"
    },
    {
      "inputs": [],
      "name": "AlreadyInitialized",
      "type": "error"
    },
    {
      "inputs": [],
      "name": "IncorrectOwner",
      "type": "error"
    },
    {
      "inputs": [],
      "name": "InsufficientAllowance",
      "type": "error"
    },
    {
      "inputs": [],
      "name": "InsufficientBalance",
      "type": "error"
    },
    {
      "inputs": [],
      "name": "InvalidTokenId",
      "type": "error"
    },
    {
      "inputs": [],
      "name": "MaxPerUserExceeded",
      "type": "error"
    },
    {
      "inputs": [],
      "name": "MaxSupplyExceeded",
      "type": "error"
    },
    {
      "inputs": [],
      "name": "MissingERC721Receiver",
      "type": "error"
    },
    {
      "inputs": [],
      "name": "NotACollection",
      "type": "error"
    },
    {
      "inputs": [],
      "name": "PublicMintInactive",
      "type": "error"
    },
    {
      "inputs": [],
      "name": "SameAddress",
      "type": "error"
    },
    {
      "inputs": [],
      "name": "SameOwnerAndOperator",
      "type": "error"
    },
    {
      "inputs": [],
      "name": "TokenAlreadyMinted",
      "type": "error"
    },
    {
      "inputs": [],
      "name": "Unauthorized",
      "type": "error"
    },
    {
      "inputs": [],
      "name": "ZeroAddress",
      "type": "error"
    },
    {
      "anonymous": false,
      "inputs": [
        {
          "indexed": true,
          "internalType": "address",
          "name": "owner",
          "type": "address"
        },
        {
          "indexed": true,
          "internalType": "address",
          "name": "approved",
          "type": "address"
        },
        {
          "indexed": true,
          "internalType": "uint256",
          "name": "tokenId",
          "type": "uint256"
        }
      ],
      "name": "Approval",
      "type": "event"
    },
    {
      "anonymous": false,
      "inputs": [
        {
          "indexed": true,
          "internalType": "address",
          "name": "owner",
          "type": "address"
        },
        {
          "indexed": true,
          "internalType": "address",
          "name": "operator",
          "type": "address"
        },
        {
          "indexed": false,
          "internalType": "bool",
          "name": "approved",
          "type": "bool"
        }
      ],
      "name": "ApprovalForAll",
      "type": "event"
    },
    {
      "anonymous": false,
      "inputs": [
        {
          "indexed": false,
          "internalType": "uint8",
          "name": "version",
          "type": "uint8"
        }
      ],
      "name": "Initialized",
      "type": "event"
    },
    {
      "anonymous": false,
      "inputs": [
        {
          "indexed": true,
          "internalType": "address",
          "name": "from",
          "type": "address"
        },
        {
          "indexed": true,
          "internalType": "address",
          "name": "to",
          "type": "address"
        },
        {
          "indexed": true,
          "internalType": "uint256",
          "name": "tokenId",
          "type": "uint256"
        }
      ],
      "name": "Transfer",
      "type": "event"
    },
    {
      "inputs": [],
      "name": "_collectionInfo",
      "outputs": [
        {
          "internalType": "uint256",
          "name": "price",
          "type": "uint256"
        },
        {
          "internalType": "uint256",
          "name": "maxSupply",
          "type": "uint256"
        },
        {
          "internalType": "uint256",
          "name": "maxPerUser",
          "type": "uint256"
        },
        {
          "internalType": "bool",
          "name": "isPublicSaleActive",
          "type": "bool"
        }
      ],
      "stateMutability": "view",
      "type": "function"
    },
    {
      "inputs": [],
      "name": "_tenantOwner",
      "outputs": [
        {
          "internalType": "address",
          "name": "",
          "type": "address"
        }
      ],
      "stateMutability": "view",
      "type": "function"
    },
    {
      "inputs": [
        {
          "internalType": "address",
          "name": "_to",
          "type": "address"
        },
        {
          "internalType": "uint256",
          "name": "_tokenId",
          "type": "uint256"
        }
      ],
      "name": "approve",
      "outputs": [],
      "stateMutability": "nonpayable",
      "type": "function"
    },
    {
      "inputs": [
        {
          "internalType": "address",
          "name": "_owner",
          "type": "address"
        }
      ],
      "name": "balanceOf",
      "outputs": [
        {
          "internalType": "uint256",
          "name": "",
          "type": "uint256"
        }
      ],
      "stateMutability": "view",
      "type": "function"
    },
    {
      "inputs": [],
      "name": "contractOwner",
      "outputs": [
        {
          "internalType": "address",
          "name": "",
          "type": "address"
        }
      ],
      "stateMutability": "view",
      "type": "function"
    },
    {
      "inputs": [
        {
          "internalType": "uint256",
          "name": "_tokenId",
          "type": "uint256"
        }
      ],
      "name": "getApproved",
      "outputs": [
        {
          "internalType": "address",
          "name": "",
          "type": "address"
        }
      ],
      "stateMutability": "view",
      "type": "function"
    },
    {
      "inputs": [],
      "name": "getBaseURI",
      "outputs": [
        {
          "internalType": "string",
          "name": "",
          "type": "string"
        }
      ],
      "stateMutability": "view",
      "type": "function"
    },
    {
      "inputs": [
        {
          "internalType": "string",
          "name": "name_",
          "type": "string"
        },
        {
          "internalType": "string",
          "name": "symbol_",
          "type": "string"
        },
        {
          "internalType": "address",
          "name": "tenant_",
          "type": "address"
        }
      ],
      "name": "initialize",
      "outputs": [],
      "stateMutability": "nonpayable",
      "type": "function"
    },
    {
      "inputs": [
        {
          "internalType": "uint256",
          "name": "_price",
          "type": "uint256"
        },
        {
          "internalType": "uint256",
          "name": "_maxSupply",
          "type": "uint256"
        },
        {
          "internalType": "uint256",
          "name": "_maxPerUser",
          "type": "uint256"
        }
      ],
      "name": "initializeCollection",
      "outputs": [],
      "stateMutability": "nonpayable",
      "type": "function"
    },
    {
      "inputs": [
        {
          "internalType": "address",
          "name": "_owner",
          "type": "address"
        },
        {
          "internalType": "address",
          "name": "_operator",
          "type": "address"
        }
      ],
      "name": "isApprovedForAll",
      "outputs": [
        {
          "internalType": "bool",
          "name": "",
          "type": "bool"
        }
      ],
      "stateMutability": "view",
      "type": "function"
    },
    {
      "inputs": [],
      "name": "isPublicSaleActive",
      "outputs": [
        {
          "internalType": "bool",
          "name": "",
          "type": "bool"
        }
      ],
      "stateMutability": "view",
      "type": "function"
    },
    {
      "inputs": [],
      "name": "metadata",
      "outputs": [
        {
          "internalType": "bytes",
          "name": "title",
          "type": "bytes"
        },
        {
          "components": [
            {
              "internalType": "address",
              "name": "authorAddress",
              "type": "address"
            },
            {
              "internalType": "string",
              "name": "externalLink",
              "type": "string"
            }
          ],
          "internalType": "struct IHyperverseModule.Author",
          "name": "author",
          "type": "tuple"
        },
        {
          "internalType": "bytes",
          "name": "version",
          "type": "bytes"
        },
        {
          "internalType": "uint64",
          "name": "publishedAt",
          "type": "uint64"
        },
        {
          "internalType": "bytes",
          "name": "externalLink",
          "type": "bytes"
        }
      ],
      "stateMutability": "view",
      "type": "function"
    },
    {
      "inputs": [
        {
          "internalType": "address",
          "name": "_to",
          "type": "address"
        }
      ],
      "name": "mint",
      "outputs": [
        {
          "internalType": "uint256",
          "name": "",
          "type": "uint256"
        }
      ],
      "stateMutability": "payable",
      "type": "function"
    },
    {
      "inputs": [
        {
          "internalType": "address",
          "name": "_to",
          "type": "address"
        },
        {
          "internalType": "uint256",
          "name": "_count",
          "type": "uint256"
        }
      ],
      "name": "mintBatch",
      "outputs": [
        {
          "internalType": "uint256[]",
          "name": "",
          "type": "uint256[]"
        }
      ],
      "stateMutability": "payable",
      "type": "function"
    },
    {
      "inputs": [],
      "name": "name",
      "outputs": [
        {
          "internalType": "string",
          "name": "",
          "type": "string"
        }
      ],
      "stateMutability": "view",
      "type": "function"
    },
    {
      "inputs": [
        {
          "internalType": "uint256",
          "name": "_tokenId",
          "type": "uint256"
        }
      ],
      "name": "ownerOf",
      "outputs": [
        {
          "internalType": "address",
          "name": "",
          "type": "address"
        }
      ],
      "stateMutability": "view",
      "type": "function"
    },
    {
      "inputs": [
        {
          "internalType": "address",
          "name": "_from",
          "type": "address"
        },
        {
          "internalType": "address",
          "name": "_to",
          "type": "address"
        },
        {
          "internalType": "uint256",
          "name": "_tokenId",
          "type": "uint256"
        }
      ],
      "name": "safeTransferFrom",
      "outputs": [],
      "stateMutability": "nonpayable",
      "type": "function"
    },
    {
      "inputs": [
        {
          "internalType": "address",
          "name": "_from",
          "type": "address"
        },
        {
          "internalType": "address",
          "name": "_to",
          "type": "address"
        },
        {
          "internalType": "uint256",
          "name": "_tokenId",
          "type": "uint256"
        },
        {
          "internalType": "bytes",
          "name": "_data",
          "type": "bytes"
        }
      ],
      "name": "safeTransferFrom",
      "outputs": [],
      "stateMutability": "nonpayable",
      "type": "function"
    },
    {
      "inputs": [
        {
          "internalType": "address",
          "name": "_operator",
          "type": "address"
        },
        {
          "internalType": "bool",
          "name": "_approved",
          "type": "bool"
        }
      ],
      "name": "setApprovalForAll",
      "outputs": [],
      "stateMutability": "nonpayable",
      "type": "function"
    },
    {
      "inputs": [
        {
          "internalType": "string",
          "name": "baseURI_",
          "type": "string"
        }
      ],
      "name": "setBaseURI",
      "outputs": [],
      "stateMutability": "nonpayable",
      "type": "function"
    },
    {
      "inputs": [
        {
          "internalType": "bool",
          "name": "_isActive",
          "type": "bool"
        }
      ],
      "name": "setMintPermissions",
      "outputs": [],
      "stateMutability": "nonpayable",
      "type": "function"
    },
    {
      "inputs": [
        {
          "internalType": "bytes4",
          "name": "_interfaceId",
          "type": "bytes4"
        }
      ],
      "name": "supportsInterface",
      "outputs": [
        {
          "internalType": "bool",
          "name": "",
          "type": "bool"
        }
      ],
      "stateMutability": "view",
      "type": "function"
    },
    {
      "inputs": [],
      "name": "symbol",
      "outputs": [
        {
          "internalType": "string",
          "name": "",
          "type": "string"
        }
      ],
      "stateMutability": "view",
      "type": "function"
    },
    {
      "inputs": [
        {
          "internalType": "address",
          "name": "_reciever",
          "type": "address"
        }
      ],
      "name": "tenantMint",
      "outputs": [
        {
          "internalType": "uint256",
          "name": "",
          "type": "uint256"
        }
      ],
      "stateMutability": "nonpayable",
      "type": "function"
    },
    {
      "inputs": [
        {
          "internalType": "address",
          "name": "_to",
          "type": "address"
        },
        {
          "internalType": "string",
          "name": "_uri",
          "type": "string"
        }
      ],
      "name": "tenantMint",
      "outputs": [
        {
          "internalType": "uint256",
          "name": "",
          "type": "uint256"
        }
      ],
      "stateMutability": "nonpayable",
      "type": "function"
    },
    {
      "inputs": [
        {
          "internalType": "uint256",
          "name": "_tokenId",
          "type": "uint256"
        }
      ],
      "name": "tokenURI",
      "outputs": [
        {
          "internalType": "string",
          "name": "",
          "type": "string"
        }
      ],
      "stateMutability": "view",
      "type": "function"
    },
    {
      "inputs": [
        {
          "internalType": "address",
          "name": "_from",
          "type": "address"
        },
        {
          "internalType": "address",
          "name": "_to",
          "type": "address"
        },
        {
          "internalType": "uint256",
          "name": "_tokenId",
          "type": "uint256"
        }
      ],
      "name": "transferFrom",
      "outputs": [],
      "stateMutability": "nonpayable",
      "type": "function"
    },
    {
      "inputs": [],
      "name": "withdraw",
      "outputs": [],
      "stateMutability": "nonpayable",
      "type": "function"
    },
    {
      "inputs": [
        {
          "internalType": "contract IERC20",
          "name": "_token",
          "type": "address"
        }
      ],
      "name": "withdrawTokens",
      "outputs": [],
      "stateMutability": "nonpayable",
      "type": "function"
    }
  ],
  "bytecode": "0x60a06040523480156200001157600080fd5b50604051620045f8380380620045f883398181016040528101906200003791906200040c565b60016000819055506040518060a001604052806040518060400160405280600681526020017f4552433732310000000000000000000000000000000000000000000000000000815250815260200160405180604001604052808473ffffffffffffffffffffffffffffffffffffffff1681526020016040518060400160405280601881526020017f68747470733a2f2f65787465726e616c6c696e6b2e6e6574000000000000000081525081525081526020016040518060400160405280600581526020017f302e302e31000000000000000000000000000000000000000000000000000000815250815260200165032a361e860667ffffffffffffffff1681526020016040518060400160405280601881526020017f68747470733a2f2f65787465726e616c4c696e6b2e6e657400000000000000008152508152506002600082015181600001908051906020019062000194929190620002b4565b5060208201518160010160008201518160000160006101000a81548173ffffffffffffffffffffffffffffffffffffffff021916908373ffffffffffffffffffffffffffffffffffffffff16021790555060208201518160010190805190602001906200020392919062000345565b505050604082015181600301908051906020019062000224929190620002b4565b5060608201518160040160006101000a81548167ffffffffffffffff021916908367ffffffffffffffff160217905550608082015181600501908051906020019062000272929190620002b4565b509050508073ffffffffffffffffffffffffffffffffffffffff1660808173ffffffffffffffffffffffffffffffffffffffff1660601b8152505050620004eb565b828054620002c2906200046c565b90600052602060002090601f016020900481019282620002e6576000855562000332565b82601f106200030157805160ff191683800117855562000332565b8280016001018555821562000332579182015b828111156200033157825182559160200191906001019062000314565b5b509050620003419190620003d6565b5090565b82805462000353906200046c565b90600052602060002090601f016020900481019282620003775760008555620003c3565b82601f106200039257805160ff1916838001178555620003c3565b82800160010185558215620003c3579182015b82811115620003c2578251825591602001919060010190620003a5565b5b509050620003d29190620003d6565b5090565b5b80821115620003f1576000816000905550600101620003d7565b5090565b6000815190506200040681620004d1565b92915050565b6000602082840312156200041f57600080fd5b60006200042f84828501620003f5565b91505092915050565b600062000445826200044c565b9050919050565b600073ffffffffffffffffffffffffffffffffffffffff82169050919050565b600060028204905060018216806200048557607f821691505b602082108114156200049c576200049b620004a2565b5b50919050565b7f4e487b7100000000000000000000000000000000000000000000000000000000600052602260045260246000fd5b620004dc8162000438565b8114620004e857600080fd5b50565b60805160601c6140ee6200050a60003960006120fe01526140ee6000f3fe6080604052600436106101c25760003560e01c806342842e0e116100f7578063714c539811610095578063b88d4fde11610064578063b88d4fde14610651578063c87b56dd1461067a578063ce606ee0146106b7578063e985e9c5146106e2576101c2565b8063714c5398146105a457806395d89b41146105cf57806397ee73bb146105fa578063a22cb46514610628576101c2565b806355f804b3116100d157806355f804b3146104d15780636352211e146104fa5780636a6278421461053757806370a0823114610567576101c2565b806342842e0e1461045657806349df728c1461047f5780634d2f929a146104a8576101c2565b8063217cc2b41161016457806327fbceac1161013e57806327fbceac146103aa578063392f37e9146103e75780633ccfd60b146104165780633e2b81c41461042d576101c2565b8063217cc2b41461031457806323b872dd14610351578063248b71fc1461037a576101c2565b8063081812fc116101a0578063081812fc14610258578063095ea7b3146102955780630b8eb2cf146102be5780631e84c413146102e9576101c2565b806301ffc9a7146101c757806306fdde0314610204578063077f224a1461022f575b600080fd5b3480156101d357600080fd5b506101ee60048036038101906101e991906134a8565b61071f565b6040516101fb9190613998565b60405180910390f35b34801561021057600080fd5b50610219610801565b6040516102269190613a3d565b60405180910390f35b34801561023b57600080fd5b5061025660048036038101906102519190613564565b610893565b005b34801561026457600080fd5b5061027f600480360381019061027a91906135e3565b610a1a565b60405161028c91906138e6565b60405180910390f35b3480156102a157600080fd5b506102bc60048036038101906102b7919061341a565b610a60565b005b3480156102ca57600080fd5b506102d3610b69565b6040516102e091906138e6565b60405180910390f35b3480156102f557600080fd5b506102fe610b8f565b60405161030b9190613998565b60405180910390f35b34801561032057600080fd5b5061033b60048036038101906103369190613257565b610ba2565b6040516103489190613a9f565b60405180910390f35b34801561035d57600080fd5b50610378600480360381019061037391906132bc565b610c98565b005b610394600480360381019061038f919061341a565b610cef565b6040516103a19190613976565b60405180910390f35b3480156103b657600080fd5b506103d160048036038101906103cc91906133c2565b611155565b6040516103de9190613a9f565b60405180910390f35b3480156103f357600080fd5b506103fc61122f565b60405161040d9594939291906139b3565b60405180910390f35b34801561042257600080fd5b5061042b6114f1565b005b34801561043957600080fd5b50610454600480360381019061044f9190613456565b6115c7565b005b34801561046257600080fd5b5061047d600480360381019061047891906132bc565b6116aa565b005b34801561048b57600080fd5b506104a660048036038101906104a191906134fa565b6116ca565b005b3480156104b457600080fd5b506104cf60048036038101906104ca9190613635565b611870565b005b3480156104dd57600080fd5b506104f860048036038101906104f39190613523565b611935565b005b34801561050657600080fd5b50610521600480360381019061051c91906135e3565b6119d6565b60405161052e91906138e6565b60405180910390f35b610551600480360381019061054c9190613257565b611a7f565b60405161055e9190613a9f565b60405180910390f35b34801561057357600080fd5b5061058e60048036038101906105899190613257565b611d32565b60405161059b9190613a9f565b60405180910390f35b3480156105b057600080fd5b506105b9611de1565b6040516105c69190613a3d565b60405180910390f35b3480156105db57600080fd5b506105e4611e73565b6040516105f19190613a3d565b60405180910390f35b34801561060657600080fd5b5061060f611f05565b60405161061f9493929190613aba565b60405180910390f35b34801561063457600080fd5b5061064f600480360381019061064a9190613386565b611f30565b005b34801561065d57600080fd5b506106786004803603810190610673919061330b565b611f46565b005b34801561068657600080fd5b506106a1600480360381019061069c91906135e3565b611f9f565b6040516106ae9190613a3d565b60405180910390f35b3480156106c357600080fd5b506106cc6120fc565b6040516106d991906138e6565b60405180910390f35b3480156106ee57600080fd5b5061070960048036038101906107049190613280565b612120565b6040516107169190613998565b60405180910390f35b60007f80ac58cd000000000000000000000000000000000000000000000000000000007bffffffffffffffffffffffffffffffffffffffffffffffffffffffff1916827bffffffffffffffffffffffffffffffffffffffffffffffffffffffff191614806107ea57507f5b5e139f000000000000000000000000000000000000000000000000000000007bffffffffffffffffffffffffffffffffffffffffffffffffffffffff1916827bffffffffffffffffffffffffffffffffffffffffffffffffffffffff1916145b806107fa57506107f9826121b4565b5b9050919050565b6060600b805461081090613e23565b80601f016020809104026020016040519081016040528092919081815260200182805461083c90613e23565b80156108895780601f1061085e57610100808354040283529160200191610889565b820191906000526020600020905b81548152906001019060200180831161086c57829003601f168201915b5050505050905090565b600061089f600161221e565b905080156108c25760018060016101000a81548160ff0219169083151502179055505b81600073ffffffffffffffffffffffffffffffffffffffff16600960009054906101000a900473ffffffffffffffffffffffffffffffffffffffff1673ffffffffffffffffffffffffffffffffffffffff161461094b576040517f0dc149f000000000000000000000000000000000000000000000000000000000815260040160405180910390fd5b84600b9080519060200190610961929190612f6c565b5083600c9080519060200190610978929190612f6c565b5082600960006101000a81548173ffffffffffffffffffffffffffffffffffffffff021916908373ffffffffffffffffffffffffffffffffffffffff160217905550508015610a145760006001806101000a81548160ff0219169083151502179055507f7f26b83ff96e1f2b6a682f133852f6798a09c465da95921460cefb38474024986001604051610a0b9190613a22565b60405180910390a15b50505050565b6000610a2582612310565b6015600083815260200190815260200160002060009054906101000a900473ffffffffffffffffffffffffffffffffffffffff169050919050565b6000610a6b826119d6565b90508273ffffffffffffffffffffffffffffffffffffffff168173ffffffffffffffffffffffffffffffffffffffff161415610ad3576040517f367558c300000000000000000000000000000000000000000000000000000000815260040160405180910390fd5b8073ffffffffffffffffffffffffffffffffffffffff16610af2612352565b73ffffffffffffffffffffffffffffffffffffffff16141580610b235750610b2181610b1c612352565b612120565b155b15610b5a576040517f82b4290000000000000000000000000000000000000000000000000000000000815260040160405180910390fd5b610b64838361235a565b505050565b600960009054906101000a900473ffffffffffffffffffffffffffffffffffffffff1681565b600e60009054906101000a900460ff1681565b6000600960009054906101000a900473ffffffffffffffffffffffffffffffffffffffff1673ffffffffffffffffffffffffffffffffffffffff163373ffffffffffffffffffffffffffffffffffffffff1614610c2b576040517f82b4290000000000000000000000000000000000000000000000000000000000815260040160405180910390fd5b60001515600e60019054906101000a900460ff1615151415610c79576040517fdbc28d8300000000000000000000000000000000000000000000000000000000815260040160405180910390fd5b6000610c83612413565b9050610c8f838261242e565b80915050919050565b610ca9610ca3612352565b8261244c565b610cdf576040517f82b4290000000000000000000000000000000000000000000000000000000000815260040160405180910390fd5b610cea8383836124e1565b505050565b606060026000541415610d37576040517f08c379a0000000000000000000000000000000000000000000000000000000008152600401610d2e90613a7f565b60405180910390fd5b60026000819055508160011515600e60019054906101000a900460ff1615151415610ec35760001515600f60030160009054906101000a900460ff1615151415610dad576040517f15b1bdcd00000000000000000000000000000000000000000000000000000000815260040160405180910390fd5b600f60010154610dbd600a612736565b1180610de15750600f6001015481610dd5600a612736565b610ddf9190613c13565b115b15610e18576040517f8a164f6300000000000000000000000000000000000000000000000000000000815260040160405180910390fd5b80600f60000154610e299190613c9a565b8134610e359190613c9a565b14610e6c576040517ff4d678b800000000000000000000000000000000000000000000000000000000815260040160405180910390fd5b600f6002015481610e7c33611d32565b610e869190613c13565b1115610ebe576040517fecdd05c000000000000000000000000000000000000000000000000000000000815260040160405180910390fd5b611053565b60001515600e60009054906101000a900460ff1615151415610f11576040517f15b1bdcd00000000000000000000000000000000000000000000000000000000815260040160405180910390fd5b60001515600e60009054906101000a900460ff1615151415610f5f576040517f15b1bdcd00000000000000000000000000000000000000000000000000000000815260040160405180910390fd5b60008367ffffffffffffffff811115610fa1577f4e487b7100000000000000000000000000000000000000000000000000000000600052604160045260246000fd5b604051908082528060200260200182016040528015610fcf5781602001602082028036833780820191505090505b50905060005b8481101561104d576000610fe7612413565b905080838381518110611023577f4e487b7100000000000000000000000000000000000000000000000000000000600052603260045260246000fd5b602002602001018181525050611039878261242e565b50808061104590613e86565b915050610fd5565b50809250505b60008367ffffffffffffffff811115611095577f4e487b7100000000000000000000000000000000000000000000000000000000600052604160045260246000fd5b6040519080825280602002602001820160405280156110c35781602001602082028036833780820191505090505b50905060005b848110156111415760006110db612413565b905080838381518110611117577f4e487b7100000000000000000000000000000000000000000000000000000000600052603260045260246000fd5b60200260200101818152505061112d878261242e565b50808061113990613e86565b9150506110c9565b508092505050600160008190555092915050565b6000600960009054906101000a900473ffffffffffffffffffffffffffffffffffffffff1673ffffffffffffffffffffffffffffffffffffffff163373ffffffffffffffffffffffffffffffffffffffff16146111de576040517f82b4290000000000000000000000000000000000000000000000000000000000815260040160405180910390fd5b60006111e8612413565b90506111f4858261242e565b6000848490501115611224578383601760008481526020019081526020016000209190611222929190612ff2565b505b809150509392505050565b600280600001805461124090613e23565b80601f016020809104026020016040519081016040528092919081815260200182805461126c90613e23565b80156112b95780601f1061128e576101008083540402835291602001916112b9565b820191906000526020600020905b81548152906001019060200180831161129c57829003601f168201915b505050505090806001016040518060400160405290816000820160009054906101000a900473ffffffffffffffffffffffffffffffffffffffff1673ffffffffffffffffffffffffffffffffffffffff1673ffffffffffffffffffffffffffffffffffffffff16815260200160018201805461133490613e23565b80601f016020809104026020016040519081016040528092919081815260200182805461136090613e23565b80156113ad5780601f10611382576101008083540402835291602001916113ad565b820191906000526020600020905b81548152906001019060200180831161139057829003601f168201915b505050505081525050908060030180546113c690613e23565b80601f01602080910402602001604051908101604052809291908181526020018280546113f290613e23565b801561143f5780601f106114145761010080835404028352916020019161143f565b820191906000526020600020905b81548152906001019060200180831161142257829003601f168201915b5050505050908060040160009054906101000a900467ffffffffffffffff169080600501805461146e90613e23565b80601f016020809104026020016040519081016040528092919081815260200182805461149a90613e23565b80156114e75780601f106114bc576101008083540402835291602001916114e7565b820191906000526020600020905b8154815290600101906020018083116114ca57829003601f168201915b5050505050905085565b600960009054906101000a900473ffffffffffffffffffffffffffffffffffffffff1673ffffffffffffffffffffffffffffffffffffffff163373ffffffffffffffffffffffffffffffffffffffff1614611578576040517f82b4290000000000000000000000000000000000000000000000000000000000815260040160405180910390fd5b60004790503373ffffffffffffffffffffffffffffffffffffffff166108fc829081150290604051600060405180830381858888f193505050501580156115c3573d6000803e3d6000fd5b5050565b600960009054906101000a900473ffffffffffffffffffffffffffffffffffffffff1673ffffffffffffffffffffffffffffffffffffffff163373ffffffffffffffffffffffffffffffffffffffff161461164e576040517f82b4290000000000000000000000000000000000000000000000000000000000815260040160405180910390fd5b60011515600e60019054906101000a900460ff161515141561168c5780600f60030160006101000a81548160ff0219169083151502179055506116a7565b80600e60006101000a81548160ff0219169083151502179055505b50565b6116c583838360405180602001604052806000815250611f46565b505050565b600960009054906101000a900473ffffffffffffffffffffffffffffffffffffffff1673ffffffffffffffffffffffffffffffffffffffff163373ffffffffffffffffffffffffffffffffffffffff1614611751576040517f82b4290000000000000000000000000000000000000000000000000000000000815260040160405180910390fd5b60008173ffffffffffffffffffffffffffffffffffffffff166370a08231306040518263ffffffff1660e01b815260040161178c91906138e6565b60206040518083038186803b1580156117a457600080fd5b505afa1580156117b8573d6000803e3d6000fd5b505050506040513d601f19601f820116820180604052508101906117dc919061360c565b90508173ffffffffffffffffffffffffffffffffffffffff1663a9059cbb33836040518363ffffffff1660e01b815260040161181992919061394d565b602060405180830381600087803b15801561183357600080fd5b505af1158015611847573d6000803e3d6000fd5b505050506040513d601f19601f8201168201806040525081019061186b919061347f565b505050565b600960009054906101000a900473ffffffffffffffffffffffffffffffffffffffff1673ffffffffffffffffffffffffffffffffffffffff163373ffffffffffffffffffffffffffffffffffffffff16146118f7576040517f82b4290000000000000000000000000000000000000000000000000000000000815260040160405180910390fd5b82600f6000018190555081600f6001018190555080600f600201819055506001600e60016101000a81548160ff021916908315150217905550505050565b600960009054906101000a900473ffffffffffffffffffffffffffffffffffffffff1673ffffffffffffffffffffffffffffffffffffffff163373ffffffffffffffffffffffffffffffffffffffff16146119bc576040517f82b4290000000000000000000000000000000000000000000000000000000000815260040160405180910390fd5b80600d90805190602001906119d2929190612f6c565b5050565b6000806013600084815260200190815260200160002060009054906101000a900473ffffffffffffffffffffffffffffffffffffffff169050600073ffffffffffffffffffffffffffffffffffffffff168173ffffffffffffffffffffffffffffffffffffffff161415611a76576040517f3f6cc76800000000000000000000000000000000000000000000000000000000815260040160405180910390fd5b80915050919050565b600060026000541415611ac7576040517f08c379a0000000000000000000000000000000000000000000000000000000008152600401611abe90613a7f565b60405180910390fd5b60026000819055506001801515600e60019054906101000a900460ff1615151415611c535760001515600f60030160009054906101000a900460ff1615151415611b3d576040517f15b1bdcd00000000000000000000000000000000000000000000000000000000815260040160405180910390fd5b600f60010154611b4d600a612736565b1180611b715750600f6001015481611b65600a612736565b611b6f9190613c13565b115b15611ba8576040517f8a164f6300000000000000000000000000000000000000000000000000000000815260040160405180910390fd5b80600f60000154611bb99190613c9a565b8134611bc59190613c9a565b14611bfc576040517ff4d678b800000000000000000000000000000000000000000000000000000000815260040160405180910390fd5b600f6002015481611c0c33611d32565b611c169190613c13565b1115611c4e576040517fecdd05c000000000000000000000000000000000000000000000000000000000815260040160405180910390fd5b611d0a565b60001515600e60009054906101000a900460ff1615151415611ca1576040517f15b1bdcd00000000000000000000000000000000000000000000000000000000815260040160405180910390fd5b60001515600e60009054906101000a900460ff1615151415611cef576040517f15b1bdcd00000000000000000000000000000000000000000000000000000000815260040160405180910390fd5b6000611cf9612413565b9050611d05848261242e565b809250505b6000611d14612413565b9050611d20848261242e565b80925050506001600081905550919050565b60008073ffffffffffffffffffffffffffffffffffffffff168273ffffffffffffffffffffffffffffffffffffffff161415611d9a576040517fd92e233d00000000000000000000000000000000000000000000000000000000815260040160405180910390fd5b601460008373ffffffffffffffffffffffffffffffffffffffff1673ffffffffffffffffffffffffffffffffffffffff168152602001908152602001600020549050919050565b6060600d8054611df090613e23565b80601f0160208091040260200160405190810160405280929190818152602001828054611e1c90613e23565b8015611e695780601f10611e3e57610100808354040283529160200191611e69565b820191906000526020600020905b815481529060010190602001808311611e4c57829003601f168201915b5050505050905090565b6060600c8054611e8290613e23565b80601f0160208091040260200160405190810160405280929190818152602001828054611eae90613e23565b8015611efb5780601f10611ed057610100808354040283529160200191611efb565b820191906000526020600020905b815481529060010190602001808311611ede57829003601f168201915b5050505050905090565b600f8060000154908060010154908060020154908060030160009054906101000a900460ff16905084565b611f42611f3b612352565b8383612744565b5050565b611f57611f51612352565b8361244c565b611f8d576040517f82b4290000000000000000000000000000000000000000000000000000000000815260040160405180910390fd5b611f998484848461290f565b50505050565b6060611faa82612310565b600e60019054906101000a900460ff1661209e576000601760008481526020019081526020016000208054611fde90613e23565b905011611ffa5760405180602001604052806000815250612097565b60176000838152602001908152602001600020805461201890613e23565b80601f016020809104026020016040519081016040528092919081815260200182805461204490613e23565b80156120915780601f1061206657610100808354040283529160200191612091565b820191906000526020600020905b81548152906001019060200180831161207457829003601f168201915b50505050505b90506120f7565b60006120a8612962565b905060008151116120c857604051806020016040528060008152506120f3565b806120d284612979565b6040516020016120e39291906138c2565b6040516020818303038152906040525b9150505b919050565b7f000000000000000000000000000000000000000000000000000000000000000081565b6000601660008473ffffffffffffffffffffffffffffffffffffffff1673ffffffffffffffffffffffffffffffffffffffff16815260200190815260200160002060008373ffffffffffffffffffffffffffffffffffffffff1673ffffffffffffffffffffffffffffffffffffffff16815260200190815260200160002060009054906101000a900460ff16905092915050565b60007f01ffc9a7000000000000000000000000000000000000000000000000000000007bffffffffffffffffffffffffffffffffffffffffffffffffffffffff1916827bffffffffffffffffffffffffffffffffffffffffffffffffffffffff1916149050919050565b600060018054906101000a900460ff16156122945760018260ff1614801561224c575061224a30612b26565b155b61228b576040517f08c379a000000000000000000000000000000000000000000000000000000000815260040161228290613a5f565b60405180910390fd5b6000905061230b565b8160ff16600160009054906101000a900460ff1660ff16106122eb576040517f08c379a00000000000000000000000000000000000000000000000000000000081526004016122e290613a5f565b60405180910390fd5b81600160006101000a81548160ff021916908360ff160217905550600190505b919050565b61231981612b39565b61234f576040517f3f6cc76800000000000000000000000000000000000000000000000000000000815260040160405180910390fd5b50565b600033905090565b816015600083815260200190815260200160002060006101000a81548173ffffffffffffffffffffffffffffffffffffffff021916908373ffffffffffffffffffffffffffffffffffffffff160217905550808273ffffffffffffffffffffffffffffffffffffffff166123cd836119d6565b73ffffffffffffffffffffffffffffffffffffffff167f8c5be1e5ebec7d5bd14f71427d1e84f3dd0314c0f7b2291e5b200ac8c7c3b92560405160405180910390a45050565b600061241f600a612ba5565b612429600a612736565b905090565b612448828260405180602001604052806000815250612bbb565b5050565b600080612458836119d6565b90508073ffffffffffffffffffffffffffffffffffffffff168473ffffffffffffffffffffffffffffffffffffffff16148061249a57506124998185612120565b5b806124d857508373ffffffffffffffffffffffffffffffffffffffff166124c084610a1a565b73ffffffffffffffffffffffffffffffffffffffff16145b91505092915050565b8273ffffffffffffffffffffffffffffffffffffffff16612501826119d6565b73ffffffffffffffffffffffffffffffffffffffff161461254e576040517f3a6bbed300000000000000000000000000000000000000000000000000000000815260040160405180910390fd5b600073ffffffffffffffffffffffffffffffffffffffff168273ffffffffffffffffffffffffffffffffffffffff1614156125b5576040517fd92e233d00000000000000000000000000000000000000000000000000000000815260040160405180910390fd5b6125c0838383612c0d565b6125cb60008261235a565b6001601460008573ffffffffffffffffffffffffffffffffffffffff1673ffffffffffffffffffffffffffffffffffffffff168152602001908152602001600020600082825461261b9190613cf4565b925050819055506001601460008473ffffffffffffffffffffffffffffffffffffffff1673ffffffffffffffffffffffffffffffffffffffff16815260200190815260200160002060008282546126729190613c13565b92505081905550816013600083815260200190815260200160002060006101000a81548173ffffffffffffffffffffffffffffffffffffffff021916908373ffffffffffffffffffffffffffffffffffffffff160217905550808273ffffffffffffffffffffffffffffffffffffffff168473ffffffffffffffffffffffffffffffffffffffff167fddf252ad1be2c89b69c2b068fc378daa952ba7f163c4a11628f55a4df523b3ef60405160405180910390a4612731838383612c12565b505050565b600081600001549050919050565b600073ffffffffffffffffffffffffffffffffffffffff168273ffffffffffffffffffffffffffffffffffffffff1614156127ab576040517fd92e233d00000000000000000000000000000000000000000000000000000000815260040160405180910390fd5b8173ffffffffffffffffffffffffffffffffffffffff168373ffffffffffffffffffffffffffffffffffffffff161415612811576040517ff4b33eeb00000000000000000000000000000000000000000000000000000000815260040160405180910390fd5b80601660008573ffffffffffffffffffffffffffffffffffffffff1673ffffffffffffffffffffffffffffffffffffffff16815260200190815260200160002060008473ffffffffffffffffffffffffffffffffffffffff1673ffffffffffffffffffffffffffffffffffffffff16815260200190815260200160002060006101000a81548160ff0219169083151502179055508173ffffffffffffffffffffffffffffffffffffffff168373ffffffffffffffffffffffffffffffffffffffff167f17307eab39ab6107e8899845ad3d59bd9653f200f220920489ca2b5937696c31836040516129029190613998565b60405180910390a3505050565b61291a8484846124e1565b61292684848484612c17565b61295c576040517f44ccafd600000000000000000000000000000000000000000000000000000000815260040160405180910390fd5b50505050565b606060405180602001604052806000815250905090565b606060008214156129c1576040518060400160405280600181526020017f30000000000000000000000000000000000000000000000000000000000000008152509050612b21565b600082905060005b600082146129f35780806129dc90613e86565b915050600a826129ec9190613c69565b91506129c9565b60008167ffffffffffffffff811115612a35577f4e487b7100000000000000000000000000000000000000000000000000000000600052604160045260246000fd5b6040519080825280601f01601f191660200182016040528015612a675781602001600182028036833780820191505090505b5090505b60008514612b1a57600182612a809190613cf4565b9150600a85612a8f9190613ecf565b6030612a9b9190613c13565b60f81b818381518110612ad7577f4e487b7100000000000000000000000000000000000000000000000000000000600052603260045260246000fd5b60200101907effffffffffffffffffffffffffffffffffffffffffffffffffffffffffffff1916908160001a905350600a85612b139190613c69565b9450612a6b565b8093505050505b919050565b600080823b905060008111915050919050565b60008073ffffffffffffffffffffffffffffffffffffffff166013600084815260200190815260200160002060009054906101000a900473ffffffffffffffffffffffffffffffffffffffff1673ffffffffffffffffffffffffffffffffffffffff1614159050919050565b6001816000016000828254019250508190555050565b612bc58383612da5565b612bd26000848484612c17565b612c08576040517f44ccafd600000000000000000000000000000000000000000000000000000000815260040160405180910390fd5b505050565b505050565b505050565b6000612c388473ffffffffffffffffffffffffffffffffffffffff16612b26565b15612d98578373ffffffffffffffffffffffffffffffffffffffff1663150b7a02612c61612352565b8786866040518563ffffffff1660e01b8152600401612c839493929190613901565b602060405180830381600087803b158015612c9d57600080fd5b505af1925050508015612cce57506040513d601f19601f82011682018060405250810190612ccb91906134d1565b60015b612d48573d8060008114612cfe576040519150601f19603f3d011682016040523d82523d6000602084013e612d03565b606091505b50600081511415612d40576040517f44ccafd600000000000000000000000000000000000000000000000000000000815260040160405180910390fd5b805181602001fd5b63150b7a0260e01b7bffffffffffffffffffffffffffffffffffffffffffffffffffffffff1916817bffffffffffffffffffffffffffffffffffffffffffffffffffffffff191614915050612d9d565b600190505b949350505050565b600073ffffffffffffffffffffffffffffffffffffffff168273ffffffffffffffffffffffffffffffffffffffff161415612e0c576040517fd92e233d00000000000000000000000000000000000000000000000000000000815260040160405180910390fd5b612e1581612b39565b15612e4b576040517ea5a1f500000000000000000000000000000000000000000000000000000000815260040160405180910390fd5b612e5760008383612c0d565b6001601460008473ffffffffffffffffffffffffffffffffffffffff1673ffffffffffffffffffffffffffffffffffffffff1681526020019081526020016000206000828254612ea79190613c13565b92505081905550816013600083815260200190815260200160002060006101000a81548173ffffffffffffffffffffffffffffffffffffffff021916908373ffffffffffffffffffffffffffffffffffffffff160217905550808273ffffffffffffffffffffffffffffffffffffffff16600073ffffffffffffffffffffffffffffffffffffffff167fddf252ad1be2c89b69c2b068fc378daa952ba7f163c4a11628f55a4df523b3ef60405160405180910390a4612f6860008383612c12565b5050565b828054612f7890613e23565b90600052602060002090601f016020900481019282612f9a5760008555612fe1565b82601f10612fb357805160ff1916838001178555612fe1565b82800160010185558215612fe1579182015b82811115612fe0578251825591602001919060010190612fc5565b5b509050612fee9190613078565b5090565b828054612ffe90613e23565b90600052602060002090601f0160209004810192826130205760008555613067565b82601f1061303957803560ff1916838001178555613067565b82800160010185558215613067579182015b8281111561306657823582559160200191906001019061304b565b5b5090506130749190613078565b5090565b5b80821115613091576000816000905550600101613079565b5090565b60006130a86130a384613b24565b613aff565b9050828152602081018484840111156130c057600080fd5b6130cb848285613de1565b509392505050565b60006130e66130e184613b55565b613aff565b9050828152602081018484840111156130fe57600080fd5b613109848285613de1565b509392505050565b60008135905061312081614045565b92915050565b6000813590506131358161405c565b92915050565b60008151905061314a8161405c565b92915050565b60008135905061315f81614073565b92915050565b60008151905061317481614073565b92915050565b600082601f83011261318b57600080fd5b813561319b848260208601613095565b91505092915050565b6000813590506131b38161408a565b92915050565b60008083601f8401126131cb57600080fd5b8235905067ffffffffffffffff8111156131e457600080fd5b6020830191508360018202830111156131fc57600080fd5b9250929050565b600082601f83011261321457600080fd5b81356132248482602086016130d3565b91505092915050565b60008135905061323c816140a1565b92915050565b600081519050613251816140a1565b92915050565b60006020828403121561326957600080fd5b600061327784828501613111565b91505092915050565b6000806040838503121561329357600080fd5b60006132a185828601613111565b92505060206132b285828601613111565b9150509250929050565b6000806000606084860312156132d157600080fd5b60006132df86828701613111565b93505060206132f086828701613111565b92505060406133018682870161322d565b9150509250925092565b6000806000806080858703121561332157600080fd5b600061332f87828801613111565b945050602061334087828801613111565b93505060406133518782880161322d565b925050606085013567ffffffffffffffff81111561336e57600080fd5b61337a8782880161317a565b91505092959194509250565b6000806040838503121561339957600080fd5b60006133a785828601613111565b92505060206133b885828601613126565b9150509250929050565b6000806000604084860312156133d757600080fd5b60006133e586828701613111565b935050602084013567ffffffffffffffff81111561340257600080fd5b61340e868287016131b9565b92509250509250925092565b6000806040838503121561342d57600080fd5b600061343b85828601613111565b925050602061344c8582860161322d565b9150509250929050565b60006020828403121561346857600080fd5b600061347684828501613126565b91505092915050565b60006020828403121561349157600080fd5b600061349f8482850161313b565b91505092915050565b6000602082840312156134ba57600080fd5b60006134c884828501613150565b91505092915050565b6000602082840312156134e357600080fd5b60006134f184828501613165565b91505092915050565b60006020828403121561350c57600080fd5b600061351a848285016131a4565b91505092915050565b60006020828403121561353557600080fd5b600082013567ffffffffffffffff81111561354f57600080fd5b61355b84828501613203565b91505092915050565b60008060006060848603121561357957600080fd5b600084013567ffffffffffffffff81111561359357600080fd5b61359f86828701613203565b935050602084013567ffffffffffffffff8111156135bc57600080fd5b6135c886828701613203565b92505060406135d986828701613111565b9150509250925092565b6000602082840312156135f557600080fd5b60006136038482850161322d565b91505092915050565b60006020828403121561361e57600080fd5b600061362c84828501613242565b91505092915050565b60008060006060848603121561364a57600080fd5b60006136588682870161322d565b93505060206136698682870161322d565b925050604061367a8682870161322d565b9150509250925092565b60006136908383613895565b60208301905092915050565b6136a581613d28565b82525050565b6136b481613d28565b82525050565b60006136c582613b96565b6136cf8185613bc4565b93506136da83613b86565b8060005b8381101561370b5781516136f28882613684565b97506136fd83613bb7565b9250506001810190506136de565b5085935050505092915050565b61372181613d3a565b82525050565b600061373282613ba1565b61373c8185613bd5565b935061374c818560208601613df0565b61375581613fbc565b840191505092915050565b61376981613dcf565b82525050565b600061377a82613bac565b6137848185613be6565b9350613794818560208601613df0565b61379d81613fbc565b840191505092915050565b60006137b382613bac565b6137bd8185613bf7565b93506137cd818560208601613df0565b6137d681613fbc565b840191505092915050565b60006137ec82613bac565b6137f68185613c08565b9350613806818560208601613df0565b80840191505092915050565b600061381f602e83613bf7565b915061382a82613fcd565b604082019050919050565b6000613842601f83613bf7565b915061384d8261401c565b602082019050919050565b6000604083016000830151613870600086018261369c565b5060208301518482036020860152613888828261376f565b9150508091505092915050565b61389e81613da4565b82525050565b6138ad81613da4565b82525050565b6138bc81613dae565b82525050565b60006138ce82856137e1565b91506138da82846137e1565b91508190509392505050565b60006020820190506138fb60008301846136ab565b92915050565b600060808201905061391660008301876136ab565b61392360208301866136ab565b61393060408301856138a4565b81810360608301526139428184613727565b905095945050505050565b600060408201905061396260008301856136ab565b61396f60208301846138a4565b9392505050565b6000602082019050818103600083015261399081846136ba565b905092915050565b60006020820190506139ad6000830184613718565b92915050565b600060a08201905081810360008301526139cd8188613727565b905081810360208301526139e18187613858565b905081810360408301526139f58186613727565b9050613a0460608301856138b3565b8181036080830152613a168184613727565b90509695505050505050565b6000602082019050613a376000830184613760565b92915050565b60006020820190508181036000830152613a5781846137a8565b905092915050565b60006020820190508181036000830152613a7881613812565b9050919050565b60006020820190508181036000830152613a9881613835565b9050919050565b6000602082019050613ab460008301846138a4565b92915050565b6000608082019050613acf60008301876138a4565b613adc60208301866138a4565b613ae960408301856138a4565b613af66060830184613718565b95945050505050565b6000613b09613b1a565b9050613b158282613e55565b919050565b6000604051905090565b600067ffffffffffffffff821115613b3f57613b3e613f8d565b5b613b4882613fbc565b9050602081019050919050565b600067ffffffffffffffff821115613b7057613b6f613f8d565b5b613b7982613fbc565b9050602081019050919050565b6000819050602082019050919050565b600081519050919050565b600081519050919050565b600081519050919050565b6000602082019050919050565b600082825260208201905092915050565b600082825260208201905092915050565b600082825260208201905092915050565b600082825260208201905092915050565b600081905092915050565b6000613c1e82613da4565b9150613c2983613da4565b9250827fffffffffffffffffffffffffffffffffffffffffffffffffffffffffffffffff03821115613c5e57613c5d613f00565b5b828201905092915050565b6000613c7482613da4565b9150613c7f83613da4565b925082613c8f57613c8e613f2f565b5b828204905092915050565b6000613ca582613da4565b9150613cb083613da4565b9250817fffffffffffffffffffffffffffffffffffffffffffffffffffffffffffffffff0483118215151615613ce957613ce8613f00565b5b828202905092915050565b6000613cff82613da4565b9150613d0a83613da4565b925082821015613d1d57613d1c613f00565b5b828203905092915050565b6000613d3382613d84565b9050919050565b60008115159050919050565b60007fffffffff0000000000000000000000000000000000000000000000000000000082169050919050565b6000613d7d82613d28565b9050919050565b600073ffffffffffffffffffffffffffffffffffffffff82169050919050565b6000819050919050565b600067ffffffffffffffff82169050919050565b600060ff82169050919050565b6000613dda82613dc2565b9050919050565b82818337600083830152505050565b60005b83811015613e0e578082015181840152602081019050613df3565b83811115613e1d576000848401525b50505050565b60006002820490506001821680613e3b57607f821691505b60208210811415613e4f57613e4e613f5e565b5b50919050565b613e5e82613fbc565b810181811067ffffffffffffffff82111715613e7d57613e7c613f8d565b5b80604052505050565b6000613e9182613da4565b91507fffffffffffffffffffffffffffffffffffffffffffffffffffffffffffffffff821415613ec457613ec3613f00565b5b600182019050919050565b6000613eda82613da4565b9150613ee583613da4565b925082613ef557613ef4613f2f565b5b828206905092915050565b7f4e487b7100000000000000000000000000000000000000000000000000000000600052601160045260246000fd5b7f4e487b7100000000000000000000000000000000000000000000000000000000600052601260045260246000fd5b7f4e487b7100000000000000000000000000000000000000000000000000000000600052602260045260246000fd5b7f4e487b7100000000000000000000000000000000000000000000000000000000600052604160045260246000fd5b6000601f19601f8301169050919050565b7f496e697469616c697a61626c653a20636f6e747261637420697320616c72656160008201527f647920696e697469616c697a6564000000000000000000000000000000000000602082015250565b7f5265656e7472616e637947756172643a207265656e7472616e742063616c6c00600082015250565b61404e81613d28565b811461405957600080fd5b50565b61406581613d3a565b811461407057600080fd5b50565b61407c81613d46565b811461408757600080fd5b50565b61409381613d72565b811461409e57600080fd5b50565b6140aa81613da4565b81146140b557600080fd5b5056fea2646970667358221220a9d22b57a47f4d7a62196906ac4ad0318a833205bb8c6589d2a259112e1ddf4c64736f6c63430008040033",
  "linkReferences": {},
  "deployedLinkReferences": {}
}