{
  "_format": "hh-sol-artifact-1",
  "contractName": "FluidNFT",
  "sourceName": "contracts/FluidNFT.sol",
  "abi": [
    {
      "inputs": [],
      "stateMutability": "nonpayable",
      "type": "constructor"
    },
    {
      "anonymous": false,
      "inputs": [
        {
          "indexed": true,
          "internalType": "address",
          "name": "owner",
          "type": "address"
        },
        {
          "indexed": true,
          "internalType": "address",
          "name": "approved",
          "type": "address"
        },
        {
          "indexed": true,
          "internalType": "uint256",
          "name": "tokenId",
          "type": "uint256"
        }
      ],
      "name": "Approval",
      "type": "event"
    },
    {
      "anonymous": false,
      "inputs": [
        {
          "indexed": true,
          "internalType": "address",
          "name": "owner",
          "type": "address"
        },
        {
          "indexed": true,
          "internalType": "address",
          "name": "operator",
          "type": "address"
        },
        {
          "indexed": false,
          "internalType": "bool",
          "name": "approved",
          "type": "bool"
        }
      ],
      "name": "ApprovalForAll",
      "type": "event"
    },
    {
      "anonymous": false,
      "inputs": [
        {
          "indexed": false,
          "internalType": "address",
          "name": "receiver",
          "type": "address"
        }
      ],
      "name": "ReceiverChanged",
      "type": "event"
    },
    {
      "anonymous": false,
      "inputs": [
        {
          "indexed": true,
          "internalType": "address",
          "name": "from",
          "type": "address"
        },
        {
          "indexed": true,
          "internalType": "address",
          "name": "to",
          "type": "address"
        },
        {
          "indexed": true,
          "internalType": "uint256",
          "name": "tokenId",
          "type": "uint256"
        }
      ],
      "name": "Transfer",
      "type": "event"
    },
    {
      "inputs": [
        {
          "internalType": "contract ISuperToken",
          "name": "_superToken",
          "type": "address"
        },
        {
          "internalType": "address",
          "name": "_agreementClass",
          "type": "address"
        },
        {
          "internalType": "bytes32",
          "name": "",
          "type": "bytes32"
        },
        {
          "internalType": "bytes",
          "name": "",
          "type": "bytes"
        },
        {
          "internalType": "bytes",
          "name": "",
          "type": "bytes"
        },
        {
          "internalType": "bytes",
          "name": "_ctx",
          "type": "bytes"
        }
      ],
      "name": "afterAgreementCreated",
      "outputs": [
        {
          "internalType": "bytes",
          "name": "newCtx",
          "type": "bytes"
        }
      ],
      "stateMutability": "nonpayable",
      "type": "function"
    },
    {
      "inputs": [
        {
          "internalType": "contract ISuperToken",
          "name": "_superToken",
          "type": "address"
        },
        {
          "internalType": "address",
          "name": "_agreementClass",
          "type": "address"
        },
        {
          "internalType": "bytes32",
          "name": "",
          "type": "bytes32"
        },
        {
          "internalType": "bytes",
          "name": "",
          "type": "bytes"
        },
        {
          "internalType": "bytes",
          "name": "",
          "type": "bytes"
        },
        {
          "internalType": "bytes",
          "name": "_ctx",
          "type": "bytes"
        }
      ],
      "name": "afterAgreementTerminated",
      "outputs": [
        {
          "internalType": "bytes",
          "name": "newCtx",
          "type": "bytes"
        }
      ],
      "stateMutability": "nonpayable",
      "type": "function"
    },
    {
      "inputs": [
        {
          "internalType": "contract ISuperToken",
          "name": "_superToken",
          "type": "address"
        },
        {
          "internalType": "address",
          "name": "_agreementClass",
          "type": "address"
        },
        {
          "internalType": "bytes32",
          "name": "",
          "type": "bytes32"
        },
        {
          "internalType": "bytes",
          "name": "",
          "type": "bytes"
        },
        {
          "internalType": "bytes",
          "name": "",
          "type": "bytes"
        },
        {
          "internalType": "bytes",
          "name": "_ctx",
          "type": "bytes"
        }
      ],
      "name": "afterAgreementUpdated",
      "outputs": [
        {
          "internalType": "bytes",
          "name": "newCtx",
          "type": "bytes"
        }
      ],
      "stateMutability": "nonpayable",
      "type": "function"
    },
    {
      "inputs": [
        {
          "internalType": "address",
          "name": "to",
          "type": "address"
        },
        {
          "internalType": "uint256",
          "name": "tokenId",
          "type": "uint256"
        }
      ],
      "name": "approve",
      "outputs": [],
      "stateMutability": "nonpayable",
      "type": "function"
    },
    {
      "inputs": [
        {
          "internalType": "address",
          "name": "owner",
          "type": "address"
        }
      ],
      "name": "balanceOf",
      "outputs": [
        {
          "internalType": "uint256",
          "name": "",
          "type": "uint256"
        }
      ],
      "stateMutability": "view",
      "type": "function"
    },
    {
      "inputs": [
        {
          "internalType": "contract ISuperToken",
          "name": "",
          "type": "address"
        },
        {
          "internalType": "address",
          "name": "",
          "type": "address"
        },
        {
          "internalType": "bytes32",
          "name": "",
          "type": "bytes32"
        },
        {
          "internalType": "bytes",
          "name": "",
          "type": "bytes"
        },
        {
          "internalType": "bytes",
          "name": "",
          "type": "bytes"
        }
      ],
      "name": "beforeAgreementCreated",
      "outputs": [
        {
          "internalType": "bytes",
          "name": "",
          "type": "bytes"
        }
      ],
      "stateMutability": "view",
      "type": "function"
    },
    {
      "inputs": [
        {
          "internalType": "contract ISuperToken",
          "name": "",
          "type": "address"
        },
        {
          "internalType": "address",
          "name": "",
          "type": "address"
        },
        {
          "internalType": "bytes32",
          "name": "",
          "type": "bytes32"
        },
        {
          "internalType": "bytes",
          "name": "",
          "type": "bytes"
        },
        {
          "internalType": "bytes",
          "name": "",
          "type": "bytes"
        }
      ],
      "name": "beforeAgreementTerminated",
      "outputs": [
        {
          "internalType": "bytes",
          "name": "",
          "type": "bytes"
        }
      ],
      "stateMutability": "view",
      "type": "function"
    },
    {
      "inputs": [
        {
          "internalType": "contract ISuperToken",
          "name": "",
          "type": "address"
        },
        {
          "internalType": "address",
          "name": "",
          "type": "address"
        },
        {
          "internalType": "bytes32",
          "name": "",
          "type": "bytes32"
        },
        {
          "internalType": "bytes",
          "name": "",
          "type": "bytes"
        },
        {
          "internalType": "bytes",
          "name": "",
          "type": "bytes"
        }
      ],
      "name": "beforeAgreementUpdated",
      "outputs": [
        {
          "internalType": "bytes",
          "name": "",
          "type": "bytes"
        }
      ],
      "stateMutability": "view",
      "type": "function"
    },
    {
      "inputs": [
        {
          "internalType": "string",
          "name": "_tokenURI",
          "type": "string"
        }
      ],
      "name": "changeURI",
      "outputs": [],
      "stateMutability": "nonpayable",
      "type": "function"
    },
    {
      "inputs": [],
      "name": "contractOwner",
      "outputs": [
        {
          "internalType": "address",
          "name": "",
          "type": "address"
        }
      ],
      "stateMutability": "view",
      "type": "function"
    },
    {
      "inputs": [
        {
          "internalType": "address",
          "name": "to",
          "type": "address"
        }
      ],
      "name": "createNFT",
      "outputs": [
        {
          "internalType": "uint256",
          "name": "",
          "type": "uint256"
        }
      ],
      "stateMutability": "nonpayable",
      "type": "function"
    },
    {
      "inputs": [],
      "name": "currentReceiver",
      "outputs": [
        {
          "internalType": "uint256",
          "name": "startTime",
          "type": "uint256"
        },
        {
          "internalType": "address",
          "name": "receiver",
          "type": "address"
        },
        {
          "internalType": "int96",
          "name": "flowRate",
          "type": "int96"
        }
      ],
      "stateMutability": "view",
      "type": "function"
    },
    {
      "inputs": [
        {
          "internalType": "uint256",
          "name": "_tokenId",
          "type": "uint256"
        }
      ],
      "name": "destroyNFT",
      "outputs": [],
      "stateMutability": "nonpayable",
      "type": "function"
    },
    {
      "inputs": [
        {
          "internalType": "uint256",
          "name": "tokenId",
          "type": "uint256"
        }
      ],
      "name": "getApproved",
      "outputs": [
        {
          "internalType": "address",
          "name": "",
          "type": "address"
        }
      ],
      "stateMutability": "view",
      "type": "function"
    },
    {
      "inputs": [
        {
          "internalType": "address",
          "name": "tenant_",
          "type": "address"
        },
        {
          "internalType": "string",
          "name": "name_",
          "type": "string"
        },
        {
          "internalType": "string",
          "name": "symbol_",
          "type": "string"
        },
        {
          "internalType": "contract ISuperfluid",
          "name": "host_",
          "type": "address"
        },
        {
          "internalType": "contract IConstantFlowAgreementV1",
          "name": "cfa_",
          "type": "address"
        },
        {
          "internalType": "contract ISuperToken",
          "name": "acceptedToken_",
          "type": "address"
        },
        {
          "internalType": "address",
          "name": "receiver_",
          "type": "address"
        }
      ],
      "name": "init",
      "outputs": [],
      "stateMutability": "nonpayable",
      "type": "function"
    },
    {
      "inputs": [],
      "name": "initialized",
      "outputs": [
        {
          "internalType": "bool",
          "name": "",
          "type": "bool"
        }
      ],
      "stateMutability": "view",
      "type": "function"
    },
    {
      "inputs": [
        {
          "internalType": "address",
          "name": "owner",
          "type": "address"
        },
        {
          "internalType": "address",
          "name": "operator",
          "type": "address"
        }
      ],
      "name": "isApprovedForAll",
      "outputs": [
        {
          "internalType": "bool",
          "name": "",
          "type": "bool"
        }
      ],
      "stateMutability": "view",
      "type": "function"
    },
    {
      "inputs": [],
      "name": "name",
      "outputs": [
        {
          "internalType": "string",
          "name": "",
          "type": "string"
        }
      ],
      "stateMutability": "view",
      "type": "function"
    },
    {
      "inputs": [
        {
          "internalType": "uint256",
          "name": "tokenId",
          "type": "uint256"
        }
      ],
      "name": "ownerOf",
      "outputs": [
        {
          "internalType": "address",
          "name": "",
          "type": "address"
        }
      ],
      "stateMutability": "view",
      "type": "function"
    },
    {
      "inputs": [
        {
          "internalType": "address",
          "name": "from",
          "type": "address"
        },
        {
          "internalType": "address",
          "name": "to",
          "type": "address"
        },
        {
          "internalType": "uint256",
          "name": "tokenId",
          "type": "uint256"
        }
      ],
      "name": "safeTransferFrom",
      "outputs": [],
      "stateMutability": "nonpayable",
      "type": "function"
    },
    {
      "inputs": [
        {
          "internalType": "address",
          "name": "from",
          "type": "address"
        },
        {
          "internalType": "address",
          "name": "to",
          "type": "address"
        },
        {
          "internalType": "uint256",
          "name": "tokenId",
          "type": "uint256"
        },
        {
          "internalType": "bytes",
          "name": "_data",
          "type": "bytes"
        }
      ],
      "name": "safeTransferFrom",
      "outputs": [],
      "stateMutability": "nonpayable",
      "type": "function"
    },
    {
      "inputs": [
        {
          "internalType": "address",
          "name": "operator",
          "type": "address"
        },
        {
          "internalType": "bool",
          "name": "approved",
          "type": "bool"
        }
      ],
      "name": "setApprovalForAll",
      "outputs": [],
      "stateMutability": "nonpayable",
      "type": "function"
    },
    {
      "inputs": [
        {
          "internalType": "bytes4",
          "name": "interfaceId",
          "type": "bytes4"
        }
      ],
      "name": "supportsInterface",
      "outputs": [
        {
          "internalType": "bool",
          "name": "",
          "type": "bool"
        }
      ],
      "stateMutability": "view",
      "type": "function"
    },
    {
      "inputs": [],
      "name": "symbol",
      "outputs": [
        {
          "internalType": "string",
          "name": "",
          "type": "string"
        }
      ],
      "stateMutability": "view",
      "type": "function"
    },
    {
      "inputs": [],
      "name": "tokenCounter",
      "outputs": [
        {
          "internalType": "uint256",
          "name": "",
          "type": "uint256"
        }
      ],
      "stateMutability": "view",
      "type": "function"
    },
    {
      "inputs": [
        {
          "internalType": "uint256",
          "name": "tokenId",
          "type": "uint256"
        }
      ],
      "name": "tokenURI",
      "outputs": [
        {
          "internalType": "string",
          "name": "",
          "type": "string"
        }
      ],
      "stateMutability": "view",
      "type": "function"
    },
    {
      "inputs": [
        {
          "internalType": "address",
          "name": "from",
          "type": "address"
        },
        {
          "internalType": "address",
          "name": "to",
          "type": "address"
        },
        {
          "internalType": "uint256",
          "name": "tokenId",
          "type": "uint256"
        }
      ],
      "name": "transferFrom",
      "outputs": [],
      "stateMutability": "nonpayable",
      "type": "function"
    }
  ],
  "bytecode": "0x60a06040523480156200001157600080fd5b50620000246301ffc9a760e01b62000031565b3360601b608052620000b6565b6001600160e01b0319808216141562000091576040805162461bcd60e51b815260206004820152601c60248201527f4552433136353a20696e76616c696420696e7465726661636520696400000000604482015290519081900360640190fd5b6001600160e01b0319166000908152602081905260409020805460ff19166001179055565b60805160601c613648620000d46000398061163852506136486000f3fe608060405234801561001057600080fd5b50600436106101a95760003560e01c80636352211e116100f9578063c40412b511610097578063d082e38111610071578063d082e38114610b79578063d86ed3e51461030d578063e5e01c1114610b81578063e985e9c514610c25576101a9565b8063c40412b514610b37578063c87b56dd14610b54578063ce606ee014610b71576101a9565b8063884d1f40116100d3578063884d1f401461095f57806395d89b4114610a3d578063a22cb46514610a45578063b88d4fde14610a73576101a9565b80636352211e146107c257806370a08231146107df57806376ce1d0f14610805576101a9565b8063230dbd291161016657806330d9c9151161014057806330d9c915146104a257806342842e0e1461058057806353c11f99146105b65780635f9e7d77146106e4576101a9565b8063230dbd291461030d57806323b872dd1461043b57806328d2bf9414610471576101a9565b806301ffc9a7146101ae57806306fdde03146101e9578063081812fc14610266578063095ea7b31461029f578063158ef93e146102cd57806317e5883c146102d5575b600080fd5b6101d5600480360360208110156101c457600080fd5b50356001600160e01b031916610c53565b604080519115158252519081900360200190f35b6101f1610c9b565b6040805160208082528351818301528351919283929083019185019080838360005b8381101561022b578181015183820152602001610213565b50505050905090810190601f1680156102585780820380516001836020036101000a031916815260200191505b509250505060405180910390f35b6102836004803603602081101561027c57600080fd5b5035610d30565b604080516001600160a01b039092168252519081900360200190f35b6102cb600480360360408110156102b557600080fd5b506001600160a01b038135169060200135610d92565b005b6101d5610e6d565b6102fb600480360360208110156102eb57600080fd5b50356001600160a01b0316610e76565b60408051918252519081900360200190f35b6101f1600480360360c081101561032357600080fd5b6001600160a01b03823581169260208101359091169160408201359190810190608081016060820135600160201b81111561035d57600080fd5b82018360208201111561036f57600080fd5b803590602001918460018302840111600160201b8311171561039057600080fd5b919390929091602081019035600160201b8111156103ad57600080fd5b8201836020820111156103bf57600080fd5b803590602001918460018302840111600160201b831117156103e057600080fd5b919390929091602081019035600160201b8111156103fd57600080fd5b82018360208201111561040f57600080fd5b803590602001918460018302840111600160201b8311171561043057600080fd5b509092509050610ee8565b6102cb6004803603606081101561045157600080fd5b506001600160a01b03813581169160208101359091169060400135610fed565b610479611044565b604080519384526001600160a01b039092166020840152600b0b82820152519081900360600190f35b6101f1600480360360a08110156104b857600080fd5b6001600160a01b03823581169260208101359091169160408201359190810190608081016060820135600160201b8111156104f257600080fd5b82018360208201111561050457600080fd5b803590602001918460018302840111600160201b8311171561052557600080fd5b919390929091602081019035600160201b81111561054257600080fd5b82018360208201111561055457600080fd5b803590602001918460018302840111600160201b8311171561057557600080fd5b50909250905061110a565b6102cb6004803603606081101561059657600080fd5b506001600160a01b03813581169160208101359091169060400135611143565b6101f1600480360360c08110156105cc57600080fd5b6001600160a01b03823581169260208101359091169160408201359190810190608081016060820135600160201b81111561060657600080fd5b82018360208201111561061857600080fd5b803590602001918460018302840111600160201b8311171561063957600080fd5b919390929091602081019035600160201b81111561065657600080fd5b82018360208201111561066857600080fd5b803590602001918460018302840111600160201b8311171561068957600080fd5b919390929091602081019035600160201b8111156106a657600080fd5b8201836020820111156106b857600080fd5b803590602001918460018302840111600160201b831117156106d957600080fd5b50909250905061115e565b6101f1600480360360a08110156106fa57600080fd5b6001600160a01b03823581169260208101359091169160408201359190810190608081016060820135600160201b81111561073457600080fd5b82018360208201111561074657600080fd5b803590602001918460018302840111600160201b8311171561076757600080fd5b919390929091602081019035600160201b81111561078457600080fd5b82018360208201111561079657600080fd5b803590602001918460018302840111600160201b831117156107b757600080fd5b509092509050611223565b610283600480360360208110156107d857600080fd5b503561125c565b6102fb600480360360208110156107f557600080fd5b50356001600160a01b03166112b0565b6102cb600480360360e081101561081b57600080fd5b6001600160a01b038235169190810190604081016020820135600160201b81111561084557600080fd5b82018360208201111561085757600080fd5b803590602001918460018302840111600160201b8311171561087857600080fd5b91908080601f0160208091040260200160405190810160405280939291908181526020018383808284376000920191909152509295949360208101935035915050600160201b8111156108ca57600080fd5b8201836020820111156108dc57600080fd5b803590602001918460018302840111600160201b831117156108fd57600080fd5b91908080601f016020809104026020016040519081016040528093929190818152602001838380828437600092019190915250929550506001600160a01b03833581169450602084013581169360408101358216935060600135169050611313565b6101f1600480360360a081101561097557600080fd5b6001600160a01b03823581169260208101359091169160408201359190810190608081016060820135600160201b8111156109af57600080fd5b8201836020820111156109c157600080fd5b803590602001918460018302840111600160201b831117156109e257600080fd5b919390929091602081019035600160201b8111156109ff57600080fd5b820183602082011115610a1157600080fd5b803590602001918460018302840111600160201b83111715610a3257600080fd5b509092509050611386565b6101f16113bf565b6102cb60048036036040811015610a5b57600080fd5b506001600160a01b038135169060200135151561141d565b6102cb60048036036080811015610a8957600080fd5b6001600160a01b03823581169260208101359091169160408201359190810190608081016060820135600160201b811115610ac357600080fd5b820183602082011115610ad557600080fd5b803590602001918460018302840111600160201b83111715610af657600080fd5b91908080601f016020809104026020016040519081016040528093929190818152602001838380828437600092019190915250929550611433945050505050565b6102cb60048036036020811015610b4d57600080fd5b5035611491565b6101f160048036036020811015610b6a57600080fd5b5035611505565b610283611636565b6102fb61165a565b6102cb60048036036020811015610b9757600080fd5b810190602081018135600160201b811115610bb157600080fd5b820183602082011115610bc357600080fd5b803590602001918460018302840111600160201b83111715610be457600080fd5b91908080601f016020809104026020016040519081016040528093929190818152602001838380828437600092019190915250929550611660945050505050565b6101d560048036036040811015610c3b57600080fd5b506001600160a01b03813581169160200135166116c8565b60006001600160e01b031982166380ac58cd60e01b1480610c8457506001600160e01b03198216635b5e139f60e01b145b80610c935750610c93826116f6565b90505b919050565b60018054604080516020601f60026000196101008789161502019095169490940493840181900481028201810190925282815260609390929091830182828015610d265780601f10610cfb57610100808354040283529160200191610d26565b820191906000526020600020905b815481529060010190602001808311610d0957829003601f168201915b5050505050905090565b6000610d3b82611715565b610d765760405162461bcd60e51b815260040180806020018281038252602c8152602001806134e3602c913960400191505060405180910390fd5b506000908152600660205260409020546001600160a01b031690565b6000610d9d8261125c565b9050806001600160a01b0316836001600160a01b03161415610df05760405162461bcd60e51b81526004018080602001828103825260218152602001806135636021913960400191505060405180910390fd5b806001600160a01b0316610e02611732565b6001600160a01b03161480610e235750610e2381610e1e611732565b6116c8565b610e5e5760405162461bcd60e51b81526004018080602001828103825260388152602001806134366038913960400191505060405180910390fd5b610e688383611736565b505050565b60035460ff1681565b600d546000906001600160a01b03163314610ec25760405162461bcd60e51b815260040180806020018281038252602581526020018061353e6025913960400191505060405180910390fd5b600b54610ecf83826117a4565b610ed881611505565b50600b8054600101905592915050565b60608989610ef5826117be565b610f46576040805162461bcd60e51b815260206004820152601f60248201527f5265646972656374416c6c3a206e6f7420616363657074656420746f6b656e00604482015290519081900360640190fd5b610f4f816117d2565b610f8a5760405162461bcd60e51b81526004018080602001828103825260218152602001806133196021913960400191505060405180910390fd5b6008546001600160a01b03163314610fd35760405162461bcd60e51b81526004018080602001828103825260228152602001806133c46022913960400191505060405180910390fd5b610fdd8585611861565b9c9b505050505050505050505050565b610ffe610ff8611732565b8261222a565b6110395760405162461bcd60e51b81526004018080602001828103825260318152602001806135b36031913960400191505060405180910390fd5b610e688383836122ce565b600c54600090819081906001600160a01b03161561110557600954600a54600c5460408051631cd43d1160e31b81526001600160a01b039384166004820152306024820152918316604483015251919092169163e6a1e888916064808301926080929190829003018186803b1580156110bc57600080fd5b505afa1580156110d0573d6000803e3d6000fd5b505050506040513d60808110156110e657600080fd5b508051602090910151600c549194506001600160a01b03909116925090505b909192565b606060405162461bcd60e51b815260040180806020018281038252602f8152602001806135e4602f913960400191505060405180910390fd5b610e6883838360405180602001604052806000815250611433565b6008546060906001600160a01b031633146111aa5760405162461bcd60e51b81526004018080602001828103825260228152602001806133c46022913960400191505060405180910390fd5b6111b38a6117be565b15806111c557506111c3896117d2565b155b156112095782828080601f01602080910402602001604051908101604052809392919081815260200183838082843760009201919091525092935061121692505050565b6112138383611861565b90505b9998505050505050505050565b606060405162461bcd60e51b81526004018080602001828103825260338152602001806133916033913960400191505060405180910390fd5b6000818152600460205260408120546001600160a01b031680610c935760405162461bcd60e51b81526004018080602001828103825260298152602001806134986029913960400191505060405180910390fd5b60006001600160a01b0382166112f75760405162461bcd60e51b815260040180806020018281038252602a81526020018061346e602a913960400191505060405180910390fd5b506001600160a01b031660009081526005602052604090205490565b61131d8686612404565b600880546001600160a01b03199081166001600160a01b039687161790915560098054821694861694909417909355600a8054841692851692909217909155600c80548316918416919091179055600d8054909116949091169390931790925550506000600b55565b606060405162461bcd60e51b815260040180806020018281038252602f815260200180613584602f913960400191505060405180910390fd5b60028054604080516020601f6000196101006001871615020190941685900493840181900481028201810190925282815260609390929091830182828015610d265780601f10610cfb57610100808354040283529160200191610d26565b61142f611428611732565b8383612495565b5050565b61144461143e611732565b8361222a565b61147f5760405162461bcd60e51b81526004018080602001828103825260318152602001806135b36031913960400191505060405180910390fd5b61148b8484848461256a565b50505050565b61149b600161125c565b6001600160a01b0316336001600160a01b0316146114f9576040805162461bcd60e51b81526020600482015260166024820152752737ba103a34329037bbb732b91037b3102a37b5b2b760511b604482015290519081900360640190fd5b611502816125bc565b50565b606061151082611715565b61154b5760405162461bcd60e51b815260040180806020018281038252602f81526020018061350f602f913960400191505060405180910390fd5b6060611555612651565b90506000815111611575576040518060200160405280600081525061162f565b8061157f84612663565b6040516020018083805190602001908083835b602083106115b15780518252601f199092019160209182019101611592565b51815160209384036101000a600019018019909216911617905285519190930192850191508083835b602083106115f95780518252601f1990920191602091820191016115da565b6001836020036101000a038019825116818451168082178552505050505050905001925050506040516020818303038152906040525b9392505050565b7f000000000000000000000000000000000000000000000000000000000000000081565b600b5481565b61166a600161125c565b6001600160a01b0316336001600160a01b031614611502576040805162461bcd60e51b81526020600482015260166024820152752737ba103a34329037bbb732b91037b3102a37b5b2b760511b604482015290519081900360640190fd5b6001600160a01b03918216600090815260076020908152604080832093909416825291909152205460ff1690565b6001600160e01b03191660009081526020819052604090205460ff1690565b6000908152600460205260409020546001600160a01b0316151590565b3390565b600081815260066020526040902080546001600160a01b0319166001600160a01b038416908117909155819061176b8261125c565b6001600160a01b03167f8c5be1e5ebec7d5bd14f71427d1e84f3dd0314c0f7b2291e5b200ac8c7c3b92560405160405180910390a45050565b61142f82826040518060200160405280600081525061273e565b600a546001600160a01b0390811691161490565b60007fa9214cc96615e0085d3bb077758db69497dc2dce3b2b1e97bc93c3d18d83efd3826001600160a01b0316637730599e6040518163ffffffff1660e01b815260040160206040518083038186803b15801561182e57600080fd5b505afa158015611842573d6000803e3d6000fd5b505050506040513d602081101561185857600080fd5b50511492915050565b606082828080601f0160208091040260200160405190810160405280939291908181526020018383808284376000920182905250600954600a546040805163e8e7e2d160e01b81526001600160a01b039283166004820152306024820152905197985092969116945063e8e7e2d1935060448083019350602092829003018186803b1580156118ef57600080fd5b505afa158015611903573d6000803e3d6000fd5b505050506040513d602081101561191957600080fd5b5051600954600a54600c5460408051631cd43d1160e31b81526001600160a01b039384166004820152306024820152918316604483015251939450600093919092169163e6a1e888916064808301926080929190829003018186803b15801561198157600080fd5b505afa158015611995573d6000803e3d6000fd5b505050506040513d60808110156119ab57600080fd5b506020015190508181016000600b82900b12156119c6576000035b600b81900b611da157600854600954600a54600c5460408051600080825260208201928390526001600160a01b0394851660448301818152306064850181905295871660848501819052608060a48601908152855160c487018190529a89169a634329d2939a9990991698635a5999e360e11b989497949692959294919260e486019291908190849084905b83811015611a6a578181015183820152602001611a52565b50505050905090810190601f168015611a975780820380516001836020036101000a031916815260200191505b5095505050505050604051602081830303815290604052906001600160e01b0319166020820180516001600160e01b038381831617835250505050876040518463ffffffff1660e01b815260040180846001600160a01b03168152602001806020018060200180602001848103845286818151815260200191508051906020019080838360005b83811015611b36578181015183820152602001611b1e565b50505050905090810190601f168015611b635780820380516001836020036101000a031916815260200191505b508481038352600281526020018061060f60f31b815250602001848103825285818151815260200191508051906020019080838360005b83811015611bb2578181015183820152602001611b9a565b50505050905090810190601f168015611bdf5780820380516001836020036101000a031916815260200191505b509650505050505050600060405180830381600087803b158015611c0257600080fd5b505af1158015611c16573d6000803e3d6000fd5b505050506040513d6000823e601f3d908101601f191682016040908152811015611c3f57600080fd5b8101908080516040519392919084600160201b821115611c5e57600080fd5b908301906020820185811115611c7357600080fd5b8251600160201b811182820188101715611c8c57600080fd5b82525081516020918201929091019080838360005b83811015611cb9578181015183820152602001611ca1565b50505050905090810190601f168015611ce65780820380516001836020036101000a031916815260200191505b5060405260200180516040519392919084600160201b821115611d0857600080fd5b908301906020820185811115611d1d57600080fd5b8251600160201b811182820188101715611d3657600080fd5b82525081516020918201929091019080838360005b83811015611d63578181015183820152602001611d4b565b50505050905090810190601f168015611d905780820380516001836020036101000a031916815260200191505b506040525050505080945050612221565b600b82900b15611e4457600854600954600a54600c5460408051600080825260208201928390526001600160a01b039485166044830181815294861660648401819052600b8a900b6084850152608060a48501908152845160c4860181905299881699634329d2939998909816976328104d3160e11b97939692958c9590949360e486019290918190849084908315611a6a578181015183820152602001611a52565b600854600954600a54600c54604080516000808252602082019092526001600160a01b0395861695634329d2939581169463317e182f60e11b949082169391169188915060405160240180856001600160a01b03168152602001846001600160a01b0316815260200183600b0b815260200180602001828103825283818151815260200191508051906020019080838360005b83811015611eef578181015183820152602001611ed7565b50505050905090810190601f168015611f1c5780820380516001836020036101000a031916815260200191505b5095505050505050604051602081830303815290604052906001600160e01b0319166020820180516001600160e01b038381831617835250505050876040518463ffffffff1660e01b815260040180846001600160a01b03168152602001806020018060200180602001848103845286818151815260200191508051906020019080838360005b83811015611fbb578181015183820152602001611fa3565b50505050905090810190601f168015611fe85780820380516001836020036101000a031916815260200191505b508481038352600281526020018061060f60f31b815250602001848103825285818151815260200191508051906020019080838360005b8381101561203757818101518382015260200161201f565b50505050905090810190601f1680156120645780820380516001836020036101000a031916815260200191505b509650505050505050600060405180830381600087803b15801561208757600080fd5b505af115801561209b573d6000803e3d6000fd5b505050506040513d6000823e601f3d908101601f1916820160409081528110156120c457600080fd5b8101908080516040519392919084600160201b8211156120e357600080fd5b9083019060208201858111156120f857600080fd5b8251600160201b81118282018810171561211157600080fd5b82525081516020918201929091019080838360005b8381101561213e578181015183820152602001612126565b50505050905090810190601f16801561216b5780820380516001836020036101000a031916815260200191505b5060405260200180516040519392919084600160201b82111561218d57600080fd5b9083019060208201858111156121a257600080fd5b8251600160201b8111828201881017156121bb57600080fd5b82525081516020918201929091019080838360005b838110156121e85781810151838201526020016121d0565b50505050905090810190601f1680156122155780820380516001836020036101000a031916815260200191505b50604052509296505050505b50505092915050565b600061223582611715565b6122705760405162461bcd60e51b815260040180806020018281038252602c81526020018061340a602c913960400191505060405180910390fd5b600061227b8361125c565b9050806001600160a01b0316846001600160a01b031614806122b65750836001600160a01b03166122ab84610d30565b6001600160a01b0316145b806122c657506122c681856116c8565b949350505050565b826001600160a01b03166122e18261125c565b6001600160a01b0316146123265760405162461bcd60e51b815260040180806020018281038252602581526020018061336c6025913960400191505060405180910390fd5b6001600160a01b03821661236b5760405162461bcd60e51b81526004018080602001828103825260248152602001806133e66024913960400191505060405180910390fd5b612376838383612790565b612381600082611736565b6001600160a01b038084166000818152600560209081526040808320805460001901905593861680835284832080546001019055858352600490915283822080546001600160a01b031916821790559251849392917fddf252ad1be2c89b69c2b068fc378daa952ba7f163c4a11628f55a4df523b3ef91a4610e68838383610e68565b60035460ff161561245c576040805162461bcd60e51b815260206004820152601e60248201527f416c726561647920696e697469616c697a6564207468652073746174652e0000604482015290519081900360640190fd5b815161246f906001906020850190613285565b508051612483906002906020840190613285565b50506003805460ff1916600117905550565b816001600160a01b0316836001600160a01b031614156124fc576040805162461bcd60e51b815260206004820152601960248201527f4552433732313a20617070726f766520746f2063616c6c657200000000000000604482015290519081900360640190fd5b6001600160a01b03838116600081815260076020908152604080832094871680845294825291829020805460ff1916861515908117909155825190815291517f17307eab39ab6107e8899845ad3d59bd9653f200f220920489ca2b5937696c319281900390910190a3505050565b6125758484846122ce565b61258184848484612799565b61148b5760405162461bcd60e51b815260040180806020018281038252603281526020018061333a6032913960400191505060405180910390fd5b60006125c78261125c565b90506125d581600084612790565b6125e0600083611736565b6001600160a01b03811660008181526005602090815260408083208054600019019055858352600490915280822080546001600160a01b0319169055518492907fddf252ad1be2c89b69c2b068fc378daa952ba7f163c4a11628f55a4df523b3ef908390a461142f81600084610e68565b60408051602081019091526000815290565b60608161268857506040805180820190915260018152600360fc1b6020820152610c96565b8160005b81156126a057600101600a8204915061268c565b60608167ffffffffffffffff811180156126b957600080fd5b506040519080825280601f01601f1916602001820160405280156126e4576020820181803683370190505b50859350905060001982015b831561273557600a840660300160f81b8282806001900393508151811061271357fe5b60200101906001600160f81b031916908160001a905350600a840493506126f0565b50949350505050565b612748838361294e565b6127556000848484612799565b610e685760405162461bcd60e51b815260040180806020018281038252603281526020018061333a6032913960400191505060405180910390fd5b610e6882612a83565b60006127ad846001600160a01b031661327f565b1561294357836001600160a01b031663150b7a026127c9611732565b8786866040518563ffffffff1660e01b815260040180856001600160a01b03168152602001846001600160a01b0316815260200183815260200180602001828103825283818151815260200191508051906020019080838360005b8381101561283c578181015183820152602001612824565b50505050905090810190601f1680156128695780820380516001836020036101000a031916815260200191505b5095505050505050602060405180830381600087803b15801561288b57600080fd5b505af19250505080156128b057506040513d60208110156128ab57600080fd5b505160015b612929573d8080156128de576040519150601f19603f3d011682016040523d82523d6000602084013e6128e3565b606091505b5080516129215760405162461bcd60e51b815260040180806020018281038252603281526020018061333a6032913960400191505060405180910390fd5b805181602001fd5b6001600160e01b031916630a85bd0160e11b1490506122c6565b506001949350505050565b6001600160a01b0382166129a9576040805162461bcd60e51b815260206004820181905260248201527f4552433732313a206d696e7420746f20746865207a65726f2061646472657373604482015290519081900360640190fd5b6129b281611715565b15612a04576040805162461bcd60e51b815260206004820152601c60248201527f4552433732313a20746f6b656e20616c7265616479206d696e74656400000000604482015290519081900360640190fd5b612a1060008383612790565b6001600160a01b038216600081815260056020908152604080832080546001019055848352600490915280822080546001600160a01b0319168417905551839291907fddf252ad1be2c89b69c2b068fc378daa952ba7f163c4a11628f55a4df523b3ef908290a461142f60008383610e68565b6001600160a01b038116612ade576040805162461bcd60e51b815260206004820152601c60248201527f4e6577207265636569766572206973207a65726f206164647265737300000000604482015290519081900360640190fd5b60085460408051631e51d6a760e11b81526001600160a01b03848116600483015291519190921691633ca3ad4e916024808301926020929190829003018186803b158015612b2b57600080fd5b505afa158015612b3f573d6000803e3d6000fd5b505050506040513d6020811015612b5557600080fd5b505115612b935760405162461bcd60e51b81526004018080602001828103825260228152602001806134c16022913960400191505060405180910390fd5b600c546001600160a01b0382811691161415612bae57611502565b600954600a54600c5460408051631cd43d1160e31b81526001600160a01b039384166004820152306024820152918316604483015251600093929092169163e6a1e88891606480820192608092909190829003018186803b158015612c1257600080fd5b505afa158015612c26573d6000803e3d6000fd5b505050506040513d6080811015612c3c57600080fd5b506020015190506000600b82900b131561322457600854600954600a54600c5460408051600080825260208201928390526001600160a01b0394851660448301818152306064850181905295871660848501819052608060a48601908152855160c487018190529a89169a6339255d5b9a9990991698635a5999e360e11b989497949692959294919260e486019291908190849084905b83811015612ceb578181015183820152602001612cd3565b50505050905090810190601f168015612d185780820380516001836020036101000a031916815260200191505b5060408051601f198184030181529181526020820180516001600160e01b03166001600160e01b03199a8b16178152905160e08c901b90991689526001600160a01b038a1660048a01908152606060248b01908152835160648c01528351939a919950975060448101965060840194509250905080838360005b83811015612daa578181015183820152602001612d92565b50505050905090810190601f168015612dd75780820380516001836020036101000a031916815260200191505b508381038252600281526020018061060f60f31b815250602001945050505050600060405180830381600087803b158015612e1157600080fd5b505af1158015612e25573d6000803e3d6000fd5b505050506040513d6000823e601f3d908101601f191682016040526020811015612e4e57600080fd5b8101908080516040519392919084600160201b821115612e6d57600080fd5b908301906020820185811115612e8257600080fd5b8251600160201b811182820188101715612e9b57600080fd5b82525081516020918201929091019080838360005b83811015612ec8578181015183820152602001612eb0565b50505050905090810190601f168015612ef55780820380516001836020036101000a031916815260200191505b506040818152600854600954600a5463e8e7e2d160e01b85526001600160a01b0390811660048601819052306024870152935192811698506339255d5b975016945063317e182f60e11b935090918891859163e8e7e2d1916044808301926020929190829003018186803b158015612f6c57600080fd5b505afa158015612f80573d6000803e3d6000fd5b505050506040513d6020811015612f9657600080fd5b505160408051600080825260208201909252905060405160240180856001600160a01b03168152602001846001600160a01b0316815260200183600b0b815260200180602001828103825283818151815260200191508051906020019080838360005b83811015613011578181015183820152602001612ff9565b50505050905090810190601f16801561303e5780820380516001836020036101000a031916815260200191505b5060408051601f198184030181529181526020820180516001600160e01b03166001600160e01b03199a8b16178152905160e08c901b90991689526001600160a01b038a1660048a01908152606060248b01908152835160648c01528351939a919950975060448101965060840194509250905080838360005b838110156130d05781810151838201526020016130b8565b50505050905090810190601f1680156130fd5780820380516001836020036101000a031916815260200191505b508381038252600281526020018061060f60f31b815250602001945050505050600060405180830381600087803b15801561313757600080fd5b505af115801561314b573d6000803e3d6000fd5b505050506040513d6000823e601f3d908101601f19168201604052602081101561317457600080fd5b8101908080516040519392919084600160201b82111561319357600080fd5b9083019060208201858111156131a857600080fd5b8251600160201b8111828201881017156131c157600080fd5b82525081516020918201929091019080838360005b838110156131ee5781810151838201526020016131d6565b50505050905090810190601f16801561321b5780820380516001836020036101000a031916815260200191505b50604052505050505b600c80546001600160a01b0319166001600160a01b03848116919091179182905560408051929091168252517f7dfb1d59db37a3fd2e15e796c189dcab714cdbb18650d68a1de58f8fa60718c9916020908290030190a15050565b3b151590565b828054600181600116156101000203166002900490600052602060002090601f016020900481019282601f106132c657805160ff19168380011785556132f3565b828001600101855582156132f3579182015b828111156132f35782518255916020019190600101906132d8565b506132ff929150613303565b5090565b5b808211156132ff576000815560010161330456fe5265646972656374416c6c3a206f6e6c7920434641763120737570706f727465644552433732313a207472616e7366657220746f206e6f6e20455243373231526563656976657220696d706c656d656e7465724552433732313a207472616e736665722066726f6d20696e636f7272656374206f776e6572556e737570706f727465642063616c6c6261636b202d20204265666f72652041677265656d656e74205465726d696e617465645265646972656374416c6c3a20737570706f7274206f6e6c79206f6e6520686f73744552433732313a207472616e7366657220746f20746865207a65726f20616464726573734552433732313a206f70657261746f7220717565727920666f72206e6f6e6578697374656e7420746f6b656e4552433732313a20617070726f76652063616c6c6572206973206e6f74206f776e6572206e6f7220617070726f76656420666f7220616c6c4552433732313a2062616c616e636520717565727920666f7220746865207a65726f20616464726573734552433732313a206f776e657220717565727920666f72206e6f6e6578697374656e7420746f6b656e4e65772072656365697665722063616e206e6f7420626520612073757065724170704552433732313a20617070726f76656420717565727920666f72206e6f6e6578697374656e7420746f6b656e4552433732314d657461646174613a2055524920717565727920666f72206e6f6e6578697374656e7420746f6b656e4f6e6c79207468652054656e616e74206f776e65722063616e206d696e7420616e204e46544552433732313a20617070726f76616c20746f2063757272656e74206f776e6572556e737570706f727465642063616c6c6261636b202d204265666f72652041677265656d656e7420757064617465644552433732313a207472616e736665722063616c6c6572206973206e6f74206f776e6572206e6f7220617070726f766564556e737570706f727465642063616c6c6261636b202d204265666f72652041677265656d656e742043726561746564a2646970667358221220064e52cd7c7e2687c7efd417ce13b7206a6c0952899c05468a82d5dc45970bcf64736f6c63430007010033",
  "linkReferences": {},
  "deployedLinkReferences": {}
}