{
  "_format": "hh-sol-artifact-1",
  "contractName": "FluidNFTFactory",
  "sourceName": "contracts/FluidNFTFactory.sol",
  "abi": [
    {
      "inputs": [
        {
          "internalType": "address",
          "name": "_masterContract",
          "type": "address"
        }
      ],
      "stateMutability": "nonpayable",
      "type": "constructor"
    },
    {
      "inputs": [
        {
          "internalType": "address",
          "name": "tenant_",
          "type": "address"
        },
        {
          "internalType": "string",
          "name": "name_",
          "type": "string"
        },
        {
          "internalType": "string",
          "name": "symbol_",
          "type": "string"
        },
        {
          "internalType": "contract ISuperfluid",
          "name": "host_",
          "type": "address"
        },
        {
          "internalType": "contract IConstantFlowAgreementV1",
          "name": "cfa_",
          "type": "address"
        },
        {
          "internalType": "contract ISuperToken",
          "name": "acceptedToken_",
          "type": "address"
        },
        {
          "internalType": "address",
          "name": "receiver_",
          "type": "address"
        }
      ],
      "name": "createInstance",
      "outputs": [],
      "stateMutability": "nonpayable",
      "type": "function"
    },
    {
      "inputs": [
        {
          "internalType": "address",
          "name": "_tenant",
          "type": "address"
        }
      ],
      "name": "getProxy",
      "outputs": [
        {
          "internalType": "contract FluidNFT",
          "name": "",
          "type": "address"
        }
      ],
      "stateMutability": "view",
      "type": "function"
    },
    {
      "inputs": [],
      "name": "masterContract",
      "outputs": [
        {
          "internalType": "address",
          "name": "",
          "type": "address"
        }
      ],
      "stateMutability": "view",
      "type": "function"
    },
    {
      "inputs": [
        {
          "internalType": "address",
          "name": "",
          "type": "address"
        }
      ],
      "name": "tenants",
      "outputs": [
        {
          "internalType": "contract FluidNFT",
          "name": "nft",
          "type": "address"
        },
        {
          "internalType": "address",
          "name": "owner",
          "type": "address"
        }
      ],
      "stateMutability": "view",
      "type": "function"
    }
  ],
  "bytecode": "0x60a0604052600180546001600160a01b03191673d847c7408c48b6b6720cca75eb30a93acbf5163d17905534801561003657600080fd5b506040516105903803806105908339810160408190526100559161006a565b60601b6001600160601b031916608052610098565b60006020828403121561007b578081fd5b81516001600160a01b0381168114610091578182fd5b9392505050565b60805160601c6104d76100b96000398060c052806101b752506104d76000f3fe608060405234801561001057600080fd5b506004361061004c5760003560e01c8063238d33a414610051578063b7fba4d314610066578063cd446e221461008f578063fd9153a314610097575b600080fd5b61006461005f3660046102f2565b6100b8565b005b6100796100743660046102cf565b610197565b60405161008691906103fd565b60405180910390f35b6100796101b5565b6100aa6100a53660046102cf565b6101d9565b60405161008692919061046f565b3360006100e47f00000000000000000000000000000000000000000000000000000000000000006101ff565b6040516376ce1d0f60e01b81529091506001600160a01b038216906376ce1d0f9061011f908c908c908c908c908c908c908c90600401610411565b600060405180830381600087803b15801561013957600080fd5b505af115801561014d573d6000803e3d6000fd5b5050506001600160a01b0392831660008181526020819052604090208054939094166001600160a01b03199384161784556001909301805490921690921790555050505050505050565b6001600160a01b039081166000908152602081905260409020541690565b7f000000000000000000000000000000000000000000000000000000000000000081565b600060208190529081526040902080546001909101546001600160a01b03918216911682565b6000808260601b9050604051733d602d80600a3d3981f3363d3d373d3d3d363d7360601b81528160148201526e5af43d82803e903d91602b57fd5bf360881b60288201526037816000f0949350505050565b600082601f830112610261578081fd5b813567ffffffffffffffff80821115610278578283fd5b604051601f8301601f191681016020018281118282101715610298578485fd5b6040528281529250828483016020018610156102b357600080fd5b8260208601602083013760006020848301015250505092915050565b6000602082840312156102e0578081fd5b81356102eb81610489565b9392505050565b600080600080600080600060e0888a03121561030c578283fd5b873561031781610489565b9650602088013567ffffffffffffffff80821115610333578485fd5b61033f8b838c01610251565b975060408a0135915080821115610354578485fd5b506103618a828b01610251565b955050606088013561037281610489565b9350608088013561038281610489565b925060a088013561039281610489565b915060c08801356103a281610489565b8091505092959891949750929550565b60008151808452815b818110156103d7576020818501810151868301820152016103bb565b818111156103e85782602083870101525b50601f01601f19169290920160200192915050565b6001600160a01b0391909116815260200190565b600060018060a01b03808a16835260e0602084015261043360e084018a6103b2565b8381036040850152610445818a6103b2565b97821660608501525094851660808301525091831660a083015290911660c0909101529392505050565b6001600160a01b0392831681529116602082015260400190565b6001600160a01b038116811461049e57600080fd5b5056fea26469706673582212201c7fb34368e623e6fe735cc053423e2ae9d4d40922f124995560e007a13a7c1864736f6c63430007010033",
  "linkReferences": {},
  "deployedLinkReferences": {}
}