{
  "_format": "hh-sol-artifact-1",
  "contractName": "WhitelistFactory",
  "sourceName": "contracts/WhitelistFactory.sol",
  "abi": [
    {
      "inputs": [
        {
          "internalType": "address",
          "name": "_masterContract",
          "type": "address"
        },
        {
          "internalType": "address",
          "name": "_owner",
          "type": "address"
        }
      ],
      "stateMutability": "nonpayable",
      "type": "constructor"
    },
    {
      "inputs": [],
      "name": "InstanceAlreadyInitialized",
      "type": "error"
    },
    {
      "inputs": [],
      "name": "InstanceDoesNotExist",
      "type": "error"
    },
    {
      "inputs": [],
      "name": "InvalidMerkelRoot",
      "type": "error"
    },
    {
      "inputs": [],
      "name": "InvalidTime",
      "type": "error"
    },
    {
      "inputs": [],
      "name": "InvalidValuesToCreateInstance",
      "type": "error"
    },
    {
      "inputs": [],
      "name": "NotAnERC20",
      "type": "error"
    },
    {
      "inputs": [],
      "name": "NotAnERC71",
      "type": "error"
    },
    {
      "inputs": [],
      "name": "Unathorized",
      "type": "error"
    },
    {
      "inputs": [],
      "name": "ZeroAddress",
      "type": "error"
    },
    {
      "anonymous": false,
      "inputs": [
        {
          "indexed": false,
          "internalType": "address",
          "name": "_tenant",
          "type": "address"
        },
        {
          "indexed": false,
          "internalType": "address",
          "name": "_proxy",
          "type": "address"
        }
      ],
      "name": "TenantCreated",
      "type": "event"
    },
    {
      "inputs": [
        {
          "internalType": "address",
          "name": "_tenant",
          "type": "address"
        },
        {
          "internalType": "uint256",
          "name": "_startTime",
          "type": "uint256"
        },
        {
          "internalType": "uint256",
          "name": "_endTime",
          "type": "uint256"
        },
        {
          "internalType": "uint256",
          "name": "_units",
          "type": "uint256"
        },
        {
          "internalType": "address",
          "name": "_ERC721",
          "type": "address"
        },
        {
          "internalType": "address",
          "name": "_ERC20",
          "type": "address"
        },
        {
          "internalType": "bytes32",
          "name": "_merkleRoot",
          "type": "bytes32"
        }
      ],
      "name": "createInstance",
      "outputs": [],
      "stateMutability": "nonpayable",
      "type": "function"
    },
    {
      "inputs": [
        {
          "internalType": "address",
          "name": "_tenant",
          "type": "address"
        }
      ],
      "name": "getProxy",
      "outputs": [
        {
          "internalType": "contract Whitelist",
          "name": "",
          "type": "address"
        }
      ],
      "stateMutability": "view",
      "type": "function"
    },
    {
      "inputs": [
        {
          "internalType": "address",
          "name": "",
          "type": "address"
        }
      ],
      "name": "instance",
      "outputs": [
        {
          "internalType": "bool",
          "name": "",
          "type": "bool"
        }
      ],
      "stateMutability": "view",
      "type": "function"
    },
    {
      "inputs": [],
      "name": "masterContract",
      "outputs": [
        {
          "internalType": "address",
          "name": "",
          "type": "address"
        }
      ],
      "stateMutability": "view",
      "type": "function"
    },
    {
      "inputs": [
        {
          "internalType": "address",
          "name": "",
          "type": "address"
        }
      ],
      "name": "merkleInstance",
      "outputs": [
        {
          "internalType": "bool",
          "name": "",
          "type": "bool"
        }
      ],
      "stateMutability": "view",
      "type": "function"
    },
    {
      "inputs": [],
      "name": "owner",
      "outputs": [
        {
          "internalType": "address",
          "name": "",
          "type": "address"
        }
      ],
      "stateMutability": "view",
      "type": "function"
    },
    {
      "inputs": [],
      "name": "tenantCounter",
      "outputs": [
        {
          "internalType": "uint256",
          "name": "_value",
          "type": "uint256"
        }
      ],
      "stateMutability": "view",
      "type": "function"
    },
    {
      "inputs": [
        {
          "internalType": "address",
          "name": "",
          "type": "address"
        }
      ],
      "name": "tenants",
      "outputs": [
        {
          "internalType": "contract Whitelist",
          "name": "proxy",
          "type": "address"
        },
        {
          "internalType": "address",
          "name": "owner",
          "type": "address"
        }
      ],
      "stateMutability": "view",
      "type": "function"
    }
  ],
  "bytecode": "0x60c06040527362a7aa79a52591ccc62b71729329a80a666fa50f600460006101000a81548173ffffffffffffffffffffffffffffffffffffffff021916908373ffffffffffffffffffffffffffffffffffffffff16021790555034801561006557600080fd5b50604051620010ec380380620010ec83398181016040528101906100899190610113565b8173ffffffffffffffffffffffffffffffffffffffff1660a08173ffffffffffffffffffffffffffffffffffffffff1660601b815250508073ffffffffffffffffffffffffffffffffffffffff1660808173ffffffffffffffffffffffffffffffffffffffff1660601b815250505050610198565b60008151905061010d81610181565b92915050565b6000806040838503121561012657600080fd5b6000610134858286016100fe565b9250506020610145858286016100fe565b9150509250929050565b600061015a82610161565b9050919050565b600073ffffffffffffffffffffffffffffffffffffffff82169050919050565b61018a8161014f565b811461019557600080fd5b50565b60805160601c60a05160601c610f21620001cb600039600081816106990152610999015260006101d20152610f216000f3fe608060405234801561001057600080fd5b50600436106100885760003560e01c8063cd446e221161005b578063cd446e2214610115578063cf33d58814610133578063f9fa6b9a14610163578063fd9153a31461019357610088565b80631e9b47551461008d5780638da5cb5b146100ab578063a2638025146100c9578063b7fba4d3146100e5575b600080fd5b6100956101c4565b6040516100a29190610dcd565b60405180910390f35b6100b36101d0565b6040516100c09190610ca0565b60405180910390f35b6100e360048036038101906100de9190610b7f565b6101f4565b005b6100ff60048036038101906100fa9190610b56565b6108a7565b60405161010c9190610d6e565b60405180910390f35b61011d610997565b60405161012a9190610ca0565b60405180910390f35b61014d60048036038101906101489190610b56565b6109bb565b60405161015a9190610d53565b60405180910390f35b61017d60048036038101906101789190610b56565b6109db565b60405161018a9190610d53565b60405180910390f35b6101ad60048036038101906101a89190610b56565b6109fb565b6040516101bb929190610d89565b60405180910390f35b60008060000154905081565b7f000000000000000000000000000000000000000000000000000000000000000081565b86600073ffffffffffffffffffffffffffffffffffffffff168173ffffffffffffffffffffffffffffffffffffffff16141561025c576040517fd92e233d00000000000000000000000000000000000000000000000000000000815260040160405180910390fd5b8073ffffffffffffffffffffffffffffffffffffffff163373ffffffffffffffffffffffffffffffffffffffff1614806102e35750600460009054906101000a900473ffffffffffffffffffffffffffffffffffffffff1673ffffffffffffffffffffffffffffffffffffffff163373ffffffffffffffffffffffffffffffffffffffff16145b610319576040517f28c3794a00000000000000000000000000000000000000000000000000000000815260040160405180910390fd5b87600260008273ffffffffffffffffffffffffffffffffffffffff1673ffffffffffffffffffffffffffffffffffffffff16815260200190815260200160002060009054906101000a900460ff161561039e576040517ff76d29a900000000000000000000000000000000000000000000000000000000815260040160405180910390fd5b6000881480156103ae5750600087145b80156103ba5750600086145b80156103f25750600073ffffffffffffffffffffffffffffffffffffffff168573ffffffffffffffffffffffffffffffffffffffff16145b801561042a5750600073ffffffffffffffffffffffffffffffffffffffff168473ffffffffffffffffffffffffffffffffffffffff16145b801561043857506000801b83145b1561046f576040517f54afbb6e00000000000000000000000000000000000000000000000000000000815260040160405180910390fd5b60008814158015610481575060008714155b156104d5578688118061049357508742115b8061049d57508642115b156104d4576040517f6f7eac2600000000000000000000000000000000000000000000000000000000815260040160405180910390fd5b5b600073ffffffffffffffffffffffffffffffffffffffff168573ffffffffffffffffffffffffffffffffffffffff161415801561052d575061052c8573ffffffffffffffffffffffffffffffffffffffff16610a5f565b5b1561060257600085905060008173ffffffffffffffffffffffffffffffffffffffff166301ffc9a76380ac58cd6040518263ffffffff1660e01b81526004016105769190610db2565b60206040518083038186803b15801561058e57600080fd5b505afa1580156105a2573d6000803e3d6000fd5b505050506040513d601f19601f820116820180604052508101906105c69190610c1d565b9050806105ff576040517f7fa768b700000000000000000000000000000000000000000000000000000000815260040160405180910390fd5b50505b6106218473ffffffffffffffffffffffffffffffffffffffff16610a5f565b15801561065b5750600073ffffffffffffffffffffffffffffffffffffffff168473ffffffffffffffffffffffffffffffffffffffff1614155b15610692576040517f4774bf7900000000000000000000000000000000000000000000000000000000815260040160405180910390fd5b60006106bd7f0000000000000000000000000000000000000000000000000000000000000000610a82565b90508073ffffffffffffffffffffffffffffffffffffffff1663f57d89f48b8b8b8b8b8b8b6040518863ffffffff1660e01b81526004016107049796959493929190610ce4565b600060405180830381600087803b15801561071e57600080fd5b505af1158015610732573d6000803e3d6000fd5b505050506000600160008c73ffffffffffffffffffffffffffffffffffffffff1673ffffffffffffffffffffffffffffffffffffffff1681526020019081526020016000209050818160000160006101000a81548173ffffffffffffffffffffffffffffffffffffffff021916908373ffffffffffffffffffffffffffffffffffffffff1602179055508a8160010160006101000a81548173ffffffffffffffffffffffffffffffffffffffff021916908373ffffffffffffffffffffffffffffffffffffffff1602179055506001600260008d73ffffffffffffffffffffffffffffffffffffffff1673ffffffffffffffffffffffffffffffffffffffff16815260200190815260200160002060006101000a81548160ff0219169083151502179055506108616000610aec565b7f6c253b297385738b44c5cd705bc77dfaf43a58b0a4e9fe4f4eb44eebb417db118b83604051610892929190610cbb565b60405180910390a15050505050505050505050565b6000600260008373ffffffffffffffffffffffffffffffffffffffff1673ffffffffffffffffffffffffffffffffffffffff16815260200190815260200160002060009054906101000a900460ff161561092d576040517ff76d29a900000000000000000000000000000000000000000000000000000000815260040160405180910390fd5b600160008373ffffffffffffffffffffffffffffffffffffffff1673ffffffffffffffffffffffffffffffffffffffff16815260200190815260200160002060000160009054906101000a900473ffffffffffffffffffffffffffffffffffffffff169050919050565b7f000000000000000000000000000000000000000000000000000000000000000081565b60026020528060005260406000206000915054906101000a900460ff1681565b60036020528060005260406000206000915054906101000a900460ff1681565b60016020528060005260406000206000915090508060000160009054906101000a900473ffffffffffffffffffffffffffffffffffffffff16908060010160009054906101000a900473ffffffffffffffffffffffffffffffffffffffff16905082565b6000808273ffffffffffffffffffffffffffffffffffffffff163b119050919050565b6000808260601b90506040517f3d602d80600a3d3981f3363d3d373d3d3d363d7300000000000000000000000081528160148201527f5af43d82803e903d91602b57fd5bf3000000000000000000000000000000000060288201526037816000f092505050919050565b6001816000016000828254019250508190555050565b600081359050610b1181610e8f565b92915050565b600081519050610b2681610ea6565b92915050565b600081359050610b3b81610ebd565b92915050565b600081359050610b5081610ed4565b92915050565b600060208284031215610b6857600080fd5b6000610b7684828501610b02565b91505092915050565b600080600080600080600060e0888a031215610b9a57600080fd5b6000610ba88a828b01610b02565b9750506020610bb98a828b01610b41565b9650506040610bca8a828b01610b41565b9550506060610bdb8a828b01610b41565b9450506080610bec8a828b01610b02565b93505060a0610bfd8a828b01610b02565b92505060c0610c0e8a828b01610b2c565b91505092959891949750929550565b600060208284031215610c2f57600080fd5b6000610c3d84828501610b17565b91505092915050565b610c4f81610de8565b82525050565b610c5e81610dfa565b82525050565b610c6d81610e06565b82525050565b610c7c81610e44565b82525050565b610c8b81610e68565b82525050565b610c9a81610e3a565b82525050565b6000602082019050610cb56000830184610c46565b92915050565b6000604082019050610cd06000830185610c46565b610cdd6020830184610c46565b9392505050565b600060e082019050610cf9600083018a610c46565b610d066020830189610c91565b610d136040830188610c91565b610d206060830187610c91565b610d2d6080830186610c46565b610d3a60a0830185610c46565b610d4760c0830184610c64565b98975050505050505050565b6000602082019050610d686000830184610c55565b92915050565b6000602082019050610d836000830184610c73565b92915050565b6000604082019050610d9e6000830185610c73565b610dab6020830184610c46565b9392505050565b6000602082019050610dc76000830184610c82565b92915050565b6000602082019050610de26000830184610c91565b92915050565b6000610df382610e1a565b9050919050565b60008115159050919050565b6000819050919050565b6000819050919050565b600073ffffffffffffffffffffffffffffffffffffffff82169050919050565b6000819050919050565b6000610e4f82610e56565b9050919050565b6000610e6182610e1a565b9050919050565b6000610e7b610e7683610e10565b610e82565b9050919050565b60008160e01b9050919050565b610e9881610de8565b8114610ea357600080fd5b50565b610eaf81610dfa565b8114610eba57600080fd5b50565b610ec681610e06565b8114610ed157600080fd5b50565b610edd81610e3a565b8114610ee857600080fd5b5056fea2646970667358221220b44feee629e03499a9f025dacff34487210f9df54ea4f9aa5307757a28f57c8e64736f6c63430008040033",
  "linkReferences": {},
  "deployedLinkReferences": {}
}