{
  "_format": "hh-sol-artifact-1",
  "contractName": "WhitelistFactory",
  "sourceName": "contracts/WhitelistFactory.sol",
  "abi": [
    {
      "inputs": [
        {
          "internalType": "address",
          "name": "_masterContract",
          "type": "address"
        },
        {
          "internalType": "address",
          "name": "_owner",
          "type": "address"
        }
      ],
      "stateMutability": "nonpayable",
      "type": "constructor"
    },
    {
      "inputs": [],
      "name": "InstanceAlreadyInitialized",
      "type": "error"
    },
    {
      "inputs": [],
      "name": "InstanceDoesNotExist",
      "type": "error"
    },
    {
      "inputs": [],
      "name": "InvalidMerkelRoot",
      "type": "error"
    },
    {
      "inputs": [],
      "name": "InvalidTime",
      "type": "error"
    },
    {
      "inputs": [],
      "name": "InvalidValuesToCreateInstance",
      "type": "error"
    },
    {
      "inputs": [],
      "name": "NotAnERC20",
      "type": "error"
    },
    {
      "inputs": [],
      "name": "NotAnERC71",
      "type": "error"
    },
    {
      "inputs": [],
      "name": "Unathorized",
      "type": "error"
    },
    {
      "inputs": [],
      "name": "ZeroAddress",
      "type": "error"
    },
    {
      "anonymous": false,
      "inputs": [
        {
          "indexed": false,
          "internalType": "address",
          "name": "_tenant",
          "type": "address"
        },
        {
          "indexed": false,
          "internalType": "address",
          "name": "_proxy",
          "type": "address"
        }
      ],
      "name": "TenantCreated",
      "type": "event"
    },
    {
      "inputs": [
        {
          "internalType": "address",
          "name": "_tenant",
          "type": "address"
        },
        {
          "internalType": "uint256",
          "name": "_startTime",
          "type": "uint256"
        },
        {
          "internalType": "uint256",
          "name": "_endTime",
          "type": "uint256"
        },
        {
          "internalType": "uint256",
          "name": "_units",
          "type": "uint256"
        },
        {
          "internalType": "address",
          "name": "_ERC721",
          "type": "address"
        },
        {
          "internalType": "address",
          "name": "_ERC20",
          "type": "address"
        },
        {
          "internalType": "bytes32",
          "name": "_merkleRoot",
          "type": "bytes32"
        }
      ],
      "name": "createInstance",
      "outputs": [],
      "stateMutability": "nonpayable",
      "type": "function"
    },
    {
      "inputs": [
        {
          "internalType": "address",
          "name": "_tenant",
          "type": "address"
        }
      ],
      "name": "getProxy",
      "outputs": [
        {
          "internalType": "contract Whitelist",
          "name": "",
          "type": "address"
        }
      ],
      "stateMutability": "view",
      "type": "function"
    },
    {
      "inputs": [
        {
          "internalType": "address",
          "name": "",
          "type": "address"
        }
      ],
      "name": "instance",
      "outputs": [
        {
          "internalType": "bool",
          "name": "",
          "type": "bool"
        }
      ],
      "stateMutability": "view",
      "type": "function"
    },
    {
      "inputs": [],
      "name": "masterContract",
      "outputs": [
        {
          "internalType": "address",
          "name": "",
          "type": "address"
        }
      ],
      "stateMutability": "view",
      "type": "function"
    },
    {
      "inputs": [
        {
          "internalType": "address",
          "name": "",
          "type": "address"
        }
      ],
      "name": "merkleInstance",
      "outputs": [
        {
          "internalType": "bool",
          "name": "",
          "type": "bool"
        }
      ],
      "stateMutability": "view",
      "type": "function"
    },
    {
      "inputs": [],
      "name": "owner",
      "outputs": [
        {
          "internalType": "address",
          "name": "",
          "type": "address"
        }
      ],
      "stateMutability": "view",
      "type": "function"
    },
    {
      "inputs": [],
      "name": "tenantCounter",
      "outputs": [
        {
          "internalType": "uint256",
          "name": "_value",
          "type": "uint256"
        }
      ],
      "stateMutability": "view",
      "type": "function"
    },
    {
      "inputs": [
        {
          "internalType": "address",
          "name": "",
          "type": "address"
        }
      ],
      "name": "tenants",
      "outputs": [
        {
          "internalType": "contract Whitelist",
          "name": "proxy",
          "type": "address"
        },
        {
          "internalType": "address",
          "name": "owner",
          "type": "address"
        }
      ],
      "stateMutability": "view",
      "type": "function"
    }
  ],
  "bytecode": "0x60c06040527362a7aa79a52591ccc62b71729329a80a666fa50f600460006101000a81548173ffffffffffffffffffffffffffffffffffffffff021916908373ffffffffffffffffffffffffffffffffffffffff16021790555034801561006557600080fd5b50604051620010683803806200106883398181016040528101906100899190610113565b8173ffffffffffffffffffffffffffffffffffffffff1660a08173ffffffffffffffffffffffffffffffffffffffff1660601b815250508073ffffffffffffffffffffffffffffffffffffffff1660808173ffffffffffffffffffffffffffffffffffffffff1660601b815250505050610198565b60008151905061010d81610181565b92915050565b6000806040838503121561012657600080fd5b6000610134858286016100fe565b9250506020610145858286016100fe565b9150509250929050565b600061015a82610161565b9050919050565b600073ffffffffffffffffffffffffffffffffffffffff82169050919050565b61018a8161014f565b811461019557600080fd5b50565b60805160601c60a05160601c610e9d620001cb600039600081816106990152610915015260006101d20152610e9d6000f3fe608060405234801561001057600080fd5b50600436106100885760003560e01c8063cd446e221161005b578063cd446e2214610115578063cf33d58814610133578063f9fa6b9a14610163578063fd9153a31461019357610088565b80631e9b47551461008d5780638da5cb5b146100ab578063a2638025146100c9578063b7fba4d3146100e5575b600080fd5b6100956101c4565b6040516100a29190610d49565b60405180910390f35b6100b36101d0565b6040516100c09190610c1c565b60405180910390f35b6100e360048036038101906100de9190610afb565b6101f4565b005b6100ff60048036038101906100fa9190610ad2565b6108a7565b60405161010c9190610cea565b60405180910390f35b61011d610913565b60405161012a9190610c1c565b60405180910390f35b61014d60048036038101906101489190610ad2565b610937565b60405161015a9190610ccf565b60405180910390f35b61017d60048036038101906101789190610ad2565b610957565b60405161018a9190610ccf565b60405180910390f35b6101ad60048036038101906101a89190610ad2565b610977565b6040516101bb929190610d05565b60405180910390f35b60008060000154905081565b7f000000000000000000000000000000000000000000000000000000000000000081565b86600073ffffffffffffffffffffffffffffffffffffffff168173ffffffffffffffffffffffffffffffffffffffff16141561025c576040517fd92e233d00000000000000000000000000000000000000000000000000000000815260040160405180910390fd5b8073ffffffffffffffffffffffffffffffffffffffff163373ffffffffffffffffffffffffffffffffffffffff1614806102e35750600460009054906101000a900473ffffffffffffffffffffffffffffffffffffffff1673ffffffffffffffffffffffffffffffffffffffff163373ffffffffffffffffffffffffffffffffffffffff16145b610319576040517f28c3794a00000000000000000000000000000000000000000000000000000000815260040160405180910390fd5b87600260008273ffffffffffffffffffffffffffffffffffffffff1673ffffffffffffffffffffffffffffffffffffffff16815260200190815260200160002060009054906101000a900460ff161561039e576040517ff76d29a900000000000000000000000000000000000000000000000000000000815260040160405180910390fd5b6000881480156103ae5750600087145b80156103ba5750600086145b80156103f25750600073ffffffffffffffffffffffffffffffffffffffff168573ffffffffffffffffffffffffffffffffffffffff16145b801561042a5750600073ffffffffffffffffffffffffffffffffffffffff168473ffffffffffffffffffffffffffffffffffffffff16145b801561043857506000801b83145b1561046f576040517f54afbb6e00000000000000000000000000000000000000000000000000000000815260040160405180910390fd5b60008814158015610481575060008714155b156104d5578688118061049357508742115b8061049d57508642115b156104d4576040517f6f7eac2600000000000000000000000000000000000000000000000000000000815260040160405180910390fd5b5b600073ffffffffffffffffffffffffffffffffffffffff168573ffffffffffffffffffffffffffffffffffffffff161415801561052d575061052c8573ffffffffffffffffffffffffffffffffffffffff166109db565b5b1561060257600085905060008173ffffffffffffffffffffffffffffffffffffffff166301ffc9a76380ac58cd6040518263ffffffff1660e01b81526004016105769190610d2e565b60206040518083038186803b15801561058e57600080fd5b505afa1580156105a2573d6000803e3d6000fd5b505050506040513d601f19601f820116820180604052508101906105c69190610b99565b9050806105ff576040517f7fa768b700000000000000000000000000000000000000000000000000000000815260040160405180910390fd5b50505b6106218473ffffffffffffffffffffffffffffffffffffffff166109db565b15801561065b5750600073ffffffffffffffffffffffffffffffffffffffff168473ffffffffffffffffffffffffffffffffffffffff1614155b15610692576040517f4774bf7900000000000000000000000000000000000000000000000000000000815260040160405180910390fd5b60006106bd7f00000000000000000000000000000000000000000000000000000000000000006109fe565b90508073ffffffffffffffffffffffffffffffffffffffff1663f57d89f48b8b8b8b8b8b8b6040518863ffffffff1660e01b81526004016107049796959493929190610c60565b600060405180830381600087803b15801561071e57600080fd5b505af1158015610732573d6000803e3d6000fd5b505050506000600160008c73ffffffffffffffffffffffffffffffffffffffff1673ffffffffffffffffffffffffffffffffffffffff1681526020019081526020016000209050818160000160006101000a81548173ffffffffffffffffffffffffffffffffffffffff021916908373ffffffffffffffffffffffffffffffffffffffff1602179055508a8160010160006101000a81548173ffffffffffffffffffffffffffffffffffffffff021916908373ffffffffffffffffffffffffffffffffffffffff1602179055506001600260008d73ffffffffffffffffffffffffffffffffffffffff1673ffffffffffffffffffffffffffffffffffffffff16815260200190815260200160002060006101000a81548160ff0219169083151502179055506108616000610a68565b7f6c253b297385738b44c5cd705bc77dfaf43a58b0a4e9fe4f4eb44eebb417db118b83604051610892929190610c37565b60405180910390a15050505050505050505050565b6000600160008373ffffffffffffffffffffffffffffffffffffffff1673ffffffffffffffffffffffffffffffffffffffff16815260200190815260200160002060000160009054906101000a900473ffffffffffffffffffffffffffffffffffffffff169050919050565b7f000000000000000000000000000000000000000000000000000000000000000081565b60026020528060005260406000206000915054906101000a900460ff1681565b60036020528060005260406000206000915054906101000a900460ff1681565b60016020528060005260406000206000915090508060000160009054906101000a900473ffffffffffffffffffffffffffffffffffffffff16908060010160009054906101000a900473ffffffffffffffffffffffffffffffffffffffff16905082565b6000808273ffffffffffffffffffffffffffffffffffffffff163b119050919050565b6000808260601b90506040517f3d602d80600a3d3981f3363d3d373d3d3d363d7300000000000000000000000081528160148201527f5af43d82803e903d91602b57fd5bf3000000000000000000000000000000000060288201526037816000f092505050919050565b6001816000016000828254019250508190555050565b600081359050610a8d81610e0b565b92915050565b600081519050610aa281610e22565b92915050565b600081359050610ab781610e39565b92915050565b600081359050610acc81610e50565b92915050565b600060208284031215610ae457600080fd5b6000610af284828501610a7e565b91505092915050565b600080600080600080600060e0888a031215610b1657600080fd5b6000610b248a828b01610a7e565b9750506020610b358a828b01610abd565b9650506040610b468a828b01610abd565b9550506060610b578a828b01610abd565b9450506080610b688a828b01610a7e565b93505060a0610b798a828b01610a7e565b92505060c0610b8a8a828b01610aa8565b91505092959891949750929550565b600060208284031215610bab57600080fd5b6000610bb984828501610a93565b91505092915050565b610bcb81610d64565b82525050565b610bda81610d76565b82525050565b610be981610d82565b82525050565b610bf881610dc0565b82525050565b610c0781610de4565b82525050565b610c1681610db6565b82525050565b6000602082019050610c316000830184610bc2565b92915050565b6000604082019050610c4c6000830185610bc2565b610c596020830184610bc2565b9392505050565b600060e082019050610c75600083018a610bc2565b610c826020830189610c0d565b610c8f6040830188610c0d565b610c9c6060830187610c0d565b610ca96080830186610bc2565b610cb660a0830185610bc2565b610cc360c0830184610be0565b98975050505050505050565b6000602082019050610ce46000830184610bd1565b92915050565b6000602082019050610cff6000830184610bef565b92915050565b6000604082019050610d1a6000830185610bef565b610d276020830184610bc2565b9392505050565b6000602082019050610d436000830184610bfe565b92915050565b6000602082019050610d5e6000830184610c0d565b92915050565b6000610d6f82610d96565b9050919050565b60008115159050919050565b6000819050919050565b6000819050919050565b600073ffffffffffffffffffffffffffffffffffffffff82169050919050565b6000819050919050565b6000610dcb82610dd2565b9050919050565b6000610ddd82610d96565b9050919050565b6000610df7610df283610d8c565b610dfe565b9050919050565b60008160e01b9050919050565b610e1481610d64565b8114610e1f57600080fd5b50565b610e2b81610d76565b8114610e3657600080fd5b50565b610e4281610d82565b8114610e4d57600080fd5b50565b610e5981610db6565b8114610e6457600080fd5b5056fea264697066735822122008fda2ce40344def03c178dceef833bab429e6cca99f84ca6b77d4b70fa1e3c764736f6c63430008040033",
  "linkReferences": {},
  "deployedLinkReferences": {}
}