{
  "_format": "hh-sol-artifact-1",
  "contractName": "ERC777Factory",
  "sourceName": "contracts/ERC777Factory.sol",
  "abi": [
    {
      "inputs": [
        {
          "internalType": "address",
          "name": "_masterContract",
          "type": "address"
        },
        {
          "internalType": "address",
          "name": "_owner",
          "type": "address"
        }
      ],
      "stateMutability": "nonpayable",
      "type": "constructor"
    },
    {
      "inputs": [
        {
          "internalType": "string",
          "name": "_name",
          "type": "string"
        },
        {
          "internalType": "string",
          "name": "_symbol",
          "type": "string"
        },
        {
          "internalType": "address[]",
          "name": "_defaultOperators",
          "type": "address[]"
        },
        {
          "internalType": "uint256",
          "name": "_initialSupply",
          "type": "uint256"
        },
        {
          "internalType": "address",
          "name": "_tenant",
          "type": "address"
        }
      ],
      "name": "createInstance",
      "outputs": [],
      "stateMutability": "nonpayable",
      "type": "function"
    },
    {
      "inputs": [
        {
          "internalType": "address",
          "name": "_tenant",
          "type": "address"
        }
      ],
      "name": "getProxy",
      "outputs": [
        {
          "internalType": "contract ERC777",
          "name": "",
          "type": "address"
        }
      ],
      "stateMutability": "view",
      "type": "function"
    },
    {
      "inputs": [
        {
          "internalType": "address",
          "name": "",
          "type": "address"
        }
      ],
      "name": "instance",
      "outputs": [
        {
          "internalType": "bool",
          "name": "",
          "type": "bool"
        }
      ],
      "stateMutability": "view",
      "type": "function"
    },
    {
      "inputs": [],
      "name": "masterContract",
      "outputs": [
        {
          "internalType": "address",
          "name": "",
          "type": "address"
        }
      ],
      "stateMutability": "view",
      "type": "function"
    },
    {
      "inputs": [],
      "name": "owner",
      "outputs": [
        {
          "internalType": "address",
          "name": "",
          "type": "address"
        }
      ],
      "stateMutability": "view",
      "type": "function"
    },
    {
      "inputs": [
        {
          "internalType": "address",
          "name": "",
          "type": "address"
        }
      ],
      "name": "tenants",
      "outputs": [
        {
          "internalType": "contract ERC777",
          "name": "erc777",
          "type": "address"
        },
        {
          "internalType": "address",
          "name": "owner",
          "type": "address"
        }
      ],
      "stateMutability": "view",
      "type": "function"
    }
  ],
  "bytecode": "0x60c06040527362a7aa79a52591ccc62b71729329a80a666fa50f600260006101000a81548173ffffffffffffffffffffffffffffffffffffffff021916908373ffffffffffffffffffffffffffffffffffffffff16021790555034801561006557600080fd5b50604051610f48380380610f4883398181016040528101906100879190610111565b8173ffffffffffffffffffffffffffffffffffffffff1660808173ffffffffffffffffffffffffffffffffffffffff1660601b815250508073ffffffffffffffffffffffffffffffffffffffff1660a08173ffffffffffffffffffffffffffffffffffffffff1660601b815250505050610196565b60008151905061010b8161017f565b92915050565b6000806040838503121561012457600080fd5b6000610132858286016100fc565b9250506020610143858286016100fc565b9150509250929050565b60006101588261015f565b9050919050565b600073ffffffffffffffffffffffffffffffffffffffff82169050919050565b6101888161014d565b811461019357600080fd5b50565b60805160601c60a05160601c610d806101c860003960006104770152600081816102b201526105060152610d806000f3fe608060405234801561001057600080fd5b50600436106100625760003560e01c8063497167d7146100675780638da5cb5b14610083578063b7fba4d3146100a1578063cd446e22146100d1578063cf33d588146100ef578063fd9153a31461011f575b600080fd5b610081600480360381019061007c9190610767565b610150565b005b61008b610475565b6040516100989190610966565b60405180910390f35b6100bb60048036038101906100b6919061073e565b610499565b6040516100c8919061099c565b60405180910390f35b6100d9610504565b6040516100e69190610966565b60405180910390f35b6101096004803603810190610104919061073e565b610528565b6040516101169190610981565b60405180910390f35b6101396004803603810190610134919061073e565b610548565b6040516101479291906109b7565b60405180910390f35b8060001515600160008373ffffffffffffffffffffffffffffffffffffffff1673ffffffffffffffffffffffffffffffffffffffff16815260200190815260200160002060009054906101000a900460ff161515146101e4576040517f08c379a00000000000000000000000000000000000000000000000000000000081526004016101db90610a48565b60405180910390fd5b818073ffffffffffffffffffffffffffffffffffffffff163373ffffffffffffffffffffffffffffffffffffffff16148061026c5750600260009054906101000a900473ffffffffffffffffffffffffffffffffffffffff1673ffffffffffffffffffffffffffffffffffffffff163373ffffffffffffffffffffffffffffffffffffffff16145b6102ab576040517f08c379a00000000000000000000000000000000000000000000000000000000081526004016102a290610a68565b60405180910390fd5b60006102d67f00000000000000000000000000000000000000000000000000000000000000006105ac565b90508073ffffffffffffffffffffffffffffffffffffffff1663a4c212e789898989336040518663ffffffff1660e01b81526004016103199594939291906109e0565b600060405180830381600087803b15801561033357600080fd5b505af1158015610347573d6000803e3d6000fd5b5050505060008060008673ffffffffffffffffffffffffffffffffffffffff1673ffffffffffffffffffffffffffffffffffffffff1681526020019081526020016000209050818160000160006101000a81548173ffffffffffffffffffffffffffffffffffffffff021916908373ffffffffffffffffffffffffffffffffffffffff160217905550848160010160006101000a81548173ffffffffffffffffffffffffffffffffffffffff021916908373ffffffffffffffffffffffffffffffffffffffff16021790555060018060008773ffffffffffffffffffffffffffffffffffffffff1673ffffffffffffffffffffffffffffffffffffffff16815260200190815260200160002060006101000a81548160ff021916908315150217905550505050505050505050565b7f000000000000000000000000000000000000000000000000000000000000000081565b60008060008373ffffffffffffffffffffffffffffffffffffffff1673ffffffffffffffffffffffffffffffffffffffff16815260200190815260200160002060000160009054906101000a900473ffffffffffffffffffffffffffffffffffffffff169050919050565b7f000000000000000000000000000000000000000000000000000000000000000081565b60016020528060005260406000206000915054906101000a900460ff1681565b60006020528060005260406000206000915090508060000160009054906101000a900473ffffffffffffffffffffffffffffffffffffffff16908060010160009054906101000a900473ffffffffffffffffffffffffffffffffffffffff16905082565b6000808260601b90506040517f3d602d80600a3d3981f3363d3d373d3d3d363d7300000000000000000000000081528160148201527f5af43d82803e903d91602b57fd5bf3000000000000000000000000000000000060288201526037816000f092505050919050565b600061062961062484610aad565b610a88565b9050808382526020820190508285602086028201111561064857600080fd5b60005b85811015610678578161065e88826106c0565b84526020840193506020830192505060018101905061064b565b5050509392505050565b600061069561069084610ad9565b610a88565b9050828152602081018484840111156106ad57600080fd5b6106b8848285610bcb565b509392505050565b6000813590506106cf81610d1c565b92915050565b600082601f8301126106e657600080fd5b81356106f6848260208601610616565b91505092915050565b600082601f83011261071057600080fd5b8135610720848260208601610682565b91505092915050565b60008135905061073881610d33565b92915050565b60006020828403121561075057600080fd5b600061075e848285016106c0565b91505092915050565b600080600080600060a0868803121561077f57600080fd5b600086013567ffffffffffffffff81111561079957600080fd5b6107a5888289016106ff565b955050602086013567ffffffffffffffff8111156107c257600080fd5b6107ce888289016106ff565b945050604086013567ffffffffffffffff8111156107eb57600080fd5b6107f7888289016106d5565b935050606061080888828901610729565b9250506080610819888289016106c0565b9150509295509295909350565b6000610832838361083e565b60208301905092915050565b61084781610b5f565b82525050565b61085681610b5f565b82525050565b600061086782610b1a565b6108718185610b3d565b935061087c83610b0a565b8060005b838110156108ad5781516108948882610826565b975061089f83610b30565b925050600181019050610880565b5085935050505092915050565b6108c381610b71565b82525050565b6108d281610ba7565b82525050565b60006108e382610b25565b6108ed8185610b4e565b93506108fd818560208601610bda565b61090681610c6d565b840191505092915050565b600061091e602283610b4e565b915061092982610c7e565b604082019050919050565b6000610941603083610b4e565b915061094c82610ccd565b604082019050919050565b61096081610b9d565b82525050565b600060208201905061097b600083018461084d565b92915050565b600060208201905061099660008301846108ba565b92915050565b60006020820190506109b160008301846108c9565b92915050565b60006040820190506109cc60008301856108c9565b6109d9602083018461084d565b9392505050565b600060a08201905081810360008301526109fa81886108d8565b90508181036020830152610a0e81876108d8565b90508181036040830152610a22818661085c565b9050610a316060830185610957565b610a3e608083018461084d565b9695505050505050565b60006020820190508181036000830152610a6181610911565b9050919050565b60006020820190508181036000830152610a8181610934565b9050919050565b6000610a92610aa3565b9050610a9e8282610c0d565b919050565b6000604051905090565b600067ffffffffffffffff821115610ac857610ac7610c3e565b5b602082029050602081019050919050565b600067ffffffffffffffff821115610af457610af3610c3e565b5b610afd82610c6d565b9050602081019050919050565b6000819050602082019050919050565b600081519050919050565b600081519050919050565b6000602082019050919050565b600082825260208201905092915050565b600082825260208201905092915050565b6000610b6a82610b7d565b9050919050565b60008115159050919050565b600073ffffffffffffffffffffffffffffffffffffffff82169050919050565b6000819050919050565b6000610bb282610bb9565b9050919050565b6000610bc482610b7d565b9050919050565b82818337600083830152505050565b60005b83811015610bf8578082015181840152602081019050610bdd565b83811115610c07576000848401525b50505050565b610c1682610c6d565b810181811067ffffffffffffffff82111715610c3557610c34610c3e565b5b80604052505050565b7f4e487b7100000000000000000000000000000000000000000000000000000000600052604160045260246000fd5b6000601f19601f8301169050919050565b7f5468652074656e616e7420616c72656164792068617320616e20696e7374616e60008201527f6365000000000000000000000000000000000000000000000000000000000000602082015250565b7f506c656173652075736520612076616c6964206164647265737320746f20637260008201527f6561746520616e20696e7374616e636500000000000000000000000000000000602082015250565b610d2581610b5f565b8114610d3057600080fd5b50565b610d3c81610b9d565b8114610d4757600080fd5b5056fea264697066735822122082814998709b5f464b3c2bf25a84811818edde95deeb7b5262743f833393705664736f6c63430008040033",
  "linkReferences": {},
  "deployedLinkReferences": {}
}