{
  "_format": "hh-sol-artifact-1",
  "contractName": "ERC777Factory",
  "sourceName": "contracts/ERC777Factory.sol",
  "abi": [
    {
      "inputs": [
        {
          "internalType": "address",
          "name": "_masterContract",
          "type": "address"
        },
        {
          "internalType": "address",
          "name": "_owner",
          "type": "address"
        }
      ],
      "stateMutability": "nonpayable",
      "type": "constructor"
    },
    {
      "inputs": [],
      "name": "InstanceAlreadyInitialized",
      "type": "error"
    },
    {
      "inputs": [],
      "name": "InstanceDoesNotExist",
      "type": "error"
    },
    {
      "inputs": [],
      "name": "Unauthorized",
      "type": "error"
    },
    {
      "inputs": [],
      "name": "ZeroAddress",
      "type": "error"
    },
    {
      "anonymous": false,
      "inputs": [
        {
          "indexed": false,
          "internalType": "address",
          "name": "_tenant",
          "type": "address"
        },
        {
          "indexed": false,
          "internalType": "address",
          "name": "_proxy",
          "type": "address"
        }
      ],
      "name": "TenantCreated",
      "type": "event"
    },
    {
      "inputs": [
        {
          "internalType": "address",
          "name": "_tenant",
          "type": "address"
        },
        {
          "internalType": "string",
          "name": "_name",
          "type": "string"
        },
        {
          "internalType": "string",
          "name": "_symbol",
          "type": "string"
        },
        {
          "internalType": "address[]",
          "name": "_defaultOperators",
          "type": "address[]"
        },
        {
          "internalType": "uint256",
          "name": "_initialSupply",
          "type": "uint256"
        }
      ],
      "name": "createInstance",
      "outputs": [],
      "stateMutability": "nonpayable",
      "type": "function"
    },
    {
      "inputs": [
        {
          "internalType": "address",
          "name": "_tenant",
          "type": "address"
        }
      ],
      "name": "getProxy",
      "outputs": [
        {
          "internalType": "contract ERC777",
          "name": "",
          "type": "address"
        }
      ],
      "stateMutability": "view",
      "type": "function"
    },
    {
      "inputs": [
        {
          "internalType": "address",
          "name": "",
          "type": "address"
        }
      ],
      "name": "instance",
      "outputs": [
        {
          "internalType": "bool",
          "name": "",
          "type": "bool"
        }
      ],
      "stateMutability": "view",
      "type": "function"
    },
    {
      "inputs": [],
      "name": "masterContract",
      "outputs": [
        {
          "internalType": "address",
          "name": "",
          "type": "address"
        }
      ],
      "stateMutability": "view",
      "type": "function"
    },
    {
      "inputs": [],
      "name": "owner",
      "outputs": [
        {
          "internalType": "address",
          "name": "",
          "type": "address"
        }
      ],
      "stateMutability": "view",
      "type": "function"
    },
    {
      "inputs": [],
      "name": "tenantCounter",
      "outputs": [
        {
          "internalType": "uint256",
          "name": "_value",
          "type": "uint256"
        }
      ],
      "stateMutability": "view",
      "type": "function"
    },
    {
      "inputs": [
        {
          "internalType": "address",
          "name": "",
          "type": "address"
        }
      ],
      "name": "tenants",
      "outputs": [
        {
          "internalType": "contract ERC777",
          "name": "erc777",
          "type": "address"
        },
        {
          "internalType": "address",
          "name": "owner",
          "type": "address"
        }
      ],
      "stateMutability": "view",
      "type": "function"
    }
  ],
  "bytecode": "0x60c060405234801561001057600080fd5b50604051610f8b380380610f8b833981810160405281019061003291906100bc565b8173ffffffffffffffffffffffffffffffffffffffff1660a08173ffffffffffffffffffffffffffffffffffffffff1660601b815250508073ffffffffffffffffffffffffffffffffffffffff1660808173ffffffffffffffffffffffffffffffffffffffff1660601b815250505050610141565b6000815190506100b68161012a565b92915050565b600080604083850312156100cf57600080fd5b60006100dd858286016100a7565b92505060206100ee858286016100a7565b9150509250929050565b60006101038261010a565b9050919050565b600073ffffffffffffffffffffffffffffffffffffffff82169050919050565b610133816100f8565b811461013e57600080fd5b50565b60805160601c60a05160601c610e1161017a600039600081816103380152610661015260008181610228015261054e0152610e116000f3fe608060405234801561001057600080fd5b506004361061007d5760003560e01c8063b7fba4d31161005b578063b7fba4d3146100da578063cd446e221461010a578063cf33d58814610128578063fd9153a3146101585761007d565b80631ab88628146100825780631e9b47551461009e5780638da5cb5b146100bc575b600080fd5b61009c600480360381019061009791906108d8565b610189565b005b6100a6610540565b6040516100b39190610b9c565b60405180910390f35b6100c461054c565b6040516100d19190610a91565b60405180910390f35b6100f460048036038101906100ef91906108af565b610570565b6040516101019190610af0565b60405180910390f35b61011261065f565b60405161011f9190610a91565b60405180910390f35b610142600480360381019061013d91906108af565b610683565b60405161014f9190610ad5565b60405180910390f35b610172600480360381019061016d91906108af565b6106a3565b604051610180929190610b0b565b60405180910390f35b84600073ffffffffffffffffffffffffffffffffffffffff168173ffffffffffffffffffffffffffffffffffffffff1614156101f1576040517fd92e233d00000000000000000000000000000000000000000000000000000000815260040160405180910390fd5b8073ffffffffffffffffffffffffffffffffffffffff163373ffffffffffffffffffffffffffffffffffffffff16148061027657507f000000000000000000000000000000000000000000000000000000000000000073ffffffffffffffffffffffffffffffffffffffff163373ffffffffffffffffffffffffffffffffffffffff16145b6102ac576040517f82b4290000000000000000000000000000000000000000000000000000000000815260040160405180910390fd5b85600260008273ffffffffffffffffffffffffffffffffffffffff1673ffffffffffffffffffffffffffffffffffffffff16815260200190815260200160002060009054906101000a900460ff1615610331576040517ff76d29a900000000000000000000000000000000000000000000000000000000815260040160405180910390fd5b600061035c7f0000000000000000000000000000000000000000000000000000000000000000610707565b90508073ffffffffffffffffffffffffffffffffffffffff1663768f950a88888888336040518663ffffffff1660e01b815260040161039f959493929190610b34565b600060405180830381600087803b1580156103b957600080fd5b505af11580156103cd573d6000803e3d6000fd5b505050506000600160008a73ffffffffffffffffffffffffffffffffffffffff1673ffffffffffffffffffffffffffffffffffffffff1681526020019081526020016000209050818160000160006101000a81548173ffffffffffffffffffffffffffffffffffffffff021916908373ffffffffffffffffffffffffffffffffffffffff160217905550888160010160006101000a81548173ffffffffffffffffffffffffffffffffffffffff021916908373ffffffffffffffffffffffffffffffffffffffff1602179055506001600260008b73ffffffffffffffffffffffffffffffffffffffff1673ffffffffffffffffffffffffffffffffffffffff16815260200190815260200160002060006101000a81548160ff0219169083151502179055506104fc6000610771565b7f6c253b297385738b44c5cd705bc77dfaf43a58b0a4e9fe4f4eb44eebb417db11898360405161052d929190610aac565b60405180910390a1505050505050505050565b60008060000154905081565b7f000000000000000000000000000000000000000000000000000000000000000081565b6000600260008373ffffffffffffffffffffffffffffffffffffffff1673ffffffffffffffffffffffffffffffffffffffff16815260200190815260200160002060009054906101000a900460ff166105f5576040517f5173702000000000000000000000000000000000000000000000000000000000815260040160405180910390fd5b600160008373ffffffffffffffffffffffffffffffffffffffff1673ffffffffffffffffffffffffffffffffffffffff16815260200190815260200160002060000160009054906101000a900473ffffffffffffffffffffffffffffffffffffffff169050919050565b7f000000000000000000000000000000000000000000000000000000000000000081565b60026020528060005260406000206000915054906101000a900460ff1681565b60016020528060005260406000206000915090508060000160009054906101000a900473ffffffffffffffffffffffffffffffffffffffff16908060010160009054906101000a900473ffffffffffffffffffffffffffffffffffffffff16905082565b6000808260601b90506040517f3d602d80600a3d3981f3363d3d373d3d3d363d7300000000000000000000000081528160148201527f5af43d82803e903d91602b57fd5bf3000000000000000000000000000000000060288201526037816000f092505050919050565b6001816000016000828254019250508190555050565b600061079a61079584610bdc565b610bb7565b905080838252602082019050828560208602820111156107b957600080fd5b60005b858110156107e957816107cf8882610831565b8452602084019350602083019250506001810190506107bc565b5050509392505050565b600061080661080184610c08565b610bb7565b90508281526020810184848401111561081e57600080fd5b610829848285610cfa565b509392505050565b60008135905061084081610dad565b92915050565b600082601f83011261085757600080fd5b8135610867848260208601610787565b91505092915050565b600082601f83011261088157600080fd5b81356108918482602086016107f3565b91505092915050565b6000813590506108a981610dc4565b92915050565b6000602082840312156108c157600080fd5b60006108cf84828501610831565b91505092915050565b600080600080600060a086880312156108f057600080fd5b60006108fe88828901610831565b955050602086013567ffffffffffffffff81111561091b57600080fd5b61092788828901610870565b945050604086013567ffffffffffffffff81111561094457600080fd5b61095088828901610870565b935050606086013567ffffffffffffffff81111561096d57600080fd5b61097988828901610846565b925050608061098a8882890161089a565b9150509295509295909350565b60006109a383836109af565b60208301905092915050565b6109b881610c8e565b82525050565b6109c781610c8e565b82525050565b60006109d882610c49565b6109e28185610c6c565b93506109ed83610c39565b8060005b83811015610a1e578151610a058882610997565b9750610a1083610c5f565b9250506001810190506109f1565b5085935050505092915050565b610a3481610ca0565b82525050565b610a4381610cd6565b82525050565b6000610a5482610c54565b610a5e8185610c7d565b9350610a6e818560208601610d09565b610a7781610d9c565b840191505092915050565b610a8b81610ccc565b82525050565b6000602082019050610aa660008301846109be565b92915050565b6000604082019050610ac160008301856109be565b610ace60208301846109be565b9392505050565b6000602082019050610aea6000830184610a2b565b92915050565b6000602082019050610b056000830184610a3a565b92915050565b6000604082019050610b206000830185610a3a565b610b2d60208301846109be565b9392505050565b600060a0820190508181036000830152610b4e8188610a49565b90508181036020830152610b628187610a49565b90508181036040830152610b7681866109cd565b9050610b856060830185610a82565b610b9260808301846109be565b9695505050505050565b6000602082019050610bb16000830184610a82565b92915050565b6000610bc1610bd2565b9050610bcd8282610d3c565b919050565b6000604051905090565b600067ffffffffffffffff821115610bf757610bf6610d6d565b5b602082029050602081019050919050565b600067ffffffffffffffff821115610c2357610c22610d6d565b5b610c2c82610d9c565b9050602081019050919050565b6000819050602082019050919050565b600081519050919050565b600081519050919050565b6000602082019050919050565b600082825260208201905092915050565b600082825260208201905092915050565b6000610c9982610cac565b9050919050565b60008115159050919050565b600073ffffffffffffffffffffffffffffffffffffffff82169050919050565b6000819050919050565b6000610ce182610ce8565b9050919050565b6000610cf382610cac565b9050919050565b82818337600083830152505050565b60005b83811015610d27578082015181840152602081019050610d0c565b83811115610d36576000848401525b50505050565b610d4582610d9c565b810181811067ffffffffffffffff82111715610d6457610d63610d6d565b5b80604052505050565b7f4e487b7100000000000000000000000000000000000000000000000000000000600052604160045260246000fd5b6000601f19601f8301169050919050565b610db681610c8e565b8114610dc157600080fd5b50565b610dcd81610ccc565b8114610dd857600080fd5b5056fea26469706673582212202846efb588f0794e322e2482b0a0fc304a2253dcabfee212eedb0ebdd00b8ea064736f6c63430008040033",
  "linkReferences": {},
  "deployedLinkReferences": {}
}