{
  "_format": "hh-sol-artifact-1",
  "contractName": "ERC777Factory",
  "sourceName": "contracts/ERC777Factory.sol",
  "abi": [
    {
      "inputs": [
        {
          "internalType": "address",
          "name": "_masterContract",
          "type": "address"
        },
        {
          "internalType": "address",
          "name": "_owner",
          "type": "address"
        }
      ],
      "stateMutability": "nonpayable",
      "type": "constructor"
    },
    {
      "inputs": [],
      "name": "InstanceAlreadyInitialized",
      "type": "error"
    },
    {
      "inputs": [],
      "name": "InstanceDoesNotExist",
      "type": "error"
    },
    {
      "inputs": [],
      "name": "Unauthorized",
      "type": "error"
    },
    {
      "inputs": [],
      "name": "ZeroAddress",
      "type": "error"
    },
    {
      "anonymous": false,
      "inputs": [
        {
          "indexed": false,
          "internalType": "address",
          "name": "_tenant",
          "type": "address"
        },
        {
          "indexed": false,
          "internalType": "address",
          "name": "_proxy",
          "type": "address"
        }
      ],
      "name": "TenantCreated",
      "type": "event"
    },
    {
      "inputs": [
        {
          "internalType": "address",
          "name": "_tenant",
          "type": "address"
        },
        {
          "internalType": "string",
          "name": "_name",
          "type": "string"
        },
        {
          "internalType": "string",
          "name": "_symbol",
          "type": "string"
        },
        {
          "internalType": "address[]",
          "name": "_defaultOperators",
          "type": "address[]"
        },
        {
          "internalType": "uint256",
          "name": "_initialSupply",
          "type": "uint256"
        }
      ],
      "name": "createInstance",
      "outputs": [],
      "stateMutability": "nonpayable",
      "type": "function"
    },
    {
      "inputs": [
        {
          "internalType": "address",
          "name": "_tenant",
          "type": "address"
        }
      ],
      "name": "getProxy",
      "outputs": [
        {
          "internalType": "contract ERC777",
          "name": "",
          "type": "address"
        }
      ],
      "stateMutability": "view",
      "type": "function"
    },
    {
      "inputs": [
        {
          "internalType": "address",
          "name": "",
          "type": "address"
        }
      ],
      "name": "instance",
      "outputs": [
        {
          "internalType": "bool",
          "name": "",
          "type": "bool"
        }
      ],
      "stateMutability": "view",
      "type": "function"
    },
    {
      "inputs": [],
      "name": "masterContract",
      "outputs": [
        {
          "internalType": "address",
          "name": "",
          "type": "address"
        }
      ],
      "stateMutability": "view",
      "type": "function"
    },
    {
      "inputs": [],
      "name": "owner",
      "outputs": [
        {
          "internalType": "address",
          "name": "",
          "type": "address"
        }
      ],
      "stateMutability": "view",
      "type": "function"
    },
    {
      "inputs": [],
      "name": "tenantCounter",
      "outputs": [
        {
          "internalType": "uint256",
          "name": "_value",
          "type": "uint256"
        }
      ],
      "stateMutability": "view",
      "type": "function"
    },
    {
      "inputs": [
        {
          "internalType": "address",
          "name": "",
          "type": "address"
        }
      ],
      "name": "tenants",
      "outputs": [
        {
          "internalType": "contract ERC777",
          "name": "erc777",
          "type": "address"
        },
        {
          "internalType": "address",
          "name": "owner",
          "type": "address"
        }
      ],
      "stateMutability": "view",
      "type": "function"
    }
  ],
  "bytecode": "0x60c06040527362a7aa79a52591ccc62b71729329a80a666fa50f600360006101000a81548173ffffffffffffffffffffffffffffffffffffffff021916908373ffffffffffffffffffffffffffffffffffffffff16021790555034801561006557600080fd5b50604051610fdb380380610fdb83398181016040528101906100879190610111565b8173ffffffffffffffffffffffffffffffffffffffff1660a08173ffffffffffffffffffffffffffffffffffffffff1660601b815250508073ffffffffffffffffffffffffffffffffffffffff1660808173ffffffffffffffffffffffffffffffffffffffff1660601b815250505050610196565b60008151905061010b8161017f565b92915050565b6000806040838503121561012457600080fd5b6000610132858286016100fc565b9250506020610143858286016100fc565b9150509250929050565b60006101588261015f565b9050919050565b600073ffffffffffffffffffffffffffffffffffffffff82169050919050565b6101888161014d565b811461019357600080fd5b50565b60805160601c60a05160601c610e136101c86000396000818161033a0152610663015260006105500152610e136000f3fe608060405234801561001057600080fd5b506004361061007d5760003560e01c8063b7fba4d31161005b578063b7fba4d3146100da578063cd446e221461010a578063cf33d58814610128578063fd9153a3146101585761007d565b80631ab88628146100825780631e9b47551461009e5780638da5cb5b146100bc575b600080fd5b61009c600480360381019061009791906108da565b610189565b005b6100a6610542565b6040516100b39190610b9e565b60405180910390f35b6100c461054e565b6040516100d19190610a93565b60405180910390f35b6100f460048036038101906100ef91906108b1565b610572565b6040516101019190610af2565b60405180910390f35b610112610661565b60405161011f9190610a93565b60405180910390f35b610142600480360381019061013d91906108b1565b610685565b60405161014f9190610ad7565b60405180910390f35b610172600480360381019061016d91906108b1565b6106a5565b604051610180929190610b0d565b60405180910390f35b84600073ffffffffffffffffffffffffffffffffffffffff168173ffffffffffffffffffffffffffffffffffffffff1614156101f1576040517fd92e233d00000000000000000000000000000000000000000000000000000000815260040160405180910390fd5b8073ffffffffffffffffffffffffffffffffffffffff163373ffffffffffffffffffffffffffffffffffffffff1614806102785750600360009054906101000a900473ffffffffffffffffffffffffffffffffffffffff1673ffffffffffffffffffffffffffffffffffffffff163373ffffffffffffffffffffffffffffffffffffffff16145b6102ae576040517f82b4290000000000000000000000000000000000000000000000000000000000815260040160405180910390fd5b85600260008273ffffffffffffffffffffffffffffffffffffffff1673ffffffffffffffffffffffffffffffffffffffff16815260200190815260200160002060009054906101000a900460ff1615610333576040517ff76d29a900000000000000000000000000000000000000000000000000000000815260040160405180910390fd5b600061035e7f0000000000000000000000000000000000000000000000000000000000000000610709565b90508073ffffffffffffffffffffffffffffffffffffffff1663768f950a88888888336040518663ffffffff1660e01b81526004016103a1959493929190610b36565b600060405180830381600087803b1580156103bb57600080fd5b505af11580156103cf573d6000803e3d6000fd5b505050506000600160008a73ffffffffffffffffffffffffffffffffffffffff1673ffffffffffffffffffffffffffffffffffffffff1681526020019081526020016000209050818160000160006101000a81548173ffffffffffffffffffffffffffffffffffffffff021916908373ffffffffffffffffffffffffffffffffffffffff160217905550888160010160006101000a81548173ffffffffffffffffffffffffffffffffffffffff021916908373ffffffffffffffffffffffffffffffffffffffff1602179055506001600260008b73ffffffffffffffffffffffffffffffffffffffff1673ffffffffffffffffffffffffffffffffffffffff16815260200190815260200160002060006101000a81548160ff0219169083151502179055506104fe6000610773565b7f6c253b297385738b44c5cd705bc77dfaf43a58b0a4e9fe4f4eb44eebb417db11898360405161052f929190610aae565b60405180910390a1505050505050505050565b60008060000154905081565b7f000000000000000000000000000000000000000000000000000000000000000081565b6000600260008373ffffffffffffffffffffffffffffffffffffffff1673ffffffffffffffffffffffffffffffffffffffff16815260200190815260200160002060009054906101000a900460ff166105f7576040517f5173702000000000000000000000000000000000000000000000000000000000815260040160405180910390fd5b600160008373ffffffffffffffffffffffffffffffffffffffff1673ffffffffffffffffffffffffffffffffffffffff16815260200190815260200160002060000160009054906101000a900473ffffffffffffffffffffffffffffffffffffffff169050919050565b7f000000000000000000000000000000000000000000000000000000000000000081565b60026020528060005260406000206000915054906101000a900460ff1681565b60016020528060005260406000206000915090508060000160009054906101000a900473ffffffffffffffffffffffffffffffffffffffff16908060010160009054906101000a900473ffffffffffffffffffffffffffffffffffffffff16905082565b6000808260601b90506040517f3d602d80600a3d3981f3363d3d373d3d3d363d7300000000000000000000000081528160148201527f5af43d82803e903d91602b57fd5bf3000000000000000000000000000000000060288201526037816000f092505050919050565b6001816000016000828254019250508190555050565b600061079c61079784610bde565b610bb9565b905080838252602082019050828560208602820111156107bb57600080fd5b60005b858110156107eb57816107d18882610833565b8452602084019350602083019250506001810190506107be565b5050509392505050565b600061080861080384610c0a565b610bb9565b90508281526020810184848401111561082057600080fd5b61082b848285610cfc565b509392505050565b60008135905061084281610daf565b92915050565b600082601f83011261085957600080fd5b8135610869848260208601610789565b91505092915050565b600082601f83011261088357600080fd5b81356108938482602086016107f5565b91505092915050565b6000813590506108ab81610dc6565b92915050565b6000602082840312156108c357600080fd5b60006108d184828501610833565b91505092915050565b600080600080600060a086880312156108f257600080fd5b600061090088828901610833565b955050602086013567ffffffffffffffff81111561091d57600080fd5b61092988828901610872565b945050604086013567ffffffffffffffff81111561094657600080fd5b61095288828901610872565b935050606086013567ffffffffffffffff81111561096f57600080fd5b61097b88828901610848565b925050608061098c8882890161089c565b9150509295509295909350565b60006109a583836109b1565b60208301905092915050565b6109ba81610c90565b82525050565b6109c981610c90565b82525050565b60006109da82610c4b565b6109e48185610c6e565b93506109ef83610c3b565b8060005b83811015610a20578151610a078882610999565b9750610a1283610c61565b9250506001810190506109f3565b5085935050505092915050565b610a3681610ca2565b82525050565b610a4581610cd8565b82525050565b6000610a5682610c56565b610a608185610c7f565b9350610a70818560208601610d0b565b610a7981610d9e565b840191505092915050565b610a8d81610cce565b82525050565b6000602082019050610aa860008301846109c0565b92915050565b6000604082019050610ac360008301856109c0565b610ad060208301846109c0565b9392505050565b6000602082019050610aec6000830184610a2d565b92915050565b6000602082019050610b076000830184610a3c565b92915050565b6000604082019050610b226000830185610a3c565b610b2f60208301846109c0565b9392505050565b600060a0820190508181036000830152610b508188610a4b565b90508181036020830152610b648187610a4b565b90508181036040830152610b7881866109cf565b9050610b876060830185610a84565b610b9460808301846109c0565b9695505050505050565b6000602082019050610bb36000830184610a84565b92915050565b6000610bc3610bd4565b9050610bcf8282610d3e565b919050565b6000604051905090565b600067ffffffffffffffff821115610bf957610bf8610d6f565b5b602082029050602081019050919050565b600067ffffffffffffffff821115610c2557610c24610d6f565b5b610c2e82610d9e565b9050602081019050919050565b6000819050602082019050919050565b600081519050919050565b600081519050919050565b6000602082019050919050565b600082825260208201905092915050565b600082825260208201905092915050565b6000610c9b82610cae565b9050919050565b60008115159050919050565b600073ffffffffffffffffffffffffffffffffffffffff82169050919050565b6000819050919050565b6000610ce382610cea565b9050919050565b6000610cf582610cae565b9050919050565b82818337600083830152505050565b60005b83811015610d29578082015181840152602081019050610d0e565b83811115610d38576000848401525b50505050565b610d4782610d9e565b810181811067ffffffffffffffff82111715610d6657610d65610d6f565b5b80604052505050565b7f4e487b7100000000000000000000000000000000000000000000000000000000600052604160045260246000fd5b6000601f19601f8301169050919050565b610db881610c90565b8114610dc357600080fd5b50565b610dcf81610cce565b8114610dda57600080fd5b5056fea2646970667358221220c51dd77c9ee2252d25a59da32a90707af4a85b743169464bcfb10731507f7e0664736f6c63430008040033",
  "linkReferences": {},
  "deployedLinkReferences": {}
}