{
  "_format": "hh-sol-artifact-1",
  "contractName": "ERC20Factory",
  "sourceName": "contracts/ERC20Factory.sol",
  "abi": [
    {
      "inputs": [
        {
          "internalType": "address",
          "name": "_masterContract",
          "type": "address"
        },
        {
          "internalType": "address",
          "name": "_owner",
          "type": "address"
        }
      ],
      "stateMutability": "nonpayable",
      "type": "constructor"
    },
    {
      "inputs": [],
      "name": "InstanceAlreadyInitialized",
      "type": "error"
    },
    {
      "inputs": [],
      "name": "InstanceDoesNotExist",
      "type": "error"
    },
    {
      "inputs": [],
      "name": "Unauthorized",
      "type": "error"
    },
    {
      "inputs": [],
      "name": "ZeroAddress",
      "type": "error"
    },
    {
      "anonymous": false,
      "inputs": [
        {
          "indexed": false,
          "internalType": "address",
          "name": "_tenant",
          "type": "address"
        },
        {
          "indexed": false,
          "internalType": "address",
          "name": "_proxy",
          "type": "address"
        }
      ],
      "name": "TenantCreated",
      "type": "event"
    },
    {
      "inputs": [
        {
          "internalType": "address",
          "name": "_tenant",
          "type": "address"
        },
        {
          "internalType": "string",
          "name": "_name",
          "type": "string"
        },
        {
          "internalType": "string",
          "name": "_symbol",
          "type": "string"
        },
        {
          "internalType": "uint256",
          "name": "_decimal",
          "type": "uint256"
        }
      ],
      "name": "createInstance",
      "outputs": [],
      "stateMutability": "nonpayable",
      "type": "function"
    },
    {
      "inputs": [
        {
          "internalType": "address",
          "name": "_tenant",
          "type": "address"
        }
      ],
      "name": "getProxy",
      "outputs": [
        {
          "internalType": "contract ERC20",
          "name": "",
          "type": "address"
        }
      ],
      "stateMutability": "view",
      "type": "function"
    },
    {
      "inputs": [
        {
          "internalType": "address",
          "name": "",
          "type": "address"
        }
      ],
      "name": "instance",
      "outputs": [
        {
          "internalType": "bool",
          "name": "",
          "type": "bool"
        }
      ],
      "stateMutability": "view",
      "type": "function"
    },
    {
      "inputs": [],
      "name": "masterContract",
      "outputs": [
        {
          "internalType": "address",
          "name": "",
          "type": "address"
        }
      ],
      "stateMutability": "view",
      "type": "function"
    },
    {
      "inputs": [],
      "name": "owner",
      "outputs": [
        {
          "internalType": "address",
          "name": "",
          "type": "address"
        }
      ],
      "stateMutability": "view",
      "type": "function"
    },
    {
      "inputs": [],
      "name": "tenantCounter",
      "outputs": [
        {
          "internalType": "uint256",
          "name": "_value",
          "type": "uint256"
        }
      ],
      "stateMutability": "view",
      "type": "function"
    },
    {
      "inputs": [
        {
          "internalType": "address",
          "name": "",
          "type": "address"
        }
      ],
      "name": "tenants",
      "outputs": [
        {
          "internalType": "contract ERC20",
          "name": "erc20",
          "type": "address"
        },
        {
          "internalType": "address",
          "name": "owner",
          "type": "address"
        }
      ],
      "stateMutability": "view",
      "type": "function"
    }
  ],
  "bytecode": "0x60c06040527362a7aa79a52591ccc62b71729329a80a666fa50f600360006101000a81548173ffffffffffffffffffffffffffffffffffffffff021916908373ffffffffffffffffffffffffffffffffffffffff16021790555034801561006557600080fd5b50604051610e17380380610e1783398181016040528101906100879190610111565b8173ffffffffffffffffffffffffffffffffffffffff1660a08173ffffffffffffffffffffffffffffffffffffffff1660601b815250508073ffffffffffffffffffffffffffffffffffffffff1660808173ffffffffffffffffffffffffffffffffffffffff1660601b815250505050610196565b60008151905061010b8161017f565b92915050565b6000806040838503121561012457600080fd5b6000610132858286016100fc565b9250506020610143858286016100fc565b9150509250929050565b60006101588261015f565b9050919050565b600073ffffffffffffffffffffffffffffffffffffffff82169050919050565b6101888161014d565b811461019357600080fd5b50565b60805160601c60a05160601c610c4f6101c8600039600081816104590152610660015260006101970152610c4f6000f3fe608060405234801561001057600080fd5b506004361061007d5760003560e01c8063c7330d741161005b578063c7330d74146100ee578063cd446e221461010a578063cf33d58814610128578063fd9153a3146101585761007d565b80631e9b4755146100825780638da5cb5b146100a0578063b7fba4d3146100be575b600080fd5b61008a610189565b6040516100979190610a3f565b60405180910390f35b6100a8610195565b6040516100b59190610949565b60405180910390f35b6100d860048036038101906100d39190610818565b6101b9565b6040516100e591906109a8565b60405180910390f35b61010860048036038101906101039190610841565b6102a8565b005b61011261065e565b60405161011f9190610949565b60405180910390f35b610142600480360381019061013d9190610818565b610682565b60405161014f919061098d565b60405180910390f35b610172600480360381019061016d9190610818565b6106a2565b6040516101809291906109c3565b60405180910390f35b60008060000154905081565b7f000000000000000000000000000000000000000000000000000000000000000081565b6000600260008373ffffffffffffffffffffffffffffffffffffffff1673ffffffffffffffffffffffffffffffffffffffff16815260200190815260200160002060009054906101000a900460ff1661023e576040517f5173702000000000000000000000000000000000000000000000000000000000815260040160405180910390fd5b600160008373ffffffffffffffffffffffffffffffffffffffff1673ffffffffffffffffffffffffffffffffffffffff16815260200190815260200160002060000160009054906101000a900473ffffffffffffffffffffffffffffffffffffffff169050919050565b83600073ffffffffffffffffffffffffffffffffffffffff168173ffffffffffffffffffffffffffffffffffffffff161415610310576040517fd92e233d00000000000000000000000000000000000000000000000000000000815260040160405180910390fd5b8073ffffffffffffffffffffffffffffffffffffffff163373ffffffffffffffffffffffffffffffffffffffff1614806103975750600360009054906101000a900473ffffffffffffffffffffffffffffffffffffffff1673ffffffffffffffffffffffffffffffffffffffff163373ffffffffffffffffffffffffffffffffffffffff16145b6103cd576040517f82b4290000000000000000000000000000000000000000000000000000000000815260040160405180910390fd5b84600260008273ffffffffffffffffffffffffffffffffffffffff1673ffffffffffffffffffffffffffffffffffffffff16815260200190815260200160002060009054906101000a900460ff1615610452576040517ff76d29a900000000000000000000000000000000000000000000000000000000815260040160405180910390fd5b600061047d7f0000000000000000000000000000000000000000000000000000000000000000610706565b90508073ffffffffffffffffffffffffffffffffffffffff1663bd3a13f6878787336040518563ffffffff1660e01b81526004016104be94939291906109ec565b600060405180830381600087803b1580156104d857600080fd5b505af11580156104ec573d6000803e3d6000fd5b505050506000600160008973ffffffffffffffffffffffffffffffffffffffff1673ffffffffffffffffffffffffffffffffffffffff1681526020019081526020016000209050818160000160006101000a81548173ffffffffffffffffffffffffffffffffffffffff021916908373ffffffffffffffffffffffffffffffffffffffff160217905550878160010160006101000a81548173ffffffffffffffffffffffffffffffffffffffff021916908373ffffffffffffffffffffffffffffffffffffffff1602179055506001600260008a73ffffffffffffffffffffffffffffffffffffffff1673ffffffffffffffffffffffffffffffffffffffff16815260200190815260200160002060006101000a81548160ff02191690831515021790555061061b6000610770565b7f6c253b297385738b44c5cd705bc77dfaf43a58b0a4e9fe4f4eb44eebb417db11888360405161064c929190610964565b60405180910390a15050505050505050565b7f000000000000000000000000000000000000000000000000000000000000000081565b60026020528060005260406000206000915054906101000a900460ff1681565b60016020528060005260406000206000915090508060000160009054906101000a900473ffffffffffffffffffffffffffffffffffffffff16908060010160009054906101000a900473ffffffffffffffffffffffffffffffffffffffff16905082565b6000808260601b90506040517f3d602d80600a3d3981f3363d3d373d3d3d363d7300000000000000000000000081528160148201527f5af43d82803e903d91602b57fd5bf3000000000000000000000000000000000060288201526037816000f092505050919050565b6001816000016000828254019250508190555050565b600061079961079484610a7f565b610a5a565b9050828152602081018484840111156107b157600080fd5b6107bc848285610b38565b509392505050565b6000813590506107d381610beb565b92915050565b600082601f8301126107ea57600080fd5b81356107fa848260208601610786565b91505092915050565b60008135905061081281610c02565b92915050565b60006020828403121561082a57600080fd5b6000610838848285016107c4565b91505092915050565b6000806000806080858703121561085757600080fd5b6000610865878288016107c4565b945050602085013567ffffffffffffffff81111561088257600080fd5b61088e878288016107d9565b935050604085013567ffffffffffffffff8111156108ab57600080fd5b6108b7878288016107d9565b92505060606108c887828801610803565b91505092959194509250565b6108dd81610acc565b82525050565b6108ec81610ade565b82525050565b6108fb81610b14565b82525050565b600061090c82610ab0565b6109168185610abb565b9350610926818560208601610b47565b61092f81610bda565b840191505092915050565b61094381610b0a565b82525050565b600060208201905061095e60008301846108d4565b92915050565b600060408201905061097960008301856108d4565b61098660208301846108d4565b9392505050565b60006020820190506109a260008301846108e3565b92915050565b60006020820190506109bd60008301846108f2565b92915050565b60006040820190506109d860008301856108f2565b6109e560208301846108d4565b9392505050565b60006080820190508181036000830152610a068187610901565b90508181036020830152610a1a8186610901565b9050610a29604083018561093a565b610a3660608301846108d4565b95945050505050565b6000602082019050610a54600083018461093a565b92915050565b6000610a64610a75565b9050610a708282610b7a565b919050565b6000604051905090565b600067ffffffffffffffff821115610a9a57610a99610bab565b5b610aa382610bda565b9050602081019050919050565b600081519050919050565b600082825260208201905092915050565b6000610ad782610aea565b9050919050565b60008115159050919050565b600073ffffffffffffffffffffffffffffffffffffffff82169050919050565b6000819050919050565b6000610b1f82610b26565b9050919050565b6000610b3182610aea565b9050919050565b82818337600083830152505050565b60005b83811015610b65578082015181840152602081019050610b4a565b83811115610b74576000848401525b50505050565b610b8382610bda565b810181811067ffffffffffffffff82111715610ba257610ba1610bab565b5b80604052505050565b7f4e487b7100000000000000000000000000000000000000000000000000000000600052604160045260246000fd5b6000601f19601f8301169050919050565b610bf481610acc565b8114610bff57600080fd5b50565b610c0b81610b0a565b8114610c1657600080fd5b5056fea264697066735822122007eb5be51d07c6be6834c753b2e2b2ea69a459256da9ecbda3cf759cbdba658f64736f6c63430008040033",
  "linkReferences": {},
  "deployedLinkReferences": {}
}