{
  "_format": "hh-sol-artifact-1",
  "contractName": "TokenFactory",
  "sourceName": "contracts/TokenFactory.sol",
  "abi": [
    {
      "inputs": [
        {
          "internalType": "address",
          "name": "_masterContract",
          "type": "address"
        },
        {
          "internalType": "address",
          "name": "_owner",
          "type": "address"
        }
      ],
      "stateMutability": "nonpayable",
      "type": "constructor"
    },
    {
      "inputs": [
        {
          "internalType": "address",
          "name": "_tenant",
          "type": "address"
        },
        {
          "internalType": "string",
          "name": "_name",
          "type": "string"
        },
        {
          "internalType": "string",
          "name": "_symbol",
          "type": "string"
        },
        {
          "internalType": "uint256",
          "name": "_decimal",
          "type": "uint256"
        }
      ],
      "name": "createInstance",
      "outputs": [],
      "stateMutability": "nonpayable",
      "type": "function"
    },
    {
      "inputs": [
        {
          "internalType": "address",
          "name": "_tenant",
          "type": "address"
        }
      ],
      "name": "getProxy",
      "outputs": [
        {
          "internalType": "contract Token",
          "name": "",
          "type": "address"
        }
      ],
      "stateMutability": "view",
      "type": "function"
    },
    {
      "inputs": [],
      "name": "masterContract",
      "outputs": [
        {
          "internalType": "address",
          "name": "",
          "type": "address"
        }
      ],
      "stateMutability": "view",
      "type": "function"
    },
    {
      "inputs": [],
      "name": "owner",
      "outputs": [
        {
          "internalType": "address",
          "name": "",
          "type": "address"
        }
      ],
      "stateMutability": "view",
      "type": "function"
    },
    {
      "inputs": [
        {
          "internalType": "address",
          "name": "",
          "type": "address"
        }
      ],
      "name": "tenants",
      "outputs": [
        {
          "internalType": "contract Token",
          "name": "token",
          "type": "address"
        },
        {
          "internalType": "address",
          "name": "owner",
          "type": "address"
        }
      ],
      "stateMutability": "view",
      "type": "function"
    }
  ],
  "bytecode": "0x60c060405273d847c7408c48b6b6720cca75eb30a93acbf5163d600160006101000a81548173ffffffffffffffffffffffffffffffffffffffff021916908373ffffffffffffffffffffffffffffffffffffffff16021790555034801561006557600080fd5b50604051610b75380380610b7583398181016040528101906100879190610111565b8173ffffffffffffffffffffffffffffffffffffffff1660808173ffffffffffffffffffffffffffffffffffffffff1660601b815250508073ffffffffffffffffffffffffffffffffffffffff1660a08173ffffffffffffffffffffffffffffffffffffffff1660601b815250505050610196565b60008151905061010b8161017f565b92915050565b6000806040838503121561012457600080fd5b6000610132858286016100fc565b9250506020610143858286016100fc565b9150509250929050565b60006101588261015f565b9050919050565b600073ffffffffffffffffffffffffffffffffffffffff82169050919050565b6101888161014d565b811461019357600080fd5b50565b60805160601c60a05160601c6109ad6101c8600039600061011701526000818161027201526103dc01526109ad6000f3fe608060405234801561001057600080fd5b50600436106100575760003560e01c80638da5cb5b1461005c578063b7fba4d31461007a578063c7330d74146100aa578063cd446e22146100c6578063fd9153a3146100e4575b600080fd5b610064610115565b60405161007191906106a3565b60405180910390f35b610094600480360381019061008f919061055e565b610139565b6040516100a191906106be565b60405180910390f35b6100c460048036038101906100bf9190610587565b6101a4565b005b6100ce6103da565b6040516100db91906106a3565b60405180910390f35b6100fe60048036038101906100f9919061055e565b6103fe565b60405161010c9291906106d9565b60405180910390f35b7f000000000000000000000000000000000000000000000000000000000000000081565b60008060008373ffffffffffffffffffffffffffffffffffffffff1673ffffffffffffffffffffffffffffffffffffffff16815260200190815260200160002060000160009054906101000a900473ffffffffffffffffffffffffffffffffffffffff169050919050565b838073ffffffffffffffffffffffffffffffffffffffff163373ffffffffffffffffffffffffffffffffffffffff16148061022c5750600160009054906101000a900473ffffffffffffffffffffffffffffffffffffffff1673ffffffffffffffffffffffffffffffffffffffff163373ffffffffffffffffffffffffffffffffffffffff16145b61026b576040517f08c379a000000000000000000000000000000000000000000000000000000000815260040161026290610755565b60405180910390fd5b60006102967f0000000000000000000000000000000000000000000000000000000000000000610462565b90508073ffffffffffffffffffffffffffffffffffffffff1663685d0a96868686336040518563ffffffff1660e01b81526004016102d79493929190610702565b600060405180830381600087803b1580156102f157600080fd5b505af1158015610305573d6000803e3d6000fd5b5050505060008060008873ffffffffffffffffffffffffffffffffffffffff1673ffffffffffffffffffffffffffffffffffffffff1681526020019081526020016000209050818160000160006101000a81548173ffffffffffffffffffffffffffffffffffffffff021916908373ffffffffffffffffffffffffffffffffffffffff160217905550868160010160006101000a81548173ffffffffffffffffffffffffffffffffffffffff021916908373ffffffffffffffffffffffffffffffffffffffff16021790555050505050505050565b7f000000000000000000000000000000000000000000000000000000000000000081565b60006020528060005260406000206000915090508060000160009054906101000a900473ffffffffffffffffffffffffffffffffffffffff16908060010160009054906101000a900473ffffffffffffffffffffffffffffffffffffffff16905082565b6000808260601b90506040517f3d602d80600a3d3981f3363d3d373d3d3d363d7300000000000000000000000081528160148201527f5af43d82803e903d91602b57fd5bf3000000000000000000000000000000000060288201526037816000f092505050919050565b60006104df6104da8461079a565b610775565b9050828152602081018484840111156104f757600080fd5b610502848285610847565b509392505050565b60008135905061051981610949565b92915050565b600082601f83011261053057600080fd5b81356105408482602086016104cc565b91505092915050565b60008135905061055881610960565b92915050565b60006020828403121561057057600080fd5b600061057e8482850161050a565b91505092915050565b6000806000806080858703121561059d57600080fd5b60006105ab8782880161050a565b945050602085013567ffffffffffffffff8111156105c857600080fd5b6105d48782880161051f565b935050604085013567ffffffffffffffff8111156105f157600080fd5b6105fd8782880161051f565b925050606061060e87828801610549565b91505092959194509250565b610623816107e7565b82525050565b61063281610823565b82525050565b6000610643826107cb565b61064d81856107d6565b935061065d818560208601610856565b610666816108e9565b840191505092915050565b600061067e6030836107d6565b9150610689826108fa565b604082019050919050565b61069d81610819565b82525050565b60006020820190506106b8600083018461061a565b92915050565b60006020820190506106d36000830184610629565b92915050565b60006040820190506106ee6000830185610629565b6106fb602083018461061a565b9392505050565b6000608082019050818103600083015261071c8187610638565b905081810360208301526107308186610638565b905061073f6040830185610694565b61074c606083018461061a565b95945050505050565b6000602082019050818103600083015261076e81610671565b9050919050565b600061077f610790565b905061078b8282610889565b919050565b6000604051905090565b600067ffffffffffffffff8211156107b5576107b46108ba565b5b6107be826108e9565b9050602081019050919050565b600081519050919050565b600082825260208201905092915050565b60006107f2826107f9565b9050919050565b600073ffffffffffffffffffffffffffffffffffffffff82169050919050565b6000819050919050565b600061082e82610835565b9050919050565b6000610840826107f9565b9050919050565b82818337600083830152505050565b60005b83811015610874578082015181840152602081019050610859565b83811115610883576000848401525b50505050565b610892826108e9565b810181811067ffffffffffffffff821117156108b1576108b06108ba565b5b80604052505050565b7f4e487b7100000000000000000000000000000000000000000000000000000000600052604160045260246000fd5b6000601f19601f8301169050919050565b7f506c656173652075736520612076616c6964206164647265737320746f20637260008201527f6561746520616e20696e7374616e636500000000000000000000000000000000602082015250565b610952816107e7565b811461095d57600080fd5b50565b61096981610819565b811461097457600080fd5b5056fea264697066735822122073f521db23537e70e25a81ef69b257591b8b9d0929a471030b540ef35fa8545364736f6c63430008040033",
  "linkReferences": {},
  "deployedLinkReferences": {}
}