{
  "_format": "hh-sol-artifact-1",
  "contractName": "TokenFactory",
  "sourceName": "contracts/TokenFactory.sol",
  "abi": [
    {
      "inputs": [
        {
          "internalType": "address",
          "name": "_masterContract",
          "type": "address"
        },
        {
          "internalType": "address",
          "name": "_owner",
          "type": "address"
        }
      ],
      "stateMutability": "nonpayable",
      "type": "constructor"
    },
    {
      "inputs": [
        {
          "internalType": "address",
          "name": "_tenant",
          "type": "address"
        },
        {
          "internalType": "string",
          "name": "_name",
          "type": "string"
        },
        {
          "internalType": "string",
          "name": "_symbol",
          "type": "string"
        },
        {
          "internalType": "uint256",
          "name": "_decimal",
          "type": "uint256"
        }
      ],
      "name": "createInstance",
      "outputs": [],
      "stateMutability": "nonpayable",
      "type": "function"
    },
    {
      "inputs": [
        {
          "internalType": "address",
          "name": "_tenant",
          "type": "address"
        }
      ],
      "name": "getProxy",
      "outputs": [
        {
          "internalType": "contract Token",
          "name": "",
          "type": "address"
        }
      ],
      "stateMutability": "view",
      "type": "function"
    },
    {
      "inputs": [
        {
          "internalType": "address",
          "name": "",
          "type": "address"
        }
      ],
      "name": "instance",
      "outputs": [
        {
          "internalType": "bool",
          "name": "",
          "type": "bool"
        }
      ],
      "stateMutability": "view",
      "type": "function"
    },
    {
      "inputs": [],
      "name": "masterContract",
      "outputs": [
        {
          "internalType": "address",
          "name": "",
          "type": "address"
        }
      ],
      "stateMutability": "view",
      "type": "function"
    },
    {
      "inputs": [],
      "name": "owner",
      "outputs": [
        {
          "internalType": "address",
          "name": "",
          "type": "address"
        }
      ],
      "stateMutability": "view",
      "type": "function"
    },
    {
      "inputs": [
        {
          "internalType": "address",
          "name": "",
          "type": "address"
        }
      ],
      "name": "tenants",
      "outputs": [
        {
          "internalType": "contract Token",
          "name": "token",
          "type": "address"
        },
        {
          "internalType": "address",
          "name": "owner",
          "type": "address"
        }
      ],
      "stateMutability": "view",
      "type": "function"
    }
  ],
  "bytecode": "0x60c060405273d847c7408c48b6b6720cca75eb30a93acbf5163d600260006101000a81548173ffffffffffffffffffffffffffffffffffffffff021916908373ffffffffffffffffffffffffffffffffffffffff16021790555034801561006557600080fd5b50604051610c06380380610c0683398181016040528101906100879190610111565b8173ffffffffffffffffffffffffffffffffffffffff1660808173ffffffffffffffffffffffffffffffffffffffff1660601b815250508073ffffffffffffffffffffffffffffffffffffffff1660a08173ffffffffffffffffffffffffffffffffffffffff1660601b815250505050610196565b60008151905061010b8161017f565b92915050565b6000806040838503121561012457600080fd5b6000610132858286016100fc565b9250506020610143858286016100fc565b9150509250929050565b60006101588261015f565b9050919050565b600073ffffffffffffffffffffffffffffffffffffffff82169050919050565b6101888161014d565b811461019357600080fd5b50565b60805160601c60a05160601c610a3e6101c860003960006101520152600081816102ad01526104170152610a3e6000f3fe608060405234801561001057600080fd5b50600436106100625760003560e01c80638da5cb5b14610067578063b7fba4d314610085578063c7330d74146100b5578063cd446e22146100d1578063cf33d588146100ef578063fd9153a31461011f575b600080fd5b61006f610150565b60405161007c919061070d565b60405180910390f35b61009f600480360381019061009a91906105b9565b610174565b6040516100ac9190610743565b60405180910390f35b6100cf60048036038101906100ca91906105e2565b6101df565b005b6100d9610415565b6040516100e6919061070d565b60405180910390f35b610109600480360381019061010491906105b9565b610439565b6040516101169190610728565b60405180910390f35b610139600480360381019061013491906105b9565b610459565b60405161014792919061075e565b60405180910390f35b7f000000000000000000000000000000000000000000000000000000000000000081565b60008060008373ffffffffffffffffffffffffffffffffffffffff1673ffffffffffffffffffffffffffffffffffffffff16815260200190815260200160002060000160009054906101000a900473ffffffffffffffffffffffffffffffffffffffff169050919050565b838073ffffffffffffffffffffffffffffffffffffffff163373ffffffffffffffffffffffffffffffffffffffff1614806102675750600260009054906101000a900473ffffffffffffffffffffffffffffffffffffffff1673ffffffffffffffffffffffffffffffffffffffff163373ffffffffffffffffffffffffffffffffffffffff16145b6102a6576040517f08c379a000000000000000000000000000000000000000000000000000000000815260040161029d906107da565b60405180910390fd5b60006102d17f00000000000000000000000000000000000000000000000000000000000000006104bd565b90508073ffffffffffffffffffffffffffffffffffffffff1663685d0a96868686336040518563ffffffff1660e01b81526004016103129493929190610787565b600060405180830381600087803b15801561032c57600080fd5b505af1158015610340573d6000803e3d6000fd5b5050505060008060008873ffffffffffffffffffffffffffffffffffffffff1673ffffffffffffffffffffffffffffffffffffffff1681526020019081526020016000209050818160000160006101000a81548173ffffffffffffffffffffffffffffffffffffffff021916908373ffffffffffffffffffffffffffffffffffffffff160217905550868160010160006101000a81548173ffffffffffffffffffffffffffffffffffffffff021916908373ffffffffffffffffffffffffffffffffffffffff16021790555050505050505050565b7f000000000000000000000000000000000000000000000000000000000000000081565b60016020528060005260406000206000915054906101000a900460ff1681565b60006020528060005260406000206000915090508060000160009054906101000a900473ffffffffffffffffffffffffffffffffffffffff16908060010160009054906101000a900473ffffffffffffffffffffffffffffffffffffffff16905082565b6000808260601b90506040517f3d602d80600a3d3981f3363d3d373d3d3d363d7300000000000000000000000081528160148201527f5af43d82803e903d91602b57fd5bf3000000000000000000000000000000000060288201526037816000f092505050919050565b600061053a6105358461081f565b6107fa565b90508281526020810184848401111561055257600080fd5b61055d8482856108d8565b509392505050565b600081359050610574816109da565b92915050565b600082601f83011261058b57600080fd5b813561059b848260208601610527565b91505092915050565b6000813590506105b3816109f1565b92915050565b6000602082840312156105cb57600080fd5b60006105d984828501610565565b91505092915050565b600080600080608085870312156105f857600080fd5b600061060687828801610565565b945050602085013567ffffffffffffffff81111561062357600080fd5b61062f8782880161057a565b935050604085013567ffffffffffffffff81111561064c57600080fd5b6106588782880161057a565b9250506060610669878288016105a4565b91505092959194509250565b61067e8161086c565b82525050565b61068d8161087e565b82525050565b61069c816108b4565b82525050565b60006106ad82610850565b6106b7818561085b565b93506106c78185602086016108e7565b6106d08161097a565b840191505092915050565b60006106e860308361085b565b91506106f38261098b565b604082019050919050565b610707816108aa565b82525050565b60006020820190506107226000830184610675565b92915050565b600060208201905061073d6000830184610684565b92915050565b60006020820190506107586000830184610693565b92915050565b60006040820190506107736000830185610693565b6107806020830184610675565b9392505050565b600060808201905081810360008301526107a181876106a2565b905081810360208301526107b581866106a2565b90506107c460408301856106fe565b6107d16060830184610675565b95945050505050565b600060208201905081810360008301526107f3816106db565b9050919050565b6000610804610815565b9050610810828261091a565b919050565b6000604051905090565b600067ffffffffffffffff82111561083a5761083961094b565b5b6108438261097a565b9050602081019050919050565b600081519050919050565b600082825260208201905092915050565b60006108778261088a565b9050919050565b60008115159050919050565b600073ffffffffffffffffffffffffffffffffffffffff82169050919050565b6000819050919050565b60006108bf826108c6565b9050919050565b60006108d18261088a565b9050919050565b82818337600083830152505050565b60005b838110156109055780820151818401526020810190506108ea565b83811115610914576000848401525b50505050565b6109238261097a565b810181811067ffffffffffffffff821117156109425761094161094b565b5b80604052505050565b7f4e487b7100000000000000000000000000000000000000000000000000000000600052604160045260246000fd5b6000601f19601f8301169050919050565b7f506c656173652075736520612076616c6964206164647265737320746f20637260008201527f6561746520616e20696e7374616e636500000000000000000000000000000000602082015250565b6109e38161086c565b81146109ee57600080fd5b50565b6109fa816108aa565b8114610a0557600080fd5b5056fea26469706673582212200e77d91bdda10b2dcd2505659a052536ab70b7e2a13c0782f89490c28f027b7764736f6c63430008040033",
  "linkReferences": {},
  "deployedLinkReferences": {}
}