{
  "_format": "hh-sol-artifact-1",
  "contractName": "TokenFactory",
  "sourceName": "contracts/TokenFactory.sol",
  "abi": [
    {
      "inputs": [
        {
          "internalType": "address",
          "name": "_masterContract",
          "type": "address"
        }
      ],
      "stateMutability": "nonpayable",
      "type": "constructor"
    },
    {
      "inputs": [
        {
          "internalType": "address",
          "name": "_tenant",
          "type": "address"
        },
        {
          "internalType": "string",
          "name": "_name",
          "type": "string"
        },
        {
          "internalType": "string",
          "name": "_symbol",
          "type": "string"
        },
        {
          "internalType": "uint256",
          "name": "_decimal",
          "type": "uint256"
        }
      ],
      "name": "createInstance",
      "outputs": [],
      "stateMutability": "nonpayable",
      "type": "function"
    },
    {
      "inputs": [
        {
          "internalType": "address",
          "name": "_tenant",
          "type": "address"
        }
      ],
      "name": "getProxy",
      "outputs": [
        {
          "internalType": "contract Token",
          "name": "",
          "type": "address"
        }
      ],
      "stateMutability": "view",
      "type": "function"
    },
    {
      "inputs": [],
      "name": "masterContract",
      "outputs": [
        {
          "internalType": "address",
          "name": "",
          "type": "address"
        }
      ],
      "stateMutability": "view",
      "type": "function"
    },
    {
      "inputs": [
        {
          "internalType": "address",
          "name": "",
          "type": "address"
        }
      ],
      "name": "tenants",
      "outputs": [
        {
          "internalType": "contract Token",
          "name": "token",
          "type": "address"
        },
        {
          "internalType": "address",
          "name": "owner",
          "type": "address"
        }
      ],
      "stateMutability": "view",
      "type": "function"
    }
  ],
  "bytecode": "0x60a060405273d847c7408c48b6b6720cca75eb30a93acbf5163d600160006101000a81548173ffffffffffffffffffffffffffffffffffffffff021916908373ffffffffffffffffffffffffffffffffffffffff16021790555034801561006557600080fd5b50604051610ad0380380610ad0833981810160405281019061008791906100d9565b8073ffffffffffffffffffffffffffffffffffffffff1660808173ffffffffffffffffffffffffffffffffffffffff1660601b815250505061014b565b6000815190506100d381610134565b92915050565b6000602082840312156100eb57600080fd5b60006100f9848285016100c4565b91505092915050565b600061010d82610114565b9050919050565b600073ffffffffffffffffffffffffffffffffffffffff82169050919050565b61013d81610102565b811461014857600080fd5b50565b60805160601c61096061017060003960008181610225015261038f01526109606000f3fe608060405234801561001057600080fd5b506004361061004c5760003560e01c8063b7fba4d314610051578063c7330d7414610081578063cd446e221461009d578063fd9153a3146100bb575b600080fd5b61006b60048036038101906100669190610511565b6100ec565b6040516100789190610671565b60405180910390f35b61009b6004803603810190610096919061053a565b610157565b005b6100a561038d565b6040516100b29190610656565b60405180910390f35b6100d560048036038101906100d09190610511565b6103b1565b6040516100e392919061068c565b60405180910390f35b60008060008373ffffffffffffffffffffffffffffffffffffffff1673ffffffffffffffffffffffffffffffffffffffff16815260200190815260200160002060000160009054906101000a900473ffffffffffffffffffffffffffffffffffffffff169050919050565b838073ffffffffffffffffffffffffffffffffffffffff163373ffffffffffffffffffffffffffffffffffffffff1614806101df5750600160009054906101000a900473ffffffffffffffffffffffffffffffffffffffff1673ffffffffffffffffffffffffffffffffffffffff163373ffffffffffffffffffffffffffffffffffffffff16145b61021e576040517f08c379a000000000000000000000000000000000000000000000000000000000815260040161021590610708565b60405180910390fd5b60006102497f0000000000000000000000000000000000000000000000000000000000000000610415565b90508073ffffffffffffffffffffffffffffffffffffffff1663685d0a96868686336040518563ffffffff1660e01b815260040161028a94939291906106b5565b600060405180830381600087803b1580156102a457600080fd5b505af11580156102b8573d6000803e3d6000fd5b5050505060008060008873ffffffffffffffffffffffffffffffffffffffff1673ffffffffffffffffffffffffffffffffffffffff1681526020019081526020016000209050818160000160006101000a81548173ffffffffffffffffffffffffffffffffffffffff021916908373ffffffffffffffffffffffffffffffffffffffff160217905550868160010160006101000a81548173ffffffffffffffffffffffffffffffffffffffff021916908373ffffffffffffffffffffffffffffffffffffffff16021790555050505050505050565b7f000000000000000000000000000000000000000000000000000000000000000081565b60006020528060005260406000206000915090508060000160009054906101000a900473ffffffffffffffffffffffffffffffffffffffff16908060010160009054906101000a900473ffffffffffffffffffffffffffffffffffffffff16905082565b6000808260601b90506040517f3d602d80600a3d3981f3363d3d373d3d3d363d7300000000000000000000000081528160148201527f5af43d82803e903d91602b57fd5bf3000000000000000000000000000000000060288201526037816000f092505050919050565b600061049261048d8461074d565b610728565b9050828152602081018484840111156104aa57600080fd5b6104b58482856107fa565b509392505050565b6000813590506104cc816108fc565b92915050565b600082601f8301126104e357600080fd5b81356104f384826020860161047f565b91505092915050565b60008135905061050b81610913565b92915050565b60006020828403121561052357600080fd5b6000610531848285016104bd565b91505092915050565b6000806000806080858703121561055057600080fd5b600061055e878288016104bd565b945050602085013567ffffffffffffffff81111561057b57600080fd5b610587878288016104d2565b935050604085013567ffffffffffffffff8111156105a457600080fd5b6105b0878288016104d2565b92505060606105c1878288016104fc565b91505092959194509250565b6105d68161079a565b82525050565b6105e5816107d6565b82525050565b60006105f68261077e565b6106008185610789565b9350610610818560208601610809565b6106198161089c565b840191505092915050565b6000610631603083610789565b915061063c826108ad565b604082019050919050565b610650816107cc565b82525050565b600060208201905061066b60008301846105cd565b92915050565b600060208201905061068660008301846105dc565b92915050565b60006040820190506106a160008301856105dc565b6106ae60208301846105cd565b9392505050565b600060808201905081810360008301526106cf81876105eb565b905081810360208301526106e381866105eb565b90506106f26040830185610647565b6106ff60608301846105cd565b95945050505050565b6000602082019050818103600083015261072181610624565b9050919050565b6000610732610743565b905061073e828261083c565b919050565b6000604051905090565b600067ffffffffffffffff8211156107685761076761086d565b5b6107718261089c565b9050602081019050919050565b600081519050919050565b600082825260208201905092915050565b60006107a5826107ac565b9050919050565b600073ffffffffffffffffffffffffffffffffffffffff82169050919050565b6000819050919050565b60006107e1826107e8565b9050919050565b60006107f3826107ac565b9050919050565b82818337600083830152505050565b60005b8381101561082757808201518184015260208101905061080c565b83811115610836576000848401525b50505050565b6108458261089c565b810181811067ffffffffffffffff821117156108645761086361086d565b5b80604052505050565b7f4e487b7100000000000000000000000000000000000000000000000000000000600052604160045260246000fd5b6000601f19601f8301169050919050565b7f506c656173652075736520612076616c6964206164647265737320746f20637260008201527f6561746520616e20696e7374616e636500000000000000000000000000000000602082015250565b6109058161079a565b811461091057600080fd5b50565b61091c816107cc565b811461092757600080fd5b5056fea26469706673582212206fc3133e957a61b20d9b4960d99eee223773bf5123e5b53fbf31ac1e1d2d0fb164736f6c63430008040033",
  "linkReferences": {},
  "deployedLinkReferences": {}
}