{
  "_format": "hh-sol-artifact-1",
  "contractName": "TokenFactory",
  "sourceName": "contracts/TokenFactory.sol",
  "abi": [
    {
      "inputs": [
        {
          "internalType": "address",
          "name": "_masterContract",
          "type": "address"
        }
      ],
      "stateMutability": "nonpayable",
      "type": "constructor"
    },
    {
      "inputs": [
        {
          "internalType": "address",
          "name": "_tenant",
          "type": "address"
        },
        {
          "internalType": "string",
          "name": "_name",
          "type": "string"
        },
        {
          "internalType": "string",
          "name": "_symbol",
          "type": "string"
        },
        {
          "internalType": "uint256",
          "name": "_decimal",
          "type": "uint256"
        }
      ],
      "name": "createInstance",
      "outputs": [],
      "stateMutability": "nonpayable",
      "type": "function"
    },
    {
      "inputs": [
        {
          "internalType": "address",
          "name": "_tenant",
          "type": "address"
        }
      ],
      "name": "getProxy",
      "outputs": [
        {
          "internalType": "contract Token",
          "name": "",
          "type": "address"
        }
      ],
      "stateMutability": "view",
      "type": "function"
    },
    {
      "inputs": [],
      "name": "masterContract",
      "outputs": [
        {
          "internalType": "address",
          "name": "",
          "type": "address"
        }
      ],
      "stateMutability": "view",
      "type": "function"
    },
    {
      "inputs": [
        {
          "internalType": "address",
          "name": "",
          "type": "address"
        }
      ],
      "name": "tenants",
      "outputs": [
        {
          "internalType": "contract Token",
          "name": "token",
          "type": "address"
        },
        {
          "internalType": "address",
          "name": "owner",
          "type": "address"
        }
      ],
      "stateMutability": "view",
      "type": "function"
    },
    {
      "inputs": [
        {
          "internalType": "address",
          "name": "_tenant",
          "type": "address"
        }
      ],
      "name": "totalSupply",
      "outputs": [
        {
          "internalType": "uint256",
          "name": "",
          "type": "uint256"
        }
      ],
      "stateMutability": "view",
      "type": "function"
    }
  ],
  "bytecode": "0x60a060405273d847c7408c48b6b6720cca75eb30a93acbf5163d600160006101000a81548173ffffffffffffffffffffffffffffffffffffffff021916908373ffffffffffffffffffffffffffffffffffffffff16021790555034801561006557600080fd5b50604051610bf3380380610bf3833981810160405281019061008791906100d9565b8073ffffffffffffffffffffffffffffffffffffffff1660808173ffffffffffffffffffffffffffffffffffffffff1660601b815250505061014b565b6000815190506100d381610134565b92915050565b6000602082840312156100eb57600080fd5b60006100f9848285016100c4565b91505092915050565b600061010d82610114565b9050919050565b600073ffffffffffffffffffffffffffffffffffffffff82169050919050565b61013d81610102565b811461014857600080fd5b50565b60805160601c610a836101706000396000818161026001526103ca0152610a836000f3fe608060405234801561001057600080fd5b50600436106100575760003560e01c8063b7fba4d31461005c578063c7330d741461008c578063cd446e22146100a8578063e4dc2aa4146100c6578063fd9153a3146100f6575b600080fd5b610076600480360381019061007191906105f0565b610127565b6040516100839190610779565b60405180910390f35b6100a660048036038101906100a19190610619565b610192565b005b6100b06103c8565b6040516100bd919061075e565b60405180910390f35b6100e060048036038101906100db91906105f0565b6103ec565b6040516100ed9190610830565b60405180910390f35b610110600480360381019061010b91906105f0565b61047b565b60405161011e929190610794565b60405180910390f35b60008060008373ffffffffffffffffffffffffffffffffffffffff1673ffffffffffffffffffffffffffffffffffffffff16815260200190815260200160002060000160009054906101000a900473ffffffffffffffffffffffffffffffffffffffff169050919050565b838073ffffffffffffffffffffffffffffffffffffffff163373ffffffffffffffffffffffffffffffffffffffff16148061021a5750600160009054906101000a900473ffffffffffffffffffffffffffffffffffffffff1673ffffffffffffffffffffffffffffffffffffffff163373ffffffffffffffffffffffffffffffffffffffff16145b610259576040517f08c379a000000000000000000000000000000000000000000000000000000000815260040161025090610810565b60405180910390fd5b60006102847f00000000000000000000000000000000000000000000000000000000000000006104df565b90508073ffffffffffffffffffffffffffffffffffffffff1663685d0a96868686336040518563ffffffff1660e01b81526004016102c594939291906107bd565b600060405180830381600087803b1580156102df57600080fd5b505af11580156102f3573d6000803e3d6000fd5b5050505060008060008873ffffffffffffffffffffffffffffffffffffffff1673ffffffffffffffffffffffffffffffffffffffff1681526020019081526020016000209050818160000160006101000a81548173ffffffffffffffffffffffffffffffffffffffff021916908373ffffffffffffffffffffffffffffffffffffffff160217905550868160010160006101000a81548173ffffffffffffffffffffffffffffffffffffffff021916908373ffffffffffffffffffffffffffffffffffffffff16021790555050505050505050565b7f000000000000000000000000000000000000000000000000000000000000000081565b60006103f782610127565b73ffffffffffffffffffffffffffffffffffffffff166318160ddd6040518163ffffffff1660e01b815260040160206040518083038186803b15801561043c57600080fd5b505afa158015610450573d6000803e3d6000fd5b505050506040513d601f19601f8201168201806040525081019061047491906106ac565b9050919050565b60006020528060005260406000206000915090508060000160009054906101000a900473ffffffffffffffffffffffffffffffffffffffff16908060010160009054906101000a900473ffffffffffffffffffffffffffffffffffffffff16905082565b6000808260601b90506040517f3d602d80600a3d3981f3363d3d373d3d3d363d7300000000000000000000000081528160148201527f5af43d82803e903d91602b57fd5bf3000000000000000000000000000000000060288201526037816000f092505050919050565b600061055c61055784610870565b61084b565b90508281526020810184848401111561057457600080fd5b61057f84828561091d565b509392505050565b60008135905061059681610a1f565b92915050565b600082601f8301126105ad57600080fd5b81356105bd848260208601610549565b91505092915050565b6000813590506105d581610a36565b92915050565b6000815190506105ea81610a36565b92915050565b60006020828403121561060257600080fd5b600061061084828501610587565b91505092915050565b6000806000806080858703121561062f57600080fd5b600061063d87828801610587565b945050602085013567ffffffffffffffff81111561065a57600080fd5b6106668782880161059c565b935050604085013567ffffffffffffffff81111561068357600080fd5b61068f8782880161059c565b92505060606106a0878288016105c6565b91505092959194509250565b6000602082840312156106be57600080fd5b60006106cc848285016105db565b91505092915050565b6106de816108bd565b82525050565b6106ed816108f9565b82525050565b60006106fe826108a1565b61070881856108ac565b935061071881856020860161092c565b610721816109bf565b840191505092915050565b60006107396030836108ac565b9150610744826109d0565b604082019050919050565b610758816108ef565b82525050565b600060208201905061077360008301846106d5565b92915050565b600060208201905061078e60008301846106e4565b92915050565b60006040820190506107a960008301856106e4565b6107b660208301846106d5565b9392505050565b600060808201905081810360008301526107d781876106f3565b905081810360208301526107eb81866106f3565b90506107fa604083018561074f565b61080760608301846106d5565b95945050505050565b600060208201905081810360008301526108298161072c565b9050919050565b6000602082019050610845600083018461074f565b92915050565b6000610855610866565b9050610861828261095f565b919050565b6000604051905090565b600067ffffffffffffffff82111561088b5761088a610990565b5b610894826109bf565b9050602081019050919050565b600081519050919050565b600082825260208201905092915050565b60006108c8826108cf565b9050919050565b600073ffffffffffffffffffffffffffffffffffffffff82169050919050565b6000819050919050565b60006109048261090b565b9050919050565b6000610916826108cf565b9050919050565b82818337600083830152505050565b60005b8381101561094a57808201518184015260208101905061092f565b83811115610959576000848401525b50505050565b610968826109bf565b810181811067ffffffffffffffff8211171561098757610986610990565b5b80604052505050565b7f4e487b7100000000000000000000000000000000000000000000000000000000600052604160045260246000fd5b6000601f19601f8301169050919050565b7f506c656173652075736520612076616c6964206164647265737320746f20637260008201527f6561746520616e20696e7374616e636500000000000000000000000000000000602082015250565b610a28816108bd565b8114610a3357600080fd5b50565b610a3f816108ef565b8114610a4a57600080fd5b5056fea26469706673582212204ebb83e5d527868cf10f37b7ddd4927c2b6005c4a41d15f03e85f8fa8c15277264736f6c63430008040033",
  "linkReferences": {},
  "deployedLinkReferences": {}
}