{
  "_format": "hh-sol-artifact-1",
  "contractName": "TokenFactory",
  "sourceName": "contracts/TokenFactory.sol",
  "abi": [
    {
      "inputs": [
        {
          "internalType": "address",
          "name": "_masterContract",
          "type": "address"
        },
        {
          "internalType": "address",
          "name": "_owner",
          "type": "address"
        }
      ],
      "stateMutability": "nonpayable",
      "type": "constructor"
    },
    {
      "inputs": [
        {
          "internalType": "address",
          "name": "_tenant",
          "type": "address"
        },
        {
          "internalType": "string",
          "name": "_name",
          "type": "string"
        },
        {
          "internalType": "string",
          "name": "_symbol",
          "type": "string"
        },
        {
          "internalType": "uint256",
          "name": "_decimal",
          "type": "uint256"
        }
      ],
      "name": "createInstance",
      "outputs": [],
      "stateMutability": "nonpayable",
      "type": "function"
    },
    {
      "inputs": [
        {
          "internalType": "address",
          "name": "_tenant",
          "type": "address"
        }
      ],
      "name": "getProxy",
      "outputs": [
        {
          "internalType": "contract Token",
          "name": "",
          "type": "address"
        }
      ],
      "stateMutability": "view",
      "type": "function"
    },
    {
      "inputs": [
        {
          "internalType": "address",
          "name": "",
          "type": "address"
        }
      ],
      "name": "instance",
      "outputs": [
        {
          "internalType": "bool",
          "name": "",
          "type": "bool"
        }
      ],
      "stateMutability": "view",
      "type": "function"
    },
    {
      "inputs": [],
      "name": "masterContract",
      "outputs": [
        {
          "internalType": "address",
          "name": "",
          "type": "address"
        }
      ],
      "stateMutability": "view",
      "type": "function"
    },
    {
      "inputs": [],
      "name": "owner",
      "outputs": [
        {
          "internalType": "address",
          "name": "",
          "type": "address"
        }
      ],
      "stateMutability": "view",
      "type": "function"
    },
    {
      "inputs": [
        {
          "internalType": "address",
          "name": "",
          "type": "address"
        }
      ],
      "name": "tenants",
      "outputs": [
        {
          "internalType": "contract Token",
          "name": "token",
          "type": "address"
        },
        {
          "internalType": "address",
          "name": "owner",
          "type": "address"
        }
      ],
      "stateMutability": "view",
      "type": "function"
    }
  ],
  "bytecode": "0x60c06040527305df0a749f733779aa2fa5706c7552b094a7e8b0600260006101000a81548173ffffffffffffffffffffffffffffffffffffffff021916908373ffffffffffffffffffffffffffffffffffffffff16021790555034801561006557600080fd5b50604051610d84380380610d8483398181016040528101906100879190610111565b8173ffffffffffffffffffffffffffffffffffffffff1660808173ffffffffffffffffffffffffffffffffffffffff1660601b815250508073ffffffffffffffffffffffffffffffffffffffff1660a08173ffffffffffffffffffffffffffffffffffffffff1660601b815250505050610196565b60008151905061010b8161017f565b92915050565b6000806040838503121561012457600080fd5b6000610132858286016100fc565b9250506020610143858286016100fc565b9150509250929050565b60006101588261015f565b9050919050565b600073ffffffffffffffffffffffffffffffffffffffff82169050919050565b6101888161014d565b811461019357600080fd5b50565b60805160601c60a05160601c610bbc6101c8600039600061015201526000818161034101526105030152610bbc6000f3fe608060405234801561001057600080fd5b50600436106100625760003560e01c80638da5cb5b14610067578063b7fba4d314610085578063c7330d74146100b5578063cd446e22146100d1578063cf33d588146100ef578063fd9153a31461011f575b600080fd5b61006f610150565b60405161007c919061081c565b60405180910390f35b61009f600480360381019061009a91906106a5565b610174565b6040516100ac9190610852565b60405180910390f35b6100cf60048036038101906100ca91906106ce565b6101df565b005b6100d9610501565b6040516100e6919061081c565b60405180910390f35b610109600480360381019061010491906106a5565b610525565b6040516101169190610837565b60405180910390f35b610139600480360381019061013491906106a5565b610545565b60405161014792919061086d565b60405180910390f35b7f000000000000000000000000000000000000000000000000000000000000000081565b60008060008373ffffffffffffffffffffffffffffffffffffffff1673ffffffffffffffffffffffffffffffffffffffff16815260200190815260200160002060000160009054906101000a900473ffffffffffffffffffffffffffffffffffffffff169050919050565b8360001515600160008373ffffffffffffffffffffffffffffffffffffffff1673ffffffffffffffffffffffffffffffffffffffff16815260200190815260200160002060009054906101000a900460ff16151514610273576040517f08c379a000000000000000000000000000000000000000000000000000000000815260040161026a906108e9565b60405180910390fd5b848073ffffffffffffffffffffffffffffffffffffffff163373ffffffffffffffffffffffffffffffffffffffff1614806102fb5750600260009054906101000a900473ffffffffffffffffffffffffffffffffffffffff1673ffffffffffffffffffffffffffffffffffffffff163373ffffffffffffffffffffffffffffffffffffffff16145b61033a576040517f08c379a000000000000000000000000000000000000000000000000000000000815260040161033190610909565b60405180910390fd5b60006103657f00000000000000000000000000000000000000000000000000000000000000006105a9565b90508073ffffffffffffffffffffffffffffffffffffffff1663685d0a96878787336040518563ffffffff1660e01b81526004016103a69493929190610896565b600060405180830381600087803b1580156103c057600080fd5b505af11580156103d4573d6000803e3d6000fd5b5050505060008060008973ffffffffffffffffffffffffffffffffffffffff1673ffffffffffffffffffffffffffffffffffffffff1681526020019081526020016000209050818160000160006101000a81548173ffffffffffffffffffffffffffffffffffffffff021916908373ffffffffffffffffffffffffffffffffffffffff160217905550878160010160006101000a81548173ffffffffffffffffffffffffffffffffffffffff021916908373ffffffffffffffffffffffffffffffffffffffff16021790555060018060008a73ffffffffffffffffffffffffffffffffffffffff1673ffffffffffffffffffffffffffffffffffffffff16815260200190815260200160002060006101000a81548160ff0219169083151502179055505050505050505050565b7f000000000000000000000000000000000000000000000000000000000000000081565b60016020528060005260406000206000915054906101000a900460ff1681565b60006020528060005260406000206000915090508060000160009054906101000a900473ffffffffffffffffffffffffffffffffffffffff16908060010160009054906101000a900473ffffffffffffffffffffffffffffffffffffffff16905082565b6000808260601b90506040517f3d602d80600a3d3981f3363d3d373d3d3d363d7300000000000000000000000081528160148201527f5af43d82803e903d91602b57fd5bf3000000000000000000000000000000000060288201526037816000f092505050919050565b60006106266106218461094e565b610929565b90508281526020810184848401111561063e57600080fd5b610649848285610a07565b509392505050565b60008135905061066081610b58565b92915050565b600082601f83011261067757600080fd5b8135610687848260208601610613565b91505092915050565b60008135905061069f81610b6f565b92915050565b6000602082840312156106b757600080fd5b60006106c584828501610651565b91505092915050565b600080600080608085870312156106e457600080fd5b60006106f287828801610651565b945050602085013567ffffffffffffffff81111561070f57600080fd5b61071b87828801610666565b935050604085013567ffffffffffffffff81111561073857600080fd5b61074487828801610666565b925050606061075587828801610690565b91505092959194509250565b61076a8161099b565b82525050565b610779816109ad565b82525050565b610788816109e3565b82525050565b60006107998261097f565b6107a3818561098a565b93506107b3818560208601610a16565b6107bc81610aa9565b840191505092915050565b60006107d460228361098a565b91506107df82610aba565b604082019050919050565b60006107f760308361098a565b915061080282610b09565b604082019050919050565b610816816109d9565b82525050565b60006020820190506108316000830184610761565b92915050565b600060208201905061084c6000830184610770565b92915050565b6000602082019050610867600083018461077f565b92915050565b6000604082019050610882600083018561077f565b61088f6020830184610761565b9392505050565b600060808201905081810360008301526108b0818761078e565b905081810360208301526108c4818661078e565b90506108d3604083018561080d565b6108e06060830184610761565b95945050505050565b60006020820190508181036000830152610902816107c7565b9050919050565b60006020820190508181036000830152610922816107ea565b9050919050565b6000610933610944565b905061093f8282610a49565b919050565b6000604051905090565b600067ffffffffffffffff82111561096957610968610a7a565b5b61097282610aa9565b9050602081019050919050565b600081519050919050565b600082825260208201905092915050565b60006109a6826109b9565b9050919050565b60008115159050919050565b600073ffffffffffffffffffffffffffffffffffffffff82169050919050565b6000819050919050565b60006109ee826109f5565b9050919050565b6000610a00826109b9565b9050919050565b82818337600083830152505050565b60005b83811015610a34578082015181840152602081019050610a19565b83811115610a43576000848401525b50505050565b610a5282610aa9565b810181811067ffffffffffffffff82111715610a7157610a70610a7a565b5b80604052505050565b7f4e487b7100000000000000000000000000000000000000000000000000000000600052604160045260246000fd5b6000601f19601f8301169050919050565b7f5468652074656e616e7420616c72656164792068617320616e20696e7374616e60008201527f6365000000000000000000000000000000000000000000000000000000000000602082015250565b7f506c656173652075736520612076616c6964206164647265737320746f20637260008201527f6561746520616e20696e7374616e636500000000000000000000000000000000602082015250565b610b618161099b565b8114610b6c57600080fd5b50565b610b78816109d9565b8114610b8357600080fd5b5056fea26469706673582212203b245498c66e33b8bad248662fae87b4b3d1926b5f20566fd621a7b681276f9a64736f6c63430008040033",
  "linkReferences": {},
  "deployedLinkReferences": {}
}