{
  "_format": "hh-sol-artifact-1",
  "contractName": "TokenFactory",
  "sourceName": "contracts/TokenFactory.sol",
  "abi": [
    {
      "inputs": [
        {
          "internalType": "address",
          "name": "_masterContract",
          "type": "address"
        }
      ],
      "stateMutability": "nonpayable",
      "type": "constructor"
    },
    {
      "inputs": [
        {
          "internalType": "address",
          "name": "_tenant",
          "type": "address"
        },
        {
          "internalType": "address",
          "name": "_owner",
          "type": "address"
        },
        {
          "internalType": "address",
          "name": "_spender",
          "type": "address"
        }
      ],
      "name": "allowance",
      "outputs": [
        {
          "internalType": "uint256",
          "name": "",
          "type": "uint256"
        }
      ],
      "stateMutability": "view",
      "type": "function"
    },
    {
      "inputs": [
        {
          "internalType": "address",
          "name": "_tenant",
          "type": "address"
        },
        {
          "internalType": "address",
          "name": "_spender",
          "type": "address"
        },
        {
          "internalType": "uint256",
          "name": "_value",
          "type": "uint256"
        }
      ],
      "name": "approve",
      "outputs": [
        {
          "internalType": "bool",
          "name": "",
          "type": "bool"
        }
      ],
      "stateMutability": "nonpayable",
      "type": "function"
    },
    {
      "inputs": [
        {
          "internalType": "address",
          "name": "_tenant",
          "type": "address"
        }
      ],
      "name": "balance",
      "outputs": [
        {
          "internalType": "uint256",
          "name": "",
          "type": "uint256"
        }
      ],
      "stateMutability": "view",
      "type": "function"
    },
    {
      "inputs": [
        {
          "internalType": "address",
          "name": "_tenant",
          "type": "address"
        },
        {
          "internalType": "address",
          "name": "_owner",
          "type": "address"
        }
      ],
      "name": "balanceOf",
      "outputs": [
        {
          "internalType": "uint256",
          "name": "",
          "type": "uint256"
        }
      ],
      "stateMutability": "view",
      "type": "function"
    },
    {
      "inputs": [
        {
          "internalType": "address",
          "name": "_tenant",
          "type": "address"
        },
        {
          "internalType": "string",
          "name": "_name",
          "type": "string"
        },
        {
          "internalType": "string",
          "name": "_symbol",
          "type": "string"
        },
        {
          "internalType": "uint256",
          "name": "_decimal",
          "type": "uint256"
        }
      ],
      "name": "createInstance",
      "outputs": [],
      "stateMutability": "nonpayable",
      "type": "function"
    },
    {
      "inputs": [
        {
          "internalType": "address",
          "name": "_tenant",
          "type": "address"
        }
      ],
      "name": "getContractOwner",
      "outputs": [
        {
          "internalType": "address",
          "name": "",
          "type": "address"
        }
      ],
      "stateMutability": "view",
      "type": "function"
    },
    {
      "inputs": [
        {
          "internalType": "address",
          "name": "_tenant",
          "type": "address"
        }
      ],
      "name": "getCounter",
      "outputs": [
        {
          "internalType": "uint256",
          "name": "",
          "type": "uint256"
        }
      ],
      "stateMutability": "view",
      "type": "function"
    },
    {
      "inputs": [
        {
          "internalType": "address",
          "name": "_tenant",
          "type": "address"
        }
      ],
      "name": "getProxy",
      "outputs": [
        {
          "internalType": "contract Token",
          "name": "",
          "type": "address"
        }
      ],
      "stateMutability": "view",
      "type": "function"
    },
    {
      "inputs": [
        {
          "internalType": "address",
          "name": "_tenant",
          "type": "address"
        },
        {
          "internalType": "uint256",
          "name": "_increment",
          "type": "uint256"
        }
      ],
      "name": "incrementCounter",
      "outputs": [],
      "stateMutability": "nonpayable",
      "type": "function"
    },
    {
      "inputs": [],
      "name": "masterContract",
      "outputs": [
        {
          "internalType": "address",
          "name": "",
          "type": "address"
        }
      ],
      "stateMutability": "view",
      "type": "function"
    },
    {
      "inputs": [
        {
          "internalType": "address",
          "name": "",
          "type": "address"
        }
      ],
      "name": "tenants",
      "outputs": [
        {
          "internalType": "contract Token",
          "name": "token",
          "type": "address"
        },
        {
          "internalType": "address",
          "name": "owner",
          "type": "address"
        }
      ],
      "stateMutability": "view",
      "type": "function"
    },
    {
      "inputs": [
        {
          "internalType": "address",
          "name": "_tenant",
          "type": "address"
        }
      ],
      "name": "totalSupply",
      "outputs": [
        {
          "internalType": "uint256",
          "name": "",
          "type": "uint256"
        }
      ],
      "stateMutability": "view",
      "type": "function"
    },
    {
      "inputs": [
        {
          "internalType": "address",
          "name": "_tenant",
          "type": "address"
        },
        {
          "internalType": "address",
          "name": "_to",
          "type": "address"
        },
        {
          "internalType": "uint256",
          "name": "_value",
          "type": "uint256"
        }
      ],
      "name": "transfer",
      "outputs": [
        {
          "internalType": "bool",
          "name": "",
          "type": "bool"
        }
      ],
      "stateMutability": "nonpayable",
      "type": "function"
    },
    {
      "inputs": [
        {
          "internalType": "address",
          "name": "_tenant",
          "type": "address"
        },
        {
          "internalType": "address",
          "name": "_from",
          "type": "address"
        },
        {
          "internalType": "address",
          "name": "_to",
          "type": "address"
        },
        {
          "internalType": "uint256",
          "name": "_value",
          "type": "uint256"
        }
      ],
      "name": "transferFrom",
      "outputs": [
        {
          "internalType": "bool",
          "name": "",
          "type": "bool"
        }
      ],
      "stateMutability": "nonpayable",
      "type": "function"
    }
  ],
  "bytecode": "0x608060405273d847c7408c48b6b6720cca75eb30a93acbf5163d600260006101000a81548173ffffffffffffffffffffffffffffffffffffffff021916908373ffffffffffffffffffffffffffffffffffffffff1602179055503480156200006657600080fd5b50604051620016363803806200163683398181016040528101906200008c9190620000eb565b80600160006101000a81548173ffffffffffffffffffffffffffffffffffffffff021916908373ffffffffffffffffffffffffffffffffffffffff1602179055505062000165565b600081519050620000e5816200014b565b92915050565b600060208284031215620000fe57600080fd5b60006200010e84828501620000d4565b91505092915050565b600062000124826200012b565b9050919050565b600073ffffffffffffffffffffffffffffffffffffffff82169050919050565b620001568162000117565b81146200016257600080fd5b50565b6114c180620001756000396000f3fe608060405234801561001057600080fd5b50600436106100ea5760003560e01c8063d59d99501161008c578063e4dc2aa411610066578063e4dc2aa414610295578063f07ec373146102c5578063f7888aec146102f5578063fd9153a314610325576100ea565b8063d59d995014610205578063e1f21c6714610235578063e3d670d714610265576100ea565b8063beabacc8116100c8578063beabacc81461017f578063c7330d74146101af578063cd446e22146101cb578063d3412774146101e9576100ea565b806315dacbea146100ef578063927da1051461011f578063b7fba4d31461014f575b600080fd5b61010960048036038101906101049190610e6a565b610356565b6040516101169190611179565b60405180910390f35b61013960048036038101906101349190610e1b565b6103f9565b604051610146919061124b565b60405180910390f35b61016960048036038101906101649190610d8d565b610497565b6040516101769190611194565b60405180910390f35b61019960048036038101906101949190610ecd565b610502565b6040516101a69190611179565b60405180910390f35b6101c960048036038101906101c49190610f1c565b6105a2565b005b6101d36107da565b6040516101e091906110d5565b60405180910390f35b61020360048036038101906101fe9190610faf565b610800565b005b61021f600480360381019061021a9190610d8d565b610877565b60405161022c91906110d5565b60405180910390f35b61024f600480360381019061024a9190610ecd565b610906565b60405161025c9190611179565b60405180910390f35b61027f600480360381019061027a9190610d8d565b6109a6565b60405161028c919061124b565b60405180910390f35b6102af60048036038101906102aa9190610d8d565b610a35565b6040516102bc919061124b565b60405180910390f35b6102df60048036038101906102da9190610d8d565b610ac4565b6040516102ec919061124b565b60405180910390f35b61030f600480360381019061030a9190610ddf565b610b53565b60405161031c919061124b565b60405180910390f35b61033f600480360381019061033a9190610d8d565b610bee565b60405161034d9291906111af565b60405180910390f35b600061036185610497565b73ffffffffffffffffffffffffffffffffffffffff166323b872dd8585856040518463ffffffff1660e01b815260040161039d93929190611119565b602060405180830381600087803b1580156103b757600080fd5b505af11580156103cb573d6000803e3d6000fd5b505050506040513d601f19601f820116820180604052508101906103ef9190610feb565b9050949350505050565b600061040484610497565b73ffffffffffffffffffffffffffffffffffffffff1663dd62ed3e84846040518363ffffffff1660e01b815260040161043e9291906110f0565b60206040518083038186803b15801561045657600080fd5b505afa15801561046a573d6000803e3d6000fd5b505050506040513d601f19601f8201168201806040525081019061048e9190611014565b90509392505050565b60008060008373ffffffffffffffffffffffffffffffffffffffff1673ffffffffffffffffffffffffffffffffffffffff16815260200190815260200160002060000160009054906101000a900473ffffffffffffffffffffffffffffffffffffffff169050919050565b600061050d84610497565b73ffffffffffffffffffffffffffffffffffffffff1663a9059cbb84846040518363ffffffff1660e01b8152600401610547929190611150565b602060405180830381600087803b15801561056157600080fd5b505af1158015610575573d6000803e3d6000fd5b505050506040513d601f19601f820116820180604052508101906105999190610feb565b90509392505050565b838073ffffffffffffffffffffffffffffffffffffffff163373ffffffffffffffffffffffffffffffffffffffff16148061062a5750600260009054906101000a900473ffffffffffffffffffffffffffffffffffffffff1673ffffffffffffffffffffffffffffffffffffffff163373ffffffffffffffffffffffffffffffffffffffff16145b610669576040517f08c379a00000000000000000000000000000000000000000000000000000000081526004016106609061122b565b60405180910390fd5b6000610696600160009054906101000a900473ffffffffffffffffffffffffffffffffffffffff16610c52565b90508073ffffffffffffffffffffffffffffffffffffffff1663685d0a96868686336040518563ffffffff1660e01b81526004016106d794939291906111d8565b600060405180830381600087803b1580156106f157600080fd5b505af1158015610705573d6000803e3d6000fd5b5050505060008060008873ffffffffffffffffffffffffffffffffffffffff1673ffffffffffffffffffffffffffffffffffffffff1681526020019081526020016000209050818160000160006101000a81548173ffffffffffffffffffffffffffffffffffffffff021916908373ffffffffffffffffffffffffffffffffffffffff160217905550868160010160006101000a81548173ffffffffffffffffffffffffffffffffffffffff021916908373ffffffffffffffffffffffffffffffffffffffff16021790555050505050505050565b600160009054906101000a900473ffffffffffffffffffffffffffffffffffffffff1681565b61080982610497565b73ffffffffffffffffffffffffffffffffffffffff16636abbb3b4826040518263ffffffff1660e01b8152600401610841919061124b565b600060405180830381600087803b15801561085b57600080fd5b505af115801561086f573d6000803e3d6000fd5b505050505050565b600061088282610497565b73ffffffffffffffffffffffffffffffffffffffff1663442890d56040518163ffffffff1660e01b815260040160206040518083038186803b1580156108c757600080fd5b505afa1580156108db573d6000803e3d6000fd5b505050506040513d601f19601f820116820180604052508101906108ff9190610db6565b9050919050565b600061091184610497565b73ffffffffffffffffffffffffffffffffffffffff1663095ea7b384846040518363ffffffff1660e01b815260040161094b929190611150565b602060405180830381600087803b15801561096557600080fd5b505af1158015610979573d6000803e3d6000fd5b505050506040513d601f19601f8201168201806040525081019061099d9190610feb565b90509392505050565b60006109b182610497565b73ffffffffffffffffffffffffffffffffffffffff1663b69ef8a86040518163ffffffff1660e01b815260040160206040518083038186803b1580156109f657600080fd5b505afa158015610a0a573d6000803e3d6000fd5b505050506040513d601f19601f82011682018060405250810190610a2e9190611014565b9050919050565b6000610a4082610497565b73ffffffffffffffffffffffffffffffffffffffff166318160ddd6040518163ffffffff1660e01b815260040160206040518083038186803b158015610a8557600080fd5b505afa158015610a99573d6000803e3d6000fd5b505050506040513d601f19601f82011682018060405250810190610abd9190611014565b9050919050565b6000610acf82610497565b73ffffffffffffffffffffffffffffffffffffffff16638ada066e6040518163ffffffff1660e01b815260040160206040518083038186803b158015610b1457600080fd5b505afa158015610b28573d6000803e3d6000fd5b505050506040513d601f19601f82011682018060405250810190610b4c9190611014565b9050919050565b6000610b5e83610497565b73ffffffffffffffffffffffffffffffffffffffff166370a08231836040518263ffffffff1660e01b8152600401610b9691906110d5565b60206040518083038186803b158015610bae57600080fd5b505afa158015610bc2573d6000803e3d6000fd5b505050506040513d601f19601f82011682018060405250810190610be69190611014565b905092915050565b60006020528060005260406000206000915090508060000160009054906101000a900473ffffffffffffffffffffffffffffffffffffffff16908060010160009054906101000a900473ffffffffffffffffffffffffffffffffffffffff16905082565b6000808260601b90506040517f3d602d80600a3d3981f3363d3d373d3d3d363d7300000000000000000000000081528160148201527f5af43d82803e903d91602b57fd5bf3000000000000000000000000000000000060288201526037816000f092505050919050565b6000610ccf610cca8461128b565b611266565b905082815260208101848484011115610ce757600080fd5b610cf2848285611344565b509392505050565b600081359050610d0981611446565b92915050565b600081519050610d1e81611446565b92915050565b600081519050610d338161145d565b92915050565b600082601f830112610d4a57600080fd5b8135610d5a848260208601610cbc565b91505092915050565b600081359050610d7281611474565b92915050565b600081519050610d8781611474565b92915050565b600060208284031215610d9f57600080fd5b6000610dad84828501610cfa565b91505092915050565b600060208284031215610dc857600080fd5b6000610dd684828501610d0f565b91505092915050565b60008060408385031215610df257600080fd5b6000610e0085828601610cfa565b9250506020610e1185828601610cfa565b9150509250929050565b600080600060608486031215610e3057600080fd5b6000610e3e86828701610cfa565b9350506020610e4f86828701610cfa565b9250506040610e6086828701610cfa565b9150509250925092565b60008060008060808587031215610e8057600080fd5b6000610e8e87828801610cfa565b9450506020610e9f87828801610cfa565b9350506040610eb087828801610cfa565b9250506060610ec187828801610d63565b91505092959194509250565b600080600060608486031215610ee257600080fd5b6000610ef086828701610cfa565b9350506020610f0186828701610cfa565b9250506040610f1286828701610d63565b9150509250925092565b60008060008060808587031215610f3257600080fd5b6000610f4087828801610cfa565b945050602085013567ffffffffffffffff811115610f5d57600080fd5b610f6987828801610d39565b935050604085013567ffffffffffffffff811115610f8657600080fd5b610f9287828801610d39565b9250506060610fa387828801610d63565b91505092959194509250565b60008060408385031215610fc257600080fd5b6000610fd085828601610cfa565b9250506020610fe185828601610d63565b9150509250929050565b600060208284031215610ffd57600080fd5b600061100b84828501610d24565b91505092915050565b60006020828403121561102657600080fd5b600061103484828501610d78565b91505092915050565b611046816112d8565b82525050565b611055816112ea565b82525050565b61106481611320565b82525050565b6000611075826112bc565b61107f81856112c7565b935061108f818560208601611353565b611098816113e6565b840191505092915050565b60006110b06030836112c7565b91506110bb826113f7565b604082019050919050565b6110cf81611316565b82525050565b60006020820190506110ea600083018461103d565b92915050565b6000604082019050611105600083018561103d565b611112602083018461103d565b9392505050565b600060608201905061112e600083018661103d565b61113b602083018561103d565b61114860408301846110c6565b949350505050565b6000604082019050611165600083018561103d565b61117260208301846110c6565b9392505050565b600060208201905061118e600083018461104c565b92915050565b60006020820190506111a9600083018461105b565b92915050565b60006040820190506111c4600083018561105b565b6111d1602083018461103d565b9392505050565b600060808201905081810360008301526111f2818761106a565b90508181036020830152611206818661106a565b905061121560408301856110c6565b611222606083018461103d565b95945050505050565b60006020820190508181036000830152611244816110a3565b9050919050565b600060208201905061126060008301846110c6565b92915050565b6000611270611281565b905061127c8282611386565b919050565b6000604051905090565b600067ffffffffffffffff8211156112a6576112a56113b7565b5b6112af826113e6565b9050602081019050919050565b600081519050919050565b600082825260208201905092915050565b60006112e3826112f6565b9050919050565b60008115159050919050565b600073ffffffffffffffffffffffffffffffffffffffff82169050919050565b6000819050919050565b600061132b82611332565b9050919050565b600061133d826112f6565b9050919050565b82818337600083830152505050565b60005b83811015611371578082015181840152602081019050611356565b83811115611380576000848401525b50505050565b61138f826113e6565b810181811067ffffffffffffffff821117156113ae576113ad6113b7565b5b80604052505050565b7f4e487b7100000000000000000000000000000000000000000000000000000000600052604160045260246000fd5b6000601f19601f8301169050919050565b7f506c656173652075736520612076616c6964206164647265737320746f20637260008201527f6561746520616e20696e7374616e636500000000000000000000000000000000602082015250565b61144f816112d8565b811461145a57600080fd5b50565b611466816112ea565b811461147157600080fd5b50565b61147d81611316565b811461148857600080fd5b5056fea26469706673582212208062df7f81db68e857c1b434730f3ceee633f5d36378b355c76fa20032524f9564736f6c63430008040033",
  "linkReferences": {},
  "deployedLinkReferences": {}
}