{
  "_format": "hh-sol-artifact-1",
  "contractName": "ERC721Factory",
  "sourceName": "contracts/ERC721Factory.sol",
  "abi": [
    {
      "inputs": [
        {
          "internalType": "address",
          "name": "_masterContract",
          "type": "address"
        },
        {
          "internalType": "address",
          "name": "_owner",
          "type": "address"
        }
      ],
      "stateMutability": "nonpayable",
      "type": "constructor"
    },
    {
      "inputs": [],
      "name": "InstanceAlreadyInitialized",
      "type": "error"
    },
    {
      "inputs": [],
      "name": "InstanceDoesNotExist",
      "type": "error"
    },
    {
      "inputs": [],
      "name": "Unauthorized",
      "type": "error"
    },
    {
      "inputs": [],
      "name": "ZeroAddress",
      "type": "error"
    },
    {
      "anonymous": false,
      "inputs": [
        {
          "indexed": false,
          "internalType": "address",
          "name": "_tenant",
          "type": "address"
        },
        {
          "indexed": false,
          "internalType": "address",
          "name": "_proxy",
          "type": "address"
        }
      ],
      "name": "TenantCreated",
      "type": "event"
    },
    {
      "inputs": [
        {
          "internalType": "address",
          "name": "_tenant",
          "type": "address"
        },
        {
          "internalType": "string",
          "name": "_name",
          "type": "string"
        },
        {
          "internalType": "string",
          "name": "_symbol",
          "type": "string"
        }
      ],
      "name": "createInstance",
      "outputs": [],
      "stateMutability": "nonpayable",
      "type": "function"
    },
    {
      "inputs": [
        {
          "internalType": "address",
          "name": "_tenant",
          "type": "address"
        }
      ],
      "name": "getProxy",
      "outputs": [
        {
          "internalType": "contract ERC721",
          "name": "",
          "type": "address"
        }
      ],
      "stateMutability": "view",
      "type": "function"
    },
    {
      "inputs": [
        {
          "internalType": "address",
          "name": "",
          "type": "address"
        }
      ],
      "name": "instance",
      "outputs": [
        {
          "internalType": "bool",
          "name": "",
          "type": "bool"
        }
      ],
      "stateMutability": "view",
      "type": "function"
    },
    {
      "inputs": [],
      "name": "masterContract",
      "outputs": [
        {
          "internalType": "address",
          "name": "",
          "type": "address"
        }
      ],
      "stateMutability": "view",
      "type": "function"
    },
    {
      "inputs": [],
      "name": "owner",
      "outputs": [
        {
          "internalType": "address",
          "name": "",
          "type": "address"
        }
      ],
      "stateMutability": "view",
      "type": "function"
    },
    {
      "inputs": [],
      "name": "tenantCounter",
      "outputs": [
        {
          "internalType": "uint256",
          "name": "_value",
          "type": "uint256"
        }
      ],
      "stateMutability": "view",
      "type": "function"
    },
    {
      "inputs": [
        {
          "internalType": "address",
          "name": "",
          "type": "address"
        }
      ],
      "name": "tenants",
      "outputs": [
        {
          "internalType": "contract ERC721",
          "name": "erc721",
          "type": "address"
        },
        {
          "internalType": "address",
          "name": "owner",
          "type": "address"
        }
      ],
      "stateMutability": "view",
      "type": "function"
    }
  ],
  "bytecode": "0x60c06040527362a7aa79a52591ccc62b71729329a80a666fa50f600360006101000a81548173ffffffffffffffffffffffffffffffffffffffff021916908373ffffffffffffffffffffffffffffffffffffffff16021790555034801561006557600080fd5b50604051610dc6380380610dc683398181016040528101906100879190610111565b8173ffffffffffffffffffffffffffffffffffffffff1660a08173ffffffffffffffffffffffffffffffffffffffff1660601b815250508073ffffffffffffffffffffffffffffffffffffffff1660808173ffffffffffffffffffffffffffffffffffffffff1660601b815250505050610196565b60008151905061010b8161017f565b92915050565b6000806040838503121561012457600080fd5b6000610132858286016100fc565b9250506020610143858286016100fc565b9150509250929050565b60006101588261015f565b9050919050565b600073ffffffffffffffffffffffffffffffffffffffff82169050919050565b6101888161014d565b811461019357600080fd5b50565b60805160601c60a05160601c610bfe6101c860003960008181610459015261065d015260006101970152610bfe6000f3fe608060405234801561001057600080fd5b506004361061007d5760003560e01c8063bf04bebb1161005b578063bf04bebb146100ee578063cd446e221461010a578063cf33d58814610128578063fd9153a3146101585761007d565b80631e9b4755146100825780638da5cb5b146100a0578063b7fba4d3146100be575b600080fd5b61008a610189565b6040516100979190610a05565b60405180910390f35b6100a8610195565b6040516100b5919061091d565b60405180910390f35b6100d860048036038101906100d39190610800565b6101b9565b6040516100e5919061097c565b60405180910390f35b61010860048036038101906101039190610829565b6102a8565b005b61011261065b565b60405161011f919061091d565b60405180910390f35b610142600480360381019061013d9190610800565b61067f565b60405161014f9190610961565b60405180910390f35b610172600480360381019061016d9190610800565b61069f565b604051610180929190610997565b60405180910390f35b60008060000154905081565b7f000000000000000000000000000000000000000000000000000000000000000081565b6000600260008373ffffffffffffffffffffffffffffffffffffffff1673ffffffffffffffffffffffffffffffffffffffff16815260200190815260200160002060009054906101000a900460ff1661023e576040517f5173702000000000000000000000000000000000000000000000000000000000815260040160405180910390fd5b600160008373ffffffffffffffffffffffffffffffffffffffff1673ffffffffffffffffffffffffffffffffffffffff16815260200190815260200160002060000160009054906101000a900473ffffffffffffffffffffffffffffffffffffffff169050919050565b82600073ffffffffffffffffffffffffffffffffffffffff168173ffffffffffffffffffffffffffffffffffffffff161415610310576040517fd92e233d00000000000000000000000000000000000000000000000000000000815260040160405180910390fd5b8073ffffffffffffffffffffffffffffffffffffffff163373ffffffffffffffffffffffffffffffffffffffff1614806103975750600360009054906101000a900473ffffffffffffffffffffffffffffffffffffffff1673ffffffffffffffffffffffffffffffffffffffff163373ffffffffffffffffffffffffffffffffffffffff16145b6103cd576040517f82b4290000000000000000000000000000000000000000000000000000000000815260040160405180910390fd5b83600260008273ffffffffffffffffffffffffffffffffffffffff1673ffffffffffffffffffffffffffffffffffffffff16815260200190815260200160002060009054906101000a900460ff1615610452576040517ff76d29a900000000000000000000000000000000000000000000000000000000815260040160405180910390fd5b600061047d7f0000000000000000000000000000000000000000000000000000000000000000610703565b90508073ffffffffffffffffffffffffffffffffffffffff1663077f224a8686896040518463ffffffff1660e01b81526004016104bc939291906109c0565b600060405180830381600087803b1580156104d657600080fd5b505af11580156104ea573d6000803e3d6000fd5b505050506000600160008873ffffffffffffffffffffffffffffffffffffffff1673ffffffffffffffffffffffffffffffffffffffff1681526020019081526020016000209050818160000160006101000a81548173ffffffffffffffffffffffffffffffffffffffff021916908373ffffffffffffffffffffffffffffffffffffffff160217905550868160010160006101000a81548173ffffffffffffffffffffffffffffffffffffffff021916908373ffffffffffffffffffffffffffffffffffffffff1602179055506001600260008973ffffffffffffffffffffffffffffffffffffffff1673ffffffffffffffffffffffffffffffffffffffff16815260200190815260200160002060006101000a81548160ff021916908315150217905550610619600061076d565b7f6c253b297385738b44c5cd705bc77dfaf43a58b0a4e9fe4f4eb44eebb417db11878360405161064a929190610938565b60405180910390a150505050505050565b7f000000000000000000000000000000000000000000000000000000000000000081565b60026020528060005260406000206000915054906101000a900460ff1681565b60016020528060005260406000206000915090508060000160009054906101000a900473ffffffffffffffffffffffffffffffffffffffff16908060010160009054906101000a900473ffffffffffffffffffffffffffffffffffffffff16905082565b6000808260601b90506040517f3d602d80600a3d3981f3363d3d373d3d3d363d7300000000000000000000000081528160148201527f5af43d82803e903d91602b57fd5bf3000000000000000000000000000000000060288201526037816000f092505050919050565b6001816000016000828254019250508190555050565b600061079661079184610a45565b610a20565b9050828152602081018484840111156107ae57600080fd5b6107b9848285610afe565b509392505050565b6000813590506107d081610bb1565b92915050565b600082601f8301126107e757600080fd5b81356107f7848260208601610783565b91505092915050565b60006020828403121561081257600080fd5b6000610820848285016107c1565b91505092915050565b60008060006060848603121561083e57600080fd5b600061084c868287016107c1565b935050602084013567ffffffffffffffff81111561086957600080fd5b610875868287016107d6565b925050604084013567ffffffffffffffff81111561089257600080fd5b61089e868287016107d6565b9150509250925092565b6108b181610a92565b82525050565b6108c081610aa4565b82525050565b6108cf81610ada565b82525050565b60006108e082610a76565b6108ea8185610a81565b93506108fa818560208601610b0d565b61090381610ba0565b840191505092915050565b61091781610ad0565b82525050565b600060208201905061093260008301846108a8565b92915050565b600060408201905061094d60008301856108a8565b61095a60208301846108a8565b9392505050565b600060208201905061097660008301846108b7565b92915050565b600060208201905061099160008301846108c6565b92915050565b60006040820190506109ac60008301856108c6565b6109b960208301846108a8565b9392505050565b600060608201905081810360008301526109da81866108d5565b905081810360208301526109ee81856108d5565b90506109fd60408301846108a8565b949350505050565b6000602082019050610a1a600083018461090e565b92915050565b6000610a2a610a3b565b9050610a368282610b40565b919050565b6000604051905090565b600067ffffffffffffffff821115610a6057610a5f610b71565b5b610a6982610ba0565b9050602081019050919050565b600081519050919050565b600082825260208201905092915050565b6000610a9d82610ab0565b9050919050565b60008115159050919050565b600073ffffffffffffffffffffffffffffffffffffffff82169050919050565b6000819050919050565b6000610ae582610aec565b9050919050565b6000610af782610ab0565b9050919050565b82818337600083830152505050565b60005b83811015610b2b578082015181840152602081019050610b10565b83811115610b3a576000848401525b50505050565b610b4982610ba0565b810181811067ffffffffffffffff82111715610b6857610b67610b71565b5b80604052505050565b7f4e487b7100000000000000000000000000000000000000000000000000000000600052604160045260246000fd5b6000601f19601f8301169050919050565b610bba81610a92565b8114610bc557600080fd5b5056fea26469706673582212205db07e132ef447f4526c2accbbb788464daecc8af13fd1ba8340111910f6252864736f6c63430008040033",
  "linkReferences": {},
  "deployedLinkReferences": {}
}