{
  "_format": "hh-sol-artifact-1",
  "contractName": "ERC721Factory",
  "sourceName": "contracts/ERC721Factory.sol",
  "abi": [
    {
      "inputs": [
        {
          "internalType": "address",
          "name": "_masterContract",
          "type": "address"
        },
        {
          "internalType": "address",
          "name": "_owner",
          "type": "address"
        }
      ],
      "stateMutability": "nonpayable",
      "type": "constructor"
    },
    {
      "inputs": [],
      "name": "InstanceAlreadyInitialized",
      "type": "error"
    },
    {
      "inputs": [],
      "name": "InstanceDoesNotExist",
      "type": "error"
    },
    {
      "inputs": [],
      "name": "Unauthorized",
      "type": "error"
    },
    {
      "inputs": [],
      "name": "ZeroAddress",
      "type": "error"
    },
    {
      "anonymous": false,
      "inputs": [
        {
          "indexed": false,
          "internalType": "address",
          "name": "_tenant",
          "type": "address"
        },
        {
          "indexed": false,
          "internalType": "address",
          "name": "_proxy",
          "type": "address"
        }
      ],
      "name": "TenantCreated",
      "type": "event"
    },
    {
      "inputs": [
        {
          "internalType": "address",
          "name": "_tenant",
          "type": "address"
        },
        {
          "internalType": "string",
          "name": "_name",
          "type": "string"
        },
        {
          "internalType": "string",
          "name": "_symbol",
          "type": "string"
        },
        {
          "internalType": "bool",
          "name": "_isCollection",
          "type": "bool"
        }
      ],
      "name": "createInstance",
      "outputs": [],
      "stateMutability": "nonpayable",
      "type": "function"
    },
    {
      "inputs": [
        {
          "internalType": "address",
          "name": "_tenant",
          "type": "address"
        }
      ],
      "name": "getProxy",
      "outputs": [
        {
          "internalType": "contract ERC721",
          "name": "",
          "type": "address"
        }
      ],
      "stateMutability": "view",
      "type": "function"
    },
    {
      "inputs": [
        {
          "internalType": "address",
          "name": "",
          "type": "address"
        }
      ],
      "name": "instance",
      "outputs": [
        {
          "internalType": "bool",
          "name": "",
          "type": "bool"
        }
      ],
      "stateMutability": "view",
      "type": "function"
    },
    {
      "inputs": [],
      "name": "masterContract",
      "outputs": [
        {
          "internalType": "address",
          "name": "",
          "type": "address"
        }
      ],
      "stateMutability": "view",
      "type": "function"
    },
    {
      "inputs": [],
      "name": "owner",
      "outputs": [
        {
          "internalType": "address",
          "name": "",
          "type": "address"
        }
      ],
      "stateMutability": "view",
      "type": "function"
    },
    {
      "inputs": [],
      "name": "tenantCounter",
      "outputs": [
        {
          "internalType": "uint256",
          "name": "_value",
          "type": "uint256"
        }
      ],
      "stateMutability": "view",
      "type": "function"
    },
    {
      "inputs": [
        {
          "internalType": "address",
          "name": "",
          "type": "address"
        }
      ],
      "name": "tenants",
      "outputs": [
        {
          "internalType": "contract ERC721",
          "name": "erc721",
          "type": "address"
        },
        {
          "internalType": "address",
          "name": "owner",
          "type": "address"
        }
      ],
      "stateMutability": "view",
      "type": "function"
    }
  ],
  "bytecode": "0x60c060405234801561001057600080fd5b50604051610dc7380380610dc7833981810160405281019061003291906100bc565b8173ffffffffffffffffffffffffffffffffffffffff1660a08173ffffffffffffffffffffffffffffffffffffffff1660601b815250508073ffffffffffffffffffffffffffffffffffffffff1660808173ffffffffffffffffffffffffffffffffffffffff1660601b815250505050610141565b6000815190506100b68161012a565b92915050565b600080604083850312156100cf57600080fd5b60006100dd858286016100a7565b92505060206100ee858286016100a7565b9150509250929050565b60006101038261010a565b9050919050565b600073ffffffffffffffffffffffffffffffffffffffff82169050919050565b610133816100f8565b811461013e57600080fd5b50565b60805160601c60a05160601c610c4d61017a60003960008181610457015261065e01526000818161019701526103470152610c4d6000f3fe608060405234801561001057600080fd5b506004361061007d5760003560e01c8063badb8b4b1161005b578063badb8b4b146100ee578063cd446e221461010a578063cf33d58814610128578063fd9153a3146101585761007d565b80631e9b4755146100825780638da5cb5b146100a0578063b7fba4d3146100be575b600080fd5b61008a610189565b6040516100979190610a3d565b60405180910390f35b6100a8610195565b6040516100b59190610947565b60405180910390f35b6100d860048036038101906100d39190610816565b6101b9565b6040516100e591906109a6565b60405180910390f35b6101086004803603810190610103919061083f565b6102a8565b005b61011261065c565b60405161011f9190610947565b60405180910390f35b610142600480360381019061013d9190610816565b610680565b60405161014f919061098b565b60405180910390f35b610172600480360381019061016d9190610816565b6106a0565b6040516101809291906109c1565b60405180910390f35b60008060000154905081565b7f000000000000000000000000000000000000000000000000000000000000000081565b6000600260008373ffffffffffffffffffffffffffffffffffffffff1673ffffffffffffffffffffffffffffffffffffffff16815260200190815260200160002060009054906101000a900460ff1661023e576040517f5173702000000000000000000000000000000000000000000000000000000000815260040160405180910390fd5b600160008373ffffffffffffffffffffffffffffffffffffffff1673ffffffffffffffffffffffffffffffffffffffff16815260200190815260200160002060000160009054906101000a900473ffffffffffffffffffffffffffffffffffffffff169050919050565b83600073ffffffffffffffffffffffffffffffffffffffff168173ffffffffffffffffffffffffffffffffffffffff161415610310576040517fd92e233d00000000000000000000000000000000000000000000000000000000815260040160405180910390fd5b8073ffffffffffffffffffffffffffffffffffffffff163373ffffffffffffffffffffffffffffffffffffffff16148061039557507f000000000000000000000000000000000000000000000000000000000000000073ffffffffffffffffffffffffffffffffffffffff163373ffffffffffffffffffffffffffffffffffffffff16145b6103cb576040517f82b4290000000000000000000000000000000000000000000000000000000000815260040160405180910390fd5b84600260008273ffffffffffffffffffffffffffffffffffffffff1673ffffffffffffffffffffffffffffffffffffffff16815260200190815260200160002060009054906101000a900460ff1615610450576040517ff76d29a900000000000000000000000000000000000000000000000000000000815260040160405180910390fd5b600061047b7f0000000000000000000000000000000000000000000000000000000000000000610704565b90508073ffffffffffffffffffffffffffffffffffffffff16634f6671f28787878b6040518563ffffffff1660e01b81526004016104bc94939291906109ea565b600060405180830381600087803b1580156104d657600080fd5b505af11580156104ea573d6000803e3d6000fd5b505050506000600160008973ffffffffffffffffffffffffffffffffffffffff1673ffffffffffffffffffffffffffffffffffffffff1681526020019081526020016000209050818160000160006101000a81548173ffffffffffffffffffffffffffffffffffffffff021916908373ffffffffffffffffffffffffffffffffffffffff160217905550878160010160006101000a81548173ffffffffffffffffffffffffffffffffffffffff021916908373ffffffffffffffffffffffffffffffffffffffff1602179055506001600260008a73ffffffffffffffffffffffffffffffffffffffff1673ffffffffffffffffffffffffffffffffffffffff16815260200190815260200160002060006101000a81548160ff021916908315150217905550610619600061076e565b7f6c253b297385738b44c5cd705bc77dfaf43a58b0a4e9fe4f4eb44eebb417db11888360405161064a929190610962565b60405180910390a15050505050505050565b7f000000000000000000000000000000000000000000000000000000000000000081565b60026020528060005260406000206000915054906101000a900460ff1681565b60016020528060005260406000206000915090508060000160009054906101000a900473ffffffffffffffffffffffffffffffffffffffff16908060010160009054906101000a900473ffffffffffffffffffffffffffffffffffffffff16905082565b6000808260601b90506040517f3d602d80600a3d3981f3363d3d373d3d3d363d7300000000000000000000000081528160148201527f5af43d82803e903d91602b57fd5bf3000000000000000000000000000000000060288201526037816000f092505050919050565b6001816000016000828254019250508190555050565b600061079761079284610a7d565b610a58565b9050828152602081018484840111156107af57600080fd5b6107ba848285610b36565b509392505050565b6000813590506107d181610be9565b92915050565b6000813590506107e681610c00565b92915050565b600082601f8301126107fd57600080fd5b813561080d848260208601610784565b91505092915050565b60006020828403121561082857600080fd5b6000610836848285016107c2565b91505092915050565b6000806000806080858703121561085557600080fd5b6000610863878288016107c2565b945050602085013567ffffffffffffffff81111561088057600080fd5b61088c878288016107ec565b935050604085013567ffffffffffffffff8111156108a957600080fd5b6108b5878288016107ec565b92505060606108c6878288016107d7565b91505092959194509250565b6108db81610aca565b82525050565b6108ea81610adc565b82525050565b6108f981610b12565b82525050565b600061090a82610aae565b6109148185610ab9565b9350610924818560208601610b45565b61092d81610bd8565b840191505092915050565b61094181610b08565b82525050565b600060208201905061095c60008301846108d2565b92915050565b600060408201905061097760008301856108d2565b61098460208301846108d2565b9392505050565b60006020820190506109a060008301846108e1565b92915050565b60006020820190506109bb60008301846108f0565b92915050565b60006040820190506109d660008301856108f0565b6109e360208301846108d2565b9392505050565b60006080820190508181036000830152610a0481876108ff565b90508181036020830152610a1881866108ff565b9050610a2760408301856108e1565b610a3460608301846108d2565b95945050505050565b6000602082019050610a526000830184610938565b92915050565b6000610a62610a73565b9050610a6e8282610b78565b919050565b6000604051905090565b600067ffffffffffffffff821115610a9857610a97610ba9565b5b610aa182610bd8565b9050602081019050919050565b600081519050919050565b600082825260208201905092915050565b6000610ad582610ae8565b9050919050565b60008115159050919050565b600073ffffffffffffffffffffffffffffffffffffffff82169050919050565b6000819050919050565b6000610b1d82610b24565b9050919050565b6000610b2f82610ae8565b9050919050565b82818337600083830152505050565b60005b83811015610b63578082015181840152602081019050610b48565b83811115610b72576000848401525b50505050565b610b8182610bd8565b810181811067ffffffffffffffff82111715610ba057610b9f610ba9565b5b80604052505050565b7f4e487b7100000000000000000000000000000000000000000000000000000000600052604160045260246000fd5b6000601f19601f8301169050919050565b610bf281610aca565b8114610bfd57600080fd5b50565b610c0981610adc565b8114610c1457600080fd5b5056fea264697066735822122031426277e0a0d0a178a3c5bc2e668c5a1d451d245e2245ad5de2ae14c0e2fb8264736f6c63430008040033",
  "linkReferences": {},
  "deployedLinkReferences": {}
}