{
  "_format": "hh-sol-artifact-1",
  "contractName": "FluidNFT",
  "sourceName": "contracts/FluidNFT.sol",
  "abi": [
    {
      "inputs": [],
      "stateMutability": "nonpayable",
      "type": "constructor"
    },
    {
      "anonymous": false,
      "inputs": [
        {
          "indexed": true,
          "internalType": "address",
          "name": "owner",
          "type": "address"
        },
        {
          "indexed": true,
          "internalType": "address",
          "name": "approved",
          "type": "address"
        },
        {
          "indexed": true,
          "internalType": "uint256",
          "name": "tokenId",
          "type": "uint256"
        }
      ],
      "name": "Approval",
      "type": "event"
    },
    {
      "anonymous": false,
      "inputs": [
        {
          "indexed": true,
          "internalType": "address",
          "name": "owner",
          "type": "address"
        },
        {
          "indexed": true,
          "internalType": "address",
          "name": "operator",
          "type": "address"
        },
        {
          "indexed": false,
          "internalType": "bool",
          "name": "approved",
          "type": "bool"
        }
      ],
      "name": "ApprovalForAll",
      "type": "event"
    },
    {
      "anonymous": false,
      "inputs": [
        {
          "indexed": false,
          "internalType": "uint256",
          "name": "tokenId",
          "type": "uint256"
        },
        {
          "indexed": false,
          "internalType": "address",
          "name": "receiver",
          "type": "address"
        },
        {
          "indexed": false,
          "internalType": "int96",
          "name": "flowRate",
          "type": "int96"
        }
      ],
      "name": "NFTIssued",
      "type": "event"
    },
    {
      "anonymous": false,
      "inputs": [
        {
          "indexed": true,
          "internalType": "address",
          "name": "previousOwner",
          "type": "address"
        },
        {
          "indexed": true,
          "internalType": "address",
          "name": "newOwner",
          "type": "address"
        }
      ],
      "name": "OwnershipTransferred",
      "type": "event"
    },
    {
      "anonymous": false,
      "inputs": [
        {
          "indexed": true,
          "internalType": "address",
          "name": "from",
          "type": "address"
        },
        {
          "indexed": true,
          "internalType": "address",
          "name": "to",
          "type": "address"
        },
        {
          "indexed": true,
          "internalType": "uint256",
          "name": "tokenId",
          "type": "uint256"
        }
      ],
      "name": "Transfer",
      "type": "event"
    },
    {
      "inputs": [],
      "name": "_acceptedToken",
      "outputs": [
        {
          "internalType": "contract ISuperToken",
          "name": "",
          "type": "address"
        }
      ],
      "stateMutability": "view",
      "type": "function"
    },
    {
      "inputs": [
        {
          "internalType": "address",
          "name": "to",
          "type": "address"
        },
        {
          "internalType": "uint256",
          "name": "tokenId",
          "type": "uint256"
        }
      ],
      "name": "approve",
      "outputs": [],
      "stateMutability": "nonpayable",
      "type": "function"
    },
    {
      "inputs": [
        {
          "internalType": "address",
          "name": "owner",
          "type": "address"
        }
      ],
      "name": "balanceOf",
      "outputs": [
        {
          "internalType": "uint256",
          "name": "",
          "type": "uint256"
        }
      ],
      "stateMutability": "view",
      "type": "function"
    },
    {
      "inputs": [],
      "name": "baseURI",
      "outputs": [
        {
          "internalType": "string",
          "name": "",
          "type": "string"
        }
      ],
      "stateMutability": "view",
      "type": "function"
    },
    {
      "inputs": [
        {
          "internalType": "uint256",
          "name": "tokenId",
          "type": "uint256"
        }
      ],
      "name": "burnNFT",
      "outputs": [],
      "stateMutability": "nonpayable",
      "type": "function"
    },
    {
      "inputs": [],
      "name": "contractOwner",
      "outputs": [
        {
          "internalType": "address",
          "name": "",
          "type": "address"
        }
      ],
      "stateMutability": "view",
      "type": "function"
    },
    {
      "inputs": [
        {
          "internalType": "uint256",
          "name": "",
          "type": "uint256"
        }
      ],
      "name": "flowRates",
      "outputs": [
        {
          "internalType": "int96",
          "name": "",
          "type": "int96"
        }
      ],
      "stateMutability": "view",
      "type": "function"
    },
    {
      "inputs": [
        {
          "internalType": "uint256",
          "name": "tokenId",
          "type": "uint256"
        }
      ],
      "name": "getApproved",
      "outputs": [
        {
          "internalType": "address",
          "name": "",
          "type": "address"
        }
      ],
      "stateMutability": "view",
      "type": "function"
    },
    {
      "inputs": [
        {
          "internalType": "string",
          "name": "name_",
          "type": "string"
        },
        {
          "internalType": "string",
          "name": "symbol_",
          "type": "string"
        },
        {
          "internalType": "address",
          "name": "_tenant",
          "type": "address"
        },
        {
          "internalType": "contract ISuperfluid",
          "name": "host",
          "type": "address"
        },
        {
          "internalType": "contract IConstantFlowAgreementV1",
          "name": "cfa",
          "type": "address"
        },
        {
          "internalType": "contract ISuperToken",
          "name": "acceptedToken",
          "type": "address"
        }
      ],
      "name": "init",
      "outputs": [],
      "stateMutability": "nonpayable",
      "type": "function"
    },
    {
      "inputs": [],
      "name": "initialized",
      "outputs": [
        {
          "internalType": "bool",
          "name": "",
          "type": "bool"
        }
      ],
      "stateMutability": "view",
      "type": "function"
    },
    {
      "inputs": [
        {
          "internalType": "address",
          "name": "owner",
          "type": "address"
        },
        {
          "internalType": "address",
          "name": "operator",
          "type": "address"
        }
      ],
      "name": "isApprovedForAll",
      "outputs": [
        {
          "internalType": "bool",
          "name": "",
          "type": "bool"
        }
      ],
      "stateMutability": "view",
      "type": "function"
    },
    {
      "inputs": [
        {
          "internalType": "address",
          "name": "receiver",
          "type": "address"
        },
        {
          "internalType": "int96",
          "name": "flowRate",
          "type": "int96"
        }
      ],
      "name": "issueNFT",
      "outputs": [
        {
          "internalType": "uint256",
          "name": "",
          "type": "uint256"
        }
      ],
      "stateMutability": "nonpayable",
      "type": "function"
    },
    {
      "inputs": [],
      "name": "name",
      "outputs": [
        {
          "internalType": "string",
          "name": "",
          "type": "string"
        }
      ],
      "stateMutability": "view",
      "type": "function"
    },
    {
      "inputs": [],
      "name": "nextId",
      "outputs": [
        {
          "internalType": "uint256",
          "name": "",
          "type": "uint256"
        }
      ],
      "stateMutability": "view",
      "type": "function"
    },
    {
      "inputs": [],
      "name": "owner",
      "outputs": [
        {
          "internalType": "address",
          "name": "",
          "type": "address"
        }
      ],
      "stateMutability": "view",
      "type": "function"
    },
    {
      "inputs": [
        {
          "internalType": "uint256",
          "name": "tokenId",
          "type": "uint256"
        }
      ],
      "name": "ownerOf",
      "outputs": [
        {
          "internalType": "address",
          "name": "",
          "type": "address"
        }
      ],
      "stateMutability": "view",
      "type": "function"
    },
    {
      "inputs": [],
      "name": "renounceOwnership",
      "outputs": [],
      "stateMutability": "nonpayable",
      "type": "function"
    },
    {
      "inputs": [
        {
          "internalType": "address",
          "name": "from",
          "type": "address"
        },
        {
          "internalType": "address",
          "name": "to",
          "type": "address"
        },
        {
          "internalType": "uint256",
          "name": "tokenId",
          "type": "uint256"
        }
      ],
      "name": "safeTransferFrom",
      "outputs": [],
      "stateMutability": "nonpayable",
      "type": "function"
    },
    {
      "inputs": [
        {
          "internalType": "address",
          "name": "from",
          "type": "address"
        },
        {
          "internalType": "address",
          "name": "to",
          "type": "address"
        },
        {
          "internalType": "uint256",
          "name": "tokenId",
          "type": "uint256"
        },
        {
          "internalType": "bytes",
          "name": "_data",
          "type": "bytes"
        }
      ],
      "name": "safeTransferFrom",
      "outputs": [],
      "stateMutability": "nonpayable",
      "type": "function"
    },
    {
      "inputs": [
        {
          "internalType": "address",
          "name": "operator",
          "type": "address"
        },
        {
          "internalType": "bool",
          "name": "approved",
          "type": "bool"
        }
      ],
      "name": "setApprovalForAll",
      "outputs": [],
      "stateMutability": "nonpayable",
      "type": "function"
    },
    {
      "inputs": [
        {
          "internalType": "bytes4",
          "name": "interfaceId",
          "type": "bytes4"
        }
      ],
      "name": "supportsInterface",
      "outputs": [
        {
          "internalType": "bool",
          "name": "",
          "type": "bool"
        }
      ],
      "stateMutability": "view",
      "type": "function"
    },
    {
      "inputs": [],
      "name": "symbol",
      "outputs": [
        {
          "internalType": "string",
          "name": "",
          "type": "string"
        }
      ],
      "stateMutability": "view",
      "type": "function"
    },
    {
      "inputs": [],
      "name": "tokenCounter",
      "outputs": [
        {
          "internalType": "uint256",
          "name": "",
          "type": "uint256"
        }
      ],
      "stateMutability": "view",
      "type": "function"
    },
    {
      "inputs": [
        {
          "internalType": "uint256",
          "name": "tokenId",
          "type": "uint256"
        }
      ],
      "name": "tokenURI",
      "outputs": [
        {
          "internalType": "string",
          "name": "",
          "type": "string"
        }
      ],
      "stateMutability": "view",
      "type": "function"
    },
    {
      "inputs": [
        {
          "internalType": "address",
          "name": "from",
          "type": "address"
        },
        {
          "internalType": "address",
          "name": "to",
          "type": "address"
        },
        {
          "internalType": "uint256",
          "name": "tokenId",
          "type": "uint256"
        }
      ],
      "name": "transferFrom",
      "outputs": [],
      "stateMutability": "nonpayable",
      "type": "function"
    },
    {
      "inputs": [
        {
          "internalType": "address",
          "name": "newOwner",
          "type": "address"
        }
      ],
      "name": "transferOwnership",
      "outputs": [],
      "stateMutability": "nonpayable",
      "type": "function"
    },
    {
      "inputs": [],
      "name": "withdraw",
      "outputs": [],
      "stateMutability": "payable",
      "type": "function"
    }
  ],
  "bytecode": "0x60a06040523480156200001157600080fd5b50620000246301ffc9a760e01b6200008b565b600062000030620000e6565b600980546001600160a01b0319166001600160a01b038316908117909155604051919250906000907f8be0079c531659141344cd1fd0a4f28419497f9722a3daafe3b4186f6b6457e0908290a3503360601b60805262000121565b6001600160e01b03198082161415620000c15760405162461bcd60e51b8152600401620000b890620000ea565b60405180910390fd5b6001600160e01b0319166000908152602081905260409020805460ff19166001179055565b3390565b6020808252601c908201527f4552433136353a20696e76616c696420696e7465726661636520696400000000604082015260600190565b60805160601c6125736200013f60003980610cd852506125736000f3fe60806040526004361061019c5760003560e01c80636c0360eb116100ec578063a30735b01161008a578063ce606ee011610064578063ce606ee01461045d578063d082e38114610472578063e985e9c514610487578063f2fde38b146104a75761019c565b8063a30735b0146103fd578063b88d4fde1461041d578063c87b56dd1461043d5761019c565b806379bcb8df116100c657806379bcb8df146103865780638da5cb5b146103b357806395d89b41146103c8578063a22cb465146103dd5761019c565b80636c0360eb1461033c57806370a0823114610351578063715018a6146103715761019c565b80632890e0d71161015957806342842e0e1161013357806342842e0e146102d25780634e5b3c7c146102f257806361b8ce8c146103075780636352211e1461031c5761019c565b80632890e0d71461027d5780632a081a061461029d5780633ccfd60b146102ca5761019c565b806301ffc9a7146101a157806306fdde03146101d7578063081812fc146101f9578063095ea7b314610226578063158ef93e1461024857806323b872dd1461025d575b600080fd5b3480156101ad57600080fd5b506101c16101bc366004611b03565b6104c7565b6040516101ce9190611d4b565b60405180910390f35b3480156101e357600080fd5b506101ec61050d565b6040516101ce9190611e38565b34801561020557600080fd5b50610219610214366004611c5a565b6105a2565b6040516101ce9190611cfa565b34801561023257600080fd5b50610246610241366004611abc565b6105ee565b005b34801561025457600080fd5b506101c1610686565b34801561026957600080fd5b506102466102783660046119b8565b61068f565b34801561028957600080fd5b50610246610298366004611c5a565b6106c7565b3480156102a957600080fd5b506102bd6102b8366004611a8f565b610779565b6040516101ce9190612417565b6102466108c3565b3480156102de57600080fd5b506102466102ed3660046119b8565b61096e565b3480156102fe57600080fd5b50610219610989565b34801561031357600080fd5b506102bd610998565b34801561032857600080fd5b50610219610337366004611c5a565b61099e565b34801561034857600080fd5b506101ec6109d3565b34801561035d57600080fd5b506102bd61036c366004611964565b610a34565b34801561037d57600080fd5b50610246610a78565b34801561039257600080fd5b506103a66103a1366004611c5a565b610b01565b6040516101ce9190611e2a565b3480156103bf57600080fd5b50610219610b16565b3480156103d457600080fd5b506101ec610b25565b3480156103e957600080fd5b506102466103f8366004611a62565b610b83565b34801561040957600080fd5b50610246610418366004611bae565b610b99565b34801561042957600080fd5b506102466104383660046119f8565b610c24565b34801561044957600080fd5b506101ec610458366004611c5a565b610c5d565b34801561046957600080fd5b50610219610cd6565b34801561047e57600080fd5b506102bd610cfa565b34801561049357600080fd5b506101c16104a2366004611980565b610d00565b3480156104b357600080fd5b506102466104c2366004611964565b610d2e565b60006001600160e01b031982166380ac58cd60e01b14806104f857506001600160e01b03198216635b5e139f60e01b145b80610507575061050782610def565b92915050565b60018054604080516020601f600260001961010087891615020190951694909404938401819004810282018101909252828152606093909290918301828280156105985780601f1061056d57610100808354040283529160200191610598565b820191906000526020600020905b81548152906001019060200180831161057b57829003601f168201915b5050505050905090565b60006105ad82610e0e565b6105d25760405162461bcd60e51b81526004016105c990612209565b60405180910390fd5b506000908152600660205260409020546001600160a01b031690565b60006105f98261099e565b9050806001600160a01b0316836001600160a01b0316141561062d5760405162461bcd60e51b81526004016105c99061231e565b806001600160a01b031661063f610e2b565b6001600160a01b0316148061065b575061065b816104a2610e2b565b6106775760405162461bcd60e51b81526004016105c9906120a2565b6106818383610e2f565b505050565b60035460ff1681565b6106a061069a610e2b565b82610e9d565b6106bc5760405162461bcd60e51b81526004016105c99061238f565b610681838383610f22565b6106cf610e2b565b6001600160a01b03166106e0610b16565b6001600160a01b0316146107065760405162461bcd60e51b81526004016105c990612255565b8061071081610e0e565b61072c5760405162461bcd60e51b81526004016105c990611e4b565b60006107378361099e565b6000848152600d6020526040902080546bffffffffffffffffffffffff198116909155909150600b0b6107698461101a565b61077382826110af565b50505050565b6010546000906001600160a01b031633146107a65760405162461bcd60e51b81526004016105c9906122d9565b6001600160a01b0383163014156107cf5760405162461bcd60e51b81526004016105c99061235f565b600082600b0b136107f25760405162461bcd60e51b81526004016105c99061206b565b600f80546000908152600d60205260408082208054600b87810b6bffffffffffffffffffffffff166bffffffffffffffffffffffff19909216919091179091559254808352918190205490517f6e89a354929848553af9a2898855fe0486bb36807f1512041a8fcf8e19f4a5849361086f93928892910b90612420565b60405180910390a16000600f54905061089f6040518060600160405280603c8152602001612502603c913961118d565b6108a984826111a0565b6108b281610c5d565b50600f805460010190559392505050565b6108cb610e2b565b6001600160a01b03166108dc610b16565b6001600160a01b0316146109025760405162461bcd60e51b81526004016105c990612255565b6000336001600160a01b03164760405161091b90611cf7565b60006040518083038185875af1925050503d8060008114610958576040519150601f19603f3d011682016040523d82523d6000602084013e61095d565b606091505b505090508061096b57600080fd5b50565b61068183838360405180602001604052806000815250610c24565b600c546001600160a01b031681565b600e5481565b6000818152600460205260408120546001600160a01b0316806105075760405162461bcd60e51b81526004016105c990612149565b60088054604080516020601f60026000196101006001881615020190951694909404938401819004810282018101909252828152606093909290918301828280156105985780601f1061056d57610100808354040283529160200191610598565b60006001600160a01b038216610a5c5760405162461bcd60e51b81526004016105c9906120ff565b506001600160a01b031660009081526005602052604090205490565b610a80610e2b565b6001600160a01b0316610a91610b16565b6001600160a01b031614610ab75760405162461bcd60e51b81526004016105c990612255565b6009546040516000916001600160a01b0316907f8be0079c531659141344cd1fd0a4f28419497f9722a3daafe3b4186f6b6457e0908390a3600980546001600160a01b0319169055565b600d60205260009081526040902054600b0b81565b6009546001600160a01b031690565b60028054604080516020601f60001961010060018716150201909416859004938401819004810282018101909252828152606093909290918301828280156105985780601f1061056d57610100808354040283529160200191610598565b610b95610b8e610e2b565b83836111ba565b5050565b610ba3868661125d565b600a80546001600160a01b03199081166001600160a01b038681169190911792839055600b80548316868316179055600c8054831685831617905560108054909216878216179091556000600f5516610bf857fe5b600b546001600160a01b0316610c0a57fe5b600c546001600160a01b0316610c1c57fe5b505050505050565b610c35610c2f610e2b565b83610e9d565b610c515760405162461bcd60e51b81526004016105c99061238f565b610773848484846112b9565b6060610c6882610e0e565b610c845760405162461bcd60e51b81526004016105c99061228a565b6060610c8e6109d3565b90506000815111610cae5760405180602001604052806000815250610ccf565b80604051602001610cbf9190611cdb565b6040516020818303038152906040525b9392505050565b7f000000000000000000000000000000000000000000000000000000000000000081565b600f5481565b6001600160a01b03918216600090815260076020908152604080832093909416825291909152205460ff1690565b610d36610e2b565b6001600160a01b0316610d47610b16565b6001600160a01b031614610d6d5760405162461bcd60e51b81526004016105c990612255565b6001600160a01b038116610d935760405162461bcd60e51b81526004016105c990611ee2565b6009546040516001600160a01b038084169216907f8be0079c531659141344cd1fd0a4f28419497f9722a3daafe3b4186f6b6457e090600090a3600980546001600160a01b0319166001600160a01b0392909216919091179055565b6001600160e01b03191660009081526020819052604090205460ff1690565b6000908152600460205260409020546001600160a01b0316151590565b3390565b600081815260066020526040902080546001600160a01b0319166001600160a01b0384169081179091558190610e648261099e565b6001600160a01b03167f8c5be1e5ebec7d5bd14f71427d1e84f3dd0314c0f7b2291e5b200ac8c7c3b92560405160405180910390a45050565b6000610ea882610e0e565b610ec45760405162461bcd60e51b81526004016105c99061201f565b6000610ecf8361099e565b9050806001600160a01b0316846001600160a01b03161480610f0a5750836001600160a01b0316610eff846105a2565b6001600160a01b0316145b80610f1a5750610f1a8185610d00565b949350505050565b826001600160a01b0316610f358261099e565b6001600160a01b031614610f5b5760405162461bcd60e51b81526004016105c990611f28565b6001600160a01b038216610f815760405162461bcd60e51b81526004016105c990611fa4565b610f8c8383836112ec565b610f97600082610e2f565b6001600160a01b038084166000818152600560209081526040808320805460001901905593861680835284832080546001019055858352600490915283822080546001600160a01b031916821790559251849392917fddf252ad1be2c89b69c2b068fc378daa952ba7f163c4a11628f55a4df523b3ef91a4610681838383610681565b60006110258261099e565b9050611033816000846112ec565b61103e600083610e2f565b6001600160a01b03811660008181526005602090815260408083208054600019019055858352600490915280822080546001600160a01b0319169055518492907fddf252ad1be2c89b69c2b068fc378daa952ba7f163c4a11628f55a4df523b3ef908390a4610b9581600084610681565b6001600160a01b0382163014156110c557610b95565b600b54600c54604051631cd43d1160e31b81526000926001600160a01b039081169263e6a1e88892611101929091169030908890600401611d9d565b60806040518083038186803b15801561111957600080fd5b505afa15801561112d573d6000803e3d6000fd5b505050506040513d601f19601f820116820180604052508101906111519190611c72565b505091505081600b0b81600b0b14156111735761116e30846113d6565b610681565b81600b0b81600b0b131561068157610681838383036114bd565b8051610b9590600890602084019061187e565b610b95828260405180602001604052806000815250611552565b816001600160a01b0316836001600160a01b031614156111ec5760405162461bcd60e51b81526004016105c990611fe8565b6001600160a01b0383811660008181526007602090815260408083209487168084529490915290819020805460ff1916851515179055517f17307eab39ab6107e8899845ad3d59bd9653f200f220920489ca2b5937696c3190611250908590611d4b565b60405180910390a3505050565b60035460ff16156112805760405162461bcd60e51b81526004016105c9906123e0565b815161129390600190602085019061187e565b5080516112a790600290602084019061187e565b50506003805460ff1916600117905550565b6112c4848484610f22565b6112d084848484611585565b6107735760405162461bcd60e51b81526004016105c990611e90565b600a54604051631e51d6a760e11b81526001600160a01b0390911690633ca3ad4e9061131c908590600401611cfa565b60206040518083038186803b15801561133457600080fd5b505afa158015611348573d6000803e3d6000fd5b505050506040513d601f19601f8201168201806040525081019061136c9190611ae7565b158061138057506001600160a01b03821630145b61139c5760405162461bcd60e51b81526004016105c990612192565b6000818152600d60205260409020546113b9908490600b0b6110af565b6000818152600d6020526040902054610681908390600b0b6116a0565b600a54600b54600c546040805160008152602081019091526001600160a01b03938416936339255d5b93811692635a5999e360e11b9261142192909116908890889060448101611dc0565b60408051601f198184030181529181526020820180516001600160e01b03166001600160e01b03199485161790525160e085901b90921682526114679291600401611d56565b600060405180830381600087803b15801561148157600080fd5b505af1158015611495573d6000803e3d6000fd5b505050506040513d6000823e601f3d908101601f191682016040526106819190810190611b3b565b6001600160a01b0382163014806114db57506001600160a01b038216155b156114e557610b95565b600a54600b54600c546001600160a01b03928316926339255d5b928116916328104d3160e11b911686866000805b506040519080825280601f01601f19166020018201604052801561153e576020820181803683370190505b506040516024016114219493929190611df4565b61155c8383611753565b6115696000848484611585565b6106815760405162461bcd60e51b81526004016105c990611e90565b6000611599846001600160a01b031661181e565b1561169557836001600160a01b031663150b7a026115b5610e2b565b8786866040518563ffffffff1660e01b81526004016115d79493929190611d0e565b602060405180830381600087803b1580156115f157600080fd5b505af1925050508015611621575060408051601f3d908101601f1916820190925261161e91810190611b1f565b60015b61167b573d80801561164f576040519150601f19603f3d011682016040523d82523d6000602084013e611654565b606091505b5080516116735760405162461bcd60e51b81526004016105c990611e90565b805181602001fd5b6001600160e01b031916630a85bd0160e11b149050610f1a565b506001949350505050565b600b54600c54604051631cd43d1160e31b81526000926001600160a01b039081169263e6a1e888926116dc929091169030908890600401611d9d565b60806040518083038186803b1580156116f457600080fd5b505afa158015611708573d6000803e3d6000fd5b505050506040513d601f19601f8201168201806040525081019061172c9190611c72565b505091505080600b0b600014156117475761116e8383611824565b610681838383016114bd565b6001600160a01b0382166117795760405162461bcd60e51b81526004016105c9906121d4565b61178281610e0e565b1561179f5760405162461bcd60e51b81526004016105c990611f6d565b6117ab600083836112ec565b6001600160a01b038216600081815260056020908152604080832080546001019055848352600490915280822080546001600160a01b0319168417905551839291907fddf252ad1be2c89b69c2b068fc378daa952ba7f163c4a11628f55a4df523b3ef908290a4610b9560008383610681565b3b151590565b6001600160a01b03821630148061184257506001600160a01b038216155b1561184c57610b95565b600a54600b54600c546001600160a01b03928316926339255d5b9281169163317e182f60e11b91168686600080611513565b828054600181600116156101000203166002900490600052602060002090601f016020900481019282601f106118bf57805160ff19168380011785556118ec565b828001600101855582156118ec579182015b828111156118ec5782518255916020019190600101906118d1565b506118f89291506118fc565b5090565b5b808211156118f857600081556001016118fd565b600082601f830112611921578081fd5b813561193461192f82612469565b612442565b915080825283602082850101111561194b57600080fd5b8060208401602084013760009082016020015292915050565b600060208284031215611975578081fd5b8135610ccf816124b9565b60008060408385031215611992578081fd5b823561199d816124b9565b915060208301356119ad816124b9565b809150509250929050565b6000806000606084860312156119cc578081fd5b83356119d7816124b9565b925060208401356119e7816124b9565b929592945050506040919091013590565b60008060008060808587031215611a0d578081fd5b8435611a18816124b9565b93506020850135611a28816124b9565b925060408501359150606085013567ffffffffffffffff811115611a4a578182fd5b611a5687828801611911565b91505092959194509250565b60008060408385031215611a74578182fd5b8235611a7f816124b9565b915060208301356119ad816124ce565b60008060408385031215611aa1578182fd5b8235611aac816124b9565b915060208301356119ad816124f2565b60008060408385031215611ace578182fd5b8235611ad9816124b9565b946020939093013593505050565b600060208284031215611af8578081fd5b8151610ccf816124ce565b600060208284031215611b14578081fd5b8135610ccf816124dc565b600060208284031215611b30578081fd5b8151610ccf816124dc565b600060208284031215611b4c578081fd5b815167ffffffffffffffff811115611b62578182fd5b8201601f81018413611b72578182fd5b8051611b8061192f82612469565b818152856020838501011115611b94578384fd5b611ba582602083016020860161248d565b95945050505050565b60008060008060008060c08789031215611bc6578384fd5b863567ffffffffffffffff80821115611bdd578586fd5b611be98a838b01611911565b97506020890135915080821115611bfe578586fd5b50611c0b89828a01611911565b9550506040870135611c1c816124b9565b93506060870135611c2c816124b9565b92506080870135611c3c816124b9565b915060a0870135611c4c816124b9565b809150509295509295509295565b600060208284031215611c6b578081fd5b5035919050565b60008060008060808587031215611c87578182fd5b845193506020850151611c99816124f2565b6040860151606090960151949790965092505050565b60008151808452611cc781602086016020860161248d565b601f01601f19169290920160200192915050565b60008251611ced81846020870161248d565b9190910192915050565b90565b6001600160a01b0391909116815260200190565b6001600160a01b0385811682528416602082015260408101839052608060608201819052600090611d4190830184611caf565b9695505050505050565b901515815260200190565b6001600160a01b0383168152606060208201819052600090611d7a90830184611caf565b8281036040938401526002815261060f60f31b6020820152919091019392505050565b6001600160a01b0393841681529183166020830152909116604082015260600190565b6001600160a01b038581168252848116602083015283166040820152608060608201819052600090611d4190830184611caf565b6001600160a01b03858116825284166020820152600b83900b6040820152608060608201819052600090611d4190830184611caf565b600b9190910b815260200190565b600060208252610ccf6020830184611caf565b60208082526025908201527f746f6b656e20646f65736e2774206578697374206f7220686173206265656e20604082015264189d5c9b9d60da1b606082015260800190565b60208082526032908201527f4552433732313a207472616e7366657220746f206e6f6e20455243373231526560408201527131b2b4bb32b91034b6b83632b6b2b73a32b960711b606082015260800190565b60208082526026908201527f4f776e61626c653a206e6577206f776e657220697320746865207a65726f206160408201526564647265737360d01b606082015260800190565b60208082526025908201527f4552433732313a207472616e736665722066726f6d20696e636f72726563742060408201526437bbb732b960d91b606082015260800190565b6020808252601c908201527f4552433732313a20746f6b656e20616c7265616479206d696e74656400000000604082015260600190565b60208082526024908201527f4552433732313a207472616e7366657220746f20746865207a65726f206164646040820152637265737360e01b606082015260800190565b60208082526019908201527f4552433732313a20617070726f766520746f2063616c6c657200000000000000604082015260600190565b6020808252602c908201527f4552433732313a206f70657261746f7220717565727920666f72206e6f6e657860408201526b34b9ba32b73a103a37b5b2b760a11b606082015260800190565b6020808252601a908201527f666c6f7752617465206d75737420626520706f73697469766521000000000000604082015260600190565b60208082526038908201527f4552433732313a20617070726f76652063616c6c6572206973206e6f74206f7760408201527f6e6572206e6f7220617070726f76656420666f7220616c6c0000000000000000606082015260800190565b6020808252602a908201527f4552433732313a2062616c616e636520717565727920666f7220746865207a65604082015269726f206164647265737360b01b606082015260800190565b60208082526029908201527f4552433732313a206f776e657220717565727920666f72206e6f6e657869737460408201526832b73a103a37b5b2b760b91b606082015260800190565b60208082526022908201527f4e65772072656365697665722063616e206e6f74206265206120737570657241604082015261070760f41b606082015260800190565b6020808252818101527f4552433732313a206d696e7420746f20746865207a65726f2061646472657373604082015260600190565b6020808252602c908201527f4552433732313a20617070726f76656420717565727920666f72206e6f6e657860408201526b34b9ba32b73a103a37b5b2b760a11b606082015260800190565b6020808252818101527f4f776e61626c653a2063616c6c6572206973206e6f7420746865206f776e6572604082015260600190565b6020808252602f908201527f4552433732314d657461646174613a2055524920717565727920666f72206e6f60408201526e3732bc34b9ba32b73a103a37b5b2b760891b606082015260800190565b60208082526025908201527f4f6e6c79207468652054656e616e74206f776e65722063616e206d696e7420616040820152641b8813919560da1b606082015260800190565b60208082526021908201527f4552433732313a20617070726f76616c20746f2063757272656e74206f776e656040820152603960f91b606082015260800190565b602080825260169082015275497373756520746f2061206e6577206164647265737360501b604082015260600190565b60208082526031908201527f4552433732313a207472616e736665722063616c6c6572206973206e6f74206f6040820152701ddb995c881b9bdc88185c1c1c9bdd9959607a1b606082015260800190565b6020808252601e908201527f416c726561647920696e697469616c697a6564207468652073746174652e0000604082015260600190565b90815260200190565b9283526001600160a01b03919091166020830152600b0b604082015260600190565b60405181810167ffffffffffffffff8111828210171561246157600080fd5b604052919050565b600067ffffffffffffffff82111561247f578081fd5b50601f01601f191660200190565b60005b838110156124a8578181015183820152602001612490565b838111156107735750506000910152565b6001600160a01b038116811461096b57600080fd5b801515811461096b57600080fd5b6001600160e01b03198116811461096b57600080fd5b80600b0b811461096b57600080fdfe697066733a2f2f516d52336e4b367375754b6d7367445a4472615946354a434a4e554e44334a4859676e594a587a47556f684c394c2f312e6a736f6ea2646970667358221220d31b002d316b296b9adff0837b8c798e3b88c5d01a6488e04942e9f0a35e36d364736f6c63430007010033",
  "linkReferences": {},
  "deployedLinkReferences": {}
}