{
  "_format": "hh-sol-artifact-1",
  "contractName": "Tribes",
  "sourceName": "contracts/Tribes.sol",
  "abi": [
    {
      "inputs": [
        {
          "internalType": "address",
          "name": "_owner",
          "type": "address"
        }
      ],
      "stateMutability": "nonpayable",
      "type": "constructor"
    },
    {
      "inputs": [],
      "name": "AlreadyInitialized",
      "type": "error"
    },
    {
      "inputs": [],
      "name": "TribeDoesNotExist",
      "type": "error"
    },
    {
      "inputs": [],
      "name": "Unauthorized",
      "type": "error"
    },
    {
      "inputs": [],
      "name": "UserInATribe",
      "type": "error"
    },
    {
      "inputs": [],
      "name": "UserNotInATribe",
      "type": "error"
    },
    {
      "inputs": [],
      "name": "ZeroAddress",
      "type": "error"
    },
    {
      "anonymous": false,
      "inputs": [
        {
          "indexed": false,
          "internalType": "uint8",
          "name": "version",
          "type": "uint8"
        }
      ],
      "name": "Initialized",
      "type": "event"
    },
    {
      "anonymous": false,
      "inputs": [
        {
          "indexed": true,
          "internalType": "uint256",
          "name": "tribeId",
          "type": "uint256"
        },
        {
          "indexed": false,
          "internalType": "address",
          "name": "newMember",
          "type": "address"
        }
      ],
      "name": "JoinedTribe",
      "type": "event"
    },
    {
      "anonymous": false,
      "inputs": [
        {
          "indexed": true,
          "internalType": "uint256",
          "name": "tribeId",
          "type": "uint256"
        },
        {
          "indexed": false,
          "internalType": "address",
          "name": "member",
          "type": "address"
        }
      ],
      "name": "LeftTribe",
      "type": "event"
    },
    {
      "anonymous": false,
      "inputs": [
        {
          "indexed": false,
          "internalType": "string",
          "name": "metadata",
          "type": "string"
        }
      ],
      "name": "NewTribeCreated",
      "type": "event"
    },
    {
      "inputs": [
        {
          "internalType": "string",
          "name": "_metadata",
          "type": "string"
        }
      ],
      "name": "addNewTribe",
      "outputs": [],
      "stateMutability": "nonpayable",
      "type": "function"
    },
    {
      "inputs": [
        {
          "internalType": "uint256",
          "name": "",
          "type": "uint256"
        }
      ],
      "name": "allTribes",
      "outputs": [
        {
          "internalType": "string",
          "name": "metadata",
          "type": "string"
        },
        {
          "internalType": "uint256",
          "name": "numOfMembers",
          "type": "uint256"
        },
        {
          "internalType": "uint256",
          "name": "tribeId",
          "type": "uint256"
        }
      ],
      "stateMutability": "view",
      "type": "function"
    },
    {
      "inputs": [],
      "name": "contractOwner",
      "outputs": [
        {
          "internalType": "address",
          "name": "",
          "type": "address"
        }
      ],
      "stateMutability": "view",
      "type": "function"
    },
    {
      "inputs": [
        {
          "internalType": "uint256",
          "name": "_tribeId",
          "type": "uint256"
        }
      ],
      "name": "getTribeData",
      "outputs": [
        {
          "internalType": "string",
          "name": "",
          "type": "string"
        }
      ],
      "stateMutability": "view",
      "type": "function"
    },
    {
      "inputs": [
        {
          "internalType": "address",
          "name": "_user",
          "type": "address"
        }
      ],
      "name": "getUserTribe",
      "outputs": [
        {
          "internalType": "uint256",
          "name": "tribeId",
          "type": "uint256"
        }
      ],
      "stateMutability": "view",
      "type": "function"
    },
    {
      "inputs": [
        {
          "internalType": "address",
          "name": "_tenant",
          "type": "address"
        }
      ],
      "name": "initialize",
      "outputs": [],
      "stateMutability": "nonpayable",
      "type": "function"
    },
    {
      "inputs": [
        {
          "internalType": "uint256",
          "name": "_tribeId",
          "type": "uint256"
        }
      ],
      "name": "joinTribe",
      "outputs": [],
      "stateMutability": "nonpayable",
      "type": "function"
    },
    {
      "inputs": [],
      "name": "leaveTribe",
      "outputs": [],
      "stateMutability": "nonpayable",
      "type": "function"
    },
    {
      "inputs": [],
      "name": "metadata",
      "outputs": [
        {
          "internalType": "bytes",
          "name": "title",
          "type": "bytes"
        },
        {
          "components": [
            {
              "internalType": "address",
              "name": "authorAddress",
              "type": "address"
            },
            {
              "internalType": "string",
              "name": "externalLink",
              "type": "string"
            }
          ],
          "internalType": "struct IHyperverseModule.Author",
          "name": "author",
          "type": "tuple"
        },
        {
          "internalType": "bytes",
          "name": "version",
          "type": "bytes"
        },
        {
          "internalType": "uint64",
          "name": "publishedAt",
          "type": "uint64"
        },
        {
          "internalType": "bytes",
          "name": "externalLink",
          "type": "bytes"
        }
      ],
      "stateMutability": "view",
      "type": "function"
    },
    {
      "inputs": [
        {
          "internalType": "address",
          "name": "",
          "type": "address"
        }
      ],
      "name": "participants",
      "outputs": [
        {
          "internalType": "uint256",
          "name": "",
          "type": "uint256"
        }
      ],
      "stateMutability": "view",
      "type": "function"
    },
    {
      "inputs": [],
      "name": "tribeCounter",
      "outputs": [
        {
          "internalType": "uint256",
          "name": "_value",
          "type": "uint256"
        }
      ],
      "stateMutability": "view",
      "type": "function"
    }
  ],
  "bytecode": "0x60a06040523480156200001157600080fd5b5060405162001bb838038062001bb8833981810160405281019062000037919062000403565b6040518060a001604052806040518060400160405280600c81526020017f5472696265204d6f64756c650000000000000000000000000000000000000000815250815260200160405180604001604052808473ffffffffffffffffffffffffffffffffffffffff1681526020016040518060400160405280601881526020017f68747470733a2f2f65787465726e616c6c696e6b2e6e6574000000000000000081525081525081526020016040518060400160405280600581526020017f312e302e30000000000000000000000000000000000000000000000000000000815250815260200165032a361e860667ffffffffffffffff1681526020016040518060400160405280601881526020017f68747470733a2f2f65787465726e616c6c696e6b2e6e657400000000000000008152508152506000808201518160000190805190602001906200018b929190620002ab565b5060208201518160010160008201518160000160006101000a81548173ffffffffffffffffffffffffffffffffffffffff021916908373ffffffffffffffffffffffffffffffffffffffff1602179055506020820151816001019080519060200190620001fa9291906200033c565b50505060408201518160030190805190602001906200021b929190620002ab565b5060608201518160040160006101000a81548167ffffffffffffffff021916908367ffffffffffffffff160217905550608082015181600501908051906020019062000269929190620002ab565b509050508073ffffffffffffffffffffffffffffffffffffffff1660808173ffffffffffffffffffffffffffffffffffffffff1660601b8152505050620004e2565b828054620002b99062000463565b90600052602060002090601f016020900481019282620002dd576000855562000329565b82601f10620002f857805160ff191683800117855562000329565b8280016001018555821562000329579182015b82811115620003285782518255916020019190600101906200030b565b5b509050620003389190620003cd565b5090565b8280546200034a9062000463565b90600052602060002090601f0160209004810192826200036e5760008555620003ba565b82601f106200038957805160ff1916838001178555620003ba565b82800160010185558215620003ba579182015b82811115620003b95782518255916020019190600101906200039c565b5b509050620003c99190620003cd565b5090565b5b80821115620003e8576000816000905550600101620003ce565b5090565b600081519050620003fd81620004c8565b92915050565b6000602082840312156200041657600080fd5b60006200042684828501620003ec565b91505092915050565b60006200043c8262000443565b9050919050565b600073ffffffffffffffffffffffffffffffffffffffff82169050919050565b600060028204905060018216806200047c57607f821691505b6020821081141562000493576200049262000499565b5b50919050565b7f4e487b7100000000000000000000000000000000000000000000000000000000600052602260045260246000fd5b620004d3816200042f565b8114620004df57600080fd5b50565b60805160601c6116b7620005016000396000610d7e01526116b76000f3fe608060405234801561001057600080fd5b50600436106100a95760003560e01c80636d019c92116100715780636d019c92146101585780637cc7496714610174578063c1c70d15146101a4578063c4d66de8146101d6578063cb15eb48146101f2578063ce606ee01461020e576100a9565b806309e69ede146100ae57806330f57822146100de578063373d502e1461010e578063392f37e91461012c578063609c76051461014e575b600080fd5b6100c860048036038101906100c39190611000565b61022c565b6040516100d5919061130e565b60405180910390f35b6100f860048036038101906100f39190611000565b610244565b604051610105919061130e565b60405180910390f35b610116610309565b604051610123919061130e565b60405180910390f35b610134610315565b604051610145959493929190611204565b60405180910390f35b6101566105d7565b005b610172600480360381019061016d9190611029565b6107a5565b005b61018e6004803603810190610189919061106a565b6108b9565b60405161019b919061128e565b60405180910390f35b6101be60048036038101906101b9919061106a565b6109a6565b6040516101cd939291906112b0565b60405180910390f35b6101f060048036038101906101eb9190611000565b610a58565b005b61020c6004803603810190610207919061106a565b610bb1565b005b610216610d7c565b60405161022391906111e9565b60405180910390f35b60096020528060005260406000206000915090505481565b6000816000600960008373ffffffffffffffffffffffffffffffffffffffff1673ffffffffffffffffffffffffffffffffffffffff1681526020019081526020016000205414156102c1576040517f3ed1183000000000000000000000000000000000000000000000000000000000815260040160405180910390fd5b600960008473ffffffffffffffffffffffffffffffffffffffff1673ffffffffffffffffffffffffffffffffffffffff16815260200190815260200160002054915050919050565b600a8060000154905081565b600080600001805461032690611503565b80601f016020809104026020016040519081016040528092919081815260200182805461035290611503565b801561039f5780601f106103745761010080835404028352916020019161039f565b820191906000526020600020905b81548152906001019060200180831161038257829003601f168201915b505050505090806001016040518060400160405290816000820160009054906101000a900473ffffffffffffffffffffffffffffffffffffffff1673ffffffffffffffffffffffffffffffffffffffff1673ffffffffffffffffffffffffffffffffffffffff16815260200160018201805461041a90611503565b80601f016020809104026020016040519081016040528092919081815260200182805461044690611503565b80156104935780601f1061046857610100808354040283529160200191610493565b820191906000526020600020905b81548152906001019060200180831161047657829003601f168201915b505050505081525050908060030180546104ac90611503565b80601f01602080910402602001604051908101604052809291908181526020018280546104d890611503565b80156105255780601f106104fa57610100808354040283529160200191610525565b820191906000526020600020905b81548152906001019060200180831161050857829003601f168201915b5050505050908060040160009054906101000a900467ffffffffffffffff169080600501805461055490611503565b80601f016020809104026020016040519081016040528092919081815260200182805461058090611503565b80156105cd5780601f106105a2576101008083540402835291602001916105cd565b820191906000526020600020905b8154815290600101906020018083116105b057829003601f168201915b5050505050905085565b336000600960008373ffffffffffffffffffffffffffffffffffffffff1673ffffffffffffffffffffffffffffffffffffffff168152602001908152602001600020541415610652576040517f3ed1183000000000000000000000000000000000000000000000000000000000815260040160405180910390fd5b6000600960003373ffffffffffffffffffffffffffffffffffffffff1673ffffffffffffffffffffffffffffffffffffffff168152602001908152602001600020549050600060086000838152602001908152602001600020905060008160010160003373ffffffffffffffffffffffffffffffffffffffff1673ffffffffffffffffffffffffffffffffffffffff16815260200190815260200160002060006101000a81548160ff021916908315150217905550600181600201600082825461071c919061141e565b925050819055506000600960003373ffffffffffffffffffffffffffffffffffffffff1673ffffffffffffffffffffffffffffffffffffffff16815260200190815260200160002081905550817fbeae83c5a8a13a5d2a71926ba1055d7a1d9de899e96f7244654799627236644d3360405161079891906111e9565b60405180910390a2505050565b600760009054906101000a900473ffffffffffffffffffffffffffffffffffffffff1673ffffffffffffffffffffffffffffffffffffffff163373ffffffffffffffffffffffffffffffffffffffff161461082c576040517f82b4290000000000000000000000000000000000000000000000000000000000815260040160405180910390fd5b610836600a610da0565b6000610842600a610db6565b9050600060086000838152602001908152602001600020905082816000019080519060200190610873929190610ecb565b508181600301819055507f2d06fe5eff482a0b08e70bd38f111a1a397e6952391bdc714df3eacb735b354c836040516108ac919061128e565b60405180910390a1505050565b606081806108c7600a610db6565b10156108ff576040517fd015052d00000000000000000000000000000000000000000000000000000000815260040160405180910390fd5b60086000848152602001908152602001600020600001805461092090611503565b80601f016020809104026020016040519081016040528092919081815260200182805461094c90611503565b80156109995780601f1061096e57610100808354040283529160200191610999565b820191906000526020600020905b81548152906001019060200180831161097c57829003601f168201915b5050505050915050919050565b60086020528060005260406000206000915090508060000180546109c990611503565b80601f01602080910402602001604051908101604052809291908181526020018280546109f590611503565b8015610a425780601f10610a1757610100808354040283529160200191610a42565b820191906000526020600020905b815481529060010190602001808311610a2557829003601f168201915b5050505050908060020154908060030154905083565b6000610a646001610dc4565b90508015610a88576001600660156101000a81548160ff0219169083151502179055505b81600073ffffffffffffffffffffffffffffffffffffffff16600760009054906101000a900473ffffffffffffffffffffffffffffffffffffffff1673ffffffffffffffffffffffffffffffffffffffff1614610b11576040517f0dc149f000000000000000000000000000000000000000000000000000000000815260040160405180910390fd5b82600760006101000a81548173ffffffffffffffffffffffffffffffffffffffff021916908373ffffffffffffffffffffffffffffffffffffffff160217905550508015610bad576000600660156101000a81548160ff0219169083151502179055507f7f26b83ff96e1f2b6a682f133852f6798a09c465da95921460cefb38474024986001604051610ba49190611273565b60405180910390a15b5050565b8080610bbd600a610db6565b1015610bf5576040517fd015052d00000000000000000000000000000000000000000000000000000000815260040160405180910390fd5b6000600960003373ffffffffffffffffffffffffffffffffffffffff1673ffffffffffffffffffffffffffffffffffffffff1681526020019081526020016000205414610c6e576040517f6d7f032800000000000000000000000000000000000000000000000000000000815260040160405180910390fd5b600060086000848152602001908152602001600020905060018160010160003373ffffffffffffffffffffffffffffffffffffffff1673ffffffffffffffffffffffffffffffffffffffff16815260200190815260200160002060006101000a81548160ff0219169083151502179055506001816002016000828254610cf491906113c8565b9250508190555082600960003373ffffffffffffffffffffffffffffffffffffffff1673ffffffffffffffffffffffffffffffffffffffff16815260200190815260200160002081905550827f8e0fdde8512c413931ab05e9ae74b54525259ce920b11c355705e510829841db33604051610d6f91906111e9565b60405180910390a2505050565b7f000000000000000000000000000000000000000000000000000000000000000081565b6001816000016000828254019250508190555050565b600081600001549050919050565b6000600660159054906101000a900460ff1615610e3c5760018260ff16148015610df45750610df230610eb8565b155b610e33576040517f08c379a0000000000000000000000000000000000000000000000000000000008152600401610e2a906112ee565b60405180910390fd5b60009050610eb3565b8160ff16600660149054906101000a900460ff1660ff1610610e93576040517f08c379a0000000000000000000000000000000000000000000000000000000008152600401610e8a906112ee565b60405180910390fd5b81600660146101000a81548160ff021916908360ff160217905550600190505b919050565b600080823b905060008111915050919050565b828054610ed790611503565b90600052602060002090601f016020900481019282610ef95760008555610f40565b82601f10610f1257805160ff1916838001178555610f40565b82800160010185558215610f40579182015b82811115610f3f578251825591602001919060010190610f24565b5b509050610f4d9190610f51565b5090565b5b80821115610f6a576000816000905550600101610f52565b5090565b6000610f81610f7c8461134e565b611329565b905082815260208101848484011115610f9957600080fd5b610fa48482856114c1565b509392505050565b600081359050610fbb81611653565b92915050565b600082601f830112610fd257600080fd5b8135610fe2848260208601610f6e565b91505092915050565b600081359050610ffa8161166a565b92915050565b60006020828403121561101257600080fd5b600061102084828501610fac565b91505092915050565b60006020828403121561103b57600080fd5b600082013567ffffffffffffffff81111561105557600080fd5b61106184828501610fc1565b91505092915050565b60006020828403121561107c57600080fd5b600061108a84828501610feb565b91505092915050565b61109c81611452565b82525050565b6110ab81611452565b82525050565b60006110bc8261137f565b6110c68185611395565b93506110d68185602086016114d0565b6110df816115f3565b840191505092915050565b6110f3816114af565b82525050565b60006111048261138a565b61110e81856113a6565b935061111e8185602086016114d0565b611127816115f3565b840191505092915050565b600061113d8261138a565b61114781856113b7565b93506111578185602086016114d0565b611160816115f3565b840191505092915050565b6000611178602e836113b7565b915061118382611604565b604082019050919050565b60006040830160008301516111a66000860182611093565b50602083015184820360208601526111be82826110f9565b9150508091505092915050565b6111d481611484565b82525050565b6111e38161148e565b82525050565b60006020820190506111fe60008301846110a2565b92915050565b600060a082019050818103600083015261121e81886110b1565b90508181036020830152611232818761118e565b9050818103604083015261124681866110b1565b905061125560608301856111da565b818103608083015261126781846110b1565b90509695505050505050565b600060208201905061128860008301846110ea565b92915050565b600060208201905081810360008301526112a88184611132565b905092915050565b600060608201905081810360008301526112ca8186611132565b90506112d960208301856111cb565b6112e660408301846111cb565b949350505050565b600060208201905081810360008301526113078161116b565b9050919050565b600060208201905061132360008301846111cb565b92915050565b6000611333611344565b905061133f8282611535565b919050565b6000604051905090565b600067ffffffffffffffff821115611369576113686115c4565b5b611372826115f3565b9050602081019050919050565b600081519050919050565b600081519050919050565b600082825260208201905092915050565b600082825260208201905092915050565b600082825260208201905092915050565b60006113d382611484565b91506113de83611484565b9250827fffffffffffffffffffffffffffffffffffffffffffffffffffffffffffffffff0382111561141357611412611566565b5b828201905092915050565b600061142982611484565b915061143483611484565b92508282101561144757611446611566565b5b828203905092915050565b600061145d82611464565b9050919050565b600073ffffffffffffffffffffffffffffffffffffffff82169050919050565b6000819050919050565b600067ffffffffffffffff82169050919050565b600060ff82169050919050565b60006114ba826114a2565b9050919050565b82818337600083830152505050565b60005b838110156114ee5780820151818401526020810190506114d3565b838111156114fd576000848401525b50505050565b6000600282049050600182168061151b57607f821691505b6020821081141561152f5761152e611595565b5b50919050565b61153e826115f3565b810181811067ffffffffffffffff8211171561155d5761155c6115c4565b5b80604052505050565b7f4e487b7100000000000000000000000000000000000000000000000000000000600052601160045260246000fd5b7f4e487b7100000000000000000000000000000000000000000000000000000000600052602260045260246000fd5b7f4e487b7100000000000000000000000000000000000000000000000000000000600052604160045260246000fd5b6000601f19601f8301169050919050565b7f496e697469616c697a61626c653a20636f6e747261637420697320616c72656160008201527f647920696e697469616c697a6564000000000000000000000000000000000000602082015250565b61165c81611452565b811461166757600080fd5b50565b61167381611484565b811461167e57600080fd5b5056fea2646970667358221220d949ccf27ee815515dfe895de3412dbe875f6e3625f84279f973382a4aeccbe064736f6c63430008040033",
  "linkReferences": {},
  "deployedLinkReferences": {}
}