{
  "_format": "hh-sol-artifact-1",
  "contractName": "Tribes",
  "sourceName": "contracts/Tribes.sol",
  "abi": [
    {
      "inputs": [
        {
          "internalType": "address",
          "name": "_owner",
          "type": "address"
        }
      ],
      "stateMutability": "nonpayable",
      "type": "constructor"
    },
    {
      "anonymous": false,
      "inputs": [
        {
          "indexed": true,
          "internalType": "uint256",
          "name": "tribeId",
          "type": "uint256"
        },
        {
          "indexed": false,
          "internalType": "address",
          "name": "newMember",
          "type": "address"
        }
      ],
      "name": "JoinedTribe",
      "type": "event"
    },
    {
      "anonymous": false,
      "inputs": [
        {
          "indexed": true,
          "internalType": "uint256",
          "name": "tribeId",
          "type": "uint256"
        },
        {
          "indexed": false,
          "internalType": "address",
          "name": "member",
          "type": "address"
        }
      ],
      "name": "LeftTribe",
      "type": "event"
    },
    {
      "anonymous": false,
      "inputs": [
        {
          "indexed": false,
          "internalType": "string",
          "name": "metadata",
          "type": "string"
        }
      ],
      "name": "NewTribeCreated",
      "type": "event"
    },
    {
      "inputs": [
        {
          "internalType": "string",
          "name": "_metadata",
          "type": "string"
        }
      ],
      "name": "addNewTribe",
      "outputs": [],
      "stateMutability": "nonpayable",
      "type": "function"
    },
    {
      "inputs": [
        {
          "internalType": "uint256",
          "name": "",
          "type": "uint256"
        }
      ],
      "name": "allTribes",
      "outputs": [
        {
          "internalType": "string",
          "name": "metadata",
          "type": "string"
        },
        {
          "internalType": "uint256",
          "name": "numOfMembers",
          "type": "uint256"
        },
        {
          "internalType": "uint256",
          "name": "tribeId",
          "type": "uint256"
        }
      ],
      "stateMutability": "view",
      "type": "function"
    },
    {
      "inputs": [],
      "name": "contractOwner",
      "outputs": [
        {
          "internalType": "address",
          "name": "",
          "type": "address"
        }
      ],
      "stateMutability": "view",
      "type": "function"
    },
    {
      "inputs": [
        {
          "internalType": "uint256",
          "name": "_tribeId",
          "type": "uint256"
        }
      ],
      "name": "getTribeData",
      "outputs": [
        {
          "internalType": "string",
          "name": "",
          "type": "string"
        }
      ],
      "stateMutability": "view",
      "type": "function"
    },
    {
      "inputs": [
        {
          "internalType": "address",
          "name": "_user",
          "type": "address"
        }
      ],
      "name": "getUserTribe",
      "outputs": [
        {
          "internalType": "uint256",
          "name": "tribeId",
          "type": "uint256"
        }
      ],
      "stateMutability": "view",
      "type": "function"
    },
    {
      "inputs": [
        {
          "internalType": "address",
          "name": "_tenant",
          "type": "address"
        }
      ],
      "name": "init",
      "outputs": [],
      "stateMutability": "nonpayable",
      "type": "function"
    },
    {
      "inputs": [
        {
          "internalType": "uint256",
          "name": "_tribeId",
          "type": "uint256"
        }
      ],
      "name": "joinTribe",
      "outputs": [],
      "stateMutability": "nonpayable",
      "type": "function"
    },
    {
      "inputs": [],
      "name": "leaveTribe",
      "outputs": [],
      "stateMutability": "nonpayable",
      "type": "function"
    },
    {
      "inputs": [],
      "name": "metadata",
      "outputs": [
        {
          "internalType": "bytes",
          "name": "title",
          "type": "bytes"
        },
        {
          "components": [
            {
              "internalType": "address",
              "name": "authorAddress",
              "type": "address"
            },
            {
              "internalType": "string",
              "name": "externalLink",
              "type": "string"
            }
          ],
          "internalType": "struct IHyperverseModule.Author",
          "name": "author",
          "type": "tuple"
        },
        {
          "internalType": "bytes",
          "name": "version",
          "type": "bytes"
        },
        {
          "internalType": "uint64",
          "name": "publishedAt",
          "type": "uint64"
        },
        {
          "internalType": "bytes",
          "name": "externalLink",
          "type": "bytes"
        }
      ],
      "stateMutability": "view",
      "type": "function"
    },
    {
      "inputs": [
        {
          "internalType": "address",
          "name": "",
          "type": "address"
        }
      ],
      "name": "participants",
      "outputs": [
        {
          "internalType": "uint256",
          "name": "",
          "type": "uint256"
        }
      ],
      "stateMutability": "view",
      "type": "function"
    },
    {
      "inputs": [],
      "name": "tribeCounter",
      "outputs": [
        {
          "internalType": "uint256",
          "name": "_value",
          "type": "uint256"
        }
      ],
      "stateMutability": "view",
      "type": "function"
    }
  ],
  "bytecode": "0x60a06040523480156200001157600080fd5b5060405162001ba438038062001ba4833981810160405281019062000037919062000403565b6040518060a001604052806040518060400160405280600c81526020017f5472696265204d6f64756c650000000000000000000000000000000000000000815250815260200160405180604001604052808473ffffffffffffffffffffffffffffffffffffffff1681526020016040518060400160405280601881526020017f68747470733a2f2f65787465726e616c6c696e6b2e6e6574000000000000000081525081525081526020016040518060400160405280600581526020017f312e302e30000000000000000000000000000000000000000000000000000000815250815260200165032a361e860667ffffffffffffffff1681526020016040518060400160405280601881526020017f68747470733a2f2f65787465726e616c6c696e6b2e6e657400000000000000008152508152506000808201518160000190805190602001906200018b929190620002ab565b5060208201518160010160008201518160000160006101000a81548173ffffffffffffffffffffffffffffffffffffffff021916908373ffffffffffffffffffffffffffffffffffffffff1602179055506020820151816001019080519060200190620001fa9291906200033c565b50505060408201518160030190805190602001906200021b929190620002ab565b5060608201518160040160006101000a81548167ffffffffffffffff021916908367ffffffffffffffff160217905550608082015181600501908051906020019062000269929190620002ab565b509050508073ffffffffffffffffffffffffffffffffffffffff1660808173ffffffffffffffffffffffffffffffffffffffff1660601b8152505050620004e2565b828054620002b99062000463565b90600052602060002090601f016020900481019282620002dd576000855562000329565b82601f10620002f857805160ff191683800117855562000329565b8280016001018555821562000329579182015b82811115620003285782518255916020019190600101906200030b565b5b509050620003389190620003cd565b5090565b8280546200034a9062000463565b90600052602060002090601f0160209004810192826200036e5760008555620003ba565b82601f106200038957805160ff1916838001178555620003ba565b82800160010185558215620003ba579182015b82811115620003b95782518255916020019190600101906200039c565b5b509050620003c99190620003cd565b5090565b5b80821115620003e8576000816000905550600101620003ce565b5090565b600081519050620003fd81620004c8565b92915050565b6000602082840312156200041657600080fd5b60006200042684828501620003ec565b91505092915050565b60006200043c8262000443565b9050919050565b600073ffffffffffffffffffffffffffffffffffffffff82169050919050565b600060028204905060018216806200047c57607f821691505b6020821081141562000493576200049262000499565b5b50919050565b7f4e487b7100000000000000000000000000000000000000000000000000000000600052602260045260246000fd5b620004d3816200042f565b8114620004df57600080fd5b50565b60805160601c6116a3620005016000396000610d3001526116a36000f3fe608060405234801561001057600080fd5b50600436106100a95760003560e01c8063609c760511610071578063609c76051461016a5780636d019c92146101745780637cc7496714610190578063c1c70d15146101c0578063cb15eb48146101f2578063ce606ee01461020e576100a9565b806309e69ede146100ae57806319ab453c146100de57806330f57822146100fa578063373d502e1461012a578063392f37e914610148575b600080fd5b6100c860048036038101906100c39190610eab565b61022c565b6040516100d5919061129b565b60405180910390f35b6100f860048036038101906100f39190610eab565b610244565b005b610114600480360381019061010f9190610eab565b610319565b604051610121919061129b565b60405180910390f35b6101326103e7565b60405161013f919061129b565b60405180910390f35b6101506103f3565b60405161016195949392919061112c565b60405180910390f35b6101726106b5565b005b61018e60048036038101906101899190610ed4565b61088c565b005b6101aa60048036038101906101a59190610f15565b6109a9565b6040516101b7919061119b565b60405180910390f35b6101da60048036038101906101d59190610f15565b610a9f565b6040516101e9939291906111bd565b60405180910390f35b61020c60048036038101906102079190610f15565b610b51565b005b610216610d2e565b6040516102239190611111565b60405180910390f35b60096020528060005260406000206000915090505481565b600073ffffffffffffffffffffffffffffffffffffffff16600760009054906101000a900473ffffffffffffffffffffffffffffffffffffffff1673ffffffffffffffffffffffffffffffffffffffff16146102d5576040517f08c379a00000000000000000000000000000000000000000000000000000000081526004016102cc9061123b565b60405180910390fd5b80600760006101000a81548173ffffffffffffffffffffffffffffffffffffffff021916908373ffffffffffffffffffffffffffffffffffffffff16021790555050565b6000816000600960008373ffffffffffffffffffffffffffffffffffffffff1673ffffffffffffffffffffffffffffffffffffffff16815260200190815260200160002054141561039f576040517f08c379a0000000000000000000000000000000000000000000000000000000008152600401610396906111fb565b60405180910390fd5b600960008473ffffffffffffffffffffffffffffffffffffffff1673ffffffffffffffffffffffffffffffffffffffff16815260200190815260200160002054915050919050565b600a8060000154905081565b600080600001805461040490611471565b80601f016020809104026020016040519081016040528092919081815260200182805461043090611471565b801561047d5780601f106104525761010080835404028352916020019161047d565b820191906000526020600020905b81548152906001019060200180831161046057829003601f168201915b505050505090806001016040518060400160405290816000820160009054906101000a900473ffffffffffffffffffffffffffffffffffffffff1673ffffffffffffffffffffffffffffffffffffffff1673ffffffffffffffffffffffffffffffffffffffff1681526020016001820180546104f890611471565b80601f016020809104026020016040519081016040528092919081815260200182805461052490611471565b80156105715780601f1061054657610100808354040283529160200191610571565b820191906000526020600020905b81548152906001019060200180831161055457829003601f168201915b5050505050815250509080600301805461058a90611471565b80601f01602080910402602001604051908101604052809291908181526020018280546105b690611471565b80156106035780601f106105d857610100808354040283529160200191610603565b820191906000526020600020905b8154815290600101906020018083116105e657829003601f168201915b5050505050908060040160009054906101000a900467ffffffffffffffff169080600501805461063290611471565b80601f016020809104026020016040519081016040528092919081815260200182805461065e90611471565b80156106ab5780601f10610680576101008083540402835291602001916106ab565b820191906000526020600020905b81548152906001019060200180831161068e57829003601f168201915b5050505050905085565b336000600960008373ffffffffffffffffffffffffffffffffffffffff1673ffffffffffffffffffffffffffffffffffffffff168152602001908152602001600020541415610739576040517f08c379a0000000000000000000000000000000000000000000000000000000008152600401610730906111fb565b60405180910390fd5b6000600960003373ffffffffffffffffffffffffffffffffffffffff1673ffffffffffffffffffffffffffffffffffffffff168152602001908152602001600020549050600060086000838152602001908152602001600020905060008160010160003373ffffffffffffffffffffffffffffffffffffffff1673ffffffffffffffffffffffffffffffffffffffff16815260200190815260200160002060006101000a81548160ff021916908315150217905550600181600201600082825461080391906113ab565b925050819055506000600960003373ffffffffffffffffffffffffffffffffffffffff1673ffffffffffffffffffffffffffffffffffffffff16815260200190815260200160002081905550817fbeae83c5a8a13a5d2a71926ba1055d7a1d9de899e96f7244654799627236644d3360405161087f9190611111565b60405180910390a2505050565b600760009054906101000a900473ffffffffffffffffffffffffffffffffffffffff1673ffffffffffffffffffffffffffffffffffffffff163373ffffffffffffffffffffffffffffffffffffffff161461091c576040517f08c379a00000000000000000000000000000000000000000000000000000000081526004016109139061127b565b60405180910390fd5b610926600a610d52565b6000610932600a610d68565b9050600060086000838152602001908152602001600020905082816000019080519060200190610963929190610d76565b508181600301819055507f2d06fe5eff482a0b08e70bd38f111a1a397e6952391bdc714df3eacb735b354c8360405161099c919061119b565b60405180910390a1505050565b606081806109b7600a610d68565b10156109f8576040517f08c379a00000000000000000000000000000000000000000000000000000000081526004016109ef9061125b565b60405180910390fd5b600860008481526020019081526020016000206000018054610a1990611471565b80601f0160208091040260200160405190810160405280929190818152602001828054610a4590611471565b8015610a925780601f10610a6757610100808354040283529160200191610a92565b820191906000526020600020905b815481529060010190602001808311610a7557829003601f168201915b5050505050915050919050565b6008602052806000526040600020600091509050806000018054610ac290611471565b80601f0160208091040260200160405190810160405280929190818152602001828054610aee90611471565b8015610b3b5780601f10610b1057610100808354040283529160200191610b3b565b820191906000526020600020905b815481529060010190602001808311610b1e57829003601f168201915b5050505050908060020154908060030154905083565b8080610b5d600a610d68565b1015610b9e576040517f08c379a0000000000000000000000000000000000000000000000000000000008152600401610b959061125b565b60405180910390fd5b6000600960003373ffffffffffffffffffffffffffffffffffffffff1673ffffffffffffffffffffffffffffffffffffffff1681526020019081526020016000205414610c20576040517f08c379a0000000000000000000000000000000000000000000000000000000008152600401610c179061121b565b60405180910390fd5b600060086000848152602001908152602001600020905060018160010160003373ffffffffffffffffffffffffffffffffffffffff1673ffffffffffffffffffffffffffffffffffffffff16815260200190815260200160002060006101000a81548160ff0219169083151502179055506001816002016000828254610ca69190611355565b9250508190555082600960003373ffffffffffffffffffffffffffffffffffffffff1673ffffffffffffffffffffffffffffffffffffffff16815260200190815260200160002081905550827f8e0fdde8512c413931ab05e9ae74b54525259ce920b11c355705e510829841db33604051610d219190611111565b60405180910390a2505050565b7f000000000000000000000000000000000000000000000000000000000000000081565b6001816000016000828254019250508190555050565b600081600001549050919050565b828054610d8290611471565b90600052602060002090601f016020900481019282610da45760008555610deb565b82601f10610dbd57805160ff1916838001178555610deb565b82800160010185558215610deb579182015b82811115610dea578251825591602001919060010190610dcf565b5b509050610df89190610dfc565b5090565b5b80821115610e15576000816000905550600101610dfd565b5090565b6000610e2c610e27846112db565b6112b6565b905082815260208101848484011115610e4457600080fd5b610e4f84828561142f565b509392505050565b600081359050610e668161163f565b92915050565b600082601f830112610e7d57600080fd5b8135610e8d848260208601610e19565b91505092915050565b600081359050610ea581611656565b92915050565b600060208284031215610ebd57600080fd5b6000610ecb84828501610e57565b91505092915050565b600060208284031215610ee657600080fd5b600082013567ffffffffffffffff811115610f0057600080fd5b610f0c84828501610e6c565b91505092915050565b600060208284031215610f2757600080fd5b6000610f3584828501610e96565b91505092915050565b610f47816113df565b82525050565b610f56816113df565b82525050565b6000610f678261130c565b610f718185611322565b9350610f8181856020860161143e565b610f8a81611561565b840191505092915050565b6000610fa082611317565b610faa8185611333565b9350610fba81856020860161143e565b610fc381611561565b840191505092915050565b6000610fd982611317565b610fe38185611344565b9350610ff381856020860161143e565b610ffc81611561565b840191505092915050565b6000611014601e83611344565b915061101f82611572565b602082019050919050565b6000611037601b83611344565b91506110428261159b565b602082019050919050565b600061105a601f83611344565b9150611065826115c4565b602082019050919050565b600061107d601583611344565b9150611088826115ed565b602082019050919050565b60006110a0601c83611344565b91506110ab82611616565b602082019050919050565b60006040830160008301516110ce6000860182610f3e565b50602083015184820360208601526110e68282610f95565b9150508091505092915050565b6110fc81611411565b82525050565b61110b8161141b565b82525050565b60006020820190506111266000830184610f4d565b92915050565b600060a08201905081810360008301526111468188610f5c565b9050818103602083015261115a81876110b6565b9050818103604083015261116e8186610f5c565b905061117d6060830185611102565b818103608083015261118f8184610f5c565b90509695505050505050565b600060208201905081810360008301526111b58184610fce565b905092915050565b600060608201905081810360008301526111d78186610fce565b90506111e660208301856110f3565b6111f360408301846110f3565b949350505050565b6000602082019050818103600083015261121481611007565b9050919050565b600060208201905081810360008301526112348161102a565b9050919050565b600060208201905081810360008301526112548161104d565b9050919050565b6000602082019050818103600083015261127481611070565b9050919050565b6000602082019050818103600083015261129481611093565b9050919050565b60006020820190506112b060008301846110f3565b92915050565b60006112c06112d1565b90506112cc82826114a3565b919050565b6000604051905090565b600067ffffffffffffffff8211156112f6576112f5611532565b5b6112ff82611561565b9050602081019050919050565b600081519050919050565b600081519050919050565b600082825260208201905092915050565b600082825260208201905092915050565b600082825260208201905092915050565b600061136082611411565b915061136b83611411565b9250827fffffffffffffffffffffffffffffffffffffffffffffffffffffffffffffffff038211156113a05761139f6114d4565b5b828201905092915050565b60006113b682611411565b91506113c183611411565b9250828210156113d4576113d36114d4565b5b828203905092915050565b60006113ea826113f1565b9050919050565b600073ffffffffffffffffffffffffffffffffffffffff82169050919050565b6000819050919050565b600067ffffffffffffffff82169050919050565b82818337600083830152505050565b60005b8381101561145c578082015181840152602081019050611441565b8381111561146b576000848401525b50505050565b6000600282049050600182168061148957607f821691505b6020821081141561149d5761149c611503565b5b50919050565b6114ac82611561565b810181811067ffffffffffffffff821117156114cb576114ca611532565b5b80604052505050565b7f4e487b7100000000000000000000000000000000000000000000000000000000600052601160045260246000fd5b7f4e487b7100000000000000000000000000000000000000000000000000000000600052602260045260246000fd5b7f4e487b7100000000000000000000000000000000000000000000000000000000600052604160045260246000fd5b6000601f19601f8301169050919050565b7f54686973206d656d626572206973206e6f7420696e2061205472696265210000600082015250565b7f5573657220697320616c726561647920696e2061205472696265210000000000600082015250565b7f436f6e747261637420697320616c726561647920696e697469616c697a656400600082015250565b7f547269626520646f6573206e6f74206578697374210000000000000000000000600082015250565b7f596f7520617265206e6f74207468652074656e616e74206f776e657200000000600082015250565b611648816113df565b811461165357600080fd5b50565b61165f81611411565b811461166a57600080fd5b5056fea264697066735822122053c960fa407df968b9ca3b7ec62158cdc0ea748879d7f44fa0b1c572ea0ff07a64736f6c63430008040033",
  "linkReferences": {},
  "deployedLinkReferences": {}
}