{
  "_format": "hh-sol-artifact-1",
  "contractName": "SafuuX",
  "sourceName": "contracts/SafuuX.sol",
  "abi": [
    {
      "inputs": [
        {
          "internalType": "string",
          "name": "name_",
          "type": "string"
        },
        {
          "internalType": "string",
          "name": "symbol_",
          "type": "string"
        },
        {
          "internalType": "address",
          "name": "safuuTokenAddress_",
          "type": "address"
        },
        {
          "internalType": "bytes32",
          "name": "goldListMerkleRoot_",
          "type": "bytes32"
        },
        {
          "internalType": "string",
          "name": "merkleTreeInputURI_",
          "type": "string"
        }
      ],
      "stateMutability": "nonpayable",
      "type": "constructor"
    },
    {
      "anonymous": false,
      "inputs": [
        {
          "indexed": true,
          "internalType": "address",
          "name": "account",
          "type": "address"
        },
        {
          "indexed": true,
          "internalType": "address",
          "name": "operator",
          "type": "address"
        },
        {
          "indexed": false,
          "internalType": "bool",
          "name": "approved",
          "type": "bool"
        }
      ],
      "name": "ApprovalForAll",
      "type": "event"
    },
    {
      "anonymous": false,
      "inputs": [
        {
          "indexed": true,
          "internalType": "address",
          "name": "previousOwner",
          "type": "address"
        },
        {
          "indexed": true,
          "internalType": "address",
          "name": "newOwner",
          "type": "address"
        }
      ],
      "name": "OwnershipTransferred",
      "type": "event"
    },
    {
      "anonymous": false,
      "inputs": [
        {
          "indexed": true,
          "internalType": "address",
          "name": "operator",
          "type": "address"
        },
        {
          "indexed": true,
          "internalType": "address",
          "name": "from",
          "type": "address"
        },
        {
          "indexed": true,
          "internalType": "address",
          "name": "to",
          "type": "address"
        },
        {
          "indexed": false,
          "internalType": "uint256[]",
          "name": "ids",
          "type": "uint256[]"
        },
        {
          "indexed": false,
          "internalType": "uint256[]",
          "name": "values",
          "type": "uint256[]"
        }
      ],
      "name": "TransferBatch",
      "type": "event"
    },
    {
      "anonymous": false,
      "inputs": [
        {
          "indexed": true,
          "internalType": "address",
          "name": "operator",
          "type": "address"
        },
        {
          "indexed": true,
          "internalType": "address",
          "name": "from",
          "type": "address"
        },
        {
          "indexed": true,
          "internalType": "address",
          "name": "to",
          "type": "address"
        },
        {
          "indexed": false,
          "internalType": "uint256",
          "name": "id",
          "type": "uint256"
        },
        {
          "indexed": false,
          "internalType": "uint256",
          "name": "value",
          "type": "uint256"
        }
      ],
      "name": "TransferSingle",
      "type": "event"
    },
    {
      "anonymous": false,
      "inputs": [
        {
          "indexed": false,
          "internalType": "string",
          "name": "value",
          "type": "string"
        },
        {
          "indexed": true,
          "internalType": "uint256",
          "name": "id",
          "type": "uint256"
        }
      ],
      "name": "URI",
      "type": "event"
    },
    {
      "inputs": [],
      "name": "FULL_NODE_COST",
      "outputs": [
        {
          "internalType": "uint256",
          "name": "",
          "type": "uint256"
        }
      ],
      "stateMutability": "view",
      "type": "function"
    },
    {
      "inputs": [],
      "name": "FULL_NODE_CURRENT_SUPPLY",
      "outputs": [
        {
          "internalType": "uint256",
          "name": "",
          "type": "uint256"
        }
      ],
      "stateMutability": "view",
      "type": "function"
    },
    {
      "inputs": [],
      "name": "FULL_NODE_LIMIT",
      "outputs": [
        {
          "internalType": "uint256",
          "name": "",
          "type": "uint256"
        }
      ],
      "stateMutability": "view",
      "type": "function"
    },
    {
      "inputs": [],
      "name": "LITE_NODE_COST",
      "outputs": [
        {
          "internalType": "uint256",
          "name": "",
          "type": "uint256"
        }
      ],
      "stateMutability": "view",
      "type": "function"
    },
    {
      "inputs": [],
      "name": "LITE_NODE_CURRENT_SUPPLY",
      "outputs": [
        {
          "internalType": "uint256",
          "name": "",
          "type": "uint256"
        }
      ],
      "stateMutability": "view",
      "type": "function"
    },
    {
      "inputs": [],
      "name": "LITE_NODE_LIMIT",
      "outputs": [
        {
          "internalType": "uint256",
          "name": "",
          "type": "uint256"
        }
      ],
      "stateMutability": "view",
      "type": "function"
    },
    {
      "inputs": [
        {
          "internalType": "address",
          "name": "",
          "type": "address"
        }
      ],
      "name": "_fullNodesClaimed",
      "outputs": [
        {
          "internalType": "uint256",
          "name": "",
          "type": "uint256"
        }
      ],
      "stateMutability": "view",
      "type": "function"
    },
    {
      "inputs": [],
      "name": "_goldListMerkleRoot",
      "outputs": [
        {
          "internalType": "bytes32",
          "name": "",
          "type": "bytes32"
        }
      ],
      "stateMutability": "view",
      "type": "function"
    },
    {
      "inputs": [],
      "name": "_isGoldListSaleActive",
      "outputs": [
        {
          "internalType": "bool",
          "name": "",
          "type": "bool"
        }
      ],
      "stateMutability": "view",
      "type": "function"
    },
    {
      "inputs": [],
      "name": "_isPublicMintActive",
      "outputs": [
        {
          "internalType": "bool",
          "name": "",
          "type": "bool"
        }
      ],
      "stateMutability": "view",
      "type": "function"
    },
    {
      "inputs": [
        {
          "internalType": "address",
          "name": "",
          "type": "address"
        }
      ],
      "name": "_liteNodesClaimed",
      "outputs": [
        {
          "internalType": "uint256",
          "name": "",
          "type": "uint256"
        }
      ],
      "stateMutability": "view",
      "type": "function"
    },
    {
      "inputs": [],
      "name": "_merkleTreeInputURI",
      "outputs": [
        {
          "internalType": "string",
          "name": "",
          "type": "string"
        }
      ],
      "stateMutability": "view",
      "type": "function"
    },
    {
      "inputs": [],
      "name": "_name",
      "outputs": [
        {
          "internalType": "string",
          "name": "",
          "type": "string"
        }
      ],
      "stateMutability": "view",
      "type": "function"
    },
    {
      "inputs": [],
      "name": "_safuuTokenAddress",
      "outputs": [
        {
          "internalType": "address",
          "name": "",
          "type": "address"
        }
      ],
      "stateMutability": "view",
      "type": "function"
    },
    {
      "inputs": [],
      "name": "_symbol",
      "outputs": [
        {
          "internalType": "string",
          "name": "",
          "type": "string"
        }
      ],
      "stateMutability": "view",
      "type": "function"
    },
    {
      "inputs": [
        {
          "internalType": "address",
          "name": "account",
          "type": "address"
        },
        {
          "internalType": "uint256",
          "name": "id",
          "type": "uint256"
        }
      ],
      "name": "balanceOf",
      "outputs": [
        {
          "internalType": "uint256",
          "name": "",
          "type": "uint256"
        }
      ],
      "stateMutability": "view",
      "type": "function"
    },
    {
      "inputs": [
        {
          "internalType": "address[]",
          "name": "accounts",
          "type": "address[]"
        },
        {
          "internalType": "uint256[]",
          "name": "ids",
          "type": "uint256[]"
        }
      ],
      "name": "balanceOfBatch",
      "outputs": [
        {
          "internalType": "uint256[]",
          "name": "",
          "type": "uint256[]"
        }
      ],
      "stateMutability": "view",
      "type": "function"
    },
    {
      "inputs": [
        {
          "internalType": "uint256",
          "name": "_id",
          "type": "uint256"
        },
        {
          "internalType": "uint256",
          "name": "_amount",
          "type": "uint256"
        }
      ],
      "name": "burn",
      "outputs": [],
      "stateMutability": "nonpayable",
      "type": "function"
    },
    {
      "inputs": [
        {
          "internalType": "uint256[]",
          "name": "_ids",
          "type": "uint256[]"
        },
        {
          "internalType": "uint256[]",
          "name": "_amounts",
          "type": "uint256[]"
        }
      ],
      "name": "burnBatch",
      "outputs": [],
      "stateMutability": "nonpayable",
      "type": "function"
    },
    {
      "inputs": [
        {
          "internalType": "address",
          "name": "_from",
          "type": "address"
        },
        {
          "internalType": "uint256[]",
          "name": "_burnIds",
          "type": "uint256[]"
        },
        {
          "internalType": "uint256[]",
          "name": "_burnAmounts",
          "type": "uint256[]"
        },
        {
          "internalType": "uint256[]",
          "name": "_mintIds",
          "type": "uint256[]"
        },
        {
          "internalType": "uint256[]",
          "name": "_mintAmounts",
          "type": "uint256[]"
        }
      ],
      "name": "burnForMint",
      "outputs": [],
      "stateMutability": "nonpayable",
      "type": "function"
    },
    {
      "inputs": [
        {
          "internalType": "address",
          "name": "walletAddress",
          "type": "address"
        },
        {
          "internalType": "bytes32[]",
          "name": "merkleProof",
          "type": "bytes32[]"
        }
      ],
      "name": "checkGoldListEligibility",
      "outputs": [
        {
          "internalType": "bool",
          "name": "",
          "type": "bool"
        }
      ],
      "stateMutability": "view",
      "type": "function"
    },
    {
      "inputs": [],
      "name": "getMerkleTreeInputURI",
      "outputs": [
        {
          "internalType": "string",
          "name": "",
          "type": "string"
        }
      ],
      "stateMutability": "view",
      "type": "function"
    },
    {
      "inputs": [
        {
          "internalType": "address",
          "name": "account",
          "type": "address"
        },
        {
          "internalType": "address",
          "name": "operator",
          "type": "address"
        }
      ],
      "name": "isApprovedForAll",
      "outputs": [
        {
          "internalType": "bool",
          "name": "",
          "type": "bool"
        }
      ],
      "stateMutability": "view",
      "type": "function"
    },
    {
      "inputs": [
        {
          "internalType": "uint256",
          "name": "_fullNodeCount",
          "type": "uint256"
        },
        {
          "internalType": "uint256",
          "name": "_liteNodeCount",
          "type": "uint256"
        },
        {
          "internalType": "bytes32[]",
          "name": "merkleProof",
          "type": "bytes32[]"
        }
      ],
      "name": "mintGoldList",
      "outputs": [],
      "stateMutability": "nonpayable",
      "type": "function"
    },
    {
      "inputs": [
        {
          "internalType": "uint256",
          "name": "_liteNodeCount",
          "type": "uint256"
        }
      ],
      "name": "mintLiteNode",
      "outputs": [],
      "stateMutability": "nonpayable",
      "type": "function"
    },
    {
      "inputs": [],
      "name": "name",
      "outputs": [
        {
          "internalType": "string",
          "name": "",
          "type": "string"
        }
      ],
      "stateMutability": "view",
      "type": "function"
    },
    {
      "inputs": [
        {
          "internalType": "address",
          "name": "",
          "type": "address"
        }
      ],
      "name": "nodesClaimed",
      "outputs": [
        {
          "internalType": "bool",
          "name": "",
          "type": "bool"
        }
      ],
      "stateMutability": "view",
      "type": "function"
    },
    {
      "inputs": [],
      "name": "owner",
      "outputs": [
        {
          "internalType": "address",
          "name": "",
          "type": "address"
        }
      ],
      "stateMutability": "view",
      "type": "function"
    },
    {
      "inputs": [],
      "name": "renounceOwnership",
      "outputs": [],
      "stateMutability": "nonpayable",
      "type": "function"
    },
    {
      "inputs": [
        {
          "internalType": "address",
          "name": "from",
          "type": "address"
        },
        {
          "internalType": "address",
          "name": "to",
          "type": "address"
        },
        {
          "internalType": "uint256[]",
          "name": "ids",
          "type": "uint256[]"
        },
        {
          "internalType": "uint256[]",
          "name": "amounts",
          "type": "uint256[]"
        },
        {
          "internalType": "bytes",
          "name": "data",
          "type": "bytes"
        }
      ],
      "name": "safeBatchTransferFrom",
      "outputs": [],
      "stateMutability": "nonpayable",
      "type": "function"
    },
    {
      "inputs": [
        {
          "internalType": "address",
          "name": "from",
          "type": "address"
        },
        {
          "internalType": "address",
          "name": "to",
          "type": "address"
        },
        {
          "internalType": "uint256",
          "name": "id",
          "type": "uint256"
        },
        {
          "internalType": "uint256",
          "name": "amount",
          "type": "uint256"
        },
        {
          "internalType": "bytes",
          "name": "data",
          "type": "bytes"
        }
      ],
      "name": "safeTransferFrom",
      "outputs": [],
      "stateMutability": "nonpayable",
      "type": "function"
    },
    {
      "inputs": [
        {
          "internalType": "address",
          "name": "operator",
          "type": "address"
        },
        {
          "internalType": "bool",
          "name": "approved",
          "type": "bool"
        }
      ],
      "name": "setApprovalForAll",
      "outputs": [],
      "stateMutability": "nonpayable",
      "type": "function"
    },
    {
      "inputs": [
        {
          "internalType": "uint256",
          "name": "cost",
          "type": "uint256"
        }
      ],
      "name": "setFullNodeCost",
      "outputs": [],
      "stateMutability": "nonpayable",
      "type": "function"
    },
    {
      "inputs": [
        {
          "internalType": "bool",
          "name": "_isActive",
          "type": "bool"
        }
      ],
      "name": "setGoldListSaleStatus",
      "outputs": [],
      "stateMutability": "nonpayable",
      "type": "function"
    },
    {
      "inputs": [
        {
          "internalType": "uint256",
          "name": "cost",
          "type": "uint256"
        }
      ],
      "name": "setLiteNodeCost",
      "outputs": [],
      "stateMutability": "nonpayable",
      "type": "function"
    },
    {
      "inputs": [
        {
          "internalType": "bool",
          "name": "_isActive",
          "type": "bool"
        }
      ],
      "name": "setPublicMintStatus",
      "outputs": [],
      "stateMutability": "nonpayable",
      "type": "function"
    },
    {
      "inputs": [
        {
          "internalType": "uint256",
          "name": "_id",
          "type": "uint256"
        },
        {
          "internalType": "string",
          "name": "_uri",
          "type": "string"
        }
      ],
      "name": "setURI",
      "outputs": [],
      "stateMutability": "nonpayable",
      "type": "function"
    },
    {
      "inputs": [
        {
          "internalType": "bytes4",
          "name": "interfaceId",
          "type": "bytes4"
        }
      ],
      "name": "supportsInterface",
      "outputs": [
        {
          "internalType": "bool",
          "name": "",
          "type": "bool"
        }
      ],
      "stateMutability": "view",
      "type": "function"
    },
    {
      "inputs": [],
      "name": "symbol",
      "outputs": [
        {
          "internalType": "string",
          "name": "",
          "type": "string"
        }
      ],
      "stateMutability": "view",
      "type": "function"
    },
    {
      "inputs": [
        {
          "internalType": "uint256",
          "name": "",
          "type": "uint256"
        }
      ],
      "name": "tokenURI",
      "outputs": [
        {
          "internalType": "string",
          "name": "",
          "type": "string"
        }
      ],
      "stateMutability": "view",
      "type": "function"
    },
    {
      "inputs": [
        {
          "internalType": "address",
          "name": "newOwner",
          "type": "address"
        }
      ],
      "name": "transferOwnership",
      "outputs": [],
      "stateMutability": "nonpayable",
      "type": "function"
    },
    {
      "inputs": [
        {
          "internalType": "uint256",
          "name": "_id",
          "type": "uint256"
        }
      ],
      "name": "uri",
      "outputs": [
        {
          "internalType": "string",
          "name": "",
          "type": "string"
        }
      ],
      "stateMutability": "view",
      "type": "function"
    },
    {
      "inputs": [],
      "name": "withdrawFunds",
      "outputs": [],
      "stateMutability": "nonpayable",
      "type": "function"
    },
    {
      "inputs": [
        {
          "internalType": "contract IERC20",
          "name": "tokenContract",
          "type": "address"
        },
        {
          "internalType": "address",
          "name": "to",
          "type": "address"
        }
      ],
      "name": "withdrawTokens",
      "outputs": [],
      "stateMutability": "nonpayable",
      "type": "function"
    }
  ],
  "bytecode": "0x60a06040526000600760006101000a81548160ff0219169083151502179055506000600760016101000a81548160ff02191690831515021790555060326008556101f46009556101f4600a556105dc600b553480156200005e57600080fd5b50604051620062ac380380620062ac83398181016040528101906200008491906200039f565b60405180602001604052806000815250620000a5816200016560201b60201c565b50620000c6620000ba6200018160201b60201c565b6200018960201b60201c565b8460049080519060200190620000de9291906200024f565b508360059080519060200190620000f79291906200024f565b5082600760026101000a81548173ffffffffffffffffffffffffffffffffffffffff021916908373ffffffffffffffffffffffffffffffffffffffff1602179055508060069080519060200190620001519291906200024f565b50816080818152505050505050506200064e565b80600290805190602001906200017d9291906200024f565b5050565b600033905090565b6000600360009054906101000a900473ffffffffffffffffffffffffffffffffffffffff16905081600360006101000a81548173ffffffffffffffffffffffffffffffffffffffff021916908373ffffffffffffffffffffffffffffffffffffffff1602179055508173ffffffffffffffffffffffffffffffffffffffff168173ffffffffffffffffffffffffffffffffffffffff167f8be0079c531659141344cd1fd0a4f28419497f9722a3daafe3b4186f6b6457e060405160405180910390a35050565b8280546200025d906200053f565b90600052602060002090601f016020900481019282620002815760008555620002cd565b82601f106200029c57805160ff1916838001178555620002cd565b82800160010185558215620002cd579182015b82811115620002cc578251825591602001919060010190620002af565b5b509050620002dc9190620002e0565b5090565b5b80821115620002fb576000816000905550600101620002e1565b5090565b600062000316620003108462000495565b6200046c565b9050828152602081018484840111156200032f57600080fd5b6200033c84828562000509565b509392505050565b60008151905062000355816200061a565b92915050565b6000815190506200036c8162000634565b92915050565b600082601f8301126200038457600080fd5b815162000396848260208601620002ff565b91505092915050565b600080600080600060a08688031215620003b857600080fd5b600086015167ffffffffffffffff811115620003d357600080fd5b620003e18882890162000372565b955050602086015167ffffffffffffffff811115620003ff57600080fd5b6200040d8882890162000372565b9450506040620004208882890162000344565b935050606062000433888289016200035b565b925050608086015167ffffffffffffffff8111156200045157600080fd5b6200045f8882890162000372565b9150509295509295909350565b6000620004786200048b565b905062000486828262000575565b919050565b6000604051905090565b600067ffffffffffffffff821115620004b357620004b2620005da565b5b620004be8262000609565b9050602081019050919050565b6000620004d882620004e9565b9050919050565b6000819050919050565b600073ffffffffffffffffffffffffffffffffffffffff82169050919050565b60005b83811015620005295780820151818401526020810190506200050c565b8381111562000539576000848401525b50505050565b600060028204905060018216806200055857607f821691505b602082108114156200056f576200056e620005ab565b5b50919050565b620005808262000609565b810181811067ffffffffffffffff82111715620005a257620005a1620005da565b5b80604052505050565b7f4e487b7100000000000000000000000000000000000000000000000000000000600052602260045260246000fd5b7f4e487b7100000000000000000000000000000000000000000000000000000000600052604160045260246000fd5b6000601f19601f8301169050919050565b6200062581620004cb565b81146200063157600080fd5b50565b6200063f81620004df565b81146200064b57600080fd5b50565b608051615c3462000678600039600081816112a40152818161155f01526116600152615c346000f3fe608060405234801561001057600080fd5b50600436106102735760003560e01c806395d89b4111610151578063c87b56dd116100c3578063e985e9c511610087578063e985e9c51461074e578063ec75c2ec1461077e578063f242432a1461079a578063f2fde38b146107b6578063f48ef7b3146107d2578063ff9204fc146107f057610273565b8063c87b56dd14610698578063cd8f19a1146106c8578063d28d8852146106e4578063df714a2314610702578063e0d0b1b01461073257610273565b8063b09f126611610115578063b09f1266146105d6578063b286d846146105f4578063b390c0ab14610624578063b39d80cb14610640578063b61ff93c1461065e578063c3c1e8ff1461067a57610273565b806395d89b41146105445780639f4e861214610562578063a22cb46514610580578063a522ad251461059c578063aacffcd1146105b857610273565b806341c30f79116101ea57806367daa4ab116101ae57806367daa4ab146104aa578063715018a6146104c857806383ca4b6f146104d2578063862440e2146104ee5780638da5cb5b1461050a5780638edeb5281461052857610273565b806341c30f79146103f45780634d0ac59a146104245780634e1273f414610440578063510f4104146104705780635ce929891461048c57610273565b806324600fc31161023c57806324600fc3146103445780632eb2c2d61461034e5780632fa5b0cb1461036a57806330b9ff7214610388578063366fc60d146103a65780633ea51491146103d657610273565b8062fdd58e1461027857806301ffc9a7146102a857806306fdde03146102d85780630e89341c146102f65780631689519014610326575b600080fd5b610292600480360381019061028d919061421c565b61080e565b60405161029f9190614f3c565b60405180910390f35b6102c260048036038101906102bd9190614382565b6108d7565b6040516102cf9190614bc4565b60405180910390f35b6102e06109b9565b6040516102ed9190614bfa565b60405180910390f35b610310600480360381019061030b9190614410565b610a4b565b60405161031d9190614bfa565b60405180910390f35b61032e610af0565b60405161033b9190614bc4565b60405180910390f35b61034c610b03565b005b61036860048036038101906103639190613f63565b610b54565b005b610372610bf5565b60405161037f9190614f3c565b60405180910390f35b610390610bfb565b60405161039d9190614f3c565b60405180910390f35b6103c060048036038101906103bb9190613efe565b610c01565b6040516103cd9190614f3c565b60405180910390f35b6103de610c19565b6040516103eb9190614f3c565b60405180910390f35b61040e60048036038101906104099190613efe565b610c1f565b60405161041b9190614f3c565b60405180910390f35b61043e60048036038101906104399190614410565b610c37565b005b61045a60048036038101906104559190614258565b610d25565b6040516104679190614b6b565b60405180910390f35b61048a60048036038101906104859190614109565b610ed6565b005b610494610f0b565b6040516104a19190614f3c565b60405180910390f35b6104b2610f11565b6040516104bf9190614bc4565b60405180910390f35b6104d0610f24565b005b6104ec60048036038101906104e791906142c4565b610f38565b005b61050860048036038101906105039190614462565b610f47565b005b610512610fb3565b60405161051f9190614a2e565b60405180910390f35b610542600480360381019061053d9190614410565b610fdd565b005b61054c610fef565b6040516105599190614bfa565b60405180910390f35b61056a611081565b6040516105779190614a2e565b60405180910390f35b61059a600480360381019061059591906141e0565b6110a7565b005b6105b660048036038101906105b191906143d4565b6110bd565b005b6105c06111df565b6040516105cd9190614f3c565b60405180910390f35b6105de6111e5565b6040516105eb9190614bfa565b60405180910390f35b61060e60048036038101906106099190613efe565b611273565b60405161061b9190614bc4565b60405180910390f35b61063e600480360381019061063991906144b6565b611293565b005b6106486112a2565b6040516106559190614bdf565b60405180910390f35b61067860048036038101906106739190614330565b6112c6565b005b6106826112eb565b60405161068f9190614bfa565b60405180910390f35b6106b260048036038101906106ad9190614410565b611379565b6040516106bf9190614bfa565b60405180910390f35b6106e260048036038101906106dd91906144f2565b611419565b005b6106ec61159f565b6040516106f99190614bfa565b60405180910390f35b61071c600480360381019061071791906140b1565b61162d565b6040516107299190614bc4565b60405180910390f35b61074c60048036038101906107479190614410565b611695565b005b61076860048036038101906107639190613f27565b6116a7565b6040516107759190614bc4565b60405180910390f35b61079860048036038101906107939190614330565b61173b565b005b6107b460048036038101906107af9190614022565b611760565b005b6107d060048036038101906107cb9190613efe565b611801565b005b6107da611885565b6040516107e79190614f3c565b60405180910390f35b6107f861188b565b6040516108059190614bfa565b60405180910390f35b60008073ffffffffffffffffffffffffffffffffffffffff168373ffffffffffffffffffffffffffffffffffffffff16141561087f576040517f08c379a000000000000000000000000000000000000000000000000000000000815260040161087690614d1c565b60405180910390fd5b60008083815260200190815260200160002060008473ffffffffffffffffffffffffffffffffffffffff1673ffffffffffffffffffffffffffffffffffffffff16815260200190815260200160002054905092915050565b60007fd9b67a26000000000000000000000000000000000000000000000000000000007bffffffffffffffffffffffffffffffffffffffffffffffffffffffff1916827bffffffffffffffffffffffffffffffffffffffffffffffffffffffff191614806109a257507f0e89341c000000000000000000000000000000000000000000000000000000007bffffffffffffffffffffffffffffffffffffffffffffffffffffffff1916827bffffffffffffffffffffffffffffffffffffffffffffffffffffffff1916145b806109b257506109b18261191d565b5b9050919050565b6060600480546109c890615252565b80601f01602080910402602001604051908101604052809291908181526020018280546109f490615252565b8015610a415780601f10610a1657610100808354040283529160200191610a41565b820191906000526020600020905b815481529060010190602001808311610a2457829003601f168201915b5050505050905090565b6060600e60008381526020019081526020016000208054610a6b90615252565b80601f0160208091040260200160405190810160405280929190818152602001828054610a9790615252565b8015610ae45780601f10610ab957610100808354040283529160200191610ae4565b820191906000526020600020905b815481529060010190602001808311610ac757829003601f168201915b50505050509050919050565b600760009054906101000a900460ff1681565b610b0b611987565b3373ffffffffffffffffffffffffffffffffffffffff166108fc479081150290604051600060405180830381858888f19350505050158015610b51573d6000803e3d6000fd5b50565b610b5c611a05565b73ffffffffffffffffffffffffffffffffffffffff168573ffffffffffffffffffffffffffffffffffffffff161480610ba25750610ba185610b9c611a05565b6116a7565b5b610be1576040517f08c379a0000000000000000000000000000000000000000000000000000000008152600401610bd890614c3c565b60405180910390fd5b610bee8585858585611a0d565b5050505050565b600b5481565b600a5481565b60116020528060005260406000206000915090505481565b60085481565b60106020528060005260406000206000915090505481565b60011515600760019054906101000a900460ff16151514610c8d576040517f08c379a0000000000000000000000000000000000000000000000000000000008152600401610c8490614ddc565b60405180910390fd5b6005601160003373ffffffffffffffffffffffffffffffffffffffff1673ffffffffffffffffffffffffffffffffffffffff1681526020019081526020016000205410610d0f576040517f08c379a0000000000000000000000000000000000000000000000000000000008152600401610d0690614c9c565b60405180910390fd5b6000811115610d2257610d2181611d7b565b5b50565b60608151835114610d6b576040517f08c379a0000000000000000000000000000000000000000000000000000000008152600401610d6290614e9c565b60405180910390fd5b6000835167ffffffffffffffff811115610dae577f4e487b7100000000000000000000000000000000000000000000000000000000600052604160045260246000fd5b604051908082528060200260200182016040528015610ddc5781602001602082028036833780820191505090505b50905060005b8451811015610ecb57610e75858281518110610e27577f4e487b7100000000000000000000000000000000000000000000000000000000600052603260045260246000fd5b6020026020010151858381518110610e68577f4e487b7100000000000000000000000000000000000000000000000000000000600052603260045260246000fd5b602002602001015161080e565b828281518110610eae577f4e487b7100000000000000000000000000000000000000000000000000000000600052603260045260246000fd5b60200260200101818152505080610ec4906152b5565b9050610de2565b508091505092915050565b610ede611987565b610ee9858585612260565b610f048583836040518060200160405280600081525061257b565b5050505050565b600d5481565b600760019054906101000a900460ff1681565b610f2c611987565b610f3660006127f4565b565b610f43338383612260565b5050565b610f4f611987565b80600e60008481526020019081526020016000209080519060200190610f76929190613b6d565b50817f6bb7ff708619ba0610cba295a58592e0451dee2622938c8755667688daf3529b82604051610fa79190614bfa565b60405180910390a25050565b6000600360009054906101000a900473ffffffffffffffffffffffffffffffffffffffff16905090565b610fe5611987565b8060098190555050565b606060058054610ffe90615252565b80601f016020809104026020016040519081016040528092919081815260200182805461102a90615252565b80156110775780601f1061104c57610100808354040283529160200191611077565b820191906000526020600020905b81548152906001019060200180831161105a57829003601f168201915b5050505050905090565b600760029054906101000a900473ffffffffffffffffffffffffffffffffffffffff1681565b6110b96110b2611a05565b83836128ba565b5050565b6110c5611987565b8173ffffffffffffffffffffffffffffffffffffffff1663a9059cbb828473ffffffffffffffffffffffffffffffffffffffff166370a08231306040518263ffffffff1660e01b815260040161111b9190614a2e565b60206040518083038186803b15801561113357600080fd5b505afa158015611147573d6000803e3d6000fd5b505050506040513d601f19601f8201168201806040525081019061116b9190614439565b6040518363ffffffff1660e01b8152600401611188929190614b42565b602060405180830381600087803b1580156111a257600080fd5b505af11580156111b6573d6000803e3d6000fd5b505050506040513d601f19601f820116820180604052508101906111da9190614359565b505050565b60095481565b600580546111f290615252565b80601f016020809104026020016040519081016040528092919081815260200182805461121e90615252565b801561126b5780601f106112405761010080835404028352916020019161126b565b820191906000526020600020905b81548152906001019060200180831161124e57829003601f168201915b505050505081565b600f6020528060005260406000206000915054906101000a900460ff1681565b61129e338383612a27565b5050565b7f000000000000000000000000000000000000000000000000000000000000000081565b6112ce611987565b80600760016101000a81548160ff02191690831515021790555050565b600680546112f890615252565b80601f016020809104026020016040519081016040528092919081815260200182805461132490615252565b80156113715780601f1061134657610100808354040283529160200191611371565b820191906000526020600020905b81548152906001019060200180831161135457829003601f168201915b505050505081565b600e602052806000526040600020600091509050805461139890615252565b80601f01602080910402602001604051908101604052809291908181526020018280546113c490615252565b80156114115780601f106113e657610100808354040283529160200191611411565b820191906000526020600020905b8154815290600101906020018083116113f457829003601f168201915b505050505081565b60011515600760009054906101000a900460ff1615151461146f576040517f08c379a000000000000000000000000000000000000000000000000000000000815260040161146690614c7c565b60405180910390fd5b60001515600f60003373ffffffffffffffffffffffffffffffffffffffff1673ffffffffffffffffffffffffffffffffffffffff16815260200190815260200160002060009054906101000a900460ff16151514611502576040517f08c379a00000000000000000000000000000000000000000000000000000000081526004016114f990614d5c565b60405180910390fd5b60008411806115115750600083115b611550576040517f08c379a000000000000000000000000000000000000000000000000000000000815260040161154790614e1c565b60405180910390fd5b600084111561158657611585847f00000000000000000000000000000000000000000000000000000000000000008484612c6e565b5b60008311156115995761159883611d7b565b5b50505050565b600480546115ac90615252565b80601f01602080910402602001604051908101604052809291908181526020018280546115d890615252565b80156116255780601f106115fa57610100808354040283529160200191611625565b820191906000526020600020905b81548152906001019060200180831161160857829003601f168201915b505050505081565b600080846040516020016116419190614a13565b60405160208183030381529060405280519060200120905060006116877f000000000000000000000000000000000000000000000000000000000000000086868561312c565b905080925050509392505050565b61169d611987565b8060088190555050565b6000600160008473ffffffffffffffffffffffffffffffffffffffff1673ffffffffffffffffffffffffffffffffffffffff16815260200190815260200160002060008373ffffffffffffffffffffffffffffffffffffffff1673ffffffffffffffffffffffffffffffffffffffff16815260200190815260200160002060009054906101000a900460ff16905092915050565b611743611987565b80600760006101000a81548160ff02191690831515021790555050565b611768611a05565b73ffffffffffffffffffffffffffffffffffffffff168573ffffffffffffffffffffffffffffffffffffffff1614806117ae57506117ad856117a8611a05565b6116a7565b5b6117ed576040517f08c379a00000000000000000000000000000000000000000000000000000000081526004016117e490614c3c565b60405180910390fd5b6117fa8585858585613184565b5050505050565b611809611987565b600073ffffffffffffffffffffffffffffffffffffffff168173ffffffffffffffffffffffffffffffffffffffff161415611879576040517f08c379a000000000000000000000000000000000000000000000000000000000815260040161187090614cdc565b60405180910390fd5b611882816127f4565b50565b600c5481565b60606006805461189a90615252565b80601f01602080910402602001604051908101604052809291908181526020018280546118c690615252565b80156119135780601f106118e857610100808354040283529160200191611913565b820191906000526020600020905b8154815290600101906020018083116118f657829003601f168201915b5050505050905090565b60007f01ffc9a7000000000000000000000000000000000000000000000000000000007bffffffffffffffffffffffffffffffffffffffffffffffffffffffff1916827bffffffffffffffffffffffffffffffffffffffffffffffffffffffff1916149050919050565b61198f611a05565b73ffffffffffffffffffffffffffffffffffffffff166119ad610fb3565b73ffffffffffffffffffffffffffffffffffffffff1614611a03576040517f08c379a00000000000000000000000000000000000000000000000000000000081526004016119fa90614dfc565b60405180910390fd5b565b600033905090565b8151835114611a51576040517f08c379a0000000000000000000000000000000000000000000000000000000008152600401611a4890614edc565b60405180910390fd5b600073ffffffffffffffffffffffffffffffffffffffff168473ffffffffffffffffffffffffffffffffffffffff161415611ac1576040517f08c379a0000000000000000000000000000000000000000000000000000000008152600401611ab890614d7c565b60405180910390fd5b6000611acb611a05565b9050611adb818787878787613420565b60005b8451811015611cd8576000858281518110611b22577f4e487b7100000000000000000000000000000000000000000000000000000000600052603260045260246000fd5b602002602001015190506000858381518110611b67577f4e487b7100000000000000000000000000000000000000000000000000000000600052603260045260246000fd5b60200260200101519050600080600084815260200190815260200160002060008b73ffffffffffffffffffffffffffffffffffffffff1673ffffffffffffffffffffffffffffffffffffffff16815260200190815260200160002054905081811015611c08576040517f08c379a0000000000000000000000000000000000000000000000000000000008152600401611bff90614dbc565b60405180910390fd5b81810360008085815260200190815260200160002060008c73ffffffffffffffffffffffffffffffffffffffff1673ffffffffffffffffffffffffffffffffffffffff168152602001908152602001600020819055508160008085815260200190815260200160002060008b73ffffffffffffffffffffffffffffffffffffffff1673ffffffffffffffffffffffffffffffffffffffff1681526020019081526020016000206000828254611cbd91906150d0565b9250508190555050505080611cd1906152b5565b9050611ade565b508473ffffffffffffffffffffffffffffffffffffffff168673ffffffffffffffffffffffffffffffffffffffff168273ffffffffffffffffffffffffffffffffffffffff167f4a39dc06d4c0dbc64b70af90fd698a233a518aa5d07e595d983b8c0526c8f7fb8787604051611d4f929190614b8d565b60405180910390a4611d65818787878787613428565b611d73818787878787613430565b505050505050565b80600681601160003373ffffffffffffffffffffffffffffffffffffffff1673ffffffffffffffffffffffffffffffffffffffff16815260200190815260200160002054611dc991906150d0565b10611e09576040517f08c379a0000000000000000000000000000000000000000000000000000000008152600401611e0090614e3c565b60405180910390fd5b600b5481600d54611e1a91906150d0565b1115611e5b576040517f08c379a0000000000000000000000000000000000000000000000000000000008152600401611e5290614ebc565b60405180910390fd5b60001515600f60003373ffffffffffffffffffffffffffffffffffffffff1673ffffffffffffffffffffffffffffffffffffffff16815260200190815260200160002060009054906101000a900460ff16151514611eee576040517f08c379a0000000000000000000000000000000000000000000000000000000008152600401611ee590614d5c565b60405180910390fd5b80600854611efc9190615126565b600760029054906101000a900473ffffffffffffffffffffffffffffffffffffffff1673ffffffffffffffffffffffffffffffffffffffff166370a08231336040518263ffffffff1660e01b8152600401611f579190614a2e565b60206040518083038186803b158015611f6f57600080fd5b505afa158015611f83573d6000803e3d6000fd5b505050506040513d601f19601f82011682018060405250810190611fa79190614439565b1015611fe8576040517f08c379a0000000000000000000000000000000000000000000000000000000008152600401611fdf90614d3c565b60405180910390fd5b81600d54611ff691906150d0565b600d81905550600582601160003373ffffffffffffffffffffffffffffffffffffffff1673ffffffffffffffffffffffffffffffffffffffff1681526020019081526020016000205461204991906150d0565b14801561209557506001601060003373ffffffffffffffffffffffffffffffffffffffff1673ffffffffffffffffffffffffffffffffffffffff16815260200190815260200160002054145b156120f3576001600f60003373ffffffffffffffffffffffffffffffffffffffff1673ffffffffffffffffffffffffffffffffffffffff16815260200190815260200160002060006101000a81548160ff0219169083151502179055505b81601160003373ffffffffffffffffffffffffffffffffffffffff1673ffffffffffffffffffffffffffffffffffffffff1681526020019081526020016000205461213e91906150d0565b601160003373ffffffffffffffffffffffffffffffffffffffff1673ffffffffffffffffffffffffffffffffffffffff16815260200190815260200160002081905550600760029054906101000a900473ffffffffffffffffffffffffffffffffffffffff1673ffffffffffffffffffffffffffffffffffffffff166323b872dd3330856008546121cf9190615126565b6040518463ffffffff1660e01b81526004016121ed93929190614ab1565b602060405180830381600087803b15801561220757600080fd5b505af115801561221b573d6000803e3d6000fd5b505050506040513d601f19601f8201168201806040525081019061223f9190614359565b5061225c3360028460405180602001604052806000815250613617565b5050565b600073ffffffffffffffffffffffffffffffffffffffff168373ffffffffffffffffffffffffffffffffffffffff1614156122d0576040517f08c379a00000000000000000000000000000000000000000000000000000000081526004016122c790614d9c565b60405180910390fd5b8051825114612314576040517f08c379a000000000000000000000000000000000000000000000000000000000815260040161230b90614edc565b60405180910390fd5b600061231e611a05565b905061233e81856000868660405180602001604052806000815250613420565b60005b83518110156124d7576000848281518110612385577f4e487b7100000000000000000000000000000000000000000000000000000000600052603260045260246000fd5b6020026020010151905060008483815181106123ca577f4e487b7100000000000000000000000000000000000000000000000000000000600052603260045260246000fd5b60200260200101519050600080600084815260200190815260200160002060008973ffffffffffffffffffffffffffffffffffffffff1673ffffffffffffffffffffffffffffffffffffffff1681526020019081526020016000205490508181101561246b576040517f08c379a000000000000000000000000000000000000000000000000000000000815260040161246290614cfc565b60405180910390fd5b81810360008085815260200190815260200160002060008a73ffffffffffffffffffffffffffffffffffffffff1673ffffffffffffffffffffffffffffffffffffffff1681526020019081526020016000208190555050505080806124cf906152b5565b915050612341565b50600073ffffffffffffffffffffffffffffffffffffffff168473ffffffffffffffffffffffffffffffffffffffff168273ffffffffffffffffffffffffffffffffffffffff167f4a39dc06d4c0dbc64b70af90fd698a233a518aa5d07e595d983b8c0526c8f7fb868660405161254f929190614b8d565b60405180910390a461257581856000868660405180602001604052806000815250613428565b50505050565b600073ffffffffffffffffffffffffffffffffffffffff168473ffffffffffffffffffffffffffffffffffffffff1614156125eb576040517f08c379a00000000000000000000000000000000000000000000000000000000081526004016125e290614efc565b60405180910390fd5b815183511461262f576040517f08c379a000000000000000000000000000000000000000000000000000000000815260040161262690614edc565b60405180910390fd5b6000612639611a05565b905061264a81600087878787613420565b60005b845181101561274f5783818151811061268f577f4e487b7100000000000000000000000000000000000000000000000000000000600052603260045260246000fd5b60200260200101516000808784815181106126d3577f4e487b7100000000000000000000000000000000000000000000000000000000600052603260045260246000fd5b6020026020010151815260200190815260200160002060008873ffffffffffffffffffffffffffffffffffffffff1673ffffffffffffffffffffffffffffffffffffffff168152602001908152602001600020600082825461273591906150d0565b925050819055508080612747906152b5565b91505061264d565b508473ffffffffffffffffffffffffffffffffffffffff16600073ffffffffffffffffffffffffffffffffffffffff168273ffffffffffffffffffffffffffffffffffffffff167f4a39dc06d4c0dbc64b70af90fd698a233a518aa5d07e595d983b8c0526c8f7fb87876040516127c7929190614b8d565b60405180910390a46127de81600087878787613428565b6127ed81600087878787613430565b5050505050565b6000600360009054906101000a900473ffffffffffffffffffffffffffffffffffffffff16905081600360006101000a81548173ffffffffffffffffffffffffffffffffffffffff021916908373ffffffffffffffffffffffffffffffffffffffff1602179055508173ffffffffffffffffffffffffffffffffffffffff168173ffffffffffffffffffffffffffffffffffffffff167f8be0079c531659141344cd1fd0a4f28419497f9722a3daafe3b4186f6b6457e060405160405180910390a35050565b8173ffffffffffffffffffffffffffffffffffffffff168373ffffffffffffffffffffffffffffffffffffffff161415612929576040517f08c379a000000000000000000000000000000000000000000000000000000000815260040161292090614e7c565b60405180910390fd5b80600160008573ffffffffffffffffffffffffffffffffffffffff1673ffffffffffffffffffffffffffffffffffffffff16815260200190815260200160002060008473ffffffffffffffffffffffffffffffffffffffff1673ffffffffffffffffffffffffffffffffffffffff16815260200190815260200160002060006101000a81548160ff0219169083151502179055508173ffffffffffffffffffffffffffffffffffffffff168373ffffffffffffffffffffffffffffffffffffffff167f17307eab39ab6107e8899845ad3d59bd9653f200f220920489ca2b5937696c3183604051612a1a9190614bc4565b60405180910390a3505050565b600073ffffffffffffffffffffffffffffffffffffffff168373ffffffffffffffffffffffffffffffffffffffff161415612a97576040517f08c379a0000000000000000000000000000000000000000000000000000000008152600401612a8e90614d9c565b60405180910390fd5b6000612aa1611a05565b90506000612aae846137c8565b90506000612abb846137c8565b9050612adb83876000858560405180602001604052806000815250613420565b600080600087815260200190815260200160002060008873ffffffffffffffffffffffffffffffffffffffff1673ffffffffffffffffffffffffffffffffffffffff16815260200190815260200160002054905084811015612b72576040517f08c379a0000000000000000000000000000000000000000000000000000000008152600401612b6990614cfc565b60405180910390fd5b84810360008088815260200190815260200160002060008973ffffffffffffffffffffffffffffffffffffffff1673ffffffffffffffffffffffffffffffffffffffff16815260200190815260200160002081905550600073ffffffffffffffffffffffffffffffffffffffff168773ffffffffffffffffffffffffffffffffffffffff168573ffffffffffffffffffffffffffffffffffffffff167fc3d58168c5ae7397731d063d5bbf3d657854427343f4c083240f7aacaa2d0f628989604051612c3f929190614f57565b60405180910390a4612c6584886000868660405180602001604052806000815250613428565b50505050505050565b83600281601060003373ffffffffffffffffffffffffffffffffffffffff1673ffffffffffffffffffffffffffffffffffffffff16815260200190815260200160002054612cbc91906150d0565b10612cfc576040517f08c379a0000000000000000000000000000000000000000000000000000000008152600401612cf390614e5c565b60405180910390fd5b600a546001600c54612d0e91906150d0565b1115612d4f576040517f08c379a0000000000000000000000000000000000000000000000000000000008152600401612d4690614f1c565b60405180910390fd5b600954600760029054906101000a900473ffffffffffffffffffffffffffffffffffffffff1673ffffffffffffffffffffffffffffffffffffffff166370a08231336040518263ffffffff1660e01b8152600401612dad9190614a2e565b60206040518083038186803b158015612dc557600080fd5b505afa158015612dd9573d6000803e3d6000fd5b505050506040513d601f19601f82011682018060405250810190612dfd9190614439565b1015612e3e576040517f08c379a0000000000000000000000000000000000000000000000000000000008152600401612e3590614d3c565b60405180910390fd5b600033604051602001612e519190614a13565b60405160208183030381529060405280519060200120905060011515612e798686868561312c565b151514612ebb576040517f08c379a0000000000000000000000000000000000000000000000000000000008152600401612eb290614cbc565b60405180910390fd5b85600c54612ec991906150d0565b600c81905550600186601060003373ffffffffffffffffffffffffffffffffffffffff1673ffffffffffffffffffffffffffffffffffffffff16815260200190815260200160002054612f1c91906150d0565b148015612f6857506005601160003373ffffffffffffffffffffffffffffffffffffffff1673ffffffffffffffffffffffffffffffffffffffff16815260200190815260200160002054145b15612fc6576001600f60003373ffffffffffffffffffffffffffffffffffffffff1673ffffffffffffffffffffffffffffffffffffffff16815260200190815260200160002060006101000a81548160ff0219169083151502179055505b85601060003373ffffffffffffffffffffffffffffffffffffffff1673ffffffffffffffffffffffffffffffffffffffff1681526020019081526020016000205461301191906150d0565b601060003373ffffffffffffffffffffffffffffffffffffffff1673ffffffffffffffffffffffffffffffffffffffff16815260200190815260200160002081905550600760029054906101000a900473ffffffffffffffffffffffffffffffffffffffff1673ffffffffffffffffffffffffffffffffffffffff166323b872dd33306009546040518463ffffffff1660e01b81526004016130b593929190614ab1565b602060405180830381600087803b1580156130cf57600080fd5b505af11580156130e3573d6000803e3d6000fd5b505050506040513d601f19601f820116820180604052508101906131079190614359565b506131243360018860405180602001604052806000815250613617565b505050505050565b600061317a848480806020026020016040519081016040528093929190818152602001838360200280828437600081840152601f19601f82011690508083019250505050505050868461388e565b9050949350505050565b600073ffffffffffffffffffffffffffffffffffffffff168473ffffffffffffffffffffffffffffffffffffffff1614156131f4576040517f08c379a00000000000000000000000000000000000000000000000000000000081526004016131eb90614d7c565b60405180910390fd5b60006131fe611a05565b9050600061320b856137c8565b90506000613218856137c8565b9050613228838989858589613420565b600080600088815260200190815260200160002060008a73ffffffffffffffffffffffffffffffffffffffff1673ffffffffffffffffffffffffffffffffffffffff168152602001908152602001600020549050858110156132bf576040517f08c379a00000000000000000000000000000000000000000000000000000000081526004016132b690614dbc565b60405180910390fd5b85810360008089815260200190815260200160002060008b73ffffffffffffffffffffffffffffffffffffffff1673ffffffffffffffffffffffffffffffffffffffff168152602001908152602001600020819055508560008089815260200190815260200160002060008a73ffffffffffffffffffffffffffffffffffffffff1673ffffffffffffffffffffffffffffffffffffffff168152602001908152602001600020600082825461337491906150d0565b925050819055508773ffffffffffffffffffffffffffffffffffffffff168973ffffffffffffffffffffffffffffffffffffffff168573ffffffffffffffffffffffffffffffffffffffff167fc3d58168c5ae7397731d063d5bbf3d657854427343f4c083240f7aacaa2d0f628a8a6040516133f1929190614f57565b60405180910390a4613407848a8a86868a613428565b613415848a8a8a8a8a6138a5565b505050505050505050565b505050505050565b505050505050565b61344f8473ffffffffffffffffffffffffffffffffffffffff16613a8c565b1561360f578373ffffffffffffffffffffffffffffffffffffffff1663bc197c8187878686866040518663ffffffff1660e01b8152600401613495959493929190614a49565b602060405180830381600087803b1580156134af57600080fd5b505af19250505080156134e057506040513d601f19601f820116820180604052508101906134dd91906143ab565b60015b613586576134ec6153af565b806308c379a014156135495750613501615af5565b8061350c575061354b565b806040517f08c379a00000000000000000000000000000000000000000000000000000000081526004016135409190614bfa565b60405180910390fd5b505b6040517f08c379a000000000000000000000000000000000000000000000000000000000815260040161357d90614c1c565b60405180910390fd5b63bc197c8160e01b7bffffffffffffffffffffffffffffffffffffffffffffffffffffffff1916817bffffffffffffffffffffffffffffffffffffffffffffffffffffffff19161461360d576040517f08c379a000000000000000000000000000000000000000000000000000000000815260040161360490614c5c565b60405180910390fd5b505b505050505050565b600073ffffffffffffffffffffffffffffffffffffffff168473ffffffffffffffffffffffffffffffffffffffff161415613687576040517f08c379a000000000000000000000000000000000000000000000000000000000815260040161367e90614efc565b60405180910390fd5b6000613691611a05565b9050600061369e856137c8565b905060006136ab856137c8565b90506136bc83600089858589613420565b8460008088815260200190815260200160002060008973ffffffffffffffffffffffffffffffffffffffff1673ffffffffffffffffffffffffffffffffffffffff168152602001908152602001600020600082825461371b91906150d0565b925050819055508673ffffffffffffffffffffffffffffffffffffffff16600073ffffffffffffffffffffffffffffffffffffffff168473ffffffffffffffffffffffffffffffffffffffff167fc3d58168c5ae7397731d063d5bbf3d657854427343f4c083240f7aacaa2d0f628989604051613799929190614f57565b60405180910390a46137b083600089858589613428565b6137bf836000898989896138a5565b50505050505050565b60606000600167ffffffffffffffff81111561380d577f4e487b7100000000000000000000000000000000000000000000000000000000600052604160045260246000fd5b60405190808252806020026020018201604052801561383b5781602001602082028036833780820191505090505b5090508281600081518110613879577f4e487b7100000000000000000000000000000000000000000000000000000000600052603260045260246000fd5b60200260200101818152505080915050919050565b60008261389b8584613aaf565b1490509392505050565b6138c48473ffffffffffffffffffffffffffffffffffffffff16613a8c565b15613a84578373ffffffffffffffffffffffffffffffffffffffff1663f23a6e6187878686866040518663ffffffff1660e01b815260040161390a959493929190614ae8565b602060405180830381600087803b15801561392457600080fd5b505af192505050801561395557506040513d601f19601f8201168201806040525081019061395291906143ab565b60015b6139fb576139616153af565b806308c379a014156139be5750613976615af5565b8061398157506139c0565b806040517f08c379a00000000000000000000000000000000000000000000000000000000081526004016139b59190614bfa565b60405180910390fd5b505b6040517f08c379a00000000000000000000000000000000000000000000000000000000081526004016139f290614c1c565b60405180910390fd5b63f23a6e6160e01b7bffffffffffffffffffffffffffffffffffffffffffffffffffffffff1916817bffffffffffffffffffffffffffffffffffffffffffffffffffffffff191614613a82576040517f08c379a0000000000000000000000000000000000000000000000000000000008152600401613a7990614c5c565b60405180910390fd5b505b505050505050565b6000808273ffffffffffffffffffffffffffffffffffffffff163b119050919050565b60008082905060005b8451811015613b2057613b0b82868381518110613afe577f4e487b7100000000000000000000000000000000000000000000000000000000600052603260045260246000fd5b6020026020010151613b2b565b91508080613b18906152b5565b915050613ab8565b508091505092915050565b6000818310613b4357613b3e8284613b56565b613b4e565b613b4d8383613b56565b5b905092915050565b600082600052816020526040600020905092915050565b828054613b7990615252565b90600052602060002090601f016020900481019282613b9b5760008555613be2565b82601f10613bb457805160ff1916838001178555613be2565b82800160010185558215613be2579182015b82811115613be1578251825591602001919060010190613bc6565b5b509050613bef9190613bf3565b5090565b5b80821115613c0c576000816000905550600101613bf4565b5090565b6000613c23613c1e84614fa5565b614f80565b90508083825260208201905082856020860282011115613c4257600080fd5b60005b85811015613c725781613c588882613d64565b845260208401935060208301925050600181019050613c45565b5050509392505050565b6000613c8f613c8a84614fd1565b614f80565b90508083825260208201905082856020860282011115613cae57600080fd5b60005b85811015613cde5781613cc48882613ed4565b845260208401935060208301925050600181019050613cb1565b5050509392505050565b6000613cfb613cf684614ffd565b614f80565b905082815260208101848484011115613d1357600080fd5b613d1e848285615210565b509392505050565b6000613d39613d348461502e565b614f80565b905082815260208101848484011115613d5157600080fd5b613d5c848285615210565b509392505050565b600081359050613d7381615b8b565b92915050565b600082601f830112613d8a57600080fd5b8135613d9a848260208601613c10565b91505092915050565b60008083601f840112613db557600080fd5b8235905067ffffffffffffffff811115613dce57600080fd5b602083019150836020820283011115613de657600080fd5b9250929050565b600082601f830112613dfe57600080fd5b8135613e0e848260208601613c7c565b91505092915050565b600081359050613e2681615ba2565b92915050565b600081519050613e3b81615ba2565b92915050565b600081359050613e5081615bb9565b92915050565b600081519050613e6581615bb9565b92915050565b600082601f830112613e7c57600080fd5b8135613e8c848260208601613ce8565b91505092915050565b600081359050613ea481615bd0565b92915050565b600082601f830112613ebb57600080fd5b8135613ecb848260208601613d26565b91505092915050565b600081359050613ee381615be7565b92915050565b600081519050613ef881615be7565b92915050565b600060208284031215613f1057600080fd5b6000613f1e84828501613d64565b91505092915050565b60008060408385031215613f3a57600080fd5b6000613f4885828601613d64565b9250506020613f5985828601613d64565b9150509250929050565b600080600080600060a08688031215613f7b57600080fd5b6000613f8988828901613d64565b9550506020613f9a88828901613d64565b945050604086013567ffffffffffffffff811115613fb757600080fd5b613fc388828901613ded565b935050606086013567ffffffffffffffff811115613fe057600080fd5b613fec88828901613ded565b925050608086013567ffffffffffffffff81111561400957600080fd5b61401588828901613e6b565b9150509295509295909350565b600080600080600060a0868803121561403a57600080fd5b600061404888828901613d64565b955050602061405988828901613d64565b945050604061406a88828901613ed4565b935050606061407b88828901613ed4565b925050608086013567ffffffffffffffff81111561409857600080fd5b6140a488828901613e6b565b9150509295509295909350565b6000806000604084860312156140c657600080fd5b60006140d486828701613d64565b935050602084013567ffffffffffffffff8111156140f157600080fd5b6140fd86828701613da3565b92509250509250925092565b600080600080600060a0868803121561412157600080fd5b600061412f88828901613d64565b955050602086013567ffffffffffffffff81111561414c57600080fd5b61415888828901613ded565b945050604086013567ffffffffffffffff81111561417557600080fd5b61418188828901613ded565b935050606086013567ffffffffffffffff81111561419e57600080fd5b6141aa88828901613ded565b925050608086013567ffffffffffffffff8111156141c757600080fd5b6141d388828901613ded565b9150509295509295909350565b600080604083850312156141f357600080fd5b600061420185828601613d64565b925050602061421285828601613e17565b9150509250929050565b6000806040838503121561422f57600080fd5b600061423d85828601613d64565b925050602061424e85828601613ed4565b9150509250929050565b6000806040838503121561426b57600080fd5b600083013567ffffffffffffffff81111561428557600080fd5b61429185828601613d79565b925050602083013567ffffffffffffffff8111156142ae57600080fd5b6142ba85828601613ded565b9150509250929050565b600080604083850312156142d757600080fd5b600083013567ffffffffffffffff8111156142f157600080fd5b6142fd85828601613ded565b925050602083013567ffffffffffffffff81111561431a57600080fd5b61432685828601613ded565b9150509250929050565b60006020828403121561434257600080fd5b600061435084828501613e17565b91505092915050565b60006020828403121561436b57600080fd5b600061437984828501613e2c565b91505092915050565b60006020828403121561439457600080fd5b60006143a284828501613e41565b91505092915050565b6000602082840312156143bd57600080fd5b60006143cb84828501613e56565b91505092915050565b600080604083850312156143e757600080fd5b60006143f585828601613e95565b925050602061440685828601613d64565b9150509250929050565b60006020828403121561442257600080fd5b600061443084828501613ed4565b91505092915050565b60006020828403121561444b57600080fd5b600061445984828501613ee9565b91505092915050565b6000806040838503121561447557600080fd5b600061448385828601613ed4565b925050602083013567ffffffffffffffff8111156144a057600080fd5b6144ac85828601613eaa565b9150509250929050565b600080604083850312156144c957600080fd5b60006144d785828601613ed4565b92505060206144e885828601613ed4565b9150509250929050565b6000806000806060858703121561450857600080fd5b600061451687828801613ed4565b945050602061452787828801613ed4565b935050604085013567ffffffffffffffff81111561454457600080fd5b61455087828801613da3565b925092505092959194509250565b600061456a83836149f5565b60208301905092915050565b61457f81615180565b82525050565b61459661459182615180565b6152fe565b82525050565b60006145a78261506f565b6145b1818561509d565b93506145bc8361505f565b8060005b838110156145ed5781516145d4888261455e565b97506145df83615090565b9250506001810190506145c0565b5085935050505092915050565b61460381615192565b82525050565b6146128161519e565b82525050565b60006146238261507a565b61462d81856150ae565b935061463d81856020860161521f565b614646816153d1565b840191505092915050565b600061465c82615085565b61466681856150bf565b935061467681856020860161521f565b61467f816153d1565b840191505092915050565b60006146976034836150bf565b91506146a2826153fc565b604082019050919050565b60006146ba602f836150bf565b91506146c58261544b565b604082019050919050565b60006146dd6028836150bf565b91506146e88261549a565b604082019050919050565b60006147006018836150bf565b915061470b826154e9565b602082019050919050565b6000614723601a836150bf565b915061472e82615512565b602082019050919050565b6000614746602b836150bf565b91506147518261553b565b604082019050919050565b60006147696026836150bf565b91506147748261558a565b604082019050919050565b600061478c6024836150bf565b9150614797826155d9565b604082019050919050565b60006147af602a836150bf565b91506147ba82615628565b604082019050919050565b60006147d26014836150bf565b91506147dd82615677565b602082019050919050565b60006147f56026836150bf565b9150614800826156a0565b604082019050919050565b60006148186025836150bf565b9150614823826156ef565b604082019050919050565b600061483b6023836150bf565b91506148468261573e565b604082019050919050565b600061485e602a836150bf565b91506148698261578d565b604082019050919050565b60006148816016836150bf565b915061488c826157dc565b602082019050919050565b60006148a46020836150bf565b91506148af82615805565b602082019050919050565b60006148c7602c836150bf565b91506148d28261582e565b604082019050919050565b60006148ea6029836150bf565b91506148f58261587d565b604082019050919050565b600061490d6029836150bf565b9150614918826158cc565b604082019050919050565b60006149306029836150bf565b915061493b8261591b565b604082019050919050565b60006149536029836150bf565b915061495e8261596a565b604082019050919050565b6000614976602a836150bf565b9150614981826159b9565b604082019050919050565b60006149996028836150bf565b91506149a482615a08565b604082019050919050565b60006149bc6021836150bf565b91506149c782615a57565b604082019050919050565b60006149df602a836150bf565b91506149ea82615aa6565b604082019050919050565b6149fe81615206565b82525050565b614a0d81615206565b82525050565b6000614a1f8284614585565b60148201915081905092915050565b6000602082019050614a436000830184614576565b92915050565b600060a082019050614a5e6000830188614576565b614a6b6020830187614576565b8181036040830152614a7d818661459c565b90508181036060830152614a91818561459c565b90508181036080830152614aa58184614618565b90509695505050505050565b6000606082019050614ac66000830186614576565b614ad36020830185614576565b614ae06040830184614a04565b949350505050565b600060a082019050614afd6000830188614576565b614b0a6020830187614576565b614b176040830186614a04565b614b246060830185614a04565b8181036080830152614b368184614618565b90509695505050505050565b6000604082019050614b576000830185614576565b614b646020830184614a04565b9392505050565b60006020820190508181036000830152614b85818461459c565b905092915050565b60006040820190508181036000830152614ba7818561459c565b90508181036020830152614bbb818461459c565b90509392505050565b6000602082019050614bd960008301846145fa565b92915050565b6000602082019050614bf46000830184614609565b92915050565b60006020820190508181036000830152614c148184614651565b905092915050565b60006020820190508181036000830152614c358161468a565b9050919050565b60006020820190508181036000830152614c55816146ad565b9050919050565b60006020820190508181036000830152614c75816146d0565b9050919050565b60006020820190508181036000830152614c95816146f3565b9050919050565b60006020820190508181036000830152614cb581614716565b9050919050565b60006020820190508181036000830152614cd581614739565b9050919050565b60006020820190508181036000830152614cf58161475c565b9050919050565b60006020820190508181036000830152614d158161477f565b9050919050565b60006020820190508181036000830152614d35816147a2565b9050919050565b60006020820190508181036000830152614d55816147c5565b9050919050565b60006020820190508181036000830152614d75816147e8565b9050919050565b60006020820190508181036000830152614d958161480b565b9050919050565b60006020820190508181036000830152614db58161482e565b9050919050565b60006020820190508181036000830152614dd581614851565b9050919050565b60006020820190508181036000830152614df581614874565b9050919050565b60006020820190508181036000830152614e1581614897565b9050919050565b60006020820190508181036000830152614e35816148ba565b9050919050565b60006020820190508181036000830152614e55816148dd565b9050919050565b60006020820190508181036000830152614e7581614900565b9050919050565b60006020820190508181036000830152614e9581614923565b9050919050565b60006020820190508181036000830152614eb581614946565b9050919050565b60006020820190508181036000830152614ed581614969565b9050919050565b60006020820190508181036000830152614ef58161498c565b9050919050565b60006020820190508181036000830152614f15816149af565b9050919050565b60006020820190508181036000830152614f35816149d2565b9050919050565b6000602082019050614f516000830184614a04565b92915050565b6000604082019050614f6c6000830185614a04565b614f796020830184614a04565b9392505050565b6000614f8a614f9b565b9050614f968282615284565b919050565b6000604051905090565b600067ffffffffffffffff821115614fc057614fbf615380565b5b602082029050602081019050919050565b600067ffffffffffffffff821115614fec57614feb615380565b5b602082029050602081019050919050565b600067ffffffffffffffff82111561501857615017615380565b5b615021826153d1565b9050602081019050919050565b600067ffffffffffffffff82111561504957615048615380565b5b615052826153d1565b9050602081019050919050565b6000819050602082019050919050565b600081519050919050565b600081519050919050565b600081519050919050565b6000602082019050919050565b600082825260208201905092915050565b600082825260208201905092915050565b600082825260208201905092915050565b60006150db82615206565b91506150e683615206565b9250827fffffffffffffffffffffffffffffffffffffffffffffffffffffffffffffffff0382111561511b5761511a615322565b5b828201905092915050565b600061513182615206565b915061513c83615206565b9250817fffffffffffffffffffffffffffffffffffffffffffffffffffffffffffffffff048311821515161561517557615174615322565b5b828202905092915050565b600061518b826151e6565b9050919050565b60008115159050919050565b6000819050919050565b60007fffffffff0000000000000000000000000000000000000000000000000000000082169050919050565b60006151df82615180565b9050919050565b600073ffffffffffffffffffffffffffffffffffffffff82169050919050565b6000819050919050565b82818337600083830152505050565b60005b8381101561523d578082015181840152602081019050615222565b8381111561524c576000848401525b50505050565b6000600282049050600182168061526a57607f821691505b6020821081141561527e5761527d615351565b5b50919050565b61528d826153d1565b810181811067ffffffffffffffff821117156152ac576152ab615380565b5b80604052505050565b60006152c082615206565b91507fffffffffffffffffffffffffffffffffffffffffffffffffffffffffffffffff8214156152f3576152f2615322565b5b600182019050919050565b600061530982615310565b9050919050565b600061531b826153e2565b9050919050565b7f4e487b7100000000000000000000000000000000000000000000000000000000600052601160045260246000fd5b7f4e487b7100000000000000000000000000000000000000000000000000000000600052602260045260246000fd5b7f4e487b7100000000000000000000000000000000000000000000000000000000600052604160045260246000fd5b600060033d11156153ce5760046000803e6153cb6000516153ef565b90505b90565b6000601f19601f8301169050919050565b60008160601b9050919050565b60008160e01c9050919050565b7f455243313135353a207472616e7366657220746f206e6f6e204552433131353560008201527f526563656976657220696d706c656d656e746572000000000000000000000000602082015250565b7f455243313135353a2063616c6c6572206973206e6f7420746f6b656e206f776e60008201527f6572206e6f7220617070726f7665640000000000000000000000000000000000602082015250565b7f455243313135353a204552433131353552656365697665722072656a6563746560008201527f6420746f6b656e73000000000000000000000000000000000000000000000000602082015250565b7f476f6c644c6973742073616c65206e6f74206163746976650000000000000000600082015250565b7f4d61782035204c6974654e6f646573207065722077616c6c6574000000000000600082015250565b7f41646472657373206e6f7420656c696769626c65202d20496e76616c6964206d60008201527f65726b6c652070726f6f66000000000000000000000000000000000000000000602082015250565b7f4f776e61626c653a206e6577206f776e657220697320746865207a65726f206160008201527f6464726573730000000000000000000000000000000000000000000000000000602082015250565b7f455243313135353a206275726e20616d6f756e7420657863656564732062616c60008201527f616e636500000000000000000000000000000000000000000000000000000000602082015250565b7f455243313135353a2061646472657373207a65726f206973206e6f742061207660008201527f616c6964206f776e657200000000000000000000000000000000000000000000602082015250565b7f496e73756666696369656e742062616c616e6365000000000000000000000000600082015250565b7f4d617820312046756c6c4e6f64652c2035204c6974654e6f646573207065722060008201527f77616c6c65740000000000000000000000000000000000000000000000000000602082015250565b7f455243313135353a207472616e7366657220746f20746865207a65726f20616460008201527f6472657373000000000000000000000000000000000000000000000000000000602082015250565b7f455243313135353a206275726e2066726f6d20746865207a65726f206164647260008201527f6573730000000000000000000000000000000000000000000000000000000000602082015250565b7f455243313135353a20696e73756666696369656e742062616c616e636520666f60008201527f72207472616e7366657200000000000000000000000000000000000000000000602082015250565b7f5075626c69632073616c65206e6f742061637469766500000000000000000000600082015250565b7f4f776e61626c653a2063616c6c6572206973206e6f7420746865206f776e6572600082015250565b7f46756c6c206e6f646520616e64204c697465206e6f646520636f756e7420636160008201527f6e6e6f74206265207a65726f0000000000000000000000000000000000000000602082015250565b7f45786365656473206d61782035204c697465204e6f6465206c696d697420706560008201527f7220616464726573730000000000000000000000000000000000000000000000602082015250565b7f45786365656473206d617820312046756c6c204e6f6465206c696d697420706560008201527f7220616464726573730000000000000000000000000000000000000000000000602082015250565b7f455243313135353a2073657474696e6720617070726f76616c2073746174757360008201527f20666f722073656c660000000000000000000000000000000000000000000000602082015250565b7f455243313135353a206163636f756e747320616e6420696473206c656e67746860008201527f206d69736d617463680000000000000000000000000000000000000000000000602082015250565b7f507572636861736520776f756c6420657863656564206d6178204c697465204e60008201527f6f646520737570706c7900000000000000000000000000000000000000000000602082015250565b7f455243313135353a2069647320616e6420616d6f756e7473206c656e6774682060008201527f6d69736d61746368000000000000000000000000000000000000000000000000602082015250565b7f455243313135353a206d696e7420746f20746865207a65726f2061646472657360008201527f7300000000000000000000000000000000000000000000000000000000000000602082015250565b7f507572636861736520776f756c6420657863656564206d61782046756c6c204e60008201527f6f646520737570706c7900000000000000000000000000000000000000000000602082015250565b600060443d1015615b0557615b88565b615b0d614f9b565b60043d036004823e80513d602482011167ffffffffffffffff82111715615b35575050615b88565b808201805167ffffffffffffffff811115615b535750505050615b88565b80602083010160043d038501811115615b70575050505050615b88565b615b7f82602001850186615284565b82955050505050505b90565b615b9481615180565b8114615b9f57600080fd5b50565b615bab81615192565b8114615bb657600080fd5b50565b615bc2816151a8565b8114615bcd57600080fd5b50565b615bd9816151d4565b8114615be457600080fd5b50565b615bf081615206565b8114615bfb57600080fd5b5056fea2646970667358221220adb0e61d5abebff0afd2696354edf77fdf6aa20ce43737c8c9ca141a14c64b9564736f6c63430008040033",
  "linkReferences": {},
  "deployedLinkReferences": {}
}