{
  "_format": "hh-sol-artifact-1",
  "contractName": "SafuuX",
  "sourceName": "contracts/SafuuX.sol",
  "abi": [
    {
      "inputs": [
        {
          "internalType": "string",
          "name": "name_",
          "type": "string"
        },
        {
          "internalType": "string",
          "name": "symbol_",
          "type": "string"
        },
        {
          "internalType": "address",
          "name": "safuuTokenAddress_",
          "type": "address"
        },
        {
          "internalType": "bytes32",
          "name": "goldListMerkleRoot_",
          "type": "bytes32"
        },
        {
          "internalType": "bytes32",
          "name": "whiteListMerkleRoot_",
          "type": "bytes32"
        }
      ],
      "stateMutability": "nonpayable",
      "type": "constructor"
    },
    {
      "anonymous": false,
      "inputs": [
        {
          "indexed": true,
          "internalType": "address",
          "name": "account",
          "type": "address"
        },
        {
          "indexed": true,
          "internalType": "address",
          "name": "operator",
          "type": "address"
        },
        {
          "indexed": false,
          "internalType": "bool",
          "name": "approved",
          "type": "bool"
        }
      ],
      "name": "ApprovalForAll",
      "type": "event"
    },
    {
      "anonymous": false,
      "inputs": [
        {
          "indexed": true,
          "internalType": "address",
          "name": "previousOwner",
          "type": "address"
        },
        {
          "indexed": true,
          "internalType": "address",
          "name": "newOwner",
          "type": "address"
        }
      ],
      "name": "OwnershipTransferred",
      "type": "event"
    },
    {
      "anonymous": false,
      "inputs": [
        {
          "indexed": true,
          "internalType": "address",
          "name": "operator",
          "type": "address"
        },
        {
          "indexed": true,
          "internalType": "address",
          "name": "from",
          "type": "address"
        },
        {
          "indexed": true,
          "internalType": "address",
          "name": "to",
          "type": "address"
        },
        {
          "indexed": false,
          "internalType": "uint256[]",
          "name": "ids",
          "type": "uint256[]"
        },
        {
          "indexed": false,
          "internalType": "uint256[]",
          "name": "values",
          "type": "uint256[]"
        }
      ],
      "name": "TransferBatch",
      "type": "event"
    },
    {
      "anonymous": false,
      "inputs": [
        {
          "indexed": true,
          "internalType": "address",
          "name": "operator",
          "type": "address"
        },
        {
          "indexed": true,
          "internalType": "address",
          "name": "from",
          "type": "address"
        },
        {
          "indexed": true,
          "internalType": "address",
          "name": "to",
          "type": "address"
        },
        {
          "indexed": false,
          "internalType": "uint256",
          "name": "id",
          "type": "uint256"
        },
        {
          "indexed": false,
          "internalType": "uint256",
          "name": "value",
          "type": "uint256"
        }
      ],
      "name": "TransferSingle",
      "type": "event"
    },
    {
      "anonymous": false,
      "inputs": [
        {
          "indexed": false,
          "internalType": "string",
          "name": "value",
          "type": "string"
        },
        {
          "indexed": true,
          "internalType": "uint256",
          "name": "id",
          "type": "uint256"
        }
      ],
      "name": "URI",
      "type": "event"
    },
    {
      "inputs": [],
      "name": "FULL_NODE_COST",
      "outputs": [
        {
          "internalType": "uint256",
          "name": "",
          "type": "uint256"
        }
      ],
      "stateMutability": "view",
      "type": "function"
    },
    {
      "inputs": [],
      "name": "FULL_NODE_CURRENT_SUPPLY",
      "outputs": [
        {
          "internalType": "uint256",
          "name": "",
          "type": "uint256"
        }
      ],
      "stateMutability": "view",
      "type": "function"
    },
    {
      "inputs": [],
      "name": "FULL_NODE_LIMIT",
      "outputs": [
        {
          "internalType": "uint256",
          "name": "",
          "type": "uint256"
        }
      ],
      "stateMutability": "view",
      "type": "function"
    },
    {
      "inputs": [],
      "name": "LITE_NODE_COST",
      "outputs": [
        {
          "internalType": "uint256",
          "name": "",
          "type": "uint256"
        }
      ],
      "stateMutability": "view",
      "type": "function"
    },
    {
      "inputs": [],
      "name": "LITE_NODE_CURRENT_SUPPLY",
      "outputs": [
        {
          "internalType": "uint256",
          "name": "",
          "type": "uint256"
        }
      ],
      "stateMutability": "view",
      "type": "function"
    },
    {
      "inputs": [],
      "name": "LITE_NODE_LIMIT",
      "outputs": [
        {
          "internalType": "uint256",
          "name": "",
          "type": "uint256"
        }
      ],
      "stateMutability": "view",
      "type": "function"
    },
    {
      "inputs": [
        {
          "internalType": "address",
          "name": "",
          "type": "address"
        }
      ],
      "name": "_fullNodesClaimed",
      "outputs": [
        {
          "internalType": "uint256",
          "name": "",
          "type": "uint256"
        }
      ],
      "stateMutability": "view",
      "type": "function"
    },
    {
      "inputs": [],
      "name": "_goldListMerkleRoot",
      "outputs": [
        {
          "internalType": "bytes32",
          "name": "",
          "type": "bytes32"
        }
      ],
      "stateMutability": "view",
      "type": "function"
    },
    {
      "inputs": [],
      "name": "_isGoldListSaleActive",
      "outputs": [
        {
          "internalType": "bool",
          "name": "",
          "type": "bool"
        }
      ],
      "stateMutability": "view",
      "type": "function"
    },
    {
      "inputs": [],
      "name": "_isWhiteListSaleActive",
      "outputs": [
        {
          "internalType": "bool",
          "name": "",
          "type": "bool"
        }
      ],
      "stateMutability": "view",
      "type": "function"
    },
    {
      "inputs": [
        {
          "internalType": "address",
          "name": "",
          "type": "address"
        }
      ],
      "name": "_liteNodesClaimed",
      "outputs": [
        {
          "internalType": "uint256",
          "name": "",
          "type": "uint256"
        }
      ],
      "stateMutability": "view",
      "type": "function"
    },
    {
      "inputs": [],
      "name": "_name",
      "outputs": [
        {
          "internalType": "string",
          "name": "",
          "type": "string"
        }
      ],
      "stateMutability": "view",
      "type": "function"
    },
    {
      "inputs": [],
      "name": "_safuuTokenAddress",
      "outputs": [
        {
          "internalType": "address",
          "name": "",
          "type": "address"
        }
      ],
      "stateMutability": "view",
      "type": "function"
    },
    {
      "inputs": [],
      "name": "_symbol",
      "outputs": [
        {
          "internalType": "string",
          "name": "",
          "type": "string"
        }
      ],
      "stateMutability": "view",
      "type": "function"
    },
    {
      "inputs": [],
      "name": "_whiteListMerkleRoot",
      "outputs": [
        {
          "internalType": "bytes32",
          "name": "",
          "type": "bytes32"
        }
      ],
      "stateMutability": "view",
      "type": "function"
    },
    {
      "inputs": [
        {
          "internalType": "address",
          "name": "account",
          "type": "address"
        },
        {
          "internalType": "uint256",
          "name": "id",
          "type": "uint256"
        }
      ],
      "name": "balanceOf",
      "outputs": [
        {
          "internalType": "uint256",
          "name": "",
          "type": "uint256"
        }
      ],
      "stateMutability": "view",
      "type": "function"
    },
    {
      "inputs": [
        {
          "internalType": "address[]",
          "name": "accounts",
          "type": "address[]"
        },
        {
          "internalType": "uint256[]",
          "name": "ids",
          "type": "uint256[]"
        }
      ],
      "name": "balanceOfBatch",
      "outputs": [
        {
          "internalType": "uint256[]",
          "name": "",
          "type": "uint256[]"
        }
      ],
      "stateMutability": "view",
      "type": "function"
    },
    {
      "inputs": [
        {
          "internalType": "uint256",
          "name": "_id",
          "type": "uint256"
        },
        {
          "internalType": "uint256",
          "name": "_amount",
          "type": "uint256"
        }
      ],
      "name": "burn",
      "outputs": [],
      "stateMutability": "nonpayable",
      "type": "function"
    },
    {
      "inputs": [
        {
          "internalType": "uint256[]",
          "name": "_ids",
          "type": "uint256[]"
        },
        {
          "internalType": "uint256[]",
          "name": "_amounts",
          "type": "uint256[]"
        }
      ],
      "name": "burnBatch",
      "outputs": [],
      "stateMutability": "nonpayable",
      "type": "function"
    },
    {
      "inputs": [
        {
          "internalType": "address",
          "name": "walletAddress",
          "type": "address"
        },
        {
          "internalType": "bytes32[]",
          "name": "merkleProof",
          "type": "bytes32[]"
        }
      ],
      "name": "checkGoldListEligibility",
      "outputs": [
        {
          "internalType": "bool",
          "name": "",
          "type": "bool"
        }
      ],
      "stateMutability": "view",
      "type": "function"
    },
    {
      "inputs": [
        {
          "internalType": "address",
          "name": "walletAddress",
          "type": "address"
        },
        {
          "internalType": "bytes32[]",
          "name": "merkleProof",
          "type": "bytes32[]"
        }
      ],
      "name": "checkWhiteListEligibility",
      "outputs": [
        {
          "internalType": "bool",
          "name": "",
          "type": "bool"
        }
      ],
      "stateMutability": "view",
      "type": "function"
    },
    {
      "inputs": [
        {
          "internalType": "address",
          "name": "account",
          "type": "address"
        },
        {
          "internalType": "address",
          "name": "operator",
          "type": "address"
        }
      ],
      "name": "isApprovedForAll",
      "outputs": [
        {
          "internalType": "bool",
          "name": "",
          "type": "bool"
        }
      ],
      "stateMutability": "view",
      "type": "function"
    },
    {
      "inputs": [
        {
          "internalType": "uint256",
          "name": "_fullNodeCount",
          "type": "uint256"
        },
        {
          "internalType": "bytes32[]",
          "name": "merkleProof",
          "type": "bytes32[]"
        }
      ],
      "name": "mintFullNode",
      "outputs": [],
      "stateMutability": "nonpayable",
      "type": "function"
    },
    {
      "inputs": [
        {
          "internalType": "uint256",
          "name": "_liteNodeCount",
          "type": "uint256"
        }
      ],
      "name": "mintLiteNode",
      "outputs": [],
      "stateMutability": "nonpayable",
      "type": "function"
    },
    {
      "inputs": [],
      "name": "name",
      "outputs": [
        {
          "internalType": "string",
          "name": "",
          "type": "string"
        }
      ],
      "stateMutability": "view",
      "type": "function"
    },
    {
      "inputs": [
        {
          "internalType": "address",
          "name": "",
          "type": "address"
        }
      ],
      "name": "nodesClaimed",
      "outputs": [
        {
          "internalType": "bool",
          "name": "",
          "type": "bool"
        }
      ],
      "stateMutability": "view",
      "type": "function"
    },
    {
      "inputs": [],
      "name": "owner",
      "outputs": [
        {
          "internalType": "address",
          "name": "",
          "type": "address"
        }
      ],
      "stateMutability": "view",
      "type": "function"
    },
    {
      "inputs": [],
      "name": "renounceOwnership",
      "outputs": [],
      "stateMutability": "nonpayable",
      "type": "function"
    },
    {
      "inputs": [
        {
          "internalType": "address",
          "name": "from",
          "type": "address"
        },
        {
          "internalType": "address",
          "name": "to",
          "type": "address"
        },
        {
          "internalType": "uint256[]",
          "name": "ids",
          "type": "uint256[]"
        },
        {
          "internalType": "uint256[]",
          "name": "amounts",
          "type": "uint256[]"
        },
        {
          "internalType": "bytes",
          "name": "data",
          "type": "bytes"
        }
      ],
      "name": "safeBatchTransferFrom",
      "outputs": [],
      "stateMutability": "nonpayable",
      "type": "function"
    },
    {
      "inputs": [
        {
          "internalType": "address",
          "name": "from",
          "type": "address"
        },
        {
          "internalType": "address",
          "name": "to",
          "type": "address"
        },
        {
          "internalType": "uint256",
          "name": "id",
          "type": "uint256"
        },
        {
          "internalType": "uint256",
          "name": "amount",
          "type": "uint256"
        },
        {
          "internalType": "bytes",
          "name": "data",
          "type": "bytes"
        }
      ],
      "name": "safeTransferFrom",
      "outputs": [],
      "stateMutability": "nonpayable",
      "type": "function"
    },
    {
      "inputs": [
        {
          "internalType": "address",
          "name": "operator",
          "type": "address"
        },
        {
          "internalType": "bool",
          "name": "approved",
          "type": "bool"
        }
      ],
      "name": "setApprovalForAll",
      "outputs": [],
      "stateMutability": "nonpayable",
      "type": "function"
    },
    {
      "inputs": [
        {
          "internalType": "uint256",
          "name": "cost",
          "type": "uint256"
        }
      ],
      "name": "setFullNodeCost",
      "outputs": [],
      "stateMutability": "nonpayable",
      "type": "function"
    },
    {
      "inputs": [
        {
          "internalType": "bytes32",
          "name": "_goldList",
          "type": "bytes32"
        }
      ],
      "name": "setGoldList",
      "outputs": [],
      "stateMutability": "nonpayable",
      "type": "function"
    },
    {
      "inputs": [
        {
          "internalType": "bool",
          "name": "_isActive",
          "type": "bool"
        }
      ],
      "name": "setGoldListSaleStatus",
      "outputs": [],
      "stateMutability": "nonpayable",
      "type": "function"
    },
    {
      "inputs": [
        {
          "internalType": "uint256",
          "name": "cost",
          "type": "uint256"
        }
      ],
      "name": "setLiteNodeCost",
      "outputs": [],
      "stateMutability": "nonpayable",
      "type": "function"
    },
    {
      "inputs": [
        {
          "internalType": "uint256",
          "name": "_id",
          "type": "uint256"
        },
        {
          "internalType": "string",
          "name": "_uri",
          "type": "string"
        }
      ],
      "name": "setURI",
      "outputs": [],
      "stateMutability": "nonpayable",
      "type": "function"
    },
    {
      "inputs": [
        {
          "internalType": "bool",
          "name": "_isActive",
          "type": "bool"
        }
      ],
      "name": "setWhiteListSaleStatus",
      "outputs": [],
      "stateMutability": "nonpayable",
      "type": "function"
    },
    {
      "inputs": [
        {
          "internalType": "bytes32",
          "name": "_whitelist",
          "type": "bytes32"
        }
      ],
      "name": "setWhitelist",
      "outputs": [],
      "stateMutability": "nonpayable",
      "type": "function"
    },
    {
      "inputs": [
        {
          "internalType": "bytes4",
          "name": "interfaceId",
          "type": "bytes4"
        }
      ],
      "name": "supportsInterface",
      "outputs": [
        {
          "internalType": "bool",
          "name": "",
          "type": "bool"
        }
      ],
      "stateMutability": "view",
      "type": "function"
    },
    {
      "inputs": [],
      "name": "symbol",
      "outputs": [
        {
          "internalType": "string",
          "name": "",
          "type": "string"
        }
      ],
      "stateMutability": "view",
      "type": "function"
    },
    {
      "inputs": [
        {
          "internalType": "uint256",
          "name": "",
          "type": "uint256"
        }
      ],
      "name": "tokenURI",
      "outputs": [
        {
          "internalType": "string",
          "name": "",
          "type": "string"
        }
      ],
      "stateMutability": "view",
      "type": "function"
    },
    {
      "inputs": [
        {
          "internalType": "address",
          "name": "newOwner",
          "type": "address"
        }
      ],
      "name": "transferOwnership",
      "outputs": [],
      "stateMutability": "nonpayable",
      "type": "function"
    },
    {
      "inputs": [
        {
          "internalType": "uint256",
          "name": "_id",
          "type": "uint256"
        }
      ],
      "name": "uri",
      "outputs": [
        {
          "internalType": "string",
          "name": "",
          "type": "string"
        }
      ],
      "stateMutability": "view",
      "type": "function"
    },
    {
      "inputs": [],
      "name": "withdrawFunds",
      "outputs": [],
      "stateMutability": "nonpayable",
      "type": "function"
    },
    {
      "inputs": [
        {
          "internalType": "contract IERC20",
          "name": "tokenContract",
          "type": "address"
        },
        {
          "internalType": "address",
          "name": "to",
          "type": "address"
        }
      ],
      "name": "withdrawTokens",
      "outputs": [],
      "stateMutability": "nonpayable",
      "type": "function"
    }
  ],
  "bytecode": "0x60806040526000600760006101000a81548160ff0219169083151502179055506000600760016101000a81548160ff021916908315150217905550626acfc0600b55631017df80600c556101f4600d556105dc600e553480156200006257600080fd5b5060405162006b8c38038062006b8c8339818101604052810190620000889190620009fd565b60405180602001604052806000815250620000a9816200029260201b60201c565b506001600381905550620000d2620000c6620002ae60201b60201c565b620002b660201b60201c565b8460059080519060200190620000ea9291906200086a565b508360069080519060200190620001039291906200086a565b5082600a60006101000a81548173ffffffffffffffffffffffffffffffffffffffff021916908373ffffffffffffffffffffffffffffffffffffffff16021790555081600881905550806009819055506005600f600082825462000168919062000d7c565b92505081905550620001a773df938524c78dd9eeebfa83d3d7c7d44bfb242af6600180604051806020016040528060008152506200037c60201b60201c565b620001df7340c2eae8879e50e3f8d9bf1f3585d55f45f8d5a4600180604051806020016040528060008152506200037c60201b60201c565b6200021773c6b70ae06682698e4e44d673093e82dbb53b1ec0600180604051806020016040528060008152506200037c60201b60201c565b6200024f738faa163cafb3686a1f92d959b9dd55761d07c355600180604051806020016040528060008152506200037c60201b60201c565b6200028773639bf5d069cc107bd9c1767b17e3bdf7bc9f2be9600180604051806020016040528060008152506200037c60201b60201c565b50505050506200119c565b8060029080519060200190620002aa9291906200086a565b5050565b600033905090565b6000600460009054906101000a900473ffffffffffffffffffffffffffffffffffffffff16905081600460006101000a81548173ffffffffffffffffffffffffffffffffffffffff021916908373ffffffffffffffffffffffffffffffffffffffff1602179055508173ffffffffffffffffffffffffffffffffffffffff168173ffffffffffffffffffffffffffffffffffffffff167f8be0079c531659141344cd1fd0a4f28419497f9722a3daafe3b4186f6b6457e060405160405180910390a35050565b600073ffffffffffffffffffffffffffffffffffffffff168473ffffffffffffffffffffffffffffffffffffffff161415620003ef576040517f08c379a0000000000000000000000000000000000000000000000000000000008152600401620003e69062000c96565b60405180910390fd5b600062000401620002ae60201b60201c565b9050600062000416856200056460201b60201c565b905060006200042b856200056460201b60201c565b905062000444836000898585896200062d60201b60201c565b8460008088815260200190815260200160002060008973ffffffffffffffffffffffffffffffffffffffff1673ffffffffffffffffffffffffffffffffffffffff1681526020019081526020016000206000828254620004a5919062000d7c565b925050819055508673ffffffffffffffffffffffffffffffffffffffff16600073ffffffffffffffffffffffffffffffffffffffff168473ffffffffffffffffffffffffffffffffffffffff167fc3d58168c5ae7397731d063d5bbf3d657854427343f4c083240f7aacaa2d0f6289896040516200052592919062000cb8565b60405180910390a462000544836000898585896200063560201b60201c565b6200055b836000898989896200063d60201b60201c565b50505050505050565b60606000600167ffffffffffffffff811115620005aa577f4e487b7100000000000000000000000000000000000000000000000000000000600052604160045260246000fd5b604051908082528060200260200182016040528015620005d95781602001602082028036833780820191505090505b509050828160008151811062000618577f4e487b7100000000000000000000000000000000000000000000000000000000600052603260045260246000fd5b60200260200101818152505080915050919050565b505050505050565b505050505050565b620006698473ffffffffffffffffffffffffffffffffffffffff166200084760201b620019921760201c565b156200083f578373ffffffffffffffffffffffffffffffffffffffff1663f23a6e6187878686866040518663ffffffff1660e01b8152600401620006b295949392919062000bca565b602060405180830381600087803b158015620006cd57600080fd5b505af19250505080156200070157506040513d601f19601f82011682018060405250810190620006fe9190620009d1565b60015b620007b3576200071062000f7c565b806308c379a0141562000774575062000728620010ac565b8062000735575062000776565b806040517f08c379a00000000000000000000000000000000000000000000000000000000081526004016200076b919062000c2e565b60405180910390fd5b505b6040517f08c379a0000000000000000000000000000000000000000000000000000000008152600401620007aa9062000c52565b60405180910390fd5b63f23a6e6160e01b7bffffffffffffffffffffffffffffffffffffffffffffffffffffffff1916817bffffffffffffffffffffffffffffffffffffffffffffffffffffffff1916146200083d576040517f08c379a0000000000000000000000000000000000000000000000000000000008152600401620008349062000c74565b60405180910390fd5b505b505050505050565b6000808273ffffffffffffffffffffffffffffffffffffffff163b119050919050565b828054620008789062000e83565b90600052602060002090601f0160209004810192826200089c5760008555620008e8565b82601f10620008b757805160ff1916838001178555620008e8565b82800160010185558215620008e8579182015b82811115620008e7578251825591602001919060010190620008ca565b5b509050620008f79190620008fb565b5090565b5b8082111562000916576000816000905550600101620008fc565b5090565b6000620009316200092b8462000d0e565b62000ce5565b9050828152602081018484840111156200094a57600080fd5b6200095784828562000e4d565b509392505050565b60008151905062000970816200114e565b92915050565b600081519050620009878162001168565b92915050565b6000815190506200099e8162001182565b92915050565b600082601f830112620009b657600080fd5b8151620009c88482602086016200091a565b91505092915050565b600060208284031215620009e457600080fd5b6000620009f4848285016200098d565b91505092915050565b600080600080600060a0868803121562000a1657600080fd5b600086015167ffffffffffffffff81111562000a3157600080fd5b62000a3f88828901620009a4565b955050602086015167ffffffffffffffff81111562000a5d57600080fd5b62000a6b88828901620009a4565b945050604062000a7e888289016200095f565b935050606062000a918882890162000976565b925050608062000aa48882890162000976565b9150509295509295909350565b62000abc8162000dd9565b82525050565b600062000acf8262000d44565b62000adb818562000d5a565b935062000aed81856020860162000e4d565b62000af88162000fa1565b840191505092915050565b600062000b108262000d4f565b62000b1c818562000d6b565b935062000b2e81856020860162000e4d565b62000b398162000fa1565b840191505092915050565b600062000b5360348362000d6b565b915062000b608262000fbf565b604082019050919050565b600062000b7a60288362000d6b565b915062000b87826200100e565b604082019050919050565b600062000ba160218362000d6b565b915062000bae826200105d565b604082019050919050565b62000bc48162000e43565b82525050565b600060a08201905062000be1600083018862000ab1565b62000bf0602083018762000ab1565b62000bff604083018662000bb9565b62000c0e606083018562000bb9565b818103608083015262000c22818462000ac2565b90509695505050505050565b6000602082019050818103600083015262000c4a818462000b03565b905092915050565b6000602082019050818103600083015262000c6d8162000b44565b9050919050565b6000602082019050818103600083015262000c8f8162000b6b565b9050919050565b6000602082019050818103600083015262000cb18162000b92565b9050919050565b600060408201905062000ccf600083018562000bb9565b62000cde602083018462000bb9565b9392505050565b600062000cf162000d04565b905062000cff828262000eb9565b919050565b6000604051905090565b600067ffffffffffffffff82111562000d2c5762000d2b62000f4d565b5b62000d378262000fa1565b9050602081019050919050565b600081519050919050565b600081519050919050565b600082825260208201905092915050565b600082825260208201905092915050565b600062000d898262000e43565b915062000d968362000e43565b9250827fffffffffffffffffffffffffffffffffffffffffffffffffffffffffffffffff0382111562000dce5762000dcd62000eef565b5b828201905092915050565b600062000de68262000e23565b9050919050565b6000819050919050565b60007fffffffff0000000000000000000000000000000000000000000000000000000082169050919050565b600073ffffffffffffffffffffffffffffffffffffffff82169050919050565b6000819050919050565b60005b8381101562000e6d57808201518184015260208101905062000e50565b8381111562000e7d576000848401525b50505050565b6000600282049050600182168062000e9c57607f821691505b6020821081141562000eb35762000eb262000f1e565b5b50919050565b62000ec48262000fa1565b810181811067ffffffffffffffff8211171562000ee65762000ee562000f4d565b5b80604052505050565b7f4e487b7100000000000000000000000000000000000000000000000000000000600052601160045260246000fd5b7f4e487b7100000000000000000000000000000000000000000000000000000000600052602260045260246000fd5b7f4e487b7100000000000000000000000000000000000000000000000000000000600052604160045260246000fd5b600060033d111562000f9e5760046000803e62000f9b60005162000fb2565b90505b90565b6000601f19601f8301169050919050565b60008160e01c9050919050565b7f455243313135353a207472616e7366657220746f206e6f6e204552433131353560008201527f526563656976657220696d706c656d656e746572000000000000000000000000602082015250565b7f455243313135353a204552433131353552656365697665722072656a6563746560008201527f6420746f6b656e73000000000000000000000000000000000000000000000000602082015250565b7f455243313135353a206d696e7420746f20746865207a65726f2061646472657360008201527f7300000000000000000000000000000000000000000000000000000000000000602082015250565b600060443d1015620010be576200114b565b620010c862000d04565b60043d036004823e80513d602482011167ffffffffffffffff82111715620010f25750506200114b565b808201805167ffffffffffffffff8111156200111257505050506200114b565b80602083010160043d038501811115620011315750505050506200114b565b620011428260200185018662000eb9565b82955050505050505b90565b620011598162000dd9565b81146200116557600080fd5b50565b620011738162000ded565b81146200117f57600080fd5b50565b6200118d8162000df7565b81146200119957600080fd5b50565b6159e080620011ac6000396000f3fe608060405234801561001057600080fd5b506004361061027e5760003560e01c80638edeb5281161015c578063c9b3ed07116100ce578063ec75c2ec11610087578063ec75c2ec1461079b578063f11207d8146107b7578063f242432a146107d5578063f2fde38b146107f1578063f32ccefc1461080d578063f48ef7b3146108295761027e565b8063c9b3ed07146106c9578063d28d8852146106e5578063d55690cc14610703578063df714a231461071f578063e0d0b1b01461074f578063e985e9c51461076b5761027e565b8063aacffcd111610120578063aacffcd1146105f3578063b09f126614610611578063b286d8461461062f578063b390c0ab1461065f578063b39d80cb1461067b578063c87b56dd146106995761027e565b80638edeb5281461056357806395d89b411461057f5780639f4e86121461059d578063a22cb465146105bb578063a522ad25146105d75761027e565b8063366fc60d116101f55780634e1273f4116101b95780634e1273f4146104b55780635ce92989146104e5578063715018a61461050357806383ca4b6f1461050d578063862440e2146105295780638da5cb5b146105455761027e565b8063366fc60d146103ff5780633ea514911461042f57806341c30f791461044d578063440bc7f31461047d5780634d0ac59a146104995761027e565b80631689519011610247578063168951901461034f57806324600fc31461036d5780632482751c146103775780632eb2c2d6146103a75780632fa5b0cb146103c357806330b9ff72146103e15761027e565b8062fdd58e1461028357806301ffc9a7146102b3578063041fa44e146102e357806306fdde03146103015780630e89341c1461031f575b600080fd5b61029d60048036038101906102989190613f56565b610847565b6040516102aa9190614cce565b60405180910390f35b6102cd60048036038101906102c891906140e5565b610910565b6040516102da9190614936565b60405180910390f35b6102eb6109f2565b6040516102f89190614951565b60405180910390f35b6103096109f8565b604051610316919061496c565b60405180910390f35b61033960048036038101906103349190614173565b610a8a565b604051610346919061496c565b60405180910390f35b610357610b2f565b6040516103649190614936565b60405180910390f35b610375610b42565b005b610391600480360381019061038c9190613ec2565b610b93565b60405161039e9190614936565b60405180910390f35b6103c160048036038101906103bc9190613d74565b610bdd565b005b6103cb610c7e565b6040516103d89190614cce565b60405180910390f35b6103e9610c84565b6040516103f69190614cce565b60405180910390f35b61041960048036038101906104149190613d0f565b610c8a565b6040516104269190614cce565b60405180910390f35b610437610ca2565b6040516104449190614cce565b60405180910390f35b61046760048036038101906104629190613d0f565b610ca8565b6040516104749190614cce565b60405180910390f35b610497600480360381019061049291906140bc565b610cc0565b005b6104b360048036038101906104ae9190614173565b610cd2565b005b6104cf60048036038101906104ca9190613f92565b610e88565b6040516104dc91906148dd565b60405180910390f35b6104ed611039565b6040516104fa9190614cce565b60405180910390f35b61050b61103f565b005b61052760048036038101906105229190613ffe565b611053565b005b610543600480360381019061053e919061421d565b611062565b005b61054d6110ce565b60405161055a91906147a0565b60405180910390f35b61057d60048036038101906105789190614173565b6110f8565b005b61058761110a565b604051610594919061496c565b60405180910390f35b6105a561119c565b6040516105b291906147a0565b60405180910390f35b6105d560048036038101906105d09190613f1a565b6111c2565b005b6105f160048036038101906105ec9190614137565b6111d8565b005b6105fb6112fa565b6040516106089190614cce565b60405180910390f35b610619611300565b604051610626919061496c565b60405180910390f35b61064960048036038101906106449190613d0f565b61138e565b6040516106569190614936565b60405180910390f35b61067960048036038101906106749190614271565b6113ae565b005b6106836113bd565b6040516106909190614951565b60405180910390f35b6106b360048036038101906106ae9190614173565b6113c3565b6040516106c0919061496c565b60405180910390f35b6106e360048036038101906106de91906141c5565b611463565b005b6106ed611644565b6040516106fa919061496c565b60405180910390f35b61071d6004803603810190610718919061406a565b6116d2565b005b61073960048036038101906107349190613ec2565b611712565b6040516107469190614936565b60405180910390f35b61076960048036038101906107649190614173565b61175c565b005b61078560048036038101906107809190613d38565b61176e565b6040516107929190614936565b60405180910390f35b6107b560048036038101906107b0919061406a565b611802565b005b6107bf611842565b6040516107cc9190614936565b60405180910390f35b6107ef60048036038101906107ea9190613e33565b611855565b005b61080b60048036038101906108069190613d0f565b6118f6565b005b610827600480360381019061082291906140bc565b61197a565b005b61083161198c565b60405161083e9190614cce565b60405180910390f35b60008073ffffffffffffffffffffffffffffffffffffffff168373ffffffffffffffffffffffffffffffffffffffff1614156108b8576040517f08c379a00000000000000000000000000000000000000000000000000000000081526004016108af90614aae565b60405180910390fd5b60008083815260200190815260200160002060008473ffffffffffffffffffffffffffffffffffffffff1673ffffffffffffffffffffffffffffffffffffffff16815260200190815260200160002054905092915050565b60007fd9b67a26000000000000000000000000000000000000000000000000000000007bffffffffffffffffffffffffffffffffffffffffffffffffffffffff1916827bffffffffffffffffffffffffffffffffffffffffffffffffffffffff191614806109db57507f0e89341c000000000000000000000000000000000000000000000000000000007bffffffffffffffffffffffffffffffffffffffffffffffffffffffff1916827bffffffffffffffffffffffffffffffffffffffffffffffffffffffff1916145b806109eb57506109ea826119b5565b5b9050919050565b60095481565b606060058054610a0790614fe4565b80601f0160208091040260200160405190810160405280929190818152602001828054610a3390614fe4565b8015610a805780601f10610a5557610100808354040283529160200191610a80565b820191906000526020600020905b815481529060010190602001808311610a6357829003601f168201915b5050505050905090565b6060601160008381526020019081526020016000208054610aaa90614fe4565b80601f0160208091040260200160405190810160405280929190818152602001828054610ad690614fe4565b8015610b235780601f10610af857610100808354040283529160200191610b23565b820191906000526020600020905b815481529060010190602001808311610b0657829003601f168201915b50505050509050919050565b600760009054906101000a900460ff1681565b610b4a611a1f565b3373ffffffffffffffffffffffffffffffffffffffff166108fc479081150290604051600060405180830381858888f19350505050158015610b90573d6000803e3d6000fd5b50565b60008084604051602001610ba79190614785565b6040516020818303038152906040528051906020012090506000610bcf600954868685611a9d565b905080925050509392505050565b610be5611af5565b73ffffffffffffffffffffffffffffffffffffffff168573ffffffffffffffffffffffffffffffffffffffff161480610c2b5750610c2a85610c25611af5565b61176e565b5b610c6a576040517f08c379a0000000000000000000000000000000000000000000000000000000008152600401610c61906149ae565b60405180910390fd5b610c778585858585611afd565b5050505050565b600e5481565b600d5481565b60146020528060005260406000206000915090505481565b600b5481565b60136020528060005260406000206000915090505481565b610cc8611a1f565b8060098190555050565b60026003541415610d18576040517f08c379a0000000000000000000000000000000000000000000000000000000008152600401610d0f90614c8e565b60405180910390fd5b600260038190555060011515600760009054906101000a900460ff1615151480610d55575060011515600760019054906101000a900460ff161515145b610d94576040517f08c379a0000000000000000000000000000000000000000000000000000000008152600401610d8b90614a8e565b60405180910390fd5b60001515601260003373ffffffffffffffffffffffffffffffffffffffff1673ffffffffffffffffffffffffffffffffffffffff16815260200190815260200160002060009054906101000a900460ff16151514610e27576040517f08c379a0000000000000000000000000000000000000000000000000000000008152600401610e1e906149ee565b60405180910390fd5b60008111610e6a576040517f08c379a0000000000000000000000000000000000000000000000000000000008152600401610e6190614b2e565b60405180910390fd5b6000811115610e7d57610e7c81611e6b565b5b600160038190555050565b60608151835114610ece576040517f08c379a0000000000000000000000000000000000000000000000000000000008152600401610ec590614c0e565b60405180910390fd5b6000835167ffffffffffffffff811115610f11577f4e487b7100000000000000000000000000000000000000000000000000000000600052604160045260246000fd5b604051908082528060200260200182016040528015610f3f5781602001602082028036833780820191505090505b50905060005b845181101561102e57610fd8858281518110610f8a577f4e487b7100000000000000000000000000000000000000000000000000000000600052603260045260246000fd5b6020026020010151858381518110610fcb577f4e487b7100000000000000000000000000000000000000000000000000000000600052603260045260246000fd5b6020026020010151610847565b828281518110611011577f4e487b7100000000000000000000000000000000000000000000000000000000600052603260045260246000fd5b6020026020010181815250508061102790615047565b9050610f45565b508091505092915050565b60105481565b611047611a1f565b6110516000612350565b565b61105e338383612416565b5050565b61106a611a1f565b80601160008481526020019081526020016000209080519060200190611091929190613969565b50817f6bb7ff708619ba0610cba295a58592e0451dee2622938c8755667688daf3529b826040516110c2919061496c565b60405180910390a25050565b6000600460009054906101000a900473ffffffffffffffffffffffffffffffffffffffff16905090565b611100611a1f565b80600c8190555050565b60606006805461111990614fe4565b80601f016020809104026020016040519081016040528092919081815260200182805461114590614fe4565b80156111925780601f1061116757610100808354040283529160200191611192565b820191906000526020600020905b81548152906001019060200180831161117557829003601f168201915b5050505050905090565b600a60009054906101000a900473ffffffffffffffffffffffffffffffffffffffff1681565b6111d46111cd611af5565b8383612731565b5050565b6111e0611a1f565b8173ffffffffffffffffffffffffffffffffffffffff1663a9059cbb828473ffffffffffffffffffffffffffffffffffffffff166370a08231306040518263ffffffff1660e01b815260040161123691906147a0565b60206040518083038186803b15801561124e57600080fd5b505afa158015611262573d6000803e3d6000fd5b505050506040513d601f19601f82011682018060405250810190611286919061419c565b6040518363ffffffff1660e01b81526004016112a39291906148b4565b602060405180830381600087803b1580156112bd57600080fd5b505af11580156112d1573d6000803e3d6000fd5b505050506040513d601f19601f820116820180604052508101906112f59190614093565b505050565b600c5481565b6006805461130d90614fe4565b80601f016020809104026020016040519081016040528092919081815260200182805461133990614fe4565b80156113865780601f1061135b57610100808354040283529160200191611386565b820191906000526020600020905b81548152906001019060200180831161136957829003601f168201915b505050505081565b60126020528060005260406000206000915054906101000a900460ff1681565b6113b933838361289e565b5050565b60085481565b601160205280600052604060002060009150905080546113e290614fe4565b80601f016020809104026020016040519081016040528092919081815260200182805461140e90614fe4565b801561145b5780601f106114305761010080835404028352916020019161145b565b820191906000526020600020905b81548152906001019060200180831161143e57829003601f168201915b505050505081565b600260035414156114a9576040517f08c379a00000000000000000000000000000000000000000000000000000000081526004016114a090614c8e565b60405180910390fd5b600260038190555060011515600760009054906101000a900460ff16151514806114e6575060011515600760019054906101000a900460ff161515145b611525576040517f08c379a000000000000000000000000000000000000000000000000000000000815260040161151c90614a8e565b60405180910390fd5b60001515601260003373ffffffffffffffffffffffffffffffffffffffff1673ffffffffffffffffffffffffffffffffffffffff16815260200190815260200160002060009054906101000a900460ff161515146115b8576040517f08c379a00000000000000000000000000000000000000000000000000000000081526004016115af90614aee565b60405180910390fd5b600083116115fb576040517f08c379a00000000000000000000000000000000000000000000000000000000081526004016115f290614a4e565b60405180910390fd5b6000831115611637576116368360011515600760019054906101000a900460ff1615151461162b5760085461162f565b6009545b8484612ae5565b5b6001600381905550505050565b6005805461165190614fe4565b80601f016020809104026020016040519081016040528092919081815260200182805461167d90614fe4565b80156116ca5780601f1061169f576101008083540402835291602001916116ca565b820191906000526020600020905b8154815290600101906020018083116116ad57829003601f168201915b505050505081565b6116da611a1f565b6000600760006101000a81548160ff02191690831515021790555080600760016101000a81548160ff02191690831515021790555050565b600080846040516020016117269190614785565b604051602081830303815290604052805190602001209050600061174e600854868685611a9d565b905080925050509392505050565b611764611a1f565b80600b8190555050565b6000600160008473ffffffffffffffffffffffffffffffffffffffff1673ffffffffffffffffffffffffffffffffffffffff16815260200190815260200160002060008373ffffffffffffffffffffffffffffffffffffffff1673ffffffffffffffffffffffffffffffffffffffff16815260200190815260200160002060009054906101000a900460ff16905092915050565b61180a611a1f565b6000600760016101000a81548160ff02191690831515021790555080600760006101000a81548160ff02191690831515021790555050565b600760019054906101000a900460ff1681565b61185d611af5565b73ffffffffffffffffffffffffffffffffffffffff168573ffffffffffffffffffffffffffffffffffffffff1614806118a357506118a28561189d611af5565b61176e565b5b6118e2576040517f08c379a00000000000000000000000000000000000000000000000000000000081526004016118d9906149ae565b60405180910390fd5b6118ef8585858585612fa3565b5050505050565b6118fe611a1f565b600073ffffffffffffffffffffffffffffffffffffffff168173ffffffffffffffffffffffffffffffffffffffff16141561196e576040517f08c379a000000000000000000000000000000000000000000000000000000000815260040161196590614a2e565b60405180910390fd5b61197781612350565b50565b611982611a1f565b8060088190555050565b600f5481565b6000808273ffffffffffffffffffffffffffffffffffffffff163b119050919050565b60007f01ffc9a7000000000000000000000000000000000000000000000000000000007bffffffffffffffffffffffffffffffffffffffffffffffffffffffff1916827bffffffffffffffffffffffffffffffffffffffffffffffffffffffff1916149050919050565b611a27611af5565b73ffffffffffffffffffffffffffffffffffffffff16611a456110ce565b73ffffffffffffffffffffffffffffffffffffffff1614611a9b576040517f08c379a0000000000000000000000000000000000000000000000000000000008152600401611a9290614b8e565b60405180910390fd5b565b6000611aeb848480806020026020016040519081016040528093929190818152602001838360200280828437600081840152601f19601f82011690508083019250505050505050868461323f565b9050949350505050565b600033905090565b8151835114611b41576040517f08c379a0000000000000000000000000000000000000000000000000000000008152600401611b3890614c4e565b60405180910390fd5b600073ffffffffffffffffffffffffffffffffffffffff168473ffffffffffffffffffffffffffffffffffffffff161415611bb1576040517f08c379a0000000000000000000000000000000000000000000000000000000008152600401611ba890614b0e565b60405180910390fd5b6000611bbb611af5565b9050611bcb818787878787613256565b60005b8451811015611dc8576000858281518110611c12577f4e487b7100000000000000000000000000000000000000000000000000000000600052603260045260246000fd5b602002602001015190506000858381518110611c57577f4e487b7100000000000000000000000000000000000000000000000000000000600052603260045260246000fd5b60200260200101519050600080600084815260200190815260200160002060008b73ffffffffffffffffffffffffffffffffffffffff1673ffffffffffffffffffffffffffffffffffffffff16815260200190815260200160002054905081811015611cf8576040517f08c379a0000000000000000000000000000000000000000000000000000000008152600401611cef90614b6e565b60405180910390fd5b81810360008085815260200190815260200160002060008c73ffffffffffffffffffffffffffffffffffffffff1673ffffffffffffffffffffffffffffffffffffffff168152602001908152602001600020819055508160008085815260200190815260200160002060008b73ffffffffffffffffffffffffffffffffffffffff1673ffffffffffffffffffffffffffffffffffffffff1681526020019081526020016000206000828254611dad9190614e62565b9250508190555050505080611dc190615047565b9050611bce565b508473ffffffffffffffffffffffffffffffffffffffff168673ffffffffffffffffffffffffffffffffffffffff168273ffffffffffffffffffffffffffffffffffffffff167f4a39dc06d4c0dbc64b70af90fd698a233a518aa5d07e595d983b8c0526c8f7fb8787604051611e3f9291906148ff565b60405180910390a4611e5581878787878761325e565b611e63818787878787613266565b505050505050565b80600681601460003373ffffffffffffffffffffffffffffffffffffffff1673ffffffffffffffffffffffffffffffffffffffff16815260200190815260200160002054611eb99190614e62565b10611ef9576040517f08c379a0000000000000000000000000000000000000000000000000000000008152600401611ef090614bae565b60405180910390fd5b600e5481601054611f0a9190614e62565b1115611f4b576040517f08c379a0000000000000000000000000000000000000000000000000000000008152600401611f4290614c2e565b60405180910390fd5b60001515601260003373ffffffffffffffffffffffffffffffffffffffff1673ffffffffffffffffffffffffffffffffffffffff16815260200190815260200160002060009054906101000a900460ff16151514611fde576040517f08c379a0000000000000000000000000000000000000000000000000000000008152600401611fd590614aee565b60405180910390fd5b80600b54611fec9190614eb8565b600a60009054906101000a900473ffffffffffffffffffffffffffffffffffffffff1673ffffffffffffffffffffffffffffffffffffffff166370a08231336040518263ffffffff1660e01b815260040161204791906147a0565b60206040518083038186803b15801561205f57600080fd5b505afa158015612073573d6000803e3d6000fd5b505050506040513d601f19601f82011682018060405250810190612097919061419c565b10156120d8576040517f08c379a00000000000000000000000000000000000000000000000000000000081526004016120cf90614ace565b60405180910390fd5b816010546120e69190614e62565b601081905550600582601460003373ffffffffffffffffffffffffffffffffffffffff1673ffffffffffffffffffffffffffffffffffffffff168152602001908152602001600020546121399190614e62565b14801561218557506001601360003373ffffffffffffffffffffffffffffffffffffffff1673ffffffffffffffffffffffffffffffffffffffff16815260200190815260200160002054145b156121e3576001601260003373ffffffffffffffffffffffffffffffffffffffff1673ffffffffffffffffffffffffffffffffffffffff16815260200190815260200160002060006101000a81548160ff0219169083151502179055505b81601460003373ffffffffffffffffffffffffffffffffffffffff1673ffffffffffffffffffffffffffffffffffffffff1681526020019081526020016000205461222e9190614e62565b601460003373ffffffffffffffffffffffffffffffffffffffff1673ffffffffffffffffffffffffffffffffffffffff16815260200190815260200160002081905550600a60009054906101000a900473ffffffffffffffffffffffffffffffffffffffff1673ffffffffffffffffffffffffffffffffffffffff166323b872dd333085600b546122bf9190614eb8565b6040518463ffffffff1660e01b81526004016122dd93929190614823565b602060405180830381600087803b1580156122f757600080fd5b505af115801561230b573d6000803e3d6000fd5b505050506040513d601f19601f8201168201806040525081019061232f9190614093565b5061234c336002846040518060200160405280600081525061344d565b5050565b6000600460009054906101000a900473ffffffffffffffffffffffffffffffffffffffff16905081600460006101000a81548173ffffffffffffffffffffffffffffffffffffffff021916908373ffffffffffffffffffffffffffffffffffffffff1602179055508173ffffffffffffffffffffffffffffffffffffffff168173ffffffffffffffffffffffffffffffffffffffff167f8be0079c531659141344cd1fd0a4f28419497f9722a3daafe3b4186f6b6457e060405160405180910390a35050565b600073ffffffffffffffffffffffffffffffffffffffff168373ffffffffffffffffffffffffffffffffffffffff161415612486576040517f08c379a000000000000000000000000000000000000000000000000000000000815260040161247d90614b4e565b60405180910390fd5b80518251146124ca576040517f08c379a00000000000000000000000000000000000000000000000000000000081526004016124c190614c4e565b60405180910390fd5b60006124d4611af5565b90506124f481856000868660405180602001604052806000815250613256565b60005b835181101561268d57600084828151811061253b577f4e487b7100000000000000000000000000000000000000000000000000000000600052603260045260246000fd5b602002602001015190506000848381518110612580577f4e487b7100000000000000000000000000000000000000000000000000000000600052603260045260246000fd5b60200260200101519050600080600084815260200190815260200160002060008973ffffffffffffffffffffffffffffffffffffffff1673ffffffffffffffffffffffffffffffffffffffff16815260200190815260200160002054905081811015612621576040517f08c379a000000000000000000000000000000000000000000000000000000000815260040161261890614a6e565b60405180910390fd5b81810360008085815260200190815260200160002060008a73ffffffffffffffffffffffffffffffffffffffff1673ffffffffffffffffffffffffffffffffffffffff16815260200190815260200160002081905550505050808061268590615047565b9150506124f7565b50600073ffffffffffffffffffffffffffffffffffffffff168473ffffffffffffffffffffffffffffffffffffffff168273ffffffffffffffffffffffffffffffffffffffff167f4a39dc06d4c0dbc64b70af90fd698a233a518aa5d07e595d983b8c0526c8f7fb86866040516127059291906148ff565b60405180910390a461272b8185600086866040518060200160405280600081525061325e565b50505050565b8173ffffffffffffffffffffffffffffffffffffffff168373ffffffffffffffffffffffffffffffffffffffff1614156127a0576040517f08c379a000000000000000000000000000000000000000000000000000000000815260040161279790614bee565b60405180910390fd5b80600160008573ffffffffffffffffffffffffffffffffffffffff1673ffffffffffffffffffffffffffffffffffffffff16815260200190815260200160002060008473ffffffffffffffffffffffffffffffffffffffff1673ffffffffffffffffffffffffffffffffffffffff16815260200190815260200160002060006101000a81548160ff0219169083151502179055508173ffffffffffffffffffffffffffffffffffffffff168373ffffffffffffffffffffffffffffffffffffffff167f17307eab39ab6107e8899845ad3d59bd9653f200f220920489ca2b5937696c31836040516128919190614936565b60405180910390a3505050565b600073ffffffffffffffffffffffffffffffffffffffff168373ffffffffffffffffffffffffffffffffffffffff16141561290e576040517f08c379a000000000000000000000000000000000000000000000000000000000815260040161290590614b4e565b60405180910390fd5b6000612918611af5565b90506000612925846135fe565b90506000612932846135fe565b905061295283876000858560405180602001604052806000815250613256565b600080600087815260200190815260200160002060008873ffffffffffffffffffffffffffffffffffffffff1673ffffffffffffffffffffffffffffffffffffffff168152602001908152602001600020549050848110156129e9576040517f08c379a00000000000000000000000000000000000000000000000000000000081526004016129e090614a6e565b60405180910390fd5b84810360008088815260200190815260200160002060008973ffffffffffffffffffffffffffffffffffffffff1673ffffffffffffffffffffffffffffffffffffffff16815260200190815260200160002081905550600073ffffffffffffffffffffffffffffffffffffffff168773ffffffffffffffffffffffffffffffffffffffff168573ffffffffffffffffffffffffffffffffffffffff167fc3d58168c5ae7397731d063d5bbf3d657854427343f4c083240f7aacaa2d0f628989604051612ab6929190614ce9565b60405180910390a4612adc8488600086866040518060200160405280600081525061325e565b50505050505050565b83600281601360003373ffffffffffffffffffffffffffffffffffffffff1673ffffffffffffffffffffffffffffffffffffffff16815260200190815260200160002054612b339190614e62565b10612b73576040517f08c379a0000000000000000000000000000000000000000000000000000000008152600401612b6a90614bce565b60405180910390fd5b600d546001600f54612b859190614e62565b1115612bc6576040517f08c379a0000000000000000000000000000000000000000000000000000000008152600401612bbd90614cae565b60405180910390fd5b600c54600a60009054906101000a900473ffffffffffffffffffffffffffffffffffffffff1673ffffffffffffffffffffffffffffffffffffffff166370a08231336040518263ffffffff1660e01b8152600401612c2491906147a0565b60206040518083038186803b158015612c3c57600080fd5b505afa158015612c50573d6000803e3d6000fd5b505050506040513d601f19601f82011682018060405250810190612c74919061419c565b1015612cb5576040517f08c379a0000000000000000000000000000000000000000000000000000000008152600401612cac90614ace565b60405180910390fd5b600033604051602001612cc89190614785565b60405160208183030381529060405280519060200120905060011515612cf086868685611a9d565b151514612d32576040517f08c379a0000000000000000000000000000000000000000000000000000000008152600401612d2990614a0e565b60405180910390fd5b85600f54612d409190614e62565b600f81905550600186601360003373ffffffffffffffffffffffffffffffffffffffff1673ffffffffffffffffffffffffffffffffffffffff16815260200190815260200160002054612d939190614e62565b148015612ddf57506005601460003373ffffffffffffffffffffffffffffffffffffffff1673ffffffffffffffffffffffffffffffffffffffff16815260200190815260200160002054145b15612e3d576001601260003373ffffffffffffffffffffffffffffffffffffffff1673ffffffffffffffffffffffffffffffffffffffff16815260200190815260200160002060006101000a81548160ff0219169083151502179055505b85601360003373ffffffffffffffffffffffffffffffffffffffff1673ffffffffffffffffffffffffffffffffffffffff16815260200190815260200160002054612e889190614e62565b601360003373ffffffffffffffffffffffffffffffffffffffff1673ffffffffffffffffffffffffffffffffffffffff16815260200190815260200160002081905550600a60009054906101000a900473ffffffffffffffffffffffffffffffffffffffff1673ffffffffffffffffffffffffffffffffffffffff166323b872dd3330600c546040518463ffffffff1660e01b8152600401612f2c93929190614823565b602060405180830381600087803b158015612f4657600080fd5b505af1158015612f5a573d6000803e3d6000fd5b505050506040513d601f19601f82011682018060405250810190612f7e9190614093565b50612f9b336001886040518060200160405280600081525061344d565b505050505050565b600073ffffffffffffffffffffffffffffffffffffffff168473ffffffffffffffffffffffffffffffffffffffff161415613013576040517f08c379a000000000000000000000000000000000000000000000000000000000815260040161300a90614b0e565b60405180910390fd5b600061301d611af5565b9050600061302a856135fe565b90506000613037856135fe565b9050613047838989858589613256565b600080600088815260200190815260200160002060008a73ffffffffffffffffffffffffffffffffffffffff1673ffffffffffffffffffffffffffffffffffffffff168152602001908152602001600020549050858110156130de576040517f08c379a00000000000000000000000000000000000000000000000000000000081526004016130d590614b6e565b60405180910390fd5b85810360008089815260200190815260200160002060008b73ffffffffffffffffffffffffffffffffffffffff1673ffffffffffffffffffffffffffffffffffffffff168152602001908152602001600020819055508560008089815260200190815260200160002060008a73ffffffffffffffffffffffffffffffffffffffff1673ffffffffffffffffffffffffffffffffffffffff16815260200190815260200160002060008282546131939190614e62565b925050819055508773ffffffffffffffffffffffffffffffffffffffff168973ffffffffffffffffffffffffffffffffffffffff168573ffffffffffffffffffffffffffffffffffffffff167fc3d58168c5ae7397731d063d5bbf3d657854427343f4c083240f7aacaa2d0f628a8a604051613210929190614ce9565b60405180910390a4613226848a8a86868a61325e565b613234848a8a8a8a8a6136c4565b505050505050505050565b60008261324c85846138ab565b1490509392505050565b505050505050565b505050505050565b6132858473ffffffffffffffffffffffffffffffffffffffff16611992565b15613445578373ffffffffffffffffffffffffffffffffffffffff1663bc197c8187878686866040518663ffffffff1660e01b81526004016132cb9594939291906147bb565b602060405180830381600087803b1580156132e557600080fd5b505af192505050801561331657506040513d601f19601f82011682018060405250810190613313919061410e565b60015b6133bc57613322615141565b806308c379a0141561337f575061333761588a565b806133425750613381565b806040517f08c379a0000000000000000000000000000000000000000000000000000000008152600401613376919061496c565b60405180910390fd5b505b6040517f08c379a00000000000000000000000000000000000000000000000000000000081526004016133b39061498e565b60405180910390fd5b63bc197c8160e01b7bffffffffffffffffffffffffffffffffffffffffffffffffffffffff1916817bffffffffffffffffffffffffffffffffffffffffffffffffffffffff191614613443576040517f08c379a000000000000000000000000000000000000000000000000000000000815260040161343a906149ce565b60405180910390fd5b505b505050505050565b600073ffffffffffffffffffffffffffffffffffffffff168473ffffffffffffffffffffffffffffffffffffffff1614156134bd576040517f08c379a00000000000000000000000000000000000000000000000000000000081526004016134b490614c6e565b60405180910390fd5b60006134c7611af5565b905060006134d4856135fe565b905060006134e1856135fe565b90506134f283600089858589613256565b8460008088815260200190815260200160002060008973ffffffffffffffffffffffffffffffffffffffff1673ffffffffffffffffffffffffffffffffffffffff16815260200190815260200160002060008282546135519190614e62565b925050819055508673ffffffffffffffffffffffffffffffffffffffff16600073ffffffffffffffffffffffffffffffffffffffff168473ffffffffffffffffffffffffffffffffffffffff167fc3d58168c5ae7397731d063d5bbf3d657854427343f4c083240f7aacaa2d0f6289896040516135cf929190614ce9565b60405180910390a46135e68360008985858961325e565b6135f5836000898989896136c4565b50505050505050565b60606000600167ffffffffffffffff811115613643577f4e487b7100000000000000000000000000000000000000000000000000000000600052604160045260246000fd5b6040519080825280602002602001820160405280156136715781602001602082028036833780820191505090505b50905082816000815181106136af577f4e487b7100000000000000000000000000000000000000000000000000000000600052603260045260246000fd5b60200260200101818152505080915050919050565b6136e38473ffffffffffffffffffffffffffffffffffffffff16611992565b156138a3578373ffffffffffffffffffffffffffffffffffffffff1663f23a6e6187878686866040518663ffffffff1660e01b815260040161372995949392919061485a565b602060405180830381600087803b15801561374357600080fd5b505af192505050801561377457506040513d601f19601f82011682018060405250810190613771919061410e565b60015b61381a57613780615141565b806308c379a014156137dd575061379561588a565b806137a057506137df565b806040517f08c379a00000000000000000000000000000000000000000000000000000000081526004016137d4919061496c565b60405180910390fd5b505b6040517f08c379a00000000000000000000000000000000000000000000000000000000081526004016138119061498e565b60405180910390fd5b63f23a6e6160e01b7bffffffffffffffffffffffffffffffffffffffffffffffffffffffff1916817bffffffffffffffffffffffffffffffffffffffffffffffffffffffff1916146138a1576040517f08c379a0000000000000000000000000000000000000000000000000000000008152600401613898906149ce565b60405180910390fd5b505b505050505050565b60008082905060005b845181101561391c57613907828683815181106138fa577f4e487b7100000000000000000000000000000000000000000000000000000000600052603260045260246000fd5b6020026020010151613927565b9150808061391490615047565b9150506138b4565b508091505092915050565b600081831061393f5761393a8284613952565b61394a565b6139498383613952565b5b905092915050565b600082600052816020526040600020905092915050565b82805461397590614fe4565b90600052602060002090601f01602090048101928261399757600085556139de565b82601f106139b057805160ff19168380011785556139de565b828001600101855582156139de579182015b828111156139dd5782518255916020019190600101906139c2565b5b5090506139eb91906139ef565b5090565b5b80821115613a085760008160009055506001016139f0565b5090565b6000613a1f613a1a84614d37565b614d12565b90508083825260208201905082856020860282011115613a3e57600080fd5b60005b85811015613a6e5781613a548882613b60565b845260208401935060208301925050600181019050613a41565b5050509392505050565b6000613a8b613a8684614d63565b614d12565b90508083825260208201905082856020860282011115613aaa57600080fd5b60005b85811015613ada5781613ac08882613ce5565b845260208401935060208301925050600181019050613aad565b5050509392505050565b6000613af7613af284614d8f565b614d12565b905082815260208101848484011115613b0f57600080fd5b613b1a848285614fa2565b509392505050565b6000613b35613b3084614dc0565b614d12565b905082815260208101848484011115613b4d57600080fd5b613b58848285614fa2565b509392505050565b600081359050613b6f81615920565b92915050565b600082601f830112613b8657600080fd5b8135613b96848260208601613a0c565b91505092915050565b60008083601f840112613bb157600080fd5b8235905067ffffffffffffffff811115613bca57600080fd5b602083019150836020820283011115613be257600080fd5b9250929050565b600082601f830112613bfa57600080fd5b8135613c0a848260208601613a78565b91505092915050565b600081359050613c2281615937565b92915050565b600081519050613c3781615937565b92915050565b600081359050613c4c8161594e565b92915050565b600081359050613c6181615965565b92915050565b600081519050613c7681615965565b92915050565b600082601f830112613c8d57600080fd5b8135613c9d848260208601613ae4565b91505092915050565b600081359050613cb58161597c565b92915050565b600082601f830112613ccc57600080fd5b8135613cdc848260208601613b22565b91505092915050565b600081359050613cf481615993565b92915050565b600081519050613d0981615993565b92915050565b600060208284031215613d2157600080fd5b6000613d2f84828501613b60565b91505092915050565b60008060408385031215613d4b57600080fd5b6000613d5985828601613b60565b9250506020613d6a85828601613b60565b9150509250929050565b600080600080600060a08688031215613d8c57600080fd5b6000613d9a88828901613b60565b9550506020613dab88828901613b60565b945050604086013567ffffffffffffffff811115613dc857600080fd5b613dd488828901613be9565b935050606086013567ffffffffffffffff811115613df157600080fd5b613dfd88828901613be9565b925050608086013567ffffffffffffffff811115613e1a57600080fd5b613e2688828901613c7c565b9150509295509295909350565b600080600080600060a08688031215613e4b57600080fd5b6000613e5988828901613b60565b9550506020613e6a88828901613b60565b9450506040613e7b88828901613ce5565b9350506060613e8c88828901613ce5565b925050608086013567ffffffffffffffff811115613ea957600080fd5b613eb588828901613c7c565b9150509295509295909350565b600080600060408486031215613ed757600080fd5b6000613ee586828701613b60565b935050602084013567ffffffffffffffff811115613f0257600080fd5b613f0e86828701613b9f565b92509250509250925092565b60008060408385031215613f2d57600080fd5b6000613f3b85828601613b60565b9250506020613f4c85828601613c13565b9150509250929050565b60008060408385031215613f6957600080fd5b6000613f7785828601613b60565b9250506020613f8885828601613ce5565b9150509250929050565b60008060408385031215613fa557600080fd5b600083013567ffffffffffffffff811115613fbf57600080fd5b613fcb85828601613b75565b925050602083013567ffffffffffffffff811115613fe857600080fd5b613ff485828601613be9565b9150509250929050565b6000806040838503121561401157600080fd5b600083013567ffffffffffffffff81111561402b57600080fd5b61403785828601613be9565b925050602083013567ffffffffffffffff81111561405457600080fd5b61406085828601613be9565b9150509250929050565b60006020828403121561407c57600080fd5b600061408a84828501613c13565b91505092915050565b6000602082840312156140a557600080fd5b60006140b384828501613c28565b91505092915050565b6000602082840312156140ce57600080fd5b60006140dc84828501613c3d565b91505092915050565b6000602082840312156140f757600080fd5b600061410584828501613c52565b91505092915050565b60006020828403121561412057600080fd5b600061412e84828501613c67565b91505092915050565b6000806040838503121561414a57600080fd5b600061415885828601613ca6565b925050602061416985828601613b60565b9150509250929050565b60006020828403121561418557600080fd5b600061419384828501613ce5565b91505092915050565b6000602082840312156141ae57600080fd5b60006141bc84828501613cfa565b91505092915050565b6000806000604084860312156141da57600080fd5b60006141e886828701613ce5565b935050602084013567ffffffffffffffff81111561420557600080fd5b61421186828701613b9f565b92509250509250925092565b6000806040838503121561423057600080fd5b600061423e85828601613ce5565b925050602083013567ffffffffffffffff81111561425b57600080fd5b61426785828601613cbb565b9150509250929050565b6000806040838503121561428457600080fd5b600061429285828601613ce5565b92505060206142a385828601613ce5565b9150509250929050565b60006142b98383614767565b60208301905092915050565b6142ce81614f12565b82525050565b6142e56142e082614f12565b615090565b82525050565b60006142f682614e01565b6143008185614e2f565b935061430b83614df1565b8060005b8381101561433c57815161432388826142ad565b975061432e83614e22565b92505060018101905061430f565b5085935050505092915050565b61435281614f24565b82525050565b61436181614f30565b82525050565b600061437282614e0c565b61437c8185614e40565b935061438c818560208601614fb1565b61439581615163565b840191505092915050565b60006143ab82614e17565b6143b58185614e51565b93506143c5818560208601614fb1565b6143ce81615163565b840191505092915050565b60006143e6603483614e51565b91506143f18261518e565b604082019050919050565b6000614409602f83614e51565b9150614414826151dd565b604082019050919050565b600061442c602883614e51565b91506144378261522c565b604082019050919050565b600061444f601a83614e51565b915061445a8261527b565b602082019050919050565b6000614472602b83614e51565b915061447d826152a4565b604082019050919050565b6000614495602683614e51565b91506144a0826152f3565b604082019050919050565b60006144b8601e83614e51565b91506144c382615342565b602082019050919050565b60006144db602483614e51565b91506144e68261536b565b604082019050919050565b60006144fe601983614e51565b9150614509826153ba565b602082019050919050565b6000614521602a83614e51565b915061452c826153e3565b604082019050919050565b6000614544601483614e51565b915061454f82615432565b602082019050919050565b6000614567602683614e51565b91506145728261545b565b604082019050919050565b600061458a602583614e51565b9150614595826154aa565b604082019050919050565b60006145ad601e83614e51565b91506145b8826154f9565b602082019050919050565b60006145d0602383614e51565b91506145db82615522565b604082019050919050565b60006145f3602a83614e51565b91506145fe82615571565b604082019050919050565b6000614616602083614e51565b9150614621826155c0565b602082019050919050565b6000614639602983614e51565b9150614644826155e9565b604082019050919050565b600061465c602983614e51565b915061466782615638565b604082019050919050565b600061467f602983614e51565b915061468a82615687565b604082019050919050565b60006146a2602983614e51565b91506146ad826156d6565b604082019050919050565b60006146c5602a83614e51565b91506146d082615725565b604082019050919050565b60006146e8602883614e51565b91506146f382615774565b604082019050919050565b600061470b602183614e51565b9150614716826157c3565b604082019050919050565b600061472e601f83614e51565b915061473982615812565b602082019050919050565b6000614751602a83614e51565b915061475c8261583b565b604082019050919050565b61477081614f98565b82525050565b61477f81614f98565b82525050565b600061479182846142d4565b60148201915081905092915050565b60006020820190506147b560008301846142c5565b92915050565b600060a0820190506147d060008301886142c5565b6147dd60208301876142c5565b81810360408301526147ef81866142eb565b9050818103606083015261480381856142eb565b905081810360808301526148178184614367565b90509695505050505050565b600060608201905061483860008301866142c5565b61484560208301856142c5565b6148526040830184614776565b949350505050565b600060a08201905061486f60008301886142c5565b61487c60208301876142c5565b6148896040830186614776565b6148966060830185614776565b81810360808301526148a88184614367565b90509695505050505050565b60006040820190506148c960008301856142c5565b6148d66020830184614776565b9392505050565b600060208201905081810360008301526148f781846142eb565b905092915050565b6000604082019050818103600083015261491981856142eb565b9050818103602083015261492d81846142eb565b90509392505050565b600060208201905061494b6000830184614349565b92915050565b60006020820190506149666000830184614358565b92915050565b6000602082019050818103600083015261498681846143a0565b905092915050565b600060208201905081810360008301526149a7816143d9565b9050919050565b600060208201905081810360008301526149c7816143fc565b9050919050565b600060208201905081810360008301526149e78161441f565b9050919050565b60006020820190508181036000830152614a0781614442565b9050919050565b60006020820190508181036000830152614a2781614465565b9050919050565b60006020820190508181036000830152614a4781614488565b9050919050565b60006020820190508181036000830152614a67816144ab565b9050919050565b60006020820190508181036000830152614a87816144ce565b9050919050565b60006020820190508181036000830152614aa7816144f1565b9050919050565b60006020820190508181036000830152614ac781614514565b9050919050565b60006020820190508181036000830152614ae781614537565b9050919050565b60006020820190508181036000830152614b078161455a565b9050919050565b60006020820190508181036000830152614b278161457d565b9050919050565b60006020820190508181036000830152614b47816145a0565b9050919050565b60006020820190508181036000830152614b67816145c3565b9050919050565b60006020820190508181036000830152614b87816145e6565b9050919050565b60006020820190508181036000830152614ba781614609565b9050919050565b60006020820190508181036000830152614bc78161462c565b9050919050565b60006020820190508181036000830152614be78161464f565b9050919050565b60006020820190508181036000830152614c0781614672565b9050919050565b60006020820190508181036000830152614c2781614695565b9050919050565b60006020820190508181036000830152614c47816146b8565b9050919050565b60006020820190508181036000830152614c67816146db565b9050919050565b60006020820190508181036000830152614c87816146fe565b9050919050565b60006020820190508181036000830152614ca781614721565b9050919050565b60006020820190508181036000830152614cc781614744565b9050919050565b6000602082019050614ce36000830184614776565b92915050565b6000604082019050614cfe6000830185614776565b614d0b6020830184614776565b9392505050565b6000614d1c614d2d565b9050614d288282615016565b919050565b6000604051905090565b600067ffffffffffffffff821115614d5257614d51615112565b5b602082029050602081019050919050565b600067ffffffffffffffff821115614d7e57614d7d615112565b5b602082029050602081019050919050565b600067ffffffffffffffff821115614daa57614da9615112565b5b614db382615163565b9050602081019050919050565b600067ffffffffffffffff821115614ddb57614dda615112565b5b614de482615163565b9050602081019050919050565b6000819050602082019050919050565b600081519050919050565b600081519050919050565b600081519050919050565b6000602082019050919050565b600082825260208201905092915050565b600082825260208201905092915050565b600082825260208201905092915050565b6000614e6d82614f98565b9150614e7883614f98565b9250827fffffffffffffffffffffffffffffffffffffffffffffffffffffffffffffffff03821115614ead57614eac6150b4565b5b828201905092915050565b6000614ec382614f98565b9150614ece83614f98565b9250817fffffffffffffffffffffffffffffffffffffffffffffffffffffffffffffffff0483118215151615614f0757614f066150b4565b5b828202905092915050565b6000614f1d82614f78565b9050919050565b60008115159050919050565b6000819050919050565b60007fffffffff0000000000000000000000000000000000000000000000000000000082169050919050565b6000614f7182614f12565b9050919050565b600073ffffffffffffffffffffffffffffffffffffffff82169050919050565b6000819050919050565b82818337600083830152505050565b60005b83811015614fcf578082015181840152602081019050614fb4565b83811115614fde576000848401525b50505050565b60006002820490506001821680614ffc57607f821691505b602082108114156150105761500f6150e3565b5b50919050565b61501f82615163565b810181811067ffffffffffffffff8211171561503e5761503d615112565b5b80604052505050565b600061505282614f98565b91507fffffffffffffffffffffffffffffffffffffffffffffffffffffffffffffffff821415615085576150846150b4565b5b600182019050919050565b600061509b826150a2565b9050919050565b60006150ad82615174565b9050919050565b7f4e487b7100000000000000000000000000000000000000000000000000000000600052601160045260246000fd5b7f4e487b7100000000000000000000000000000000000000000000000000000000600052602260045260246000fd5b7f4e487b7100000000000000000000000000000000000000000000000000000000600052604160045260246000fd5b600060033d11156151605760046000803e61515d600051615181565b90505b90565b6000601f19601f8301169050919050565b60008160601b9050919050565b60008160e01c9050919050565b7f455243313135353a207472616e7366657220746f206e6f6e204552433131353560008201527f526563656976657220696d706c656d656e746572000000000000000000000000602082015250565b7f455243313135353a2063616c6c6572206973206e6f7420746f6b656e206f776e60008201527f6572206e6f7220617070726f7665640000000000000000000000000000000000602082015250565b7f455243313135353a204552433131353552656365697665722072656a6563746560008201527f6420746f6b656e73000000000000000000000000000000000000000000000000602082015250565b7f4d61782035204c6974654e6f646573207065722077616c6c6574000000000000600082015250565b7f41646472657373206e6f7420656c696769626c65202d20496e76616c6964206d60008201527f65726b6c652070726f6f66000000000000000000000000000000000000000000602082015250565b7f4f776e61626c653a206e6577206f776e657220697320746865207a65726f206160008201527f6464726573730000000000000000000000000000000000000000000000000000602082015250565b7f46756c6c206e6f646520636f756e742063616e6e6f74206265207a65726f0000600082015250565b7f455243313135353a206275726e20616d6f756e7420657863656564732062616c60008201527f616e636500000000000000000000000000000000000000000000000000000000602082015250565b7f57686974656c6973742073616c65206e6f742061637469766500000000000000600082015250565b7f455243313135353a2061646472657373207a65726f206973206e6f742061207660008201527f616c6964206f776e657200000000000000000000000000000000000000000000602082015250565b7f496e73756666696369656e742062616c616e6365000000000000000000000000600082015250565b7f4d617820312046756c6c4e6f64652c2035204c6974654e6f646573207065722060008201527f77616c6c65740000000000000000000000000000000000000000000000000000602082015250565b7f455243313135353a207472616e7366657220746f20746865207a65726f20616460008201527f6472657373000000000000000000000000000000000000000000000000000000602082015250565b7f4c697465206e6f646520636f756e742063616e6e6f74206265207a65726f0000600082015250565b7f455243313135353a206275726e2066726f6d20746865207a65726f206164647260008201527f6573730000000000000000000000000000000000000000000000000000000000602082015250565b7f455243313135353a20696e73756666696369656e742062616c616e636520666f60008201527f72207472616e7366657200000000000000000000000000000000000000000000602082015250565b7f4f776e61626c653a2063616c6c6572206973206e6f7420746865206f776e6572600082015250565b7f45786365656473206d61782035204c697465204e6f6465206c696d697420706560008201527f7220616464726573730000000000000000000000000000000000000000000000602082015250565b7f45786365656473206d617820312046756c6c204e6f6465206c696d697420706560008201527f7220616464726573730000000000000000000000000000000000000000000000602082015250565b7f455243313135353a2073657474696e6720617070726f76616c2073746174757360008201527f20666f722073656c660000000000000000000000000000000000000000000000602082015250565b7f455243313135353a206163636f756e747320616e6420696473206c656e67746860008201527f206d69736d617463680000000000000000000000000000000000000000000000602082015250565b7f507572636861736520776f756c6420657863656564206d6178204c697465204e60008201527f6f646520737570706c7900000000000000000000000000000000000000000000602082015250565b7f455243313135353a2069647320616e6420616d6f756e7473206c656e6774682060008201527f6d69736d61746368000000000000000000000000000000000000000000000000602082015250565b7f455243313135353a206d696e7420746f20746865207a65726f2061646472657360008201527f7300000000000000000000000000000000000000000000000000000000000000602082015250565b7f5265656e7472616e637947756172643a207265656e7472616e742063616c6c00600082015250565b7f507572636861736520776f756c6420657863656564206d61782046756c6c204e60008201527f6f646520737570706c7900000000000000000000000000000000000000000000602082015250565b600060443d101561589a5761591d565b6158a2614d2d565b60043d036004823e80513d602482011167ffffffffffffffff821117156158ca57505061591d565b808201805167ffffffffffffffff8111156158e8575050505061591d565b80602083010160043d03850181111561590557505050505061591d565b61591482602001850186615016565b82955050505050505b90565b61592981614f12565b811461593457600080fd5b50565b61594081614f24565b811461594b57600080fd5b50565b61595781614f30565b811461596257600080fd5b50565b61596e81614f3a565b811461597957600080fd5b50565b61598581614f66565b811461599057600080fd5b50565b61599c81614f98565b81146159a757600080fd5b5056fea264697066735822122088b57bf07a42ea1575b0ab3fa16d016d2aaceb46f4bc2285c3c81aaa490f9ef564736f6c63430008040033",
  "linkReferences": {},
  "deployedLinkReferences": {}
}