{
  "_format": "hh-sol-artifact-1",
  "contractName": "SafuuX",
  "sourceName": "contracts/SafuuX.sol",
  "abi": [
    {
      "inputs": [
        {
          "internalType": "string",
          "name": "name_",
          "type": "string"
        },
        {
          "internalType": "string",
          "name": "symbol_",
          "type": "string"
        },
        {
          "internalType": "address",
          "name": "safuuTokenAddress_",
          "type": "address"
        },
        {
          "internalType": "bytes32",
          "name": "goldListMerkleRoot_",
          "type": "bytes32"
        },
        {
          "internalType": "bytes32",
          "name": "whiteListMerkleRoot_",
          "type": "bytes32"
        }
      ],
      "stateMutability": "nonpayable",
      "type": "constructor"
    },
    {
      "anonymous": false,
      "inputs": [
        {
          "indexed": true,
          "internalType": "address",
          "name": "account",
          "type": "address"
        },
        {
          "indexed": true,
          "internalType": "address",
          "name": "operator",
          "type": "address"
        },
        {
          "indexed": false,
          "internalType": "bool",
          "name": "approved",
          "type": "bool"
        }
      ],
      "name": "ApprovalForAll",
      "type": "event"
    },
    {
      "anonymous": false,
      "inputs": [
        {
          "indexed": true,
          "internalType": "address",
          "name": "previousOwner",
          "type": "address"
        },
        {
          "indexed": true,
          "internalType": "address",
          "name": "newOwner",
          "type": "address"
        }
      ],
      "name": "OwnershipTransferred",
      "type": "event"
    },
    {
      "anonymous": false,
      "inputs": [
        {
          "indexed": true,
          "internalType": "address",
          "name": "operator",
          "type": "address"
        },
        {
          "indexed": true,
          "internalType": "address",
          "name": "from",
          "type": "address"
        },
        {
          "indexed": true,
          "internalType": "address",
          "name": "to",
          "type": "address"
        },
        {
          "indexed": false,
          "internalType": "uint256[]",
          "name": "ids",
          "type": "uint256[]"
        },
        {
          "indexed": false,
          "internalType": "uint256[]",
          "name": "values",
          "type": "uint256[]"
        }
      ],
      "name": "TransferBatch",
      "type": "event"
    },
    {
      "anonymous": false,
      "inputs": [
        {
          "indexed": true,
          "internalType": "address",
          "name": "operator",
          "type": "address"
        },
        {
          "indexed": true,
          "internalType": "address",
          "name": "from",
          "type": "address"
        },
        {
          "indexed": true,
          "internalType": "address",
          "name": "to",
          "type": "address"
        },
        {
          "indexed": false,
          "internalType": "uint256",
          "name": "id",
          "type": "uint256"
        },
        {
          "indexed": false,
          "internalType": "uint256",
          "name": "value",
          "type": "uint256"
        }
      ],
      "name": "TransferSingle",
      "type": "event"
    },
    {
      "anonymous": false,
      "inputs": [
        {
          "indexed": false,
          "internalType": "string",
          "name": "value",
          "type": "string"
        },
        {
          "indexed": true,
          "internalType": "uint256",
          "name": "id",
          "type": "uint256"
        }
      ],
      "name": "URI",
      "type": "event"
    },
    {
      "inputs": [],
      "name": "FULL_NODE_COST",
      "outputs": [
        {
          "internalType": "uint256",
          "name": "",
          "type": "uint256"
        }
      ],
      "stateMutability": "view",
      "type": "function"
    },
    {
      "inputs": [],
      "name": "FULL_NODE_CURRENT_SUPPLY",
      "outputs": [
        {
          "internalType": "uint256",
          "name": "",
          "type": "uint256"
        }
      ],
      "stateMutability": "view",
      "type": "function"
    },
    {
      "inputs": [],
      "name": "FULL_NODE_LIMIT",
      "outputs": [
        {
          "internalType": "uint256",
          "name": "",
          "type": "uint256"
        }
      ],
      "stateMutability": "view",
      "type": "function"
    },
    {
      "inputs": [],
      "name": "LITE_NODE_COST",
      "outputs": [
        {
          "internalType": "uint256",
          "name": "",
          "type": "uint256"
        }
      ],
      "stateMutability": "view",
      "type": "function"
    },
    {
      "inputs": [],
      "name": "LITE_NODE_CURRENT_SUPPLY",
      "outputs": [
        {
          "internalType": "uint256",
          "name": "",
          "type": "uint256"
        }
      ],
      "stateMutability": "view",
      "type": "function"
    },
    {
      "inputs": [],
      "name": "LITE_NODE_LIMIT",
      "outputs": [
        {
          "internalType": "uint256",
          "name": "",
          "type": "uint256"
        }
      ],
      "stateMutability": "view",
      "type": "function"
    },
    {
      "inputs": [
        {
          "internalType": "address",
          "name": "",
          "type": "address"
        }
      ],
      "name": "_fullNodesClaimed",
      "outputs": [
        {
          "internalType": "uint256",
          "name": "",
          "type": "uint256"
        }
      ],
      "stateMutability": "view",
      "type": "function"
    },
    {
      "inputs": [],
      "name": "_goldListMerkleRoot",
      "outputs": [
        {
          "internalType": "bytes32",
          "name": "",
          "type": "bytes32"
        }
      ],
      "stateMutability": "view",
      "type": "function"
    },
    {
      "inputs": [],
      "name": "_isGoldListSaleActive",
      "outputs": [
        {
          "internalType": "bool",
          "name": "",
          "type": "bool"
        }
      ],
      "stateMutability": "view",
      "type": "function"
    },
    {
      "inputs": [],
      "name": "_isWhiteListSaleActive",
      "outputs": [
        {
          "internalType": "bool",
          "name": "",
          "type": "bool"
        }
      ],
      "stateMutability": "view",
      "type": "function"
    },
    {
      "inputs": [
        {
          "internalType": "address",
          "name": "",
          "type": "address"
        }
      ],
      "name": "_liteNodesClaimed",
      "outputs": [
        {
          "internalType": "uint256",
          "name": "",
          "type": "uint256"
        }
      ],
      "stateMutability": "view",
      "type": "function"
    },
    {
      "inputs": [],
      "name": "_name",
      "outputs": [
        {
          "internalType": "string",
          "name": "",
          "type": "string"
        }
      ],
      "stateMutability": "view",
      "type": "function"
    },
    {
      "inputs": [],
      "name": "_safuuTokenAddress",
      "outputs": [
        {
          "internalType": "address",
          "name": "",
          "type": "address"
        }
      ],
      "stateMutability": "view",
      "type": "function"
    },
    {
      "inputs": [],
      "name": "_symbol",
      "outputs": [
        {
          "internalType": "string",
          "name": "",
          "type": "string"
        }
      ],
      "stateMutability": "view",
      "type": "function"
    },
    {
      "inputs": [],
      "name": "_whiteListMerkleRoot",
      "outputs": [
        {
          "internalType": "bytes32",
          "name": "",
          "type": "bytes32"
        }
      ],
      "stateMutability": "view",
      "type": "function"
    },
    {
      "inputs": [
        {
          "internalType": "address",
          "name": "account",
          "type": "address"
        },
        {
          "internalType": "uint256",
          "name": "id",
          "type": "uint256"
        }
      ],
      "name": "balanceOf",
      "outputs": [
        {
          "internalType": "uint256",
          "name": "",
          "type": "uint256"
        }
      ],
      "stateMutability": "view",
      "type": "function"
    },
    {
      "inputs": [
        {
          "internalType": "address[]",
          "name": "accounts",
          "type": "address[]"
        },
        {
          "internalType": "uint256[]",
          "name": "ids",
          "type": "uint256[]"
        }
      ],
      "name": "balanceOfBatch",
      "outputs": [
        {
          "internalType": "uint256[]",
          "name": "",
          "type": "uint256[]"
        }
      ],
      "stateMutability": "view",
      "type": "function"
    },
    {
      "inputs": [
        {
          "internalType": "uint256",
          "name": "_id",
          "type": "uint256"
        },
        {
          "internalType": "uint256",
          "name": "_amount",
          "type": "uint256"
        }
      ],
      "name": "burn",
      "outputs": [],
      "stateMutability": "nonpayable",
      "type": "function"
    },
    {
      "inputs": [
        {
          "internalType": "uint256[]",
          "name": "_ids",
          "type": "uint256[]"
        },
        {
          "internalType": "uint256[]",
          "name": "_amounts",
          "type": "uint256[]"
        }
      ],
      "name": "burnBatch",
      "outputs": [],
      "stateMutability": "nonpayable",
      "type": "function"
    },
    {
      "inputs": [
        {
          "internalType": "address",
          "name": "walletAddress",
          "type": "address"
        },
        {
          "internalType": "bytes32[]",
          "name": "merkleProof",
          "type": "bytes32[]"
        }
      ],
      "name": "checkGoldListEligibility",
      "outputs": [
        {
          "internalType": "bool",
          "name": "",
          "type": "bool"
        }
      ],
      "stateMutability": "view",
      "type": "function"
    },
    {
      "inputs": [
        {
          "internalType": "address",
          "name": "walletAddress",
          "type": "address"
        },
        {
          "internalType": "bytes32[]",
          "name": "merkleProof",
          "type": "bytes32[]"
        }
      ],
      "name": "checkWhiteListEligibility",
      "outputs": [
        {
          "internalType": "bool",
          "name": "",
          "type": "bool"
        }
      ],
      "stateMutability": "view",
      "type": "function"
    },
    {
      "inputs": [
        {
          "internalType": "address",
          "name": "account",
          "type": "address"
        },
        {
          "internalType": "address",
          "name": "operator",
          "type": "address"
        }
      ],
      "name": "isApprovedForAll",
      "outputs": [
        {
          "internalType": "bool",
          "name": "",
          "type": "bool"
        }
      ],
      "stateMutability": "view",
      "type": "function"
    },
    {
      "inputs": [
        {
          "internalType": "uint256",
          "name": "_fullNodeCount",
          "type": "uint256"
        },
        {
          "internalType": "bytes32[]",
          "name": "merkleProof",
          "type": "bytes32[]"
        }
      ],
      "name": "mintFullNode",
      "outputs": [],
      "stateMutability": "nonpayable",
      "type": "function"
    },
    {
      "inputs": [
        {
          "internalType": "uint256",
          "name": "_liteNodeCount",
          "type": "uint256"
        }
      ],
      "name": "mintLiteNode",
      "outputs": [],
      "stateMutability": "nonpayable",
      "type": "function"
    },
    {
      "inputs": [],
      "name": "name",
      "outputs": [
        {
          "internalType": "string",
          "name": "",
          "type": "string"
        }
      ],
      "stateMutability": "view",
      "type": "function"
    },
    {
      "inputs": [
        {
          "internalType": "address",
          "name": "",
          "type": "address"
        }
      ],
      "name": "nodesClaimed",
      "outputs": [
        {
          "internalType": "bool",
          "name": "",
          "type": "bool"
        }
      ],
      "stateMutability": "view",
      "type": "function"
    },
    {
      "inputs": [],
      "name": "owner",
      "outputs": [
        {
          "internalType": "address",
          "name": "",
          "type": "address"
        }
      ],
      "stateMutability": "view",
      "type": "function"
    },
    {
      "inputs": [],
      "name": "renounceOwnership",
      "outputs": [],
      "stateMutability": "nonpayable",
      "type": "function"
    },
    {
      "inputs": [
        {
          "internalType": "address",
          "name": "from",
          "type": "address"
        },
        {
          "internalType": "address",
          "name": "to",
          "type": "address"
        },
        {
          "internalType": "uint256[]",
          "name": "ids",
          "type": "uint256[]"
        },
        {
          "internalType": "uint256[]",
          "name": "amounts",
          "type": "uint256[]"
        },
        {
          "internalType": "bytes",
          "name": "data",
          "type": "bytes"
        }
      ],
      "name": "safeBatchTransferFrom",
      "outputs": [],
      "stateMutability": "nonpayable",
      "type": "function"
    },
    {
      "inputs": [
        {
          "internalType": "address",
          "name": "from",
          "type": "address"
        },
        {
          "internalType": "address",
          "name": "to",
          "type": "address"
        },
        {
          "internalType": "uint256",
          "name": "id",
          "type": "uint256"
        },
        {
          "internalType": "uint256",
          "name": "amount",
          "type": "uint256"
        },
        {
          "internalType": "bytes",
          "name": "data",
          "type": "bytes"
        }
      ],
      "name": "safeTransferFrom",
      "outputs": [],
      "stateMutability": "nonpayable",
      "type": "function"
    },
    {
      "inputs": [
        {
          "internalType": "address",
          "name": "operator",
          "type": "address"
        },
        {
          "internalType": "bool",
          "name": "approved",
          "type": "bool"
        }
      ],
      "name": "setApprovalForAll",
      "outputs": [],
      "stateMutability": "nonpayable",
      "type": "function"
    },
    {
      "inputs": [
        {
          "internalType": "uint256",
          "name": "cost",
          "type": "uint256"
        }
      ],
      "name": "setFullNodeCost",
      "outputs": [],
      "stateMutability": "nonpayable",
      "type": "function"
    },
    {
      "inputs": [
        {
          "internalType": "bytes32",
          "name": "_goldList",
          "type": "bytes32"
        }
      ],
      "name": "setGoldList",
      "outputs": [],
      "stateMutability": "nonpayable",
      "type": "function"
    },
    {
      "inputs": [
        {
          "internalType": "bool",
          "name": "_isActive",
          "type": "bool"
        }
      ],
      "name": "setGoldListSaleStatus",
      "outputs": [],
      "stateMutability": "nonpayable",
      "type": "function"
    },
    {
      "inputs": [
        {
          "internalType": "uint256",
          "name": "cost",
          "type": "uint256"
        }
      ],
      "name": "setLiteNodeCost",
      "outputs": [],
      "stateMutability": "nonpayable",
      "type": "function"
    },
    {
      "inputs": [
        {
          "internalType": "uint256",
          "name": "_id",
          "type": "uint256"
        },
        {
          "internalType": "string",
          "name": "_uri",
          "type": "string"
        }
      ],
      "name": "setURI",
      "outputs": [],
      "stateMutability": "nonpayable",
      "type": "function"
    },
    {
      "inputs": [
        {
          "internalType": "bool",
          "name": "_isActive",
          "type": "bool"
        }
      ],
      "name": "setWhiteListSaleStatus",
      "outputs": [],
      "stateMutability": "nonpayable",
      "type": "function"
    },
    {
      "inputs": [
        {
          "internalType": "bytes32",
          "name": "_whitelist",
          "type": "bytes32"
        }
      ],
      "name": "setWhitelist",
      "outputs": [],
      "stateMutability": "nonpayable",
      "type": "function"
    },
    {
      "inputs": [
        {
          "internalType": "bytes4",
          "name": "interfaceId",
          "type": "bytes4"
        }
      ],
      "name": "supportsInterface",
      "outputs": [
        {
          "internalType": "bool",
          "name": "",
          "type": "bool"
        }
      ],
      "stateMutability": "view",
      "type": "function"
    },
    {
      "inputs": [],
      "name": "symbol",
      "outputs": [
        {
          "internalType": "string",
          "name": "",
          "type": "string"
        }
      ],
      "stateMutability": "view",
      "type": "function"
    },
    {
      "inputs": [
        {
          "internalType": "uint256",
          "name": "",
          "type": "uint256"
        }
      ],
      "name": "tokenURI",
      "outputs": [
        {
          "internalType": "string",
          "name": "",
          "type": "string"
        }
      ],
      "stateMutability": "view",
      "type": "function"
    },
    {
      "inputs": [
        {
          "internalType": "address",
          "name": "newOwner",
          "type": "address"
        }
      ],
      "name": "transferOwnership",
      "outputs": [],
      "stateMutability": "nonpayable",
      "type": "function"
    },
    {
      "inputs": [
        {
          "internalType": "uint256",
          "name": "_id",
          "type": "uint256"
        }
      ],
      "name": "uri",
      "outputs": [
        {
          "internalType": "string",
          "name": "",
          "type": "string"
        }
      ],
      "stateMutability": "view",
      "type": "function"
    },
    {
      "inputs": [],
      "name": "withdrawFunds",
      "outputs": [],
      "stateMutability": "nonpayable",
      "type": "function"
    },
    {
      "inputs": [
        {
          "internalType": "contract IERC20",
          "name": "tokenContract",
          "type": "address"
        },
        {
          "internalType": "address",
          "name": "to",
          "type": "address"
        }
      ],
      "name": "withdrawTokens",
      "outputs": [],
      "stateMutability": "nonpayable",
      "type": "function"
    }
  ],
  "bytecode": "0x60806040526000600760006101000a81548160ff0219169083151502179055506000600760016101000a81548160ff0219169083151502179055506032600b556101f4600c556101f4600d556105dc600e553480156200005e57600080fd5b5060405162006a3538038062006a3583398181016040528101906200008491906200091a565b60405180602001604052806000815250620000a581620001af60201b60201c565b506001600381905550620000ce620000c2620001cb60201b60201c565b620001d360201b60201c565b8460059080519060200190620000e692919062000787565b508360069080519060200190620000ff92919062000787565b5082600a60006101000a81548173ffffffffffffffffffffffffffffffffffffffff021916908373ffffffffffffffffffffffffffffffffffffffff16021790555081600881905550806009819055506005600f600082825462000164919062000c99565b92505081905550620001a473a9c6d0cc785569b450393a69599e97faed5d9dd960016005604051806020016040528060008152506200029960201b60201c565b5050505050620010b9565b8060029080519060200190620001c792919062000787565b5050565b600033905090565b6000600460009054906101000a900473ffffffffffffffffffffffffffffffffffffffff16905081600460006101000a81548173ffffffffffffffffffffffffffffffffffffffff021916908373ffffffffffffffffffffffffffffffffffffffff1602179055508173ffffffffffffffffffffffffffffffffffffffff168173ffffffffffffffffffffffffffffffffffffffff167f8be0079c531659141344cd1fd0a4f28419497f9722a3daafe3b4186f6b6457e060405160405180910390a35050565b600073ffffffffffffffffffffffffffffffffffffffff168473ffffffffffffffffffffffffffffffffffffffff1614156200030c576040517f08c379a0000000000000000000000000000000000000000000000000000000008152600401620003039062000bb3565b60405180910390fd5b60006200031e620001cb60201b60201c565b9050600062000333856200048160201b60201c565b9050600062000348856200048160201b60201c565b905062000361836000898585896200054a60201b60201c565b8460008088815260200190815260200160002060008973ffffffffffffffffffffffffffffffffffffffff1673ffffffffffffffffffffffffffffffffffffffff1681526020019081526020016000206000828254620003c2919062000c99565b925050819055508673ffffffffffffffffffffffffffffffffffffffff16600073ffffffffffffffffffffffffffffffffffffffff168473ffffffffffffffffffffffffffffffffffffffff167fc3d58168c5ae7397731d063d5bbf3d657854427343f4c083240f7aacaa2d0f6289896040516200044292919062000bd5565b60405180910390a462000461836000898585896200055260201b60201c565b62000478836000898989896200055a60201b60201c565b50505050505050565b60606000600167ffffffffffffffff811115620004c7577f4e487b7100000000000000000000000000000000000000000000000000000000600052604160045260246000fd5b604051908082528060200260200182016040528015620004f65781602001602082028036833780820191505090505b509050828160008151811062000535577f4e487b7100000000000000000000000000000000000000000000000000000000600052603260045260246000fd5b60200260200101818152505080915050919050565b505050505050565b505050505050565b620005868473ffffffffffffffffffffffffffffffffffffffff166200076460201b6200191e1760201c565b156200075c578373ffffffffffffffffffffffffffffffffffffffff1663f23a6e6187878686866040518663ffffffff1660e01b8152600401620005cf95949392919062000ae7565b602060405180830381600087803b158015620005ea57600080fd5b505af19250505080156200061e57506040513d601f19601f820116820180604052508101906200061b9190620008ee565b60015b620006d0576200062d62000e99565b806308c379a014156200069157506200064562000fc9565b8062000652575062000693565b806040517f08c379a000000000000000000000000000000000000000000000000000000000815260040162000688919062000b4b565b60405180910390fd5b505b6040517f08c379a0000000000000000000000000000000000000000000000000000000008152600401620006c79062000b6f565b60405180910390fd5b63f23a6e6160e01b7bffffffffffffffffffffffffffffffffffffffffffffffffffffffff1916817bffffffffffffffffffffffffffffffffffffffffffffffffffffffff1916146200075a576040517f08c379a0000000000000000000000000000000000000000000000000000000008152600401620007519062000b91565b60405180910390fd5b505b505050505050565b6000808273ffffffffffffffffffffffffffffffffffffffff163b119050919050565b828054620007959062000da0565b90600052602060002090601f016020900481019282620007b9576000855562000805565b82601f10620007d457805160ff191683800117855562000805565b8280016001018555821562000805579182015b8281111562000804578251825591602001919060010190620007e7565b5b50905062000814919062000818565b5090565b5b808211156200083357600081600090555060010162000819565b5090565b60006200084e620008488462000c2b565b62000c02565b9050828152602081018484840111156200086757600080fd5b6200087484828562000d6a565b509392505050565b6000815190506200088d816200106b565b92915050565b600081519050620008a48162001085565b92915050565b600081519050620008bb816200109f565b92915050565b600082601f830112620008d357600080fd5b8151620008e584826020860162000837565b91505092915050565b6000602082840312156200090157600080fd5b60006200091184828501620008aa565b91505092915050565b600080600080600060a086880312156200093357600080fd5b600086015167ffffffffffffffff8111156200094e57600080fd5b6200095c88828901620008c1565b955050602086015167ffffffffffffffff8111156200097a57600080fd5b6200098888828901620008c1565b94505060406200099b888289016200087c565b9350506060620009ae8882890162000893565b9250506080620009c18882890162000893565b9150509295509295909350565b620009d98162000cf6565b82525050565b6000620009ec8262000c61565b620009f8818562000c77565b935062000a0a81856020860162000d6a565b62000a158162000ebe565b840191505092915050565b600062000a2d8262000c6c565b62000a39818562000c88565b935062000a4b81856020860162000d6a565b62000a568162000ebe565b840191505092915050565b600062000a7060348362000c88565b915062000a7d8262000edc565b604082019050919050565b600062000a9760288362000c88565b915062000aa48262000f2b565b604082019050919050565b600062000abe60218362000c88565b915062000acb8262000f7a565b604082019050919050565b62000ae18162000d60565b82525050565b600060a08201905062000afe6000830188620009ce565b62000b0d6020830187620009ce565b62000b1c604083018662000ad6565b62000b2b606083018562000ad6565b818103608083015262000b3f8184620009df565b90509695505050505050565b6000602082019050818103600083015262000b67818462000a20565b905092915050565b6000602082019050818103600083015262000b8a8162000a61565b9050919050565b6000602082019050818103600083015262000bac8162000a88565b9050919050565b6000602082019050818103600083015262000bce8162000aaf565b9050919050565b600060408201905062000bec600083018562000ad6565b62000bfb602083018462000ad6565b9392505050565b600062000c0e62000c21565b905062000c1c828262000dd6565b919050565b6000604051905090565b600067ffffffffffffffff82111562000c495762000c4862000e6a565b5b62000c548262000ebe565b9050602081019050919050565b600081519050919050565b600081519050919050565b600082825260208201905092915050565b600082825260208201905092915050565b600062000ca68262000d60565b915062000cb38362000d60565b9250827fffffffffffffffffffffffffffffffffffffffffffffffffffffffffffffffff0382111562000ceb5762000cea62000e0c565b5b828201905092915050565b600062000d038262000d40565b9050919050565b6000819050919050565b60007fffffffff0000000000000000000000000000000000000000000000000000000082169050919050565b600073ffffffffffffffffffffffffffffffffffffffff82169050919050565b6000819050919050565b60005b8381101562000d8a57808201518184015260208101905062000d6d565b8381111562000d9a576000848401525b50505050565b6000600282049050600182168062000db957607f821691505b6020821081141562000dd05762000dcf62000e3b565b5b50919050565b62000de18262000ebe565b810181811067ffffffffffffffff8211171562000e035762000e0262000e6a565b5b80604052505050565b7f4e487b7100000000000000000000000000000000000000000000000000000000600052601160045260246000fd5b7f4e487b7100000000000000000000000000000000000000000000000000000000600052602260045260246000fd5b7f4e487b7100000000000000000000000000000000000000000000000000000000600052604160045260246000fd5b600060033d111562000ebb5760046000803e62000eb860005162000ecf565b90505b90565b6000601f19601f8301169050919050565b60008160e01c9050919050565b7f455243313135353a207472616e7366657220746f206e6f6e204552433131353560008201527f526563656976657220696d706c656d656e746572000000000000000000000000602082015250565b7f455243313135353a204552433131353552656365697665722072656a6563746560008201527f6420746f6b656e73000000000000000000000000000000000000000000000000602082015250565b7f455243313135353a206d696e7420746f20746865207a65726f2061646472657360008201527f7300000000000000000000000000000000000000000000000000000000000000602082015250565b600060443d101562000fdb5762001068565b62000fe562000c21565b60043d036004823e80513d602482011167ffffffffffffffff821117156200100f57505062001068565b808201805167ffffffffffffffff8111156200102f575050505062001068565b80602083010160043d0385018111156200104e57505050505062001068565b6200105f8260200185018662000dd6565b82955050505050505b90565b620010768162000cf6565b81146200108257600080fd5b50565b620010908162000d0a565b81146200109c57600080fd5b50565b620010aa8162000d14565b8114620010b657600080fd5b50565b61596c80620010c96000396000f3fe608060405234801561001057600080fd5b506004361061027e5760003560e01c80638edeb5281161015c578063c9b3ed07116100ce578063ec75c2ec11610087578063ec75c2ec1461079b578063f11207d8146107b7578063f242432a146107d5578063f2fde38b146107f1578063f32ccefc1461080d578063f48ef7b3146108295761027e565b8063c9b3ed07146106c9578063d28d8852146106e5578063d55690cc14610703578063df714a231461071f578063e0d0b1b01461074f578063e985e9c51461076b5761027e565b8063aacffcd111610120578063aacffcd1146105f3578063b09f126614610611578063b286d8461461062f578063b390c0ab1461065f578063b39d80cb1461067b578063c87b56dd146106995761027e565b80638edeb5281461056357806395d89b411461057f5780639f4e86121461059d578063a22cb465146105bb578063a522ad25146105d75761027e565b8063366fc60d116101f55780634e1273f4116101b95780634e1273f4146104b55780635ce92989146104e5578063715018a61461050357806383ca4b6f1461050d578063862440e2146105295780638da5cb5b146105455761027e565b8063366fc60d146103ff5780633ea514911461042f57806341c30f791461044d578063440bc7f31461047d5780634d0ac59a146104995761027e565b80631689519011610247578063168951901461034f57806324600fc31461036d5780632482751c146103775780632eb2c2d6146103a75780632fa5b0cb146103c357806330b9ff72146103e15761027e565b8062fdd58e1461028357806301ffc9a7146102b3578063041fa44e146102e357806306fdde03146103015780630e89341c1461031f575b600080fd5b61029d60048036038101906102989190613ee2565b610847565b6040516102aa9190614c5a565b60405180910390f35b6102cd60048036038101906102c89190614071565b610910565b6040516102da91906148c2565b60405180910390f35b6102eb6109f2565b6040516102f891906148dd565b60405180910390f35b6103096109f8565b60405161031691906148f8565b60405180910390f35b610339600480360381019061033491906140ff565b610a8a565b60405161034691906148f8565b60405180910390f35b610357610b2f565b60405161036491906148c2565b60405180910390f35b610375610b42565b005b610391600480360381019061038c9190613e4e565b610b93565b60405161039e91906148c2565b60405180910390f35b6103c160048036038101906103bc9190613d00565b610bdd565b005b6103cb610c7e565b6040516103d89190614c5a565b60405180910390f35b6103e9610c84565b6040516103f69190614c5a565b60405180910390f35b61041960048036038101906104149190613c9b565b610c8a565b6040516104269190614c5a565b60405180910390f35b610437610ca2565b6040516104449190614c5a565b60405180910390f35b61046760048036038101906104629190613c9b565b610ca8565b6040516104749190614c5a565b60405180910390f35b61049760048036038101906104929190614048565b610cc0565b005b6104b360048036038101906104ae91906140ff565b610cd2565b005b6104cf60048036038101906104ca9190613f1e565b610e14565b6040516104dc9190614869565b60405180910390f35b6104ed610fc5565b6040516104fa9190614c5a565b60405180910390f35b61050b610fcb565b005b61052760048036038101906105229190613f8a565b610fdf565b005b610543600480360381019061053e91906141a9565b610fee565b005b61054d61105a565b60405161055a919061472c565b60405180910390f35b61057d600480360381019061057891906140ff565b611084565b005b610587611096565b60405161059491906148f8565b60405180910390f35b6105a5611128565b6040516105b2919061472c565b60405180910390f35b6105d560048036038101906105d09190613ea6565b61114e565b005b6105f160048036038101906105ec91906140c3565b611164565b005b6105fb611286565b6040516106089190614c5a565b60405180910390f35b61061961128c565b60405161062691906148f8565b60405180910390f35b61064960048036038101906106449190613c9b565b61131a565b60405161065691906148c2565b60405180910390f35b610679600480360381019061067491906141fd565b61133a565b005b610683611349565b60405161069091906148dd565b60405180910390f35b6106b360048036038101906106ae91906140ff565b61134f565b6040516106c091906148f8565b60405180910390f35b6106e360048036038101906106de9190614151565b6113ef565b005b6106ed6115d0565b6040516106fa91906148f8565b60405180910390f35b61071d60048036038101906107189190613ff6565b61165e565b005b61073960048036038101906107349190613e4e565b61169e565b60405161074691906148c2565b60405180910390f35b610769600480360381019061076491906140ff565b6116e8565b005b61078560048036038101906107809190613cc4565b6116fa565b60405161079291906148c2565b60405180910390f35b6107b560048036038101906107b09190613ff6565b61178e565b005b6107bf6117ce565b6040516107cc91906148c2565b60405180910390f35b6107ef60048036038101906107ea9190613dbf565b6117e1565b005b61080b60048036038101906108069190613c9b565b611882565b005b61082760048036038101906108229190614048565b611906565b005b610831611918565b60405161083e9190614c5a565b60405180910390f35b60008073ffffffffffffffffffffffffffffffffffffffff168373ffffffffffffffffffffffffffffffffffffffff1614156108b8576040517f08c379a00000000000000000000000000000000000000000000000000000000081526004016108af90614a3a565b60405180910390fd5b60008083815260200190815260200160002060008473ffffffffffffffffffffffffffffffffffffffff1673ffffffffffffffffffffffffffffffffffffffff16815260200190815260200160002054905092915050565b60007fd9b67a26000000000000000000000000000000000000000000000000000000007bffffffffffffffffffffffffffffffffffffffffffffffffffffffff1916827bffffffffffffffffffffffffffffffffffffffffffffffffffffffff191614806109db57507f0e89341c000000000000000000000000000000000000000000000000000000007bffffffffffffffffffffffffffffffffffffffffffffffffffffffff1916827bffffffffffffffffffffffffffffffffffffffffffffffffffffffff1916145b806109eb57506109ea82611941565b5b9050919050565b60095481565b606060058054610a0790614f70565b80601f0160208091040260200160405190810160405280929190818152602001828054610a3390614f70565b8015610a805780601f10610a5557610100808354040283529160200191610a80565b820191906000526020600020905b815481529060010190602001808311610a6357829003601f168201915b5050505050905090565b6060601160008381526020019081526020016000208054610aaa90614f70565b80601f0160208091040260200160405190810160405280929190818152602001828054610ad690614f70565b8015610b235780601f10610af857610100808354040283529160200191610b23565b820191906000526020600020905b815481529060010190602001808311610b0657829003601f168201915b50505050509050919050565b600760009054906101000a900460ff1681565b610b4a6119ab565b3373ffffffffffffffffffffffffffffffffffffffff166108fc479081150290604051600060405180830381858888f19350505050158015610b90573d6000803e3d6000fd5b50565b60008084604051602001610ba79190614711565b6040516020818303038152906040528051906020012090506000610bcf600954868685611a29565b905080925050509392505050565b610be5611a81565b73ffffffffffffffffffffffffffffffffffffffff168573ffffffffffffffffffffffffffffffffffffffff161480610c2b5750610c2a85610c25611a81565b6116fa565b5b610c6a576040517f08c379a0000000000000000000000000000000000000000000000000000000008152600401610c619061493a565b60405180910390fd5b610c778585858585611a89565b5050505050565b600e5481565b600d5481565b60146020528060005260406000206000915090505481565b600b5481565b60136020528060005260406000206000915090505481565b610cc86119ab565b8060098190555050565b60026003541415610d18576040517f08c379a0000000000000000000000000000000000000000000000000000000008152600401610d0f90614c1a565b60405180910390fd5b600260038190555060001515601260003373ffffffffffffffffffffffffffffffffffffffff1673ffffffffffffffffffffffffffffffffffffffff16815260200190815260200160002060009054906101000a900460ff16151514610db3576040517f08c379a0000000000000000000000000000000000000000000000000000000008152600401610daa9061497a565b60405180910390fd5b60008111610df6576040517f08c379a0000000000000000000000000000000000000000000000000000000008152600401610ded90614aba565b60405180910390fd5b6000811115610e0957610e0881611df7565b5b600160038190555050565b60608151835114610e5a576040517f08c379a0000000000000000000000000000000000000000000000000000000008152600401610e5190614b9a565b60405180910390fd5b6000835167ffffffffffffffff811115610e9d577f4e487b7100000000000000000000000000000000000000000000000000000000600052604160045260246000fd5b604051908082528060200260200182016040528015610ecb5781602001602082028036833780820191505090505b50905060005b8451811015610fba57610f64858281518110610f16577f4e487b7100000000000000000000000000000000000000000000000000000000600052603260045260246000fd5b6020026020010151858381518110610f57577f4e487b7100000000000000000000000000000000000000000000000000000000600052603260045260246000fd5b6020026020010151610847565b828281518110610f9d577f4e487b7100000000000000000000000000000000000000000000000000000000600052603260045260246000fd5b60200260200101818152505080610fb390614fd3565b9050610ed1565b508091505092915050565b60105481565b610fd36119ab565b610fdd60006122dc565b565b610fea3383836123a2565b5050565b610ff66119ab565b8060116000848152602001908152602001600020908051906020019061101d9291906138f5565b50817f6bb7ff708619ba0610cba295a58592e0451dee2622938c8755667688daf3529b8260405161104e91906148f8565b60405180910390a25050565b6000600460009054906101000a900473ffffffffffffffffffffffffffffffffffffffff16905090565b61108c6119ab565b80600c8190555050565b6060600680546110a590614f70565b80601f01602080910402602001604051908101604052809291908181526020018280546110d190614f70565b801561111e5780601f106110f35761010080835404028352916020019161111e565b820191906000526020600020905b81548152906001019060200180831161110157829003601f168201915b5050505050905090565b600a60009054906101000a900473ffffffffffffffffffffffffffffffffffffffff1681565b611160611159611a81565b83836126bd565b5050565b61116c6119ab565b8173ffffffffffffffffffffffffffffffffffffffff1663a9059cbb828473ffffffffffffffffffffffffffffffffffffffff166370a08231306040518263ffffffff1660e01b81526004016111c2919061472c565b60206040518083038186803b1580156111da57600080fd5b505afa1580156111ee573d6000803e3d6000fd5b505050506040513d601f19601f820116820180604052508101906112129190614128565b6040518363ffffffff1660e01b815260040161122f929190614840565b602060405180830381600087803b15801561124957600080fd5b505af115801561125d573d6000803e3d6000fd5b505050506040513d601f19601f82011682018060405250810190611281919061401f565b505050565b600c5481565b6006805461129990614f70565b80601f01602080910402602001604051908101604052809291908181526020018280546112c590614f70565b80156113125780601f106112e757610100808354040283529160200191611312565b820191906000526020600020905b8154815290600101906020018083116112f557829003601f168201915b505050505081565b60126020528060005260406000206000915054906101000a900460ff1681565b61134533838361282a565b5050565b60085481565b6011602052806000526040600020600091509050805461136e90614f70565b80601f016020809104026020016040519081016040528092919081815260200182805461139a90614f70565b80156113e75780601f106113bc576101008083540402835291602001916113e7565b820191906000526020600020905b8154815290600101906020018083116113ca57829003601f168201915b505050505081565b60026003541415611435576040517f08c379a000000000000000000000000000000000000000000000000000000000815260040161142c90614c1a565b60405180910390fd5b600260038190555060011515600760009054906101000a900460ff1615151480611472575060011515600760019054906101000a900460ff161515145b6114b1576040517f08c379a00000000000000000000000000000000000000000000000000000000081526004016114a890614a1a565b60405180910390fd5b60001515601260003373ffffffffffffffffffffffffffffffffffffffff1673ffffffffffffffffffffffffffffffffffffffff16815260200190815260200160002060009054906101000a900460ff16151514611544576040517f08c379a000000000000000000000000000000000000000000000000000000000815260040161153b90614a7a565b60405180910390fd5b60008311611587576040517f08c379a000000000000000000000000000000000000000000000000000000000815260040161157e906149da565b60405180910390fd5b60008311156115c3576115c28360011515600760019054906101000a900460ff161515146115b7576008546115bb565b6009545b8484612a71565b5b6001600381905550505050565b600580546115dd90614f70565b80601f016020809104026020016040519081016040528092919081815260200182805461160990614f70565b80156116565780601f1061162b57610100808354040283529160200191611656565b820191906000526020600020905b81548152906001019060200180831161163957829003601f168201915b505050505081565b6116666119ab565b6000600760006101000a81548160ff02191690831515021790555080600760016101000a81548160ff02191690831515021790555050565b600080846040516020016116b29190614711565b60405160208183030381529060405280519060200120905060006116da600854868685611a29565b905080925050509392505050565b6116f06119ab565b80600b8190555050565b6000600160008473ffffffffffffffffffffffffffffffffffffffff1673ffffffffffffffffffffffffffffffffffffffff16815260200190815260200160002060008373ffffffffffffffffffffffffffffffffffffffff1673ffffffffffffffffffffffffffffffffffffffff16815260200190815260200160002060009054906101000a900460ff16905092915050565b6117966119ab565b6000600760016101000a81548160ff02191690831515021790555080600760006101000a81548160ff02191690831515021790555050565b600760019054906101000a900460ff1681565b6117e9611a81565b73ffffffffffffffffffffffffffffffffffffffff168573ffffffffffffffffffffffffffffffffffffffff16148061182f575061182e85611829611a81565b6116fa565b5b61186e576040517f08c379a00000000000000000000000000000000000000000000000000000000081526004016118659061493a565b60405180910390fd5b61187b8585858585612f2f565b5050505050565b61188a6119ab565b600073ffffffffffffffffffffffffffffffffffffffff168173ffffffffffffffffffffffffffffffffffffffff1614156118fa576040517f08c379a00000000000000000000000000000000000000000000000000000000081526004016118f1906149ba565b60405180910390fd5b611903816122dc565b50565b61190e6119ab565b8060088190555050565b600f5481565b6000808273ffffffffffffffffffffffffffffffffffffffff163b119050919050565b60007f01ffc9a7000000000000000000000000000000000000000000000000000000007bffffffffffffffffffffffffffffffffffffffffffffffffffffffff1916827bffffffffffffffffffffffffffffffffffffffffffffffffffffffff1916149050919050565b6119b3611a81565b73ffffffffffffffffffffffffffffffffffffffff166119d161105a565b73ffffffffffffffffffffffffffffffffffffffff1614611a27576040517f08c379a0000000000000000000000000000000000000000000000000000000008152600401611a1e90614b1a565b60405180910390fd5b565b6000611a77848480806020026020016040519081016040528093929190818152602001838360200280828437600081840152601f19601f8201169050808301925050505050505086846131cb565b9050949350505050565b600033905090565b8151835114611acd576040517f08c379a0000000000000000000000000000000000000000000000000000000008152600401611ac490614bda565b60405180910390fd5b600073ffffffffffffffffffffffffffffffffffffffff168473ffffffffffffffffffffffffffffffffffffffff161415611b3d576040517f08c379a0000000000000000000000000000000000000000000000000000000008152600401611b3490614a9a565b60405180910390fd5b6000611b47611a81565b9050611b578187878787876131e2565b60005b8451811015611d54576000858281518110611b9e577f4e487b7100000000000000000000000000000000000000000000000000000000600052603260045260246000fd5b602002602001015190506000858381518110611be3577f4e487b7100000000000000000000000000000000000000000000000000000000600052603260045260246000fd5b60200260200101519050600080600084815260200190815260200160002060008b73ffffffffffffffffffffffffffffffffffffffff1673ffffffffffffffffffffffffffffffffffffffff16815260200190815260200160002054905081811015611c84576040517f08c379a0000000000000000000000000000000000000000000000000000000008152600401611c7b90614afa565b60405180910390fd5b81810360008085815260200190815260200160002060008c73ffffffffffffffffffffffffffffffffffffffff1673ffffffffffffffffffffffffffffffffffffffff168152602001908152602001600020819055508160008085815260200190815260200160002060008b73ffffffffffffffffffffffffffffffffffffffff1673ffffffffffffffffffffffffffffffffffffffff1681526020019081526020016000206000828254611d399190614dee565b9250508190555050505080611d4d90614fd3565b9050611b5a565b508473ffffffffffffffffffffffffffffffffffffffff168673ffffffffffffffffffffffffffffffffffffffff168273ffffffffffffffffffffffffffffffffffffffff167f4a39dc06d4c0dbc64b70af90fd698a233a518aa5d07e595d983b8c0526c8f7fb8787604051611dcb92919061488b565b60405180910390a4611de18187878787876131ea565b611def8187878787876131f2565b505050505050565b80600681601460003373ffffffffffffffffffffffffffffffffffffffff1673ffffffffffffffffffffffffffffffffffffffff16815260200190815260200160002054611e459190614dee565b10611e85576040517f08c379a0000000000000000000000000000000000000000000000000000000008152600401611e7c90614b3a565b60405180910390fd5b600e5481601054611e969190614dee565b1115611ed7576040517f08c379a0000000000000000000000000000000000000000000000000000000008152600401611ece90614bba565b60405180910390fd5b60001515601260003373ffffffffffffffffffffffffffffffffffffffff1673ffffffffffffffffffffffffffffffffffffffff16815260200190815260200160002060009054906101000a900460ff16151514611f6a576040517f08c379a0000000000000000000000000000000000000000000000000000000008152600401611f6190614a7a565b60405180910390fd5b80600b54611f789190614e44565b600a60009054906101000a900473ffffffffffffffffffffffffffffffffffffffff1673ffffffffffffffffffffffffffffffffffffffff166370a08231336040518263ffffffff1660e01b8152600401611fd3919061472c565b60206040518083038186803b158015611feb57600080fd5b505afa158015611fff573d6000803e3d6000fd5b505050506040513d601f19601f820116820180604052508101906120239190614128565b1015612064576040517f08c379a000000000000000000000000000000000000000000000000000000000815260040161205b90614a5a565b60405180910390fd5b816010546120729190614dee565b601081905550600582601460003373ffffffffffffffffffffffffffffffffffffffff1673ffffffffffffffffffffffffffffffffffffffff168152602001908152602001600020546120c59190614dee565b14801561211157506001601360003373ffffffffffffffffffffffffffffffffffffffff1673ffffffffffffffffffffffffffffffffffffffff16815260200190815260200160002054145b1561216f576001601260003373ffffffffffffffffffffffffffffffffffffffff1673ffffffffffffffffffffffffffffffffffffffff16815260200190815260200160002060006101000a81548160ff0219169083151502179055505b81601460003373ffffffffffffffffffffffffffffffffffffffff1673ffffffffffffffffffffffffffffffffffffffff168152602001908152602001600020546121ba9190614dee565b601460003373ffffffffffffffffffffffffffffffffffffffff1673ffffffffffffffffffffffffffffffffffffffff16815260200190815260200160002081905550600a60009054906101000a900473ffffffffffffffffffffffffffffffffffffffff1673ffffffffffffffffffffffffffffffffffffffff166323b872dd333085600b5461224b9190614e44565b6040518463ffffffff1660e01b8152600401612269939291906147af565b602060405180830381600087803b15801561228357600080fd5b505af1158015612297573d6000803e3d6000fd5b505050506040513d601f19601f820116820180604052508101906122bb919061401f565b506122d833600284604051806020016040528060008152506133d9565b5050565b6000600460009054906101000a900473ffffffffffffffffffffffffffffffffffffffff16905081600460006101000a81548173ffffffffffffffffffffffffffffffffffffffff021916908373ffffffffffffffffffffffffffffffffffffffff1602179055508173ffffffffffffffffffffffffffffffffffffffff168173ffffffffffffffffffffffffffffffffffffffff167f8be0079c531659141344cd1fd0a4f28419497f9722a3daafe3b4186f6b6457e060405160405180910390a35050565b600073ffffffffffffffffffffffffffffffffffffffff168373ffffffffffffffffffffffffffffffffffffffff161415612412576040517f08c379a000000000000000000000000000000000000000000000000000000000815260040161240990614ada565b60405180910390fd5b8051825114612456576040517f08c379a000000000000000000000000000000000000000000000000000000000815260040161244d90614bda565b60405180910390fd5b6000612460611a81565b9050612480818560008686604051806020016040528060008152506131e2565b60005b83518110156126195760008482815181106124c7577f4e487b7100000000000000000000000000000000000000000000000000000000600052603260045260246000fd5b60200260200101519050600084838151811061250c577f4e487b7100000000000000000000000000000000000000000000000000000000600052603260045260246000fd5b60200260200101519050600080600084815260200190815260200160002060008973ffffffffffffffffffffffffffffffffffffffff1673ffffffffffffffffffffffffffffffffffffffff168152602001908152602001600020549050818110156125ad576040517f08c379a00000000000000000000000000000000000000000000000000000000081526004016125a4906149fa565b60405180910390fd5b81810360008085815260200190815260200160002060008a73ffffffffffffffffffffffffffffffffffffffff1673ffffffffffffffffffffffffffffffffffffffff16815260200190815260200160002081905550505050808061261190614fd3565b915050612483565b50600073ffffffffffffffffffffffffffffffffffffffff168473ffffffffffffffffffffffffffffffffffffffff168273ffffffffffffffffffffffffffffffffffffffff167f4a39dc06d4c0dbc64b70af90fd698a233a518aa5d07e595d983b8c0526c8f7fb868660405161269192919061488b565b60405180910390a46126b7818560008686604051806020016040528060008152506131ea565b50505050565b8173ffffffffffffffffffffffffffffffffffffffff168373ffffffffffffffffffffffffffffffffffffffff16141561272c576040517f08c379a000000000000000000000000000000000000000000000000000000000815260040161272390614b7a565b60405180910390fd5b80600160008573ffffffffffffffffffffffffffffffffffffffff1673ffffffffffffffffffffffffffffffffffffffff16815260200190815260200160002060008473ffffffffffffffffffffffffffffffffffffffff1673ffffffffffffffffffffffffffffffffffffffff16815260200190815260200160002060006101000a81548160ff0219169083151502179055508173ffffffffffffffffffffffffffffffffffffffff168373ffffffffffffffffffffffffffffffffffffffff167f17307eab39ab6107e8899845ad3d59bd9653f200f220920489ca2b5937696c318360405161281d91906148c2565b60405180910390a3505050565b600073ffffffffffffffffffffffffffffffffffffffff168373ffffffffffffffffffffffffffffffffffffffff16141561289a576040517f08c379a000000000000000000000000000000000000000000000000000000000815260040161289190614ada565b60405180910390fd5b60006128a4611a81565b905060006128b18461358a565b905060006128be8461358a565b90506128de838760008585604051806020016040528060008152506131e2565b600080600087815260200190815260200160002060008873ffffffffffffffffffffffffffffffffffffffff1673ffffffffffffffffffffffffffffffffffffffff16815260200190815260200160002054905084811015612975576040517f08c379a000000000000000000000000000000000000000000000000000000000815260040161296c906149fa565b60405180910390fd5b84810360008088815260200190815260200160002060008973ffffffffffffffffffffffffffffffffffffffff1673ffffffffffffffffffffffffffffffffffffffff16815260200190815260200160002081905550600073ffffffffffffffffffffffffffffffffffffffff168773ffffffffffffffffffffffffffffffffffffffff168573ffffffffffffffffffffffffffffffffffffffff167fc3d58168c5ae7397731d063d5bbf3d657854427343f4c083240f7aacaa2d0f628989604051612a42929190614c75565b60405180910390a4612a68848860008686604051806020016040528060008152506131ea565b50505050505050565b83600281601360003373ffffffffffffffffffffffffffffffffffffffff1673ffffffffffffffffffffffffffffffffffffffff16815260200190815260200160002054612abf9190614dee565b10612aff576040517f08c379a0000000000000000000000000000000000000000000000000000000008152600401612af690614b5a565b60405180910390fd5b600d546001600f54612b119190614dee565b1115612b52576040517f08c379a0000000000000000000000000000000000000000000000000000000008152600401612b4990614c3a565b60405180910390fd5b600c54600a60009054906101000a900473ffffffffffffffffffffffffffffffffffffffff1673ffffffffffffffffffffffffffffffffffffffff166370a08231336040518263ffffffff1660e01b8152600401612bb0919061472c565b60206040518083038186803b158015612bc857600080fd5b505afa158015612bdc573d6000803e3d6000fd5b505050506040513d601f19601f82011682018060405250810190612c009190614128565b1015612c41576040517f08c379a0000000000000000000000000000000000000000000000000000000008152600401612c3890614a5a565b60405180910390fd5b600033604051602001612c549190614711565b60405160208183030381529060405280519060200120905060011515612c7c86868685611a29565b151514612cbe576040517f08c379a0000000000000000000000000000000000000000000000000000000008152600401612cb59061499a565b60405180910390fd5b85600f54612ccc9190614dee565b600f81905550600186601360003373ffffffffffffffffffffffffffffffffffffffff1673ffffffffffffffffffffffffffffffffffffffff16815260200190815260200160002054612d1f9190614dee565b148015612d6b57506005601460003373ffffffffffffffffffffffffffffffffffffffff1673ffffffffffffffffffffffffffffffffffffffff16815260200190815260200160002054145b15612dc9576001601260003373ffffffffffffffffffffffffffffffffffffffff1673ffffffffffffffffffffffffffffffffffffffff16815260200190815260200160002060006101000a81548160ff0219169083151502179055505b85601360003373ffffffffffffffffffffffffffffffffffffffff1673ffffffffffffffffffffffffffffffffffffffff16815260200190815260200160002054612e149190614dee565b601360003373ffffffffffffffffffffffffffffffffffffffff1673ffffffffffffffffffffffffffffffffffffffff16815260200190815260200160002081905550600a60009054906101000a900473ffffffffffffffffffffffffffffffffffffffff1673ffffffffffffffffffffffffffffffffffffffff166323b872dd3330600c546040518463ffffffff1660e01b8152600401612eb8939291906147af565b602060405180830381600087803b158015612ed257600080fd5b505af1158015612ee6573d6000803e3d6000fd5b505050506040513d601f19601f82011682018060405250810190612f0a919061401f565b50612f2733600188604051806020016040528060008152506133d9565b505050505050565b600073ffffffffffffffffffffffffffffffffffffffff168473ffffffffffffffffffffffffffffffffffffffff161415612f9f576040517f08c379a0000000000000000000000000000000000000000000000000000000008152600401612f9690614a9a565b60405180910390fd5b6000612fa9611a81565b90506000612fb68561358a565b90506000612fc38561358a565b9050612fd38389898585896131e2565b600080600088815260200190815260200160002060008a73ffffffffffffffffffffffffffffffffffffffff1673ffffffffffffffffffffffffffffffffffffffff1681526020019081526020016000205490508581101561306a576040517f08c379a000000000000000000000000000000000000000000000000000000000815260040161306190614afa565b60405180910390fd5b85810360008089815260200190815260200160002060008b73ffffffffffffffffffffffffffffffffffffffff1673ffffffffffffffffffffffffffffffffffffffff168152602001908152602001600020819055508560008089815260200190815260200160002060008a73ffffffffffffffffffffffffffffffffffffffff1673ffffffffffffffffffffffffffffffffffffffff168152602001908152602001600020600082825461311f9190614dee565b925050819055508773ffffffffffffffffffffffffffffffffffffffff168973ffffffffffffffffffffffffffffffffffffffff168573ffffffffffffffffffffffffffffffffffffffff167fc3d58168c5ae7397731d063d5bbf3d657854427343f4c083240f7aacaa2d0f628a8a60405161319c929190614c75565b60405180910390a46131b2848a8a86868a6131ea565b6131c0848a8a8a8a8a613650565b505050505050505050565b6000826131d88584613837565b1490509392505050565b505050505050565b505050505050565b6132118473ffffffffffffffffffffffffffffffffffffffff1661191e565b156133d1578373ffffffffffffffffffffffffffffffffffffffff1663bc197c8187878686866040518663ffffffff1660e01b8152600401613257959493929190614747565b602060405180830381600087803b15801561327157600080fd5b505af19250505080156132a257506040513d601f19601f8201168201806040525081019061329f919061409a565b60015b613348576132ae6150cd565b806308c379a0141561330b57506132c3615816565b806132ce575061330d565b806040517f08c379a000000000000000000000000000000000000000000000000000000000815260040161330291906148f8565b60405180910390fd5b505b6040517f08c379a000000000000000000000000000000000000000000000000000000000815260040161333f9061491a565b60405180910390fd5b63bc197c8160e01b7bffffffffffffffffffffffffffffffffffffffffffffffffffffffff1916817bffffffffffffffffffffffffffffffffffffffffffffffffffffffff1916146133cf576040517f08c379a00000000000000000000000000000000000000000000000000000000081526004016133c69061495a565b60405180910390fd5b505b505050505050565b600073ffffffffffffffffffffffffffffffffffffffff168473ffffffffffffffffffffffffffffffffffffffff161415613449576040517f08c379a000000000000000000000000000000000000000000000000000000000815260040161344090614bfa565b60405180910390fd5b6000613453611a81565b905060006134608561358a565b9050600061346d8561358a565b905061347e836000898585896131e2565b8460008088815260200190815260200160002060008973ffffffffffffffffffffffffffffffffffffffff1673ffffffffffffffffffffffffffffffffffffffff16815260200190815260200160002060008282546134dd9190614dee565b925050819055508673ffffffffffffffffffffffffffffffffffffffff16600073ffffffffffffffffffffffffffffffffffffffff168473ffffffffffffffffffffffffffffffffffffffff167fc3d58168c5ae7397731d063d5bbf3d657854427343f4c083240f7aacaa2d0f62898960405161355b929190614c75565b60405180910390a4613572836000898585896131ea565b61358183600089898989613650565b50505050505050565b60606000600167ffffffffffffffff8111156135cf577f4e487b7100000000000000000000000000000000000000000000000000000000600052604160045260246000fd5b6040519080825280602002602001820160405280156135fd5781602001602082028036833780820191505090505b509050828160008151811061363b577f4e487b7100000000000000000000000000000000000000000000000000000000600052603260045260246000fd5b60200260200101818152505080915050919050565b61366f8473ffffffffffffffffffffffffffffffffffffffff1661191e565b1561382f578373ffffffffffffffffffffffffffffffffffffffff1663f23a6e6187878686866040518663ffffffff1660e01b81526004016136b59594939291906147e6565b602060405180830381600087803b1580156136cf57600080fd5b505af192505050801561370057506040513d601f19601f820116820180604052508101906136fd919061409a565b60015b6137a65761370c6150cd565b806308c379a014156137695750613721615816565b8061372c575061376b565b806040517f08c379a000000000000000000000000000000000000000000000000000000000815260040161376091906148f8565b60405180910390fd5b505b6040517f08c379a000000000000000000000000000000000000000000000000000000000815260040161379d9061491a565b60405180910390fd5b63f23a6e6160e01b7bffffffffffffffffffffffffffffffffffffffffffffffffffffffff1916817bffffffffffffffffffffffffffffffffffffffffffffffffffffffff19161461382d576040517f08c379a00000000000000000000000000000000000000000000000000000000081526004016138249061495a565b60405180910390fd5b505b505050505050565b60008082905060005b84518110156138a85761389382868381518110613886577f4e487b7100000000000000000000000000000000000000000000000000000000600052603260045260246000fd5b60200260200101516138b3565b915080806138a090614fd3565b915050613840565b508091505092915050565b60008183106138cb576138c682846138de565b6138d6565b6138d583836138de565b5b905092915050565b600082600052816020526040600020905092915050565b82805461390190614f70565b90600052602060002090601f016020900481019282613923576000855561396a565b82601f1061393c57805160ff191683800117855561396a565b8280016001018555821561396a579182015b8281111561396957825182559160200191906001019061394e565b5b509050613977919061397b565b5090565b5b8082111561399457600081600090555060010161397c565b5090565b60006139ab6139a684614cc3565b614c9e565b905080838252602082019050828560208602820111156139ca57600080fd5b60005b858110156139fa57816139e08882613aec565b8452602084019350602083019250506001810190506139cd565b5050509392505050565b6000613a17613a1284614cef565b614c9e565b90508083825260208201905082856020860282011115613a3657600080fd5b60005b85811015613a665781613a4c8882613c71565b845260208401935060208301925050600181019050613a39565b5050509392505050565b6000613a83613a7e84614d1b565b614c9e565b905082815260208101848484011115613a9b57600080fd5b613aa6848285614f2e565b509392505050565b6000613ac1613abc84614d4c565b614c9e565b905082815260208101848484011115613ad957600080fd5b613ae4848285614f2e565b509392505050565b600081359050613afb816158ac565b92915050565b600082601f830112613b1257600080fd5b8135613b22848260208601613998565b91505092915050565b60008083601f840112613b3d57600080fd5b8235905067ffffffffffffffff811115613b5657600080fd5b602083019150836020820283011115613b6e57600080fd5b9250929050565b600082601f830112613b8657600080fd5b8135613b96848260208601613a04565b91505092915050565b600081359050613bae816158c3565b92915050565b600081519050613bc3816158c3565b92915050565b600081359050613bd8816158da565b92915050565b600081359050613bed816158f1565b92915050565b600081519050613c02816158f1565b92915050565b600082601f830112613c1957600080fd5b8135613c29848260208601613a70565b91505092915050565b600081359050613c4181615908565b92915050565b600082601f830112613c5857600080fd5b8135613c68848260208601613aae565b91505092915050565b600081359050613c808161591f565b92915050565b600081519050613c958161591f565b92915050565b600060208284031215613cad57600080fd5b6000613cbb84828501613aec565b91505092915050565b60008060408385031215613cd757600080fd5b6000613ce585828601613aec565b9250506020613cf685828601613aec565b9150509250929050565b600080600080600060a08688031215613d1857600080fd5b6000613d2688828901613aec565b9550506020613d3788828901613aec565b945050604086013567ffffffffffffffff811115613d5457600080fd5b613d6088828901613b75565b935050606086013567ffffffffffffffff811115613d7d57600080fd5b613d8988828901613b75565b925050608086013567ffffffffffffffff811115613da657600080fd5b613db288828901613c08565b9150509295509295909350565b600080600080600060a08688031215613dd757600080fd5b6000613de588828901613aec565b9550506020613df688828901613aec565b9450506040613e0788828901613c71565b9350506060613e1888828901613c71565b925050608086013567ffffffffffffffff811115613e3557600080fd5b613e4188828901613c08565b9150509295509295909350565b600080600060408486031215613e6357600080fd5b6000613e7186828701613aec565b935050602084013567ffffffffffffffff811115613e8e57600080fd5b613e9a86828701613b2b565b92509250509250925092565b60008060408385031215613eb957600080fd5b6000613ec785828601613aec565b9250506020613ed885828601613b9f565b9150509250929050565b60008060408385031215613ef557600080fd5b6000613f0385828601613aec565b9250506020613f1485828601613c71565b9150509250929050565b60008060408385031215613f3157600080fd5b600083013567ffffffffffffffff811115613f4b57600080fd5b613f5785828601613b01565b925050602083013567ffffffffffffffff811115613f7457600080fd5b613f8085828601613b75565b9150509250929050565b60008060408385031215613f9d57600080fd5b600083013567ffffffffffffffff811115613fb757600080fd5b613fc385828601613b75565b925050602083013567ffffffffffffffff811115613fe057600080fd5b613fec85828601613b75565b9150509250929050565b60006020828403121561400857600080fd5b600061401684828501613b9f565b91505092915050565b60006020828403121561403157600080fd5b600061403f84828501613bb4565b91505092915050565b60006020828403121561405a57600080fd5b600061406884828501613bc9565b91505092915050565b60006020828403121561408357600080fd5b600061409184828501613bde565b91505092915050565b6000602082840312156140ac57600080fd5b60006140ba84828501613bf3565b91505092915050565b600080604083850312156140d657600080fd5b60006140e485828601613c32565b92505060206140f585828601613aec565b9150509250929050565b60006020828403121561411157600080fd5b600061411f84828501613c71565b91505092915050565b60006020828403121561413a57600080fd5b600061414884828501613c86565b91505092915050565b60008060006040848603121561416657600080fd5b600061417486828701613c71565b935050602084013567ffffffffffffffff81111561419157600080fd5b61419d86828701613b2b565b92509250509250925092565b600080604083850312156141bc57600080fd5b60006141ca85828601613c71565b925050602083013567ffffffffffffffff8111156141e757600080fd5b6141f385828601613c47565b9150509250929050565b6000806040838503121561421057600080fd5b600061421e85828601613c71565b925050602061422f85828601613c71565b9150509250929050565b600061424583836146f3565b60208301905092915050565b61425a81614e9e565b82525050565b61427161426c82614e9e565b61501c565b82525050565b600061428282614d8d565b61428c8185614dbb565b935061429783614d7d565b8060005b838110156142c85781516142af8882614239565b97506142ba83614dae565b92505060018101905061429b565b5085935050505092915050565b6142de81614eb0565b82525050565b6142ed81614ebc565b82525050565b60006142fe82614d98565b6143088185614dcc565b9350614318818560208601614f3d565b614321816150ef565b840191505092915050565b600061433782614da3565b6143418185614ddd565b9350614351818560208601614f3d565b61435a816150ef565b840191505092915050565b6000614372603483614ddd565b915061437d8261511a565b604082019050919050565b6000614395602f83614ddd565b91506143a082615169565b604082019050919050565b60006143b8602883614ddd565b91506143c3826151b8565b604082019050919050565b60006143db601a83614ddd565b91506143e682615207565b602082019050919050565b60006143fe602b83614ddd565b915061440982615230565b604082019050919050565b6000614421602683614ddd565b915061442c8261527f565b604082019050919050565b6000614444601e83614ddd565b915061444f826152ce565b602082019050919050565b6000614467602483614ddd565b9150614472826152f7565b604082019050919050565b600061448a601983614ddd565b915061449582615346565b602082019050919050565b60006144ad602a83614ddd565b91506144b88261536f565b604082019050919050565b60006144d0601483614ddd565b91506144db826153be565b602082019050919050565b60006144f3602683614ddd565b91506144fe826153e7565b604082019050919050565b6000614516602583614ddd565b915061452182615436565b604082019050919050565b6000614539601e83614ddd565b915061454482615485565b602082019050919050565b600061455c602383614ddd565b9150614567826154ae565b604082019050919050565b600061457f602a83614ddd565b915061458a826154fd565b604082019050919050565b60006145a2602083614ddd565b91506145ad8261554c565b602082019050919050565b60006145c5602983614ddd565b91506145d082615575565b604082019050919050565b60006145e8602983614ddd565b91506145f3826155c4565b604082019050919050565b600061460b602983614ddd565b915061461682615613565b604082019050919050565b600061462e602983614ddd565b915061463982615662565b604082019050919050565b6000614651602a83614ddd565b915061465c826156b1565b604082019050919050565b6000614674602883614ddd565b915061467f82615700565b604082019050919050565b6000614697602183614ddd565b91506146a28261574f565b604082019050919050565b60006146ba601f83614ddd565b91506146c58261579e565b602082019050919050565b60006146dd602a83614ddd565b91506146e8826157c7565b604082019050919050565b6146fc81614f24565b82525050565b61470b81614f24565b82525050565b600061471d8284614260565b60148201915081905092915050565b60006020820190506147416000830184614251565b92915050565b600060a08201905061475c6000830188614251565b6147696020830187614251565b818103604083015261477b8186614277565b9050818103606083015261478f8185614277565b905081810360808301526147a381846142f3565b90509695505050505050565b60006060820190506147c46000830186614251565b6147d16020830185614251565b6147de6040830184614702565b949350505050565b600060a0820190506147fb6000830188614251565b6148086020830187614251565b6148156040830186614702565b6148226060830185614702565b818103608083015261483481846142f3565b90509695505050505050565b60006040820190506148556000830185614251565b6148626020830184614702565b9392505050565b600060208201905081810360008301526148838184614277565b905092915050565b600060408201905081810360008301526148a58185614277565b905081810360208301526148b98184614277565b90509392505050565b60006020820190506148d760008301846142d5565b92915050565b60006020820190506148f260008301846142e4565b92915050565b60006020820190508181036000830152614912818461432c565b905092915050565b6000602082019050818103600083015261493381614365565b9050919050565b6000602082019050818103600083015261495381614388565b9050919050565b60006020820190508181036000830152614973816143ab565b9050919050565b60006020820190508181036000830152614993816143ce565b9050919050565b600060208201905081810360008301526149b3816143f1565b9050919050565b600060208201905081810360008301526149d381614414565b9050919050565b600060208201905081810360008301526149f381614437565b9050919050565b60006020820190508181036000830152614a138161445a565b9050919050565b60006020820190508181036000830152614a338161447d565b9050919050565b60006020820190508181036000830152614a53816144a0565b9050919050565b60006020820190508181036000830152614a73816144c3565b9050919050565b60006020820190508181036000830152614a93816144e6565b9050919050565b60006020820190508181036000830152614ab381614509565b9050919050565b60006020820190508181036000830152614ad38161452c565b9050919050565b60006020820190508181036000830152614af38161454f565b9050919050565b60006020820190508181036000830152614b1381614572565b9050919050565b60006020820190508181036000830152614b3381614595565b9050919050565b60006020820190508181036000830152614b53816145b8565b9050919050565b60006020820190508181036000830152614b73816145db565b9050919050565b60006020820190508181036000830152614b93816145fe565b9050919050565b60006020820190508181036000830152614bb381614621565b9050919050565b60006020820190508181036000830152614bd381614644565b9050919050565b60006020820190508181036000830152614bf381614667565b9050919050565b60006020820190508181036000830152614c138161468a565b9050919050565b60006020820190508181036000830152614c33816146ad565b9050919050565b60006020820190508181036000830152614c53816146d0565b9050919050565b6000602082019050614c6f6000830184614702565b92915050565b6000604082019050614c8a6000830185614702565b614c976020830184614702565b9392505050565b6000614ca8614cb9565b9050614cb48282614fa2565b919050565b6000604051905090565b600067ffffffffffffffff821115614cde57614cdd61509e565b5b602082029050602081019050919050565b600067ffffffffffffffff821115614d0a57614d0961509e565b5b602082029050602081019050919050565b600067ffffffffffffffff821115614d3657614d3561509e565b5b614d3f826150ef565b9050602081019050919050565b600067ffffffffffffffff821115614d6757614d6661509e565b5b614d70826150ef565b9050602081019050919050565b6000819050602082019050919050565b600081519050919050565b600081519050919050565b600081519050919050565b6000602082019050919050565b600082825260208201905092915050565b600082825260208201905092915050565b600082825260208201905092915050565b6000614df982614f24565b9150614e0483614f24565b9250827fffffffffffffffffffffffffffffffffffffffffffffffffffffffffffffffff03821115614e3957614e38615040565b5b828201905092915050565b6000614e4f82614f24565b9150614e5a83614f24565b9250817fffffffffffffffffffffffffffffffffffffffffffffffffffffffffffffffff0483118215151615614e9357614e92615040565b5b828202905092915050565b6000614ea982614f04565b9050919050565b60008115159050919050565b6000819050919050565b60007fffffffff0000000000000000000000000000000000000000000000000000000082169050919050565b6000614efd82614e9e565b9050919050565b600073ffffffffffffffffffffffffffffffffffffffff82169050919050565b6000819050919050565b82818337600083830152505050565b60005b83811015614f5b578082015181840152602081019050614f40565b83811115614f6a576000848401525b50505050565b60006002820490506001821680614f8857607f821691505b60208210811415614f9c57614f9b61506f565b5b50919050565b614fab826150ef565b810181811067ffffffffffffffff82111715614fca57614fc961509e565b5b80604052505050565b6000614fde82614f24565b91507fffffffffffffffffffffffffffffffffffffffffffffffffffffffffffffffff82141561501157615010615040565b5b600182019050919050565b60006150278261502e565b9050919050565b600061503982615100565b9050919050565b7f4e487b7100000000000000000000000000000000000000000000000000000000600052601160045260246000fd5b7f4e487b7100000000000000000000000000000000000000000000000000000000600052602260045260246000fd5b7f4e487b7100000000000000000000000000000000000000000000000000000000600052604160045260246000fd5b600060033d11156150ec5760046000803e6150e960005161510d565b90505b90565b6000601f19601f8301169050919050565b60008160601b9050919050565b60008160e01c9050919050565b7f455243313135353a207472616e7366657220746f206e6f6e204552433131353560008201527f526563656976657220696d706c656d656e746572000000000000000000000000602082015250565b7f455243313135353a2063616c6c6572206973206e6f7420746f6b656e206f776e60008201527f6572206e6f7220617070726f7665640000000000000000000000000000000000602082015250565b7f455243313135353a204552433131353552656365697665722072656a6563746560008201527f6420746f6b656e73000000000000000000000000000000000000000000000000602082015250565b7f4d61782035204c6974654e6f646573207065722077616c6c6574000000000000600082015250565b7f41646472657373206e6f7420656c696769626c65202d20496e76616c6964206d60008201527f65726b6c652070726f6f66000000000000000000000000000000000000000000602082015250565b7f4f776e61626c653a206e6577206f776e657220697320746865207a65726f206160008201527f6464726573730000000000000000000000000000000000000000000000000000602082015250565b7f46756c6c206e6f646520636f756e742063616e6e6f74206265207a65726f0000600082015250565b7f455243313135353a206275726e20616d6f756e7420657863656564732062616c60008201527f616e636500000000000000000000000000000000000000000000000000000000602082015250565b7f57686974656c6973742073616c65206e6f742061637469766500000000000000600082015250565b7f455243313135353a2061646472657373207a65726f206973206e6f742061207660008201527f616c6964206f776e657200000000000000000000000000000000000000000000602082015250565b7f496e73756666696369656e742062616c616e6365000000000000000000000000600082015250565b7f4d617820312046756c6c4e6f64652c2035204c6974654e6f646573207065722060008201527f77616c6c65740000000000000000000000000000000000000000000000000000602082015250565b7f455243313135353a207472616e7366657220746f20746865207a65726f20616460008201527f6472657373000000000000000000000000000000000000000000000000000000602082015250565b7f4c697465206e6f646520636f756e742063616e6e6f74206265207a65726f0000600082015250565b7f455243313135353a206275726e2066726f6d20746865207a65726f206164647260008201527f6573730000000000000000000000000000000000000000000000000000000000602082015250565b7f455243313135353a20696e73756666696369656e742062616c616e636520666f60008201527f72207472616e7366657200000000000000000000000000000000000000000000602082015250565b7f4f776e61626c653a2063616c6c6572206973206e6f7420746865206f776e6572600082015250565b7f45786365656473206d61782035204c697465204e6f6465206c696d697420706560008201527f7220616464726573730000000000000000000000000000000000000000000000602082015250565b7f45786365656473206d617820312046756c6c204e6f6465206c696d697420706560008201527f7220616464726573730000000000000000000000000000000000000000000000602082015250565b7f455243313135353a2073657474696e6720617070726f76616c2073746174757360008201527f20666f722073656c660000000000000000000000000000000000000000000000602082015250565b7f455243313135353a206163636f756e747320616e6420696473206c656e67746860008201527f206d69736d617463680000000000000000000000000000000000000000000000602082015250565b7f507572636861736520776f756c6420657863656564206d6178204c697465204e60008201527f6f646520737570706c7900000000000000000000000000000000000000000000602082015250565b7f455243313135353a2069647320616e6420616d6f756e7473206c656e6774682060008201527f6d69736d61746368000000000000000000000000000000000000000000000000602082015250565b7f455243313135353a206d696e7420746f20746865207a65726f2061646472657360008201527f7300000000000000000000000000000000000000000000000000000000000000602082015250565b7f5265656e7472616e637947756172643a207265656e7472616e742063616c6c00600082015250565b7f507572636861736520776f756c6420657863656564206d61782046756c6c204e60008201527f6f646520737570706c7900000000000000000000000000000000000000000000602082015250565b600060443d1015615826576158a9565b61582e614cb9565b60043d036004823e80513d602482011167ffffffffffffffff821117156158565750506158a9565b808201805167ffffffffffffffff81111561587457505050506158a9565b80602083010160043d0385018111156158915750505050506158a9565b6158a082602001850186614fa2565b82955050505050505b90565b6158b581614e9e565b81146158c057600080fd5b50565b6158cc81614eb0565b81146158d757600080fd5b50565b6158e381614ebc565b81146158ee57600080fd5b50565b6158fa81614ec6565b811461590557600080fd5b50565b61591181614ef2565b811461591c57600080fd5b50565b61592881614f24565b811461593357600080fd5b5056fea264697066735822122067e09d9f2141d598f280ea35e37259dc42af159c394f4c684553f1b9c4a7490164736f6c63430008040033",
  "linkReferences": {},
  "deployedLinkReferences": {}
}