{
  "_format": "hh-sol-artifact-1",
  "contractName": "SafuuX",
  "sourceName": "contracts/SafuuX.sol",
  "abi": [
    {
      "inputs": [
        {
          "internalType": "string",
          "name": "name_",
          "type": "string"
        },
        {
          "internalType": "string",
          "name": "symbol_",
          "type": "string"
        },
        {
          "internalType": "address",
          "name": "safuuTokenAddress_",
          "type": "address"
        },
        {
          "internalType": "bytes32",
          "name": "goldListMerkleRoot_",
          "type": "bytes32"
        },
        {
          "internalType": "bytes32",
          "name": "whiteListMerkleRoot_",
          "type": "bytes32"
        },
        {
          "internalType": "string",
          "name": "merkleTreeInputURI_",
          "type": "string"
        }
      ],
      "stateMutability": "nonpayable",
      "type": "constructor"
    },
    {
      "anonymous": false,
      "inputs": [
        {
          "indexed": true,
          "internalType": "address",
          "name": "account",
          "type": "address"
        },
        {
          "indexed": true,
          "internalType": "address",
          "name": "operator",
          "type": "address"
        },
        {
          "indexed": false,
          "internalType": "bool",
          "name": "approved",
          "type": "bool"
        }
      ],
      "name": "ApprovalForAll",
      "type": "event"
    },
    {
      "anonymous": false,
      "inputs": [
        {
          "indexed": true,
          "internalType": "address",
          "name": "previousOwner",
          "type": "address"
        },
        {
          "indexed": true,
          "internalType": "address",
          "name": "newOwner",
          "type": "address"
        }
      ],
      "name": "OwnershipTransferred",
      "type": "event"
    },
    {
      "anonymous": false,
      "inputs": [
        {
          "indexed": true,
          "internalType": "address",
          "name": "operator",
          "type": "address"
        },
        {
          "indexed": true,
          "internalType": "address",
          "name": "from",
          "type": "address"
        },
        {
          "indexed": true,
          "internalType": "address",
          "name": "to",
          "type": "address"
        },
        {
          "indexed": false,
          "internalType": "uint256[]",
          "name": "ids",
          "type": "uint256[]"
        },
        {
          "indexed": false,
          "internalType": "uint256[]",
          "name": "values",
          "type": "uint256[]"
        }
      ],
      "name": "TransferBatch",
      "type": "event"
    },
    {
      "anonymous": false,
      "inputs": [
        {
          "indexed": true,
          "internalType": "address",
          "name": "operator",
          "type": "address"
        },
        {
          "indexed": true,
          "internalType": "address",
          "name": "from",
          "type": "address"
        },
        {
          "indexed": true,
          "internalType": "address",
          "name": "to",
          "type": "address"
        },
        {
          "indexed": false,
          "internalType": "uint256",
          "name": "id",
          "type": "uint256"
        },
        {
          "indexed": false,
          "internalType": "uint256",
          "name": "value",
          "type": "uint256"
        }
      ],
      "name": "TransferSingle",
      "type": "event"
    },
    {
      "anonymous": false,
      "inputs": [
        {
          "indexed": false,
          "internalType": "string",
          "name": "value",
          "type": "string"
        },
        {
          "indexed": true,
          "internalType": "uint256",
          "name": "id",
          "type": "uint256"
        }
      ],
      "name": "URI",
      "type": "event"
    },
    {
      "inputs": [],
      "name": "FULL_NODE_COST",
      "outputs": [
        {
          "internalType": "uint256",
          "name": "",
          "type": "uint256"
        }
      ],
      "stateMutability": "view",
      "type": "function"
    },
    {
      "inputs": [],
      "name": "FULL_NODE_CURRENT_SUPPLY",
      "outputs": [
        {
          "internalType": "uint256",
          "name": "",
          "type": "uint256"
        }
      ],
      "stateMutability": "view",
      "type": "function"
    },
    {
      "inputs": [],
      "name": "FULL_NODE_LIMIT",
      "outputs": [
        {
          "internalType": "uint256",
          "name": "",
          "type": "uint256"
        }
      ],
      "stateMutability": "view",
      "type": "function"
    },
    {
      "inputs": [],
      "name": "LITE_NODE_COST",
      "outputs": [
        {
          "internalType": "uint256",
          "name": "",
          "type": "uint256"
        }
      ],
      "stateMutability": "view",
      "type": "function"
    },
    {
      "inputs": [],
      "name": "LITE_NODE_CURRENT_SUPPLY",
      "outputs": [
        {
          "internalType": "uint256",
          "name": "",
          "type": "uint256"
        }
      ],
      "stateMutability": "view",
      "type": "function"
    },
    {
      "inputs": [],
      "name": "LITE_NODE_LIMIT",
      "outputs": [
        {
          "internalType": "uint256",
          "name": "",
          "type": "uint256"
        }
      ],
      "stateMutability": "view",
      "type": "function"
    },
    {
      "inputs": [
        {
          "internalType": "address",
          "name": "",
          "type": "address"
        }
      ],
      "name": "_fullNodesClaimed",
      "outputs": [
        {
          "internalType": "uint256",
          "name": "",
          "type": "uint256"
        }
      ],
      "stateMutability": "view",
      "type": "function"
    },
    {
      "inputs": [],
      "name": "_goldListMerkleRoot",
      "outputs": [
        {
          "internalType": "bytes32",
          "name": "",
          "type": "bytes32"
        }
      ],
      "stateMutability": "view",
      "type": "function"
    },
    {
      "inputs": [],
      "name": "_isGoldListSaleActive",
      "outputs": [
        {
          "internalType": "bool",
          "name": "",
          "type": "bool"
        }
      ],
      "stateMutability": "view",
      "type": "function"
    },
    {
      "inputs": [],
      "name": "_isWhiteListSaleActive",
      "outputs": [
        {
          "internalType": "bool",
          "name": "",
          "type": "bool"
        }
      ],
      "stateMutability": "view",
      "type": "function"
    },
    {
      "inputs": [
        {
          "internalType": "address",
          "name": "",
          "type": "address"
        }
      ],
      "name": "_liteNodesClaimed",
      "outputs": [
        {
          "internalType": "uint256",
          "name": "",
          "type": "uint256"
        }
      ],
      "stateMutability": "view",
      "type": "function"
    },
    {
      "inputs": [],
      "name": "_merkleTreeInputURI",
      "outputs": [
        {
          "internalType": "string",
          "name": "",
          "type": "string"
        }
      ],
      "stateMutability": "view",
      "type": "function"
    },
    {
      "inputs": [],
      "name": "_name",
      "outputs": [
        {
          "internalType": "string",
          "name": "",
          "type": "string"
        }
      ],
      "stateMutability": "view",
      "type": "function"
    },
    {
      "inputs": [],
      "name": "_safuuTokenAddress",
      "outputs": [
        {
          "internalType": "address",
          "name": "",
          "type": "address"
        }
      ],
      "stateMutability": "view",
      "type": "function"
    },
    {
      "inputs": [],
      "name": "_symbol",
      "outputs": [
        {
          "internalType": "string",
          "name": "",
          "type": "string"
        }
      ],
      "stateMutability": "view",
      "type": "function"
    },
    {
      "inputs": [],
      "name": "_whiteListMerkleRoot",
      "outputs": [
        {
          "internalType": "bytes32",
          "name": "",
          "type": "bytes32"
        }
      ],
      "stateMutability": "view",
      "type": "function"
    },
    {
      "inputs": [
        {
          "internalType": "address",
          "name": "account",
          "type": "address"
        },
        {
          "internalType": "uint256",
          "name": "id",
          "type": "uint256"
        }
      ],
      "name": "balanceOf",
      "outputs": [
        {
          "internalType": "uint256",
          "name": "",
          "type": "uint256"
        }
      ],
      "stateMutability": "view",
      "type": "function"
    },
    {
      "inputs": [
        {
          "internalType": "address[]",
          "name": "accounts",
          "type": "address[]"
        },
        {
          "internalType": "uint256[]",
          "name": "ids",
          "type": "uint256[]"
        }
      ],
      "name": "balanceOfBatch",
      "outputs": [
        {
          "internalType": "uint256[]",
          "name": "",
          "type": "uint256[]"
        }
      ],
      "stateMutability": "view",
      "type": "function"
    },
    {
      "inputs": [
        {
          "internalType": "uint256",
          "name": "_id",
          "type": "uint256"
        },
        {
          "internalType": "uint256",
          "name": "_amount",
          "type": "uint256"
        }
      ],
      "name": "burn",
      "outputs": [],
      "stateMutability": "nonpayable",
      "type": "function"
    },
    {
      "inputs": [
        {
          "internalType": "uint256[]",
          "name": "_ids",
          "type": "uint256[]"
        },
        {
          "internalType": "uint256[]",
          "name": "_amounts",
          "type": "uint256[]"
        }
      ],
      "name": "burnBatch",
      "outputs": [],
      "stateMutability": "nonpayable",
      "type": "function"
    },
    {
      "inputs": [
        {
          "internalType": "address",
          "name": "_from",
          "type": "address"
        },
        {
          "internalType": "uint256[]",
          "name": "_burnIds",
          "type": "uint256[]"
        },
        {
          "internalType": "uint256[]",
          "name": "_burnAmounts",
          "type": "uint256[]"
        },
        {
          "internalType": "uint256[]",
          "name": "_mintIds",
          "type": "uint256[]"
        },
        {
          "internalType": "uint256[]",
          "name": "_mintAmounts",
          "type": "uint256[]"
        }
      ],
      "name": "burnForMint",
      "outputs": [],
      "stateMutability": "nonpayable",
      "type": "function"
    },
    {
      "inputs": [
        {
          "internalType": "address",
          "name": "walletAddress",
          "type": "address"
        },
        {
          "internalType": "bytes32[]",
          "name": "merkleProof",
          "type": "bytes32[]"
        }
      ],
      "name": "checkGoldListEligibility",
      "outputs": [
        {
          "internalType": "bool",
          "name": "",
          "type": "bool"
        }
      ],
      "stateMutability": "view",
      "type": "function"
    },
    {
      "inputs": [
        {
          "internalType": "address",
          "name": "walletAddress",
          "type": "address"
        },
        {
          "internalType": "bytes32[]",
          "name": "merkleProof",
          "type": "bytes32[]"
        }
      ],
      "name": "checkWhiteListEligibility",
      "outputs": [
        {
          "internalType": "bool",
          "name": "",
          "type": "bool"
        }
      ],
      "stateMutability": "view",
      "type": "function"
    },
    {
      "inputs": [],
      "name": "getMerkleTreeInputURI",
      "outputs": [
        {
          "internalType": "string",
          "name": "",
          "type": "string"
        }
      ],
      "stateMutability": "view",
      "type": "function"
    },
    {
      "inputs": [
        {
          "internalType": "address",
          "name": "account",
          "type": "address"
        },
        {
          "internalType": "address",
          "name": "operator",
          "type": "address"
        }
      ],
      "name": "isApprovedForAll",
      "outputs": [
        {
          "internalType": "bool",
          "name": "",
          "type": "bool"
        }
      ],
      "stateMutability": "view",
      "type": "function"
    },
    {
      "inputs": [
        {
          "internalType": "uint256",
          "name": "_fullNodeCount",
          "type": "uint256"
        },
        {
          "internalType": "bytes32[]",
          "name": "merkleProof",
          "type": "bytes32[]"
        }
      ],
      "name": "mintFullNode",
      "outputs": [],
      "stateMutability": "nonpayable",
      "type": "function"
    },
    {
      "inputs": [
        {
          "internalType": "uint256",
          "name": "_liteNodeCount",
          "type": "uint256"
        }
      ],
      "name": "mintLiteNode",
      "outputs": [],
      "stateMutability": "nonpayable",
      "type": "function"
    },
    {
      "inputs": [],
      "name": "name",
      "outputs": [
        {
          "internalType": "string",
          "name": "",
          "type": "string"
        }
      ],
      "stateMutability": "view",
      "type": "function"
    },
    {
      "inputs": [
        {
          "internalType": "address",
          "name": "",
          "type": "address"
        }
      ],
      "name": "nodesClaimed",
      "outputs": [
        {
          "internalType": "bool",
          "name": "",
          "type": "bool"
        }
      ],
      "stateMutability": "view",
      "type": "function"
    },
    {
      "inputs": [],
      "name": "owner",
      "outputs": [
        {
          "internalType": "address",
          "name": "",
          "type": "address"
        }
      ],
      "stateMutability": "view",
      "type": "function"
    },
    {
      "inputs": [],
      "name": "renounceOwnership",
      "outputs": [],
      "stateMutability": "nonpayable",
      "type": "function"
    },
    {
      "inputs": [
        {
          "internalType": "address",
          "name": "from",
          "type": "address"
        },
        {
          "internalType": "address",
          "name": "to",
          "type": "address"
        },
        {
          "internalType": "uint256[]",
          "name": "ids",
          "type": "uint256[]"
        },
        {
          "internalType": "uint256[]",
          "name": "amounts",
          "type": "uint256[]"
        },
        {
          "internalType": "bytes",
          "name": "data",
          "type": "bytes"
        }
      ],
      "name": "safeBatchTransferFrom",
      "outputs": [],
      "stateMutability": "nonpayable",
      "type": "function"
    },
    {
      "inputs": [
        {
          "internalType": "address",
          "name": "from",
          "type": "address"
        },
        {
          "internalType": "address",
          "name": "to",
          "type": "address"
        },
        {
          "internalType": "uint256",
          "name": "id",
          "type": "uint256"
        },
        {
          "internalType": "uint256",
          "name": "amount",
          "type": "uint256"
        },
        {
          "internalType": "bytes",
          "name": "data",
          "type": "bytes"
        }
      ],
      "name": "safeTransferFrom",
      "outputs": [],
      "stateMutability": "nonpayable",
      "type": "function"
    },
    {
      "inputs": [
        {
          "internalType": "address",
          "name": "operator",
          "type": "address"
        },
        {
          "internalType": "bool",
          "name": "approved",
          "type": "bool"
        }
      ],
      "name": "setApprovalForAll",
      "outputs": [],
      "stateMutability": "nonpayable",
      "type": "function"
    },
    {
      "inputs": [
        {
          "internalType": "uint256",
          "name": "cost",
          "type": "uint256"
        }
      ],
      "name": "setFullNodeCost",
      "outputs": [],
      "stateMutability": "nonpayable",
      "type": "function"
    },
    {
      "inputs": [
        {
          "internalType": "bool",
          "name": "_isActive",
          "type": "bool"
        }
      ],
      "name": "setGoldListSaleStatus",
      "outputs": [],
      "stateMutability": "nonpayable",
      "type": "function"
    },
    {
      "inputs": [
        {
          "internalType": "uint256",
          "name": "cost",
          "type": "uint256"
        }
      ],
      "name": "setLiteNodeCost",
      "outputs": [],
      "stateMutability": "nonpayable",
      "type": "function"
    },
    {
      "inputs": [
        {
          "internalType": "uint256",
          "name": "_id",
          "type": "uint256"
        },
        {
          "internalType": "string",
          "name": "_uri",
          "type": "string"
        }
      ],
      "name": "setURI",
      "outputs": [],
      "stateMutability": "nonpayable",
      "type": "function"
    },
    {
      "inputs": [
        {
          "internalType": "bool",
          "name": "_isActive",
          "type": "bool"
        }
      ],
      "name": "setWhiteListSaleStatus",
      "outputs": [],
      "stateMutability": "nonpayable",
      "type": "function"
    },
    {
      "inputs": [
        {
          "internalType": "bytes4",
          "name": "interfaceId",
          "type": "bytes4"
        }
      ],
      "name": "supportsInterface",
      "outputs": [
        {
          "internalType": "bool",
          "name": "",
          "type": "bool"
        }
      ],
      "stateMutability": "view",
      "type": "function"
    },
    {
      "inputs": [],
      "name": "symbol",
      "outputs": [
        {
          "internalType": "string",
          "name": "",
          "type": "string"
        }
      ],
      "stateMutability": "view",
      "type": "function"
    },
    {
      "inputs": [
        {
          "internalType": "uint256",
          "name": "",
          "type": "uint256"
        }
      ],
      "name": "tokenURI",
      "outputs": [
        {
          "internalType": "string",
          "name": "",
          "type": "string"
        }
      ],
      "stateMutability": "view",
      "type": "function"
    },
    {
      "inputs": [
        {
          "internalType": "address",
          "name": "newOwner",
          "type": "address"
        }
      ],
      "name": "transferOwnership",
      "outputs": [],
      "stateMutability": "nonpayable",
      "type": "function"
    },
    {
      "inputs": [
        {
          "internalType": "uint256",
          "name": "_id",
          "type": "uint256"
        }
      ],
      "name": "uri",
      "outputs": [
        {
          "internalType": "string",
          "name": "",
          "type": "string"
        }
      ],
      "stateMutability": "view",
      "type": "function"
    },
    {
      "inputs": [],
      "name": "withdrawFunds",
      "outputs": [],
      "stateMutability": "nonpayable",
      "type": "function"
    },
    {
      "inputs": [
        {
          "internalType": "contract IERC20",
          "name": "tokenContract",
          "type": "address"
        },
        {
          "internalType": "address",
          "name": "to",
          "type": "address"
        }
      ],
      "name": "withdrawTokens",
      "outputs": [],
      "stateMutability": "nonpayable",
      "type": "function"
    }
  ],
  "bytecode": "0x60c06040526000600760006101000a81548160ff0219169083151502179055506000600760016101000a81548160ff02191690831515021790555060326008556101f46009556101f4600a556105dc600b553480156200005e57600080fd5b506040516200640c3803806200640c8339818101604052810190620000849190620003a8565b60405180602001604052806000815250620000a5816200016e60201b60201c565b50620000c6620000ba6200018a60201b60201c565b6200019260201b60201c565b8560049080519060200190620000de92919062000258565b508460059080519060200190620000f792919062000258565b5083600760026101000a81548173ffffffffffffffffffffffffffffffffffffffff021916908373ffffffffffffffffffffffffffffffffffffffff16021790555080600690805190602001906200015192919062000258565b5082608081815250508160a081815250505050505050506200066b565b80600290805190602001906200018692919062000258565b5050565b600033905090565b6000600360009054906101000a900473ffffffffffffffffffffffffffffffffffffffff16905081600360006101000a81548173ffffffffffffffffffffffffffffffffffffffff021916908373ffffffffffffffffffffffffffffffffffffffff1602179055508173ffffffffffffffffffffffffffffffffffffffff168173ffffffffffffffffffffffffffffffffffffffff167f8be0079c531659141344cd1fd0a4f28419497f9722a3daafe3b4186f6b6457e060405160405180910390a35050565b82805462000266906200055c565b90600052602060002090601f0160209004810192826200028a5760008555620002d6565b82601f10620002a557805160ff1916838001178555620002d6565b82800160010185558215620002d6579182015b82811115620002d5578251825591602001919060010190620002b8565b5b509050620002e59190620002e9565b5090565b5b8082111562000304576000816000905550600101620002ea565b5090565b60006200031f6200031984620004b2565b62000489565b9050828152602081018484840111156200033857600080fd5b6200034584828562000526565b509392505050565b6000815190506200035e8162000637565b92915050565b600081519050620003758162000651565b92915050565b600082601f8301126200038d57600080fd5b81516200039f84826020860162000308565b91505092915050565b60008060008060008060c08789031215620003c257600080fd5b600087015167ffffffffffffffff811115620003dd57600080fd5b620003eb89828a016200037b565b965050602087015167ffffffffffffffff8111156200040957600080fd5b6200041789828a016200037b565b95505060406200042a89828a016200034d565b94505060606200043d89828a0162000364565b93505060806200045089828a0162000364565b92505060a087015167ffffffffffffffff8111156200046e57600080fd5b6200047c89828a016200037b565b9150509295509295509295565b600062000495620004a8565b9050620004a3828262000592565b919050565b6000604051905090565b600067ffffffffffffffff821115620004d057620004cf620005f7565b5b620004db8262000626565b9050602081019050919050565b6000620004f58262000506565b9050919050565b6000819050919050565b600073ffffffffffffffffffffffffffffffffffffffff82169050919050565b60005b838110156200054657808201518184015260208101905062000529565b8381111562000556576000848401525b50505050565b600060028204905060018216806200057557607f821691505b602082108114156200058c576200058b620005c8565b5b50919050565b6200059d8262000626565b810181811067ffffffffffffffff82111715620005bf57620005be620005f7565b5b80604052505050565b7f4e487b7100000000000000000000000000000000000000000000000000000000600052602260045260246000fd5b7f4e487b7100000000000000000000000000000000000000000000000000000000600052604160045260246000fd5b6000601f19601f8301169050919050565b6200064281620004e8565b81146200064e57600080fd5b50565b6200065c81620004fc565b81146200066857600080fd5b50565b60805160a051615d5f620006ad60003960008181610a1f01528181610c0f015261166901526000818161137f0152818161164301526117970152615d5f6000f3fe608060405234801561001057600080fd5b50600436106102895760003560e01c806395d89b411161015c578063c9b3ed07116100ce578063ec75c2ec11610087578063ec75c2ec146107c4578063f11207d8146107e0578063f242432a146107fe578063f2fde38b1461081a578063f48ef7b314610836578063ff9204fc1461085457610289565b8063c9b3ed07146106f2578063d28d88521461070e578063d55690cc1461072c578063df714a2314610748578063e0d0b1b014610778578063e985e9c51461079457610289565b8063b09f126611610120578063b09f12661461061c578063b286d8461461063a578063b390c0ab1461066a578063b39d80cb14610686578063c3c1e8ff146106a4578063c87b56dd146106c257610289565b806395d89b411461058a5780639f4e8612146105a8578063a22cb465146105c6578063a522ad25146105e2578063aacffcd1146105fe57610289565b8063366fc60d116102005780635ce92989116101b95780635ce92989146104f0578063715018a61461050e57806383ca4b6f14610518578063862440e2146105345780638da5cb5b146105505780638edeb5281461056e57610289565b8063366fc60d1461040a5780633ea514911461043a57806341c30f79146104585780634d0ac59a146104885780634e1273f4146104a4578063510f4104146104d457610289565b80631689519011610252578063168951901461035a57806324600fc3146103785780632482751c146103825780632eb2c2d6146103b25780632fa5b0cb146103ce57806330b9ff72146103ec57610289565b8062fdd58e1461028e57806301ffc9a7146102be578063041fa44e146102ee57806306fdde031461030c5780630e89341c1461032a575b600080fd5b6102a860048036038101906102a39190614381565b610872565b6040516102b5919061508d565b60405180910390f35b6102d860048036038101906102d391906144e7565b61093b565b6040516102e59190614d15565b60405180910390f35b6102f6610a1d565b6040516103039190614d30565b60405180910390f35b610314610a41565b6040516103219190614d4b565b60405180910390f35b610344600480360381019061033f9190614575565b610ad3565b6040516103519190614d4b565b60405180910390f35b610362610b78565b60405161036f9190614d15565b60405180910390f35b610380610b8b565b005b61039c60048036038101906103979190614216565b610bdc565b6040516103a99190614d15565b60405180910390f35b6103cc60048036038101906103c791906140c8565b610c44565b005b6103d6610ce5565b6040516103e3919061508d565b60405180910390f35b6103f4610ceb565b604051610401919061508d565b60405180910390f35b610424600480360381019061041f9190614063565b610cf1565b604051610431919061508d565b60405180910390f35b610442610d09565b60405161044f919061508d565b60405180910390f35b610472600480360381019061046d9190614063565b610d0f565b60405161047f919061508d565b60405180910390f35b6104a2600480360381019061049d9190614575565b610d27565b005b6104be60048036038101906104b991906143bd565b610e13565b6040516104cb9190614cbc565b60405180910390f35b6104ee60048036038101906104e9919061426e565b610fc4565b005b6104f8610ff9565b604051610505919061508d565b60405180910390f35b610516610fff565b005b610532600480360381019061052d9190614429565b611013565b005b61054e6004803603810190610549919061461f565b611022565b005b61055861108e565b6040516105659190614b7f565b60405180910390f35b61058860048036038101906105839190614575565b6110b8565b005b6105926110ca565b60405161059f9190614d4b565b60405180910390f35b6105b061115c565b6040516105bd9190614b7f565b60405180910390f35b6105e060048036038101906105db9190614345565b611182565b005b6105fc60048036038101906105f79190614539565b611198565b005b6106066112ba565b604051610613919061508d565b60405180910390f35b6106246112c0565b6040516106319190614d4b565b60405180910390f35b610654600480360381019061064f9190614063565b61134e565b6040516106619190614d15565b60405180910390f35b610684600480360381019061067f9190614673565b61136e565b005b61068e61137d565b60405161069b9190614d30565b60405180910390f35b6106ac6113a1565b6040516106b99190614d4b565b60405180910390f35b6106dc60048036038101906106d79190614575565b61142f565b6040516106e99190614d4b565b60405180910390f35b61070c600480360381019061070791906145c7565b6114cf565b005b610716611696565b6040516107239190614d4b565b60405180910390f35b61074660048036038101906107419190614495565b611724565b005b610762600480360381019061075d9190614216565b611764565b60405161076f9190614d15565b60405180910390f35b610792600480360381019061078d9190614575565b6117cc565b005b6107ae60048036038101906107a9919061408c565b6117de565b6040516107bb9190614d15565b60405180910390f35b6107de60048036038101906107d99190614495565b611872565b005b6107e86118b2565b6040516107f59190614d15565b60405180910390f35b61081860048036038101906108139190614187565b6118c5565b005b610834600480360381019061082f9190614063565b611966565b005b61083e6119ea565b60405161084b919061508d565b60405180910390f35b61085c6119f0565b6040516108699190614d4b565b60405180910390f35b60008073ffffffffffffffffffffffffffffffffffffffff168373ffffffffffffffffffffffffffffffffffffffff1614156108e3576040517f08c379a00000000000000000000000000000000000000000000000000000000081526004016108da90614e8d565b60405180910390fd5b60008083815260200190815260200160002060008473ffffffffffffffffffffffffffffffffffffffff1673ffffffffffffffffffffffffffffffffffffffff16815260200190815260200160002054905092915050565b60007fd9b67a26000000000000000000000000000000000000000000000000000000007bffffffffffffffffffffffffffffffffffffffffffffffffffffffff1916827bffffffffffffffffffffffffffffffffffffffffffffffffffffffff19161480610a0657507f0e89341c000000000000000000000000000000000000000000000000000000007bffffffffffffffffffffffffffffffffffffffffffffffffffffffff1916827bffffffffffffffffffffffffffffffffffffffffffffffffffffffff1916145b80610a165750610a1582611a82565b5b9050919050565b7f000000000000000000000000000000000000000000000000000000000000000081565b606060048054610a50906153a3565b80601f0160208091040260200160405190810160405280929190818152602001828054610a7c906153a3565b8015610ac95780601f10610a9e57610100808354040283529160200191610ac9565b820191906000526020600020905b815481529060010190602001808311610aac57829003601f168201915b5050505050905090565b6060600e60008381526020019081526020016000208054610af3906153a3565b80601f0160208091040260200160405190810160405280929190818152602001828054610b1f906153a3565b8015610b6c5780601f10610b4157610100808354040283529160200191610b6c565b820191906000526020600020905b815481529060010190602001808311610b4f57829003601f168201915b50505050509050919050565b600760009054906101000a900460ff1681565b610b93611aec565b3373ffffffffffffffffffffffffffffffffffffffff166108fc479081150290604051600060405180830381858888f19350505050158015610bd9573d6000803e3d6000fd5b50565b60008084604051602001610bf09190614b64565b6040516020818303038152906040528051906020012090506000610c367f0000000000000000000000000000000000000000000000000000000000000000868685611b6a565b905080925050509392505050565b610c4c611bc2565b73ffffffffffffffffffffffffffffffffffffffff168573ffffffffffffffffffffffffffffffffffffffff161480610c925750610c9185610c8c611bc2565b6117de565b5b610cd1576040517f08c379a0000000000000000000000000000000000000000000000000000000008152600401610cc890614d8d565b60405180910390fd5b610cde8585858585611bca565b5050505050565b600b5481565b600a5481565b60116020528060005260406000206000915090505481565b60085481565b60106020528060005260406000206000915090505481565b60001515600f60003373ffffffffffffffffffffffffffffffffffffffff1673ffffffffffffffffffffffffffffffffffffffff16815260200190815260200160002060009054906101000a900460ff16151514610dba576040517f08c379a0000000000000000000000000000000000000000000000000000000008152600401610db190614dcd565b60405180910390fd5b60008111610dfd576040517f08c379a0000000000000000000000000000000000000000000000000000000008152600401610df490614f0d565b60405180910390fd5b6000811115610e1057610e0f81611f38565b5b50565b60608151835114610e59576040517f08c379a0000000000000000000000000000000000000000000000000000000008152600401610e5090614fed565b60405180910390fd5b6000835167ffffffffffffffff811115610e9c577f4e487b7100000000000000000000000000000000000000000000000000000000600052604160045260246000fd5b604051908082528060200260200182016040528015610eca5781602001602082028036833780820191505090505b50905060005b8451811015610fb957610f63858281518110610f15577f4e487b7100000000000000000000000000000000000000000000000000000000600052603260045260246000fd5b6020026020010151858381518110610f56577f4e487b7100000000000000000000000000000000000000000000000000000000600052603260045260246000fd5b6020026020010151610872565b828281518110610f9c577f4e487b7100000000000000000000000000000000000000000000000000000000600052603260045260246000fd5b60200260200101818152505080610fb290615406565b9050610ed0565b508091505092915050565b610fcc611aec565b610fd785858561241d565b610ff285838360405180602001604052806000815250612738565b5050505050565b600d5481565b611007611aec565b61101160006129b1565b565b61101e33838361241d565b5050565b61102a611aec565b80600e60008481526020019081526020016000209080519060200190611051929190613cd2565b50817f6bb7ff708619ba0610cba295a58592e0451dee2622938c8755667688daf3529b826040516110829190614d4b565b60405180910390a25050565b6000600360009054906101000a900473ffffffffffffffffffffffffffffffffffffffff16905090565b6110c0611aec565b8060098190555050565b6060600580546110d9906153a3565b80601f0160208091040260200160405190810160405280929190818152602001828054611105906153a3565b80156111525780601f1061112757610100808354040283529160200191611152565b820191906000526020600020905b81548152906001019060200180831161113557829003601f168201915b5050505050905090565b600760029054906101000a900473ffffffffffffffffffffffffffffffffffffffff1681565b61119461118d611bc2565b8383612a77565b5050565b6111a0611aec565b8173ffffffffffffffffffffffffffffffffffffffff1663a9059cbb828473ffffffffffffffffffffffffffffffffffffffff166370a08231306040518263ffffffff1660e01b81526004016111f69190614b7f565b60206040518083038186803b15801561120e57600080fd5b505afa158015611222573d6000803e3d6000fd5b505050506040513d601f19601f82011682018060405250810190611246919061459e565b6040518363ffffffff1660e01b8152600401611263929190614c93565b602060405180830381600087803b15801561127d57600080fd5b505af1158015611291573d6000803e3d6000fd5b505050506040513d601f19601f820116820180604052508101906112b591906144be565b505050565b60095481565b600580546112cd906153a3565b80601f01602080910402602001604051908101604052809291908181526020018280546112f9906153a3565b80156113465780601f1061131b57610100808354040283529160200191611346565b820191906000526020600020905b81548152906001019060200180831161132957829003601f168201915b505050505081565b600f6020528060005260406000206000915054906101000a900460ff1681565b611379338383612be4565b5050565b7f000000000000000000000000000000000000000000000000000000000000000081565b600680546113ae906153a3565b80601f01602080910402602001604051908101604052809291908181526020018280546113da906153a3565b80156114275780601f106113fc57610100808354040283529160200191611427565b820191906000526020600020905b81548152906001019060200180831161140a57829003601f168201915b505050505081565b600e602052806000526040600020600091509050805461144e906153a3565b80601f016020809104026020016040519081016040528092919081815260200182805461147a906153a3565b80156114c75780601f1061149c576101008083540402835291602001916114c7565b820191906000526020600020905b8154815290600101906020018083116114aa57829003601f168201915b505050505081565b60011515600760009054906101000a900460ff1615151480611504575060011515600760019054906101000a900460ff161515145b611543576040517f08c379a000000000000000000000000000000000000000000000000000000000815260040161153a90614e6d565b60405180910390fd5b60001515600f60003373ffffffffffffffffffffffffffffffffffffffff1673ffffffffffffffffffffffffffffffffffffffff16815260200190815260200160002060009054906101000a900460ff161515146115d6576040517f08c379a00000000000000000000000000000000000000000000000000000000081526004016115cd90614ecd565b60405180910390fd5b60008311611619576040517f08c379a000000000000000000000000000000000000000000000000000000000815260040161161090614e2d565b60405180910390fd5b6000831115611691576116908360011515600760019054906101000a900460ff16151514611667577f0000000000000000000000000000000000000000000000000000000000000000611689565b7f00000000000000000000000000000000000000000000000000000000000000005b8484612e2b565b5b505050565b600480546116a3906153a3565b80601f01602080910402602001604051908101604052809291908181526020018280546116cf906153a3565b801561171c5780601f106116f15761010080835404028352916020019161171c565b820191906000526020600020905b8154815290600101906020018083116116ff57829003601f168201915b505050505081565b61172c611aec565b6000600760006101000a81548160ff02191690831515021790555080600760016101000a81548160ff02191690831515021790555050565b600080846040516020016117789190614b64565b60405160208183030381529060405280519060200120905060006117be7f0000000000000000000000000000000000000000000000000000000000000000868685611b6a565b905080925050509392505050565b6117d4611aec565b8060088190555050565b6000600160008473ffffffffffffffffffffffffffffffffffffffff1673ffffffffffffffffffffffffffffffffffffffff16815260200190815260200160002060008373ffffffffffffffffffffffffffffffffffffffff1673ffffffffffffffffffffffffffffffffffffffff16815260200190815260200160002060009054906101000a900460ff16905092915050565b61187a611aec565b6000600760016101000a81548160ff02191690831515021790555080600760006101000a81548160ff02191690831515021790555050565b600760019054906101000a900460ff1681565b6118cd611bc2565b73ffffffffffffffffffffffffffffffffffffffff168573ffffffffffffffffffffffffffffffffffffffff16148061191357506119128561190d611bc2565b6117de565b5b611952576040517f08c379a000000000000000000000000000000000000000000000000000000000815260040161194990614d8d565b60405180910390fd5b61195f85858585856132e9565b5050505050565b61196e611aec565b600073ffffffffffffffffffffffffffffffffffffffff168173ffffffffffffffffffffffffffffffffffffffff1614156119de576040517f08c379a00000000000000000000000000000000000000000000000000000000081526004016119d590614e0d565b60405180910390fd5b6119e7816129b1565b50565b600c5481565b6060600680546119ff906153a3565b80601f0160208091040260200160405190810160405280929190818152602001828054611a2b906153a3565b8015611a785780601f10611a4d57610100808354040283529160200191611a78565b820191906000526020600020905b815481529060010190602001808311611a5b57829003601f168201915b5050505050905090565b60007f01ffc9a7000000000000000000000000000000000000000000000000000000007bffffffffffffffffffffffffffffffffffffffffffffffffffffffff1916827bffffffffffffffffffffffffffffffffffffffffffffffffffffffff1916149050919050565b611af4611bc2565b73ffffffffffffffffffffffffffffffffffffffff16611b1261108e565b73ffffffffffffffffffffffffffffffffffffffff1614611b68576040517f08c379a0000000000000000000000000000000000000000000000000000000008152600401611b5f90614f6d565b60405180910390fd5b565b6000611bb8848480806020026020016040519081016040528093929190818152602001838360200280828437600081840152601f19601f820116905080830192505050505050508684613585565b9050949350505050565b600033905090565b8151835114611c0e576040517f08c379a0000000000000000000000000000000000000000000000000000000008152600401611c059061502d565b60405180910390fd5b600073ffffffffffffffffffffffffffffffffffffffff168473ffffffffffffffffffffffffffffffffffffffff161415611c7e576040517f08c379a0000000000000000000000000000000000000000000000000000000008152600401611c7590614eed565b60405180910390fd5b6000611c88611bc2565b9050611c9881878787878761359c565b60005b8451811015611e95576000858281518110611cdf577f4e487b7100000000000000000000000000000000000000000000000000000000600052603260045260246000fd5b602002602001015190506000858381518110611d24577f4e487b7100000000000000000000000000000000000000000000000000000000600052603260045260246000fd5b60200260200101519050600080600084815260200190815260200160002060008b73ffffffffffffffffffffffffffffffffffffffff1673ffffffffffffffffffffffffffffffffffffffff16815260200190815260200160002054905081811015611dc5576040517f08c379a0000000000000000000000000000000000000000000000000000000008152600401611dbc90614f4d565b60405180910390fd5b81810360008085815260200190815260200160002060008c73ffffffffffffffffffffffffffffffffffffffff1673ffffffffffffffffffffffffffffffffffffffff168152602001908152602001600020819055508160008085815260200190815260200160002060008b73ffffffffffffffffffffffffffffffffffffffff1673ffffffffffffffffffffffffffffffffffffffff1681526020019081526020016000206000828254611e7a9190615221565b9250508190555050505080611e8e90615406565b9050611c9b565b508473ffffffffffffffffffffffffffffffffffffffff168673ffffffffffffffffffffffffffffffffffffffff168273ffffffffffffffffffffffffffffffffffffffff167f4a39dc06d4c0dbc64b70af90fd698a233a518aa5d07e595d983b8c0526c8f7fb8787604051611f0c929190614cde565b60405180910390a4611f228187878787876135a4565b611f308187878787876135ac565b505050505050565b80600681601160003373ffffffffffffffffffffffffffffffffffffffff1673ffffffffffffffffffffffffffffffffffffffff16815260200190815260200160002054611f869190615221565b10611fc6576040517f08c379a0000000000000000000000000000000000000000000000000000000008152600401611fbd90614f8d565b60405180910390fd5b600b5481600d54611fd79190615221565b1115612018576040517f08c379a000000000000000000000000000000000000000000000000000000000815260040161200f9061500d565b60405180910390fd5b60001515600f60003373ffffffffffffffffffffffffffffffffffffffff1673ffffffffffffffffffffffffffffffffffffffff16815260200190815260200160002060009054906101000a900460ff161515146120ab576040517f08c379a00000000000000000000000000000000000000000000000000000000081526004016120a290614ecd565b60405180910390fd5b806008546120b99190615277565b600760029054906101000a900473ffffffffffffffffffffffffffffffffffffffff1673ffffffffffffffffffffffffffffffffffffffff166370a08231336040518263ffffffff1660e01b81526004016121149190614b7f565b60206040518083038186803b15801561212c57600080fd5b505afa158015612140573d6000803e3d6000fd5b505050506040513d601f19601f82011682018060405250810190612164919061459e565b10156121a5576040517f08c379a000000000000000000000000000000000000000000000000000000000815260040161219c90614ead565b60405180910390fd5b81600d546121b39190615221565b600d81905550600582601160003373ffffffffffffffffffffffffffffffffffffffff1673ffffffffffffffffffffffffffffffffffffffff168152602001908152602001600020546122069190615221565b14801561225257506001601060003373ffffffffffffffffffffffffffffffffffffffff1673ffffffffffffffffffffffffffffffffffffffff16815260200190815260200160002054145b156122b0576001600f60003373ffffffffffffffffffffffffffffffffffffffff1673ffffffffffffffffffffffffffffffffffffffff16815260200190815260200160002060006101000a81548160ff0219169083151502179055505b81601160003373ffffffffffffffffffffffffffffffffffffffff1673ffffffffffffffffffffffffffffffffffffffff168152602001908152602001600020546122fb9190615221565b601160003373ffffffffffffffffffffffffffffffffffffffff1673ffffffffffffffffffffffffffffffffffffffff16815260200190815260200160002081905550600760029054906101000a900473ffffffffffffffffffffffffffffffffffffffff1673ffffffffffffffffffffffffffffffffffffffff166323b872dd33308560085461238c9190615277565b6040518463ffffffff1660e01b81526004016123aa93929190614c02565b602060405180830381600087803b1580156123c457600080fd5b505af11580156123d8573d6000803e3d6000fd5b505050506040513d601f19601f820116820180604052508101906123fc91906144be565b506124193360028460405180602001604052806000815250613793565b5050565b600073ffffffffffffffffffffffffffffffffffffffff168373ffffffffffffffffffffffffffffffffffffffff16141561248d576040517f08c379a000000000000000000000000000000000000000000000000000000000815260040161248490614f2d565b60405180910390fd5b80518251146124d1576040517f08c379a00000000000000000000000000000000000000000000000000000000081526004016124c89061502d565b60405180910390fd5b60006124db611bc2565b90506124fb8185600086866040518060200160405280600081525061359c565b60005b8351811015612694576000848281518110612542577f4e487b7100000000000000000000000000000000000000000000000000000000600052603260045260246000fd5b602002602001015190506000848381518110612587577f4e487b7100000000000000000000000000000000000000000000000000000000600052603260045260246000fd5b60200260200101519050600080600084815260200190815260200160002060008973ffffffffffffffffffffffffffffffffffffffff1673ffffffffffffffffffffffffffffffffffffffff16815260200190815260200160002054905081811015612628576040517f08c379a000000000000000000000000000000000000000000000000000000000815260040161261f90614e4d565b60405180910390fd5b81810360008085815260200190815260200160002060008a73ffffffffffffffffffffffffffffffffffffffff1673ffffffffffffffffffffffffffffffffffffffff16815260200190815260200160002081905550505050808061268c90615406565b9150506124fe565b50600073ffffffffffffffffffffffffffffffffffffffff168473ffffffffffffffffffffffffffffffffffffffff168273ffffffffffffffffffffffffffffffffffffffff167f4a39dc06d4c0dbc64b70af90fd698a233a518aa5d07e595d983b8c0526c8f7fb868660405161270c929190614cde565b60405180910390a4612732818560008686604051806020016040528060008152506135a4565b50505050565b600073ffffffffffffffffffffffffffffffffffffffff168473ffffffffffffffffffffffffffffffffffffffff1614156127a8576040517f08c379a000000000000000000000000000000000000000000000000000000000815260040161279f9061504d565b60405180910390fd5b81518351146127ec576040517f08c379a00000000000000000000000000000000000000000000000000000000081526004016127e39061502d565b60405180910390fd5b60006127f6611bc2565b90506128078160008787878761359c565b60005b845181101561290c5783818151811061284c577f4e487b7100000000000000000000000000000000000000000000000000000000600052603260045260246000fd5b6020026020010151600080878481518110612890577f4e487b7100000000000000000000000000000000000000000000000000000000600052603260045260246000fd5b6020026020010151815260200190815260200160002060008873ffffffffffffffffffffffffffffffffffffffff1673ffffffffffffffffffffffffffffffffffffffff16815260200190815260200160002060008282546128f29190615221565b92505081905550808061290490615406565b91505061280a565b508473ffffffffffffffffffffffffffffffffffffffff16600073ffffffffffffffffffffffffffffffffffffffff168273ffffffffffffffffffffffffffffffffffffffff167f4a39dc06d4c0dbc64b70af90fd698a233a518aa5d07e595d983b8c0526c8f7fb8787604051612984929190614cde565b60405180910390a461299b816000878787876135a4565b6129aa816000878787876135ac565b5050505050565b6000600360009054906101000a900473ffffffffffffffffffffffffffffffffffffffff16905081600360006101000a81548173ffffffffffffffffffffffffffffffffffffffff021916908373ffffffffffffffffffffffffffffffffffffffff1602179055508173ffffffffffffffffffffffffffffffffffffffff168173ffffffffffffffffffffffffffffffffffffffff167f8be0079c531659141344cd1fd0a4f28419497f9722a3daafe3b4186f6b6457e060405160405180910390a35050565b8173ffffffffffffffffffffffffffffffffffffffff168373ffffffffffffffffffffffffffffffffffffffff161415612ae6576040517f08c379a0000000000000000000000000000000000000000000000000000000008152600401612add90614fcd565b60405180910390fd5b80600160008573ffffffffffffffffffffffffffffffffffffffff1673ffffffffffffffffffffffffffffffffffffffff16815260200190815260200160002060008473ffffffffffffffffffffffffffffffffffffffff1673ffffffffffffffffffffffffffffffffffffffff16815260200190815260200160002060006101000a81548160ff0219169083151502179055508173ffffffffffffffffffffffffffffffffffffffff168373ffffffffffffffffffffffffffffffffffffffff167f17307eab39ab6107e8899845ad3d59bd9653f200f220920489ca2b5937696c3183604051612bd79190614d15565b60405180910390a3505050565b600073ffffffffffffffffffffffffffffffffffffffff168373ffffffffffffffffffffffffffffffffffffffff161415612c54576040517f08c379a0000000000000000000000000000000000000000000000000000000008152600401612c4b90614f2d565b60405180910390fd5b6000612c5e611bc2565b90506000612c6b84613944565b90506000612c7884613944565b9050612c988387600085856040518060200160405280600081525061359c565b600080600087815260200190815260200160002060008873ffffffffffffffffffffffffffffffffffffffff1673ffffffffffffffffffffffffffffffffffffffff16815260200190815260200160002054905084811015612d2f576040517f08c379a0000000000000000000000000000000000000000000000000000000008152600401612d2690614e4d565b60405180910390fd5b84810360008088815260200190815260200160002060008973ffffffffffffffffffffffffffffffffffffffff1673ffffffffffffffffffffffffffffffffffffffff16815260200190815260200160002081905550600073ffffffffffffffffffffffffffffffffffffffff168773ffffffffffffffffffffffffffffffffffffffff168573ffffffffffffffffffffffffffffffffffffffff167fc3d58168c5ae7397731d063d5bbf3d657854427343f4c083240f7aacaa2d0f628989604051612dfc9291906150a8565b60405180910390a4612e22848860008686604051806020016040528060008152506135a4565b50505050505050565b83600281601060003373ffffffffffffffffffffffffffffffffffffffff1673ffffffffffffffffffffffffffffffffffffffff16815260200190815260200160002054612e799190615221565b10612eb9576040517f08c379a0000000000000000000000000000000000000000000000000000000008152600401612eb090614fad565b60405180910390fd5b600a546001600c54612ecb9190615221565b1115612f0c576040517f08c379a0000000000000000000000000000000000000000000000000000000008152600401612f039061506d565b60405180910390fd5b600954600760029054906101000a900473ffffffffffffffffffffffffffffffffffffffff1673ffffffffffffffffffffffffffffffffffffffff166370a08231336040518263ffffffff1660e01b8152600401612f6a9190614b7f565b60206040518083038186803b158015612f8257600080fd5b505afa158015612f96573d6000803e3d6000fd5b505050506040513d601f19601f82011682018060405250810190612fba919061459e565b1015612ffb576040517f08c379a0000000000000000000000000000000000000000000000000000000008152600401612ff290614ead565b60405180910390fd5b60003360405160200161300e9190614b64565b6040516020818303038152906040528051906020012090506001151561303686868685611b6a565b151514613078576040517f08c379a000000000000000000000000000000000000000000000000000000000815260040161306f90614ded565b60405180910390fd5b85600c546130869190615221565b600c81905550600186601060003373ffffffffffffffffffffffffffffffffffffffff1673ffffffffffffffffffffffffffffffffffffffff168152602001908152602001600020546130d99190615221565b14801561312557506005601160003373ffffffffffffffffffffffffffffffffffffffff1673ffffffffffffffffffffffffffffffffffffffff16815260200190815260200160002054145b15613183576001600f60003373ffffffffffffffffffffffffffffffffffffffff1673ffffffffffffffffffffffffffffffffffffffff16815260200190815260200160002060006101000a81548160ff0219169083151502179055505b85601060003373ffffffffffffffffffffffffffffffffffffffff1673ffffffffffffffffffffffffffffffffffffffff168152602001908152602001600020546131ce9190615221565b601060003373ffffffffffffffffffffffffffffffffffffffff1673ffffffffffffffffffffffffffffffffffffffff16815260200190815260200160002081905550600760029054906101000a900473ffffffffffffffffffffffffffffffffffffffff1673ffffffffffffffffffffffffffffffffffffffff166323b872dd33306009546040518463ffffffff1660e01b815260040161327293929190614c02565b602060405180830381600087803b15801561328c57600080fd5b505af11580156132a0573d6000803e3d6000fd5b505050506040513d601f19601f820116820180604052508101906132c491906144be565b506132e13360018860405180602001604052806000815250613793565b505050505050565b600073ffffffffffffffffffffffffffffffffffffffff168473ffffffffffffffffffffffffffffffffffffffff161415613359576040517f08c379a000000000000000000000000000000000000000000000000000000000815260040161335090614eed565b60405180910390fd5b6000613363611bc2565b9050600061337085613944565b9050600061337d85613944565b905061338d83898985858961359c565b600080600088815260200190815260200160002060008a73ffffffffffffffffffffffffffffffffffffffff1673ffffffffffffffffffffffffffffffffffffffff16815260200190815260200160002054905085811015613424576040517f08c379a000000000000000000000000000000000000000000000000000000000815260040161341b90614f4d565b60405180910390fd5b85810360008089815260200190815260200160002060008b73ffffffffffffffffffffffffffffffffffffffff1673ffffffffffffffffffffffffffffffffffffffff168152602001908152602001600020819055508560008089815260200190815260200160002060008a73ffffffffffffffffffffffffffffffffffffffff1673ffffffffffffffffffffffffffffffffffffffff16815260200190815260200160002060008282546134d99190615221565b925050819055508773ffffffffffffffffffffffffffffffffffffffff168973ffffffffffffffffffffffffffffffffffffffff168573ffffffffffffffffffffffffffffffffffffffff167fc3d58168c5ae7397731d063d5bbf3d657854427343f4c083240f7aacaa2d0f628a8a6040516135569291906150a8565b60405180910390a461356c848a8a86868a6135a4565b61357a848a8a8a8a8a613a0a565b505050505050505050565b6000826135928584613bf1565b1490509392505050565b505050505050565b505050505050565b6135cb8473ffffffffffffffffffffffffffffffffffffffff16613c6d565b1561378b578373ffffffffffffffffffffffffffffffffffffffff1663bc197c8187878686866040518663ffffffff1660e01b8152600401613611959493929190614b9a565b602060405180830381600087803b15801561362b57600080fd5b505af192505050801561365c57506040513d601f19601f820116820180604052508101906136599190614510565b60015b61370257613668615500565b806308c379a014156136c5575061367d615c20565b8061368857506136c7565b806040517f08c379a00000000000000000000000000000000000000000000000000000000081526004016136bc9190614d4b565b60405180910390fd5b505b6040517f08c379a00000000000000000000000000000000000000000000000000000000081526004016136f990614d6d565b60405180910390fd5b63bc197c8160e01b7bffffffffffffffffffffffffffffffffffffffffffffffffffffffff1916817bffffffffffffffffffffffffffffffffffffffffffffffffffffffff191614613789576040517f08c379a000000000000000000000000000000000000000000000000000000000815260040161378090614dad565b60405180910390fd5b505b505050505050565b600073ffffffffffffffffffffffffffffffffffffffff168473ffffffffffffffffffffffffffffffffffffffff161415613803576040517f08c379a00000000000000000000000000000000000000000000000000000000081526004016137fa9061504d565b60405180910390fd5b600061380d611bc2565b9050600061381a85613944565b9050600061382785613944565b90506138388360008985858961359c565b8460008088815260200190815260200160002060008973ffffffffffffffffffffffffffffffffffffffff1673ffffffffffffffffffffffffffffffffffffffff16815260200190815260200160002060008282546138979190615221565b925050819055508673ffffffffffffffffffffffffffffffffffffffff16600073ffffffffffffffffffffffffffffffffffffffff168473ffffffffffffffffffffffffffffffffffffffff167fc3d58168c5ae7397731d063d5bbf3d657854427343f4c083240f7aacaa2d0f6289896040516139159291906150a8565b60405180910390a461392c836000898585896135a4565b61393b83600089898989613a0a565b50505050505050565b60606000600167ffffffffffffffff811115613989577f4e487b7100000000000000000000000000000000000000000000000000000000600052604160045260246000fd5b6040519080825280602002602001820160405280156139b75781602001602082028036833780820191505090505b50905082816000815181106139f5577f4e487b7100000000000000000000000000000000000000000000000000000000600052603260045260246000fd5b60200260200101818152505080915050919050565b613a298473ffffffffffffffffffffffffffffffffffffffff16613c6d565b15613be9578373ffffffffffffffffffffffffffffffffffffffff1663f23a6e6187878686866040518663ffffffff1660e01b8152600401613a6f959493929190614c39565b602060405180830381600087803b158015613a8957600080fd5b505af1925050508015613aba57506040513d601f19601f82011682018060405250810190613ab79190614510565b60015b613b6057613ac6615500565b806308c379a01415613b235750613adb615c20565b80613ae65750613b25565b806040517f08c379a0000000000000000000000000000000000000000000000000000000008152600401613b1a9190614d4b565b60405180910390fd5b505b6040517f08c379a0000000000000000000000000000000000000000000000000000000008152600401613b5790614d6d565b60405180910390fd5b63f23a6e6160e01b7bffffffffffffffffffffffffffffffffffffffffffffffffffffffff1916817bffffffffffffffffffffffffffffffffffffffffffffffffffffffff191614613be7576040517f08c379a0000000000000000000000000000000000000000000000000000000008152600401613bde90614dad565b60405180910390fd5b505b505050505050565b60008082905060005b8451811015613c6257613c4d82868381518110613c40577f4e487b7100000000000000000000000000000000000000000000000000000000600052603260045260246000fd5b6020026020010151613c90565b91508080613c5a90615406565b915050613bfa565b508091505092915050565b6000808273ffffffffffffffffffffffffffffffffffffffff163b119050919050565b6000818310613ca857613ca38284613cbb565b613cb3565b613cb28383613cbb565b5b905092915050565b600082600052816020526040600020905092915050565b828054613cde906153a3565b90600052602060002090601f016020900481019282613d005760008555613d47565b82601f10613d1957805160ff1916838001178555613d47565b82800160010185558215613d47579182015b82811115613d46578251825591602001919060010190613d2b565b5b509050613d549190613d58565b5090565b5b80821115613d71576000816000905550600101613d59565b5090565b6000613d88613d83846150f6565b6150d1565b90508083825260208201905082856020860282011115613da757600080fd5b60005b85811015613dd75781613dbd8882613ec9565b845260208401935060208301925050600181019050613daa565b5050509392505050565b6000613df4613def84615122565b6150d1565b90508083825260208201905082856020860282011115613e1357600080fd5b60005b85811015613e435781613e298882614039565b845260208401935060208301925050600181019050613e16565b5050509392505050565b6000613e60613e5b8461514e565b6150d1565b905082815260208101848484011115613e7857600080fd5b613e83848285615361565b509392505050565b6000613e9e613e998461517f565b6150d1565b905082815260208101848484011115613eb657600080fd5b613ec1848285615361565b509392505050565b600081359050613ed881615cb6565b92915050565b600082601f830112613eef57600080fd5b8135613eff848260208601613d75565b91505092915050565b60008083601f840112613f1a57600080fd5b8235905067ffffffffffffffff811115613f3357600080fd5b602083019150836020820283011115613f4b57600080fd5b9250929050565b600082601f830112613f6357600080fd5b8135613f73848260208601613de1565b91505092915050565b600081359050613f8b81615ccd565b92915050565b600081519050613fa081615ccd565b92915050565b600081359050613fb581615ce4565b92915050565b600081519050613fca81615ce4565b92915050565b600082601f830112613fe157600080fd5b8135613ff1848260208601613e4d565b91505092915050565b60008135905061400981615cfb565b92915050565b600082601f83011261402057600080fd5b8135614030848260208601613e8b565b91505092915050565b60008135905061404881615d12565b92915050565b60008151905061405d81615d12565b92915050565b60006020828403121561407557600080fd5b600061408384828501613ec9565b91505092915050565b6000806040838503121561409f57600080fd5b60006140ad85828601613ec9565b92505060206140be85828601613ec9565b9150509250929050565b600080600080600060a086880312156140e057600080fd5b60006140ee88828901613ec9565b95505060206140ff88828901613ec9565b945050604086013567ffffffffffffffff81111561411c57600080fd5b61412888828901613f52565b935050606086013567ffffffffffffffff81111561414557600080fd5b61415188828901613f52565b925050608086013567ffffffffffffffff81111561416e57600080fd5b61417a88828901613fd0565b9150509295509295909350565b600080600080600060a0868803121561419f57600080fd5b60006141ad88828901613ec9565b95505060206141be88828901613ec9565b94505060406141cf88828901614039565b93505060606141e088828901614039565b925050608086013567ffffffffffffffff8111156141fd57600080fd5b61420988828901613fd0565b9150509295509295909350565b60008060006040848603121561422b57600080fd5b600061423986828701613ec9565b935050602084013567ffffffffffffffff81111561425657600080fd5b61426286828701613f08565b92509250509250925092565b600080600080600060a0868803121561428657600080fd5b600061429488828901613ec9565b955050602086013567ffffffffffffffff8111156142b157600080fd5b6142bd88828901613f52565b945050604086013567ffffffffffffffff8111156142da57600080fd5b6142e688828901613f52565b935050606086013567ffffffffffffffff81111561430357600080fd5b61430f88828901613f52565b925050608086013567ffffffffffffffff81111561432c57600080fd5b61433888828901613f52565b9150509295509295909350565b6000806040838503121561435857600080fd5b600061436685828601613ec9565b925050602061437785828601613f7c565b9150509250929050565b6000806040838503121561439457600080fd5b60006143a285828601613ec9565b92505060206143b385828601614039565b9150509250929050565b600080604083850312156143d057600080fd5b600083013567ffffffffffffffff8111156143ea57600080fd5b6143f685828601613ede565b925050602083013567ffffffffffffffff81111561441357600080fd5b61441f85828601613f52565b9150509250929050565b6000806040838503121561443c57600080fd5b600083013567ffffffffffffffff81111561445657600080fd5b61446285828601613f52565b925050602083013567ffffffffffffffff81111561447f57600080fd5b61448b85828601613f52565b9150509250929050565b6000602082840312156144a757600080fd5b60006144b584828501613f7c565b91505092915050565b6000602082840312156144d057600080fd5b60006144de84828501613f91565b91505092915050565b6000602082840312156144f957600080fd5b600061450784828501613fa6565b91505092915050565b60006020828403121561452257600080fd5b600061453084828501613fbb565b91505092915050565b6000806040838503121561454c57600080fd5b600061455a85828601613ffa565b925050602061456b85828601613ec9565b9150509250929050565b60006020828403121561458757600080fd5b600061459584828501614039565b91505092915050565b6000602082840312156145b057600080fd5b60006145be8482850161404e565b91505092915050565b6000806000604084860312156145dc57600080fd5b60006145ea86828701614039565b935050602084013567ffffffffffffffff81111561460757600080fd5b61461386828701613f08565b92509250509250925092565b6000806040838503121561463257600080fd5b600061464085828601614039565b925050602083013567ffffffffffffffff81111561465d57600080fd5b6146698582860161400f565b9150509250929050565b6000806040838503121561468657600080fd5b600061469485828601614039565b92505060206146a585828601614039565b9150509250929050565b60006146bb8383614b46565b60208301905092915050565b6146d0816152d1565b82525050565b6146e76146e2826152d1565b61544f565b82525050565b60006146f8826151c0565b61470281856151ee565b935061470d836151b0565b8060005b8381101561473e57815161472588826146af565b9750614730836151e1565b925050600181019050614711565b5085935050505092915050565b614754816152e3565b82525050565b614763816152ef565b82525050565b6000614774826151cb565b61477e81856151ff565b935061478e818560208601615370565b61479781615522565b840191505092915050565b60006147ad826151d6565b6147b78185615210565b93506147c7818560208601615370565b6147d081615522565b840191505092915050565b60006147e8603483615210565b91506147f38261554d565b604082019050919050565b600061480b602f83615210565b91506148168261559c565b604082019050919050565b600061482e602883615210565b9150614839826155eb565b604082019050919050565b6000614851601a83615210565b915061485c8261563a565b602082019050919050565b6000614874602b83615210565b915061487f82615663565b604082019050919050565b6000614897602683615210565b91506148a2826156b2565b604082019050919050565b60006148ba601e83615210565b91506148c582615701565b602082019050919050565b60006148dd602483615210565b91506148e88261572a565b604082019050919050565b6000614900601983615210565b915061490b82615779565b602082019050919050565b6000614923602a83615210565b915061492e826157a2565b604082019050919050565b6000614946601483615210565b9150614951826157f1565b602082019050919050565b6000614969602683615210565b91506149748261581a565b604082019050919050565b600061498c602583615210565b915061499782615869565b604082019050919050565b60006149af601e83615210565b91506149ba826158b8565b602082019050919050565b60006149d2602383615210565b91506149dd826158e1565b604082019050919050565b60006149f5602a83615210565b9150614a0082615930565b604082019050919050565b6000614a18602083615210565b9150614a238261597f565b602082019050919050565b6000614a3b602983615210565b9150614a46826159a8565b604082019050919050565b6000614a5e602983615210565b9150614a69826159f7565b604082019050919050565b6000614a81602983615210565b9150614a8c82615a46565b604082019050919050565b6000614aa4602983615210565b9150614aaf82615a95565b604082019050919050565b6000614ac7602a83615210565b9150614ad282615ae4565b604082019050919050565b6000614aea602883615210565b9150614af582615b33565b604082019050919050565b6000614b0d602183615210565b9150614b1882615b82565b604082019050919050565b6000614b30602a83615210565b9150614b3b82615bd1565b604082019050919050565b614b4f81615357565b82525050565b614b5e81615357565b82525050565b6000614b7082846146d6565b60148201915081905092915050565b6000602082019050614b9460008301846146c7565b92915050565b600060a082019050614baf60008301886146c7565b614bbc60208301876146c7565b8181036040830152614bce81866146ed565b90508181036060830152614be281856146ed565b90508181036080830152614bf68184614769565b90509695505050505050565b6000606082019050614c1760008301866146c7565b614c2460208301856146c7565b614c316040830184614b55565b949350505050565b600060a082019050614c4e60008301886146c7565b614c5b60208301876146c7565b614c686040830186614b55565b614c756060830185614b55565b8181036080830152614c878184614769565b90509695505050505050565b6000604082019050614ca860008301856146c7565b614cb56020830184614b55565b9392505050565b60006020820190508181036000830152614cd681846146ed565b905092915050565b60006040820190508181036000830152614cf881856146ed565b90508181036020830152614d0c81846146ed565b90509392505050565b6000602082019050614d2a600083018461474b565b92915050565b6000602082019050614d45600083018461475a565b92915050565b60006020820190508181036000830152614d6581846147a2565b905092915050565b60006020820190508181036000830152614d86816147db565b9050919050565b60006020820190508181036000830152614da6816147fe565b9050919050565b60006020820190508181036000830152614dc681614821565b9050919050565b60006020820190508181036000830152614de681614844565b9050919050565b60006020820190508181036000830152614e0681614867565b9050919050565b60006020820190508181036000830152614e268161488a565b9050919050565b60006020820190508181036000830152614e46816148ad565b9050919050565b60006020820190508181036000830152614e66816148d0565b9050919050565b60006020820190508181036000830152614e86816148f3565b9050919050565b60006020820190508181036000830152614ea681614916565b9050919050565b60006020820190508181036000830152614ec681614939565b9050919050565b60006020820190508181036000830152614ee68161495c565b9050919050565b60006020820190508181036000830152614f068161497f565b9050919050565b60006020820190508181036000830152614f26816149a2565b9050919050565b60006020820190508181036000830152614f46816149c5565b9050919050565b60006020820190508181036000830152614f66816149e8565b9050919050565b60006020820190508181036000830152614f8681614a0b565b9050919050565b60006020820190508181036000830152614fa681614a2e565b9050919050565b60006020820190508181036000830152614fc681614a51565b9050919050565b60006020820190508181036000830152614fe681614a74565b9050919050565b6000602082019050818103600083015261500681614a97565b9050919050565b6000602082019050818103600083015261502681614aba565b9050919050565b6000602082019050818103600083015261504681614add565b9050919050565b6000602082019050818103600083015261506681614b00565b9050919050565b6000602082019050818103600083015261508681614b23565b9050919050565b60006020820190506150a26000830184614b55565b92915050565b60006040820190506150bd6000830185614b55565b6150ca6020830184614b55565b9392505050565b60006150db6150ec565b90506150e782826153d5565b919050565b6000604051905090565b600067ffffffffffffffff821115615111576151106154d1565b5b602082029050602081019050919050565b600067ffffffffffffffff82111561513d5761513c6154d1565b5b602082029050602081019050919050565b600067ffffffffffffffff821115615169576151686154d1565b5b61517282615522565b9050602081019050919050565b600067ffffffffffffffff82111561519a576151996154d1565b5b6151a382615522565b9050602081019050919050565b6000819050602082019050919050565b600081519050919050565b600081519050919050565b600081519050919050565b6000602082019050919050565b600082825260208201905092915050565b600082825260208201905092915050565b600082825260208201905092915050565b600061522c82615357565b915061523783615357565b9250827fffffffffffffffffffffffffffffffffffffffffffffffffffffffffffffffff0382111561526c5761526b615473565b5b828201905092915050565b600061528282615357565b915061528d83615357565b9250817fffffffffffffffffffffffffffffffffffffffffffffffffffffffffffffffff04831182151516156152c6576152c5615473565b5b828202905092915050565b60006152dc82615337565b9050919050565b60008115159050919050565b6000819050919050565b60007fffffffff0000000000000000000000000000000000000000000000000000000082169050919050565b6000615330826152d1565b9050919050565b600073ffffffffffffffffffffffffffffffffffffffff82169050919050565b6000819050919050565b82818337600083830152505050565b60005b8381101561538e578082015181840152602081019050615373565b8381111561539d576000848401525b50505050565b600060028204905060018216806153bb57607f821691505b602082108114156153cf576153ce6154a2565b5b50919050565b6153de82615522565b810181811067ffffffffffffffff821117156153fd576153fc6154d1565b5b80604052505050565b600061541182615357565b91507fffffffffffffffffffffffffffffffffffffffffffffffffffffffffffffffff82141561544457615443615473565b5b600182019050919050565b600061545a82615461565b9050919050565b600061546c82615533565b9050919050565b7f4e487b7100000000000000000000000000000000000000000000000000000000600052601160045260246000fd5b7f4e487b7100000000000000000000000000000000000000000000000000000000600052602260045260246000fd5b7f4e487b7100000000000000000000000000000000000000000000000000000000600052604160045260246000fd5b600060033d111561551f5760046000803e61551c600051615540565b90505b90565b6000601f19601f8301169050919050565b60008160601b9050919050565b60008160e01c9050919050565b7f455243313135353a207472616e7366657220746f206e6f6e204552433131353560008201527f526563656976657220696d706c656d656e746572000000000000000000000000602082015250565b7f455243313135353a2063616c6c6572206973206e6f7420746f6b656e206f776e60008201527f6572206e6f7220617070726f7665640000000000000000000000000000000000602082015250565b7f455243313135353a204552433131353552656365697665722072656a6563746560008201527f6420746f6b656e73000000000000000000000000000000000000000000000000602082015250565b7f4d61782035204c6974654e6f646573207065722077616c6c6574000000000000600082015250565b7f41646472657373206e6f7420656c696769626c65202d20496e76616c6964206d60008201527f65726b6c652070726f6f66000000000000000000000000000000000000000000602082015250565b7f4f776e61626c653a206e6577206f776e657220697320746865207a65726f206160008201527f6464726573730000000000000000000000000000000000000000000000000000602082015250565b7f46756c6c206e6f646520636f756e742063616e6e6f74206265207a65726f0000600082015250565b7f455243313135353a206275726e20616d6f756e7420657863656564732062616c60008201527f616e636500000000000000000000000000000000000000000000000000000000602082015250565b7f57686974656c6973742073616c65206e6f742061637469766500000000000000600082015250565b7f455243313135353a2061646472657373207a65726f206973206e6f742061207660008201527f616c6964206f776e657200000000000000000000000000000000000000000000602082015250565b7f496e73756666696369656e742062616c616e6365000000000000000000000000600082015250565b7f4d617820312046756c6c4e6f64652c2035204c6974654e6f646573207065722060008201527f77616c6c65740000000000000000000000000000000000000000000000000000602082015250565b7f455243313135353a207472616e7366657220746f20746865207a65726f20616460008201527f6472657373000000000000000000000000000000000000000000000000000000602082015250565b7f4c697465206e6f646520636f756e742063616e6e6f74206265207a65726f0000600082015250565b7f455243313135353a206275726e2066726f6d20746865207a65726f206164647260008201527f6573730000000000000000000000000000000000000000000000000000000000602082015250565b7f455243313135353a20696e73756666696369656e742062616c616e636520666f60008201527f72207472616e7366657200000000000000000000000000000000000000000000602082015250565b7f4f776e61626c653a2063616c6c6572206973206e6f7420746865206f776e6572600082015250565b7f45786365656473206d61782035204c697465204e6f6465206c696d697420706560008201527f7220616464726573730000000000000000000000000000000000000000000000602082015250565b7f45786365656473206d617820312046756c6c204e6f6465206c696d697420706560008201527f7220616464726573730000000000000000000000000000000000000000000000602082015250565b7f455243313135353a2073657474696e6720617070726f76616c2073746174757360008201527f20666f722073656c660000000000000000000000000000000000000000000000602082015250565b7f455243313135353a206163636f756e747320616e6420696473206c656e67746860008201527f206d69736d617463680000000000000000000000000000000000000000000000602082015250565b7f507572636861736520776f756c6420657863656564206d6178204c697465204e60008201527f6f646520737570706c7900000000000000000000000000000000000000000000602082015250565b7f455243313135353a2069647320616e6420616d6f756e7473206c656e6774682060008201527f6d69736d61746368000000000000000000000000000000000000000000000000602082015250565b7f455243313135353a206d696e7420746f20746865207a65726f2061646472657360008201527f7300000000000000000000000000000000000000000000000000000000000000602082015250565b7f507572636861736520776f756c6420657863656564206d61782046756c6c204e60008201527f6f646520737570706c7900000000000000000000000000000000000000000000602082015250565b600060443d1015615c3057615cb3565b615c386150ec565b60043d036004823e80513d602482011167ffffffffffffffff82111715615c60575050615cb3565b808201805167ffffffffffffffff811115615c7e5750505050615cb3565b80602083010160043d038501811115615c9b575050505050615cb3565b615caa826020018501866153d5565b82955050505050505b90565b615cbf816152d1565b8114615cca57600080fd5b50565b615cd6816152e3565b8114615ce157600080fd5b50565b615ced816152f9565b8114615cf857600080fd5b50565b615d0481615325565b8114615d0f57600080fd5b50565b615d1b81615357565b8114615d2657600080fd5b5056fea26469706673582212205e863c4c854eecab46a1d92ec12b7cd4365b2ca6a2c830b2986c0879c984458664736f6c63430008040033",
  "linkReferences": {},
  "deployedLinkReferences": {}
}