{
  "_format": "hh-sol-artifact-1",
  "contractName": "SafuuX",
  "sourceName": "contracts/SafuuX.sol",
  "abi": [
    {
      "inputs": [
        {
          "internalType": "string",
          "name": "name_",
          "type": "string"
        },
        {
          "internalType": "string",
          "name": "symbol_",
          "type": "string"
        },
        {
          "internalType": "address",
          "name": "safuuTokenAddress_",
          "type": "address"
        },
        {
          "internalType": "bytes32",
          "name": "goldListMerkleRoot_",
          "type": "bytes32"
        },
        {
          "internalType": "bytes32",
          "name": "whiteListMerkleRoot_",
          "type": "bytes32"
        },
        {
          "internalType": "string",
          "name": "merkleTreeInputURI_",
          "type": "string"
        }
      ],
      "stateMutability": "nonpayable",
      "type": "constructor"
    },
    {
      "anonymous": false,
      "inputs": [
        {
          "indexed": true,
          "internalType": "address",
          "name": "account",
          "type": "address"
        },
        {
          "indexed": true,
          "internalType": "address",
          "name": "operator",
          "type": "address"
        },
        {
          "indexed": false,
          "internalType": "bool",
          "name": "approved",
          "type": "bool"
        }
      ],
      "name": "ApprovalForAll",
      "type": "event"
    },
    {
      "anonymous": false,
      "inputs": [
        {
          "indexed": true,
          "internalType": "address",
          "name": "previousOwner",
          "type": "address"
        },
        {
          "indexed": true,
          "internalType": "address",
          "name": "newOwner",
          "type": "address"
        }
      ],
      "name": "OwnershipTransferred",
      "type": "event"
    },
    {
      "anonymous": false,
      "inputs": [
        {
          "indexed": true,
          "internalType": "address",
          "name": "operator",
          "type": "address"
        },
        {
          "indexed": true,
          "internalType": "address",
          "name": "from",
          "type": "address"
        },
        {
          "indexed": true,
          "internalType": "address",
          "name": "to",
          "type": "address"
        },
        {
          "indexed": false,
          "internalType": "uint256[]",
          "name": "ids",
          "type": "uint256[]"
        },
        {
          "indexed": false,
          "internalType": "uint256[]",
          "name": "values",
          "type": "uint256[]"
        }
      ],
      "name": "TransferBatch",
      "type": "event"
    },
    {
      "anonymous": false,
      "inputs": [
        {
          "indexed": true,
          "internalType": "address",
          "name": "operator",
          "type": "address"
        },
        {
          "indexed": true,
          "internalType": "address",
          "name": "from",
          "type": "address"
        },
        {
          "indexed": true,
          "internalType": "address",
          "name": "to",
          "type": "address"
        },
        {
          "indexed": false,
          "internalType": "uint256",
          "name": "id",
          "type": "uint256"
        },
        {
          "indexed": false,
          "internalType": "uint256",
          "name": "value",
          "type": "uint256"
        }
      ],
      "name": "TransferSingle",
      "type": "event"
    },
    {
      "anonymous": false,
      "inputs": [
        {
          "indexed": false,
          "internalType": "string",
          "name": "value",
          "type": "string"
        },
        {
          "indexed": true,
          "internalType": "uint256",
          "name": "id",
          "type": "uint256"
        }
      ],
      "name": "URI",
      "type": "event"
    },
    {
      "inputs": [],
      "name": "FULL_NODE_COST",
      "outputs": [
        {
          "internalType": "uint256",
          "name": "",
          "type": "uint256"
        }
      ],
      "stateMutability": "view",
      "type": "function"
    },
    {
      "inputs": [],
      "name": "FULL_NODE_CURRENT_SUPPLY",
      "outputs": [
        {
          "internalType": "uint256",
          "name": "",
          "type": "uint256"
        }
      ],
      "stateMutability": "view",
      "type": "function"
    },
    {
      "inputs": [],
      "name": "FULL_NODE_LIMIT",
      "outputs": [
        {
          "internalType": "uint256",
          "name": "",
          "type": "uint256"
        }
      ],
      "stateMutability": "view",
      "type": "function"
    },
    {
      "inputs": [],
      "name": "LITE_NODE_COST",
      "outputs": [
        {
          "internalType": "uint256",
          "name": "",
          "type": "uint256"
        }
      ],
      "stateMutability": "view",
      "type": "function"
    },
    {
      "inputs": [],
      "name": "LITE_NODE_CURRENT_SUPPLY",
      "outputs": [
        {
          "internalType": "uint256",
          "name": "",
          "type": "uint256"
        }
      ],
      "stateMutability": "view",
      "type": "function"
    },
    {
      "inputs": [],
      "name": "LITE_NODE_LIMIT",
      "outputs": [
        {
          "internalType": "uint256",
          "name": "",
          "type": "uint256"
        }
      ],
      "stateMutability": "view",
      "type": "function"
    },
    {
      "inputs": [
        {
          "internalType": "address",
          "name": "",
          "type": "address"
        }
      ],
      "name": "_fullNodesClaimed",
      "outputs": [
        {
          "internalType": "uint256",
          "name": "",
          "type": "uint256"
        }
      ],
      "stateMutability": "view",
      "type": "function"
    },
    {
      "inputs": [],
      "name": "_goldListMerkleRoot",
      "outputs": [
        {
          "internalType": "bytes32",
          "name": "",
          "type": "bytes32"
        }
      ],
      "stateMutability": "view",
      "type": "function"
    },
    {
      "inputs": [],
      "name": "_isGoldListSaleActive",
      "outputs": [
        {
          "internalType": "bool",
          "name": "",
          "type": "bool"
        }
      ],
      "stateMutability": "view",
      "type": "function"
    },
    {
      "inputs": [],
      "name": "_isPublicMint",
      "outputs": [
        {
          "internalType": "bool",
          "name": "",
          "type": "bool"
        }
      ],
      "stateMutability": "view",
      "type": "function"
    },
    {
      "inputs": [
        {
          "internalType": "address",
          "name": "",
          "type": "address"
        }
      ],
      "name": "_liteNodesClaimed",
      "outputs": [
        {
          "internalType": "uint256",
          "name": "",
          "type": "uint256"
        }
      ],
      "stateMutability": "view",
      "type": "function"
    },
    {
      "inputs": [],
      "name": "_merkleTreeInputURI",
      "outputs": [
        {
          "internalType": "string",
          "name": "",
          "type": "string"
        }
      ],
      "stateMutability": "view",
      "type": "function"
    },
    {
      "inputs": [],
      "name": "_name",
      "outputs": [
        {
          "internalType": "string",
          "name": "",
          "type": "string"
        }
      ],
      "stateMutability": "view",
      "type": "function"
    },
    {
      "inputs": [],
      "name": "_safuuTokenAddress",
      "outputs": [
        {
          "internalType": "address",
          "name": "",
          "type": "address"
        }
      ],
      "stateMutability": "view",
      "type": "function"
    },
    {
      "inputs": [],
      "name": "_symbol",
      "outputs": [
        {
          "internalType": "string",
          "name": "",
          "type": "string"
        }
      ],
      "stateMutability": "view",
      "type": "function"
    },
    {
      "inputs": [],
      "name": "_whiteListMerkleRoot",
      "outputs": [
        {
          "internalType": "bytes32",
          "name": "",
          "type": "bytes32"
        }
      ],
      "stateMutability": "view",
      "type": "function"
    },
    {
      "inputs": [
        {
          "internalType": "address",
          "name": "account",
          "type": "address"
        },
        {
          "internalType": "uint256",
          "name": "id",
          "type": "uint256"
        }
      ],
      "name": "balanceOf",
      "outputs": [
        {
          "internalType": "uint256",
          "name": "",
          "type": "uint256"
        }
      ],
      "stateMutability": "view",
      "type": "function"
    },
    {
      "inputs": [
        {
          "internalType": "address[]",
          "name": "accounts",
          "type": "address[]"
        },
        {
          "internalType": "uint256[]",
          "name": "ids",
          "type": "uint256[]"
        }
      ],
      "name": "balanceOfBatch",
      "outputs": [
        {
          "internalType": "uint256[]",
          "name": "",
          "type": "uint256[]"
        }
      ],
      "stateMutability": "view",
      "type": "function"
    },
    {
      "inputs": [
        {
          "internalType": "uint256",
          "name": "_id",
          "type": "uint256"
        },
        {
          "internalType": "uint256",
          "name": "_amount",
          "type": "uint256"
        }
      ],
      "name": "burn",
      "outputs": [],
      "stateMutability": "nonpayable",
      "type": "function"
    },
    {
      "inputs": [
        {
          "internalType": "uint256[]",
          "name": "_ids",
          "type": "uint256[]"
        },
        {
          "internalType": "uint256[]",
          "name": "_amounts",
          "type": "uint256[]"
        }
      ],
      "name": "burnBatch",
      "outputs": [],
      "stateMutability": "nonpayable",
      "type": "function"
    },
    {
      "inputs": [
        {
          "internalType": "address",
          "name": "_from",
          "type": "address"
        },
        {
          "internalType": "uint256[]",
          "name": "_burnIds",
          "type": "uint256[]"
        },
        {
          "internalType": "uint256[]",
          "name": "_burnAmounts",
          "type": "uint256[]"
        },
        {
          "internalType": "uint256[]",
          "name": "_mintIds",
          "type": "uint256[]"
        },
        {
          "internalType": "uint256[]",
          "name": "_mintAmounts",
          "type": "uint256[]"
        }
      ],
      "name": "burnForMint",
      "outputs": [],
      "stateMutability": "nonpayable",
      "type": "function"
    },
    {
      "inputs": [
        {
          "internalType": "address",
          "name": "walletAddress",
          "type": "address"
        },
        {
          "internalType": "bytes32[]",
          "name": "merkleProof",
          "type": "bytes32[]"
        }
      ],
      "name": "checkGoldListEligibility",
      "outputs": [
        {
          "internalType": "bool",
          "name": "",
          "type": "bool"
        }
      ],
      "stateMutability": "view",
      "type": "function"
    },
    {
      "inputs": [
        {
          "internalType": "address",
          "name": "walletAddress",
          "type": "address"
        },
        {
          "internalType": "bytes32[]",
          "name": "merkleProof",
          "type": "bytes32[]"
        }
      ],
      "name": "checkWhiteListEligibility",
      "outputs": [
        {
          "internalType": "bool",
          "name": "",
          "type": "bool"
        }
      ],
      "stateMutability": "view",
      "type": "function"
    },
    {
      "inputs": [],
      "name": "getMerkleTreeInputURI",
      "outputs": [
        {
          "internalType": "string",
          "name": "",
          "type": "string"
        }
      ],
      "stateMutability": "view",
      "type": "function"
    },
    {
      "inputs": [
        {
          "internalType": "address",
          "name": "account",
          "type": "address"
        },
        {
          "internalType": "address",
          "name": "operator",
          "type": "address"
        }
      ],
      "name": "isApprovedForAll",
      "outputs": [
        {
          "internalType": "bool",
          "name": "",
          "type": "bool"
        }
      ],
      "stateMutability": "view",
      "type": "function"
    },
    {
      "inputs": [
        {
          "internalType": "uint256",
          "name": "_fullNodeCount",
          "type": "uint256"
        },
        {
          "internalType": "uint256",
          "name": "_liteNodeCount",
          "type": "uint256"
        },
        {
          "internalType": "bytes32[]",
          "name": "merkleProof",
          "type": "bytes32[]"
        }
      ],
      "name": "mintGoldList",
      "outputs": [],
      "stateMutability": "nonpayable",
      "type": "function"
    },
    {
      "inputs": [
        {
          "internalType": "uint256",
          "name": "_liteNodeCount",
          "type": "uint256"
        }
      ],
      "name": "mintLiteNode",
      "outputs": [],
      "stateMutability": "nonpayable",
      "type": "function"
    },
    {
      "inputs": [],
      "name": "name",
      "outputs": [
        {
          "internalType": "string",
          "name": "",
          "type": "string"
        }
      ],
      "stateMutability": "view",
      "type": "function"
    },
    {
      "inputs": [
        {
          "internalType": "address",
          "name": "",
          "type": "address"
        }
      ],
      "name": "nodesClaimed",
      "outputs": [
        {
          "internalType": "bool",
          "name": "",
          "type": "bool"
        }
      ],
      "stateMutability": "view",
      "type": "function"
    },
    {
      "inputs": [],
      "name": "owner",
      "outputs": [
        {
          "internalType": "address",
          "name": "",
          "type": "address"
        }
      ],
      "stateMutability": "view",
      "type": "function"
    },
    {
      "inputs": [],
      "name": "renounceOwnership",
      "outputs": [],
      "stateMutability": "nonpayable",
      "type": "function"
    },
    {
      "inputs": [
        {
          "internalType": "address",
          "name": "from",
          "type": "address"
        },
        {
          "internalType": "address",
          "name": "to",
          "type": "address"
        },
        {
          "internalType": "uint256[]",
          "name": "ids",
          "type": "uint256[]"
        },
        {
          "internalType": "uint256[]",
          "name": "amounts",
          "type": "uint256[]"
        },
        {
          "internalType": "bytes",
          "name": "data",
          "type": "bytes"
        }
      ],
      "name": "safeBatchTransferFrom",
      "outputs": [],
      "stateMutability": "nonpayable",
      "type": "function"
    },
    {
      "inputs": [
        {
          "internalType": "address",
          "name": "from",
          "type": "address"
        },
        {
          "internalType": "address",
          "name": "to",
          "type": "address"
        },
        {
          "internalType": "uint256",
          "name": "id",
          "type": "uint256"
        },
        {
          "internalType": "uint256",
          "name": "amount",
          "type": "uint256"
        },
        {
          "internalType": "bytes",
          "name": "data",
          "type": "bytes"
        }
      ],
      "name": "safeTransferFrom",
      "outputs": [],
      "stateMutability": "nonpayable",
      "type": "function"
    },
    {
      "inputs": [
        {
          "internalType": "address",
          "name": "operator",
          "type": "address"
        },
        {
          "internalType": "bool",
          "name": "approved",
          "type": "bool"
        }
      ],
      "name": "setApprovalForAll",
      "outputs": [],
      "stateMutability": "nonpayable",
      "type": "function"
    },
    {
      "inputs": [
        {
          "internalType": "uint256",
          "name": "cost",
          "type": "uint256"
        }
      ],
      "name": "setFullNodeCost",
      "outputs": [],
      "stateMutability": "nonpayable",
      "type": "function"
    },
    {
      "inputs": [
        {
          "internalType": "bool",
          "name": "_isActive",
          "type": "bool"
        }
      ],
      "name": "setGoldListSaleStatus",
      "outputs": [],
      "stateMutability": "nonpayable",
      "type": "function"
    },
    {
      "inputs": [
        {
          "internalType": "uint256",
          "name": "cost",
          "type": "uint256"
        }
      ],
      "name": "setLiteNodeCost",
      "outputs": [],
      "stateMutability": "nonpayable",
      "type": "function"
    },
    {
      "inputs": [
        {
          "internalType": "bool",
          "name": "_isActive",
          "type": "bool"
        }
      ],
      "name": "setPublicMint",
      "outputs": [],
      "stateMutability": "nonpayable",
      "type": "function"
    },
    {
      "inputs": [
        {
          "internalType": "uint256",
          "name": "_id",
          "type": "uint256"
        },
        {
          "internalType": "string",
          "name": "_uri",
          "type": "string"
        }
      ],
      "name": "setURI",
      "outputs": [],
      "stateMutability": "nonpayable",
      "type": "function"
    },
    {
      "inputs": [
        {
          "internalType": "bytes4",
          "name": "interfaceId",
          "type": "bytes4"
        }
      ],
      "name": "supportsInterface",
      "outputs": [
        {
          "internalType": "bool",
          "name": "",
          "type": "bool"
        }
      ],
      "stateMutability": "view",
      "type": "function"
    },
    {
      "inputs": [],
      "name": "symbol",
      "outputs": [
        {
          "internalType": "string",
          "name": "",
          "type": "string"
        }
      ],
      "stateMutability": "view",
      "type": "function"
    },
    {
      "inputs": [
        {
          "internalType": "uint256",
          "name": "",
          "type": "uint256"
        }
      ],
      "name": "tokenURI",
      "outputs": [
        {
          "internalType": "string",
          "name": "",
          "type": "string"
        }
      ],
      "stateMutability": "view",
      "type": "function"
    },
    {
      "inputs": [
        {
          "internalType": "address",
          "name": "newOwner",
          "type": "address"
        }
      ],
      "name": "transferOwnership",
      "outputs": [],
      "stateMutability": "nonpayable",
      "type": "function"
    },
    {
      "inputs": [
        {
          "internalType": "uint256",
          "name": "_id",
          "type": "uint256"
        }
      ],
      "name": "uri",
      "outputs": [
        {
          "internalType": "string",
          "name": "",
          "type": "string"
        }
      ],
      "stateMutability": "view",
      "type": "function"
    },
    {
      "inputs": [],
      "name": "withdrawFunds",
      "outputs": [],
      "stateMutability": "nonpayable",
      "type": "function"
    },
    {
      "inputs": [
        {
          "internalType": "contract IERC20",
          "name": "tokenContract",
          "type": "address"
        },
        {
          "internalType": "address",
          "name": "to",
          "type": "address"
        }
      ],
      "name": "withdrawTokens",
      "outputs": [],
      "stateMutability": "nonpayable",
      "type": "function"
    }
  ],
  "bytecode": "0x60c06040526000600760006101000a81548160ff0219169083151502179055506000600760016101000a81548160ff02191690831515021790555060326008556101f46009556101f4600a556105dc600b553480156200005e57600080fd5b50604051620063ca380380620063ca8339818101604052810190620000849190620003a8565b60405180602001604052806000815250620000a5816200016e60201b60201c565b50620000c6620000ba6200018a60201b60201c565b6200019260201b60201c565b8560049080519060200190620000de92919062000258565b508460059080519060200190620000f792919062000258565b5083600760026101000a81548173ffffffffffffffffffffffffffffffffffffffff021916908373ffffffffffffffffffffffffffffffffffffffff16021790555080600690805190602001906200015192919062000258565b5082608081815250508160a081815250505050505050506200066b565b80600290805190602001906200018692919062000258565b5050565b600033905090565b6000600360009054906101000a900473ffffffffffffffffffffffffffffffffffffffff16905081600360006101000a81548173ffffffffffffffffffffffffffffffffffffffff021916908373ffffffffffffffffffffffffffffffffffffffff1602179055508173ffffffffffffffffffffffffffffffffffffffff168173ffffffffffffffffffffffffffffffffffffffff167f8be0079c531659141344cd1fd0a4f28419497f9722a3daafe3b4186f6b6457e060405160405180910390a35050565b82805462000266906200055c565b90600052602060002090601f0160209004810192826200028a5760008555620002d6565b82601f10620002a557805160ff1916838001178555620002d6565b82800160010185558215620002d6579182015b82811115620002d5578251825591602001919060010190620002b8565b5b509050620002e59190620002e9565b5090565b5b8082111562000304576000816000905550600101620002ea565b5090565b60006200031f6200031984620004b2565b62000489565b9050828152602081018484840111156200033857600080fd5b6200034584828562000526565b509392505050565b6000815190506200035e8162000637565b92915050565b600081519050620003758162000651565b92915050565b600082601f8301126200038d57600080fd5b81516200039f84826020860162000308565b91505092915050565b60008060008060008060c08789031215620003c257600080fd5b600087015167ffffffffffffffff811115620003dd57600080fd5b620003eb89828a016200037b565b965050602087015167ffffffffffffffff8111156200040957600080fd5b6200041789828a016200037b565b95505060406200042a89828a016200034d565b94505060606200043d89828a0162000364565b93505060806200045089828a0162000364565b92505060a087015167ffffffffffffffff8111156200046e57600080fd5b6200047c89828a016200037b565b9150509295509295509295565b600062000495620004a8565b9050620004a3828262000592565b919050565b6000604051905090565b600067ffffffffffffffff821115620004d057620004cf620005f7565b5b620004db8262000626565b9050602081019050919050565b6000620004f58262000506565b9050919050565b6000819050919050565b600073ffffffffffffffffffffffffffffffffffffffff82169050919050565b60005b838110156200054657808201518184015260208101905062000529565b8381111562000556576000848401525b50505050565b600060028204905060018216806200057557607f821691505b602082108114156200058c576200058b620005c8565b5b50919050565b6200059d8262000626565b810181811067ffffffffffffffff82111715620005bf57620005be620005f7565b5b80604052505050565b7f4e487b7100000000000000000000000000000000000000000000000000000000600052602260045260246000fd5b7f4e487b7100000000000000000000000000000000000000000000000000000000600052604160045260246000fd5b6000601f19601f8301169050919050565b6200064281620004e8565b81146200064e57600080fd5b50565b6200065c81620004fc565b81146200066857600080fd5b50565b60805160a051615d24620006a660003960008181610a1f0152610c34015260008181611350015281816115f901526116fa0152615d246000f3fe608060405234801561001057600080fd5b50600436106102895760003560e01c80638edeb5281161015c578063c3c1e8ff116100ce578063e985e9c511610087578063e985e9c5146107b2578063ec75c2ec146107e2578063f242432a146107fe578063f2fde38b1461081a578063f48ef7b314610836578063ff9204fc1461085457610289565b8063c3c1e8ff146106de578063c87b56dd146106fc578063cd8f19a11461072c578063d28d885214610748578063df714a2314610766578063e0d0b1b01461079657610289565b8063aacffcd111610120578063aacffcd11461061a578063b09f126614610638578063b286d84614610656578063b390c0ab14610686578063b39d80cb146106a2578063b826f988146106c057610289565b80638edeb5281461058a57806395d89b41146105a65780639f4e8612146105c4578063a22cb465146105e2578063a522ad25146105fe57610289565b806330b9ff7211610200578063510f4104116101b9578063510f4104146104f05780635ce929891461050c578063715018a61461052a57806383ca4b6f14610534578063862440e2146105505780638da5cb5b1461056c57610289565b806330b9ff7214610408578063366fc60d146104265780633ea514911461045657806341c30f79146104745780634d0ac59a146104a45780634e1273f4146104c057610289565b80630e89341c116102525780630e89341c14610346578063168951901461037657806324600fc3146103945780632482751c1461039e5780632eb2c2d6146103ce5780632fa5b0cb146103ea57610289565b8062fdd58e1461028e57806301ffc9a7146102be578063041fa44e146102ee57806306fdde031461030c5780630e2d56cf1461032a575b600080fd5b6102a860048036038101906102a3919061430c565b610872565b6040516102b5919061502c565b60405180910390f35b6102d860048036038101906102d39190614472565b61093b565b6040516102e59190614cb4565b60405180910390f35b6102f6610a1d565b6040516103039190614ccf565b60405180910390f35b610314610a41565b6040516103219190614cea565b60405180910390f35b610344600480360381019061033f9190614420565b610ad3565b005b610360600480360381019061035b9190614500565b610af8565b60405161036d9190614cea565b60405180910390f35b61037e610b9d565b60405161038b9190614cb4565b60405180910390f35b61039c610bb0565b005b6103b860048036038101906103b391906141a1565b610c01565b6040516103c59190614cb4565b60405180910390f35b6103e860048036038101906103e39190614053565b610c69565b005b6103f2610d0a565b6040516103ff919061502c565b60405180910390f35b610410610d10565b60405161041d919061502c565b60405180910390f35b610440600480360381019061043b9190613fee565b610d16565b60405161044d919061502c565b60405180910390f35b61045e610d2e565b60405161046b919061502c565b60405180910390f35b61048e60048036038101906104899190613fee565b610d34565b60405161049b919061502c565b60405180910390f35b6104be60048036038101906104b99190614500565b610d4c565b005b6104da60048036038101906104d59190614348565b610de4565b6040516104e79190614c5b565b60405180910390f35b61050a600480360381019061050591906141f9565b610f95565b005b610514610fca565b604051610521919061502c565b60405180910390f35b610532610fd0565b005b61054e600480360381019061054991906143b4565b610fe4565b005b61056a60048036038101906105659190614552565b610ff3565b005b61057461105f565b6040516105819190614b1e565b60405180910390f35b6105a4600480360381019061059f9190614500565b611089565b005b6105ae61109b565b6040516105bb9190614cea565b60405180910390f35b6105cc61112d565b6040516105d99190614b1e565b60405180910390f35b6105fc60048036038101906105f791906142d0565b611153565b005b610618600480360381019061061391906144c4565b611169565b005b61062261128b565b60405161062f919061502c565b60405180910390f35b610640611291565b60405161064d9190614cea565b60405180910390f35b610670600480360381019061066b9190613fee565b61131f565b60405161067d9190614cb4565b60405180910390f35b6106a0600480360381019061069b91906145a6565b61133f565b005b6106aa61134e565b6040516106b79190614ccf565b60405180910390f35b6106c8611372565b6040516106d59190614cb4565b60405180910390f35b6106e6611385565b6040516106f39190614cea565b60405180910390f35b61071660048036038101906107119190614500565b611413565b6040516107239190614cea565b60405180910390f35b610746600480360381019061074191906145e2565b6114b3565b005b610750611639565b60405161075d9190614cea565b60405180910390f35b610780600480360381019061077b91906141a1565b6116c7565b60405161078d9190614cb4565b60405180910390f35b6107b060048036038101906107ab9190614500565b61172f565b005b6107cc60048036038101906107c79190614017565b611741565b6040516107d99190614cb4565b60405180910390f35b6107fc60048036038101906107f79190614420565b6117d5565b005b61081860048036038101906108139190614112565b6117fa565b005b610834600480360381019061082f9190613fee565b61189b565b005b61083e61191f565b60405161084b919061502c565b60405180910390f35b61085c611925565b6040516108699190614cea565b60405180910390f35b60008073ffffffffffffffffffffffffffffffffffffffff168373ffffffffffffffffffffffffffffffffffffffff1614156108e3576040517f08c379a00000000000000000000000000000000000000000000000000000000081526004016108da90614e0c565b60405180910390fd5b60008083815260200190815260200160002060008473ffffffffffffffffffffffffffffffffffffffff1673ffffffffffffffffffffffffffffffffffffffff16815260200190815260200160002054905092915050565b60007fd9b67a26000000000000000000000000000000000000000000000000000000007bffffffffffffffffffffffffffffffffffffffffffffffffffffffff1916827bffffffffffffffffffffffffffffffffffffffffffffffffffffffff19161480610a0657507f0e89341c000000000000000000000000000000000000000000000000000000007bffffffffffffffffffffffffffffffffffffffffffffffffffffffff1916827bffffffffffffffffffffffffffffffffffffffffffffffffffffffff1916145b80610a165750610a15826119b7565b5b9050919050565b7f000000000000000000000000000000000000000000000000000000000000000081565b606060048054610a5090615342565b80601f0160208091040260200160405190810160405280929190818152602001828054610a7c90615342565b8015610ac95780601f10610a9e57610100808354040283529160200191610ac9565b820191906000526020600020905b815481529060010190602001808311610aac57829003601f168201915b5050505050905090565b610adb611a21565b80600760016101000a81548160ff02191690831515021790555050565b6060600e60008381526020019081526020016000208054610b1890615342565b80601f0160208091040260200160405190810160405280929190818152602001828054610b4490615342565b8015610b915780601f10610b6657610100808354040283529160200191610b91565b820191906000526020600020905b815481529060010190602001808311610b7457829003601f168201915b50505050509050919050565b600760009054906101000a900460ff1681565b610bb8611a21565b3373ffffffffffffffffffffffffffffffffffffffff166108fc479081150290604051600060405180830381858888f19350505050158015610bfe573d6000803e3d6000fd5b50565b60008084604051602001610c159190614b03565b6040516020818303038152906040528051906020012090506000610c5b7f0000000000000000000000000000000000000000000000000000000000000000868685611a9f565b905080925050509392505050565b610c71611af7565b73ffffffffffffffffffffffffffffffffffffffff168573ffffffffffffffffffffffffffffffffffffffff161480610cb75750610cb685610cb1611af7565b611741565b5b610cf6576040517f08c379a0000000000000000000000000000000000000000000000000000000008152600401610ced90614d2c565b60405180910390fd5b610d038585858585611aff565b5050505050565b600b5481565b600a5481565b60116020528060005260406000206000915090505481565b60085481565b60106020528060005260406000206000915090505481565b6005601160003373ffffffffffffffffffffffffffffffffffffffff1673ffffffffffffffffffffffffffffffffffffffff1681526020019081526020016000205410610dce576040517f08c379a0000000000000000000000000000000000000000000000000000000008152600401610dc590614d8c565b60405180910390fd5b6000811115610de157610de081611e6d565b5b50565b60608151835114610e2a576040517f08c379a0000000000000000000000000000000000000000000000000000000008152600401610e2190614f8c565b60405180910390fd5b6000835167ffffffffffffffff811115610e6d577f4e487b7100000000000000000000000000000000000000000000000000000000600052604160045260246000fd5b604051908082528060200260200182016040528015610e9b5781602001602082028036833780820191505090505b50905060005b8451811015610f8a57610f34858281518110610ee6577f4e487b7100000000000000000000000000000000000000000000000000000000600052603260045260246000fd5b6020026020010151858381518110610f27577f4e487b7100000000000000000000000000000000000000000000000000000000600052603260045260246000fd5b6020026020010151610872565b828281518110610f6d577f4e487b7100000000000000000000000000000000000000000000000000000000600052603260045260246000fd5b60200260200101818152505080610f83906153a5565b9050610ea1565b508091505092915050565b610f9d611a21565b610fa88585856123a8565b610fc3858383604051806020016040528060008152506126c3565b5050505050565b600d5481565b610fd8611a21565b610fe2600061293c565b565b610fef3383836123a8565b5050565b610ffb611a21565b80600e60008481526020019081526020016000209080519060200190611022929190613c5d565b50817f6bb7ff708619ba0610cba295a58592e0451dee2622938c8755667688daf3529b826040516110539190614cea565b60405180910390a25050565b6000600360009054906101000a900473ffffffffffffffffffffffffffffffffffffffff16905090565b611091611a21565b8060098190555050565b6060600580546110aa90615342565b80601f01602080910402602001604051908101604052809291908181526020018280546110d690615342565b80156111235780601f106110f857610100808354040283529160200191611123565b820191906000526020600020905b81548152906001019060200180831161110657829003601f168201915b5050505050905090565b600760029054906101000a900473ffffffffffffffffffffffffffffffffffffffff1681565b61116561115e611af7565b8383612a02565b5050565b611171611a21565b8173ffffffffffffffffffffffffffffffffffffffff1663a9059cbb828473ffffffffffffffffffffffffffffffffffffffff166370a08231306040518263ffffffff1660e01b81526004016111c79190614b1e565b60206040518083038186803b1580156111df57600080fd5b505afa1580156111f3573d6000803e3d6000fd5b505050506040513d601f19601f820116820180604052508101906112179190614529565b6040518363ffffffff1660e01b8152600401611234929190614c32565b602060405180830381600087803b15801561124e57600080fd5b505af1158015611262573d6000803e3d6000fd5b505050506040513d601f19601f820116820180604052508101906112869190614449565b505050565b60095481565b6005805461129e90615342565b80601f01602080910402602001604051908101604052809291908181526020018280546112ca90615342565b80156113175780601f106112ec57610100808354040283529160200191611317565b820191906000526020600020905b8154815290600101906020018083116112fa57829003601f168201915b505050505081565b600f6020528060005260406000206000915054906101000a900460ff1681565b61134a338383612b6f565b5050565b7f000000000000000000000000000000000000000000000000000000000000000081565b600760019054906101000a900460ff1681565b6006805461139290615342565b80601f01602080910402602001604051908101604052809291908181526020018280546113be90615342565b801561140b5780601f106113e05761010080835404028352916020019161140b565b820191906000526020600020905b8154815290600101906020018083116113ee57829003601f168201915b505050505081565b600e602052806000526040600020600091509050805461143290615342565b80601f016020809104026020016040519081016040528092919081815260200182805461145e90615342565b80156114ab5780601f10611480576101008083540402835291602001916114ab565b820191906000526020600020905b81548152906001019060200180831161148e57829003601f168201915b505050505081565b60011515600760009054906101000a900460ff16151514611509576040517f08c379a000000000000000000000000000000000000000000000000000000000815260040161150090614d6c565b60405180910390fd5b60001515600f60003373ffffffffffffffffffffffffffffffffffffffff1673ffffffffffffffffffffffffffffffffffffffff16815260200190815260200160002060009054906101000a900460ff1615151461159c576040517f08c379a000000000000000000000000000000000000000000000000000000000815260040161159390614e4c565b60405180910390fd5b60008411806115ab5750600083115b6115ea576040517f08c379a00000000000000000000000000000000000000000000000000000000081526004016115e190614f0c565b60405180910390fd5b60008411156116205761161f847f00000000000000000000000000000000000000000000000000000000000000008484612db6565b5b60008311156116335761163283611e6d565b5b50505050565b6004805461164690615342565b80601f016020809104026020016040519081016040528092919081815260200182805461167290615342565b80156116bf5780601f10611694576101008083540402835291602001916116bf565b820191906000526020600020905b8154815290600101906020018083116116a257829003601f168201915b505050505081565b600080846040516020016116db9190614b03565b60405160208183030381529060405280519060200120905060006117217f0000000000000000000000000000000000000000000000000000000000000000868685611a9f565b905080925050509392505050565b611737611a21565b8060088190555050565b6000600160008473ffffffffffffffffffffffffffffffffffffffff1673ffffffffffffffffffffffffffffffffffffffff16815260200190815260200160002060008373ffffffffffffffffffffffffffffffffffffffff1673ffffffffffffffffffffffffffffffffffffffff16815260200190815260200160002060009054906101000a900460ff16905092915050565b6117dd611a21565b80600760006101000a81548160ff02191690831515021790555050565b611802611af7565b73ffffffffffffffffffffffffffffffffffffffff168573ffffffffffffffffffffffffffffffffffffffff161480611848575061184785611842611af7565b611741565b5b611887576040517f08c379a000000000000000000000000000000000000000000000000000000000815260040161187e90614d2c565b60405180910390fd5b6118948585858585613274565b5050505050565b6118a3611a21565b600073ffffffffffffffffffffffffffffffffffffffff168173ffffffffffffffffffffffffffffffffffffffff161415611913576040517f08c379a000000000000000000000000000000000000000000000000000000000815260040161190a90614dcc565b60405180910390fd5b61191c8161293c565b50565b600c5481565b60606006805461193490615342565b80601f016020809104026020016040519081016040528092919081815260200182805461196090615342565b80156119ad5780601f10611982576101008083540402835291602001916119ad565b820191906000526020600020905b81548152906001019060200180831161199057829003601f168201915b5050505050905090565b60007f01ffc9a7000000000000000000000000000000000000000000000000000000007bffffffffffffffffffffffffffffffffffffffffffffffffffffffff1916827bffffffffffffffffffffffffffffffffffffffffffffffffffffffff1916149050919050565b611a29611af7565b73ffffffffffffffffffffffffffffffffffffffff16611a4761105f565b73ffffffffffffffffffffffffffffffffffffffff1614611a9d576040517f08c379a0000000000000000000000000000000000000000000000000000000008152600401611a9490614eec565b60405180910390fd5b565b6000611aed848480806020026020016040519081016040528093929190818152602001838360200280828437600081840152601f19601f820116905080830192505050505050508684613510565b9050949350505050565b600033905090565b8151835114611b43576040517f08c379a0000000000000000000000000000000000000000000000000000000008152600401611b3a90614fcc565b60405180910390fd5b600073ffffffffffffffffffffffffffffffffffffffff168473ffffffffffffffffffffffffffffffffffffffff161415611bb3576040517f08c379a0000000000000000000000000000000000000000000000000000000008152600401611baa90614e6c565b60405180910390fd5b6000611bbd611af7565b9050611bcd818787878787613527565b60005b8451811015611dca576000858281518110611c14577f4e487b7100000000000000000000000000000000000000000000000000000000600052603260045260246000fd5b602002602001015190506000858381518110611c59577f4e487b7100000000000000000000000000000000000000000000000000000000600052603260045260246000fd5b60200260200101519050600080600084815260200190815260200160002060008b73ffffffffffffffffffffffffffffffffffffffff1673ffffffffffffffffffffffffffffffffffffffff16815260200190815260200160002054905081811015611cfa576040517f08c379a0000000000000000000000000000000000000000000000000000000008152600401611cf190614eac565b60405180910390fd5b81810360008085815260200190815260200160002060008c73ffffffffffffffffffffffffffffffffffffffff1673ffffffffffffffffffffffffffffffffffffffff168152602001908152602001600020819055508160008085815260200190815260200160002060008b73ffffffffffffffffffffffffffffffffffffffff1673ffffffffffffffffffffffffffffffffffffffff1681526020019081526020016000206000828254611daf91906151c0565b9250508190555050505080611dc3906153a5565b9050611bd0565b508473ffffffffffffffffffffffffffffffffffffffff168673ffffffffffffffffffffffffffffffffffffffff168273ffffffffffffffffffffffffffffffffffffffff167f4a39dc06d4c0dbc64b70af90fd698a233a518aa5d07e595d983b8c0526c8f7fb8787604051611e41929190614c7d565b60405180910390a4611e5781878787878761352f565b611e65818787878787613537565b505050505050565b80600681601160003373ffffffffffffffffffffffffffffffffffffffff1673ffffffffffffffffffffffffffffffffffffffff16815260200190815260200160002054611ebb91906151c0565b10611efb576040517f08c379a0000000000000000000000000000000000000000000000000000000008152600401611ef290614f2c565b60405180910390fd5b600b5481600d54611f0c91906151c0565b1115611f4d576040517f08c379a0000000000000000000000000000000000000000000000000000000008152600401611f4490614fac565b60405180910390fd5b60001515600f60003373ffffffffffffffffffffffffffffffffffffffff1673ffffffffffffffffffffffffffffffffffffffff16815260200190815260200160002060009054906101000a900460ff16151514611fe0576040517f08c379a0000000000000000000000000000000000000000000000000000000008152600401611fd790614e4c565b60405180910390fd5b80600854611fee9190615216565b600760029054906101000a900473ffffffffffffffffffffffffffffffffffffffff1673ffffffffffffffffffffffffffffffffffffffff166370a08231336040518263ffffffff1660e01b81526004016120499190614b1e565b60206040518083038186803b15801561206157600080fd5b505afa158015612075573d6000803e3d6000fd5b505050506040513d601f19601f820116820180604052508101906120999190614529565b10156120da576040517f08c379a00000000000000000000000000000000000000000000000000000000081526004016120d190614e2c565b60405180910390fd5b60011515600760019054906101000a900460ff16151514612130576040517f08c379a000000000000000000000000000000000000000000000000000000000815260040161212790614ecc565b60405180910390fd5b81600d5461213e91906151c0565b600d81905550600582601160003373ffffffffffffffffffffffffffffffffffffffff1673ffffffffffffffffffffffffffffffffffffffff1681526020019081526020016000205461219191906151c0565b1480156121dd57506001601060003373ffffffffffffffffffffffffffffffffffffffff1673ffffffffffffffffffffffffffffffffffffffff16815260200190815260200160002054145b1561223b576001600f60003373ffffffffffffffffffffffffffffffffffffffff1673ffffffffffffffffffffffffffffffffffffffff16815260200190815260200160002060006101000a81548160ff0219169083151502179055505b81601160003373ffffffffffffffffffffffffffffffffffffffff1673ffffffffffffffffffffffffffffffffffffffff1681526020019081526020016000205461228691906151c0565b601160003373ffffffffffffffffffffffffffffffffffffffff1673ffffffffffffffffffffffffffffffffffffffff16815260200190815260200160002081905550600760029054906101000a900473ffffffffffffffffffffffffffffffffffffffff1673ffffffffffffffffffffffffffffffffffffffff166323b872dd3330856008546123179190615216565b6040518463ffffffff1660e01b815260040161233593929190614ba1565b602060405180830381600087803b15801561234f57600080fd5b505af1158015612363573d6000803e3d6000fd5b505050506040513d601f19601f820116820180604052508101906123879190614449565b506123a4336002846040518060200160405280600081525061371e565b5050565b600073ffffffffffffffffffffffffffffffffffffffff168373ffffffffffffffffffffffffffffffffffffffff161415612418576040517f08c379a000000000000000000000000000000000000000000000000000000000815260040161240f90614e8c565b60405180910390fd5b805182511461245c576040517f08c379a000000000000000000000000000000000000000000000000000000000815260040161245390614fcc565b60405180910390fd5b6000612466611af7565b905061248681856000868660405180602001604052806000815250613527565b60005b835181101561261f5760008482815181106124cd577f4e487b7100000000000000000000000000000000000000000000000000000000600052603260045260246000fd5b602002602001015190506000848381518110612512577f4e487b7100000000000000000000000000000000000000000000000000000000600052603260045260246000fd5b60200260200101519050600080600084815260200190815260200160002060008973ffffffffffffffffffffffffffffffffffffffff1673ffffffffffffffffffffffffffffffffffffffff168152602001908152602001600020549050818110156125b3576040517f08c379a00000000000000000000000000000000000000000000000000000000081526004016125aa90614dec565b60405180910390fd5b81810360008085815260200190815260200160002060008a73ffffffffffffffffffffffffffffffffffffffff1673ffffffffffffffffffffffffffffffffffffffff168152602001908152602001600020819055505050508080612617906153a5565b915050612489565b50600073ffffffffffffffffffffffffffffffffffffffff168473ffffffffffffffffffffffffffffffffffffffff168273ffffffffffffffffffffffffffffffffffffffff167f4a39dc06d4c0dbc64b70af90fd698a233a518aa5d07e595d983b8c0526c8f7fb8686604051612697929190614c7d565b60405180910390a46126bd8185600086866040518060200160405280600081525061352f565b50505050565b600073ffffffffffffffffffffffffffffffffffffffff168473ffffffffffffffffffffffffffffffffffffffff161415612733576040517f08c379a000000000000000000000000000000000000000000000000000000000815260040161272a90614fec565b60405180910390fd5b8151835114612777576040517f08c379a000000000000000000000000000000000000000000000000000000000815260040161276e90614fcc565b60405180910390fd5b6000612781611af7565b905061279281600087878787613527565b60005b8451811015612897578381815181106127d7577f4e487b7100000000000000000000000000000000000000000000000000000000600052603260045260246000fd5b602002602001015160008087848151811061281b577f4e487b7100000000000000000000000000000000000000000000000000000000600052603260045260246000fd5b6020026020010151815260200190815260200160002060008873ffffffffffffffffffffffffffffffffffffffff1673ffffffffffffffffffffffffffffffffffffffff168152602001908152602001600020600082825461287d91906151c0565b92505081905550808061288f906153a5565b915050612795565b508473ffffffffffffffffffffffffffffffffffffffff16600073ffffffffffffffffffffffffffffffffffffffff168273ffffffffffffffffffffffffffffffffffffffff167f4a39dc06d4c0dbc64b70af90fd698a233a518aa5d07e595d983b8c0526c8f7fb878760405161290f929190614c7d565b60405180910390a46129268160008787878761352f565b61293581600087878787613537565b5050505050565b6000600360009054906101000a900473ffffffffffffffffffffffffffffffffffffffff16905081600360006101000a81548173ffffffffffffffffffffffffffffffffffffffff021916908373ffffffffffffffffffffffffffffffffffffffff1602179055508173ffffffffffffffffffffffffffffffffffffffff168173ffffffffffffffffffffffffffffffffffffffff167f8be0079c531659141344cd1fd0a4f28419497f9722a3daafe3b4186f6b6457e060405160405180910390a35050565b8173ffffffffffffffffffffffffffffffffffffffff168373ffffffffffffffffffffffffffffffffffffffff161415612a71576040517f08c379a0000000000000000000000000000000000000000000000000000000008152600401612a6890614f6c565b60405180910390fd5b80600160008573ffffffffffffffffffffffffffffffffffffffff1673ffffffffffffffffffffffffffffffffffffffff16815260200190815260200160002060008473ffffffffffffffffffffffffffffffffffffffff1673ffffffffffffffffffffffffffffffffffffffff16815260200190815260200160002060006101000a81548160ff0219169083151502179055508173ffffffffffffffffffffffffffffffffffffffff168373ffffffffffffffffffffffffffffffffffffffff167f17307eab39ab6107e8899845ad3d59bd9653f200f220920489ca2b5937696c3183604051612b629190614cb4565b60405180910390a3505050565b600073ffffffffffffffffffffffffffffffffffffffff168373ffffffffffffffffffffffffffffffffffffffff161415612bdf576040517f08c379a0000000000000000000000000000000000000000000000000000000008152600401612bd690614e8c565b60405180910390fd5b6000612be9611af7565b90506000612bf6846138cf565b90506000612c03846138cf565b9050612c2383876000858560405180602001604052806000815250613527565b600080600087815260200190815260200160002060008873ffffffffffffffffffffffffffffffffffffffff1673ffffffffffffffffffffffffffffffffffffffff16815260200190815260200160002054905084811015612cba576040517f08c379a0000000000000000000000000000000000000000000000000000000008152600401612cb190614dec565b60405180910390fd5b84810360008088815260200190815260200160002060008973ffffffffffffffffffffffffffffffffffffffff1673ffffffffffffffffffffffffffffffffffffffff16815260200190815260200160002081905550600073ffffffffffffffffffffffffffffffffffffffff168773ffffffffffffffffffffffffffffffffffffffff168573ffffffffffffffffffffffffffffffffffffffff167fc3d58168c5ae7397731d063d5bbf3d657854427343f4c083240f7aacaa2d0f628989604051612d87929190615047565b60405180910390a4612dad8488600086866040518060200160405280600081525061352f565b50505050505050565b83600281601060003373ffffffffffffffffffffffffffffffffffffffff1673ffffffffffffffffffffffffffffffffffffffff16815260200190815260200160002054612e0491906151c0565b10612e44576040517f08c379a0000000000000000000000000000000000000000000000000000000008152600401612e3b90614f4c565b60405180910390fd5b600a546001600c54612e5691906151c0565b1115612e97576040517f08c379a0000000000000000000000000000000000000000000000000000000008152600401612e8e9061500c565b60405180910390fd5b600954600760029054906101000a900473ffffffffffffffffffffffffffffffffffffffff1673ffffffffffffffffffffffffffffffffffffffff166370a08231336040518263ffffffff1660e01b8152600401612ef59190614b1e565b60206040518083038186803b158015612f0d57600080fd5b505afa158015612f21573d6000803e3d6000fd5b505050506040513d601f19601f82011682018060405250810190612f459190614529565b1015612f86576040517f08c379a0000000000000000000000000000000000000000000000000000000008152600401612f7d90614e2c565b60405180910390fd5b600033604051602001612f999190614b03565b60405160208183030381529060405280519060200120905060011515612fc186868685611a9f565b151514613003576040517f08c379a0000000000000000000000000000000000000000000000000000000008152600401612ffa90614dac565b60405180910390fd5b85600c5461301191906151c0565b600c81905550600186601060003373ffffffffffffffffffffffffffffffffffffffff1673ffffffffffffffffffffffffffffffffffffffff1681526020019081526020016000205461306491906151c0565b1480156130b057506005601160003373ffffffffffffffffffffffffffffffffffffffff1673ffffffffffffffffffffffffffffffffffffffff16815260200190815260200160002054145b1561310e576001600f60003373ffffffffffffffffffffffffffffffffffffffff1673ffffffffffffffffffffffffffffffffffffffff16815260200190815260200160002060006101000a81548160ff0219169083151502179055505b85601060003373ffffffffffffffffffffffffffffffffffffffff1673ffffffffffffffffffffffffffffffffffffffff1681526020019081526020016000205461315991906151c0565b601060003373ffffffffffffffffffffffffffffffffffffffff1673ffffffffffffffffffffffffffffffffffffffff16815260200190815260200160002081905550600760029054906101000a900473ffffffffffffffffffffffffffffffffffffffff1673ffffffffffffffffffffffffffffffffffffffff166323b872dd33306009546040518463ffffffff1660e01b81526004016131fd93929190614ba1565b602060405180830381600087803b15801561321757600080fd5b505af115801561322b573d6000803e3d6000fd5b505050506040513d601f19601f8201168201806040525081019061324f9190614449565b5061326c336001886040518060200160405280600081525061371e565b505050505050565b600073ffffffffffffffffffffffffffffffffffffffff168473ffffffffffffffffffffffffffffffffffffffff1614156132e4576040517f08c379a00000000000000000000000000000000000000000000000000000000081526004016132db90614e6c565b60405180910390fd5b60006132ee611af7565b905060006132fb856138cf565b90506000613308856138cf565b9050613318838989858589613527565b600080600088815260200190815260200160002060008a73ffffffffffffffffffffffffffffffffffffffff1673ffffffffffffffffffffffffffffffffffffffff168152602001908152602001600020549050858110156133af576040517f08c379a00000000000000000000000000000000000000000000000000000000081526004016133a690614eac565b60405180910390fd5b85810360008089815260200190815260200160002060008b73ffffffffffffffffffffffffffffffffffffffff1673ffffffffffffffffffffffffffffffffffffffff168152602001908152602001600020819055508560008089815260200190815260200160002060008a73ffffffffffffffffffffffffffffffffffffffff1673ffffffffffffffffffffffffffffffffffffffff168152602001908152602001600020600082825461346491906151c0565b925050819055508773ffffffffffffffffffffffffffffffffffffffff168973ffffffffffffffffffffffffffffffffffffffff168573ffffffffffffffffffffffffffffffffffffffff167fc3d58168c5ae7397731d063d5bbf3d657854427343f4c083240f7aacaa2d0f628a8a6040516134e1929190615047565b60405180910390a46134f7848a8a86868a61352f565b613505848a8a8a8a8a613995565b505050505050505050565b60008261351d8584613b7c565b1490509392505050565b505050505050565b505050505050565b6135568473ffffffffffffffffffffffffffffffffffffffff16613bf8565b15613716578373ffffffffffffffffffffffffffffffffffffffff1663bc197c8187878686866040518663ffffffff1660e01b815260040161359c959493929190614b39565b602060405180830381600087803b1580156135b657600080fd5b505af19250505080156135e757506040513d601f19601f820116820180604052508101906135e4919061449b565b60015b61368d576135f361549f565b806308c379a014156136505750613608615be5565b806136135750613652565b806040517f08c379a00000000000000000000000000000000000000000000000000000000081526004016136479190614cea565b60405180910390fd5b505b6040517f08c379a000000000000000000000000000000000000000000000000000000000815260040161368490614d0c565b60405180910390fd5b63bc197c8160e01b7bffffffffffffffffffffffffffffffffffffffffffffffffffffffff1916817bffffffffffffffffffffffffffffffffffffffffffffffffffffffff191614613714576040517f08c379a000000000000000000000000000000000000000000000000000000000815260040161370b90614d4c565b60405180910390fd5b505b505050505050565b600073ffffffffffffffffffffffffffffffffffffffff168473ffffffffffffffffffffffffffffffffffffffff16141561378e576040517f08c379a000000000000000000000000000000000000000000000000000000000815260040161378590614fec565b60405180910390fd5b6000613798611af7565b905060006137a5856138cf565b905060006137b2856138cf565b90506137c383600089858589613527565b8460008088815260200190815260200160002060008973ffffffffffffffffffffffffffffffffffffffff1673ffffffffffffffffffffffffffffffffffffffff168152602001908152602001600020600082825461382291906151c0565b925050819055508673ffffffffffffffffffffffffffffffffffffffff16600073ffffffffffffffffffffffffffffffffffffffff168473ffffffffffffffffffffffffffffffffffffffff167fc3d58168c5ae7397731d063d5bbf3d657854427343f4c083240f7aacaa2d0f6289896040516138a0929190615047565b60405180910390a46138b78360008985858961352f565b6138c683600089898989613995565b50505050505050565b60606000600167ffffffffffffffff811115613914577f4e487b7100000000000000000000000000000000000000000000000000000000600052604160045260246000fd5b6040519080825280602002602001820160405280156139425781602001602082028036833780820191505090505b5090508281600081518110613980577f4e487b7100000000000000000000000000000000000000000000000000000000600052603260045260246000fd5b60200260200101818152505080915050919050565b6139b48473ffffffffffffffffffffffffffffffffffffffff16613bf8565b15613b74578373ffffffffffffffffffffffffffffffffffffffff1663f23a6e6187878686866040518663ffffffff1660e01b81526004016139fa959493929190614bd8565b602060405180830381600087803b158015613a1457600080fd5b505af1925050508015613a4557506040513d601f19601f82011682018060405250810190613a42919061449b565b60015b613aeb57613a5161549f565b806308c379a01415613aae5750613a66615be5565b80613a715750613ab0565b806040517f08c379a0000000000000000000000000000000000000000000000000000000008152600401613aa59190614cea565b60405180910390fd5b505b6040517f08c379a0000000000000000000000000000000000000000000000000000000008152600401613ae290614d0c565b60405180910390fd5b63f23a6e6160e01b7bffffffffffffffffffffffffffffffffffffffffffffffffffffffff1916817bffffffffffffffffffffffffffffffffffffffffffffffffffffffff191614613b72576040517f08c379a0000000000000000000000000000000000000000000000000000000008152600401613b6990614d4c565b60405180910390fd5b505b505050505050565b60008082905060005b8451811015613bed57613bd882868381518110613bcb577f4e487b7100000000000000000000000000000000000000000000000000000000600052603260045260246000fd5b6020026020010151613c1b565b91508080613be5906153a5565b915050613b85565b508091505092915050565b6000808273ffffffffffffffffffffffffffffffffffffffff163b119050919050565b6000818310613c3357613c2e8284613c46565b613c3e565b613c3d8383613c46565b5b905092915050565b600082600052816020526040600020905092915050565b828054613c6990615342565b90600052602060002090601f016020900481019282613c8b5760008555613cd2565b82601f10613ca457805160ff1916838001178555613cd2565b82800160010185558215613cd2579182015b82811115613cd1578251825591602001919060010190613cb6565b5b509050613cdf9190613ce3565b5090565b5b80821115613cfc576000816000905550600101613ce4565b5090565b6000613d13613d0e84615095565b615070565b90508083825260208201905082856020860282011115613d3257600080fd5b60005b85811015613d625781613d488882613e54565b845260208401935060208301925050600181019050613d35565b5050509392505050565b6000613d7f613d7a846150c1565b615070565b90508083825260208201905082856020860282011115613d9e57600080fd5b60005b85811015613dce5781613db48882613fc4565b845260208401935060208301925050600181019050613da1565b5050509392505050565b6000613deb613de6846150ed565b615070565b905082815260208101848484011115613e0357600080fd5b613e0e848285615300565b509392505050565b6000613e29613e248461511e565b615070565b905082815260208101848484011115613e4157600080fd5b613e4c848285615300565b509392505050565b600081359050613e6381615c7b565b92915050565b600082601f830112613e7a57600080fd5b8135613e8a848260208601613d00565b91505092915050565b60008083601f840112613ea557600080fd5b8235905067ffffffffffffffff811115613ebe57600080fd5b602083019150836020820283011115613ed657600080fd5b9250929050565b600082601f830112613eee57600080fd5b8135613efe848260208601613d6c565b91505092915050565b600081359050613f1681615c92565b92915050565b600081519050613f2b81615c92565b92915050565b600081359050613f4081615ca9565b92915050565b600081519050613f5581615ca9565b92915050565b600082601f830112613f6c57600080fd5b8135613f7c848260208601613dd8565b91505092915050565b600081359050613f9481615cc0565b92915050565b600082601f830112613fab57600080fd5b8135613fbb848260208601613e16565b91505092915050565b600081359050613fd381615cd7565b92915050565b600081519050613fe881615cd7565b92915050565b60006020828403121561400057600080fd5b600061400e84828501613e54565b91505092915050565b6000806040838503121561402a57600080fd5b600061403885828601613e54565b925050602061404985828601613e54565b9150509250929050565b600080600080600060a0868803121561406b57600080fd5b600061407988828901613e54565b955050602061408a88828901613e54565b945050604086013567ffffffffffffffff8111156140a757600080fd5b6140b388828901613edd565b935050606086013567ffffffffffffffff8111156140d057600080fd5b6140dc88828901613edd565b925050608086013567ffffffffffffffff8111156140f957600080fd5b61410588828901613f5b565b9150509295509295909350565b600080600080600060a0868803121561412a57600080fd5b600061413888828901613e54565b955050602061414988828901613e54565b945050604061415a88828901613fc4565b935050606061416b88828901613fc4565b925050608086013567ffffffffffffffff81111561418857600080fd5b61419488828901613f5b565b9150509295509295909350565b6000806000604084860312156141b657600080fd5b60006141c486828701613e54565b935050602084013567ffffffffffffffff8111156141e157600080fd5b6141ed86828701613e93565b92509250509250925092565b600080600080600060a0868803121561421157600080fd5b600061421f88828901613e54565b955050602086013567ffffffffffffffff81111561423c57600080fd5b61424888828901613edd565b945050604086013567ffffffffffffffff81111561426557600080fd5b61427188828901613edd565b935050606086013567ffffffffffffffff81111561428e57600080fd5b61429a88828901613edd565b925050608086013567ffffffffffffffff8111156142b757600080fd5b6142c388828901613edd565b9150509295509295909350565b600080604083850312156142e357600080fd5b60006142f185828601613e54565b925050602061430285828601613f07565b9150509250929050565b6000806040838503121561431f57600080fd5b600061432d85828601613e54565b925050602061433e85828601613fc4565b9150509250929050565b6000806040838503121561435b57600080fd5b600083013567ffffffffffffffff81111561437557600080fd5b61438185828601613e69565b925050602083013567ffffffffffffffff81111561439e57600080fd5b6143aa85828601613edd565b9150509250929050565b600080604083850312156143c757600080fd5b600083013567ffffffffffffffff8111156143e157600080fd5b6143ed85828601613edd565b925050602083013567ffffffffffffffff81111561440a57600080fd5b61441685828601613edd565b9150509250929050565b60006020828403121561443257600080fd5b600061444084828501613f07565b91505092915050565b60006020828403121561445b57600080fd5b600061446984828501613f1c565b91505092915050565b60006020828403121561448457600080fd5b600061449284828501613f31565b91505092915050565b6000602082840312156144ad57600080fd5b60006144bb84828501613f46565b91505092915050565b600080604083850312156144d757600080fd5b60006144e585828601613f85565b92505060206144f685828601613e54565b9150509250929050565b60006020828403121561451257600080fd5b600061452084828501613fc4565b91505092915050565b60006020828403121561453b57600080fd5b600061454984828501613fd9565b91505092915050565b6000806040838503121561456557600080fd5b600061457385828601613fc4565b925050602083013567ffffffffffffffff81111561459057600080fd5b61459c85828601613f9a565b9150509250929050565b600080604083850312156145b957600080fd5b60006145c785828601613fc4565b92505060206145d885828601613fc4565b9150509250929050565b600080600080606085870312156145f857600080fd5b600061460687828801613fc4565b945050602061461787828801613fc4565b935050604085013567ffffffffffffffff81111561463457600080fd5b61464087828801613e93565b925092505092959194509250565b600061465a8383614ae5565b60208301905092915050565b61466f81615270565b82525050565b61468661468182615270565b6153ee565b82525050565b60006146978261515f565b6146a1818561518d565b93506146ac8361514f565b8060005b838110156146dd5781516146c4888261464e565b97506146cf83615180565b9250506001810190506146b0565b5085935050505092915050565b6146f381615282565b82525050565b6147028161528e565b82525050565b60006147138261516a565b61471d818561519e565b935061472d81856020860161530f565b614736816154c1565b840191505092915050565b600061474c82615175565b61475681856151af565b935061476681856020860161530f565b61476f816154c1565b840191505092915050565b60006147876034836151af565b9150614792826154ec565b604082019050919050565b60006147aa602f836151af565b91506147b58261553b565b604082019050919050565b60006147cd6028836151af565b91506147d88261558a565b604082019050919050565b60006147f06018836151af565b91506147fb826155d9565b602082019050919050565b6000614813601a836151af565b915061481e82615602565b602082019050919050565b6000614836602b836151af565b91506148418261562b565b604082019050919050565b60006148596026836151af565b91506148648261567a565b604082019050919050565b600061487c6024836151af565b9150614887826156c9565b604082019050919050565b600061489f602a836151af565b91506148aa82615718565b604082019050919050565b60006148c26014836151af565b91506148cd82615767565b602082019050919050565b60006148e56026836151af565b91506148f082615790565b604082019050919050565b60006149086025836151af565b9150614913826157df565b604082019050919050565b600061492b6023836151af565b91506149368261582e565b604082019050919050565b600061494e602a836151af565b91506149598261587d565b604082019050919050565b60006149716016836151af565b915061497c826158cc565b602082019050919050565b60006149946020836151af565b915061499f826158f5565b602082019050919050565b60006149b7602c836151af565b91506149c28261591e565b604082019050919050565b60006149da6029836151af565b91506149e58261596d565b604082019050919050565b60006149fd6029836151af565b9150614a08826159bc565b604082019050919050565b6000614a206029836151af565b9150614a2b82615a0b565b604082019050919050565b6000614a436029836151af565b9150614a4e82615a5a565b604082019050919050565b6000614a66602a836151af565b9150614a7182615aa9565b604082019050919050565b6000614a896028836151af565b9150614a9482615af8565b604082019050919050565b6000614aac6021836151af565b9150614ab782615b47565b604082019050919050565b6000614acf602a836151af565b9150614ada82615b96565b604082019050919050565b614aee816152f6565b82525050565b614afd816152f6565b82525050565b6000614b0f8284614675565b60148201915081905092915050565b6000602082019050614b336000830184614666565b92915050565b600060a082019050614b4e6000830188614666565b614b5b6020830187614666565b8181036040830152614b6d818661468c565b90508181036060830152614b81818561468c565b90508181036080830152614b958184614708565b90509695505050505050565b6000606082019050614bb66000830186614666565b614bc36020830185614666565b614bd06040830184614af4565b949350505050565b600060a082019050614bed6000830188614666565b614bfa6020830187614666565b614c076040830186614af4565b614c146060830185614af4565b8181036080830152614c268184614708565b90509695505050505050565b6000604082019050614c476000830185614666565b614c546020830184614af4565b9392505050565b60006020820190508181036000830152614c75818461468c565b905092915050565b60006040820190508181036000830152614c97818561468c565b90508181036020830152614cab818461468c565b90509392505050565b6000602082019050614cc960008301846146ea565b92915050565b6000602082019050614ce460008301846146f9565b92915050565b60006020820190508181036000830152614d048184614741565b905092915050565b60006020820190508181036000830152614d258161477a565b9050919050565b60006020820190508181036000830152614d458161479d565b9050919050565b60006020820190508181036000830152614d65816147c0565b9050919050565b60006020820190508181036000830152614d85816147e3565b9050919050565b60006020820190508181036000830152614da581614806565b9050919050565b60006020820190508181036000830152614dc581614829565b9050919050565b60006020820190508181036000830152614de58161484c565b9050919050565b60006020820190508181036000830152614e058161486f565b9050919050565b60006020820190508181036000830152614e2581614892565b9050919050565b60006020820190508181036000830152614e45816148b5565b9050919050565b60006020820190508181036000830152614e65816148d8565b9050919050565b60006020820190508181036000830152614e85816148fb565b9050919050565b60006020820190508181036000830152614ea58161491e565b9050919050565b60006020820190508181036000830152614ec581614941565b9050919050565b60006020820190508181036000830152614ee581614964565b9050919050565b60006020820190508181036000830152614f0581614987565b9050919050565b60006020820190508181036000830152614f25816149aa565b9050919050565b60006020820190508181036000830152614f45816149cd565b9050919050565b60006020820190508181036000830152614f65816149f0565b9050919050565b60006020820190508181036000830152614f8581614a13565b9050919050565b60006020820190508181036000830152614fa581614a36565b9050919050565b60006020820190508181036000830152614fc581614a59565b9050919050565b60006020820190508181036000830152614fe581614a7c565b9050919050565b6000602082019050818103600083015261500581614a9f565b9050919050565b6000602082019050818103600083015261502581614ac2565b9050919050565b60006020820190506150416000830184614af4565b92915050565b600060408201905061505c6000830185614af4565b6150696020830184614af4565b9392505050565b600061507a61508b565b90506150868282615374565b919050565b6000604051905090565b600067ffffffffffffffff8211156150b0576150af615470565b5b602082029050602081019050919050565b600067ffffffffffffffff8211156150dc576150db615470565b5b602082029050602081019050919050565b600067ffffffffffffffff82111561510857615107615470565b5b615111826154c1565b9050602081019050919050565b600067ffffffffffffffff82111561513957615138615470565b5b615142826154c1565b9050602081019050919050565b6000819050602082019050919050565b600081519050919050565b600081519050919050565b600081519050919050565b6000602082019050919050565b600082825260208201905092915050565b600082825260208201905092915050565b600082825260208201905092915050565b60006151cb826152f6565b91506151d6836152f6565b9250827fffffffffffffffffffffffffffffffffffffffffffffffffffffffffffffffff0382111561520b5761520a615412565b5b828201905092915050565b6000615221826152f6565b915061522c836152f6565b9250817fffffffffffffffffffffffffffffffffffffffffffffffffffffffffffffffff048311821515161561526557615264615412565b5b828202905092915050565b600061527b826152d6565b9050919050565b60008115159050919050565b6000819050919050565b60007fffffffff0000000000000000000000000000000000000000000000000000000082169050919050565b60006152cf82615270565b9050919050565b600073ffffffffffffffffffffffffffffffffffffffff82169050919050565b6000819050919050565b82818337600083830152505050565b60005b8381101561532d578082015181840152602081019050615312565b8381111561533c576000848401525b50505050565b6000600282049050600182168061535a57607f821691505b6020821081141561536e5761536d615441565b5b50919050565b61537d826154c1565b810181811067ffffffffffffffff8211171561539c5761539b615470565b5b80604052505050565b60006153b0826152f6565b91507fffffffffffffffffffffffffffffffffffffffffffffffffffffffffffffffff8214156153e3576153e2615412565b5b600182019050919050565b60006153f982615400565b9050919050565b600061540b826154d2565b9050919050565b7f4e487b7100000000000000000000000000000000000000000000000000000000600052601160045260246000fd5b7f4e487b7100000000000000000000000000000000000000000000000000000000600052602260045260246000fd5b7f4e487b7100000000000000000000000000000000000000000000000000000000600052604160045260246000fd5b600060033d11156154be5760046000803e6154bb6000516154df565b90505b90565b6000601f19601f8301169050919050565b60008160601b9050919050565b60008160e01c9050919050565b7f455243313135353a207472616e7366657220746f206e6f6e204552433131353560008201527f526563656976657220696d706c656d656e746572000000000000000000000000602082015250565b7f455243313135353a2063616c6c6572206973206e6f7420746f6b656e206f776e60008201527f6572206e6f7220617070726f7665640000000000000000000000000000000000602082015250565b7f455243313135353a204552433131353552656365697665722072656a6563746560008201527f6420746f6b656e73000000000000000000000000000000000000000000000000602082015250565b7f476f6c644c6973742073616c65206e6f74206163746976650000000000000000600082015250565b7f4d61782035204c6974654e6f646573207065722077616c6c6574000000000000600082015250565b7f41646472657373206e6f7420656c696769626c65202d20496e76616c6964206d60008201527f65726b6c652070726f6f66000000000000000000000000000000000000000000602082015250565b7f4f776e61626c653a206e6577206f776e657220697320746865207a65726f206160008201527f6464726573730000000000000000000000000000000000000000000000000000602082015250565b7f455243313135353a206275726e20616d6f756e7420657863656564732062616c60008201527f616e636500000000000000000000000000000000000000000000000000000000602082015250565b7f455243313135353a2061646472657373207a65726f206973206e6f742061207660008201527f616c6964206f776e657200000000000000000000000000000000000000000000602082015250565b7f496e73756666696369656e742062616c616e6365000000000000000000000000600082015250565b7f4d617820312046756c6c4e6f64652c2035204c6974654e6f646573207065722060008201527f77616c6c65740000000000000000000000000000000000000000000000000000602082015250565b7f455243313135353a207472616e7366657220746f20746865207a65726f20616460008201527f6472657373000000000000000000000000000000000000000000000000000000602082015250565b7f455243313135353a206275726e2066726f6d20746865207a65726f206164647260008201527f6573730000000000000000000000000000000000000000000000000000000000602082015250565b7f455243313135353a20696e73756666696369656e742062616c616e636520666f60008201527f72207472616e7366657200000000000000000000000000000000000000000000602082015250565b7f5075626c69632073616c65206e6f742061637469766500000000000000000000600082015250565b7f4f776e61626c653a2063616c6c6572206973206e6f7420746865206f776e6572600082015250565b7f46756c6c206e6f646520616e64204c697465206e6f646520636f756e7420636160008201527f6e6e6f74206265207a65726f0000000000000000000000000000000000000000602082015250565b7f45786365656473206d61782035204c697465204e6f6465206c696d697420706560008201527f7220616464726573730000000000000000000000000000000000000000000000602082015250565b7f45786365656473206d617820312046756c6c204e6f6465206c696d697420706560008201527f7220616464726573730000000000000000000000000000000000000000000000602082015250565b7f455243313135353a2073657474696e6720617070726f76616c2073746174757360008201527f20666f722073656c660000000000000000000000000000000000000000000000602082015250565b7f455243313135353a206163636f756e747320616e6420696473206c656e67746860008201527f206d69736d617463680000000000000000000000000000000000000000000000602082015250565b7f507572636861736520776f756c6420657863656564206d6178204c697465204e60008201527f6f646520737570706c7900000000000000000000000000000000000000000000602082015250565b7f455243313135353a2069647320616e6420616d6f756e7473206c656e6774682060008201527f6d69736d61746368000000000000000000000000000000000000000000000000602082015250565b7f455243313135353a206d696e7420746f20746865207a65726f2061646472657360008201527f7300000000000000000000000000000000000000000000000000000000000000602082015250565b7f507572636861736520776f756c6420657863656564206d61782046756c6c204e60008201527f6f646520737570706c7900000000000000000000000000000000000000000000602082015250565b600060443d1015615bf557615c78565b615bfd61508b565b60043d036004823e80513d602482011167ffffffffffffffff82111715615c25575050615c78565b808201805167ffffffffffffffff811115615c435750505050615c78565b80602083010160043d038501811115615c60575050505050615c78565b615c6f82602001850186615374565b82955050505050505b90565b615c8481615270565b8114615c8f57600080fd5b50565b615c9b81615282565b8114615ca657600080fd5b50565b615cb281615298565b8114615cbd57600080fd5b50565b615cc9816152c4565b8114615cd457600080fd5b50565b615ce0816152f6565b8114615ceb57600080fd5b5056fea26469706673582212208d551e563e207e1b174dd053637f5044229f1167edba9d78fc69b6f2025d4b7b64736f6c63430008040033",
  "linkReferences": {},
  "deployedLinkReferences": {}
}