{
  "_format": "hh-sol-artifact-1",
  "contractName": "SafuuX",
  "sourceName": "contracts/SafuuX.sol",
  "abi": [
    {
      "inputs": [
        {
          "internalType": "string",
          "name": "name_",
          "type": "string"
        },
        {
          "internalType": "string",
          "name": "symbol_",
          "type": "string"
        },
        {
          "internalType": "address",
          "name": "safuuTokenAddress_",
          "type": "address"
        },
        {
          "internalType": "bytes32",
          "name": "goldListMerkleRoot_",
          "type": "bytes32"
        },
        {
          "internalType": "bytes32",
          "name": "whiteListMerkleRoot_",
          "type": "bytes32"
        },
        {
          "internalType": "string",
          "name": "merkleTreeInputURI_",
          "type": "string"
        }
      ],
      "stateMutability": "nonpayable",
      "type": "constructor"
    },
    {
      "anonymous": false,
      "inputs": [
        {
          "indexed": true,
          "internalType": "address",
          "name": "account",
          "type": "address"
        },
        {
          "indexed": true,
          "internalType": "address",
          "name": "operator",
          "type": "address"
        },
        {
          "indexed": false,
          "internalType": "bool",
          "name": "approved",
          "type": "bool"
        }
      ],
      "name": "ApprovalForAll",
      "type": "event"
    },
    {
      "anonymous": false,
      "inputs": [
        {
          "indexed": true,
          "internalType": "address",
          "name": "previousOwner",
          "type": "address"
        },
        {
          "indexed": true,
          "internalType": "address",
          "name": "newOwner",
          "type": "address"
        }
      ],
      "name": "OwnershipTransferred",
      "type": "event"
    },
    {
      "anonymous": false,
      "inputs": [
        {
          "indexed": true,
          "internalType": "address",
          "name": "operator",
          "type": "address"
        },
        {
          "indexed": true,
          "internalType": "address",
          "name": "from",
          "type": "address"
        },
        {
          "indexed": true,
          "internalType": "address",
          "name": "to",
          "type": "address"
        },
        {
          "indexed": false,
          "internalType": "uint256[]",
          "name": "ids",
          "type": "uint256[]"
        },
        {
          "indexed": false,
          "internalType": "uint256[]",
          "name": "values",
          "type": "uint256[]"
        }
      ],
      "name": "TransferBatch",
      "type": "event"
    },
    {
      "anonymous": false,
      "inputs": [
        {
          "indexed": true,
          "internalType": "address",
          "name": "operator",
          "type": "address"
        },
        {
          "indexed": true,
          "internalType": "address",
          "name": "from",
          "type": "address"
        },
        {
          "indexed": true,
          "internalType": "address",
          "name": "to",
          "type": "address"
        },
        {
          "indexed": false,
          "internalType": "uint256",
          "name": "id",
          "type": "uint256"
        },
        {
          "indexed": false,
          "internalType": "uint256",
          "name": "value",
          "type": "uint256"
        }
      ],
      "name": "TransferSingle",
      "type": "event"
    },
    {
      "anonymous": false,
      "inputs": [
        {
          "indexed": false,
          "internalType": "string",
          "name": "value",
          "type": "string"
        },
        {
          "indexed": true,
          "internalType": "uint256",
          "name": "id",
          "type": "uint256"
        }
      ],
      "name": "URI",
      "type": "event"
    },
    {
      "inputs": [],
      "name": "FULL_NODE_COST",
      "outputs": [
        {
          "internalType": "uint256",
          "name": "",
          "type": "uint256"
        }
      ],
      "stateMutability": "view",
      "type": "function"
    },
    {
      "inputs": [],
      "name": "FULL_NODE_CURRENT_SUPPLY",
      "outputs": [
        {
          "internalType": "uint256",
          "name": "",
          "type": "uint256"
        }
      ],
      "stateMutability": "view",
      "type": "function"
    },
    {
      "inputs": [],
      "name": "FULL_NODE_LIMIT",
      "outputs": [
        {
          "internalType": "uint256",
          "name": "",
          "type": "uint256"
        }
      ],
      "stateMutability": "view",
      "type": "function"
    },
    {
      "inputs": [],
      "name": "LITE_NODE_COST",
      "outputs": [
        {
          "internalType": "uint256",
          "name": "",
          "type": "uint256"
        }
      ],
      "stateMutability": "view",
      "type": "function"
    },
    {
      "inputs": [],
      "name": "LITE_NODE_CURRENT_SUPPLY",
      "outputs": [
        {
          "internalType": "uint256",
          "name": "",
          "type": "uint256"
        }
      ],
      "stateMutability": "view",
      "type": "function"
    },
    {
      "inputs": [],
      "name": "LITE_NODE_LIMIT",
      "outputs": [
        {
          "internalType": "uint256",
          "name": "",
          "type": "uint256"
        }
      ],
      "stateMutability": "view",
      "type": "function"
    },
    {
      "inputs": [
        {
          "internalType": "address",
          "name": "",
          "type": "address"
        }
      ],
      "name": "_fullNodesClaimed",
      "outputs": [
        {
          "internalType": "uint256",
          "name": "",
          "type": "uint256"
        }
      ],
      "stateMutability": "view",
      "type": "function"
    },
    {
      "inputs": [],
      "name": "_goldListMerkleRoot",
      "outputs": [
        {
          "internalType": "bytes32",
          "name": "",
          "type": "bytes32"
        }
      ],
      "stateMutability": "view",
      "type": "function"
    },
    {
      "inputs": [],
      "name": "_isGoldListSaleActive",
      "outputs": [
        {
          "internalType": "bool",
          "name": "",
          "type": "bool"
        }
      ],
      "stateMutability": "view",
      "type": "function"
    },
    {
      "inputs": [],
      "name": "_isWhiteListSaleActive",
      "outputs": [
        {
          "internalType": "bool",
          "name": "",
          "type": "bool"
        }
      ],
      "stateMutability": "view",
      "type": "function"
    },
    {
      "inputs": [
        {
          "internalType": "address",
          "name": "",
          "type": "address"
        }
      ],
      "name": "_liteNodesClaimed",
      "outputs": [
        {
          "internalType": "uint256",
          "name": "",
          "type": "uint256"
        }
      ],
      "stateMutability": "view",
      "type": "function"
    },
    {
      "inputs": [],
      "name": "_merkleTreeInputURI",
      "outputs": [
        {
          "internalType": "string",
          "name": "",
          "type": "string"
        }
      ],
      "stateMutability": "view",
      "type": "function"
    },
    {
      "inputs": [],
      "name": "_name",
      "outputs": [
        {
          "internalType": "string",
          "name": "",
          "type": "string"
        }
      ],
      "stateMutability": "view",
      "type": "function"
    },
    {
      "inputs": [],
      "name": "_safuuTokenAddress",
      "outputs": [
        {
          "internalType": "address",
          "name": "",
          "type": "address"
        }
      ],
      "stateMutability": "view",
      "type": "function"
    },
    {
      "inputs": [],
      "name": "_symbol",
      "outputs": [
        {
          "internalType": "string",
          "name": "",
          "type": "string"
        }
      ],
      "stateMutability": "view",
      "type": "function"
    },
    {
      "inputs": [],
      "name": "_whiteListMerkleRoot",
      "outputs": [
        {
          "internalType": "bytes32",
          "name": "",
          "type": "bytes32"
        }
      ],
      "stateMutability": "view",
      "type": "function"
    },
    {
      "inputs": [
        {
          "internalType": "address",
          "name": "account",
          "type": "address"
        },
        {
          "internalType": "uint256",
          "name": "id",
          "type": "uint256"
        }
      ],
      "name": "balanceOf",
      "outputs": [
        {
          "internalType": "uint256",
          "name": "",
          "type": "uint256"
        }
      ],
      "stateMutability": "view",
      "type": "function"
    },
    {
      "inputs": [
        {
          "internalType": "address[]",
          "name": "accounts",
          "type": "address[]"
        },
        {
          "internalType": "uint256[]",
          "name": "ids",
          "type": "uint256[]"
        }
      ],
      "name": "balanceOfBatch",
      "outputs": [
        {
          "internalType": "uint256[]",
          "name": "",
          "type": "uint256[]"
        }
      ],
      "stateMutability": "view",
      "type": "function"
    },
    {
      "inputs": [
        {
          "internalType": "uint256",
          "name": "_id",
          "type": "uint256"
        },
        {
          "internalType": "uint256",
          "name": "_amount",
          "type": "uint256"
        }
      ],
      "name": "burn",
      "outputs": [],
      "stateMutability": "nonpayable",
      "type": "function"
    },
    {
      "inputs": [
        {
          "internalType": "uint256[]",
          "name": "_ids",
          "type": "uint256[]"
        },
        {
          "internalType": "uint256[]",
          "name": "_amounts",
          "type": "uint256[]"
        }
      ],
      "name": "burnBatch",
      "outputs": [],
      "stateMutability": "nonpayable",
      "type": "function"
    },
    {
      "inputs": [
        {
          "internalType": "address",
          "name": "_from",
          "type": "address"
        },
        {
          "internalType": "uint256[]",
          "name": "_burnIds",
          "type": "uint256[]"
        },
        {
          "internalType": "uint256[]",
          "name": "_burnAmounts",
          "type": "uint256[]"
        },
        {
          "internalType": "uint256[]",
          "name": "_mintIds",
          "type": "uint256[]"
        },
        {
          "internalType": "uint256[]",
          "name": "_mintAmounts",
          "type": "uint256[]"
        }
      ],
      "name": "burnForMint",
      "outputs": [],
      "stateMutability": "nonpayable",
      "type": "function"
    },
    {
      "inputs": [
        {
          "internalType": "address",
          "name": "walletAddress",
          "type": "address"
        },
        {
          "internalType": "bytes32[]",
          "name": "merkleProof",
          "type": "bytes32[]"
        }
      ],
      "name": "checkGoldListEligibility",
      "outputs": [
        {
          "internalType": "bool",
          "name": "",
          "type": "bool"
        }
      ],
      "stateMutability": "view",
      "type": "function"
    },
    {
      "inputs": [
        {
          "internalType": "address",
          "name": "walletAddress",
          "type": "address"
        },
        {
          "internalType": "bytes32[]",
          "name": "merkleProof",
          "type": "bytes32[]"
        }
      ],
      "name": "checkWhiteListEligibility",
      "outputs": [
        {
          "internalType": "bool",
          "name": "",
          "type": "bool"
        }
      ],
      "stateMutability": "view",
      "type": "function"
    },
    {
      "inputs": [],
      "name": "getMerkleTreeInputURI",
      "outputs": [
        {
          "internalType": "string",
          "name": "",
          "type": "string"
        }
      ],
      "stateMutability": "view",
      "type": "function"
    },
    {
      "inputs": [
        {
          "internalType": "address",
          "name": "account",
          "type": "address"
        },
        {
          "internalType": "address",
          "name": "operator",
          "type": "address"
        }
      ],
      "name": "isApprovedForAll",
      "outputs": [
        {
          "internalType": "bool",
          "name": "",
          "type": "bool"
        }
      ],
      "stateMutability": "view",
      "type": "function"
    },
    {
      "inputs": [
        {
          "internalType": "uint256",
          "name": "_fullNodeCount",
          "type": "uint256"
        },
        {
          "internalType": "uint256",
          "name": "_liteNodeCount",
          "type": "uint256"
        },
        {
          "internalType": "bytes32[]",
          "name": "merkleProof",
          "type": "bytes32[]"
        }
      ],
      "name": "mintGoldList",
      "outputs": [],
      "stateMutability": "nonpayable",
      "type": "function"
    },
    {
      "inputs": [
        {
          "internalType": "uint256",
          "name": "_fullNodeCount",
          "type": "uint256"
        },
        {
          "internalType": "uint256",
          "name": "_liteNodeCount",
          "type": "uint256"
        },
        {
          "internalType": "bytes32[]",
          "name": "merkleProof",
          "type": "bytes32[]"
        }
      ],
      "name": "mintWhiteList",
      "outputs": [],
      "stateMutability": "nonpayable",
      "type": "function"
    },
    {
      "inputs": [],
      "name": "name",
      "outputs": [
        {
          "internalType": "string",
          "name": "",
          "type": "string"
        }
      ],
      "stateMutability": "view",
      "type": "function"
    },
    {
      "inputs": [
        {
          "internalType": "address",
          "name": "",
          "type": "address"
        }
      ],
      "name": "nodesClaimed",
      "outputs": [
        {
          "internalType": "bool",
          "name": "",
          "type": "bool"
        }
      ],
      "stateMutability": "view",
      "type": "function"
    },
    {
      "inputs": [],
      "name": "owner",
      "outputs": [
        {
          "internalType": "address",
          "name": "",
          "type": "address"
        }
      ],
      "stateMutability": "view",
      "type": "function"
    },
    {
      "inputs": [],
      "name": "renounceOwnership",
      "outputs": [],
      "stateMutability": "nonpayable",
      "type": "function"
    },
    {
      "inputs": [
        {
          "internalType": "address",
          "name": "from",
          "type": "address"
        },
        {
          "internalType": "address",
          "name": "to",
          "type": "address"
        },
        {
          "internalType": "uint256[]",
          "name": "ids",
          "type": "uint256[]"
        },
        {
          "internalType": "uint256[]",
          "name": "amounts",
          "type": "uint256[]"
        },
        {
          "internalType": "bytes",
          "name": "data",
          "type": "bytes"
        }
      ],
      "name": "safeBatchTransferFrom",
      "outputs": [],
      "stateMutability": "nonpayable",
      "type": "function"
    },
    {
      "inputs": [
        {
          "internalType": "address",
          "name": "from",
          "type": "address"
        },
        {
          "internalType": "address",
          "name": "to",
          "type": "address"
        },
        {
          "internalType": "uint256",
          "name": "id",
          "type": "uint256"
        },
        {
          "internalType": "uint256",
          "name": "amount",
          "type": "uint256"
        },
        {
          "internalType": "bytes",
          "name": "data",
          "type": "bytes"
        }
      ],
      "name": "safeTransferFrom",
      "outputs": [],
      "stateMutability": "nonpayable",
      "type": "function"
    },
    {
      "inputs": [
        {
          "internalType": "address",
          "name": "operator",
          "type": "address"
        },
        {
          "internalType": "bool",
          "name": "approved",
          "type": "bool"
        }
      ],
      "name": "setApprovalForAll",
      "outputs": [],
      "stateMutability": "nonpayable",
      "type": "function"
    },
    {
      "inputs": [
        {
          "internalType": "uint256",
          "name": "cost",
          "type": "uint256"
        }
      ],
      "name": "setFullNodeCost",
      "outputs": [],
      "stateMutability": "nonpayable",
      "type": "function"
    },
    {
      "inputs": [
        {
          "internalType": "bool",
          "name": "_isActive",
          "type": "bool"
        }
      ],
      "name": "setGoldListSaleStatus",
      "outputs": [],
      "stateMutability": "nonpayable",
      "type": "function"
    },
    {
      "inputs": [
        {
          "internalType": "uint256",
          "name": "cost",
          "type": "uint256"
        }
      ],
      "name": "setLiteNodeCost",
      "outputs": [],
      "stateMutability": "nonpayable",
      "type": "function"
    },
    {
      "inputs": [
        {
          "internalType": "uint256",
          "name": "_id",
          "type": "uint256"
        },
        {
          "internalType": "string",
          "name": "_uri",
          "type": "string"
        }
      ],
      "name": "setURI",
      "outputs": [],
      "stateMutability": "nonpayable",
      "type": "function"
    },
    {
      "inputs": [
        {
          "internalType": "bool",
          "name": "_isActive",
          "type": "bool"
        }
      ],
      "name": "setWhiteListSaleStatus",
      "outputs": [],
      "stateMutability": "nonpayable",
      "type": "function"
    },
    {
      "inputs": [
        {
          "internalType": "bytes4",
          "name": "interfaceId",
          "type": "bytes4"
        }
      ],
      "name": "supportsInterface",
      "outputs": [
        {
          "internalType": "bool",
          "name": "",
          "type": "bool"
        }
      ],
      "stateMutability": "view",
      "type": "function"
    },
    {
      "inputs": [],
      "name": "symbol",
      "outputs": [
        {
          "internalType": "string",
          "name": "",
          "type": "string"
        }
      ],
      "stateMutability": "view",
      "type": "function"
    },
    {
      "inputs": [
        {
          "internalType": "uint256",
          "name": "",
          "type": "uint256"
        }
      ],
      "name": "tokenURI",
      "outputs": [
        {
          "internalType": "string",
          "name": "",
          "type": "string"
        }
      ],
      "stateMutability": "view",
      "type": "function"
    },
    {
      "inputs": [
        {
          "internalType": "address",
          "name": "newOwner",
          "type": "address"
        }
      ],
      "name": "transferOwnership",
      "outputs": [],
      "stateMutability": "nonpayable",
      "type": "function"
    },
    {
      "inputs": [
        {
          "internalType": "uint256",
          "name": "_id",
          "type": "uint256"
        }
      ],
      "name": "uri",
      "outputs": [
        {
          "internalType": "string",
          "name": "",
          "type": "string"
        }
      ],
      "stateMutability": "view",
      "type": "function"
    },
    {
      "inputs": [],
      "name": "withdrawFunds",
      "outputs": [],
      "stateMutability": "nonpayable",
      "type": "function"
    },
    {
      "inputs": [
        {
          "internalType": "contract IERC20",
          "name": "tokenContract",
          "type": "address"
        },
        {
          "internalType": "address",
          "name": "to",
          "type": "address"
        }
      ],
      "name": "withdrawTokens",
      "outputs": [],
      "stateMutability": "nonpayable",
      "type": "function"
    }
  ],
  "bytecode": "0x60c06040526000600760006101000a81548160ff0219169083151502179055506000600760016101000a81548160ff02191690831515021790555060326008556101f46009556101f4600a556105dc600b553480156200005e57600080fd5b5060405162006508380380620065088339818101604052810190620000849190620003a8565b60405180602001604052806000815250620000a5816200016e60201b60201c565b50620000c6620000ba6200018a60201b60201c565b6200019260201b60201c565b8560049080519060200190620000de92919062000258565b508460059080519060200190620000f792919062000258565b5083600760026101000a81548173ffffffffffffffffffffffffffffffffffffffff021916908373ffffffffffffffffffffffffffffffffffffffff16021790555080600690805190602001906200015192919062000258565b5082608081815250508160a081815250505050505050506200066b565b80600290805190602001906200018692919062000258565b5050565b600033905090565b6000600360009054906101000a900473ffffffffffffffffffffffffffffffffffffffff16905081600360006101000a81548173ffffffffffffffffffffffffffffffffffffffff021916908373ffffffffffffffffffffffffffffffffffffffff1602179055508173ffffffffffffffffffffffffffffffffffffffff168173ffffffffffffffffffffffffffffffffffffffff167f8be0079c531659141344cd1fd0a4f28419497f9722a3daafe3b4186f6b6457e060405160405180910390a35050565b82805462000266906200055c565b90600052602060002090601f0160209004810192826200028a5760008555620002d6565b82601f10620002a557805160ff1916838001178555620002d6565b82800160010185558215620002d6579182015b82811115620002d5578251825591602001919060010190620002b8565b5b509050620002e59190620002e9565b5090565b5b8082111562000304576000816000905550600101620002ea565b5090565b60006200031f6200031984620004b2565b62000489565b9050828152602081018484840111156200033857600080fd5b6200034584828562000526565b509392505050565b6000815190506200035e8162000637565b92915050565b600081519050620003758162000651565b92915050565b600082601f8301126200038d57600080fd5b81516200039f84826020860162000308565b91505092915050565b60008060008060008060c08789031215620003c257600080fd5b600087015167ffffffffffffffff811115620003dd57600080fd5b620003eb89828a016200037b565b965050602087015167ffffffffffffffff8111156200040957600080fd5b6200041789828a016200037b565b95505060406200042a89828a016200034d565b94505060606200043d89828a0162000364565b93505060806200045089828a0162000364565b92505060a087015167ffffffffffffffff8111156200046e57600080fd5b6200047c89828a016200037b565b9150509295509295509295565b600062000495620004a8565b9050620004a3828262000592565b919050565b6000604051905090565b600067ffffffffffffffff821115620004d057620004cf620005f7565b5b620004db8262000626565b9050602081019050919050565b6000620004f58262000506565b9050919050565b6000819050919050565b600073ffffffffffffffffffffffffffffffffffffffff82169050919050565b60005b838110156200054657808201518184015260208101905062000529565b8381111562000556576000848401525b50505050565b600060028204905060018216806200057557607f821691505b602082108114156200058c576200058b620005c8565b5b50919050565b6200059d8262000626565b810181811067ffffffffffffffff82111715620005bf57620005be620005f7565b5b80604052505050565b7f4e487b7100000000000000000000000000000000000000000000000000000000600052602260045260246000fd5b7f4e487b7100000000000000000000000000000000000000000000000000000000600052604160045260246000fd5b6000601f19601f8301169050919050565b6200064281620004e8565b81146200064e57600080fd5b50565b6200065c81620004fc565b81146200066857600080fd5b50565b60805160a051615e4d620006bb60003960008181610a1f01528181610c0f015281816117a001526117d6015260008181611293015281816115290152818161155f01526118360152615e4d6000f3fe608060405234801561001057600080fd5b50600436106102895760003560e01c80639f4e86121161015c578063d28d8852116100ce578063ec75c2ec11610087578063ec75c2ec146107c4578063f11207d8146107e0578063f242432a146107fe578063f2fde38b1461081a578063f48ef7b314610836578063ff9204fc1461085457610289565b8063d28d8852146106f2578063d55690cc14610710578063de9c4dc81461072c578063df714a2314610748578063e0d0b1b014610778578063e985e9c51461079457610289565b8063b286d84611610120578063b286d8461461061e578063b390c0ab1461064e578063b39d80cb1461066a578063c3c1e8ff14610688578063c87b56dd146106a6578063cd8f19a1146106d657610289565b80639f4e86121461058c578063a22cb465146105aa578063a522ad25146105c6578063aacffcd1146105e2578063b09f12661461060057610289565b8063366fc60d11610200578063715018a6116101b9578063715018a6146104f257806383ca4b6f146104fc578063862440e2146105185780638da5cb5b146105345780638edeb5281461055257806395d89b411461056e57610289565b8063366fc60d1461040a5780633ea514911461043a57806341c30f79146104585780634e1273f414610488578063510f4104146104b85780635ce92989146104d457610289565b80631689519011610252578063168951901461035a57806324600fc3146103785780632482751c146103825780632eb2c2d6146103b25780632fa5b0cb146103ce57806330b9ff72146103ec57610289565b8062fdd58e1461028e57806301ffc9a7146102be578063041fa44e146102ee57806306fdde031461030c5780630e89341c1461032a575b600080fd5b6102a860048036038101906102a391906144a1565b610872565b6040516102b5919061517e565b60405180910390f35b6102d860048036038101906102d39190614607565b61093b565b6040516102e59190614e26565b60405180910390f35b6102f6610a1d565b6040516103039190614e41565b60405180910390f35b610314610a41565b6040516103219190614e5c565b60405180910390f35b610344600480360381019061033f9190614695565b610ad3565b6040516103519190614e5c565b60405180910390f35b610362610b78565b60405161036f9190614e26565b60405180910390f35b610380610b8b565b005b61039c60048036038101906103979190614336565b610bdc565b6040516103a99190614e26565b60405180910390f35b6103cc60048036038101906103c791906141e8565b610c44565b005b6103d6610ce5565b6040516103e3919061517e565b60405180910390f35b6103f4610ceb565b604051610401919061517e565b60405180910390f35b610424600480360381019061041f9190614183565b610cf1565b604051610431919061517e565b60405180910390f35b610442610d09565b60405161044f919061517e565b60405180910390f35b610472600480360381019061046d9190614183565b610d0f565b60405161047f919061517e565b60405180910390f35b6104a2600480360381019061049d91906144dd565b610d27565b6040516104af9190614dcd565b60405180910390f35b6104d260048036038101906104cd919061438e565b610ed8565b005b6104dc610f0d565b6040516104e9919061517e565b60405180910390f35b6104fa610f13565b005b61051660048036038101906105119190614549565b610f27565b005b610532600480360381019061052d91906146e7565b610f36565b005b61053c610fa2565b6040516105499190614c90565b60405180910390f35b61056c60048036038101906105679190614695565b610fcc565b005b610576610fde565b6040516105839190614e5c565b60405180910390f35b610594611070565b6040516105a19190614c90565b60405180910390f35b6105c460048036038101906105bf9190614465565b611096565b005b6105e060048036038101906105db9190614659565b6110ac565b005b6105ea6111ce565b6040516105f7919061517e565b60405180910390f35b6106086111d4565b6040516106159190614e5c565b60405180910390f35b61063860048036038101906106339190614183565b611262565b6040516106459190614e26565b60405180910390f35b6106686004803603810190610663919061473b565b611282565b005b610672611291565b60405161067f9190614e41565b60405180910390f35b6106906112b5565b60405161069d9190614e5c565b60405180910390f35b6106c060048036038101906106bb9190614695565b611343565b6040516106cd9190614e5c565b60405180910390f35b6106f060048036038101906106eb9190614777565b6113e3565b005b6106fa61158c565b6040516107079190614e5c565b60405180910390f35b61072a600480360381019061072591906145b5565b61161a565b005b61074660048036038101906107419190614777565b61165a565b005b610762600480360381019061075d9190614336565b611803565b60405161076f9190614e26565b60405180910390f35b610792600480360381019061078d9190614695565b61186b565b005b6107ae60048036038101906107a991906141ac565b61187d565b6040516107bb9190614e26565b60405180910390f35b6107de60048036038101906107d991906145b5565b611911565b005b6107e8611951565b6040516107f59190614e26565b60405180910390f35b610818600480360381019061081391906142a7565b611964565b005b610834600480360381019061082f9190614183565b611a05565b005b61083e611a89565b60405161084b919061517e565b60405180910390f35b61085c611a8f565b6040516108699190614e5c565b60405180910390f35b60008073ffffffffffffffffffffffffffffffffffffffff168373ffffffffffffffffffffffffffffffffffffffff1614156108e3576040517f08c379a00000000000000000000000000000000000000000000000000000000081526004016108da90614f5e565b60405180910390fd5b60008083815260200190815260200160002060008473ffffffffffffffffffffffffffffffffffffffff1673ffffffffffffffffffffffffffffffffffffffff16815260200190815260200160002054905092915050565b60007fd9b67a26000000000000000000000000000000000000000000000000000000007bffffffffffffffffffffffffffffffffffffffffffffffffffffffff1916827bffffffffffffffffffffffffffffffffffffffffffffffffffffffff19161480610a0657507f0e89341c000000000000000000000000000000000000000000000000000000007bffffffffffffffffffffffffffffffffffffffffffffffffffffffff1916827bffffffffffffffffffffffffffffffffffffffffffffffffffffffff1916145b80610a165750610a1582611b21565b5b9050919050565b7f000000000000000000000000000000000000000000000000000000000000000081565b606060048054610a5090615494565b80601f0160208091040260200160405190810160405280929190818152602001828054610a7c90615494565b8015610ac95780601f10610a9e57610100808354040283529160200191610ac9565b820191906000526020600020905b815481529060010190602001808311610aac57829003601f168201915b5050505050905090565b6060600e60008381526020019081526020016000208054610af390615494565b80601f0160208091040260200160405190810160405280929190818152602001828054610b1f90615494565b8015610b6c5780601f10610b4157610100808354040283529160200191610b6c565b820191906000526020600020905b815481529060010190602001808311610b4f57829003601f168201915b50505050509050919050565b600760009054906101000a900460ff1681565b610b93611b8b565b3373ffffffffffffffffffffffffffffffffffffffff166108fc479081150290604051600060405180830381858888f19350505050158015610bd9573d6000803e3d6000fd5b50565b60008084604051602001610bf09190614c75565b6040516020818303038152906040528051906020012090506000610c367f0000000000000000000000000000000000000000000000000000000000000000868685611c09565b905080925050509392505050565b610c4c611c61565b73ffffffffffffffffffffffffffffffffffffffff168573ffffffffffffffffffffffffffffffffffffffff161480610c925750610c9185610c8c611c61565b61187d565b5b610cd1576040517f08c379a0000000000000000000000000000000000000000000000000000000008152600401610cc890614e9e565b60405180910390fd5b610cde8585858585611c69565b5050505050565b600b5481565b600a5481565b60116020528060005260406000206000915090505481565b60085481565b60106020528060005260406000206000915090505481565b60608151835114610d6d576040517f08c379a0000000000000000000000000000000000000000000000000000000008152600401610d64906150de565b60405180910390fd5b6000835167ffffffffffffffff811115610db0577f4e487b7100000000000000000000000000000000000000000000000000000000600052604160045260246000fd5b604051908082528060200260200182016040528015610dde5781602001602082028036833780820191505090505b50905060005b8451811015610ecd57610e77858281518110610e29577f4e487b7100000000000000000000000000000000000000000000000000000000600052603260045260246000fd5b6020026020010151858381518110610e6a577f4e487b7100000000000000000000000000000000000000000000000000000000600052603260045260246000fd5b6020026020010151610872565b828281518110610eb0577f4e487b7100000000000000000000000000000000000000000000000000000000600052603260045260246000fd5b60200260200101818152505080610ec6906154f7565b9050610de4565b508091505092915050565b610ee0611b8b565b610eeb858585611fd7565b610f06858383604051806020016040528060008152506122f2565b5050505050565b600d5481565b610f1b611b8b565b610f25600061256b565b565b610f32338383611fd7565b5050565b610f3e611b8b565b80600e60008481526020019081526020016000209080519060200190610f65929190613df2565b50817f6bb7ff708619ba0610cba295a58592e0451dee2622938c8755667688daf3529b82604051610f969190614e5c565b60405180910390a25050565b6000600360009054906101000a900473ffffffffffffffffffffffffffffffffffffffff16905090565b610fd4611b8b565b8060098190555050565b606060058054610fed90615494565b80601f016020809104026020016040519081016040528092919081815260200182805461101990615494565b80156110665780601f1061103b57610100808354040283529160200191611066565b820191906000526020600020905b81548152906001019060200180831161104957829003601f168201915b5050505050905090565b600760029054906101000a900473ffffffffffffffffffffffffffffffffffffffff1681565b6110a86110a1611c61565b8383612631565b5050565b6110b4611b8b565b8173ffffffffffffffffffffffffffffffffffffffff1663a9059cbb828473ffffffffffffffffffffffffffffffffffffffff166370a08231306040518263ffffffff1660e01b815260040161110a9190614c90565b60206040518083038186803b15801561112257600080fd5b505afa158015611136573d6000803e3d6000fd5b505050506040513d601f19601f8201168201806040525081019061115a91906146be565b6040518363ffffffff1660e01b8152600401611177929190614da4565b602060405180830381600087803b15801561119157600080fd5b505af11580156111a5573d6000803e3d6000fd5b505050506040513d601f19601f820116820180604052508101906111c991906145de565b505050565b60095481565b600580546111e190615494565b80601f016020809104026020016040519081016040528092919081815260200182805461120d90615494565b801561125a5780601f1061122f5761010080835404028352916020019161125a565b820191906000526020600020905b81548152906001019060200180831161123d57829003601f168201915b505050505081565b600f6020528060005260406000206000915054906101000a900460ff1681565b61128d33838361279e565b5050565b7f000000000000000000000000000000000000000000000000000000000000000081565b600680546112c290615494565b80601f01602080910402602001604051908101604052809291908181526020018280546112ee90615494565b801561133b5780601f106113105761010080835404028352916020019161133b565b820191906000526020600020905b81548152906001019060200180831161131e57829003601f168201915b505050505081565b600e602052806000526040600020600091509050805461136290615494565b80601f016020809104026020016040519081016040528092919081815260200182805461138e90615494565b80156113db5780601f106113b0576101008083540402835291602001916113db565b820191906000526020600020905b8154815290600101906020018083116113be57829003601f168201915b505050505081565b60011515600760009054906101000a900460ff16151514611439576040517f08c379a000000000000000000000000000000000000000000000000000000000815260040161143090614ede565b60405180910390fd5b60001515600f60003373ffffffffffffffffffffffffffffffffffffffff1673ffffffffffffffffffffffffffffffffffffffff16815260200190815260200160002060009054906101000a900460ff161515146114cc576040517f08c379a00000000000000000000000000000000000000000000000000000000081526004016114c390614f9e565b60405180910390fd5b60008411806114db5750600083115b61151a576040517f08c379a00000000000000000000000000000000000000000000000000000000081526004016115119061503e565b60405180910390fd5b60008411156115505761154f847f000000000000000000000000000000000000000000000000000000000000000084846129e5565b5b600083111561158657611585837f00000000000000000000000000000000000000000000000000000000000000008484612ea3565b5b50505050565b6004805461159990615494565b80601f01602080910402602001604051908101604052809291908181526020018280546115c590615494565b80156116125780601f106115e757610100808354040283529160200191611612565b820191906000526020600020905b8154815290600101906020018083116115f557829003601f168201915b505050505081565b611622611b8b565b6000600760006101000a81548160ff02191690831515021790555080600760016101000a81548160ff02191690831515021790555050565b60011515600760019054906101000a900460ff161515146116b0576040517f08c379a00000000000000000000000000000000000000000000000000000000081526004016116a79061507e565b60405180910390fd5b60001515600f60003373ffffffffffffffffffffffffffffffffffffffff1673ffffffffffffffffffffffffffffffffffffffff16815260200190815260200160002060009054906101000a900460ff16151514611743576040517f08c379a000000000000000000000000000000000000000000000000000000000815260040161173a90614f9e565b60405180910390fd5b60008411806117525750600083115b611791576040517f08c379a00000000000000000000000000000000000000000000000000000000081526004016117889061503e565b60405180910390fd5b60008411156117c7576117c6847f000000000000000000000000000000000000000000000000000000000000000084846129e5565b5b60008311156117fd576117fc837f00000000000000000000000000000000000000000000000000000000000000008484612ea3565b5b50505050565b600080846040516020016118179190614c75565b604051602081830303815290604052805190602001209050600061185d7f0000000000000000000000000000000000000000000000000000000000000000868685611c09565b905080925050509392505050565b611873611b8b565b8060088190555050565b6000600160008473ffffffffffffffffffffffffffffffffffffffff1673ffffffffffffffffffffffffffffffffffffffff16815260200190815260200160002060008373ffffffffffffffffffffffffffffffffffffffff1673ffffffffffffffffffffffffffffffffffffffff16815260200190815260200160002060009054906101000a900460ff16905092915050565b611919611b8b565b6000600760016101000a81548160ff02191690831515021790555080600760006101000a81548160ff02191690831515021790555050565b600760019054906101000a900460ff1681565b61196c611c61565b73ffffffffffffffffffffffffffffffffffffffff168573ffffffffffffffffffffffffffffffffffffffff1614806119b257506119b1856119ac611c61565b61187d565b5b6119f1576040517f08c379a00000000000000000000000000000000000000000000000000000000081526004016119e890614e9e565b60405180910390fd5b6119fe8585858585613409565b5050505050565b611a0d611b8b565b600073ffffffffffffffffffffffffffffffffffffffff168173ffffffffffffffffffffffffffffffffffffffff161415611a7d576040517f08c379a0000000000000000000000000000000000000000000000000000000008152600401611a7490614f1e565b60405180910390fd5b611a868161256b565b50565b600c5481565b606060068054611a9e90615494565b80601f0160208091040260200160405190810160405280929190818152602001828054611aca90615494565b8015611b175780601f10611aec57610100808354040283529160200191611b17565b820191906000526020600020905b815481529060010190602001808311611afa57829003601f168201915b5050505050905090565b60007f01ffc9a7000000000000000000000000000000000000000000000000000000007bffffffffffffffffffffffffffffffffffffffffffffffffffffffff1916827bffffffffffffffffffffffffffffffffffffffffffffffffffffffff1916149050919050565b611b93611c61565b73ffffffffffffffffffffffffffffffffffffffff16611bb1610fa2565b73ffffffffffffffffffffffffffffffffffffffff1614611c07576040517f08c379a0000000000000000000000000000000000000000000000000000000008152600401611bfe9061501e565b60405180910390fd5b565b6000611c57848480806020026020016040519081016040528093929190818152602001838360200280828437600081840152601f19601f8201169050808301925050505050505086846136a5565b9050949350505050565b600033905090565b8151835114611cad576040517f08c379a0000000000000000000000000000000000000000000000000000000008152600401611ca49061511e565b60405180910390fd5b600073ffffffffffffffffffffffffffffffffffffffff168473ffffffffffffffffffffffffffffffffffffffff161415611d1d576040517f08c379a0000000000000000000000000000000000000000000000000000000008152600401611d1490614fbe565b60405180910390fd5b6000611d27611c61565b9050611d378187878787876136bc565b60005b8451811015611f34576000858281518110611d7e577f4e487b7100000000000000000000000000000000000000000000000000000000600052603260045260246000fd5b602002602001015190506000858381518110611dc3577f4e487b7100000000000000000000000000000000000000000000000000000000600052603260045260246000fd5b60200260200101519050600080600084815260200190815260200160002060008b73ffffffffffffffffffffffffffffffffffffffff1673ffffffffffffffffffffffffffffffffffffffff16815260200190815260200160002054905081811015611e64576040517f08c379a0000000000000000000000000000000000000000000000000000000008152600401611e5b90614ffe565b60405180910390fd5b81810360008085815260200190815260200160002060008c73ffffffffffffffffffffffffffffffffffffffff1673ffffffffffffffffffffffffffffffffffffffff168152602001908152602001600020819055508160008085815260200190815260200160002060008b73ffffffffffffffffffffffffffffffffffffffff1673ffffffffffffffffffffffffffffffffffffffff1681526020019081526020016000206000828254611f199190615312565b9250508190555050505080611f2d906154f7565b9050611d3a565b508473ffffffffffffffffffffffffffffffffffffffff168673ffffffffffffffffffffffffffffffffffffffff168273ffffffffffffffffffffffffffffffffffffffff167f4a39dc06d4c0dbc64b70af90fd698a233a518aa5d07e595d983b8c0526c8f7fb8787604051611fab929190614def565b60405180910390a4611fc18187878787876136c4565b611fcf8187878787876136cc565b505050505050565b600073ffffffffffffffffffffffffffffffffffffffff168373ffffffffffffffffffffffffffffffffffffffff161415612047576040517f08c379a000000000000000000000000000000000000000000000000000000000815260040161203e90614fde565b60405180910390fd5b805182511461208b576040517f08c379a00000000000000000000000000000000000000000000000000000000081526004016120829061511e565b60405180910390fd5b6000612095611c61565b90506120b5818560008686604051806020016040528060008152506136bc565b60005b835181101561224e5760008482815181106120fc577f4e487b7100000000000000000000000000000000000000000000000000000000600052603260045260246000fd5b602002602001015190506000848381518110612141577f4e487b7100000000000000000000000000000000000000000000000000000000600052603260045260246000fd5b60200260200101519050600080600084815260200190815260200160002060008973ffffffffffffffffffffffffffffffffffffffff1673ffffffffffffffffffffffffffffffffffffffff168152602001908152602001600020549050818110156121e2576040517f08c379a00000000000000000000000000000000000000000000000000000000081526004016121d990614f3e565b60405180910390fd5b81810360008085815260200190815260200160002060008a73ffffffffffffffffffffffffffffffffffffffff1673ffffffffffffffffffffffffffffffffffffffff168152602001908152602001600020819055505050508080612246906154f7565b9150506120b8565b50600073ffffffffffffffffffffffffffffffffffffffff168473ffffffffffffffffffffffffffffffffffffffff168273ffffffffffffffffffffffffffffffffffffffff167f4a39dc06d4c0dbc64b70af90fd698a233a518aa5d07e595d983b8c0526c8f7fb86866040516122c6929190614def565b60405180910390a46122ec818560008686604051806020016040528060008152506136c4565b50505050565b600073ffffffffffffffffffffffffffffffffffffffff168473ffffffffffffffffffffffffffffffffffffffff161415612362576040517f08c379a00000000000000000000000000000000000000000000000000000000081526004016123599061513e565b60405180910390fd5b81518351146123a6576040517f08c379a000000000000000000000000000000000000000000000000000000000815260040161239d9061511e565b60405180910390fd5b60006123b0611c61565b90506123c1816000878787876136bc565b60005b84518110156124c657838181518110612406577f4e487b7100000000000000000000000000000000000000000000000000000000600052603260045260246000fd5b602002602001015160008087848151811061244a577f4e487b7100000000000000000000000000000000000000000000000000000000600052603260045260246000fd5b6020026020010151815260200190815260200160002060008873ffffffffffffffffffffffffffffffffffffffff1673ffffffffffffffffffffffffffffffffffffffff16815260200190815260200160002060008282546124ac9190615312565b9250508190555080806124be906154f7565b9150506123c4565b508473ffffffffffffffffffffffffffffffffffffffff16600073ffffffffffffffffffffffffffffffffffffffff168273ffffffffffffffffffffffffffffffffffffffff167f4a39dc06d4c0dbc64b70af90fd698a233a518aa5d07e595d983b8c0526c8f7fb878760405161253e929190614def565b60405180910390a4612555816000878787876136c4565b612564816000878787876136cc565b5050505050565b6000600360009054906101000a900473ffffffffffffffffffffffffffffffffffffffff16905081600360006101000a81548173ffffffffffffffffffffffffffffffffffffffff021916908373ffffffffffffffffffffffffffffffffffffffff1602179055508173ffffffffffffffffffffffffffffffffffffffff168173ffffffffffffffffffffffffffffffffffffffff167f8be0079c531659141344cd1fd0a4f28419497f9722a3daafe3b4186f6b6457e060405160405180910390a35050565b8173ffffffffffffffffffffffffffffffffffffffff168373ffffffffffffffffffffffffffffffffffffffff1614156126a0576040517f08c379a0000000000000000000000000000000000000000000000000000000008152600401612697906150be565b60405180910390fd5b80600160008573ffffffffffffffffffffffffffffffffffffffff1673ffffffffffffffffffffffffffffffffffffffff16815260200190815260200160002060008473ffffffffffffffffffffffffffffffffffffffff1673ffffffffffffffffffffffffffffffffffffffff16815260200190815260200160002060006101000a81548160ff0219169083151502179055508173ffffffffffffffffffffffffffffffffffffffff168373ffffffffffffffffffffffffffffffffffffffff167f17307eab39ab6107e8899845ad3d59bd9653f200f220920489ca2b5937696c31836040516127919190614e26565b60405180910390a3505050565b600073ffffffffffffffffffffffffffffffffffffffff168373ffffffffffffffffffffffffffffffffffffffff16141561280e576040517f08c379a000000000000000000000000000000000000000000000000000000000815260040161280590614fde565b60405180910390fd5b6000612818611c61565b90506000612825846138b3565b90506000612832846138b3565b9050612852838760008585604051806020016040528060008152506136bc565b600080600087815260200190815260200160002060008873ffffffffffffffffffffffffffffffffffffffff1673ffffffffffffffffffffffffffffffffffffffff168152602001908152602001600020549050848110156128e9576040517f08c379a00000000000000000000000000000000000000000000000000000000081526004016128e090614f3e565b60405180910390fd5b84810360008088815260200190815260200160002060008973ffffffffffffffffffffffffffffffffffffffff1673ffffffffffffffffffffffffffffffffffffffff16815260200190815260200160002081905550600073ffffffffffffffffffffffffffffffffffffffff168773ffffffffffffffffffffffffffffffffffffffff168573ffffffffffffffffffffffffffffffffffffffff167fc3d58168c5ae7397731d063d5bbf3d657854427343f4c083240f7aacaa2d0f6289896040516129b6929190615199565b60405180910390a46129dc848860008686604051806020016040528060008152506136c4565b50505050505050565b83600281601060003373ffffffffffffffffffffffffffffffffffffffff1673ffffffffffffffffffffffffffffffffffffffff16815260200190815260200160002054612a339190615312565b10612a73576040517f08c379a0000000000000000000000000000000000000000000000000000000008152600401612a6a9061509e565b60405180910390fd5b600a546001600c54612a859190615312565b1115612ac6576040517f08c379a0000000000000000000000000000000000000000000000000000000008152600401612abd9061515e565b60405180910390fd5b600954600760029054906101000a900473ffffffffffffffffffffffffffffffffffffffff1673ffffffffffffffffffffffffffffffffffffffff166370a08231336040518263ffffffff1660e01b8152600401612b249190614c90565b60206040518083038186803b158015612b3c57600080fd5b505afa158015612b50573d6000803e3d6000fd5b505050506040513d601f19601f82011682018060405250810190612b7491906146be565b1015612bb5576040517f08c379a0000000000000000000000000000000000000000000000000000000008152600401612bac90614f7e565b60405180910390fd5b600033604051602001612bc89190614c75565b60405160208183030381529060405280519060200120905060011515612bf086868685611c09565b151514612c32576040517f08c379a0000000000000000000000000000000000000000000000000000000008152600401612c2990614efe565b60405180910390fd5b85600c54612c409190615312565b600c81905550600186601060003373ffffffffffffffffffffffffffffffffffffffff1673ffffffffffffffffffffffffffffffffffffffff16815260200190815260200160002054612c939190615312565b148015612cdf57506005601160003373ffffffffffffffffffffffffffffffffffffffff1673ffffffffffffffffffffffffffffffffffffffff16815260200190815260200160002054145b15612d3d576001600f60003373ffffffffffffffffffffffffffffffffffffffff1673ffffffffffffffffffffffffffffffffffffffff16815260200190815260200160002060006101000a81548160ff0219169083151502179055505b85601060003373ffffffffffffffffffffffffffffffffffffffff1673ffffffffffffffffffffffffffffffffffffffff16815260200190815260200160002054612d889190615312565b601060003373ffffffffffffffffffffffffffffffffffffffff1673ffffffffffffffffffffffffffffffffffffffff16815260200190815260200160002081905550600760029054906101000a900473ffffffffffffffffffffffffffffffffffffffff1673ffffffffffffffffffffffffffffffffffffffff166323b872dd33306009546040518463ffffffff1660e01b8152600401612e2c93929190614d13565b602060405180830381600087803b158015612e4657600080fd5b505af1158015612e5a573d6000803e3d6000fd5b505050506040513d601f19601f82011682018060405250810190612e7e91906145de565b50612e9b3360018860405180602001604052806000815250613979565b505050505050565b83600681601160003373ffffffffffffffffffffffffffffffffffffffff1673ffffffffffffffffffffffffffffffffffffffff16815260200190815260200160002054612ef19190615312565b10612f31576040517f08c379a0000000000000000000000000000000000000000000000000000000008152600401612f289061505e565b60405180910390fd5b600b5481600d54612f429190615312565b1115612f83576040517f08c379a0000000000000000000000000000000000000000000000000000000008152600401612f7a906150fe565b60405180910390fd5b60001515600f60003373ffffffffffffffffffffffffffffffffffffffff1673ffffffffffffffffffffffffffffffffffffffff16815260200190815260200160002060009054906101000a900460ff16151514613016576040517f08c379a000000000000000000000000000000000000000000000000000000000815260040161300d90614f9e565b60405180910390fd5b806008546130249190615368565b600760029054906101000a900473ffffffffffffffffffffffffffffffffffffffff1673ffffffffffffffffffffffffffffffffffffffff166370a08231336040518263ffffffff1660e01b815260040161307f9190614c90565b60206040518083038186803b15801561309757600080fd5b505afa1580156130ab573d6000803e3d6000fd5b505050506040513d601f19601f820116820180604052508101906130cf91906146be565b1015613110576040517f08c379a000000000000000000000000000000000000000000000000000000000815260040161310790614f7e565b60405180910390fd5b6000336040516020016131239190614c75565b6040516020818303038152906040528051906020012090506001151561314b86868685611c09565b15151461318d576040517f08c379a000000000000000000000000000000000000000000000000000000000815260040161318490614efe565b60405180910390fd5b85600d5461319b9190615312565b600d81905550600586601160003373ffffffffffffffffffffffffffffffffffffffff1673ffffffffffffffffffffffffffffffffffffffff168152602001908152602001600020546131ee9190615312565b14801561323a57506001601060003373ffffffffffffffffffffffffffffffffffffffff1673ffffffffffffffffffffffffffffffffffffffff16815260200190815260200160002054145b15613298576001600f60003373ffffffffffffffffffffffffffffffffffffffff1673ffffffffffffffffffffffffffffffffffffffff16815260200190815260200160002060006101000a81548160ff0219169083151502179055505b85601160003373ffffffffffffffffffffffffffffffffffffffff1673ffffffffffffffffffffffffffffffffffffffff168152602001908152602001600020546132e39190615312565b601160003373ffffffffffffffffffffffffffffffffffffffff1673ffffffffffffffffffffffffffffffffffffffff16815260200190815260200160002081905550600760029054906101000a900473ffffffffffffffffffffffffffffffffffffffff1673ffffffffffffffffffffffffffffffffffffffff166323b872dd3330896008546133749190615368565b6040518463ffffffff1660e01b815260040161339293929190614d13565b602060405180830381600087803b1580156133ac57600080fd5b505af11580156133c0573d6000803e3d6000fd5b505050506040513d601f19601f820116820180604052508101906133e491906145de565b506134013360028860405180602001604052806000815250613979565b505050505050565b600073ffffffffffffffffffffffffffffffffffffffff168473ffffffffffffffffffffffffffffffffffffffff161415613479576040517f08c379a000000000000000000000000000000000000000000000000000000000815260040161347090614fbe565b60405180910390fd5b6000613483611c61565b90506000613490856138b3565b9050600061349d856138b3565b90506134ad8389898585896136bc565b600080600088815260200190815260200160002060008a73ffffffffffffffffffffffffffffffffffffffff1673ffffffffffffffffffffffffffffffffffffffff16815260200190815260200160002054905085811015613544576040517f08c379a000000000000000000000000000000000000000000000000000000000815260040161353b90614ffe565b60405180910390fd5b85810360008089815260200190815260200160002060008b73ffffffffffffffffffffffffffffffffffffffff1673ffffffffffffffffffffffffffffffffffffffff168152602001908152602001600020819055508560008089815260200190815260200160002060008a73ffffffffffffffffffffffffffffffffffffffff1673ffffffffffffffffffffffffffffffffffffffff16815260200190815260200160002060008282546135f99190615312565b925050819055508773ffffffffffffffffffffffffffffffffffffffff168973ffffffffffffffffffffffffffffffffffffffff168573ffffffffffffffffffffffffffffffffffffffff167fc3d58168c5ae7397731d063d5bbf3d657854427343f4c083240f7aacaa2d0f628a8a604051613676929190615199565b60405180910390a461368c848a8a86868a6136c4565b61369a848a8a8a8a8a613b2a565b505050505050505050565b6000826136b28584613d11565b1490509392505050565b505050505050565b505050505050565b6136eb8473ffffffffffffffffffffffffffffffffffffffff16613d8d565b156138ab578373ffffffffffffffffffffffffffffffffffffffff1663bc197c8187878686866040518663ffffffff1660e01b8152600401613731959493929190614cab565b602060405180830381600087803b15801561374b57600080fd5b505af192505050801561377c57506040513d601f19601f820116820180604052508101906137799190614630565b60015b613822576137886155f1565b806308c379a014156137e5575061379d615d0e565b806137a857506137e7565b806040517f08c379a00000000000000000000000000000000000000000000000000000000081526004016137dc9190614e5c565b60405180910390fd5b505b6040517f08c379a000000000000000000000000000000000000000000000000000000000815260040161381990614e7e565b60405180910390fd5b63bc197c8160e01b7bffffffffffffffffffffffffffffffffffffffffffffffffffffffff1916817bffffffffffffffffffffffffffffffffffffffffffffffffffffffff1916146138a9576040517f08c379a00000000000000000000000000000000000000000000000000000000081526004016138a090614ebe565b60405180910390fd5b505b505050505050565b60606000600167ffffffffffffffff8111156138f8577f4e487b7100000000000000000000000000000000000000000000000000000000600052604160045260246000fd5b6040519080825280602002602001820160405280156139265781602001602082028036833780820191505090505b5090508281600081518110613964577f4e487b7100000000000000000000000000000000000000000000000000000000600052603260045260246000fd5b60200260200101818152505080915050919050565b600073ffffffffffffffffffffffffffffffffffffffff168473ffffffffffffffffffffffffffffffffffffffff1614156139e9576040517f08c379a00000000000000000000000000000000000000000000000000000000081526004016139e09061513e565b60405180910390fd5b60006139f3611c61565b90506000613a00856138b3565b90506000613a0d856138b3565b9050613a1e836000898585896136bc565b8460008088815260200190815260200160002060008973ffffffffffffffffffffffffffffffffffffffff1673ffffffffffffffffffffffffffffffffffffffff1681526020019081526020016000206000828254613a7d9190615312565b925050819055508673ffffffffffffffffffffffffffffffffffffffff16600073ffffffffffffffffffffffffffffffffffffffff168473ffffffffffffffffffffffffffffffffffffffff167fc3d58168c5ae7397731d063d5bbf3d657854427343f4c083240f7aacaa2d0f628989604051613afb929190615199565b60405180910390a4613b12836000898585896136c4565b613b2183600089898989613b2a565b50505050505050565b613b498473ffffffffffffffffffffffffffffffffffffffff16613d8d565b15613d09578373ffffffffffffffffffffffffffffffffffffffff1663f23a6e6187878686866040518663ffffffff1660e01b8152600401613b8f959493929190614d4a565b602060405180830381600087803b158015613ba957600080fd5b505af1925050508015613bda57506040513d601f19601f82011682018060405250810190613bd79190614630565b60015b613c8057613be66155f1565b806308c379a01415613c435750613bfb615d0e565b80613c065750613c45565b806040517f08c379a0000000000000000000000000000000000000000000000000000000008152600401613c3a9190614e5c565b60405180910390fd5b505b6040517f08c379a0000000000000000000000000000000000000000000000000000000008152600401613c7790614e7e565b60405180910390fd5b63f23a6e6160e01b7bffffffffffffffffffffffffffffffffffffffffffffffffffffffff1916817bffffffffffffffffffffffffffffffffffffffffffffffffffffffff191614613d07576040517f08c379a0000000000000000000000000000000000000000000000000000000008152600401613cfe90614ebe565b60405180910390fd5b505b505050505050565b60008082905060005b8451811015613d8257613d6d82868381518110613d60577f4e487b7100000000000000000000000000000000000000000000000000000000600052603260045260246000fd5b6020026020010151613db0565b91508080613d7a906154f7565b915050613d1a565b508091505092915050565b6000808273ffffffffffffffffffffffffffffffffffffffff163b119050919050565b6000818310613dc857613dc38284613ddb565b613dd3565b613dd28383613ddb565b5b905092915050565b600082600052816020526040600020905092915050565b828054613dfe90615494565b90600052602060002090601f016020900481019282613e205760008555613e67565b82601f10613e3957805160ff1916838001178555613e67565b82800160010185558215613e67579182015b82811115613e66578251825591602001919060010190613e4b565b5b509050613e749190613e78565b5090565b5b80821115613e91576000816000905550600101613e79565b5090565b6000613ea8613ea3846151e7565b6151c2565b90508083825260208201905082856020860282011115613ec757600080fd5b60005b85811015613ef75781613edd8882613fe9565b845260208401935060208301925050600181019050613eca565b5050509392505050565b6000613f14613f0f84615213565b6151c2565b90508083825260208201905082856020860282011115613f3357600080fd5b60005b85811015613f635781613f498882614159565b845260208401935060208301925050600181019050613f36565b5050509392505050565b6000613f80613f7b8461523f565b6151c2565b905082815260208101848484011115613f9857600080fd5b613fa3848285615452565b509392505050565b6000613fbe613fb984615270565b6151c2565b905082815260208101848484011115613fd657600080fd5b613fe1848285615452565b509392505050565b600081359050613ff881615da4565b92915050565b600082601f83011261400f57600080fd5b813561401f848260208601613e95565b91505092915050565b60008083601f84011261403a57600080fd5b8235905067ffffffffffffffff81111561405357600080fd5b60208301915083602082028301111561406b57600080fd5b9250929050565b600082601f83011261408357600080fd5b8135614093848260208601613f01565b91505092915050565b6000813590506140ab81615dbb565b92915050565b6000815190506140c081615dbb565b92915050565b6000813590506140d581615dd2565b92915050565b6000815190506140ea81615dd2565b92915050565b600082601f83011261410157600080fd5b8135614111848260208601613f6d565b91505092915050565b60008135905061412981615de9565b92915050565b600082601f83011261414057600080fd5b8135614150848260208601613fab565b91505092915050565b60008135905061416881615e00565b92915050565b60008151905061417d81615e00565b92915050565b60006020828403121561419557600080fd5b60006141a384828501613fe9565b91505092915050565b600080604083850312156141bf57600080fd5b60006141cd85828601613fe9565b92505060206141de85828601613fe9565b9150509250929050565b600080600080600060a0868803121561420057600080fd5b600061420e88828901613fe9565b955050602061421f88828901613fe9565b945050604086013567ffffffffffffffff81111561423c57600080fd5b61424888828901614072565b935050606086013567ffffffffffffffff81111561426557600080fd5b61427188828901614072565b925050608086013567ffffffffffffffff81111561428e57600080fd5b61429a888289016140f0565b9150509295509295909350565b600080600080600060a086880312156142bf57600080fd5b60006142cd88828901613fe9565b95505060206142de88828901613fe9565b94505060406142ef88828901614159565b935050606061430088828901614159565b925050608086013567ffffffffffffffff81111561431d57600080fd5b614329888289016140f0565b9150509295509295909350565b60008060006040848603121561434b57600080fd5b600061435986828701613fe9565b935050602084013567ffffffffffffffff81111561437657600080fd5b61438286828701614028565b92509250509250925092565b600080600080600060a086880312156143a657600080fd5b60006143b488828901613fe9565b955050602086013567ffffffffffffffff8111156143d157600080fd5b6143dd88828901614072565b945050604086013567ffffffffffffffff8111156143fa57600080fd5b61440688828901614072565b935050606086013567ffffffffffffffff81111561442357600080fd5b61442f88828901614072565b925050608086013567ffffffffffffffff81111561444c57600080fd5b61445888828901614072565b9150509295509295909350565b6000806040838503121561447857600080fd5b600061448685828601613fe9565b92505060206144978582860161409c565b9150509250929050565b600080604083850312156144b457600080fd5b60006144c285828601613fe9565b92505060206144d385828601614159565b9150509250929050565b600080604083850312156144f057600080fd5b600083013567ffffffffffffffff81111561450a57600080fd5b61451685828601613ffe565b925050602083013567ffffffffffffffff81111561453357600080fd5b61453f85828601614072565b9150509250929050565b6000806040838503121561455c57600080fd5b600083013567ffffffffffffffff81111561457657600080fd5b61458285828601614072565b925050602083013567ffffffffffffffff81111561459f57600080fd5b6145ab85828601614072565b9150509250929050565b6000602082840312156145c757600080fd5b60006145d58482850161409c565b91505092915050565b6000602082840312156145f057600080fd5b60006145fe848285016140b1565b91505092915050565b60006020828403121561461957600080fd5b6000614627848285016140c6565b91505092915050565b60006020828403121561464257600080fd5b6000614650848285016140db565b91505092915050565b6000806040838503121561466c57600080fd5b600061467a8582860161411a565b925050602061468b85828601613fe9565b9150509250929050565b6000602082840312156146a757600080fd5b60006146b584828501614159565b91505092915050565b6000602082840312156146d057600080fd5b60006146de8482850161416e565b91505092915050565b600080604083850312156146fa57600080fd5b600061470885828601614159565b925050602083013567ffffffffffffffff81111561472557600080fd5b6147318582860161412f565b9150509250929050565b6000806040838503121561474e57600080fd5b600061475c85828601614159565b925050602061476d85828601614159565b9150509250929050565b6000806000806060858703121561478d57600080fd5b600061479b87828801614159565b94505060206147ac87828801614159565b935050604085013567ffffffffffffffff8111156147c957600080fd5b6147d587828801614028565b925092505092959194509250565b60006147ef8383614c57565b60208301905092915050565b614804816153c2565b82525050565b61481b614816826153c2565b615540565b82525050565b600061482c826152b1565b61483681856152df565b9350614841836152a1565b8060005b8381101561487257815161485988826147e3565b9750614864836152d2565b925050600181019050614845565b5085935050505092915050565b614888816153d4565b82525050565b614897816153e0565b82525050565b60006148a8826152bc565b6148b281856152f0565b93506148c2818560208601615461565b6148cb81615613565b840191505092915050565b60006148e1826152c7565b6148eb8185615301565b93506148fb818560208601615461565b61490481615613565b840191505092915050565b600061491c603483615301565b91506149278261563e565b604082019050919050565b600061493f602f83615301565b915061494a8261568d565b604082019050919050565b6000614962602883615301565b915061496d826156dc565b604082019050919050565b6000614985601883615301565b91506149908261572b565b602082019050919050565b60006149a8602b83615301565b91506149b382615754565b604082019050919050565b60006149cb602683615301565b91506149d6826157a3565b604082019050919050565b60006149ee602483615301565b91506149f9826157f2565b604082019050919050565b6000614a11602a83615301565b9150614a1c82615841565b604082019050919050565b6000614a34601483615301565b9150614a3f82615890565b602082019050919050565b6000614a57602683615301565b9150614a62826158b9565b604082019050919050565b6000614a7a602583615301565b9150614a8582615908565b604082019050919050565b6000614a9d602383615301565b9150614aa882615957565b604082019050919050565b6000614ac0602a83615301565b9150614acb826159a6565b604082019050919050565b6000614ae3602083615301565b9150614aee826159f5565b602082019050919050565b6000614b06602c83615301565b9150614b1182615a1e565b604082019050919050565b6000614b29602983615301565b9150614b3482615a6d565b604082019050919050565b6000614b4c601983615301565b9150614b5782615abc565b602082019050919050565b6000614b6f602983615301565b9150614b7a82615ae5565b604082019050919050565b6000614b92602983615301565b9150614b9d82615b34565b604082019050919050565b6000614bb5602983615301565b9150614bc082615b83565b604082019050919050565b6000614bd8602a83615301565b9150614be382615bd2565b604082019050919050565b6000614bfb602883615301565b9150614c0682615c21565b604082019050919050565b6000614c1e602183615301565b9150614c2982615c70565b604082019050919050565b6000614c41602a83615301565b9150614c4c82615cbf565b604082019050919050565b614c6081615448565b82525050565b614c6f81615448565b82525050565b6000614c81828461480a565b60148201915081905092915050565b6000602082019050614ca560008301846147fb565b92915050565b600060a082019050614cc060008301886147fb565b614ccd60208301876147fb565b8181036040830152614cdf8186614821565b90508181036060830152614cf38185614821565b90508181036080830152614d07818461489d565b90509695505050505050565b6000606082019050614d2860008301866147fb565b614d3560208301856147fb565b614d426040830184614c66565b949350505050565b600060a082019050614d5f60008301886147fb565b614d6c60208301876147fb565b614d796040830186614c66565b614d866060830185614c66565b8181036080830152614d98818461489d565b90509695505050505050565b6000604082019050614db960008301856147fb565b614dc66020830184614c66565b9392505050565b60006020820190508181036000830152614de78184614821565b905092915050565b60006040820190508181036000830152614e098185614821565b90508181036020830152614e1d8184614821565b90509392505050565b6000602082019050614e3b600083018461487f565b92915050565b6000602082019050614e56600083018461488e565b92915050565b60006020820190508181036000830152614e7681846148d6565b905092915050565b60006020820190508181036000830152614e978161490f565b9050919050565b60006020820190508181036000830152614eb781614932565b9050919050565b60006020820190508181036000830152614ed781614955565b9050919050565b60006020820190508181036000830152614ef781614978565b9050919050565b60006020820190508181036000830152614f178161499b565b9050919050565b60006020820190508181036000830152614f37816149be565b9050919050565b60006020820190508181036000830152614f57816149e1565b9050919050565b60006020820190508181036000830152614f7781614a04565b9050919050565b60006020820190508181036000830152614f9781614a27565b9050919050565b60006020820190508181036000830152614fb781614a4a565b9050919050565b60006020820190508181036000830152614fd781614a6d565b9050919050565b60006020820190508181036000830152614ff781614a90565b9050919050565b6000602082019050818103600083015261501781614ab3565b9050919050565b6000602082019050818103600083015261503781614ad6565b9050919050565b6000602082019050818103600083015261505781614af9565b9050919050565b6000602082019050818103600083015261507781614b1c565b9050919050565b6000602082019050818103600083015261509781614b3f565b9050919050565b600060208201905081810360008301526150b781614b62565b9050919050565b600060208201905081810360008301526150d781614b85565b9050919050565b600060208201905081810360008301526150f781614ba8565b9050919050565b6000602082019050818103600083015261511781614bcb565b9050919050565b6000602082019050818103600083015261513781614bee565b9050919050565b6000602082019050818103600083015261515781614c11565b9050919050565b6000602082019050818103600083015261517781614c34565b9050919050565b60006020820190506151936000830184614c66565b92915050565b60006040820190506151ae6000830185614c66565b6151bb6020830184614c66565b9392505050565b60006151cc6151dd565b90506151d882826154c6565b919050565b6000604051905090565b600067ffffffffffffffff821115615202576152016155c2565b5b602082029050602081019050919050565b600067ffffffffffffffff82111561522e5761522d6155c2565b5b602082029050602081019050919050565b600067ffffffffffffffff82111561525a576152596155c2565b5b61526382615613565b9050602081019050919050565b600067ffffffffffffffff82111561528b5761528a6155c2565b5b61529482615613565b9050602081019050919050565b6000819050602082019050919050565b600081519050919050565b600081519050919050565b600081519050919050565b6000602082019050919050565b600082825260208201905092915050565b600082825260208201905092915050565b600082825260208201905092915050565b600061531d82615448565b915061532883615448565b9250827fffffffffffffffffffffffffffffffffffffffffffffffffffffffffffffffff0382111561535d5761535c615564565b5b828201905092915050565b600061537382615448565b915061537e83615448565b9250817fffffffffffffffffffffffffffffffffffffffffffffffffffffffffffffffff04831182151516156153b7576153b6615564565b5b828202905092915050565b60006153cd82615428565b9050919050565b60008115159050919050565b6000819050919050565b60007fffffffff0000000000000000000000000000000000000000000000000000000082169050919050565b6000615421826153c2565b9050919050565b600073ffffffffffffffffffffffffffffffffffffffff82169050919050565b6000819050919050565b82818337600083830152505050565b60005b8381101561547f578082015181840152602081019050615464565b8381111561548e576000848401525b50505050565b600060028204905060018216806154ac57607f821691505b602082108114156154c0576154bf615593565b5b50919050565b6154cf82615613565b810181811067ffffffffffffffff821117156154ee576154ed6155c2565b5b80604052505050565b600061550282615448565b91507fffffffffffffffffffffffffffffffffffffffffffffffffffffffffffffffff82141561553557615534615564565b5b600182019050919050565b600061554b82615552565b9050919050565b600061555d82615624565b9050919050565b7f4e487b7100000000000000000000000000000000000000000000000000000000600052601160045260246000fd5b7f4e487b7100000000000000000000000000000000000000000000000000000000600052602260045260246000fd5b7f4e487b7100000000000000000000000000000000000000000000000000000000600052604160045260246000fd5b600060033d11156156105760046000803e61560d600051615631565b90505b90565b6000601f19601f8301169050919050565b60008160601b9050919050565b60008160e01c9050919050565b7f455243313135353a207472616e7366657220746f206e6f6e204552433131353560008201527f526563656976657220696d706c656d656e746572000000000000000000000000602082015250565b7f455243313135353a2063616c6c6572206973206e6f7420746f6b656e206f776e60008201527f6572206e6f7220617070726f7665640000000000000000000000000000000000602082015250565b7f455243313135353a204552433131353552656365697665722072656a6563746560008201527f6420746f6b656e73000000000000000000000000000000000000000000000000602082015250565b7f476f6c644c6973742073616c65206e6f74206163746976650000000000000000600082015250565b7f41646472657373206e6f7420656c696769626c65202d20496e76616c6964206d60008201527f65726b6c652070726f6f66000000000000000000000000000000000000000000602082015250565b7f4f776e61626c653a206e6577206f776e657220697320746865207a65726f206160008201527f6464726573730000000000000000000000000000000000000000000000000000602082015250565b7f455243313135353a206275726e20616d6f756e7420657863656564732062616c60008201527f616e636500000000000000000000000000000000000000000000000000000000602082015250565b7f455243313135353a2061646472657373207a65726f206973206e6f742061207660008201527f616c6964206f776e657200000000000000000000000000000000000000000000602082015250565b7f496e73756666696369656e742062616c616e6365000000000000000000000000600082015250565b7f4d617820312046756c6c4e6f64652c2035204c6974654e6f646573207065722060008201527f77616c6c65740000000000000000000000000000000000000000000000000000602082015250565b7f455243313135353a207472616e7366657220746f20746865207a65726f20616460008201527f6472657373000000000000000000000000000000000000000000000000000000602082015250565b7f455243313135353a206275726e2066726f6d20746865207a65726f206164647260008201527f6573730000000000000000000000000000000000000000000000000000000000602082015250565b7f455243313135353a20696e73756666696369656e742062616c616e636520666f60008201527f72207472616e7366657200000000000000000000000000000000000000000000602082015250565b7f4f776e61626c653a2063616c6c6572206973206e6f7420746865206f776e6572600082015250565b7f46756c6c206e6f646520616e64204c697465206e6f646520636f756e7420636160008201527f6e6e6f74206265207a65726f0000000000000000000000000000000000000000602082015250565b7f45786365656473206d61782035204c697465204e6f6465206c696d697420706560008201527f7220616464726573730000000000000000000000000000000000000000000000602082015250565b7f57686974654c6973742073616c65206e6f742061637469766500000000000000600082015250565b7f45786365656473206d617820312046756c6c204e6f6465206c696d697420706560008201527f7220616464726573730000000000000000000000000000000000000000000000602082015250565b7f455243313135353a2073657474696e6720617070726f76616c2073746174757360008201527f20666f722073656c660000000000000000000000000000000000000000000000602082015250565b7f455243313135353a206163636f756e747320616e6420696473206c656e67746860008201527f206d69736d617463680000000000000000000000000000000000000000000000602082015250565b7f507572636861736520776f756c6420657863656564206d6178204c697465204e60008201527f6f646520737570706c7900000000000000000000000000000000000000000000602082015250565b7f455243313135353a2069647320616e6420616d6f756e7473206c656e6774682060008201527f6d69736d61746368000000000000000000000000000000000000000000000000602082015250565b7f455243313135353a206d696e7420746f20746865207a65726f2061646472657360008201527f7300000000000000000000000000000000000000000000000000000000000000602082015250565b7f507572636861736520776f756c6420657863656564206d61782046756c6c204e60008201527f6f646520737570706c7900000000000000000000000000000000000000000000602082015250565b600060443d1015615d1e57615da1565b615d266151dd565b60043d036004823e80513d602482011167ffffffffffffffff82111715615d4e575050615da1565b808201805167ffffffffffffffff811115615d6c5750505050615da1565b80602083010160043d038501811115615d89575050505050615da1565b615d98826020018501866154c6565b82955050505050505b90565b615dad816153c2565b8114615db857600080fd5b50565b615dc4816153d4565b8114615dcf57600080fd5b50565b615ddb816153ea565b8114615de657600080fd5b50565b615df281615416565b8114615dfd57600080fd5b50565b615e0981615448565b8114615e1457600080fd5b5056fea264697066735822122068c4833cfad6f3db7f1eda640f50b61a0630219891e69389dab03abb947abb7e64736f6c63430008040033",
  "linkReferences": {},
  "deployedLinkReferences": {}
}