{
  "_format": "hh-sol-artifact-1",
  "contractName": "SafuuX",
  "sourceName": "contracts/SafuuX.sol",
  "abi": [
    {
      "inputs": [
        {
          "internalType": "string",
          "name": "name_",
          "type": "string"
        },
        {
          "internalType": "string",
          "name": "symbol_",
          "type": "string"
        },
        {
          "internalType": "address",
          "name": "safuuTokenAddress_",
          "type": "address"
        },
        {
          "internalType": "bytes32",
          "name": "goldListMerkleRoot_",
          "type": "bytes32"
        },
        {
          "internalType": "bytes32",
          "name": "whiteListMerkleRoot_",
          "type": "bytes32"
        },
        {
          "internalType": "string",
          "name": "merkleTreeInputURI_",
          "type": "string"
        }
      ],
      "stateMutability": "nonpayable",
      "type": "constructor"
    },
    {
      "anonymous": false,
      "inputs": [
        {
          "indexed": true,
          "internalType": "address",
          "name": "account",
          "type": "address"
        },
        {
          "indexed": true,
          "internalType": "address",
          "name": "operator",
          "type": "address"
        },
        {
          "indexed": false,
          "internalType": "bool",
          "name": "approved",
          "type": "bool"
        }
      ],
      "name": "ApprovalForAll",
      "type": "event"
    },
    {
      "anonymous": false,
      "inputs": [
        {
          "indexed": true,
          "internalType": "address",
          "name": "previousOwner",
          "type": "address"
        },
        {
          "indexed": true,
          "internalType": "address",
          "name": "newOwner",
          "type": "address"
        }
      ],
      "name": "OwnershipTransferred",
      "type": "event"
    },
    {
      "anonymous": false,
      "inputs": [
        {
          "indexed": true,
          "internalType": "address",
          "name": "operator",
          "type": "address"
        },
        {
          "indexed": true,
          "internalType": "address",
          "name": "from",
          "type": "address"
        },
        {
          "indexed": true,
          "internalType": "address",
          "name": "to",
          "type": "address"
        },
        {
          "indexed": false,
          "internalType": "uint256[]",
          "name": "ids",
          "type": "uint256[]"
        },
        {
          "indexed": false,
          "internalType": "uint256[]",
          "name": "values",
          "type": "uint256[]"
        }
      ],
      "name": "TransferBatch",
      "type": "event"
    },
    {
      "anonymous": false,
      "inputs": [
        {
          "indexed": true,
          "internalType": "address",
          "name": "operator",
          "type": "address"
        },
        {
          "indexed": true,
          "internalType": "address",
          "name": "from",
          "type": "address"
        },
        {
          "indexed": true,
          "internalType": "address",
          "name": "to",
          "type": "address"
        },
        {
          "indexed": false,
          "internalType": "uint256",
          "name": "id",
          "type": "uint256"
        },
        {
          "indexed": false,
          "internalType": "uint256",
          "name": "value",
          "type": "uint256"
        }
      ],
      "name": "TransferSingle",
      "type": "event"
    },
    {
      "anonymous": false,
      "inputs": [
        {
          "indexed": false,
          "internalType": "string",
          "name": "value",
          "type": "string"
        },
        {
          "indexed": true,
          "internalType": "uint256",
          "name": "id",
          "type": "uint256"
        }
      ],
      "name": "URI",
      "type": "event"
    },
    {
      "inputs": [],
      "name": "FULL_NODE_COST",
      "outputs": [
        {
          "internalType": "uint256",
          "name": "",
          "type": "uint256"
        }
      ],
      "stateMutability": "view",
      "type": "function"
    },
    {
      "inputs": [],
      "name": "FULL_NODE_CURRENT_SUPPLY",
      "outputs": [
        {
          "internalType": "uint256",
          "name": "",
          "type": "uint256"
        }
      ],
      "stateMutability": "view",
      "type": "function"
    },
    {
      "inputs": [],
      "name": "FULL_NODE_LIMIT",
      "outputs": [
        {
          "internalType": "uint256",
          "name": "",
          "type": "uint256"
        }
      ],
      "stateMutability": "view",
      "type": "function"
    },
    {
      "inputs": [],
      "name": "LITE_NODE_COST",
      "outputs": [
        {
          "internalType": "uint256",
          "name": "",
          "type": "uint256"
        }
      ],
      "stateMutability": "view",
      "type": "function"
    },
    {
      "inputs": [],
      "name": "LITE_NODE_CURRENT_SUPPLY",
      "outputs": [
        {
          "internalType": "uint256",
          "name": "",
          "type": "uint256"
        }
      ],
      "stateMutability": "view",
      "type": "function"
    },
    {
      "inputs": [],
      "name": "LITE_NODE_LIMIT",
      "outputs": [
        {
          "internalType": "uint256",
          "name": "",
          "type": "uint256"
        }
      ],
      "stateMutability": "view",
      "type": "function"
    },
    {
      "inputs": [
        {
          "internalType": "address",
          "name": "",
          "type": "address"
        }
      ],
      "name": "_fullNodesClaimed",
      "outputs": [
        {
          "internalType": "uint256",
          "name": "",
          "type": "uint256"
        }
      ],
      "stateMutability": "view",
      "type": "function"
    },
    {
      "inputs": [],
      "name": "_goldListMerkleRoot",
      "outputs": [
        {
          "internalType": "bytes32",
          "name": "",
          "type": "bytes32"
        }
      ],
      "stateMutability": "view",
      "type": "function"
    },
    {
      "inputs": [],
      "name": "_isGoldListSaleActive",
      "outputs": [
        {
          "internalType": "bool",
          "name": "",
          "type": "bool"
        }
      ],
      "stateMutability": "view",
      "type": "function"
    },
    {
      "inputs": [],
      "name": "_isWhiteListSaleActive",
      "outputs": [
        {
          "internalType": "bool",
          "name": "",
          "type": "bool"
        }
      ],
      "stateMutability": "view",
      "type": "function"
    },
    {
      "inputs": [
        {
          "internalType": "address",
          "name": "",
          "type": "address"
        }
      ],
      "name": "_liteNodesClaimed",
      "outputs": [
        {
          "internalType": "uint256",
          "name": "",
          "type": "uint256"
        }
      ],
      "stateMutability": "view",
      "type": "function"
    },
    {
      "inputs": [],
      "name": "_merkleTreeInputURI",
      "outputs": [
        {
          "internalType": "string",
          "name": "",
          "type": "string"
        }
      ],
      "stateMutability": "view",
      "type": "function"
    },
    {
      "inputs": [],
      "name": "_name",
      "outputs": [
        {
          "internalType": "string",
          "name": "",
          "type": "string"
        }
      ],
      "stateMutability": "view",
      "type": "function"
    },
    {
      "inputs": [],
      "name": "_safuuTokenAddress",
      "outputs": [
        {
          "internalType": "address",
          "name": "",
          "type": "address"
        }
      ],
      "stateMutability": "view",
      "type": "function"
    },
    {
      "inputs": [],
      "name": "_symbol",
      "outputs": [
        {
          "internalType": "string",
          "name": "",
          "type": "string"
        }
      ],
      "stateMutability": "view",
      "type": "function"
    },
    {
      "inputs": [],
      "name": "_whiteListMerkleRoot",
      "outputs": [
        {
          "internalType": "bytes32",
          "name": "",
          "type": "bytes32"
        }
      ],
      "stateMutability": "view",
      "type": "function"
    },
    {
      "inputs": [
        {
          "internalType": "address",
          "name": "account",
          "type": "address"
        },
        {
          "internalType": "uint256",
          "name": "id",
          "type": "uint256"
        }
      ],
      "name": "balanceOf",
      "outputs": [
        {
          "internalType": "uint256",
          "name": "",
          "type": "uint256"
        }
      ],
      "stateMutability": "view",
      "type": "function"
    },
    {
      "inputs": [
        {
          "internalType": "address[]",
          "name": "accounts",
          "type": "address[]"
        },
        {
          "internalType": "uint256[]",
          "name": "ids",
          "type": "uint256[]"
        }
      ],
      "name": "balanceOfBatch",
      "outputs": [
        {
          "internalType": "uint256[]",
          "name": "",
          "type": "uint256[]"
        }
      ],
      "stateMutability": "view",
      "type": "function"
    },
    {
      "inputs": [
        {
          "internalType": "uint256",
          "name": "_id",
          "type": "uint256"
        },
        {
          "internalType": "uint256",
          "name": "_amount",
          "type": "uint256"
        }
      ],
      "name": "burn",
      "outputs": [],
      "stateMutability": "nonpayable",
      "type": "function"
    },
    {
      "inputs": [
        {
          "internalType": "uint256[]",
          "name": "_ids",
          "type": "uint256[]"
        },
        {
          "internalType": "uint256[]",
          "name": "_amounts",
          "type": "uint256[]"
        }
      ],
      "name": "burnBatch",
      "outputs": [],
      "stateMutability": "nonpayable",
      "type": "function"
    },
    {
      "inputs": [
        {
          "internalType": "address",
          "name": "_from",
          "type": "address"
        },
        {
          "internalType": "uint256[]",
          "name": "_burnIds",
          "type": "uint256[]"
        },
        {
          "internalType": "uint256[]",
          "name": "_burnAmounts",
          "type": "uint256[]"
        },
        {
          "internalType": "uint256[]",
          "name": "_mintIds",
          "type": "uint256[]"
        },
        {
          "internalType": "uint256[]",
          "name": "_mintAmounts",
          "type": "uint256[]"
        }
      ],
      "name": "burnForMint",
      "outputs": [],
      "stateMutability": "nonpayable",
      "type": "function"
    },
    {
      "inputs": [
        {
          "internalType": "address",
          "name": "walletAddress",
          "type": "address"
        },
        {
          "internalType": "bytes32[]",
          "name": "merkleProof",
          "type": "bytes32[]"
        }
      ],
      "name": "checkGoldListEligibility",
      "outputs": [
        {
          "internalType": "bool",
          "name": "",
          "type": "bool"
        }
      ],
      "stateMutability": "view",
      "type": "function"
    },
    {
      "inputs": [
        {
          "internalType": "address",
          "name": "walletAddress",
          "type": "address"
        },
        {
          "internalType": "bytes32[]",
          "name": "merkleProof",
          "type": "bytes32[]"
        }
      ],
      "name": "checkWhiteListEligibility",
      "outputs": [
        {
          "internalType": "bool",
          "name": "",
          "type": "bool"
        }
      ],
      "stateMutability": "view",
      "type": "function"
    },
    {
      "inputs": [],
      "name": "getMerkleTreeInputURI",
      "outputs": [
        {
          "internalType": "string",
          "name": "",
          "type": "string"
        }
      ],
      "stateMutability": "view",
      "type": "function"
    },
    {
      "inputs": [
        {
          "internalType": "address",
          "name": "account",
          "type": "address"
        },
        {
          "internalType": "address",
          "name": "operator",
          "type": "address"
        }
      ],
      "name": "isApprovedForAll",
      "outputs": [
        {
          "internalType": "bool",
          "name": "",
          "type": "bool"
        }
      ],
      "stateMutability": "view",
      "type": "function"
    },
    {
      "inputs": [
        {
          "internalType": "uint256",
          "name": "_fullNodeCount",
          "type": "uint256"
        },
        {
          "internalType": "bytes32[]",
          "name": "merkleProof",
          "type": "bytes32[]"
        }
      ],
      "name": "mintFullNode",
      "outputs": [],
      "stateMutability": "nonpayable",
      "type": "function"
    },
    {
      "inputs": [
        {
          "internalType": "uint256",
          "name": "_liteNodeCount",
          "type": "uint256"
        }
      ],
      "name": "mintLiteNode",
      "outputs": [],
      "stateMutability": "nonpayable",
      "type": "function"
    },
    {
      "inputs": [],
      "name": "name",
      "outputs": [
        {
          "internalType": "string",
          "name": "",
          "type": "string"
        }
      ],
      "stateMutability": "view",
      "type": "function"
    },
    {
      "inputs": [
        {
          "internalType": "address",
          "name": "",
          "type": "address"
        }
      ],
      "name": "nodesClaimed",
      "outputs": [
        {
          "internalType": "bool",
          "name": "",
          "type": "bool"
        }
      ],
      "stateMutability": "view",
      "type": "function"
    },
    {
      "inputs": [],
      "name": "owner",
      "outputs": [
        {
          "internalType": "address",
          "name": "",
          "type": "address"
        }
      ],
      "stateMutability": "view",
      "type": "function"
    },
    {
      "inputs": [],
      "name": "renounceOwnership",
      "outputs": [],
      "stateMutability": "nonpayable",
      "type": "function"
    },
    {
      "inputs": [
        {
          "internalType": "address",
          "name": "from",
          "type": "address"
        },
        {
          "internalType": "address",
          "name": "to",
          "type": "address"
        },
        {
          "internalType": "uint256[]",
          "name": "ids",
          "type": "uint256[]"
        },
        {
          "internalType": "uint256[]",
          "name": "amounts",
          "type": "uint256[]"
        },
        {
          "internalType": "bytes",
          "name": "data",
          "type": "bytes"
        }
      ],
      "name": "safeBatchTransferFrom",
      "outputs": [],
      "stateMutability": "nonpayable",
      "type": "function"
    },
    {
      "inputs": [
        {
          "internalType": "address",
          "name": "from",
          "type": "address"
        },
        {
          "internalType": "address",
          "name": "to",
          "type": "address"
        },
        {
          "internalType": "uint256",
          "name": "id",
          "type": "uint256"
        },
        {
          "internalType": "uint256",
          "name": "amount",
          "type": "uint256"
        },
        {
          "internalType": "bytes",
          "name": "data",
          "type": "bytes"
        }
      ],
      "name": "safeTransferFrom",
      "outputs": [],
      "stateMutability": "nonpayable",
      "type": "function"
    },
    {
      "inputs": [
        {
          "internalType": "address",
          "name": "operator",
          "type": "address"
        },
        {
          "internalType": "bool",
          "name": "approved",
          "type": "bool"
        }
      ],
      "name": "setApprovalForAll",
      "outputs": [],
      "stateMutability": "nonpayable",
      "type": "function"
    },
    {
      "inputs": [
        {
          "internalType": "uint256",
          "name": "cost",
          "type": "uint256"
        }
      ],
      "name": "setFullNodeCost",
      "outputs": [],
      "stateMutability": "nonpayable",
      "type": "function"
    },
    {
      "inputs": [
        {
          "internalType": "bytes32",
          "name": "_goldList",
          "type": "bytes32"
        }
      ],
      "name": "setGoldList",
      "outputs": [],
      "stateMutability": "nonpayable",
      "type": "function"
    },
    {
      "inputs": [
        {
          "internalType": "bool",
          "name": "_isActive",
          "type": "bool"
        }
      ],
      "name": "setGoldListSaleStatus",
      "outputs": [],
      "stateMutability": "nonpayable",
      "type": "function"
    },
    {
      "inputs": [
        {
          "internalType": "uint256",
          "name": "cost",
          "type": "uint256"
        }
      ],
      "name": "setLiteNodeCost",
      "outputs": [],
      "stateMutability": "nonpayable",
      "type": "function"
    },
    {
      "inputs": [
        {
          "internalType": "uint256",
          "name": "_id",
          "type": "uint256"
        },
        {
          "internalType": "string",
          "name": "_uri",
          "type": "string"
        }
      ],
      "name": "setURI",
      "outputs": [],
      "stateMutability": "nonpayable",
      "type": "function"
    },
    {
      "inputs": [
        {
          "internalType": "bool",
          "name": "_isActive",
          "type": "bool"
        }
      ],
      "name": "setWhiteListSaleStatus",
      "outputs": [],
      "stateMutability": "nonpayable",
      "type": "function"
    },
    {
      "inputs": [
        {
          "internalType": "bytes32",
          "name": "_whitelist",
          "type": "bytes32"
        }
      ],
      "name": "setWhitelist",
      "outputs": [],
      "stateMutability": "nonpayable",
      "type": "function"
    },
    {
      "inputs": [
        {
          "internalType": "bytes4",
          "name": "interfaceId",
          "type": "bytes4"
        }
      ],
      "name": "supportsInterface",
      "outputs": [
        {
          "internalType": "bool",
          "name": "",
          "type": "bool"
        }
      ],
      "stateMutability": "view",
      "type": "function"
    },
    {
      "inputs": [],
      "name": "symbol",
      "outputs": [
        {
          "internalType": "string",
          "name": "",
          "type": "string"
        }
      ],
      "stateMutability": "view",
      "type": "function"
    },
    {
      "inputs": [
        {
          "internalType": "uint256",
          "name": "",
          "type": "uint256"
        }
      ],
      "name": "tokenURI",
      "outputs": [
        {
          "internalType": "string",
          "name": "",
          "type": "string"
        }
      ],
      "stateMutability": "view",
      "type": "function"
    },
    {
      "inputs": [
        {
          "internalType": "address",
          "name": "newOwner",
          "type": "address"
        }
      ],
      "name": "transferOwnership",
      "outputs": [],
      "stateMutability": "nonpayable",
      "type": "function"
    },
    {
      "inputs": [
        {
          "internalType": "uint256",
          "name": "_id",
          "type": "uint256"
        }
      ],
      "name": "uri",
      "outputs": [
        {
          "internalType": "string",
          "name": "",
          "type": "string"
        }
      ],
      "stateMutability": "view",
      "type": "function"
    },
    {
      "inputs": [],
      "name": "withdrawFunds",
      "outputs": [],
      "stateMutability": "nonpayable",
      "type": "function"
    },
    {
      "inputs": [
        {
          "internalType": "contract IERC20",
          "name": "tokenContract",
          "type": "address"
        },
        {
          "internalType": "address",
          "name": "to",
          "type": "address"
        }
      ],
      "name": "withdrawTokens",
      "outputs": [],
      "stateMutability": "nonpayable",
      "type": "function"
    }
  ],
  "bytecode": "0x60806040526000600860006101000a81548160ff0219169083151502179055506000600860016101000a81548160ff0219169083151502179055506032600c556101f4600d556101f4600e556105dc600f553480156200005e57600080fd5b506040516200650b3803806200650b8339818101604052810190620000849190620003ae565b60405180602001604052806000815250620000a5816200017460201b60201c565b506001600381905550620000ce620000c26200019060201b60201c565b6200019860201b60201c565b8560059080519060200190620000e69291906200025e565b508460069080519060200190620000ff9291906200025e565b5083600b60006101000a81548173ffffffffffffffffffffffffffffffffffffffff021916908373ffffffffffffffffffffffffffffffffffffffff1602179055508060079080519060200190620001599291906200025e565b508260098190555081600a8190555050505050505062000671565b80600290805190602001906200018c9291906200025e565b5050565b600033905090565b6000600460009054906101000a900473ffffffffffffffffffffffffffffffffffffffff16905081600460006101000a81548173ffffffffffffffffffffffffffffffffffffffff021916908373ffffffffffffffffffffffffffffffffffffffff1602179055508173ffffffffffffffffffffffffffffffffffffffff168173ffffffffffffffffffffffffffffffffffffffff167f8be0079c531659141344cd1fd0a4f28419497f9722a3daafe3b4186f6b6457e060405160405180910390a35050565b8280546200026c9062000562565b90600052602060002090601f016020900481019282620002905760008555620002dc565b82601f10620002ab57805160ff1916838001178555620002dc565b82800160010185558215620002dc579182015b82811115620002db578251825591602001919060010190620002be565b5b509050620002eb9190620002ef565b5090565b5b808211156200030a576000816000905550600101620002f0565b5090565b6000620003256200031f84620004b8565b6200048f565b9050828152602081018484840111156200033e57600080fd5b6200034b8482856200052c565b509392505050565b60008151905062000364816200063d565b92915050565b6000815190506200037b8162000657565b92915050565b600082601f8301126200039357600080fd5b8151620003a58482602086016200030e565b91505092915050565b60008060008060008060c08789031215620003c857600080fd5b600087015167ffffffffffffffff811115620003e357600080fd5b620003f189828a0162000381565b965050602087015167ffffffffffffffff8111156200040f57600080fd5b6200041d89828a0162000381565b95505060406200043089828a0162000353565b94505060606200044389828a016200036a565b93505060806200045689828a016200036a565b92505060a087015167ffffffffffffffff8111156200047457600080fd5b6200048289828a0162000381565b9150509295509295509295565b60006200049b620004ae565b9050620004a9828262000598565b919050565b6000604051905090565b600067ffffffffffffffff821115620004d657620004d5620005fd565b5b620004e1826200062c565b9050602081019050919050565b6000620004fb826200050c565b9050919050565b6000819050919050565b600073ffffffffffffffffffffffffffffffffffffffff82169050919050565b60005b838110156200054c5780820151818401526020810190506200052f565b838111156200055c576000848401525b50505050565b600060028204905060018216806200057b57607f821691505b60208210811415620005925762000591620005ce565b5b50919050565b620005a3826200062c565b810181811067ffffffffffffffff82111715620005c557620005c4620005fd565b5b80604052505050565b7f4e487b7100000000000000000000000000000000000000000000000000000000600052602260045260246000fd5b7f4e487b7100000000000000000000000000000000000000000000000000000000600052604160045260246000fd5b6000601f19601f8301169050919050565b6200064881620004ee565b81146200065457600080fd5b50565b620006628162000502565b81146200066e57600080fd5b50565b615e8a80620006816000396000f3fe608060405234801561001057600080fd5b506004361061029f5760003560e01c806395d89b4111610167578063d28d8852116100ce578063f11207d811610087578063f11207d814610812578063f242432a14610830578063f2fde38b1461084c578063f32ccefc14610868578063f48ef7b314610884578063ff9204fc146108a25761029f565b8063d28d885214610740578063d55690cc1461075e578063df714a231461077a578063e0d0b1b0146107aa578063e985e9c5146107c6578063ec75c2ec146107f65761029f565b8063b286d84611610120578063b286d8461461066c578063b390c0ab1461069c578063b39d80cb146106b8578063c3c1e8ff146106d6578063c87b56dd146106f4578063c9b3ed07146107245761029f565b806395d89b41146105bc5780639f4e8612146105da578063a22cb465146105f8578063a522ad2514610614578063aacffcd114610630578063b09f12661461064e5761029f565b80633ea514911161020b5780635ce92989116101c45780635ce9298914610522578063715018a61461054057806383ca4b6f1461054a578063862440e2146105665780638da5cb5b146105825780638edeb528146105a05761029f565b80633ea514911461045057806341c30f791461046e578063440bc7f31461049e5780634d0ac59a146104ba5780634e1273f4146104d6578063510f4104146105065761029f565b806324600fc31161025d57806324600fc31461038e5780632482751c146103985780632eb2c2d6146103c85780632fa5b0cb146103e457806330b9ff7214610402578063366fc60d146104205761029f565b8062fdd58e146102a457806301ffc9a7146102d4578063041fa44e1461030457806306fdde03146103225780630e89341c146103405780631689519014610370575b600080fd5b6102be60048036038101906102b99190614400565b6108c0565b6040516102cb9190615178565b60405180910390f35b6102ee60048036038101906102e9919061458f565b610989565b6040516102fb9190614de0565b60405180910390f35b61030c610a6b565b6040516103199190614dfb565b60405180910390f35b61032a610a71565b6040516103379190614e16565b60405180910390f35b61035a6004803603810190610355919061461d565b610b03565b6040516103679190614e16565b60405180910390f35b610378610ba8565b6040516103859190614de0565b60405180910390f35b610396610bbb565b005b6103b260048036038101906103ad9190614295565b610c0c565b6040516103bf9190614de0565b60405180910390f35b6103e260048036038101906103dd9190614147565b610c56565b005b6103ec610cf7565b6040516103f99190615178565b60405180910390f35b61040a610cfd565b6040516104179190615178565b60405180910390f35b61043a600480360381019061043591906140e2565b610d03565b6040516104479190615178565b60405180910390f35b610458610d1b565b6040516104659190615178565b60405180910390f35b610488600480360381019061048391906140e2565b610d21565b6040516104959190615178565b60405180910390f35b6104b860048036038101906104b39190614566565b610d39565b005b6104d460048036038101906104cf919061461d565b610d4b565b005b6104f060048036038101906104eb919061443c565b610e8d565b6040516104fd9190614d87565b60405180910390f35b610520600480360381019061051b91906142ed565b61103e565b005b61052a611073565b6040516105379190615178565b60405180910390f35b610548611079565b005b610564600480360381019061055f91906144a8565b61108d565b005b610580600480360381019061057b91906146c7565b61109c565b005b61058a611108565b6040516105979190614c4a565b60405180910390f35b6105ba60048036038101906105b5919061461d565b611132565b005b6105c4611144565b6040516105d19190614e16565b60405180910390f35b6105e26111d6565b6040516105ef9190614c4a565b60405180910390f35b610612600480360381019061060d91906143c4565b6111fc565b005b61062e600480360381019061062991906145e1565b611212565b005b610638611334565b6040516106459190615178565b60405180910390f35b61065661133a565b6040516106639190614e16565b60405180910390f35b610686600480360381019061068191906140e2565b6113c8565b6040516106939190614de0565b60405180910390f35b6106b660048036038101906106b1919061471b565b6113e8565b005b6106c06113f7565b6040516106cd9190614dfb565b60405180910390f35b6106de6113fd565b6040516106eb9190614e16565b60405180910390f35b61070e6004803603810190610709919061461d565b61148b565b60405161071b9190614e16565b60405180910390f35b61073e6004803603810190610739919061466f565b61152b565b005b61074861170c565b6040516107559190614e16565b60405180910390f35b61077860048036038101906107739190614514565b61179a565b005b610794600480360381019061078f9190614295565b6117da565b6040516107a19190614de0565b60405180910390f35b6107c460048036038101906107bf919061461d565b611824565b005b6107e060048036038101906107db919061410b565b611836565b6040516107ed9190614de0565b60405180910390f35b610810600480360381019061080b9190614514565b6118ca565b005b61081a61190a565b6040516108279190614de0565b60405180910390f35b61084a60048036038101906108459190614206565b61191d565b005b610866600480360381019061086191906140e2565b6119be565b005b610882600480360381019061087d9190614566565b611a42565b005b61088c611a54565b6040516108999190615178565b60405180910390f35b6108aa611a5a565b6040516108b79190614e16565b60405180910390f35b60008073ffffffffffffffffffffffffffffffffffffffff168373ffffffffffffffffffffffffffffffffffffffff161415610931576040517f08c379a000000000000000000000000000000000000000000000000000000000815260040161092890614f58565b60405180910390fd5b60008083815260200190815260200160002060008473ffffffffffffffffffffffffffffffffffffffff1673ffffffffffffffffffffffffffffffffffffffff16815260200190815260200160002054905092915050565b60007fd9b67a26000000000000000000000000000000000000000000000000000000007bffffffffffffffffffffffffffffffffffffffffffffffffffffffff1916827bffffffffffffffffffffffffffffffffffffffffffffffffffffffff19161480610a5457507f0e89341c000000000000000000000000000000000000000000000000000000007bffffffffffffffffffffffffffffffffffffffffffffffffffffffff1916827bffffffffffffffffffffffffffffffffffffffffffffffffffffffff1916145b80610a645750610a6382611aec565b5b9050919050565b600a5481565b606060058054610a809061548e565b80601f0160208091040260200160405190810160405280929190818152602001828054610aac9061548e565b8015610af95780601f10610ace57610100808354040283529160200191610af9565b820191906000526020600020905b815481529060010190602001808311610adc57829003601f168201915b5050505050905090565b6060601260008381526020019081526020016000208054610b239061548e565b80601f0160208091040260200160405190810160405280929190818152602001828054610b4f9061548e565b8015610b9c5780601f10610b7157610100808354040283529160200191610b9c565b820191906000526020600020905b815481529060010190602001808311610b7f57829003601f168201915b50505050509050919050565b600860009054906101000a900460ff1681565b610bc3611b56565b3373ffffffffffffffffffffffffffffffffffffffff166108fc479081150290604051600060405180830381858888f19350505050158015610c09573d6000803e3d6000fd5b50565b60008084604051602001610c209190614c2f565b6040516020818303038152906040528051906020012090506000610c48600a54868685611bd4565b905080925050509392505050565b610c5e611c2c565b73ffffffffffffffffffffffffffffffffffffffff168573ffffffffffffffffffffffffffffffffffffffff161480610ca45750610ca385610c9e611c2c565b611836565b5b610ce3576040517f08c379a0000000000000000000000000000000000000000000000000000000008152600401610cda90614e58565b60405180910390fd5b610cf08585858585611c34565b5050505050565b600f5481565b600e5481565b60156020528060005260406000206000915090505481565b600c5481565b60146020528060005260406000206000915090505481565b610d41611b56565b80600a8190555050565b60026003541415610d91576040517f08c379a0000000000000000000000000000000000000000000000000000000008152600401610d8890615138565b60405180910390fd5b600260038190555060001515601360003373ffffffffffffffffffffffffffffffffffffffff1673ffffffffffffffffffffffffffffffffffffffff16815260200190815260200160002060009054906101000a900460ff16151514610e2c576040517f08c379a0000000000000000000000000000000000000000000000000000000008152600401610e2390614e98565b60405180910390fd5b60008111610e6f576040517f08c379a0000000000000000000000000000000000000000000000000000000008152600401610e6690614fd8565b60405180910390fd5b6000811115610e8257610e8181611fa2565b5b600160038190555050565b60608151835114610ed3576040517f08c379a0000000000000000000000000000000000000000000000000000000008152600401610eca906150b8565b60405180910390fd5b6000835167ffffffffffffffff811115610f16577f4e487b7100000000000000000000000000000000000000000000000000000000600052604160045260246000fd5b604051908082528060200260200182016040528015610f445781602001602082028036833780820191505090505b50905060005b845181101561103357610fdd858281518110610f8f577f4e487b7100000000000000000000000000000000000000000000000000000000600052603260045260246000fd5b6020026020010151858381518110610fd0577f4e487b7100000000000000000000000000000000000000000000000000000000600052603260045260246000fd5b60200260200101516108c0565b828281518110611016577f4e487b7100000000000000000000000000000000000000000000000000000000600052603260045260246000fd5b6020026020010181815250508061102c906154f1565b9050610f4a565b508091505092915050565b611046611b56565b611051858585612487565b61106c858383604051806020016040528060008152506127a2565b5050505050565b60115481565b611081611b56565b61108b6000612a1b565b565b611098338383612487565b5050565b6110a4611b56565b806012600084815260200190815260200160002090805190602001906110cb929190613d3c565b50817f6bb7ff708619ba0610cba295a58592e0451dee2622938c8755667688daf3529b826040516110fc9190614e16565b60405180910390a25050565b6000600460009054906101000a900473ffffffffffffffffffffffffffffffffffffffff16905090565b61113a611b56565b80600d8190555050565b6060600680546111539061548e565b80601f016020809104026020016040519081016040528092919081815260200182805461117f9061548e565b80156111cc5780601f106111a1576101008083540402835291602001916111cc565b820191906000526020600020905b8154815290600101906020018083116111af57829003601f168201915b5050505050905090565b600b60009054906101000a900473ffffffffffffffffffffffffffffffffffffffff1681565b61120e611207611c2c565b8383612ae1565b5050565b61121a611b56565b8173ffffffffffffffffffffffffffffffffffffffff1663a9059cbb828473ffffffffffffffffffffffffffffffffffffffff166370a08231306040518263ffffffff1660e01b81526004016112709190614c4a565b60206040518083038186803b15801561128857600080fd5b505afa15801561129c573d6000803e3d6000fd5b505050506040513d601f19601f820116820180604052508101906112c09190614646565b6040518363ffffffff1660e01b81526004016112dd929190614d5e565b602060405180830381600087803b1580156112f757600080fd5b505af115801561130b573d6000803e3d6000fd5b505050506040513d601f19601f8201168201806040525081019061132f919061453d565b505050565b600d5481565b600680546113479061548e565b80601f01602080910402602001604051908101604052809291908181526020018280546113739061548e565b80156113c05780601f10611395576101008083540402835291602001916113c0565b820191906000526020600020905b8154815290600101906020018083116113a357829003601f168201915b505050505081565b60136020528060005260406000206000915054906101000a900460ff1681565b6113f3338383612c4e565b5050565b60095481565b6007805461140a9061548e565b80601f01602080910402602001604051908101604052809291908181526020018280546114369061548e565b80156114835780601f1061145857610100808354040283529160200191611483565b820191906000526020600020905b81548152906001019060200180831161146657829003601f168201915b505050505081565b601260205280600052604060002060009150905080546114aa9061548e565b80601f01602080910402602001604051908101604052809291908181526020018280546114d69061548e565b80156115235780601f106114f857610100808354040283529160200191611523565b820191906000526020600020905b81548152906001019060200180831161150657829003601f168201915b505050505081565b60026003541415611571576040517f08c379a000000000000000000000000000000000000000000000000000000000815260040161156890615138565b60405180910390fd5b600260038190555060011515600860009054906101000a900460ff16151514806115ae575060011515600860019054906101000a900460ff161515145b6115ed576040517f08c379a00000000000000000000000000000000000000000000000000000000081526004016115e490614f38565b60405180910390fd5b60001515601360003373ffffffffffffffffffffffffffffffffffffffff1673ffffffffffffffffffffffffffffffffffffffff16815260200190815260200160002060009054906101000a900460ff16151514611680576040517f08c379a000000000000000000000000000000000000000000000000000000000815260040161167790614f98565b60405180910390fd5b600083116116c3576040517f08c379a00000000000000000000000000000000000000000000000000000000081526004016116ba90614ef8565b60405180910390fd5b60008311156116ff576116fe8360011515600860019054906101000a900460ff161515146116f3576009546116f7565b600a545b8484612e95565b5b6001600381905550505050565b600580546117199061548e565b80601f01602080910402602001604051908101604052809291908181526020018280546117459061548e565b80156117925780601f1061176757610100808354040283529160200191611792565b820191906000526020600020905b81548152906001019060200180831161177557829003601f168201915b505050505081565b6117a2611b56565b6000600860006101000a81548160ff02191690831515021790555080600860016101000a81548160ff02191690831515021790555050565b600080846040516020016117ee9190614c2f565b6040516020818303038152906040528051906020012090506000611816600954868685611bd4565b905080925050509392505050565b61182c611b56565b80600c8190555050565b6000600160008473ffffffffffffffffffffffffffffffffffffffff1673ffffffffffffffffffffffffffffffffffffffff16815260200190815260200160002060008373ffffffffffffffffffffffffffffffffffffffff1673ffffffffffffffffffffffffffffffffffffffff16815260200190815260200160002060009054906101000a900460ff16905092915050565b6118d2611b56565b6000600860016101000a81548160ff02191690831515021790555080600860006101000a81548160ff02191690831515021790555050565b600860019054906101000a900460ff1681565b611925611c2c565b73ffffffffffffffffffffffffffffffffffffffff168573ffffffffffffffffffffffffffffffffffffffff16148061196b575061196a85611965611c2c565b611836565b5b6119aa576040517f08c379a00000000000000000000000000000000000000000000000000000000081526004016119a190614e58565b60405180910390fd5b6119b78585858585613353565b5050505050565b6119c6611b56565b600073ffffffffffffffffffffffffffffffffffffffff168173ffffffffffffffffffffffffffffffffffffffff161415611a36576040517f08c379a0000000000000000000000000000000000000000000000000000000008152600401611a2d90614ed8565b60405180910390fd5b611a3f81612a1b565b50565b611a4a611b56565b8060098190555050565b60105481565b606060078054611a699061548e565b80601f0160208091040260200160405190810160405280929190818152602001828054611a959061548e565b8015611ae25780601f10611ab757610100808354040283529160200191611ae2565b820191906000526020600020905b815481529060010190602001808311611ac557829003601f168201915b5050505050905090565b60007f01ffc9a7000000000000000000000000000000000000000000000000000000007bffffffffffffffffffffffffffffffffffffffffffffffffffffffff1916827bffffffffffffffffffffffffffffffffffffffffffffffffffffffff1916149050919050565b611b5e611c2c565b73ffffffffffffffffffffffffffffffffffffffff16611b7c611108565b73ffffffffffffffffffffffffffffffffffffffff1614611bd2576040517f08c379a0000000000000000000000000000000000000000000000000000000008152600401611bc990615038565b60405180910390fd5b565b6000611c22848480806020026020016040519081016040528093929190818152602001838360200280828437600081840152601f19601f8201169050808301925050505050505086846135ef565b9050949350505050565b600033905090565b8151835114611c78576040517f08c379a0000000000000000000000000000000000000000000000000000000008152600401611c6f906150f8565b60405180910390fd5b600073ffffffffffffffffffffffffffffffffffffffff168473ffffffffffffffffffffffffffffffffffffffff161415611ce8576040517f08c379a0000000000000000000000000000000000000000000000000000000008152600401611cdf90614fb8565b60405180910390fd5b6000611cf2611c2c565b9050611d02818787878787613606565b60005b8451811015611eff576000858281518110611d49577f4e487b7100000000000000000000000000000000000000000000000000000000600052603260045260246000fd5b602002602001015190506000858381518110611d8e577f4e487b7100000000000000000000000000000000000000000000000000000000600052603260045260246000fd5b60200260200101519050600080600084815260200190815260200160002060008b73ffffffffffffffffffffffffffffffffffffffff1673ffffffffffffffffffffffffffffffffffffffff16815260200190815260200160002054905081811015611e2f576040517f08c379a0000000000000000000000000000000000000000000000000000000008152600401611e2690615018565b60405180910390fd5b81810360008085815260200190815260200160002060008c73ffffffffffffffffffffffffffffffffffffffff1673ffffffffffffffffffffffffffffffffffffffff168152602001908152602001600020819055508160008085815260200190815260200160002060008b73ffffffffffffffffffffffffffffffffffffffff1673ffffffffffffffffffffffffffffffffffffffff1681526020019081526020016000206000828254611ee4919061530c565b9250508190555050505080611ef8906154f1565b9050611d05565b508473ffffffffffffffffffffffffffffffffffffffff168673ffffffffffffffffffffffffffffffffffffffff168273ffffffffffffffffffffffffffffffffffffffff167f4a39dc06d4c0dbc64b70af90fd698a233a518aa5d07e595d983b8c0526c8f7fb8787604051611f76929190614da9565b60405180910390a4611f8c81878787878761360e565b611f9a818787878787613616565b505050505050565b80600681601560003373ffffffffffffffffffffffffffffffffffffffff1673ffffffffffffffffffffffffffffffffffffffff16815260200190815260200160002054611ff0919061530c565b10612030576040517f08c379a000000000000000000000000000000000000000000000000000000000815260040161202790615058565b60405180910390fd5b600f5481601154612041919061530c565b1115612082576040517f08c379a0000000000000000000000000000000000000000000000000000000008152600401612079906150d8565b60405180910390fd5b60001515601360003373ffffffffffffffffffffffffffffffffffffffff1673ffffffffffffffffffffffffffffffffffffffff16815260200190815260200160002060009054906101000a900460ff16151514612115576040517f08c379a000000000000000000000000000000000000000000000000000000000815260040161210c90614f98565b60405180910390fd5b80600c546121239190615362565b600b60009054906101000a900473ffffffffffffffffffffffffffffffffffffffff1673ffffffffffffffffffffffffffffffffffffffff166370a08231336040518263ffffffff1660e01b815260040161217e9190614c4a565b60206040518083038186803b15801561219657600080fd5b505afa1580156121aa573d6000803e3d6000fd5b505050506040513d601f19601f820116820180604052508101906121ce9190614646565b101561220f576040517f08c379a000000000000000000000000000000000000000000000000000000000815260040161220690614f78565b60405180910390fd5b8160115461221d919061530c565b601181905550600582601560003373ffffffffffffffffffffffffffffffffffffffff1673ffffffffffffffffffffffffffffffffffffffff16815260200190815260200160002054612270919061530c565b1480156122bc57506001601460003373ffffffffffffffffffffffffffffffffffffffff1673ffffffffffffffffffffffffffffffffffffffff16815260200190815260200160002054145b1561231a576001601360003373ffffffffffffffffffffffffffffffffffffffff1673ffffffffffffffffffffffffffffffffffffffff16815260200190815260200160002060006101000a81548160ff0219169083151502179055505b81601560003373ffffffffffffffffffffffffffffffffffffffff1673ffffffffffffffffffffffffffffffffffffffff16815260200190815260200160002054612365919061530c565b601560003373ffffffffffffffffffffffffffffffffffffffff1673ffffffffffffffffffffffffffffffffffffffff16815260200190815260200160002081905550600b60009054906101000a900473ffffffffffffffffffffffffffffffffffffffff1673ffffffffffffffffffffffffffffffffffffffff166323b872dd333085600c546123f69190615362565b6040518463ffffffff1660e01b815260040161241493929190614ccd565b602060405180830381600087803b15801561242e57600080fd5b505af1158015612442573d6000803e3d6000fd5b505050506040513d601f19601f82011682018060405250810190612466919061453d565b5061248333600284604051806020016040528060008152506137fd565b5050565b600073ffffffffffffffffffffffffffffffffffffffff168373ffffffffffffffffffffffffffffffffffffffff1614156124f7576040517f08c379a00000000000000000000000000000000000000000000000000000000081526004016124ee90614ff8565b60405180910390fd5b805182511461253b576040517f08c379a0000000000000000000000000000000000000000000000000000000008152600401612532906150f8565b60405180910390fd5b6000612545611c2c565b905061256581856000868660405180602001604052806000815250613606565b60005b83518110156126fe5760008482815181106125ac577f4e487b7100000000000000000000000000000000000000000000000000000000600052603260045260246000fd5b6020026020010151905060008483815181106125f1577f4e487b7100000000000000000000000000000000000000000000000000000000600052603260045260246000fd5b60200260200101519050600080600084815260200190815260200160002060008973ffffffffffffffffffffffffffffffffffffffff1673ffffffffffffffffffffffffffffffffffffffff16815260200190815260200160002054905081811015612692576040517f08c379a000000000000000000000000000000000000000000000000000000000815260040161268990614f18565b60405180910390fd5b81810360008085815260200190815260200160002060008a73ffffffffffffffffffffffffffffffffffffffff1673ffffffffffffffffffffffffffffffffffffffff1681526020019081526020016000208190555050505080806126f6906154f1565b915050612568565b50600073ffffffffffffffffffffffffffffffffffffffff168473ffffffffffffffffffffffffffffffffffffffff168273ffffffffffffffffffffffffffffffffffffffff167f4a39dc06d4c0dbc64b70af90fd698a233a518aa5d07e595d983b8c0526c8f7fb8686604051612776929190614da9565b60405180910390a461279c8185600086866040518060200160405280600081525061360e565b50505050565b600073ffffffffffffffffffffffffffffffffffffffff168473ffffffffffffffffffffffffffffffffffffffff161415612812576040517f08c379a000000000000000000000000000000000000000000000000000000000815260040161280990615118565b60405180910390fd5b8151835114612856576040517f08c379a000000000000000000000000000000000000000000000000000000000815260040161284d906150f8565b60405180910390fd5b6000612860611c2c565b905061287181600087878787613606565b60005b8451811015612976578381815181106128b6577f4e487b7100000000000000000000000000000000000000000000000000000000600052603260045260246000fd5b60200260200101516000808784815181106128fa577f4e487b7100000000000000000000000000000000000000000000000000000000600052603260045260246000fd5b6020026020010151815260200190815260200160002060008873ffffffffffffffffffffffffffffffffffffffff1673ffffffffffffffffffffffffffffffffffffffff168152602001908152602001600020600082825461295c919061530c565b92505081905550808061296e906154f1565b915050612874565b508473ffffffffffffffffffffffffffffffffffffffff16600073ffffffffffffffffffffffffffffffffffffffff168273ffffffffffffffffffffffffffffffffffffffff167f4a39dc06d4c0dbc64b70af90fd698a233a518aa5d07e595d983b8c0526c8f7fb87876040516129ee929190614da9565b60405180910390a4612a058160008787878761360e565b612a1481600087878787613616565b5050505050565b6000600460009054906101000a900473ffffffffffffffffffffffffffffffffffffffff16905081600460006101000a81548173ffffffffffffffffffffffffffffffffffffffff021916908373ffffffffffffffffffffffffffffffffffffffff1602179055508173ffffffffffffffffffffffffffffffffffffffff168173ffffffffffffffffffffffffffffffffffffffff167f8be0079c531659141344cd1fd0a4f28419497f9722a3daafe3b4186f6b6457e060405160405180910390a35050565b8173ffffffffffffffffffffffffffffffffffffffff168373ffffffffffffffffffffffffffffffffffffffff161415612b50576040517f08c379a0000000000000000000000000000000000000000000000000000000008152600401612b4790615098565b60405180910390fd5b80600160008573ffffffffffffffffffffffffffffffffffffffff1673ffffffffffffffffffffffffffffffffffffffff16815260200190815260200160002060008473ffffffffffffffffffffffffffffffffffffffff1673ffffffffffffffffffffffffffffffffffffffff16815260200190815260200160002060006101000a81548160ff0219169083151502179055508173ffffffffffffffffffffffffffffffffffffffff168373ffffffffffffffffffffffffffffffffffffffff167f17307eab39ab6107e8899845ad3d59bd9653f200f220920489ca2b5937696c3183604051612c419190614de0565b60405180910390a3505050565b600073ffffffffffffffffffffffffffffffffffffffff168373ffffffffffffffffffffffffffffffffffffffff161415612cbe576040517f08c379a0000000000000000000000000000000000000000000000000000000008152600401612cb590614ff8565b60405180910390fd5b6000612cc8611c2c565b90506000612cd5846139ae565b90506000612ce2846139ae565b9050612d0283876000858560405180602001604052806000815250613606565b600080600087815260200190815260200160002060008873ffffffffffffffffffffffffffffffffffffffff1673ffffffffffffffffffffffffffffffffffffffff16815260200190815260200160002054905084811015612d99576040517f08c379a0000000000000000000000000000000000000000000000000000000008152600401612d9090614f18565b60405180910390fd5b84810360008088815260200190815260200160002060008973ffffffffffffffffffffffffffffffffffffffff1673ffffffffffffffffffffffffffffffffffffffff16815260200190815260200160002081905550600073ffffffffffffffffffffffffffffffffffffffff168773ffffffffffffffffffffffffffffffffffffffff168573ffffffffffffffffffffffffffffffffffffffff167fc3d58168c5ae7397731d063d5bbf3d657854427343f4c083240f7aacaa2d0f628989604051612e66929190615193565b60405180910390a4612e8c8488600086866040518060200160405280600081525061360e565b50505050505050565b83600281601460003373ffffffffffffffffffffffffffffffffffffffff1673ffffffffffffffffffffffffffffffffffffffff16815260200190815260200160002054612ee3919061530c565b10612f23576040517f08c379a0000000000000000000000000000000000000000000000000000000008152600401612f1a90615078565b60405180910390fd5b600e546001601054612f35919061530c565b1115612f76576040517f08c379a0000000000000000000000000000000000000000000000000000000008152600401612f6d90615158565b60405180910390fd5b600d54600b60009054906101000a900473ffffffffffffffffffffffffffffffffffffffff1673ffffffffffffffffffffffffffffffffffffffff166370a08231336040518263ffffffff1660e01b8152600401612fd49190614c4a565b60206040518083038186803b158015612fec57600080fd5b505afa158015613000573d6000803e3d6000fd5b505050506040513d601f19601f820116820180604052508101906130249190614646565b1015613065576040517f08c379a000000000000000000000000000000000000000000000000000000000815260040161305c90614f78565b60405180910390fd5b6000336040516020016130789190614c2f565b604051602081830303815290604052805190602001209050600115156130a086868685611bd4565b1515146130e2576040517f08c379a00000000000000000000000000000000000000000000000000000000081526004016130d990614eb8565b60405180910390fd5b856010546130f0919061530c565b601081905550600186601460003373ffffffffffffffffffffffffffffffffffffffff1673ffffffffffffffffffffffffffffffffffffffff16815260200190815260200160002054613143919061530c565b14801561318f57506005601560003373ffffffffffffffffffffffffffffffffffffffff1673ffffffffffffffffffffffffffffffffffffffff16815260200190815260200160002054145b156131ed576001601360003373ffffffffffffffffffffffffffffffffffffffff1673ffffffffffffffffffffffffffffffffffffffff16815260200190815260200160002060006101000a81548160ff0219169083151502179055505b85601460003373ffffffffffffffffffffffffffffffffffffffff1673ffffffffffffffffffffffffffffffffffffffff16815260200190815260200160002054613238919061530c565b601460003373ffffffffffffffffffffffffffffffffffffffff1673ffffffffffffffffffffffffffffffffffffffff16815260200190815260200160002081905550600b60009054906101000a900473ffffffffffffffffffffffffffffffffffffffff1673ffffffffffffffffffffffffffffffffffffffff166323b872dd3330600d546040518463ffffffff1660e01b81526004016132dc93929190614ccd565b602060405180830381600087803b1580156132f657600080fd5b505af115801561330a573d6000803e3d6000fd5b505050506040513d601f19601f8201168201806040525081019061332e919061453d565b5061334b33600188604051806020016040528060008152506137fd565b505050505050565b600073ffffffffffffffffffffffffffffffffffffffff168473ffffffffffffffffffffffffffffffffffffffff1614156133c3576040517f08c379a00000000000000000000000000000000000000000000000000000000081526004016133ba90614fb8565b60405180910390fd5b60006133cd611c2c565b905060006133da856139ae565b905060006133e7856139ae565b90506133f7838989858589613606565b600080600088815260200190815260200160002060008a73ffffffffffffffffffffffffffffffffffffffff1673ffffffffffffffffffffffffffffffffffffffff1681526020019081526020016000205490508581101561348e576040517f08c379a000000000000000000000000000000000000000000000000000000000815260040161348590615018565b60405180910390fd5b85810360008089815260200190815260200160002060008b73ffffffffffffffffffffffffffffffffffffffff1673ffffffffffffffffffffffffffffffffffffffff168152602001908152602001600020819055508560008089815260200190815260200160002060008a73ffffffffffffffffffffffffffffffffffffffff1673ffffffffffffffffffffffffffffffffffffffff1681526020019081526020016000206000828254613543919061530c565b925050819055508773ffffffffffffffffffffffffffffffffffffffff168973ffffffffffffffffffffffffffffffffffffffff168573ffffffffffffffffffffffffffffffffffffffff167fc3d58168c5ae7397731d063d5bbf3d657854427343f4c083240f7aacaa2d0f628a8a6040516135c0929190615193565b60405180910390a46135d6848a8a86868a61360e565b6135e4848a8a8a8a8a613a74565b505050505050505050565b6000826135fc8584613c5b565b1490509392505050565b505050505050565b505050505050565b6136358473ffffffffffffffffffffffffffffffffffffffff16613cd7565b156137f5578373ffffffffffffffffffffffffffffffffffffffff1663bc197c8187878686866040518663ffffffff1660e01b815260040161367b959493929190614c65565b602060405180830381600087803b15801561369557600080fd5b505af19250505080156136c657506040513d601f19601f820116820180604052508101906136c391906145b8565b60015b61376c576136d26155eb565b806308c379a0141561372f57506136e7615d34565b806136f25750613731565b806040517f08c379a00000000000000000000000000000000000000000000000000000000081526004016137269190614e16565b60405180910390fd5b505b6040517f08c379a000000000000000000000000000000000000000000000000000000000815260040161376390614e38565b60405180910390fd5b63bc197c8160e01b7bffffffffffffffffffffffffffffffffffffffffffffffffffffffff1916817bffffffffffffffffffffffffffffffffffffffffffffffffffffffff1916146137f3576040517f08c379a00000000000000000000000000000000000000000000000000000000081526004016137ea90614e78565b60405180910390fd5b505b505050505050565b600073ffffffffffffffffffffffffffffffffffffffff168473ffffffffffffffffffffffffffffffffffffffff16141561386d576040517f08c379a000000000000000000000000000000000000000000000000000000000815260040161386490615118565b60405180910390fd5b6000613877611c2c565b90506000613884856139ae565b90506000613891856139ae565b90506138a283600089858589613606565b8460008088815260200190815260200160002060008973ffffffffffffffffffffffffffffffffffffffff1673ffffffffffffffffffffffffffffffffffffffff1681526020019081526020016000206000828254613901919061530c565b925050819055508673ffffffffffffffffffffffffffffffffffffffff16600073ffffffffffffffffffffffffffffffffffffffff168473ffffffffffffffffffffffffffffffffffffffff167fc3d58168c5ae7397731d063d5bbf3d657854427343f4c083240f7aacaa2d0f62898960405161397f929190615193565b60405180910390a46139968360008985858961360e565b6139a583600089898989613a74565b50505050505050565b60606000600167ffffffffffffffff8111156139f3577f4e487b7100000000000000000000000000000000000000000000000000000000600052604160045260246000fd5b604051908082528060200260200182016040528015613a215781602001602082028036833780820191505090505b5090508281600081518110613a5f577f4e487b7100000000000000000000000000000000000000000000000000000000600052603260045260246000fd5b60200260200101818152505080915050919050565b613a938473ffffffffffffffffffffffffffffffffffffffff16613cd7565b15613c53578373ffffffffffffffffffffffffffffffffffffffff1663f23a6e6187878686866040518663ffffffff1660e01b8152600401613ad9959493929190614d04565b602060405180830381600087803b158015613af357600080fd5b505af1925050508015613b2457506040513d601f19601f82011682018060405250810190613b2191906145b8565b60015b613bca57613b306155eb565b806308c379a01415613b8d5750613b45615d34565b80613b505750613b8f565b806040517f08c379a0000000000000000000000000000000000000000000000000000000008152600401613b849190614e16565b60405180910390fd5b505b6040517f08c379a0000000000000000000000000000000000000000000000000000000008152600401613bc190614e38565b60405180910390fd5b63f23a6e6160e01b7bffffffffffffffffffffffffffffffffffffffffffffffffffffffff1916817bffffffffffffffffffffffffffffffffffffffffffffffffffffffff191614613c51576040517f08c379a0000000000000000000000000000000000000000000000000000000008152600401613c4890614e78565b60405180910390fd5b505b505050505050565b60008082905060005b8451811015613ccc57613cb782868381518110613caa577f4e487b7100000000000000000000000000000000000000000000000000000000600052603260045260246000fd5b6020026020010151613cfa565b91508080613cc4906154f1565b915050613c64565b508091505092915050565b6000808273ffffffffffffffffffffffffffffffffffffffff163b119050919050565b6000818310613d1257613d0d8284613d25565b613d1d565b613d1c8383613d25565b5b905092915050565b600082600052816020526040600020905092915050565b828054613d489061548e565b90600052602060002090601f016020900481019282613d6a5760008555613db1565b82601f10613d8357805160ff1916838001178555613db1565b82800160010185558215613db1579182015b82811115613db0578251825591602001919060010190613d95565b5b509050613dbe9190613dc2565b5090565b5b80821115613ddb576000816000905550600101613dc3565b5090565b6000613df2613ded846151e1565b6151bc565b90508083825260208201905082856020860282011115613e1157600080fd5b60005b85811015613e415781613e278882613f33565b845260208401935060208301925050600181019050613e14565b5050509392505050565b6000613e5e613e598461520d565b6151bc565b90508083825260208201905082856020860282011115613e7d57600080fd5b60005b85811015613ead5781613e9388826140b8565b845260208401935060208301925050600181019050613e80565b5050509392505050565b6000613eca613ec584615239565b6151bc565b905082815260208101848484011115613ee257600080fd5b613eed84828561544c565b509392505050565b6000613f08613f038461526a565b6151bc565b905082815260208101848484011115613f2057600080fd5b613f2b84828561544c565b509392505050565b600081359050613f4281615dca565b92915050565b600082601f830112613f5957600080fd5b8135613f69848260208601613ddf565b91505092915050565b60008083601f840112613f8457600080fd5b8235905067ffffffffffffffff811115613f9d57600080fd5b602083019150836020820283011115613fb557600080fd5b9250929050565b600082601f830112613fcd57600080fd5b8135613fdd848260208601613e4b565b91505092915050565b600081359050613ff581615de1565b92915050565b60008151905061400a81615de1565b92915050565b60008135905061401f81615df8565b92915050565b60008135905061403481615e0f565b92915050565b60008151905061404981615e0f565b92915050565b600082601f83011261406057600080fd5b8135614070848260208601613eb7565b91505092915050565b60008135905061408881615e26565b92915050565b600082601f83011261409f57600080fd5b81356140af848260208601613ef5565b91505092915050565b6000813590506140c781615e3d565b92915050565b6000815190506140dc81615e3d565b92915050565b6000602082840312156140f457600080fd5b600061410284828501613f33565b91505092915050565b6000806040838503121561411e57600080fd5b600061412c85828601613f33565b925050602061413d85828601613f33565b9150509250929050565b600080600080600060a0868803121561415f57600080fd5b600061416d88828901613f33565b955050602061417e88828901613f33565b945050604086013567ffffffffffffffff81111561419b57600080fd5b6141a788828901613fbc565b935050606086013567ffffffffffffffff8111156141c457600080fd5b6141d088828901613fbc565b925050608086013567ffffffffffffffff8111156141ed57600080fd5b6141f98882890161404f565b9150509295509295909350565b600080600080600060a0868803121561421e57600080fd5b600061422c88828901613f33565b955050602061423d88828901613f33565b945050604061424e888289016140b8565b935050606061425f888289016140b8565b925050608086013567ffffffffffffffff81111561427c57600080fd5b6142888882890161404f565b9150509295509295909350565b6000806000604084860312156142aa57600080fd5b60006142b886828701613f33565b935050602084013567ffffffffffffffff8111156142d557600080fd5b6142e186828701613f72565b92509250509250925092565b600080600080600060a0868803121561430557600080fd5b600061431388828901613f33565b955050602086013567ffffffffffffffff81111561433057600080fd5b61433c88828901613fbc565b945050604086013567ffffffffffffffff81111561435957600080fd5b61436588828901613fbc565b935050606086013567ffffffffffffffff81111561438257600080fd5b61438e88828901613fbc565b925050608086013567ffffffffffffffff8111156143ab57600080fd5b6143b788828901613fbc565b9150509295509295909350565b600080604083850312156143d757600080fd5b60006143e585828601613f33565b92505060206143f685828601613fe6565b9150509250929050565b6000806040838503121561441357600080fd5b600061442185828601613f33565b9250506020614432858286016140b8565b9150509250929050565b6000806040838503121561444f57600080fd5b600083013567ffffffffffffffff81111561446957600080fd5b61447585828601613f48565b925050602083013567ffffffffffffffff81111561449257600080fd5b61449e85828601613fbc565b9150509250929050565b600080604083850312156144bb57600080fd5b600083013567ffffffffffffffff8111156144d557600080fd5b6144e185828601613fbc565b925050602083013567ffffffffffffffff8111156144fe57600080fd5b61450a85828601613fbc565b9150509250929050565b60006020828403121561452657600080fd5b600061453484828501613fe6565b91505092915050565b60006020828403121561454f57600080fd5b600061455d84828501613ffb565b91505092915050565b60006020828403121561457857600080fd5b600061458684828501614010565b91505092915050565b6000602082840312156145a157600080fd5b60006145af84828501614025565b91505092915050565b6000602082840312156145ca57600080fd5b60006145d88482850161403a565b91505092915050565b600080604083850312156145f457600080fd5b600061460285828601614079565b925050602061461385828601613f33565b9150509250929050565b60006020828403121561462f57600080fd5b600061463d848285016140b8565b91505092915050565b60006020828403121561465857600080fd5b6000614666848285016140cd565b91505092915050565b60008060006040848603121561468457600080fd5b6000614692868287016140b8565b935050602084013567ffffffffffffffff8111156146af57600080fd5b6146bb86828701613f72565b92509250509250925092565b600080604083850312156146da57600080fd5b60006146e8858286016140b8565b925050602083013567ffffffffffffffff81111561470557600080fd5b6147118582860161408e565b9150509250929050565b6000806040838503121561472e57600080fd5b600061473c858286016140b8565b925050602061474d858286016140b8565b9150509250929050565b60006147638383614c11565b60208301905092915050565b614778816153bc565b82525050565b61478f61478a826153bc565b61553a565b82525050565b60006147a0826152ab565b6147aa81856152d9565b93506147b58361529b565b8060005b838110156147e65781516147cd8882614757565b97506147d8836152cc565b9250506001810190506147b9565b5085935050505092915050565b6147fc816153ce565b82525050565b61480b816153da565b82525050565b600061481c826152b6565b61482681856152ea565b935061483681856020860161545b565b61483f8161560d565b840191505092915050565b6000614855826152c1565b61485f81856152fb565b935061486f81856020860161545b565b6148788161560d565b840191505092915050565b60006148906034836152fb565b915061489b82615638565b604082019050919050565b60006148b3602f836152fb565b91506148be82615687565b604082019050919050565b60006148d66028836152fb565b91506148e1826156d6565b604082019050919050565b60006148f9601a836152fb565b915061490482615725565b602082019050919050565b600061491c602b836152fb565b91506149278261574e565b604082019050919050565b600061493f6026836152fb565b915061494a8261579d565b604082019050919050565b6000614962601e836152fb565b915061496d826157ec565b602082019050919050565b60006149856024836152fb565b915061499082615815565b604082019050919050565b60006149a86019836152fb565b91506149b382615864565b602082019050919050565b60006149cb602a836152fb565b91506149d68261588d565b604082019050919050565b60006149ee6014836152fb565b91506149f9826158dc565b602082019050919050565b6000614a116026836152fb565b9150614a1c82615905565b604082019050919050565b6000614a346025836152fb565b9150614a3f82615954565b604082019050919050565b6000614a57601e836152fb565b9150614a62826159a3565b602082019050919050565b6000614a7a6023836152fb565b9150614a85826159cc565b604082019050919050565b6000614a9d602a836152fb565b9150614aa882615a1b565b604082019050919050565b6000614ac06020836152fb565b9150614acb82615a6a565b602082019050919050565b6000614ae36029836152fb565b9150614aee82615a93565b604082019050919050565b6000614b066029836152fb565b9150614b1182615ae2565b604082019050919050565b6000614b296029836152fb565b9150614b3482615b31565b604082019050919050565b6000614b4c6029836152fb565b9150614b5782615b80565b604082019050919050565b6000614b6f602a836152fb565b9150614b7a82615bcf565b604082019050919050565b6000614b926028836152fb565b9150614b9d82615c1e565b604082019050919050565b6000614bb56021836152fb565b9150614bc082615c6d565b604082019050919050565b6000614bd8601f836152fb565b9150614be382615cbc565b602082019050919050565b6000614bfb602a836152fb565b9150614c0682615ce5565b604082019050919050565b614c1a81615442565b82525050565b614c2981615442565b82525050565b6000614c3b828461477e565b60148201915081905092915050565b6000602082019050614c5f600083018461476f565b92915050565b600060a082019050614c7a600083018861476f565b614c87602083018761476f565b8181036040830152614c998186614795565b90508181036060830152614cad8185614795565b90508181036080830152614cc18184614811565b90509695505050505050565b6000606082019050614ce2600083018661476f565b614cef602083018561476f565b614cfc6040830184614c20565b949350505050565b600060a082019050614d19600083018861476f565b614d26602083018761476f565b614d336040830186614c20565b614d406060830185614c20565b8181036080830152614d528184614811565b90509695505050505050565b6000604082019050614d73600083018561476f565b614d806020830184614c20565b9392505050565b60006020820190508181036000830152614da18184614795565b905092915050565b60006040820190508181036000830152614dc38185614795565b90508181036020830152614dd78184614795565b90509392505050565b6000602082019050614df560008301846147f3565b92915050565b6000602082019050614e106000830184614802565b92915050565b60006020820190508181036000830152614e30818461484a565b905092915050565b60006020820190508181036000830152614e5181614883565b9050919050565b60006020820190508181036000830152614e71816148a6565b9050919050565b60006020820190508181036000830152614e91816148c9565b9050919050565b60006020820190508181036000830152614eb1816148ec565b9050919050565b60006020820190508181036000830152614ed18161490f565b9050919050565b60006020820190508181036000830152614ef181614932565b9050919050565b60006020820190508181036000830152614f1181614955565b9050919050565b60006020820190508181036000830152614f3181614978565b9050919050565b60006020820190508181036000830152614f518161499b565b9050919050565b60006020820190508181036000830152614f71816149be565b9050919050565b60006020820190508181036000830152614f91816149e1565b9050919050565b60006020820190508181036000830152614fb181614a04565b9050919050565b60006020820190508181036000830152614fd181614a27565b9050919050565b60006020820190508181036000830152614ff181614a4a565b9050919050565b6000602082019050818103600083015261501181614a6d565b9050919050565b6000602082019050818103600083015261503181614a90565b9050919050565b6000602082019050818103600083015261505181614ab3565b9050919050565b6000602082019050818103600083015261507181614ad6565b9050919050565b6000602082019050818103600083015261509181614af9565b9050919050565b600060208201905081810360008301526150b181614b1c565b9050919050565b600060208201905081810360008301526150d181614b3f565b9050919050565b600060208201905081810360008301526150f181614b62565b9050919050565b6000602082019050818103600083015261511181614b85565b9050919050565b6000602082019050818103600083015261513181614ba8565b9050919050565b6000602082019050818103600083015261515181614bcb565b9050919050565b6000602082019050818103600083015261517181614bee565b9050919050565b600060208201905061518d6000830184614c20565b92915050565b60006040820190506151a86000830185614c20565b6151b56020830184614c20565b9392505050565b60006151c66151d7565b90506151d282826154c0565b919050565b6000604051905090565b600067ffffffffffffffff8211156151fc576151fb6155bc565b5b602082029050602081019050919050565b600067ffffffffffffffff821115615228576152276155bc565b5b602082029050602081019050919050565b600067ffffffffffffffff821115615254576152536155bc565b5b61525d8261560d565b9050602081019050919050565b600067ffffffffffffffff821115615285576152846155bc565b5b61528e8261560d565b9050602081019050919050565b6000819050602082019050919050565b600081519050919050565b600081519050919050565b600081519050919050565b6000602082019050919050565b600082825260208201905092915050565b600082825260208201905092915050565b600082825260208201905092915050565b600061531782615442565b915061532283615442565b9250827fffffffffffffffffffffffffffffffffffffffffffffffffffffffffffffffff038211156153575761535661555e565b5b828201905092915050565b600061536d82615442565b915061537883615442565b9250817fffffffffffffffffffffffffffffffffffffffffffffffffffffffffffffffff04831182151516156153b1576153b061555e565b5b828202905092915050565b60006153c782615422565b9050919050565b60008115159050919050565b6000819050919050565b60007fffffffff0000000000000000000000000000000000000000000000000000000082169050919050565b600061541b826153bc565b9050919050565b600073ffffffffffffffffffffffffffffffffffffffff82169050919050565b6000819050919050565b82818337600083830152505050565b60005b8381101561547957808201518184015260208101905061545e565b83811115615488576000848401525b50505050565b600060028204905060018216806154a657607f821691505b602082108114156154ba576154b961558d565b5b50919050565b6154c98261560d565b810181811067ffffffffffffffff821117156154e8576154e76155bc565b5b80604052505050565b60006154fc82615442565b91507fffffffffffffffffffffffffffffffffffffffffffffffffffffffffffffffff82141561552f5761552e61555e565b5b600182019050919050565b60006155458261554c565b9050919050565b60006155578261561e565b9050919050565b7f4e487b7100000000000000000000000000000000000000000000000000000000600052601160045260246000fd5b7f4e487b7100000000000000000000000000000000000000000000000000000000600052602260045260246000fd5b7f4e487b7100000000000000000000000000000000000000000000000000000000600052604160045260246000fd5b600060033d111561560a5760046000803e61560760005161562b565b90505b90565b6000601f19601f8301169050919050565b60008160601b9050919050565b60008160e01c9050919050565b7f455243313135353a207472616e7366657220746f206e6f6e204552433131353560008201527f526563656976657220696d706c656d656e746572000000000000000000000000602082015250565b7f455243313135353a2063616c6c6572206973206e6f7420746f6b656e206f776e60008201527f6572206e6f7220617070726f7665640000000000000000000000000000000000602082015250565b7f455243313135353a204552433131353552656365697665722072656a6563746560008201527f6420746f6b656e73000000000000000000000000000000000000000000000000602082015250565b7f4d61782035204c6974654e6f646573207065722077616c6c6574000000000000600082015250565b7f41646472657373206e6f7420656c696769626c65202d20496e76616c6964206d60008201527f65726b6c652070726f6f66000000000000000000000000000000000000000000602082015250565b7f4f776e61626c653a206e6577206f776e657220697320746865207a65726f206160008201527f6464726573730000000000000000000000000000000000000000000000000000602082015250565b7f46756c6c206e6f646520636f756e742063616e6e6f74206265207a65726f0000600082015250565b7f455243313135353a206275726e20616d6f756e7420657863656564732062616c60008201527f616e636500000000000000000000000000000000000000000000000000000000602082015250565b7f57686974656c6973742073616c65206e6f742061637469766500000000000000600082015250565b7f455243313135353a2061646472657373207a65726f206973206e6f742061207660008201527f616c6964206f776e657200000000000000000000000000000000000000000000602082015250565b7f496e73756666696369656e742062616c616e6365000000000000000000000000600082015250565b7f4d617820312046756c6c4e6f64652c2035204c6974654e6f646573207065722060008201527f77616c6c65740000000000000000000000000000000000000000000000000000602082015250565b7f455243313135353a207472616e7366657220746f20746865207a65726f20616460008201527f6472657373000000000000000000000000000000000000000000000000000000602082015250565b7f4c697465206e6f646520636f756e742063616e6e6f74206265207a65726f0000600082015250565b7f455243313135353a206275726e2066726f6d20746865207a65726f206164647260008201527f6573730000000000000000000000000000000000000000000000000000000000602082015250565b7f455243313135353a20696e73756666696369656e742062616c616e636520666f60008201527f72207472616e7366657200000000000000000000000000000000000000000000602082015250565b7f4f776e61626c653a2063616c6c6572206973206e6f7420746865206f776e6572600082015250565b7f45786365656473206d61782035204c697465204e6f6465206c696d697420706560008201527f7220616464726573730000000000000000000000000000000000000000000000602082015250565b7f45786365656473206d617820312046756c6c204e6f6465206c696d697420706560008201527f7220616464726573730000000000000000000000000000000000000000000000602082015250565b7f455243313135353a2073657474696e6720617070726f76616c2073746174757360008201527f20666f722073656c660000000000000000000000000000000000000000000000602082015250565b7f455243313135353a206163636f756e747320616e6420696473206c656e67746860008201527f206d69736d617463680000000000000000000000000000000000000000000000602082015250565b7f507572636861736520776f756c6420657863656564206d6178204c697465204e60008201527f6f646520737570706c7900000000000000000000000000000000000000000000602082015250565b7f455243313135353a2069647320616e6420616d6f756e7473206c656e6774682060008201527f6d69736d61746368000000000000000000000000000000000000000000000000602082015250565b7f455243313135353a206d696e7420746f20746865207a65726f2061646472657360008201527f7300000000000000000000000000000000000000000000000000000000000000602082015250565b7f5265656e7472616e637947756172643a207265656e7472616e742063616c6c00600082015250565b7f507572636861736520776f756c6420657863656564206d61782046756c6c204e60008201527f6f646520737570706c7900000000000000000000000000000000000000000000602082015250565b600060443d1015615d4457615dc7565b615d4c6151d7565b60043d036004823e80513d602482011167ffffffffffffffff82111715615d74575050615dc7565b808201805167ffffffffffffffff811115615d925750505050615dc7565b80602083010160043d038501811115615daf575050505050615dc7565b615dbe826020018501866154c0565b82955050505050505b90565b615dd3816153bc565b8114615dde57600080fd5b50565b615dea816153ce565b8114615df557600080fd5b50565b615e01816153da565b8114615e0c57600080fd5b50565b615e18816153e4565b8114615e2357600080fd5b50565b615e2f81615410565b8114615e3a57600080fd5b50565b615e4681615442565b8114615e5157600080fd5b5056fea2646970667358221220f5143bd118bb0c2d7ef6378ea87a36ded93bfa2ead3d80729ea3e980ce0d8f4264736f6c63430008040033",
  "linkReferences": {},
  "deployedLinkReferences": {}
}