{
  "_format": "hh-sol-artifact-1",
  "contractName": "StakeRewardsToken",
  "sourceName": "contracts/StakeRewardsToken.sol",
  "abi": [
    {
      "inputs": [
        {
          "internalType": "address",
          "name": "_owner",
          "type": "address"
        }
      ],
      "stateMutability": "nonpayable",
      "type": "constructor"
    },
    {
      "anonymous": false,
      "inputs": [
        {
          "indexed": true,
          "internalType": "address",
          "name": "_operator",
          "type": "address"
        },
        {
          "indexed": true,
          "internalType": "address",
          "name": "_from",
          "type": "address"
        },
        {
          "indexed": true,
          "internalType": "address",
          "name": "_to",
          "type": "address"
        },
        {
          "indexed": false,
          "internalType": "uint256",
          "name": "_amount",
          "type": "uint256"
        },
        {
          "indexed": false,
          "internalType": "bytes",
          "name": "_userData",
          "type": "bytes"
        },
        {
          "indexed": false,
          "internalType": "bytes",
          "name": "_operatorData",
          "type": "bytes"
        }
      ],
      "name": "TokensRecieved",
      "type": "event"
    },
    {
      "inputs": [],
      "name": "_totalSupply",
      "outputs": [
        {
          "internalType": "uint256",
          "name": "",
          "type": "uint256"
        }
      ],
      "stateMutability": "view",
      "type": "function"
    },
    {
      "inputs": [],
      "name": "balance",
      "outputs": [
        {
          "internalType": "uint256",
          "name": "",
          "type": "uint256"
        }
      ],
      "stateMutability": "view",
      "type": "function"
    },
    {
      "inputs": [
        {
          "internalType": "address",
          "name": "_account",
          "type": "address"
        }
      ],
      "name": "balanceOf",
      "outputs": [
        {
          "internalType": "uint256",
          "name": "",
          "type": "uint256"
        }
      ],
      "stateMutability": "view",
      "type": "function"
    },
    {
      "inputs": [
        {
          "internalType": "address",
          "name": "_account",
          "type": "address"
        }
      ],
      "name": "earned",
      "outputs": [
        {
          "internalType": "uint256",
          "name": "",
          "type": "uint256"
        }
      ],
      "stateMutability": "view",
      "type": "function"
    },
    {
      "inputs": [],
      "name": "getReward",
      "outputs": [],
      "stateMutability": "nonpayable",
      "type": "function"
    },
    {
      "inputs": [
        {
          "internalType": "address",
          "name": "_tenant",
          "type": "address"
        },
        {
          "internalType": "address",
          "name": "_stakingToken",
          "type": "address"
        },
        {
          "internalType": "address",
          "name": "_rewardsToken",
          "type": "address"
        },
        {
          "internalType": "uint256",
          "name": "_rewardRate",
          "type": "uint256"
        }
      ],
      "name": "init",
      "outputs": [],
      "stateMutability": "nonpayable",
      "type": "function"
    },
    {
      "inputs": [],
      "name": "lastUpdatedTime",
      "outputs": [
        {
          "internalType": "uint256",
          "name": "",
          "type": "uint256"
        }
      ],
      "stateMutability": "view",
      "type": "function"
    },
    {
      "inputs": [],
      "name": "metadata",
      "outputs": [
        {
          "internalType": "bytes",
          "name": "title",
          "type": "bytes"
        },
        {
          "components": [
            {
              "internalType": "address",
              "name": "authorAddress",
              "type": "address"
            },
            {
              "internalType": "string",
              "name": "externalLink",
              "type": "string"
            }
          ],
          "internalType": "struct IHyperverseModule.Author",
          "name": "author",
          "type": "tuple"
        },
        {
          "internalType": "bytes",
          "name": "version",
          "type": "bytes"
        },
        {
          "internalType": "uint64",
          "name": "publishedAt",
          "type": "uint64"
        },
        {
          "internalType": "bytes",
          "name": "externalLink",
          "type": "bytes"
        }
      ],
      "stateMutability": "view",
      "type": "function"
    },
    {
      "inputs": [],
      "name": "rewardPerToken",
      "outputs": [
        {
          "internalType": "uint256",
          "name": "",
          "type": "uint256"
        }
      ],
      "stateMutability": "view",
      "type": "function"
    },
    {
      "inputs": [],
      "name": "rewardPerTokenStored",
      "outputs": [
        {
          "internalType": "uint256",
          "name": "",
          "type": "uint256"
        }
      ],
      "stateMutability": "view",
      "type": "function"
    },
    {
      "inputs": [],
      "name": "rewardRate",
      "outputs": [
        {
          "internalType": "uint256",
          "name": "",
          "type": "uint256"
        }
      ],
      "stateMutability": "view",
      "type": "function"
    },
    {
      "inputs": [
        {
          "internalType": "address",
          "name": "",
          "type": "address"
        }
      ],
      "name": "rewards",
      "outputs": [
        {
          "internalType": "uint256",
          "name": "",
          "type": "uint256"
        }
      ],
      "stateMutability": "view",
      "type": "function"
    },
    {
      "inputs": [],
      "name": "rewardsToken",
      "outputs": [
        {
          "internalType": "contract ERC777",
          "name": "",
          "type": "address"
        }
      ],
      "stateMutability": "view",
      "type": "function"
    },
    {
      "inputs": [
        {
          "internalType": "uint256",
          "name": "_amount",
          "type": "uint256"
        }
      ],
      "name": "stake",
      "outputs": [],
      "stateMutability": "nonpayable",
      "type": "function"
    },
    {
      "inputs": [],
      "name": "stakingToken",
      "outputs": [
        {
          "internalType": "contract ERC777",
          "name": "",
          "type": "address"
        }
      ],
      "stateMutability": "view",
      "type": "function"
    },
    {
      "inputs": [
        {
          "internalType": "address",
          "name": "_operator",
          "type": "address"
        },
        {
          "internalType": "address",
          "name": "_from",
          "type": "address"
        },
        {
          "internalType": "address",
          "name": "_to",
          "type": "address"
        },
        {
          "internalType": "uint256",
          "name": "_amount",
          "type": "uint256"
        },
        {
          "internalType": "bytes",
          "name": "_userData",
          "type": "bytes"
        },
        {
          "internalType": "bytes",
          "name": "_operatorData",
          "type": "bytes"
        }
      ],
      "name": "tokensReceived",
      "outputs": [],
      "stateMutability": "nonpayable",
      "type": "function"
    },
    {
      "inputs": [],
      "name": "totalSupply",
      "outputs": [
        {
          "internalType": "uint256",
          "name": "",
          "type": "uint256"
        }
      ],
      "stateMutability": "view",
      "type": "function"
    },
    {
      "inputs": [
        {
          "internalType": "address",
          "name": "",
          "type": "address"
        }
      ],
      "name": "userRewardPerTokenPaid",
      "outputs": [
        {
          "internalType": "uint256",
          "name": "",
          "type": "uint256"
        }
      ],
      "stateMutability": "view",
      "type": "function"
    },
    {
      "inputs": [
        {
          "internalType": "uint256",
          "name": "_amount",
          "type": "uint256"
        }
      ],
      "name": "withdraw",
      "outputs": [],
      "stateMutability": "nonpayable",
      "type": "function"
    }
  ],
  "bytecode": "0x60a06040526000600e553480156200001657600080fd5b506040516200211d3803806200211d83398181016040528101906200003c919062000408565b6040518060a001604052806040518060400160405280601381526020017f5374616b65205265776172647320546f6b656e00000000000000000000000000815250815260200160405180604001604052808473ffffffffffffffffffffffffffffffffffffffff1681526020016040518060400160405280601881526020017f68747470733a2f2f65787465726e616c6c696e6b2e6e6574000000000000000081525081525081526020016040518060400160405280600581526020017f302e302e31000000000000000000000000000000000000000000000000000000815250815260200165032a361e860667ffffffffffffffff1681526020016040518060400160405280601881526020017f68747470733a2f2f65787465726e616c4c696e6b2e6e6574000000000000000081525081525060008082015181600001908051906020019062000190929190620002b0565b5060208201518160010160008201518160000160006101000a81548173ffffffffffffffffffffffffffffffffffffffff021916908373ffffffffffffffffffffffffffffffffffffffff1602179055506020820151816001019080519060200190620001ff92919062000341565b505050604082015181600301908051906020019062000220929190620002b0565b5060608201518160040160006101000a81548167ffffffffffffffff021916908367ffffffffffffffff16021790555060808201518160050190805190602001906200026e929190620002b0565b509050508073ffffffffffffffffffffffffffffffffffffffff1660808173ffffffffffffffffffffffffffffffffffffffff1660601b8152505050620004e7565b828054620002be9062000468565b90600052602060002090601f016020900481019282620002e257600085556200032e565b82601f10620002fd57805160ff19168380011785556200032e565b828001600101855582156200032e579182015b828111156200032d57825182559160200191906001019062000310565b5b5090506200033d9190620003d2565b5090565b8280546200034f9062000468565b90600052602060002090601f016020900481019282620003735760008555620003bf565b82601f106200038e57805160ff1916838001178555620003bf565b82800160010185558215620003bf579182015b82811115620003be578251825591602001919060010190620003a1565b5b509050620003ce9190620003d2565b5090565b5b80821115620003ed576000816000905550600101620003d3565b5090565b6000815190506200040281620004cd565b92915050565b6000602082840312156200041b57600080fd5b60006200042b84828501620003f1565b91505092915050565b6000620004418262000448565b9050919050565b600073ffffffffffffffffffffffffffffffffffffffff82169050919050565b600060028204905060018216806200048157607f821691505b602082108114156200049857620004976200049e565b5b50919050565b7f4e487b7100000000000000000000000000000000000000000000000000000000600052602260045260246000fd5b620004d88162000434565b8114620004e457600080fd5b50565b60805160601c611c1a6200050360003960005050611c1a6000f3fe608060405234801561001057600080fd5b506004361061011f5760003560e01c806370a08231116100ad578063b69ef8a811610071578063b69ef8a8146102f8578063bf85689514610316578063cd3daf9d14610334578063d1af0c7d14610352578063df136d65146103705761011f565b806370a082311461024057806372f702f3146102705780637b0a47ee1461028e5780638b876347146102ac578063a694fc3a146102dc5761011f565b80632e1a7d4d116100f45780632e1a7d4d146101be578063392f37e9146101da5780633d18b912146101fc5780633eaaf86b1461020657806346639dba146102245761011f565b806223de29146101245780628cc262146101405780630700037d1461017057806318160ddd146101a0575b600080fd5b61013e6004803603810190610139919061137e565b61038e565b005b61015a600480360381019061015591906112f2565b61041c565b60405161016791906117e6565b60405180910390f35b61018a600480360381019061018591906112f2565b61051e565b60405161019791906117e6565b60405180910390f35b6101a8610536565b6040516101b591906117e6565b60405180910390f35b6101d860048036038101906101d39190611441565b610540565b005b6101e26107fb565b6040516101f39594939291906116fc565b60405180910390f35b610204610abd565b005b61020e610d29565b60405161021b91906117e6565b60405180910390f35b61023e6004803603810190610239919061131b565b610d2f565b005b61025a600480360381019061025591906112f2565b610f33565b60405161026791906117e6565b60405180910390f35b610278610f7c565b604051610285919061176b565b60405180910390f35b610296610fa2565b6040516102a391906117e6565b60405180910390f35b6102c660048036038101906102c191906112f2565b610fa8565b6040516102d391906117e6565b60405180910390f35b6102f660048036038101906102f19190611441565b610fc0565b005b6103006111ad565b60405161030d91906117e6565b60405180910390f35b61031e6111bd565b60405161032b91906117e6565b60405180910390f35b61033c6111c3565b60405161034991906117e6565b60405180910390f35b61035a611226565b604051610367919061176b565b60405180910390f35b61037861124c565b60405161038591906117e6565b60405180910390f35b8573ffffffffffffffffffffffffffffffffffffffff168773ffffffffffffffffffffffffffffffffffffffff168973ffffffffffffffffffffffffffffffffffffffff167fe01b0a77c1110bdab1870b7f4b76f38cf36a5028c6fe73002d5976cc2ebce8f6888888888860405161040a959493929190611801565b60405180910390a45050505050505050565b6000600d60008373ffffffffffffffffffffffffffffffffffffffff1673ffffffffffffffffffffffffffffffffffffffff16815260200190815260200160002054670de0b6b3a7640000600c60008573ffffffffffffffffffffffffffffffffffffffff1673ffffffffffffffffffffffffffffffffffffffff168152602001908152602001600020546104af6111c3565b6104b99190611974565b600f60008673ffffffffffffffffffffffffffffffffffffffff1673ffffffffffffffffffffffffffffffffffffffff16815260200190815260200160002054610503919061191a565b61050d91906118e9565b6105179190611893565b9050919050565b600d6020528060005260406000206000915090505481565b6000600e54905090565b338180600f60008473ffffffffffffffffffffffffffffffffffffffff1673ffffffffffffffffffffffffffffffffffffffff168152602001908152602001600020541015806105cf57506000600f60008473ffffffffffffffffffffffffffffffffffffffff1673ffffffffffffffffffffffffffffffffffffffff16815260200190815260200160002054115b61060e576040517f08c379a000000000000000000000000000000000000000000000000000000000815260040161060590611786565b60405180910390fd5b336106176111c3565b600b8190555042600a8190555061062d8161041c565b600d60008373ffffffffffffffffffffffffffffffffffffffff1673ffffffffffffffffffffffffffffffffffffffff16815260200190815260200160002081905550600b54600c60008373ffffffffffffffffffffffffffffffffffffffff1673ffffffffffffffffffffffffffffffffffffffff168152602001908152602001600020819055506106cb84600e5461125290919063ffffffff16565b600e8190555061072384600f60003373ffffffffffffffffffffffffffffffffffffffff1673ffffffffffffffffffffffffffffffffffffffff1681526020019081526020016000205461125290919063ffffffff16565b600f60003373ffffffffffffffffffffffffffffffffffffffff1673ffffffffffffffffffffffffffffffffffffffff16815260200190815260200160002081905550600860009054906101000a900473ffffffffffffffffffffffffffffffffffffffff1673ffffffffffffffffffffffffffffffffffffffff16639bd9bbc633866040518363ffffffff1660e01b81526004016107c39291906116c0565b600060405180830381600087803b1580156107dd57600080fd5b505af11580156107f1573d6000803e3d6000fd5b5050505050505050565b600080600001805461080c90611a68565b80601f016020809104026020016040519081016040528092919081815260200182805461083890611a68565b80156108855780601f1061085a57610100808354040283529160200191610885565b820191906000526020600020905b81548152906001019060200180831161086857829003601f168201915b505050505090806001016040518060400160405290816000820160009054906101000a900473ffffffffffffffffffffffffffffffffffffffff1673ffffffffffffffffffffffffffffffffffffffff1673ffffffffffffffffffffffffffffffffffffffff16815260200160018201805461090090611a68565b80601f016020809104026020016040519081016040528092919081815260200182805461092c90611a68565b80156109795780601f1061094e57610100808354040283529160200191610979565b820191906000526020600020905b81548152906001019060200180831161095c57829003601f168201915b5050505050815250509080600301805461099290611a68565b80601f01602080910402602001604051908101604052809291908181526020018280546109be90611a68565b8015610a0b5780601f106109e057610100808354040283529160200191610a0b565b820191906000526020600020905b8154815290600101906020018083116109ee57829003601f168201915b5050505050908060040160009054906101000a900467ffffffffffffffff1690806005018054610a3a90611a68565b80601f0160208091040260200160405190810160405280929190818152602001828054610a6690611a68565b8015610ab35780601f10610a8857610100808354040283529160200191610ab3565b820191906000526020600020905b815481529060010190602001808311610a9657829003601f168201915b5050505050905085565b33610ac66111c3565b600b8190555042600a81905550610adc8161041c565b600d60008373ffffffffffffffffffffffffffffffffffffffff1673ffffffffffffffffffffffffffffffffffffffff16815260200190815260200160002081905550600b54600c60008373ffffffffffffffffffffffffffffffffffffffff1673ffffffffffffffffffffffffffffffffffffffff16815260200190815260200160002081905550336000600d60008373ffffffffffffffffffffffffffffffffffffffff1673ffffffffffffffffffffffffffffffffffffffff1681526020019081526020016000205411610be8576040517f08c379a0000000000000000000000000000000000000000000000000000000008152600401610bdf906117c6565b60405180910390fd5b6000600d60003373ffffffffffffffffffffffffffffffffffffffff1673ffffffffffffffffffffffffffffffffffffffff1681526020019081526020016000205490506000600d60003373ffffffffffffffffffffffffffffffffffffffff1673ffffffffffffffffffffffffffffffffffffffff16815260200190815260200160002081905550600760009054906101000a900473ffffffffffffffffffffffffffffffffffffffff1673ffffffffffffffffffffffffffffffffffffffff166362ad1b83601060009054906101000a900473ffffffffffffffffffffffffffffffffffffffff1633846040518463ffffffff1660e01b8152600401610cf29392919061162c565b600060405180830381600087803b158015610d0c57600080fd5b505af1158015610d20573d6000803e3d6000fd5b50505050505050565b600e5481565b600073ffffffffffffffffffffffffffffffffffffffff16601060009054906101000a900473ffffffffffffffffffffffffffffffffffffffff1673ffffffffffffffffffffffffffffffffffffffff1614610dc0576040517f08c379a0000000000000000000000000000000000000000000000000000000008152600401610db7906117a6565b60405180910390fd5b83601060006101000a81548173ffffffffffffffffffffffffffffffffffffffff021916908373ffffffffffffffffffffffffffffffffffffffff16021790555082600860006101000a81548173ffffffffffffffffffffffffffffffffffffffff021916908373ffffffffffffffffffffffffffffffffffffffff16021790555081600760006101000a81548173ffffffffffffffffffffffffffffffffffffffff021916908373ffffffffffffffffffffffffffffffffffffffff16021790555080600981905550731820a4b7618bde71dce8cdc73aab6c95905fad2473ffffffffffffffffffffffffffffffffffffffff166329965a1d307fb281fc8c12954d22544db45de3159a39272895b169a852b314f9cc762e44c53b306040518463ffffffff1660e01b8152600401610efb93929190611689565b600060405180830381600087803b158015610f1557600080fd5b505af1158015610f29573d6000803e3d6000fd5b5050505050505050565b6000600f60008373ffffffffffffffffffffffffffffffffffffffff1673ffffffffffffffffffffffffffffffffffffffff168152602001908152602001600020549050919050565b600860009054906101000a900473ffffffffffffffffffffffffffffffffffffffff1681565b60095481565b600c6020528060005260406000206000915090505481565b33610fc96111c3565b600b8190555042600a81905550610fdf8161041c565b600d60008373ffffffffffffffffffffffffffffffffffffffff1673ffffffffffffffffffffffffffffffffffffffff16815260200190815260200160002081905550600b54600c60008373ffffffffffffffffffffffffffffffffffffffff1673ffffffffffffffffffffffffffffffffffffffff1681526020019081526020016000208190555061107d82600e5461126890919063ffffffff16565b600e819055506110d582600f60003373ffffffffffffffffffffffffffffffffffffffff1673ffffffffffffffffffffffffffffffffffffffff1681526020019081526020016000205461126890919063ffffffff16565b600f60003373ffffffffffffffffffffffffffffffffffffffff1673ffffffffffffffffffffffffffffffffffffffff16815260200190815260200160002081905550600860009054906101000a900473ffffffffffffffffffffffffffffffffffffffff1673ffffffffffffffffffffffffffffffffffffffff166362ad1b833330856040518463ffffffff1660e01b81526004016111779392919061162c565b600060405180830381600087803b15801561119157600080fd5b505af11580156111a5573d6000803e3d6000fd5b505050505050565b60006111b833610f33565b905090565b600a5481565b600080600e5414156111d85760009050611223565b600e54670de0b6b3a7640000600954600a54426111f59190611974565b6111ff919061191a565b611209919061191a565b61121391906118e9565b600b546112209190611893565b90505b90565b600760009054906101000a900473ffffffffffffffffffffffffffffffffffffffff1681565b600b5481565b600081836112609190611974565b905092915050565b600081836112769190611893565b905092915050565b60008135905061128d81611bb6565b92915050565b60008083601f8401126112a557600080fd5b8235905067ffffffffffffffff8111156112be57600080fd5b6020830191508360018202830111156112d657600080fd5b9250929050565b6000813590506112ec81611bcd565b92915050565b60006020828403121561130457600080fd5b60006113128482850161127e565b91505092915050565b6000806000806080858703121561133157600080fd5b600061133f8782880161127e565b94505060206113508782880161127e565b93505060406113618782880161127e565b9250506060611372878288016112dd565b91505092959194509250565b60008060008060008060008060c0898b03121561139a57600080fd5b60006113a88b828c0161127e565b98505060206113b98b828c0161127e565b97505060406113ca8b828c0161127e565b96505060606113db8b828c016112dd565b955050608089013567ffffffffffffffff8111156113f857600080fd5b6114048b828c01611293565b945094505060a089013567ffffffffffffffff81111561142357600080fd5b61142f8b828c01611293565b92509250509295985092959890939650565b60006020828403121561145357600080fd5b6000611461848285016112dd565b91505092915050565b611473816119a8565b82525050565b611482816119a8565b82525050565b611491816119ba565b82525050565b60006114a38385611860565b93506114b0838584611a26565b6114b983611b27565b840190509392505050565b60006114cf8261184a565b6114d98185611860565b93506114e9818560208601611a35565b6114f281611b27565b840191505092915050565b61150681611a02565b82525050565b600061151782611855565b6115218185611871565b9350611531818560208601611a35565b61153a81611b27565b840191505092915050565b6000611552601483611882565b915061155d82611b38565b602082019050919050565b6000611575601f83611882565b915061158082611b61565b602082019050919050565b6000611598600083611860565b91506115a382611b8a565b600082019050919050565b60006115bb601b83611882565b91506115c682611b8d565b602082019050919050565b60006040830160008301516115e9600086018261146a565b5060208301518482036020860152611601828261150c565b9150508091505092915050565b611617816119e4565b82525050565b611626816119ee565b82525050565b600060a0820190506116416000830186611479565b61164e6020830185611479565b61165b604083018461160e565b818103606083015261166c8161158b565b9050818103608083015261167f8161158b565b9050949350505050565b600060608201905061169e6000830186611479565b6116ab6020830185611488565b6116b86040830184611479565b949350505050565b60006060820190506116d56000830185611479565b6116e2602083018461160e565b81810360408301526116f38161158b565b90509392505050565b600060a082019050818103600083015261171681886114c4565b9050818103602083015261172a81876115d1565b9050818103604083015261173e81866114c4565b905061174d606083018561161d565b818103608083015261175f81846114c4565b90509695505050505050565b600060208201905061178060008301846114fd565b92915050565b6000602082019050818103600083015261179f81611545565b9050919050565b600060208201905081810360008301526117bf81611568565b9050919050565b600060208201905081810360008301526117df816115ae565b9050919050565b60006020820190506117fb600083018461160e565b92915050565b6000606082019050611816600083018861160e565b8181036020830152611829818688611497565b9050818103604083015261183e818486611497565b90509695505050505050565b600081519050919050565b600081519050919050565b600082825260208201905092915050565b600082825260208201905092915050565b600082825260208201905092915050565b600061189e826119e4565b91506118a9836119e4565b9250827fffffffffffffffffffffffffffffffffffffffffffffffffffffffffffffffff038211156118de576118dd611a9a565b5b828201905092915050565b60006118f4826119e4565b91506118ff836119e4565b92508261190f5761190e611ac9565b5b828204905092915050565b6000611925826119e4565b9150611930836119e4565b9250817fffffffffffffffffffffffffffffffffffffffffffffffffffffffffffffffff048311821515161561196957611968611a9a565b5b828202905092915050565b600061197f826119e4565b915061198a836119e4565b92508282101561199d5761199c611a9a565b5b828203905092915050565b60006119b3826119c4565b9050919050565b6000819050919050565b600073ffffffffffffffffffffffffffffffffffffffff82169050919050565b6000819050919050565b600067ffffffffffffffff82169050919050565b6000611a0d82611a14565b9050919050565b6000611a1f826119c4565b9050919050565b82818337600083830152505050565b60005b83811015611a53578082015181840152602081019050611a38565b83811115611a62576000848401525b50505050565b60006002820490506001821680611a8057607f821691505b60208210811415611a9457611a93611af8565b5b50919050565b7f4e487b7100000000000000000000000000000000000000000000000000000000600052601160045260246000fd5b7f4e487b7100000000000000000000000000000000000000000000000000000000600052601260045260246000fd5b7f4e487b7100000000000000000000000000000000000000000000000000000000600052602260045260246000fd5b6000601f19601f8301169050919050565b7f496e73756666696369656e742062616c616e6365000000000000000000000000600082015250565b7f436f6e747261637420697320616c726561647920696e697469616c697a656400600082015250565b50565b7f496e73756666696369656e74205265776172642062616c616e63650000000000600082015250565b611bbf816119a8565b8114611bca57600080fd5b50565b611bd6816119e4565b8114611be157600080fd5b5056fea26469706673582212207caa4c6d70f10beb5f72197c687a95e5af7a7c6c8f49e6d08c26f3a7d4de3e2e64736f6c63430008040033",
  "linkReferences": {},
  "deployedLinkReferences": {}
}