{
  "_format": "hh-sol-artifact-1",
  "contractName": "StakeRewardsToken",
  "sourceName": "contracts/StakeRewardsToken.sol",
  "abi": [
    {
      "inputs": [
        {
          "internalType": "address",
          "name": "_owner",
          "type": "address"
        }
      ],
      "stateMutability": "nonpayable",
      "type": "constructor"
    },
    {
      "inputs": [],
      "name": "AlreadyInitialized",
      "type": "error"
    },
    {
      "inputs": [],
      "name": "InsufficientBalance",
      "type": "error"
    },
    {
      "inputs": [],
      "name": "Unauthorized",
      "type": "error"
    },
    {
      "inputs": [],
      "name": "ZeroAddress",
      "type": "error"
    },
    {
      "inputs": [],
      "name": "ZeroAmount",
      "type": "error"
    },
    {
      "anonymous": false,
      "inputs": [
        {
          "indexed": false,
          "internalType": "uint8",
          "name": "version",
          "type": "uint8"
        }
      ],
      "name": "Initialized",
      "type": "event"
    },
    {
      "anonymous": false,
      "inputs": [
        {
          "indexed": true,
          "internalType": "address",
          "name": "_user",
          "type": "address"
        },
        {
          "indexed": false,
          "internalType": "uint256",
          "name": "_amount",
          "type": "uint256"
        }
      ],
      "name": "RewardTokenPaid",
      "type": "event"
    },
    {
      "anonymous": false,
      "inputs": [
        {
          "indexed": true,
          "internalType": "address",
          "name": "_user",
          "type": "address"
        },
        {
          "indexed": false,
          "internalType": "uint256",
          "name": "_amount",
          "type": "uint256"
        }
      ],
      "name": "StakeWithdrawn",
      "type": "event"
    },
    {
      "anonymous": false,
      "inputs": [
        {
          "indexed": true,
          "internalType": "address",
          "name": "_user",
          "type": "address"
        },
        {
          "indexed": false,
          "internalType": "uint256",
          "name": "_amount",
          "type": "uint256"
        }
      ],
      "name": "TokenStaked",
      "type": "event"
    },
    {
      "anonymous": false,
      "inputs": [
        {
          "indexed": true,
          "internalType": "address",
          "name": "_operator",
          "type": "address"
        },
        {
          "indexed": true,
          "internalType": "address",
          "name": "_from",
          "type": "address"
        },
        {
          "indexed": true,
          "internalType": "address",
          "name": "_to",
          "type": "address"
        },
        {
          "indexed": false,
          "internalType": "uint256",
          "name": "_amount",
          "type": "uint256"
        },
        {
          "indexed": false,
          "internalType": "bytes",
          "name": "_userData",
          "type": "bytes"
        },
        {
          "indexed": false,
          "internalType": "bytes",
          "name": "_operatorData",
          "type": "bytes"
        }
      ],
      "name": "TokensRecieved",
      "type": "event"
    },
    {
      "inputs": [],
      "name": "balance",
      "outputs": [
        {
          "internalType": "uint256",
          "name": "",
          "type": "uint256"
        }
      ],
      "stateMutability": "view",
      "type": "function"
    },
    {
      "inputs": [
        {
          "internalType": "address",
          "name": "_account",
          "type": "address"
        }
      ],
      "name": "balanceOf",
      "outputs": [
        {
          "internalType": "uint256",
          "name": "",
          "type": "uint256"
        }
      ],
      "stateMutability": "view",
      "type": "function"
    },
    {
      "inputs": [
        {
          "internalType": "address",
          "name": "_account",
          "type": "address"
        }
      ],
      "name": "earned",
      "outputs": [
        {
          "internalType": "uint256",
          "name": "",
          "type": "uint256"
        }
      ],
      "stateMutability": "view",
      "type": "function"
    },
    {
      "inputs": [],
      "name": "getReward",
      "outputs": [],
      "stateMutability": "nonpayable",
      "type": "function"
    },
    {
      "inputs": [
        {
          "internalType": "address",
          "name": "_tenant",
          "type": "address"
        },
        {
          "internalType": "address",
          "name": "_stakingToken",
          "type": "address"
        },
        {
          "internalType": "address",
          "name": "_rewardsToken",
          "type": "address"
        },
        {
          "internalType": "uint256",
          "name": "_rewardRate",
          "type": "uint256"
        }
      ],
      "name": "initialize",
      "outputs": [],
      "stateMutability": "nonpayable",
      "type": "function"
    },
    {
      "inputs": [],
      "name": "lastUpdatedTime",
      "outputs": [
        {
          "internalType": "uint256",
          "name": "",
          "type": "uint256"
        }
      ],
      "stateMutability": "view",
      "type": "function"
    },
    {
      "inputs": [],
      "name": "metadata",
      "outputs": [
        {
          "internalType": "bytes",
          "name": "title",
          "type": "bytes"
        },
        {
          "components": [
            {
              "internalType": "address",
              "name": "authorAddress",
              "type": "address"
            },
            {
              "internalType": "string",
              "name": "externalLink",
              "type": "string"
            }
          ],
          "internalType": "struct IHyperverseModule.Author",
          "name": "author",
          "type": "tuple"
        },
        {
          "internalType": "bytes",
          "name": "version",
          "type": "bytes"
        },
        {
          "internalType": "uint64",
          "name": "publishedAt",
          "type": "uint64"
        },
        {
          "internalType": "bytes",
          "name": "externalLink",
          "type": "bytes"
        }
      ],
      "stateMutability": "view",
      "type": "function"
    },
    {
      "inputs": [],
      "name": "rewardPerToken",
      "outputs": [
        {
          "internalType": "uint256",
          "name": "",
          "type": "uint256"
        }
      ],
      "stateMutability": "view",
      "type": "function"
    },
    {
      "inputs": [],
      "name": "rewardPerTokenStored",
      "outputs": [
        {
          "internalType": "uint256",
          "name": "",
          "type": "uint256"
        }
      ],
      "stateMutability": "view",
      "type": "function"
    },
    {
      "inputs": [],
      "name": "rewardRate",
      "outputs": [
        {
          "internalType": "uint256",
          "name": "",
          "type": "uint256"
        }
      ],
      "stateMutability": "view",
      "type": "function"
    },
    {
      "inputs": [
        {
          "internalType": "address",
          "name": "",
          "type": "address"
        }
      ],
      "name": "rewards",
      "outputs": [
        {
          "internalType": "uint256",
          "name": "",
          "type": "uint256"
        }
      ],
      "stateMutability": "view",
      "type": "function"
    },
    {
      "inputs": [],
      "name": "rewardsToken",
      "outputs": [
        {
          "internalType": "contract ERC777",
          "name": "",
          "type": "address"
        }
      ],
      "stateMutability": "view",
      "type": "function"
    },
    {
      "inputs": [
        {
          "internalType": "uint256",
          "name": "_amount",
          "type": "uint256"
        }
      ],
      "name": "stake",
      "outputs": [],
      "stateMutability": "nonpayable",
      "type": "function"
    },
    {
      "inputs": [],
      "name": "stakingToken",
      "outputs": [
        {
          "internalType": "contract ERC777",
          "name": "",
          "type": "address"
        }
      ],
      "stateMutability": "view",
      "type": "function"
    },
    {
      "inputs": [
        {
          "internalType": "address",
          "name": "_operator",
          "type": "address"
        },
        {
          "internalType": "address",
          "name": "_from",
          "type": "address"
        },
        {
          "internalType": "address",
          "name": "_to",
          "type": "address"
        },
        {
          "internalType": "uint256",
          "name": "_amount",
          "type": "uint256"
        },
        {
          "internalType": "bytes",
          "name": "_userData",
          "type": "bytes"
        },
        {
          "internalType": "bytes",
          "name": "_operatorData",
          "type": "bytes"
        }
      ],
      "name": "tokensReceived",
      "outputs": [],
      "stateMutability": "nonpayable",
      "type": "function"
    },
    {
      "inputs": [],
      "name": "totalSupply",
      "outputs": [
        {
          "internalType": "uint256",
          "name": "",
          "type": "uint256"
        }
      ],
      "stateMutability": "view",
      "type": "function"
    },
    {
      "inputs": [
        {
          "internalType": "address",
          "name": "",
          "type": "address"
        }
      ],
      "name": "userRewardPerTokenPaid",
      "outputs": [
        {
          "internalType": "uint256",
          "name": "",
          "type": "uint256"
        }
      ],
      "stateMutability": "view",
      "type": "function"
    },
    {
      "inputs": [
        {
          "internalType": "uint256",
          "name": "_amount",
          "type": "uint256"
        }
      ],
      "name": "withdraw",
      "outputs": [],
      "stateMutability": "nonpayable",
      "type": "function"
    }
  ],
  "bytecode": "0x60a06040523480156200001157600080fd5b506040516200236238038062002362833981810160405281019062000037919062000403565b6040518060a001604052806040518060400160405280601381526020017f5374616b65205265776172647320546f6b656e00000000000000000000000000815250815260200160405180604001604052808473ffffffffffffffffffffffffffffffffffffffff1681526020016040518060400160405280601881526020017f68747470733a2f2f65787465726e616c6c696e6b2e6e6574000000000000000081525081525081526020016040518060400160405280600581526020017f302e302e31000000000000000000000000000000000000000000000000000000815250815260200165032a361e860667ffffffffffffffff1681526020016040518060400160405280601881526020017f68747470733a2f2f65787465726e616c4c696e6b2e6e657400000000000000008152508152506000808201518160000190805190602001906200018b929190620002ab565b5060208201518160010160008201518160000160006101000a81548173ffffffffffffffffffffffffffffffffffffffff021916908373ffffffffffffffffffffffffffffffffffffffff1602179055506020820151816001019080519060200190620001fa9291906200033c565b50505060408201518160030190805190602001906200021b929190620002ab565b5060608201518160040160006101000a81548167ffffffffffffffff021916908367ffffffffffffffff160217905550608082015181600501908051906020019062000269929190620002ab565b509050508073ffffffffffffffffffffffffffffffffffffffff1660808173ffffffffffffffffffffffffffffffffffffffff1660601b8152505050620004e2565b828054620002b99062000463565b90600052602060002090601f016020900481019282620002dd576000855562000329565b82601f10620002f857805160ff191683800117855562000329565b8280016001018555821562000329579182015b82811115620003285782518255916020019190600101906200030b565b5b509050620003389190620003cd565b5090565b8280546200034a9062000463565b90600052602060002090601f0160209004810192826200036e5760008555620003ba565b82601f106200038957805160ff1916838001178555620003ba565b82800160010185558215620003ba579182015b82811115620003b95782518255916020019190600101906200039c565b5b509050620003c99190620003cd565b5090565b5b80821115620003e8576000816000905550600101620003ce565b5090565b600081519050620003fd81620004c8565b92915050565b6000602082840312156200041657600080fd5b60006200042684828501620003ec565b91505092915050565b60006200043c8262000443565b9050919050565b600073ffffffffffffffffffffffffffffffffffffffff82169050919050565b600060028204905060018216806200047c57607f821691505b6020821081141562000493576200049262000499565b5b50919050565b7f4e487b7100000000000000000000000000000000000000000000000000000000600052602260045260246000fd5b620004d3816200042f565b8114620004df57600080fd5b50565b60805160601c611e64620004fe60003960005050611e646000f3fe608060405234801561001057600080fd5b50600436106101145760003560e01c80637b0a47ee116100a2578063bf85689511610071578063bf856895146102d1578063cd3daf9d146102ef578063cf756fdf1461030d578063d1af0c7d14610329578063df136d651461034757610114565b80637b0a47ee146102495780638b87634714610267578063a694fc3a14610297578063b69ef8a8146102b357610114565b80632e1a7d4d116100e95780632e1a7d4d146101b3578063392f37e9146101cf5780633d18b912146101f157806370a08231146101fb57806372f702f31461022b57610114565b806223de29146101195780628cc262146101355780630700037d1461016557806318160ddd14610195575b600080fd5b610133600480360381019061012e9190611631565b610365565b005b61014f600480360381019061014a91906115a5565b6103f3565b60405161015c9190611a3d565b60405180910390f35b61017f600480360381019061017a91906115a5565b6104f5565b60405161018c9190611a3d565b60405180910390f35b61019d61050d565b6040516101aa9190611a3d565b60405180910390f35b6101cd60048036038101906101c891906116f4565b610513565b005b6101d7610850565b6040516101e8959493929190611978565b60405180910390f35b6101f9610b12565b005b610215600480360381019061021091906115a5565b610dcd565b6040516102229190611a3d565b60405180910390f35b610233610e16565b60405161024091906119e7565b60405180910390f35b610251610e3c565b60405161025e9190611a3d565b60405180910390f35b610281600480360381019061027c91906115a5565b610e42565b60405161028e9190611a3d565b60405180910390f35b6102b160048036038101906102ac91906116f4565b610e5a565b005b6102bb6110d1565b6040516102c89190611a3d565b60405180910390f35b6102d96110e1565b6040516102e69190611a3d565b60405180910390f35b6102f76110e7565b6040516103049190611a3d565b60405180910390f35b610327600480360381019061032291906115ce565b61114a565b005b6103316113d2565b60405161033e91906119e7565b60405180910390f35b61034f6113f8565b60405161035c9190611a3d565b60405180910390f35b8573ffffffffffffffffffffffffffffffffffffffff168773ffffffffffffffffffffffffffffffffffffffff168973ffffffffffffffffffffffffffffffffffffffff167fe01b0a77c1110bdab1870b7f4b76f38cf36a5028c6fe73002d5976cc2ebce8f688888888886040516103e1959493929190611a58565b60405180910390a45050505050505050565b6000600d60008373ffffffffffffffffffffffffffffffffffffffff1673ffffffffffffffffffffffffffffffffffffffff16815260200190815260200160002054670de0b6b3a7640000600c60008573ffffffffffffffffffffffffffffffffffffffff1673ffffffffffffffffffffffffffffffffffffffff168152602001908152602001600020546104866110e7565b6104909190611bcb565b600f60008673ffffffffffffffffffffffffffffffffffffffff1673ffffffffffffffffffffffffffffffffffffffff168152602001908152602001600020546104da9190611b71565b6104e49190611b40565b6104ee9190611aea565b9050919050565b600d6020528060005260406000206000915090505481565b600e5481565b806000811161054e576040517f1f2a200500000000000000000000000000000000000000000000000000000000815260040160405180910390fd5b338280600f60008473ffffffffffffffffffffffffffffffffffffffff1673ffffffffffffffffffffffffffffffffffffffff1681526020019081526020016000205410806105dd57506000600f60008473ffffffffffffffffffffffffffffffffffffffff1673ffffffffffffffffffffffffffffffffffffffff1681526020019081526020016000205411155b15610614576040517ff4d678b800000000000000000000000000000000000000000000000000000000815260040160405180910390fd5b3361061d6110e7565b600b8190555042600a81905550610633816103f3565b600d60008373ffffffffffffffffffffffffffffffffffffffff1673ffffffffffffffffffffffffffffffffffffffff16815260200190815260200160002081905550600b54600c60008373ffffffffffffffffffffffffffffffffffffffff1673ffffffffffffffffffffffffffffffffffffffff168152602001908152602001600020819055506106d185600e546113fe90919063ffffffff16565b600e8190555061072985600f60003373ffffffffffffffffffffffffffffffffffffffff1673ffffffffffffffffffffffffffffffffffffffff168152602001908152602001600020546113fe90919063ffffffff16565b600f60003373ffffffffffffffffffffffffffffffffffffffff1673ffffffffffffffffffffffffffffffffffffffff16815260200190815260200160002081905550600860009054906101000a900473ffffffffffffffffffffffffffffffffffffffff1673ffffffffffffffffffffffffffffffffffffffff16639bd9bbc633876040518363ffffffff1660e01b81526004016107c992919061193c565b600060405180830381600087803b1580156107e357600080fd5b505af11580156107f7573d6000803e3d6000fd5b505050503373ffffffffffffffffffffffffffffffffffffffff167f8108595eb6bad3acefa9da467d90cc2217686d5c5ac85460f8b7849c840645fc866040516108419190611a3d565b60405180910390a25050505050565b600080600001805461086190611cde565b80601f016020809104026020016040519081016040528092919081815260200182805461088d90611cde565b80156108da5780601f106108af576101008083540402835291602001916108da565b820191906000526020600020905b8154815290600101906020018083116108bd57829003601f168201915b505050505090806001016040518060400160405290816000820160009054906101000a900473ffffffffffffffffffffffffffffffffffffffff1673ffffffffffffffffffffffffffffffffffffffff1673ffffffffffffffffffffffffffffffffffffffff16815260200160018201805461095590611cde565b80601f016020809104026020016040519081016040528092919081815260200182805461098190611cde565b80156109ce5780601f106109a3576101008083540402835291602001916109ce565b820191906000526020600020905b8154815290600101906020018083116109b157829003601f168201915b505050505081525050908060030180546109e790611cde565b80601f0160208091040260200160405190810160405280929190818152602001828054610a1390611cde565b8015610a605780601f10610a3557610100808354040283529160200191610a60565b820191906000526020600020905b815481529060010190602001808311610a4357829003601f168201915b5050505050908060040160009054906101000a900467ffffffffffffffff1690806005018054610a8f90611cde565b80601f0160208091040260200160405190810160405280929190818152602001828054610abb90611cde565b8015610b085780601f10610add57610100808354040283529160200191610b08565b820191906000526020600020905b815481529060010190602001808311610aeb57829003601f168201915b5050505050905085565b33610b1b6110e7565b600b8190555042600a81905550610b31816103f3565b600d60008373ffffffffffffffffffffffffffffffffffffffff1673ffffffffffffffffffffffffffffffffffffffff16815260200190815260200160002081905550600b54600c60008373ffffffffffffffffffffffffffffffffffffffff1673ffffffffffffffffffffffffffffffffffffffff16815260200190815260200160002081905550336000600d60008373ffffffffffffffffffffffffffffffffffffffff1673ffffffffffffffffffffffffffffffffffffffff1681526020019081526020016000205411610c34576040517ff4d678b800000000000000000000000000000000000000000000000000000000815260040160405180910390fd5b6000600d60003373ffffffffffffffffffffffffffffffffffffffff1673ffffffffffffffffffffffffffffffffffffffff1681526020019081526020016000205490506000811115610dc8576000600d60003373ffffffffffffffffffffffffffffffffffffffff1673ffffffffffffffffffffffffffffffffffffffff16815260200190815260200160002081905550600760009054906101000a900473ffffffffffffffffffffffffffffffffffffffff1673ffffffffffffffffffffffffffffffffffffffff166362ad1b83601060009054906101000a900473ffffffffffffffffffffffffffffffffffffffff1633846040518463ffffffff1660e01b8152600401610d47939291906118a8565b600060405180830381600087803b158015610d6157600080fd5b505af1158015610d75573d6000803e3d6000fd5b505050503373ffffffffffffffffffffffffffffffffffffffff167f30d48163998ebdb35315ca111d363e796958a7782d5e024221a41560f933a4d182604051610dbf9190611a3d565b60405180910390a25b505050565b6000600f60008373ffffffffffffffffffffffffffffffffffffffff1673ffffffffffffffffffffffffffffffffffffffff168152602001908152602001600020549050919050565b600860009054906101000a900473ffffffffffffffffffffffffffffffffffffffff1681565b60095481565b600c6020528060005260406000206000915090505481565b8060008111610e95576040517f1f2a200500000000000000000000000000000000000000000000000000000000815260040160405180910390fd5b33610e9e6110e7565b600b8190555042600a81905550610eb4816103f3565b600d60008373ffffffffffffffffffffffffffffffffffffffff1673ffffffffffffffffffffffffffffffffffffffff16815260200190815260200160002081905550600b54600c60008373ffffffffffffffffffffffffffffffffffffffff1673ffffffffffffffffffffffffffffffffffffffff16815260200190815260200160002081905550610f5283600e5461141490919063ffffffff16565b600e81905550610faa83600f60003373ffffffffffffffffffffffffffffffffffffffff1673ffffffffffffffffffffffffffffffffffffffff1681526020019081526020016000205461141490919063ffffffff16565b600f60003373ffffffffffffffffffffffffffffffffffffffff1673ffffffffffffffffffffffffffffffffffffffff16815260200190815260200160002081905550600860009054906101000a900473ffffffffffffffffffffffffffffffffffffffff1673ffffffffffffffffffffffffffffffffffffffff166362ad1b833330866040518463ffffffff1660e01b815260040161104c939291906118a8565b600060405180830381600087803b15801561106657600080fd5b505af115801561107a573d6000803e3d6000fd5b505050503373ffffffffffffffffffffffffffffffffffffffff167f1fdab8a8457aaf782e4b6217d6ffa6f5006eda7e50922dd092b2e1524275d774846040516110c49190611a3d565b60405180910390a2505050565b60006110dc33610dcd565b905090565b600a5481565b600080600e5414156110fc5760009050611147565b600e54670de0b6b3a7640000600954600a54426111199190611bcb565b6111239190611b71565b61112d9190611b71565b6111379190611b40565b600b546111449190611aea565b90505b90565b6000611156600161142a565b9050801561117a576001600660156101000a81548160ff0219169083151502179055505b84600073ffffffffffffffffffffffffffffffffffffffff16601060009054906101000a900473ffffffffffffffffffffffffffffffffffffffff1673ffffffffffffffffffffffffffffffffffffffff1614611203576040517f0dc149f000000000000000000000000000000000000000000000000000000000815260040160405180910390fd5b84600860006101000a81548173ffffffffffffffffffffffffffffffffffffffff021916908373ffffffffffffffffffffffffffffffffffffffff16021790555083600760006101000a81548173ffffffffffffffffffffffffffffffffffffffff021916908373ffffffffffffffffffffffffffffffffffffffff16021790555082600981905550731820a4b7618bde71dce8cdc73aab6c95905fad2473ffffffffffffffffffffffffffffffffffffffff166329965a1d307fb281fc8c12954d22544db45de3159a39272895b169a852b314f9cc762e44c53b306040518463ffffffff1660e01b81526004016112fd93929190611905565b600060405180830381600087803b15801561131757600080fd5b505af115801561132b573d6000803e3d6000fd5b5050505085601060006101000a81548173ffffffffffffffffffffffffffffffffffffffff021916908373ffffffffffffffffffffffffffffffffffffffff1602179055505080156113cb576000600660156101000a81548160ff0219169083151502179055507f7f26b83ff96e1f2b6a682f133852f6798a09c465da95921460cefb384740249860016040516113c29190611a02565b60405180910390a15b5050505050565b600760009054906101000a900473ffffffffffffffffffffffffffffffffffffffff1681565b600b5481565b6000818361140c9190611bcb565b905092915050565b600081836114229190611aea565b905092915050565b6000600660159054906101000a900460ff16156114a25760018260ff1614801561145a57506114583061151e565b155b611499576040517f08c379a000000000000000000000000000000000000000000000000000000000815260040161149090611a1d565b60405180910390fd5b60009050611519565b8160ff16600660149054906101000a900460ff1660ff16106114f9576040517f08c379a00000000000000000000000000000000000000000000000000000000081526004016114f090611a1d565b60405180910390fd5b81600660146101000a81548160ff021916908360ff160217905550600190505b919050565b600080823b905060008111915050919050565b60008135905061154081611e00565b92915050565b60008083601f84011261155857600080fd5b8235905067ffffffffffffffff81111561157157600080fd5b60208301915083600182028301111561158957600080fd5b9250929050565b60008135905061159f81611e17565b92915050565b6000602082840312156115b757600080fd5b60006115c584828501611531565b91505092915050565b600080600080608085870312156115e457600080fd5b60006115f287828801611531565b945050602061160387828801611531565b935050604061161487828801611531565b925050606061162587828801611590565b91505092959194509250565b60008060008060008060008060c0898b03121561164d57600080fd5b600061165b8b828c01611531565b985050602061166c8b828c01611531565b975050604061167d8b828c01611531565b965050606061168e8b828c01611590565b955050608089013567ffffffffffffffff8111156116ab57600080fd5b6116b78b828c01611546565b945094505060a089013567ffffffffffffffff8111156116d657600080fd5b6116e28b828c01611546565b92509250509295985092959890939650565b60006020828403121561170657600080fd5b600061171484828501611590565b91505092915050565b61172681611bff565b82525050565b61173581611bff565b82525050565b61174481611c11565b82525050565b60006117568385611ab7565b9350611763838584611c9c565b61176c83611d9d565b840190509392505050565b600061178282611aa1565b61178c8185611ab7565b935061179c818560208601611cab565b6117a581611d9d565b840191505092915050565b6117b981611c66565b82525050565b6117c881611c8a565b82525050565b60006117d982611aac565b6117e38185611ac8565b93506117f3818560208601611cab565b6117fc81611d9d565b840191505092915050565b6000611814602e83611ad9565b915061181f82611dae565b604082019050919050565b6000611837600083611ab7565b915061184282611dfd565b600082019050919050565b6000604083016000830151611865600086018261171d565b506020830151848203602086015261187d82826117ce565b9150508091505092915050565b61189381611c3b565b82525050565b6118a281611c45565b82525050565b600060a0820190506118bd600083018661172c565b6118ca602083018561172c565b6118d7604083018461188a565b81810360608301526118e88161182a565b905081810360808301526118fb8161182a565b9050949350505050565b600060608201905061191a600083018661172c565b611927602083018561173b565b611934604083018461172c565b949350505050565b6000606082019050611951600083018561172c565b61195e602083018461188a565b818103604083015261196f8161182a565b90509392505050565b600060a08201905081810360008301526119928188611777565b905081810360208301526119a6818761184d565b905081810360408301526119ba8186611777565b90506119c96060830185611899565b81810360808301526119db8184611777565b90509695505050505050565b60006020820190506119fc60008301846117b0565b92915050565b6000602082019050611a1760008301846117bf565b92915050565b60006020820190508181036000830152611a3681611807565b9050919050565b6000602082019050611a52600083018461188a565b92915050565b6000606082019050611a6d600083018861188a565b8181036020830152611a8081868861174a565b90508181036040830152611a9581848661174a565b90509695505050505050565b600081519050919050565b600081519050919050565b600082825260208201905092915050565b600082825260208201905092915050565b600082825260208201905092915050565b6000611af582611c3b565b9150611b0083611c3b565b9250827fffffffffffffffffffffffffffffffffffffffffffffffffffffffffffffffff03821115611b3557611b34611d10565b5b828201905092915050565b6000611b4b82611c3b565b9150611b5683611c3b565b925082611b6657611b65611d3f565b5b828204905092915050565b6000611b7c82611c3b565b9150611b8783611c3b565b9250817fffffffffffffffffffffffffffffffffffffffffffffffffffffffffffffffff0483118215151615611bc057611bbf611d10565b5b828202905092915050565b6000611bd682611c3b565b9150611be183611c3b565b925082821015611bf457611bf3611d10565b5b828203905092915050565b6000611c0a82611c1b565b9050919050565b6000819050919050565b600073ffffffffffffffffffffffffffffffffffffffff82169050919050565b6000819050919050565b600067ffffffffffffffff82169050919050565b600060ff82169050919050565b6000611c7182611c78565b9050919050565b6000611c8382611c1b565b9050919050565b6000611c9582611c59565b9050919050565b82818337600083830152505050565b60005b83811015611cc9578082015181840152602081019050611cae565b83811115611cd8576000848401525b50505050565b60006002820490506001821680611cf657607f821691505b60208210811415611d0a57611d09611d6e565b5b50919050565b7f4e487b7100000000000000000000000000000000000000000000000000000000600052601160045260246000fd5b7f4e487b7100000000000000000000000000000000000000000000000000000000600052601260045260246000fd5b7f4e487b7100000000000000000000000000000000000000000000000000000000600052602260045260246000fd5b6000601f19601f8301169050919050565b7f496e697469616c697a61626c653a20636f6e747261637420697320616c72656160008201527f647920696e697469616c697a6564000000000000000000000000000000000000602082015250565b50565b611e0981611bff565b8114611e1457600080fd5b50565b611e2081611c3b565b8114611e2b57600080fd5b5056fea2646970667358221220205e9a6c29e402fc5a6f45c2baa920c2fa1518e02b950ac7187e27377077da1a64736f6c63430008040033",
  "linkReferences": {},
  "deployedLinkReferences": {}
}