{
  "_format": "hh-sol-artifact-1",
  "contractName": "StakeRewardsToken",
  "sourceName": "contracts/StakeRewardsToken.sol",
  "abi": [
    {
      "inputs": [
        {
          "internalType": "address",
          "name": "_owner",
          "type": "address"
        }
      ],
      "stateMutability": "nonpayable",
      "type": "constructor"
    },
    {
      "inputs": [],
      "name": "AlreadyInitialized",
      "type": "error"
    },
    {
      "inputs": [],
      "name": "InsufficientBalance",
      "type": "error"
    },
    {
      "inputs": [],
      "name": "Unauthorized",
      "type": "error"
    },
    {
      "inputs": [],
      "name": "ZeroAddress",
      "type": "error"
    },
    {
      "anonymous": false,
      "inputs": [
        {
          "indexed": false,
          "internalType": "uint8",
          "name": "version",
          "type": "uint8"
        }
      ],
      "name": "Initialized",
      "type": "event"
    },
    {
      "anonymous": false,
      "inputs": [
        {
          "indexed": true,
          "internalType": "address",
          "name": "_operator",
          "type": "address"
        },
        {
          "indexed": true,
          "internalType": "address",
          "name": "_from",
          "type": "address"
        },
        {
          "indexed": true,
          "internalType": "address",
          "name": "_to",
          "type": "address"
        },
        {
          "indexed": false,
          "internalType": "uint256",
          "name": "_amount",
          "type": "uint256"
        },
        {
          "indexed": false,
          "internalType": "bytes",
          "name": "_userData",
          "type": "bytes"
        },
        {
          "indexed": false,
          "internalType": "bytes",
          "name": "_operatorData",
          "type": "bytes"
        }
      ],
      "name": "TokensRecieved",
      "type": "event"
    },
    {
      "inputs": [],
      "name": "balance",
      "outputs": [
        {
          "internalType": "uint256",
          "name": "",
          "type": "uint256"
        }
      ],
      "stateMutability": "view",
      "type": "function"
    },
    {
      "inputs": [
        {
          "internalType": "address",
          "name": "_account",
          "type": "address"
        }
      ],
      "name": "balanceOf",
      "outputs": [
        {
          "internalType": "uint256",
          "name": "",
          "type": "uint256"
        }
      ],
      "stateMutability": "view",
      "type": "function"
    },
    {
      "inputs": [
        {
          "internalType": "address",
          "name": "_account",
          "type": "address"
        }
      ],
      "name": "earned",
      "outputs": [
        {
          "internalType": "uint256",
          "name": "",
          "type": "uint256"
        }
      ],
      "stateMutability": "view",
      "type": "function"
    },
    {
      "inputs": [],
      "name": "getReward",
      "outputs": [],
      "stateMutability": "nonpayable",
      "type": "function"
    },
    {
      "inputs": [
        {
          "internalType": "address",
          "name": "_tenant",
          "type": "address"
        },
        {
          "internalType": "address",
          "name": "_stakingToken",
          "type": "address"
        },
        {
          "internalType": "address",
          "name": "_rewardsToken",
          "type": "address"
        },
        {
          "internalType": "uint256",
          "name": "_rewardRate",
          "type": "uint256"
        }
      ],
      "name": "initialize",
      "outputs": [],
      "stateMutability": "nonpayable",
      "type": "function"
    },
    {
      "inputs": [],
      "name": "lastUpdatedTime",
      "outputs": [
        {
          "internalType": "uint256",
          "name": "",
          "type": "uint256"
        }
      ],
      "stateMutability": "view",
      "type": "function"
    },
    {
      "inputs": [],
      "name": "metadata",
      "outputs": [
        {
          "internalType": "bytes",
          "name": "title",
          "type": "bytes"
        },
        {
          "components": [
            {
              "internalType": "address",
              "name": "authorAddress",
              "type": "address"
            },
            {
              "internalType": "string",
              "name": "externalLink",
              "type": "string"
            }
          ],
          "internalType": "struct IHyperverseModule.Author",
          "name": "author",
          "type": "tuple"
        },
        {
          "internalType": "bytes",
          "name": "version",
          "type": "bytes"
        },
        {
          "internalType": "uint64",
          "name": "publishedAt",
          "type": "uint64"
        },
        {
          "internalType": "bytes",
          "name": "externalLink",
          "type": "bytes"
        }
      ],
      "stateMutability": "view",
      "type": "function"
    },
    {
      "inputs": [],
      "name": "rewardPerToken",
      "outputs": [
        {
          "internalType": "uint256",
          "name": "",
          "type": "uint256"
        }
      ],
      "stateMutability": "view",
      "type": "function"
    },
    {
      "inputs": [],
      "name": "rewardPerTokenStored",
      "outputs": [
        {
          "internalType": "uint256",
          "name": "",
          "type": "uint256"
        }
      ],
      "stateMutability": "view",
      "type": "function"
    },
    {
      "inputs": [],
      "name": "rewardRate",
      "outputs": [
        {
          "internalType": "uint256",
          "name": "",
          "type": "uint256"
        }
      ],
      "stateMutability": "view",
      "type": "function"
    },
    {
      "inputs": [
        {
          "internalType": "address",
          "name": "",
          "type": "address"
        }
      ],
      "name": "rewards",
      "outputs": [
        {
          "internalType": "uint256",
          "name": "",
          "type": "uint256"
        }
      ],
      "stateMutability": "view",
      "type": "function"
    },
    {
      "inputs": [],
      "name": "rewardsToken",
      "outputs": [
        {
          "internalType": "contract ERC777",
          "name": "",
          "type": "address"
        }
      ],
      "stateMutability": "view",
      "type": "function"
    },
    {
      "inputs": [
        {
          "internalType": "uint256",
          "name": "_amount",
          "type": "uint256"
        }
      ],
      "name": "stake",
      "outputs": [],
      "stateMutability": "nonpayable",
      "type": "function"
    },
    {
      "inputs": [],
      "name": "stakingToken",
      "outputs": [
        {
          "internalType": "contract ERC777",
          "name": "",
          "type": "address"
        }
      ],
      "stateMutability": "view",
      "type": "function"
    },
    {
      "inputs": [
        {
          "internalType": "address",
          "name": "_operator",
          "type": "address"
        },
        {
          "internalType": "address",
          "name": "_from",
          "type": "address"
        },
        {
          "internalType": "address",
          "name": "_to",
          "type": "address"
        },
        {
          "internalType": "uint256",
          "name": "_amount",
          "type": "uint256"
        },
        {
          "internalType": "bytes",
          "name": "_userData",
          "type": "bytes"
        },
        {
          "internalType": "bytes",
          "name": "_operatorData",
          "type": "bytes"
        }
      ],
      "name": "tokensReceived",
      "outputs": [],
      "stateMutability": "nonpayable",
      "type": "function"
    },
    {
      "inputs": [],
      "name": "totalSupply",
      "outputs": [
        {
          "internalType": "uint256",
          "name": "",
          "type": "uint256"
        }
      ],
      "stateMutability": "view",
      "type": "function"
    },
    {
      "inputs": [
        {
          "internalType": "address",
          "name": "",
          "type": "address"
        }
      ],
      "name": "userRewardPerTokenPaid",
      "outputs": [
        {
          "internalType": "uint256",
          "name": "",
          "type": "uint256"
        }
      ],
      "stateMutability": "view",
      "type": "function"
    },
    {
      "inputs": [
        {
          "internalType": "uint256",
          "name": "_amount",
          "type": "uint256"
        }
      ],
      "name": "withdraw",
      "outputs": [],
      "stateMutability": "nonpayable",
      "type": "function"
    }
  ],
  "bytecode": "0x60a06040523480156200001157600080fd5b50604051620021f6380380620021f6833981810160405281019062000037919062000403565b6040518060a001604052806040518060400160405280601381526020017f5374616b65205265776172647320546f6b656e00000000000000000000000000815250815260200160405180604001604052808473ffffffffffffffffffffffffffffffffffffffff1681526020016040518060400160405280601881526020017f68747470733a2f2f65787465726e616c6c696e6b2e6e6574000000000000000081525081525081526020016040518060400160405280600581526020017f302e302e31000000000000000000000000000000000000000000000000000000815250815260200165032a361e860667ffffffffffffffff1681526020016040518060400160405280601881526020017f68747470733a2f2f65787465726e616c4c696e6b2e6e657400000000000000008152508152506000808201518160000190805190602001906200018b929190620002ab565b5060208201518160010160008201518160000160006101000a81548173ffffffffffffffffffffffffffffffffffffffff021916908373ffffffffffffffffffffffffffffffffffffffff1602179055506020820151816001019080519060200190620001fa9291906200033c565b50505060408201518160030190805190602001906200021b929190620002ab565b5060608201518160040160006101000a81548167ffffffffffffffff021916908367ffffffffffffffff160217905550608082015181600501908051906020019062000269929190620002ab565b509050508073ffffffffffffffffffffffffffffffffffffffff1660808173ffffffffffffffffffffffffffffffffffffffff1660601b8152505050620004e2565b828054620002b99062000463565b90600052602060002090601f016020900481019282620002dd576000855562000329565b82601f10620002f857805160ff191683800117855562000329565b8280016001018555821562000329579182015b82811115620003285782518255916020019190600101906200030b565b5b509050620003389190620003cd565b5090565b8280546200034a9062000463565b90600052602060002090601f0160209004810192826200036e5760008555620003ba565b82601f106200038957805160ff1916838001178555620003ba565b82800160010185558215620003ba579182015b82811115620003b95782518255916020019190600101906200039c565b5b509050620003c99190620003cd565b5090565b5b80821115620003e8576000816000905550600101620003ce565b5090565b600081519050620003fd81620004c8565b92915050565b6000602082840312156200041657600080fd5b60006200042684828501620003ec565b91505092915050565b60006200043c8262000443565b9050919050565b600073ffffffffffffffffffffffffffffffffffffffff82169050919050565b600060028204905060018216806200047c57607f821691505b6020821081141562000493576200049262000499565b5b50919050565b7f4e487b7100000000000000000000000000000000000000000000000000000000600052602260045260246000fd5b620004d3816200042f565b8114620004df57600080fd5b50565b60805160601c611cf8620004fe60003960005050611cf86000f3fe608060405234801561001057600080fd5b50600436106101145760003560e01c80637b0a47ee116100a2578063bf85689511610071578063bf856895146102d1578063cd3daf9d146102ef578063cf756fdf1461030d578063d1af0c7d14610329578063df136d651461034757610114565b80637b0a47ee146102495780638b87634714610267578063a694fc3a14610297578063b69ef8a8146102b357610114565b80632e1a7d4d116100e95780632e1a7d4d146101b3578063392f37e9146101cf5780633d18b912146101f157806370a08231146101fb57806372f702f31461022b57610114565b806223de29146101195780628cc262146101355780630700037d1461016557806318160ddd14610195575b600080fd5b610133600480360381019061012e91906114c5565b610365565b005b61014f600480360381019061014a9190611439565b6103f3565b60405161015c91906118d1565b60405180910390f35b61017f600480360381019061017a9190611439565b6104f5565b60405161018c91906118d1565b60405180910390f35b61019d61050d565b6040516101aa91906118d1565b60405180910390f35b6101cd60048036038101906101c89190611588565b610513565b005b6101d76107c6565b6040516101e895949392919061180c565b60405180910390f35b6101f9610a88565b005b61021560048036038101906102109190611439565b610ceb565b60405161022291906118d1565b60405180910390f35b610233610d34565b604051610240919061187b565b60405180910390f35b610251610d5a565b60405161025e91906118d1565b60405180910390f35b610281600480360381019061027c9190611439565b610d60565b60405161028e91906118d1565b60405180910390f35b6102b160048036038101906102ac9190611588565b610d78565b005b6102bb610f65565b6040516102c891906118d1565b60405180910390f35b6102d9610f75565b6040516102e691906118d1565b60405180910390f35b6102f7610f7b565b60405161030491906118d1565b60405180910390f35b61032760048036038101906103229190611462565b610fde565b005b610331611266565b60405161033e919061187b565b60405180910390f35b61034f61128c565b60405161035c91906118d1565b60405180910390f35b8573ffffffffffffffffffffffffffffffffffffffff168773ffffffffffffffffffffffffffffffffffffffff168973ffffffffffffffffffffffffffffffffffffffff167fe01b0a77c1110bdab1870b7f4b76f38cf36a5028c6fe73002d5976cc2ebce8f688888888886040516103e19594939291906118ec565b60405180910390a45050505050505050565b6000600d60008373ffffffffffffffffffffffffffffffffffffffff1673ffffffffffffffffffffffffffffffffffffffff16815260200190815260200160002054670de0b6b3a7640000600c60008573ffffffffffffffffffffffffffffffffffffffff1673ffffffffffffffffffffffffffffffffffffffff16815260200190815260200160002054610486610f7b565b6104909190611a5f565b600f60008673ffffffffffffffffffffffffffffffffffffffff1673ffffffffffffffffffffffffffffffffffffffff168152602001908152602001600020546104da9190611a05565b6104e491906119d4565b6104ee919061197e565b9050919050565b600d6020528060005260406000206000915090505481565b600e5481565b338180600f60008473ffffffffffffffffffffffffffffffffffffffff1673ffffffffffffffffffffffffffffffffffffffff1681526020019081526020016000205410806105a257506000600f60008473ffffffffffffffffffffffffffffffffffffffff1673ffffffffffffffffffffffffffffffffffffffff1681526020019081526020016000205411155b156105d9576040517ff4d678b800000000000000000000000000000000000000000000000000000000815260040160405180910390fd5b336105e2610f7b565b600b8190555042600a819055506105f8816103f3565b600d60008373ffffffffffffffffffffffffffffffffffffffff1673ffffffffffffffffffffffffffffffffffffffff16815260200190815260200160002081905550600b54600c60008373ffffffffffffffffffffffffffffffffffffffff1673ffffffffffffffffffffffffffffffffffffffff1681526020019081526020016000208190555061069684600e5461129290919063ffffffff16565b600e819055506106ee84600f60003373ffffffffffffffffffffffffffffffffffffffff1673ffffffffffffffffffffffffffffffffffffffff1681526020019081526020016000205461129290919063ffffffff16565b600f60003373ffffffffffffffffffffffffffffffffffffffff1673ffffffffffffffffffffffffffffffffffffffff16815260200190815260200160002081905550600860009054906101000a900473ffffffffffffffffffffffffffffffffffffffff1673ffffffffffffffffffffffffffffffffffffffff16639bd9bbc633866040518363ffffffff1660e01b815260040161078e9291906117d0565b600060405180830381600087803b1580156107a857600080fd5b505af11580156107bc573d6000803e3d6000fd5b5050505050505050565b60008060000180546107d790611b72565b80601f016020809104026020016040519081016040528092919081815260200182805461080390611b72565b80156108505780601f1061082557610100808354040283529160200191610850565b820191906000526020600020905b81548152906001019060200180831161083357829003601f168201915b505050505090806001016040518060400160405290816000820160009054906101000a900473ffffffffffffffffffffffffffffffffffffffff1673ffffffffffffffffffffffffffffffffffffffff1673ffffffffffffffffffffffffffffffffffffffff1681526020016001820180546108cb90611b72565b80601f01602080910402602001604051908101604052809291908181526020018280546108f790611b72565b80156109445780601f1061091957610100808354040283529160200191610944565b820191906000526020600020905b81548152906001019060200180831161092757829003601f168201915b5050505050815250509080600301805461095d90611b72565b80601f016020809104026020016040519081016040528092919081815260200182805461098990611b72565b80156109d65780601f106109ab576101008083540402835291602001916109d6565b820191906000526020600020905b8154815290600101906020018083116109b957829003601f168201915b5050505050908060040160009054906101000a900467ffffffffffffffff1690806005018054610a0590611b72565b80601f0160208091040260200160405190810160405280929190818152602001828054610a3190611b72565b8015610a7e5780601f10610a5357610100808354040283529160200191610a7e565b820191906000526020600020905b815481529060010190602001808311610a6157829003601f168201915b5050505050905085565b33610a91610f7b565b600b8190555042600a81905550610aa7816103f3565b600d60008373ffffffffffffffffffffffffffffffffffffffff1673ffffffffffffffffffffffffffffffffffffffff16815260200190815260200160002081905550600b54600c60008373ffffffffffffffffffffffffffffffffffffffff1673ffffffffffffffffffffffffffffffffffffffff16815260200190815260200160002081905550336000600d60008373ffffffffffffffffffffffffffffffffffffffff1673ffffffffffffffffffffffffffffffffffffffff1681526020019081526020016000205411610baa576040517ff4d678b800000000000000000000000000000000000000000000000000000000815260040160405180910390fd5b6000600d60003373ffffffffffffffffffffffffffffffffffffffff1673ffffffffffffffffffffffffffffffffffffffff1681526020019081526020016000205490506000600d60003373ffffffffffffffffffffffffffffffffffffffff1673ffffffffffffffffffffffffffffffffffffffff16815260200190815260200160002081905550600760009054906101000a900473ffffffffffffffffffffffffffffffffffffffff1673ffffffffffffffffffffffffffffffffffffffff166362ad1b83601060009054906101000a900473ffffffffffffffffffffffffffffffffffffffff1633846040518463ffffffff1660e01b8152600401610cb49392919061173c565b600060405180830381600087803b158015610cce57600080fd5b505af1158015610ce2573d6000803e3d6000fd5b50505050505050565b6000600f60008373ffffffffffffffffffffffffffffffffffffffff1673ffffffffffffffffffffffffffffffffffffffff168152602001908152602001600020549050919050565b600860009054906101000a900473ffffffffffffffffffffffffffffffffffffffff1681565b60095481565b600c6020528060005260406000206000915090505481565b33610d81610f7b565b600b8190555042600a81905550610d97816103f3565b600d60008373ffffffffffffffffffffffffffffffffffffffff1673ffffffffffffffffffffffffffffffffffffffff16815260200190815260200160002081905550600b54600c60008373ffffffffffffffffffffffffffffffffffffffff1673ffffffffffffffffffffffffffffffffffffffff16815260200190815260200160002081905550610e3582600e546112a890919063ffffffff16565b600e81905550610e8d82600f60003373ffffffffffffffffffffffffffffffffffffffff1673ffffffffffffffffffffffffffffffffffffffff168152602001908152602001600020546112a890919063ffffffff16565b600f60003373ffffffffffffffffffffffffffffffffffffffff1673ffffffffffffffffffffffffffffffffffffffff16815260200190815260200160002081905550600860009054906101000a900473ffffffffffffffffffffffffffffffffffffffff1673ffffffffffffffffffffffffffffffffffffffff166362ad1b833330856040518463ffffffff1660e01b8152600401610f2f9392919061173c565b600060405180830381600087803b158015610f4957600080fd5b505af1158015610f5d573d6000803e3d6000fd5b505050505050565b6000610f7033610ceb565b905090565b600a5481565b600080600e541415610f905760009050610fdb565b600e54670de0b6b3a7640000600954600a5442610fad9190611a5f565b610fb79190611a05565b610fc19190611a05565b610fcb91906119d4565b600b54610fd8919061197e565b90505b90565b6000610fea60016112be565b9050801561100e576001600660156101000a81548160ff0219169083151502179055505b84600073ffffffffffffffffffffffffffffffffffffffff16601060009054906101000a900473ffffffffffffffffffffffffffffffffffffffff1673ffffffffffffffffffffffffffffffffffffffff1614611097576040517f0dc149f000000000000000000000000000000000000000000000000000000000815260040160405180910390fd5b84600860006101000a81548173ffffffffffffffffffffffffffffffffffffffff021916908373ffffffffffffffffffffffffffffffffffffffff16021790555083600760006101000a81548173ffffffffffffffffffffffffffffffffffffffff021916908373ffffffffffffffffffffffffffffffffffffffff16021790555082600981905550731820a4b7618bde71dce8cdc73aab6c95905fad2473ffffffffffffffffffffffffffffffffffffffff166329965a1d307fb281fc8c12954d22544db45de3159a39272895b169a852b314f9cc762e44c53b306040518463ffffffff1660e01b815260040161119193929190611799565b600060405180830381600087803b1580156111ab57600080fd5b505af11580156111bf573d6000803e3d6000fd5b5050505085601060006101000a81548173ffffffffffffffffffffffffffffffffffffffff021916908373ffffffffffffffffffffffffffffffffffffffff16021790555050801561125f576000600660156101000a81548160ff0219169083151502179055507f7f26b83ff96e1f2b6a682f133852f6798a09c465da95921460cefb384740249860016040516112569190611896565b60405180910390a15b5050505050565b600760009054906101000a900473ffffffffffffffffffffffffffffffffffffffff1681565b600b5481565b600081836112a09190611a5f565b905092915050565b600081836112b6919061197e565b905092915050565b6000600660159054906101000a900460ff16156113365760018260ff161480156112ee57506112ec306113b2565b155b61132d576040517f08c379a0000000000000000000000000000000000000000000000000000000008152600401611324906118b1565b60405180910390fd5b600090506113ad565b8160ff16600660149054906101000a900460ff1660ff161061138d576040517f08c379a0000000000000000000000000000000000000000000000000000000008152600401611384906118b1565b60405180910390fd5b81600660146101000a81548160ff021916908360ff160217905550600190505b919050565b600080823b905060008111915050919050565b6000813590506113d481611c94565b92915050565b60008083601f8401126113ec57600080fd5b8235905067ffffffffffffffff81111561140557600080fd5b60208301915083600182028301111561141d57600080fd5b9250929050565b60008135905061143381611cab565b92915050565b60006020828403121561144b57600080fd5b6000611459848285016113c5565b91505092915050565b6000806000806080858703121561147857600080fd5b6000611486878288016113c5565b9450506020611497878288016113c5565b93505060406114a8878288016113c5565b92505060606114b987828801611424565b91505092959194509250565b60008060008060008060008060c0898b0312156114e157600080fd5b60006114ef8b828c016113c5565b98505060206115008b828c016113c5565b97505060406115118b828c016113c5565b96505060606115228b828c01611424565b955050608089013567ffffffffffffffff81111561153f57600080fd5b61154b8b828c016113da565b945094505060a089013567ffffffffffffffff81111561156a57600080fd5b6115768b828c016113da565b92509250509295985092959890939650565b60006020828403121561159a57600080fd5b60006115a884828501611424565b91505092915050565b6115ba81611a93565b82525050565b6115c981611a93565b82525050565b6115d881611aa5565b82525050565b60006115ea838561194b565b93506115f7838584611b30565b61160083611c31565b840190509392505050565b600061161682611935565b611620818561194b565b9350611630818560208601611b3f565b61163981611c31565b840191505092915050565b61164d81611afa565b82525050565b61165c81611b1e565b82525050565b600061166d82611940565b611677818561195c565b9350611687818560208601611b3f565b61169081611c31565b840191505092915050565b60006116a8602e8361196d565b91506116b382611c42565b604082019050919050565b60006116cb60008361194b565b91506116d682611c91565b600082019050919050565b60006040830160008301516116f960008601826115b1565b50602083015184820360208601526117118282611662565b9150508091505092915050565b61172781611acf565b82525050565b61173681611ad9565b82525050565b600060a08201905061175160008301866115c0565b61175e60208301856115c0565b61176b604083018461171e565b818103606083015261177c816116be565b9050818103608083015261178f816116be565b9050949350505050565b60006060820190506117ae60008301866115c0565b6117bb60208301856115cf565b6117c860408301846115c0565b949350505050565b60006060820190506117e560008301856115c0565b6117f2602083018461171e565b8181036040830152611803816116be565b90509392505050565b600060a0820190508181036000830152611826818861160b565b9050818103602083015261183a81876116e1565b9050818103604083015261184e818661160b565b905061185d606083018561172d565b818103608083015261186f818461160b565b90509695505050505050565b60006020820190506118906000830184611644565b92915050565b60006020820190506118ab6000830184611653565b92915050565b600060208201905081810360008301526118ca8161169b565b9050919050565b60006020820190506118e6600083018461171e565b92915050565b6000606082019050611901600083018861171e565b81810360208301526119148186886115de565b905081810360408301526119298184866115de565b90509695505050505050565b600081519050919050565b600081519050919050565b600082825260208201905092915050565b600082825260208201905092915050565b600082825260208201905092915050565b600061198982611acf565b915061199483611acf565b9250827fffffffffffffffffffffffffffffffffffffffffffffffffffffffffffffffff038211156119c9576119c8611ba4565b5b828201905092915050565b60006119df82611acf565b91506119ea83611acf565b9250826119fa576119f9611bd3565b5b828204905092915050565b6000611a1082611acf565b9150611a1b83611acf565b9250817fffffffffffffffffffffffffffffffffffffffffffffffffffffffffffffffff0483118215151615611a5457611a53611ba4565b5b828202905092915050565b6000611a6a82611acf565b9150611a7583611acf565b925082821015611a8857611a87611ba4565b5b828203905092915050565b6000611a9e82611aaf565b9050919050565b6000819050919050565b600073ffffffffffffffffffffffffffffffffffffffff82169050919050565b6000819050919050565b600067ffffffffffffffff82169050919050565b600060ff82169050919050565b6000611b0582611b0c565b9050919050565b6000611b1782611aaf565b9050919050565b6000611b2982611aed565b9050919050565b82818337600083830152505050565b60005b83811015611b5d578082015181840152602081019050611b42565b83811115611b6c576000848401525b50505050565b60006002820490506001821680611b8a57607f821691505b60208210811415611b9e57611b9d611c02565b5b50919050565b7f4e487b7100000000000000000000000000000000000000000000000000000000600052601160045260246000fd5b7f4e487b7100000000000000000000000000000000000000000000000000000000600052601260045260246000fd5b7f4e487b7100000000000000000000000000000000000000000000000000000000600052602260045260246000fd5b6000601f19601f8301169050919050565b7f496e697469616c697a61626c653a20636f6e747261637420697320616c72656160008201527f647920696e697469616c697a6564000000000000000000000000000000000000602082015250565b50565b611c9d81611a93565b8114611ca857600080fd5b50565b611cb481611acf565b8114611cbf57600080fd5b5056fea264697066735822122027015f23920ce2a804ce1232e86570d32f325474765feb658c1bcd1b255effb264736f6c63430008040033",
  "linkReferences": {},
  "deployedLinkReferences": {}
}