{
  "_format": "hh-sol-artifact-1",
  "contractName": "Whitelist",
  "sourceName": "contracts/Whitelist.sol",
  "abi": [
    {
      "inputs": [
        {
          "internalType": "address",
          "name": "_owner",
          "type": "address"
        }
      ],
      "stateMutability": "nonpayable",
      "type": "constructor"
    },
    {
      "inputs": [],
      "name": "AlreadyAnOperator",
      "type": "error"
    },
    {
      "inputs": [],
      "name": "AlreadyClaimedWhitelist",
      "type": "error"
    },
    {
      "inputs": [],
      "name": "AlreadyInWhitelist",
      "type": "error"
    },
    {
      "inputs": [],
      "name": "AlreadyInitialized",
      "type": "error"
    },
    {
      "inputs": [],
      "name": "CannotRevokeOperator",
      "type": "error"
    },
    {
      "inputs": [],
      "name": "InvalidMerkleRoot",
      "type": "error"
    },
    {
      "inputs": [],
      "name": "NoAvailableUnitsLeft",
      "type": "error"
    },
    {
      "inputs": [],
      "name": "NoTokensFound",
      "type": "error"
    },
    {
      "inputs": [],
      "name": "NotAnNFTOwner",
      "type": "error"
    },
    {
      "inputs": [],
      "name": "NotInWhitelist",
      "type": "error"
    },
    {
      "inputs": [],
      "name": "Unathorized",
      "type": "error"
    },
    {
      "inputs": [],
      "name": "WhitelistAlreadyActive",
      "type": "error"
    },
    {
      "inputs": [],
      "name": "WhitelistIsNotActive",
      "type": "error"
    },
    {
      "inputs": [],
      "name": "WhitelistingAlreadyEnded",
      "type": "error"
    },
    {
      "inputs": [],
      "name": "WhitelistingNotStarted",
      "type": "error"
    },
    {
      "inputs": [],
      "name": "ZeroAddress",
      "type": "error"
    },
    {
      "anonymous": false,
      "inputs": [],
      "name": "ActivatedWhitelist",
      "type": "event"
    },
    {
      "anonymous": false,
      "inputs": [
        {
          "indexed": false,
          "internalType": "address",
          "name": "_operator",
          "type": "address"
        }
      ],
      "name": "AuthorizedNewOperator",
      "type": "event"
    },
    {
      "anonymous": false,
      "inputs": [],
      "name": "DeactivatedWhitelist",
      "type": "event"
    },
    {
      "anonymous": false,
      "inputs": [
        {
          "indexed": false,
          "internalType": "uint8",
          "name": "version",
          "type": "uint8"
        }
      ],
      "name": "Initialized",
      "type": "event"
    },
    {
      "anonymous": false,
      "inputs": [
        {
          "indexed": false,
          "internalType": "address",
          "name": "_user",
          "type": "address"
        }
      ],
      "name": "NewAddressWhitelisted",
      "type": "event"
    },
    {
      "anonymous": false,
      "inputs": [
        {
          "indexed": false,
          "internalType": "address",
          "name": "_operator",
          "type": "address"
        }
      ],
      "name": "RevokedOperator",
      "type": "event"
    },
    {
      "inputs": [],
      "name": "ERC20",
      "outputs": [
        {
          "internalType": "contract IERC20",
          "name": "",
          "type": "address"
        }
      ],
      "stateMutability": "view",
      "type": "function"
    },
    {
      "inputs": [],
      "name": "ERC721",
      "outputs": [
        {
          "internalType": "contract IERC721",
          "name": "",
          "type": "address"
        }
      ],
      "stateMutability": "view",
      "type": "function"
    },
    {
      "inputs": [],
      "name": "activateWhitelistClaiming",
      "outputs": [],
      "stateMutability": "nonpayable",
      "type": "function"
    },
    {
      "inputs": [],
      "name": "active",
      "outputs": [
        {
          "internalType": "bool",
          "name": "",
          "type": "bool"
        }
      ],
      "stateMutability": "view",
      "type": "function"
    },
    {
      "inputs": [
        {
          "internalType": "address",
          "name": "",
          "type": "address"
        }
      ],
      "name": "addressesClaimed",
      "outputs": [
        {
          "internalType": "bool",
          "name": "",
          "type": "bool"
        }
      ],
      "stateMutability": "view",
      "type": "function"
    },
    {
      "inputs": [
        {
          "internalType": "address",
          "name": "_operator",
          "type": "address"
        }
      ],
      "name": "authorizeOperator",
      "outputs": [],
      "stateMutability": "nonpayable",
      "type": "function"
    },
    {
      "inputs": [
        {
          "internalType": "address",
          "name": "_user",
          "type": "address"
        },
        {
          "internalType": "bytes32[]",
          "name": "_merkleProof",
          "type": "bytes32[]"
        }
      ],
      "name": "checkMerkleWhitelist",
      "outputs": [
        {
          "internalType": "bool",
          "name": "",
          "type": "bool"
        }
      ],
      "stateMutability": "view",
      "type": "function"
    },
    {
      "inputs": [
        {
          "internalType": "address",
          "name": "_user",
          "type": "address"
        },
        {
          "internalType": "bytes32[]",
          "name": "_merkleProof",
          "type": "bytes32[]"
        }
      ],
      "name": "claimWhitelist",
      "outputs": [],
      "stateMutability": "nonpayable",
      "type": "function"
    },
    {
      "inputs": [],
      "name": "claimedCounter",
      "outputs": [
        {
          "internalType": "uint256",
          "name": "_value",
          "type": "uint256"
        }
      ],
      "stateMutability": "view",
      "type": "function"
    },
    {
      "inputs": [],
      "name": "contractOwner",
      "outputs": [
        {
          "internalType": "address",
          "name": "",
          "type": "address"
        }
      ],
      "stateMutability": "view",
      "type": "function"
    },
    {
      "inputs": [],
      "name": "deactivateWhitelistClaiming",
      "outputs": [],
      "stateMutability": "nonpayable",
      "type": "function"
    },
    {
      "inputs": [],
      "name": "endTime",
      "outputs": [
        {
          "internalType": "uint256",
          "name": "",
          "type": "uint256"
        }
      ],
      "stateMutability": "view",
      "type": "function"
    },
    {
      "inputs": [],
      "name": "getWhitelisted",
      "outputs": [],
      "stateMutability": "nonpayable",
      "type": "function"
    },
    {
      "inputs": [
        {
          "internalType": "address",
          "name": "_tenant",
          "type": "address"
        },
        {
          "internalType": "uint256",
          "name": "_startTime",
          "type": "uint256"
        },
        {
          "internalType": "uint256",
          "name": "_endTime",
          "type": "uint256"
        },
        {
          "internalType": "uint256",
          "name": "_units",
          "type": "uint256"
        },
        {
          "internalType": "address",
          "name": "_ERC721",
          "type": "address"
        },
        {
          "internalType": "address",
          "name": "_ERC20",
          "type": "address"
        },
        {
          "internalType": "bytes32",
          "name": "_merkleRoot",
          "type": "bytes32"
        }
      ],
      "name": "initialize",
      "outputs": [],
      "stateMutability": "nonpayable",
      "type": "function"
    },
    {
      "inputs": [],
      "name": "merkleBased",
      "outputs": [
        {
          "internalType": "bool",
          "name": "",
          "type": "bool"
        }
      ],
      "stateMutability": "view",
      "type": "function"
    },
    {
      "inputs": [],
      "name": "merkleRoot",
      "outputs": [
        {
          "internalType": "bytes32",
          "name": "",
          "type": "bytes32"
        }
      ],
      "stateMutability": "view",
      "type": "function"
    },
    {
      "inputs": [],
      "name": "metadata",
      "outputs": [
        {
          "internalType": "bytes",
          "name": "title",
          "type": "bytes"
        },
        {
          "components": [
            {
              "internalType": "address",
              "name": "authorAddress",
              "type": "address"
            },
            {
              "internalType": "string",
              "name": "externalLink",
              "type": "string"
            }
          ],
          "internalType": "struct IHyperverseModule.Author",
          "name": "author",
          "type": "tuple"
        },
        {
          "internalType": "bytes",
          "name": "version",
          "type": "bytes"
        },
        {
          "internalType": "uint64",
          "name": "publishedAt",
          "type": "uint64"
        },
        {
          "internalType": "bytes",
          "name": "externalLink",
          "type": "bytes"
        }
      ],
      "stateMutability": "view",
      "type": "function"
    },
    {
      "inputs": [],
      "name": "nftBased",
      "outputs": [
        {
          "internalType": "bool",
          "name": "",
          "type": "bool"
        }
      ],
      "stateMutability": "view",
      "type": "function"
    },
    {
      "inputs": [],
      "name": "quantityBased",
      "outputs": [
        {
          "internalType": "bool",
          "name": "",
          "type": "bool"
        }
      ],
      "stateMutability": "view",
      "type": "function"
    },
    {
      "inputs": [
        {
          "internalType": "address",
          "name": "_operator",
          "type": "address"
        }
      ],
      "name": "revokeOperator",
      "outputs": [],
      "stateMutability": "nonpayable",
      "type": "function"
    },
    {
      "inputs": [],
      "name": "startTime",
      "outputs": [
        {
          "internalType": "uint256",
          "name": "",
          "type": "uint256"
        }
      ],
      "stateMutability": "view",
      "type": "function"
    },
    {
      "inputs": [],
      "name": "timeBased",
      "outputs": [
        {
          "internalType": "bool",
          "name": "",
          "type": "bool"
        }
      ],
      "stateMutability": "view",
      "type": "function"
    },
    {
      "inputs": [],
      "name": "tokenBased",
      "outputs": [
        {
          "internalType": "bool",
          "name": "",
          "type": "bool"
        }
      ],
      "stateMutability": "view",
      "type": "function"
    },
    {
      "inputs": [],
      "name": "units",
      "outputs": [
        {
          "internalType": "uint256",
          "name": "",
          "type": "uint256"
        }
      ],
      "stateMutability": "view",
      "type": "function"
    },
    {
      "inputs": [
        {
          "internalType": "bytes32",
          "name": "_merkleRoot",
          "type": "bytes32"
        }
      ],
      "name": "updateMerkleRoot",
      "outputs": [],
      "stateMutability": "nonpayable",
      "type": "function"
    },
    {
      "inputs": [
        {
          "internalType": "address",
          "name": "",
          "type": "address"
        }
      ],
      "name": "whitelistedAddresses",
      "outputs": [
        {
          "internalType": "bool",
          "name": "",
          "type": "bool"
        }
      ],
      "stateMutability": "view",
      "type": "function"
    }
  ],
  "bytecode": "0x60a06040523480156200001157600080fd5b506040516200295038038062002950833981810160405281019062000037919062000403565b6040518060a001604052806040518060400160405280601081526020017f57686974656c697374204d6f64756c6500000000000000000000000000000000815250815260200160405180604001604052808473ffffffffffffffffffffffffffffffffffffffff1681526020016040518060400160405280601881526020017f68747470733a2f2f65787465726e616c6c696e6b2e6e6574000000000000000081525081525081526020016040518060400160405280600581526020017f312e302e30000000000000000000000000000000000000000000000000000000815250815260200165032a361e860667ffffffffffffffff1681526020016040518060400160405280601881526020017f68747470733a2f2f65787465726e616c6c696e6b2e6e657400000000000000008152508152506000808201518160000190805190602001906200018b929190620002ab565b5060208201518160010160008201518160000160006101000a81548173ffffffffffffffffffffffffffffffffffffffff021916908373ffffffffffffffffffffffffffffffffffffffff1602179055506020820151816001019080519060200190620001fa9291906200033c565b50505060408201518160030190805190602001906200021b929190620002ab565b5060608201518160040160006101000a81548167ffffffffffffffff021916908367ffffffffffffffff160217905550608082015181600501908051906020019062000269929190620002ab565b509050508073ffffffffffffffffffffffffffffffffffffffff1660808173ffffffffffffffffffffffffffffffffffffffff1660601b8152505050620004e2565b828054620002b99062000463565b90600052602060002090601f016020900481019282620002dd576000855562000329565b82601f10620002f857805160ff191683800117855562000329565b8280016001018555821562000329579182015b82811115620003285782518255916020019190600101906200030b565b5b509050620003389190620003cd565b5090565b8280546200034a9062000463565b90600052602060002090601f0160209004810192826200036e5760008555620003ba565b82601f106200038957805160ff1916838001178555620003ba565b82800160010185558215620003ba579182015b82811115620003b95782518255916020019190600101906200039c565b5b509050620003c99190620003cd565b5090565b5b80821115620003e8576000816000905550600101620003ce565b5090565b600081519050620003fd81620004c8565b92915050565b6000602082840312156200041657600080fd5b60006200042684828501620003ec565b91505092915050565b60006200043c8262000443565b9050919050565b600073ffffffffffffffffffffffffffffffffffffffff82169050919050565b600060028204905060018216806200047c57607f821691505b6020821081141562000493576200049262000499565b5b50919050565b7f4e487b7100000000000000000000000000000000000000000000000000000000600052602260045260246000fd5b620004d3816200042f565b8114620004df57600080fd5b50565b60805160601c61244f620005016000396000611429015261244f6000f3fe608060405234801561001057600080fd5b506004361061018d5760003560e01c8063959b8c3f116100de578063ca14b6aa11610097578063ce606ee011610071578063ce606ee014610432578063d9205bde14610450578063f57d89f41461045a578063fad8b32a146104765761018d565b8063ca14b6aa146103c6578063cc4aa204146103f6578063cc5f75f3146104145761018d565b8063959b8c3f1461031857806395e7387c14610334578063976a8435146103645780639b372b2b14610382578063a5193de11461038c578063c579a7d4146103a85761018d565b8063392f37e91161014b5780635a2a43b5116101255780635a2a43b5146102a05780635db90691146102be57806378e97925146102dc5780638425abff146102fa5761018d565b8063392f37e9146102445780634783f0ef1461026657806359cf337a146102825761018d565b8062beef201461019257806302fb0c5e146101b057806306c933d8146101ce578063196e29dd146101fe5780632eb4a7ab146102085780633197cbb614610226575b600080fd5b61019a610492565b6040516101a79190611ff0565b60405180910390f35b6101b86104a5565b6040516101c59190611ff0565b60405180910390f35b6101e860048036038101906101e39190611cd9565b6104b8565b6040516101f59190611ff0565b60405180910390f35b6102066104d8565b005b6102106105c2565b60405161021d919061200b565b60405180910390f35b61022e6105c8565b60405161023b9190612106565b60405180910390f35b61024c6105ce565b60405161025d959493929190612026565b60405180910390f35b610280600480360381019061027b9190611df8565b610890565b005b61028a610960565b6040516102979190612106565b60405180910390f35b6102a861096c565b6040516102b59190611ff0565b60405180910390f35b6102c661097f565b6040516102d39190611ff0565b60405180910390f35b6102e4610992565b6040516102f19190612106565b60405180910390f35b610302610998565b60405161030f91906120b0565b60405180910390f35b610332600480360381019061032d9190611cd9565b6109be565b005b61034e60048036038101906103499190611cd9565b610bb3565b60405161035b9190611ff0565b60405180910390f35b61036c610bd3565b6040516103799190612106565b60405180910390f35b61038a610bd9565b005b6103a660048036038101906103a19190611d02565b610ff3565b005b6103b0611345565b6040516103bd9190611ff0565b60405180910390f35b6103e060048036038101906103db9190611d02565b611358565b6040516103ed9190611ff0565b60405180910390f35b6103fe6113ee565b60405161040b9190612095565b60405180910390f35b61041c611414565b6040516104299190611ff0565b60405180910390f35b61043a611427565b6040516104479190611fd5565b60405180910390f35b61045861144b565b005b610474600480360381019061046f9190611d5a565b611536565b005b610490600480360381019061048b9190611cd9565b611841565b005b601160009054906101000a900460ff1681565b600a60009054906101000a900460ff1681565b60086020528060005260406000206000915054906101000a900460ff1681565b600760009054906101000a900473ffffffffffffffffffffffffffffffffffffffff1673ffffffffffffffffffffffffffffffffffffffff163373ffffffffffffffffffffffffffffffffffffffff161461055f576040517f28c3794a00000000000000000000000000000000000000000000000000000000815260040160405180910390fd5b600a60009054906101000a900460ff166105a5576040517f80c026e800000000000000000000000000000000000000000000000000000000815260040160405180910390fd5b6000600a60006101000a81548160ff021916908315150217905550565b60135481565b600f5481565b60008060000180546105df9061226a565b80601f016020809104026020016040519081016040528092919081815260200182805461060b9061226a565b80156106585780601f1061062d57610100808354040283529160200191610658565b820191906000526020600020905b81548152906001019060200180831161063b57829003601f168201915b505050505090806001016040518060400160405290816000820160009054906101000a900473ffffffffffffffffffffffffffffffffffffffff1673ffffffffffffffffffffffffffffffffffffffff1673ffffffffffffffffffffffffffffffffffffffff1681526020016001820180546106d39061226a565b80601f01602080910402602001604051908101604052809291908181526020018280546106ff9061226a565b801561074c5780601f106107215761010080835404028352916020019161074c565b820191906000526020600020905b81548152906001019060200180831161072f57829003601f168201915b505050505081525050908060030180546107659061226a565b80601f01602080910402602001604051908101604052809291908181526020018280546107919061226a565b80156107de5780601f106107b3576101008083540402835291602001916107de565b820191906000526020600020905b8154815290600101906020018083116107c157829003601f168201915b5050505050908060040160009054906101000a900467ffffffffffffffff169080600501805461080d9061226a565b80601f01602080910402602001604051908101604052809291908181526020018280546108399061226a565b80156108865780601f1061085b57610100808354040283529160200191610886565b820191906000526020600020905b81548152906001019060200180831161086957829003601f168201915b5050505050905085565b600760009054906101000a900473ffffffffffffffffffffffffffffffffffffffff1673ffffffffffffffffffffffffffffffffffffffff163373ffffffffffffffffffffffffffffffffffffffff1614610917576040517f28c3794a00000000000000000000000000000000000000000000000000000000815260040160405180910390fd5b806000801b811415610955576040517f9dd854d300000000000000000000000000000000000000000000000000000000815260040160405180910390fd5b816013819055505050565b600b8060000154905081565b601160019054906101000a900460ff1681565b601460009054906101000a900460ff1681565b600e5481565b601160029054906101000a900473ffffffffffffffffffffffffffffffffffffffff1681565b600760009054906101000a900473ffffffffffffffffffffffffffffffffffffffff1673ffffffffffffffffffffffffffffffffffffffff163373ffffffffffffffffffffffffffffffffffffffff1614610a45576040517f28c3794a00000000000000000000000000000000000000000000000000000000815260040160405180910390fd5b600760009054906101000a900473ffffffffffffffffffffffffffffffffffffffff1673ffffffffffffffffffffffffffffffffffffffff168173ffffffffffffffffffffffffffffffffffffffff161480610aea5750600c60008273ffffffffffffffffffffffffffffffffffffffff1673ffffffffffffffffffffffffffffffffffffffff16815260200190815260200160002060009054906101000a900460ff165b15610b21576040517f55388ab800000000000000000000000000000000000000000000000000000000815260040160405180910390fd5b6001600c60008373ffffffffffffffffffffffffffffffffffffffff1673ffffffffffffffffffffffffffffffffffffffff16815260200190815260200160002060006101000a81548160ff0219169083151502179055507f789795ef66b35ee49a942763cb5c20446bf48a9f78a4d090bd223d66cfc91f6381604051610ba89190611fd5565b60405180910390a150565b60096020528060005260406000206000915054906101000a900460ff1681565b60105481565b33600860008273ffffffffffffffffffffffffffffffffffffffff1673ffffffffffffffffffffffffffffffffffffffff16815260200190815260200160002060009054906101000a900460ff1615610c5e576040517f2ca641c000000000000000000000000000000000000000000000000000000000815260040160405180910390fd5b601160009054906101000a900460ff168015610c7b5750600e5442105b15610cb2576040517f60215f7f00000000000000000000000000000000000000000000000000000000815260040160405180910390fd5b601160009054906101000a900460ff168015610ccf5750600f5442115b15610d06576040517f5c8a183e00000000000000000000000000000000000000000000000000000000815260040160405180910390fd5b601160019054906101000a900460ff1615610d6b57601054610d28600b611a37565b1415610d60576040517f5288ecb600000000000000000000000000000000000000000000000000000000815260040160405180910390fd5b610d6a600b611a45565b5b601160169054906101000a900460ff1615610e66576000601160029054906101000a900473ffffffffffffffffffffffffffffffffffffffff1673ffffffffffffffffffffffffffffffffffffffff166370a08231336040518263ffffffff1660e01b8152600401610ddd9190611fd5565b60206040518083038186803b158015610df557600080fd5b505afa158015610e09573d6000803e3d6000fd5b505050506040513d601f19601f82011682018060405250810190610e2d9190611e21565b1415610e65576040517ff94812ee00000000000000000000000000000000000000000000000000000000815260040160405180910390fd5b5b601260149054906101000a900460ff1615610f61576000601260009054906101000a900473ffffffffffffffffffffffffffffffffffffffff1673ffffffffffffffffffffffffffffffffffffffff166370a08231336040518263ffffffff1660e01b8152600401610ed89190611fd5565b60206040518083038186803b158015610ef057600080fd5b505afa158015610f04573d6000803e3d6000fd5b505050506040513d601f19601f82011682018060405250810190610f289190611e21565b1415610f60576040517f776acd5b00000000000000000000000000000000000000000000000000000000815260040160405180910390fd5b5b6001600860003373ffffffffffffffffffffffffffffffffffffffff1673ffffffffffffffffffffffffffffffffffffffff16815260200190815260200160002060006101000a81548160ff0219169083151502179055507fac22f777fc7ba5fca089a3ed93da62a6843800a862591e2879ed58ec604ffd7d33604051610fe89190611fd5565b60405180910390a150565b33600c60008273ffffffffffffffffffffffffffffffffffffffff1673ffffffffffffffffffffffffffffffffffffffff16815260200190815260200160002060009054906101000a900460ff16158061109a5750600760009054906101000a900473ffffffffffffffffffffffffffffffffffffffff1673ffffffffffffffffffffffffffffffffffffffff168173ffffffffffffffffffffffffffffffffffffffff16145b156110d1576040517f28c3794a00000000000000000000000000000000000000000000000000000000815260040160405180910390fd5b83600960008273ffffffffffffffffffffffffffffffffffffffff1673ffffffffffffffffffffffffffffffffffffffff16815260200190815260200160002060009054906101000a900460ff1615611156576040517f2164e0b900000000000000000000000000000000000000000000000000000000815260040160405180910390fd5b600a60009054906101000a900460ff1661119c576040517f80c026e800000000000000000000000000000000000000000000000000000000815260040160405180910390fd5b600960008673ffffffffffffffffffffffffffffffffffffffff1673ffffffffffffffffffffffffffffffffffffffff16815260200190815260200160002060009054906101000a900460ff1615611220576040517f2164e0b900000000000000000000000000000000000000000000000000000000815260040160405180910390fd5b601460009054906101000a900460ff16156112e6576000856040516020016112489190611fba565b6040516020818303038152906040528051906020012090506112ae858580806020026020016040519081016040528093929190818152602001838360200280828437600081840152601f19601f8201169050808301925050505050505060135483611a5b565b6112e4576040517f5b0aa2ba00000000000000000000000000000000000000000000000000000000815260040160405180910390fd5b505b6001600960008773ffffffffffffffffffffffffffffffffffffffff1673ffffffffffffffffffffffffffffffffffffffff16815260200190815260200160002060006101000a81548160ff0219169083151502179055505050505050565b601260149054906101000a900460ff1681565b6000808460405160200161136c9190611fba565b6040516020818303038152906040528051906020012090506113d2848480806020026020016040519081016040528093929190818152602001838360200280828437600081840152601f19601f8201169050808301925050505050505060135483611a5b565b156113e15760019150506113e7565b60009150505b9392505050565b601260009054906101000a900473ffffffffffffffffffffffffffffffffffffffff1681565b601160169054906101000a900460ff1681565b7f000000000000000000000000000000000000000000000000000000000000000081565b600760009054906101000a900473ffffffffffffffffffffffffffffffffffffffff1673ffffffffffffffffffffffffffffffffffffffff163373ffffffffffffffffffffffffffffffffffffffff16146114d2576040517f28c3794a00000000000000000000000000000000000000000000000000000000815260040160405180910390fd5b600a60009054906101000a900460ff1615611519576040517fb36b250500000000000000000000000000000000000000000000000000000000815260040160405180910390fd5b6001600a60006101000a81548160ff021916908315150217905550565b60006115426001611a72565b90508015611566576001600660156101000a81548160ff0219169083151502179055505b87600073ffffffffffffffffffffffffffffffffffffffff16600760009054906101000a900473ffffffffffffffffffffffffffffffffffffffff1673ffffffffffffffffffffffffffffffffffffffff16146115ef576040517f0dc149f000000000000000000000000000000000000000000000000000000000815260040160405180910390fd5b6000861461161a57856010819055506001601160016101000a81548160ff0219169083151502179055505b6000881461164c5787600e8190555086600f819055506001601160006101000a81548160ff0219169083151502179055505b600073ffffffffffffffffffffffffffffffffffffffff168573ffffffffffffffffffffffffffffffffffffffff16146116dd5784601160026101000a81548173ffffffffffffffffffffffffffffffffffffffff021916908373ffffffffffffffffffffffffffffffffffffffff1602179055506001601160166101000a81548160ff0219169083151502179055505b600073ffffffffffffffffffffffffffffffffffffffff168473ffffffffffffffffffffffffffffffffffffffff161461176e5783601260006101000a81548173ffffffffffffffffffffffffffffffffffffffff021916908373ffffffffffffffffffffffffffffffffffffffff1602179055506001601260146101000a81548160ff0219169083151502179055505b6000801b831461179b57826013819055506001601460006101000a81548160ff0219169083151502179055505b88600760006101000a81548173ffffffffffffffffffffffffffffffffffffffff021916908373ffffffffffffffffffffffffffffffffffffffff160217905550508015611837576000600660156101000a81548160ff0219169083151502179055507f7f26b83ff96e1f2b6a682f133852f6798a09c465da95921460cefb3847402498600160405161182e91906120cb565b60405180910390a15b5050505050505050565b600760009054906101000a900473ffffffffffffffffffffffffffffffffffffffff1673ffffffffffffffffffffffffffffffffffffffff163373ffffffffffffffffffffffffffffffffffffffff16146118c8576040517f28c3794a00000000000000000000000000000000000000000000000000000000815260040160405180910390fd5b600760009054906101000a900473ffffffffffffffffffffffffffffffffffffffff1673ffffffffffffffffffffffffffffffffffffffff168173ffffffffffffffffffffffffffffffffffffffff16148061196e5750600c60008273ffffffffffffffffffffffffffffffffffffffff1673ffffffffffffffffffffffffffffffffffffffff16815260200190815260200160002060009054906101000a900460ff16155b156119a5576040517f3b2bec1c00000000000000000000000000000000000000000000000000000000815260040160405180910390fd5b6000600c60008373ffffffffffffffffffffffffffffffffffffffff1673ffffffffffffffffffffffffffffffffffffffff16815260200190815260200160002060006101000a81548160ff0219169083151502179055507f9aed77fa8e81537452cc742049e969e6feac80d04558d16f36936b840a2d688881604051611a2c9190611fd5565b60405180910390a150565b600081600001549050919050565b6001816000016000828254019250508190555050565b600082611a688584611b66565b1490509392505050565b6000600660159054906101000a900460ff1615611aea5760018260ff16148015611aa25750611aa030611c01565b155b611ae1576040517f08c379a0000000000000000000000000000000000000000000000000000000008152600401611ad8906120e6565b60405180910390fd5b60009050611b61565b8160ff16600660149054906101000a900460ff1660ff1610611b41576040517f08c379a0000000000000000000000000000000000000000000000000000000008152600401611b38906120e6565b60405180910390fd5b81600660146101000a81548160ff021916908360ff160217905550600190505b919050565b60008082905060005b8451811015611bf6576000858281518110611bb3577f4e487b7100000000000000000000000000000000000000000000000000000000600052603260045260246000fd5b60200260200101519050808311611bd557611bce8382611c24565b9250611be2565b611bdf8184611c24565b92505b508080611bee9061229c565b915050611b6f565b508091505092915050565b6000808273ffffffffffffffffffffffffffffffffffffffff163b119050919050565b600082600052816020526040600020905092915050565b600081359050611c4a816123d4565b92915050565b60008083601f840112611c6257600080fd5b8235905067ffffffffffffffff811115611c7b57600080fd5b602083019150836020820283011115611c9357600080fd5b9250929050565b600081359050611ca9816123eb565b92915050565b600081359050611cbe81612402565b92915050565b600081519050611cd381612402565b92915050565b600060208284031215611ceb57600080fd5b6000611cf984828501611c3b565b91505092915050565b600080600060408486031215611d1757600080fd5b6000611d2586828701611c3b565b935050602084013567ffffffffffffffff811115611d4257600080fd5b611d4e86828701611c50565b92509250509250925092565b600080600080600080600060e0888a031215611d7557600080fd5b6000611d838a828b01611c3b565b9750506020611d948a828b01611caf565b9650506040611da58a828b01611caf565b9550506060611db68a828b01611caf565b9450506080611dc78a828b01611c3b565b93505060a0611dd88a828b01611c3b565b92505060c0611de98a828b01611c9a565b91505092959891949750929550565b600060208284031215611e0a57600080fd5b6000611e1884828501611c9a565b91505092915050565b600060208284031215611e3357600080fd5b6000611e4184828501611cc4565b91505092915050565b611e538161216a565b82525050565b611e628161216a565b82525050565b611e79611e748261216a565b6122e5565b82525050565b611e888161217c565b82525050565b611e9781612188565b82525050565b6000611ea882612121565b611eb28185612137565b9350611ec2818560208601612237565b611ecb81612367565b840191505092915050565b611edf816121dd565b82525050565b611eee81612201565b82525050565b611efd81612225565b82525050565b6000611f0e8261212c565b611f188185612148565b9350611f28818560208601612237565b611f3181612367565b840191505092915050565b6000611f49602e83612159565b9150611f5482612385565b604082019050919050565b6000604083016000830151611f776000860182611e4a565b5060208301518482036020860152611f8f8282611f03565b9150508091505092915050565b611fa5816121b2565b82525050565b611fb4816121bc565b82525050565b6000611fc68284611e68565b60148201915081905092915050565b6000602082019050611fea6000830184611e59565b92915050565b60006020820190506120056000830184611e7f565b92915050565b60006020820190506120206000830184611e8e565b92915050565b600060a08201905081810360008301526120408188611e9d565b905081810360208301526120548187611f5f565b905081810360408301526120688186611e9d565b90506120776060830185611fab565b81810360808301526120898184611e9d565b90509695505050505050565b60006020820190506120aa6000830184611ed6565b92915050565b60006020820190506120c56000830184611ee5565b92915050565b60006020820190506120e06000830184611ef4565b92915050565b600060208201905081810360008301526120ff81611f3c565b9050919050565b600060208201905061211b6000830184611f9c565b92915050565b600081519050919050565b600081519050919050565b600082825260208201905092915050565b600082825260208201905092915050565b600082825260208201905092915050565b600061217582612192565b9050919050565b60008115159050919050565b6000819050919050565b600073ffffffffffffffffffffffffffffffffffffffff82169050919050565b6000819050919050565b600067ffffffffffffffff82169050919050565b600060ff82169050919050565b60006121e8826121ef565b9050919050565b60006121fa82612192565b9050919050565b600061220c82612213565b9050919050565b600061221e82612192565b9050919050565b6000612230826121d0565b9050919050565b60005b8381101561225557808201518184015260208101905061223a565b83811115612264576000848401525b50505050565b6000600282049050600182168061228257607f821691505b6020821081141561229657612295612338565b5b50919050565b60006122a7826121b2565b91507fffffffffffffffffffffffffffffffffffffffffffffffffffffffffffffffff8214156122da576122d9612309565b5b600182019050919050565b60006122f0826122f7565b9050919050565b600061230282612378565b9050919050565b7f4e487b7100000000000000000000000000000000000000000000000000000000600052601160045260246000fd5b7f4e487b7100000000000000000000000000000000000000000000000000000000600052602260045260246000fd5b6000601f19601f8301169050919050565b60008160601b9050919050565b7f496e697469616c697a61626c653a20636f6e747261637420697320616c72656160008201527f647920696e697469616c697a6564000000000000000000000000000000000000602082015250565b6123dd8161216a565b81146123e857600080fd5b50565b6123f481612188565b81146123ff57600080fd5b50565b61240b816121b2565b811461241657600080fd5b5056fea2646970667358221220a87e2f89560175f667fd9abebad49abf86cba30208eb3dd1c2129fa3db604c1d64736f6c63430008040033",
  "linkReferences": {},
  "deployedLinkReferences": {}
}