{
  "_format": "hh-sol-artifact-1",
  "contractName": "Whitelist",
  "sourceName": "contracts/Whitelist.sol",
  "abi": [
    {
      "inputs": [
        {
          "internalType": "address",
          "name": "_owner",
          "type": "address"
        }
      ],
      "stateMutability": "nonpayable",
      "type": "constructor"
    },
    {
      "inputs": [],
      "name": "AlreadyAnOperator",
      "type": "error"
    },
    {
      "inputs": [],
      "name": "AlreadyClaimedWhitelist",
      "type": "error"
    },
    {
      "inputs": [],
      "name": "AlreadyInWhitelist",
      "type": "error"
    },
    {
      "inputs": [],
      "name": "AlreadyInitialized",
      "type": "error"
    },
    {
      "inputs": [],
      "name": "CannotRevokeOperator",
      "type": "error"
    },
    {
      "inputs": [],
      "name": "InvalidMerkleRoot",
      "type": "error"
    },
    {
      "inputs": [],
      "name": "NoAvailableUnitsLeft",
      "type": "error"
    },
    {
      "inputs": [],
      "name": "NoTokensFound",
      "type": "error"
    },
    {
      "inputs": [],
      "name": "NotAnNFTOwner",
      "type": "error"
    },
    {
      "inputs": [],
      "name": "NotInWhitelist",
      "type": "error"
    },
    {
      "inputs": [],
      "name": "Unathorized",
      "type": "error"
    },
    {
      "inputs": [],
      "name": "WhitelistAlreadyActive",
      "type": "error"
    },
    {
      "inputs": [],
      "name": "WhitelistIsNotActive",
      "type": "error"
    },
    {
      "inputs": [],
      "name": "WhitelistingAlreadyEnded",
      "type": "error"
    },
    {
      "inputs": [],
      "name": "WhitelistingNotStarted",
      "type": "error"
    },
    {
      "inputs": [],
      "name": "ZeroAddress",
      "type": "error"
    },
    {
      "anonymous": false,
      "inputs": [],
      "name": "ActivatedWhitelist",
      "type": "event"
    },
    {
      "anonymous": false,
      "inputs": [
        {
          "indexed": false,
          "internalType": "address",
          "name": "_operator",
          "type": "address"
        }
      ],
      "name": "AuthorizedNewOperator",
      "type": "event"
    },
    {
      "anonymous": false,
      "inputs": [],
      "name": "DeactivatedWhitelist",
      "type": "event"
    },
    {
      "anonymous": false,
      "inputs": [
        {
          "indexed": false,
          "internalType": "uint8",
          "name": "version",
          "type": "uint8"
        }
      ],
      "name": "Initialized",
      "type": "event"
    },
    {
      "anonymous": false,
      "inputs": [
        {
          "indexed": false,
          "internalType": "address",
          "name": "_user",
          "type": "address"
        }
      ],
      "name": "NewAddressWhitelisted",
      "type": "event"
    },
    {
      "anonymous": false,
      "inputs": [
        {
          "indexed": false,
          "internalType": "address",
          "name": "_operator",
          "type": "address"
        }
      ],
      "name": "RevokedOperator",
      "type": "event"
    },
    {
      "inputs": [],
      "name": "ERC20",
      "outputs": [
        {
          "internalType": "contract IERC20",
          "name": "",
          "type": "address"
        }
      ],
      "stateMutability": "view",
      "type": "function"
    },
    {
      "inputs": [],
      "name": "ERC721",
      "outputs": [
        {
          "internalType": "contract IERC721",
          "name": "",
          "type": "address"
        }
      ],
      "stateMutability": "view",
      "type": "function"
    },
    {
      "inputs": [],
      "name": "activateWhitelistClaiming",
      "outputs": [],
      "stateMutability": "nonpayable",
      "type": "function"
    },
    {
      "inputs": [],
      "name": "active",
      "outputs": [
        {
          "internalType": "bool",
          "name": "",
          "type": "bool"
        }
      ],
      "stateMutability": "view",
      "type": "function"
    },
    {
      "inputs": [
        {
          "internalType": "address",
          "name": "",
          "type": "address"
        }
      ],
      "name": "addressesClaimed",
      "outputs": [
        {
          "internalType": "bool",
          "name": "",
          "type": "bool"
        }
      ],
      "stateMutability": "view",
      "type": "function"
    },
    {
      "inputs": [
        {
          "internalType": "address",
          "name": "_operator",
          "type": "address"
        }
      ],
      "name": "authorizeOperator",
      "outputs": [],
      "stateMutability": "nonpayable",
      "type": "function"
    },
    {
      "inputs": [
        {
          "internalType": "address",
          "name": "_user",
          "type": "address"
        },
        {
          "internalType": "bytes32[]",
          "name": "_merkleProof",
          "type": "bytes32[]"
        }
      ],
      "name": "checkMerkleWhitelist",
      "outputs": [
        {
          "internalType": "bool",
          "name": "",
          "type": "bool"
        }
      ],
      "stateMutability": "view",
      "type": "function"
    },
    {
      "inputs": [
        {
          "internalType": "address",
          "name": "_user",
          "type": "address"
        },
        {
          "internalType": "bytes32[]",
          "name": "_merkleProof",
          "type": "bytes32[]"
        }
      ],
      "name": "claimWhitelist",
      "outputs": [],
      "stateMutability": "nonpayable",
      "type": "function"
    },
    {
      "inputs": [],
      "name": "claimedCounter",
      "outputs": [
        {
          "internalType": "uint256",
          "name": "_value",
          "type": "uint256"
        }
      ],
      "stateMutability": "view",
      "type": "function"
    },
    {
      "inputs": [],
      "name": "contractOwner",
      "outputs": [
        {
          "internalType": "address",
          "name": "",
          "type": "address"
        }
      ],
      "stateMutability": "view",
      "type": "function"
    },
    {
      "inputs": [],
      "name": "deactivateWhitelistClaiming",
      "outputs": [],
      "stateMutability": "nonpayable",
      "type": "function"
    },
    {
      "inputs": [],
      "name": "endTime",
      "outputs": [
        {
          "internalType": "uint256",
          "name": "",
          "type": "uint256"
        }
      ],
      "stateMutability": "view",
      "type": "function"
    },
    {
      "inputs": [],
      "name": "getWhitelisted",
      "outputs": [],
      "stateMutability": "nonpayable",
      "type": "function"
    },
    {
      "inputs": [
        {
          "internalType": "address",
          "name": "_tenant",
          "type": "address"
        },
        {
          "internalType": "uint256",
          "name": "_startTime",
          "type": "uint256"
        },
        {
          "internalType": "uint256",
          "name": "_endTime",
          "type": "uint256"
        },
        {
          "internalType": "uint256",
          "name": "_units",
          "type": "uint256"
        },
        {
          "internalType": "address",
          "name": "_ERC721",
          "type": "address"
        },
        {
          "internalType": "address",
          "name": "_ERC20",
          "type": "address"
        },
        {
          "internalType": "bytes32",
          "name": "_merkleRoot",
          "type": "bytes32"
        }
      ],
      "name": "initialize",
      "outputs": [],
      "stateMutability": "nonpayable",
      "type": "function"
    },
    {
      "inputs": [],
      "name": "merkleBased",
      "outputs": [
        {
          "internalType": "bool",
          "name": "",
          "type": "bool"
        }
      ],
      "stateMutability": "view",
      "type": "function"
    },
    {
      "inputs": [],
      "name": "merkleRoot",
      "outputs": [
        {
          "internalType": "bytes32",
          "name": "",
          "type": "bytes32"
        }
      ],
      "stateMutability": "view",
      "type": "function"
    },
    {
      "inputs": [],
      "name": "metadata",
      "outputs": [
        {
          "internalType": "bytes",
          "name": "title",
          "type": "bytes"
        },
        {
          "internalType": "address",
          "name": "author",
          "type": "address"
        },
        {
          "internalType": "bytes",
          "name": "version",
          "type": "bytes"
        },
        {
          "internalType": "uint256",
          "name": "publishedAt",
          "type": "uint256"
        },
        {
          "internalType": "bytes",
          "name": "externalLink",
          "type": "bytes"
        }
      ],
      "stateMutability": "view",
      "type": "function"
    },
    {
      "inputs": [],
      "name": "nftBased",
      "outputs": [
        {
          "internalType": "bool",
          "name": "",
          "type": "bool"
        }
      ],
      "stateMutability": "view",
      "type": "function"
    },
    {
      "inputs": [],
      "name": "quantityBased",
      "outputs": [
        {
          "internalType": "bool",
          "name": "",
          "type": "bool"
        }
      ],
      "stateMutability": "view",
      "type": "function"
    },
    {
      "inputs": [
        {
          "internalType": "address",
          "name": "_operator",
          "type": "address"
        }
      ],
      "name": "revokeOperator",
      "outputs": [],
      "stateMutability": "nonpayable",
      "type": "function"
    },
    {
      "inputs": [],
      "name": "startTime",
      "outputs": [
        {
          "internalType": "uint256",
          "name": "",
          "type": "uint256"
        }
      ],
      "stateMutability": "view",
      "type": "function"
    },
    {
      "inputs": [],
      "name": "timeBased",
      "outputs": [
        {
          "internalType": "bool",
          "name": "",
          "type": "bool"
        }
      ],
      "stateMutability": "view",
      "type": "function"
    },
    {
      "inputs": [],
      "name": "tokenBased",
      "outputs": [
        {
          "internalType": "bool",
          "name": "",
          "type": "bool"
        }
      ],
      "stateMutability": "view",
      "type": "function"
    },
    {
      "inputs": [],
      "name": "units",
      "outputs": [
        {
          "internalType": "uint256",
          "name": "",
          "type": "uint256"
        }
      ],
      "stateMutability": "view",
      "type": "function"
    },
    {
      "inputs": [
        {
          "internalType": "bytes32",
          "name": "_merkleRoot",
          "type": "bytes32"
        }
      ],
      "name": "updateMerkleRoot",
      "outputs": [],
      "stateMutability": "nonpayable",
      "type": "function"
    },
    {
      "inputs": [
        {
          "internalType": "address",
          "name": "",
          "type": "address"
        }
      ],
      "name": "whitelistedAddresses",
      "outputs": [
        {
          "internalType": "bool",
          "name": "",
          "type": "bool"
        }
      ],
      "stateMutability": "view",
      "type": "function"
    }
  ],
  "bytecode": "0x60a06040523480156200001157600080fd5b5060405162002666380380620026668339818101604052810190620000379190620002ca565b6040518060a001604052806040518060400160405280601081526020017f57686974656c697374204d6f64756c650000000000000000000000000000000081525081526020018273ffffffffffffffffffffffffffffffffffffffff1681526020016040518060400160405280600581526020017f312e302e3000000000000000000000000000000000000000000000000000000081525081526020014281526020016040518060400160405280601b81526020017f68747470733a2f2f7777772e687970657276657273652e6465762f00000000008152508152506000808201518160000190805190602001906200013292919062000203565b5060208201518160010160006101000a81548173ffffffffffffffffffffffffffffffffffffffff021916908373ffffffffffffffffffffffffffffffffffffffff16021790555060408201518160020190805190602001906200019892919062000203565b50606082015181600301556080820151816004019080519060200190620001c192919062000203565b509050508073ffffffffffffffffffffffffffffffffffffffff1660808173ffffffffffffffffffffffffffffffffffffffff1660601b8152505050620003a9565b82805462000211906200032a565b90600052602060002090601f01602090048101928262000235576000855562000281565b82601f106200025057805160ff191683800117855562000281565b8280016001018555821562000281579182015b828111156200028057825182559160200191906001019062000263565b5b50905062000290919062000294565b5090565b5b80821115620002af57600081600090555060010162000295565b5090565b600081519050620002c4816200038f565b92915050565b600060208284031215620002dd57600080fd5b6000620002ed84828501620002b3565b91505092915050565b600062000303826200030a565b9050919050565b600073ffffffffffffffffffffffffffffffffffffffff82169050919050565b600060028204905060018216806200034357607f821691505b602082108114156200035a576200035962000360565b5b50919050565b7f4e487b7100000000000000000000000000000000000000000000000000000000600052602260045260246000fd5b6200039a81620002f6565b8114620003a657600080fd5b50565b60805160601c61229e620003c86000396000611343015261229e6000f3fe608060405234801561001057600080fd5b506004361061018d5760003560e01c8063959b8c3f116100de578063ca14b6aa11610097578063ce606ee011610071578063ce606ee014610432578063d9205bde14610450578063f57d89f41461045a578063fad8b32a146104765761018d565b8063ca14b6aa146103c6578063cc4aa204146103f6578063cc5f75f3146104145761018d565b8063959b8c3f1461031857806395e7387c14610334578063976a8435146103645780639b372b2b14610382578063a5193de11461038c578063c579a7d4146103a85761018d565b8063392f37e91161014b5780635a2a43b5116101255780635a2a43b5146102a05780635db90691146102be57806378e97925146102dc5780638425abff146102fa5761018d565b8063392f37e9146102445780634783f0ef1461026657806359cf337a146102825761018d565b8062beef201461019257806302fb0c5e146101b057806306c933d8146101ce578063196e29dd146101fe5780632eb4a7ab146102085780633197cbb614610226575b600080fd5b61019a610492565b6040516101a79190611e76565b60405180910390f35b6101b86104a5565b6040516101c59190611e76565b60405180910390f35b6101e860048036038101906101e39190611bf3565b6104b8565b6040516101f59190611e76565b60405180910390f35b6102066104d8565b005b6102106105c2565b60405161021d9190611e91565b60405180910390f35b61022e6105c8565b60405161023b9190611f85565b60405180910390f35b61024c6105ce565b60405161025d959493929190611eac565b60405180910390f35b610280600480360381019061027b9190611d12565b6107aa565b005b61028a61087a565b6040516102979190611f85565b60405180910390f35b6102a8610886565b6040516102b59190611e76565b60405180910390f35b6102c6610899565b6040516102d39190611e76565b60405180910390f35b6102e46108ac565b6040516102f19190611f85565b60405180910390f35b6103026108b2565b60405161030f9190611f2f565b60405180910390f35b610332600480360381019061032d9190611bf3565b6108d8565b005b61034e60048036038101906103499190611bf3565b610acd565b60405161035b9190611e76565b60405180910390f35b61036c610aed565b6040516103799190611f85565b60405180910390f35b61038a610af3565b005b6103a660048036038101906103a19190611c1c565b610f0d565b005b6103b061125f565b6040516103bd9190611e76565b60405180910390f35b6103e060048036038101906103db9190611c1c565b611272565b6040516103ed9190611e76565b60405180910390f35b6103fe611308565b60405161040b9190611f14565b60405180910390f35b61041c61132e565b6040516104299190611e76565b60405180910390f35b61043a611341565b6040516104479190611e5b565b60405180910390f35b610458611365565b005b610474600480360381019061046f9190611c74565b611450565b005b610490600480360381019061048b9190611bf3565b61175b565b005b601060009054906101000a900460ff1681565b600960009054906101000a900460ff1681565b60076020528060005260406000206000915054906101000a900460ff1681565b600660009054906101000a900473ffffffffffffffffffffffffffffffffffffffff1673ffffffffffffffffffffffffffffffffffffffff163373ffffffffffffffffffffffffffffffffffffffff161461055f576040517f28c3794a00000000000000000000000000000000000000000000000000000000815260040160405180910390fd5b600960009054906101000a900460ff166105a5576040517f80c026e800000000000000000000000000000000000000000000000000000000815260040160405180910390fd5b6000600960006101000a81548160ff021916908315150217905550565b60125481565b600e5481565b60008060000180546105df906120b9565b80601f016020809104026020016040519081016040528092919081815260200182805461060b906120b9565b80156106585780601f1061062d57610100808354040283529160200191610658565b820191906000526020600020905b81548152906001019060200180831161063b57829003601f168201915b5050505050908060010160009054906101000a900473ffffffffffffffffffffffffffffffffffffffff1690806002018054610693906120b9565b80601f01602080910402602001604051908101604052809291908181526020018280546106bf906120b9565b801561070c5780601f106106e15761010080835404028352916020019161070c565b820191906000526020600020905b8154815290600101906020018083116106ef57829003601f168201915b505050505090806003015490806004018054610727906120b9565b80601f0160208091040260200160405190810160405280929190818152602001828054610753906120b9565b80156107a05780601f10610775576101008083540402835291602001916107a0565b820191906000526020600020905b81548152906001019060200180831161078357829003601f168201915b5050505050905085565b600660009054906101000a900473ffffffffffffffffffffffffffffffffffffffff1673ffffffffffffffffffffffffffffffffffffffff163373ffffffffffffffffffffffffffffffffffffffff1614610831576040517f28c3794a00000000000000000000000000000000000000000000000000000000815260040160405180910390fd5b806000801b81141561086f576040517f9dd854d300000000000000000000000000000000000000000000000000000000815260040160405180910390fd5b816012819055505050565b600a8060000154905081565b601060019054906101000a900460ff1681565b601360009054906101000a900460ff1681565b600d5481565b601060029054906101000a900473ffffffffffffffffffffffffffffffffffffffff1681565b600660009054906101000a900473ffffffffffffffffffffffffffffffffffffffff1673ffffffffffffffffffffffffffffffffffffffff163373ffffffffffffffffffffffffffffffffffffffff161461095f576040517f28c3794a00000000000000000000000000000000000000000000000000000000815260040160405180910390fd5b600660009054906101000a900473ffffffffffffffffffffffffffffffffffffffff1673ffffffffffffffffffffffffffffffffffffffff168173ffffffffffffffffffffffffffffffffffffffff161480610a045750600b60008273ffffffffffffffffffffffffffffffffffffffff1673ffffffffffffffffffffffffffffffffffffffff16815260200190815260200160002060009054906101000a900460ff165b15610a3b576040517f55388ab800000000000000000000000000000000000000000000000000000000815260040160405180910390fd5b6001600b60008373ffffffffffffffffffffffffffffffffffffffff1673ffffffffffffffffffffffffffffffffffffffff16815260200190815260200160002060006101000a81548160ff0219169083151502179055507f789795ef66b35ee49a942763cb5c20446bf48a9f78a4d090bd223d66cfc91f6381604051610ac29190611e5b565b60405180910390a150565b60086020528060005260406000206000915054906101000a900460ff1681565b600f5481565b33600760008273ffffffffffffffffffffffffffffffffffffffff1673ffffffffffffffffffffffffffffffffffffffff16815260200190815260200160002060009054906101000a900460ff1615610b78576040517f2ca641c000000000000000000000000000000000000000000000000000000000815260040160405180910390fd5b601060009054906101000a900460ff168015610b955750600d5442105b15610bcc576040517f60215f7f00000000000000000000000000000000000000000000000000000000815260040160405180910390fd5b601060009054906101000a900460ff168015610be95750600e5442115b15610c20576040517f5c8a183e00000000000000000000000000000000000000000000000000000000815260040160405180910390fd5b601060019054906101000a900460ff1615610c8557600f54610c42600a611951565b1415610c7a576040517f5288ecb600000000000000000000000000000000000000000000000000000000815260040160405180910390fd5b610c84600a61195f565b5b601060169054906101000a900460ff1615610d80576000601060029054906101000a900473ffffffffffffffffffffffffffffffffffffffff1673ffffffffffffffffffffffffffffffffffffffff166370a08231336040518263ffffffff1660e01b8152600401610cf79190611e5b565b60206040518083038186803b158015610d0f57600080fd5b505afa158015610d23573d6000803e3d6000fd5b505050506040513d601f19601f82011682018060405250810190610d479190611d3b565b1415610d7f576040517ff94812ee00000000000000000000000000000000000000000000000000000000815260040160405180910390fd5b5b601160149054906101000a900460ff1615610e7b576000601160009054906101000a900473ffffffffffffffffffffffffffffffffffffffff1673ffffffffffffffffffffffffffffffffffffffff166370a08231336040518263ffffffff1660e01b8152600401610df29190611e5b565b60206040518083038186803b158015610e0a57600080fd5b505afa158015610e1e573d6000803e3d6000fd5b505050506040513d601f19601f82011682018060405250810190610e429190611d3b565b1415610e7a576040517f776acd5b00000000000000000000000000000000000000000000000000000000815260040160405180910390fd5b5b6001600760003373ffffffffffffffffffffffffffffffffffffffff1673ffffffffffffffffffffffffffffffffffffffff16815260200190815260200160002060006101000a81548160ff0219169083151502179055507fac22f777fc7ba5fca089a3ed93da62a6843800a862591e2879ed58ec604ffd7d33604051610f029190611e5b565b60405180910390a150565b33600b60008273ffffffffffffffffffffffffffffffffffffffff1673ffffffffffffffffffffffffffffffffffffffff16815260200190815260200160002060009054906101000a900460ff161580610fb45750600660009054906101000a900473ffffffffffffffffffffffffffffffffffffffff1673ffffffffffffffffffffffffffffffffffffffff168173ffffffffffffffffffffffffffffffffffffffff16145b15610feb576040517f28c3794a00000000000000000000000000000000000000000000000000000000815260040160405180910390fd5b83600860008273ffffffffffffffffffffffffffffffffffffffff1673ffffffffffffffffffffffffffffffffffffffff16815260200190815260200160002060009054906101000a900460ff1615611070576040517f2164e0b900000000000000000000000000000000000000000000000000000000815260040160405180910390fd5b600960009054906101000a900460ff166110b6576040517f80c026e800000000000000000000000000000000000000000000000000000000815260040160405180910390fd5b600860008673ffffffffffffffffffffffffffffffffffffffff1673ffffffffffffffffffffffffffffffffffffffff16815260200190815260200160002060009054906101000a900460ff161561113a576040517f2164e0b900000000000000000000000000000000000000000000000000000000815260040160405180910390fd5b601360009054906101000a900460ff1615611200576000856040516020016111629190611e40565b6040516020818303038152906040528051906020012090506111c8858580806020026020016040519081016040528093929190818152602001838360200280828437600081840152601f19601f8201169050808301925050505050505060125483611975565b6111fe576040517f5b0aa2ba00000000000000000000000000000000000000000000000000000000815260040160405180910390fd5b505b6001600860008773ffffffffffffffffffffffffffffffffffffffff1673ffffffffffffffffffffffffffffffffffffffff16815260200190815260200160002060006101000a81548160ff0219169083151502179055505050505050565b601160149054906101000a900460ff1681565b600080846040516020016112869190611e40565b6040516020818303038152906040528051906020012090506112ec848480806020026020016040519081016040528093929190818152602001838360200280828437600081840152601f19601f8201169050808301925050505050505060125483611975565b156112fb576001915050611301565b60009150505b9392505050565b601160009054906101000a900473ffffffffffffffffffffffffffffffffffffffff1681565b601060169054906101000a900460ff1681565b7f000000000000000000000000000000000000000000000000000000000000000081565b600660009054906101000a900473ffffffffffffffffffffffffffffffffffffffff1673ffffffffffffffffffffffffffffffffffffffff163373ffffffffffffffffffffffffffffffffffffffff16146113ec576040517f28c3794a00000000000000000000000000000000000000000000000000000000815260040160405180910390fd5b600960009054906101000a900460ff1615611433576040517fb36b250500000000000000000000000000000000000000000000000000000000815260040160405180910390fd5b6001600960006101000a81548160ff021916908315150217905550565b600061145c600161198c565b90508015611480576001600560156101000a81548160ff0219169083151502179055505b87600073ffffffffffffffffffffffffffffffffffffffff16600660009054906101000a900473ffffffffffffffffffffffffffffffffffffffff1673ffffffffffffffffffffffffffffffffffffffff1614611509576040517f0dc149f000000000000000000000000000000000000000000000000000000000815260040160405180910390fd5b600086146115345785600f819055506001601060016101000a81548160ff0219169083151502179055505b600088146115665787600d8190555086600e819055506001601060006101000a81548160ff0219169083151502179055505b600073ffffffffffffffffffffffffffffffffffffffff168573ffffffffffffffffffffffffffffffffffffffff16146115f75784601060026101000a81548173ffffffffffffffffffffffffffffffffffffffff021916908373ffffffffffffffffffffffffffffffffffffffff1602179055506001601060166101000a81548160ff0219169083151502179055505b600073ffffffffffffffffffffffffffffffffffffffff168473ffffffffffffffffffffffffffffffffffffffff16146116885783601160006101000a81548173ffffffffffffffffffffffffffffffffffffffff021916908373ffffffffffffffffffffffffffffffffffffffff1602179055506001601160146101000a81548160ff0219169083151502179055505b6000801b83146116b557826012819055506001601360006101000a81548160ff0219169083151502179055505b88600660006101000a81548173ffffffffffffffffffffffffffffffffffffffff021916908373ffffffffffffffffffffffffffffffffffffffff160217905550508015611751576000600560156101000a81548160ff0219169083151502179055507f7f26b83ff96e1f2b6a682f133852f6798a09c465da95921460cefb384740249860016040516117489190611f4a565b60405180910390a15b5050505050505050565b600660009054906101000a900473ffffffffffffffffffffffffffffffffffffffff1673ffffffffffffffffffffffffffffffffffffffff163373ffffffffffffffffffffffffffffffffffffffff16146117e2576040517f28c3794a00000000000000000000000000000000000000000000000000000000815260040160405180910390fd5b600660009054906101000a900473ffffffffffffffffffffffffffffffffffffffff1673ffffffffffffffffffffffffffffffffffffffff168173ffffffffffffffffffffffffffffffffffffffff1614806118885750600b60008273ffffffffffffffffffffffffffffffffffffffff1673ffffffffffffffffffffffffffffffffffffffff16815260200190815260200160002060009054906101000a900460ff16155b156118bf576040517f3b2bec1c00000000000000000000000000000000000000000000000000000000815260040160405180910390fd5b6000600b60008373ffffffffffffffffffffffffffffffffffffffff1673ffffffffffffffffffffffffffffffffffffffff16815260200190815260200160002060006101000a81548160ff0219169083151502179055507f9aed77fa8e81537452cc742049e969e6feac80d04558d16f36936b840a2d6888816040516119469190611e5b565b60405180910390a150565b600081600001549050919050565b6001816000016000828254019250508190555050565b6000826119828584611a80565b1490509392505050565b6000600560159054906101000a900460ff1615611a045760018260ff161480156119bc57506119ba30611b1b565b155b6119fb576040517f08c379a00000000000000000000000000000000000000000000000000000000081526004016119f290611f65565b60405180910390fd5b60009050611a7b565b8160ff16600560149054906101000a900460ff1660ff1610611a5b576040517f08c379a0000000000000000000000000000000000000000000000000000000008152600401611a5290611f65565b60405180910390fd5b81600560146101000a81548160ff021916908360ff160217905550600190505b919050565b60008082905060005b8451811015611b10576000858281518110611acd577f4e487b7100000000000000000000000000000000000000000000000000000000600052603260045260246000fd5b60200260200101519050808311611aef57611ae88382611b3e565b9250611afc565b611af98184611b3e565b92505b508080611b08906120eb565b915050611a89565b508091505092915050565b6000808273ffffffffffffffffffffffffffffffffffffffff163b119050919050565b600082600052816020526040600020905092915050565b600081359050611b6481612223565b92915050565b60008083601f840112611b7c57600080fd5b8235905067ffffffffffffffff811115611b9557600080fd5b602083019150836020820283011115611bad57600080fd5b9250929050565b600081359050611bc38161223a565b92915050565b600081359050611bd881612251565b92915050565b600081519050611bed81612251565b92915050565b600060208284031215611c0557600080fd5b6000611c1384828501611b55565b91505092915050565b600080600060408486031215611c3157600080fd5b6000611c3f86828701611b55565b935050602084013567ffffffffffffffff811115611c5c57600080fd5b611c6886828701611b6a565b92509250509250925092565b600080600080600080600060e0888a031215611c8f57600080fd5b6000611c9d8a828b01611b55565b9750506020611cae8a828b01611bc9565b9650506040611cbf8a828b01611bc9565b9550506060611cd08a828b01611bc9565b9450506080611ce18a828b01611b55565b93505060a0611cf28a828b01611b55565b92505060c0611d038a828b01611bb4565b91505092959891949750929550565b600060208284031215611d2457600080fd5b6000611d3284828501611bb4565b91505092915050565b600060208284031215611d4d57600080fd5b6000611d5b84828501611bde565b91505092915050565b611d6d81611fcd565b82525050565b611d84611d7f82611fcd565b612134565b82525050565b611d9381611fdf565b82525050565b611da281611feb565b82525050565b6000611db382611fa0565b611dbd8185611fab565b9350611dcd818560208601612086565b611dd6816121b6565b840191505092915050565b611dea8161202c565b82525050565b611df981612050565b82525050565b611e0881612074565b82525050565b6000611e1b602e83611fbc565b9150611e26826121d4565b604082019050919050565b611e3a81612015565b82525050565b6000611e4c8284611d73565b60148201915081905092915050565b6000602082019050611e706000830184611d64565b92915050565b6000602082019050611e8b6000830184611d8a565b92915050565b6000602082019050611ea66000830184611d99565b92915050565b600060a0820190508181036000830152611ec68188611da8565b9050611ed56020830187611d64565b8181036040830152611ee78186611da8565b9050611ef66060830185611e31565b8181036080830152611f088184611da8565b90509695505050505050565b6000602082019050611f296000830184611de1565b92915050565b6000602082019050611f446000830184611df0565b92915050565b6000602082019050611f5f6000830184611dff565b92915050565b60006020820190508181036000830152611f7e81611e0e565b9050919050565b6000602082019050611f9a6000830184611e31565b92915050565b600081519050919050565b600082825260208201905092915050565b600082825260208201905092915050565b6000611fd882611ff5565b9050919050565b60008115159050919050565b6000819050919050565b600073ffffffffffffffffffffffffffffffffffffffff82169050919050565b6000819050919050565b600060ff82169050919050565b60006120378261203e565b9050919050565b600061204982611ff5565b9050919050565b600061205b82612062565b9050919050565b600061206d82611ff5565b9050919050565b600061207f8261201f565b9050919050565b60005b838110156120a4578082015181840152602081019050612089565b838111156120b3576000848401525b50505050565b600060028204905060018216806120d157607f821691505b602082108114156120e5576120e4612187565b5b50919050565b60006120f682612015565b91507fffffffffffffffffffffffffffffffffffffffffffffffffffffffffffffffff82141561212957612128612158565b5b600182019050919050565b600061213f82612146565b9050919050565b6000612151826121c7565b9050919050565b7f4e487b7100000000000000000000000000000000000000000000000000000000600052601160045260246000fd5b7f4e487b7100000000000000000000000000000000000000000000000000000000600052602260045260246000fd5b6000601f19601f8301169050919050565b60008160601b9050919050565b7f496e697469616c697a61626c653a20636f6e747261637420697320616c72656160008201527f647920696e697469616c697a6564000000000000000000000000000000000000602082015250565b61222c81611fcd565b811461223757600080fd5b50565b61224381611feb565b811461224e57600080fd5b50565b61225a81612015565b811461226557600080fd5b5056fea264697066735822122030b79d821c9ea7214232e460c6272dd7e76c8907d868afe55ed5881008d6d77a64736f6c63430008040033",
  "linkReferences": {},
  "deployedLinkReferences": {}
}