{
  "_format": "hh-sol-artifact-1",
  "contractName": "StakeRewardsFactory",
  "sourceName": "contracts/StakeRewardsFactory.sol",
  "abi": [
    {
      "inputs": [
        {
          "internalType": "address",
          "name": "_masterContract",
          "type": "address"
        },
        {
          "internalType": "address",
          "name": "_owner",
          "type": "address"
        }
      ],
      "stateMutability": "nonpayable",
      "type": "constructor"
    },
    {
      "inputs": [
        {
          "internalType": "address",
          "name": "_tenant",
          "type": "address"
        },
        {
          "internalType": "address",
          "name": "_stakingToken",
          "type": "address"
        },
        {
          "internalType": "address",
          "name": "_rewardsToken",
          "type": "address"
        },
        {
          "internalType": "uint256",
          "name": "_rewardRate",
          "type": "uint256"
        }
      ],
      "name": "createInstance",
      "outputs": [],
      "stateMutability": "nonpayable",
      "type": "function"
    },
    {
      "inputs": [
        {
          "internalType": "address",
          "name": "_owner",
          "type": "address"
        }
      ],
      "name": "getProxy",
      "outputs": [
        {
          "internalType": "contract StakeRewardsToken",
          "name": "",
          "type": "address"
        }
      ],
      "stateMutability": "view",
      "type": "function"
    },
    {
      "inputs": [],
      "name": "masterContract",
      "outputs": [
        {
          "internalType": "address",
          "name": "",
          "type": "address"
        }
      ],
      "stateMutability": "view",
      "type": "function"
    },
    {
      "inputs": [],
      "name": "owner",
      "outputs": [
        {
          "internalType": "address",
          "name": "",
          "type": "address"
        }
      ],
      "stateMutability": "view",
      "type": "function"
    },
    {
      "inputs": [
        {
          "internalType": "address",
          "name": "",
          "type": "address"
        }
      ],
      "name": "tenants",
      "outputs": [
        {
          "internalType": "contract StakeRewardsToken",
          "name": "stakeRewards",
          "type": "address"
        },
        {
          "internalType": "address",
          "name": "owner",
          "type": "address"
        }
      ],
      "stateMutability": "view",
      "type": "function"
    }
  ],
  "bytecode": "0x60c06040527305df0a749f733779aa2fa5706c7552b094a7e8b0600260006101000a81548173ffffffffffffffffffffffffffffffffffffffff021916908373ffffffffffffffffffffffffffffffffffffffff16021790555034801561006557600080fd5b50604051610b00380380610b0083398181016040528101906100879190610111565b8173ffffffffffffffffffffffffffffffffffffffff1660808173ffffffffffffffffffffffffffffffffffffffff1660601b815250508073ffffffffffffffffffffffffffffffffffffffff1660a08173ffffffffffffffffffffffffffffffffffffffff1660601b815250505050610196565b60008151905061010b8161017f565b92915050565b6000806040838503121561012457600080fd5b6000610132858286016100fc565b9250506020610143858286016100fc565b9150509250929050565b60006101588261015f565b9050919050565b600073ffffffffffffffffffffffffffffffffffffffff82169050919050565b6101888161014d565b811461019357600080fd5b50565b60805160601c60a05160601c6109386101c860003960006101170152600081816101a6015261032a01526109386000f3fe608060405234801561001057600080fd5b50600436106100575760003560e01c80638da5cb5b1461005c578063b7fba4d31461007a578063cd446e22146100aa578063d9ed9230146100c8578063fd9153a3146100e4575b600080fd5b610064610115565b60405161007191906106e1565b60405180910390f35b610094600480360381019061008f91906105e2565b610139565b6040516100a19190610741565b60405180910390f35b6100b26101a4565b6040516100bf91906106e1565b60405180910390f35b6100e260048036038101906100dd919061060b565b6101c8565b005b6100fe60048036038101906100f991906105e2565b6104ea565b60405161010c92919061075c565b60405180910390f35b7f000000000000000000000000000000000000000000000000000000000000000081565b60008060008373ffffffffffffffffffffffffffffffffffffffff1673ffffffffffffffffffffffffffffffffffffffff16815260200190815260200160002060000160009054906101000a900473ffffffffffffffffffffffffffffffffffffffff169050919050565b7f000000000000000000000000000000000000000000000000000000000000000081565b8360001515600160008373ffffffffffffffffffffffffffffffffffffffff1673ffffffffffffffffffffffffffffffffffffffff16815260200190815260200160002060009054906101000a900460ff1615151461025c576040517f08c379a000000000000000000000000000000000000000000000000000000000815260040161025390610785565b60405180910390fd5b848073ffffffffffffffffffffffffffffffffffffffff163373ffffffffffffffffffffffffffffffffffffffff1614806102e45750600260009054906101000a900473ffffffffffffffffffffffffffffffffffffffff1673ffffffffffffffffffffffffffffffffffffffff163373ffffffffffffffffffffffffffffffffffffffff16145b610323576040517f08c379a000000000000000000000000000000000000000000000000000000000815260040161031a906107a5565b60405180910390fd5b600061034e7f000000000000000000000000000000000000000000000000000000000000000061054e565b90508073ffffffffffffffffffffffffffffffffffffffff166346639dba888888886040518563ffffffff1660e01b815260040161038f94939291906106fc565b600060405180830381600087803b1580156103a957600080fd5b505af11580156103bd573d6000803e3d6000fd5b5050505060008060008973ffffffffffffffffffffffffffffffffffffffff1673ffffffffffffffffffffffffffffffffffffffff1681526020019081526020016000209050818160000160006101000a81548173ffffffffffffffffffffffffffffffffffffffff021916908373ffffffffffffffffffffffffffffffffffffffff160217905550878160010160006101000a81548173ffffffffffffffffffffffffffffffffffffffff021916908373ffffffffffffffffffffffffffffffffffffffff16021790555060018060008a73ffffffffffffffffffffffffffffffffffffffff1673ffffffffffffffffffffffffffffffffffffffff16815260200190815260200160002060006101000a81548160ff0219169083151502179055505050505050505050565b60006020528060005260406000206000915090508060000160009054906101000a900473ffffffffffffffffffffffffffffffffffffffff16908060010160009054906101000a900473ffffffffffffffffffffffffffffffffffffffff16905082565b6000808260601b90506040517f3d602d80600a3d3981f3363d3d373d3d3d363d7300000000000000000000000081528160148201527f5af43d82803e903d91602b57fd5bf3000000000000000000000000000000000060288201526037816000f092505050919050565b6000813590506105c7816108d4565b92915050565b6000813590506105dc816108eb565b92915050565b6000602082840312156105f457600080fd5b6000610602848285016105b8565b91505092915050565b6000806000806080858703121561062157600080fd5b600061062f878288016105b8565b9450506020610640878288016105b8565b9350506040610651878288016105b8565b9250506060610662878288016105cd565b91505092959194509250565b610677816107d6565b82525050565b61068681610812565b82525050565b60006106996022836107c5565b91506106a482610836565b604082019050919050565b60006106bc6030836107c5565b91506106c782610885565b604082019050919050565b6106db81610808565b82525050565b60006020820190506106f6600083018461066e565b92915050565b6000608082019050610711600083018761066e565b61071e602083018661066e565b61072b604083018561066e565b61073860608301846106d2565b95945050505050565b6000602082019050610756600083018461067d565b92915050565b6000604082019050610771600083018561067d565b61077e602083018461066e565b9392505050565b6000602082019050818103600083015261079e8161068c565b9050919050565b600060208201905081810360008301526107be816106af565b9050919050565b600082825260208201905092915050565b60006107e1826107e8565b9050919050565b600073ffffffffffffffffffffffffffffffffffffffff82169050919050565b6000819050919050565b600061081d82610824565b9050919050565b600061082f826107e8565b9050919050565b7f5468652074656e616e7420616c72656164792068617320616e20696e7374616e60008201527f6365000000000000000000000000000000000000000000000000000000000000602082015250565b7f506c656173652075736520612076616c6964206164647265737320746f20637260008201527f6561746520616e20696e7374616e636500000000000000000000000000000000602082015250565b6108dd816107d6565b81146108e857600080fd5b50565b6108f481610808565b81146108ff57600080fd5b5056fea26469706673582212209dcff8c21988ca1bdb7cacf3e116e804536950d1d7d58500ac84b4b0eb22515564736f6c63430008040033",
  "linkReferences": {},
  "deployedLinkReferences": {}
}