{
  "_format": "hh-sol-artifact-1",
  "contractName": "Token",
  "sourceName": "contracts/Token.sol",
  "abi": [
    {
      "inputs": [],
      "stateMutability": "nonpayable",
      "type": "constructor"
    },
    {
      "anonymous": false,
      "inputs": [
        {
          "indexed": true,
          "internalType": "address",
          "name": "owner",
          "type": "address"
        },
        {
          "indexed": true,
          "internalType": "address",
          "name": "spender",
          "type": "address"
        },
        {
          "indexed": false,
          "internalType": "uint256",
          "name": "value",
          "type": "uint256"
        }
      ],
      "name": "Approval",
      "type": "event"
    },
    {
      "anonymous": false,
      "inputs": [
        {
          "indexed": true,
          "internalType": "address",
          "name": "from",
          "type": "address"
        },
        {
          "indexed": true,
          "internalType": "address",
          "name": "to",
          "type": "address"
        },
        {
          "indexed": false,
          "internalType": "uint256",
          "name": "value",
          "type": "uint256"
        }
      ],
      "name": "Transfer",
      "type": "event"
    },
    {
      "inputs": [],
      "name": "UNIT_MULTIPLIER",
      "outputs": [
        {
          "internalType": "uint256",
          "name": "",
          "type": "uint256"
        }
      ],
      "stateMutability": "view",
      "type": "function"
    },
    {
      "inputs": [
        {
          "internalType": "address",
          "name": "owner",
          "type": "address"
        },
        {
          "internalType": "address",
          "name": "spender",
          "type": "address"
        }
      ],
      "name": "allowance",
      "outputs": [
        {
          "internalType": "uint256",
          "name": "",
          "type": "uint256"
        }
      ],
      "stateMutability": "view",
      "type": "function"
    },
    {
      "inputs": [
        {
          "internalType": "address",
          "name": "spender",
          "type": "address"
        },
        {
          "internalType": "uint256",
          "name": "value",
          "type": "uint256"
        }
      ],
      "name": "approve",
      "outputs": [
        {
          "internalType": "bool",
          "name": "",
          "type": "bool"
        }
      ],
      "stateMutability": "nonpayable",
      "type": "function"
    },
    {
      "inputs": [],
      "name": "balance",
      "outputs": [
        {
          "internalType": "uint256",
          "name": "",
          "type": "uint256"
        }
      ],
      "stateMutability": "view",
      "type": "function"
    },
    {
      "inputs": [
        {
          "internalType": "address",
          "name": "owner",
          "type": "address"
        }
      ],
      "name": "balanceOf",
      "outputs": [
        {
          "internalType": "uint256",
          "name": "",
          "type": "uint256"
        }
      ],
      "stateMutability": "view",
      "type": "function"
    },
    {
      "inputs": [],
      "name": "decimals",
      "outputs": [
        {
          "internalType": "uint256",
          "name": "",
          "type": "uint256"
        }
      ],
      "stateMutability": "view",
      "type": "function"
    },
    {
      "inputs": [],
      "name": "getContractOwner",
      "outputs": [
        {
          "internalType": "address",
          "name": "",
          "type": "address"
        }
      ],
      "stateMutability": "view",
      "type": "function"
    },
    {
      "inputs": [],
      "name": "getCounter",
      "outputs": [
        {
          "internalType": "uint256",
          "name": "",
          "type": "uint256"
        }
      ],
      "stateMutability": "view",
      "type": "function"
    },
    {
      "inputs": [
        {
          "internalType": "uint256",
          "name": "increment",
          "type": "uint256"
        }
      ],
      "name": "incrementCounter",
      "outputs": [],
      "stateMutability": "nonpayable",
      "type": "function"
    },
    {
      "inputs": [
        {
          "internalType": "string",
          "name": "_name",
          "type": "string"
        },
        {
          "internalType": "string",
          "name": "_symbol",
          "type": "string"
        },
        {
          "internalType": "uint256",
          "name": "_decimal",
          "type": "uint256"
        },
        {
          "internalType": "address",
          "name": "_tenant",
          "type": "address"
        }
      ],
      "name": "init",
      "outputs": [],
      "stateMutability": "nonpayable",
      "type": "function"
    },
    {
      "inputs": [],
      "name": "initialSupply",
      "outputs": [
        {
          "internalType": "uint256",
          "name": "",
          "type": "uint256"
        }
      ],
      "stateMutability": "view",
      "type": "function"
    },
    {
      "inputs": [],
      "name": "metadata",
      "outputs": [
        {
          "internalType": "bytes",
          "name": "title",
          "type": "bytes"
        },
        {
          "components": [
            {
              "internalType": "address",
              "name": "authorAddress",
              "type": "address"
            },
            {
              "internalType": "string",
              "name": "externalLink",
              "type": "string"
            }
          ],
          "internalType": "struct IHyperverseModule.Author",
          "name": "author",
          "type": "tuple"
        },
        {
          "internalType": "bytes",
          "name": "version",
          "type": "bytes"
        },
        {
          "internalType": "uint64",
          "name": "publishedAt",
          "type": "uint64"
        },
        {
          "internalType": "bytes",
          "name": "externalLink",
          "type": "bytes"
        }
      ],
      "stateMutability": "view",
      "type": "function"
    },
    {
      "inputs": [],
      "name": "name",
      "outputs": [
        {
          "internalType": "string",
          "name": "",
          "type": "string"
        }
      ],
      "stateMutability": "view",
      "type": "function"
    },
    {
      "inputs": [],
      "name": "symbol",
      "outputs": [
        {
          "internalType": "string",
          "name": "",
          "type": "string"
        }
      ],
      "stateMutability": "view",
      "type": "function"
    },
    {
      "inputs": [],
      "name": "total",
      "outputs": [
        {
          "internalType": "uint256",
          "name": "",
          "type": "uint256"
        }
      ],
      "stateMutability": "view",
      "type": "function"
    },
    {
      "inputs": [],
      "name": "totalSupply",
      "outputs": [
        {
          "internalType": "uint256",
          "name": "",
          "type": "uint256"
        }
      ],
      "stateMutability": "view",
      "type": "function"
    },
    {
      "inputs": [
        {
          "internalType": "address",
          "name": "to",
          "type": "address"
        },
        {
          "internalType": "uint256",
          "name": "value",
          "type": "uint256"
        }
      ],
      "name": "transfer",
      "outputs": [
        {
          "internalType": "bool",
          "name": "",
          "type": "bool"
        }
      ],
      "stateMutability": "nonpayable",
      "type": "function"
    },
    {
      "inputs": [
        {
          "internalType": "address",
          "name": "from",
          "type": "address"
        },
        {
          "internalType": "address",
          "name": "to",
          "type": "address"
        },
        {
          "internalType": "uint256",
          "name": "value",
          "type": "uint256"
        }
      ],
      "name": "transferFrom",
      "outputs": [
        {
          "internalType": "bool",
          "name": "",
          "type": "bool"
        }
      ],
      "stateMutability": "nonpayable",
      "type": "function"
    }
  ],
  "bytecode": "0x60806040523480156200001157600080fd5b506040518060a001604052806040518060400160405280600581526020017f546f6b656e000000000000000000000000000000000000000000000000000000815250815260200160405180604001604052803373ffffffffffffffffffffffffffffffffffffffff1681526020016040518060400160405280601881526020017f68747470733a2f2f65787465726e616c6c696e6b2e6e6574000000000000000081525081525081526020016040518060400160405280600581526020017f302e302e31000000000000000000000000000000000000000000000000000000815250815260200165032a361e860667ffffffffffffffff1681526020016040518060400160405280601881526020017f68747470733a2f2f65787465726e616c4c696e6b2e6e65740000000000000000815250815250600080820151816000019080519060200190620001669291906200028f565b5060208201518160010160008201518160000160006101000a81548173ffffffffffffffffffffffffffffffffffffffff021916908373ffffffffffffffffffffffffffffffffffffffff1602179055506020820151816001019080519060200190620001d592919062000320565b5050506040820151816003019080519060200190620001f69291906200028f565b5060608201518160040160006101000a81548167ffffffffffffffff021916908367ffffffffffffffff1602179055506080820151816005019080519060200190620002449291906200028f565b5090505033600760006101000a81548173ffffffffffffffffffffffffffffffffffffffff021916908373ffffffffffffffffffffffffffffffffffffffff16021790555062000435565b8280546200029d90620003d0565b90600052602060002090601f016020900481019282620002c157600085556200030d565b82601f10620002dc57805160ff19168380011785556200030d565b828001600101855582156200030d579182015b828111156200030c578251825591602001919060010190620002ef565b5b5090506200031c9190620003b1565b5090565b8280546200032e90620003d0565b90600052602060002090601f0160209004810192826200035257600085556200039e565b82601f106200036d57805160ff19168380011785556200039e565b828001600101855582156200039e579182015b828111156200039d57825182559160200191906001019062000380565b5b509050620003ad9190620003b1565b5090565b5b80821115620003cc576000816000905550600101620003b2565b5090565b60006002820490506001821680620003e957607f821691505b602082108114156200040057620003ff62000406565b5b50919050565b7f4e487b7100000000000000000000000000000000000000000000000000000000600052602260045260246000fd5b61215280620004456000396000f3fe608060405234801561001057600080fd5b50600436106101165760003560e01c8063685d0a96116100a257806395d89b411161007157806395d89b41146102d7578063a9059cbb146102f5578063b69ef8a814610325578063dd62ed3e14610343578063fc540cd31461037357610116565b8063685d0a96146102515780636abbb3b41461026d57806370a08231146102895780638ada066e146102b957610116565b80632ddbd13a116100e95780632ddbd13a146101b7578063313ce567146101d5578063378dc3dc146101f3578063392f37e914610211578063442890d51461023357610116565b806306fdde031461011b578063095ea7b31461013957806318160ddd1461016957806323b872dd14610187575b600080fd5b610123610391565b6040516101309190611940565b60405180910390f35b610153600480360381019061014e919061157b565b61041f565b60405161016091906118b6565b60405180910390f35b610171610511565b60405161017e9190611a42565b60405180910390f35b6101a1600480360381019061019c919061152c565b61051b565b6040516101ae91906118b6565b60405180910390f35b6101bf610a1e565b6040516101cc9190611a42565b60405180910390f35b6101dd610a24565b6040516101ea9190611a42565b60405180910390f35b6101fb610a2a565b6040516102089190611a42565b60405180910390f35b610219610a30565b60405161022a9594939291906118d1565b60405180910390f35b61023b610cf2565b604051610248919061189b565b60405180910390f35b61026b600480360381019061026691906115b7565b610d1c565b005b6102876004803603810190610282919061164a565b610e41565b005b6102a3600480360381019061029e91906114c7565b610eae565b6040516102b09190611a42565b60405180910390f35b6102c1610ef7565b6040516102ce9190611a42565b60405180910390f35b6102df610f01565b6040516102ec9190611940565b60405180910390f35b61030f600480360381019061030a919061157b565b610f8f565b60405161031c91906118b6565b60405180910390f35b61032d6111e7565b60405161033a9190611a42565b60405180910390f35b61035d600480360381019061035891906114f0565b6111f7565b60405161036a9190611a42565b60405180910390f35b61037b61127e565b6040516103889190611a42565b60405180910390f35b6009805461039e90611e20565b80601f01602080910402602001604051908101604052809291908181526020018280546103ca90611e20565b80156104175780601f106103ec57610100808354040283529160200191610417565b820191906000526020600020905b8154815290600101906020018083116103fa57829003601f168201915b505050505081565b600081600d60003373ffffffffffffffffffffffffffffffffffffffff1673ffffffffffffffffffffffffffffffffffffffff16815260200190815260200160002060008573ffffffffffffffffffffffffffffffffffffffff1673ffffffffffffffffffffffffffffffffffffffff168152602001908152602001600020819055508273ffffffffffffffffffffffffffffffffffffffff163373ffffffffffffffffffffffffffffffffffffffff167f8c5be1e5ebec7d5bd14f71427d1e84f3dd0314c0f7b2291e5b200ac8c7c3b925846040516104ff9190611a42565b60405180910390a36001905092915050565b6000600e54905090565b60008073ffffffffffffffffffffffffffffffffffffffff168473ffffffffffffffffffffffffffffffffffffffff16141561058c576040517f08c379a000000000000000000000000000000000000000000000000000000000815260040161058390611982565b60405180910390fd5b600d60008573ffffffffffffffffffffffffffffffffffffffff1673ffffffffffffffffffffffffffffffffffffffff16815260200190815260200160002060003373ffffffffffffffffffffffffffffffffffffffff1673ffffffffffffffffffffffffffffffffffffffff1681526020019081526020016000205482111561064b576040517f08c379a0000000000000000000000000000000000000000000000000000000008152600401610642906119c2565b60405180910390fd5b61065484610eae565b821115610696576040517f08c379a000000000000000000000000000000000000000000000000000000000815260040161068d90611962565b60405180910390fd5b600073ffffffffffffffffffffffffffffffffffffffff168373ffffffffffffffffffffffffffffffffffffffff161415610706576040517f08c379a00000000000000000000000000000000000000000000000000000000081526004016106fd90611a22565b60405180910390fd5b8273ffffffffffffffffffffffffffffffffffffffff168473ffffffffffffffffffffffffffffffffffffffff161415610775576040517f08c379a000000000000000000000000000000000000000000000000000000000815260040161076c906119e2565b60405180910390fd5b6107c782600c60008773ffffffffffffffffffffffffffffffffffffffff1673ffffffffffffffffffffffffffffffffffffffff1681526020019081526020016000205461128490919063ffffffff16565b600c60008673ffffffffffffffffffffffffffffffffffffffff1673ffffffffffffffffffffffffffffffffffffffff1681526020019081526020016000208190555061085c82600c60008673ffffffffffffffffffffffffffffffffffffffff1673ffffffffffffffffffffffffffffffffffffffff168152602001908152602001600020546112d190919063ffffffff16565b600c60008573ffffffffffffffffffffffffffffffffffffffff1673ffffffffffffffffffffffffffffffffffffffff1681526020019081526020016000208190555061092e82600d60008773ffffffffffffffffffffffffffffffffffffffff1673ffffffffffffffffffffffffffffffffffffffff16815260200190815260200160002060003373ffffffffffffffffffffffffffffffffffffffff1673ffffffffffffffffffffffffffffffffffffffff1681526020019081526020016000205461128490919063ffffffff16565b600d60008673ffffffffffffffffffffffffffffffffffffffff1673ffffffffffffffffffffffffffffffffffffffff16815260200190815260200160002060003373ffffffffffffffffffffffffffffffffffffffff1673ffffffffffffffffffffffffffffffffffffffff168152602001908152602001600020819055508273ffffffffffffffffffffffffffffffffffffffff168473ffffffffffffffffffffffffffffffffffffffff167fddf252ad1be2c89b69c2b068fc378daa952ba7f163c4a11628f55a4df523b3ef84604051610a0b9190611a42565b60405180910390a3600190509392505050565b600e5481565b600b5481565b600f5481565b6000806000018054610a4190611e20565b80601f0160208091040260200160405190810160405280929190818152602001828054610a6d90611e20565b8015610aba5780601f10610a8f57610100808354040283529160200191610aba565b820191906000526020600020905b815481529060010190602001808311610a9d57829003601f168201915b505050505090806001016040518060400160405290816000820160009054906101000a900473ffffffffffffffffffffffffffffffffffffffff1673ffffffffffffffffffffffffffffffffffffffff1673ffffffffffffffffffffffffffffffffffffffff168152602001600182018054610b3590611e20565b80601f0160208091040260200160405190810160405280929190818152602001828054610b6190611e20565b8015610bae5780601f10610b8357610100808354040283529160200191610bae565b820191906000526020600020905b815481529060010190602001808311610b9157829003601f168201915b50505050508152505090806003018054610bc790611e20565b80601f0160208091040260200160405190810160405280929190818152602001828054610bf390611e20565b8015610c405780601f10610c1557610100808354040283529160200191610c40565b820191906000526020600020905b815481529060010190602001808311610c2357829003601f168201915b5050505050908060040160009054906101000a900467ffffffffffffffff1690806005018054610c6f90611e20565b80601f0160208091040260200160405190810160405280929190818152602001828054610c9b90611e20565b8015610ce85780601f10610cbd57610100808354040283529160200191610ce8565b820191906000526020600020905b815481529060010190602001808311610ccb57829003601f168201915b5050505050905085565b6000600760009054906101000a900473ffffffffffffffffffffffffffffffffffffffff16905090565b8360099080519060200190610d32929190611392565b5082600a9080519060200190610d49929190611392565b5081600b81905550600b54600a610d609190611bd6565b60108190555060006103e89050610d826010548261132390919063ffffffff16565b600e81905550600e54600f8190555081600860006101000a81548173ffffffffffffffffffffffffffffffffffffffff021916908373ffffffffffffffffffffffffffffffffffffffff160217905550600e54600c6000600860009054906101000a900473ffffffffffffffffffffffffffffffffffffffff1673ffffffffffffffffffffffffffffffffffffffff1673ffffffffffffffffffffffffffffffffffffffff168152602001908152602001600020819055505050505050565b600081118015610e515750600a81105b610e90576040517f08c379a0000000000000000000000000000000000000000000000000000000008152600401610e8790611a02565b60405180910390fd5b610ea5816011546112d190919063ffffffff16565b60118190555050565b6000600c60008373ffffffffffffffffffffffffffffffffffffffff1673ffffffffffffffffffffffffffffffffffffffff168152602001908152602001600020549050919050565b6000601154905090565b600a8054610f0e90611e20565b80601f0160208091040260200160405190810160405280929190818152602001828054610f3a90611e20565b8015610f875780601f10610f5c57610100808354040283529160200191610f87565b820191906000526020600020905b815481529060010190602001808311610f6a57829003601f168201915b505050505081565b60008073ffffffffffffffffffffffffffffffffffffffff168373ffffffffffffffffffffffffffffffffffffffff161415610fca57600080fd5b3373ffffffffffffffffffffffffffffffffffffffff168373ffffffffffffffffffffffffffffffffffffffff16141561100357600080fd5b61100c33610eae565b82111561104e576040517f08c379a0000000000000000000000000000000000000000000000000000000008152600401611045906119a2565b60405180910390fd5b6110a082600c60003373ffffffffffffffffffffffffffffffffffffffff1673ffffffffffffffffffffffffffffffffffffffff1681526020019081526020016000205461128490919063ffffffff16565b600c60003373ffffffffffffffffffffffffffffffffffffffff1673ffffffffffffffffffffffffffffffffffffffff1681526020019081526020016000208190555061113582600c60008673ffffffffffffffffffffffffffffffffffffffff1673ffffffffffffffffffffffffffffffffffffffff168152602001908152602001600020546112d190919063ffffffff16565b600c60008573ffffffffffffffffffffffffffffffffffffffff1673ffffffffffffffffffffffffffffffffffffffff168152602001908152602001600020819055508273ffffffffffffffffffffffffffffffffffffffff163373ffffffffffffffffffffffffffffffffffffffff167fddf252ad1be2c89b69c2b068fc378daa952ba7f163c4a11628f55a4df523b3ef846040516111d59190611a42565b60405180910390a36001905092915050565b60006111f233610eae565b905090565b6000600d60008473ffffffffffffffffffffffffffffffffffffffff1673ffffffffffffffffffffffffffffffffffffffff16815260200190815260200160002060008373ffffffffffffffffffffffffffffffffffffffff1673ffffffffffffffffffffffffffffffffffffffff16815260200190815260200160002054905092915050565b60105481565b6000828211156112bd577f4e487b7100000000000000000000000000000000000000000000000000000000600052600160045260246000fd5b81836112c99190611d4e565b905092915050565b60008082846112e09190611afc565b905083811015611319577f4e487b7100000000000000000000000000000000000000000000000000000000600052600160045260246000fd5b8091505092915050565b600080831415611336576000905061138c565b600082846113449190611cf4565b90508284826113539190611b52565b14611387577f4e487b7100000000000000000000000000000000000000000000000000000000600052600160045260246000fd5b809150505b92915050565b82805461139e90611e20565b90600052602060002090601f0160209004810192826113c05760008555611407565b82601f106113d957805160ff1916838001178555611407565b82800160010185558215611407579182015b828111156114065782518255916020019190600101906113eb565b5b5090506114149190611418565b5090565b5b80821115611431576000816000905550600101611419565b5090565b600061144861144384611a82565b611a5d565b90508281526020810184848401111561146057600080fd5b61146b848285611dde565b509392505050565b600081359050611482816120ee565b92915050565b600082601f83011261149957600080fd5b81356114a9848260208601611435565b91505092915050565b6000813590506114c181612105565b92915050565b6000602082840312156114d957600080fd5b60006114e784828501611473565b91505092915050565b6000806040838503121561150357600080fd5b600061151185828601611473565b925050602061152285828601611473565b9150509250929050565b60008060006060848603121561154157600080fd5b600061154f86828701611473565b935050602061156086828701611473565b9250506040611571868287016114b2565b9150509250925092565b6000806040838503121561158e57600080fd5b600061159c85828601611473565b92505060206115ad858286016114b2565b9150509250929050565b600080600080608085870312156115cd57600080fd5b600085013567ffffffffffffffff8111156115e757600080fd5b6115f387828801611488565b945050602085013567ffffffffffffffff81111561161057600080fd5b61161c87828801611488565b935050604061162d878288016114b2565b925050606061163e87828801611473565b91505092959194509250565b60006020828403121561165c57600080fd5b600061166a848285016114b2565b91505092915050565b61167c81611d82565b82525050565b61168b81611d82565b82525050565b61169a81611d94565b82525050565b60006116ab82611ab3565b6116b58185611ac9565b93506116c5818560208601611ded565b6116ce81611f3f565b840191505092915050565b60006116e482611abe565b6116ee8185611ada565b93506116fe818560208601611ded565b61170781611f3f565b840191505092915050565b600061171d82611abe565b6117278185611aeb565b9350611737818560208601611ded565b61174081611f3f565b840191505092915050565b6000611758601f83611aeb565b915061176382611f5d565b602082019050919050565b600061177b602483611aeb565b915061178682611f86565b604082019050919050565b600061179e601283611aeb565b91506117a982611fd5565b602082019050919050565b60006117c1602783611aeb565b91506117cc82611ffe565b604082019050919050565b60006117e4601a83611aeb565b91506117ef8261204d565b602082019050919050565b6000611807601783611aeb565b915061181282612076565b602082019050919050565b600061182a602283611aeb565b91506118358261209f565b604082019050919050565b60006040830160008301516118586000860182611673565b506020830151848203602086015261187082826116d9565b9150508091505092915050565b61188681611dc0565b82525050565b61189581611dca565b82525050565b60006020820190506118b06000830184611682565b92915050565b60006020820190506118cb6000830184611691565b92915050565b600060a08201905081810360008301526118eb81886116a0565b905081810360208301526118ff8187611840565b9050818103604083015261191381866116a0565b9050611922606083018561188c565b818103608083015261193481846116a0565b90509695505050505050565b6000602082019050818103600083015261195a8184611712565b905092915050565b6000602082019050818103600083015261197b8161174b565b9050919050565b6000602082019050818103600083015261199b8161176e565b9050919050565b600060208201905081810360008301526119bb81611791565b9050919050565b600060208201905081810360008301526119db816117b4565b9050919050565b600060208201905081810360008301526119fb816117d7565b9050919050565b60006020820190508181036000830152611a1b816117fa565b9050919050565b60006020820190508181036000830152611a3b8161181d565b9050919050565b6000602082019050611a57600083018461187d565b92915050565b6000611a67611a78565b9050611a738282611e52565b919050565b6000604051905090565b600067ffffffffffffffff821115611a9d57611a9c611f10565b5b611aa682611f3f565b9050602081019050919050565b600081519050919050565b600081519050919050565b600082825260208201905092915050565b600082825260208201905092915050565b600082825260208201905092915050565b6000611b0782611dc0565b9150611b1283611dc0565b9250827fffffffffffffffffffffffffffffffffffffffffffffffffffffffffffffffff03821115611b4757611b46611e83565b5b828201905092915050565b6000611b5d82611dc0565b9150611b6883611dc0565b925082611b7857611b77611eb2565b5b828204905092915050565b6000808291508390505b6001851115611bcd57808604811115611ba957611ba8611e83565b5b6001851615611bb85780820291505b8081029050611bc685611f50565b9450611b8d565b94509492505050565b6000611be182611dc0565b9150611bec83611dc0565b9250611c197fffffffffffffffffffffffffffffffffffffffffffffffffffffffffffffffff8484611c21565b905092915050565b600082611c315760019050611ced565b81611c3f5760009050611ced565b8160018114611c555760028114611c5f57611c8e565b6001915050611ced565b60ff841115611c7157611c70611e83565b5b8360020a915084821115611c8857611c87611e83565b5b50611ced565b5060208310610133831016604e8410600b8410161715611cc35782820a905083811115611cbe57611cbd611e83565b5b611ced565b611cd08484846001611b83565b92509050818404811115611ce757611ce6611e83565b5b81810290505b9392505050565b6000611cff82611dc0565b9150611d0a83611dc0565b9250817fffffffffffffffffffffffffffffffffffffffffffffffffffffffffffffffff0483118215151615611d4357611d42611e83565b5b828202905092915050565b6000611d5982611dc0565b9150611d6483611dc0565b925082821015611d7757611d76611e83565b5b828203905092915050565b6000611d8d82611da0565b9050919050565b60008115159050919050565b600073ffffffffffffffffffffffffffffffffffffffff82169050919050565b6000819050919050565b600067ffffffffffffffff82169050919050565b82818337600083830152505050565b60005b83811015611e0b578082015181840152602081019050611df0565b83811115611e1a576000848401525b50505050565b60006002820490506001821680611e3857607f821691505b60208210811415611e4c57611e4b611ee1565b5b50919050565b611e5b82611f3f565b810181811067ffffffffffffffff82111715611e7a57611e79611f10565b5b80604052505050565b7f4e487b7100000000000000000000000000000000000000000000000000000000600052601160045260246000fd5b7f4e487b7100000000000000000000000000000000000000000000000000000000600052601260045260246000fd5b7f4e487b7100000000000000000000000000000000000000000000000000000000600052602260045260246000fd5b7f4e487b7100000000000000000000000000000000000000000000000000000000600052604160045260246000fd5b6000601f19601f8301169050919050565b60008160011c9050919050565b7f4e6f7420656e6f7567682062616c616e636520666f72207472616e7366657200600082015250565b7f596f752063616e27742073656e642066726f6d20746865206e756c6c2061646460008201527f7265737300000000000000000000000000000000000000000000000000000000602082015250565b7f4e6f7420656e6f7567682062616c616e63650000000000000000000000000000600082015250565b7f4e6f7420656e6f75676820616c6c6f7765642062616c616e636520666f72207460008201527f72616e7366657200000000000000000000000000000000000000000000000000602082015250565b7f596f752063616e27742073656e6420746f20796f757273656c66000000000000600082015250565b7f496e76616c696420696e6372656d656e742076616c7565000000000000000000600082015250565b7f596f752063616e27742073656e6420746f20746865206e756c6c20616464726560008201527f7373000000000000000000000000000000000000000000000000000000000000602082015250565b6120f781611d82565b811461210257600080fd5b50565b61210e81611dc0565b811461211957600080fd5b5056fea2646970667358221220ec941fb5aad330997653717a8c2675635aee065e02ac6af7debd2719e254c06e64736f6c63430008040033",
  "linkReferences": {},
  "deployedLinkReferences": {}
}