{
  "_format": "hh-sol-artifact-1",
  "contractName": "Token",
  "sourceName": "contracts/Token.sol",
  "abi": [
    {
      "inputs": [
        {
          "internalType": "address",
          "name": "_owner",
          "type": "address"
        }
      ],
      "stateMutability": "nonpayable",
      "type": "constructor"
    },
    {
      "anonymous": false,
      "inputs": [
        {
          "indexed": true,
          "internalType": "address",
          "name": "owner",
          "type": "address"
        },
        {
          "indexed": true,
          "internalType": "address",
          "name": "spender",
          "type": "address"
        },
        {
          "indexed": false,
          "internalType": "uint256",
          "name": "value",
          "type": "uint256"
        }
      ],
      "name": "Approval",
      "type": "event"
    },
    {
      "anonymous": false,
      "inputs": [
        {
          "indexed": true,
          "internalType": "address",
          "name": "from",
          "type": "address"
        },
        {
          "indexed": true,
          "internalType": "address",
          "name": "to",
          "type": "address"
        },
        {
          "indexed": false,
          "internalType": "uint256",
          "name": "value",
          "type": "uint256"
        }
      ],
      "name": "Transfer",
      "type": "event"
    },
    {
      "inputs": [],
      "name": "UNIT_MULTIPLIER",
      "outputs": [
        {
          "internalType": "uint256",
          "name": "",
          "type": "uint256"
        }
      ],
      "stateMutability": "view",
      "type": "function"
    },
    {
      "inputs": [
        {
          "internalType": "address",
          "name": "_owner",
          "type": "address"
        },
        {
          "internalType": "address",
          "name": "_spender",
          "type": "address"
        }
      ],
      "name": "allowance",
      "outputs": [
        {
          "internalType": "uint256",
          "name": "",
          "type": "uint256"
        }
      ],
      "stateMutability": "view",
      "type": "function"
    },
    {
      "inputs": [
        {
          "internalType": "address",
          "name": "_spender",
          "type": "address"
        },
        {
          "internalType": "uint256",
          "name": "_value",
          "type": "uint256"
        }
      ],
      "name": "approve",
      "outputs": [
        {
          "internalType": "bool",
          "name": "",
          "type": "bool"
        }
      ],
      "stateMutability": "nonpayable",
      "type": "function"
    },
    {
      "inputs": [],
      "name": "balance",
      "outputs": [
        {
          "internalType": "uint256",
          "name": "",
          "type": "uint256"
        }
      ],
      "stateMutability": "view",
      "type": "function"
    },
    {
      "inputs": [
        {
          "internalType": "address",
          "name": "_owner",
          "type": "address"
        }
      ],
      "name": "balanceOf",
      "outputs": [
        {
          "internalType": "uint256",
          "name": "",
          "type": "uint256"
        }
      ],
      "stateMutability": "view",
      "type": "function"
    },
    {
      "inputs": [
        {
          "internalType": "uint256",
          "name": "_amount",
          "type": "uint256"
        }
      ],
      "name": "burn",
      "outputs": [],
      "stateMutability": "nonpayable",
      "type": "function"
    },
    {
      "inputs": [],
      "name": "contractOwner",
      "outputs": [
        {
          "internalType": "address",
          "name": "",
          "type": "address"
        }
      ],
      "stateMutability": "view",
      "type": "function"
    },
    {
      "inputs": [],
      "name": "decimals",
      "outputs": [
        {
          "internalType": "uint256",
          "name": "",
          "type": "uint256"
        }
      ],
      "stateMutability": "view",
      "type": "function"
    },
    {
      "inputs": [
        {
          "internalType": "string",
          "name": "_name",
          "type": "string"
        },
        {
          "internalType": "string",
          "name": "_symbol",
          "type": "string"
        },
        {
          "internalType": "uint256",
          "name": "_decimal",
          "type": "uint256"
        },
        {
          "internalType": "address",
          "name": "_tenant",
          "type": "address"
        }
      ],
      "name": "init",
      "outputs": [],
      "stateMutability": "nonpayable",
      "type": "function"
    },
    {
      "inputs": [],
      "name": "initialSupply",
      "outputs": [
        {
          "internalType": "uint256",
          "name": "",
          "type": "uint256"
        }
      ],
      "stateMutability": "view",
      "type": "function"
    },
    {
      "inputs": [],
      "name": "metadata",
      "outputs": [
        {
          "internalType": "bytes",
          "name": "title",
          "type": "bytes"
        },
        {
          "components": [
            {
              "internalType": "address",
              "name": "authorAddress",
              "type": "address"
            },
            {
              "internalType": "string",
              "name": "externalLink",
              "type": "string"
            }
          ],
          "internalType": "struct IHyperverseModule.Author",
          "name": "author",
          "type": "tuple"
        },
        {
          "internalType": "bytes",
          "name": "version",
          "type": "bytes"
        },
        {
          "internalType": "uint64",
          "name": "publishedAt",
          "type": "uint64"
        },
        {
          "internalType": "bytes",
          "name": "externalLink",
          "type": "bytes"
        }
      ],
      "stateMutability": "view",
      "type": "function"
    },
    {
      "inputs": [
        {
          "internalType": "uint256",
          "name": "_amount",
          "type": "uint256"
        }
      ],
      "name": "mint",
      "outputs": [],
      "stateMutability": "nonpayable",
      "type": "function"
    },
    {
      "inputs": [],
      "name": "name",
      "outputs": [
        {
          "internalType": "string",
          "name": "",
          "type": "string"
        }
      ],
      "stateMutability": "view",
      "type": "function"
    },
    {
      "inputs": [],
      "name": "symbol",
      "outputs": [
        {
          "internalType": "string",
          "name": "",
          "type": "string"
        }
      ],
      "stateMutability": "view",
      "type": "function"
    },
    {
      "inputs": [],
      "name": "total",
      "outputs": [
        {
          "internalType": "uint256",
          "name": "",
          "type": "uint256"
        }
      ],
      "stateMutability": "view",
      "type": "function"
    },
    {
      "inputs": [],
      "name": "totalSupply",
      "outputs": [
        {
          "internalType": "uint256",
          "name": "",
          "type": "uint256"
        }
      ],
      "stateMutability": "view",
      "type": "function"
    },
    {
      "inputs": [
        {
          "internalType": "address",
          "name": "_to",
          "type": "address"
        },
        {
          "internalType": "uint256",
          "name": "_value",
          "type": "uint256"
        }
      ],
      "name": "transfer",
      "outputs": [
        {
          "internalType": "bool",
          "name": "",
          "type": "bool"
        }
      ],
      "stateMutability": "nonpayable",
      "type": "function"
    },
    {
      "inputs": [
        {
          "internalType": "address",
          "name": "_from",
          "type": "address"
        },
        {
          "internalType": "address",
          "name": "_to",
          "type": "address"
        },
        {
          "internalType": "uint256",
          "name": "_value",
          "type": "uint256"
        }
      ],
      "name": "transferFrom",
      "outputs": [
        {
          "internalType": "bool",
          "name": "",
          "type": "bool"
        }
      ],
      "stateMutability": "nonpayable",
      "type": "function"
    }
  ],
  "bytecode": "0x60a06040523480156200001157600080fd5b50604051620027a3380380620027a3833981810160405281019062000037919062000403565b6040518060a001604052806040518060400160405280600581526020017f546f6b656e000000000000000000000000000000000000000000000000000000815250815260200160405180604001604052808473ffffffffffffffffffffffffffffffffffffffff1681526020016040518060400160405280601881526020017f68747470733a2f2f65787465726e616c6c696e6b2e6e6574000000000000000081525081525081526020016040518060400160405280600581526020017f302e302e31000000000000000000000000000000000000000000000000000000815250815260200165032a361e860667ffffffffffffffff1681526020016040518060400160405280601881526020017f68747470733a2f2f65787465726e616c4c696e6b2e6e657400000000000000008152508152506000808201518160000190805190602001906200018b929190620002ab565b5060208201518160010160008201518160000160006101000a81548173ffffffffffffffffffffffffffffffffffffffff021916908373ffffffffffffffffffffffffffffffffffffffff1602179055506020820151816001019080519060200190620001fa9291906200033c565b50505060408201518160030190805190602001906200021b929190620002ab565b5060608201518160040160006101000a81548167ffffffffffffffff021916908367ffffffffffffffff160217905550608082015181600501908051906020019062000269929190620002ab565b509050508073ffffffffffffffffffffffffffffffffffffffff1660808173ffffffffffffffffffffffffffffffffffffffff1660601b8152505050620004e2565b828054620002b99062000463565b90600052602060002090601f016020900481019282620002dd576000855562000329565b82601f10620002f857805160ff191683800117855562000329565b8280016001018555821562000329579182015b82811115620003285782518255916020019190600101906200030b565b5b509050620003389190620003cd565b5090565b8280546200034a9062000463565b90600052602060002090601f0160209004810192826200036e5760008555620003ba565b82601f106200038957805160ff1916838001178555620003ba565b82800160010185558215620003ba579182015b82811115620003b95782518255916020019190600101906200039c565b5b509050620003c99190620003cd565b5090565b5b80821115620003e8576000816000905550600101620003ce565b5090565b600081519050620003fd81620004c8565b92915050565b6000602082840312156200041657600080fd5b60006200042684828501620003ec565b91505092915050565b60006200043c8262000443565b9050919050565b600073ffffffffffffffffffffffffffffffffffffffff82169050919050565b600060028204905060018216806200047c57607f821691505b6020821081141562000493576200049262000499565b5b50919050565b7f4e487b7100000000000000000000000000000000000000000000000000000000600052602260045260246000fd5b620004d3816200042f565b8114620004df57600080fd5b50565b60805160601c6122a262000501600039600061142b01526122a26000f3fe608060405234801561001057600080fd5b50600436106101165760003560e01c8063685d0a96116100a2578063a9059cbb11610071578063a9059cbb146102d5578063b69ef8a814610305578063ce606ee014610323578063dd62ed3e14610341578063fc540cd31461037157610116565b8063685d0a961461024f57806370a082311461026b57806395d89b411461029b578063a0712d68146102b957610116565b80632ddbd13a116100e95780632ddbd13a146101b7578063313ce567146101d5578063378dc3dc146101f3578063392f37e91461021157806342966c681461023357610116565b806306fdde031461011b578063095ea7b31461013957806318160ddd1461016957806323b872dd14610187575b600080fd5b61012361038f565b6040516101309190611aca565b60405180910390f35b610153600480360381019061014e9190611705565b61041d565b6040516101609190611a40565b60405180910390f35b61017161050f565b60405161017e9190611bcc565b60405180910390f35b6101a1600480360381019061019c91906116b6565b610519565b6040516101ae9190611a40565b60405180910390f35b6101bf610a1c565b6040516101cc9190611bcc565b60405180910390f35b6101dd610a22565b6040516101ea9190611bcc565b60405180910390f35b6101fb610a28565b6040516102089190611bcc565b60405180910390f35b610219610a2e565b60405161022a959493929190611a5b565b60405180910390f35b61024d600480360381019061024891906117d4565b610cf0565b005b61026960048036038101906102649190611741565b610e13565b005b61028560048036038101906102809190611651565b610f16565b6040516102929190611bcc565b60405180910390f35b6102a3610f5f565b6040516102b09190611aca565b60405180910390f35b6102d360048036038101906102ce91906117d4565b610fed565b005b6102ef60048036038101906102ea9190611705565b611155565b6040516102fc9190611a40565b60405180910390f35b61030d611419565b60405161031a9190611bcc565b60405180910390f35b61032b611429565b6040516103389190611a25565b60405180910390f35b61035b6004803603810190610356919061167a565b61144d565b6040516103689190611bcc565b60405180910390f35b6103796114d4565b6040516103869190611bcc565b60405180910390f35b6008805461039c90611f79565b80601f01602080910402602001604051908101604052809291908181526020018280546103c890611f79565b80156104155780601f106103ea57610100808354040283529160200191610415565b820191906000526020600020905b8154815290600101906020018083116103f857829003601f168201915b505050505081565b600081600c60003373ffffffffffffffffffffffffffffffffffffffff1673ffffffffffffffffffffffffffffffffffffffff16815260200190815260200160002060008573ffffffffffffffffffffffffffffffffffffffff1673ffffffffffffffffffffffffffffffffffffffff168152602001908152602001600020819055508273ffffffffffffffffffffffffffffffffffffffff163373ffffffffffffffffffffffffffffffffffffffff167f8c5be1e5ebec7d5bd14f71427d1e84f3dd0314c0f7b2291e5b200ac8c7c3b925846040516104fd9190611bcc565b60405180910390a36001905092915050565b6000600d54905090565b60008073ffffffffffffffffffffffffffffffffffffffff168473ffffffffffffffffffffffffffffffffffffffff16141561058a576040517f08c379a000000000000000000000000000000000000000000000000000000000815260040161058190611b0c565b60405180910390fd5b600c60008573ffffffffffffffffffffffffffffffffffffffff1673ffffffffffffffffffffffffffffffffffffffff16815260200190815260200160002060003373ffffffffffffffffffffffffffffffffffffffff1673ffffffffffffffffffffffffffffffffffffffff16815260200190815260200160002054821115610649576040517f08c379a000000000000000000000000000000000000000000000000000000000815260040161064090611b8c565b60405180910390fd5b61065284610f16565b821115610694576040517f08c379a000000000000000000000000000000000000000000000000000000000815260040161068b90611aec565b60405180910390fd5b600073ffffffffffffffffffffffffffffffffffffffff168373ffffffffffffffffffffffffffffffffffffffff161415610704576040517f08c379a00000000000000000000000000000000000000000000000000000000081526004016106fb90611b0c565b60405180910390fd5b8273ffffffffffffffffffffffffffffffffffffffff168473ffffffffffffffffffffffffffffffffffffffff161415610773576040517f08c379a000000000000000000000000000000000000000000000000000000000815260040161076a90611b6c565b60405180910390fd5b6107c582600b60008773ffffffffffffffffffffffffffffffffffffffff1673ffffffffffffffffffffffffffffffffffffffff168152602001908152602001600020546114da90919063ffffffff16565b600b60008673ffffffffffffffffffffffffffffffffffffffff1673ffffffffffffffffffffffffffffffffffffffff1681526020019081526020016000208190555061085a82600b60008673ffffffffffffffffffffffffffffffffffffffff1673ffffffffffffffffffffffffffffffffffffffff168152602001908152602001600020546114f090919063ffffffff16565b600b60008573ffffffffffffffffffffffffffffffffffffffff1673ffffffffffffffffffffffffffffffffffffffff1681526020019081526020016000208190555061092c82600c60008773ffffffffffffffffffffffffffffffffffffffff1673ffffffffffffffffffffffffffffffffffffffff16815260200190815260200160002060003373ffffffffffffffffffffffffffffffffffffffff1673ffffffffffffffffffffffffffffffffffffffff168152602001908152602001600020546114da90919063ffffffff16565b600c60008673ffffffffffffffffffffffffffffffffffffffff1673ffffffffffffffffffffffffffffffffffffffff16815260200190815260200160002060003373ffffffffffffffffffffffffffffffffffffffff1673ffffffffffffffffffffffffffffffffffffffff168152602001908152602001600020819055508273ffffffffffffffffffffffffffffffffffffffff168473ffffffffffffffffffffffffffffffffffffffff167fddf252ad1be2c89b69c2b068fc378daa952ba7f163c4a11628f55a4df523b3ef84604051610a099190611bcc565b60405180910390a3600190509392505050565b600d5481565b600a5481565b600e5481565b6000806000018054610a3f90611f79565b80601f0160208091040260200160405190810160405280929190818152602001828054610a6b90611f79565b8015610ab85780601f10610a8d57610100808354040283529160200191610ab8565b820191906000526020600020905b815481529060010190602001808311610a9b57829003601f168201915b505050505090806001016040518060400160405290816000820160009054906101000a900473ffffffffffffffffffffffffffffffffffffffff1673ffffffffffffffffffffffffffffffffffffffff1673ffffffffffffffffffffffffffffffffffffffff168152602001600182018054610b3390611f79565b80601f0160208091040260200160405190810160405280929190818152602001828054610b5f90611f79565b8015610bac5780601f10610b8157610100808354040283529160200191610bac565b820191906000526020600020905b815481529060010190602001808311610b8f57829003601f168201915b50505050508152505090806003018054610bc590611f79565b80601f0160208091040260200160405190810160405280929190818152602001828054610bf190611f79565b8015610c3e5780601f10610c1357610100808354040283529160200191610c3e565b820191906000526020600020905b815481529060010190602001808311610c2157829003601f168201915b5050505050908060040160009054906101000a900467ffffffffffffffff1690806005018054610c6d90611f79565b80601f0160208091040260200160405190810160405280929190818152602001828054610c9990611f79565b8015610ce65780601f10610cbb57610100808354040283529160200191610ce6565b820191906000526020600020905b815481529060010190602001808311610cc957829003601f168201915b5050505050905085565b80610cfa33610f16565b1015610d3b576040517f08c379a0000000000000000000000000000000000000000000000000000000008152600401610d3290611b2c565b60405180910390fd5b80600b60003373ffffffffffffffffffffffffffffffffffffffff1673ffffffffffffffffffffffffffffffffffffffff1681526020019081526020016000206000828254610d8a9190611ea7565b9250508190555080600d6000828254610da39190611ea7565b92505081905550600073ffffffffffffffffffffffffffffffffffffffff163373ffffffffffffffffffffffffffffffffffffffff167fddf252ad1be2c89b69c2b068fc378daa952ba7f163c4a11628f55a4df523b3ef83604051610e089190611bcc565b60405180910390a350565b80600760006101000a81548173ffffffffffffffffffffffffffffffffffffffff021916908373ffffffffffffffffffffffffffffffffffffffff1602179055508360089080519060200190610e6a92919061151c565b508260099080519060200190610e8192919061151c565b5081600a81905550600a54600a610e989190611d2f565b600f8190555060006103e89050610eba600f548261150690919063ffffffff16565b600d81905550600d54600e81905550600d54600b60008473ffffffffffffffffffffffffffffffffffffffff1673ffffffffffffffffffffffffffffffffffffffff168152602001908152602001600020819055505050505050565b6000600b60008373ffffffffffffffffffffffffffffffffffffffff1673ffffffffffffffffffffffffffffffffffffffff168152602001908152602001600020549050919050565b60098054610f6c90611f79565b80601f0160208091040260200160405190810160405280929190818152602001828054610f9890611f79565b8015610fe55780601f10610fba57610100808354040283529160200191610fe5565b820191906000526020600020905b815481529060010190602001808311610fc857829003601f168201915b505050505081565b600760009054906101000a900473ffffffffffffffffffffffffffffffffffffffff1673ffffffffffffffffffffffffffffffffffffffff163373ffffffffffffffffffffffffffffffffffffffff161461107d576040517f08c379a000000000000000000000000000000000000000000000000000000000815260040161107490611bac565b60405180910390fd5b80600b60003373ffffffffffffffffffffffffffffffffffffffff1673ffffffffffffffffffffffffffffffffffffffff16815260200190815260200160002060008282546110cc9190611c86565b9250508190555080600d60008282546110e59190611c86565b925050819055503373ffffffffffffffffffffffffffffffffffffffff16600073ffffffffffffffffffffffffffffffffffffffff167fddf252ad1be2c89b69c2b068fc378daa952ba7f163c4a11628f55a4df523b3ef8360405161114a9190611bcc565b60405180910390a350565b60008073ffffffffffffffffffffffffffffffffffffffff168373ffffffffffffffffffffffffffffffffffffffff1614156111c6576040517f08c379a00000000000000000000000000000000000000000000000000000000081526004016111bd90611b0c565b60405180910390fd5b3373ffffffffffffffffffffffffffffffffffffffff168373ffffffffffffffffffffffffffffffffffffffff161415611235576040517f08c379a000000000000000000000000000000000000000000000000000000000815260040161122c90611b4c565b60405180910390fd5b61123e33610f16565b821115611280576040517f08c379a000000000000000000000000000000000000000000000000000000000815260040161127790611b2c565b60405180910390fd5b6112d282600b60003373ffffffffffffffffffffffffffffffffffffffff1673ffffffffffffffffffffffffffffffffffffffff168152602001908152602001600020546114da90919063ffffffff16565b600b60003373ffffffffffffffffffffffffffffffffffffffff1673ffffffffffffffffffffffffffffffffffffffff1681526020019081526020016000208190555061136782600b60008673ffffffffffffffffffffffffffffffffffffffff1673ffffffffffffffffffffffffffffffffffffffff168152602001908152602001600020546114f090919063ffffffff16565b600b60008573ffffffffffffffffffffffffffffffffffffffff1673ffffffffffffffffffffffffffffffffffffffff168152602001908152602001600020819055508273ffffffffffffffffffffffffffffffffffffffff163373ffffffffffffffffffffffffffffffffffffffff167fddf252ad1be2c89b69c2b068fc378daa952ba7f163c4a11628f55a4df523b3ef846040516114079190611bcc565b60405180910390a36001905092915050565b600061142433610f16565b905090565b7f000000000000000000000000000000000000000000000000000000000000000081565b6000600c60008473ffffffffffffffffffffffffffffffffffffffff1673ffffffffffffffffffffffffffffffffffffffff16815260200190815260200160002060008373ffffffffffffffffffffffffffffffffffffffff1673ffffffffffffffffffffffffffffffffffffffff16815260200190815260200160002054905092915050565b600f5481565b600081836114e89190611ea7565b905092915050565b600081836114fe9190611c86565b905092915050565b600081836115149190611e4d565b905092915050565b82805461152890611f79565b90600052602060002090601f01602090048101928261154a5760008555611591565b82601f1061156357805160ff1916838001178555611591565b82800160010185558215611591579182015b82811115611590578251825591602001919060010190611575565b5b50905061159e91906115a2565b5090565b5b808211156115bb5760008160009055506001016115a3565b5090565b60006115d26115cd84611c0c565b611be7565b9050828152602081018484840111156115ea57600080fd5b6115f5848285611f37565b509392505050565b60008135905061160c8161223e565b92915050565b600082601f83011261162357600080fd5b81356116338482602086016115bf565b91505092915050565b60008135905061164b81612255565b92915050565b60006020828403121561166357600080fd5b6000611671848285016115fd565b91505092915050565b6000806040838503121561168d57600080fd5b600061169b858286016115fd565b92505060206116ac858286016115fd565b9150509250929050565b6000806000606084860312156116cb57600080fd5b60006116d9868287016115fd565b93505060206116ea868287016115fd565b92505060406116fb8682870161163c565b9150509250925092565b6000806040838503121561171857600080fd5b6000611726858286016115fd565b92505060206117378582860161163c565b9150509250929050565b6000806000806080858703121561175757600080fd5b600085013567ffffffffffffffff81111561177157600080fd5b61177d87828801611612565b945050602085013567ffffffffffffffff81111561179a57600080fd5b6117a687828801611612565b93505060406117b78782880161163c565b92505060606117c8878288016115fd565b91505092959194509250565b6000602082840312156117e657600080fd5b60006117f48482850161163c565b91505092915050565b61180681611edb565b82525050565b61181581611edb565b82525050565b61182481611eed565b82525050565b600061183582611c3d565b61183f8185611c53565b935061184f818560208601611f46565b61185881612069565b840191505092915050565b600061186e82611c48565b6118788185611c64565b9350611888818560208601611f46565b61189181612069565b840191505092915050565b60006118a782611c48565b6118b18185611c75565b93506118c1818560208601611f46565b6118ca81612069565b840191505092915050565b60006118e2601f83611c75565b91506118ed82612087565b602082019050919050565b6000611905602b83611c75565b9150611910826120b0565b604082019050919050565b6000611928601283611c75565b9150611933826120ff565b602082019050919050565b600061194b602383611c75565b915061195682612128565b604082019050919050565b600061196e603483611c75565b915061197982612177565b604082019050919050565b6000611991602783611c75565b915061199c826121c6565b604082019050919050565b60006119b4601c83611c75565b91506119bf82612215565b602082019050919050565b60006040830160008301516119e260008601826117fd565b50602083015184820360208601526119fa8282611863565b9150508091505092915050565b611a1081611f19565b82525050565b611a1f81611f23565b82525050565b6000602082019050611a3a600083018461180c565b92915050565b6000602082019050611a55600083018461181b565b92915050565b600060a0820190508181036000830152611a75818861182a565b90508181036020830152611a8981876119ca565b90508181036040830152611a9d818661182a565b9050611aac6060830185611a16565b8181036080830152611abe818461182a565b90509695505050505050565b60006020820190508181036000830152611ae4818461189c565b905092915050565b60006020820190508181036000830152611b05816118d5565b9050919050565b60006020820190508181036000830152611b25816118f8565b9050919050565b60006020820190508181036000830152611b458161191b565b9050919050565b60006020820190508181036000830152611b658161193e565b9050919050565b60006020820190508181036000830152611b8581611961565b9050919050565b60006020820190508181036000830152611ba581611984565b9050919050565b60006020820190508181036000830152611bc5816119a7565b9050919050565b6000602082019050611be16000830184611a07565b92915050565b6000611bf1611c02565b9050611bfd8282611fab565b919050565b6000604051905090565b600067ffffffffffffffff821115611c2757611c2661203a565b5b611c3082612069565b9050602081019050919050565b600081519050919050565b600081519050919050565b600082825260208201905092915050565b600082825260208201905092915050565b600082825260208201905092915050565b6000611c9182611f19565b9150611c9c83611f19565b9250827fffffffffffffffffffffffffffffffffffffffffffffffffffffffffffffffff03821115611cd157611cd0611fdc565b5b828201905092915050565b6000808291508390505b6001851115611d2657808604811115611d0257611d01611fdc565b5b6001851615611d115780820291505b8081029050611d1f8561207a565b9450611ce6565b94509492505050565b6000611d3a82611f19565b9150611d4583611f19565b9250611d727fffffffffffffffffffffffffffffffffffffffffffffffffffffffffffffffff8484611d7a565b905092915050565b600082611d8a5760019050611e46565b81611d985760009050611e46565b8160018114611dae5760028114611db857611de7565b6001915050611e46565b60ff841115611dca57611dc9611fdc565b5b8360020a915084821115611de157611de0611fdc565b5b50611e46565b5060208310610133831016604e8410600b8410161715611e1c5782820a905083811115611e1757611e16611fdc565b5b611e46565b611e298484846001611cdc565b92509050818404811115611e4057611e3f611fdc565b5b81810290505b9392505050565b6000611e5882611f19565b9150611e6383611f19565b9250817fffffffffffffffffffffffffffffffffffffffffffffffffffffffffffffffff0483118215151615611e9c57611e9b611fdc565b5b828202905092915050565b6000611eb282611f19565b9150611ebd83611f19565b925082821015611ed057611ecf611fdc565b5b828203905092915050565b6000611ee682611ef9565b9050919050565b60008115159050919050565b600073ffffffffffffffffffffffffffffffffffffffff82169050919050565b6000819050919050565b600067ffffffffffffffff82169050919050565b82818337600083830152505050565b60005b83811015611f64578082015181840152602081019050611f49565b83811115611f73576000848401525b50505050565b60006002820490506001821680611f9157607f821691505b60208210811415611fa557611fa461200b565b5b50919050565b611fb482612069565b810181811067ffffffffffffffff82111715611fd357611fd261203a565b5b80604052505050565b7f4e487b7100000000000000000000000000000000000000000000000000000000600052601160045260246000fd5b7f4e487b7100000000000000000000000000000000000000000000000000000000600052602260045260246000fd5b7f4e487b7100000000000000000000000000000000000000000000000000000000600052604160045260246000fd5b6000601f19601f8301169050919050565b60008160011c9050919050565b7f4e6f7420656e6f7567682062616c616e636520666f72207472616e7366657200600082015250565b7f5472616e7366657220746f20746865207a65726f20616464726573732069732060008201527f6e6f7420616c6c6f776564000000000000000000000000000000000000000000602082015250565b7f4e6f7420656e6f7567682062616c616e63650000000000000000000000000000600082015250565b7f5472616e7366657220746f20796f757273656c66206973206e6f7420616c6c6f60008201527f7765640000000000000000000000000000000000000000000000000000000000602082015250565b7f5472616e736665722066726f6d20616e6420746f207468652073616d6520616460008201527f6472657373206973206e6f7420616c6c6f776564000000000000000000000000602082015250565b7f4e6f7420656e6f75676820616c6c6f7765642062616c616e636520666f72207460008201527f72616e7366657200000000000000000000000000000000000000000000000000602082015250565b7f596f7520617265206e6f74207468652074656e616e74206f776e657200000000600082015250565b61224781611edb565b811461225257600080fd5b50565b61225e81611f19565b811461226957600080fd5b5056fea26469706673582212202d908baa03605a5324f00b574f5b9491d8f1dd393b73c98b7b656b6679ec814a64736f6c63430008040033",
  "linkReferences": {},
  "deployedLinkReferences": {}
}