{
  "_format": "hh-sol-artifact-1",
  "contractName": "Token",
  "sourceName": "contracts/Token.sol",
  "abi": [
    {
      "inputs": [],
      "stateMutability": "nonpayable",
      "type": "constructor"
    },
    {
      "anonymous": false,
      "inputs": [
        {
          "indexed": true,
          "internalType": "address",
          "name": "owner",
          "type": "address"
        },
        {
          "indexed": true,
          "internalType": "address",
          "name": "spender",
          "type": "address"
        },
        {
          "indexed": false,
          "internalType": "uint256",
          "name": "value",
          "type": "uint256"
        }
      ],
      "name": "Approval",
      "type": "event"
    },
    {
      "anonymous": false,
      "inputs": [
        {
          "indexed": true,
          "internalType": "address",
          "name": "from",
          "type": "address"
        },
        {
          "indexed": true,
          "internalType": "address",
          "name": "to",
          "type": "address"
        },
        {
          "indexed": false,
          "internalType": "uint256",
          "name": "value",
          "type": "uint256"
        }
      ],
      "name": "Transfer",
      "type": "event"
    },
    {
      "inputs": [],
      "name": "UNIT_MULTIPLIER",
      "outputs": [
        {
          "internalType": "uint256",
          "name": "",
          "type": "uint256"
        }
      ],
      "stateMutability": "view",
      "type": "function"
    },
    {
      "inputs": [
        {
          "internalType": "address",
          "name": "owner",
          "type": "address"
        },
        {
          "internalType": "address",
          "name": "spender",
          "type": "address"
        }
      ],
      "name": "allowance",
      "outputs": [
        {
          "internalType": "uint256",
          "name": "",
          "type": "uint256"
        }
      ],
      "stateMutability": "view",
      "type": "function"
    },
    {
      "inputs": [
        {
          "internalType": "address",
          "name": "spender",
          "type": "address"
        },
        {
          "internalType": "uint256",
          "name": "value",
          "type": "uint256"
        }
      ],
      "name": "approve",
      "outputs": [
        {
          "internalType": "bool",
          "name": "",
          "type": "bool"
        }
      ],
      "stateMutability": "nonpayable",
      "type": "function"
    },
    {
      "inputs": [],
      "name": "balance",
      "outputs": [
        {
          "internalType": "uint256",
          "name": "",
          "type": "uint256"
        }
      ],
      "stateMutability": "view",
      "type": "function"
    },
    {
      "inputs": [
        {
          "internalType": "address",
          "name": "owner",
          "type": "address"
        }
      ],
      "name": "balanceOf",
      "outputs": [
        {
          "internalType": "uint256",
          "name": "",
          "type": "uint256"
        }
      ],
      "stateMutability": "view",
      "type": "function"
    },
    {
      "inputs": [],
      "name": "contractOwner",
      "outputs": [
        {
          "internalType": "address",
          "name": "",
          "type": "address"
        }
      ],
      "stateMutability": "view",
      "type": "function"
    },
    {
      "inputs": [],
      "name": "decimals",
      "outputs": [
        {
          "internalType": "uint256",
          "name": "",
          "type": "uint256"
        }
      ],
      "stateMutability": "view",
      "type": "function"
    },
    {
      "inputs": [],
      "name": "getContractOwner",
      "outputs": [
        {
          "internalType": "address",
          "name": "",
          "type": "address"
        }
      ],
      "stateMutability": "view",
      "type": "function"
    },
    {
      "inputs": [],
      "name": "getCounter",
      "outputs": [
        {
          "internalType": "uint256",
          "name": "",
          "type": "uint256"
        }
      ],
      "stateMutability": "view",
      "type": "function"
    },
    {
      "inputs": [
        {
          "internalType": "uint256",
          "name": "increment",
          "type": "uint256"
        }
      ],
      "name": "incrementCounter",
      "outputs": [],
      "stateMutability": "nonpayable",
      "type": "function"
    },
    {
      "inputs": [
        {
          "internalType": "string",
          "name": "_name",
          "type": "string"
        },
        {
          "internalType": "string",
          "name": "_symbol",
          "type": "string"
        },
        {
          "internalType": "uint256",
          "name": "_decimal",
          "type": "uint256"
        },
        {
          "internalType": "address",
          "name": "_tenant",
          "type": "address"
        }
      ],
      "name": "init",
      "outputs": [],
      "stateMutability": "nonpayable",
      "type": "function"
    },
    {
      "inputs": [],
      "name": "initialSupply",
      "outputs": [
        {
          "internalType": "uint256",
          "name": "",
          "type": "uint256"
        }
      ],
      "stateMutability": "view",
      "type": "function"
    },
    {
      "inputs": [],
      "name": "metadata",
      "outputs": [
        {
          "internalType": "bytes",
          "name": "title",
          "type": "bytes"
        },
        {
          "components": [
            {
              "internalType": "address",
              "name": "authorAddress",
              "type": "address"
            },
            {
              "internalType": "string",
              "name": "externalLink",
              "type": "string"
            }
          ],
          "internalType": "struct IHyperverseModule.Author",
          "name": "author",
          "type": "tuple"
        },
        {
          "internalType": "bytes",
          "name": "version",
          "type": "bytes"
        },
        {
          "internalType": "uint64",
          "name": "publishedAt",
          "type": "uint64"
        },
        {
          "internalType": "bytes",
          "name": "externalLink",
          "type": "bytes"
        }
      ],
      "stateMutability": "view",
      "type": "function"
    },
    {
      "inputs": [],
      "name": "name",
      "outputs": [
        {
          "internalType": "string",
          "name": "",
          "type": "string"
        }
      ],
      "stateMutability": "view",
      "type": "function"
    },
    {
      "inputs": [],
      "name": "symbol",
      "outputs": [
        {
          "internalType": "string",
          "name": "",
          "type": "string"
        }
      ],
      "stateMutability": "view",
      "type": "function"
    },
    {
      "inputs": [],
      "name": "total",
      "outputs": [
        {
          "internalType": "uint256",
          "name": "",
          "type": "uint256"
        }
      ],
      "stateMutability": "view",
      "type": "function"
    },
    {
      "inputs": [],
      "name": "totalSupply",
      "outputs": [
        {
          "internalType": "uint256",
          "name": "",
          "type": "uint256"
        }
      ],
      "stateMutability": "view",
      "type": "function"
    },
    {
      "inputs": [
        {
          "internalType": "address",
          "name": "to",
          "type": "address"
        },
        {
          "internalType": "uint256",
          "name": "value",
          "type": "uint256"
        }
      ],
      "name": "transfer",
      "outputs": [
        {
          "internalType": "bool",
          "name": "",
          "type": "bool"
        }
      ],
      "stateMutability": "nonpayable",
      "type": "function"
    },
    {
      "inputs": [
        {
          "internalType": "address",
          "name": "from",
          "type": "address"
        },
        {
          "internalType": "address",
          "name": "to",
          "type": "address"
        },
        {
          "internalType": "uint256",
          "name": "value",
          "type": "uint256"
        }
      ],
      "name": "transferFrom",
      "outputs": [
        {
          "internalType": "bool",
          "name": "",
          "type": "bool"
        }
      ],
      "stateMutability": "nonpayable",
      "type": "function"
    }
  ],
  "bytecode": "0x60a06040523480156200001157600080fd5b506040518060a001604052806040518060400160405280600581526020017f546f6b656e000000000000000000000000000000000000000000000000000000815250815260200160405180604001604052803373ffffffffffffffffffffffffffffffffffffffff1681526020016040518060400160405280601881526020017f68747470733a2f2f65787465726e616c6c696e6b2e6e6574000000000000000081525081525081526020016040518060400160405280600581526020017f302e302e31000000000000000000000000000000000000000000000000000000815250815260200165032a361e860667ffffffffffffffff1681526020016040518060400160405280601881526020017f68747470733a2f2f65787465726e616c4c696e6b2e6e657400000000000000008152508152506000808201518160000190805190602001906200016692919062000285565b5060208201518160010160008201518160000160006101000a81548173ffffffffffffffffffffffffffffffffffffffff021916908373ffffffffffffffffffffffffffffffffffffffff1602179055506020820151816001019080519060200190620001d592919062000316565b5050506040820151816003019080519060200190620001f692919062000285565b5060608201518160040160006101000a81548167ffffffffffffffff021916908367ffffffffffffffff16021790555060808201518160050190805190602001906200024492919062000285565b509050503373ffffffffffffffffffffffffffffffffffffffff1660808173ffffffffffffffffffffffffffffffffffffffff1660601b815250506200042b565b8280546200029390620003c6565b90600052602060002090601f016020900481019282620002b7576000855562000303565b82601f10620002d257805160ff191683800117855562000303565b8280016001018555821562000303579182015b8281111562000302578251825591602001919060010190620002e5565b5b509050620003129190620003a7565b5090565b8280546200032490620003c6565b90600052602060002090601f01602090048101928262000348576000855562000394565b82601f106200036357805160ff191683800117855562000394565b8280016001018555821562000394579182015b828111156200039357825182559160200191906001019062000376565b5b509050620003a39190620003a7565b5090565b5b80821115620003c2576000816000905550600101620003a8565b5090565b60006002820490506001821680620003df57607f821691505b60208210811415620003f657620003f5620003fc565b5b50919050565b7f4e487b7100000000000000000000000000000000000000000000000000000000600052602260045260246000fd5b60805160601c61220d6200045160003960008181610d1f015261126a015261220d6000f3fe608060405234801561001057600080fd5b50600436106101215760003560e01c8063685d0a96116100ad578063a9059cbb11610071578063a9059cbb14610300578063b69ef8a814610330578063ce606ee01461034e578063dd62ed3e1461036c578063fc540cd31461039c57610121565b8063685d0a961461025c5780636abbb3b41461027857806370a08231146102945780638ada066e146102c457806395d89b41146102e257610121565b80632ddbd13a116100f45780632ddbd13a146101c2578063313ce567146101e0578063378dc3dc146101fe578063392f37e91461021c578063442890d51461023e57610121565b806306fdde0314610126578063095ea7b31461014457806318160ddd1461017457806323b872dd14610192575b600080fd5b61012e6103ba565b60405161013b91906119d5565b60405180910390f35b61015e60048036038101906101599190611610565b610448565b60405161016b919061194b565b60405180910390f35b61017c61053a565b6040516101899190611ad7565b60405180910390f35b6101ac60048036038101906101a791906115c1565b610544565b6040516101b9919061194b565b60405180910390f35b6101ca610a47565b6040516101d79190611ad7565b60405180910390f35b6101e8610a4d565b6040516101f59190611ad7565b60405180910390f35b610206610a53565b6040516102139190611ad7565b60405180910390f35b610224610a59565b604051610235959493929190611966565b60405180910390f35b610246610d1b565b6040516102539190611930565b60405180910390f35b6102766004803603810190610271919061164c565b610d43565b005b610292600480360381019061028d91906116df565b610e46565b005b6102ae60048036038101906102a9919061155c565b610eb3565b6040516102bb9190611ad7565b60405180910390f35b6102cc610efc565b6040516102d99190611ad7565b60405180910390f35b6102ea610f06565b6040516102f791906119d5565b60405180910390f35b61031a60048036038101906103159190611610565b610f94565b604051610327919061194b565b60405180910390f35b610338611258565b6040516103459190611ad7565b60405180910390f35b610356611268565b6040516103639190611930565b60405180910390f35b61038660048036038101906103819190611585565b61128c565b6040516103939190611ad7565b60405180910390f35b6103a4611313565b6040516103b19190611ad7565b60405180910390f35b600880546103c790611eb5565b80601f01602080910402602001604051908101604052809291908181526020018280546103f390611eb5565b80156104405780601f1061041557610100808354040283529160200191610440565b820191906000526020600020905b81548152906001019060200180831161042357829003601f168201915b505050505081565b600081600c60003373ffffffffffffffffffffffffffffffffffffffff1673ffffffffffffffffffffffffffffffffffffffff16815260200190815260200160002060008573ffffffffffffffffffffffffffffffffffffffff1673ffffffffffffffffffffffffffffffffffffffff168152602001908152602001600020819055508273ffffffffffffffffffffffffffffffffffffffff163373ffffffffffffffffffffffffffffffffffffffff167f8c5be1e5ebec7d5bd14f71427d1e84f3dd0314c0f7b2291e5b200ac8c7c3b925846040516105289190611ad7565b60405180910390a36001905092915050565b6000600d54905090565b60008073ffffffffffffffffffffffffffffffffffffffff168473ffffffffffffffffffffffffffffffffffffffff1614156105b5576040517f08c379a00000000000000000000000000000000000000000000000000000000081526004016105ac90611a17565b60405180910390fd5b600c60008573ffffffffffffffffffffffffffffffffffffffff1673ffffffffffffffffffffffffffffffffffffffff16815260200190815260200160002060003373ffffffffffffffffffffffffffffffffffffffff1673ffffffffffffffffffffffffffffffffffffffff16815260200190815260200160002054821115610674576040517f08c379a000000000000000000000000000000000000000000000000000000000815260040161066b90611a97565b60405180910390fd5b61067d84610eb3565b8211156106bf576040517f08c379a00000000000000000000000000000000000000000000000000000000081526004016106b6906119f7565b60405180910390fd5b600073ffffffffffffffffffffffffffffffffffffffff168373ffffffffffffffffffffffffffffffffffffffff16141561072f576040517f08c379a000000000000000000000000000000000000000000000000000000000815260040161072690611a17565b60405180910390fd5b8273ffffffffffffffffffffffffffffffffffffffff168473ffffffffffffffffffffffffffffffffffffffff16141561079e576040517f08c379a000000000000000000000000000000000000000000000000000000000815260040161079590611a77565b60405180910390fd5b6107f082600b60008773ffffffffffffffffffffffffffffffffffffffff1673ffffffffffffffffffffffffffffffffffffffff1681526020019081526020016000205461131990919063ffffffff16565b600b60008673ffffffffffffffffffffffffffffffffffffffff1673ffffffffffffffffffffffffffffffffffffffff1681526020019081526020016000208190555061088582600b60008673ffffffffffffffffffffffffffffffffffffffff1673ffffffffffffffffffffffffffffffffffffffff1681526020019081526020016000205461136690919063ffffffff16565b600b60008573ffffffffffffffffffffffffffffffffffffffff1673ffffffffffffffffffffffffffffffffffffffff1681526020019081526020016000208190555061095782600c60008773ffffffffffffffffffffffffffffffffffffffff1673ffffffffffffffffffffffffffffffffffffffff16815260200190815260200160002060003373ffffffffffffffffffffffffffffffffffffffff1673ffffffffffffffffffffffffffffffffffffffff1681526020019081526020016000205461131990919063ffffffff16565b600c60008673ffffffffffffffffffffffffffffffffffffffff1673ffffffffffffffffffffffffffffffffffffffff16815260200190815260200160002060003373ffffffffffffffffffffffffffffffffffffffff1673ffffffffffffffffffffffffffffffffffffffff168152602001908152602001600020819055508273ffffffffffffffffffffffffffffffffffffffff168473ffffffffffffffffffffffffffffffffffffffff167fddf252ad1be2c89b69c2b068fc378daa952ba7f163c4a11628f55a4df523b3ef84604051610a349190611ad7565b60405180910390a3600190509392505050565b600d5481565b600a5481565b600e5481565b6000806000018054610a6a90611eb5565b80601f0160208091040260200160405190810160405280929190818152602001828054610a9690611eb5565b8015610ae35780601f10610ab857610100808354040283529160200191610ae3565b820191906000526020600020905b815481529060010190602001808311610ac657829003601f168201915b505050505090806001016040518060400160405290816000820160009054906101000a900473ffffffffffffffffffffffffffffffffffffffff1673ffffffffffffffffffffffffffffffffffffffff1673ffffffffffffffffffffffffffffffffffffffff168152602001600182018054610b5e90611eb5565b80601f0160208091040260200160405190810160405280929190818152602001828054610b8a90611eb5565b8015610bd75780601f10610bac57610100808354040283529160200191610bd7565b820191906000526020600020905b815481529060010190602001808311610bba57829003601f168201915b50505050508152505090806003018054610bf090611eb5565b80601f0160208091040260200160405190810160405280929190818152602001828054610c1c90611eb5565b8015610c695780601f10610c3e57610100808354040283529160200191610c69565b820191906000526020600020905b815481529060010190602001808311610c4c57829003601f168201915b5050505050908060040160009054906101000a900467ffffffffffffffff1690806005018054610c9890611eb5565b80601f0160208091040260200160405190810160405280929190818152602001828054610cc490611eb5565b8015610d115780601f10610ce657610100808354040283529160200191610d11565b820191906000526020600020905b815481529060010190602001808311610cf457829003601f168201915b5050505050905085565b60007f0000000000000000000000000000000000000000000000000000000000000000905090565b80600760006101000a81548173ffffffffffffffffffffffffffffffffffffffff021916908373ffffffffffffffffffffffffffffffffffffffff1602179055508360089080519060200190610d9a929190611427565b508260099080519060200190610db1929190611427565b5081600a81905550600a54600a610dc89190611c6b565b600f8190555060006103e89050610dea600f54826113b890919063ffffffff16565b600d81905550600d54600e81905550600d54600b60008473ffffffffffffffffffffffffffffffffffffffff1673ffffffffffffffffffffffffffffffffffffffff168152602001908152602001600020819055505050505050565b600081118015610e565750600a81105b610e95576040517f08c379a0000000000000000000000000000000000000000000000000000000008152600401610e8c90611ab7565b60405180910390fd5b610eaa8160105461136690919063ffffffff16565b60108190555050565b6000600b60008373ffffffffffffffffffffffffffffffffffffffff1673ffffffffffffffffffffffffffffffffffffffff168152602001908152602001600020549050919050565b6000601054905090565b60098054610f1390611eb5565b80601f0160208091040260200160405190810160405280929190818152602001828054610f3f90611eb5565b8015610f8c5780601f10610f6157610100808354040283529160200191610f8c565b820191906000526020600020905b815481529060010190602001808311610f6f57829003601f168201915b505050505081565b60008073ffffffffffffffffffffffffffffffffffffffff168373ffffffffffffffffffffffffffffffffffffffff161415611005576040517f08c379a0000000000000000000000000000000000000000000000000000000008152600401610ffc90611a17565b60405180910390fd5b3373ffffffffffffffffffffffffffffffffffffffff168373ffffffffffffffffffffffffffffffffffffffff161415611074576040517f08c379a000000000000000000000000000000000000000000000000000000000815260040161106b90611a57565b60405180910390fd5b61107d33610eb3565b8211156110bf576040517f08c379a00000000000000000000000000000000000000000000000000000000081526004016110b690611a37565b60405180910390fd5b61111182600b60003373ffffffffffffffffffffffffffffffffffffffff1673ffffffffffffffffffffffffffffffffffffffff1681526020019081526020016000205461131990919063ffffffff16565b600b60003373ffffffffffffffffffffffffffffffffffffffff1673ffffffffffffffffffffffffffffffffffffffff168152602001908152602001600020819055506111a682600b60008673ffffffffffffffffffffffffffffffffffffffff1673ffffffffffffffffffffffffffffffffffffffff1681526020019081526020016000205461136690919063ffffffff16565b600b60008573ffffffffffffffffffffffffffffffffffffffff1673ffffffffffffffffffffffffffffffffffffffff168152602001908152602001600020819055508273ffffffffffffffffffffffffffffffffffffffff163373ffffffffffffffffffffffffffffffffffffffff167fddf252ad1be2c89b69c2b068fc378daa952ba7f163c4a11628f55a4df523b3ef846040516112469190611ad7565b60405180910390a36001905092915050565b600061126333610eb3565b905090565b7f000000000000000000000000000000000000000000000000000000000000000081565b6000600c60008473ffffffffffffffffffffffffffffffffffffffff1673ffffffffffffffffffffffffffffffffffffffff16815260200190815260200160002060008373ffffffffffffffffffffffffffffffffffffffff1673ffffffffffffffffffffffffffffffffffffffff16815260200190815260200160002054905092915050565b600f5481565b600082821115611352577f4e487b7100000000000000000000000000000000000000000000000000000000600052600160045260246000fd5b818361135e9190611de3565b905092915050565b60008082846113759190611b91565b9050838110156113ae577f4e487b7100000000000000000000000000000000000000000000000000000000600052600160045260246000fd5b8091505092915050565b6000808314156113cb5760009050611421565b600082846113d99190611d89565b90508284826113e89190611be7565b1461141c577f4e487b7100000000000000000000000000000000000000000000000000000000600052600160045260246000fd5b809150505b92915050565b82805461143390611eb5565b90600052602060002090601f016020900481019282611455576000855561149c565b82601f1061146e57805160ff191683800117855561149c565b8280016001018555821561149c579182015b8281111561149b578251825591602001919060010190611480565b5b5090506114a991906114ad565b5090565b5b808211156114c65760008160009055506001016114ae565b5090565b60006114dd6114d884611b17565b611af2565b9050828152602081018484840111156114f557600080fd5b611500848285611e73565b509392505050565b600081359050611517816121a9565b92915050565b600082601f83011261152e57600080fd5b813561153e8482602086016114ca565b91505092915050565b600081359050611556816121c0565b92915050565b60006020828403121561156e57600080fd5b600061157c84828501611508565b91505092915050565b6000806040838503121561159857600080fd5b60006115a685828601611508565b92505060206115b785828601611508565b9150509250929050565b6000806000606084860312156115d657600080fd5b60006115e486828701611508565b93505060206115f586828701611508565b925050604061160686828701611547565b9150509250925092565b6000806040838503121561162357600080fd5b600061163185828601611508565b925050602061164285828601611547565b9150509250929050565b6000806000806080858703121561166257600080fd5b600085013567ffffffffffffffff81111561167c57600080fd5b6116888782880161151d565b945050602085013567ffffffffffffffff8111156116a557600080fd5b6116b18782880161151d565b93505060406116c287828801611547565b92505060606116d387828801611508565b91505092959194509250565b6000602082840312156116f157600080fd5b60006116ff84828501611547565b91505092915050565b61171181611e17565b82525050565b61172081611e17565b82525050565b61172f81611e29565b82525050565b600061174082611b48565b61174a8185611b5e565b935061175a818560208601611e82565b61176381611fd4565b840191505092915050565b600061177982611b53565b6117838185611b6f565b9350611793818560208601611e82565b61179c81611fd4565b840191505092915050565b60006117b282611b53565b6117bc8185611b80565b93506117cc818560208601611e82565b6117d581611fd4565b840191505092915050565b60006117ed601f83611b80565b91506117f882611ff2565b602082019050919050565b6000611810602b83611b80565b915061181b8261201b565b604082019050919050565b6000611833601283611b80565b915061183e8261206a565b602082019050919050565b6000611856602383611b80565b915061186182612093565b604082019050919050565b6000611879603483611b80565b9150611884826120e2565b604082019050919050565b600061189c602783611b80565b91506118a782612131565b604082019050919050565b60006118bf601783611b80565b91506118ca82612180565b602082019050919050565b60006040830160008301516118ed6000860182611708565b5060208301518482036020860152611905828261176e565b9150508091505092915050565b61191b81611e55565b82525050565b61192a81611e5f565b82525050565b60006020820190506119456000830184611717565b92915050565b60006020820190506119606000830184611726565b92915050565b600060a08201905081810360008301526119808188611735565b9050818103602083015261199481876118d5565b905081810360408301526119a88186611735565b90506119b76060830185611921565b81810360808301526119c98184611735565b90509695505050505050565b600060208201905081810360008301526119ef81846117a7565b905092915050565b60006020820190508181036000830152611a10816117e0565b9050919050565b60006020820190508181036000830152611a3081611803565b9050919050565b60006020820190508181036000830152611a5081611826565b9050919050565b60006020820190508181036000830152611a7081611849565b9050919050565b60006020820190508181036000830152611a908161186c565b9050919050565b60006020820190508181036000830152611ab08161188f565b9050919050565b60006020820190508181036000830152611ad0816118b2565b9050919050565b6000602082019050611aec6000830184611912565b92915050565b6000611afc611b0d565b9050611b088282611ee7565b919050565b6000604051905090565b600067ffffffffffffffff821115611b3257611b31611fa5565b5b611b3b82611fd4565b9050602081019050919050565b600081519050919050565b600081519050919050565b600082825260208201905092915050565b600082825260208201905092915050565b600082825260208201905092915050565b6000611b9c82611e55565b9150611ba783611e55565b9250827fffffffffffffffffffffffffffffffffffffffffffffffffffffffffffffffff03821115611bdc57611bdb611f18565b5b828201905092915050565b6000611bf282611e55565b9150611bfd83611e55565b925082611c0d57611c0c611f47565b5b828204905092915050565b6000808291508390505b6001851115611c6257808604811115611c3e57611c3d611f18565b5b6001851615611c4d5780820291505b8081029050611c5b85611fe5565b9450611c22565b94509492505050565b6000611c7682611e55565b9150611c8183611e55565b9250611cae7fffffffffffffffffffffffffffffffffffffffffffffffffffffffffffffffff8484611cb6565b905092915050565b600082611cc65760019050611d82565b81611cd45760009050611d82565b8160018114611cea5760028114611cf457611d23565b6001915050611d82565b60ff841115611d0657611d05611f18565b5b8360020a915084821115611d1d57611d1c611f18565b5b50611d82565b5060208310610133831016604e8410600b8410161715611d585782820a905083811115611d5357611d52611f18565b5b611d82565b611d658484846001611c18565b92509050818404811115611d7c57611d7b611f18565b5b81810290505b9392505050565b6000611d9482611e55565b9150611d9f83611e55565b9250817fffffffffffffffffffffffffffffffffffffffffffffffffffffffffffffffff0483118215151615611dd857611dd7611f18565b5b828202905092915050565b6000611dee82611e55565b9150611df983611e55565b925082821015611e0c57611e0b611f18565b5b828203905092915050565b6000611e2282611e35565b9050919050565b60008115159050919050565b600073ffffffffffffffffffffffffffffffffffffffff82169050919050565b6000819050919050565b600067ffffffffffffffff82169050919050565b82818337600083830152505050565b60005b83811015611ea0578082015181840152602081019050611e85565b83811115611eaf576000848401525b50505050565b60006002820490506001821680611ecd57607f821691505b60208210811415611ee157611ee0611f76565b5b50919050565b611ef082611fd4565b810181811067ffffffffffffffff82111715611f0f57611f0e611fa5565b5b80604052505050565b7f4e487b7100000000000000000000000000000000000000000000000000000000600052601160045260246000fd5b7f4e487b7100000000000000000000000000000000000000000000000000000000600052601260045260246000fd5b7f4e487b7100000000000000000000000000000000000000000000000000000000600052602260045260246000fd5b7f4e487b7100000000000000000000000000000000000000000000000000000000600052604160045260246000fd5b6000601f19601f8301169050919050565b60008160011c9050919050565b7f4e6f7420656e6f7567682062616c616e636520666f72207472616e7366657200600082015250565b7f5472616e7366657220746f20746865207a65726f20616464726573732069732060008201527f6e6f7420616c6c6f776564000000000000000000000000000000000000000000602082015250565b7f4e6f7420656e6f7567682062616c616e63650000000000000000000000000000600082015250565b7f5472616e7366657220746f20796f757273656c66206973206e6f7420616c6c6f60008201527f7765640000000000000000000000000000000000000000000000000000000000602082015250565b7f5472616e736665722066726f6d20616e6420746f207468652073616d6520616460008201527f6472657373206973206e6f7420616c6c6f776564000000000000000000000000602082015250565b7f4e6f7420656e6f75676820616c6c6f7765642062616c616e636520666f72207460008201527f72616e7366657200000000000000000000000000000000000000000000000000602082015250565b7f496e76616c696420696e6372656d656e742076616c7565000000000000000000600082015250565b6121b281611e17565b81146121bd57600080fd5b50565b6121c981611e55565b81146121d457600080fd5b5056fea2646970667358221220c7422ece48b287dd99042b5440924ff6ed2cff629901c2da8d41959b489793d664736f6c63430008040033",
  "linkReferences": {},
  "deployedLinkReferences": {}
}