{
  "_format": "hh-sol-artifact-1",
  "contractName": "Token",
  "sourceName": "contracts/Token.sol",
  "abi": [
    {
      "inputs": [],
      "stateMutability": "nonpayable",
      "type": "constructor"
    },
    {
      "anonymous": false,
      "inputs": [
        {
          "indexed": true,
          "internalType": "address",
          "name": "owner",
          "type": "address"
        },
        {
          "indexed": true,
          "internalType": "address",
          "name": "spender",
          "type": "address"
        },
        {
          "indexed": false,
          "internalType": "uint256",
          "name": "value",
          "type": "uint256"
        }
      ],
      "name": "Approval",
      "type": "event"
    },
    {
      "anonymous": false,
      "inputs": [
        {
          "indexed": true,
          "internalType": "address",
          "name": "from",
          "type": "address"
        },
        {
          "indexed": true,
          "internalType": "address",
          "name": "to",
          "type": "address"
        },
        {
          "indexed": false,
          "internalType": "uint256",
          "name": "value",
          "type": "uint256"
        }
      ],
      "name": "Transfer",
      "type": "event"
    },
    {
      "inputs": [],
      "name": "UNIT_MULTIPLIER",
      "outputs": [
        {
          "internalType": "uint256",
          "name": "",
          "type": "uint256"
        }
      ],
      "stateMutability": "view",
      "type": "function"
    },
    {
      "inputs": [
        {
          "internalType": "address",
          "name": "owner",
          "type": "address"
        },
        {
          "internalType": "address",
          "name": "spender",
          "type": "address"
        }
      ],
      "name": "allowance",
      "outputs": [
        {
          "internalType": "uint256",
          "name": "",
          "type": "uint256"
        }
      ],
      "stateMutability": "view",
      "type": "function"
    },
    {
      "inputs": [
        {
          "internalType": "address",
          "name": "spender",
          "type": "address"
        },
        {
          "internalType": "uint256",
          "name": "value",
          "type": "uint256"
        }
      ],
      "name": "approve",
      "outputs": [
        {
          "internalType": "bool",
          "name": "",
          "type": "bool"
        }
      ],
      "stateMutability": "nonpayable",
      "type": "function"
    },
    {
      "inputs": [],
      "name": "balance",
      "outputs": [
        {
          "internalType": "uint256",
          "name": "",
          "type": "uint256"
        }
      ],
      "stateMutability": "view",
      "type": "function"
    },
    {
      "inputs": [
        {
          "internalType": "address",
          "name": "owner",
          "type": "address"
        }
      ],
      "name": "balanceOf",
      "outputs": [
        {
          "internalType": "uint256",
          "name": "",
          "type": "uint256"
        }
      ],
      "stateMutability": "view",
      "type": "function"
    },
    {
      "inputs": [],
      "name": "decimals",
      "outputs": [
        {
          "internalType": "uint256",
          "name": "",
          "type": "uint256"
        }
      ],
      "stateMutability": "view",
      "type": "function"
    },
    {
      "inputs": [],
      "name": "getContractOwner",
      "outputs": [
        {
          "internalType": "address",
          "name": "",
          "type": "address"
        }
      ],
      "stateMutability": "view",
      "type": "function"
    },
    {
      "inputs": [],
      "name": "getCounter",
      "outputs": [
        {
          "internalType": "uint256",
          "name": "",
          "type": "uint256"
        }
      ],
      "stateMutability": "view",
      "type": "function"
    },
    {
      "inputs": [
        {
          "internalType": "uint256",
          "name": "increment",
          "type": "uint256"
        }
      ],
      "name": "incrementCounter",
      "outputs": [],
      "stateMutability": "nonpayable",
      "type": "function"
    },
    {
      "inputs": [
        {
          "internalType": "string",
          "name": "_name",
          "type": "string"
        },
        {
          "internalType": "string",
          "name": "_symbol",
          "type": "string"
        },
        {
          "internalType": "uint256",
          "name": "_decimal",
          "type": "uint256"
        },
        {
          "internalType": "address",
          "name": "_tenant",
          "type": "address"
        }
      ],
      "name": "init",
      "outputs": [],
      "stateMutability": "nonpayable",
      "type": "function"
    },
    {
      "inputs": [],
      "name": "initialSupply",
      "outputs": [
        {
          "internalType": "uint256",
          "name": "",
          "type": "uint256"
        }
      ],
      "stateMutability": "view",
      "type": "function"
    },
    {
      "inputs": [],
      "name": "metadata",
      "outputs": [
        {
          "internalType": "bytes",
          "name": "title",
          "type": "bytes"
        },
        {
          "components": [
            {
              "internalType": "address",
              "name": "authorAddress",
              "type": "address"
            },
            {
              "internalType": "string",
              "name": "externalLink",
              "type": "string"
            }
          ],
          "internalType": "struct IHyperverseModule.Author",
          "name": "author",
          "type": "tuple"
        },
        {
          "internalType": "bytes",
          "name": "version",
          "type": "bytes"
        },
        {
          "internalType": "uint64",
          "name": "publishedAt",
          "type": "uint64"
        },
        {
          "internalType": "bytes",
          "name": "externalLink",
          "type": "bytes"
        }
      ],
      "stateMutability": "view",
      "type": "function"
    },
    {
      "inputs": [],
      "name": "name",
      "outputs": [
        {
          "internalType": "string",
          "name": "",
          "type": "string"
        }
      ],
      "stateMutability": "view",
      "type": "function"
    },
    {
      "inputs": [],
      "name": "symbol",
      "outputs": [
        {
          "internalType": "string",
          "name": "",
          "type": "string"
        }
      ],
      "stateMutability": "view",
      "type": "function"
    },
    {
      "inputs": [],
      "name": "total",
      "outputs": [
        {
          "internalType": "uint256",
          "name": "",
          "type": "uint256"
        }
      ],
      "stateMutability": "view",
      "type": "function"
    },
    {
      "inputs": [],
      "name": "totalSupply",
      "outputs": [
        {
          "internalType": "uint256",
          "name": "",
          "type": "uint256"
        }
      ],
      "stateMutability": "view",
      "type": "function"
    },
    {
      "inputs": [
        {
          "internalType": "address",
          "name": "to",
          "type": "address"
        },
        {
          "internalType": "uint256",
          "name": "value",
          "type": "uint256"
        }
      ],
      "name": "transfer",
      "outputs": [
        {
          "internalType": "bool",
          "name": "",
          "type": "bool"
        }
      ],
      "stateMutability": "nonpayable",
      "type": "function"
    },
    {
      "inputs": [
        {
          "internalType": "address",
          "name": "from",
          "type": "address"
        },
        {
          "internalType": "address",
          "name": "to",
          "type": "address"
        },
        {
          "internalType": "uint256",
          "name": "value",
          "type": "uint256"
        }
      ],
      "name": "transferFrom",
      "outputs": [
        {
          "internalType": "bool",
          "name": "",
          "type": "bool"
        }
      ],
      "stateMutability": "nonpayable",
      "type": "function"
    }
  ],
  "bytecode": "0x60a06040523480156200001157600080fd5b506040518060a001604052806040518060400160405280600581526020017f546f6b656e000000000000000000000000000000000000000000000000000000815250815260200160405180604001604052803373ffffffffffffffffffffffffffffffffffffffff1681526020016040518060400160405280601881526020017f68747470733a2f2f65787465726e616c6c696e6b2e6e6574000000000000000081525081525081526020016040518060400160405280600581526020017f302e302e31000000000000000000000000000000000000000000000000000000815250815260200165032a361e860667ffffffffffffffff1681526020016040518060400160405280601881526020017f68747470733a2f2f65787465726e616c4c696e6b2e6e657400000000000000008152508152506000808201518160000190805190602001906200016692919062000285565b5060208201518160010160008201518160000160006101000a81548173ffffffffffffffffffffffffffffffffffffffff021916908373ffffffffffffffffffffffffffffffffffffffff1602179055506020820151816001019080519060200190620001d592919062000316565b5050506040820151816003019080519060200190620001f692919062000285565b5060608201518160040160006101000a81548167ffffffffffffffff021916908367ffffffffffffffff16021790555060808201518160050190805190602001906200024492919062000285565b509050503373ffffffffffffffffffffffffffffffffffffffff1660808173ffffffffffffffffffffffffffffffffffffffff1660601b815250506200042b565b8280546200029390620003c6565b90600052602060002090601f016020900481019282620002b7576000855562000303565b82601f10620002d257805160ff191683800117855562000303565b8280016001018555821562000303579182015b8281111562000302578251825591602001919060010190620002e5565b5b509050620003129190620003a7565b5090565b8280546200032490620003c6565b90600052602060002090601f01602090048101928262000348576000855562000394565b82601f106200036357805160ff191683800117855562000394565b8280016001018555821562000394579182015b828111156200039357825182559160200191906001019062000376565b5b509050620003a39190620003a7565b5090565b5b80821115620003c2576000816000905550600101620003a8565b5090565b60006002820490506001821680620003df57607f821691505b60208210811415620003f657620003f5620003fc565b5b50919050565b7f4e487b7100000000000000000000000000000000000000000000000000000000600052602260045260246000fd5b60805160601c6121c06200044a6000396000610cf601526121c06000f3fe608060405234801561001057600080fd5b50600436106101165760003560e01c8063685d0a96116100a257806395d89b411161007157806395d89b41146102d7578063a9059cbb146102f5578063b69ef8a814610325578063dd62ed3e14610343578063fc540cd31461037357610116565b8063685d0a96146102515780636abbb3b41461026d57806370a08231146102895780638ada066e146102b957610116565b80632ddbd13a116100e95780632ddbd13a146101b7578063313ce567146101d5578063378dc3dc146101f3578063392f37e914610211578063442890d51461023357610116565b806306fdde031461011b578063095ea7b31461013957806318160ddd1461016957806323b872dd14610187575b600080fd5b610123610391565b6040516101309190611988565b60405180910390f35b610153600480360381019061014e91906115c3565b61041f565b60405161016091906118fe565b60405180910390f35b610171610511565b60405161017e9190611a8a565b60405180910390f35b6101a1600480360381019061019c9190611574565b61051b565b6040516101ae91906118fe565b60405180910390f35b6101bf610a1e565b6040516101cc9190611a8a565b60405180910390f35b6101dd610a24565b6040516101ea9190611a8a565b60405180910390f35b6101fb610a2a565b6040516102089190611a8a565b60405180910390f35b610219610a30565b60405161022a959493929190611919565b60405180910390f35b61023b610cf2565b60405161024891906118e3565b60405180910390f35b61026b600480360381019061026691906115ff565b610d1a565b005b61028760048036038101906102829190611692565b610e1d565b005b6102a3600480360381019061029e919061150f565b610e8a565b6040516102b09190611a8a565b60405180910390f35b6102c1610ed3565b6040516102ce9190611a8a565b60405180910390f35b6102df610edd565b6040516102ec9190611988565b60405180910390f35b61030f600480360381019061030a91906115c3565b610f6b565b60405161031c91906118fe565b60405180910390f35b61032d61122f565b60405161033a9190611a8a565b60405180910390f35b61035d60048036038101906103589190611538565b61123f565b60405161036a9190611a8a565b60405180910390f35b61037b6112c6565b6040516103889190611a8a565b60405180910390f35b6008805461039e90611e68565b80601f01602080910402602001604051908101604052809291908181526020018280546103ca90611e68565b80156104175780601f106103ec57610100808354040283529160200191610417565b820191906000526020600020905b8154815290600101906020018083116103fa57829003601f168201915b505050505081565b600081600c60003373ffffffffffffffffffffffffffffffffffffffff1673ffffffffffffffffffffffffffffffffffffffff16815260200190815260200160002060008573ffffffffffffffffffffffffffffffffffffffff1673ffffffffffffffffffffffffffffffffffffffff168152602001908152602001600020819055508273ffffffffffffffffffffffffffffffffffffffff163373ffffffffffffffffffffffffffffffffffffffff167f8c5be1e5ebec7d5bd14f71427d1e84f3dd0314c0f7b2291e5b200ac8c7c3b925846040516104ff9190611a8a565b60405180910390a36001905092915050565b6000600d54905090565b60008073ffffffffffffffffffffffffffffffffffffffff168473ffffffffffffffffffffffffffffffffffffffff16141561058c576040517f08c379a0000000000000000000000000000000000000000000000000000000008152600401610583906119ca565b60405180910390fd5b600c60008573ffffffffffffffffffffffffffffffffffffffff1673ffffffffffffffffffffffffffffffffffffffff16815260200190815260200160002060003373ffffffffffffffffffffffffffffffffffffffff1673ffffffffffffffffffffffffffffffffffffffff1681526020019081526020016000205482111561064b576040517f08c379a000000000000000000000000000000000000000000000000000000000815260040161064290611a4a565b60405180910390fd5b61065484610e8a565b821115610696576040517f08c379a000000000000000000000000000000000000000000000000000000000815260040161068d906119aa565b60405180910390fd5b600073ffffffffffffffffffffffffffffffffffffffff168373ffffffffffffffffffffffffffffffffffffffff161415610706576040517f08c379a00000000000000000000000000000000000000000000000000000000081526004016106fd906119ca565b60405180910390fd5b8273ffffffffffffffffffffffffffffffffffffffff168473ffffffffffffffffffffffffffffffffffffffff161415610775576040517f08c379a000000000000000000000000000000000000000000000000000000000815260040161076c90611a2a565b60405180910390fd5b6107c782600b60008773ffffffffffffffffffffffffffffffffffffffff1673ffffffffffffffffffffffffffffffffffffffff168152602001908152602001600020546112cc90919063ffffffff16565b600b60008673ffffffffffffffffffffffffffffffffffffffff1673ffffffffffffffffffffffffffffffffffffffff1681526020019081526020016000208190555061085c82600b60008673ffffffffffffffffffffffffffffffffffffffff1673ffffffffffffffffffffffffffffffffffffffff1681526020019081526020016000205461131990919063ffffffff16565b600b60008573ffffffffffffffffffffffffffffffffffffffff1673ffffffffffffffffffffffffffffffffffffffff1681526020019081526020016000208190555061092e82600c60008773ffffffffffffffffffffffffffffffffffffffff1673ffffffffffffffffffffffffffffffffffffffff16815260200190815260200160002060003373ffffffffffffffffffffffffffffffffffffffff1673ffffffffffffffffffffffffffffffffffffffff168152602001908152602001600020546112cc90919063ffffffff16565b600c60008673ffffffffffffffffffffffffffffffffffffffff1673ffffffffffffffffffffffffffffffffffffffff16815260200190815260200160002060003373ffffffffffffffffffffffffffffffffffffffff1673ffffffffffffffffffffffffffffffffffffffff168152602001908152602001600020819055508273ffffffffffffffffffffffffffffffffffffffff168473ffffffffffffffffffffffffffffffffffffffff167fddf252ad1be2c89b69c2b068fc378daa952ba7f163c4a11628f55a4df523b3ef84604051610a0b9190611a8a565b60405180910390a3600190509392505050565b600d5481565b600a5481565b600e5481565b6000806000018054610a4190611e68565b80601f0160208091040260200160405190810160405280929190818152602001828054610a6d90611e68565b8015610aba5780601f10610a8f57610100808354040283529160200191610aba565b820191906000526020600020905b815481529060010190602001808311610a9d57829003601f168201915b505050505090806001016040518060400160405290816000820160009054906101000a900473ffffffffffffffffffffffffffffffffffffffff1673ffffffffffffffffffffffffffffffffffffffff1673ffffffffffffffffffffffffffffffffffffffff168152602001600182018054610b3590611e68565b80601f0160208091040260200160405190810160405280929190818152602001828054610b6190611e68565b8015610bae5780601f10610b8357610100808354040283529160200191610bae565b820191906000526020600020905b815481529060010190602001808311610b9157829003601f168201915b50505050508152505090806003018054610bc790611e68565b80601f0160208091040260200160405190810160405280929190818152602001828054610bf390611e68565b8015610c405780601f10610c1557610100808354040283529160200191610c40565b820191906000526020600020905b815481529060010190602001808311610c2357829003601f168201915b5050505050908060040160009054906101000a900467ffffffffffffffff1690806005018054610c6f90611e68565b80601f0160208091040260200160405190810160405280929190818152602001828054610c9b90611e68565b8015610ce85780601f10610cbd57610100808354040283529160200191610ce8565b820191906000526020600020905b815481529060010190602001808311610ccb57829003601f168201915b5050505050905085565b60007f0000000000000000000000000000000000000000000000000000000000000000905090565b80600760006101000a81548173ffffffffffffffffffffffffffffffffffffffff021916908373ffffffffffffffffffffffffffffffffffffffff1602179055508360089080519060200190610d719291906113da565b508260099080519060200190610d889291906113da565b5081600a81905550600a54600a610d9f9190611c1e565b600f8190555060006103e89050610dc1600f548261136b90919063ffffffff16565b600d81905550600d54600e81905550600d54600b60008473ffffffffffffffffffffffffffffffffffffffff1673ffffffffffffffffffffffffffffffffffffffff168152602001908152602001600020819055505050505050565b600081118015610e2d5750600a81105b610e6c576040517f08c379a0000000000000000000000000000000000000000000000000000000008152600401610e6390611a6a565b60405180910390fd5b610e818160105461131990919063ffffffff16565b60108190555050565b6000600b60008373ffffffffffffffffffffffffffffffffffffffff1673ffffffffffffffffffffffffffffffffffffffff168152602001908152602001600020549050919050565b6000601054905090565b60098054610eea90611e68565b80601f0160208091040260200160405190810160405280929190818152602001828054610f1690611e68565b8015610f635780601f10610f3857610100808354040283529160200191610f63565b820191906000526020600020905b815481529060010190602001808311610f4657829003601f168201915b505050505081565b60008073ffffffffffffffffffffffffffffffffffffffff168373ffffffffffffffffffffffffffffffffffffffff161415610fdc576040517f08c379a0000000000000000000000000000000000000000000000000000000008152600401610fd3906119ca565b60405180910390fd5b3373ffffffffffffffffffffffffffffffffffffffff168373ffffffffffffffffffffffffffffffffffffffff16141561104b576040517f08c379a000000000000000000000000000000000000000000000000000000000815260040161104290611a0a565b60405180910390fd5b61105433610e8a565b821115611096576040517f08c379a000000000000000000000000000000000000000000000000000000000815260040161108d906119ea565b60405180910390fd5b6110e882600b60003373ffffffffffffffffffffffffffffffffffffffff1673ffffffffffffffffffffffffffffffffffffffff168152602001908152602001600020546112cc90919063ffffffff16565b600b60003373ffffffffffffffffffffffffffffffffffffffff1673ffffffffffffffffffffffffffffffffffffffff1681526020019081526020016000208190555061117d82600b60008673ffffffffffffffffffffffffffffffffffffffff1673ffffffffffffffffffffffffffffffffffffffff1681526020019081526020016000205461131990919063ffffffff16565b600b60008573ffffffffffffffffffffffffffffffffffffffff1673ffffffffffffffffffffffffffffffffffffffff168152602001908152602001600020819055508273ffffffffffffffffffffffffffffffffffffffff163373ffffffffffffffffffffffffffffffffffffffff167fddf252ad1be2c89b69c2b068fc378daa952ba7f163c4a11628f55a4df523b3ef8460405161121d9190611a8a565b60405180910390a36001905092915050565b600061123a33610e8a565b905090565b6000600c60008473ffffffffffffffffffffffffffffffffffffffff1673ffffffffffffffffffffffffffffffffffffffff16815260200190815260200160002060008373ffffffffffffffffffffffffffffffffffffffff1673ffffffffffffffffffffffffffffffffffffffff16815260200190815260200160002054905092915050565b600f5481565b600082821115611305577f4e487b7100000000000000000000000000000000000000000000000000000000600052600160045260246000fd5b81836113119190611d96565b905092915050565b60008082846113289190611b44565b905083811015611361577f4e487b7100000000000000000000000000000000000000000000000000000000600052600160045260246000fd5b8091505092915050565b60008083141561137e57600090506113d4565b6000828461138c9190611d3c565b905082848261139b9190611b9a565b146113cf577f4e487b7100000000000000000000000000000000000000000000000000000000600052600160045260246000fd5b809150505b92915050565b8280546113e690611e68565b90600052602060002090601f016020900481019282611408576000855561144f565b82601f1061142157805160ff191683800117855561144f565b8280016001018555821561144f579182015b8281111561144e578251825591602001919060010190611433565b5b50905061145c9190611460565b5090565b5b80821115611479576000816000905550600101611461565b5090565b600061149061148b84611aca565b611aa5565b9050828152602081018484840111156114a857600080fd5b6114b3848285611e26565b509392505050565b6000813590506114ca8161215c565b92915050565b600082601f8301126114e157600080fd5b81356114f184826020860161147d565b91505092915050565b60008135905061150981612173565b92915050565b60006020828403121561152157600080fd5b600061152f848285016114bb565b91505092915050565b6000806040838503121561154b57600080fd5b6000611559858286016114bb565b925050602061156a858286016114bb565b9150509250929050565b60008060006060848603121561158957600080fd5b6000611597868287016114bb565b93505060206115a8868287016114bb565b92505060406115b9868287016114fa565b9150509250925092565b600080604083850312156115d657600080fd5b60006115e4858286016114bb565b92505060206115f5858286016114fa565b9150509250929050565b6000806000806080858703121561161557600080fd5b600085013567ffffffffffffffff81111561162f57600080fd5b61163b878288016114d0565b945050602085013567ffffffffffffffff81111561165857600080fd5b611664878288016114d0565b9350506040611675878288016114fa565b9250506060611686878288016114bb565b91505092959194509250565b6000602082840312156116a457600080fd5b60006116b2848285016114fa565b91505092915050565b6116c481611dca565b82525050565b6116d381611dca565b82525050565b6116e281611ddc565b82525050565b60006116f382611afb565b6116fd8185611b11565b935061170d818560208601611e35565b61171681611f87565b840191505092915050565b600061172c82611b06565b6117368185611b22565b9350611746818560208601611e35565b61174f81611f87565b840191505092915050565b600061176582611b06565b61176f8185611b33565b935061177f818560208601611e35565b61178881611f87565b840191505092915050565b60006117a0601f83611b33565b91506117ab82611fa5565b602082019050919050565b60006117c3602b83611b33565b91506117ce82611fce565b604082019050919050565b60006117e6601283611b33565b91506117f18261201d565b602082019050919050565b6000611809602383611b33565b915061181482612046565b604082019050919050565b600061182c603483611b33565b915061183782612095565b604082019050919050565b600061184f602783611b33565b915061185a826120e4565b604082019050919050565b6000611872601783611b33565b915061187d82612133565b602082019050919050565b60006040830160008301516118a060008601826116bb565b50602083015184820360208601526118b88282611721565b9150508091505092915050565b6118ce81611e08565b82525050565b6118dd81611e12565b82525050565b60006020820190506118f860008301846116ca565b92915050565b600060208201905061191360008301846116d9565b92915050565b600060a082019050818103600083015261193381886116e8565b905081810360208301526119478187611888565b9050818103604083015261195b81866116e8565b905061196a60608301856118d4565b818103608083015261197c81846116e8565b90509695505050505050565b600060208201905081810360008301526119a2818461175a565b905092915050565b600060208201905081810360008301526119c381611793565b9050919050565b600060208201905081810360008301526119e3816117b6565b9050919050565b60006020820190508181036000830152611a03816117d9565b9050919050565b60006020820190508181036000830152611a23816117fc565b9050919050565b60006020820190508181036000830152611a438161181f565b9050919050565b60006020820190508181036000830152611a6381611842565b9050919050565b60006020820190508181036000830152611a8381611865565b9050919050565b6000602082019050611a9f60008301846118c5565b92915050565b6000611aaf611ac0565b9050611abb8282611e9a565b919050565b6000604051905090565b600067ffffffffffffffff821115611ae557611ae4611f58565b5b611aee82611f87565b9050602081019050919050565b600081519050919050565b600081519050919050565b600082825260208201905092915050565b600082825260208201905092915050565b600082825260208201905092915050565b6000611b4f82611e08565b9150611b5a83611e08565b9250827fffffffffffffffffffffffffffffffffffffffffffffffffffffffffffffffff03821115611b8f57611b8e611ecb565b5b828201905092915050565b6000611ba582611e08565b9150611bb083611e08565b925082611bc057611bbf611efa565b5b828204905092915050565b6000808291508390505b6001851115611c1557808604811115611bf157611bf0611ecb565b5b6001851615611c005780820291505b8081029050611c0e85611f98565b9450611bd5565b94509492505050565b6000611c2982611e08565b9150611c3483611e08565b9250611c617fffffffffffffffffffffffffffffffffffffffffffffffffffffffffffffffff8484611c69565b905092915050565b600082611c795760019050611d35565b81611c875760009050611d35565b8160018114611c9d5760028114611ca757611cd6565b6001915050611d35565b60ff841115611cb957611cb8611ecb565b5b8360020a915084821115611cd057611ccf611ecb565b5b50611d35565b5060208310610133831016604e8410600b8410161715611d0b5782820a905083811115611d0657611d05611ecb565b5b611d35565b611d188484846001611bcb565b92509050818404811115611d2f57611d2e611ecb565b5b81810290505b9392505050565b6000611d4782611e08565b9150611d5283611e08565b9250817fffffffffffffffffffffffffffffffffffffffffffffffffffffffffffffffff0483118215151615611d8b57611d8a611ecb565b5b828202905092915050565b6000611da182611e08565b9150611dac83611e08565b925082821015611dbf57611dbe611ecb565b5b828203905092915050565b6000611dd582611de8565b9050919050565b60008115159050919050565b600073ffffffffffffffffffffffffffffffffffffffff82169050919050565b6000819050919050565b600067ffffffffffffffff82169050919050565b82818337600083830152505050565b60005b83811015611e53578082015181840152602081019050611e38565b83811115611e62576000848401525b50505050565b60006002820490506001821680611e8057607f821691505b60208210811415611e9457611e93611f29565b5b50919050565b611ea382611f87565b810181811067ffffffffffffffff82111715611ec257611ec1611f58565b5b80604052505050565b7f4e487b7100000000000000000000000000000000000000000000000000000000600052601160045260246000fd5b7f4e487b7100000000000000000000000000000000000000000000000000000000600052601260045260246000fd5b7f4e487b7100000000000000000000000000000000000000000000000000000000600052602260045260246000fd5b7f4e487b7100000000000000000000000000000000000000000000000000000000600052604160045260246000fd5b6000601f19601f8301169050919050565b60008160011c9050919050565b7f4e6f7420656e6f7567682062616c616e636520666f72207472616e7366657200600082015250565b7f5472616e7366657220746f20746865207a65726f20616464726573732069732060008201527f6e6f7420616c6c6f776564000000000000000000000000000000000000000000602082015250565b7f4e6f7420656e6f7567682062616c616e63650000000000000000000000000000600082015250565b7f5472616e7366657220746f20796f757273656c66206973206e6f7420616c6c6f60008201527f7765640000000000000000000000000000000000000000000000000000000000602082015250565b7f5472616e736665722066726f6d20616e6420746f207468652073616d6520616460008201527f6472657373206973206e6f7420616c6c6f776564000000000000000000000000602082015250565b7f4e6f7420656e6f75676820616c6c6f7765642062616c616e636520666f72207460008201527f72616e7366657200000000000000000000000000000000000000000000000000602082015250565b7f496e76616c696420696e6372656d656e742076616c7565000000000000000000600082015250565b61216581611dca565b811461217057600080fd5b50565b61217c81611e08565b811461218757600080fd5b5056fea2646970667358221220a763b5afcc172730cd26017a149c071b88ac665ecace388b46297a76d518945064736f6c63430008040033",
  "linkReferences": {},
  "deployedLinkReferences": {}
}