{
  "_format": "hh-sol-artifact-1",
  "contractName": "NFTGame",
  "sourceName": "contracts/NFTGame.sol",
  "abi": [
    {
      "inputs": [
        {
          "internalType": "address",
          "name": "_owner",
          "type": "address"
        }
      ],
      "stateMutability": "nonpayable",
      "type": "constructor"
    },
    {
      "inputs": [],
      "name": "AlreadyInitialized",
      "type": "error"
    },
    {
      "inputs": [],
      "name": "IncorrectOwner",
      "type": "error"
    },
    {
      "inputs": [],
      "name": "InsufficientAllowance",
      "type": "error"
    },
    {
      "inputs": [],
      "name": "InsufficientBalance",
      "type": "error"
    },
    {
      "inputs": [],
      "name": "InvalidTokenId",
      "type": "error"
    },
    {
      "inputs": [],
      "name": "MaxPerUserExceeded",
      "type": "error"
    },
    {
      "inputs": [],
      "name": "MaxSupplyExceeded",
      "type": "error"
    },
    {
      "inputs": [],
      "name": "MissingERC721Receiver",
      "type": "error"
    },
    {
      "inputs": [],
      "name": "PublicMintInactive",
      "type": "error"
    },
    {
      "inputs": [],
      "name": "SameAddress",
      "type": "error"
    },
    {
      "inputs": [],
      "name": "SameOwnerAndOperator",
      "type": "error"
    },
    {
      "inputs": [],
      "name": "TokenAlreadyMinted",
      "type": "error"
    },
    {
      "inputs": [],
      "name": "Unauthorized",
      "type": "error"
    },
    {
      "inputs": [],
      "name": "ZeroAddress",
      "type": "error"
    },
    {
      "anonymous": false,
      "inputs": [
        {
          "indexed": true,
          "internalType": "address",
          "name": "owner",
          "type": "address"
        },
        {
          "indexed": true,
          "internalType": "address",
          "name": "approved",
          "type": "address"
        },
        {
          "indexed": true,
          "internalType": "uint256",
          "name": "tokenId",
          "type": "uint256"
        }
      ],
      "name": "Approval",
      "type": "event"
    },
    {
      "anonymous": false,
      "inputs": [
        {
          "indexed": true,
          "internalType": "address",
          "name": "owner",
          "type": "address"
        },
        {
          "indexed": true,
          "internalType": "address",
          "name": "operator",
          "type": "address"
        },
        {
          "indexed": false,
          "internalType": "bool",
          "name": "approved",
          "type": "bool"
        }
      ],
      "name": "ApprovalForAll",
      "type": "event"
    },
    {
      "anonymous": false,
      "inputs": [
        {
          "indexed": false,
          "internalType": "uint8",
          "name": "version",
          "type": "uint8"
        }
      ],
      "name": "Initialized",
      "type": "event"
    },
    {
      "anonymous": false,
      "inputs": [
        {
          "indexed": true,
          "internalType": "address",
          "name": "from",
          "type": "address"
        },
        {
          "indexed": true,
          "internalType": "address",
          "name": "to",
          "type": "address"
        },
        {
          "indexed": true,
          "internalType": "uint256",
          "name": "tokenId",
          "type": "uint256"
        }
      ],
      "name": "Transfer",
      "type": "event"
    },
    {
      "inputs": [],
      "name": "_collectionInfo",
      "outputs": [
        {
          "internalType": "uint256",
          "name": "price",
          "type": "uint256"
        },
        {
          "internalType": "uint256",
          "name": "maxSupply",
          "type": "uint256"
        },
        {
          "internalType": "uint256",
          "name": "maxPerUser",
          "type": "uint256"
        },
        {
          "internalType": "bool",
          "name": "isPublicSaleActive",
          "type": "bool"
        }
      ],
      "stateMutability": "view",
      "type": "function"
    },
    {
      "inputs": [],
      "name": "_tenantOwner",
      "outputs": [
        {
          "internalType": "address",
          "name": "",
          "type": "address"
        }
      ],
      "stateMutability": "view",
      "type": "function"
    },
    {
      "inputs": [
        {
          "internalType": "address",
          "name": "_to",
          "type": "address"
        },
        {
          "internalType": "uint256",
          "name": "_tokenId",
          "type": "uint256"
        }
      ],
      "name": "approve",
      "outputs": [],
      "stateMutability": "nonpayable",
      "type": "function"
    },
    {
      "inputs": [
        {
          "internalType": "address",
          "name": "_owner",
          "type": "address"
        }
      ],
      "name": "balanceOf",
      "outputs": [
        {
          "internalType": "uint256",
          "name": "",
          "type": "uint256"
        }
      ],
      "stateMutability": "view",
      "type": "function"
    },
    {
      "inputs": [],
      "name": "contractOwner",
      "outputs": [
        {
          "internalType": "address",
          "name": "",
          "type": "address"
        }
      ],
      "stateMutability": "view",
      "type": "function"
    },
    {
      "inputs": [
        {
          "internalType": "uint256",
          "name": "_tokenId",
          "type": "uint256"
        }
      ],
      "name": "getApproved",
      "outputs": [
        {
          "internalType": "address",
          "name": "",
          "type": "address"
        }
      ],
      "stateMutability": "view",
      "type": "function"
    },
    {
      "inputs": [
        {
          "internalType": "uint256",
          "name": "_tokenId",
          "type": "uint256"
        }
      ],
      "name": "getAttributesByTokenId",
      "outputs": [
        {
          "internalType": "uint256",
          "name": "",
          "type": "uint256"
        },
        {
          "internalType": "string",
          "name": "",
          "type": "string"
        },
        {
          "internalType": "uint256",
          "name": "",
          "type": "uint256"
        },
        {
          "internalType": "uint256",
          "name": "",
          "type": "uint256"
        },
        {
          "internalType": "uint256",
          "name": "",
          "type": "uint256"
        }
      ],
      "stateMutability": "view",
      "type": "function"
    },
    {
      "inputs": [],
      "name": "getBaseURI",
      "outputs": [
        {
          "internalType": "string",
          "name": "",
          "type": "string"
        }
      ],
      "stateMutability": "view",
      "type": "function"
    },
    {
      "inputs": [
        {
          "internalType": "string",
          "name": "name_",
          "type": "string"
        },
        {
          "internalType": "string",
          "name": "symbol_",
          "type": "string"
        },
        {
          "internalType": "address",
          "name": "tenant_",
          "type": "address"
        }
      ],
      "name": "initialize",
      "outputs": [],
      "stateMutability": "nonpayable",
      "type": "function"
    },
    {
      "inputs": [
        {
          "internalType": "address",
          "name": "_owner",
          "type": "address"
        },
        {
          "internalType": "address",
          "name": "_operator",
          "type": "address"
        }
      ],
      "name": "isApprovedForAll",
      "outputs": [
        {
          "internalType": "bool",
          "name": "",
          "type": "bool"
        }
      ],
      "stateMutability": "view",
      "type": "function"
    },
    {
      "inputs": [],
      "name": "isPublicSaleActive",
      "outputs": [
        {
          "internalType": "bool",
          "name": "",
          "type": "bool"
        }
      ],
      "stateMutability": "view",
      "type": "function"
    },
    {
      "inputs": [],
      "name": "metadata",
      "outputs": [
        {
          "internalType": "bytes",
          "name": "title",
          "type": "bytes"
        },
        {
          "components": [
            {
              "internalType": "address",
              "name": "authorAddress",
              "type": "address"
            },
            {
              "internalType": "string",
              "name": "externalLink",
              "type": "string"
            }
          ],
          "internalType": "struct IHyperverseModule.Author",
          "name": "author",
          "type": "tuple"
        },
        {
          "internalType": "bytes",
          "name": "version",
          "type": "bytes"
        },
        {
          "internalType": "uint64",
          "name": "publishedAt",
          "type": "uint64"
        },
        {
          "internalType": "bytes",
          "name": "externalLink",
          "type": "bytes"
        }
      ],
      "stateMutability": "view",
      "type": "function"
    },
    {
      "inputs": [
        {
          "internalType": "address",
          "name": "_to",
          "type": "address"
        },
        {
          "internalType": "string",
          "name": "_tokenName",
          "type": "string"
        },
        {
          "internalType": "uint256",
          "name": "_eyeId",
          "type": "uint256"
        },
        {
          "internalType": "uint256",
          "name": "_mouthId",
          "type": "uint256"
        },
        {
          "internalType": "uint256",
          "name": "_bodyId",
          "type": "uint256"
        }
      ],
      "name": "mint",
      "outputs": [
        {
          "internalType": "uint256",
          "name": "",
          "type": "uint256"
        }
      ],
      "stateMutability": "payable",
      "type": "function"
    },
    {
      "inputs": [],
      "name": "name",
      "outputs": [
        {
          "internalType": "string",
          "name": "",
          "type": "string"
        }
      ],
      "stateMutability": "view",
      "type": "function"
    },
    {
      "inputs": [
        {
          "internalType": "uint256",
          "name": "_tokenId",
          "type": "uint256"
        }
      ],
      "name": "ownerOf",
      "outputs": [
        {
          "internalType": "address",
          "name": "",
          "type": "address"
        }
      ],
      "stateMutability": "view",
      "type": "function"
    },
    {
      "inputs": [
        {
          "internalType": "address",
          "name": "_from",
          "type": "address"
        },
        {
          "internalType": "address",
          "name": "_to",
          "type": "address"
        },
        {
          "internalType": "uint256",
          "name": "_tokenId",
          "type": "uint256"
        }
      ],
      "name": "safeTransferFrom",
      "outputs": [],
      "stateMutability": "nonpayable",
      "type": "function"
    },
    {
      "inputs": [
        {
          "internalType": "address",
          "name": "_from",
          "type": "address"
        },
        {
          "internalType": "address",
          "name": "_to",
          "type": "address"
        },
        {
          "internalType": "uint256",
          "name": "_tokenId",
          "type": "uint256"
        },
        {
          "internalType": "bytes",
          "name": "_data",
          "type": "bytes"
        }
      ],
      "name": "safeTransferFrom",
      "outputs": [],
      "stateMutability": "nonpayable",
      "type": "function"
    },
    {
      "inputs": [
        {
          "internalType": "address",
          "name": "_operator",
          "type": "address"
        },
        {
          "internalType": "bool",
          "name": "_approved",
          "type": "bool"
        }
      ],
      "name": "setApprovalForAll",
      "outputs": [],
      "stateMutability": "nonpayable",
      "type": "function"
    },
    {
      "inputs": [
        {
          "internalType": "string",
          "name": "baseURI_",
          "type": "string"
        }
      ],
      "name": "setBaseURI",
      "outputs": [],
      "stateMutability": "nonpayable",
      "type": "function"
    },
    {
      "inputs": [
        {
          "internalType": "bool",
          "name": "_isActive",
          "type": "bool"
        }
      ],
      "name": "setMintPermissions",
      "outputs": [],
      "stateMutability": "nonpayable",
      "type": "function"
    },
    {
      "inputs": [
        {
          "internalType": "bytes4",
          "name": "_interfaceId",
          "type": "bytes4"
        }
      ],
      "name": "supportsInterface",
      "outputs": [
        {
          "internalType": "bool",
          "name": "",
          "type": "bool"
        }
      ],
      "stateMutability": "view",
      "type": "function"
    },
    {
      "inputs": [],
      "name": "symbol",
      "outputs": [
        {
          "internalType": "string",
          "name": "",
          "type": "string"
        }
      ],
      "stateMutability": "view",
      "type": "function"
    },
    {
      "inputs": [
        {
          "internalType": "address",
          "name": "_reciever",
          "type": "address"
        },
        {
          "internalType": "string",
          "name": "_tokenName",
          "type": "string"
        },
        {
          "internalType": "uint256",
          "name": "_eyeId",
          "type": "uint256"
        },
        {
          "internalType": "uint256",
          "name": "_mouthId",
          "type": "uint256"
        },
        {
          "internalType": "uint256",
          "name": "_bodyId",
          "type": "uint256"
        }
      ],
      "name": "tenantMint",
      "outputs": [
        {
          "internalType": "uint256",
          "name": "",
          "type": "uint256"
        }
      ],
      "stateMutability": "nonpayable",
      "type": "function"
    },
    {
      "inputs": [
        {
          "internalType": "uint256",
          "name": "_tokenId",
          "type": "uint256"
        }
      ],
      "name": "tokenURI",
      "outputs": [
        {
          "internalType": "string",
          "name": "",
          "type": "string"
        }
      ],
      "stateMutability": "view",
      "type": "function"
    },
    {
      "inputs": [
        {
          "internalType": "address",
          "name": "_from",
          "type": "address"
        },
        {
          "internalType": "address",
          "name": "_to",
          "type": "address"
        },
        {
          "internalType": "uint256",
          "name": "_tokenId",
          "type": "uint256"
        }
      ],
      "name": "transferFrom",
      "outputs": [],
      "stateMutability": "nonpayable",
      "type": "function"
    },
    {
      "inputs": [],
      "name": "withdraw",
      "outputs": [],
      "stateMutability": "nonpayable",
      "type": "function"
    },
    {
      "inputs": [
        {
          "internalType": "contract IERC20",
          "name": "_token",
          "type": "address"
        }
      ],
      "name": "withdrawTokens",
      "outputs": [],
      "stateMutability": "nonpayable",
      "type": "function"
    }
  ],
  "bytecode": "0x60a06040523480156200001157600080fd5b5060405162003d2d38038062003d2d83398181016040528101906200003791906200040c565b60016000819055506040518060a001604052806040518060400160405280600781526020017f4e465447616d6500000000000000000000000000000000000000000000000000815250815260200160405180604001604052808473ffffffffffffffffffffffffffffffffffffffff1681526020016040518060400160405280601881526020017f68747470733a2f2f65787465726e616c6c696e6b2e6e6574000000000000000081525081525081526020016040518060400160405280600581526020017f302e302e31000000000000000000000000000000000000000000000000000000815250815260200165032a361e860667ffffffffffffffff1681526020016040518060400160405280601881526020017f68747470733a2f2f65787465726e616c4c696e6b2e6e657400000000000000008152508152506002600082015181600001908051906020019062000194929190620002b4565b5060208201518160010160008201518160000160006101000a81548173ffffffffffffffffffffffffffffffffffffffff021916908373ffffffffffffffffffffffffffffffffffffffff16021790555060208201518160010190805190602001906200020392919062000345565b505050604082015181600301908051906020019062000224929190620002b4565b5060608201518160040160006101000a81548167ffffffffffffffff021916908367ffffffffffffffff160217905550608082015181600501908051906020019062000272929190620002b4565b509050508073ffffffffffffffffffffffffffffffffffffffff1660808173ffffffffffffffffffffffffffffffffffffffff1660601b8152505050620004eb565b828054620002c2906200046c565b90600052602060002090601f016020900481019282620002e6576000855562000332565b82601f106200030157805160ff191683800117855562000332565b8280016001018555821562000332579182015b828111156200033157825182559160200191906001019062000314565b5b509050620003419190620003d6565b5090565b82805462000353906200046c565b90600052602060002090601f016020900481019282620003775760008555620003c3565b82601f106200039257805160ff1916838001178555620003c3565b82800160010185558215620003c3579182015b82811115620003c2578251825591602001919060010190620003a5565b5b509050620003d29190620003d6565b5090565b5b80821115620003f1576000816000905550600101620003d7565b5090565b6000815190506200040681620004d1565b92915050565b6000602082840312156200041f57600080fd5b60006200042f84828501620003f5565b91505092915050565b600062000445826200044c565b9050919050565b600073ffffffffffffffffffffffffffffffffffffffff82169050919050565b600060028204905060018216806200048557607f821691505b602082108114156200049c576200049b620004a2565b5b50919050565b7f4e487b7100000000000000000000000000000000000000000000000000000000600052602260045260246000fd5b620004dc8162000438565b8114620004e857600080fd5b50565b60805160601c6138236200050a60003960006118e401526138236000f3fe60806040526004361061019c5760003560e01c806349df728c116100ec57806397ee73bb1161008a578063c87b56dd11610064578063c87b56dd146105c2578063ce606ee0146105ff578063e51fde211461062a578063e985e9c5146106675761019c565b806397ee73bb14610542578063a22cb46514610570578063b88d4fde146105995761019c565b806370a08231116100c657806370a082311461046e578063714c5398146104ab5780637e4d03d8146104d657806395d89b41146105175761019c565b806349df728c146103df57806355f804b3146104085780636352211e146104315761019c565b80631e84c413116101595780633ccfd60b116101335780633ccfd60b146103465780633e2b81c41461035d57806342842e0e1461038657806348bc17bf146103af5761019c565b80631e84c413146102c357806323b872dd146102ee578063392f37e9146103175761019c565b806301ffc9a7146101a157806306fdde03146101de578063077f224a14610209578063081812fc14610232578063095ea7b31461026f5780630b8eb2cf14610298575b600080fd5b3480156101ad57600080fd5b506101c860048036038101906101c39190612d0c565b6106a4565b6040516101d59190613106565b60405180910390f35b3480156101ea57600080fd5b506101f3610786565b60405161020091906131ab565b60405180910390f35b34801561021557600080fd5b50610230600480360381019061022b9190612dc8565b610818565b005b34801561023e57600080fd5b5061025960048036038101906102549190612e47565b61099f565b6040516102669190613076565b60405180910390f35b34801561027b57600080fd5b5061029660048036038101906102919190612c7e565b6109e5565b005b3480156102a457600080fd5b506102ad610aee565b6040516102ba9190613076565b60405180910390f35b3480156102cf57600080fd5b506102d8610b14565b6040516102e59190613106565b60405180910390f35b3480156102fa57600080fd5b5061031560048036038101906103109190612ae9565b610b27565b005b34801561032357600080fd5b5061032c610b7e565b60405161033d959493929190613121565b60405180910390f35b34801561035257600080fd5b5061035b610e40565b005b34801561036957600080fd5b50610384600480360381019061037f9190612cba565b610f16565b005b34801561039257600080fd5b506103ad60048036038101906103a89190612ae9565b610fba565b005b6103c960048036038101906103c49190612bef565b610fda565b6040516103d6919061320d565b60405180910390f35b3480156103eb57600080fd5b5061040660048036038101906104019190612d5e565b611125565b005b34801561041457600080fd5b5061042f600480360381019061042a9190612d87565b6112cb565b005b34801561043d57600080fd5b5061045860048036038101906104539190612e47565b61136c565b6040516104659190613076565b60405180910390f35b34801561047a57600080fd5b5061049560048036038101906104909190612a84565b611415565b6040516104a2919061320d565b60405180910390f35b3480156104b757600080fd5b506104c06114c4565b6040516104cd91906131ab565b60405180910390f35b3480156104e257600080fd5b506104fd60048036038101906104f89190612e47565b611582565b60405161050e959493929190613228565b60405180910390f35b34801561052357600080fd5b5061052c611659565b60405161053991906131ab565b60405180910390f35b34801561054e57600080fd5b506105576116eb565b6040516105679493929190613282565b60405180910390f35b34801561057c57600080fd5b5061059760048036038101906105929190612bb3565b611716565b005b3480156105a557600080fd5b506105c060048036038101906105bb9190612b38565b61172c565b005b3480156105ce57600080fd5b506105e960048036038101906105e49190612e47565b611785565b6040516105f691906131ab565b60405180910390f35b34801561060b57600080fd5b506106146118e2565b6040516106219190613076565b60405180910390f35b34801561063657600080fd5b50610651600480360381019061064c9190612bef565b611906565b60405161065e919061320d565b60405180910390f35b34801561067357600080fd5b5061068e60048036038101906106899190612aad565b611a34565b60405161069b9190613106565b60405180910390f35b60007f80ac58cd000000000000000000000000000000000000000000000000000000007bffffffffffffffffffffffffffffffffffffffffffffffffffffffff1916827bffffffffffffffffffffffffffffffffffffffffffffffffffffffff1916148061076f57507f5b5e139f000000000000000000000000000000000000000000000000000000007bffffffffffffffffffffffffffffffffffffffffffffffffffffffff1916827bffffffffffffffffffffffffffffffffffffffffffffffffffffffff1916145b8061077f575061077e82611ac8565b5b9050919050565b6060600b805461079590613558565b80601f01602080910402602001604051908101604052809291908181526020018280546107c190613558565b801561080e5780601f106107e35761010080835404028352916020019161080e565b820191906000526020600020905b8154815290600101906020018083116107f157829003601f168201915b5050505050905090565b60006108246001611b32565b905080156108475760018060016101000a81548160ff0219169083151502179055505b81600073ffffffffffffffffffffffffffffffffffffffff16600960009054906101000a900473ffffffffffffffffffffffffffffffffffffffff1673ffffffffffffffffffffffffffffffffffffffff16146108d0576040517f0dc149f000000000000000000000000000000000000000000000000000000000815260040160405180910390fd5b84600b90805190602001906108e6929190612869565b5083600c90805190602001906108fd929190612869565b5082600960006101000a81548173ffffffffffffffffffffffffffffffffffffffff021916908373ffffffffffffffffffffffffffffffffffffffff1602179055505080156109995760006001806101000a81548160ff0219169083151502179055507f7f26b83ff96e1f2b6a682f133852f6798a09c465da95921460cefb384740249860016040516109909190613190565b60405180910390a15b50505050565b60006109aa82611c24565b6015600083815260200190815260200160002060009054906101000a900473ffffffffffffffffffffffffffffffffffffffff169050919050565b60006109f08261136c565b90508273ffffffffffffffffffffffffffffffffffffffff168173ffffffffffffffffffffffffffffffffffffffff161415610a58576040517f367558c300000000000000000000000000000000000000000000000000000000815260040160405180910390fd5b8073ffffffffffffffffffffffffffffffffffffffff16610a77611c66565b73ffffffffffffffffffffffffffffffffffffffff16141580610aa85750610aa681610aa1611c66565b611a34565b155b15610adf576040517f82b4290000000000000000000000000000000000000000000000000000000000815260040160405180910390fd5b610ae98383611c6e565b505050565b600960009054906101000a900473ffffffffffffffffffffffffffffffffffffffff1681565b600e60009054906101000a900460ff1681565b610b38610b32611c66565b82611d27565b610b6e576040517f82b4290000000000000000000000000000000000000000000000000000000000815260040160405180910390fd5b610b79838383611dbc565b505050565b6002806000018054610b8f90613558565b80601f0160208091040260200160405190810160405280929190818152602001828054610bbb90613558565b8015610c085780601f10610bdd57610100808354040283529160200191610c08565b820191906000526020600020905b815481529060010190602001808311610beb57829003601f168201915b505050505090806001016040518060400160405290816000820160009054906101000a900473ffffffffffffffffffffffffffffffffffffffff1673ffffffffffffffffffffffffffffffffffffffff1673ffffffffffffffffffffffffffffffffffffffff168152602001600182018054610c8390613558565b80601f0160208091040260200160405190810160405280929190818152602001828054610caf90613558565b8015610cfc5780601f10610cd157610100808354040283529160200191610cfc565b820191906000526020600020905b815481529060010190602001808311610cdf57829003601f168201915b50505050508152505090806003018054610d1590613558565b80601f0160208091040260200160405190810160405280929190818152602001828054610d4190613558565b8015610d8e5780601f10610d6357610100808354040283529160200191610d8e565b820191906000526020600020905b815481529060010190602001808311610d7157829003601f168201915b5050505050908060040160009054906101000a900467ffffffffffffffff1690806005018054610dbd90613558565b80601f0160208091040260200160405190810160405280929190818152602001828054610de990613558565b8015610e365780601f10610e0b57610100808354040283529160200191610e36565b820191906000526020600020905b815481529060010190602001808311610e1957829003601f168201915b5050505050905085565b600960009054906101000a900473ffffffffffffffffffffffffffffffffffffffff1673ffffffffffffffffffffffffffffffffffffffff163373ffffffffffffffffffffffffffffffffffffffff1614610ec7576040517f82b4290000000000000000000000000000000000000000000000000000000000815260040160405180910390fd5b60004790503373ffffffffffffffffffffffffffffffffffffffff166108fc829081150290604051600060405180830381858888f19350505050158015610f12573d6000803e3d6000fd5b5050565b600960009054906101000a900473ffffffffffffffffffffffffffffffffffffffff1673ffffffffffffffffffffffffffffffffffffffff163373ffffffffffffffffffffffffffffffffffffffff1614610f9d576040517f82b4290000000000000000000000000000000000000000000000000000000000815260040160405180910390fd5b80600e60006101000a81548160ff02191690831515021790555050565b610fd58383836040518060200160405280600081525061172c565b505050565b600060026000541415611022576040517f08c379a0000000000000000000000000000000000000000000000000000000008152600401611019906131ed565b60405180910390fd5b600260008190555060001515600e60009054906101000a900460ff1615151415611078576040517f15b1bdcd00000000000000000000000000000000000000000000000000000000815260040160405180910390fd5b6000611082612011565b90506040518060a0016040528082815260200187815260200186815260200185815260200184815250601760008381526020019081526020016000206000820151816000015560208201518160010190805190602001906110e4929190612869565b50604082015181600201556060820151816003015560808201518160040155905050611110878261202c565b80915050600160008190555095945050505050565b600960009054906101000a900473ffffffffffffffffffffffffffffffffffffffff1673ffffffffffffffffffffffffffffffffffffffff163373ffffffffffffffffffffffffffffffffffffffff16146111ac576040517f82b4290000000000000000000000000000000000000000000000000000000000815260040160405180910390fd5b60008173ffffffffffffffffffffffffffffffffffffffff166370a08231306040518263ffffffff1660e01b81526004016111e79190613076565b60206040518083038186803b1580156111ff57600080fd5b505afa158015611213573d6000803e3d6000fd5b505050506040513d601f19601f820116820180604052508101906112379190612e70565b90508173ffffffffffffffffffffffffffffffffffffffff1663a9059cbb33836040518363ffffffff1660e01b81526004016112749291906130dd565b602060405180830381600087803b15801561128e57600080fd5b505af11580156112a2573d6000803e3d6000fd5b505050506040513d601f19601f820116820180604052508101906112c69190612ce3565b505050565b600960009054906101000a900473ffffffffffffffffffffffffffffffffffffffff1673ffffffffffffffffffffffffffffffffffffffff163373ffffffffffffffffffffffffffffffffffffffff1614611352576040517f82b4290000000000000000000000000000000000000000000000000000000000815260040160405180910390fd5b80600d9080519060200190611368929190612869565b5050565b6000806013600084815260200190815260200160002060009054906101000a900473ffffffffffffffffffffffffffffffffffffffff169050600073ffffffffffffffffffffffffffffffffffffffff168173ffffffffffffffffffffffffffffffffffffffff16141561140c576040517f3f6cc76800000000000000000000000000000000000000000000000000000000815260040160405180910390fd5b80915050919050565b60008073ffffffffffffffffffffffffffffffffffffffff168273ffffffffffffffffffffffffffffffffffffffff16141561147d576040517fd92e233d00000000000000000000000000000000000000000000000000000000815260040160405180910390fd5b601460008373ffffffffffffffffffffffffffffffffffffffff1673ffffffffffffffffffffffffffffffffffffffff168152602001908152602001600020549050919050565b60606000600d80546114d590613558565b9050116114f1576040518060200160405280600081525061157d565b600d80546114fe90613558565b80601f016020809104026020016040519081016040528092919081815260200182805461152a90613558565b80156115775780601f1061154c57610100808354040283529160200191611577565b820191906000526020600020905b81548152906001019060200180831161155a57829003601f168201915b50505050505b905090565b600060606000806000806017600088815260200190815260200160002090508060000154816001018260020154836003015484600401548380546115c590613558565b80601f01602080910402602001604051908101604052809291908181526020018280546115f190613558565b801561163e5780601f106116135761010080835404028352916020019161163e565b820191906000526020600020905b81548152906001019060200180831161162157829003601f168201915b50505050509350955095509550955095505091939590929450565b6060600c805461166890613558565b80601f016020809104026020016040519081016040528092919081815260200182805461169490613558565b80156116e15780601f106116b6576101008083540402835291602001916116e1565b820191906000526020600020905b8154815290600101906020018083116116c457829003601f168201915b5050505050905090565b600f8060000154908060010154908060020154908060030160009054906101000a900460ff16905084565b611728611721611c66565b838361204a565b5050565b61173d611737611c66565b83611d27565b611773576040517f82b4290000000000000000000000000000000000000000000000000000000000815260040160405180910390fd5b61177f84848484612215565b50505050565b606061179082611c24565b600e60019054906101000a900460ff166118845760006018600084815260200190815260200160002080546117c490613558565b9050116117e0576040518060200160405280600081525061187d565b6018600083815260200190815260200160002080546117fe90613558565b80601f016020809104026020016040519081016040528092919081815260200182805461182a90613558565b80156118775780601f1061184c57610100808354040283529160200191611877565b820191906000526020600020905b81548152906001019060200180831161185a57829003601f168201915b50505050505b90506118dd565b600061188e6114c4565b905060008151116118ae57604051806020016040528060008152506118d9565b806118b884612268565b6040516020016118c9929190613052565b6040516020818303038152906040525b9150505b919050565b7f000000000000000000000000000000000000000000000000000000000000000081565b6000600960009054906101000a900473ffffffffffffffffffffffffffffffffffffffff1673ffffffffffffffffffffffffffffffffffffffff163373ffffffffffffffffffffffffffffffffffffffff161461198f576040517f82b4290000000000000000000000000000000000000000000000000000000000815260040160405180910390fd5b6000611999612011565b90506040518060a0016040528082815260200187815260200186815260200185815260200184815250601760008381526020019081526020016000206000820151816000015560208201518160010190805190602001906119fb929190612869565b50604082015181600201556060820151816003015560808201518160040155905050611a27878261202c565b8091505095945050505050565b6000601660008473ffffffffffffffffffffffffffffffffffffffff1673ffffffffffffffffffffffffffffffffffffffff16815260200190815260200160002060008373ffffffffffffffffffffffffffffffffffffffff1673ffffffffffffffffffffffffffffffffffffffff16815260200190815260200160002060009054906101000a900460ff16905092915050565b60007f01ffc9a7000000000000000000000000000000000000000000000000000000007bffffffffffffffffffffffffffffffffffffffffffffffffffffffff1916827bffffffffffffffffffffffffffffffffffffffffffffffffffffffff1916149050919050565b600060018054906101000a900460ff1615611ba85760018260ff16148015611b605750611b5e30612415565b155b611b9f576040517f08c379a0000000000000000000000000000000000000000000000000000000008152600401611b96906131cd565b60405180910390fd5b60009050611c1f565b8160ff16600160009054906101000a900460ff1660ff1610611bff576040517f08c379a0000000000000000000000000000000000000000000000000000000008152600401611bf6906131cd565b60405180910390fd5b81600160006101000a81548160ff021916908360ff160217905550600190505b919050565b611c2d81612428565b611c63576040517f3f6cc76800000000000000000000000000000000000000000000000000000000815260040160405180910390fd5b50565b600033905090565b816015600083815260200190815260200160002060006101000a81548173ffffffffffffffffffffffffffffffffffffffff021916908373ffffffffffffffffffffffffffffffffffffffff160217905550808273ffffffffffffffffffffffffffffffffffffffff16611ce18361136c565b73ffffffffffffffffffffffffffffffffffffffff167f8c5be1e5ebec7d5bd14f71427d1e84f3dd0314c0f7b2291e5b200ac8c7c3b92560405160405180910390a45050565b600080611d338361136c565b90508073ffffffffffffffffffffffffffffffffffffffff168473ffffffffffffffffffffffffffffffffffffffff161480611d755750611d748185611a34565b5b80611db357508373ffffffffffffffffffffffffffffffffffffffff16611d9b8461099f565b73ffffffffffffffffffffffffffffffffffffffff16145b91505092915050565b8273ffffffffffffffffffffffffffffffffffffffff16611ddc8261136c565b73ffffffffffffffffffffffffffffffffffffffff1614611e29576040517f3a6bbed300000000000000000000000000000000000000000000000000000000815260040160405180910390fd5b600073ffffffffffffffffffffffffffffffffffffffff168273ffffffffffffffffffffffffffffffffffffffff161415611e90576040517fd92e233d00000000000000000000000000000000000000000000000000000000815260040160405180910390fd5b611e9b838383612494565b611ea6600082611c6e565b6001601460008573ffffffffffffffffffffffffffffffffffffffff1673ffffffffffffffffffffffffffffffffffffffff1681526020019081526020016000206000828254611ef69190613429565b925050819055506001601460008473ffffffffffffffffffffffffffffffffffffffff1673ffffffffffffffffffffffffffffffffffffffff1681526020019081526020016000206000828254611f4d91906133a2565b92505081905550816013600083815260200190815260200160002060006101000a81548173ffffffffffffffffffffffffffffffffffffffff021916908373ffffffffffffffffffffffffffffffffffffffff160217905550808273ffffffffffffffffffffffffffffffffffffffff168473ffffffffffffffffffffffffffffffffffffffff167fddf252ad1be2c89b69c2b068fc378daa952ba7f163c4a11628f55a4df523b3ef60405160405180910390a461200c838383612499565b505050565b600061201d600a61249e565b612027600a6124b4565b905090565b6120468282604051806020016040528060008152506124c2565b5050565b600073ffffffffffffffffffffffffffffffffffffffff168273ffffffffffffffffffffffffffffffffffffffff1614156120b1576040517fd92e233d00000000000000000000000000000000000000000000000000000000815260040160405180910390fd5b8173ffffffffffffffffffffffffffffffffffffffff168373ffffffffffffffffffffffffffffffffffffffff161415612117576040517ff4b33eeb00000000000000000000000000000000000000000000000000000000815260040160405180910390fd5b80601660008573ffffffffffffffffffffffffffffffffffffffff1673ffffffffffffffffffffffffffffffffffffffff16815260200190815260200160002060008473ffffffffffffffffffffffffffffffffffffffff1673ffffffffffffffffffffffffffffffffffffffff16815260200190815260200160002060006101000a81548160ff0219169083151502179055508173ffffffffffffffffffffffffffffffffffffffff168373ffffffffffffffffffffffffffffffffffffffff167f17307eab39ab6107e8899845ad3d59bd9653f200f220920489ca2b5937696c31836040516122089190613106565b60405180910390a3505050565b612220848484611dbc565b61222c84848484612514565b612262576040517f44ccafd600000000000000000000000000000000000000000000000000000000815260040160405180910390fd5b50505050565b606060008214156122b0576040518060400160405280600181526020017f30000000000000000000000000000000000000000000000000000000000000008152509050612410565b600082905060005b600082146122e25780806122cb906135bb565b915050600a826122db91906133f8565b91506122b8565b60008167ffffffffffffffff811115612324577f4e487b7100000000000000000000000000000000000000000000000000000000600052604160045260246000fd5b6040519080825280601f01601f1916602001820160405280156123565781602001600182028036833780820191505090505b5090505b600085146124095760018261236f9190613429565b9150600a8561237e9190613604565b603061238a91906133a2565b60f81b8183815181106123c6577f4e487b7100000000000000000000000000000000000000000000000000000000600052603260045260246000fd5b60200101907effffffffffffffffffffffffffffffffffffffffffffffffffffffffffffff1916908160001a905350600a8561240291906133f8565b945061235a565b8093505050505b919050565b600080823b905060008111915050919050565b60008073ffffffffffffffffffffffffffffffffffffffff166013600084815260200190815260200160002060009054906101000a900473ffffffffffffffffffffffffffffffffffffffff1673ffffffffffffffffffffffffffffffffffffffff1614159050919050565b505050565b505050565b6001816000016000828254019250508190555050565b600081600001549050919050565b6124cc83836126a2565b6124d96000848484612514565b61250f576040517f44ccafd600000000000000000000000000000000000000000000000000000000815260040160405180910390fd5b505050565b60006125358473ffffffffffffffffffffffffffffffffffffffff16612415565b15612695578373ffffffffffffffffffffffffffffffffffffffff1663150b7a0261255e611c66565b8786866040518563ffffffff1660e01b81526004016125809493929190613091565b602060405180830381600087803b15801561259a57600080fd5b505af19250505080156125cb57506040513d601f19601f820116820180604052508101906125c89190612d35565b60015b612645573d80600081146125fb576040519150601f19603f3d011682016040523d82523d6000602084013e612600565b606091505b5060008151141561263d576040517f44ccafd600000000000000000000000000000000000000000000000000000000815260040160405180910390fd5b805181602001fd5b63150b7a0260e01b7bffffffffffffffffffffffffffffffffffffffffffffffffffffffff1916817bffffffffffffffffffffffffffffffffffffffffffffffffffffffff19161491505061269a565b600190505b949350505050565b600073ffffffffffffffffffffffffffffffffffffffff168273ffffffffffffffffffffffffffffffffffffffff161415612709576040517fd92e233d00000000000000000000000000000000000000000000000000000000815260040160405180910390fd5b61271281612428565b15612748576040517ea5a1f500000000000000000000000000000000000000000000000000000000815260040160405180910390fd5b61275460008383612494565b6001601460008473ffffffffffffffffffffffffffffffffffffffff1673ffffffffffffffffffffffffffffffffffffffff16815260200190815260200160002060008282546127a491906133a2565b92505081905550816013600083815260200190815260200160002060006101000a81548173ffffffffffffffffffffffffffffffffffffffff021916908373ffffffffffffffffffffffffffffffffffffffff160217905550808273ffffffffffffffffffffffffffffffffffffffff16600073ffffffffffffffffffffffffffffffffffffffff167fddf252ad1be2c89b69c2b068fc378daa952ba7f163c4a11628f55a4df523b3ef60405160405180910390a461286560008383612499565b5050565b82805461287590613558565b90600052602060002090601f01602090048101928261289757600085556128de565b82601f106128b057805160ff19168380011785556128de565b828001600101855582156128de579182015b828111156128dd5782518255916020019190600101906128c2565b5b5090506128eb91906128ef565b5090565b5b808211156129085760008160009055506001016128f0565b5090565b600061291f61291a846132ec565b6132c7565b90508281526020810184848401111561293757600080fd5b612942848285613516565b509392505050565b600061295d6129588461331d565b6132c7565b90508281526020810184848401111561297557600080fd5b612980848285613516565b509392505050565b6000813590506129978161377a565b92915050565b6000813590506129ac81613791565b92915050565b6000815190506129c181613791565b92915050565b6000813590506129d6816137a8565b92915050565b6000815190506129eb816137a8565b92915050565b600082601f830112612a0257600080fd5b8135612a1284826020860161290c565b91505092915050565b600081359050612a2a816137bf565b92915050565b600082601f830112612a4157600080fd5b8135612a5184826020860161294a565b91505092915050565b600081359050612a69816137d6565b92915050565b600081519050612a7e816137d6565b92915050565b600060208284031215612a9657600080fd5b6000612aa484828501612988565b91505092915050565b60008060408385031215612ac057600080fd5b6000612ace85828601612988565b9250506020612adf85828601612988565b9150509250929050565b600080600060608486031215612afe57600080fd5b6000612b0c86828701612988565b9350506020612b1d86828701612988565b9250506040612b2e86828701612a5a565b9150509250925092565b60008060008060808587031215612b4e57600080fd5b6000612b5c87828801612988565b9450506020612b6d87828801612988565b9350506040612b7e87828801612a5a565b925050606085013567ffffffffffffffff811115612b9b57600080fd5b612ba7878288016129f1565b91505092959194509250565b60008060408385031215612bc657600080fd5b6000612bd485828601612988565b9250506020612be58582860161299d565b9150509250929050565b600080600080600060a08688031215612c0757600080fd5b6000612c1588828901612988565b955050602086013567ffffffffffffffff811115612c3257600080fd5b612c3e88828901612a30565b9450506040612c4f88828901612a5a565b9350506060612c6088828901612a5a565b9250506080612c7188828901612a5a565b9150509295509295909350565b60008060408385031215612c9157600080fd5b6000612c9f85828601612988565b9250506020612cb085828601612a5a565b9150509250929050565b600060208284031215612ccc57600080fd5b6000612cda8482850161299d565b91505092915050565b600060208284031215612cf557600080fd5b6000612d03848285016129b2565b91505092915050565b600060208284031215612d1e57600080fd5b6000612d2c848285016129c7565b91505092915050565b600060208284031215612d4757600080fd5b6000612d55848285016129dc565b91505092915050565b600060208284031215612d7057600080fd5b6000612d7e84828501612a1b565b91505092915050565b600060208284031215612d9957600080fd5b600082013567ffffffffffffffff811115612db357600080fd5b612dbf84828501612a30565b91505092915050565b600080600060608486031215612ddd57600080fd5b600084013567ffffffffffffffff811115612df757600080fd5b612e0386828701612a30565b935050602084013567ffffffffffffffff811115612e2057600080fd5b612e2c86828701612a30565b9250506040612e3d86828701612988565b9150509250925092565b600060208284031215612e5957600080fd5b6000612e6784828501612a5a565b91505092915050565b600060208284031215612e8257600080fd5b6000612e9084828501612a6f565b91505092915050565b612ea28161345d565b82525050565b612eb18161345d565b82525050565b612ec08161346f565b82525050565b6000612ed18261334e565b612edb8185613364565b9350612eeb818560208601613525565b612ef4816136f1565b840191505092915050565b612f0881613504565b82525050565b6000612f1982613359565b612f238185613375565b9350612f33818560208601613525565b612f3c816136f1565b840191505092915050565b6000612f5282613359565b612f5c8185613386565b9350612f6c818560208601613525565b612f75816136f1565b840191505092915050565b6000612f8b82613359565b612f958185613397565b9350612fa5818560208601613525565b80840191505092915050565b6000612fbe602e83613386565b9150612fc982613702565b604082019050919050565b6000612fe1601f83613386565b9150612fec82613751565b602082019050919050565b600060408301600083015161300f6000860182612e99565b50602083015184820360208601526130278282612f0e565b9150508091505092915050565b61303d816134d9565b82525050565b61304c816134e3565b82525050565b600061305e8285612f80565b915061306a8284612f80565b91508190509392505050565b600060208201905061308b6000830184612ea8565b92915050565b60006080820190506130a66000830187612ea8565b6130b36020830186612ea8565b6130c06040830185613034565b81810360608301526130d28184612ec6565b905095945050505050565b60006040820190506130f26000830185612ea8565b6130ff6020830184613034565b9392505050565b600060208201905061311b6000830184612eb7565b92915050565b600060a082019050818103600083015261313b8188612ec6565b9050818103602083015261314f8187612ff7565b905081810360408301526131638186612ec6565b90506131726060830185613043565b81810360808301526131848184612ec6565b90509695505050505050565b60006020820190506131a56000830184612eff565b92915050565b600060208201905081810360008301526131c58184612f47565b905092915050565b600060208201905081810360008301526131e681612fb1565b9050919050565b6000602082019050818103600083015261320681612fd4565b9050919050565b60006020820190506132226000830184613034565b92915050565b600060a08201905061323d6000830188613034565b818103602083015261324f8187612f47565b905061325e6040830186613034565b61326b6060830185613034565b6132786080830184613034565b9695505050505050565b60006080820190506132976000830187613034565b6132a46020830186613034565b6132b16040830185613034565b6132be6060830184612eb7565b95945050505050565b60006132d16132e2565b90506132dd828261358a565b919050565b6000604051905090565b600067ffffffffffffffff821115613307576133066136c2565b5b613310826136f1565b9050602081019050919050565b600067ffffffffffffffff821115613338576133376136c2565b5b613341826136f1565b9050602081019050919050565b600081519050919050565b600081519050919050565b600082825260208201905092915050565b600082825260208201905092915050565b600082825260208201905092915050565b600081905092915050565b60006133ad826134d9565b91506133b8836134d9565b9250827fffffffffffffffffffffffffffffffffffffffffffffffffffffffffffffffff038211156133ed576133ec613635565b5b828201905092915050565b6000613403826134d9565b915061340e836134d9565b92508261341e5761341d613664565b5b828204905092915050565b6000613434826134d9565b915061343f836134d9565b92508282101561345257613451613635565b5b828203905092915050565b6000613468826134b9565b9050919050565b60008115159050919050565b60007fffffffff0000000000000000000000000000000000000000000000000000000082169050919050565b60006134b28261345d565b9050919050565b600073ffffffffffffffffffffffffffffffffffffffff82169050919050565b6000819050919050565b600067ffffffffffffffff82169050919050565b600060ff82169050919050565b600061350f826134f7565b9050919050565b82818337600083830152505050565b60005b83811015613543578082015181840152602081019050613528565b83811115613552576000848401525b50505050565b6000600282049050600182168061357057607f821691505b6020821081141561358457613583613693565b5b50919050565b613593826136f1565b810181811067ffffffffffffffff821117156135b2576135b16136c2565b5b80604052505050565b60006135c6826134d9565b91507fffffffffffffffffffffffffffffffffffffffffffffffffffffffffffffffff8214156135f9576135f8613635565b5b600182019050919050565b600061360f826134d9565b915061361a836134d9565b92508261362a57613629613664565b5b828206905092915050565b7f4e487b7100000000000000000000000000000000000000000000000000000000600052601160045260246000fd5b7f4e487b7100000000000000000000000000000000000000000000000000000000600052601260045260246000fd5b7f4e487b7100000000000000000000000000000000000000000000000000000000600052602260045260246000fd5b7f4e487b7100000000000000000000000000000000000000000000000000000000600052604160045260246000fd5b6000601f19601f8301169050919050565b7f496e697469616c697a61626c653a20636f6e747261637420697320616c72656160008201527f647920696e697469616c697a6564000000000000000000000000000000000000602082015250565b7f5265656e7472616e637947756172643a207265656e7472616e742063616c6c00600082015250565b6137838161345d565b811461378e57600080fd5b50565b61379a8161346f565b81146137a557600080fd5b50565b6137b18161347b565b81146137bc57600080fd5b50565b6137c8816134a7565b81146137d357600080fd5b50565b6137df816134d9565b81146137ea57600080fd5b5056fea2646970667358221220f29767b1cd5f66507dc7af4bec519645308e2464935cd9f54d087840580da77b64736f6c63430008040033",
  "linkReferences": {},
  "deployedLinkReferences": {}
}