{
  "_format": "hh-sol-artifact-1",
  "contractName": "NFTGame",
  "sourceName": "contracts/NFTGame.sol",
  "abi": [
    {
      "inputs": [
        {
          "internalType": "address",
          "name": "_owner",
          "type": "address"
        }
      ],
      "stateMutability": "nonpayable",
      "type": "constructor"
    },
    {
      "inputs": [],
      "name": "AlreadyInitialized",
      "type": "error"
    },
    {
      "inputs": [],
      "name": "IncorrectOwner",
      "type": "error"
    },
    {
      "inputs": [],
      "name": "InsufficientAllowance",
      "type": "error"
    },
    {
      "inputs": [],
      "name": "InsufficientBalance",
      "type": "error"
    },
    {
      "inputs": [],
      "name": "InvalidTokenId",
      "type": "error"
    },
    {
      "inputs": [],
      "name": "MaxPerUserExceeded",
      "type": "error"
    },
    {
      "inputs": [],
      "name": "MaxSupplyExceeded",
      "type": "error"
    },
    {
      "inputs": [],
      "name": "MissingERC721Receiver",
      "type": "error"
    },
    {
      "inputs": [],
      "name": "PublicMintInactive",
      "type": "error"
    },
    {
      "inputs": [],
      "name": "SameAddress",
      "type": "error"
    },
    {
      "inputs": [],
      "name": "SameOwnerAndOperator",
      "type": "error"
    },
    {
      "inputs": [],
      "name": "TokenAlreadyMinted",
      "type": "error"
    },
    {
      "inputs": [],
      "name": "Unauthorized",
      "type": "error"
    },
    {
      "inputs": [],
      "name": "ZeroAddress",
      "type": "error"
    },
    {
      "anonymous": false,
      "inputs": [
        {
          "indexed": true,
          "internalType": "address",
          "name": "owner",
          "type": "address"
        },
        {
          "indexed": true,
          "internalType": "address",
          "name": "approved",
          "type": "address"
        },
        {
          "indexed": true,
          "internalType": "uint256",
          "name": "tokenId",
          "type": "uint256"
        }
      ],
      "name": "Approval",
      "type": "event"
    },
    {
      "anonymous": false,
      "inputs": [
        {
          "indexed": true,
          "internalType": "address",
          "name": "owner",
          "type": "address"
        },
        {
          "indexed": true,
          "internalType": "address",
          "name": "operator",
          "type": "address"
        },
        {
          "indexed": false,
          "internalType": "bool",
          "name": "approved",
          "type": "bool"
        }
      ],
      "name": "ApprovalForAll",
      "type": "event"
    },
    {
      "anonymous": false,
      "inputs": [
        {
          "indexed": false,
          "internalType": "uint8",
          "name": "version",
          "type": "uint8"
        }
      ],
      "name": "Initialized",
      "type": "event"
    },
    {
      "anonymous": false,
      "inputs": [
        {
          "indexed": true,
          "internalType": "address",
          "name": "from",
          "type": "address"
        },
        {
          "indexed": true,
          "internalType": "address",
          "name": "to",
          "type": "address"
        },
        {
          "indexed": true,
          "internalType": "uint256",
          "name": "tokenId",
          "type": "uint256"
        }
      ],
      "name": "Transfer",
      "type": "event"
    },
    {
      "inputs": [],
      "name": "_collectionInfo",
      "outputs": [
        {
          "internalType": "uint256",
          "name": "price",
          "type": "uint256"
        },
        {
          "internalType": "uint256",
          "name": "maxSupply",
          "type": "uint256"
        },
        {
          "internalType": "uint256",
          "name": "maxPerUser",
          "type": "uint256"
        },
        {
          "internalType": "bool",
          "name": "isPublicSaleActive",
          "type": "bool"
        }
      ],
      "stateMutability": "view",
      "type": "function"
    },
    {
      "inputs": [],
      "name": "_tenantOwner",
      "outputs": [
        {
          "internalType": "address",
          "name": "",
          "type": "address"
        }
      ],
      "stateMutability": "view",
      "type": "function"
    },
    {
      "inputs": [
        {
          "internalType": "address",
          "name": "_to",
          "type": "address"
        },
        {
          "internalType": "uint256",
          "name": "_tokenId",
          "type": "uint256"
        }
      ],
      "name": "approve",
      "outputs": [],
      "stateMutability": "nonpayable",
      "type": "function"
    },
    {
      "inputs": [
        {
          "internalType": "address",
          "name": "_owner",
          "type": "address"
        }
      ],
      "name": "balanceOf",
      "outputs": [
        {
          "internalType": "uint256",
          "name": "",
          "type": "uint256"
        }
      ],
      "stateMutability": "view",
      "type": "function"
    },
    {
      "inputs": [],
      "name": "contractOwner",
      "outputs": [
        {
          "internalType": "address",
          "name": "",
          "type": "address"
        }
      ],
      "stateMutability": "view",
      "type": "function"
    },
    {
      "inputs": [
        {
          "internalType": "uint256",
          "name": "_tokenId",
          "type": "uint256"
        }
      ],
      "name": "getApproved",
      "outputs": [
        {
          "internalType": "address",
          "name": "",
          "type": "address"
        }
      ],
      "stateMutability": "view",
      "type": "function"
    },
    {
      "inputs": [
        {
          "internalType": "uint256",
          "name": "_tokenId",
          "type": "uint256"
        }
      ],
      "name": "getAttributesByTokenId",
      "outputs": [
        {
          "internalType": "uint256",
          "name": "",
          "type": "uint256"
        },
        {
          "internalType": "string",
          "name": "",
          "type": "string"
        },
        {
          "internalType": "uint256",
          "name": "",
          "type": "uint256"
        },
        {
          "internalType": "uint256",
          "name": "",
          "type": "uint256"
        },
        {
          "internalType": "uint256",
          "name": "",
          "type": "uint256"
        }
      ],
      "stateMutability": "view",
      "type": "function"
    },
    {
      "inputs": [],
      "name": "getBaseURI",
      "outputs": [
        {
          "internalType": "string",
          "name": "",
          "type": "string"
        }
      ],
      "stateMutability": "view",
      "type": "function"
    },
    {
      "inputs": [
        {
          "internalType": "string",
          "name": "name_",
          "type": "string"
        },
        {
          "internalType": "string",
          "name": "symbol_",
          "type": "string"
        },
        {
          "internalType": "address",
          "name": "tenant_",
          "type": "address"
        }
      ],
      "name": "initialize",
      "outputs": [],
      "stateMutability": "nonpayable",
      "type": "function"
    },
    {
      "inputs": [
        {
          "internalType": "address",
          "name": "_owner",
          "type": "address"
        },
        {
          "internalType": "address",
          "name": "_operator",
          "type": "address"
        }
      ],
      "name": "isApprovedForAll",
      "outputs": [
        {
          "internalType": "bool",
          "name": "",
          "type": "bool"
        }
      ],
      "stateMutability": "view",
      "type": "function"
    },
    {
      "inputs": [],
      "name": "isPublicSaleActive",
      "outputs": [
        {
          "internalType": "bool",
          "name": "",
          "type": "bool"
        }
      ],
      "stateMutability": "view",
      "type": "function"
    },
    {
      "inputs": [],
      "name": "metadata",
      "outputs": [
        {
          "internalType": "bytes",
          "name": "title",
          "type": "bytes"
        },
        {
          "components": [
            {
              "internalType": "address",
              "name": "authorAddress",
              "type": "address"
            },
            {
              "internalType": "string",
              "name": "externalLink",
              "type": "string"
            }
          ],
          "internalType": "struct IHyperverseModule.Author",
          "name": "author",
          "type": "tuple"
        },
        {
          "internalType": "bytes",
          "name": "version",
          "type": "bytes"
        },
        {
          "internalType": "uint64",
          "name": "publishedAt",
          "type": "uint64"
        },
        {
          "internalType": "bytes",
          "name": "externalLink",
          "type": "bytes"
        }
      ],
      "stateMutability": "view",
      "type": "function"
    },
    {
      "inputs": [
        {
          "internalType": "address",
          "name": "_to",
          "type": "address"
        },
        {
          "internalType": "string",
          "name": "_tokenName",
          "type": "string"
        },
        {
          "internalType": "uint256",
          "name": "_eyeId",
          "type": "uint256"
        },
        {
          "internalType": "uint256",
          "name": "_mouthId",
          "type": "uint256"
        },
        {
          "internalType": "uint256",
          "name": "_bodyId",
          "type": "uint256"
        }
      ],
      "name": "mint",
      "outputs": [
        {
          "internalType": "uint256",
          "name": "",
          "type": "uint256"
        }
      ],
      "stateMutability": "payable",
      "type": "function"
    },
    {
      "inputs": [],
      "name": "name",
      "outputs": [
        {
          "internalType": "string",
          "name": "",
          "type": "string"
        }
      ],
      "stateMutability": "view",
      "type": "function"
    },
    {
      "inputs": [
        {
          "internalType": "uint256",
          "name": "_tokenId",
          "type": "uint256"
        }
      ],
      "name": "ownerOf",
      "outputs": [
        {
          "internalType": "address",
          "name": "",
          "type": "address"
        }
      ],
      "stateMutability": "view",
      "type": "function"
    },
    {
      "inputs": [
        {
          "internalType": "address",
          "name": "_from",
          "type": "address"
        },
        {
          "internalType": "address",
          "name": "_to",
          "type": "address"
        },
        {
          "internalType": "uint256",
          "name": "_tokenId",
          "type": "uint256"
        }
      ],
      "name": "safeTransferFrom",
      "outputs": [],
      "stateMutability": "nonpayable",
      "type": "function"
    },
    {
      "inputs": [
        {
          "internalType": "address",
          "name": "_from",
          "type": "address"
        },
        {
          "internalType": "address",
          "name": "_to",
          "type": "address"
        },
        {
          "internalType": "uint256",
          "name": "_tokenId",
          "type": "uint256"
        },
        {
          "internalType": "bytes",
          "name": "_data",
          "type": "bytes"
        }
      ],
      "name": "safeTransferFrom",
      "outputs": [],
      "stateMutability": "nonpayable",
      "type": "function"
    },
    {
      "inputs": [
        {
          "internalType": "address",
          "name": "_operator",
          "type": "address"
        },
        {
          "internalType": "bool",
          "name": "_approved",
          "type": "bool"
        }
      ],
      "name": "setApprovalForAll",
      "outputs": [],
      "stateMutability": "nonpayable",
      "type": "function"
    },
    {
      "inputs": [
        {
          "internalType": "string",
          "name": "baseURI_",
          "type": "string"
        }
      ],
      "name": "setBaseURI",
      "outputs": [],
      "stateMutability": "nonpayable",
      "type": "function"
    },
    {
      "inputs": [
        {
          "internalType": "bool",
          "name": "_isActive",
          "type": "bool"
        }
      ],
      "name": "setMintPermissions",
      "outputs": [],
      "stateMutability": "nonpayable",
      "type": "function"
    },
    {
      "inputs": [
        {
          "internalType": "bytes4",
          "name": "_interfaceId",
          "type": "bytes4"
        }
      ],
      "name": "supportsInterface",
      "outputs": [
        {
          "internalType": "bool",
          "name": "",
          "type": "bool"
        }
      ],
      "stateMutability": "view",
      "type": "function"
    },
    {
      "inputs": [],
      "name": "symbol",
      "outputs": [
        {
          "internalType": "string",
          "name": "",
          "type": "string"
        }
      ],
      "stateMutability": "view",
      "type": "function"
    },
    {
      "inputs": [
        {
          "internalType": "address",
          "name": "_reciever",
          "type": "address"
        },
        {
          "internalType": "string",
          "name": "_tokenName",
          "type": "string"
        },
        {
          "internalType": "uint256",
          "name": "_eyeId",
          "type": "uint256"
        },
        {
          "internalType": "uint256",
          "name": "_mouthId",
          "type": "uint256"
        },
        {
          "internalType": "uint256",
          "name": "_bodyId",
          "type": "uint256"
        }
      ],
      "name": "tenantMint",
      "outputs": [
        {
          "internalType": "uint256",
          "name": "",
          "type": "uint256"
        }
      ],
      "stateMutability": "nonpayable",
      "type": "function"
    },
    {
      "inputs": [
        {
          "internalType": "uint256",
          "name": "_tokenId",
          "type": "uint256"
        }
      ],
      "name": "tokenURI",
      "outputs": [
        {
          "internalType": "string",
          "name": "",
          "type": "string"
        }
      ],
      "stateMutability": "view",
      "type": "function"
    },
    {
      "inputs": [
        {
          "internalType": "address",
          "name": "_from",
          "type": "address"
        },
        {
          "internalType": "address",
          "name": "_to",
          "type": "address"
        },
        {
          "internalType": "uint256",
          "name": "_tokenId",
          "type": "uint256"
        }
      ],
      "name": "transferFrom",
      "outputs": [],
      "stateMutability": "nonpayable",
      "type": "function"
    },
    {
      "inputs": [],
      "name": "withdraw",
      "outputs": [],
      "stateMutability": "nonpayable",
      "type": "function"
    },
    {
      "inputs": [
        {
          "internalType": "contract IERC20",
          "name": "_token",
          "type": "address"
        }
      ],
      "name": "withdrawTokens",
      "outputs": [],
      "stateMutability": "nonpayable",
      "type": "function"
    }
  ],
  "bytecode": "0x60a06040523480156200001157600080fd5b50604051620040893803806200408983398181016040528101906200003791906200040c565b60016000819055506040518060a001604052806040518060400160405280600781526020017f4e465447616d6500000000000000000000000000000000000000000000000000815250815260200160405180604001604052808473ffffffffffffffffffffffffffffffffffffffff1681526020016040518060400160405280601881526020017f68747470733a2f2f65787465726e616c6c696e6b2e6e6574000000000000000081525081525081526020016040518060400160405280600581526020017f302e302e31000000000000000000000000000000000000000000000000000000815250815260200165032a361e860667ffffffffffffffff1681526020016040518060400160405280601881526020017f68747470733a2f2f65787465726e616c4c696e6b2e6e657400000000000000008152508152506002600082015181600001908051906020019062000194929190620002b4565b5060208201518160010160008201518160000160006101000a81548173ffffffffffffffffffffffffffffffffffffffff021916908373ffffffffffffffffffffffffffffffffffffffff16021790555060208201518160010190805190602001906200020392919062000345565b505050604082015181600301908051906020019062000224929190620002b4565b5060608201518160040160006101000a81548167ffffffffffffffff021916908367ffffffffffffffff160217905550608082015181600501908051906020019062000272929190620002b4565b509050508073ffffffffffffffffffffffffffffffffffffffff1660808173ffffffffffffffffffffffffffffffffffffffff1660601b8152505050620004eb565b828054620002c2906200046c565b90600052602060002090601f016020900481019282620002e6576000855562000332565b82601f106200030157805160ff191683800117855562000332565b8280016001018555821562000332579182015b828111156200033157825182559160200191906001019062000314565b5b509050620003419190620003d6565b5090565b82805462000353906200046c565b90600052602060002090601f016020900481019282620003775760008555620003c3565b82601f106200039257805160ff1916838001178555620003c3565b82800160010185558215620003c3579182015b82811115620003c2578251825591602001919060010190620003a5565b5b509050620003d29190620003d6565b5090565b5b80821115620003f1576000816000905550600101620003d7565b5090565b6000815190506200040681620004d1565b92915050565b6000602082840312156200041f57600080fd5b60006200042f84828501620003f5565b91505092915050565b600062000445826200044c565b9050919050565b600073ffffffffffffffffffffffffffffffffffffffff82169050919050565b600060028204905060018216806200048557607f821691505b602082108114156200049c576200049b620004a2565b5b50919050565b7f4e487b7100000000000000000000000000000000000000000000000000000000600052602260045260246000fd5b620004dc8162000438565b8114620004e857600080fd5b50565b60805160601c613b7f6200050a60003960006119df0152613b7f6000f3fe60806040526004361061019c5760003560e01c806349df728c116100ec57806397ee73bb1161008a578063c87b56dd11610064578063c87b56dd146105c2578063ce606ee0146105ff578063e51fde211461062a578063e985e9c5146106675761019c565b806397ee73bb14610542578063a22cb46514610570578063b88d4fde146105995761019c565b806370a08231116100c657806370a082311461046e578063714c5398146104ab5780637e4d03d8146104d657806395d89b41146105175761019c565b806349df728c146103df57806355f804b3146104085780636352211e146104315761019c565b80631e84c413116101595780633ccfd60b116101335780633ccfd60b146103465780633e2b81c41461035d57806342842e0e1461038657806348bc17bf146103af5761019c565b80631e84c413146102c357806323b872dd146102ee578063392f37e9146103175761019c565b806301ffc9a7146101a157806306fdde03146101de578063077f224a14610209578063081812fc14610232578063095ea7b31461026f5780630b8eb2cf14610298575b600080fd5b3480156101ad57600080fd5b506101c860048036038101906101c39190613001565b6106a4565b6040516101d591906133fb565b60405180910390f35b3480156101ea57600080fd5b506101f3610786565b60405161020091906134a0565b60405180910390f35b34801561021557600080fd5b50610230600480360381019061022b91906130bd565b610818565b005b34801561023e57600080fd5b506102596004803603810190610254919061313c565b61099f565b604051610266919061336b565b60405180910390f35b34801561027b57600080fd5b5061029660048036038101906102919190612f73565b6109e5565b005b3480156102a457600080fd5b506102ad610aee565b6040516102ba919061336b565b60405180910390f35b3480156102cf57600080fd5b506102d8610b14565b6040516102e591906133fb565b60405180910390f35b3480156102fa57600080fd5b5061031560048036038101906103109190612dde565b610b27565b005b34801561032357600080fd5b5061032c610b7e565b60405161033d959493929190613416565b60405180910390f35b34801561035257600080fd5b5061035b610e40565b005b34801561036957600080fd5b50610384600480360381019061037f9190612faf565b610f16565b005b34801561039257600080fd5b506103ad60048036038101906103a89190612dde565b610fba565b005b6103c960048036038101906103c49190612ee4565b610fda565b6040516103d69190613569565b60405180910390f35b3480156103eb57600080fd5b5061040660048036038101906104019190613053565b611125565b005b34801561041457600080fd5b5061042f600480360381019061042a919061307c565b6112cb565b005b34801561043d57600080fd5b506104586004803603810190610453919061313c565b61136c565b604051610465919061336b565b60405180910390f35b34801561047a57600080fd5b5061049560048036038101906104909190612d79565b611415565b6040516104a29190613569565b60405180910390f35b3480156104b757600080fd5b506104c06114c4565b6040516104cd91906134a0565b60405180910390f35b3480156104e257600080fd5b506104fd60048036038101906104f8919061313c565b611582565b60405161050e959493929190613584565b60405180910390f35b34801561052357600080fd5b5061052c611659565b60405161053991906134a0565b60405180910390f35b34801561054e57600080fd5b506105576116eb565b60405161056794939291906135de565b60405180910390f35b34801561057c57600080fd5b5061059760048036038101906105929190612ea8565b611716565b005b3480156105a557600080fd5b506105c060048036038101906105bb9190612e2d565b61172c565b005b3480156105ce57600080fd5b506105e960048036038101906105e4919061313c565b611785565b6040516105f691906134a0565b60405180910390f35b34801561060b57600080fd5b506106146119dd565b604051610621919061336b565b60405180910390f35b34801561063657600080fd5b50610651600480360381019061064c9190612ee4565b611a01565b60405161065e9190613569565b60405180910390f35b34801561067357600080fd5b5061068e60048036038101906106899190612da2565b611b2f565b60405161069b91906133fb565b60405180910390f35b60007f80ac58cd000000000000000000000000000000000000000000000000000000007bffffffffffffffffffffffffffffffffffffffffffffffffffffffff1916827bffffffffffffffffffffffffffffffffffffffffffffffffffffffff1916148061076f57507f5b5e139f000000000000000000000000000000000000000000000000000000007bffffffffffffffffffffffffffffffffffffffffffffffffffffffff1916827bffffffffffffffffffffffffffffffffffffffffffffffffffffffff1916145b8061077f575061077e82611bc3565b5b9050919050565b6060600b8054610795906138b4565b80601f01602080910402602001604051908101604052809291908181526020018280546107c1906138b4565b801561080e5780601f106107e35761010080835404028352916020019161080e565b820191906000526020600020905b8154815290600101906020018083116107f157829003601f168201915b5050505050905090565b60006108246001611c2d565b905080156108475760018060016101000a81548160ff0219169083151502179055505b81600073ffffffffffffffffffffffffffffffffffffffff16600960009054906101000a900473ffffffffffffffffffffffffffffffffffffffff1673ffffffffffffffffffffffffffffffffffffffff16146108d0576040517f0dc149f000000000000000000000000000000000000000000000000000000000815260040160405180910390fd5b84600b90805190602001906108e6929190612b5e565b5083600c90805190602001906108fd929190612b5e565b5082600960006101000a81548173ffffffffffffffffffffffffffffffffffffffff021916908373ffffffffffffffffffffffffffffffffffffffff1602179055505080156109995760006001806101000a81548160ff0219169083151502179055507f7f26b83ff96e1f2b6a682f133852f6798a09c465da95921460cefb384740249860016040516109909190613485565b60405180910390a15b50505050565b60006109aa82611d1f565b6015600083815260200190815260200160002060009054906101000a900473ffffffffffffffffffffffffffffffffffffffff169050919050565b60006109f08261136c565b90508273ffffffffffffffffffffffffffffffffffffffff168173ffffffffffffffffffffffffffffffffffffffff161415610a58576040517f367558c300000000000000000000000000000000000000000000000000000000815260040160405180910390fd5b8073ffffffffffffffffffffffffffffffffffffffff16610a77611d61565b73ffffffffffffffffffffffffffffffffffffffff16141580610aa85750610aa681610aa1611d61565b611b2f565b155b15610adf576040517f82b4290000000000000000000000000000000000000000000000000000000000815260040160405180910390fd5b610ae98383611d69565b505050565b600960009054906101000a900473ffffffffffffffffffffffffffffffffffffffff1681565b600e60009054906101000a900460ff1681565b610b38610b32611d61565b82611e22565b610b6e576040517f82b4290000000000000000000000000000000000000000000000000000000000815260040160405180910390fd5b610b79838383611eb7565b505050565b6002806000018054610b8f906138b4565b80601f0160208091040260200160405190810160405280929190818152602001828054610bbb906138b4565b8015610c085780601f10610bdd57610100808354040283529160200191610c08565b820191906000526020600020905b815481529060010190602001808311610beb57829003601f168201915b505050505090806001016040518060400160405290816000820160009054906101000a900473ffffffffffffffffffffffffffffffffffffffff1673ffffffffffffffffffffffffffffffffffffffff1673ffffffffffffffffffffffffffffffffffffffff168152602001600182018054610c83906138b4565b80601f0160208091040260200160405190810160405280929190818152602001828054610caf906138b4565b8015610cfc5780601f10610cd157610100808354040283529160200191610cfc565b820191906000526020600020905b815481529060010190602001808311610cdf57829003601f168201915b50505050508152505090806003018054610d15906138b4565b80601f0160208091040260200160405190810160405280929190818152602001828054610d41906138b4565b8015610d8e5780601f10610d6357610100808354040283529160200191610d8e565b820191906000526020600020905b815481529060010190602001808311610d7157829003601f168201915b5050505050908060040160009054906101000a900467ffffffffffffffff1690806005018054610dbd906138b4565b80601f0160208091040260200160405190810160405280929190818152602001828054610de9906138b4565b8015610e365780601f10610e0b57610100808354040283529160200191610e36565b820191906000526020600020905b815481529060010190602001808311610e1957829003601f168201915b5050505050905085565b600960009054906101000a900473ffffffffffffffffffffffffffffffffffffffff1673ffffffffffffffffffffffffffffffffffffffff163373ffffffffffffffffffffffffffffffffffffffff1614610ec7576040517f82b4290000000000000000000000000000000000000000000000000000000000815260040160405180910390fd5b60004790503373ffffffffffffffffffffffffffffffffffffffff166108fc829081150290604051600060405180830381858888f19350505050158015610f12573d6000803e3d6000fd5b5050565b600960009054906101000a900473ffffffffffffffffffffffffffffffffffffffff1673ffffffffffffffffffffffffffffffffffffffff163373ffffffffffffffffffffffffffffffffffffffff1614610f9d576040517f82b4290000000000000000000000000000000000000000000000000000000000815260040160405180910390fd5b80600e60006101000a81548160ff02191690831515021790555050565b610fd58383836040518060200160405280600081525061172c565b505050565b600060026000541415611022576040517f08c379a000000000000000000000000000000000000000000000000000000000815260040161101990613549565b60405180910390fd5b600260008190555060001515600e60009054906101000a900460ff1615151415611078576040517f15b1bdcd00000000000000000000000000000000000000000000000000000000815260040160405180910390fd5b600061108261210c565b90506040518060a0016040528082815260200187815260200186815260200185815260200184815250601760008381526020019081526020016000206000820151816000015560208201518160010190805190602001906110e4929190612b5e565b506040820151816002015560608201518160030155608082015181600401559050506111108782612127565b80915050600160008190555095945050505050565b600960009054906101000a900473ffffffffffffffffffffffffffffffffffffffff1673ffffffffffffffffffffffffffffffffffffffff163373ffffffffffffffffffffffffffffffffffffffff16146111ac576040517f82b4290000000000000000000000000000000000000000000000000000000000815260040160405180910390fd5b60008173ffffffffffffffffffffffffffffffffffffffff166370a08231306040518263ffffffff1660e01b81526004016111e7919061336b565b60206040518083038186803b1580156111ff57600080fd5b505afa158015611213573d6000803e3d6000fd5b505050506040513d601f19601f820116820180604052508101906112379190613165565b90508173ffffffffffffffffffffffffffffffffffffffff1663a9059cbb33836040518363ffffffff1660e01b81526004016112749291906133d2565b602060405180830381600087803b15801561128e57600080fd5b505af11580156112a2573d6000803e3d6000fd5b505050506040513d601f19601f820116820180604052508101906112c69190612fd8565b505050565b600960009054906101000a900473ffffffffffffffffffffffffffffffffffffffff1673ffffffffffffffffffffffffffffffffffffffff163373ffffffffffffffffffffffffffffffffffffffff1614611352576040517f82b4290000000000000000000000000000000000000000000000000000000000815260040160405180910390fd5b80600d9080519060200190611368929190612b5e565b5050565b6000806013600084815260200190815260200160002060009054906101000a900473ffffffffffffffffffffffffffffffffffffffff169050600073ffffffffffffffffffffffffffffffffffffffff168173ffffffffffffffffffffffffffffffffffffffff16141561140c576040517f3f6cc76800000000000000000000000000000000000000000000000000000000815260040160405180910390fd5b80915050919050565b60008073ffffffffffffffffffffffffffffffffffffffff168273ffffffffffffffffffffffffffffffffffffffff16141561147d576040517fd92e233d00000000000000000000000000000000000000000000000000000000815260040160405180910390fd5b601460008373ffffffffffffffffffffffffffffffffffffffff1673ffffffffffffffffffffffffffffffffffffffff168152602001908152602001600020549050919050565b60606000600d80546114d5906138b4565b9050116114f1576040518060200160405280600081525061157d565b600d80546114fe906138b4565b80601f016020809104026020016040519081016040528092919081815260200182805461152a906138b4565b80156115775780601f1061154c57610100808354040283529160200191611577565b820191906000526020600020905b81548152906001019060200180831161155a57829003601f168201915b50505050505b905090565b600060606000806000806017600088815260200190815260200160002090508060000154816001018260020154836003015484600401548380546115c5906138b4565b80601f01602080910402602001604051908101604052809291908181526020018280546115f1906138b4565b801561163e5780601f106116135761010080835404028352916020019161163e565b820191906000526020600020905b81548152906001019060200180831161162157829003601f168201915b50505050509350955095509550955095505091939590929450565b6060600c8054611668906138b4565b80601f0160208091040260200160405190810160405280929190818152602001828054611694906138b4565b80156116e15780601f106116b6576101008083540402835291602001916116e1565b820191906000526020600020905b8154815290600101906020018083116116c457829003601f168201915b5050505050905090565b600f8060000154908060010154908060020154908060030160009054906101000a900460ff16905084565b611728611721611d61565b8383612145565b5050565b61173d611737611d61565b83611e22565b611773576040517f82b4290000000000000000000000000000000000000000000000000000000000815260040160405180910390fd5b61177f84848484612310565b50505050565b606061179082611d1f565b6117cf6040518060400160405280601581526020017f746f6b656e496420696e20636f6e74726163742031000000000000000000000081525083612363565b600e60019054906101000a900460ff16611901576118216040518060400160405280600981526020017f696e2074686520696600000000000000000000000000000000000000000000008152506123ff565b6000601860008481526020019081526020016000208054611841906138b4565b90501161185d57604051806020016040528060008152506118fa565b60186000838152602001908152602001600020805461187b906138b4565b80601f01602080910402602001604051908101604052809291908181526020018280546118a7906138b4565b80156118f45780601f106118c9576101008083540402835291602001916118f4565b820191906000526020600020905b8154815290600101906020018083116118d757829003601f168201915b50505050505b90506119d8565b6119406040518060400160405280601381526020017f746f6b656e496420696e20636f6e74726163740000000000000000000000000081525083612363565b600061194a6114c4565b905061198b6040518060400160405280600881526020017f626173652055524900000000000000000000000000000000000000000000000081525082612498565b60008151116119a957604051806020016040528060008152506119d4565b806119b384612534565b6040516020016119c4929190613347565b6040516020818303038152906040525b9150505b919050565b7f000000000000000000000000000000000000000000000000000000000000000081565b6000600960009054906101000a900473ffffffffffffffffffffffffffffffffffffffff1673ffffffffffffffffffffffffffffffffffffffff163373ffffffffffffffffffffffffffffffffffffffff1614611a8a576040517f82b4290000000000000000000000000000000000000000000000000000000000815260040160405180910390fd5b6000611a9461210c565b90506040518060a001604052808281526020018781526020018681526020018581526020018481525060176000838152602001908152602001600020600082015181600001556020820151816001019080519060200190611af6929190612b5e565b50604082015181600201556060820151816003015560808201518160040155905050611b228782612127565b8091505095945050505050565b6000601660008473ffffffffffffffffffffffffffffffffffffffff1673ffffffffffffffffffffffffffffffffffffffff16815260200190815260200160002060008373ffffffffffffffffffffffffffffffffffffffff1673ffffffffffffffffffffffffffffffffffffffff16815260200190815260200160002060009054906101000a900460ff16905092915050565b60007f01ffc9a7000000000000000000000000000000000000000000000000000000007bffffffffffffffffffffffffffffffffffffffffffffffffffffffff1916827bffffffffffffffffffffffffffffffffffffffffffffffffffffffff1916149050919050565b600060018054906101000a900460ff1615611ca35760018260ff16148015611c5b5750611c59306126e1565b155b611c9a576040517f08c379a0000000000000000000000000000000000000000000000000000000008152600401611c9190613529565b60405180910390fd5b60009050611d1a565b8160ff16600160009054906101000a900460ff1660ff1610611cfa576040517f08c379a0000000000000000000000000000000000000000000000000000000008152600401611cf190613529565b60405180910390fd5b81600160006101000a81548160ff021916908360ff160217905550600190505b919050565b611d28816126f4565b611d5e576040517f3f6cc76800000000000000000000000000000000000000000000000000000000815260040160405180910390fd5b50565b600033905090565b816015600083815260200190815260200160002060006101000a81548173ffffffffffffffffffffffffffffffffffffffff021916908373ffffffffffffffffffffffffffffffffffffffff160217905550808273ffffffffffffffffffffffffffffffffffffffff16611ddc8361136c565b73ffffffffffffffffffffffffffffffffffffffff167f8c5be1e5ebec7d5bd14f71427d1e84f3dd0314c0f7b2291e5b200ac8c7c3b92560405160405180910390a45050565b600080611e2e8361136c565b90508073ffffffffffffffffffffffffffffffffffffffff168473ffffffffffffffffffffffffffffffffffffffff161480611e705750611e6f8185611b2f565b5b80611eae57508373ffffffffffffffffffffffffffffffffffffffff16611e968461099f565b73ffffffffffffffffffffffffffffffffffffffff16145b91505092915050565b8273ffffffffffffffffffffffffffffffffffffffff16611ed78261136c565b73ffffffffffffffffffffffffffffffffffffffff1614611f24576040517f3a6bbed300000000000000000000000000000000000000000000000000000000815260040160405180910390fd5b600073ffffffffffffffffffffffffffffffffffffffff168273ffffffffffffffffffffffffffffffffffffffff161415611f8b576040517fd92e233d00000000000000000000000000000000000000000000000000000000815260040160405180910390fd5b611f96838383612760565b611fa1600082611d69565b6001601460008573ffffffffffffffffffffffffffffffffffffffff1673ffffffffffffffffffffffffffffffffffffffff1681526020019081526020016000206000828254611ff19190613785565b925050819055506001601460008473ffffffffffffffffffffffffffffffffffffffff1673ffffffffffffffffffffffffffffffffffffffff168152602001908152602001600020600082825461204891906136fe565b92505081905550816013600083815260200190815260200160002060006101000a81548173ffffffffffffffffffffffffffffffffffffffff021916908373ffffffffffffffffffffffffffffffffffffffff160217905550808273ffffffffffffffffffffffffffffffffffffffff168473ffffffffffffffffffffffffffffffffffffffff167fddf252ad1be2c89b69c2b068fc378daa952ba7f163c4a11628f55a4df523b3ef60405160405180910390a4612107838383612765565b505050565b6000612118600a61276a565b612122600a612780565b905090565b61214182826040518060200160405280600081525061278e565b5050565b600073ffffffffffffffffffffffffffffffffffffffff168273ffffffffffffffffffffffffffffffffffffffff1614156121ac576040517fd92e233d00000000000000000000000000000000000000000000000000000000815260040160405180910390fd5b8173ffffffffffffffffffffffffffffffffffffffff168373ffffffffffffffffffffffffffffffffffffffff161415612212576040517ff4b33eeb00000000000000000000000000000000000000000000000000000000815260040160405180910390fd5b80601660008573ffffffffffffffffffffffffffffffffffffffff1673ffffffffffffffffffffffffffffffffffffffff16815260200190815260200160002060008473ffffffffffffffffffffffffffffffffffffffff1673ffffffffffffffffffffffffffffffffffffffff16815260200190815260200160002060006101000a81548160ff0219169083151502179055508173ffffffffffffffffffffffffffffffffffffffff168373ffffffffffffffffffffffffffffffffffffffff167f17307eab39ab6107e8899845ad3d59bd9653f200f220920489ca2b5937696c318360405161230391906133fb565b60405180910390a3505050565b61231b848484611eb7565b612327848484846127e0565b61235d576040517f44ccafd600000000000000000000000000000000000000000000000000000000815260040160405180910390fd5b50505050565b6123fb82826040516024016123799291906134f9565b6040516020818303038152906040527f9710a9d0000000000000000000000000000000000000000000000000000000007bffffffffffffffffffffffffffffffffffffffffffffffffffffffff19166020820180517bffffffffffffffffffffffffffffffffffffffffffffffffffffffff838183161783525050505061296e565b5050565b6124958160405160240161241391906134a0565b6040516020818303038152906040527f41304fac000000000000000000000000000000000000000000000000000000007bffffffffffffffffffffffffffffffffffffffffffffffffffffffff19166020820180517bffffffffffffffffffffffffffffffffffffffffffffffffffffffff838183161783525050505061296e565b50565b61253082826040516024016124ae9291906134c2565b6040516020818303038152906040527f4b5c4277000000000000000000000000000000000000000000000000000000007bffffffffffffffffffffffffffffffffffffffffffffffffffffffff19166020820180517bffffffffffffffffffffffffffffffffffffffffffffffffffffffff838183161783525050505061296e565b5050565b6060600082141561257c576040518060400160405280600181526020017f300000000000000000000000000000000000000000000000000000000000000081525090506126dc565b600082905060005b600082146125ae57808061259790613917565b915050600a826125a79190613754565b9150612584565b60008167ffffffffffffffff8111156125f0577f4e487b7100000000000000000000000000000000000000000000000000000000600052604160045260246000fd5b6040519080825280601f01601f1916602001820160405280156126225781602001600182028036833780820191505090505b5090505b600085146126d55760018261263b9190613785565b9150600a8561264a9190613960565b603061265691906136fe565b60f81b818381518110612692577f4e487b7100000000000000000000000000000000000000000000000000000000600052603260045260246000fd5b60200101907effffffffffffffffffffffffffffffffffffffffffffffffffffffffffffff1916908160001a905350600a856126ce9190613754565b9450612626565b8093505050505b919050565b600080823b905060008111915050919050565b60008073ffffffffffffffffffffffffffffffffffffffff166013600084815260200190815260200160002060009054906101000a900473ffffffffffffffffffffffffffffffffffffffff1673ffffffffffffffffffffffffffffffffffffffff1614159050919050565b505050565b505050565b6001816000016000828254019250508190555050565b600081600001549050919050565b6127988383612997565b6127a560008484846127e0565b6127db576040517f44ccafd600000000000000000000000000000000000000000000000000000000815260040160405180910390fd5b505050565b60006128018473ffffffffffffffffffffffffffffffffffffffff166126e1565b15612961578373ffffffffffffffffffffffffffffffffffffffff1663150b7a0261282a611d61565b8786866040518563ffffffff1660e01b815260040161284c9493929190613386565b602060405180830381600087803b15801561286657600080fd5b505af192505050801561289757506040513d601f19601f82011682018060405250810190612894919061302a565b60015b612911573d80600081146128c7576040519150601f19603f3d011682016040523d82523d6000602084013e6128cc565b606091505b50600081511415612909576040517f44ccafd600000000000000000000000000000000000000000000000000000000815260040160405180910390fd5b805181602001fd5b63150b7a0260e01b7bffffffffffffffffffffffffffffffffffffffffffffffffffffffff1916817bffffffffffffffffffffffffffffffffffffffffffffffffffffffff191614915050612966565b600190505b949350505050565b60008151905060006a636f6e736f6c652e6c6f679050602083016000808483855afa5050505050565b600073ffffffffffffffffffffffffffffffffffffffff168273ffffffffffffffffffffffffffffffffffffffff1614156129fe576040517fd92e233d00000000000000000000000000000000000000000000000000000000815260040160405180910390fd5b612a07816126f4565b15612a3d576040517ea5a1f500000000000000000000000000000000000000000000000000000000815260040160405180910390fd5b612a4960008383612760565b6001601460008473ffffffffffffffffffffffffffffffffffffffff1673ffffffffffffffffffffffffffffffffffffffff1681526020019081526020016000206000828254612a9991906136fe565b92505081905550816013600083815260200190815260200160002060006101000a81548173ffffffffffffffffffffffffffffffffffffffff021916908373ffffffffffffffffffffffffffffffffffffffff160217905550808273ffffffffffffffffffffffffffffffffffffffff16600073ffffffffffffffffffffffffffffffffffffffff167fddf252ad1be2c89b69c2b068fc378daa952ba7f163c4a11628f55a4df523b3ef60405160405180910390a4612b5a60008383612765565b5050565b828054612b6a906138b4565b90600052602060002090601f016020900481019282612b8c5760008555612bd3565b82601f10612ba557805160ff1916838001178555612bd3565b82800160010185558215612bd3579182015b82811115612bd2578251825591602001919060010190612bb7565b5b509050612be09190612be4565b5090565b5b80821115612bfd576000816000905550600101612be5565b5090565b6000612c14612c0f84613648565b613623565b905082815260208101848484011115612c2c57600080fd5b612c37848285613872565b509392505050565b6000612c52612c4d84613679565b613623565b905082815260208101848484011115612c6a57600080fd5b612c75848285613872565b509392505050565b600081359050612c8c81613ad6565b92915050565b600081359050612ca181613aed565b92915050565b600081519050612cb681613aed565b92915050565b600081359050612ccb81613b04565b92915050565b600081519050612ce081613b04565b92915050565b600082601f830112612cf757600080fd5b8135612d07848260208601612c01565b91505092915050565b600081359050612d1f81613b1b565b92915050565b600082601f830112612d3657600080fd5b8135612d46848260208601612c3f565b91505092915050565b600081359050612d5e81613b32565b92915050565b600081519050612d7381613b32565b92915050565b600060208284031215612d8b57600080fd5b6000612d9984828501612c7d565b91505092915050565b60008060408385031215612db557600080fd5b6000612dc385828601612c7d565b9250506020612dd485828601612c7d565b9150509250929050565b600080600060608486031215612df357600080fd5b6000612e0186828701612c7d565b9350506020612e1286828701612c7d565b9250506040612e2386828701612d4f565b9150509250925092565b60008060008060808587031215612e4357600080fd5b6000612e5187828801612c7d565b9450506020612e6287828801612c7d565b9350506040612e7387828801612d4f565b925050606085013567ffffffffffffffff811115612e9057600080fd5b612e9c87828801612ce6565b91505092959194509250565b60008060408385031215612ebb57600080fd5b6000612ec985828601612c7d565b9250506020612eda85828601612c92565b9150509250929050565b600080600080600060a08688031215612efc57600080fd5b6000612f0a88828901612c7d565b955050602086013567ffffffffffffffff811115612f2757600080fd5b612f3388828901612d25565b9450506040612f4488828901612d4f565b9350506060612f5588828901612d4f565b9250506080612f6688828901612d4f565b9150509295509295909350565b60008060408385031215612f8657600080fd5b6000612f9485828601612c7d565b9250506020612fa585828601612d4f565b9150509250929050565b600060208284031215612fc157600080fd5b6000612fcf84828501612c92565b91505092915050565b600060208284031215612fea57600080fd5b6000612ff884828501612ca7565b91505092915050565b60006020828403121561301357600080fd5b600061302184828501612cbc565b91505092915050565b60006020828403121561303c57600080fd5b600061304a84828501612cd1565b91505092915050565b60006020828403121561306557600080fd5b600061307384828501612d10565b91505092915050565b60006020828403121561308e57600080fd5b600082013567ffffffffffffffff8111156130a857600080fd5b6130b484828501612d25565b91505092915050565b6000806000606084860312156130d257600080fd5b600084013567ffffffffffffffff8111156130ec57600080fd5b6130f886828701612d25565b935050602084013567ffffffffffffffff81111561311557600080fd5b61312186828701612d25565b925050604061313286828701612c7d565b9150509250925092565b60006020828403121561314e57600080fd5b600061315c84828501612d4f565b91505092915050565b60006020828403121561317757600080fd5b600061318584828501612d64565b91505092915050565b613197816137b9565b82525050565b6131a6816137b9565b82525050565b6131b5816137cb565b82525050565b60006131c6826136aa565b6131d081856136c0565b93506131e0818560208601613881565b6131e981613a4d565b840191505092915050565b6131fd81613860565b82525050565b600061320e826136b5565b61321881856136d1565b9350613228818560208601613881565b61323181613a4d565b840191505092915050565b6000613247826136b5565b61325181856136e2565b9350613261818560208601613881565b61326a81613a4d565b840191505092915050565b6000613280826136b5565b61328a81856136f3565b935061329a818560208601613881565b80840191505092915050565b60006132b3602e836136e2565b91506132be82613a5e565b604082019050919050565b60006132d6601f836136e2565b91506132e182613aad565b602082019050919050565b6000604083016000830151613304600086018261318e565b506020830151848203602086015261331c8282613203565b9150508091505092915050565b61333281613835565b82525050565b6133418161383f565b82525050565b60006133538285613275565b915061335f8284613275565b91508190509392505050565b6000602082019050613380600083018461319d565b92915050565b600060808201905061339b600083018761319d565b6133a8602083018661319d565b6133b56040830185613329565b81810360608301526133c781846131bb565b905095945050505050565b60006040820190506133e7600083018561319d565b6133f46020830184613329565b9392505050565b600060208201905061341060008301846131ac565b92915050565b600060a082019050818103600083015261343081886131bb565b9050818103602083015261344481876132ec565b9050818103604083015261345881866131bb565b90506134676060830185613338565b818103608083015261347981846131bb565b90509695505050505050565b600060208201905061349a60008301846131f4565b92915050565b600060208201905081810360008301526134ba818461323c565b905092915050565b600060408201905081810360008301526134dc818561323c565b905081810360208301526134f0818461323c565b90509392505050565b60006040820190508181036000830152613513818561323c565b90506135226020830184613329565b9392505050565b60006020820190508181036000830152613542816132a6565b9050919050565b60006020820190508181036000830152613562816132c9565b9050919050565b600060208201905061357e6000830184613329565b92915050565b600060a0820190506135996000830188613329565b81810360208301526135ab818761323c565b90506135ba6040830186613329565b6135c76060830185613329565b6135d46080830184613329565b9695505050505050565b60006080820190506135f36000830187613329565b6136006020830186613329565b61360d6040830185613329565b61361a60608301846131ac565b95945050505050565b600061362d61363e565b905061363982826138e6565b919050565b6000604051905090565b600067ffffffffffffffff82111561366357613662613a1e565b5b61366c82613a4d565b9050602081019050919050565b600067ffffffffffffffff82111561369457613693613a1e565b5b61369d82613a4d565b9050602081019050919050565b600081519050919050565b600081519050919050565b600082825260208201905092915050565b600082825260208201905092915050565b600082825260208201905092915050565b600081905092915050565b600061370982613835565b915061371483613835565b9250827fffffffffffffffffffffffffffffffffffffffffffffffffffffffffffffffff0382111561374957613748613991565b5b828201905092915050565b600061375f82613835565b915061376a83613835565b92508261377a576137796139c0565b5b828204905092915050565b600061379082613835565b915061379b83613835565b9250828210156137ae576137ad613991565b5b828203905092915050565b60006137c482613815565b9050919050565b60008115159050919050565b60007fffffffff0000000000000000000000000000000000000000000000000000000082169050919050565b600061380e826137b9565b9050919050565b600073ffffffffffffffffffffffffffffffffffffffff82169050919050565b6000819050919050565b600067ffffffffffffffff82169050919050565b600060ff82169050919050565b600061386b82613853565b9050919050565b82818337600083830152505050565b60005b8381101561389f578082015181840152602081019050613884565b838111156138ae576000848401525b50505050565b600060028204905060018216806138cc57607f821691505b602082108114156138e0576138df6139ef565b5b50919050565b6138ef82613a4d565b810181811067ffffffffffffffff8211171561390e5761390d613a1e565b5b80604052505050565b600061392282613835565b91507fffffffffffffffffffffffffffffffffffffffffffffffffffffffffffffffff82141561395557613954613991565b5b600182019050919050565b600061396b82613835565b915061397683613835565b925082613986576139856139c0565b5b828206905092915050565b7f4e487b7100000000000000000000000000000000000000000000000000000000600052601160045260246000fd5b7f4e487b7100000000000000000000000000000000000000000000000000000000600052601260045260246000fd5b7f4e487b7100000000000000000000000000000000000000000000000000000000600052602260045260246000fd5b7f4e487b7100000000000000000000000000000000000000000000000000000000600052604160045260246000fd5b6000601f19601f8301169050919050565b7f496e697469616c697a61626c653a20636f6e747261637420697320616c72656160008201527f647920696e697469616c697a6564000000000000000000000000000000000000602082015250565b7f5265656e7472616e637947756172643a207265656e7472616e742063616c6c00600082015250565b613adf816137b9565b8114613aea57600080fd5b50565b613af6816137cb565b8114613b0157600080fd5b50565b613b0d816137d7565b8114613b1857600080fd5b50565b613b2481613803565b8114613b2f57600080fd5b50565b613b3b81613835565b8114613b4657600080fd5b5056fea26469706673582212200c22cb569a30453f004b739ea2fa170ff70e5b973d5e45fb30ffe2b6341873b364736f6c63430008040033",
  "linkReferences": {},
  "deployedLinkReferences": {}
}