{
  "_format": "hh-sol-artifact-1",
  "contractName": "NFTGame",
  "sourceName": "contracts/NFTGame.sol",
  "abi": [
    {
      "inputs": [
        {
          "internalType": "address",
          "name": "_owner",
          "type": "address"
        }
      ],
      "stateMutability": "nonpayable",
      "type": "constructor"
    },
    {
      "inputs": [],
      "name": "AlreadyInitialized",
      "type": "error"
    },
    {
      "inputs": [],
      "name": "IncorrectOwner",
      "type": "error"
    },
    {
      "inputs": [],
      "name": "InsufficientAllowance",
      "type": "error"
    },
    {
      "inputs": [],
      "name": "InsufficientBalance",
      "type": "error"
    },
    {
      "inputs": [],
      "name": "InvalidModification",
      "type": "error"
    },
    {
      "inputs": [],
      "name": "InvalidTokenId",
      "type": "error"
    },
    {
      "inputs": [],
      "name": "MaxPerUserExceeded",
      "type": "error"
    },
    {
      "inputs": [],
      "name": "MaxSupplyExceeded",
      "type": "error"
    },
    {
      "inputs": [],
      "name": "MissingERC721Receiver",
      "type": "error"
    },
    {
      "inputs": [],
      "name": "PublicMintInactive",
      "type": "error"
    },
    {
      "inputs": [],
      "name": "SameAddress",
      "type": "error"
    },
    {
      "inputs": [],
      "name": "SameOwnerAndOperator",
      "type": "error"
    },
    {
      "inputs": [],
      "name": "TokenAlreadyMinted",
      "type": "error"
    },
    {
      "inputs": [],
      "name": "Unauthorized",
      "type": "error"
    },
    {
      "inputs": [],
      "name": "ZeroAddress",
      "type": "error"
    },
    {
      "anonymous": false,
      "inputs": [
        {
          "indexed": true,
          "internalType": "address",
          "name": "owner",
          "type": "address"
        },
        {
          "indexed": true,
          "internalType": "address",
          "name": "approved",
          "type": "address"
        },
        {
          "indexed": true,
          "internalType": "uint256",
          "name": "tokenId",
          "type": "uint256"
        }
      ],
      "name": "Approval",
      "type": "event"
    },
    {
      "anonymous": false,
      "inputs": [
        {
          "indexed": true,
          "internalType": "address",
          "name": "owner",
          "type": "address"
        },
        {
          "indexed": true,
          "internalType": "address",
          "name": "operator",
          "type": "address"
        },
        {
          "indexed": false,
          "internalType": "bool",
          "name": "approved",
          "type": "bool"
        }
      ],
      "name": "ApprovalForAll",
      "type": "event"
    },
    {
      "anonymous": false,
      "inputs": [
        {
          "indexed": false,
          "internalType": "uint8",
          "name": "version",
          "type": "uint8"
        }
      ],
      "name": "Initialized",
      "type": "event"
    },
    {
      "anonymous": false,
      "inputs": [
        {
          "indexed": true,
          "internalType": "address",
          "name": "from",
          "type": "address"
        },
        {
          "indexed": true,
          "internalType": "address",
          "name": "to",
          "type": "address"
        },
        {
          "indexed": true,
          "internalType": "uint256",
          "name": "tokenId",
          "type": "uint256"
        }
      ],
      "name": "Transfer",
      "type": "event"
    },
    {
      "inputs": [],
      "name": "_collectionInfo",
      "outputs": [
        {
          "internalType": "uint256",
          "name": "price",
          "type": "uint256"
        },
        {
          "internalType": "uint256",
          "name": "maxSupply",
          "type": "uint256"
        },
        {
          "internalType": "uint256",
          "name": "maxPerUser",
          "type": "uint256"
        },
        {
          "internalType": "bool",
          "name": "isPublicSaleActive",
          "type": "bool"
        }
      ],
      "stateMutability": "view",
      "type": "function"
    },
    {
      "inputs": [],
      "name": "_tenantOwner",
      "outputs": [
        {
          "internalType": "address",
          "name": "",
          "type": "address"
        }
      ],
      "stateMutability": "view",
      "type": "function"
    },
    {
      "inputs": [
        {
          "internalType": "address",
          "name": "_to",
          "type": "address"
        },
        {
          "internalType": "uint256",
          "name": "_tokenId",
          "type": "uint256"
        }
      ],
      "name": "approve",
      "outputs": [],
      "stateMutability": "nonpayable",
      "type": "function"
    },
    {
      "inputs": [
        {
          "internalType": "address",
          "name": "_owner",
          "type": "address"
        }
      ],
      "name": "balanceOf",
      "outputs": [
        {
          "internalType": "uint256",
          "name": "",
          "type": "uint256"
        }
      ],
      "stateMutability": "view",
      "type": "function"
    },
    {
      "inputs": [],
      "name": "contractOwner",
      "outputs": [
        {
          "internalType": "address",
          "name": "",
          "type": "address"
        }
      ],
      "stateMutability": "view",
      "type": "function"
    },
    {
      "inputs": [
        {
          "internalType": "uint256",
          "name": "_tokenId",
          "type": "uint256"
        }
      ],
      "name": "getApproved",
      "outputs": [
        {
          "internalType": "address",
          "name": "",
          "type": "address"
        }
      ],
      "stateMutability": "view",
      "type": "function"
    },
    {
      "inputs": [
        {
          "internalType": "uint256",
          "name": "_tokenId",
          "type": "uint256"
        }
      ],
      "name": "getAttributesByTokenId",
      "outputs": [
        {
          "internalType": "uint256",
          "name": "",
          "type": "uint256"
        },
        {
          "internalType": "string",
          "name": "",
          "type": "string"
        },
        {
          "internalType": "uint256",
          "name": "",
          "type": "uint256"
        },
        {
          "internalType": "uint256",
          "name": "",
          "type": "uint256"
        },
        {
          "internalType": "uint256",
          "name": "",
          "type": "uint256"
        },
        {
          "internalType": "uint256",
          "name": "",
          "type": "uint256"
        },
        {
          "components": [
            {
              "internalType": "uint256",
              "name": "tokenId",
              "type": "uint256"
            },
            {
              "internalType": "uint256[]",
              "name": "choices",
              "type": "uint256[]"
            },
            {
              "internalType": "uint256[]",
              "name": "options",
              "type": "uint256[]"
            }
          ],
          "internalType": "struct NFTGame.StandardAttributes",
          "name": "",
          "type": "tuple"
        },
        {
          "components": [
            {
              "internalType": "uint256",
              "name": "tokenId",
              "type": "uint256"
            },
            {
              "internalType": "uint256[]",
              "name": "choices",
              "type": "uint256[]"
            },
            {
              "internalType": "uint256[]",
              "name": "options",
              "type": "uint256[]"
            }
          ],
          "internalType": "struct NFTGame.SpecialAttributes",
          "name": "",
          "type": "tuple"
        }
      ],
      "stateMutability": "view",
      "type": "function"
    },
    {
      "inputs": [],
      "name": "getBaseURI",
      "outputs": [
        {
          "internalType": "string",
          "name": "",
          "type": "string"
        }
      ],
      "stateMutability": "view",
      "type": "function"
    },
    {
      "inputs": [
        {
          "internalType": "string",
          "name": "name_",
          "type": "string"
        },
        {
          "internalType": "string",
          "name": "symbol_",
          "type": "string"
        },
        {
          "internalType": "address",
          "name": "tenant_",
          "type": "address"
        }
      ],
      "name": "initialize",
      "outputs": [],
      "stateMutability": "nonpayable",
      "type": "function"
    },
    {
      "inputs": [
        {
          "internalType": "address",
          "name": "_owner",
          "type": "address"
        },
        {
          "internalType": "address",
          "name": "_operator",
          "type": "address"
        }
      ],
      "name": "isApprovedForAll",
      "outputs": [
        {
          "internalType": "bool",
          "name": "",
          "type": "bool"
        }
      ],
      "stateMutability": "view",
      "type": "function"
    },
    {
      "inputs": [],
      "name": "isPublicSaleActive",
      "outputs": [
        {
          "internalType": "bool",
          "name": "",
          "type": "bool"
        }
      ],
      "stateMutability": "view",
      "type": "function"
    },
    {
      "inputs": [
        {
          "internalType": "uint256",
          "name": "_tokenId",
          "type": "uint256"
        }
      ],
      "name": "levelUp",
      "outputs": [],
      "stateMutability": "nonpayable",
      "type": "function"
    },
    {
      "inputs": [],
      "name": "metadata",
      "outputs": [
        {
          "internalType": "bytes",
          "name": "title",
          "type": "bytes"
        },
        {
          "components": [
            {
              "internalType": "address",
              "name": "authorAddress",
              "type": "address"
            },
            {
              "internalType": "string",
              "name": "externalLink",
              "type": "string"
            }
          ],
          "internalType": "struct IHyperverseModule.Author",
          "name": "author",
          "type": "tuple"
        },
        {
          "internalType": "bytes",
          "name": "version",
          "type": "bytes"
        },
        {
          "internalType": "uint64",
          "name": "publishedAt",
          "type": "uint64"
        },
        {
          "internalType": "bytes",
          "name": "externalLink",
          "type": "bytes"
        }
      ],
      "stateMutability": "view",
      "type": "function"
    },
    {
      "inputs": [
        {
          "internalType": "address",
          "name": "_to",
          "type": "address"
        },
        {
          "internalType": "string",
          "name": "_tokenName",
          "type": "string"
        },
        {
          "internalType": "uint256",
          "name": "_eyeId",
          "type": "uint256"
        },
        {
          "internalType": "uint256",
          "name": "_mouthId",
          "type": "uint256"
        },
        {
          "internalType": "uint256",
          "name": "_bodyId",
          "type": "uint256"
        },
        {
          "internalType": "uint256",
          "name": "_level",
          "type": "uint256"
        },
        {
          "internalType": "uint256[]",
          "name": "_standardChoices",
          "type": "uint256[]"
        },
        {
          "internalType": "uint256[]",
          "name": "_standardOptions",
          "type": "uint256[]"
        },
        {
          "internalType": "uint256[]",
          "name": "_specialChoices",
          "type": "uint256[]"
        },
        {
          "internalType": "uint256[]",
          "name": "_specialOptions",
          "type": "uint256[]"
        }
      ],
      "name": "mint",
      "outputs": [
        {
          "internalType": "uint256",
          "name": "",
          "type": "uint256"
        }
      ],
      "stateMutability": "payable",
      "type": "function"
    },
    {
      "inputs": [
        {
          "internalType": "uint256",
          "name": "_attrType",
          "type": "uint256"
        },
        {
          "internalType": "uint256[]",
          "name": "_attrOptions",
          "type": "uint256[]"
        }
      ],
      "name": "modifyDynamicAttribute",
      "outputs": [],
      "stateMutability": "nonpayable",
      "type": "function"
    },
    {
      "inputs": [],
      "name": "name",
      "outputs": [
        {
          "internalType": "string",
          "name": "",
          "type": "string"
        }
      ],
      "stateMutability": "view",
      "type": "function"
    },
    {
      "inputs": [
        {
          "internalType": "uint256",
          "name": "_tokenId",
          "type": "uint256"
        }
      ],
      "name": "ownerOf",
      "outputs": [
        {
          "internalType": "address",
          "name": "",
          "type": "address"
        }
      ],
      "stateMutability": "view",
      "type": "function"
    },
    {
      "inputs": [
        {
          "internalType": "address",
          "name": "_from",
          "type": "address"
        },
        {
          "internalType": "address",
          "name": "_to",
          "type": "address"
        },
        {
          "internalType": "uint256",
          "name": "_tokenId",
          "type": "uint256"
        }
      ],
      "name": "safeTransferFrom",
      "outputs": [],
      "stateMutability": "nonpayable",
      "type": "function"
    },
    {
      "inputs": [
        {
          "internalType": "address",
          "name": "_from",
          "type": "address"
        },
        {
          "internalType": "address",
          "name": "_to",
          "type": "address"
        },
        {
          "internalType": "uint256",
          "name": "_tokenId",
          "type": "uint256"
        },
        {
          "internalType": "bytes",
          "name": "_data",
          "type": "bytes"
        }
      ],
      "name": "safeTransferFrom",
      "outputs": [],
      "stateMutability": "nonpayable",
      "type": "function"
    },
    {
      "inputs": [
        {
          "internalType": "address",
          "name": "_operator",
          "type": "address"
        },
        {
          "internalType": "bool",
          "name": "_approved",
          "type": "bool"
        }
      ],
      "name": "setApprovalForAll",
      "outputs": [],
      "stateMutability": "nonpayable",
      "type": "function"
    },
    {
      "inputs": [
        {
          "internalType": "string",
          "name": "baseURI_",
          "type": "string"
        }
      ],
      "name": "setBaseURI",
      "outputs": [],
      "stateMutability": "nonpayable",
      "type": "function"
    },
    {
      "inputs": [
        {
          "internalType": "uint256",
          "name": "_tokenId",
          "type": "uint256"
        },
        {
          "internalType": "uint256",
          "name": "_attrType",
          "type": "uint256"
        },
        {
          "internalType": "uint256[]",
          "name": "_attrOptions",
          "type": "uint256[]"
        }
      ],
      "name": "setDynamicAttribute",
      "outputs": [],
      "stateMutability": "nonpayable",
      "type": "function"
    },
    {
      "inputs": [
        {
          "internalType": "bool",
          "name": "_isActive",
          "type": "bool"
        }
      ],
      "name": "setMintPermissions",
      "outputs": [],
      "stateMutability": "nonpayable",
      "type": "function"
    },
    {
      "inputs": [
        {
          "internalType": "bytes4",
          "name": "_interfaceId",
          "type": "bytes4"
        }
      ],
      "name": "supportsInterface",
      "outputs": [
        {
          "internalType": "bool",
          "name": "",
          "type": "bool"
        }
      ],
      "stateMutability": "view",
      "type": "function"
    },
    {
      "inputs": [],
      "name": "symbol",
      "outputs": [
        {
          "internalType": "string",
          "name": "",
          "type": "string"
        }
      ],
      "stateMutability": "view",
      "type": "function"
    },
    {
      "inputs": [
        {
          "internalType": "address",
          "name": "_reciever",
          "type": "address"
        },
        {
          "internalType": "string",
          "name": "_tokenName",
          "type": "string"
        },
        {
          "internalType": "uint256",
          "name": "_eyeId",
          "type": "uint256"
        },
        {
          "internalType": "uint256",
          "name": "_mouthId",
          "type": "uint256"
        },
        {
          "internalType": "uint256",
          "name": "_bodyId",
          "type": "uint256"
        },
        {
          "internalType": "uint256",
          "name": "_level",
          "type": "uint256"
        },
        {
          "internalType": "uint256[]",
          "name": "_standardChoices",
          "type": "uint256[]"
        },
        {
          "internalType": "uint256[]",
          "name": "_standardOptions",
          "type": "uint256[]"
        },
        {
          "internalType": "uint256[]",
          "name": "_specialChoices",
          "type": "uint256[]"
        },
        {
          "internalType": "uint256[]",
          "name": "_specialOptions",
          "type": "uint256[]"
        }
      ],
      "name": "tenantMint",
      "outputs": [
        {
          "internalType": "uint256",
          "name": "",
          "type": "uint256"
        }
      ],
      "stateMutability": "nonpayable",
      "type": "function"
    },
    {
      "inputs": [
        {
          "internalType": "uint256",
          "name": "_tokenId",
          "type": "uint256"
        }
      ],
      "name": "tokenURI",
      "outputs": [
        {
          "internalType": "string",
          "name": "",
          "type": "string"
        }
      ],
      "stateMutability": "view",
      "type": "function"
    },
    {
      "inputs": [
        {
          "internalType": "address",
          "name": "_from",
          "type": "address"
        },
        {
          "internalType": "address",
          "name": "_to",
          "type": "address"
        },
        {
          "internalType": "uint256",
          "name": "_tokenId",
          "type": "uint256"
        }
      ],
      "name": "transferFrom",
      "outputs": [],
      "stateMutability": "nonpayable",
      "type": "function"
    },
    {
      "inputs": [],
      "name": "withdraw",
      "outputs": [],
      "stateMutability": "nonpayable",
      "type": "function"
    },
    {
      "inputs": [
        {
          "internalType": "contract IERC20",
          "name": "_token",
          "type": "address"
        }
      ],
      "name": "withdrawTokens",
      "outputs": [],
      "stateMutability": "nonpayable",
      "type": "function"
    }
  ],
  "bytecode": "0x60a06040523480156200001157600080fd5b5060405162005a1138038062005a1183398181016040528101906200003791906200040c565b60016000819055506040518060a001604052806040518060400160405280600781526020017f4e465447616d6500000000000000000000000000000000000000000000000000815250815260200160405180604001604052808473ffffffffffffffffffffffffffffffffffffffff1681526020016040518060400160405280601881526020017f68747470733a2f2f65787465726e616c6c696e6b2e6e6574000000000000000081525081525081526020016040518060400160405280600581526020017f302e302e31000000000000000000000000000000000000000000000000000000815250815260200165032a361e860667ffffffffffffffff1681526020016040518060400160405280601881526020017f68747470733a2f2f65787465726e616c4c696e6b2e6e657400000000000000008152508152506002600082015181600001908051906020019062000194929190620002b4565b5060208201518160010160008201518160000160006101000a81548173ffffffffffffffffffffffffffffffffffffffff021916908373ffffffffffffffffffffffffffffffffffffffff16021790555060208201518160010190805190602001906200020392919062000345565b505050604082015181600301908051906020019062000224929190620002b4565b5060608201518160040160006101000a81548167ffffffffffffffff021916908367ffffffffffffffff160217905550608082015181600501908051906020019062000272929190620002b4565b509050508073ffffffffffffffffffffffffffffffffffffffff1660808173ffffffffffffffffffffffffffffffffffffffff1660601b8152505050620004eb565b828054620002c2906200046c565b90600052602060002090601f016020900481019282620002e6576000855562000332565b82601f106200030157805160ff191683800117855562000332565b8280016001018555821562000332579182015b828111156200033157825182559160200191906001019062000314565b5b509050620003419190620003d6565b5090565b82805462000353906200046c565b90600052602060002090601f016020900481019282620003775760008555620003c3565b82601f106200039257805160ff1916838001178555620003c3565b82800160010185558215620003c3579182015b82811115620003c2578251825591602001919060010190620003a5565b5b509050620003d29190620003d6565b5090565b5b80821115620003f1576000816000905550600101620003d7565b5090565b6000815190506200040681620004d1565b92915050565b6000602082840312156200041f57600080fd5b60006200042f84828501620003f5565b91505092915050565b600062000445826200044c565b9050919050565b600073ffffffffffffffffffffffffffffffffffffffff82169050919050565b600060028204905060018216806200048557607f821691505b602082108114156200049c576200049b620004a2565b5b50919050565b7f4e487b7100000000000000000000000000000000000000000000000000000000600052602260045260246000fd5b620004dc8162000438565b8114620004e857600080fd5b50565b60805160601c6155076200050a600039600061294f01526155076000f3fe6080604052600436106101cd5760003560e01c80636352211e116100f757806397ee73bb11610095578063ce606ee011610064578063ce606ee014610685578063d74a6564146106b0578063e65755cd146106d9578063e985e9c514610716576101cd565b806397ee73bb146105c8578063a22cb465146105f6578063b88d4fde1461061f578063c87b56dd14610648576101cd565b8063714c5398116100d1578063714c5398146105055780637e4d03d8146105305780638724f7cf1461057457806395d89b411461059d576101cd565b80636352211e1461045b5780636cd7ffb41461049857806370a08231146104c8576101cd565b80631e84c4131161016f5780633e2b81c41161013e5780633e2b81c4146103b757806342842e0e146103e057806349df728c1461040957806355f804b314610432576101cd565b80631e84c4131461031d57806323b872dd14610348578063392f37e9146103715780633ccfd60b146103a0576101cd565b8063081812fc116101ab578063081812fc14610263578063095ea7b3146102a05780630b8eb2cf146102c95780630ce90ec2146102f4576101cd565b806301ffc9a7146101d257806306fdde031461020f578063077f224a1461023a575b600080fd5b3480156101de57600080fd5b506101f960048036038101906101f4919061457a565b610753565b6040516102069190614bcb565b60405180910390f35b34801561021b57600080fd5b50610224610835565b6040516102319190614c70565b60405180910390f35b34801561024657600080fd5b50610261600480360381019061025c9190614636565b6108c7565b005b34801561026f57600080fd5b5061028a600480360381019061028591906146b5565b610ae0565b6040516102979190614b3b565b60405180910390f35b3480156102ac57600080fd5b506102c760048036038101906102c291906144ec565b610b26565b005b3480156102d557600080fd5b506102de610c2f565b6040516102eb9190614b3b565b60405180910390f35b34801561030057600080fd5b5061031b600480360381019061031691906146b5565b610c55565b005b34801561032957600080fd5b50610332610ffb565b60405161033f9190614bcb565b60405180910390f35b34801561035457600080fd5b5061036f600480360381019061036a9190614293565b61100e565b005b34801561037d57600080fd5b50610386611065565b604051610397959493929190614be6565b60405180910390f35b3480156103ac57600080fd5b506103b5611327565b005b3480156103c357600080fd5b506103de60048036038101906103d99190614528565b6113fd565b005b3480156103ec57600080fd5b5061040760048036038101906104029190614293565b6114a1565b005b34801561041557600080fd5b50610430600480360381019061042b91906145cc565b6114c1565b005b34801561043e57600080fd5b50610459600480360381019061045491906145f5565b611667565b005b34801561046757600080fd5b50610482600480360381019061047d91906146b5565b611708565b60405161048f9190614b3b565b60405180910390f35b6104b260048036038101906104ad9190614399565b6117b1565b6040516104bf9190614d32565b60405180910390f35b3480156104d457600080fd5b506104ef60048036038101906104ea919061422e565b611c54565b6040516104fc9190614d32565b60405180910390f35b34801561051157600080fd5b5061051a611d03565b6040516105279190614c70565b60405180910390f35b34801561053c57600080fd5b50610557600480360381019061055291906146b5565b611dc1565b60405161056b989796959493929190614d4d565b60405180910390f35b34801561058057600080fd5b5061059b6004803603810190610596919061475b565b61204f565b005b3480156105a957600080fd5b506105b26126c4565b6040516105bf9190614c70565b60405180910390f35b3480156105d457600080fd5b506105dd612756565b6040516105ed9493929190614de0565b60405180910390f35b34801561060257600080fd5b5061061d6004803603810190610618919061435d565b612781565b005b34801561062b57600080fd5b50610646600480360381019061064191906142e2565b612797565b005b34801561065457600080fd5b5061066f600480360381019061066a91906146b5565b6127f0565b60405161067c9190614c70565b60405180910390f35b34801561069157600080fd5b5061069a61294d565b6040516106a79190614b3b565b60405180910390f35b3480156106bc57600080fd5b506106d760048036038101906106d29190614707565b612971565b005b3480156106e557600080fd5b5061070060048036038101906106fb9190614399565b612acb565b60405161070d9190614d32565b60405180910390f35b34801561072257600080fd5b5061073d60048036038101906107389190614257565b612f51565b60405161074a9190614bcb565b60405180910390f35b60007f80ac58cd000000000000000000000000000000000000000000000000000000007bffffffffffffffffffffffffffffffffffffffffffffffffffffffff1916827bffffffffffffffffffffffffffffffffffffffffffffffffffffffff1916148061081e57507f5b5e139f000000000000000000000000000000000000000000000000000000007bffffffffffffffffffffffffffffffffffffffffffffffffffffffff1916827bffffffffffffffffffffffffffffffffffffffffffffffffffffffff1916145b8061082e575061082d82612fe5565b5b9050919050565b6060600f805461084490615175565b80601f016020809104026020016040519081016040528092919081815260200182805461087090615175565b80156108bd5780601f10610892576101008083540402835291602001916108bd565b820191906000526020600020905b8154815290600101906020018083116108a057829003601f168201915b5050505050905090565b60006108d3600161304f565b905080156108f65760018060016101000a81548160ff0219169083151502179055505b81600073ffffffffffffffffffffffffffffffffffffffff16600d60009054906101000a900473ffffffffffffffffffffffffffffffffffffffff1673ffffffffffffffffffffffffffffffffffffffff161461097f576040517f0dc149f000000000000000000000000000000000000000000000000000000000815260040160405180910390fd5b84600f9080519060200190610995929190613e4a565b5083601090805190602001906109ac929190613e4a565b5082600d60006101000a81548173ffffffffffffffffffffffffffffffffffffffff021916908373ffffffffffffffffffffffffffffffffffffffff1602179055506040518060a00160405280600360ff168152602001600460ff168152602001600560ff168152602001600660ff168152602001600760ff168152506009906005610a39929190613ed0565b506040518060400160405280600360ff168152602001600360ff16815250600a906002610a67929190613f22565b50600980549050600b81905550600a80549050600c81905550508015610ada5760006001806101000a81548160ff0219169083151502179055507f7f26b83ff96e1f2b6a682f133852f6798a09c465da95921460cefb38474024986001604051610ad19190614c55565b60405180910390a15b50505050565b6000610aeb82613141565b6019600083815260200190815260200160002060009054906101000a900473ffffffffffffffffffffffffffffffffffffffff169050919050565b6000610b3182611708565b90508273ffffffffffffffffffffffffffffffffffffffff168173ffffffffffffffffffffffffffffffffffffffff161415610b99576040517f367558c300000000000000000000000000000000000000000000000000000000815260040160405180910390fd5b8073ffffffffffffffffffffffffffffffffffffffff16610bb8613183565b73ffffffffffffffffffffffffffffffffffffffff16141580610be95750610be781610be2613183565b612f51565b155b15610c20576040517f82b4290000000000000000000000000000000000000000000000000000000000815260040160405180910390fd5b610c2a838361318b565b505050565b600d60009054906101000a900473ffffffffffffffffffffffffffffffffffffffff1681565b600d60009054906101000a900473ffffffffffffffffffffffffffffffffffffffff1673ffffffffffffffffffffffffffffffffffffffff163373ffffffffffffffffffffffffffffffffffffffff1614610cdc576040517f82b4290000000000000000000000000000000000000000000000000000000000815260040160405180910390fd5b6000601b60008381526020019081526020016000209050600060058260050154610d069190614f65565b90506000600582610d179190615221565b14610d57576040517f08c379a0000000000000000000000000000000000000000000000000000000008152600401610d4e90614cf2565b60405180910390fd5b600080610d6383613244565b80925081935050506000821415610eb1576000846006016002018281548110610db5577f4e487b7100000000000000000000000000000000000000000000000000000000600052603260045260246000fd5b906000526020600020015490508060098381548110610dfd577f4e487b7100000000000000000000000000000000000000000000000000000000600052603260045260246000fd5b906000526020600020015411610e48576040517f08c379a0000000000000000000000000000000000000000000000000000000008152600401610e3f90614cf2565b60405180910390fd5b600181610e559190614f65565b856006016002018381548110610e94577f4e487b7100000000000000000000000000000000000000000000000000000000600052603260045260246000fd5b906000526020600020018190555083856005018190555050610ff4565b6001821415610ff3576000846009016002018281548110610efb577f4e487b7100000000000000000000000000000000000000000000000000000000600052603260045260246000fd5b9060005260206000200154905080600a8381548110610f43577f4e487b7100000000000000000000000000000000000000000000000000000000600052603260045260246000fd5b906000526020600020015411610f8e576040517f08c379a0000000000000000000000000000000000000000000000000000000008152600401610f8590614cf2565b60405180910390fd5b600181610f9b9190614f65565b856009016002018381548110610fda577f4e487b7100000000000000000000000000000000000000000000000000000000600052603260045260246000fd5b9060005260206000200181905550838560050181905550505b5b5050505050565b601260009054906101000a900460ff1681565b61101f611019613183565b82613308565b611055576040517f82b4290000000000000000000000000000000000000000000000000000000000815260040160405180910390fd5b61106083838361339d565b505050565b600280600001805461107690615175565b80601f01602080910402602001604051908101604052809291908181526020018280546110a290615175565b80156110ef5780601f106110c4576101008083540402835291602001916110ef565b820191906000526020600020905b8154815290600101906020018083116110d257829003601f168201915b505050505090806001016040518060400160405290816000820160009054906101000a900473ffffffffffffffffffffffffffffffffffffffff1673ffffffffffffffffffffffffffffffffffffffff1673ffffffffffffffffffffffffffffffffffffffff16815260200160018201805461116a90615175565b80601f016020809104026020016040519081016040528092919081815260200182805461119690615175565b80156111e35780601f106111b8576101008083540402835291602001916111e3565b820191906000526020600020905b8154815290600101906020018083116111c657829003601f168201915b505050505081525050908060030180546111fc90615175565b80601f016020809104026020016040519081016040528092919081815260200182805461122890615175565b80156112755780601f1061124a57610100808354040283529160200191611275565b820191906000526020600020905b81548152906001019060200180831161125857829003601f168201915b5050505050908060040160009054906101000a900467ffffffffffffffff16908060050180546112a490615175565b80601f01602080910402602001604051908101604052809291908181526020018280546112d090615175565b801561131d5780601f106112f25761010080835404028352916020019161131d565b820191906000526020600020905b81548152906001019060200180831161130057829003601f168201915b5050505050905085565b600d60009054906101000a900473ffffffffffffffffffffffffffffffffffffffff1673ffffffffffffffffffffffffffffffffffffffff163373ffffffffffffffffffffffffffffffffffffffff16146113ae576040517f82b4290000000000000000000000000000000000000000000000000000000000815260040160405180910390fd5b60004790503373ffffffffffffffffffffffffffffffffffffffff166108fc829081150290604051600060405180830381858888f193505050501580156113f9573d6000803e3d6000fd5b5050565b600d60009054906101000a900473ffffffffffffffffffffffffffffffffffffffff1673ffffffffffffffffffffffffffffffffffffffff163373ffffffffffffffffffffffffffffffffffffffff1614611484576040517f82b4290000000000000000000000000000000000000000000000000000000000815260040160405180910390fd5b80601260006101000a81548160ff02191690831515021790555050565b6114bc83838360405180602001604052806000815250612797565b505050565b600d60009054906101000a900473ffffffffffffffffffffffffffffffffffffffff1673ffffffffffffffffffffffffffffffffffffffff163373ffffffffffffffffffffffffffffffffffffffff1614611548576040517f82b4290000000000000000000000000000000000000000000000000000000000815260040160405180910390fd5b60008173ffffffffffffffffffffffffffffffffffffffff166370a08231306040518263ffffffff1660e01b81526004016115839190614b3b565b60206040518083038186803b15801561159b57600080fd5b505afa1580156115af573d6000803e3d6000fd5b505050506040513d601f19601f820116820180604052508101906115d391906146de565b90508173ffffffffffffffffffffffffffffffffffffffff1663a9059cbb33836040518363ffffffff1660e01b8152600401611610929190614ba2565b602060405180830381600087803b15801561162a57600080fd5b505af115801561163e573d6000803e3d6000fd5b505050506040513d601f19601f820116820180604052508101906116629190614551565b505050565b600d60009054906101000a900473ffffffffffffffffffffffffffffffffffffffff1673ffffffffffffffffffffffffffffffffffffffff163373ffffffffffffffffffffffffffffffffffffffff16146116ee576040517f82b4290000000000000000000000000000000000000000000000000000000000815260040160405180910390fd5b8060119080519060200190611704929190613e4a565b5050565b6000806017600084815260200190815260200160002060009054906101000a900473ffffffffffffffffffffffffffffffffffffffff169050600073ffffffffffffffffffffffffffffffffffffffff168173ffffffffffffffffffffffffffffffffffffffff1614156117a8576040517f3f6cc76800000000000000000000000000000000000000000000000000000000815260040160405180910390fd5b80915050919050565b6000600260005414156117f9576040517f08c379a00000000000000000000000000000000000000000000000000000000081526004016117f090614d12565b60405180910390fd5b600260008190555060001515601260009054906101000a900460ff161515141561184f576040517f15b1bdcd00000000000000000000000000000000000000000000000000000000815260040160405180910390fd5b60006118596135f2565b9050604051806060016040528082815260200187815260200186815250601c60008381526020019081526020016000206000820151816000015560208201518160010190805190602001906118af929190613f74565b5060408201518160020190805190602001906118cc929190613f74565b50905050604051806060016040528082815260200185815260200184815250601d6000838152602001908152602001600020600082015181600001556020820151816001019080519060200190611924929190613f74565b506040820151816002019080519060200190611941929190613f74565b509050506040518061010001604052808281526020018c81526020018b81526020018a8152602001898152602001888152602001601c600084815260200190815260200160002060405180606001604052908160008201548152602001600182018054806020026020016040519081016040528092919081815260200182805480156119ec57602002820191906000526020600020905b8154815260200190600101908083116119d8575b5050505050815260200160028201805480602002602001604051908101604052809291908181526020018280548015611a4457602002820191906000526020600020905b815481526020019060010190808311611a30575b5050505050815250508152602001601d60008481526020019081526020016000206040518060600160405290816000820154815260200160018201805480602002602001604051908101604052809291908181526020018280548015611ac957602002820191906000526020600020905b815481526020019060010190808311611ab5575b5050505050815260200160028201805480602002602001604051908101604052809291908181526020018280548015611b2157602002820191906000526020600020905b815481526020019060010190808311611b0d575b505050505081525050815250601b6000838152602001908152602001600020600082015181600001556020820151816001019080519060200190611b66929190613e4a565b5060408201518160020155606082015181600301556080820151816004015560a0820151816005015560c082015181600601600082015181600001556020820151816001019080519060200190611bbe929190613f74565b506040820151816002019080519060200190611bdb929190613f74565b50505060e082015181600901600082015181600001556020820151816001019080519060200190611c0d929190613f74565b506040820151816002019080519060200190611c2a929190613f74565b505050905050611c3a8c8261360d565b8091505060016000819055509a9950505050505050505050565b60008073ffffffffffffffffffffffffffffffffffffffff168273ffffffffffffffffffffffffffffffffffffffff161415611cbc576040517fd92e233d00000000000000000000000000000000000000000000000000000000815260040160405180910390fd5b601860008373ffffffffffffffffffffffffffffffffffffffff1673ffffffffffffffffffffffffffffffffffffffff168152602001908152602001600020549050919050565b6060600060118054611d1490615175565b905011611d305760405180602001604052806000815250611dbc565b60118054611d3d90615175565b80601f0160208091040260200160405190810160405280929190818152602001828054611d6990615175565b8015611db65780601f10611d8b57610100808354040283529160200191611db6565b820191906000526020600020905b815481529060010190602001808311611d9957829003601f168201915b50505050505b905090565b60006060600080600080611dd3613fc1565b611ddb613fe2565b6000601b60008b8152602001908152602001600020905080600001548160010182600201548360030154846004015485600501548660060187600901868054611e2390615175565b80601f0160208091040260200160405190810160405280929190818152602001828054611e4f90615175565b8015611e9c5780601f10611e7157610100808354040283529160200191611e9c565b820191906000526020600020905b815481529060010190602001808311611e7f57829003601f168201915b50505050509650816040518060600160405290816000820154815260200160018201805480602002602001604051908101604052809291908181526020018280548015611f0857602002820191906000526020600020905b815481526020019060010190808311611ef4575b5050505050815260200160028201805480602002602001604051908101604052809291908181526020018280548015611f6057602002820191906000526020600020905b815481526020019060010190808311611f4c575b5050505050815250509150806040518060600160405290816000820154815260200160018201805480602002602001604051908101604052809291908181526020018280548015611fd057602002820191906000526020600020905b815481526020019060010190808311611fbc575b505050505081526020016002820180548060200260200160405190810160405280929190818152602001828054801561202857602002820191906000526020600020905b815481526020019060010190808311612014575b50505050508152505090509850985098509850985098509850985050919395975091939597565b6000601b60008581526020019081526020016000209050600b54825114806120795750600c548251145b6120b8576040517f08c379a00000000000000000000000000000000000000000000000000000000081526004016120af90614c92565b60405180910390fd5b60008314156124cf57816000815181106120fb577f4e487b7100000000000000000000000000000000000000000000000000000000600052603260045260246000fd5b6020026020010151600960008154811061213e577f4e487b7100000000000000000000000000000000000000000000000000000000600052603260045260246000fd5b9060005260206000200154101561218a576040517f08c379a000000000000000000000000000000000000000000000000000000000815260040161218190614cb2565b60405180910390fd5b816001815181106121c4577f4e487b7100000000000000000000000000000000000000000000000000000000600052603260045260246000fd5b60200260200101516009600181548110612207577f4e487b7100000000000000000000000000000000000000000000000000000000600052603260045260246000fd5b90600052602060002001541015612253576040517f08c379a000000000000000000000000000000000000000000000000000000000815260040161224a90614cb2565b60405180910390fd5b8160028151811061228d577f4e487b7100000000000000000000000000000000000000000000000000000000600052603260045260246000fd5b602002602001015160096002815481106122d0577f4e487b7100000000000000000000000000000000000000000000000000000000600052603260045260246000fd5b9060005260206000200154101561231c576040517f08c379a000000000000000000000000000000000000000000000000000000000815260040161231390614cb2565b60405180910390fd5b81600381518110612356577f4e487b7100000000000000000000000000000000000000000000000000000000600052603260045260246000fd5b60200260200101516009600381548110612399577f4e487b7100000000000000000000000000000000000000000000000000000000600052603260045260246000fd5b906000526020600020015410156123e5576040517f08c379a00000000000000000000000000000000000000000000000000000000081526004016123dc90614cb2565b60405180910390fd5b8160048151811061241f577f4e487b7100000000000000000000000000000000000000000000000000000000600052603260045260246000fd5b60200260200101516009600481548110612462577f4e487b7100000000000000000000000000000000000000000000000000000000600052603260045260246000fd5b906000526020600020015410156124ae576040517f08c379a00000000000000000000000000000000000000000000000000000000081526004016124a590614cb2565b60405180910390fd5b818160060160010190805190602001906124c9929190613f74565b506126be565b600183141561268b5781600081518110612512577f4e487b7100000000000000000000000000000000000000000000000000000000600052603260045260246000fd5b6020026020010151600a600081548110612555577f4e487b7100000000000000000000000000000000000000000000000000000000600052603260045260246000fd5b906000526020600020015410156125a1576040517f08c379a000000000000000000000000000000000000000000000000000000000815260040161259890614cb2565b60405180910390fd5b816001815181106125db577f4e487b7100000000000000000000000000000000000000000000000000000000600052603260045260246000fd5b6020026020010151600a60018154811061261e577f4e487b7100000000000000000000000000000000000000000000000000000000600052603260045260246000fd5b9060005260206000200154101561266a576040517f08c379a000000000000000000000000000000000000000000000000000000000815260040161266190614cb2565b60405180910390fd5b81816009016001019080519060200190612685929190613f74565b506126bd565b6040517f9e744f4c00000000000000000000000000000000000000000000000000000000815260040160405180910390fd5b5b50505050565b6060601080546126d390615175565b80601f01602080910402602001604051908101604052809291908181526020018280546126ff90615175565b801561274c5780601f106127215761010080835404028352916020019161274c565b820191906000526020600020905b81548152906001019060200180831161272f57829003601f168201915b5050505050905090565b60138060000154908060010154908060020154908060030160009054906101000a900460ff16905084565b61279361278c613183565b838361362b565b5050565b6127a86127a2613183565b83613308565b6127de576040517f82b4290000000000000000000000000000000000000000000000000000000000815260040160405180910390fd5b6127ea848484846137f6565b50505050565b60606127fb82613141565b601260019054906101000a900460ff166128ef576000601e6000848152602001908152602001600020805461282f90615175565b90501161284b57604051806020016040528060008152506128e8565b601e6000838152602001908152602001600020805461286990615175565b80601f016020809104026020016040519081016040528092919081815260200182805461289590615175565b80156128e25780601f106128b7576101008083540402835291602001916128e2565b820191906000526020600020905b8154815290600101906020018083116128c557829003601f168201915b50505050505b9050612948565b60006128f9611d03565b905060008151116129195760405180602001604052806000815250612944565b8061292384613849565b604051602001612934929190614b17565b6040516020818303038152906040525b9150505b919050565b7f000000000000000000000000000000000000000000000000000000000000000081565b600d60009054906101000a900473ffffffffffffffffffffffffffffffffffffffff1673ffffffffffffffffffffffffffffffffffffffff163373ffffffffffffffffffffffffffffffffffffffff16146129f8576040517f82b4290000000000000000000000000000000000000000000000000000000000815260040160405180910390fd5b600b5481511480612a0b5750600c548151145b612a4a576040517f08c379a0000000000000000000000000000000000000000000000000000000008152600401612a4190614c92565b60405180910390fd5b6000821415612a6f578060099080519060200190612a69929190613f74565b50612ac7565b6001821415612a945780600a9080519060200190612a8e929190613f74565b50612ac6565b6040517f9e744f4c00000000000000000000000000000000000000000000000000000000815260040160405180910390fd5b5b5050565b6000600d60009054906101000a900473ffffffffffffffffffffffffffffffffffffffff1673ffffffffffffffffffffffffffffffffffffffff163373ffffffffffffffffffffffffffffffffffffffff1614612b54576040517f82b4290000000000000000000000000000000000000000000000000000000000815260040160405180910390fd5b6000612b5e6135f2565b9050604051806060016040528082815260200187815260200186815250601c6000838152602001908152602001600020600082015181600001556020820151816001019080519060200190612bb4929190613f74565b506040820151816002019080519060200190612bd1929190613f74565b50905050604051806060016040528082815260200185815260200184815250601d6000838152602001908152602001600020600082015181600001556020820151816001019080519060200190612c29929190613f74565b506040820151816002019080519060200190612c46929190613f74565b509050506040518061010001604052808281526020018c81526020018b81526020018a8152602001898152602001888152602001601c60008481526020019081526020016000206040518060600160405290816000820154815260200160018201805480602002602001604051908101604052809291908181526020018280548015612cf157602002820191906000526020600020905b815481526020019060010190808311612cdd575b5050505050815260200160028201805480602002602001604051908101604052809291908181526020018280548015612d4957602002820191906000526020600020905b815481526020019060010190808311612d35575b5050505050815250508152602001601d60008481526020019081526020016000206040518060600160405290816000820154815260200160018201805480602002602001604051908101604052809291908181526020018280548015612dce57602002820191906000526020600020905b815481526020019060010190808311612dba575b5050505050815260200160028201805480602002602001604051908101604052809291908181526020018280548015612e2657602002820191906000526020600020905b815481526020019060010190808311612e12575b505050505081525050815250601b6000838152602001908152602001600020600082015181600001556020820151816001019080519060200190612e6b929190613e4a565b5060408201518160020155606082015181600301556080820151816004015560a0820151816005015560c082015181600601600082015181600001556020820151816001019080519060200190612ec3929190613f74565b506040820151816002019080519060200190612ee0929190613f74565b50505060e082015181600901600082015181600001556020820151816001019080519060200190612f12929190613f74565b506040820151816002019080519060200190612f2f929190613f74565b505050905050612f3f8c8261360d565b809150509a9950505050505050505050565b6000601a60008473ffffffffffffffffffffffffffffffffffffffff1673ffffffffffffffffffffffffffffffffffffffff16815260200190815260200160002060008373ffffffffffffffffffffffffffffffffffffffff1673ffffffffffffffffffffffffffffffffffffffff16815260200190815260200160002060009054906101000a900460ff16905092915050565b60007f01ffc9a7000000000000000000000000000000000000000000000000000000007bffffffffffffffffffffffffffffffffffffffffffffffffffffffff1916827bffffffffffffffffffffffffffffffffffffffffffffffffffffffff1916149050919050565b600060018054906101000a900460ff16156130c55760018260ff1614801561307d575061307b306139f6565b155b6130bc576040517f08c379a00000000000000000000000000000000000000000000000000000000081526004016130b390614cd2565b60405180910390fd5b6000905061313c565b8160ff16600160009054906101000a900460ff1660ff161061311c576040517f08c379a000000000000000000000000000000000000000000000000000000000815260040161311390614cd2565b60405180910390fd5b81600160006101000a81548160ff021916908360ff160217905550600190505b919050565b61314a81613a09565b613180576040517f3f6cc76800000000000000000000000000000000000000000000000000000000815260040160405180910390fd5b50565b600033905090565b816019600083815260200190815260200160002060006101000a81548173ffffffffffffffffffffffffffffffffffffffff021916908373ffffffffffffffffffffffffffffffffffffffff160217905550808273ffffffffffffffffffffffffffffffffffffffff166131fe83611708565b73ffffffffffffffffffffffffffffffffffffffff167f8c5be1e5ebec7d5bd14f71427d1e84f3dd0314c0f7b2291e5b200ac8c7c3b92560405160405180910390a45050565b600080600060056001600b5461325a9190614f65565b6132649190614fec565b905060006005856132759190614fbb565b9050600082866132859190615221565b14156132cf57600080838761329a9190614fbb565b905060006002826132ab9190615221565b14156132ba57600191506132bf565b600091505b6001829550955050505050613303565b6000600180600b546132e19190614f65565b836132ec9190615221565b6132f69190615046565b9050600081945094505050505b915091565b60008061331483611708565b90508073ffffffffffffffffffffffffffffffffffffffff168473ffffffffffffffffffffffffffffffffffffffff16148061335657506133558185612f51565b5b8061339457508373ffffffffffffffffffffffffffffffffffffffff1661337c84610ae0565b73ffffffffffffffffffffffffffffffffffffffff16145b91505092915050565b8273ffffffffffffffffffffffffffffffffffffffff166133bd82611708565b73ffffffffffffffffffffffffffffffffffffffff161461340a576040517f3a6bbed300000000000000000000000000000000000000000000000000000000815260040160405180910390fd5b600073ffffffffffffffffffffffffffffffffffffffff168273ffffffffffffffffffffffffffffffffffffffff161415613471576040517fd92e233d00000000000000000000000000000000000000000000000000000000815260040160405180910390fd5b61347c838383613a75565b61348760008261318b565b6001601860008573ffffffffffffffffffffffffffffffffffffffff1673ffffffffffffffffffffffffffffffffffffffff16815260200190815260200160002060008282546134d79190615046565b925050819055506001601860008473ffffffffffffffffffffffffffffffffffffffff1673ffffffffffffffffffffffffffffffffffffffff168152602001908152602001600020600082825461352e9190614f65565b92505081905550816017600083815260200190815260200160002060006101000a81548173ffffffffffffffffffffffffffffffffffffffff021916908373ffffffffffffffffffffffffffffffffffffffff160217905550808273ffffffffffffffffffffffffffffffffffffffff168473ffffffffffffffffffffffffffffffffffffffff167fddf252ad1be2c89b69c2b068fc378daa952ba7f163c4a11628f55a4df523b3ef60405160405180910390a46135ed838383613a7a565b505050565b60006135fe600e613a7f565b613608600e613a95565b905090565b613627828260405180602001604052806000815250613aa3565b5050565b600073ffffffffffffffffffffffffffffffffffffffff168273ffffffffffffffffffffffffffffffffffffffff161415613692576040517fd92e233d00000000000000000000000000000000000000000000000000000000815260040160405180910390fd5b8173ffffffffffffffffffffffffffffffffffffffff168373ffffffffffffffffffffffffffffffffffffffff1614156136f8576040517ff4b33eeb00000000000000000000000000000000000000000000000000000000815260040160405180910390fd5b80601a60008573ffffffffffffffffffffffffffffffffffffffff1673ffffffffffffffffffffffffffffffffffffffff16815260200190815260200160002060008473ffffffffffffffffffffffffffffffffffffffff1673ffffffffffffffffffffffffffffffffffffffff16815260200190815260200160002060006101000a81548160ff0219169083151502179055508173ffffffffffffffffffffffffffffffffffffffff168373ffffffffffffffffffffffffffffffffffffffff167f17307eab39ab6107e8899845ad3d59bd9653f200f220920489ca2b5937696c31836040516137e99190614bcb565b60405180910390a3505050565b61380184848461339d565b61380d84848484613af5565b613843576040517f44ccafd600000000000000000000000000000000000000000000000000000000815260040160405180910390fd5b50505050565b60606000821415613891576040518060400160405280600181526020017f300000000000000000000000000000000000000000000000000000000000000081525090506139f1565b600082905060005b600082146138c35780806138ac906151d8565b915050600a826138bc9190614fbb565b9150613899565b60008167ffffffffffffffff811115613905577f4e487b7100000000000000000000000000000000000000000000000000000000600052604160045260246000fd5b6040519080825280601f01601f1916602001820160405280156139375781602001600182028036833780820191505090505b5090505b600085146139ea576001826139509190615046565b9150600a8561395f9190615221565b603061396b9190614f65565b60f81b8183815181106139a7577f4e487b7100000000000000000000000000000000000000000000000000000000600052603260045260246000fd5b60200101907effffffffffffffffffffffffffffffffffffffffffffffffffffffffffffff1916908160001a905350600a856139e39190614fbb565b945061393b565b8093505050505b919050565b600080823b905060008111915050919050565b60008073ffffffffffffffffffffffffffffffffffffffff166017600084815260200190815260200160002060009054906101000a900473ffffffffffffffffffffffffffffffffffffffff1673ffffffffffffffffffffffffffffffffffffffff1614159050919050565b505050565b505050565b6001816000016000828254019250508190555050565b600081600001549050919050565b613aad8383613c83565b613aba6000848484613af5565b613af0576040517f44ccafd600000000000000000000000000000000000000000000000000000000815260040160405180910390fd5b505050565b6000613b168473ffffffffffffffffffffffffffffffffffffffff166139f6565b15613c76578373ffffffffffffffffffffffffffffffffffffffff1663150b7a02613b3f613183565b8786866040518563ffffffff1660e01b8152600401613b619493929190614b56565b602060405180830381600087803b158015613b7b57600080fd5b505af1925050508015613bac57506040513d601f19601f82011682018060405250810190613ba991906145a3565b60015b613c26573d8060008114613bdc576040519150601f19603f3d011682016040523d82523d6000602084013e613be1565b606091505b50600081511415613c1e576040517f44ccafd600000000000000000000000000000000000000000000000000000000815260040160405180910390fd5b805181602001fd5b63150b7a0260e01b7bffffffffffffffffffffffffffffffffffffffffffffffffffffffff1916817bffffffffffffffffffffffffffffffffffffffffffffffffffffffff191614915050613c7b565b600190505b949350505050565b600073ffffffffffffffffffffffffffffffffffffffff168273ffffffffffffffffffffffffffffffffffffffff161415613cea576040517fd92e233d00000000000000000000000000000000000000000000000000000000815260040160405180910390fd5b613cf381613a09565b15613d29576040517ea5a1f500000000000000000000000000000000000000000000000000000000815260040160405180910390fd5b613d3560008383613a75565b6001601860008473ffffffffffffffffffffffffffffffffffffffff1673ffffffffffffffffffffffffffffffffffffffff1681526020019081526020016000206000828254613d859190614f65565b92505081905550816017600083815260200190815260200160002060006101000a81548173ffffffffffffffffffffffffffffffffffffffff021916908373ffffffffffffffffffffffffffffffffffffffff160217905550808273ffffffffffffffffffffffffffffffffffffffff16600073ffffffffffffffffffffffffffffffffffffffff167fddf252ad1be2c89b69c2b068fc378daa952ba7f163c4a11628f55a4df523b3ef60405160405180910390a4613e4660008383613a7a565b5050565b828054613e5690615175565b90600052602060002090601f016020900481019282613e785760008555613ebf565b82601f10613e9157805160ff1916838001178555613ebf565b82800160010185558215613ebf579182015b82811115613ebe578251825591602001919060010190613ea3565b5b509050613ecc9190614003565b5090565b828054828255906000526020600020908101928215613f11579160200282015b82811115613f10578251829060ff16905591602001919060010190613ef0565b5b509050613f1e9190614003565b5090565b828054828255906000526020600020908101928215613f63579160200282015b82811115613f62578251829060ff16905591602001919060010190613f42565b5b509050613f709190614003565b5090565b828054828255906000526020600020908101928215613fb0579160200282015b82811115613faf578251825591602001919060010190613f94565b5b509050613fbd9190614003565b5090565b60405180606001604052806000815260200160608152602001606081525090565b60405180606001604052806000815260200160608152602001606081525090565b5b8082111561401c576000816000905550600101614004565b5090565b600061403361402e84614e4a565b614e25565b9050808382526020820190508285602086028201111561405257600080fd5b60005b8581101561408257816140688882614204565b845260208401935060208301925050600181019050614055565b5050509392505050565b600061409f61409a84614e76565b614e25565b9050828152602081018484840111156140b757600080fd5b6140c2848285615133565b509392505050565b60006140dd6140d884614ea7565b614e25565b9050828152602081018484840111156140f557600080fd5b614100848285615133565b509392505050565b6000813590506141178161545e565b92915050565b600082601f83011261412e57600080fd5b813561413e848260208601614020565b91505092915050565b60008135905061415681615475565b92915050565b60008151905061416b81615475565b92915050565b6000813590506141808161548c565b92915050565b6000815190506141958161548c565b92915050565b600082601f8301126141ac57600080fd5b81356141bc84826020860161408c565b91505092915050565b6000813590506141d4816154a3565b92915050565b600082601f8301126141eb57600080fd5b81356141fb8482602086016140ca565b91505092915050565b600081359050614213816154ba565b92915050565b600081519050614228816154ba565b92915050565b60006020828403121561424057600080fd5b600061424e84828501614108565b91505092915050565b6000806040838503121561426a57600080fd5b600061427885828601614108565b925050602061428985828601614108565b9150509250929050565b6000806000606084860312156142a857600080fd5b60006142b686828701614108565b93505060206142c786828701614108565b92505060406142d886828701614204565b9150509250925092565b600080600080608085870312156142f857600080fd5b600061430687828801614108565b945050602061431787828801614108565b935050604061432887828801614204565b925050606085013567ffffffffffffffff81111561434557600080fd5b6143518782880161419b565b91505092959194509250565b6000806040838503121561437057600080fd5b600061437e85828601614108565b925050602061438f85828601614147565b9150509250929050565b6000806000806000806000806000806101408b8d0312156143b957600080fd5b60006143c78d828e01614108565b9a505060208b013567ffffffffffffffff8111156143e457600080fd5b6143f08d828e016141da565b99505060406144018d828e01614204565b98505060606144128d828e01614204565b97505060806144238d828e01614204565b96505060a06144348d828e01614204565b95505060c08b013567ffffffffffffffff81111561445157600080fd5b61445d8d828e0161411d565b94505060e08b013567ffffffffffffffff81111561447a57600080fd5b6144868d828e0161411d565b9350506101008b013567ffffffffffffffff8111156144a457600080fd5b6144b08d828e0161411d565b9250506101208b013567ffffffffffffffff8111156144ce57600080fd5b6144da8d828e0161411d565b9150509295989b9194979a5092959850565b600080604083850312156144ff57600080fd5b600061450d85828601614108565b925050602061451e85828601614204565b9150509250929050565b60006020828403121561453a57600080fd5b600061454884828501614147565b91505092915050565b60006020828403121561456357600080fd5b60006145718482850161415c565b91505092915050565b60006020828403121561458c57600080fd5b600061459a84828501614171565b91505092915050565b6000602082840312156145b557600080fd5b60006145c384828501614186565b91505092915050565b6000602082840312156145de57600080fd5b60006145ec848285016141c5565b91505092915050565b60006020828403121561460757600080fd5b600082013567ffffffffffffffff81111561462157600080fd5b61462d848285016141da565b91505092915050565b60008060006060848603121561464b57600080fd5b600084013567ffffffffffffffff81111561466557600080fd5b614671868287016141da565b935050602084013567ffffffffffffffff81111561468e57600080fd5b61469a868287016141da565b92505060406146ab86828701614108565b9150509250925092565b6000602082840312156146c757600080fd5b60006146d584828501614204565b91505092915050565b6000602082840312156146f057600080fd5b60006146fe84828501614219565b91505092915050565b6000806040838503121561471a57600080fd5b600061472885828601614204565b925050602083013567ffffffffffffffff81111561474557600080fd5b6147518582860161411d565b9150509250929050565b60008060006060848603121561477057600080fd5b600061477e86828701614204565b935050602061478f86828701614204565b925050604084013567ffffffffffffffff8111156147ac57600080fd5b6147b88682870161411d565b9150509250925092565b60006147ce8383614aea565b60208301905092915050565b6147e38161507a565b82525050565b6147f28161507a565b82525050565b600061480382614ee8565b61480d8185614f16565b935061481883614ed8565b8060005b8381101561484957815161483088826147c2565b975061483b83614f09565b92505060018101905061481c565b5085935050505092915050565b61485f8161508c565b82525050565b600061487082614ef3565b61487a8185614f27565b935061488a818560208601615142565b6148938161530e565b840191505092915050565b6148a781615121565b82525050565b60006148b882614efe565b6148c28185614f38565b93506148d2818560208601615142565b6148db8161530e565b840191505092915050565b60006148f182614efe565b6148fb8185614f49565b935061490b818560208601615142565b6149148161530e565b840191505092915050565b600061492a82614efe565b6149348185614f5a565b9350614944818560208601615142565b80840191505092915050565b600061495d603983614f49565b91506149688261531f565b604082019050919050565b6000614980602f83614f49565b915061498b8261536e565b604082019050919050565b60006149a3602e83614f49565b91506149ae826153bd565b604082019050919050565b60006149c6601083614f49565b91506149d18261540c565b602082019050919050565b60006149e9601f83614f49565b91506149f482615435565b602082019050919050565b6000604083016000830151614a1760008601826147da565b5060208301518482036020860152614a2f82826148ad565b9150508091505092915050565b6000606083016000830151614a546000860182614aea565b5060208301518482036020860152614a6c82826147f8565b91505060408301518482036040860152614a8682826147f8565b9150508091505092915050565b6000606083016000830151614aab6000860182614aea565b5060208301518482036020860152614ac382826147f8565b91505060408301518482036040860152614add82826147f8565b9150508091505092915050565b614af3816150f6565b82525050565b614b02816150f6565b82525050565b614b1181615100565b82525050565b6000614b23828561491f565b9150614b2f828461491f565b91508190509392505050565b6000602082019050614b5060008301846147e9565b92915050565b6000608082019050614b6b60008301876147e9565b614b7860208301866147e9565b614b856040830185614af9565b8181036060830152614b978184614865565b905095945050505050565b6000604082019050614bb760008301856147e9565b614bc46020830184614af9565b9392505050565b6000602082019050614be06000830184614856565b92915050565b600060a0820190508181036000830152614c008188614865565b90508181036020830152614c1481876149ff565b90508181036040830152614c288186614865565b9050614c376060830185614b08565b8181036080830152614c498184614865565b90509695505050505050565b6000602082019050614c6a600083018461489e565b92915050565b60006020820190508181036000830152614c8a81846148e6565b905092915050565b60006020820190508181036000830152614cab81614950565b9050919050565b60006020820190508181036000830152614ccb81614973565b9050919050565b60006020820190508181036000830152614ceb81614996565b9050919050565b60006020820190508181036000830152614d0b816149b9565b9050919050565b60006020820190508181036000830152614d2b816149dc565b9050919050565b6000602082019050614d476000830184614af9565b92915050565b600061010082019050614d63600083018b614af9565b8181036020830152614d75818a6148e6565b9050614d846040830189614af9565b614d916060830188614af9565b614d9e6080830187614af9565b614dab60a0830186614af9565b81810360c0830152614dbd8185614a93565b905081810360e0830152614dd18184614a3c565b90509998505050505050505050565b6000608082019050614df56000830187614af9565b614e026020830186614af9565b614e0f6040830185614af9565b614e1c6060830184614856565b95945050505050565b6000614e2f614e40565b9050614e3b82826151a7565b919050565b6000604051905090565b600067ffffffffffffffff821115614e6557614e646152df565b5b602082029050602081019050919050565b600067ffffffffffffffff821115614e9157614e906152df565b5b614e9a8261530e565b9050602081019050919050565b600067ffffffffffffffff821115614ec257614ec16152df565b5b614ecb8261530e565b9050602081019050919050565b6000819050602082019050919050565b600081519050919050565b600081519050919050565b600081519050919050565b6000602082019050919050565b600082825260208201905092915050565b600082825260208201905092915050565b600082825260208201905092915050565b600082825260208201905092915050565b600081905092915050565b6000614f70826150f6565b9150614f7b836150f6565b9250827fffffffffffffffffffffffffffffffffffffffffffffffffffffffffffffffff03821115614fb057614faf615252565b5b828201905092915050565b6000614fc6826150f6565b9150614fd1836150f6565b925082614fe157614fe0615281565b5b828204905092915050565b6000614ff7826150f6565b9150615002836150f6565b9250817fffffffffffffffffffffffffffffffffffffffffffffffffffffffffffffffff048311821515161561503b5761503a615252565b5b828202905092915050565b6000615051826150f6565b915061505c836150f6565b92508282101561506f5761506e615252565b5b828203905092915050565b6000615085826150d6565b9050919050565b60008115159050919050565b60007fffffffff0000000000000000000000000000000000000000000000000000000082169050919050565b60006150cf8261507a565b9050919050565b600073ffffffffffffffffffffffffffffffffffffffff82169050919050565b6000819050919050565b600067ffffffffffffffff82169050919050565b600060ff82169050919050565b600061512c82615114565b9050919050565b82818337600083830152505050565b60005b83811015615160578082015181840152602081019050615145565b8381111561516f576000848401525b50505050565b6000600282049050600182168061518d57607f821691505b602082108114156151a1576151a06152b0565b5b50919050565b6151b08261530e565b810181811067ffffffffffffffff821117156151cf576151ce6152df565b5b80604052505050565b60006151e3826150f6565b91507fffffffffffffffffffffffffffffffffffffffffffffffffffffffffffffffff82141561521657615215615252565b5b600182019050919050565b600061522c826150f6565b9150615237836150f6565b92508261524757615246615281565b5b828206905092915050565b7f4e487b7100000000000000000000000000000000000000000000000000000000600052601160045260246000fd5b7f4e487b7100000000000000000000000000000000000000000000000000000000600052601260045260246000fd5b7f4e487b7100000000000000000000000000000000000000000000000000000000600052602260045260246000fd5b7f4e487b7100000000000000000000000000000000000000000000000000000000600052604160045260246000fd5b6000601f19601f8301169050919050565b7f496e76616c6964202d206172726179206c656e2073686f756c64206d6174636860008201527f205374616e64617264206f72205370656369616c206174747200000000000000602082015250565b7f53656c65637465642063686f6963652069732067726561746572207468616e2060008201527f616c6c6f776564206f7074696f6e730000000000000000000000000000000000602082015250565b7f496e697469616c697a61626c653a20636f6e747261637420697320616c72656160008201527f647920696e697469616c697a6564000000000000000000000000000000000000602082015250565b7f496e76616c6964204c6576656c20557000000000000000000000000000000000600082015250565b7f5265656e7472616e637947756172643a207265656e7472616e742063616c6c00600082015250565b6154678161507a565b811461547257600080fd5b50565b61547e8161508c565b811461548957600080fd5b50565b61549581615098565b81146154a057600080fd5b50565b6154ac816150c4565b81146154b757600080fd5b50565b6154c3816150f6565b81146154ce57600080fd5b5056fea2646970667358221220a8c0ba60efc3650efdffa8a692db89412d40393c39c42344186455c14c87a35564736f6c63430008040033",
  "linkReferences": {},
  "deployedLinkReferences": {}
}