{
  "_format": "hh-sol-artifact-1",
  "contractName": "NFTGame",
  "sourceName": "contracts/NFTGame.sol",
  "abi": [
    {
      "inputs": [
        {
          "internalType": "address",
          "name": "_owner",
          "type": "address"
        }
      ],
      "stateMutability": "nonpayable",
      "type": "constructor"
    },
    {
      "inputs": [],
      "name": "AlreadyInitialized",
      "type": "error"
    },
    {
      "inputs": [],
      "name": "IncorrectOwner",
      "type": "error"
    },
    {
      "inputs": [],
      "name": "InsufficientAllowance",
      "type": "error"
    },
    {
      "inputs": [],
      "name": "InsufficientBalance",
      "type": "error"
    },
    {
      "inputs": [],
      "name": "InvalidModification",
      "type": "error"
    },
    {
      "inputs": [],
      "name": "InvalidTokenId",
      "type": "error"
    },
    {
      "inputs": [],
      "name": "MaxPerUserExceeded",
      "type": "error"
    },
    {
      "inputs": [],
      "name": "MaxSupplyExceeded",
      "type": "error"
    },
    {
      "inputs": [],
      "name": "MissingERC721Receiver",
      "type": "error"
    },
    {
      "inputs": [],
      "name": "PublicMintInactive",
      "type": "error"
    },
    {
      "inputs": [],
      "name": "SameAddress",
      "type": "error"
    },
    {
      "inputs": [],
      "name": "SameOwnerAndOperator",
      "type": "error"
    },
    {
      "inputs": [],
      "name": "TokenAlreadyMinted",
      "type": "error"
    },
    {
      "inputs": [],
      "name": "Unauthorized",
      "type": "error"
    },
    {
      "inputs": [],
      "name": "ZeroAddress",
      "type": "error"
    },
    {
      "anonymous": false,
      "inputs": [
        {
          "indexed": true,
          "internalType": "address",
          "name": "owner",
          "type": "address"
        },
        {
          "indexed": true,
          "internalType": "address",
          "name": "approved",
          "type": "address"
        },
        {
          "indexed": true,
          "internalType": "uint256",
          "name": "tokenId",
          "type": "uint256"
        }
      ],
      "name": "Approval",
      "type": "event"
    },
    {
      "anonymous": false,
      "inputs": [
        {
          "indexed": true,
          "internalType": "address",
          "name": "owner",
          "type": "address"
        },
        {
          "indexed": true,
          "internalType": "address",
          "name": "operator",
          "type": "address"
        },
        {
          "indexed": false,
          "internalType": "bool",
          "name": "approved",
          "type": "bool"
        }
      ],
      "name": "ApprovalForAll",
      "type": "event"
    },
    {
      "anonymous": false,
      "inputs": [
        {
          "indexed": false,
          "internalType": "uint8",
          "name": "version",
          "type": "uint8"
        }
      ],
      "name": "Initialized",
      "type": "event"
    },
    {
      "anonymous": false,
      "inputs": [
        {
          "indexed": true,
          "internalType": "address",
          "name": "from",
          "type": "address"
        },
        {
          "indexed": true,
          "internalType": "address",
          "name": "to",
          "type": "address"
        },
        {
          "indexed": true,
          "internalType": "uint256",
          "name": "tokenId",
          "type": "uint256"
        }
      ],
      "name": "Transfer",
      "type": "event"
    },
    {
      "inputs": [],
      "name": "_collectionInfo",
      "outputs": [
        {
          "internalType": "uint256",
          "name": "price",
          "type": "uint256"
        },
        {
          "internalType": "uint256",
          "name": "maxSupply",
          "type": "uint256"
        },
        {
          "internalType": "uint256",
          "name": "maxPerUser",
          "type": "uint256"
        },
        {
          "internalType": "bool",
          "name": "isPublicSaleActive",
          "type": "bool"
        }
      ],
      "stateMutability": "view",
      "type": "function"
    },
    {
      "inputs": [],
      "name": "_tenantOwner",
      "outputs": [
        {
          "internalType": "address",
          "name": "",
          "type": "address"
        }
      ],
      "stateMutability": "view",
      "type": "function"
    },
    {
      "inputs": [
        {
          "internalType": "address",
          "name": "_to",
          "type": "address"
        },
        {
          "internalType": "uint256",
          "name": "_tokenId",
          "type": "uint256"
        }
      ],
      "name": "approve",
      "outputs": [],
      "stateMutability": "nonpayable",
      "type": "function"
    },
    {
      "inputs": [
        {
          "internalType": "address",
          "name": "_owner",
          "type": "address"
        }
      ],
      "name": "balanceOf",
      "outputs": [
        {
          "internalType": "uint256",
          "name": "",
          "type": "uint256"
        }
      ],
      "stateMutability": "view",
      "type": "function"
    },
    {
      "inputs": [],
      "name": "contractOwner",
      "outputs": [
        {
          "internalType": "address",
          "name": "",
          "type": "address"
        }
      ],
      "stateMutability": "view",
      "type": "function"
    },
    {
      "inputs": [
        {
          "internalType": "uint256",
          "name": "_tokenId",
          "type": "uint256"
        }
      ],
      "name": "getApproved",
      "outputs": [
        {
          "internalType": "address",
          "name": "",
          "type": "address"
        }
      ],
      "stateMutability": "view",
      "type": "function"
    },
    {
      "inputs": [
        {
          "internalType": "uint256",
          "name": "_tokenId",
          "type": "uint256"
        }
      ],
      "name": "getAttributesByTokenId",
      "outputs": [
        {
          "internalType": "uint256",
          "name": "",
          "type": "uint256"
        },
        {
          "internalType": "string",
          "name": "",
          "type": "string"
        },
        {
          "internalType": "uint256",
          "name": "",
          "type": "uint256"
        },
        {
          "internalType": "uint256",
          "name": "",
          "type": "uint256"
        },
        {
          "internalType": "uint256",
          "name": "",
          "type": "uint256"
        },
        {
          "internalType": "uint256",
          "name": "",
          "type": "uint256"
        },
        {
          "components": [
            {
              "internalType": "uint256",
              "name": "tokenId",
              "type": "uint256"
            },
            {
              "internalType": "uint256[]",
              "name": "choices",
              "type": "uint256[]"
            },
            {
              "internalType": "uint256[]",
              "name": "options",
              "type": "uint256[]"
            }
          ],
          "internalType": "struct NFTGame.StandardAttributes",
          "name": "",
          "type": "tuple"
        },
        {
          "components": [
            {
              "internalType": "uint256",
              "name": "tokenId",
              "type": "uint256"
            },
            {
              "internalType": "uint256[]",
              "name": "choices",
              "type": "uint256[]"
            },
            {
              "internalType": "uint256[]",
              "name": "options",
              "type": "uint256[]"
            }
          ],
          "internalType": "struct NFTGame.SpecialAttributes",
          "name": "",
          "type": "tuple"
        }
      ],
      "stateMutability": "view",
      "type": "function"
    },
    {
      "inputs": [],
      "name": "getBaseURI",
      "outputs": [
        {
          "internalType": "string",
          "name": "",
          "type": "string"
        }
      ],
      "stateMutability": "view",
      "type": "function"
    },
    {
      "inputs": [],
      "name": "getSpecialAttrMemory",
      "outputs": [
        {
          "internalType": "uint256[]",
          "name": "",
          "type": "uint256[]"
        }
      ],
      "stateMutability": "view",
      "type": "function"
    },
    {
      "inputs": [],
      "name": "getStandardAttrMemory",
      "outputs": [
        {
          "internalType": "uint256[]",
          "name": "",
          "type": "uint256[]"
        }
      ],
      "stateMutability": "view",
      "type": "function"
    },
    {
      "inputs": [
        {
          "internalType": "string",
          "name": "name_",
          "type": "string"
        },
        {
          "internalType": "string",
          "name": "symbol_",
          "type": "string"
        },
        {
          "internalType": "address",
          "name": "tenant_",
          "type": "address"
        }
      ],
      "name": "initialize",
      "outputs": [],
      "stateMutability": "nonpayable",
      "type": "function"
    },
    {
      "inputs": [
        {
          "internalType": "address",
          "name": "_owner",
          "type": "address"
        },
        {
          "internalType": "address",
          "name": "_operator",
          "type": "address"
        }
      ],
      "name": "isApprovedForAll",
      "outputs": [
        {
          "internalType": "bool",
          "name": "",
          "type": "bool"
        }
      ],
      "stateMutability": "view",
      "type": "function"
    },
    {
      "inputs": [],
      "name": "isPublicSaleActive",
      "outputs": [
        {
          "internalType": "bool",
          "name": "",
          "type": "bool"
        }
      ],
      "stateMutability": "view",
      "type": "function"
    },
    {
      "inputs": [
        {
          "internalType": "uint256",
          "name": "_tokenId",
          "type": "uint256"
        }
      ],
      "name": "levelUp",
      "outputs": [],
      "stateMutability": "nonpayable",
      "type": "function"
    },
    {
      "inputs": [],
      "name": "metadata",
      "outputs": [
        {
          "internalType": "bytes",
          "name": "title",
          "type": "bytes"
        },
        {
          "components": [
            {
              "internalType": "address",
              "name": "authorAddress",
              "type": "address"
            },
            {
              "internalType": "string",
              "name": "externalLink",
              "type": "string"
            }
          ],
          "internalType": "struct IHyperverseModule.Author",
          "name": "author",
          "type": "tuple"
        },
        {
          "internalType": "bytes",
          "name": "version",
          "type": "bytes"
        },
        {
          "internalType": "uint64",
          "name": "publishedAt",
          "type": "uint64"
        },
        {
          "internalType": "bytes",
          "name": "externalLink",
          "type": "bytes"
        }
      ],
      "stateMutability": "view",
      "type": "function"
    },
    {
      "inputs": [
        {
          "internalType": "address",
          "name": "_to",
          "type": "address"
        },
        {
          "internalType": "string",
          "name": "_tokenName",
          "type": "string"
        },
        {
          "internalType": "uint256",
          "name": "_eyeId",
          "type": "uint256"
        },
        {
          "internalType": "uint256",
          "name": "_mouthId",
          "type": "uint256"
        },
        {
          "internalType": "uint256",
          "name": "_bodyId",
          "type": "uint256"
        },
        {
          "internalType": "uint256",
          "name": "_level",
          "type": "uint256"
        },
        {
          "internalType": "uint256[]",
          "name": "_standardChoices",
          "type": "uint256[]"
        },
        {
          "internalType": "uint256[]",
          "name": "_standardOptions",
          "type": "uint256[]"
        },
        {
          "internalType": "uint256[]",
          "name": "_specialChoices",
          "type": "uint256[]"
        },
        {
          "internalType": "uint256[]",
          "name": "_specialOptions",
          "type": "uint256[]"
        }
      ],
      "name": "mint",
      "outputs": [
        {
          "internalType": "uint256",
          "name": "",
          "type": "uint256"
        }
      ],
      "stateMutability": "payable",
      "type": "function"
    },
    {
      "inputs": [
        {
          "internalType": "uint256",
          "name": "_attrType",
          "type": "uint256"
        },
        {
          "internalType": "uint256[]",
          "name": "_attrOptions",
          "type": "uint256[]"
        }
      ],
      "name": "modifyDynamicAttribute",
      "outputs": [],
      "stateMutability": "nonpayable",
      "type": "function"
    },
    {
      "inputs": [],
      "name": "name",
      "outputs": [
        {
          "internalType": "string",
          "name": "",
          "type": "string"
        }
      ],
      "stateMutability": "view",
      "type": "function"
    },
    {
      "inputs": [
        {
          "internalType": "uint256",
          "name": "_tokenId",
          "type": "uint256"
        }
      ],
      "name": "ownerOf",
      "outputs": [
        {
          "internalType": "address",
          "name": "",
          "type": "address"
        }
      ],
      "stateMutability": "view",
      "type": "function"
    },
    {
      "inputs": [
        {
          "internalType": "address",
          "name": "_from",
          "type": "address"
        },
        {
          "internalType": "address",
          "name": "_to",
          "type": "address"
        },
        {
          "internalType": "uint256",
          "name": "_tokenId",
          "type": "uint256"
        }
      ],
      "name": "safeTransferFrom",
      "outputs": [],
      "stateMutability": "nonpayable",
      "type": "function"
    },
    {
      "inputs": [
        {
          "internalType": "address",
          "name": "_from",
          "type": "address"
        },
        {
          "internalType": "address",
          "name": "_to",
          "type": "address"
        },
        {
          "internalType": "uint256",
          "name": "_tokenId",
          "type": "uint256"
        },
        {
          "internalType": "bytes",
          "name": "_data",
          "type": "bytes"
        }
      ],
      "name": "safeTransferFrom",
      "outputs": [],
      "stateMutability": "nonpayable",
      "type": "function"
    },
    {
      "inputs": [
        {
          "internalType": "address",
          "name": "_operator",
          "type": "address"
        },
        {
          "internalType": "bool",
          "name": "_approved",
          "type": "bool"
        }
      ],
      "name": "setApprovalForAll",
      "outputs": [],
      "stateMutability": "nonpayable",
      "type": "function"
    },
    {
      "inputs": [
        {
          "internalType": "string",
          "name": "baseURI_",
          "type": "string"
        }
      ],
      "name": "setBaseURI",
      "outputs": [],
      "stateMutability": "nonpayable",
      "type": "function"
    },
    {
      "inputs": [
        {
          "internalType": "uint256",
          "name": "_tokenId",
          "type": "uint256"
        },
        {
          "internalType": "uint256",
          "name": "_attrType",
          "type": "uint256"
        },
        {
          "internalType": "uint256[]",
          "name": "_attrOptions",
          "type": "uint256[]"
        }
      ],
      "name": "setDynamicAttribute",
      "outputs": [],
      "stateMutability": "nonpayable",
      "type": "function"
    },
    {
      "inputs": [
        {
          "internalType": "bool",
          "name": "_isActive",
          "type": "bool"
        }
      ],
      "name": "setMintPermissions",
      "outputs": [],
      "stateMutability": "nonpayable",
      "type": "function"
    },
    {
      "inputs": [
        {
          "internalType": "bytes4",
          "name": "_interfaceId",
          "type": "bytes4"
        }
      ],
      "name": "supportsInterface",
      "outputs": [
        {
          "internalType": "bool",
          "name": "",
          "type": "bool"
        }
      ],
      "stateMutability": "view",
      "type": "function"
    },
    {
      "inputs": [],
      "name": "symbol",
      "outputs": [
        {
          "internalType": "string",
          "name": "",
          "type": "string"
        }
      ],
      "stateMutability": "view",
      "type": "function"
    },
    {
      "inputs": [
        {
          "internalType": "address",
          "name": "_reciever",
          "type": "address"
        },
        {
          "internalType": "string",
          "name": "_tokenName",
          "type": "string"
        },
        {
          "internalType": "uint256",
          "name": "_eyeId",
          "type": "uint256"
        },
        {
          "internalType": "uint256",
          "name": "_mouthId",
          "type": "uint256"
        },
        {
          "internalType": "uint256",
          "name": "_bodyId",
          "type": "uint256"
        },
        {
          "internalType": "uint256",
          "name": "_level",
          "type": "uint256"
        },
        {
          "internalType": "uint256[]",
          "name": "_standardChoices",
          "type": "uint256[]"
        },
        {
          "internalType": "uint256[]",
          "name": "_standardOptions",
          "type": "uint256[]"
        },
        {
          "internalType": "uint256[]",
          "name": "_specialChoices",
          "type": "uint256[]"
        },
        {
          "internalType": "uint256[]",
          "name": "_specialOptions",
          "type": "uint256[]"
        }
      ],
      "name": "tenantMint",
      "outputs": [
        {
          "internalType": "uint256",
          "name": "",
          "type": "uint256"
        }
      ],
      "stateMutability": "nonpayable",
      "type": "function"
    },
    {
      "inputs": [
        {
          "internalType": "uint256",
          "name": "_tokenId",
          "type": "uint256"
        }
      ],
      "name": "tokenURI",
      "outputs": [
        {
          "internalType": "string",
          "name": "",
          "type": "string"
        }
      ],
      "stateMutability": "view",
      "type": "function"
    },
    {
      "inputs": [
        {
          "internalType": "address",
          "name": "_from",
          "type": "address"
        },
        {
          "internalType": "address",
          "name": "_to",
          "type": "address"
        },
        {
          "internalType": "uint256",
          "name": "_tokenId",
          "type": "uint256"
        }
      ],
      "name": "transferFrom",
      "outputs": [],
      "stateMutability": "nonpayable",
      "type": "function"
    },
    {
      "inputs": [],
      "name": "withdraw",
      "outputs": [],
      "stateMutability": "nonpayable",
      "type": "function"
    },
    {
      "inputs": [
        {
          "internalType": "contract IERC20",
          "name": "_token",
          "type": "address"
        }
      ],
      "name": "withdrawTokens",
      "outputs": [],
      "stateMutability": "nonpayable",
      "type": "function"
    }
  ],
  "bytecode": "0x60a06040523480156200001157600080fd5b5060405162005bbe38038062005bbe83398181016040528101906200003791906200040c565b60016000819055506040518060a001604052806040518060400160405280600781526020017f4e465447616d6500000000000000000000000000000000000000000000000000815250815260200160405180604001604052808473ffffffffffffffffffffffffffffffffffffffff1681526020016040518060400160405280601881526020017f68747470733a2f2f65787465726e616c6c696e6b2e6e6574000000000000000081525081525081526020016040518060400160405280600581526020017f302e302e31000000000000000000000000000000000000000000000000000000815250815260200165032a361e860667ffffffffffffffff1681526020016040518060400160405280601881526020017f68747470733a2f2f65787465726e616c4c696e6b2e6e657400000000000000008152508152506002600082015181600001908051906020019062000194929190620002b4565b5060208201518160010160008201518160000160006101000a81548173ffffffffffffffffffffffffffffffffffffffff021916908373ffffffffffffffffffffffffffffffffffffffff16021790555060208201518160010190805190602001906200020392919062000345565b505050604082015181600301908051906020019062000224929190620002b4565b5060608201518160040160006101000a81548167ffffffffffffffff021916908367ffffffffffffffff160217905550608082015181600501908051906020019062000272929190620002b4565b509050508073ffffffffffffffffffffffffffffffffffffffff1660808173ffffffffffffffffffffffffffffffffffffffff1660601b8152505050620004eb565b828054620002c2906200046c565b90600052602060002090601f016020900481019282620002e6576000855562000332565b82601f106200030157805160ff191683800117855562000332565b8280016001018555821562000332579182015b828111156200033157825182559160200191906001019062000314565b5b509050620003419190620003d6565b5090565b82805462000353906200046c565b90600052602060002090601f016020900481019282620003775760008555620003c3565b82601f106200039257805160ff1916838001178555620003c3565b82800160010185558215620003c3579182015b82811115620003c2578251825591602001919060010190620003a5565b5b509050620003d29190620003d6565b5090565b5b80821115620003f1576000816000905550600101620003d7565b5090565b6000815190506200040681620004d1565b92915050565b6000602082840312156200041f57600080fd5b60006200042f84828501620003f5565b91505092915050565b600062000445826200044c565b9050919050565b600073ffffffffffffffffffffffffffffffffffffffff82169050919050565b600060028204905060018216806200048557607f821691505b602082108114156200049c576200049b620004a2565b5b50919050565b7f4e487b7100000000000000000000000000000000000000000000000000000000600052602260045260246000fd5b620004dc8162000438565b8114620004e857600080fd5b50565b60805160601c6156b46200050a6000396000612a6b01526156b46000f3fe6080604052600436106101e35760003560e01c80636cd7ffb411610102578063a22cb46511610095578063ce606ee011610064578063ce606ee0146106f1578063d74a65641461071c578063e65755cd14610745578063e985e9c514610782576101e3565b8063a22cb46514610637578063b0c8c5cc14610660578063b88d4fde1461068b578063c87b56dd146106b4576101e3565b80638724f7cf116100d15780638724f7cf1461058a57806395d89b41146105b357806397ee73bb146105de5780639a0b637e1461060c576101e3565b80636cd7ffb4146104ae57806370a08231146104de578063714c53981461051b5780637e4d03d814610546576101e3565b806323b872dd1161017a57806342842e0e1161014957806342842e0e146103f657806349df728c1461041f57806355f804b3146104485780636352211e14610471576101e3565b806323b872dd1461035e578063392f37e9146103875780633ccfd60b146103b65780633e2b81c4146103cd576101e3565b8063095ea7b3116101b6578063095ea7b3146102b65780630b8eb2cf146102df5780630ce90ec21461030a5780631e84c41314610333576101e3565b806301ffc9a7146101e857806306fdde0314610225578063077f224a14610250578063081812fc14610279575b600080fd5b3480156101f457600080fd5b5061020f600480360381019061020a9190614696565b6107bf565b60405161021c9190614d67565b60405180910390f35b34801561023157600080fd5b5061023a6108a1565b6040516102479190614e0c565b60405180910390f35b34801561025c57600080fd5b5061027760048036038101906102729190614752565b610933565b005b34801561028557600080fd5b506102a0600480360381019061029b91906147d1565b610b4c565b6040516102ad9190614cb5565b60405180910390f35b3480156102c257600080fd5b506102dd60048036038101906102d89190614608565b610b92565b005b3480156102eb57600080fd5b506102f4610c9b565b6040516103019190614cb5565b60405180910390f35b34801561031657600080fd5b50610331600480360381019061032c91906147d1565b610cc1565b005b34801561033f57600080fd5b50610348611067565b6040516103559190614d67565b60405180910390f35b34801561036a57600080fd5b50610385600480360381019061038091906143af565b61107a565b005b34801561039357600080fd5b5061039c6110d1565b6040516103ad959493929190614d82565b60405180910390f35b3480156103c257600080fd5b506103cb611393565b005b3480156103d957600080fd5b506103f460048036038101906103ef9190614644565b611469565b005b34801561040257600080fd5b5061041d600480360381019061041891906143af565b61150d565b005b34801561042b57600080fd5b50610446600480360381019061044191906146e8565b61152d565b005b34801561045457600080fd5b5061046f600480360381019061046a9190614711565b6116d3565b005b34801561047d57600080fd5b50610498600480360381019061049391906147d1565b611774565b6040516104a59190614cb5565b60405180910390f35b6104c860048036038101906104c391906144b5565b61181d565b6040516104d59190614ece565b60405180910390f35b3480156104ea57600080fd5b506105056004803603810190610500919061434a565b611cc0565b6040516105129190614ece565b60405180910390f35b34801561052757600080fd5b50610530611d6f565b60405161053d9190614e0c565b60405180910390f35b34801561055257600080fd5b5061056d600480360381019061056891906147d1565b611e2d565b604051610581989796959493929190614ee9565b60405180910390f35b34801561059657600080fd5b506105b160048036038101906105ac9190614877565b6120bb565b005b3480156105bf57600080fd5b506105c8612730565b6040516105d59190614e0c565b60405180910390f35b3480156105ea57600080fd5b506105f36127c2565b6040516106039493929190614f7c565b60405180910390f35b34801561061857600080fd5b506106216127ed565b60405161062e9190614d45565b60405180910390f35b34801561064357600080fd5b5061065e60048036038101906106599190614479565b612845565b005b34801561066c57600080fd5b5061067561285b565b6040516106829190614d45565b60405180910390f35b34801561069757600080fd5b506106b260048036038101906106ad91906143fe565b6128b3565b005b3480156106c057600080fd5b506106db60048036038101906106d691906147d1565b61290c565b6040516106e89190614e0c565b60405180910390f35b3480156106fd57600080fd5b50610706612a69565b6040516107139190614cb5565b60405180910390f35b34801561072857600080fd5b50610743600480360381019061073e9190614823565b612a8d565b005b34801561075157600080fd5b5061076c600480360381019061076791906144b5565b612be7565b6040516107799190614ece565b60405180910390f35b34801561078e57600080fd5b506107a960048036038101906107a49190614373565b61306d565b6040516107b69190614d67565b60405180910390f35b60007f80ac58cd000000000000000000000000000000000000000000000000000000007bffffffffffffffffffffffffffffffffffffffffffffffffffffffff1916827bffffffffffffffffffffffffffffffffffffffffffffffffffffffff1916148061088a57507f5b5e139f000000000000000000000000000000000000000000000000000000007bffffffffffffffffffffffffffffffffffffffffffffffffffffffff1916827bffffffffffffffffffffffffffffffffffffffffffffffffffffffff1916145b8061089a575061089982613101565b5b9050919050565b6060600f80546108b090615322565b80601f01602080910402602001604051908101604052809291908181526020018280546108dc90615322565b80156109295780601f106108fe57610100808354040283529160200191610929565b820191906000526020600020905b81548152906001019060200180831161090c57829003601f168201915b5050505050905090565b600061093f600161316b565b905080156109625760018060016101000a81548160ff0219169083151502179055505b81600073ffffffffffffffffffffffffffffffffffffffff16600d60009054906101000a900473ffffffffffffffffffffffffffffffffffffffff1673ffffffffffffffffffffffffffffffffffffffff16146109eb576040517f0dc149f000000000000000000000000000000000000000000000000000000000815260040160405180910390fd5b84600f9080519060200190610a01929190613f66565b508360109080519060200190610a18929190613f66565b5082600d60006101000a81548173ffffffffffffffffffffffffffffffffffffffff021916908373ffffffffffffffffffffffffffffffffffffffff1602179055506040518060a00160405280600360ff168152602001600460ff168152602001600560ff168152602001600660ff168152602001600760ff168152506009906005610aa5929190613fec565b506040518060400160405280600360ff168152602001600360ff16815250600a906002610ad392919061403e565b50600980549050600b81905550600a80549050600c81905550508015610b465760006001806101000a81548160ff0219169083151502179055507f7f26b83ff96e1f2b6a682f133852f6798a09c465da95921460cefb38474024986001604051610b3d9190614df1565b60405180910390a15b50505050565b6000610b578261325d565b6019600083815260200190815260200160002060009054906101000a900473ffffffffffffffffffffffffffffffffffffffff169050919050565b6000610b9d82611774565b90508273ffffffffffffffffffffffffffffffffffffffff168173ffffffffffffffffffffffffffffffffffffffff161415610c05576040517f367558c300000000000000000000000000000000000000000000000000000000815260040160405180910390fd5b8073ffffffffffffffffffffffffffffffffffffffff16610c2461329f565b73ffffffffffffffffffffffffffffffffffffffff16141580610c555750610c5381610c4e61329f565b61306d565b155b15610c8c576040517f82b4290000000000000000000000000000000000000000000000000000000000815260040160405180910390fd5b610c9683836132a7565b505050565b600d60009054906101000a900473ffffffffffffffffffffffffffffffffffffffff1681565b600d60009054906101000a900473ffffffffffffffffffffffffffffffffffffffff1673ffffffffffffffffffffffffffffffffffffffff163373ffffffffffffffffffffffffffffffffffffffff1614610d48576040517f82b4290000000000000000000000000000000000000000000000000000000000815260040160405180910390fd5b6000601b60008381526020019081526020016000209050600060058260050154610d729190615112565b90506000600582610d8391906153ce565b14610dc3576040517f08c379a0000000000000000000000000000000000000000000000000000000008152600401610dba90614e8e565b60405180910390fd5b600080610dcf83613360565b80925081935050506000821415610f1d576000846006016001018281548110610e21577f4e487b7100000000000000000000000000000000000000000000000000000000600052603260045260246000fd5b906000526020600020015490508060098381548110610e69577f4e487b7100000000000000000000000000000000000000000000000000000000600052603260045260246000fd5b906000526020600020015411610eb4576040517f08c379a0000000000000000000000000000000000000000000000000000000008152600401610eab90614e8e565b60405180910390fd5b600181610ec19190615112565b856006016001018381548110610f00577f4e487b7100000000000000000000000000000000000000000000000000000000600052603260045260246000fd5b906000526020600020018190555083856005018190555050611060565b600182141561105f576000846009016001018281548110610f67577f4e487b7100000000000000000000000000000000000000000000000000000000600052603260045260246000fd5b9060005260206000200154905080600a8381548110610faf577f4e487b7100000000000000000000000000000000000000000000000000000000600052603260045260246000fd5b906000526020600020015411610ffa576040517f08c379a0000000000000000000000000000000000000000000000000000000008152600401610ff190614e8e565b60405180910390fd5b6001816110079190615112565b856009016001018381548110611046577f4e487b7100000000000000000000000000000000000000000000000000000000600052603260045260246000fd5b9060005260206000200181905550838560050181905550505b5b5050505050565b601260009054906101000a900460ff1681565b61108b61108561329f565b82613424565b6110c1576040517f82b4290000000000000000000000000000000000000000000000000000000000815260040160405180910390fd5b6110cc8383836134b9565b505050565b60028060000180546110e290615322565b80601f016020809104026020016040519081016040528092919081815260200182805461110e90615322565b801561115b5780601f106111305761010080835404028352916020019161115b565b820191906000526020600020905b81548152906001019060200180831161113e57829003601f168201915b505050505090806001016040518060400160405290816000820160009054906101000a900473ffffffffffffffffffffffffffffffffffffffff1673ffffffffffffffffffffffffffffffffffffffff1673ffffffffffffffffffffffffffffffffffffffff1681526020016001820180546111d690615322565b80601f016020809104026020016040519081016040528092919081815260200182805461120290615322565b801561124f5780601f106112245761010080835404028352916020019161124f565b820191906000526020600020905b81548152906001019060200180831161123257829003601f168201915b5050505050815250509080600301805461126890615322565b80601f016020809104026020016040519081016040528092919081815260200182805461129490615322565b80156112e15780601f106112b6576101008083540402835291602001916112e1565b820191906000526020600020905b8154815290600101906020018083116112c457829003601f168201915b5050505050908060040160009054906101000a900467ffffffffffffffff169080600501805461131090615322565b80601f016020809104026020016040519081016040528092919081815260200182805461133c90615322565b80156113895780601f1061135e57610100808354040283529160200191611389565b820191906000526020600020905b81548152906001019060200180831161136c57829003601f168201915b5050505050905085565b600d60009054906101000a900473ffffffffffffffffffffffffffffffffffffffff1673ffffffffffffffffffffffffffffffffffffffff163373ffffffffffffffffffffffffffffffffffffffff161461141a576040517f82b4290000000000000000000000000000000000000000000000000000000000815260040160405180910390fd5b60004790503373ffffffffffffffffffffffffffffffffffffffff166108fc829081150290604051600060405180830381858888f19350505050158015611465573d6000803e3d6000fd5b5050565b600d60009054906101000a900473ffffffffffffffffffffffffffffffffffffffff1673ffffffffffffffffffffffffffffffffffffffff163373ffffffffffffffffffffffffffffffffffffffff16146114f0576040517f82b4290000000000000000000000000000000000000000000000000000000000815260040160405180910390fd5b80601260006101000a81548160ff02191690831515021790555050565b611528838383604051806020016040528060008152506128b3565b505050565b600d60009054906101000a900473ffffffffffffffffffffffffffffffffffffffff1673ffffffffffffffffffffffffffffffffffffffff163373ffffffffffffffffffffffffffffffffffffffff16146115b4576040517f82b4290000000000000000000000000000000000000000000000000000000000815260040160405180910390fd5b60008173ffffffffffffffffffffffffffffffffffffffff166370a08231306040518263ffffffff1660e01b81526004016115ef9190614cb5565b60206040518083038186803b15801561160757600080fd5b505afa15801561161b573d6000803e3d6000fd5b505050506040513d601f19601f8201168201806040525081019061163f91906147fa565b90508173ffffffffffffffffffffffffffffffffffffffff1663a9059cbb33836040518363ffffffff1660e01b815260040161167c929190614d1c565b602060405180830381600087803b15801561169657600080fd5b505af11580156116aa573d6000803e3d6000fd5b505050506040513d601f19601f820116820180604052508101906116ce919061466d565b505050565b600d60009054906101000a900473ffffffffffffffffffffffffffffffffffffffff1673ffffffffffffffffffffffffffffffffffffffff163373ffffffffffffffffffffffffffffffffffffffff161461175a576040517f82b4290000000000000000000000000000000000000000000000000000000000815260040160405180910390fd5b8060119080519060200190611770929190613f66565b5050565b6000806017600084815260200190815260200160002060009054906101000a900473ffffffffffffffffffffffffffffffffffffffff169050600073ffffffffffffffffffffffffffffffffffffffff168173ffffffffffffffffffffffffffffffffffffffff161415611814576040517f3f6cc76800000000000000000000000000000000000000000000000000000000815260040160405180910390fd5b80915050919050565b600060026000541415611865576040517f08c379a000000000000000000000000000000000000000000000000000000000815260040161185c90614eae565b60405180910390fd5b600260008190555060001515601260009054906101000a900460ff16151514156118bb576040517f15b1bdcd00000000000000000000000000000000000000000000000000000000815260040160405180910390fd5b60006118c561370e565b9050604051806060016040528082815260200187815260200186815250601c600083815260200190815260200160002060008201518160000155602082015181600101908051906020019061191b929190614090565b506040820151816002019080519060200190611938929190614090565b50905050604051806060016040528082815260200185815260200184815250601d6000838152602001908152602001600020600082015181600001556020820151816001019080519060200190611990929190614090565b5060408201518160020190805190602001906119ad929190614090565b509050506040518061010001604052808281526020018c81526020018b81526020018a8152602001898152602001888152602001601c60008481526020019081526020016000206040518060600160405290816000820154815260200160018201805480602002602001604051908101604052809291908181526020018280548015611a5857602002820191906000526020600020905b815481526020019060010190808311611a44575b5050505050815260200160028201805480602002602001604051908101604052809291908181526020018280548015611ab057602002820191906000526020600020905b815481526020019060010190808311611a9c575b5050505050815250508152602001601d60008481526020019081526020016000206040518060600160405290816000820154815260200160018201805480602002602001604051908101604052809291908181526020018280548015611b3557602002820191906000526020600020905b815481526020019060010190808311611b21575b5050505050815260200160028201805480602002602001604051908101604052809291908181526020018280548015611b8d57602002820191906000526020600020905b815481526020019060010190808311611b79575b505050505081525050815250601b6000838152602001908152602001600020600082015181600001556020820151816001019080519060200190611bd2929190613f66565b5060408201518160020155606082015181600301556080820151816004015560a0820151816005015560c082015181600601600082015181600001556020820151816001019080519060200190611c2a929190614090565b506040820151816002019080519060200190611c47929190614090565b50505060e082015181600901600082015181600001556020820151816001019080519060200190611c79929190614090565b506040820151816002019080519060200190611c96929190614090565b505050905050611ca68c82613729565b8091505060016000819055509a9950505050505050505050565b60008073ffffffffffffffffffffffffffffffffffffffff168273ffffffffffffffffffffffffffffffffffffffff161415611d28576040517fd92e233d00000000000000000000000000000000000000000000000000000000815260040160405180910390fd5b601860008373ffffffffffffffffffffffffffffffffffffffff1673ffffffffffffffffffffffffffffffffffffffff168152602001908152602001600020549050919050565b6060600060118054611d8090615322565b905011611d9c5760405180602001604052806000815250611e28565b60118054611da990615322565b80601f0160208091040260200160405190810160405280929190818152602001828054611dd590615322565b8015611e225780601f10611df757610100808354040283529160200191611e22565b820191906000526020600020905b815481529060010190602001808311611e0557829003601f168201915b50505050505b905090565b60006060600080600080611e3f6140dd565b611e476140fe565b6000601b60008b8152602001908152602001600020905080600001548160010182600201548360030154846004015485600501548660060187600901868054611e8f90615322565b80601f0160208091040260200160405190810160405280929190818152602001828054611ebb90615322565b8015611f085780601f10611edd57610100808354040283529160200191611f08565b820191906000526020600020905b815481529060010190602001808311611eeb57829003601f168201915b50505050509650816040518060600160405290816000820154815260200160018201805480602002602001604051908101604052809291908181526020018280548015611f7457602002820191906000526020600020905b815481526020019060010190808311611f60575b5050505050815260200160028201805480602002602001604051908101604052809291908181526020018280548015611fcc57602002820191906000526020600020905b815481526020019060010190808311611fb8575b505050505081525050915080604051806060016040529081600082015481526020016001820180548060200260200160405190810160405280929190818152602001828054801561203c57602002820191906000526020600020905b815481526020019060010190808311612028575b505050505081526020016002820180548060200260200160405190810160405280929190818152602001828054801561209457602002820191906000526020600020905b815481526020019060010190808311612080575b50505050508152505090509850985098509850985098509850985050919395975091939597565b6000601b60008581526020019081526020016000209050600b54825114806120e55750600c548251145b612124576040517f08c379a000000000000000000000000000000000000000000000000000000000815260040161211b90614e2e565b60405180910390fd5b600083141561253b5781600081518110612167577f4e487b7100000000000000000000000000000000000000000000000000000000600052603260045260246000fd5b602002602001015160096000815481106121aa577f4e487b7100000000000000000000000000000000000000000000000000000000600052603260045260246000fd5b906000526020600020015410156121f6576040517f08c379a00000000000000000000000000000000000000000000000000000000081526004016121ed90614e4e565b60405180910390fd5b81600181518110612230577f4e487b7100000000000000000000000000000000000000000000000000000000600052603260045260246000fd5b60200260200101516009600181548110612273577f4e487b7100000000000000000000000000000000000000000000000000000000600052603260045260246000fd5b906000526020600020015410156122bf576040517f08c379a00000000000000000000000000000000000000000000000000000000081526004016122b690614e4e565b60405180910390fd5b816002815181106122f9577f4e487b7100000000000000000000000000000000000000000000000000000000600052603260045260246000fd5b6020026020010151600960028154811061233c577f4e487b7100000000000000000000000000000000000000000000000000000000600052603260045260246000fd5b90600052602060002001541015612388576040517f08c379a000000000000000000000000000000000000000000000000000000000815260040161237f90614e4e565b60405180910390fd5b816003815181106123c2577f4e487b7100000000000000000000000000000000000000000000000000000000600052603260045260246000fd5b60200260200101516009600381548110612405577f4e487b7100000000000000000000000000000000000000000000000000000000600052603260045260246000fd5b90600052602060002001541015612451576040517f08c379a000000000000000000000000000000000000000000000000000000000815260040161244890614e4e565b60405180910390fd5b8160048151811061248b577f4e487b7100000000000000000000000000000000000000000000000000000000600052603260045260246000fd5b602002602001015160096004815481106124ce577f4e487b7100000000000000000000000000000000000000000000000000000000600052603260045260246000fd5b9060005260206000200154101561251a576040517f08c379a000000000000000000000000000000000000000000000000000000000815260040161251190614e4e565b60405180910390fd5b81816006016001019080519060200190612535929190614090565b5061272a565b60018314156126f7578160008151811061257e577f4e487b7100000000000000000000000000000000000000000000000000000000600052603260045260246000fd5b6020026020010151600a6000815481106125c1577f4e487b7100000000000000000000000000000000000000000000000000000000600052603260045260246000fd5b9060005260206000200154101561260d576040517f08c379a000000000000000000000000000000000000000000000000000000000815260040161260490614e4e565b60405180910390fd5b81600181518110612647577f4e487b7100000000000000000000000000000000000000000000000000000000600052603260045260246000fd5b6020026020010151600a60018154811061268a577f4e487b7100000000000000000000000000000000000000000000000000000000600052603260045260246000fd5b906000526020600020015410156126d6576040517f08c379a00000000000000000000000000000000000000000000000000000000081526004016126cd90614e4e565b60405180910390fd5b818160090160010190805190602001906126f1929190614090565b50612729565b6040517f9e744f4c00000000000000000000000000000000000000000000000000000000815260040160405180910390fd5b5b50505050565b60606010805461273f90615322565b80601f016020809104026020016040519081016040528092919081815260200182805461276b90615322565b80156127b85780601f1061278d576101008083540402835291602001916127b8565b820191906000526020600020905b81548152906001019060200180831161279b57829003601f168201915b5050505050905090565b60138060000154908060010154908060020154908060030160009054906101000a900460ff16905084565b6060600a80548060200260200160405190810160405280929190818152602001828054801561283b57602002820191906000526020600020905b815481526020019060010190808311612827575b5050505050905090565b61285761285061329f565b8383613747565b5050565b606060098054806020026020016040519081016040528092919081815260200182805480156128a957602002820191906000526020600020905b815481526020019060010190808311612895575b5050505050905090565b6128c46128be61329f565b83613424565b6128fa576040517f82b4290000000000000000000000000000000000000000000000000000000000815260040160405180910390fd5b61290684848484613912565b50505050565b60606129178261325d565b601260019054906101000a900460ff16612a0b576000601e6000848152602001908152602001600020805461294b90615322565b9050116129675760405180602001604052806000815250612a04565b601e6000838152602001908152602001600020805461298590615322565b80601f01602080910402602001604051908101604052809291908181526020018280546129b190615322565b80156129fe5780601f106129d3576101008083540402835291602001916129fe565b820191906000526020600020905b8154815290600101906020018083116129e157829003601f168201915b50505050505b9050612a64565b6000612a15611d6f565b90506000815111612a355760405180602001604052806000815250612a60565b80612a3f84613965565b604051602001612a50929190614c91565b6040516020818303038152906040525b9150505b919050565b7f000000000000000000000000000000000000000000000000000000000000000081565b600d60009054906101000a900473ffffffffffffffffffffffffffffffffffffffff1673ffffffffffffffffffffffffffffffffffffffff163373ffffffffffffffffffffffffffffffffffffffff1614612b14576040517f82b4290000000000000000000000000000000000000000000000000000000000815260040160405180910390fd5b600b5481511480612b275750600c548151145b612b66576040517f08c379a0000000000000000000000000000000000000000000000000000000008152600401612b5d90614e2e565b60405180910390fd5b6000821415612b8b578060099080519060200190612b85929190614090565b50612be3565b6001821415612bb05780600a9080519060200190612baa929190614090565b50612be2565b6040517f9e744f4c00000000000000000000000000000000000000000000000000000000815260040160405180910390fd5b5b5050565b6000600d60009054906101000a900473ffffffffffffffffffffffffffffffffffffffff1673ffffffffffffffffffffffffffffffffffffffff163373ffffffffffffffffffffffffffffffffffffffff1614612c70576040517f82b4290000000000000000000000000000000000000000000000000000000000815260040160405180910390fd5b6000612c7a61370e565b9050604051806060016040528082815260200187815260200186815250601c6000838152602001908152602001600020600082015181600001556020820151816001019080519060200190612cd0929190614090565b506040820151816002019080519060200190612ced929190614090565b50905050604051806060016040528082815260200185815260200184815250601d6000838152602001908152602001600020600082015181600001556020820151816001019080519060200190612d45929190614090565b506040820151816002019080519060200190612d62929190614090565b509050506040518061010001604052808281526020018c81526020018b81526020018a8152602001898152602001888152602001601c60008481526020019081526020016000206040518060600160405290816000820154815260200160018201805480602002602001604051908101604052809291908181526020018280548015612e0d57602002820191906000526020600020905b815481526020019060010190808311612df9575b5050505050815260200160028201805480602002602001604051908101604052809291908181526020018280548015612e6557602002820191906000526020600020905b815481526020019060010190808311612e51575b5050505050815250508152602001601d60008481526020019081526020016000206040518060600160405290816000820154815260200160018201805480602002602001604051908101604052809291908181526020018280548015612eea57602002820191906000526020600020905b815481526020019060010190808311612ed6575b5050505050815260200160028201805480602002602001604051908101604052809291908181526020018280548015612f4257602002820191906000526020600020905b815481526020019060010190808311612f2e575b505050505081525050815250601b6000838152602001908152602001600020600082015181600001556020820151816001019080519060200190612f87929190613f66565b5060408201518160020155606082015181600301556080820151816004015560a0820151816005015560c082015181600601600082015181600001556020820151816001019080519060200190612fdf929190614090565b506040820151816002019080519060200190612ffc929190614090565b50505060e08201518160090160008201518160000155602082015181600101908051906020019061302e929190614090565b50604082015181600201908051906020019061304b929190614090565b50505090505061305b8c82613729565b809150509a9950505050505050505050565b6000601a60008473ffffffffffffffffffffffffffffffffffffffff1673ffffffffffffffffffffffffffffffffffffffff16815260200190815260200160002060008373ffffffffffffffffffffffffffffffffffffffff1673ffffffffffffffffffffffffffffffffffffffff16815260200190815260200160002060009054906101000a900460ff16905092915050565b60007f01ffc9a7000000000000000000000000000000000000000000000000000000007bffffffffffffffffffffffffffffffffffffffffffffffffffffffff1916827bffffffffffffffffffffffffffffffffffffffffffffffffffffffff1916149050919050565b600060018054906101000a900460ff16156131e15760018260ff16148015613199575061319730613b12565b155b6131d8576040517f08c379a00000000000000000000000000000000000000000000000000000000081526004016131cf90614e6e565b60405180910390fd5b60009050613258565b8160ff16600160009054906101000a900460ff1660ff1610613238576040517f08c379a000000000000000000000000000000000000000000000000000000000815260040161322f90614e6e565b60405180910390fd5b81600160006101000a81548160ff021916908360ff160217905550600190505b919050565b61326681613b25565b61329c576040517f3f6cc76800000000000000000000000000000000000000000000000000000000815260040160405180910390fd5b50565b600033905090565b816019600083815260200190815260200160002060006101000a81548173ffffffffffffffffffffffffffffffffffffffff021916908373ffffffffffffffffffffffffffffffffffffffff160217905550808273ffffffffffffffffffffffffffffffffffffffff1661331a83611774565b73ffffffffffffffffffffffffffffffffffffffff167f8c5be1e5ebec7d5bd14f71427d1e84f3dd0314c0f7b2291e5b200ac8c7c3b92560405160405180910390a45050565b600080600060056001600b546133769190615112565b6133809190615199565b905060006005856133919190615168565b9050600082866133a191906153ce565b14156133eb5760008083876133b69190615168565b905060006002826133c791906153ce565b14156133d657600191506133db565b600091505b600182955095505050505061341f565b6000600180600b546133fd9190615112565b8361340891906153ce565b61341291906151f3565b9050600081945094505050505b915091565b60008061343083611774565b90508073ffffffffffffffffffffffffffffffffffffffff168473ffffffffffffffffffffffffffffffffffffffff1614806134725750613471818561306d565b5b806134b057508373ffffffffffffffffffffffffffffffffffffffff1661349884610b4c565b73ffffffffffffffffffffffffffffffffffffffff16145b91505092915050565b8273ffffffffffffffffffffffffffffffffffffffff166134d982611774565b73ffffffffffffffffffffffffffffffffffffffff1614613526576040517f3a6bbed300000000000000000000000000000000000000000000000000000000815260040160405180910390fd5b600073ffffffffffffffffffffffffffffffffffffffff168273ffffffffffffffffffffffffffffffffffffffff16141561358d576040517fd92e233d00000000000000000000000000000000000000000000000000000000815260040160405180910390fd5b613598838383613b91565b6135a36000826132a7565b6001601860008573ffffffffffffffffffffffffffffffffffffffff1673ffffffffffffffffffffffffffffffffffffffff16815260200190815260200160002060008282546135f391906151f3565b925050819055506001601860008473ffffffffffffffffffffffffffffffffffffffff1673ffffffffffffffffffffffffffffffffffffffff168152602001908152602001600020600082825461364a9190615112565b92505081905550816017600083815260200190815260200160002060006101000a81548173ffffffffffffffffffffffffffffffffffffffff021916908373ffffffffffffffffffffffffffffffffffffffff160217905550808273ffffffffffffffffffffffffffffffffffffffff168473ffffffffffffffffffffffffffffffffffffffff167fddf252ad1be2c89b69c2b068fc378daa952ba7f163c4a11628f55a4df523b3ef60405160405180910390a4613709838383613b96565b505050565b600061371a600e613b9b565b613724600e613bb1565b905090565b613743828260405180602001604052806000815250613bbf565b5050565b600073ffffffffffffffffffffffffffffffffffffffff168273ffffffffffffffffffffffffffffffffffffffff1614156137ae576040517fd92e233d00000000000000000000000000000000000000000000000000000000815260040160405180910390fd5b8173ffffffffffffffffffffffffffffffffffffffff168373ffffffffffffffffffffffffffffffffffffffff161415613814576040517ff4b33eeb00000000000000000000000000000000000000000000000000000000815260040160405180910390fd5b80601a60008573ffffffffffffffffffffffffffffffffffffffff1673ffffffffffffffffffffffffffffffffffffffff16815260200190815260200160002060008473ffffffffffffffffffffffffffffffffffffffff1673ffffffffffffffffffffffffffffffffffffffff16815260200190815260200160002060006101000a81548160ff0219169083151502179055508173ffffffffffffffffffffffffffffffffffffffff168373ffffffffffffffffffffffffffffffffffffffff167f17307eab39ab6107e8899845ad3d59bd9653f200f220920489ca2b5937696c31836040516139059190614d67565b60405180910390a3505050565b61391d8484846134b9565b61392984848484613c11565b61395f576040517f44ccafd600000000000000000000000000000000000000000000000000000000815260040160405180910390fd5b50505050565b606060008214156139ad576040518060400160405280600181526020017f30000000000000000000000000000000000000000000000000000000000000008152509050613b0d565b600082905060005b600082146139df5780806139c890615385565b915050600a826139d89190615168565b91506139b5565b60008167ffffffffffffffff811115613a21577f4e487b7100000000000000000000000000000000000000000000000000000000600052604160045260246000fd5b6040519080825280601f01601f191660200182016040528015613a535781602001600182028036833780820191505090505b5090505b60008514613b0657600182613a6c91906151f3565b9150600a85613a7b91906153ce565b6030613a879190615112565b60f81b818381518110613ac3577f4e487b7100000000000000000000000000000000000000000000000000000000600052603260045260246000fd5b60200101907effffffffffffffffffffffffffffffffffffffffffffffffffffffffffffff1916908160001a905350600a85613aff9190615168565b9450613a57565b8093505050505b919050565b600080823b905060008111915050919050565b60008073ffffffffffffffffffffffffffffffffffffffff166017600084815260200190815260200160002060009054906101000a900473ffffffffffffffffffffffffffffffffffffffff1673ffffffffffffffffffffffffffffffffffffffff1614159050919050565b505050565b505050565b6001816000016000828254019250508190555050565b600081600001549050919050565b613bc98383613d9f565b613bd66000848484613c11565b613c0c576040517f44ccafd600000000000000000000000000000000000000000000000000000000815260040160405180910390fd5b505050565b6000613c328473ffffffffffffffffffffffffffffffffffffffff16613b12565b15613d92578373ffffffffffffffffffffffffffffffffffffffff1663150b7a02613c5b61329f565b8786866040518563ffffffff1660e01b8152600401613c7d9493929190614cd0565b602060405180830381600087803b158015613c9757600080fd5b505af1925050508015613cc857506040513d601f19601f82011682018060405250810190613cc591906146bf565b60015b613d42573d8060008114613cf8576040519150601f19603f3d011682016040523d82523d6000602084013e613cfd565b606091505b50600081511415613d3a576040517f44ccafd600000000000000000000000000000000000000000000000000000000815260040160405180910390fd5b805181602001fd5b63150b7a0260e01b7bffffffffffffffffffffffffffffffffffffffffffffffffffffffff1916817bffffffffffffffffffffffffffffffffffffffffffffffffffffffff191614915050613d97565b600190505b949350505050565b600073ffffffffffffffffffffffffffffffffffffffff168273ffffffffffffffffffffffffffffffffffffffff161415613e06576040517fd92e233d00000000000000000000000000000000000000000000000000000000815260040160405180910390fd5b613e0f81613b25565b15613e45576040517ea5a1f500000000000000000000000000000000000000000000000000000000815260040160405180910390fd5b613e5160008383613b91565b6001601860008473ffffffffffffffffffffffffffffffffffffffff1673ffffffffffffffffffffffffffffffffffffffff1681526020019081526020016000206000828254613ea19190615112565b92505081905550816017600083815260200190815260200160002060006101000a81548173ffffffffffffffffffffffffffffffffffffffff021916908373ffffffffffffffffffffffffffffffffffffffff160217905550808273ffffffffffffffffffffffffffffffffffffffff16600073ffffffffffffffffffffffffffffffffffffffff167fddf252ad1be2c89b69c2b068fc378daa952ba7f163c4a11628f55a4df523b3ef60405160405180910390a4613f6260008383613b96565b5050565b828054613f7290615322565b90600052602060002090601f016020900481019282613f945760008555613fdb565b82601f10613fad57805160ff1916838001178555613fdb565b82800160010185558215613fdb579182015b82811115613fda578251825591602001919060010190613fbf565b5b509050613fe8919061411f565b5090565b82805482825590600052602060002090810192821561402d579160200282015b8281111561402c578251829060ff1690559160200191906001019061400c565b5b50905061403a919061411f565b5090565b82805482825590600052602060002090810192821561407f579160200282015b8281111561407e578251829060ff1690559160200191906001019061405e565b5b50905061408c919061411f565b5090565b8280548282559060005260206000209081019282156140cc579160200282015b828111156140cb5782518255916020019190600101906140b0565b5b5090506140d9919061411f565b5090565b60405180606001604052806000815260200160608152602001606081525090565b60405180606001604052806000815260200160608152602001606081525090565b5b80821115614138576000816000905550600101614120565b5090565b600061414f61414a84614fe6565b614fc1565b9050808382526020820190508285602086028201111561416e57600080fd5b60005b8581101561419e57816141848882614320565b845260208401935060208301925050600181019050614171565b5050509392505050565b60006141bb6141b684615012565b614fc1565b9050828152602081018484840111156141d357600080fd5b6141de8482856152e0565b509392505050565b60006141f96141f484615043565b614fc1565b90508281526020810184848401111561421157600080fd5b61421c8482856152e0565b509392505050565b6000813590506142338161560b565b92915050565b600082601f83011261424a57600080fd5b813561425a84826020860161413c565b91505092915050565b60008135905061427281615622565b92915050565b60008151905061428781615622565b92915050565b60008135905061429c81615639565b92915050565b6000815190506142b181615639565b92915050565b600082601f8301126142c857600080fd5b81356142d88482602086016141a8565b91505092915050565b6000813590506142f081615650565b92915050565b600082601f83011261430757600080fd5b81356143178482602086016141e6565b91505092915050565b60008135905061432f81615667565b92915050565b60008151905061434481615667565b92915050565b60006020828403121561435c57600080fd5b600061436a84828501614224565b91505092915050565b6000806040838503121561438657600080fd5b600061439485828601614224565b92505060206143a585828601614224565b9150509250929050565b6000806000606084860312156143c457600080fd5b60006143d286828701614224565b93505060206143e386828701614224565b92505060406143f486828701614320565b9150509250925092565b6000806000806080858703121561441457600080fd5b600061442287828801614224565b945050602061443387828801614224565b935050604061444487828801614320565b925050606085013567ffffffffffffffff81111561446157600080fd5b61446d878288016142b7565b91505092959194509250565b6000806040838503121561448c57600080fd5b600061449a85828601614224565b92505060206144ab85828601614263565b9150509250929050565b6000806000806000806000806000806101408b8d0312156144d557600080fd5b60006144e38d828e01614224565b9a505060208b013567ffffffffffffffff81111561450057600080fd5b61450c8d828e016142f6565b995050604061451d8d828e01614320565b985050606061452e8d828e01614320565b975050608061453f8d828e01614320565b96505060a06145508d828e01614320565b95505060c08b013567ffffffffffffffff81111561456d57600080fd5b6145798d828e01614239565b94505060e08b013567ffffffffffffffff81111561459657600080fd5b6145a28d828e01614239565b9350506101008b013567ffffffffffffffff8111156145c057600080fd5b6145cc8d828e01614239565b9250506101208b013567ffffffffffffffff8111156145ea57600080fd5b6145f68d828e01614239565b9150509295989b9194979a5092959850565b6000806040838503121561461b57600080fd5b600061462985828601614224565b925050602061463a85828601614320565b9150509250929050565b60006020828403121561465657600080fd5b600061466484828501614263565b91505092915050565b60006020828403121561467f57600080fd5b600061468d84828501614278565b91505092915050565b6000602082840312156146a857600080fd5b60006146b68482850161428d565b91505092915050565b6000602082840312156146d157600080fd5b60006146df848285016142a2565b91505092915050565b6000602082840312156146fa57600080fd5b6000614708848285016142e1565b91505092915050565b60006020828403121561472357600080fd5b600082013567ffffffffffffffff81111561473d57600080fd5b614749848285016142f6565b91505092915050565b60008060006060848603121561476757600080fd5b600084013567ffffffffffffffff81111561478157600080fd5b61478d868287016142f6565b935050602084013567ffffffffffffffff8111156147aa57600080fd5b6147b6868287016142f6565b92505060406147c786828701614224565b9150509250925092565b6000602082840312156147e357600080fd5b60006147f184828501614320565b91505092915050565b60006020828403121561480c57600080fd5b600061481a84828501614335565b91505092915050565b6000806040838503121561483657600080fd5b600061484485828601614320565b925050602083013567ffffffffffffffff81111561486157600080fd5b61486d85828601614239565b9150509250929050565b60008060006060848603121561488c57600080fd5b600061489a86828701614320565b93505060206148ab86828701614320565b925050604084013567ffffffffffffffff8111156148c857600080fd5b6148d486828701614239565b9150509250925092565b60006148ea8383614c64565b60208301905092915050565b6148ff81615227565b82525050565b61490e81615227565b82525050565b600061491f82615084565b61492981856150b2565b935061493483615074565b8060005b8381101561496557815161494c88826148de565b9750614957836150a5565b925050600181019050614938565b5085935050505092915050565b600061497d82615084565b61498781856150c3565b935061499283615074565b8060005b838110156149c35781516149aa88826148de565b97506149b5836150a5565b925050600181019050614996565b5085935050505092915050565b6149d981615239565b82525050565b60006149ea8261508f565b6149f481856150d4565b9350614a048185602086016152ef565b614a0d816154bb565b840191505092915050565b614a21816152ce565b82525050565b6000614a328261509a565b614a3c81856150e5565b9350614a4c8185602086016152ef565b614a55816154bb565b840191505092915050565b6000614a6b8261509a565b614a7581856150f6565b9350614a858185602086016152ef565b614a8e816154bb565b840191505092915050565b6000614aa48261509a565b614aae8185615107565b9350614abe8185602086016152ef565b80840191505092915050565b6000614ad76039836150f6565b9150614ae2826154cc565b604082019050919050565b6000614afa602f836150f6565b9150614b058261551b565b604082019050919050565b6000614b1d602e836150f6565b9150614b288261556a565b604082019050919050565b6000614b406010836150f6565b9150614b4b826155b9565b602082019050919050565b6000614b63601f836150f6565b9150614b6e826155e2565b602082019050919050565b6000604083016000830151614b9160008601826148f6565b5060208301518482036020860152614ba98282614a27565b9150508091505092915050565b6000606083016000830151614bce6000860182614c64565b5060208301518482036020860152614be68282614914565b91505060408301518482036040860152614c008282614914565b9150508091505092915050565b6000606083016000830151614c256000860182614c64565b5060208301518482036020860152614c3d8282614914565b91505060408301518482036040860152614c578282614914565b9150508091505092915050565b614c6d816152a3565b82525050565b614c7c816152a3565b82525050565b614c8b816152ad565b82525050565b6000614c9d8285614a99565b9150614ca98284614a99565b91508190509392505050565b6000602082019050614cca6000830184614905565b92915050565b6000608082019050614ce56000830187614905565b614cf26020830186614905565b614cff6040830185614c73565b8181036060830152614d1181846149df565b905095945050505050565b6000604082019050614d316000830185614905565b614d3e6020830184614c73565b9392505050565b60006020820190508181036000830152614d5f8184614972565b905092915050565b6000602082019050614d7c60008301846149d0565b92915050565b600060a0820190508181036000830152614d9c81886149df565b90508181036020830152614db08187614b79565b90508181036040830152614dc481866149df565b9050614dd36060830185614c82565b8181036080830152614de581846149df565b90509695505050505050565b6000602082019050614e066000830184614a18565b92915050565b60006020820190508181036000830152614e268184614a60565b905092915050565b60006020820190508181036000830152614e4781614aca565b9050919050565b60006020820190508181036000830152614e6781614aed565b9050919050565b60006020820190508181036000830152614e8781614b10565b9050919050565b60006020820190508181036000830152614ea781614b33565b9050919050565b60006020820190508181036000830152614ec781614b56565b9050919050565b6000602082019050614ee36000830184614c73565b92915050565b600061010082019050614eff600083018b614c73565b8181036020830152614f11818a614a60565b9050614f206040830189614c73565b614f2d6060830188614c73565b614f3a6080830187614c73565b614f4760a0830186614c73565b81810360c0830152614f598185614c0d565b905081810360e0830152614f6d8184614bb6565b90509998505050505050505050565b6000608082019050614f916000830187614c73565b614f9e6020830186614c73565b614fab6040830185614c73565b614fb860608301846149d0565b95945050505050565b6000614fcb614fdc565b9050614fd78282615354565b919050565b6000604051905090565b600067ffffffffffffffff8211156150015761500061548c565b5b602082029050602081019050919050565b600067ffffffffffffffff82111561502d5761502c61548c565b5b615036826154bb565b9050602081019050919050565b600067ffffffffffffffff82111561505e5761505d61548c565b5b615067826154bb565b9050602081019050919050565b6000819050602082019050919050565b600081519050919050565b600081519050919050565b600081519050919050565b6000602082019050919050565b600082825260208201905092915050565b600082825260208201905092915050565b600082825260208201905092915050565b600082825260208201905092915050565b600082825260208201905092915050565b600081905092915050565b600061511d826152a3565b9150615128836152a3565b9250827fffffffffffffffffffffffffffffffffffffffffffffffffffffffffffffffff0382111561515d5761515c6153ff565b5b828201905092915050565b6000615173826152a3565b915061517e836152a3565b92508261518e5761518d61542e565b5b828204905092915050565b60006151a4826152a3565b91506151af836152a3565b9250817fffffffffffffffffffffffffffffffffffffffffffffffffffffffffffffffff04831182151516156151e8576151e76153ff565b5b828202905092915050565b60006151fe826152a3565b9150615209836152a3565b92508282101561521c5761521b6153ff565b5b828203905092915050565b600061523282615283565b9050919050565b60008115159050919050565b60007fffffffff0000000000000000000000000000000000000000000000000000000082169050919050565b600061527c82615227565b9050919050565b600073ffffffffffffffffffffffffffffffffffffffff82169050919050565b6000819050919050565b600067ffffffffffffffff82169050919050565b600060ff82169050919050565b60006152d9826152c1565b9050919050565b82818337600083830152505050565b60005b8381101561530d5780820151818401526020810190506152f2565b8381111561531c576000848401525b50505050565b6000600282049050600182168061533a57607f821691505b6020821081141561534e5761534d61545d565b5b50919050565b61535d826154bb565b810181811067ffffffffffffffff8211171561537c5761537b61548c565b5b80604052505050565b6000615390826152a3565b91507fffffffffffffffffffffffffffffffffffffffffffffffffffffffffffffffff8214156153c3576153c26153ff565b5b600182019050919050565b60006153d9826152a3565b91506153e4836152a3565b9250826153f4576153f361542e565b5b828206905092915050565b7f4e487b7100000000000000000000000000000000000000000000000000000000600052601160045260246000fd5b7f4e487b7100000000000000000000000000000000000000000000000000000000600052601260045260246000fd5b7f4e487b7100000000000000000000000000000000000000000000000000000000600052602260045260246000fd5b7f4e487b7100000000000000000000000000000000000000000000000000000000600052604160045260246000fd5b6000601f19601f8301169050919050565b7f496e76616c6964202d206172726179206c656e2073686f756c64206d6174636860008201527f205374616e64617264206f72205370656369616c206174747200000000000000602082015250565b7f53656c65637465642063686f6963652069732067726561746572207468616e2060008201527f616c6c6f776564206f7074696f6e730000000000000000000000000000000000602082015250565b7f496e697469616c697a61626c653a20636f6e747261637420697320616c72656160008201527f647920696e697469616c697a6564000000000000000000000000000000000000602082015250565b7f496e76616c6964204c6576656c20557000000000000000000000000000000000600082015250565b7f5265656e7472616e637947756172643a207265656e7472616e742063616c6c00600082015250565b61561481615227565b811461561f57600080fd5b50565b61562b81615239565b811461563657600080fd5b50565b61564281615245565b811461564d57600080fd5b50565b61565981615271565b811461566457600080fd5b50565b615670816152a3565b811461567b57600080fd5b5056fea2646970667358221220eeb19bd57b36658efc8ddf67c04bc4f4d9a77ba2b3c7e0818103ae853e61c5ae64736f6c63430008040033",
  "linkReferences": {},
  "deployedLinkReferences": {}
}