{
  "_format": "hh-sol-artifact-1",
  "contractName": "NFTGameFactory",
  "sourceName": "contracts/NFTGameFactory.sol",
  "abi": [
    {
      "inputs": [
        {
          "internalType": "address",
          "name": "_masterContract",
          "type": "address"
        },
        {
          "internalType": "address",
          "name": "_owner",
          "type": "address"
        }
      ],
      "stateMutability": "nonpayable",
      "type": "constructor"
    },
    {
      "inputs": [],
      "name": "InstanceAlreadyInitialized",
      "type": "error"
    },
    {
      "inputs": [],
      "name": "InstanceDoesNotExist",
      "type": "error"
    },
    {
      "inputs": [],
      "name": "Unauthorized",
      "type": "error"
    },
    {
      "inputs": [],
      "name": "ZeroAddress",
      "type": "error"
    },
    {
      "anonymous": false,
      "inputs": [
        {
          "indexed": false,
          "internalType": "address",
          "name": "_tenant",
          "type": "address"
        },
        {
          "indexed": false,
          "internalType": "address",
          "name": "_proxy",
          "type": "address"
        }
      ],
      "name": "TenantCreated",
      "type": "event"
    },
    {
      "inputs": [
        {
          "internalType": "address",
          "name": "_tenant",
          "type": "address"
        },
        {
          "internalType": "string",
          "name": "_name",
          "type": "string"
        },
        {
          "internalType": "string",
          "name": "_symbol",
          "type": "string"
        }
      ],
      "name": "createInstance",
      "outputs": [],
      "stateMutability": "nonpayable",
      "type": "function"
    },
    {
      "inputs": [
        {
          "internalType": "address",
          "name": "_tenant",
          "type": "address"
        }
      ],
      "name": "getProxy",
      "outputs": [
        {
          "internalType": "contract NFTGame",
          "name": "",
          "type": "address"
        }
      ],
      "stateMutability": "view",
      "type": "function"
    },
    {
      "inputs": [
        {
          "internalType": "address",
          "name": "",
          "type": "address"
        }
      ],
      "name": "instance",
      "outputs": [
        {
          "internalType": "bool",
          "name": "",
          "type": "bool"
        }
      ],
      "stateMutability": "view",
      "type": "function"
    },
    {
      "inputs": [],
      "name": "masterContract",
      "outputs": [
        {
          "internalType": "address",
          "name": "",
          "type": "address"
        }
      ],
      "stateMutability": "view",
      "type": "function"
    },
    {
      "inputs": [],
      "name": "owner",
      "outputs": [
        {
          "internalType": "address",
          "name": "",
          "type": "address"
        }
      ],
      "stateMutability": "view",
      "type": "function"
    },
    {
      "inputs": [],
      "name": "tenantCounter",
      "outputs": [
        {
          "internalType": "uint256",
          "name": "_value",
          "type": "uint256"
        }
      ],
      "stateMutability": "view",
      "type": "function"
    },
    {
      "inputs": [
        {
          "internalType": "address",
          "name": "",
          "type": "address"
        }
      ],
      "name": "tenants",
      "outputs": [
        {
          "internalType": "contract NFTGame",
          "name": "nftGame",
          "type": "address"
        },
        {
          "internalType": "address",
          "name": "owner",
          "type": "address"
        }
      ],
      "stateMutability": "view",
      "type": "function"
    }
  ],
  "bytecode": "0x60c060405234801561001057600080fd5b50604051610d76380380610d76833981810160405281019061003291906100bc565b8173ffffffffffffffffffffffffffffffffffffffff1660a08173ffffffffffffffffffffffffffffffffffffffff1660601b815250508073ffffffffffffffffffffffffffffffffffffffff1660808173ffffffffffffffffffffffffffffffffffffffff1660601b815250505050610141565b6000815190506100b68161012a565b92915050565b600080604083850312156100cf57600080fd5b60006100dd858286016100a7565b92505060206100ee858286016100a7565b9150509250929050565b60006101038261010a565b9050919050565b600073ffffffffffffffffffffffffffffffffffffffff82169050919050565b610133816100f8565b811461013e57600080fd5b50565b60805160601c60a05160601c610bfc61017a60003960008181610457015261065b01526000818161019701526103470152610bfc6000f3fe608060405234801561001057600080fd5b506004361061007d5760003560e01c8063bf04bebb1161005b578063bf04bebb146100ee578063cd446e221461010a578063cf33d58814610128578063fd9153a3146101585761007d565b80631e9b4755146100825780638da5cb5b146100a0578063b7fba4d3146100be575b600080fd5b61008a610189565b6040516100979190610a03565b60405180910390f35b6100a8610195565b6040516100b5919061091b565b60405180910390f35b6100d860048036038101906100d391906107fe565b6101b9565b6040516100e5919061097a565b60405180910390f35b61010860048036038101906101039190610827565b6102a8565b005b610112610659565b60405161011f919061091b565b60405180910390f35b610142600480360381019061013d91906107fe565b61067d565b60405161014f919061095f565b60405180910390f35b610172600480360381019061016d91906107fe565b61069d565b604051610180929190610995565b60405180910390f35b60008060000154905081565b7f000000000000000000000000000000000000000000000000000000000000000081565b6000600260008373ffffffffffffffffffffffffffffffffffffffff1673ffffffffffffffffffffffffffffffffffffffff16815260200190815260200160002060009054906101000a900460ff1661023e576040517f5173702000000000000000000000000000000000000000000000000000000000815260040160405180910390fd5b600160008373ffffffffffffffffffffffffffffffffffffffff1673ffffffffffffffffffffffffffffffffffffffff16815260200190815260200160002060000160009054906101000a900473ffffffffffffffffffffffffffffffffffffffff169050919050565b82600073ffffffffffffffffffffffffffffffffffffffff168173ffffffffffffffffffffffffffffffffffffffff161415610310576040517fd92e233d00000000000000000000000000000000000000000000000000000000815260040160405180910390fd5b8073ffffffffffffffffffffffffffffffffffffffff163373ffffffffffffffffffffffffffffffffffffffff16148061039557507f000000000000000000000000000000000000000000000000000000000000000073ffffffffffffffffffffffffffffffffffffffff163373ffffffffffffffffffffffffffffffffffffffff16145b6103cb576040517f82b4290000000000000000000000000000000000000000000000000000000000815260040160405180910390fd5b83600260008273ffffffffffffffffffffffffffffffffffffffff1673ffffffffffffffffffffffffffffffffffffffff16815260200190815260200160002060009054906101000a900460ff1615610450576040517ff76d29a900000000000000000000000000000000000000000000000000000000815260040160405180910390fd5b600061047b7f0000000000000000000000000000000000000000000000000000000000000000610701565b90508073ffffffffffffffffffffffffffffffffffffffff1663077f224a8686896040518463ffffffff1660e01b81526004016104ba939291906109be565b600060405180830381600087803b1580156104d457600080fd5b505af11580156104e8573d6000803e3d6000fd5b505050506000600160008873ffffffffffffffffffffffffffffffffffffffff1673ffffffffffffffffffffffffffffffffffffffff1681526020019081526020016000209050818160000160006101000a81548173ffffffffffffffffffffffffffffffffffffffff021916908373ffffffffffffffffffffffffffffffffffffffff160217905550868160010160006101000a81548173ffffffffffffffffffffffffffffffffffffffff021916908373ffffffffffffffffffffffffffffffffffffffff1602179055506001600260008973ffffffffffffffffffffffffffffffffffffffff1673ffffffffffffffffffffffffffffffffffffffff16815260200190815260200160002060006101000a81548160ff021916908315150217905550610617600061076b565b7f6c253b297385738b44c5cd705bc77dfaf43a58b0a4e9fe4f4eb44eebb417db118783604051610648929190610936565b60405180910390a150505050505050565b7f000000000000000000000000000000000000000000000000000000000000000081565b60026020528060005260406000206000915054906101000a900460ff1681565b60016020528060005260406000206000915090508060000160009054906101000a900473ffffffffffffffffffffffffffffffffffffffff16908060010160009054906101000a900473ffffffffffffffffffffffffffffffffffffffff16905082565b6000808260601b90506040517f3d602d80600a3d3981f3363d3d373d3d3d363d7300000000000000000000000081528160148201527f5af43d82803e903d91602b57fd5bf3000000000000000000000000000000000060288201526037816000f092505050919050565b6001816000016000828254019250508190555050565b600061079461078f84610a43565b610a1e565b9050828152602081018484840111156107ac57600080fd5b6107b7848285610afc565b509392505050565b6000813590506107ce81610baf565b92915050565b600082601f8301126107e557600080fd5b81356107f5848260208601610781565b91505092915050565b60006020828403121561081057600080fd5b600061081e848285016107bf565b91505092915050565b60008060006060848603121561083c57600080fd5b600061084a868287016107bf565b935050602084013567ffffffffffffffff81111561086757600080fd5b610873868287016107d4565b925050604084013567ffffffffffffffff81111561089057600080fd5b61089c868287016107d4565b9150509250925092565b6108af81610a90565b82525050565b6108be81610aa2565b82525050565b6108cd81610ad8565b82525050565b60006108de82610a74565b6108e88185610a7f565b93506108f8818560208601610b0b565b61090181610b9e565b840191505092915050565b61091581610ace565b82525050565b600060208201905061093060008301846108a6565b92915050565b600060408201905061094b60008301856108a6565b61095860208301846108a6565b9392505050565b600060208201905061097460008301846108b5565b92915050565b600060208201905061098f60008301846108c4565b92915050565b60006040820190506109aa60008301856108c4565b6109b760208301846108a6565b9392505050565b600060608201905081810360008301526109d881866108d3565b905081810360208301526109ec81856108d3565b90506109fb60408301846108a6565b949350505050565b6000602082019050610a18600083018461090c565b92915050565b6000610a28610a39565b9050610a348282610b3e565b919050565b6000604051905090565b600067ffffffffffffffff821115610a5e57610a5d610b6f565b5b610a6782610b9e565b9050602081019050919050565b600081519050919050565b600082825260208201905092915050565b6000610a9b82610aae565b9050919050565b60008115159050919050565b600073ffffffffffffffffffffffffffffffffffffffff82169050919050565b6000819050919050565b6000610ae382610aea565b9050919050565b6000610af582610aae565b9050919050565b82818337600083830152505050565b60005b83811015610b29578082015181840152602081019050610b0e565b83811115610b38576000848401525b50505050565b610b4782610b9e565b810181811067ffffffffffffffff82111715610b6657610b65610b6f565b5b80604052505050565b7f4e487b7100000000000000000000000000000000000000000000000000000000600052604160045260246000fd5b6000601f19601f8301169050919050565b610bb881610a90565b8114610bc357600080fd5b5056fea26469706673582212208cb79ea0beda3d17c39d1a230225c0732ff042067022caae46c0441b9e69201964736f6c63430008040033",
  "linkReferences": {},
  "deployedLinkReferences": {}
}