{
  "_format": "hh-sol-artifact-1",
  "contractName": "ERC777",
  "sourceName": "contracts/ERC777.sol",
  "abi": [
    {
      "inputs": [
        {
          "internalType": "address",
          "name": "_owner",
          "type": "address"
        }
      ],
      "stateMutability": "nonpayable",
      "type": "constructor"
    },
    {
      "inputs": [],
      "name": "AlreadyInitialized",
      "type": "error"
    },
    {
      "inputs": [],
      "name": "AuthorizingSelf",
      "type": "error"
    },
    {
      "inputs": [],
      "name": "InsufficientAllowance",
      "type": "error"
    },
    {
      "inputs": [],
      "name": "InsufficientBalance",
      "type": "error"
    },
    {
      "inputs": [],
      "name": "MissingERC777TokensRecipient",
      "type": "error"
    },
    {
      "inputs": [],
      "name": "RevokingSelf",
      "type": "error"
    },
    {
      "inputs": [],
      "name": "SameAddress",
      "type": "error"
    },
    {
      "inputs": [],
      "name": "Unauthorized",
      "type": "error"
    },
    {
      "inputs": [],
      "name": "UnauthorizedOperator",
      "type": "error"
    },
    {
      "inputs": [],
      "name": "ZeroAddress",
      "type": "error"
    },
    {
      "anonymous": false,
      "inputs": [
        {
          "indexed": true,
          "internalType": "address",
          "name": "owner",
          "type": "address"
        },
        {
          "indexed": true,
          "internalType": "address",
          "name": "spender",
          "type": "address"
        },
        {
          "indexed": false,
          "internalType": "uint256",
          "name": "value",
          "type": "uint256"
        }
      ],
      "name": "Approval",
      "type": "event"
    },
    {
      "anonymous": false,
      "inputs": [
        {
          "indexed": true,
          "internalType": "address",
          "name": "operator",
          "type": "address"
        },
        {
          "indexed": true,
          "internalType": "address",
          "name": "tokenHolder",
          "type": "address"
        }
      ],
      "name": "AuthorizedOperator",
      "type": "event"
    },
    {
      "anonymous": false,
      "inputs": [
        {
          "indexed": true,
          "internalType": "address",
          "name": "operator",
          "type": "address"
        },
        {
          "indexed": true,
          "internalType": "address",
          "name": "from",
          "type": "address"
        },
        {
          "indexed": false,
          "internalType": "uint256",
          "name": "amount",
          "type": "uint256"
        },
        {
          "indexed": false,
          "internalType": "bytes",
          "name": "data",
          "type": "bytes"
        },
        {
          "indexed": false,
          "internalType": "bytes",
          "name": "operatorData",
          "type": "bytes"
        }
      ],
      "name": "Burned",
      "type": "event"
    },
    {
      "anonymous": false,
      "inputs": [
        {
          "indexed": false,
          "internalType": "uint8",
          "name": "version",
          "type": "uint8"
        }
      ],
      "name": "Initialized",
      "type": "event"
    },
    {
      "anonymous": false,
      "inputs": [
        {
          "indexed": true,
          "internalType": "address",
          "name": "operator",
          "type": "address"
        },
        {
          "indexed": true,
          "internalType": "address",
          "name": "to",
          "type": "address"
        },
        {
          "indexed": false,
          "internalType": "uint256",
          "name": "amount",
          "type": "uint256"
        },
        {
          "indexed": false,
          "internalType": "bytes",
          "name": "data",
          "type": "bytes"
        },
        {
          "indexed": false,
          "internalType": "bytes",
          "name": "operatorData",
          "type": "bytes"
        }
      ],
      "name": "Minted",
      "type": "event"
    },
    {
      "anonymous": false,
      "inputs": [
        {
          "indexed": true,
          "internalType": "address",
          "name": "operator",
          "type": "address"
        },
        {
          "indexed": true,
          "internalType": "address",
          "name": "tokenHolder",
          "type": "address"
        }
      ],
      "name": "RevokedOperator",
      "type": "event"
    },
    {
      "anonymous": false,
      "inputs": [
        {
          "indexed": true,
          "internalType": "address",
          "name": "operator",
          "type": "address"
        },
        {
          "indexed": true,
          "internalType": "address",
          "name": "from",
          "type": "address"
        },
        {
          "indexed": true,
          "internalType": "address",
          "name": "to",
          "type": "address"
        },
        {
          "indexed": false,
          "internalType": "uint256",
          "name": "amount",
          "type": "uint256"
        },
        {
          "indexed": false,
          "internalType": "bytes",
          "name": "data",
          "type": "bytes"
        },
        {
          "indexed": false,
          "internalType": "bytes",
          "name": "operatorData",
          "type": "bytes"
        }
      ],
      "name": "Sent",
      "type": "event"
    },
    {
      "anonymous": false,
      "inputs": [
        {
          "indexed": true,
          "internalType": "address",
          "name": "from",
          "type": "address"
        },
        {
          "indexed": true,
          "internalType": "address",
          "name": "to",
          "type": "address"
        },
        {
          "indexed": false,
          "internalType": "uint256",
          "name": "value",
          "type": "uint256"
        }
      ],
      "name": "Transfer",
      "type": "event"
    },
    {
      "inputs": [
        {
          "internalType": "address",
          "name": "_owner",
          "type": "address"
        },
        {
          "internalType": "address",
          "name": "_spender",
          "type": "address"
        }
      ],
      "name": "allowance",
      "outputs": [
        {
          "internalType": "uint256",
          "name": "",
          "type": "uint256"
        }
      ],
      "stateMutability": "view",
      "type": "function"
    },
    {
      "inputs": [
        {
          "internalType": "address",
          "name": "_spender",
          "type": "address"
        },
        {
          "internalType": "uint256",
          "name": "_amount",
          "type": "uint256"
        }
      ],
      "name": "approve",
      "outputs": [
        {
          "internalType": "bool",
          "name": "",
          "type": "bool"
        }
      ],
      "stateMutability": "nonpayable",
      "type": "function"
    },
    {
      "inputs": [
        {
          "internalType": "address",
          "name": "_operator",
          "type": "address"
        }
      ],
      "name": "authorizeOperator",
      "outputs": [],
      "stateMutability": "nonpayable",
      "type": "function"
    },
    {
      "inputs": [
        {
          "internalType": "address",
          "name": "tokenHolder",
          "type": "address"
        }
      ],
      "name": "balanceOf",
      "outputs": [
        {
          "internalType": "uint256",
          "name": "",
          "type": "uint256"
        }
      ],
      "stateMutability": "view",
      "type": "function"
    },
    {
      "inputs": [
        {
          "internalType": "uint256",
          "name": "_amount",
          "type": "uint256"
        },
        {
          "internalType": "bytes",
          "name": "_data",
          "type": "bytes"
        }
      ],
      "name": "burn",
      "outputs": [],
      "stateMutability": "nonpayable",
      "type": "function"
    },
    {
      "inputs": [],
      "name": "contractOwner",
      "outputs": [
        {
          "internalType": "address",
          "name": "",
          "type": "address"
        }
      ],
      "stateMutability": "view",
      "type": "function"
    },
    {
      "inputs": [],
      "name": "decimals",
      "outputs": [
        {
          "internalType": "uint8",
          "name": "",
          "type": "uint8"
        }
      ],
      "stateMutability": "pure",
      "type": "function"
    },
    {
      "inputs": [],
      "name": "defaultOperators",
      "outputs": [
        {
          "internalType": "address[]",
          "name": "",
          "type": "address[]"
        }
      ],
      "stateMutability": "view",
      "type": "function"
    },
    {
      "inputs": [],
      "name": "granularity",
      "outputs": [
        {
          "internalType": "uint256",
          "name": "",
          "type": "uint256"
        }
      ],
      "stateMutability": "view",
      "type": "function"
    },
    {
      "inputs": [
        {
          "internalType": "string",
          "name": "_name",
          "type": "string"
        },
        {
          "internalType": "string",
          "name": "_symbol",
          "type": "string"
        },
        {
          "internalType": "address[]",
          "name": "defaultOperators_",
          "type": "address[]"
        },
        {
          "internalType": "uint256",
          "name": "_initialSupply",
          "type": "uint256"
        },
        {
          "internalType": "address",
          "name": "_tenant",
          "type": "address"
        }
      ],
      "name": "initialize",
      "outputs": [],
      "stateMutability": "nonpayable",
      "type": "function"
    },
    {
      "inputs": [
        {
          "internalType": "address",
          "name": "_operator",
          "type": "address"
        },
        {
          "internalType": "address",
          "name": "_tokenHolder",
          "type": "address"
        }
      ],
      "name": "isOperatorFor",
      "outputs": [
        {
          "internalType": "bool",
          "name": "",
          "type": "bool"
        }
      ],
      "stateMutability": "view",
      "type": "function"
    },
    {
      "inputs": [],
      "name": "metadata",
      "outputs": [
        {
          "internalType": "bytes",
          "name": "title",
          "type": "bytes"
        },
        {
          "internalType": "address",
          "name": "author",
          "type": "address"
        },
        {
          "internalType": "bytes",
          "name": "version",
          "type": "bytes"
        },
        {
          "internalType": "uint256",
          "name": "publishedAt",
          "type": "uint256"
        },
        {
          "internalType": "bytes",
          "name": "externalLink",
          "type": "bytes"
        }
      ],
      "stateMutability": "view",
      "type": "function"
    },
    {
      "inputs": [
        {
          "internalType": "uint256",
          "name": "_amount",
          "type": "uint256"
        }
      ],
      "name": "mint",
      "outputs": [],
      "stateMutability": "nonpayable",
      "type": "function"
    },
    {
      "inputs": [],
      "name": "name",
      "outputs": [
        {
          "internalType": "string",
          "name": "",
          "type": "string"
        }
      ],
      "stateMutability": "view",
      "type": "function"
    },
    {
      "inputs": [
        {
          "internalType": "address",
          "name": "_owner",
          "type": "address"
        },
        {
          "internalType": "uint256",
          "name": "_amount",
          "type": "uint256"
        },
        {
          "internalType": "bytes",
          "name": "_data",
          "type": "bytes"
        },
        {
          "internalType": "bytes",
          "name": "_operatorData",
          "type": "bytes"
        }
      ],
      "name": "operatorBurn",
      "outputs": [],
      "stateMutability": "nonpayable",
      "type": "function"
    },
    {
      "inputs": [
        {
          "internalType": "address",
          "name": "_owner",
          "type": "address"
        },
        {
          "internalType": "uint256",
          "name": "_amount",
          "type": "uint256"
        },
        {
          "internalType": "bytes",
          "name": "_data",
          "type": "bytes"
        },
        {
          "internalType": "bytes",
          "name": "_operatorData",
          "type": "bytes"
        }
      ],
      "name": "operatorMint",
      "outputs": [],
      "stateMutability": "nonpayable",
      "type": "function"
    },
    {
      "inputs": [
        {
          "internalType": "address",
          "name": "_from",
          "type": "address"
        },
        {
          "internalType": "address",
          "name": "_to",
          "type": "address"
        },
        {
          "internalType": "uint256",
          "name": "_amount",
          "type": "uint256"
        },
        {
          "internalType": "bytes",
          "name": "_data",
          "type": "bytes"
        },
        {
          "internalType": "bytes",
          "name": "_operatorData",
          "type": "bytes"
        }
      ],
      "name": "operatorSend",
      "outputs": [],
      "stateMutability": "nonpayable",
      "type": "function"
    },
    {
      "inputs": [
        {
          "internalType": "address",
          "name": "_operator",
          "type": "address"
        }
      ],
      "name": "revokeOperator",
      "outputs": [],
      "stateMutability": "nonpayable",
      "type": "function"
    },
    {
      "inputs": [
        {
          "internalType": "address",
          "name": "_to",
          "type": "address"
        },
        {
          "internalType": "uint256",
          "name": "_amount",
          "type": "uint256"
        },
        {
          "internalType": "bytes",
          "name": "_data",
          "type": "bytes"
        }
      ],
      "name": "send",
      "outputs": [],
      "stateMutability": "nonpayable",
      "type": "function"
    },
    {
      "inputs": [],
      "name": "symbol",
      "outputs": [
        {
          "internalType": "string",
          "name": "",
          "type": "string"
        }
      ],
      "stateMutability": "view",
      "type": "function"
    },
    {
      "inputs": [],
      "name": "totalSupply",
      "outputs": [
        {
          "internalType": "uint256",
          "name": "",
          "type": "uint256"
        }
      ],
      "stateMutability": "view",
      "type": "function"
    },
    {
      "inputs": [
        {
          "internalType": "address",
          "name": "_to",
          "type": "address"
        },
        {
          "internalType": "uint256",
          "name": "_amount",
          "type": "uint256"
        }
      ],
      "name": "transfer",
      "outputs": [
        {
          "internalType": "bool",
          "name": "",
          "type": "bool"
        }
      ],
      "stateMutability": "nonpayable",
      "type": "function"
    },
    {
      "inputs": [
        {
          "internalType": "address",
          "name": "_from",
          "type": "address"
        },
        {
          "internalType": "address",
          "name": "_to",
          "type": "address"
        },
        {
          "internalType": "uint256",
          "name": "_amount",
          "type": "uint256"
        }
      ],
      "name": "transferFrom",
      "outputs": [
        {
          "internalType": "bool",
          "name": "",
          "type": "bool"
        }
      ],
      "stateMutability": "nonpayable",
      "type": "function"
    }
  ],
  "bytecode": "0x60a06040523480156200001157600080fd5b506040516200421838038062004218833981810160405281019062000037919062000418565b6040518060a001604052806040518060400160405280600681526020017f455243373737000000000000000000000000000000000000000000000000000081525081526020018273ffffffffffffffffffffffffffffffffffffffff1681526020016040518060400160405280600581526020017f302e302e3100000000000000000000000000000000000000000000000000000081525081526020014281526020016040518060400160405280601b81526020017f68747470733a2f2f7777772e687970657276657273652e6465762f00000000008152508152506000808201518160000190805190602001906200013292919062000351565b5060208201518160010160006101000a81548173ffffffffffffffffffffffffffffffffffffffff021916908373ffffffffffffffffffffffffffffffffffffffff16021790555060408201518160020190805190602001906200019892919062000351565b50606082015181600301556080820151816004019080519060200190620001c192919062000351565b509050508073ffffffffffffffffffffffffffffffffffffffff1660808173ffffffffffffffffffffffffffffffffffffffff1660601b81525050731820a4b7618bde71dce8cdc73aab6c95905fad2473ffffffffffffffffffffffffffffffffffffffff166329965a1d307fac7fbab5f54a3ca8194167523c6753bfeb96a445279294b6125b68cce2177054306040518463ffffffff1660e01b81526004016200026f9392919062000466565b600060405180830381600087803b1580156200028a57600080fd5b505af11580156200029f573d6000803e3d6000fd5b50505050731820a4b7618bde71dce8cdc73aab6c95905fad2473ffffffffffffffffffffffffffffffffffffffff166329965a1d307faea199e31a596269b42cdafd93407f14436db6e4cad65417994c2eb37381e05a306040518463ffffffff1660e01b8152600401620003169392919062000466565b600060405180830381600087803b1580156200033157600080fd5b505af115801562000346573d6000803e3d6000fd5b505050505062000560565b8280546200035f90620004e1565b90600052602060002090601f016020900481019282620003835760008555620003cf565b82601f106200039e57805160ff1916838001178555620003cf565b82800160010185558215620003cf579182015b82811115620003ce578251825591602001919060010190620003b1565b5b509050620003de9190620003e2565b5090565b5b80821115620003fd576000816000905550600101620003e3565b5090565b600081519050620004128162000546565b92915050565b6000602082840312156200042b57600080fd5b60006200043b8482850162000401565b91505092915050565b6200044f81620004a3565b82525050565b6200046081620004b7565b82525050565b60006060820190506200047d600083018662000444565b6200048c602083018562000455565b6200049b604083018462000444565b949350505050565b6000620004b082620004c1565b9050919050565b6000819050919050565b600073ffffffffffffffffffffffffffffffffffffffff82169050919050565b60006002820490506001821680620004fa57607f821691505b6020821081141562000511576200051062000517565b5b50919050565b7f4e487b7100000000000000000000000000000000000000000000000000000000600052602260045260246000fd5b6200055181620004a3565b81146200055d57600080fd5b50565b60805160601c613c996200057f60003960006119230152613c996000f3fe608060405234801561001057600080fd5b506004361061014d5760003560e01c8063959b8c3f116100c3578063ce606ee01161007c578063ce606ee014610390578063d95b6371146103ae578063dd62ed3e146103de578063fad8b32a1461040e578063fc673c4f1461042a578063fe9d9303146104465761014d565b8063959b8c3f146102d257806395d89b41146102ee578063999de9cc1461030c5780639bd9bbc614610328578063a0712d6814610344578063a9059cbb146103605761014d565b8063313ce56711610115578063313ce5671461020c578063392f37e91461022a578063556f0dc71461024c57806362ad1b831461026a57806370a0823114610286578063768f950a146102b65761014d565b806306e485381461015257806306fdde0314610170578063095ea7b31461018e57806318160ddd146101be57806323b872dd146101dc575b600080fd5b61015a610462565b60405161016791906136be565b60405180910390f35b6101786104f0565b604051610185919061377e565b60405180910390f35b6101a860048036038101906101a391906131ee565b61057e565b6040516101b591906136e0565b60405180910390f35b6101c66106ec565b6040516101d391906137c0565b60405180910390f35b6101f660048036038101906101f191906130f8565b6106f2565b60405161020391906136e0565b60405180910390f35b6102146109ef565b6040516102219190613820565b60405180910390f35b6102326109f8565b6040516102439594939291906136fb565b60405180910390f35b610254610bd4565b60405161026191906137c0565b60405180910390f35b610284600480360381019061027f9190613147565b610bdd565b005b6102a0600480360381019061029b919061306a565b610c7c565b6040516102ad91906137c0565b60405180910390f35b6102d060048036038101906102cb9190613324565b610cc5565b005b6102ec60048036038101906102e7919061306a565b61114a565b005b6102f6611429565b604051610303919061377e565b60405180910390f35b61032660048036038101906103219190613291565b6114b7565b005b610342600480360381019061033d919061322a565b611510565b005b61035e600480360381019061035991906133e3565b611684565b005b61037a600480360381019061037591906131ee565b611738565b60405161038791906136e0565b60405180910390f35b610398611921565b6040516103a591906135d4565b60405180910390f35b6103c860048036038101906103c391906130bc565b611945565b6040516103d591906136e0565b60405180910390f35b6103f860048036038101906103f391906130bc565b611af6565b60405161040591906137c0565b60405180910390f35b6104286004803603810190610423919061306a565b611b7d565b005b610444600480360381019061043f9190613291565b611e5c565b005b610460600480360381019061045b919061340c565b611ef7565b005b6060600b8054806020026020016040519081016040528092919081815260200182805480156104e657602002820191906000526020600020905b8160009054906101000a900473ffffffffffffffffffffffffffffffffffffffff1673ffffffffffffffffffffffffffffffffffffffff168152602001906001019080831161049c575b5050505050905090565b600980546104fd90613a9c565b80601f016020809104026020016040519081016040528092919081815260200182805461052990613a9c565b80156105765780601f1061054b57610100808354040283529160200191610576565b820191906000526020600020905b81548152906001019060200180831161055957829003601f168201915b505050505081565b600033838073ffffffffffffffffffffffffffffffffffffffff168273ffffffffffffffffffffffffffffffffffffffff1614156105e8576040517f367558c300000000000000000000000000000000000000000000000000000000815260040160405180910390fd5b600073ffffffffffffffffffffffffffffffffffffffff168173ffffffffffffffffffffffffffffffffffffffff16148061064f5750600073ffffffffffffffffffffffffffffffffffffffff168273ffffffffffffffffffffffffffffffffffffffff16145b15610686576040517fd92e233d00000000000000000000000000000000000000000000000000000000815260040160405180910390fd5b6000610690611f5f565b90508461069c82610c7c565b10156106d4576040517ff4d678b800000000000000000000000000000000000000000000000000000000815260040160405180910390fd5b6106df818787611f67565b6001935050505092915050565b60085481565b600083838073ffffffffffffffffffffffffffffffffffffffff168273ffffffffffffffffffffffffffffffffffffffff16141561075c576040517f367558c300000000000000000000000000000000000000000000000000000000815260040160405180910390fd5b600073ffffffffffffffffffffffffffffffffffffffff168173ffffffffffffffffffffffffffffffffffffffff1614806107c35750600073ffffffffffffffffffffffffffffffffffffffff168273ffffffffffffffffffffffffffffffffffffffff16145b156107fa576040517fd92e233d00000000000000000000000000000000000000000000000000000000815260040160405180910390fd5b6000610804611f5f565b90506000600f60008973ffffffffffffffffffffffffffffffffffffffff1673ffffffffffffffffffffffffffffffffffffffff16815260200190815260200160002060008373ffffffffffffffffffffffffffffffffffffffff1673ffffffffffffffffffffffffffffffffffffffff16815260200190815260200160002054905085600f60008a73ffffffffffffffffffffffffffffffffffffffff1673ffffffffffffffffffffffffffffffffffffffff16815260200190815260200160002060006108d1611f5f565b73ffffffffffffffffffffffffffffffffffffffff1673ffffffffffffffffffffffffffffffffffffffff168152602001908152602001600020541015610944576040517f13be252b00000000000000000000000000000000000000000000000000000000815260040160405180910390fd5b61097082898989604051806020016040528060008152506040518060200160405280600081525061215a565b61099c8289898960405180602001604052806000815250604051806020016040528060008152506122d0565b6109b2888388846109ad91906139b5565b611f67565b6109e082898989604051806020016040528060008152506040518060200160405280600081525060006124f9565b60019450505050509392505050565b60006012905090565b6000806000018054610a0990613a9c565b80601f0160208091040260200160405190810160405280929190818152602001828054610a3590613a9c565b8015610a825780601f10610a5757610100808354040283529160200191610a82565b820191906000526020600020905b815481529060010190602001808311610a6557829003601f168201915b5050505050908060010160009054906101000a900473ffffffffffffffffffffffffffffffffffffffff1690806002018054610abd90613a9c565b80601f0160208091040260200160405190810160405280929190818152602001828054610ae990613a9c565b8015610b365780601f10610b0b57610100808354040283529160200191610b36565b820191906000526020600020905b815481529060010190602001808311610b1957829003601f168201915b505050505090806003015490806004018054610b5190613a9c565b80601f0160208091040260200160405190810160405280929190818152602001828054610b7d90613a9c565b8015610bca5780601f10610b9f57610100808354040283529160200191610bca565b820191906000526020600020905b815481529060010190602001808311610bad57829003601f168201915b5050505050905085565b60006001905090565b610bee610be8611f5f565b86611945565b610c24576040517f4d739bfe00000000000000000000000000000000000000000000000000000000815260040160405180910390fd5b82610c2e86610c7c565b1015610c66576040517ff4d678b800000000000000000000000000000000000000000000000000000000815260040160405180910390fd5b610c75858585858560016126d1565b5050505050565b6000600760008373ffffffffffffffffffffffffffffffffffffffff1673ffffffffffffffffffffffffffffffffffffffff168152602001908152602001600020549050919050565b6000610cd16001612819565b90508015610cf5576001600560156101000a81548160ff0219169083151502179055505b81600073ffffffffffffffffffffffffffffffffffffffff16600660009054906101000a900473ffffffffffffffffffffffffffffffffffffffff1673ffffffffffffffffffffffffffffffffffffffff1614610d7e576040517f0dc149f000000000000000000000000000000000000000000000000000000000815260040160405180910390fd5b8660099080519060200190610d94929190612d98565b5085600a9080519060200190610dab929190612d98565b5084600b9080519060200190610dc2929190612e1e565b5060005b8551811015610e7a576001600c6000888481518110610e0e577f4e487b7100000000000000000000000000000000000000000000000000000000600052603260045260246000fd5b602002602001015173ffffffffffffffffffffffffffffffffffffffff1673ffffffffffffffffffffffffffffffffffffffff16815260200190815260200160002060006101000a81548160ff0219169083151502179055508080610e7290613aff565b915050610dc6565b50600b309080600181540180825580915050600190039060005260206000200160009091909190916101000a81548173ffffffffffffffffffffffffffffffffffffffff021916908373ffffffffffffffffffffffffffffffffffffffff1602179055506001600c60003073ffffffffffffffffffffffffffffffffffffffff1673ffffffffffffffffffffffffffffffffffffffff16815260200190815260200160002060006101000a81548160ff021916908315150217905550731820a4b7618bde71dce8cdc73aab6c95905fad2473ffffffffffffffffffffffffffffffffffffffff166329965a1d307fac7fbab5f54a3ca8194167523c6753bfeb96a445279294b6125b68cce2177054306040518463ffffffff1660e01b8152600401610fa793929190613687565b600060405180830381600087803b158015610fc157600080fd5b505af1158015610fd5573d6000803e3d6000fd5b50505050731820a4b7618bde71dce8cdc73aab6c95905fad2473ffffffffffffffffffffffffffffffffffffffff166329965a1d307faea199e31a596269b42cdafd93407f14436db6e4cad65417994c2eb37381e05a306040518463ffffffff1660e01b815260040161104a93929190613687565b600060405180830381600087803b15801561106457600080fd5b505af1158015611078573d6000803e3d6000fd5b505050506110a68385604051806020016040528060008152506040518060200160405280600081525061290d565b82600660006101000a81548173ffffffffffffffffffffffffffffffffffffffff021916908373ffffffffffffffffffffffffffffffffffffffff160217905550508015611142576000600560156101000a81548160ff0219169083151502179055507f7f26b83ff96e1f2b6a682f133852f6798a09c465da95921460cefb384740249860016040516111399190613763565b60405180910390a15b505050505050565b600660009054906101000a900473ffffffffffffffffffffffffffffffffffffffff1673ffffffffffffffffffffffffffffffffffffffff163373ffffffffffffffffffffffffffffffffffffffff16146111d1576040517f82b4290000000000000000000000000000000000000000000000000000000000815260040160405180910390fd5b8073ffffffffffffffffffffffffffffffffffffffff166111f0611f5f565b73ffffffffffffffffffffffffffffffffffffffff16141561123e576040517f300a3ae800000000000000000000000000000000000000000000000000000000815260040160405180910390fd5b600c60008273ffffffffffffffffffffffffffffffffffffffff1673ffffffffffffffffffffffffffffffffffffffff16815260200190815260200160002060009054906101000a900460ff161561132857600e600061129c611f5f565b73ffffffffffffffffffffffffffffffffffffffff1673ffffffffffffffffffffffffffffffffffffffff16815260200190815260200160002060008273ffffffffffffffffffffffffffffffffffffffff1673ffffffffffffffffffffffffffffffffffffffff16815260200190815260200160002060006101000a81549060ff02191690556113c5565b6001600d6000611336611f5f565b73ffffffffffffffffffffffffffffffffffffffff1673ffffffffffffffffffffffffffffffffffffffff16815260200190815260200160002060008373ffffffffffffffffffffffffffffffffffffffff1673ffffffffffffffffffffffffffffffffffffffff16815260200190815260200160002060006101000a81548160ff0219169083151502179055505b6113cd611f5f565b73ffffffffffffffffffffffffffffffffffffffff168173ffffffffffffffffffffffffffffffffffffffff167ff4caeb2d6ca8932a215a353d0703c326ec2d81fc68170f320eb2ab49e9df61f960405160405180910390a350565b600a805461143690613a9c565b80601f016020809104026020016040519081016040528092919081815260200182805461146290613a9c565b80156114af5780601f10611484576101008083540402835291602001916114af565b820191906000526020600020905b81548152906001019060200180831161149257829003601f168201915b505050505081565b6114c86114c2611f5f565b85611945565b6114fe576040517f4d739bfe00000000000000000000000000000000000000000000000000000000815260040160405180910390fd5b61150a8484848461290d565b50505050565b33838073ffffffffffffffffffffffffffffffffffffffff168273ffffffffffffffffffffffffffffffffffffffff161415611578576040517f367558c300000000000000000000000000000000000000000000000000000000815260040160405180910390fd5b600073ffffffffffffffffffffffffffffffffffffffff168173ffffffffffffffffffffffffffffffffffffffff1614806115df5750600073ffffffffffffffffffffffffffffffffffffffff168273ffffffffffffffffffffffffffffffffffffffff16145b15611616576040517fd92e233d00000000000000000000000000000000000000000000000000000000815260040160405180910390fd5b8361162033610c7c565b1015611658576040517ff4d678b800000000000000000000000000000000000000000000000000000000815260040160405180910390fd5b61167d611663611f5f565b8686866040518060200160405280600081525060016126d1565b5050505050565b600660009054906101000a900473ffffffffffffffffffffffffffffffffffffffff1673ffffffffffffffffffffffffffffffffffffffff163373ffffffffffffffffffffffffffffffffffffffff161461170b576040517f82b4290000000000000000000000000000000000000000000000000000000000815260040160405180910390fd5b6117353382604051806020016040528060008152506040518060200160405280600081525061290d565b50565b600033838073ffffffffffffffffffffffffffffffffffffffff168273ffffffffffffffffffffffffffffffffffffffff1614156117a2576040517f367558c300000000000000000000000000000000000000000000000000000000815260040160405180910390fd5b600073ffffffffffffffffffffffffffffffffffffffff168173ffffffffffffffffffffffffffffffffffffffff1614806118095750600073ffffffffffffffffffffffffffffffffffffffff168273ffffffffffffffffffffffffffffffffffffffff16145b15611840576040517fd92e233d00000000000000000000000000000000000000000000000000000000815260040160405180910390fd5b600061184a611f5f565b90508461185682610c7c565b101561188e576040517ff4d678b800000000000000000000000000000000000000000000000000000000815260040160405180910390fd5b6118ba81828888604051806020016040528060008152506040518060200160405280600081525061215a565b6118e68182888860405180602001604052806000815250604051806020016040528060008152506122d0565b61191481828888604051806020016040528060008152506040518060200160405280600081525060006124f9565b6001935050505092915050565b7f000000000000000000000000000000000000000000000000000000000000000081565b60008173ffffffffffffffffffffffffffffffffffffffff168373ffffffffffffffffffffffffffffffffffffffff161480611a5d5750600c60008473ffffffffffffffffffffffffffffffffffffffff1673ffffffffffffffffffffffffffffffffffffffff16815260200190815260200160002060009054906101000a900460ff168015611a5c5750600e60008373ffffffffffffffffffffffffffffffffffffffff1673ffffffffffffffffffffffffffffffffffffffff16815260200190815260200160002060008473ffffffffffffffffffffffffffffffffffffffff1673ffffffffffffffffffffffffffffffffffffffff16815260200190815260200160002060009054906101000a900460ff16155b5b80611aee5750600d60008373ffffffffffffffffffffffffffffffffffffffff1673ffffffffffffffffffffffffffffffffffffffff16815260200190815260200160002060008473ffffffffffffffffffffffffffffffffffffffff1673ffffffffffffffffffffffffffffffffffffffff16815260200190815260200160002060009054906101000a900460ff165b905092915050565b6000600f60008473ffffffffffffffffffffffffffffffffffffffff1673ffffffffffffffffffffffffffffffffffffffff16815260200190815260200160002060008373ffffffffffffffffffffffffffffffffffffffff1673ffffffffffffffffffffffffffffffffffffffff16815260200190815260200160002054905092915050565b600660009054906101000a900473ffffffffffffffffffffffffffffffffffffffff1673ffffffffffffffffffffffffffffffffffffffff163373ffffffffffffffffffffffffffffffffffffffff1614611c04576040517f82b4290000000000000000000000000000000000000000000000000000000000815260040160405180910390fd5b8073ffffffffffffffffffffffffffffffffffffffff16611c23611f5f565b73ffffffffffffffffffffffffffffffffffffffff161415611c71576040517f39c87ad400000000000000000000000000000000000000000000000000000000815260040160405180910390fd5b600c60008273ffffffffffffffffffffffffffffffffffffffff1673ffffffffffffffffffffffffffffffffffffffff16815260200190815260200160002060009054906101000a900460ff1615611d64576001600e6000611cd1611f5f565b73ffffffffffffffffffffffffffffffffffffffff1673ffffffffffffffffffffffffffffffffffffffff16815260200190815260200160002060008373ffffffffffffffffffffffffffffffffffffffff1673ffffffffffffffffffffffffffffffffffffffff16815260200190815260200160002060006101000a81548160ff021916908315150217905550611df8565b600d6000611d70611f5f565b73ffffffffffffffffffffffffffffffffffffffff1673ffffffffffffffffffffffffffffffffffffffff16815260200190815260200160002060008273ffffffffffffffffffffffffffffffffffffffff1673ffffffffffffffffffffffffffffffffffffffff16815260200190815260200160002060006101000a81549060ff02191690555b611e00611f5f565b73ffffffffffffffffffffffffffffffffffffffff168173ffffffffffffffffffffffffffffffffffffffff167f50546e66e5f44d728365dc3908c63bc5cfeeab470722c1677e3073a6ac294aa160405160405180910390a350565b611e6d611e67611f5f565b85611945565b611ea3576040517f4d739bfe00000000000000000000000000000000000000000000000000000000815260040160405180910390fd5b82611ead85610c7c565b1015611ee5576040517ff4d678b800000000000000000000000000000000000000000000000000000000815260040160405180910390fd5b611ef184848484612921565b50505050565b81611f0133610c7c565b1015611f39576040517ff4d678b800000000000000000000000000000000000000000000000000000000815260040160405180910390fd5b611f5b611f44611f5f565b838360405180602001604052806000815250612921565b5050565b600033905090565b82828073ffffffffffffffffffffffffffffffffffffffff168273ffffffffffffffffffffffffffffffffffffffff161415611fcf576040517f367558c300000000000000000000000000000000000000000000000000000000815260040160405180910390fd5b600073ffffffffffffffffffffffffffffffffffffffff168173ffffffffffffffffffffffffffffffffffffffff1614806120365750600073ffffffffffffffffffffffffffffffffffffffff168273ffffffffffffffffffffffffffffffffffffffff16145b1561206d576040517fd92e233d00000000000000000000000000000000000000000000000000000000815260040160405180910390fd5b82600f60008773ffffffffffffffffffffffffffffffffffffffff1673ffffffffffffffffffffffffffffffffffffffff16815260200190815260200160002060008673ffffffffffffffffffffffffffffffffffffffff1673ffffffffffffffffffffffffffffffffffffffff168152602001908152602001600020819055508373ffffffffffffffffffffffffffffffffffffffff168573ffffffffffffffffffffffffffffffffffffffff167f8c5be1e5ebec7d5bd14f71427d1e84f3dd0314c0f7b2291e5b200ac8c7c3b9258560405161214b91906137c0565b60405180910390a35050505050565b6000731820a4b7618bde71dce8cdc73aab6c95905fad2473ffffffffffffffffffffffffffffffffffffffff1663aabbb8ca877f29ddb589b1fb5fc7cf394961c1adf5f8c6454761adf795e67fe149f658abe8956040518363ffffffff1660e01b81526004016121cb92919061365e565b60206040518083038186803b1580156121e357600080fd5b505afa1580156121f7573d6000803e3d6000fd5b505050506040513d601f19601f8201168201806040525081019061221b9190613093565b9050600073ffffffffffffffffffffffffffffffffffffffff168173ffffffffffffffffffffffffffffffffffffffff16146122c7578073ffffffffffffffffffffffffffffffffffffffff166375ab97828888888888886040518763ffffffff1660e01b8152600401612294969594939291906135ef565b600060405180830381600087803b1580156122ae57600080fd5b505af11580156122c2573d6000803e3d6000fd5b505050505b50505050505050565b6122dc86868686612b3c565b6000600760008773ffffffffffffffffffffffffffffffffffffffff1673ffffffffffffffffffffffffffffffffffffffff1681526020019081526020016000205490506123338482612b4290919063ffffffff16565b600760008873ffffffffffffffffffffffffffffffffffffffff1673ffffffffffffffffffffffffffffffffffffffff168152602001908152602001600020819055506123c884600760008873ffffffffffffffffffffffffffffffffffffffff1673ffffffffffffffffffffffffffffffffffffffff16815260200190815260200160002054612b5890919063ffffffff16565b600760008773ffffffffffffffffffffffffffffffffffffffff1673ffffffffffffffffffffffffffffffffffffffff168152602001908152602001600020819055508473ffffffffffffffffffffffffffffffffffffffff168673ffffffffffffffffffffffffffffffffffffffff168873ffffffffffffffffffffffffffffffffffffffff167f06b541ddaa720db2b10a4d0cdac39b8d360425fc073085fac19bc82614677987878787604051612483939291906137db565b60405180910390a48473ffffffffffffffffffffffffffffffffffffffff168673ffffffffffffffffffffffffffffffffffffffff167fddf252ad1be2c89b69c2b068fc378daa952ba7f163c4a11628f55a4df523b3ef866040516124e891906137c0565b60405180910390a350505050505050565b6000731820a4b7618bde71dce8cdc73aab6c95905fad2473ffffffffffffffffffffffffffffffffffffffff1663aabbb8ca877fb281fc8c12954d22544db45de3159a39272895b169a852b314f9cc762e44c53b6040518363ffffffff1660e01b815260040161256a92919061365e565b60206040518083038186803b15801561258257600080fd5b505afa158015612596573d6000803e3d6000fd5b505050506040513d601f19601f820116820180604052508101906125ba9190613093565b9050600073ffffffffffffffffffffffffffffffffffffffff168173ffffffffffffffffffffffffffffffffffffffff1614612669578073ffffffffffffffffffffffffffffffffffffffff166223de298989898989896040518763ffffffff1660e01b8152600401612632969594939291906135ef565b600060405180830381600087803b15801561264c57600080fd5b505af1158015612660573d6000803e3d6000fd5b505050506126c7565b81156126c65761268e8673ffffffffffffffffffffffffffffffffffffffff16612b6e565b156126c5576040517f2e3340bc00000000000000000000000000000000000000000000000000000000815260040160405180910390fd5b5b5b5050505050505050565b85858073ffffffffffffffffffffffffffffffffffffffff168273ffffffffffffffffffffffffffffffffffffffff161415612739576040517f367558c300000000000000000000000000000000000000000000000000000000815260040160405180910390fd5b600073ffffffffffffffffffffffffffffffffffffffff168173ffffffffffffffffffffffffffffffffffffffff1614806127a05750600073ffffffffffffffffffffffffffffffffffffffff168273ffffffffffffffffffffffffffffffffffffffff16145b156127d7576040517fd92e233d00000000000000000000000000000000000000000000000000000000815260040160405180910390fd5b60006127e1611f5f565b90506127f1818a8a8a8a8a61215a565b6127ff818a8a8a8a8a6122d0565b61280e818a8a8a8a8a8a6124f9565b505050505050505050565b6000600560159054906101000a900460ff16156128915760018260ff16148015612849575061284730612b6e565b155b612888576040517f08c379a000000000000000000000000000000000000000000000000000000000815260040161287f906137a0565b60405180910390fd5b60009050612908565b8160ff16600560149054906101000a900460ff1660ff16106128e8576040517f08c379a00000000000000000000000000000000000000000000000000000000081526004016128df906137a0565b60405180910390fd5b81600560146101000a81548160ff021916908360ff160217905550600190505b919050565b61291b848484846001612b81565b50505050565b600073ffffffffffffffffffffffffffffffffffffffff168473ffffffffffffffffffffffffffffffffffffffff161415612988576040517fd92e233d00000000000000000000000000000000000000000000000000000000815260040160405180910390fd5b6000600760008673ffffffffffffffffffffffffffffffffffffffff1673ffffffffffffffffffffffffffffffffffffffff16815260200190815260200160002054905060006129d6611f5f565b90506129e78187600088888861215a565b6129f48187600088612b3c565b612a078583612b4290919063ffffffff16565b600760008873ffffffffffffffffffffffffffffffffffffffff1673ffffffffffffffffffffffffffffffffffffffff16815260200190815260200160002081905550612a5f85600854612b4290919063ffffffff16565b6008819055508573ffffffffffffffffffffffffffffffffffffffff168173ffffffffffffffffffffffffffffffffffffffff167fa78a9be3a7b862d26933ad85fb11d80ef66b8f972d7cbba06621d583943a4098878787604051612ac6939291906137db565b60405180910390a3600073ffffffffffffffffffffffffffffffffffffffff168673ffffffffffffffffffffffffffffffffffffffff167fddf252ad1be2c89b69c2b068fc378daa952ba7f163c4a11628f55a4df523b3ef87604051612b2c91906137c0565b60405180910390a3505050505050565b50505050565b60008183612b5091906139b5565b905092915050565b60008183612b66919061395f565b905092915050565b600080823b905060008111915050919050565b600073ffffffffffffffffffffffffffffffffffffffff168573ffffffffffffffffffffffffffffffffffffffff161415612be8576040517fd92e233d00000000000000000000000000000000000000000000000000000000815260040160405180910390fd5b6000612bf2611f5f565b9050612c018160008888612b3c565b612c1685600854612b5890919063ffffffff16565b600881905550612c6e85600760008973ffffffffffffffffffffffffffffffffffffffff1673ffffffffffffffffffffffffffffffffffffffff16815260200190815260200160002054612b5890919063ffffffff16565b600760008873ffffffffffffffffffffffffffffffffffffffff1673ffffffffffffffffffffffffffffffffffffffff16815260200190815260200160002081905550612cc181600088888888886124f9565b8573ffffffffffffffffffffffffffffffffffffffff168173ffffffffffffffffffffffffffffffffffffffff167f2fe5be0146f74c5bce36c0b80911af6c7d86ff27e89d5cfa61fc681327954e5d878787604051612d22939291906137db565b60405180910390a38573ffffffffffffffffffffffffffffffffffffffff16600073ffffffffffffffffffffffffffffffffffffffff167fddf252ad1be2c89b69c2b068fc378daa952ba7f163c4a11628f55a4df523b3ef87604051612d8891906137c0565b60405180910390a3505050505050565b828054612da490613a9c565b90600052602060002090601f016020900481019282612dc65760008555612e0d565b82601f10612ddf57805160ff1916838001178555612e0d565b82800160010185558215612e0d579182015b82811115612e0c578251825591602001919060010190612df1565b5b509050612e1a9190612ea8565b5090565b828054828255906000526020600020908101928215612e97579160200282015b82811115612e965782518260006101000a81548173ffffffffffffffffffffffffffffffffffffffff021916908373ffffffffffffffffffffffffffffffffffffffff16021790555091602001919060010190612e3e565b5b509050612ea49190612ea8565b5090565b5b80821115612ec1576000816000905550600101612ea9565b5090565b6000612ed8612ed384613860565b61383b565b90508083825260208201905082856020860282011115612ef757600080fd5b60005b85811015612f275781612f0d8882612fad565b845260208401935060208301925050600181019050612efa565b5050509392505050565b6000612f44612f3f8461388c565b61383b565b905082815260208101848484011115612f5c57600080fd5b612f67848285613a5a565b509392505050565b6000612f82612f7d846138bd565b61383b565b905082815260208101848484011115612f9a57600080fd5b612fa5848285613a5a565b509392505050565b600081359050612fbc81613c35565b92915050565b600081519050612fd181613c35565b92915050565b600082601f830112612fe857600080fd5b8135612ff8848260208601612ec5565b91505092915050565b600082601f83011261301257600080fd5b8135613022848260208601612f31565b91505092915050565b600082601f83011261303c57600080fd5b813561304c848260208601612f6f565b91505092915050565b60008135905061306481613c4c565b92915050565b60006020828403121561307c57600080fd5b600061308a84828501612fad565b91505092915050565b6000602082840312156130a557600080fd5b60006130b384828501612fc2565b91505092915050565b600080604083850312156130cf57600080fd5b60006130dd85828601612fad565b92505060206130ee85828601612fad565b9150509250929050565b60008060006060848603121561310d57600080fd5b600061311b86828701612fad565b935050602061312c86828701612fad565b925050604061313d86828701613055565b9150509250925092565b600080600080600060a0868803121561315f57600080fd5b600061316d88828901612fad565b955050602061317e88828901612fad565b945050604061318f88828901613055565b935050606086013567ffffffffffffffff8111156131ac57600080fd5b6131b888828901613001565b925050608086013567ffffffffffffffff8111156131d557600080fd5b6131e188828901613001565b9150509295509295909350565b6000806040838503121561320157600080fd5b600061320f85828601612fad565b925050602061322085828601613055565b9150509250929050565b60008060006060848603121561323f57600080fd5b600061324d86828701612fad565b935050602061325e86828701613055565b925050604084013567ffffffffffffffff81111561327b57600080fd5b61328786828701613001565b9150509250925092565b600080600080608085870312156132a757600080fd5b60006132b587828801612fad565b94505060206132c687828801613055565b935050604085013567ffffffffffffffff8111156132e357600080fd5b6132ef87828801613001565b925050606085013567ffffffffffffffff81111561330c57600080fd5b61331887828801613001565b91505092959194509250565b600080600080600060a0868803121561333c57600080fd5b600086013567ffffffffffffffff81111561335657600080fd5b6133628882890161302b565b955050602086013567ffffffffffffffff81111561337f57600080fd5b61338b8882890161302b565b945050604086013567ffffffffffffffff8111156133a857600080fd5b6133b488828901612fd7565b93505060606133c588828901613055565b92505060806133d688828901612fad565b9150509295509295909350565b6000602082840312156133f557600080fd5b600061340384828501613055565b91505092915050565b6000806040838503121561341f57600080fd5b600061342d85828601613055565b925050602083013567ffffffffffffffff81111561344a57600080fd5b61345685828601613001565b9150509250929050565b600061346c8383613478565b60208301905092915050565b613481816139e9565b82525050565b613490816139e9565b82525050565b60006134a1826138fe565b6134ab818561392c565b93506134b6836138ee565b8060005b838110156134e75781516134ce8882613460565b97506134d98361391f565b9250506001810190506134ba565b5085935050505092915050565b6134fd816139fb565b82525050565b61350c81613a07565b82525050565b600061351d82613909565b613527818561393d565b9350613537818560208601613a69565b61354081613bd5565b840191505092915050565b61355481613a48565b82525050565b600061356582613914565b61356f818561394e565b935061357f818560208601613a69565b61358881613bd5565b840191505092915050565b60006135a0602e8361394e565b91506135ab82613be6565b604082019050919050565b6135bf81613a31565b82525050565b6135ce81613a3b565b82525050565b60006020820190506135e96000830184613487565b92915050565b600060c0820190506136046000830189613487565b6136116020830188613487565b61361e6040830187613487565b61362b60608301866135b6565b818103608083015261363d8185613512565b905081810360a08301526136518184613512565b9050979650505050505050565b60006040820190506136736000830185613487565b6136806020830184613503565b9392505050565b600060608201905061369c6000830186613487565b6136a96020830185613503565b6136b66040830184613487565b949350505050565b600060208201905081810360008301526136d88184613496565b905092915050565b60006020820190506136f560008301846134f4565b92915050565b600060a08201905081810360008301526137158188613512565b90506137246020830187613487565b81810360408301526137368186613512565b905061374560608301856135b6565b81810360808301526137578184613512565b90509695505050505050565b6000602082019050613778600083018461354b565b92915050565b60006020820190508181036000830152613798818461355a565b905092915050565b600060208201905081810360008301526137b981613593565b9050919050565b60006020820190506137d560008301846135b6565b92915050565b60006060820190506137f060008301866135b6565b81810360208301526138028185613512565b905081810360408301526138168184613512565b9050949350505050565b600060208201905061383560008301846135c5565b92915050565b6000613845613856565b90506138518282613ace565b919050565b6000604051905090565b600067ffffffffffffffff82111561387b5761387a613ba6565b5b602082029050602081019050919050565b600067ffffffffffffffff8211156138a7576138a6613ba6565b5b6138b082613bd5565b9050602081019050919050565b600067ffffffffffffffff8211156138d8576138d7613ba6565b5b6138e182613bd5565b9050602081019050919050565b6000819050602082019050919050565b600081519050919050565b600081519050919050565b600081519050919050565b6000602082019050919050565b600082825260208201905092915050565b600082825260208201905092915050565b600082825260208201905092915050565b600061396a82613a31565b915061397583613a31565b9250827fffffffffffffffffffffffffffffffffffffffffffffffffffffffffffffffff038211156139aa576139a9613b48565b5b828201905092915050565b60006139c082613a31565b91506139cb83613a31565b9250828210156139de576139dd613b48565b5b828203905092915050565b60006139f482613a11565b9050919050565b60008115159050919050565b6000819050919050565b600073ffffffffffffffffffffffffffffffffffffffff82169050919050565b6000819050919050565b600060ff82169050919050565b6000613a5382613a3b565b9050919050565b82818337600083830152505050565b60005b83811015613a87578082015181840152602081019050613a6c565b83811115613a96576000848401525b50505050565b60006002820490506001821680613ab457607f821691505b60208210811415613ac857613ac7613b77565b5b50919050565b613ad782613bd5565b810181811067ffffffffffffffff82111715613af657613af5613ba6565b5b80604052505050565b6000613b0a82613a31565b91507fffffffffffffffffffffffffffffffffffffffffffffffffffffffffffffffff821415613b3d57613b3c613b48565b5b600182019050919050565b7f4e487b7100000000000000000000000000000000000000000000000000000000600052601160045260246000fd5b7f4e487b7100000000000000000000000000000000000000000000000000000000600052602260045260246000fd5b7f4e487b7100000000000000000000000000000000000000000000000000000000600052604160045260246000fd5b6000601f19601f8301169050919050565b7f496e697469616c697a61626c653a20636f6e747261637420697320616c72656160008201527f647920696e697469616c697a6564000000000000000000000000000000000000602082015250565b613c3e816139e9565b8114613c4957600080fd5b50565b613c5581613a31565b8114613c6057600080fd5b5056fea264697066735822122038062847e3335deea07c2ba2dba10f982821b427f6e9e7dbe352698b5928e61064736f6c63430008040033",
  "linkReferences": {},
  "deployedLinkReferences": {}
}