{
  "_format": "hh-sol-artifact-1",
  "contractName": "ERC777",
  "sourceName": "contracts/ERC777.sol",
  "abi": [
    {
      "inputs": [
        {
          "internalType": "address",
          "name": "_owner",
          "type": "address"
        }
      ],
      "stateMutability": "nonpayable",
      "type": "constructor"
    },
    {
      "anonymous": false,
      "inputs": [
        {
          "indexed": true,
          "internalType": "address",
          "name": "owner",
          "type": "address"
        },
        {
          "indexed": true,
          "internalType": "address",
          "name": "spender",
          "type": "address"
        },
        {
          "indexed": false,
          "internalType": "uint256",
          "name": "value",
          "type": "uint256"
        }
      ],
      "name": "Approval",
      "type": "event"
    },
    {
      "anonymous": false,
      "inputs": [
        {
          "indexed": true,
          "internalType": "address",
          "name": "operator",
          "type": "address"
        },
        {
          "indexed": true,
          "internalType": "address",
          "name": "tokenHolder",
          "type": "address"
        }
      ],
      "name": "AuthorizedOperator",
      "type": "event"
    },
    {
      "anonymous": false,
      "inputs": [
        {
          "indexed": true,
          "internalType": "address",
          "name": "operator",
          "type": "address"
        },
        {
          "indexed": true,
          "internalType": "address",
          "name": "from",
          "type": "address"
        },
        {
          "indexed": false,
          "internalType": "uint256",
          "name": "amount",
          "type": "uint256"
        },
        {
          "indexed": false,
          "internalType": "bytes",
          "name": "data",
          "type": "bytes"
        },
        {
          "indexed": false,
          "internalType": "bytes",
          "name": "operatorData",
          "type": "bytes"
        }
      ],
      "name": "Burned",
      "type": "event"
    },
    {
      "anonymous": false,
      "inputs": [
        {
          "indexed": true,
          "internalType": "address",
          "name": "operator",
          "type": "address"
        },
        {
          "indexed": true,
          "internalType": "address",
          "name": "to",
          "type": "address"
        },
        {
          "indexed": false,
          "internalType": "uint256",
          "name": "amount",
          "type": "uint256"
        },
        {
          "indexed": false,
          "internalType": "bytes",
          "name": "data",
          "type": "bytes"
        },
        {
          "indexed": false,
          "internalType": "bytes",
          "name": "operatorData",
          "type": "bytes"
        }
      ],
      "name": "Minted",
      "type": "event"
    },
    {
      "anonymous": false,
      "inputs": [
        {
          "indexed": true,
          "internalType": "address",
          "name": "operator",
          "type": "address"
        },
        {
          "indexed": true,
          "internalType": "address",
          "name": "tokenHolder",
          "type": "address"
        }
      ],
      "name": "RevokedOperator",
      "type": "event"
    },
    {
      "anonymous": false,
      "inputs": [
        {
          "indexed": true,
          "internalType": "address",
          "name": "operator",
          "type": "address"
        },
        {
          "indexed": true,
          "internalType": "address",
          "name": "from",
          "type": "address"
        },
        {
          "indexed": true,
          "internalType": "address",
          "name": "to",
          "type": "address"
        },
        {
          "indexed": false,
          "internalType": "uint256",
          "name": "amount",
          "type": "uint256"
        },
        {
          "indexed": false,
          "internalType": "bytes",
          "name": "data",
          "type": "bytes"
        },
        {
          "indexed": false,
          "internalType": "bytes",
          "name": "operatorData",
          "type": "bytes"
        }
      ],
      "name": "Sent",
      "type": "event"
    },
    {
      "anonymous": false,
      "inputs": [
        {
          "indexed": true,
          "internalType": "address",
          "name": "from",
          "type": "address"
        },
        {
          "indexed": true,
          "internalType": "address",
          "name": "to",
          "type": "address"
        },
        {
          "indexed": false,
          "internalType": "uint256",
          "name": "value",
          "type": "uint256"
        }
      ],
      "name": "Transfer",
      "type": "event"
    },
    {
      "inputs": [
        {
          "internalType": "address",
          "name": "holder",
          "type": "address"
        },
        {
          "internalType": "address",
          "name": "spender",
          "type": "address"
        }
      ],
      "name": "allowance",
      "outputs": [
        {
          "internalType": "uint256",
          "name": "",
          "type": "uint256"
        }
      ],
      "stateMutability": "view",
      "type": "function"
    },
    {
      "inputs": [
        {
          "internalType": "address",
          "name": "spender",
          "type": "address"
        },
        {
          "internalType": "uint256",
          "name": "value",
          "type": "uint256"
        }
      ],
      "name": "approve",
      "outputs": [
        {
          "internalType": "bool",
          "name": "",
          "type": "bool"
        }
      ],
      "stateMutability": "nonpayable",
      "type": "function"
    },
    {
      "inputs": [
        {
          "internalType": "address",
          "name": "operator",
          "type": "address"
        }
      ],
      "name": "authorizeOperator",
      "outputs": [],
      "stateMutability": "nonpayable",
      "type": "function"
    },
    {
      "inputs": [
        {
          "internalType": "address",
          "name": "tokenHolder",
          "type": "address"
        }
      ],
      "name": "balanceOf",
      "outputs": [
        {
          "internalType": "uint256",
          "name": "",
          "type": "uint256"
        }
      ],
      "stateMutability": "view",
      "type": "function"
    },
    {
      "inputs": [
        {
          "internalType": "uint256",
          "name": "amount",
          "type": "uint256"
        },
        {
          "internalType": "bytes",
          "name": "data",
          "type": "bytes"
        }
      ],
      "name": "burn",
      "outputs": [],
      "stateMutability": "nonpayable",
      "type": "function"
    },
    {
      "inputs": [],
      "name": "contractOwner",
      "outputs": [
        {
          "internalType": "address",
          "name": "",
          "type": "address"
        }
      ],
      "stateMutability": "view",
      "type": "function"
    },
    {
      "inputs": [],
      "name": "decimals",
      "outputs": [
        {
          "internalType": "uint8",
          "name": "",
          "type": "uint8"
        }
      ],
      "stateMutability": "pure",
      "type": "function"
    },
    {
      "inputs": [],
      "name": "defaultOperators",
      "outputs": [
        {
          "internalType": "address[]",
          "name": "",
          "type": "address[]"
        }
      ],
      "stateMutability": "view",
      "type": "function"
    },
    {
      "inputs": [],
      "name": "granularity",
      "outputs": [
        {
          "internalType": "uint256",
          "name": "",
          "type": "uint256"
        }
      ],
      "stateMutability": "view",
      "type": "function"
    },
    {
      "inputs": [
        {
          "internalType": "string",
          "name": "name_",
          "type": "string"
        },
        {
          "internalType": "string",
          "name": "symbol_",
          "type": "string"
        },
        {
          "internalType": "address[]",
          "name": "defaultOperators_",
          "type": "address[]"
        },
        {
          "internalType": "uint256",
          "name": "initialSupply_",
          "type": "uint256"
        },
        {
          "internalType": "address",
          "name": "tenant_",
          "type": "address"
        }
      ],
      "name": "init",
      "outputs": [],
      "stateMutability": "nonpayable",
      "type": "function"
    },
    {
      "inputs": [
        {
          "internalType": "address",
          "name": "operator",
          "type": "address"
        },
        {
          "internalType": "address",
          "name": "tokenHolder",
          "type": "address"
        }
      ],
      "name": "isOperatorFor",
      "outputs": [
        {
          "internalType": "bool",
          "name": "",
          "type": "bool"
        }
      ],
      "stateMutability": "view",
      "type": "function"
    },
    {
      "inputs": [],
      "name": "metadata",
      "outputs": [
        {
          "internalType": "bytes",
          "name": "title",
          "type": "bytes"
        },
        {
          "components": [
            {
              "internalType": "address",
              "name": "authorAddress",
              "type": "address"
            },
            {
              "internalType": "string",
              "name": "externalLink",
              "type": "string"
            }
          ],
          "internalType": "struct IHyperverseModule.Author",
          "name": "author",
          "type": "tuple"
        },
        {
          "internalType": "bytes",
          "name": "version",
          "type": "bytes"
        },
        {
          "internalType": "uint64",
          "name": "publishedAt",
          "type": "uint64"
        },
        {
          "internalType": "bytes",
          "name": "externalLink",
          "type": "bytes"
        }
      ],
      "stateMutability": "view",
      "type": "function"
    },
    {
      "inputs": [],
      "name": "name",
      "outputs": [
        {
          "internalType": "string",
          "name": "",
          "type": "string"
        }
      ],
      "stateMutability": "view",
      "type": "function"
    },
    {
      "inputs": [
        {
          "internalType": "address",
          "name": "account",
          "type": "address"
        },
        {
          "internalType": "uint256",
          "name": "amount",
          "type": "uint256"
        },
        {
          "internalType": "bytes",
          "name": "data",
          "type": "bytes"
        },
        {
          "internalType": "bytes",
          "name": "operatorData",
          "type": "bytes"
        }
      ],
      "name": "operatorBurn",
      "outputs": [],
      "stateMutability": "nonpayable",
      "type": "function"
    },
    {
      "inputs": [
        {
          "internalType": "address",
          "name": "sender",
          "type": "address"
        },
        {
          "internalType": "address",
          "name": "recipient",
          "type": "address"
        },
        {
          "internalType": "uint256",
          "name": "amount",
          "type": "uint256"
        },
        {
          "internalType": "bytes",
          "name": "data",
          "type": "bytes"
        },
        {
          "internalType": "bytes",
          "name": "operatorData",
          "type": "bytes"
        }
      ],
      "name": "operatorSend",
      "outputs": [],
      "stateMutability": "nonpayable",
      "type": "function"
    },
    {
      "inputs": [
        {
          "internalType": "address",
          "name": "operator",
          "type": "address"
        }
      ],
      "name": "revokeOperator",
      "outputs": [],
      "stateMutability": "nonpayable",
      "type": "function"
    },
    {
      "inputs": [
        {
          "internalType": "address",
          "name": "recipient",
          "type": "address"
        },
        {
          "internalType": "uint256",
          "name": "amount",
          "type": "uint256"
        },
        {
          "internalType": "bytes",
          "name": "data",
          "type": "bytes"
        }
      ],
      "name": "send",
      "outputs": [],
      "stateMutability": "nonpayable",
      "type": "function"
    },
    {
      "inputs": [],
      "name": "symbol",
      "outputs": [
        {
          "internalType": "string",
          "name": "",
          "type": "string"
        }
      ],
      "stateMutability": "view",
      "type": "function"
    },
    {
      "inputs": [],
      "name": "totalSupply",
      "outputs": [
        {
          "internalType": "uint256",
          "name": "",
          "type": "uint256"
        }
      ],
      "stateMutability": "view",
      "type": "function"
    },
    {
      "inputs": [
        {
          "internalType": "address",
          "name": "recipient",
          "type": "address"
        },
        {
          "internalType": "uint256",
          "name": "amount",
          "type": "uint256"
        }
      ],
      "name": "transfer",
      "outputs": [
        {
          "internalType": "bool",
          "name": "",
          "type": "bool"
        }
      ],
      "stateMutability": "nonpayable",
      "type": "function"
    },
    {
      "inputs": [
        {
          "internalType": "address",
          "name": "holder",
          "type": "address"
        },
        {
          "internalType": "address",
          "name": "recipient",
          "type": "address"
        },
        {
          "internalType": "uint256",
          "name": "amount",
          "type": "uint256"
        }
      ],
      "name": "transferFrom",
      "outputs": [
        {
          "internalType": "bool",
          "name": "",
          "type": "bool"
        }
      ],
      "stateMutability": "nonpayable",
      "type": "function"
    }
  ],
  "bytecode": "0x60a06040523480156200001157600080fd5b50604051620043ea380380620043ea833981810160405281019062000037919062000551565b6040518060a001604052806040518060400160405280600581526020017f546f6b656e000000000000000000000000000000000000000000000000000000815250815260200160405180604001604052808473ffffffffffffffffffffffffffffffffffffffff1681526020016040518060400160405280601881526020017f68747470733a2f2f65787465726e616c6c696e6b2e6e6574000000000000000081525081525081526020016040518060400160405280600581526020017f302e302e31000000000000000000000000000000000000000000000000000000815250815260200165032a361e860667ffffffffffffffff1681526020016040518060400160405280601881526020017f68747470733a2f2f65787465726e616c4c696e6b2e6e657400000000000000008152508152506000808201518160000190805190602001906200018b929190620003f9565b5060208201518160010160008201518160000160006101000a81548173ffffffffffffffffffffffffffffffffffffffff021916908373ffffffffffffffffffffffffffffffffffffffff1602179055506020820151816001019080519060200190620001fa9291906200048a565b50505060408201518160030190805190602001906200021b929190620003f9565b5060608201518160040160006101000a81548167ffffffffffffffff021916908367ffffffffffffffff160217905550608082015181600501908051906020019062000269929190620003f9565b509050508073ffffffffffffffffffffffffffffffffffffffff1660808173ffffffffffffffffffffffffffffffffffffffff1660601b81525050731820a4b7618bde71dce8cdc73aab6c95905fad2473ffffffffffffffffffffffffffffffffffffffff166329965a1d307fac7fbab5f54a3ca8194167523c6753bfeb96a445279294b6125b68cce2177054306040518463ffffffff1660e01b815260040162000317939291906200059f565b600060405180830381600087803b1580156200033257600080fd5b505af115801562000347573d6000803e3d6000fd5b50505050731820a4b7618bde71dce8cdc73aab6c95905fad2473ffffffffffffffffffffffffffffffffffffffff166329965a1d307faea199e31a596269b42cdafd93407f14436db6e4cad65417994c2eb37381e05a306040518463ffffffff1660e01b8152600401620003be939291906200059f565b600060405180830381600087803b158015620003d957600080fd5b505af1158015620003ee573d6000803e3d6000fd5b505050505062000699565b82805462000407906200061a565b90600052602060002090601f0160209004810192826200042b576000855562000477565b82601f106200044657805160ff191683800117855562000477565b8280016001018555821562000477579182015b828111156200047657825182559160200191906001019062000459565b5b5090506200048691906200051b565b5090565b82805462000498906200061a565b90600052602060002090601f016020900481019282620004bc576000855562000508565b82601f10620004d757805160ff191683800117855562000508565b8280016001018555821562000508579182015b8281111562000507578251825591602001919060010190620004ea565b5b5090506200051791906200051b565b5090565b5b80821115620005365760008160009055506001016200051c565b5090565b6000815190506200054b816200067f565b92915050565b6000602082840312156200056457600080fd5b600062000574848285016200053a565b91505092915050565b6200058881620005dc565b82525050565b6200059981620005f0565b82525050565b6000606082019050620005b660008301866200057d565b620005c560208301856200058e565b620005d460408301846200057d565b949350505050565b6000620005e982620005fa565b9050919050565b6000819050919050565b600073ffffffffffffffffffffffffffffffffffffffff82169050919050565b600060028204905060018216806200063357607f821691505b602082108114156200064a576200064962000650565b5b50919050565b7f4e487b7100000000000000000000000000000000000000000000000000000000600052602260045260246000fd5b6200068a81620005dc565b81146200069657600080fd5b50565b60805160601c613d32620006b8600039600061133e0152613d326000f3fe608060405234801561001057600080fd5b50600436106101375760003560e01c8063959b8c3f116100b8578063ce606ee01161007c578063ce606ee014610342578063d95b637114610360578063dd62ed3e14610390578063fad8b32a146103c0578063fc673c4f146103dc578063fe9d9303146103f857610137565b8063959b8c3f146102a057806395d89b41146102bc5780639bd9bbc6146102da578063a4c212e7146102f6578063a9059cbb1461031257610137565b8063313ce567116100ff578063313ce567146101f6578063392f37e914610214578063556f0dc71461023657806362ad1b831461025457806370a082311461027057610137565b806306e485381461013c57806306fdde031461015a578063095ea7b31461017857806318160ddd146101a857806323b872dd146101c6575b600080fd5b610144610414565b60405161015191906130c9565b60405180910390f35b6101626104a2565b60405161016f9190613175565b60405180910390f35b610192600480360381019061018d919061299f565b610534565b60405161019f91906130eb565b60405180910390f35b6101b0610557565b6040516101bd9190613397565b60405180910390f35b6101e060048036038101906101db91906128a9565b610561565b6040516101ed91906130eb565b60405180910390f35b6101fe6107bb565b60405161020b91906133f7565b60405180910390f35b61021c6107c4565b60405161022d959493929190613106565b60405180910390f35b61023e610a86565b60405161024b9190613397565b60405180910390f35b61026e600480360381019061026991906128f8565b610a8f565b005b61028a6004803603810190610285919061281b565b610af5565b6040516102979190613397565b60405180910390f35b6102ba60048036038101906102b5919061281b565b610b3e565b005b6102c4610d9f565b6040516102d19190613175565b60405180910390f35b6102f460048036038101906102ef91906129db565b610e31565b005b610310600480360381019061030b9190612ad5565b610e5b565b005b61032c6004803603810190610327919061299f565b61122e565b60405161033991906130eb565b60405180910390f35b61034a61133c565b6040516103579190612fdf565b60405180910390f35b61037a6004803603810190610375919061286d565b611360565b60405161038791906130eb565b60405180910390f35b6103aa60048036038101906103a5919061286d565b611511565b6040516103b79190613397565b60405180910390f35b6103da60048036038101906103d5919061281b565b611598565b005b6103f660048036038101906103f19190612a42565b6117f9565b005b610412600480360381019061040d9190612b94565b61185b565b005b6060600c80548060200260200160405190810160405280929190818152602001828054801561049857602002820191906000526020600020905b8160009054906101000a900473ffffffffffffffffffffffffffffffffffffffff1673ffffffffffffffffffffffffffffffffffffffff168152602001906001019080831161044e575b5050505050905090565b6060600a80546104b1906136e0565b80601f01602080910402602001604051908101604052809291908181526020018280546104dd906136e0565b801561052a5780601f106104ff5761010080835404028352916020019161052a565b820191906000526020600020905b81548152906001019060200180831161050d57829003601f168201915b5050505050905090565b60008061053f611881565b905061054c818585611889565b600191505092915050565b6000600954905090565b60008073ffffffffffffffffffffffffffffffffffffffff168373ffffffffffffffffffffffffffffffffffffffff1614156105d2576040517f08c379a00000000000000000000000000000000000000000000000000000000081526004016105c9906132b7565b60405180910390fd5b600073ffffffffffffffffffffffffffffffffffffffff168473ffffffffffffffffffffffffffffffffffffffff161415610642576040517f08c379a000000000000000000000000000000000000000000000000000000000815260040161063990613317565b60405180910390fd5b600061064c611881565b905061067a818686866040518060200160405280600081525060405180602001604052806000815250611a54565b6106a6818686866040518060200160405280600081525060405180602001604052806000815250611bca565b6000601060008773ffffffffffffffffffffffffffffffffffffffff1673ffffffffffffffffffffffffffffffffffffffff16815260200190815260200160002060008373ffffffffffffffffffffffffffffffffffffffff1673ffffffffffffffffffffffffffffffffffffffff1681526020019081526020016000205490508381101561076a576040517f08c379a0000000000000000000000000000000000000000000000000000000008152600401610761906132f7565b60405180910390fd5b6107808683868461077b91906135f7565b611889565b6107ae8287878760405180602001604052806000815250604051806020016040528060008152506000611de7565b6001925050509392505050565b60006012905090565b60008060000180546107d5906136e0565b80601f0160208091040260200160405190810160405280929190818152602001828054610801906136e0565b801561084e5780601f106108235761010080835404028352916020019161084e565b820191906000526020600020905b81548152906001019060200180831161083157829003601f168201915b505050505090806001016040518060400160405290816000820160009054906101000a900473ffffffffffffffffffffffffffffffffffffffff1673ffffffffffffffffffffffffffffffffffffffff1673ffffffffffffffffffffffffffffffffffffffff1681526020016001820180546108c9906136e0565b80601f01602080910402602001604051908101604052809291908181526020018280546108f5906136e0565b80156109425780601f1061091757610100808354040283529160200191610942565b820191906000526020600020905b81548152906001019060200180831161092557829003601f168201915b5050505050815250509080600301805461095b906136e0565b80601f0160208091040260200160405190810160405280929190818152602001828054610987906136e0565b80156109d45780601f106109a9576101008083540402835291602001916109d4565b820191906000526020600020905b8154815290600101906020018083116109b757829003601f168201915b5050505050908060040160009054906101000a900467ffffffffffffffff1690806005018054610a03906136e0565b80601f0160208091040260200160405190810160405280929190818152602001828054610a2f906136e0565b8015610a7c5780601f10610a5157610100808354040283529160200191610a7c565b820191906000526020600020905b815481529060010190602001808311610a5f57829003601f168201915b5050505050905085565b60006001905090565b610aa0610a9a611881565b86611360565b610adf576040517f08c379a0000000000000000000000000000000000000000000000000000000008152600401610ad6906132d7565b60405180910390fd5b610aee85858585856001611fc8565b5050505050565b6000600860008373ffffffffffffffffffffffffffffffffffffffff1673ffffffffffffffffffffffffffffffffffffffff168152602001908152602001600020549050919050565b8073ffffffffffffffffffffffffffffffffffffffff16610b5d611881565b73ffffffffffffffffffffffffffffffffffffffff161415610bb4576040517f08c379a0000000000000000000000000000000000000000000000000000000008152600401610bab90613217565b60405180910390fd5b600d60008273ffffffffffffffffffffffffffffffffffffffff1673ffffffffffffffffffffffffffffffffffffffff16815260200190815260200160002060009054906101000a900460ff1615610c9e57600f6000610c12611881565b73ffffffffffffffffffffffffffffffffffffffff1673ffffffffffffffffffffffffffffffffffffffff16815260200190815260200160002060008273ffffffffffffffffffffffffffffffffffffffff1673ffffffffffffffffffffffffffffffffffffffff16815260200190815260200160002060006101000a81549060ff0219169055610d3b565b6001600e6000610cac611881565b73ffffffffffffffffffffffffffffffffffffffff1673ffffffffffffffffffffffffffffffffffffffff16815260200190815260200160002060008373ffffffffffffffffffffffffffffffffffffffff1673ffffffffffffffffffffffffffffffffffffffff16815260200190815260200160002060006101000a81548160ff0219169083151502179055505b610d43611881565b73ffffffffffffffffffffffffffffffffffffffff168173ffffffffffffffffffffffffffffffffffffffff167ff4caeb2d6ca8932a215a353d0703c326ec2d81fc68170f320eb2ab49e9df61f960405160405180910390a350565b6060600b8054610dae906136e0565b80601f0160208091040260200160405190810160405280929190818152602001828054610dda906136e0565b8015610e275780601f10610dfc57610100808354040283529160200191610e27565b820191906000526020600020905b815481529060010190602001808311610e0a57829003601f168201915b5050505050905090565b610e56610e3c611881565b848484604051806020016040528060008152506001611fc8565b505050565b600073ffffffffffffffffffffffffffffffffffffffff16600760009054906101000a900473ffffffffffffffffffffffffffffffffffffffff1673ffffffffffffffffffffffffffffffffffffffff1614610eec576040517f08c379a0000000000000000000000000000000000000000000000000000000008152600401610ee390613237565b60405180910390fd5b84600a9080519060200190610f02929190612549565b5083600b9080519060200190610f19929190612549565b5082600c9080519060200190610f309291906125cf565b5060005b8351811015610fe8576001600d6000868481518110610f7c577f4e487b7100000000000000000000000000000000000000000000000000000000600052603260045260246000fd5b602002602001015173ffffffffffffffffffffffffffffffffffffffff1673ffffffffffffffffffffffffffffffffffffffff16815260200190815260200160002060006101000a81548160ff0219169083151502179055508080610fe090613743565b915050610f34565b50600c309080600181540180825580915050600190039060005260206000200160009091909190916101000a81548173ffffffffffffffffffffffffffffffffffffffff021916908373ffffffffffffffffffffffffffffffffffffffff1602179055506001600d60003073ffffffffffffffffffffffffffffffffffffffff1673ffffffffffffffffffffffffffffffffffffffff16815260200190815260200160002060006101000a81548160ff021916908315150217905550731820a4b7618bde71dce8cdc73aab6c95905fad2473ffffffffffffffffffffffffffffffffffffffff166329965a1d307fac7fbab5f54a3ca8194167523c6753bfeb96a445279294b6125b68cce2177054306040518463ffffffff1660e01b815260040161111593929190613092565b600060405180830381600087803b15801561112f57600080fd5b505af1158015611143573d6000803e3d6000fd5b50505050731820a4b7618bde71dce8cdc73aab6c95905fad2473ffffffffffffffffffffffffffffffffffffffff166329965a1d307faea199e31a596269b42cdafd93407f14436db6e4cad65417994c2eb37381e05a306040518463ffffffff1660e01b81526004016111b893929190613092565b600060405180830381600087803b1580156111d257600080fd5b505af11580156111e6573d6000803e3d6000fd5b5050505061122781670de0b6b3a764000084611202919061359d565b60405180602001604052806000815250604051806020016040528060008152506120e8565b5050505050565b60008073ffffffffffffffffffffffffffffffffffffffff168373ffffffffffffffffffffffffffffffffffffffff16141561129f576040517f08c379a0000000000000000000000000000000000000000000000000000000008152600401611296906132b7565b60405180910390fd5b60006112a9611881565b90506112d7818286866040518060200160405280600081525060405180602001604052806000815250611a54565b611303818286866040518060200160405280600081525060405180602001604052806000815250611bca565b6113318182868660405180602001604052806000815250604051806020016040528060008152506000611de7565b600191505092915050565b7f000000000000000000000000000000000000000000000000000000000000000081565b60008173ffffffffffffffffffffffffffffffffffffffff168373ffffffffffffffffffffffffffffffffffffffff1614806114785750600d60008473ffffffffffffffffffffffffffffffffffffffff1673ffffffffffffffffffffffffffffffffffffffff16815260200190815260200160002060009054906101000a900460ff1680156114775750600f60008373ffffffffffffffffffffffffffffffffffffffff1673ffffffffffffffffffffffffffffffffffffffff16815260200190815260200160002060008473ffffffffffffffffffffffffffffffffffffffff1673ffffffffffffffffffffffffffffffffffffffff16815260200190815260200160002060009054906101000a900460ff16155b5b806115095750600e60008373ffffffffffffffffffffffffffffffffffffffff1673ffffffffffffffffffffffffffffffffffffffff16815260200190815260200160002060008473ffffffffffffffffffffffffffffffffffffffff1673ffffffffffffffffffffffffffffffffffffffff16815260200190815260200160002060009054906101000a900460ff165b905092915050565b6000601060008473ffffffffffffffffffffffffffffffffffffffff1673ffffffffffffffffffffffffffffffffffffffff16815260200190815260200160002060008373ffffffffffffffffffffffffffffffffffffffff1673ffffffffffffffffffffffffffffffffffffffff16815260200190815260200160002054905092915050565b6115a0611881565b73ffffffffffffffffffffffffffffffffffffffff168173ffffffffffffffffffffffffffffffffffffffff16141561160e576040517f08c379a000000000000000000000000000000000000000000000000000000000815260040161160590613257565b60405180910390fd5b600d60008273ffffffffffffffffffffffffffffffffffffffff1673ffffffffffffffffffffffffffffffffffffffff16815260200190815260200160002060009054906101000a900460ff1615611701576001600f600061166e611881565b73ffffffffffffffffffffffffffffffffffffffff1673ffffffffffffffffffffffffffffffffffffffff16815260200190815260200160002060008373ffffffffffffffffffffffffffffffffffffffff1673ffffffffffffffffffffffffffffffffffffffff16815260200190815260200160002060006101000a81548160ff021916908315150217905550611795565b600e600061170d611881565b73ffffffffffffffffffffffffffffffffffffffff1673ffffffffffffffffffffffffffffffffffffffff16815260200190815260200160002060008273ffffffffffffffffffffffffffffffffffffffff1673ffffffffffffffffffffffffffffffffffffffff16815260200190815260200160002060006101000a81549060ff02191690555b61179d611881565b73ffffffffffffffffffffffffffffffffffffffff168173ffffffffffffffffffffffffffffffffffffffff167f50546e66e5f44d728365dc3908c63bc5cfeeab470722c1677e3073a6ac294aa160405160405180910390a350565b61180a611804611881565b85611360565b611849576040517f08c379a0000000000000000000000000000000000000000000000000000000008152600401611840906132d7565b60405180910390fd5b611855848484846120fc565b50505050565b61187d611866611881565b8383604051806020016040528060008152506120fc565b5050565b600033905090565b600073ffffffffffffffffffffffffffffffffffffffff168373ffffffffffffffffffffffffffffffffffffffff1614156118f9576040517f08c379a00000000000000000000000000000000000000000000000000000000081526004016118f090613197565b60405180910390fd5b600073ffffffffffffffffffffffffffffffffffffffff168273ffffffffffffffffffffffffffffffffffffffff161415611969576040517f08c379a000000000000000000000000000000000000000000000000000000000815260040161196090613377565b60405180910390fd5b80601060008573ffffffffffffffffffffffffffffffffffffffff1673ffffffffffffffffffffffffffffffffffffffff16815260200190815260200160002060008473ffffffffffffffffffffffffffffffffffffffff1673ffffffffffffffffffffffffffffffffffffffff168152602001908152602001600020819055508173ffffffffffffffffffffffffffffffffffffffff168373ffffffffffffffffffffffffffffffffffffffff167f8c5be1e5ebec7d5bd14f71427d1e84f3dd0314c0f7b2291e5b200ac8c7c3b92583604051611a479190613397565b60405180910390a3505050565b6000731820a4b7618bde71dce8cdc73aab6c95905fad2473ffffffffffffffffffffffffffffffffffffffff1663aabbb8ca877f29ddb589b1fb5fc7cf394961c1adf5f8c6454761adf795e67fe149f658abe8956040518363ffffffff1660e01b8152600401611ac5929190613069565b60206040518083038186803b158015611add57600080fd5b505afa158015611af1573d6000803e3d6000fd5b505050506040513d601f19601f82011682018060405250810190611b159190612844565b9050600073ffffffffffffffffffffffffffffffffffffffff168173ffffffffffffffffffffffffffffffffffffffff1614611bc1578073ffffffffffffffffffffffffffffffffffffffff166375ab97828888888888886040518763ffffffff1660e01b8152600401611b8e96959493929190612ffa565b600060405180830381600087803b158015611ba857600080fd5b505af1158015611bbc573d6000803e3d6000fd5b505050505b50505050505050565b611bd686868686612351565b6000600860008773ffffffffffffffffffffffffffffffffffffffff1673ffffffffffffffffffffffffffffffffffffffff16815260200190815260200160002054905083811015611c5d576040517f08c379a0000000000000000000000000000000000000000000000000000000008152600401611c54906131d7565b60405180910390fd5b838103600860008873ffffffffffffffffffffffffffffffffffffffff1673ffffffffffffffffffffffffffffffffffffffff1681526020019081526020016000208190555083600860008773ffffffffffffffffffffffffffffffffffffffff1673ffffffffffffffffffffffffffffffffffffffff1681526020019081526020016000206000828254611cf29190613547565b925050819055508473ffffffffffffffffffffffffffffffffffffffff168673ffffffffffffffffffffffffffffffffffffffff168873ffffffffffffffffffffffffffffffffffffffff167f06b541ddaa720db2b10a4d0cdac39b8d360425fc073085fac19bc82614677987878787604051611d71939291906133b2565b60405180910390a48473ffffffffffffffffffffffffffffffffffffffff168673ffffffffffffffffffffffffffffffffffffffff167fddf252ad1be2c89b69c2b068fc378daa952ba7f163c4a11628f55a4df523b3ef86604051611dd69190613397565b60405180910390a350505050505050565b6000731820a4b7618bde71dce8cdc73aab6c95905fad2473ffffffffffffffffffffffffffffffffffffffff1663aabbb8ca877fb281fc8c12954d22544db45de3159a39272895b169a852b314f9cc762e44c53b6040518363ffffffff1660e01b8152600401611e58929190613069565b60206040518083038186803b158015611e7057600080fd5b505afa158015611e84573d6000803e3d6000fd5b505050506040513d601f19601f82011682018060405250810190611ea89190612844565b9050600073ffffffffffffffffffffffffffffffffffffffff168173ffffffffffffffffffffffffffffffffffffffff1614611f57578073ffffffffffffffffffffffffffffffffffffffff166223de298989898989896040518763ffffffff1660e01b8152600401611f2096959493929190612ffa565b600060405180830381600087803b158015611f3a57600080fd5b505af1158015611f4e573d6000803e3d6000fd5b50505050611fbe565b8115611fbd57611f7c8673ffffffffffffffffffffffffffffffffffffffff16612357565b15611fbc576040517f08c379a0000000000000000000000000000000000000000000000000000000008152600401611fb390613297565b60405180910390fd5b5b5b5050505050505050565b600073ffffffffffffffffffffffffffffffffffffffff168673ffffffffffffffffffffffffffffffffffffffff161415612038576040517f08c379a000000000000000000000000000000000000000000000000000000000815260040161202f906131b7565b60405180910390fd5b600073ffffffffffffffffffffffffffffffffffffffff168573ffffffffffffffffffffffffffffffffffffffff1614156120a8576040517f08c379a000000000000000000000000000000000000000000000000000000000815260040161209f90613357565b60405180910390fd5b60006120b2611881565b90506120c2818888888888611a54565b6120d0818888888888611bca565b6120df81888888888888611de7565b50505050505050565b6120f684848484600161236a565b50505050565b600073ffffffffffffffffffffffffffffffffffffffff168473ffffffffffffffffffffffffffffffffffffffff16141561216c576040517f08c379a0000000000000000000000000000000000000000000000000000000008152600401612163906131f7565b60405180910390fd5b6000612176611881565b905061218781866000878787611a54565b6121948186600087612351565b6000600860008773ffffffffffffffffffffffffffffffffffffffff1673ffffffffffffffffffffffffffffffffffffffff1681526020019081526020016000205490508481101561221b576040517f08c379a000000000000000000000000000000000000000000000000000000000815260040161221290613337565b60405180910390fd5b848103600860008873ffffffffffffffffffffffffffffffffffffffff1673ffffffffffffffffffffffffffffffffffffffff16815260200190815260200160002081905550846009600082825461227391906135f7565b925050819055508573ffffffffffffffffffffffffffffffffffffffff168273ffffffffffffffffffffffffffffffffffffffff167fa78a9be3a7b862d26933ad85fb11d80ef66b8f972d7cbba06621d583943a40988787876040516122db939291906133b2565b60405180910390a3600073ffffffffffffffffffffffffffffffffffffffff168673ffffffffffffffffffffffffffffffffffffffff167fddf252ad1be2c89b69c2b068fc378daa952ba7f163c4a11628f55a4df523b3ef876040516123419190613397565b60405180910390a3505050505050565b50505050565b600080823b905060008111915050919050565b600073ffffffffffffffffffffffffffffffffffffffff168573ffffffffffffffffffffffffffffffffffffffff1614156123da576040517f08c379a00000000000000000000000000000000000000000000000000000000081526004016123d190613277565b60405180910390fd5b60006123e4611881565b90506123f38160008888612351565b84600960008282546124059190613547565b9250508190555084600860008873ffffffffffffffffffffffffffffffffffffffff1673ffffffffffffffffffffffffffffffffffffffff168152602001908152602001600020600082825461245b9190613547565b925050819055506124728160008888888888611de7565b8573ffffffffffffffffffffffffffffffffffffffff168173ffffffffffffffffffffffffffffffffffffffff167f2fe5be0146f74c5bce36c0b80911af6c7d86ff27e89d5cfa61fc681327954e5d8787876040516124d3939291906133b2565b60405180910390a38573ffffffffffffffffffffffffffffffffffffffff16600073ffffffffffffffffffffffffffffffffffffffff167fddf252ad1be2c89b69c2b068fc378daa952ba7f163c4a11628f55a4df523b3ef876040516125399190613397565b60405180910390a3505050505050565b828054612555906136e0565b90600052602060002090601f01602090048101928261257757600085556125be565b82601f1061259057805160ff19168380011785556125be565b828001600101855582156125be579182015b828111156125bd5782518255916020019190600101906125a2565b5b5090506125cb9190612659565b5090565b828054828255906000526020600020908101928215612648579160200282015b828111156126475782518260006101000a81548173ffffffffffffffffffffffffffffffffffffffff021916908373ffffffffffffffffffffffffffffffffffffffff160217905550916020019190600101906125ef565b5b5090506126559190612659565b5090565b5b8082111561267257600081600090555060010161265a565b5090565b600061268961268484613437565b613412565b905080838252602082019050828560208602820111156126a857600080fd5b60005b858110156126d857816126be888261275e565b8452602084019350602083019250506001810190506126ab565b5050509392505050565b60006126f56126f084613463565b613412565b90508281526020810184848401111561270d57600080fd5b61271884828561369e565b509392505050565b600061273361272e84613494565b613412565b90508281526020810184848401111561274b57600080fd5b61275684828561369e565b509392505050565b60008135905061276d81613cce565b92915050565b60008151905061278281613cce565b92915050565b600082601f83011261279957600080fd5b81356127a9848260208601612676565b91505092915050565b600082601f8301126127c357600080fd5b81356127d38482602086016126e2565b91505092915050565b600082601f8301126127ed57600080fd5b81356127fd848260208601612720565b91505092915050565b60008135905061281581613ce5565b92915050565b60006020828403121561282d57600080fd5b600061283b8482850161275e565b91505092915050565b60006020828403121561285657600080fd5b600061286484828501612773565b91505092915050565b6000806040838503121561288057600080fd5b600061288e8582860161275e565b925050602061289f8582860161275e565b9150509250929050565b6000806000606084860312156128be57600080fd5b60006128cc8682870161275e565b93505060206128dd8682870161275e565b92505060406128ee86828701612806565b9150509250925092565b600080600080600060a0868803121561291057600080fd5b600061291e8882890161275e565b955050602061292f8882890161275e565b945050604061294088828901612806565b935050606086013567ffffffffffffffff81111561295d57600080fd5b612969888289016127b2565b925050608086013567ffffffffffffffff81111561298657600080fd5b612992888289016127b2565b9150509295509295909350565b600080604083850312156129b257600080fd5b60006129c08582860161275e565b92505060206129d185828601612806565b9150509250929050565b6000806000606084860312156129f057600080fd5b60006129fe8682870161275e565b9350506020612a0f86828701612806565b925050604084013567ffffffffffffffff811115612a2c57600080fd5b612a38868287016127b2565b9150509250925092565b60008060008060808587031215612a5857600080fd5b6000612a668782880161275e565b9450506020612a7787828801612806565b935050604085013567ffffffffffffffff811115612a9457600080fd5b612aa0878288016127b2565b925050606085013567ffffffffffffffff811115612abd57600080fd5b612ac9878288016127b2565b91505092959194509250565b600080600080600060a08688031215612aed57600080fd5b600086013567ffffffffffffffff811115612b0757600080fd5b612b13888289016127dc565b955050602086013567ffffffffffffffff811115612b3057600080fd5b612b3c888289016127dc565b945050604086013567ffffffffffffffff811115612b5957600080fd5b612b6588828901612788565b9350506060612b7688828901612806565b9250506080612b878882890161275e565b9150509295509295909350565b60008060408385031215612ba757600080fd5b6000612bb585828601612806565b925050602083013567ffffffffffffffff811115612bd257600080fd5b612bde858286016127b2565b9150509250929050565b6000612bf48383612c00565b60208301905092915050565b612c098161362b565b82525050565b612c188161362b565b82525050565b6000612c29826134d5565b612c338185613503565b9350612c3e836134c5565b8060005b83811015612c6f578151612c568882612be8565b9750612c61836134f6565b925050600181019050612c42565b5085935050505092915050565b612c858161363d565b82525050565b612c9481613649565b82525050565b6000612ca5826134e0565b612caf8185613514565b9350612cbf8185602086016136ad565b612cc881613819565b840191505092915050565b6000612cde826134eb565b612ce88185613525565b9350612cf88185602086016136ad565b612d0181613819565b840191505092915050565b6000612d17826134eb565b612d218185613536565b9350612d318185602086016136ad565b612d3a81613819565b840191505092915050565b6000612d52602583613536565b9150612d5d8261382a565b604082019050919050565b6000612d75602283613536565b9150612d8082613879565b604082019050919050565b6000612d98602783613536565b9150612da3826138c8565b604082019050919050565b6000612dbb602283613536565b9150612dc682613917565b604082019050919050565b6000612dde602483613536565b9150612de982613966565b604082019050919050565b6000612e01601f83613536565b9150612e0c826139b5565b602082019050919050565b6000612e24602183613536565b9150612e2f826139de565b604082019050919050565b6000612e47602083613536565b9150612e5282613a2d565b602082019050919050565b6000612e6a604d83613536565b9150612e7582613a56565b606082019050919050565b6000612e8d602483613536565b9150612e9882613acb565b604082019050919050565b6000612eb0602c83613536565b9150612ebb82613b1a565b604082019050919050565b6000612ed3602983613536565b9150612ede82613b69565b604082019050919050565b6000612ef6602683613536565b9150612f0182613bb8565b604082019050919050565b6000612f19602383613536565b9150612f2482613c07565b604082019050919050565b6000612f3c602083613536565b9150612f4782613c56565b602082019050919050565b6000612f5f602383613536565b9150612f6a82613c7f565b604082019050919050565b6000604083016000830151612f8d6000860182612c00565b5060208301518482036020860152612fa58282612cd3565b9150508091505092915050565b612fbb81613673565b82525050565b612fca8161367d565b82525050565b612fd981613691565b82525050565b6000602082019050612ff46000830184612c0f565b92915050565b600060c08201905061300f6000830189612c0f565b61301c6020830188612c0f565b6130296040830187612c0f565b6130366060830186612fb2565b81810360808301526130488185612c9a565b905081810360a083015261305c8184612c9a565b9050979650505050505050565b600060408201905061307e6000830185612c0f565b61308b6020830184612c8b565b9392505050565b60006060820190506130a76000830186612c0f565b6130b46020830185612c8b565b6130c16040830184612c0f565b949350505050565b600060208201905081810360008301526130e38184612c1e565b905092915050565b60006020820190506131006000830184612c7c565b92915050565b600060a08201905081810360008301526131208188612c9a565b905081810360208301526131348187612f75565b905081810360408301526131488186612c9a565b90506131576060830185612fc1565b81810360808301526131698184612c9a565b90509695505050505050565b6000602082019050818103600083015261318f8184612d0c565b905092915050565b600060208201905081810360008301526131b081612d45565b9050919050565b600060208201905081810360008301526131d081612d68565b9050919050565b600060208201905081810360008301526131f081612d8b565b9050919050565b6000602082019050818103600083015261321081612dae565b9050919050565b6000602082019050818103600083015261323081612dd1565b9050919050565b6000602082019050818103600083015261325081612df4565b9050919050565b6000602082019050818103600083015261327081612e17565b9050919050565b6000602082019050818103600083015261329081612e3a565b9050919050565b600060208201905081810360008301526132b081612e5d565b9050919050565b600060208201905081810360008301526132d081612e80565b9050919050565b600060208201905081810360008301526132f081612ea3565b9050919050565b6000602082019050818103600083015261331081612ec6565b9050919050565b6000602082019050818103600083015261333081612ee9565b9050919050565b6000602082019050818103600083015261335081612f0c565b9050919050565b6000602082019050818103600083015261337081612f2f565b9050919050565b6000602082019050818103600083015261339081612f52565b9050919050565b60006020820190506133ac6000830184612fb2565b92915050565b60006060820190506133c76000830186612fb2565b81810360208301526133d98185612c9a565b905081810360408301526133ed8184612c9a565b9050949350505050565b600060208201905061340c6000830184612fd0565b92915050565b600061341c61342d565b90506134288282613712565b919050565b6000604051905090565b600067ffffffffffffffff821115613452576134516137ea565b5b602082029050602081019050919050565b600067ffffffffffffffff82111561347e5761347d6137ea565b5b61348782613819565b9050602081019050919050565b600067ffffffffffffffff8211156134af576134ae6137ea565b5b6134b882613819565b9050602081019050919050565b6000819050602082019050919050565b600081519050919050565b600081519050919050565b600081519050919050565b6000602082019050919050565b600082825260208201905092915050565b600082825260208201905092915050565b600082825260208201905092915050565b600082825260208201905092915050565b600061355282613673565b915061355d83613673565b9250827fffffffffffffffffffffffffffffffffffffffffffffffffffffffffffffffff038211156135925761359161378c565b5b828201905092915050565b60006135a882613673565b91506135b383613673565b9250817fffffffffffffffffffffffffffffffffffffffffffffffffffffffffffffffff04831182151516156135ec576135eb61378c565b5b828202905092915050565b600061360282613673565b915061360d83613673565b9250828210156136205761361f61378c565b5b828203905092915050565b600061363682613653565b9050919050565b60008115159050919050565b6000819050919050565b600073ffffffffffffffffffffffffffffffffffffffff82169050919050565b6000819050919050565b600067ffffffffffffffff82169050919050565b600060ff82169050919050565b82818337600083830152505050565b60005b838110156136cb5780820151818401526020810190506136b0565b838111156136da576000848401525b50505050565b600060028204905060018216806136f857607f821691505b6020821081141561370c5761370b6137bb565b5b50919050565b61371b82613819565b810181811067ffffffffffffffff8211171561373a576137396137ea565b5b80604052505050565b600061374e82613673565b91507fffffffffffffffffffffffffffffffffffffffffffffffffffffffffffffffff8214156137815761378061378c565b5b600182019050919050565b7f4e487b7100000000000000000000000000000000000000000000000000000000600052601160045260246000fd5b7f4e487b7100000000000000000000000000000000000000000000000000000000600052602260045260246000fd5b7f4e487b7100000000000000000000000000000000000000000000000000000000600052604160045260246000fd5b6000601f19601f8301169050919050565b7f4552433737373a20617070726f76652066726f6d20746865207a65726f20616460008201527f6472657373000000000000000000000000000000000000000000000000000000602082015250565b7f4552433737373a2073656e642066726f6d20746865207a65726f20616464726560008201527f7373000000000000000000000000000000000000000000000000000000000000602082015250565b7f4552433737373a207472616e7366657220616d6f756e7420657863656564732060008201527f62616c616e636500000000000000000000000000000000000000000000000000602082015250565b7f4552433737373a206275726e2066726f6d20746865207a65726f20616464726560008201527f7373000000000000000000000000000000000000000000000000000000000000602082015250565b7f4552433737373a20617574686f72697a696e672073656c66206173206f70657260008201527f61746f7200000000000000000000000000000000000000000000000000000000602082015250565b7f436f6e747261637420697320616c726561647920696e697469616c697a656400600082015250565b7f4552433737373a207265766f6b696e672073656c66206173206f70657261746f60008201527f7200000000000000000000000000000000000000000000000000000000000000602082015250565b7f4552433737373a206d696e7420746f20746865207a65726f2061646472657373600082015250565b7f4552433737373a20746f6b656e20726563697069656e7420636f6e747261637460008201527f20686173206e6f20696d706c656d656e74657220666f7220455243373737546f60208201527f6b656e73526563697069656e7400000000000000000000000000000000000000604082015250565b7f4552433737373a207472616e7366657220746f20746865207a65726f2061646460008201527f7265737300000000000000000000000000000000000000000000000000000000602082015250565b7f4552433737373a2063616c6c6572206973206e6f7420616e206f70657261746f60008201527f7220666f7220686f6c6465720000000000000000000000000000000000000000602082015250565b7f4552433737373a207472616e7366657220616d6f756e7420657863656564732060008201527f616c6c6f77616e63650000000000000000000000000000000000000000000000602082015250565b7f4552433737373a207472616e736665722066726f6d20746865207a65726f206160008201527f6464726573730000000000000000000000000000000000000000000000000000602082015250565b7f4552433737373a206275726e20616d6f756e7420657863656564732062616c6160008201527f6e63650000000000000000000000000000000000000000000000000000000000602082015250565b7f4552433737373a2073656e6420746f20746865207a65726f2061646472657373600082015250565b7f4552433737373a20617070726f766520746f20746865207a65726f206164647260008201527f6573730000000000000000000000000000000000000000000000000000000000602082015250565b613cd78161362b565b8114613ce257600080fd5b50565b613cee81613673565b8114613cf957600080fd5b5056fea26469706673582212201070226a5bbde0d2857357c36cf304542a25f2acd29b595e2d59705dd734f19964736f6c63430008040033",
  "linkReferences": {},
  "deployedLinkReferences": {}
}