{
  "_format": "hh-sol-artifact-1",
  "contractName": "ERC777",
  "sourceName": "contracts/ERC777.sol",
  "abi": [
    {
      "inputs": [
        {
          "internalType": "address",
          "name": "_owner",
          "type": "address"
        }
      ],
      "stateMutability": "nonpayable",
      "type": "constructor"
    },
    {
      "inputs": [],
      "name": "AlreadyInitialized",
      "type": "error"
    },
    {
      "inputs": [],
      "name": "AuthorizingSelf",
      "type": "error"
    },
    {
      "inputs": [],
      "name": "InsufficientAllowance",
      "type": "error"
    },
    {
      "inputs": [],
      "name": "InsufficientBalance",
      "type": "error"
    },
    {
      "inputs": [],
      "name": "MissingERC777TokensRecipient",
      "type": "error"
    },
    {
      "inputs": [],
      "name": "RevokingSelf",
      "type": "error"
    },
    {
      "inputs": [],
      "name": "SameAddress",
      "type": "error"
    },
    {
      "inputs": [],
      "name": "Unauthorized",
      "type": "error"
    },
    {
      "inputs": [],
      "name": "UnauthorizedOperator",
      "type": "error"
    },
    {
      "inputs": [],
      "name": "ZeroAddress",
      "type": "error"
    },
    {
      "anonymous": false,
      "inputs": [
        {
          "indexed": true,
          "internalType": "address",
          "name": "owner",
          "type": "address"
        },
        {
          "indexed": true,
          "internalType": "address",
          "name": "spender",
          "type": "address"
        },
        {
          "indexed": false,
          "internalType": "uint256",
          "name": "value",
          "type": "uint256"
        }
      ],
      "name": "Approval",
      "type": "event"
    },
    {
      "anonymous": false,
      "inputs": [
        {
          "indexed": true,
          "internalType": "address",
          "name": "operator",
          "type": "address"
        },
        {
          "indexed": true,
          "internalType": "address",
          "name": "tokenHolder",
          "type": "address"
        }
      ],
      "name": "AuthorizedOperator",
      "type": "event"
    },
    {
      "anonymous": false,
      "inputs": [
        {
          "indexed": true,
          "internalType": "address",
          "name": "operator",
          "type": "address"
        },
        {
          "indexed": true,
          "internalType": "address",
          "name": "from",
          "type": "address"
        },
        {
          "indexed": false,
          "internalType": "uint256",
          "name": "amount",
          "type": "uint256"
        },
        {
          "indexed": false,
          "internalType": "bytes",
          "name": "data",
          "type": "bytes"
        },
        {
          "indexed": false,
          "internalType": "bytes",
          "name": "operatorData",
          "type": "bytes"
        }
      ],
      "name": "Burned",
      "type": "event"
    },
    {
      "anonymous": false,
      "inputs": [
        {
          "indexed": false,
          "internalType": "uint8",
          "name": "version",
          "type": "uint8"
        }
      ],
      "name": "Initialized",
      "type": "event"
    },
    {
      "anonymous": false,
      "inputs": [
        {
          "indexed": true,
          "internalType": "address",
          "name": "operator",
          "type": "address"
        },
        {
          "indexed": true,
          "internalType": "address",
          "name": "to",
          "type": "address"
        },
        {
          "indexed": false,
          "internalType": "uint256",
          "name": "amount",
          "type": "uint256"
        },
        {
          "indexed": false,
          "internalType": "bytes",
          "name": "data",
          "type": "bytes"
        },
        {
          "indexed": false,
          "internalType": "bytes",
          "name": "operatorData",
          "type": "bytes"
        }
      ],
      "name": "Minted",
      "type": "event"
    },
    {
      "anonymous": false,
      "inputs": [
        {
          "indexed": true,
          "internalType": "address",
          "name": "operator",
          "type": "address"
        },
        {
          "indexed": true,
          "internalType": "address",
          "name": "tokenHolder",
          "type": "address"
        }
      ],
      "name": "RevokedOperator",
      "type": "event"
    },
    {
      "anonymous": false,
      "inputs": [
        {
          "indexed": true,
          "internalType": "address",
          "name": "operator",
          "type": "address"
        },
        {
          "indexed": true,
          "internalType": "address",
          "name": "from",
          "type": "address"
        },
        {
          "indexed": true,
          "internalType": "address",
          "name": "to",
          "type": "address"
        },
        {
          "indexed": false,
          "internalType": "uint256",
          "name": "amount",
          "type": "uint256"
        },
        {
          "indexed": false,
          "internalType": "bytes",
          "name": "data",
          "type": "bytes"
        },
        {
          "indexed": false,
          "internalType": "bytes",
          "name": "operatorData",
          "type": "bytes"
        }
      ],
      "name": "Sent",
      "type": "event"
    },
    {
      "anonymous": false,
      "inputs": [
        {
          "indexed": true,
          "internalType": "address",
          "name": "from",
          "type": "address"
        },
        {
          "indexed": true,
          "internalType": "address",
          "name": "to",
          "type": "address"
        },
        {
          "indexed": false,
          "internalType": "uint256",
          "name": "value",
          "type": "uint256"
        }
      ],
      "name": "Transfer",
      "type": "event"
    },
    {
      "inputs": [
        {
          "internalType": "address",
          "name": "_owner",
          "type": "address"
        },
        {
          "internalType": "address",
          "name": "_spender",
          "type": "address"
        }
      ],
      "name": "allowance",
      "outputs": [
        {
          "internalType": "uint256",
          "name": "",
          "type": "uint256"
        }
      ],
      "stateMutability": "view",
      "type": "function"
    },
    {
      "inputs": [
        {
          "internalType": "address",
          "name": "_spender",
          "type": "address"
        },
        {
          "internalType": "uint256",
          "name": "_amount",
          "type": "uint256"
        }
      ],
      "name": "approve",
      "outputs": [
        {
          "internalType": "bool",
          "name": "",
          "type": "bool"
        }
      ],
      "stateMutability": "nonpayable",
      "type": "function"
    },
    {
      "inputs": [
        {
          "internalType": "address",
          "name": "_operator",
          "type": "address"
        }
      ],
      "name": "authorizeOperator",
      "outputs": [],
      "stateMutability": "nonpayable",
      "type": "function"
    },
    {
      "inputs": [
        {
          "internalType": "address",
          "name": "tokenHolder",
          "type": "address"
        }
      ],
      "name": "balanceOf",
      "outputs": [
        {
          "internalType": "uint256",
          "name": "",
          "type": "uint256"
        }
      ],
      "stateMutability": "view",
      "type": "function"
    },
    {
      "inputs": [
        {
          "internalType": "uint256",
          "name": "_amount",
          "type": "uint256"
        },
        {
          "internalType": "bytes",
          "name": "_data",
          "type": "bytes"
        }
      ],
      "name": "burn",
      "outputs": [],
      "stateMutability": "nonpayable",
      "type": "function"
    },
    {
      "inputs": [],
      "name": "contractOwner",
      "outputs": [
        {
          "internalType": "address",
          "name": "",
          "type": "address"
        }
      ],
      "stateMutability": "view",
      "type": "function"
    },
    {
      "inputs": [],
      "name": "decimals",
      "outputs": [
        {
          "internalType": "uint8",
          "name": "",
          "type": "uint8"
        }
      ],
      "stateMutability": "pure",
      "type": "function"
    },
    {
      "inputs": [],
      "name": "defaultOperators",
      "outputs": [
        {
          "internalType": "address[]",
          "name": "",
          "type": "address[]"
        }
      ],
      "stateMutability": "view",
      "type": "function"
    },
    {
      "inputs": [],
      "name": "granularity",
      "outputs": [
        {
          "internalType": "uint256",
          "name": "",
          "type": "uint256"
        }
      ],
      "stateMutability": "view",
      "type": "function"
    },
    {
      "inputs": [
        {
          "internalType": "string",
          "name": "_name",
          "type": "string"
        },
        {
          "internalType": "string",
          "name": "_symbol",
          "type": "string"
        },
        {
          "internalType": "address[]",
          "name": "defaultOperators_",
          "type": "address[]"
        },
        {
          "internalType": "uint256",
          "name": "_initialSupply",
          "type": "uint256"
        },
        {
          "internalType": "address",
          "name": "_tenant",
          "type": "address"
        }
      ],
      "name": "initialize",
      "outputs": [],
      "stateMutability": "nonpayable",
      "type": "function"
    },
    {
      "inputs": [
        {
          "internalType": "address",
          "name": "_operator",
          "type": "address"
        },
        {
          "internalType": "address",
          "name": "_tokenHolder",
          "type": "address"
        }
      ],
      "name": "isOperatorFor",
      "outputs": [
        {
          "internalType": "bool",
          "name": "",
          "type": "bool"
        }
      ],
      "stateMutability": "view",
      "type": "function"
    },
    {
      "inputs": [],
      "name": "metadata",
      "outputs": [
        {
          "internalType": "bytes",
          "name": "title",
          "type": "bytes"
        },
        {
          "components": [
            {
              "internalType": "address",
              "name": "authorAddress",
              "type": "address"
            },
            {
              "internalType": "string",
              "name": "externalLink",
              "type": "string"
            }
          ],
          "internalType": "struct IHyperverseModule.Author",
          "name": "author",
          "type": "tuple"
        },
        {
          "internalType": "bytes",
          "name": "version",
          "type": "bytes"
        },
        {
          "internalType": "uint64",
          "name": "publishedAt",
          "type": "uint64"
        },
        {
          "internalType": "bytes",
          "name": "externalLink",
          "type": "bytes"
        }
      ],
      "stateMutability": "view",
      "type": "function"
    },
    {
      "inputs": [
        {
          "internalType": "uint256",
          "name": "_amount",
          "type": "uint256"
        }
      ],
      "name": "mint",
      "outputs": [],
      "stateMutability": "nonpayable",
      "type": "function"
    },
    {
      "inputs": [],
      "name": "name",
      "outputs": [
        {
          "internalType": "string",
          "name": "",
          "type": "string"
        }
      ],
      "stateMutability": "view",
      "type": "function"
    },
    {
      "inputs": [
        {
          "internalType": "address",
          "name": "_owner",
          "type": "address"
        },
        {
          "internalType": "uint256",
          "name": "_amount",
          "type": "uint256"
        },
        {
          "internalType": "bytes",
          "name": "_data",
          "type": "bytes"
        },
        {
          "internalType": "bytes",
          "name": "_operatorData",
          "type": "bytes"
        }
      ],
      "name": "operatorBurn",
      "outputs": [],
      "stateMutability": "nonpayable",
      "type": "function"
    },
    {
      "inputs": [
        {
          "internalType": "address",
          "name": "_owner",
          "type": "address"
        },
        {
          "internalType": "uint256",
          "name": "_amount",
          "type": "uint256"
        },
        {
          "internalType": "bytes",
          "name": "_data",
          "type": "bytes"
        },
        {
          "internalType": "bytes",
          "name": "_operatorData",
          "type": "bytes"
        }
      ],
      "name": "operatorMint",
      "outputs": [],
      "stateMutability": "nonpayable",
      "type": "function"
    },
    {
      "inputs": [
        {
          "internalType": "address",
          "name": "_from",
          "type": "address"
        },
        {
          "internalType": "address",
          "name": "_to",
          "type": "address"
        },
        {
          "internalType": "uint256",
          "name": "_amount",
          "type": "uint256"
        },
        {
          "internalType": "bytes",
          "name": "_data",
          "type": "bytes"
        },
        {
          "internalType": "bytes",
          "name": "_operatorData",
          "type": "bytes"
        }
      ],
      "name": "operatorSend",
      "outputs": [],
      "stateMutability": "nonpayable",
      "type": "function"
    },
    {
      "inputs": [
        {
          "internalType": "address",
          "name": "_operator",
          "type": "address"
        }
      ],
      "name": "revokeOperator",
      "outputs": [],
      "stateMutability": "nonpayable",
      "type": "function"
    },
    {
      "inputs": [
        {
          "internalType": "address",
          "name": "_to",
          "type": "address"
        },
        {
          "internalType": "uint256",
          "name": "_amount",
          "type": "uint256"
        },
        {
          "internalType": "bytes",
          "name": "_data",
          "type": "bytes"
        }
      ],
      "name": "send",
      "outputs": [],
      "stateMutability": "nonpayable",
      "type": "function"
    },
    {
      "inputs": [],
      "name": "symbol",
      "outputs": [
        {
          "internalType": "string",
          "name": "",
          "type": "string"
        }
      ],
      "stateMutability": "view",
      "type": "function"
    },
    {
      "inputs": [],
      "name": "totalSupply",
      "outputs": [
        {
          "internalType": "uint256",
          "name": "",
          "type": "uint256"
        }
      ],
      "stateMutability": "view",
      "type": "function"
    },
    {
      "inputs": [
        {
          "internalType": "address",
          "name": "_to",
          "type": "address"
        },
        {
          "internalType": "uint256",
          "name": "_amount",
          "type": "uint256"
        }
      ],
      "name": "transfer",
      "outputs": [
        {
          "internalType": "bool",
          "name": "",
          "type": "bool"
        }
      ],
      "stateMutability": "nonpayable",
      "type": "function"
    },
    {
      "inputs": [
        {
          "internalType": "address",
          "name": "_from",
          "type": "address"
        },
        {
          "internalType": "address",
          "name": "_to",
          "type": "address"
        },
        {
          "internalType": "uint256",
          "name": "_amount",
          "type": "uint256"
        }
      ],
      "name": "transferFrom",
      "outputs": [
        {
          "internalType": "bool",
          "name": "",
          "type": "bool"
        }
      ],
      "stateMutability": "nonpayable",
      "type": "function"
    }
  ],
  "bytecode": "0x60a06040523480156200001157600080fd5b50604051620044e8380380620044e8833981810160405281019062000037919062000551565b6040518060a001604052806040518060400160405280600681526020017f4552433737370000000000000000000000000000000000000000000000000000815250815260200160405180604001604052808473ffffffffffffffffffffffffffffffffffffffff1681526020016040518060400160405280601881526020017f68747470733a2f2f65787465726e616c6c696e6b2e6e6574000000000000000081525081525081526020016040518060400160405280600581526020017f302e302e31000000000000000000000000000000000000000000000000000000815250815260200165032a361e860667ffffffffffffffff1681526020016040518060400160405280601881526020017f68747470733a2f2f65787465726e616c4c696e6b2e6e657400000000000000008152508152506000808201518160000190805190602001906200018b929190620003f9565b5060208201518160010160008201518160000160006101000a81548173ffffffffffffffffffffffffffffffffffffffff021916908373ffffffffffffffffffffffffffffffffffffffff1602179055506020820151816001019080519060200190620001fa9291906200048a565b50505060408201518160030190805190602001906200021b929190620003f9565b5060608201518160040160006101000a81548167ffffffffffffffff021916908367ffffffffffffffff160217905550608082015181600501908051906020019062000269929190620003f9565b509050508073ffffffffffffffffffffffffffffffffffffffff1660808173ffffffffffffffffffffffffffffffffffffffff1660601b81525050731820a4b7618bde71dce8cdc73aab6c95905fad2473ffffffffffffffffffffffffffffffffffffffff166329965a1d307fac7fbab5f54a3ca8194167523c6753bfeb96a445279294b6125b68cce2177054306040518463ffffffff1660e01b815260040162000317939291906200059f565b600060405180830381600087803b1580156200033257600080fd5b505af115801562000347573d6000803e3d6000fd5b50505050731820a4b7618bde71dce8cdc73aab6c95905fad2473ffffffffffffffffffffffffffffffffffffffff166329965a1d307faea199e31a596269b42cdafd93407f14436db6e4cad65417994c2eb37381e05a306040518463ffffffff1660e01b8152600401620003be939291906200059f565b600060405180830381600087803b158015620003d957600080fd5b505af1158015620003ee573d6000803e3d6000fd5b505050505062000699565b82805462000407906200061a565b90600052602060002090601f0160209004810192826200042b576000855562000477565b82601f106200044657805160ff191683800117855562000477565b8280016001018555821562000477579182015b828111156200047657825182559160200191906001019062000459565b5b5090506200048691906200051b565b5090565b82805462000498906200061a565b90600052602060002090601f016020900481019282620004bc576000855562000508565b82601f10620004d757805160ff191683800117855562000508565b8280016001018555821562000508579182015b8281111562000507578251825591602001919060010190620004ea565b5b5090506200051791906200051b565b5090565b5b80821115620005365760008160009055506001016200051c565b5090565b6000815190506200054b816200067f565b92915050565b6000602082840312156200056457600080fd5b600062000574848285016200053a565b91505092915050565b6200058881620005dc565b82525050565b6200059981620005f0565b82525050565b6000606082019050620005b660008301866200057d565b620005c560208301856200058e565b620005d460408301846200057d565b949350505050565b6000620005e982620005fa565b9050919050565b6000819050919050565b600073ffffffffffffffffffffffffffffffffffffffff82169050919050565b600060028204905060018216806200063357607f821691505b602082108114156200064a576200064962000650565b5b50919050565b7f4e487b7100000000000000000000000000000000000000000000000000000000600052602260045260246000fd5b6200068a81620005dc565b81146200069657600080fd5b50565b60805160601c613e30620006b86000396000611a090152613e306000f3fe608060405234801561001057600080fd5b506004361061014d5760003560e01c8063959b8c3f116100c3578063ce606ee01161007c578063ce606ee014610390578063d95b6371146103ae578063dd62ed3e146103de578063fad8b32a1461040e578063fc673c4f1461042a578063fe9d9303146104465761014d565b8063959b8c3f146102d257806395d89b41146102ee578063999de9cc1461030c5780639bd9bbc614610328578063a0712d6814610344578063a9059cbb146103605761014d565b8063313ce56711610115578063313ce5671461020c578063392f37e91461022a578063556f0dc71461024c57806362ad1b831461026a57806370a0823114610286578063768f950a146102b65761014d565b806306e485381461015257806306fdde0314610170578063095ea7b31461018e57806318160ddd146101be57806323b872dd146101dc575b600080fd5b61015a610462565b6040516101679190613829565b60405180910390f35b6101786104f0565b60405161018591906138f0565b60405180910390f35b6101a860048036038101906101a391906132d4565b61057e565b6040516101b5919061384b565b60405180910390f35b6101c66106ec565b6040516101d39190613932565b60405180910390f35b6101f660048036038101906101f191906131de565b6106f2565b604051610203919061384b565b60405180910390f35b6102146109ef565b6040516102219190613992565b60405180910390f35b6102326109f8565b604051610243959493929190613866565b60405180910390f35b610254610cba565b6040516102619190613932565b60405180910390f35b610284600480360381019061027f919061322d565b610cc3565b005b6102a0600480360381019061029b9190613150565b610d62565b6040516102ad9190613932565b60405180910390f35b6102d060048036038101906102cb919061340a565b610dab565b005b6102ec60048036038101906102e79190613150565b611230565b005b6102f661150f565b60405161030391906138f0565b60405180910390f35b61032660048036038101906103219190613377565b61159d565b005b610342600480360381019061033d9190613310565b6115f6565b005b61035e600480360381019061035991906134c9565b61176a565b005b61037a600480360381019061037591906132d4565b61181e565b604051610387919061384b565b60405180910390f35b610398611a07565b6040516103a5919061373f565b60405180910390f35b6103c860048036038101906103c391906131a2565b611a2b565b6040516103d5919061384b565b60405180910390f35b6103f860048036038101906103f391906131a2565b611bdc565b6040516104059190613932565b60405180910390f35b61042860048036038101906104239190613150565b611c63565b005b610444600480360381019061043f9190613377565b611f42565b005b610460600480360381019061045b91906134f2565b611fdd565b005b6060600c8054806020026020016040519081016040528092919081815260200182805480156104e657602002820191906000526020600020905b8160009054906101000a900473ffffffffffffffffffffffffffffffffffffffff1673ffffffffffffffffffffffffffffffffffffffff168152602001906001019080831161049c575b5050505050905090565b600a80546104fd90613c33565b80601f016020809104026020016040519081016040528092919081815260200182805461052990613c33565b80156105765780601f1061054b57610100808354040283529160200191610576565b820191906000526020600020905b81548152906001019060200180831161055957829003601f168201915b505050505081565b600033838073ffffffffffffffffffffffffffffffffffffffff168273ffffffffffffffffffffffffffffffffffffffff1614156105e8576040517f367558c300000000000000000000000000000000000000000000000000000000815260040160405180910390fd5b600073ffffffffffffffffffffffffffffffffffffffff168173ffffffffffffffffffffffffffffffffffffffff16148061064f5750600073ffffffffffffffffffffffffffffffffffffffff168273ffffffffffffffffffffffffffffffffffffffff16145b15610686576040517fd92e233d00000000000000000000000000000000000000000000000000000000815260040160405180910390fd5b6000610690612045565b90508461069c82610d62565b10156106d4576040517ff4d678b800000000000000000000000000000000000000000000000000000000815260040160405180910390fd5b6106df81878761204d565b6001935050505092915050565b60095481565b600083838073ffffffffffffffffffffffffffffffffffffffff168273ffffffffffffffffffffffffffffffffffffffff16141561075c576040517f367558c300000000000000000000000000000000000000000000000000000000815260040160405180910390fd5b600073ffffffffffffffffffffffffffffffffffffffff168173ffffffffffffffffffffffffffffffffffffffff1614806107c35750600073ffffffffffffffffffffffffffffffffffffffff168273ffffffffffffffffffffffffffffffffffffffff16145b156107fa576040517fd92e233d00000000000000000000000000000000000000000000000000000000815260040160405180910390fd5b6000610804612045565b90506000601060008973ffffffffffffffffffffffffffffffffffffffff1673ffffffffffffffffffffffffffffffffffffffff16815260200190815260200160002060008373ffffffffffffffffffffffffffffffffffffffff1673ffffffffffffffffffffffffffffffffffffffff16815260200190815260200160002054905085601060008a73ffffffffffffffffffffffffffffffffffffffff1673ffffffffffffffffffffffffffffffffffffffff16815260200190815260200160002060006108d1612045565b73ffffffffffffffffffffffffffffffffffffffff1673ffffffffffffffffffffffffffffffffffffffff168152602001908152602001600020541015610944576040517f13be252b00000000000000000000000000000000000000000000000000000000815260040160405180910390fd5b610970828989896040518060200160405280600081525060405180602001604052806000815250612240565b61099c8289898960405180602001604052806000815250604051806020016040528060008152506123b6565b6109b2888388846109ad9190613b38565b61204d565b6109e082898989604051806020016040528060008152506040518060200160405280600081525060006125df565b60019450505050509392505050565b60006012905090565b6000806000018054610a0990613c33565b80601f0160208091040260200160405190810160405280929190818152602001828054610a3590613c33565b8015610a825780601f10610a5757610100808354040283529160200191610a82565b820191906000526020600020905b815481529060010190602001808311610a6557829003601f168201915b505050505090806001016040518060400160405290816000820160009054906101000a900473ffffffffffffffffffffffffffffffffffffffff1673ffffffffffffffffffffffffffffffffffffffff1673ffffffffffffffffffffffffffffffffffffffff168152602001600182018054610afd90613c33565b80601f0160208091040260200160405190810160405280929190818152602001828054610b2990613c33565b8015610b765780601f10610b4b57610100808354040283529160200191610b76565b820191906000526020600020905b815481529060010190602001808311610b5957829003601f168201915b50505050508152505090806003018054610b8f90613c33565b80601f0160208091040260200160405190810160405280929190818152602001828054610bbb90613c33565b8015610c085780601f10610bdd57610100808354040283529160200191610c08565b820191906000526020600020905b815481529060010190602001808311610beb57829003601f168201915b5050505050908060040160009054906101000a900467ffffffffffffffff1690806005018054610c3790613c33565b80601f0160208091040260200160405190810160405280929190818152602001828054610c6390613c33565b8015610cb05780601f10610c8557610100808354040283529160200191610cb0565b820191906000526020600020905b815481529060010190602001808311610c9357829003601f168201915b5050505050905085565b60006001905090565b610cd4610cce612045565b86611a2b565b610d0a576040517f4d739bfe00000000000000000000000000000000000000000000000000000000815260040160405180910390fd5b82610d1486610d62565b1015610d4c576040517ff4d678b800000000000000000000000000000000000000000000000000000000815260040160405180910390fd5b610d5b858585858560016127b7565b5050505050565b6000600860008373ffffffffffffffffffffffffffffffffffffffff1673ffffffffffffffffffffffffffffffffffffffff168152602001908152602001600020549050919050565b6000610db760016128ff565b90508015610ddb576001600660156101000a81548160ff0219169083151502179055505b81600073ffffffffffffffffffffffffffffffffffffffff16600760009054906101000a900473ffffffffffffffffffffffffffffffffffffffff1673ffffffffffffffffffffffffffffffffffffffff1614610e64576040517f0dc149f000000000000000000000000000000000000000000000000000000000815260040160405180910390fd5b86600a9080519060200190610e7a929190612e7e565b5085600b9080519060200190610e91929190612e7e565b5084600c9080519060200190610ea8929190612f04565b5060005b8551811015610f60576001600d6000888481518110610ef4577f4e487b7100000000000000000000000000000000000000000000000000000000600052603260045260246000fd5b602002602001015173ffffffffffffffffffffffffffffffffffffffff1673ffffffffffffffffffffffffffffffffffffffff16815260200190815260200160002060006101000a81548160ff0219169083151502179055508080610f5890613c96565b915050610eac565b50600c309080600181540180825580915050600190039060005260206000200160009091909190916101000a81548173ffffffffffffffffffffffffffffffffffffffff021916908373ffffffffffffffffffffffffffffffffffffffff1602179055506001600d60003073ffffffffffffffffffffffffffffffffffffffff1673ffffffffffffffffffffffffffffffffffffffff16815260200190815260200160002060006101000a81548160ff021916908315150217905550731820a4b7618bde71dce8cdc73aab6c95905fad2473ffffffffffffffffffffffffffffffffffffffff166329965a1d307fac7fbab5f54a3ca8194167523c6753bfeb96a445279294b6125b68cce2177054306040518463ffffffff1660e01b815260040161108d939291906137f2565b600060405180830381600087803b1580156110a757600080fd5b505af11580156110bb573d6000803e3d6000fd5b50505050731820a4b7618bde71dce8cdc73aab6c95905fad2473ffffffffffffffffffffffffffffffffffffffff166329965a1d307faea199e31a596269b42cdafd93407f14436db6e4cad65417994c2eb37381e05a306040518463ffffffff1660e01b8152600401611130939291906137f2565b600060405180830381600087803b15801561114a57600080fd5b505af115801561115e573d6000803e3d6000fd5b5050505061118c838560405180602001604052806000815250604051806020016040528060008152506129f3565b82600760006101000a81548173ffffffffffffffffffffffffffffffffffffffff021916908373ffffffffffffffffffffffffffffffffffffffff160217905550508015611228576000600660156101000a81548160ff0219169083151502179055507f7f26b83ff96e1f2b6a682f133852f6798a09c465da95921460cefb3847402498600160405161121f91906138d5565b60405180910390a15b505050505050565b600760009054906101000a900473ffffffffffffffffffffffffffffffffffffffff1673ffffffffffffffffffffffffffffffffffffffff163373ffffffffffffffffffffffffffffffffffffffff16146112b7576040517f82b4290000000000000000000000000000000000000000000000000000000000815260040160405180910390fd5b8073ffffffffffffffffffffffffffffffffffffffff166112d6612045565b73ffffffffffffffffffffffffffffffffffffffff161415611324576040517f300a3ae800000000000000000000000000000000000000000000000000000000815260040160405180910390fd5b600d60008273ffffffffffffffffffffffffffffffffffffffff1673ffffffffffffffffffffffffffffffffffffffff16815260200190815260200160002060009054906101000a900460ff161561140e57600f6000611382612045565b73ffffffffffffffffffffffffffffffffffffffff1673ffffffffffffffffffffffffffffffffffffffff16815260200190815260200160002060008273ffffffffffffffffffffffffffffffffffffffff1673ffffffffffffffffffffffffffffffffffffffff16815260200190815260200160002060006101000a81549060ff02191690556114ab565b6001600e600061141c612045565b73ffffffffffffffffffffffffffffffffffffffff1673ffffffffffffffffffffffffffffffffffffffff16815260200190815260200160002060008373ffffffffffffffffffffffffffffffffffffffff1673ffffffffffffffffffffffffffffffffffffffff16815260200190815260200160002060006101000a81548160ff0219169083151502179055505b6114b3612045565b73ffffffffffffffffffffffffffffffffffffffff168173ffffffffffffffffffffffffffffffffffffffff167ff4caeb2d6ca8932a215a353d0703c326ec2d81fc68170f320eb2ab49e9df61f960405160405180910390a350565b600b805461151c90613c33565b80601f016020809104026020016040519081016040528092919081815260200182805461154890613c33565b80156115955780601f1061156a57610100808354040283529160200191611595565b820191906000526020600020905b81548152906001019060200180831161157857829003601f168201915b505050505081565b6115ae6115a8612045565b85611a2b565b6115e4576040517f4d739bfe00000000000000000000000000000000000000000000000000000000815260040160405180910390fd5b6115f0848484846129f3565b50505050565b33838073ffffffffffffffffffffffffffffffffffffffff168273ffffffffffffffffffffffffffffffffffffffff16141561165e576040517f367558c300000000000000000000000000000000000000000000000000000000815260040160405180910390fd5b600073ffffffffffffffffffffffffffffffffffffffff168173ffffffffffffffffffffffffffffffffffffffff1614806116c55750600073ffffffffffffffffffffffffffffffffffffffff168273ffffffffffffffffffffffffffffffffffffffff16145b156116fc576040517fd92e233d00000000000000000000000000000000000000000000000000000000815260040160405180910390fd5b8361170633610d62565b101561173e576040517ff4d678b800000000000000000000000000000000000000000000000000000000815260040160405180910390fd5b611763611749612045565b8686866040518060200160405280600081525060016127b7565b5050505050565b600760009054906101000a900473ffffffffffffffffffffffffffffffffffffffff1673ffffffffffffffffffffffffffffffffffffffff163373ffffffffffffffffffffffffffffffffffffffff16146117f1576040517f82b4290000000000000000000000000000000000000000000000000000000000815260040160405180910390fd5b61181b338260405180602001604052806000815250604051806020016040528060008152506129f3565b50565b600033838073ffffffffffffffffffffffffffffffffffffffff168273ffffffffffffffffffffffffffffffffffffffff161415611888576040517f367558c300000000000000000000000000000000000000000000000000000000815260040160405180910390fd5b600073ffffffffffffffffffffffffffffffffffffffff168173ffffffffffffffffffffffffffffffffffffffff1614806118ef5750600073ffffffffffffffffffffffffffffffffffffffff168273ffffffffffffffffffffffffffffffffffffffff16145b15611926576040517fd92e233d00000000000000000000000000000000000000000000000000000000815260040160405180910390fd5b6000611930612045565b90508461193c82610d62565b1015611974576040517ff4d678b800000000000000000000000000000000000000000000000000000000815260040160405180910390fd5b6119a0818288886040518060200160405280600081525060405180602001604052806000815250612240565b6119cc8182888860405180602001604052806000815250604051806020016040528060008152506123b6565b6119fa81828888604051806020016040528060008152506040518060200160405280600081525060006125df565b6001935050505092915050565b7f000000000000000000000000000000000000000000000000000000000000000081565b60008173ffffffffffffffffffffffffffffffffffffffff168373ffffffffffffffffffffffffffffffffffffffff161480611b435750600d60008473ffffffffffffffffffffffffffffffffffffffff1673ffffffffffffffffffffffffffffffffffffffff16815260200190815260200160002060009054906101000a900460ff168015611b425750600f60008373ffffffffffffffffffffffffffffffffffffffff1673ffffffffffffffffffffffffffffffffffffffff16815260200190815260200160002060008473ffffffffffffffffffffffffffffffffffffffff1673ffffffffffffffffffffffffffffffffffffffff16815260200190815260200160002060009054906101000a900460ff16155b5b80611bd45750600e60008373ffffffffffffffffffffffffffffffffffffffff1673ffffffffffffffffffffffffffffffffffffffff16815260200190815260200160002060008473ffffffffffffffffffffffffffffffffffffffff1673ffffffffffffffffffffffffffffffffffffffff16815260200190815260200160002060009054906101000a900460ff165b905092915050565b6000601060008473ffffffffffffffffffffffffffffffffffffffff1673ffffffffffffffffffffffffffffffffffffffff16815260200190815260200160002060008373ffffffffffffffffffffffffffffffffffffffff1673ffffffffffffffffffffffffffffffffffffffff16815260200190815260200160002054905092915050565b600760009054906101000a900473ffffffffffffffffffffffffffffffffffffffff1673ffffffffffffffffffffffffffffffffffffffff163373ffffffffffffffffffffffffffffffffffffffff1614611cea576040517f82b4290000000000000000000000000000000000000000000000000000000000815260040160405180910390fd5b8073ffffffffffffffffffffffffffffffffffffffff16611d09612045565b73ffffffffffffffffffffffffffffffffffffffff161415611d57576040517f39c87ad400000000000000000000000000000000000000000000000000000000815260040160405180910390fd5b600d60008273ffffffffffffffffffffffffffffffffffffffff1673ffffffffffffffffffffffffffffffffffffffff16815260200190815260200160002060009054906101000a900460ff1615611e4a576001600f6000611db7612045565b73ffffffffffffffffffffffffffffffffffffffff1673ffffffffffffffffffffffffffffffffffffffff16815260200190815260200160002060008373ffffffffffffffffffffffffffffffffffffffff1673ffffffffffffffffffffffffffffffffffffffff16815260200190815260200160002060006101000a81548160ff021916908315150217905550611ede565b600e6000611e56612045565b73ffffffffffffffffffffffffffffffffffffffff1673ffffffffffffffffffffffffffffffffffffffff16815260200190815260200160002060008273ffffffffffffffffffffffffffffffffffffffff1673ffffffffffffffffffffffffffffffffffffffff16815260200190815260200160002060006101000a81549060ff02191690555b611ee6612045565b73ffffffffffffffffffffffffffffffffffffffff168173ffffffffffffffffffffffffffffffffffffffff167f50546e66e5f44d728365dc3908c63bc5cfeeab470722c1677e3073a6ac294aa160405160405180910390a350565b611f53611f4d612045565b85611a2b565b611f89576040517f4d739bfe00000000000000000000000000000000000000000000000000000000815260040160405180910390fd5b82611f9385610d62565b1015611fcb576040517ff4d678b800000000000000000000000000000000000000000000000000000000815260040160405180910390fd5b611fd784848484612a07565b50505050565b81611fe733610d62565b101561201f576040517ff4d678b800000000000000000000000000000000000000000000000000000000815260040160405180910390fd5b61204161202a612045565b838360405180602001604052806000815250612a07565b5050565b600033905090565b82828073ffffffffffffffffffffffffffffffffffffffff168273ffffffffffffffffffffffffffffffffffffffff1614156120b5576040517f367558c300000000000000000000000000000000000000000000000000000000815260040160405180910390fd5b600073ffffffffffffffffffffffffffffffffffffffff168173ffffffffffffffffffffffffffffffffffffffff16148061211c5750600073ffffffffffffffffffffffffffffffffffffffff168273ffffffffffffffffffffffffffffffffffffffff16145b15612153576040517fd92e233d00000000000000000000000000000000000000000000000000000000815260040160405180910390fd5b82601060008773ffffffffffffffffffffffffffffffffffffffff1673ffffffffffffffffffffffffffffffffffffffff16815260200190815260200160002060008673ffffffffffffffffffffffffffffffffffffffff1673ffffffffffffffffffffffffffffffffffffffff168152602001908152602001600020819055508373ffffffffffffffffffffffffffffffffffffffff168573ffffffffffffffffffffffffffffffffffffffff167f8c5be1e5ebec7d5bd14f71427d1e84f3dd0314c0f7b2291e5b200ac8c7c3b925856040516122319190613932565b60405180910390a35050505050565b6000731820a4b7618bde71dce8cdc73aab6c95905fad2473ffffffffffffffffffffffffffffffffffffffff1663aabbb8ca877f29ddb589b1fb5fc7cf394961c1adf5f8c6454761adf795e67fe149f658abe8956040518363ffffffff1660e01b81526004016122b19291906137c9565b60206040518083038186803b1580156122c957600080fd5b505afa1580156122dd573d6000803e3d6000fd5b505050506040513d601f19601f820116820180604052508101906123019190613179565b9050600073ffffffffffffffffffffffffffffffffffffffff168173ffffffffffffffffffffffffffffffffffffffff16146123ad578073ffffffffffffffffffffffffffffffffffffffff166375ab97828888888888886040518763ffffffff1660e01b815260040161237a9695949392919061375a565b600060405180830381600087803b15801561239457600080fd5b505af11580156123a8573d6000803e3d6000fd5b505050505b50505050505050565b6123c286868686612c22565b6000600860008773ffffffffffffffffffffffffffffffffffffffff1673ffffffffffffffffffffffffffffffffffffffff1681526020019081526020016000205490506124198482612c2890919063ffffffff16565b600860008873ffffffffffffffffffffffffffffffffffffffff1673ffffffffffffffffffffffffffffffffffffffff168152602001908152602001600020819055506124ae84600860008873ffffffffffffffffffffffffffffffffffffffff1673ffffffffffffffffffffffffffffffffffffffff16815260200190815260200160002054612c3e90919063ffffffff16565b600860008773ffffffffffffffffffffffffffffffffffffffff1673ffffffffffffffffffffffffffffffffffffffff168152602001908152602001600020819055508473ffffffffffffffffffffffffffffffffffffffff168673ffffffffffffffffffffffffffffffffffffffff168873ffffffffffffffffffffffffffffffffffffffff167f06b541ddaa720db2b10a4d0cdac39b8d360425fc073085fac19bc826146779878787876040516125699392919061394d565b60405180910390a48473ffffffffffffffffffffffffffffffffffffffff168673ffffffffffffffffffffffffffffffffffffffff167fddf252ad1be2c89b69c2b068fc378daa952ba7f163c4a11628f55a4df523b3ef866040516125ce9190613932565b60405180910390a350505050505050565b6000731820a4b7618bde71dce8cdc73aab6c95905fad2473ffffffffffffffffffffffffffffffffffffffff1663aabbb8ca877fb281fc8c12954d22544db45de3159a39272895b169a852b314f9cc762e44c53b6040518363ffffffff1660e01b81526004016126509291906137c9565b60206040518083038186803b15801561266857600080fd5b505afa15801561267c573d6000803e3d6000fd5b505050506040513d601f19601f820116820180604052508101906126a09190613179565b9050600073ffffffffffffffffffffffffffffffffffffffff168173ffffffffffffffffffffffffffffffffffffffff161461274f578073ffffffffffffffffffffffffffffffffffffffff166223de298989898989896040518763ffffffff1660e01b81526004016127189695949392919061375a565b600060405180830381600087803b15801561273257600080fd5b505af1158015612746573d6000803e3d6000fd5b505050506127ad565b81156127ac576127748673ffffffffffffffffffffffffffffffffffffffff16612c54565b156127ab576040517f2e3340bc00000000000000000000000000000000000000000000000000000000815260040160405180910390fd5b5b5b5050505050505050565b85858073ffffffffffffffffffffffffffffffffffffffff168273ffffffffffffffffffffffffffffffffffffffff16141561281f576040517f367558c300000000000000000000000000000000000000000000000000000000815260040160405180910390fd5b600073ffffffffffffffffffffffffffffffffffffffff168173ffffffffffffffffffffffffffffffffffffffff1614806128865750600073ffffffffffffffffffffffffffffffffffffffff168273ffffffffffffffffffffffffffffffffffffffff16145b156128bd576040517fd92e233d00000000000000000000000000000000000000000000000000000000815260040160405180910390fd5b60006128c7612045565b90506128d7818a8a8a8a8a612240565b6128e5818a8a8a8a8a6123b6565b6128f4818a8a8a8a8a8a6125df565b505050505050505050565b6000600660159054906101000a900460ff16156129775760018260ff1614801561292f575061292d30612c54565b155b61296e576040517f08c379a000000000000000000000000000000000000000000000000000000000815260040161296590613912565b60405180910390fd5b600090506129ee565b8160ff16600660149054906101000a900460ff1660ff16106129ce576040517f08c379a00000000000000000000000000000000000000000000000000000000081526004016129c590613912565b60405180910390fd5b81600660146101000a81548160ff021916908360ff160217905550600190505b919050565b612a01848484846001612c67565b50505050565b600073ffffffffffffffffffffffffffffffffffffffff168473ffffffffffffffffffffffffffffffffffffffff161415612a6e576040517fd92e233d00000000000000000000000000000000000000000000000000000000815260040160405180910390fd5b6000600860008673ffffffffffffffffffffffffffffffffffffffff1673ffffffffffffffffffffffffffffffffffffffff1681526020019081526020016000205490506000612abc612045565b9050612acd81876000888888612240565b612ada8187600088612c22565b612aed8583612c2890919063ffffffff16565b600860008873ffffffffffffffffffffffffffffffffffffffff1673ffffffffffffffffffffffffffffffffffffffff16815260200190815260200160002081905550612b4585600954612c2890919063ffffffff16565b6009819055508573ffffffffffffffffffffffffffffffffffffffff168173ffffffffffffffffffffffffffffffffffffffff167fa78a9be3a7b862d26933ad85fb11d80ef66b8f972d7cbba06621d583943a4098878787604051612bac9392919061394d565b60405180910390a3600073ffffffffffffffffffffffffffffffffffffffff168673ffffffffffffffffffffffffffffffffffffffff167fddf252ad1be2c89b69c2b068fc378daa952ba7f163c4a11628f55a4df523b3ef87604051612c129190613932565b60405180910390a3505050505050565b50505050565b60008183612c369190613b38565b905092915050565b60008183612c4c9190613ae2565b905092915050565b600080823b905060008111915050919050565b600073ffffffffffffffffffffffffffffffffffffffff168573ffffffffffffffffffffffffffffffffffffffff161415612cce576040517fd92e233d00000000000000000000000000000000000000000000000000000000815260040160405180910390fd5b6000612cd8612045565b9050612ce78160008888612c22565b612cfc85600954612c3e90919063ffffffff16565b600981905550612d5485600860008973ffffffffffffffffffffffffffffffffffffffff1673ffffffffffffffffffffffffffffffffffffffff16815260200190815260200160002054612c3e90919063ffffffff16565b600860008873ffffffffffffffffffffffffffffffffffffffff1673ffffffffffffffffffffffffffffffffffffffff16815260200190815260200160002081905550612da781600088888888886125df565b8573ffffffffffffffffffffffffffffffffffffffff168173ffffffffffffffffffffffffffffffffffffffff167f2fe5be0146f74c5bce36c0b80911af6c7d86ff27e89d5cfa61fc681327954e5d878787604051612e089392919061394d565b60405180910390a38573ffffffffffffffffffffffffffffffffffffffff16600073ffffffffffffffffffffffffffffffffffffffff167fddf252ad1be2c89b69c2b068fc378daa952ba7f163c4a11628f55a4df523b3ef87604051612e6e9190613932565b60405180910390a3505050505050565b828054612e8a90613c33565b90600052602060002090601f016020900481019282612eac5760008555612ef3565b82601f10612ec557805160ff1916838001178555612ef3565b82800160010185558215612ef3579182015b82811115612ef2578251825591602001919060010190612ed7565b5b509050612f009190612f8e565b5090565b828054828255906000526020600020908101928215612f7d579160200282015b82811115612f7c5782518260006101000a81548173ffffffffffffffffffffffffffffffffffffffff021916908373ffffffffffffffffffffffffffffffffffffffff16021790555091602001919060010190612f24565b5b509050612f8a9190612f8e565b5090565b5b80821115612fa7576000816000905550600101612f8f565b5090565b6000612fbe612fb9846139d2565b6139ad565b90508083825260208201905082856020860282011115612fdd57600080fd5b60005b8581101561300d5781612ff38882613093565b845260208401935060208301925050600181019050612fe0565b5050509392505050565b600061302a613025846139fe565b6139ad565b90508281526020810184848401111561304257600080fd5b61304d848285613bf1565b509392505050565b600061306861306384613a2f565b6139ad565b90508281526020810184848401111561308057600080fd5b61308b848285613bf1565b509392505050565b6000813590506130a281613dcc565b92915050565b6000815190506130b781613dcc565b92915050565b600082601f8301126130ce57600080fd5b81356130de848260208601612fab565b91505092915050565b600082601f8301126130f857600080fd5b8135613108848260208601613017565b91505092915050565b600082601f83011261312257600080fd5b8135613132848260208601613055565b91505092915050565b60008135905061314a81613de3565b92915050565b60006020828403121561316257600080fd5b600061317084828501613093565b91505092915050565b60006020828403121561318b57600080fd5b6000613199848285016130a8565b91505092915050565b600080604083850312156131b557600080fd5b60006131c385828601613093565b92505060206131d485828601613093565b9150509250929050565b6000806000606084860312156131f357600080fd5b600061320186828701613093565b935050602061321286828701613093565b92505060406132238682870161313b565b9150509250925092565b600080600080600060a0868803121561324557600080fd5b600061325388828901613093565b955050602061326488828901613093565b94505060406132758882890161313b565b935050606086013567ffffffffffffffff81111561329257600080fd5b61329e888289016130e7565b925050608086013567ffffffffffffffff8111156132bb57600080fd5b6132c7888289016130e7565b9150509295509295909350565b600080604083850312156132e757600080fd5b60006132f585828601613093565b92505060206133068582860161313b565b9150509250929050565b60008060006060848603121561332557600080fd5b600061333386828701613093565b93505060206133448682870161313b565b925050604084013567ffffffffffffffff81111561336157600080fd5b61336d868287016130e7565b9150509250925092565b6000806000806080858703121561338d57600080fd5b600061339b87828801613093565b94505060206133ac8782880161313b565b935050604085013567ffffffffffffffff8111156133c957600080fd5b6133d5878288016130e7565b925050606085013567ffffffffffffffff8111156133f257600080fd5b6133fe878288016130e7565b91505092959194509250565b600080600080600060a0868803121561342257600080fd5b600086013567ffffffffffffffff81111561343c57600080fd5b61344888828901613111565b955050602086013567ffffffffffffffff81111561346557600080fd5b61347188828901613111565b945050604086013567ffffffffffffffff81111561348e57600080fd5b61349a888289016130bd565b93505060606134ab8882890161313b565b92505060806134bc88828901613093565b9150509295509295909350565b6000602082840312156134db57600080fd5b60006134e98482850161313b565b91505092915050565b6000806040838503121561350557600080fd5b60006135138582860161313b565b925050602083013567ffffffffffffffff81111561353057600080fd5b61353c858286016130e7565b9150509250929050565b6000613552838361355e565b60208301905092915050565b61356781613b6c565b82525050565b61357681613b6c565b82525050565b600061358782613a70565b6135918185613a9e565b935061359c83613a60565b8060005b838110156135cd5781516135b48882613546565b97506135bf83613a91565b9250506001810190506135a0565b5085935050505092915050565b6135e381613b7e565b82525050565b6135f281613b8a565b82525050565b600061360382613a7b565b61360d8185613aaf565b935061361d818560208601613c00565b61362681613d6c565b840191505092915050565b61363a81613bdf565b82525050565b600061364b82613a86565b6136558185613ac0565b9350613665818560208601613c00565b61366e81613d6c565b840191505092915050565b600061368482613a86565b61368e8185613ad1565b935061369e818560208601613c00565b6136a781613d6c565b840191505092915050565b60006136bf602e83613ad1565b91506136ca82613d7d565b604082019050919050565b60006040830160008301516136ed600086018261355e565b50602083015184820360208601526137058282613640565b9150508091505092915050565b61371b81613bb4565b82525050565b61372a81613bbe565b82525050565b61373981613bd2565b82525050565b6000602082019050613754600083018461356d565b92915050565b600060c08201905061376f600083018961356d565b61377c602083018861356d565b613789604083018761356d565b6137966060830186613712565b81810360808301526137a881856135f8565b905081810360a08301526137bc81846135f8565b9050979650505050505050565b60006040820190506137de600083018561356d565b6137eb60208301846135e9565b9392505050565b6000606082019050613807600083018661356d565b61381460208301856135e9565b613821604083018461356d565b949350505050565b60006020820190508181036000830152613843818461357c565b905092915050565b600060208201905061386060008301846135da565b92915050565b600060a082019050818103600083015261388081886135f8565b9050818103602083015261389481876136d5565b905081810360408301526138a881866135f8565b90506138b76060830185613721565b81810360808301526138c981846135f8565b90509695505050505050565b60006020820190506138ea6000830184613631565b92915050565b6000602082019050818103600083015261390a8184613679565b905092915050565b6000602082019050818103600083015261392b816136b2565b9050919050565b60006020820190506139476000830184613712565b92915050565b60006060820190506139626000830186613712565b818103602083015261397481856135f8565b9050818103604083015261398881846135f8565b9050949350505050565b60006020820190506139a76000830184613730565b92915050565b60006139b76139c8565b90506139c38282613c65565b919050565b6000604051905090565b600067ffffffffffffffff8211156139ed576139ec613d3d565b5b602082029050602081019050919050565b600067ffffffffffffffff821115613a1957613a18613d3d565b5b613a2282613d6c565b9050602081019050919050565b600067ffffffffffffffff821115613a4a57613a49613d3d565b5b613a5382613d6c565b9050602081019050919050565b6000819050602082019050919050565b600081519050919050565b600081519050919050565b600081519050919050565b6000602082019050919050565b600082825260208201905092915050565b600082825260208201905092915050565b600082825260208201905092915050565b600082825260208201905092915050565b6000613aed82613bb4565b9150613af883613bb4565b9250827fffffffffffffffffffffffffffffffffffffffffffffffffffffffffffffffff03821115613b2d57613b2c613cdf565b5b828201905092915050565b6000613b4382613bb4565b9150613b4e83613bb4565b925082821015613b6157613b60613cdf565b5b828203905092915050565b6000613b7782613b94565b9050919050565b60008115159050919050565b6000819050919050565b600073ffffffffffffffffffffffffffffffffffffffff82169050919050565b6000819050919050565b600067ffffffffffffffff82169050919050565b600060ff82169050919050565b6000613bea82613bd2565b9050919050565b82818337600083830152505050565b60005b83811015613c1e578082015181840152602081019050613c03565b83811115613c2d576000848401525b50505050565b60006002820490506001821680613c4b57607f821691505b60208210811415613c5f57613c5e613d0e565b5b50919050565b613c6e82613d6c565b810181811067ffffffffffffffff82111715613c8d57613c8c613d3d565b5b80604052505050565b6000613ca182613bb4565b91507fffffffffffffffffffffffffffffffffffffffffffffffffffffffffffffffff821415613cd457613cd3613cdf565b5b600182019050919050565b7f4e487b7100000000000000000000000000000000000000000000000000000000600052601160045260246000fd5b7f4e487b7100000000000000000000000000000000000000000000000000000000600052602260045260246000fd5b7f4e487b7100000000000000000000000000000000000000000000000000000000600052604160045260246000fd5b6000601f19601f8301169050919050565b7f496e697469616c697a61626c653a20636f6e747261637420697320616c72656160008201527f647920696e697469616c697a6564000000000000000000000000000000000000602082015250565b613dd581613b6c565b8114613de057600080fd5b50565b613dec81613bb4565b8114613df757600080fd5b5056fea264697066735822122037534a40987bbedfffbd8d86e6cd88f395ba1bda7ce4cf6d3806b1b08b18769164736f6c63430008040033",
  "linkReferences": {},
  "deployedLinkReferences": {}
}