{
  "_format": "hh-sol-artifact-1",
  "contractName": "ERC777",
  "sourceName": "contracts/ERC777.sol",
  "abi": [
    {
      "inputs": [
        {
          "internalType": "address",
          "name": "_owner",
          "type": "address"
        }
      ],
      "stateMutability": "nonpayable",
      "type": "constructor"
    },
    {
      "anonymous": false,
      "inputs": [
        {
          "indexed": true,
          "internalType": "address",
          "name": "owner",
          "type": "address"
        },
        {
          "indexed": true,
          "internalType": "address",
          "name": "spender",
          "type": "address"
        },
        {
          "indexed": false,
          "internalType": "uint256",
          "name": "value",
          "type": "uint256"
        }
      ],
      "name": "Approval",
      "type": "event"
    },
    {
      "anonymous": false,
      "inputs": [
        {
          "indexed": true,
          "internalType": "address",
          "name": "operator",
          "type": "address"
        },
        {
          "indexed": true,
          "internalType": "address",
          "name": "tokenHolder",
          "type": "address"
        }
      ],
      "name": "AuthorizedOperator",
      "type": "event"
    },
    {
      "anonymous": false,
      "inputs": [
        {
          "indexed": true,
          "internalType": "address",
          "name": "operator",
          "type": "address"
        },
        {
          "indexed": true,
          "internalType": "address",
          "name": "from",
          "type": "address"
        },
        {
          "indexed": false,
          "internalType": "uint256",
          "name": "amount",
          "type": "uint256"
        },
        {
          "indexed": false,
          "internalType": "bytes",
          "name": "data",
          "type": "bytes"
        },
        {
          "indexed": false,
          "internalType": "bytes",
          "name": "operatorData",
          "type": "bytes"
        }
      ],
      "name": "Burned",
      "type": "event"
    },
    {
      "anonymous": false,
      "inputs": [
        {
          "indexed": true,
          "internalType": "address",
          "name": "operator",
          "type": "address"
        },
        {
          "indexed": true,
          "internalType": "address",
          "name": "to",
          "type": "address"
        },
        {
          "indexed": false,
          "internalType": "uint256",
          "name": "amount",
          "type": "uint256"
        },
        {
          "indexed": false,
          "internalType": "bytes",
          "name": "data",
          "type": "bytes"
        },
        {
          "indexed": false,
          "internalType": "bytes",
          "name": "operatorData",
          "type": "bytes"
        }
      ],
      "name": "Minted",
      "type": "event"
    },
    {
      "anonymous": false,
      "inputs": [
        {
          "indexed": true,
          "internalType": "address",
          "name": "operator",
          "type": "address"
        },
        {
          "indexed": true,
          "internalType": "address",
          "name": "tokenHolder",
          "type": "address"
        }
      ],
      "name": "RevokedOperator",
      "type": "event"
    },
    {
      "anonymous": false,
      "inputs": [
        {
          "indexed": true,
          "internalType": "address",
          "name": "operator",
          "type": "address"
        },
        {
          "indexed": true,
          "internalType": "address",
          "name": "from",
          "type": "address"
        },
        {
          "indexed": true,
          "internalType": "address",
          "name": "to",
          "type": "address"
        },
        {
          "indexed": false,
          "internalType": "uint256",
          "name": "amount",
          "type": "uint256"
        },
        {
          "indexed": false,
          "internalType": "bytes",
          "name": "data",
          "type": "bytes"
        },
        {
          "indexed": false,
          "internalType": "bytes",
          "name": "operatorData",
          "type": "bytes"
        }
      ],
      "name": "Sent",
      "type": "event"
    },
    {
      "anonymous": false,
      "inputs": [
        {
          "indexed": true,
          "internalType": "address",
          "name": "from",
          "type": "address"
        },
        {
          "indexed": true,
          "internalType": "address",
          "name": "to",
          "type": "address"
        },
        {
          "indexed": false,
          "internalType": "uint256",
          "name": "value",
          "type": "uint256"
        }
      ],
      "name": "Transfer",
      "type": "event"
    },
    {
      "inputs": [
        {
          "internalType": "address",
          "name": "_holder",
          "type": "address"
        },
        {
          "internalType": "address",
          "name": "_spender",
          "type": "address"
        }
      ],
      "name": "allowance",
      "outputs": [
        {
          "internalType": "uint256",
          "name": "",
          "type": "uint256"
        }
      ],
      "stateMutability": "view",
      "type": "function"
    },
    {
      "inputs": [
        {
          "internalType": "address",
          "name": "_spender",
          "type": "address"
        },
        {
          "internalType": "uint256",
          "name": "_value",
          "type": "uint256"
        }
      ],
      "name": "approve",
      "outputs": [
        {
          "internalType": "bool",
          "name": "",
          "type": "bool"
        }
      ],
      "stateMutability": "nonpayable",
      "type": "function"
    },
    {
      "inputs": [
        {
          "internalType": "address",
          "name": "_operator",
          "type": "address"
        }
      ],
      "name": "authorizeOperator",
      "outputs": [],
      "stateMutability": "nonpayable",
      "type": "function"
    },
    {
      "inputs": [
        {
          "internalType": "address",
          "name": "tokenHolder",
          "type": "address"
        }
      ],
      "name": "balanceOf",
      "outputs": [
        {
          "internalType": "uint256",
          "name": "",
          "type": "uint256"
        }
      ],
      "stateMutability": "view",
      "type": "function"
    },
    {
      "inputs": [
        {
          "internalType": "uint256",
          "name": "_amount",
          "type": "uint256"
        },
        {
          "internalType": "bytes",
          "name": "_data",
          "type": "bytes"
        }
      ],
      "name": "burn",
      "outputs": [],
      "stateMutability": "nonpayable",
      "type": "function"
    },
    {
      "inputs": [],
      "name": "contractOwner",
      "outputs": [
        {
          "internalType": "address",
          "name": "",
          "type": "address"
        }
      ],
      "stateMutability": "view",
      "type": "function"
    },
    {
      "inputs": [],
      "name": "decimals",
      "outputs": [
        {
          "internalType": "uint8",
          "name": "",
          "type": "uint8"
        }
      ],
      "stateMutability": "pure",
      "type": "function"
    },
    {
      "inputs": [],
      "name": "defaultOperators",
      "outputs": [
        {
          "internalType": "address[]",
          "name": "",
          "type": "address[]"
        }
      ],
      "stateMutability": "view",
      "type": "function"
    },
    {
      "inputs": [],
      "name": "granularity",
      "outputs": [
        {
          "internalType": "uint256",
          "name": "",
          "type": "uint256"
        }
      ],
      "stateMutability": "view",
      "type": "function"
    },
    {
      "inputs": [
        {
          "internalType": "string",
          "name": "name_",
          "type": "string"
        },
        {
          "internalType": "string",
          "name": "symbol_",
          "type": "string"
        },
        {
          "internalType": "address[]",
          "name": "defaultOperators_",
          "type": "address[]"
        },
        {
          "internalType": "uint256",
          "name": "initialSupply_",
          "type": "uint256"
        },
        {
          "internalType": "address",
          "name": "tenant_",
          "type": "address"
        }
      ],
      "name": "init",
      "outputs": [],
      "stateMutability": "nonpayable",
      "type": "function"
    },
    {
      "inputs": [
        {
          "internalType": "address",
          "name": "operator",
          "type": "address"
        },
        {
          "internalType": "address",
          "name": "tokenHolder",
          "type": "address"
        }
      ],
      "name": "isOperatorFor",
      "outputs": [
        {
          "internalType": "bool",
          "name": "",
          "type": "bool"
        }
      ],
      "stateMutability": "view",
      "type": "function"
    },
    {
      "inputs": [],
      "name": "metadata",
      "outputs": [
        {
          "internalType": "bytes",
          "name": "title",
          "type": "bytes"
        },
        {
          "components": [
            {
              "internalType": "address",
              "name": "authorAddress",
              "type": "address"
            },
            {
              "internalType": "string",
              "name": "externalLink",
              "type": "string"
            }
          ],
          "internalType": "struct IHyperverseModule.Author",
          "name": "author",
          "type": "tuple"
        },
        {
          "internalType": "bytes",
          "name": "version",
          "type": "bytes"
        },
        {
          "internalType": "uint64",
          "name": "publishedAt",
          "type": "uint64"
        },
        {
          "internalType": "bytes",
          "name": "externalLink",
          "type": "bytes"
        }
      ],
      "stateMutability": "view",
      "type": "function"
    },
    {
      "inputs": [
        {
          "internalType": "uint256",
          "name": "_amount",
          "type": "uint256"
        }
      ],
      "name": "mint",
      "outputs": [],
      "stateMutability": "nonpayable",
      "type": "function"
    },
    {
      "inputs": [],
      "name": "name",
      "outputs": [
        {
          "internalType": "string",
          "name": "",
          "type": "string"
        }
      ],
      "stateMutability": "view",
      "type": "function"
    },
    {
      "inputs": [
        {
          "internalType": "address",
          "name": "account",
          "type": "address"
        },
        {
          "internalType": "uint256",
          "name": "amount",
          "type": "uint256"
        },
        {
          "internalType": "bytes",
          "name": "data",
          "type": "bytes"
        },
        {
          "internalType": "bytes",
          "name": "operatorData",
          "type": "bytes"
        }
      ],
      "name": "operatorBurn",
      "outputs": [],
      "stateMutability": "nonpayable",
      "type": "function"
    },
    {
      "inputs": [
        {
          "internalType": "address",
          "name": "account",
          "type": "address"
        },
        {
          "internalType": "uint256",
          "name": "amount",
          "type": "uint256"
        },
        {
          "internalType": "bytes",
          "name": "data",
          "type": "bytes"
        },
        {
          "internalType": "bytes",
          "name": "operatorData",
          "type": "bytes"
        }
      ],
      "name": "operatorMint",
      "outputs": [],
      "stateMutability": "nonpayable",
      "type": "function"
    },
    {
      "inputs": [
        {
          "internalType": "address",
          "name": "sender",
          "type": "address"
        },
        {
          "internalType": "address",
          "name": "recipient",
          "type": "address"
        },
        {
          "internalType": "uint256",
          "name": "amount",
          "type": "uint256"
        },
        {
          "internalType": "bytes",
          "name": "data",
          "type": "bytes"
        },
        {
          "internalType": "bytes",
          "name": "operatorData",
          "type": "bytes"
        }
      ],
      "name": "operatorSend",
      "outputs": [],
      "stateMutability": "nonpayable",
      "type": "function"
    },
    {
      "inputs": [
        {
          "internalType": "address",
          "name": "_operator",
          "type": "address"
        }
      ],
      "name": "revokeOperator",
      "outputs": [],
      "stateMutability": "nonpayable",
      "type": "function"
    },
    {
      "inputs": [
        {
          "internalType": "address",
          "name": "_recipient",
          "type": "address"
        },
        {
          "internalType": "uint256",
          "name": "_amount",
          "type": "uint256"
        },
        {
          "internalType": "bytes",
          "name": "_data",
          "type": "bytes"
        }
      ],
      "name": "send",
      "outputs": [],
      "stateMutability": "nonpayable",
      "type": "function"
    },
    {
      "inputs": [],
      "name": "symbol",
      "outputs": [
        {
          "internalType": "string",
          "name": "",
          "type": "string"
        }
      ],
      "stateMutability": "view",
      "type": "function"
    },
    {
      "inputs": [],
      "name": "totalSupply",
      "outputs": [
        {
          "internalType": "uint256",
          "name": "",
          "type": "uint256"
        }
      ],
      "stateMutability": "view",
      "type": "function"
    },
    {
      "inputs": [
        {
          "internalType": "address",
          "name": "_recipient",
          "type": "address"
        },
        {
          "internalType": "uint256",
          "name": "_amount",
          "type": "uint256"
        }
      ],
      "name": "transfer",
      "outputs": [
        {
          "internalType": "bool",
          "name": "",
          "type": "bool"
        }
      ],
      "stateMutability": "nonpayable",
      "type": "function"
    },
    {
      "inputs": [
        {
          "internalType": "address",
          "name": "_holder",
          "type": "address"
        },
        {
          "internalType": "address",
          "name": "_recipient",
          "type": "address"
        },
        {
          "internalType": "uint256",
          "name": "_amount",
          "type": "uint256"
        }
      ],
      "name": "transferFrom",
      "outputs": [
        {
          "internalType": "bool",
          "name": "",
          "type": "bool"
        }
      ],
      "stateMutability": "nonpayable",
      "type": "function"
    }
  ],
  "bytecode": "0x60a06040523480156200001157600080fd5b5060405162004d2138038062004d21833981810160405281019062000037919062000551565b6040518060a001604052806040518060400160405280600581526020017f546f6b656e000000000000000000000000000000000000000000000000000000815250815260200160405180604001604052808473ffffffffffffffffffffffffffffffffffffffff1681526020016040518060400160405280601881526020017f68747470733a2f2f65787465726e616c6c696e6b2e6e6574000000000000000081525081525081526020016040518060400160405280600581526020017f302e302e31000000000000000000000000000000000000000000000000000000815250815260200165032a361e860667ffffffffffffffff1681526020016040518060400160405280601881526020017f68747470733a2f2f65787465726e616c4c696e6b2e6e657400000000000000008152508152506000808201518160000190805190602001906200018b929190620003f9565b5060208201518160010160008201518160000160006101000a81548173ffffffffffffffffffffffffffffffffffffffff021916908373ffffffffffffffffffffffffffffffffffffffff1602179055506020820151816001019080519060200190620001fa9291906200048a565b50505060408201518160030190805190602001906200021b929190620003f9565b5060608201518160040160006101000a81548167ffffffffffffffff021916908367ffffffffffffffff160217905550608082015181600501908051906020019062000269929190620003f9565b509050508073ffffffffffffffffffffffffffffffffffffffff1660808173ffffffffffffffffffffffffffffffffffffffff1660601b81525050731820a4b7618bde71dce8cdc73aab6c95905fad2473ffffffffffffffffffffffffffffffffffffffff166329965a1d307fac7fbab5f54a3ca8194167523c6753bfeb96a445279294b6125b68cce2177054306040518463ffffffff1660e01b815260040162000317939291906200059f565b600060405180830381600087803b1580156200033257600080fd5b505af115801562000347573d6000803e3d6000fd5b50505050731820a4b7618bde71dce8cdc73aab6c95905fad2473ffffffffffffffffffffffffffffffffffffffff166329965a1d307faea199e31a596269b42cdafd93407f14436db6e4cad65417994c2eb37381e05a306040518463ffffffff1660e01b8152600401620003be939291906200059f565b600060405180830381600087803b158015620003d957600080fd5b505af1158015620003ee573d6000803e3d6000fd5b505050505062000699565b82805462000407906200061a565b90600052602060002090601f0160209004810192826200042b576000855562000477565b82601f106200044657805160ff191683800117855562000477565b8280016001018555821562000477579182015b828111156200047657825182559160200191906001019062000459565b5b5090506200048691906200051b565b5090565b82805462000498906200061a565b90600052602060002090601f016020900481019282620004bc576000855562000508565b82601f10620004d757805160ff191683800117855562000508565b8280016001018555821562000508579182015b8281111562000507578251825591602001919060010190620004ea565b5b5090506200051791906200051b565b5090565b5b80821115620005365760008160009055506001016200051c565b5090565b6000815190506200054b816200067f565b92915050565b6000602082840312156200056457600080fd5b600062000574848285016200053a565b91505092915050565b6200058881620005dc565b82525050565b6200059981620005f0565b82525050565b6000606082019050620005b660008301866200057d565b620005c560208301856200058e565b620005d460408301846200057d565b949350505050565b6000620005e982620005fa565b9050919050565b6000819050919050565b600073ffffffffffffffffffffffffffffffffffffffff82169050919050565b600060028204905060018216806200063357607f821691505b602082108114156200064a576200064962000650565b5b50919050565b7f4e487b7100000000000000000000000000000000000000000000000000000000600052602260045260246000fd5b6200068a81620005dc565b81146200069657600080fd5b50565b60805160601c614669620006b860003960006118ab01526146696000f3fe608060405234801561001057600080fd5b506004361061014d5760003560e01c806395d89b41116100c3578063ce606ee01161007c578063ce606ee014610390578063d95b6371146103ae578063dd62ed3e146103de578063fad8b32a1461040e578063fc673c4f1461042a578063fe9d9303146104465761014d565b806395d89b41146102d2578063999de9cc146102f05780639bd9bbc61461030c578063a0712d6814610328578063a4c212e714610344578063a9059cbb146103605761014d565b8063313ce56711610115578063313ce5671461020c578063392f37e91461022a578063556f0dc71461024c57806362ad1b831461026a57806370a0823114610286578063959b8c3f146102b65761014d565b806306e485381461015257806306fdde0314610170578063095ea7b31461018e57806318160ddd146101be57806323b872dd146101dc575b600080fd5b61015a610462565b604051610167919061380c565b60405180910390f35b6101786104f0565b60405161018591906138b8565b60405180910390f35b6101a860048036038101906101a39190612fe7565b61057e565b6040516101b5919061382e565b60405180910390f35b6101c66105ed565b6040516101d39190613b9a565b60405180910390f35b6101f660048036038101906101f19190612ef1565b6105f3565b604051610203919061382e565b60405180910390f35b61021461095e565b6040516102219190613bfa565b60405180910390f35b610232610967565b604051610243959493929190613849565b60405180910390f35b610254610c29565b6040516102619190613b9a565b60405180910390f35b610284600480360381019061027f9190612f40565b610c32565b005b6102a0600480360381019061029b9190612e63565b610c98565b6040516102ad9190613b9a565b60405180910390f35b6102d060048036038101906102cb9190612e63565b610ce1565b005b6102da610fd2565b6040516102e791906138b8565b60405180910390f35b61030a6004803603810190610305919061308a565b611060565b005b61032660048036038101906103219190613023565b6110c2565b005b610342600480360381019061033d91906131dc565b61121c565b005b61035e6004803603810190610359919061311d565b6112d9565b005b61037a60048036038101906103759190612fe7565b6116da565b604051610387919061382e565b60405180910390f35b6103986118a9565b6040516103a59190613722565b60405180910390f35b6103c860048036038101906103c39190612eb5565b6118cd565b6040516103d5919061382e565b60405180910390f35b6103f860048036038101906103f39190612eb5565b611a7e565b6040516104059190613b9a565b60405180910390f35b61042860048036038101906104239190612e63565b611b05565b005b610444600480360381019061043f919061308a565b611df6565b005b610460600480360381019061045b9190613205565b611e58565b005b6060600c8054806020026020016040519081016040528092919081815260200182805480156104e657602002820191906000526020600020905b8160009054906101000a900473ffffffffffffffffffffffffffffffffffffffff1673ffffffffffffffffffffffffffffffffffffffff168152602001906001019080831161049c575b5050505050905090565b600a80546104fd90613e89565b80601f016020809104026020016040519081016040528092919081815260200182805461052990613e89565b80156105765780601f1061054b57610100808354040283529160200191610576565b820191906000526020600020905b81548152906001019060200180831161055957829003601f168201915b505050505081565b60008161058a33610c98565b10156105cb576040517f08c379a00000000000000000000000000000000000000000000000000000000081526004016105c290613aba565b60405180910390fd5b60006105d5611ec9565b90506105e2818585611ed1565b600191505092915050565b60095481565b6000828285600073ffffffffffffffffffffffffffffffffffffffff168373ffffffffffffffffffffffffffffffffffffffff161415610668576040517f08c379a000000000000000000000000000000000000000000000000000000000815260040161065f9061393a565b60405180910390fd5b61067181610c98565b8211156106b3576040517f08c379a00000000000000000000000000000000000000000000000000000000081526004016106aa906139da565b60405180910390fd5b600073ffffffffffffffffffffffffffffffffffffffff168773ffffffffffffffffffffffffffffffffffffffff161415610723576040517f08c379a000000000000000000000000000000000000000000000000000000000815260040161071a90613ada565b60405180910390fd5b601060008873ffffffffffffffffffffffffffffffffffffffff1673ffffffffffffffffffffffffffffffffffffffff16815260200190815260200160002060003373ffffffffffffffffffffffffffffffffffffffff1673ffffffffffffffffffffffffffffffffffffffff168152602001908152602001600020548511156107e2576040517f08c379a00000000000000000000000000000000000000000000000000000000081526004016107d990613a3a565b60405180910390fd5b60006107ec611ec9565b905061081a81898989604051806020016040528060008152506040518060200160405280600081525061209c565b610846818989896040518060200160405280600081525060405180602001604052806000815250612212565b6000601060008a73ffffffffffffffffffffffffffffffffffffffff1673ffffffffffffffffffffffffffffffffffffffff16815260200190815260200160002060008373ffffffffffffffffffffffffffffffffffffffff1673ffffffffffffffffffffffffffffffffffffffff1681526020019081526020016000205490508681101561090a576040517f08c379a000000000000000000000000000000000000000000000000000000000815260040161090190613b1a565b60405180910390fd5b6109208983898461091b9190613da0565b611ed1565b61094e828a8a8a6040518060200160405280600081525060405180602001604052806000815250600061242f565b6001955050505050509392505050565b60006012905090565b600080600001805461097890613e89565b80601f01602080910402602001604051908101604052809291908181526020018280546109a490613e89565b80156109f15780601f106109c6576101008083540402835291602001916109f1565b820191906000526020600020905b8154815290600101906020018083116109d457829003601f168201915b505050505090806001016040518060400160405290816000820160009054906101000a900473ffffffffffffffffffffffffffffffffffffffff1673ffffffffffffffffffffffffffffffffffffffff1673ffffffffffffffffffffffffffffffffffffffff168152602001600182018054610a6c90613e89565b80601f0160208091040260200160405190810160405280929190818152602001828054610a9890613e89565b8015610ae55780601f10610aba57610100808354040283529160200191610ae5565b820191906000526020600020905b815481529060010190602001808311610ac857829003601f168201915b50505050508152505090806003018054610afe90613e89565b80601f0160208091040260200160405190810160405280929190818152602001828054610b2a90613e89565b8015610b775780601f10610b4c57610100808354040283529160200191610b77565b820191906000526020600020905b815481529060010190602001808311610b5a57829003601f168201915b5050505050908060040160009054906101000a900467ffffffffffffffff1690806005018054610ba690613e89565b80601f0160208091040260200160405190810160405280929190818152602001828054610bd290613e89565b8015610c1f5780601f10610bf457610100808354040283529160200191610c1f565b820191906000526020600020905b815481529060010190602001808311610c0257829003601f168201915b5050505050905085565b60006001905090565b610c43610c3d611ec9565b866118cd565b610c82576040517f08c379a0000000000000000000000000000000000000000000000000000000008152600401610c7990613afa565b60405180910390fd5b610c9185858585856001612610565b5050505050565b6000600860008373ffffffffffffffffffffffffffffffffffffffff1673ffffffffffffffffffffffffffffffffffffffff168152602001908152602001600020549050919050565b600760009054906101000a900473ffffffffffffffffffffffffffffffffffffffff1673ffffffffffffffffffffffffffffffffffffffff163373ffffffffffffffffffffffffffffffffffffffff1614610d71576040517f08c379a0000000000000000000000000000000000000000000000000000000008152600401610d6890613a9a565b60405180910390fd5b8073ffffffffffffffffffffffffffffffffffffffff16610d90611ec9565b73ffffffffffffffffffffffffffffffffffffffff161415610de7576040517f08c379a0000000000000000000000000000000000000000000000000000000008152600401610dde9061399a565b60405180910390fd5b600d60008273ffffffffffffffffffffffffffffffffffffffff1673ffffffffffffffffffffffffffffffffffffffff16815260200190815260200160002060009054906101000a900460ff1615610ed157600f6000610e45611ec9565b73ffffffffffffffffffffffffffffffffffffffff1673ffffffffffffffffffffffffffffffffffffffff16815260200190815260200160002060008273ffffffffffffffffffffffffffffffffffffffff1673ffffffffffffffffffffffffffffffffffffffff16815260200190815260200160002060006101000a81549060ff0219169055610f6e565b6001600e6000610edf611ec9565b73ffffffffffffffffffffffffffffffffffffffff1673ffffffffffffffffffffffffffffffffffffffff16815260200190815260200160002060008373ffffffffffffffffffffffffffffffffffffffff1673ffffffffffffffffffffffffffffffffffffffff16815260200190815260200160002060006101000a81548160ff0219169083151502179055505b610f76611ec9565b73ffffffffffffffffffffffffffffffffffffffff168173ffffffffffffffffffffffffffffffffffffffff167ff4caeb2d6ca8932a215a353d0703c326ec2d81fc68170f320eb2ab49e9df61f960405160405180910390a350565b600b8054610fdf90613e89565b80601f016020809104026020016040519081016040528092919081815260200182805461100b90613e89565b80156110585780601f1061102d57610100808354040283529160200191611058565b820191906000526020600020905b81548152906001019060200180831161103b57829003601f168201915b505050505081565b61107161106b611ec9565b856118cd565b6110b0576040517f08c379a00000000000000000000000000000000000000000000000000000000081526004016110a790613afa565b60405180910390fd5b6110bc84848484612730565b50505050565b828233600073ffffffffffffffffffffffffffffffffffffffff168373ffffffffffffffffffffffffffffffffffffffff161415611135576040517f08c379a000000000000000000000000000000000000000000000000000000000815260040161112c9061393a565b60405180910390fd5b61113e81610c98565b821115611180576040517f08c379a0000000000000000000000000000000000000000000000000000000008152600401611177906139da565b60405180910390fd5b3373ffffffffffffffffffffffffffffffffffffffff168673ffffffffffffffffffffffffffffffffffffffff1614156111ef576040517f08c379a00000000000000000000000000000000000000000000000000000000081526004016111e69061395a565b60405180910390fd5b6112146111fa611ec9565b878787604051806020016040528060008152506001612610565b505050505050565b600760009054906101000a900473ffffffffffffffffffffffffffffffffffffffff1673ffffffffffffffffffffffffffffffffffffffff163373ffffffffffffffffffffffffffffffffffffffff16146112ac576040517f08c379a00000000000000000000000000000000000000000000000000000000081526004016112a390613a9a565b60405180910390fd5b6112d633826040518060200160405280600081525060405180602001604052806000815250612730565b50565b600073ffffffffffffffffffffffffffffffffffffffff16600760009054906101000a900473ffffffffffffffffffffffffffffffffffffffff1673ffffffffffffffffffffffffffffffffffffffff161461136a576040517f08c379a0000000000000000000000000000000000000000000000000000000008152600401611361906139ba565b60405180910390fd5b84600a9080519060200190611380929190612b91565b5083600b9080519060200190611397929190612b91565b5082600c90805190602001906113ae929190612c17565b5080600760006101000a81548173ffffffffffffffffffffffffffffffffffffffff021916908373ffffffffffffffffffffffffffffffffffffffff16021790555060005b83518110156114a7576001600d600086848151811061143b577f4e487b7100000000000000000000000000000000000000000000000000000000600052603260045260246000fd5b602002602001015173ffffffffffffffffffffffffffffffffffffffff1673ffffffffffffffffffffffffffffffffffffffff16815260200190815260200160002060006101000a81548160ff021916908315150217905550808061149f90613eec565b9150506113f3565b50600c309080600181540180825580915050600190039060005260206000200160009091909190916101000a81548173ffffffffffffffffffffffffffffffffffffffff021916908373ffffffffffffffffffffffffffffffffffffffff1602179055506001600d60003073ffffffffffffffffffffffffffffffffffffffff1673ffffffffffffffffffffffffffffffffffffffff16815260200190815260200160002060006101000a81548160ff021916908315150217905550731820a4b7618bde71dce8cdc73aab6c95905fad2473ffffffffffffffffffffffffffffffffffffffff166329965a1d307fac7fbab5f54a3ca8194167523c6753bfeb96a445279294b6125b68cce2177054306040518463ffffffff1660e01b81526004016115d4939291906137d5565b600060405180830381600087803b1580156115ee57600080fd5b505af1158015611602573d6000803e3d6000fd5b50505050731820a4b7618bde71dce8cdc73aab6c95905fad2473ffffffffffffffffffffffffffffffffffffffff166329965a1d307faea199e31a596269b42cdafd93407f14436db6e4cad65417994c2eb37381e05a306040518463ffffffff1660e01b8152600401611677939291906137d5565b600060405180830381600087803b15801561169157600080fd5b505af11580156116a5573d6000803e3d6000fd5b505050506116d381836040518060200160405280600081525060405180602001604052806000815250612730565b5050505050565b6000828233600073ffffffffffffffffffffffffffffffffffffffff168373ffffffffffffffffffffffffffffffffffffffff16141561174f576040517f08c379a00000000000000000000000000000000000000000000000000000000081526004016117469061393a565b60405180910390fd5b61175881610c98565b82111561179a576040517f08c379a0000000000000000000000000000000000000000000000000000000008152600401611791906139da565b60405180910390fd5b3373ffffffffffffffffffffffffffffffffffffffff168673ffffffffffffffffffffffffffffffffffffffff161415611809576040517f08c379a0000000000000000000000000000000000000000000000000000000008152600401611800906139fa565b60405180910390fd5b6000611813611ec9565b905061184181828989604051806020016040528060008152506040518060200160405280600081525061209c565b61186d818289896040518060200160405280600081525060405180602001604052806000815250612212565b61189b818289896040518060200160405280600081525060405180602001604052806000815250600061242f565b600194505050505092915050565b7f000000000000000000000000000000000000000000000000000000000000000081565b60008173ffffffffffffffffffffffffffffffffffffffff168373ffffffffffffffffffffffffffffffffffffffff1614806119e55750600d60008473ffffffffffffffffffffffffffffffffffffffff1673ffffffffffffffffffffffffffffffffffffffff16815260200190815260200160002060009054906101000a900460ff1680156119e45750600f60008373ffffffffffffffffffffffffffffffffffffffff1673ffffffffffffffffffffffffffffffffffffffff16815260200190815260200160002060008473ffffffffffffffffffffffffffffffffffffffff1673ffffffffffffffffffffffffffffffffffffffff16815260200190815260200160002060009054906101000a900460ff16155b5b80611a765750600e60008373ffffffffffffffffffffffffffffffffffffffff1673ffffffffffffffffffffffffffffffffffffffff16815260200190815260200160002060008473ffffffffffffffffffffffffffffffffffffffff1673ffffffffffffffffffffffffffffffffffffffff16815260200190815260200160002060009054906101000a900460ff165b905092915050565b6000601060008473ffffffffffffffffffffffffffffffffffffffff1673ffffffffffffffffffffffffffffffffffffffff16815260200190815260200160002060008373ffffffffffffffffffffffffffffffffffffffff1673ffffffffffffffffffffffffffffffffffffffff16815260200190815260200160002054905092915050565b600760009054906101000a900473ffffffffffffffffffffffffffffffffffffffff1673ffffffffffffffffffffffffffffffffffffffff163373ffffffffffffffffffffffffffffffffffffffff1614611b95576040517f08c379a0000000000000000000000000000000000000000000000000000000008152600401611b8c90613a9a565b60405180910390fd5b611b9d611ec9565b73ffffffffffffffffffffffffffffffffffffffff168173ffffffffffffffffffffffffffffffffffffffff161415611c0b576040517f08c379a0000000000000000000000000000000000000000000000000000000008152600401611c0290613a1a565b60405180910390fd5b600d60008273ffffffffffffffffffffffffffffffffffffffff1673ffffffffffffffffffffffffffffffffffffffff16815260200190815260200160002060009054906101000a900460ff1615611cfe576001600f6000611c6b611ec9565b73ffffffffffffffffffffffffffffffffffffffff1673ffffffffffffffffffffffffffffffffffffffff16815260200190815260200160002060008373ffffffffffffffffffffffffffffffffffffffff1673ffffffffffffffffffffffffffffffffffffffff16815260200190815260200160002060006101000a81548160ff021916908315150217905550611d92565b600e6000611d0a611ec9565b73ffffffffffffffffffffffffffffffffffffffff1673ffffffffffffffffffffffffffffffffffffffff16815260200190815260200160002060008273ffffffffffffffffffffffffffffffffffffffff1673ffffffffffffffffffffffffffffffffffffffff16815260200190815260200160002060006101000a81549060ff02191690555b611d9a611ec9565b73ffffffffffffffffffffffffffffffffffffffff168173ffffffffffffffffffffffffffffffffffffffff167f50546e66e5f44d728365dc3908c63bc5cfeeab470722c1677e3073a6ac294aa160405160405180910390a350565b611e07611e01611ec9565b856118cd565b611e46576040517f08c379a0000000000000000000000000000000000000000000000000000000008152600401611e3d90613afa565b60405180910390fd5b611e5284848484612744565b50505050565b81611e6233610c98565b1015611ea3576040517f08c379a0000000000000000000000000000000000000000000000000000000008152600401611e9a906139da565b60405180910390fd5b611ec5611eae611ec9565b838360405180602001604052806000815250612744565b5050565b600033905090565b600073ffffffffffffffffffffffffffffffffffffffff168373ffffffffffffffffffffffffffffffffffffffff161415611f41576040517f08c379a0000000000000000000000000000000000000000000000000000000008152600401611f38906138da565b60405180910390fd5b600073ffffffffffffffffffffffffffffffffffffffff168273ffffffffffffffffffffffffffffffffffffffff161415611fb1576040517f08c379a0000000000000000000000000000000000000000000000000000000008152600401611fa890613b7a565b60405180910390fd5b80601060008573ffffffffffffffffffffffffffffffffffffffff1673ffffffffffffffffffffffffffffffffffffffff16815260200190815260200160002060008473ffffffffffffffffffffffffffffffffffffffff1673ffffffffffffffffffffffffffffffffffffffff168152602001908152602001600020819055508173ffffffffffffffffffffffffffffffffffffffff168373ffffffffffffffffffffffffffffffffffffffff167f8c5be1e5ebec7d5bd14f71427d1e84f3dd0314c0f7b2291e5b200ac8c7c3b9258360405161208f9190613b9a565b60405180910390a3505050565b6000731820a4b7618bde71dce8cdc73aab6c95905fad2473ffffffffffffffffffffffffffffffffffffffff1663aabbb8ca877f29ddb589b1fb5fc7cf394961c1adf5f8c6454761adf795e67fe149f658abe8956040518363ffffffff1660e01b815260040161210d9291906137ac565b60206040518083038186803b15801561212557600080fd5b505afa158015612139573d6000803e3d6000fd5b505050506040513d601f19601f8201168201806040525081019061215d9190612e8c565b9050600073ffffffffffffffffffffffffffffffffffffffff168173ffffffffffffffffffffffffffffffffffffffff1614612209578073ffffffffffffffffffffffffffffffffffffffff166375ab97828888888888886040518763ffffffff1660e01b81526004016121d69695949392919061373d565b600060405180830381600087803b1580156121f057600080fd5b505af1158015612204573d6000803e3d6000fd5b505050505b50505050505050565b61221e86868686612999565b6000600860008773ffffffffffffffffffffffffffffffffffffffff1673ffffffffffffffffffffffffffffffffffffffff168152602001908152602001600020549050838110156122a5576040517f08c379a000000000000000000000000000000000000000000000000000000000815260040161229c9061391a565b60405180910390fd5b838103600860008873ffffffffffffffffffffffffffffffffffffffff1673ffffffffffffffffffffffffffffffffffffffff1681526020019081526020016000208190555083600860008773ffffffffffffffffffffffffffffffffffffffff1673ffffffffffffffffffffffffffffffffffffffff168152602001908152602001600020600082825461233a9190613d4a565b925050819055508473ffffffffffffffffffffffffffffffffffffffff168673ffffffffffffffffffffffffffffffffffffffff168873ffffffffffffffffffffffffffffffffffffffff167f06b541ddaa720db2b10a4d0cdac39b8d360425fc073085fac19bc826146779878787876040516123b993929190613bb5565b60405180910390a48473ffffffffffffffffffffffffffffffffffffffff168673ffffffffffffffffffffffffffffffffffffffff167fddf252ad1be2c89b69c2b068fc378daa952ba7f163c4a11628f55a4df523b3ef8660405161241e9190613b9a565b60405180910390a350505050505050565b6000731820a4b7618bde71dce8cdc73aab6c95905fad2473ffffffffffffffffffffffffffffffffffffffff1663aabbb8ca877fb281fc8c12954d22544db45de3159a39272895b169a852b314f9cc762e44c53b6040518363ffffffff1660e01b81526004016124a09291906137ac565b60206040518083038186803b1580156124b857600080fd5b505afa1580156124cc573d6000803e3d6000fd5b505050506040513d601f19601f820116820180604052508101906124f09190612e8c565b9050600073ffffffffffffffffffffffffffffffffffffffff168173ffffffffffffffffffffffffffffffffffffffff161461259f578073ffffffffffffffffffffffffffffffffffffffff166223de298989898989896040518763ffffffff1660e01b81526004016125689695949392919061373d565b600060405180830381600087803b15801561258257600080fd5b505af1158015612596573d6000803e3d6000fd5b50505050612606565b8115612605576125c48673ffffffffffffffffffffffffffffffffffffffff1661299f565b15612604576040517f08c379a00000000000000000000000000000000000000000000000000000000081526004016125fb90613a7a565b60405180910390fd5b5b5b5050505050505050565b600073ffffffffffffffffffffffffffffffffffffffff168673ffffffffffffffffffffffffffffffffffffffff161415612680576040517f08c379a0000000000000000000000000000000000000000000000000000000008152600401612677906138fa565b60405180910390fd5b600073ffffffffffffffffffffffffffffffffffffffff168573ffffffffffffffffffffffffffffffffffffffff1614156126f0576040517f08c379a00000000000000000000000000000000000000000000000000000000081526004016126e790613b5a565b60405180910390fd5b60006126fa611ec9565b905061270a81888888888861209c565b612718818888888888612212565b6127278188888888888861242f565b50505050505050565b61273e8484848460016129b2565b50505050565b600073ffffffffffffffffffffffffffffffffffffffff168473ffffffffffffffffffffffffffffffffffffffff1614156127b4576040517f08c379a00000000000000000000000000000000000000000000000000000000081526004016127ab9061397a565b60405180910390fd5b60006127be611ec9565b90506127cf8186600087878761209c565b6127dc8186600087612999565b6000600860008773ffffffffffffffffffffffffffffffffffffffff1673ffffffffffffffffffffffffffffffffffffffff16815260200190815260200160002054905084811015612863576040517f08c379a000000000000000000000000000000000000000000000000000000000815260040161285a90613b3a565b60405180910390fd5b848103600860008873ffffffffffffffffffffffffffffffffffffffff1673ffffffffffffffffffffffffffffffffffffffff1681526020019081526020016000208190555084600960008282546128bb9190613da0565b925050819055508573ffffffffffffffffffffffffffffffffffffffff168273ffffffffffffffffffffffffffffffffffffffff167fa78a9be3a7b862d26933ad85fb11d80ef66b8f972d7cbba06621d583943a409887878760405161292393929190613bb5565b60405180910390a3600073ffffffffffffffffffffffffffffffffffffffff168673ffffffffffffffffffffffffffffffffffffffff167fddf252ad1be2c89b69c2b068fc378daa952ba7f163c4a11628f55a4df523b3ef876040516129899190613b9a565b60405180910390a3505050505050565b50505050565b600080823b905060008111915050919050565b600073ffffffffffffffffffffffffffffffffffffffff168573ffffffffffffffffffffffffffffffffffffffff161415612a22576040517f08c379a0000000000000000000000000000000000000000000000000000000008152600401612a1990613a5a565b60405180910390fd5b6000612a2c611ec9565b9050612a3b8160008888612999565b8460096000828254612a4d9190613d4a565b9250508190555084600860008873ffffffffffffffffffffffffffffffffffffffff1673ffffffffffffffffffffffffffffffffffffffff1681526020019081526020016000206000828254612aa39190613d4a565b92505081905550612aba816000888888888861242f565b8573ffffffffffffffffffffffffffffffffffffffff168173ffffffffffffffffffffffffffffffffffffffff167f2fe5be0146f74c5bce36c0b80911af6c7d86ff27e89d5cfa61fc681327954e5d878787604051612b1b93929190613bb5565b60405180910390a38573ffffffffffffffffffffffffffffffffffffffff16600073ffffffffffffffffffffffffffffffffffffffff167fddf252ad1be2c89b69c2b068fc378daa952ba7f163c4a11628f55a4df523b3ef87604051612b819190613b9a565b60405180910390a3505050505050565b828054612b9d90613e89565b90600052602060002090601f016020900481019282612bbf5760008555612c06565b82601f10612bd857805160ff1916838001178555612c06565b82800160010185558215612c06579182015b82811115612c05578251825591602001919060010190612bea565b5b509050612c139190612ca1565b5090565b828054828255906000526020600020908101928215612c90579160200282015b82811115612c8f5782518260006101000a81548173ffffffffffffffffffffffffffffffffffffffff021916908373ffffffffffffffffffffffffffffffffffffffff16021790555091602001919060010190612c37565b5b509050612c9d9190612ca1565b5090565b5b80821115612cba576000816000905550600101612ca2565b5090565b6000612cd1612ccc84613c3a565b613c15565b90508083825260208201905082856020860282011115612cf057600080fd5b60005b85811015612d205781612d068882612da6565b845260208401935060208301925050600181019050612cf3565b5050509392505050565b6000612d3d612d3884613c66565b613c15565b905082815260208101848484011115612d5557600080fd5b612d60848285613e47565b509392505050565b6000612d7b612d7684613c97565b613c15565b905082815260208101848484011115612d9357600080fd5b612d9e848285613e47565b509392505050565b600081359050612db581614605565b92915050565b600081519050612dca81614605565b92915050565b600082601f830112612de157600080fd5b8135612df1848260208601612cbe565b91505092915050565b600082601f830112612e0b57600080fd5b8135612e1b848260208601612d2a565b91505092915050565b600082601f830112612e3557600080fd5b8135612e45848260208601612d68565b91505092915050565b600081359050612e5d8161461c565b92915050565b600060208284031215612e7557600080fd5b6000612e8384828501612da6565b91505092915050565b600060208284031215612e9e57600080fd5b6000612eac84828501612dbb565b91505092915050565b60008060408385031215612ec857600080fd5b6000612ed685828601612da6565b9250506020612ee785828601612da6565b9150509250929050565b600080600060608486031215612f0657600080fd5b6000612f1486828701612da6565b9350506020612f2586828701612da6565b9250506040612f3686828701612e4e565b9150509250925092565b600080600080600060a08688031215612f5857600080fd5b6000612f6688828901612da6565b9550506020612f7788828901612da6565b9450506040612f8888828901612e4e565b935050606086013567ffffffffffffffff811115612fa557600080fd5b612fb188828901612dfa565b925050608086013567ffffffffffffffff811115612fce57600080fd5b612fda88828901612dfa565b9150509295509295909350565b60008060408385031215612ffa57600080fd5b600061300885828601612da6565b925050602061301985828601612e4e565b9150509250929050565b60008060006060848603121561303857600080fd5b600061304686828701612da6565b935050602061305786828701612e4e565b925050604084013567ffffffffffffffff81111561307457600080fd5b61308086828701612dfa565b9150509250925092565b600080600080608085870312156130a057600080fd5b60006130ae87828801612da6565b94505060206130bf87828801612e4e565b935050604085013567ffffffffffffffff8111156130dc57600080fd5b6130e887828801612dfa565b925050606085013567ffffffffffffffff81111561310557600080fd5b61311187828801612dfa565b91505092959194509250565b600080600080600060a0868803121561313557600080fd5b600086013567ffffffffffffffff81111561314f57600080fd5b61315b88828901612e24565b955050602086013567ffffffffffffffff81111561317857600080fd5b61318488828901612e24565b945050604086013567ffffffffffffffff8111156131a157600080fd5b6131ad88828901612dd0565b93505060606131be88828901612e4e565b92505060806131cf88828901612da6565b9150509295509295909350565b6000602082840312156131ee57600080fd5b60006131fc84828501612e4e565b91505092915050565b6000806040838503121561321857600080fd5b600061322685828601612e4e565b925050602083013567ffffffffffffffff81111561324357600080fd5b61324f85828601612dfa565b9150509250929050565b60006132658383613271565b60208301905092915050565b61327a81613dd4565b82525050565b61328981613dd4565b82525050565b600061329a82613cd8565b6132a48185613d06565b93506132af83613cc8565b8060005b838110156132e05781516132c78882613259565b97506132d283613cf9565b9250506001810190506132b3565b5085935050505092915050565b6132f681613de6565b82525050565b61330581613df2565b82525050565b600061331682613ce3565b6133208185613d17565b9350613330818560208601613e56565b61333981613fc2565b840191505092915050565b600061334f82613cee565b6133598185613d28565b9350613369818560208601613e56565b61337281613fc2565b840191505092915050565b600061338882613cee565b6133928185613d39565b93506133a2818560208601613e56565b6133ab81613fc2565b840191505092915050565b60006133c3602583613d39565b91506133ce82613fd3565b604082019050919050565b60006133e6602283613d39565b91506133f182614022565b604082019050919050565b6000613409602783613d39565b915061341482614071565b604082019050919050565b600061342c602b83613d39565b9150613437826140c0565b604082019050919050565b600061344f602283613d39565b915061345a8261410f565b604082019050919050565b6000613472602283613d39565b915061347d8261415e565b604082019050919050565b6000613495602483613d39565b91506134a0826141ad565b604082019050919050565b60006134b8601f83613d39565b91506134c3826141fc565b602082019050919050565b60006134db601283613d39565b91506134e682614225565b602082019050919050565b60006134fe602383613d39565b91506135098261424e565b604082019050919050565b6000613521602183613d39565b915061352c8261429d565b604082019050919050565b6000613544602783613d39565b915061354f826142ec565b604082019050919050565b6000613567602083613d39565b91506135728261433b565b602082019050919050565b600061358a604d83613d39565b915061359582614364565b606082019050919050565b60006135ad601c83613d39565b91506135b8826143d9565b602082019050919050565b60006135d0602483613d39565b91506135db82614402565b604082019050919050565b60006135f3602d83613d39565b91506135fe82614451565b604082019050919050565b6000613616602c83613d39565b9150613621826144a0565b604082019050919050565b6000613639602983613d39565b9150613644826144ef565b604082019050919050565b600061365c602383613d39565b91506136678261453e565b604082019050919050565b600061367f602083613d39565b915061368a8261458d565b602082019050919050565b60006136a2602383613d39565b91506136ad826145b6565b604082019050919050565b60006040830160008301516136d06000860182613271565b50602083015184820360208601526136e88282613344565b9150508091505092915050565b6136fe81613e1c565b82525050565b61370d81613e26565b82525050565b61371c81613e3a565b82525050565b60006020820190506137376000830184613280565b92915050565b600060c0820190506137526000830189613280565b61375f6020830188613280565b61376c6040830187613280565b61377960608301866136f5565b818103608083015261378b818561330b565b905081810360a083015261379f818461330b565b9050979650505050505050565b60006040820190506137c16000830185613280565b6137ce60208301846132fc565b9392505050565b60006060820190506137ea6000830186613280565b6137f760208301856132fc565b6138046040830184613280565b949350505050565b60006020820190508181036000830152613826818461328f565b905092915050565b600060208201905061384360008301846132ed565b92915050565b600060a0820190508181036000830152613863818861330b565b9050818103602083015261387781876136b8565b9050818103604083015261388b818661330b565b905061389a6060830185613704565b81810360808301526138ac818461330b565b90509695505050505050565b600060208201905081810360008301526138d2818461337d565b905092915050565b600060208201905081810360008301526138f3816133b6565b9050919050565b60006020820190508181036000830152613913816133d9565b9050919050565b60006020820190508181036000830152613933816133fc565b9050919050565b600060208201905081810360008301526139538161341f565b9050919050565b6000602082019050818103600083015261397381613442565b9050919050565b6000602082019050818103600083015261399381613465565b9050919050565b600060208201905081810360008301526139b381613488565b9050919050565b600060208201905081810360008301526139d3816134ab565b9050919050565b600060208201905081810360008301526139f3816134ce565b9050919050565b60006020820190508181036000830152613a13816134f1565b9050919050565b60006020820190508181036000830152613a3381613514565b9050919050565b60006020820190508181036000830152613a5381613537565b9050919050565b60006020820190508181036000830152613a738161355a565b9050919050565b60006020820190508181036000830152613a938161357d565b9050919050565b60006020820190508181036000830152613ab3816135a0565b9050919050565b60006020820190508181036000830152613ad3816135c3565b9050919050565b60006020820190508181036000830152613af3816135e6565b9050919050565b60006020820190508181036000830152613b1381613609565b9050919050565b60006020820190508181036000830152613b338161362c565b9050919050565b60006020820190508181036000830152613b538161364f565b9050919050565b60006020820190508181036000830152613b7381613672565b9050919050565b60006020820190508181036000830152613b9381613695565b9050919050565b6000602082019050613baf60008301846136f5565b92915050565b6000606082019050613bca60008301866136f5565b8181036020830152613bdc818561330b565b90508181036040830152613bf0818461330b565b9050949350505050565b6000602082019050613c0f6000830184613713565b92915050565b6000613c1f613c30565b9050613c2b8282613ebb565b919050565b6000604051905090565b600067ffffffffffffffff821115613c5557613c54613f93565b5b602082029050602081019050919050565b600067ffffffffffffffff821115613c8157613c80613f93565b5b613c8a82613fc2565b9050602081019050919050565b600067ffffffffffffffff821115613cb257613cb1613f93565b5b613cbb82613fc2565b9050602081019050919050565b6000819050602082019050919050565b600081519050919050565b600081519050919050565b600081519050919050565b6000602082019050919050565b600082825260208201905092915050565b600082825260208201905092915050565b600082825260208201905092915050565b600082825260208201905092915050565b6000613d5582613e1c565b9150613d6083613e1c565b9250827fffffffffffffffffffffffffffffffffffffffffffffffffffffffffffffffff03821115613d9557613d94613f35565b5b828201905092915050565b6000613dab82613e1c565b9150613db683613e1c565b925082821015613dc957613dc8613f35565b5b828203905092915050565b6000613ddf82613dfc565b9050919050565b60008115159050919050565b6000819050919050565b600073ffffffffffffffffffffffffffffffffffffffff82169050919050565b6000819050919050565b600067ffffffffffffffff82169050919050565b600060ff82169050919050565b82818337600083830152505050565b60005b83811015613e74578082015181840152602081019050613e59565b83811115613e83576000848401525b50505050565b60006002820490506001821680613ea157607f821691505b60208210811415613eb557613eb4613f64565b5b50919050565b613ec482613fc2565b810181811067ffffffffffffffff82111715613ee357613ee2613f93565b5b80604052505050565b6000613ef782613e1c565b91507fffffffffffffffffffffffffffffffffffffffffffffffffffffffffffffffff821415613f2a57613f29613f35565b5b600182019050919050565b7f4e487b7100000000000000000000000000000000000000000000000000000000600052601160045260246000fd5b7f4e487b7100000000000000000000000000000000000000000000000000000000600052602260045260246000fd5b7f4e487b7100000000000000000000000000000000000000000000000000000000600052604160045260246000fd5b6000601f19601f8301169050919050565b7f4552433737373a20617070726f76652066726f6d20746865207a65726f20616460008201527f6472657373000000000000000000000000000000000000000000000000000000602082015250565b7f4552433737373a2073656e642066726f6d20746865207a65726f20616464726560008201527f7373000000000000000000000000000000000000000000000000000000000000602082015250565b7f4552433737373a207472616e7366657220616d6f756e7420657863656564732060008201527f62616c616e636500000000000000000000000000000000000000000000000000602082015250565b7f5472616e7366657220746f20746865207a65726f20616464726573732069732060008201527f6e6f7420616c6c6f776564000000000000000000000000000000000000000000602082015250565b7f53656e64696e6720746f20796f757273656c66206973206e6f7420616c6c6f7760008201527f6564000000000000000000000000000000000000000000000000000000000000602082015250565b7f4552433737373a206275726e2066726f6d20746865207a65726f20616464726560008201527f7373000000000000000000000000000000000000000000000000000000000000602082015250565b7f4552433737373a20617574686f72697a696e672073656c66206173206f70657260008201527f61746f7200000000000000000000000000000000000000000000000000000000602082015250565b7f436f6e747261637420697320616c726561647920696e697469616c697a656400600082015250565b7f4e6f7420656e6f7567682062616c616e63650000000000000000000000000000600082015250565b7f5472616e7366657220746f20796f757273656c66206973206e6f7420616c6c6f60008201527f7765640000000000000000000000000000000000000000000000000000000000602082015250565b7f4552433737373a207265766f6b696e672073656c66206173206f70657261746f60008201527f7200000000000000000000000000000000000000000000000000000000000000602082015250565b7f4e6f7420656e6f75676820616c6c6f7765642062616c616e636520666f72207460008201527f72616e7366657200000000000000000000000000000000000000000000000000602082015250565b7f4552433737373a206d696e7420746f20746865207a65726f2061646472657373600082015250565b7f4552433737373a20746f6b656e20726563697069656e7420636f6e747261637460008201527f20686173206e6f20696d706c656d656e74657220666f7220455243373737546f60208201527f6b656e73526563697069656e7400000000000000000000000000000000000000604082015250565b7f596f7520617265206e6f74207468652074656e616e74206f776e657200000000600082015250565b7f596f752063616e6e6f7420617070726f7665206d6f7265207468616e2062616c60008201527f616e636500000000000000000000000000000000000000000000000000000000602082015250565b7f4552433737373a2063616e6e6f74207472616e736665722066726f6d2074686560008201527f207a65726f206164647265737300000000000000000000000000000000000000602082015250565b7f4552433737373a2063616c6c6572206973206e6f7420616e206f70657261746f60008201527f7220666f7220686f6c6465720000000000000000000000000000000000000000602082015250565b7f4552433737373a207472616e7366657220616d6f756e7420657863656564732060008201527f616c6c6f77616e63650000000000000000000000000000000000000000000000602082015250565b7f4552433737373a206275726e20616d6f756e7420657863656564732062616c6160008201527f6e63650000000000000000000000000000000000000000000000000000000000602082015250565b7f4552433737373a2073656e6420746f20746865207a65726f2061646472657373600082015250565b7f4552433737373a20617070726f766520746f20746865207a65726f206164647260008201527f6573730000000000000000000000000000000000000000000000000000000000602082015250565b61460e81613dd4565b811461461957600080fd5b50565b61462581613e1c565b811461463057600080fd5b5056fea264697066735822122044ed35d455cac8ac7c3a4269096af2459d93ceffa004e1d6a33eef1142226f3b64736f6c63430008040033",
  "linkReferences": {},
  "deployedLinkReferences": {}
}