{
  "_format": "hh-sol-artifact-1",
  "contractName": "ERC777",
  "sourceName": "contracts/ERC777.sol",
  "abi": [
    {
      "inputs": [
        {
          "internalType": "address",
          "name": "_owner",
          "type": "address"
        }
      ],
      "stateMutability": "nonpayable",
      "type": "constructor"
    },
    {
      "inputs": [],
      "name": "AlreadyInitialized",
      "type": "error"
    },
    {
      "inputs": [],
      "name": "AuthorizingSelf",
      "type": "error"
    },
    {
      "inputs": [],
      "name": "InsufficientAllowance",
      "type": "error"
    },
    {
      "inputs": [],
      "name": "InsufficientBalance",
      "type": "error"
    },
    {
      "inputs": [],
      "name": "MissingERC777TokensRecipient",
      "type": "error"
    },
    {
      "inputs": [],
      "name": "RevokingSelf",
      "type": "error"
    },
    {
      "inputs": [],
      "name": "SameAddress",
      "type": "error"
    },
    {
      "inputs": [],
      "name": "Unauthorized",
      "type": "error"
    },
    {
      "inputs": [],
      "name": "UnauthorizedOperator",
      "type": "error"
    },
    {
      "inputs": [],
      "name": "ZeroAddress",
      "type": "error"
    },
    {
      "anonymous": false,
      "inputs": [
        {
          "indexed": true,
          "internalType": "address",
          "name": "owner",
          "type": "address"
        },
        {
          "indexed": true,
          "internalType": "address",
          "name": "spender",
          "type": "address"
        },
        {
          "indexed": false,
          "internalType": "uint256",
          "name": "value",
          "type": "uint256"
        }
      ],
      "name": "Approval",
      "type": "event"
    },
    {
      "anonymous": false,
      "inputs": [
        {
          "indexed": true,
          "internalType": "address",
          "name": "operator",
          "type": "address"
        },
        {
          "indexed": true,
          "internalType": "address",
          "name": "tokenHolder",
          "type": "address"
        }
      ],
      "name": "AuthorizedOperator",
      "type": "event"
    },
    {
      "anonymous": false,
      "inputs": [
        {
          "indexed": true,
          "internalType": "address",
          "name": "operator",
          "type": "address"
        },
        {
          "indexed": true,
          "internalType": "address",
          "name": "from",
          "type": "address"
        },
        {
          "indexed": false,
          "internalType": "uint256",
          "name": "amount",
          "type": "uint256"
        },
        {
          "indexed": false,
          "internalType": "bytes",
          "name": "data",
          "type": "bytes"
        },
        {
          "indexed": false,
          "internalType": "bytes",
          "name": "operatorData",
          "type": "bytes"
        }
      ],
      "name": "Burned",
      "type": "event"
    },
    {
      "anonymous": false,
      "inputs": [
        {
          "indexed": true,
          "internalType": "address",
          "name": "operator",
          "type": "address"
        },
        {
          "indexed": true,
          "internalType": "address",
          "name": "to",
          "type": "address"
        },
        {
          "indexed": false,
          "internalType": "uint256",
          "name": "amount",
          "type": "uint256"
        },
        {
          "indexed": false,
          "internalType": "bytes",
          "name": "data",
          "type": "bytes"
        },
        {
          "indexed": false,
          "internalType": "bytes",
          "name": "operatorData",
          "type": "bytes"
        }
      ],
      "name": "Minted",
      "type": "event"
    },
    {
      "anonymous": false,
      "inputs": [
        {
          "indexed": true,
          "internalType": "address",
          "name": "operator",
          "type": "address"
        },
        {
          "indexed": true,
          "internalType": "address",
          "name": "tokenHolder",
          "type": "address"
        }
      ],
      "name": "RevokedOperator",
      "type": "event"
    },
    {
      "anonymous": false,
      "inputs": [
        {
          "indexed": true,
          "internalType": "address",
          "name": "operator",
          "type": "address"
        },
        {
          "indexed": true,
          "internalType": "address",
          "name": "from",
          "type": "address"
        },
        {
          "indexed": true,
          "internalType": "address",
          "name": "to",
          "type": "address"
        },
        {
          "indexed": false,
          "internalType": "uint256",
          "name": "amount",
          "type": "uint256"
        },
        {
          "indexed": false,
          "internalType": "bytes",
          "name": "data",
          "type": "bytes"
        },
        {
          "indexed": false,
          "internalType": "bytes",
          "name": "operatorData",
          "type": "bytes"
        }
      ],
      "name": "Sent",
      "type": "event"
    },
    {
      "anonymous": false,
      "inputs": [
        {
          "indexed": true,
          "internalType": "address",
          "name": "from",
          "type": "address"
        },
        {
          "indexed": true,
          "internalType": "address",
          "name": "to",
          "type": "address"
        },
        {
          "indexed": false,
          "internalType": "uint256",
          "name": "value",
          "type": "uint256"
        }
      ],
      "name": "Transfer",
      "type": "event"
    },
    {
      "inputs": [
        {
          "internalType": "address",
          "name": "_owner",
          "type": "address"
        },
        {
          "internalType": "address",
          "name": "_spender",
          "type": "address"
        }
      ],
      "name": "allowance",
      "outputs": [
        {
          "internalType": "uint256",
          "name": "",
          "type": "uint256"
        }
      ],
      "stateMutability": "view",
      "type": "function"
    },
    {
      "inputs": [
        {
          "internalType": "address",
          "name": "_spender",
          "type": "address"
        },
        {
          "internalType": "uint256",
          "name": "_amount",
          "type": "uint256"
        }
      ],
      "name": "approve",
      "outputs": [
        {
          "internalType": "bool",
          "name": "",
          "type": "bool"
        }
      ],
      "stateMutability": "nonpayable",
      "type": "function"
    },
    {
      "inputs": [
        {
          "internalType": "address",
          "name": "_operator",
          "type": "address"
        }
      ],
      "name": "authorizeOperator",
      "outputs": [],
      "stateMutability": "nonpayable",
      "type": "function"
    },
    {
      "inputs": [
        {
          "internalType": "address",
          "name": "tokenHolder",
          "type": "address"
        }
      ],
      "name": "balanceOf",
      "outputs": [
        {
          "internalType": "uint256",
          "name": "",
          "type": "uint256"
        }
      ],
      "stateMutability": "view",
      "type": "function"
    },
    {
      "inputs": [
        {
          "internalType": "uint256",
          "name": "_amount",
          "type": "uint256"
        },
        {
          "internalType": "bytes",
          "name": "_data",
          "type": "bytes"
        }
      ],
      "name": "burn",
      "outputs": [],
      "stateMutability": "nonpayable",
      "type": "function"
    },
    {
      "inputs": [],
      "name": "contractOwner",
      "outputs": [
        {
          "internalType": "address",
          "name": "",
          "type": "address"
        }
      ],
      "stateMutability": "view",
      "type": "function"
    },
    {
      "inputs": [],
      "name": "decimals",
      "outputs": [
        {
          "internalType": "uint8",
          "name": "",
          "type": "uint8"
        }
      ],
      "stateMutability": "pure",
      "type": "function"
    },
    {
      "inputs": [],
      "name": "defaultOperators",
      "outputs": [
        {
          "internalType": "address[]",
          "name": "",
          "type": "address[]"
        }
      ],
      "stateMutability": "view",
      "type": "function"
    },
    {
      "inputs": [],
      "name": "granularity",
      "outputs": [
        {
          "internalType": "uint256",
          "name": "",
          "type": "uint256"
        }
      ],
      "stateMutability": "view",
      "type": "function"
    },
    {
      "inputs": [
        {
          "internalType": "string",
          "name": "name_",
          "type": "string"
        },
        {
          "internalType": "string",
          "name": "symbol_",
          "type": "string"
        },
        {
          "internalType": "address[]",
          "name": "defaultOperators_",
          "type": "address[]"
        },
        {
          "internalType": "uint256",
          "name": "initialSupply_",
          "type": "uint256"
        },
        {
          "internalType": "address",
          "name": "tenant_",
          "type": "address"
        }
      ],
      "name": "init",
      "outputs": [],
      "stateMutability": "nonpayable",
      "type": "function"
    },
    {
      "inputs": [
        {
          "internalType": "address",
          "name": "_operator",
          "type": "address"
        },
        {
          "internalType": "address",
          "name": "_tokenHolder",
          "type": "address"
        }
      ],
      "name": "isOperatorFor",
      "outputs": [
        {
          "internalType": "bool",
          "name": "",
          "type": "bool"
        }
      ],
      "stateMutability": "view",
      "type": "function"
    },
    {
      "inputs": [],
      "name": "metadata",
      "outputs": [
        {
          "internalType": "bytes",
          "name": "title",
          "type": "bytes"
        },
        {
          "components": [
            {
              "internalType": "address",
              "name": "authorAddress",
              "type": "address"
            },
            {
              "internalType": "string",
              "name": "externalLink",
              "type": "string"
            }
          ],
          "internalType": "struct IHyperverseModule.Author",
          "name": "author",
          "type": "tuple"
        },
        {
          "internalType": "bytes",
          "name": "version",
          "type": "bytes"
        },
        {
          "internalType": "uint64",
          "name": "publishedAt",
          "type": "uint64"
        },
        {
          "internalType": "bytes",
          "name": "externalLink",
          "type": "bytes"
        }
      ],
      "stateMutability": "view",
      "type": "function"
    },
    {
      "inputs": [
        {
          "internalType": "uint256",
          "name": "_amount",
          "type": "uint256"
        }
      ],
      "name": "mint",
      "outputs": [],
      "stateMutability": "nonpayable",
      "type": "function"
    },
    {
      "inputs": [],
      "name": "name",
      "outputs": [
        {
          "internalType": "string",
          "name": "",
          "type": "string"
        }
      ],
      "stateMutability": "view",
      "type": "function"
    },
    {
      "inputs": [
        {
          "internalType": "address",
          "name": "_owner",
          "type": "address"
        },
        {
          "internalType": "uint256",
          "name": "_amount",
          "type": "uint256"
        },
        {
          "internalType": "bytes",
          "name": "_data",
          "type": "bytes"
        },
        {
          "internalType": "bytes",
          "name": "_operatorData",
          "type": "bytes"
        }
      ],
      "name": "operatorBurn",
      "outputs": [],
      "stateMutability": "nonpayable",
      "type": "function"
    },
    {
      "inputs": [
        {
          "internalType": "address",
          "name": "_owner",
          "type": "address"
        },
        {
          "internalType": "uint256",
          "name": "_amount",
          "type": "uint256"
        },
        {
          "internalType": "bytes",
          "name": "_data",
          "type": "bytes"
        },
        {
          "internalType": "bytes",
          "name": "_operatorData",
          "type": "bytes"
        }
      ],
      "name": "operatorMint",
      "outputs": [],
      "stateMutability": "nonpayable",
      "type": "function"
    },
    {
      "inputs": [
        {
          "internalType": "address",
          "name": "_from",
          "type": "address"
        },
        {
          "internalType": "address",
          "name": "_to",
          "type": "address"
        },
        {
          "internalType": "uint256",
          "name": "_amount",
          "type": "uint256"
        },
        {
          "internalType": "bytes",
          "name": "_data",
          "type": "bytes"
        },
        {
          "internalType": "bytes",
          "name": "_operatorData",
          "type": "bytes"
        }
      ],
      "name": "operatorSend",
      "outputs": [],
      "stateMutability": "nonpayable",
      "type": "function"
    },
    {
      "inputs": [
        {
          "internalType": "address",
          "name": "_operator",
          "type": "address"
        }
      ],
      "name": "revokeOperator",
      "outputs": [],
      "stateMutability": "nonpayable",
      "type": "function"
    },
    {
      "inputs": [
        {
          "internalType": "address",
          "name": "_to",
          "type": "address"
        },
        {
          "internalType": "uint256",
          "name": "_amount",
          "type": "uint256"
        },
        {
          "internalType": "bytes",
          "name": "_data",
          "type": "bytes"
        }
      ],
      "name": "send",
      "outputs": [],
      "stateMutability": "nonpayable",
      "type": "function"
    },
    {
      "inputs": [],
      "name": "symbol",
      "outputs": [
        {
          "internalType": "string",
          "name": "",
          "type": "string"
        }
      ],
      "stateMutability": "view",
      "type": "function"
    },
    {
      "inputs": [],
      "name": "totalSupply",
      "outputs": [
        {
          "internalType": "uint256",
          "name": "",
          "type": "uint256"
        }
      ],
      "stateMutability": "view",
      "type": "function"
    },
    {
      "inputs": [
        {
          "internalType": "address",
          "name": "_to",
          "type": "address"
        },
        {
          "internalType": "uint256",
          "name": "_amount",
          "type": "uint256"
        }
      ],
      "name": "transfer",
      "outputs": [
        {
          "internalType": "bool",
          "name": "",
          "type": "bool"
        }
      ],
      "stateMutability": "nonpayable",
      "type": "function"
    },
    {
      "inputs": [
        {
          "internalType": "address",
          "name": "_from",
          "type": "address"
        },
        {
          "internalType": "address",
          "name": "_to",
          "type": "address"
        },
        {
          "internalType": "uint256",
          "name": "_amount",
          "type": "uint256"
        }
      ],
      "name": "transferFrom",
      "outputs": [
        {
          "internalType": "bool",
          "name": "",
          "type": "bool"
        }
      ],
      "stateMutability": "nonpayable",
      "type": "function"
    }
  ],
  "bytecode": "0x60a06040523480156200001157600080fd5b506040516200430538038062004305833981810160405281019062000037919062000551565b6040518060a001604052806040518060400160405280600681526020017f4552433737370000000000000000000000000000000000000000000000000000815250815260200160405180604001604052808473ffffffffffffffffffffffffffffffffffffffff1681526020016040518060400160405280601881526020017f68747470733a2f2f65787465726e616c6c696e6b2e6e6574000000000000000081525081525081526020016040518060400160405280600581526020017f302e302e31000000000000000000000000000000000000000000000000000000815250815260200165032a361e860667ffffffffffffffff1681526020016040518060400160405280601881526020017f68747470733a2f2f65787465726e616c4c696e6b2e6e657400000000000000008152508152506000808201518160000190805190602001906200018b929190620003f9565b5060208201518160010160008201518160000160006101000a81548173ffffffffffffffffffffffffffffffffffffffff021916908373ffffffffffffffffffffffffffffffffffffffff1602179055506020820151816001019080519060200190620001fa9291906200048a565b50505060408201518160030190805190602001906200021b929190620003f9565b5060608201518160040160006101000a81548167ffffffffffffffff021916908367ffffffffffffffff160217905550608082015181600501908051906020019062000269929190620003f9565b509050508073ffffffffffffffffffffffffffffffffffffffff1660808173ffffffffffffffffffffffffffffffffffffffff1660601b81525050731820a4b7618bde71dce8cdc73aab6c95905fad2473ffffffffffffffffffffffffffffffffffffffff166329965a1d307fac7fbab5f54a3ca8194167523c6753bfeb96a445279294b6125b68cce2177054306040518463ffffffff1660e01b815260040162000317939291906200059f565b600060405180830381600087803b1580156200033257600080fd5b505af115801562000347573d6000803e3d6000fd5b50505050731820a4b7618bde71dce8cdc73aab6c95905fad2473ffffffffffffffffffffffffffffffffffffffff166329965a1d307faea199e31a596269b42cdafd93407f14436db6e4cad65417994c2eb37381e05a306040518463ffffffff1660e01b8152600401620003be939291906200059f565b600060405180830381600087803b158015620003d957600080fd5b505af1158015620003ee573d6000803e3d6000fd5b505050505062000699565b82805462000407906200061a565b90600052602060002090601f0160209004810192826200042b576000855562000477565b82601f106200044657805160ff191683800117855562000477565b8280016001018555821562000477579182015b828111156200047657825182559160200191906001019062000459565b5b5090506200048691906200051b565b5090565b82805462000498906200061a565b90600052602060002090601f016020900481019282620004bc576000855562000508565b82601f10620004d757805160ff191683800117855562000508565b8280016001018555821562000508579182015b8281111562000507578251825591602001919060010190620004ea565b5b5090506200051791906200051b565b5090565b5b80821115620005365760008160009055506001016200051c565b5090565b6000815190506200054b816200067f565b92915050565b6000602082840312156200056457600080fd5b600062000574848285016200053a565b91505092915050565b6200058881620005dc565b82525050565b6200059981620005f0565b82525050565b6000606082019050620005b660008301866200057d565b620005c560208301856200058e565b620005d460408301846200057d565b949350505050565b6000620005e982620005fa565b9050919050565b6000819050919050565b600073ffffffffffffffffffffffffffffffffffffffff82169050919050565b600060028204905060018216806200063357607f821691505b602082108114156200064a576200064962000650565b5b50919050565b7f4e487b7100000000000000000000000000000000000000000000000000000000600052602260045260246000fd5b6200068a81620005dc565b81146200069657600080fd5b50565b60805160601c613c4d620006b860003960006119860152613c4d6000f3fe608060405234801561001057600080fd5b506004361061014d5760003560e01c806395d89b41116100c3578063ce606ee01161007c578063ce606ee014610390578063d95b6371146103ae578063dd62ed3e146103de578063fad8b32a1461040e578063fc673c4f1461042a578063fe9d9303146104465761014d565b806395d89b41146102d2578063999de9cc146102f05780639bd9bbc61461030c578063a0712d6814610328578063a4c212e714610344578063a9059cbb146103605761014d565b8063313ce56711610115578063313ce5671461020c578063392f37e91461022a578063556f0dc71461024c57806362ad1b831461026a57806370a0823114610286578063959b8c3f146102b65761014d565b806306e485381461015257806306fdde0314610170578063095ea7b31461018e57806318160ddd146101be57806323b872dd146101dc575b600080fd5b61015a610462565b604051610167919061362a565b60405180910390f35b6101786104f0565b60405161018591906136d6565b60405180910390f35b6101a860048036038101906101a391906130c1565b61057e565b6040516101b5919061364c565b60405180910390f35b6101c66106ec565b6040516101d39190613738565b60405180910390f35b6101f660048036038101906101f19190612fcb565b6106f2565b604051610203919061364c565b60405180910390f35b610214610a32565b6040516102219190613798565b60405180910390f35b610232610a3b565b604051610243959493929190613667565b60405180910390f35b610254610cfd565b6040516102619190613738565b60405180910390f35b610284600480360381019061027f919061301a565b610d06565b005b6102a0600480360381019061029b9190612f3d565b610d63565b6040516102ad9190613738565b60405180910390f35b6102d060048036038101906102cb9190612f3d565b610dac565b005b6102da61108b565b6040516102e791906136d6565b60405180910390f35b61030a60048036038101906103059190613164565b611119565b005b610326600480360381019061032191906130fd565b611172565b005b610342600480360381019061033d91906132b6565b6112e6565b005b61035e600480360381019061035991906131f7565b61139a565b005b61037a600480360381019061037591906130c1565b61179b565b604051610387919061364c565b60405180910390f35b610398611984565b6040516103a59190613540565b60405180910390f35b6103c860048036038101906103c39190612f8f565b6119a8565b6040516103d5919061364c565b60405180910390f35b6103f860048036038101906103f39190612f8f565b611b59565b6040516104059190613738565b60405180910390f35b61042860048036038101906104239190612f3d565b611be0565b005b610444600480360381019061043f9190613164565b611ebf565b005b610460600480360381019061045b91906132df565b611f18565b005b6060600c8054806020026020016040519081016040528092919081815260200182805480156104e657602002820191906000526020600020905b8160009054906101000a900473ffffffffffffffffffffffffffffffffffffffff1673ffffffffffffffffffffffffffffffffffffffff168152602001906001019080831161049c575b5050505050905090565b600a80546104fd90613a27565b80601f016020809104026020016040519081016040528092919081815260200182805461052990613a27565b80156105765780601f1061054b57610100808354040283529160200191610576565b820191906000526020600020905b81548152906001019060200180831161055957829003601f168201915b505050505081565b600033838073ffffffffffffffffffffffffffffffffffffffff168273ffffffffffffffffffffffffffffffffffffffff1614156105e8576040517f367558c300000000000000000000000000000000000000000000000000000000815260040160405180910390fd5b600073ffffffffffffffffffffffffffffffffffffffff168173ffffffffffffffffffffffffffffffffffffffff16148061064f5750600073ffffffffffffffffffffffffffffffffffffffff168273ffffffffffffffffffffffffffffffffffffffff16145b15610686576040517fd92e233d00000000000000000000000000000000000000000000000000000000815260040160405180910390fd5b8361069033610d63565b10156106c8576040517ff4d678b800000000000000000000000000000000000000000000000000000000815260040160405180910390fd5b60006106d2611f80565b90506106df818787611f88565b6001935050505092915050565b60095481565b600083838073ffffffffffffffffffffffffffffffffffffffff168273ffffffffffffffffffffffffffffffffffffffff16141561075c576040517f367558c300000000000000000000000000000000000000000000000000000000815260040160405180910390fd5b600073ffffffffffffffffffffffffffffffffffffffff168173ffffffffffffffffffffffffffffffffffffffff1614806107c35750600073ffffffffffffffffffffffffffffffffffffffff168273ffffffffffffffffffffffffffffffffffffffff16145b156107fa576040517fd92e233d00000000000000000000000000000000000000000000000000000000815260040160405180910390fd5b83601060008873ffffffffffffffffffffffffffffffffffffffff1673ffffffffffffffffffffffffffffffffffffffff1681526020019081526020016000206000610844611f80565b73ffffffffffffffffffffffffffffffffffffffff1673ffffffffffffffffffffffffffffffffffffffff1681526020019081526020016000205410156108b7576040517f13be252b00000000000000000000000000000000000000000000000000000000815260040160405180910390fd5b60006108c1611f80565b90506108ef81888888604051806020016040528060008152506040518060200160405280600081525061217b565b61091b8188888860405180602001604052806000815250604051806020016040528060008152506122f1565b6000601060008973ffffffffffffffffffffffffffffffffffffffff1673ffffffffffffffffffffffffffffffffffffffff16815260200190815260200160002060008373ffffffffffffffffffffffffffffffffffffffff1673ffffffffffffffffffffffffffffffffffffffff168152602001908152602001600020549050858110156109df576040517f08c379a00000000000000000000000000000000000000000000000000000000081526004016109d690613718565b60405180910390fd5b6109f5888388846109f0919061393e565b611f88565b610a238289898960405180602001604052806000815250604051806020016040528060008152506000612505565b60019450505050509392505050565b60006012905090565b6000806000018054610a4c90613a27565b80601f0160208091040260200160405190810160405280929190818152602001828054610a7890613a27565b8015610ac55780601f10610a9a57610100808354040283529160200191610ac5565b820191906000526020600020905b815481529060010190602001808311610aa857829003601f168201915b505050505090806001016040518060400160405290816000820160009054906101000a900473ffffffffffffffffffffffffffffffffffffffff1673ffffffffffffffffffffffffffffffffffffffff1673ffffffffffffffffffffffffffffffffffffffff168152602001600182018054610b4090613a27565b80601f0160208091040260200160405190810160405280929190818152602001828054610b6c90613a27565b8015610bb95780601f10610b8e57610100808354040283529160200191610bb9565b820191906000526020600020905b815481529060010190602001808311610b9c57829003601f168201915b50505050508152505090806003018054610bd290613a27565b80601f0160208091040260200160405190810160405280929190818152602001828054610bfe90613a27565b8015610c4b5780601f10610c2057610100808354040283529160200191610c4b565b820191906000526020600020905b815481529060010190602001808311610c2e57829003601f168201915b5050505050908060040160009054906101000a900467ffffffffffffffff1690806005018054610c7a90613a27565b80601f0160208091040260200160405190810160405280929190818152602001828054610ca690613a27565b8015610cf35780601f10610cc857610100808354040283529160200191610cf3565b820191906000526020600020905b815481529060010190602001808311610cd657829003601f168201915b5050505050905085565b60006001905090565b610d17610d11611f80565b866119a8565b610d4d576040517f4d739bfe00000000000000000000000000000000000000000000000000000000815260040160405180910390fd5b610d5c858585858560016126dd565b5050505050565b6000600860008373ffffffffffffffffffffffffffffffffffffffff1673ffffffffffffffffffffffffffffffffffffffff168152602001908152602001600020549050919050565b600760009054906101000a900473ffffffffffffffffffffffffffffffffffffffff1673ffffffffffffffffffffffffffffffffffffffff163373ffffffffffffffffffffffffffffffffffffffff1614610e33576040517f82b4290000000000000000000000000000000000000000000000000000000000815260040160405180910390fd5b8073ffffffffffffffffffffffffffffffffffffffff16610e52611f80565b73ffffffffffffffffffffffffffffffffffffffff161415610ea0576040517f300a3ae800000000000000000000000000000000000000000000000000000000815260040160405180910390fd5b600d60008273ffffffffffffffffffffffffffffffffffffffff1673ffffffffffffffffffffffffffffffffffffffff16815260200190815260200160002060009054906101000a900460ff1615610f8a57600f6000610efe611f80565b73ffffffffffffffffffffffffffffffffffffffff1673ffffffffffffffffffffffffffffffffffffffff16815260200190815260200160002060008273ffffffffffffffffffffffffffffffffffffffff1673ffffffffffffffffffffffffffffffffffffffff16815260200190815260200160002060006101000a81549060ff0219169055611027565b6001600e6000610f98611f80565b73ffffffffffffffffffffffffffffffffffffffff1673ffffffffffffffffffffffffffffffffffffffff16815260200190815260200160002060008373ffffffffffffffffffffffffffffffffffffffff1673ffffffffffffffffffffffffffffffffffffffff16815260200190815260200160002060006101000a81548160ff0219169083151502179055505b61102f611f80565b73ffffffffffffffffffffffffffffffffffffffff168173ffffffffffffffffffffffffffffffffffffffff167ff4caeb2d6ca8932a215a353d0703c326ec2d81fc68170f320eb2ab49e9df61f960405160405180910390a350565b600b805461109890613a27565b80601f01602080910402602001604051908101604052809291908181526020018280546110c490613a27565b80156111115780601f106110e657610100808354040283529160200191611111565b820191906000526020600020905b8154815290600101906020018083116110f457829003601f168201915b505050505081565b61112a611124611f80565b856119a8565b611160576040517f4d739bfe00000000000000000000000000000000000000000000000000000000815260040160405180910390fd5b61116c84848484612825565b50505050565b33838073ffffffffffffffffffffffffffffffffffffffff168273ffffffffffffffffffffffffffffffffffffffff1614156111da576040517f367558c300000000000000000000000000000000000000000000000000000000815260040160405180910390fd5b600073ffffffffffffffffffffffffffffffffffffffff168173ffffffffffffffffffffffffffffffffffffffff1614806112415750600073ffffffffffffffffffffffffffffffffffffffff168273ffffffffffffffffffffffffffffffffffffffff16145b15611278576040517fd92e233d00000000000000000000000000000000000000000000000000000000815260040160405180910390fd5b8361128233610d63565b10156112ba576040517ff4d678b800000000000000000000000000000000000000000000000000000000815260040160405180910390fd5b6112df6112c5611f80565b8686866040518060200160405280600081525060016126dd565b5050505050565b600760009054906101000a900473ffffffffffffffffffffffffffffffffffffffff1673ffffffffffffffffffffffffffffffffffffffff163373ffffffffffffffffffffffffffffffffffffffff161461136d576040517f82b4290000000000000000000000000000000000000000000000000000000000815260040160405180910390fd5b61139733826040518060200160405280600081525060405180602001604052806000815250612825565b50565b600073ffffffffffffffffffffffffffffffffffffffff16600760009054906101000a900473ffffffffffffffffffffffffffffffffffffffff1673ffffffffffffffffffffffffffffffffffffffff161461142b576040517f08c379a0000000000000000000000000000000000000000000000000000000008152600401611422906136f8565b60405180910390fd5b84600a9080519060200190611441929190612c6b565b5083600b9080519060200190611458929190612c6b565b5082600c908051906020019061146f929190612cf1565b5060005b8351811015611527576001600d60008684815181106114bb577f4e487b7100000000000000000000000000000000000000000000000000000000600052603260045260246000fd5b602002602001015173ffffffffffffffffffffffffffffffffffffffff1673ffffffffffffffffffffffffffffffffffffffff16815260200190815260200160002060006101000a81548160ff021916908315150217905550808061151f90613a8a565b915050611473565b50600c309080600181540180825580915050600190039060005260206000200160009091909190916101000a81548173ffffffffffffffffffffffffffffffffffffffff021916908373ffffffffffffffffffffffffffffffffffffffff1602179055506001600d60003073ffffffffffffffffffffffffffffffffffffffff1673ffffffffffffffffffffffffffffffffffffffff16815260200190815260200160002060006101000a81548160ff021916908315150217905550731820a4b7618bde71dce8cdc73aab6c95905fad2473ffffffffffffffffffffffffffffffffffffffff166329965a1d307fac7fbab5f54a3ca8194167523c6753bfeb96a445279294b6125b68cce2177054306040518463ffffffff1660e01b8152600401611654939291906135f3565b600060405180830381600087803b15801561166e57600080fd5b505af1158015611682573d6000803e3d6000fd5b50505050731820a4b7618bde71dce8cdc73aab6c95905fad2473ffffffffffffffffffffffffffffffffffffffff166329965a1d307faea199e31a596269b42cdafd93407f14436db6e4cad65417994c2eb37381e05a306040518463ffffffff1660e01b81526004016116f7939291906135f3565b600060405180830381600087803b15801561171157600080fd5b505af1158015611725573d6000803e3d6000fd5b5050505061175381836040518060200160405280600081525060405180602001604052806000815250612825565b80600760006101000a81548173ffffffffffffffffffffffffffffffffffffffff021916908373ffffffffffffffffffffffffffffffffffffffff1602179055505050505050565b600033838073ffffffffffffffffffffffffffffffffffffffff168273ffffffffffffffffffffffffffffffffffffffff161415611805576040517f367558c300000000000000000000000000000000000000000000000000000000815260040160405180910390fd5b600073ffffffffffffffffffffffffffffffffffffffff168173ffffffffffffffffffffffffffffffffffffffff16148061186c5750600073ffffffffffffffffffffffffffffffffffffffff168273ffffffffffffffffffffffffffffffffffffffff16145b156118a3576040517fd92e233d00000000000000000000000000000000000000000000000000000000815260040160405180910390fd5b60006118ad611f80565b9050846118b982610d63565b10156118f1576040517ff4d678b800000000000000000000000000000000000000000000000000000000815260040160405180910390fd5b61191d81828888604051806020016040528060008152506040518060200160405280600081525061217b565b6119498182888860405180602001604052806000815250604051806020016040528060008152506122f1565b6119778182888860405180602001604052806000815250604051806020016040528060008152506000612505565b6001935050505092915050565b7f000000000000000000000000000000000000000000000000000000000000000081565b60008173ffffffffffffffffffffffffffffffffffffffff168373ffffffffffffffffffffffffffffffffffffffff161480611ac05750600d60008473ffffffffffffffffffffffffffffffffffffffff1673ffffffffffffffffffffffffffffffffffffffff16815260200190815260200160002060009054906101000a900460ff168015611abf5750600f60008373ffffffffffffffffffffffffffffffffffffffff1673ffffffffffffffffffffffffffffffffffffffff16815260200190815260200160002060008473ffffffffffffffffffffffffffffffffffffffff1673ffffffffffffffffffffffffffffffffffffffff16815260200190815260200160002060009054906101000a900460ff16155b5b80611b515750600e60008373ffffffffffffffffffffffffffffffffffffffff1673ffffffffffffffffffffffffffffffffffffffff16815260200190815260200160002060008473ffffffffffffffffffffffffffffffffffffffff1673ffffffffffffffffffffffffffffffffffffffff16815260200190815260200160002060009054906101000a900460ff165b905092915050565b6000601060008473ffffffffffffffffffffffffffffffffffffffff1673ffffffffffffffffffffffffffffffffffffffff16815260200190815260200160002060008373ffffffffffffffffffffffffffffffffffffffff1673ffffffffffffffffffffffffffffffffffffffff16815260200190815260200160002054905092915050565b600760009054906101000a900473ffffffffffffffffffffffffffffffffffffffff1673ffffffffffffffffffffffffffffffffffffffff163373ffffffffffffffffffffffffffffffffffffffff1614611c67576040517f82b4290000000000000000000000000000000000000000000000000000000000815260040160405180910390fd5b8073ffffffffffffffffffffffffffffffffffffffff16611c86611f80565b73ffffffffffffffffffffffffffffffffffffffff161415611cd4576040517f39c87ad400000000000000000000000000000000000000000000000000000000815260040160405180910390fd5b600d60008273ffffffffffffffffffffffffffffffffffffffff1673ffffffffffffffffffffffffffffffffffffffff16815260200190815260200160002060009054906101000a900460ff1615611dc7576001600f6000611d34611f80565b73ffffffffffffffffffffffffffffffffffffffff1673ffffffffffffffffffffffffffffffffffffffff16815260200190815260200160002060008373ffffffffffffffffffffffffffffffffffffffff1673ffffffffffffffffffffffffffffffffffffffff16815260200190815260200160002060006101000a81548160ff021916908315150217905550611e5b565b600e6000611dd3611f80565b73ffffffffffffffffffffffffffffffffffffffff1673ffffffffffffffffffffffffffffffffffffffff16815260200190815260200160002060008273ffffffffffffffffffffffffffffffffffffffff1673ffffffffffffffffffffffffffffffffffffffff16815260200190815260200160002060006101000a81549060ff02191690555b611e63611f80565b73ffffffffffffffffffffffffffffffffffffffff168173ffffffffffffffffffffffffffffffffffffffff167f50546e66e5f44d728365dc3908c63bc5cfeeab470722c1677e3073a6ac294aa160405160405180910390a350565b611ed0611eca611f80565b856119a8565b611f06576040517f4d739bfe00000000000000000000000000000000000000000000000000000000815260040160405180910390fd5b611f1284848484612839565b50505050565b81611f2233610d63565b1015611f5a576040517ff4d678b800000000000000000000000000000000000000000000000000000000815260040160405180910390fd5b611f7c611f65611f80565b838360405180602001604052806000815250612839565b5050565b600033905090565b82828073ffffffffffffffffffffffffffffffffffffffff168273ffffffffffffffffffffffffffffffffffffffff161415611ff0576040517f367558c300000000000000000000000000000000000000000000000000000000815260040160405180910390fd5b600073ffffffffffffffffffffffffffffffffffffffff168173ffffffffffffffffffffffffffffffffffffffff1614806120575750600073ffffffffffffffffffffffffffffffffffffffff168273ffffffffffffffffffffffffffffffffffffffff16145b1561208e576040517fd92e233d00000000000000000000000000000000000000000000000000000000815260040160405180910390fd5b82601060008773ffffffffffffffffffffffffffffffffffffffff1673ffffffffffffffffffffffffffffffffffffffff16815260200190815260200160002060008673ffffffffffffffffffffffffffffffffffffffff1673ffffffffffffffffffffffffffffffffffffffff168152602001908152602001600020819055508373ffffffffffffffffffffffffffffffffffffffff168573ffffffffffffffffffffffffffffffffffffffff167f8c5be1e5ebec7d5bd14f71427d1e84f3dd0314c0f7b2291e5b200ac8c7c3b9258560405161216c9190613738565b60405180910390a35050505050565b6000731820a4b7618bde71dce8cdc73aab6c95905fad2473ffffffffffffffffffffffffffffffffffffffff1663aabbb8ca877f29ddb589b1fb5fc7cf394961c1adf5f8c6454761adf795e67fe149f658abe8956040518363ffffffff1660e01b81526004016121ec9291906135ca565b60206040518083038186803b15801561220457600080fd5b505afa158015612218573d6000803e3d6000fd5b505050506040513d601f19601f8201168201806040525081019061223c9190612f66565b9050600073ffffffffffffffffffffffffffffffffffffffff168173ffffffffffffffffffffffffffffffffffffffff16146122e8578073ffffffffffffffffffffffffffffffffffffffff166375ab97828888888888886040518763ffffffff1660e01b81526004016122b59695949392919061355b565b600060405180830381600087803b1580156122cf57600080fd5b505af11580156122e3573d6000803e3d6000fd5b505050505b50505050505050565b6122fd86868686612a7c565b6000600860008773ffffffffffffffffffffffffffffffffffffffff1673ffffffffffffffffffffffffffffffffffffffff1681526020019081526020016000205490508381101561237b576040517ff4d678b800000000000000000000000000000000000000000000000000000000815260040160405180910390fd5b838103600860008873ffffffffffffffffffffffffffffffffffffffff1673ffffffffffffffffffffffffffffffffffffffff1681526020019081526020016000208190555083600860008773ffffffffffffffffffffffffffffffffffffffff1673ffffffffffffffffffffffffffffffffffffffff168152602001908152602001600020600082825461241091906138e8565b925050819055508473ffffffffffffffffffffffffffffffffffffffff168673ffffffffffffffffffffffffffffffffffffffff168873ffffffffffffffffffffffffffffffffffffffff167f06b541ddaa720db2b10a4d0cdac39b8d360425fc073085fac19bc8261467798787878760405161248f93929190613753565b60405180910390a48473ffffffffffffffffffffffffffffffffffffffff168673ffffffffffffffffffffffffffffffffffffffff167fddf252ad1be2c89b69c2b068fc378daa952ba7f163c4a11628f55a4df523b3ef866040516124f49190613738565b60405180910390a350505050505050565b6000731820a4b7618bde71dce8cdc73aab6c95905fad2473ffffffffffffffffffffffffffffffffffffffff1663aabbb8ca877fb281fc8c12954d22544db45de3159a39272895b169a852b314f9cc762e44c53b6040518363ffffffff1660e01b81526004016125769291906135ca565b60206040518083038186803b15801561258e57600080fd5b505afa1580156125a2573d6000803e3d6000fd5b505050506040513d601f19601f820116820180604052508101906125c69190612f66565b9050600073ffffffffffffffffffffffffffffffffffffffff168173ffffffffffffffffffffffffffffffffffffffff1614612675578073ffffffffffffffffffffffffffffffffffffffff166223de298989898989896040518763ffffffff1660e01b815260040161263e9695949392919061355b565b600060405180830381600087803b15801561265857600080fd5b505af115801561266c573d6000803e3d6000fd5b505050506126d3565b81156126d25761269a8673ffffffffffffffffffffffffffffffffffffffff16612a82565b156126d1576040517f2e3340bc00000000000000000000000000000000000000000000000000000000815260040160405180910390fd5b5b5b5050505050505050565b85858073ffffffffffffffffffffffffffffffffffffffff168273ffffffffffffffffffffffffffffffffffffffff161415612745576040517f367558c300000000000000000000000000000000000000000000000000000000815260040160405180910390fd5b600073ffffffffffffffffffffffffffffffffffffffff168173ffffffffffffffffffffffffffffffffffffffff1614806127ac5750600073ffffffffffffffffffffffffffffffffffffffff168273ffffffffffffffffffffffffffffffffffffffff16145b156127e3576040517fd92e233d00000000000000000000000000000000000000000000000000000000815260040160405180910390fd5b60006127ed611f80565b90506127fd818a8a8a8a8a61217b565b61280b818a8a8a8a8a6122f1565b61281a818a8a8a8a8a8a612505565b505050505050505050565b612833848484846001612a95565b50505050565b600073ffffffffffffffffffffffffffffffffffffffff168473ffffffffffffffffffffffffffffffffffffffff1614156128a0576040517fd92e233d00000000000000000000000000000000000000000000000000000000815260040160405180910390fd5b60006128aa611f80565b90506128bb8186600087878761217b565b6128c88186600087612a7c565b6000600860008773ffffffffffffffffffffffffffffffffffffffff1673ffffffffffffffffffffffffffffffffffffffff16815260200190815260200160002054905084811015612946576040517ff4d678b800000000000000000000000000000000000000000000000000000000815260040160405180910390fd5b848103600860008873ffffffffffffffffffffffffffffffffffffffff1673ffffffffffffffffffffffffffffffffffffffff16815260200190815260200160002081905550846009600082825461299e919061393e565b925050819055508573ffffffffffffffffffffffffffffffffffffffff168273ffffffffffffffffffffffffffffffffffffffff167fa78a9be3a7b862d26933ad85fb11d80ef66b8f972d7cbba06621d583943a4098878787604051612a0693929190613753565b60405180910390a3600073ffffffffffffffffffffffffffffffffffffffff168673ffffffffffffffffffffffffffffffffffffffff167fddf252ad1be2c89b69c2b068fc378daa952ba7f163c4a11628f55a4df523b3ef87604051612a6c9190613738565b60405180910390a3505050505050565b50505050565b600080823b905060008111915050919050565b600073ffffffffffffffffffffffffffffffffffffffff168573ffffffffffffffffffffffffffffffffffffffff161415612afc576040517fd92e233d00000000000000000000000000000000000000000000000000000000815260040160405180910390fd5b6000612b06611f80565b9050612b158160008888612a7c565b8460096000828254612b2791906138e8565b9250508190555084600860008873ffffffffffffffffffffffffffffffffffffffff1673ffffffffffffffffffffffffffffffffffffffff1681526020019081526020016000206000828254612b7d91906138e8565b92505081905550612b948160008888888888612505565b8573ffffffffffffffffffffffffffffffffffffffff168173ffffffffffffffffffffffffffffffffffffffff167f2fe5be0146f74c5bce36c0b80911af6c7d86ff27e89d5cfa61fc681327954e5d878787604051612bf593929190613753565b60405180910390a38573ffffffffffffffffffffffffffffffffffffffff16600073ffffffffffffffffffffffffffffffffffffffff167fddf252ad1be2c89b69c2b068fc378daa952ba7f163c4a11628f55a4df523b3ef87604051612c5b9190613738565b60405180910390a3505050505050565b828054612c7790613a27565b90600052602060002090601f016020900481019282612c995760008555612ce0565b82601f10612cb257805160ff1916838001178555612ce0565b82800160010185558215612ce0579182015b82811115612cdf578251825591602001919060010190612cc4565b5b509050612ced9190612d7b565b5090565b828054828255906000526020600020908101928215612d6a579160200282015b82811115612d695782518260006101000a81548173ffffffffffffffffffffffffffffffffffffffff021916908373ffffffffffffffffffffffffffffffffffffffff16021790555091602001919060010190612d11565b5b509050612d779190612d7b565b5090565b5b80821115612d94576000816000905550600101612d7c565b5090565b6000612dab612da6846137d8565b6137b3565b90508083825260208201905082856020860282011115612dca57600080fd5b60005b85811015612dfa5781612de08882612e80565b845260208401935060208301925050600181019050612dcd565b5050509392505050565b6000612e17612e1284613804565b6137b3565b905082815260208101848484011115612e2f57600080fd5b612e3a8482856139e5565b509392505050565b6000612e55612e5084613835565b6137b3565b905082815260208101848484011115612e6d57600080fd5b612e788482856139e5565b509392505050565b600081359050612e8f81613be9565b92915050565b600081519050612ea481613be9565b92915050565b600082601f830112612ebb57600080fd5b8135612ecb848260208601612d98565b91505092915050565b600082601f830112612ee557600080fd5b8135612ef5848260208601612e04565b91505092915050565b600082601f830112612f0f57600080fd5b8135612f1f848260208601612e42565b91505092915050565b600081359050612f3781613c00565b92915050565b600060208284031215612f4f57600080fd5b6000612f5d84828501612e80565b91505092915050565b600060208284031215612f7857600080fd5b6000612f8684828501612e95565b91505092915050565b60008060408385031215612fa257600080fd5b6000612fb085828601612e80565b9250506020612fc185828601612e80565b9150509250929050565b600080600060608486031215612fe057600080fd5b6000612fee86828701612e80565b9350506020612fff86828701612e80565b925050604061301086828701612f28565b9150509250925092565b600080600080600060a0868803121561303257600080fd5b600061304088828901612e80565b955050602061305188828901612e80565b945050604061306288828901612f28565b935050606086013567ffffffffffffffff81111561307f57600080fd5b61308b88828901612ed4565b925050608086013567ffffffffffffffff8111156130a857600080fd5b6130b488828901612ed4565b9150509295509295909350565b600080604083850312156130d457600080fd5b60006130e285828601612e80565b92505060206130f385828601612f28565b9150509250929050565b60008060006060848603121561311257600080fd5b600061312086828701612e80565b935050602061313186828701612f28565b925050604084013567ffffffffffffffff81111561314e57600080fd5b61315a86828701612ed4565b9150509250925092565b6000806000806080858703121561317a57600080fd5b600061318887828801612e80565b945050602061319987828801612f28565b935050604085013567ffffffffffffffff8111156131b657600080fd5b6131c287828801612ed4565b925050606085013567ffffffffffffffff8111156131df57600080fd5b6131eb87828801612ed4565b91505092959194509250565b600080600080600060a0868803121561320f57600080fd5b600086013567ffffffffffffffff81111561322957600080fd5b61323588828901612efe565b955050602086013567ffffffffffffffff81111561325257600080fd5b61325e88828901612efe565b945050604086013567ffffffffffffffff81111561327b57600080fd5b61328788828901612eaa565b935050606061329888828901612f28565b92505060806132a988828901612e80565b9150509295509295909350565b6000602082840312156132c857600080fd5b60006132d684828501612f28565b91505092915050565b600080604083850312156132f257600080fd5b600061330085828601612f28565b925050602083013567ffffffffffffffff81111561331d57600080fd5b61332985828601612ed4565b9150509250929050565b600061333f838361334b565b60208301905092915050565b61335481613972565b82525050565b61336381613972565b82525050565b600061337482613876565b61337e81856138a4565b935061338983613866565b8060005b838110156133ba5781516133a18882613333565b97506133ac83613897565b92505060018101905061338d565b5085935050505092915050565b6133d081613984565b82525050565b6133df81613990565b82525050565b60006133f082613881565b6133fa81856138b5565b935061340a8185602086016139f4565b61341381613b60565b840191505092915050565b60006134298261388c565b61343381856138c6565b93506134438185602086016139f4565b61344c81613b60565b840191505092915050565b60006134628261388c565b61346c81856138d7565b935061347c8185602086016139f4565b61348581613b60565b840191505092915050565b600061349d601f836138d7565b91506134a882613b71565b602082019050919050565b60006134c06029836138d7565b91506134cb82613b9a565b604082019050919050565b60006040830160008301516134ee600086018261334b565b5060208301518482036020860152613506828261341e565b9150508091505092915050565b61351c816139ba565b82525050565b61352b816139c4565b82525050565b61353a816139d8565b82525050565b6000602082019050613555600083018461335a565b92915050565b600060c082019050613570600083018961335a565b61357d602083018861335a565b61358a604083018761335a565b6135976060830186613513565b81810360808301526135a981856133e5565b905081810360a08301526135bd81846133e5565b9050979650505050505050565b60006040820190506135df600083018561335a565b6135ec60208301846133d6565b9392505050565b6000606082019050613608600083018661335a565b61361560208301856133d6565b613622604083018461335a565b949350505050565b600060208201905081810360008301526136448184613369565b905092915050565b600060208201905061366160008301846133c7565b92915050565b600060a082019050818103600083015261368181886133e5565b9050818103602083015261369581876134d6565b905081810360408301526136a981866133e5565b90506136b86060830185613522565b81810360808301526136ca81846133e5565b90509695505050505050565b600060208201905081810360008301526136f08184613457565b905092915050565b6000602082019050818103600083015261371181613490565b9050919050565b60006020820190508181036000830152613731816134b3565b9050919050565b600060208201905061374d6000830184613513565b92915050565b60006060820190506137686000830186613513565b818103602083015261377a81856133e5565b9050818103604083015261378e81846133e5565b9050949350505050565b60006020820190506137ad6000830184613531565b92915050565b60006137bd6137ce565b90506137c98282613a59565b919050565b6000604051905090565b600067ffffffffffffffff8211156137f3576137f2613b31565b5b602082029050602081019050919050565b600067ffffffffffffffff82111561381f5761381e613b31565b5b61382882613b60565b9050602081019050919050565b600067ffffffffffffffff8211156138505761384f613b31565b5b61385982613b60565b9050602081019050919050565b6000819050602082019050919050565b600081519050919050565b600081519050919050565b600081519050919050565b6000602082019050919050565b600082825260208201905092915050565b600082825260208201905092915050565b600082825260208201905092915050565b600082825260208201905092915050565b60006138f3826139ba565b91506138fe836139ba565b9250827fffffffffffffffffffffffffffffffffffffffffffffffffffffffffffffffff0382111561393357613932613ad3565b5b828201905092915050565b6000613949826139ba565b9150613954836139ba565b92508282101561396757613966613ad3565b5b828203905092915050565b600061397d8261399a565b9050919050565b60008115159050919050565b6000819050919050565b600073ffffffffffffffffffffffffffffffffffffffff82169050919050565b6000819050919050565b600067ffffffffffffffff82169050919050565b600060ff82169050919050565b82818337600083830152505050565b60005b83811015613a125780820151818401526020810190506139f7565b83811115613a21576000848401525b50505050565b60006002820490506001821680613a3f57607f821691505b60208210811415613a5357613a52613b02565b5b50919050565b613a6282613b60565b810181811067ffffffffffffffff82111715613a8157613a80613b31565b5b80604052505050565b6000613a95826139ba565b91507fffffffffffffffffffffffffffffffffffffffffffffffffffffffffffffffff821415613ac857613ac7613ad3565b5b600182019050919050565b7f4e487b7100000000000000000000000000000000000000000000000000000000600052601160045260246000fd5b7f4e487b7100000000000000000000000000000000000000000000000000000000600052602260045260246000fd5b7f4e487b7100000000000000000000000000000000000000000000000000000000600052604160045260246000fd5b6000601f19601f8301169050919050565b7f436f6e747261637420697320616c726561647920696e697469616c697a656400600082015250565b7f4552433737373a207472616e7366657220616d6f756e7420657863656564732060008201527f616c6c6f77616e63650000000000000000000000000000000000000000000000602082015250565b613bf281613972565b8114613bfd57600080fd5b50565b613c09816139ba565b8114613c1457600080fd5b5056fea26469706673582212205184bb55315615c95eaf28f846f784ee696c0d02d758e94b2df8fb21794322d264736f6c63430008040033",
  "linkReferences": {},
  "deployedLinkReferences": {}
}