{
  "_format": "hh-sol-artifact-1",
  "contractName": "ERC20",
  "sourceName": "contracts/ERC20.sol",
  "abi": [
    {
      "inputs": [
        {
          "internalType": "address",
          "name": "_owner",
          "type": "address"
        }
      ],
      "stateMutability": "nonpayable",
      "type": "constructor"
    },
    {
      "anonymous": false,
      "inputs": [
        {
          "indexed": true,
          "internalType": "address",
          "name": "owner",
          "type": "address"
        },
        {
          "indexed": true,
          "internalType": "address",
          "name": "spender",
          "type": "address"
        },
        {
          "indexed": false,
          "internalType": "uint256",
          "name": "value",
          "type": "uint256"
        }
      ],
      "name": "Approval",
      "type": "event"
    },
    {
      "anonymous": false,
      "inputs": [
        {
          "indexed": true,
          "internalType": "address",
          "name": "from",
          "type": "address"
        },
        {
          "indexed": true,
          "internalType": "address",
          "name": "to",
          "type": "address"
        },
        {
          "indexed": false,
          "internalType": "uint256",
          "name": "value",
          "type": "uint256"
        }
      ],
      "name": "Transfer",
      "type": "event"
    },
    {
      "inputs": [],
      "name": "UNIT_MULTIPLIER",
      "outputs": [
        {
          "internalType": "uint256",
          "name": "",
          "type": "uint256"
        }
      ],
      "stateMutability": "view",
      "type": "function"
    },
    {
      "inputs": [
        {
          "internalType": "address",
          "name": "_owner",
          "type": "address"
        },
        {
          "internalType": "address",
          "name": "_spender",
          "type": "address"
        }
      ],
      "name": "allowance",
      "outputs": [
        {
          "internalType": "uint256",
          "name": "",
          "type": "uint256"
        }
      ],
      "stateMutability": "view",
      "type": "function"
    },
    {
      "inputs": [
        {
          "internalType": "address",
          "name": "_spender",
          "type": "address"
        },
        {
          "internalType": "uint256",
          "name": "_value",
          "type": "uint256"
        }
      ],
      "name": "approve",
      "outputs": [
        {
          "internalType": "bool",
          "name": "",
          "type": "bool"
        }
      ],
      "stateMutability": "nonpayable",
      "type": "function"
    },
    {
      "inputs": [],
      "name": "balance",
      "outputs": [
        {
          "internalType": "uint256",
          "name": "",
          "type": "uint256"
        }
      ],
      "stateMutability": "view",
      "type": "function"
    },
    {
      "inputs": [
        {
          "internalType": "address",
          "name": "_owner",
          "type": "address"
        }
      ],
      "name": "balanceOf",
      "outputs": [
        {
          "internalType": "uint256",
          "name": "",
          "type": "uint256"
        }
      ],
      "stateMutability": "view",
      "type": "function"
    },
    {
      "inputs": [
        {
          "internalType": "uint256",
          "name": "_amount",
          "type": "uint256"
        }
      ],
      "name": "burn",
      "outputs": [],
      "stateMutability": "nonpayable",
      "type": "function"
    },
    {
      "inputs": [],
      "name": "contractOwner",
      "outputs": [
        {
          "internalType": "address",
          "name": "",
          "type": "address"
        }
      ],
      "stateMutability": "view",
      "type": "function"
    },
    {
      "inputs": [],
      "name": "decimals",
      "outputs": [
        {
          "internalType": "uint256",
          "name": "",
          "type": "uint256"
        }
      ],
      "stateMutability": "view",
      "type": "function"
    },
    {
      "inputs": [
        {
          "internalType": "string",
          "name": "_name",
          "type": "string"
        },
        {
          "internalType": "string",
          "name": "_symbol",
          "type": "string"
        },
        {
          "internalType": "uint256",
          "name": "_decimal",
          "type": "uint256"
        },
        {
          "internalType": "address",
          "name": "_tenant",
          "type": "address"
        }
      ],
      "name": "init",
      "outputs": [],
      "stateMutability": "nonpayable",
      "type": "function"
    },
    {
      "inputs": [],
      "name": "initialSupply",
      "outputs": [
        {
          "internalType": "uint256",
          "name": "",
          "type": "uint256"
        }
      ],
      "stateMutability": "view",
      "type": "function"
    },
    {
      "inputs": [],
      "name": "metadata",
      "outputs": [
        {
          "internalType": "bytes",
          "name": "title",
          "type": "bytes"
        },
        {
          "components": [
            {
              "internalType": "address",
              "name": "authorAddress",
              "type": "address"
            },
            {
              "internalType": "string",
              "name": "externalLink",
              "type": "string"
            }
          ],
          "internalType": "struct IHyperverseModule.Author",
          "name": "author",
          "type": "tuple"
        },
        {
          "internalType": "bytes",
          "name": "version",
          "type": "bytes"
        },
        {
          "internalType": "uint64",
          "name": "publishedAt",
          "type": "uint64"
        },
        {
          "internalType": "bytes",
          "name": "externalLink",
          "type": "bytes"
        }
      ],
      "stateMutability": "view",
      "type": "function"
    },
    {
      "inputs": [
        {
          "internalType": "uint256",
          "name": "_amount",
          "type": "uint256"
        }
      ],
      "name": "mint",
      "outputs": [],
      "stateMutability": "nonpayable",
      "type": "function"
    },
    {
      "inputs": [],
      "name": "name",
      "outputs": [
        {
          "internalType": "string",
          "name": "",
          "type": "string"
        }
      ],
      "stateMutability": "view",
      "type": "function"
    },
    {
      "inputs": [],
      "name": "symbol",
      "outputs": [
        {
          "internalType": "string",
          "name": "",
          "type": "string"
        }
      ],
      "stateMutability": "view",
      "type": "function"
    },
    {
      "inputs": [],
      "name": "total",
      "outputs": [
        {
          "internalType": "uint256",
          "name": "",
          "type": "uint256"
        }
      ],
      "stateMutability": "view",
      "type": "function"
    },
    {
      "inputs": [],
      "name": "totalSupply",
      "outputs": [
        {
          "internalType": "uint256",
          "name": "",
          "type": "uint256"
        }
      ],
      "stateMutability": "view",
      "type": "function"
    },
    {
      "inputs": [
        {
          "internalType": "address",
          "name": "_to",
          "type": "address"
        },
        {
          "internalType": "uint256",
          "name": "_value",
          "type": "uint256"
        }
      ],
      "name": "transfer",
      "outputs": [
        {
          "internalType": "bool",
          "name": "",
          "type": "bool"
        }
      ],
      "stateMutability": "nonpayable",
      "type": "function"
    },
    {
      "inputs": [
        {
          "internalType": "address",
          "name": "_from",
          "type": "address"
        },
        {
          "internalType": "address",
          "name": "_to",
          "type": "address"
        },
        {
          "internalType": "uint256",
          "name": "_value",
          "type": "uint256"
        }
      ],
      "name": "transferFrom",
      "outputs": [
        {
          "internalType": "bool",
          "name": "",
          "type": "bool"
        }
      ],
      "stateMutability": "nonpayable",
      "type": "function"
    }
  ],
  "bytecode": "0x60a06040523480156200001157600080fd5b50604051620028a0380380620028a0833981810160405281019062000037919062000403565b6040518060a001604052806040518060400160405280600581526020017f546f6b656e000000000000000000000000000000000000000000000000000000815250815260200160405180604001604052808473ffffffffffffffffffffffffffffffffffffffff1681526020016040518060400160405280601881526020017f68747470733a2f2f65787465726e616c6c696e6b2e6e6574000000000000000081525081525081526020016040518060400160405280600581526020017f302e302e31000000000000000000000000000000000000000000000000000000815250815260200165032a361e860667ffffffffffffffff1681526020016040518060400160405280601881526020017f68747470733a2f2f65787465726e616c4c696e6b2e6e657400000000000000008152508152506000808201518160000190805190602001906200018b929190620002ab565b5060208201518160010160008201518160000160006101000a81548173ffffffffffffffffffffffffffffffffffffffff021916908373ffffffffffffffffffffffffffffffffffffffff1602179055506020820151816001019080519060200190620001fa9291906200033c565b50505060408201518160030190805190602001906200021b929190620002ab565b5060608201518160040160006101000a81548167ffffffffffffffff021916908367ffffffffffffffff160217905550608082015181600501908051906020019062000269929190620002ab565b509050508073ffffffffffffffffffffffffffffffffffffffff1660808173ffffffffffffffffffffffffffffffffffffffff1660601b8152505050620004e2565b828054620002b99062000463565b90600052602060002090601f016020900481019282620002dd576000855562000329565b82601f10620002f857805160ff191683800117855562000329565b8280016001018555821562000329579182015b82811115620003285782518255916020019190600101906200030b565b5b509050620003389190620003cd565b5090565b8280546200034a9062000463565b90600052602060002090601f0160209004810192826200036e5760008555620003ba565b82601f106200038957805160ff1916838001178555620003ba565b82800160010185558215620003ba579182015b82811115620003b95782518255916020019190600101906200039c565b5b509050620003c99190620003cd565b5090565b5b80821115620003e8576000816000905550600101620003ce565b5090565b600081519050620003fd81620004c8565b92915050565b6000602082840312156200041657600080fd5b60006200042684828501620003ec565b91505092915050565b60006200043c8262000443565b9050919050565b600073ffffffffffffffffffffffffffffffffffffffff82169050919050565b600060028204905060018216806200047c57607f821691505b6020821081141562000493576200049262000499565b5b50919050565b7f4e487b7100000000000000000000000000000000000000000000000000000000600052602260045260246000fd5b620004d3816200042f565b8114620004df57600080fd5b50565b60805160601c61239f6200050160003960006114bc015261239f6000f3fe608060405234801561001057600080fd5b50600436106101165760003560e01c8063685d0a96116100a2578063a9059cbb11610071578063a9059cbb146102d5578063b69ef8a814610305578063ce606ee014610323578063dd62ed3e14610341578063fc540cd31461037157610116565b8063685d0a961461024f57806370a082311461026b57806395d89b411461029b578063a0712d68146102b957610116565b80632ddbd13a116100e95780632ddbd13a146101b7578063313ce567146101d5578063378dc3dc146101f3578063392f37e91461021157806342966c681461023357610116565b806306fdde031461011b578063095ea7b31461013957806318160ddd1461016957806323b872dd14610187575b600080fd5b61012361038f565b6040516101309190611b7e565b60405180910390f35b610153600480360381019061014e9190611796565b61041d565b6040516101609190611af4565b60405180910390f35b61017161050f565b60405161017e9190611ca0565b60405180910390f35b6101a1600480360381019061019c9190611747565b610519565b6040516101ae9190611af4565b60405180910390f35b6101bf610a1c565b6040516101cc9190611ca0565b60405180910390f35b6101dd610a22565b6040516101ea9190611ca0565b60405180910390f35b6101fb610a28565b6040516102089190611ca0565b60405180910390f35b610219610a2e565b60405161022a959493929190611b0f565b60405180910390f35b61024d60048036038101906102489190611865565b610cf0565b005b610269600480360381019061026491906117d2565b610e13565b005b610285600480360381019061028091906116e2565b610fa7565b6040516102929190611ca0565b60405180910390f35b6102a3610ff0565b6040516102b09190611b7e565b60405180910390f35b6102d360048036038101906102ce9190611865565b61107e565b005b6102ef60048036038101906102ea9190611796565b6111e6565b6040516102fc9190611af4565b60405180910390f35b61030d6114aa565b60405161031a9190611ca0565b60405180910390f35b61032b6114ba565b6040516103389190611ad9565b60405180910390f35b61035b6004803603810190610356919061170b565b6114de565b6040516103689190611ca0565b60405180910390f35b610379611565565b6040516103869190611ca0565b60405180910390f35b6008805461039c9061204d565b80601f01602080910402602001604051908101604052809291908181526020018280546103c89061204d565b80156104155780601f106103ea57610100808354040283529160200191610415565b820191906000526020600020905b8154815290600101906020018083116103f857829003601f168201915b505050505081565b600081600c60003373ffffffffffffffffffffffffffffffffffffffff1673ffffffffffffffffffffffffffffffffffffffff16815260200190815260200160002060008573ffffffffffffffffffffffffffffffffffffffff1673ffffffffffffffffffffffffffffffffffffffff168152602001908152602001600020819055508273ffffffffffffffffffffffffffffffffffffffff163373ffffffffffffffffffffffffffffffffffffffff167f8c5be1e5ebec7d5bd14f71427d1e84f3dd0314c0f7b2291e5b200ac8c7c3b925846040516104fd9190611ca0565b60405180910390a36001905092915050565b6000600d54905090565b60008073ffffffffffffffffffffffffffffffffffffffff168473ffffffffffffffffffffffffffffffffffffffff16141561058a576040517f08c379a000000000000000000000000000000000000000000000000000000000815260040161058190611bc0565b60405180910390fd5b600c60008573ffffffffffffffffffffffffffffffffffffffff1673ffffffffffffffffffffffffffffffffffffffff16815260200190815260200160002060003373ffffffffffffffffffffffffffffffffffffffff1673ffffffffffffffffffffffffffffffffffffffff16815260200190815260200160002054821115610649576040517f08c379a000000000000000000000000000000000000000000000000000000000815260040161064090611c60565b60405180910390fd5b61065284610fa7565b821115610694576040517f08c379a000000000000000000000000000000000000000000000000000000000815260040161068b90611ba0565b60405180910390fd5b600073ffffffffffffffffffffffffffffffffffffffff168373ffffffffffffffffffffffffffffffffffffffff161415610704576040517f08c379a00000000000000000000000000000000000000000000000000000000081526004016106fb90611bc0565b60405180910390fd5b8273ffffffffffffffffffffffffffffffffffffffff168473ffffffffffffffffffffffffffffffffffffffff161415610773576040517f08c379a000000000000000000000000000000000000000000000000000000000815260040161076a90611c40565b60405180910390fd5b6107c582600b60008773ffffffffffffffffffffffffffffffffffffffff1673ffffffffffffffffffffffffffffffffffffffff1681526020019081526020016000205461156b90919063ffffffff16565b600b60008673ffffffffffffffffffffffffffffffffffffffff1673ffffffffffffffffffffffffffffffffffffffff1681526020019081526020016000208190555061085a82600b60008673ffffffffffffffffffffffffffffffffffffffff1673ffffffffffffffffffffffffffffffffffffffff1681526020019081526020016000205461158190919063ffffffff16565b600b60008573ffffffffffffffffffffffffffffffffffffffff1673ffffffffffffffffffffffffffffffffffffffff1681526020019081526020016000208190555061092c82600c60008773ffffffffffffffffffffffffffffffffffffffff1673ffffffffffffffffffffffffffffffffffffffff16815260200190815260200160002060003373ffffffffffffffffffffffffffffffffffffffff1673ffffffffffffffffffffffffffffffffffffffff1681526020019081526020016000205461156b90919063ffffffff16565b600c60008673ffffffffffffffffffffffffffffffffffffffff1673ffffffffffffffffffffffffffffffffffffffff16815260200190815260200160002060003373ffffffffffffffffffffffffffffffffffffffff1673ffffffffffffffffffffffffffffffffffffffff168152602001908152602001600020819055508273ffffffffffffffffffffffffffffffffffffffff168473ffffffffffffffffffffffffffffffffffffffff167fddf252ad1be2c89b69c2b068fc378daa952ba7f163c4a11628f55a4df523b3ef84604051610a099190611ca0565b60405180910390a3600190509392505050565b600d5481565b600a5481565b600e5481565b6000806000018054610a3f9061204d565b80601f0160208091040260200160405190810160405280929190818152602001828054610a6b9061204d565b8015610ab85780601f10610a8d57610100808354040283529160200191610ab8565b820191906000526020600020905b815481529060010190602001808311610a9b57829003601f168201915b505050505090806001016040518060400160405290816000820160009054906101000a900473ffffffffffffffffffffffffffffffffffffffff1673ffffffffffffffffffffffffffffffffffffffff1673ffffffffffffffffffffffffffffffffffffffff168152602001600182018054610b339061204d565b80601f0160208091040260200160405190810160405280929190818152602001828054610b5f9061204d565b8015610bac5780601f10610b8157610100808354040283529160200191610bac565b820191906000526020600020905b815481529060010190602001808311610b8f57829003601f168201915b50505050508152505090806003018054610bc59061204d565b80601f0160208091040260200160405190810160405280929190818152602001828054610bf19061204d565b8015610c3e5780601f10610c1357610100808354040283529160200191610c3e565b820191906000526020600020905b815481529060010190602001808311610c2157829003601f168201915b5050505050908060040160009054906101000a900467ffffffffffffffff1690806005018054610c6d9061204d565b80601f0160208091040260200160405190810160405280929190818152602001828054610c999061204d565b8015610ce65780601f10610cbb57610100808354040283529160200191610ce6565b820191906000526020600020905b815481529060010190602001808311610cc957829003601f168201915b5050505050905085565b80610cfa33610fa7565b1015610d3b576040517f08c379a0000000000000000000000000000000000000000000000000000000008152600401610d3290611c00565b60405180910390fd5b80600b60003373ffffffffffffffffffffffffffffffffffffffff1673ffffffffffffffffffffffffffffffffffffffff1681526020019081526020016000206000828254610d8a9190611f7b565b9250508190555080600d6000828254610da39190611f7b565b92505081905550600073ffffffffffffffffffffffffffffffffffffffff163373ffffffffffffffffffffffffffffffffffffffff167fddf252ad1be2c89b69c2b068fc378daa952ba7f163c4a11628f55a4df523b3ef83604051610e089190611ca0565b60405180910390a350565b600073ffffffffffffffffffffffffffffffffffffffff16600760009054906101000a900473ffffffffffffffffffffffffffffffffffffffff1673ffffffffffffffffffffffffffffffffffffffff1614610ea4576040517f08c379a0000000000000000000000000000000000000000000000000000000008152600401610e9b90611be0565b60405180910390fd5b80600760006101000a81548173ffffffffffffffffffffffffffffffffffffffff021916908373ffffffffffffffffffffffffffffffffffffffff1602179055508360089080519060200190610efb9291906115ad565b508260099080519060200190610f129291906115ad565b5081600a81905550600a54600a610f299190611e03565b600f8190555060006103e89050610f4b600f548261159790919063ffffffff16565b600d81905550600d54600e81905550600d54600b60008473ffffffffffffffffffffffffffffffffffffffff1673ffffffffffffffffffffffffffffffffffffffff168152602001908152602001600020819055505050505050565b6000600b60008373ffffffffffffffffffffffffffffffffffffffff1673ffffffffffffffffffffffffffffffffffffffff168152602001908152602001600020549050919050565b60098054610ffd9061204d565b80601f01602080910402602001604051908101604052809291908181526020018280546110299061204d565b80156110765780601f1061104b57610100808354040283529160200191611076565b820191906000526020600020905b81548152906001019060200180831161105957829003601f168201915b505050505081565b600760009054906101000a900473ffffffffffffffffffffffffffffffffffffffff1673ffffffffffffffffffffffffffffffffffffffff163373ffffffffffffffffffffffffffffffffffffffff161461110e576040517f08c379a000000000000000000000000000000000000000000000000000000000815260040161110590611c80565b60405180910390fd5b80600b60003373ffffffffffffffffffffffffffffffffffffffff1673ffffffffffffffffffffffffffffffffffffffff168152602001908152602001600020600082825461115d9190611d5a565b9250508190555080600d60008282546111769190611d5a565b925050819055503373ffffffffffffffffffffffffffffffffffffffff16600073ffffffffffffffffffffffffffffffffffffffff167fddf252ad1be2c89b69c2b068fc378daa952ba7f163c4a11628f55a4df523b3ef836040516111db9190611ca0565b60405180910390a350565b60008073ffffffffffffffffffffffffffffffffffffffff168373ffffffffffffffffffffffffffffffffffffffff161415611257576040517f08c379a000000000000000000000000000000000000000000000000000000000815260040161124e90611bc0565b60405180910390fd5b3373ffffffffffffffffffffffffffffffffffffffff168373ffffffffffffffffffffffffffffffffffffffff1614156112c6576040517f08c379a00000000000000000000000000000000000000000000000000000000081526004016112bd90611c20565b60405180910390fd5b6112cf33610fa7565b821115611311576040517f08c379a000000000000000000000000000000000000000000000000000000000815260040161130890611c00565b60405180910390fd5b61136382600b60003373ffffffffffffffffffffffffffffffffffffffff1673ffffffffffffffffffffffffffffffffffffffff1681526020019081526020016000205461156b90919063ffffffff16565b600b60003373ffffffffffffffffffffffffffffffffffffffff1673ffffffffffffffffffffffffffffffffffffffff168152602001908152602001600020819055506113f882600b60008673ffffffffffffffffffffffffffffffffffffffff1673ffffffffffffffffffffffffffffffffffffffff1681526020019081526020016000205461158190919063ffffffff16565b600b60008573ffffffffffffffffffffffffffffffffffffffff1673ffffffffffffffffffffffffffffffffffffffff168152602001908152602001600020819055508273ffffffffffffffffffffffffffffffffffffffff163373ffffffffffffffffffffffffffffffffffffffff167fddf252ad1be2c89b69c2b068fc378daa952ba7f163c4a11628f55a4df523b3ef846040516114989190611ca0565b60405180910390a36001905092915050565b60006114b533610fa7565b905090565b7f000000000000000000000000000000000000000000000000000000000000000081565b6000600c60008473ffffffffffffffffffffffffffffffffffffffff1673ffffffffffffffffffffffffffffffffffffffff16815260200190815260200160002060008373ffffffffffffffffffffffffffffffffffffffff1673ffffffffffffffffffffffffffffffffffffffff16815260200190815260200160002054905092915050565b600f5481565b600081836115799190611f7b565b905092915050565b6000818361158f9190611d5a565b905092915050565b600081836115a59190611f21565b905092915050565b8280546115b99061204d565b90600052602060002090601f0160209004810192826115db5760008555611622565b82601f106115f457805160ff1916838001178555611622565b82800160010185558215611622579182015b82811115611621578251825591602001919060010190611606565b5b50905061162f9190611633565b5090565b5b8082111561164c576000816000905550600101611634565b5090565b600061166361165e84611ce0565b611cbb565b90508281526020810184848401111561167b57600080fd5b61168684828561200b565b509392505050565b60008135905061169d8161233b565b92915050565b600082601f8301126116b457600080fd5b81356116c4848260208601611650565b91505092915050565b6000813590506116dc81612352565b92915050565b6000602082840312156116f457600080fd5b60006117028482850161168e565b91505092915050565b6000806040838503121561171e57600080fd5b600061172c8582860161168e565b925050602061173d8582860161168e565b9150509250929050565b60008060006060848603121561175c57600080fd5b600061176a8682870161168e565b935050602061177b8682870161168e565b925050604061178c868287016116cd565b9150509250925092565b600080604083850312156117a957600080fd5b60006117b78582860161168e565b92505060206117c8858286016116cd565b9150509250929050565b600080600080608085870312156117e857600080fd5b600085013567ffffffffffffffff81111561180257600080fd5b61180e878288016116a3565b945050602085013567ffffffffffffffff81111561182b57600080fd5b611837878288016116a3565b9350506040611848878288016116cd565b92505060606118598782880161168e565b91505092959194509250565b60006020828403121561187757600080fd5b6000611885848285016116cd565b91505092915050565b61189781611faf565b82525050565b6118a681611faf565b82525050565b6118b581611fc1565b82525050565b60006118c682611d11565b6118d08185611d27565b93506118e081856020860161201a565b6118e98161213d565b840191505092915050565b60006118ff82611d1c565b6119098185611d38565b935061191981856020860161201a565b6119228161213d565b840191505092915050565b600061193882611d1c565b6119428185611d49565b935061195281856020860161201a565b61195b8161213d565b840191505092915050565b6000611973601f83611d49565b915061197e8261215b565b602082019050919050565b6000611996602b83611d49565b91506119a182612184565b604082019050919050565b60006119b9601f83611d49565b91506119c4826121d3565b602082019050919050565b60006119dc601283611d49565b91506119e7826121fc565b602082019050919050565b60006119ff602383611d49565b9150611a0a82612225565b604082019050919050565b6000611a22603483611d49565b9150611a2d82612274565b604082019050919050565b6000611a45602783611d49565b9150611a50826122c3565b604082019050919050565b6000611a68601c83611d49565b9150611a7382612312565b602082019050919050565b6000604083016000830151611a96600086018261188e565b5060208301518482036020860152611aae82826118f4565b9150508091505092915050565b611ac481611fed565b82525050565b611ad381611ff7565b82525050565b6000602082019050611aee600083018461189d565b92915050565b6000602082019050611b0960008301846118ac565b92915050565b600060a0820190508181036000830152611b2981886118bb565b90508181036020830152611b3d8187611a7e565b90508181036040830152611b5181866118bb565b9050611b606060830185611aca565b8181036080830152611b7281846118bb565b90509695505050505050565b60006020820190508181036000830152611b98818461192d565b905092915050565b60006020820190508181036000830152611bb981611966565b9050919050565b60006020820190508181036000830152611bd981611989565b9050919050565b60006020820190508181036000830152611bf9816119ac565b9050919050565b60006020820190508181036000830152611c19816119cf565b9050919050565b60006020820190508181036000830152611c39816119f2565b9050919050565b60006020820190508181036000830152611c5981611a15565b9050919050565b60006020820190508181036000830152611c7981611a38565b9050919050565b60006020820190508181036000830152611c9981611a5b565b9050919050565b6000602082019050611cb56000830184611abb565b92915050565b6000611cc5611cd6565b9050611cd1828261207f565b919050565b6000604051905090565b600067ffffffffffffffff821115611cfb57611cfa61210e565b5b611d048261213d565b9050602081019050919050565b600081519050919050565b600081519050919050565b600082825260208201905092915050565b600082825260208201905092915050565b600082825260208201905092915050565b6000611d6582611fed565b9150611d7083611fed565b9250827fffffffffffffffffffffffffffffffffffffffffffffffffffffffffffffffff03821115611da557611da46120b0565b5b828201905092915050565b6000808291508390505b6001851115611dfa57808604811115611dd657611dd56120b0565b5b6001851615611de55780820291505b8081029050611df38561214e565b9450611dba565b94509492505050565b6000611e0e82611fed565b9150611e1983611fed565b9250611e467fffffffffffffffffffffffffffffffffffffffffffffffffffffffffffffffff8484611e4e565b905092915050565b600082611e5e5760019050611f1a565b81611e6c5760009050611f1a565b8160018114611e825760028114611e8c57611ebb565b6001915050611f1a565b60ff841115611e9e57611e9d6120b0565b5b8360020a915084821115611eb557611eb46120b0565b5b50611f1a565b5060208310610133831016604e8410600b8410161715611ef05782820a905083811115611eeb57611eea6120b0565b5b611f1a565b611efd8484846001611db0565b92509050818404811115611f1457611f136120b0565b5b81810290505b9392505050565b6000611f2c82611fed565b9150611f3783611fed565b9250817fffffffffffffffffffffffffffffffffffffffffffffffffffffffffffffffff0483118215151615611f7057611f6f6120b0565b5b828202905092915050565b6000611f8682611fed565b9150611f9183611fed565b925082821015611fa457611fa36120b0565b5b828203905092915050565b6000611fba82611fcd565b9050919050565b60008115159050919050565b600073ffffffffffffffffffffffffffffffffffffffff82169050919050565b6000819050919050565b600067ffffffffffffffff82169050919050565b82818337600083830152505050565b60005b8381101561203857808201518184015260208101905061201d565b83811115612047576000848401525b50505050565b6000600282049050600182168061206557607f821691505b60208210811415612079576120786120df565b5b50919050565b6120888261213d565b810181811067ffffffffffffffff821117156120a7576120a661210e565b5b80604052505050565b7f4e487b7100000000000000000000000000000000000000000000000000000000600052601160045260246000fd5b7f4e487b7100000000000000000000000000000000000000000000000000000000600052602260045260246000fd5b7f4e487b7100000000000000000000000000000000000000000000000000000000600052604160045260246000fd5b6000601f19601f8301169050919050565b60008160011c9050919050565b7f4e6f7420656e6f7567682062616c616e636520666f72207472616e7366657200600082015250565b7f5472616e7366657220746f20746865207a65726f20616464726573732069732060008201527f6e6f7420616c6c6f776564000000000000000000000000000000000000000000602082015250565b7f436f6e747261637420697320616c726561647920696e697469616c697a656400600082015250565b7f4e6f7420656e6f7567682062616c616e63650000000000000000000000000000600082015250565b7f5472616e7366657220746f20796f757273656c66206973206e6f7420616c6c6f60008201527f7765640000000000000000000000000000000000000000000000000000000000602082015250565b7f5472616e736665722066726f6d20616e6420746f207468652073616d6520616460008201527f6472657373206973206e6f7420616c6c6f776564000000000000000000000000602082015250565b7f4e6f7420656e6f75676820616c6c6f7765642062616c616e636520666f72207460008201527f72616e7366657200000000000000000000000000000000000000000000000000602082015250565b7f596f7520617265206e6f74207468652074656e616e74206f776e657200000000600082015250565b61234481611faf565b811461234f57600080fd5b50565b61235b81611fed565b811461236657600080fd5b5056fea2646970667358221220d6d18cfc7b92c966064889c693b2ca6fa20899e6b3d59b0ff994186551b0662164736f6c63430008040033",
  "linkReferences": {},
  "deployedLinkReferences": {}
}