{
  "_format": "hh-sol-artifact-1",
  "contractName": "ERC20",
  "sourceName": "contracts/ERC20.sol",
  "abi": [
    {
      "inputs": [
        {
          "internalType": "address",
          "name": "_owner",
          "type": "address"
        }
      ],
      "stateMutability": "nonpayable",
      "type": "constructor"
    },
    {
      "inputs": [],
      "name": "AlreadyInitialized",
      "type": "error"
    },
    {
      "inputs": [],
      "name": "InsufficientBalance",
      "type": "error"
    },
    {
      "inputs": [],
      "name": "SameAddress",
      "type": "error"
    },
    {
      "inputs": [],
      "name": "Unauthorized",
      "type": "error"
    },
    {
      "inputs": [],
      "name": "ZeroAddress",
      "type": "error"
    },
    {
      "anonymous": false,
      "inputs": [
        {
          "indexed": true,
          "internalType": "address",
          "name": "owner",
          "type": "address"
        },
        {
          "indexed": true,
          "internalType": "address",
          "name": "spender",
          "type": "address"
        },
        {
          "indexed": false,
          "internalType": "uint256",
          "name": "value",
          "type": "uint256"
        }
      ],
      "name": "Approval",
      "type": "event"
    },
    {
      "anonymous": false,
      "inputs": [
        {
          "indexed": false,
          "internalType": "uint8",
          "name": "version",
          "type": "uint8"
        }
      ],
      "name": "Initialized",
      "type": "event"
    },
    {
      "anonymous": false,
      "inputs": [
        {
          "indexed": true,
          "internalType": "address",
          "name": "from",
          "type": "address"
        },
        {
          "indexed": true,
          "internalType": "address",
          "name": "to",
          "type": "address"
        },
        {
          "indexed": false,
          "internalType": "uint256",
          "name": "value",
          "type": "uint256"
        }
      ],
      "name": "Transfer",
      "type": "event"
    },
    {
      "inputs": [],
      "name": "UNIT_MULTIPLIER",
      "outputs": [
        {
          "internalType": "uint256",
          "name": "",
          "type": "uint256"
        }
      ],
      "stateMutability": "view",
      "type": "function"
    },
    {
      "inputs": [
        {
          "internalType": "address",
          "name": "_owner",
          "type": "address"
        },
        {
          "internalType": "address",
          "name": "_spender",
          "type": "address"
        }
      ],
      "name": "allowance",
      "outputs": [
        {
          "internalType": "uint256",
          "name": "",
          "type": "uint256"
        }
      ],
      "stateMutability": "view",
      "type": "function"
    },
    {
      "inputs": [
        {
          "internalType": "address",
          "name": "_spender",
          "type": "address"
        },
        {
          "internalType": "uint256",
          "name": "_value",
          "type": "uint256"
        }
      ],
      "name": "approve",
      "outputs": [
        {
          "internalType": "bool",
          "name": "",
          "type": "bool"
        }
      ],
      "stateMutability": "nonpayable",
      "type": "function"
    },
    {
      "inputs": [],
      "name": "balance",
      "outputs": [
        {
          "internalType": "uint256",
          "name": "",
          "type": "uint256"
        }
      ],
      "stateMutability": "view",
      "type": "function"
    },
    {
      "inputs": [
        {
          "internalType": "address",
          "name": "_owner",
          "type": "address"
        }
      ],
      "name": "balanceOf",
      "outputs": [
        {
          "internalType": "uint256",
          "name": "",
          "type": "uint256"
        }
      ],
      "stateMutability": "view",
      "type": "function"
    },
    {
      "inputs": [
        {
          "internalType": "uint256",
          "name": "_amount",
          "type": "uint256"
        }
      ],
      "name": "burn",
      "outputs": [],
      "stateMutability": "nonpayable",
      "type": "function"
    },
    {
      "inputs": [],
      "name": "contractOwner",
      "outputs": [
        {
          "internalType": "address",
          "name": "",
          "type": "address"
        }
      ],
      "stateMutability": "view",
      "type": "function"
    },
    {
      "inputs": [],
      "name": "decimals",
      "outputs": [
        {
          "internalType": "uint256",
          "name": "",
          "type": "uint256"
        }
      ],
      "stateMutability": "view",
      "type": "function"
    },
    {
      "inputs": [],
      "name": "initialSupply",
      "outputs": [
        {
          "internalType": "uint256",
          "name": "",
          "type": "uint256"
        }
      ],
      "stateMutability": "view",
      "type": "function"
    },
    {
      "inputs": [
        {
          "internalType": "string",
          "name": "_name",
          "type": "string"
        },
        {
          "internalType": "string",
          "name": "_symbol",
          "type": "string"
        },
        {
          "internalType": "uint256",
          "name": "_decimal",
          "type": "uint256"
        },
        {
          "internalType": "address",
          "name": "_tenant",
          "type": "address"
        }
      ],
      "name": "initialize",
      "outputs": [],
      "stateMutability": "nonpayable",
      "type": "function"
    },
    {
      "inputs": [],
      "name": "metadata",
      "outputs": [
        {
          "internalType": "bytes",
          "name": "title",
          "type": "bytes"
        },
        {
          "components": [
            {
              "internalType": "address",
              "name": "authorAddress",
              "type": "address"
            },
            {
              "internalType": "string",
              "name": "externalLink",
              "type": "string"
            }
          ],
          "internalType": "struct IHyperverseModule.Author",
          "name": "author",
          "type": "tuple"
        },
        {
          "internalType": "bytes",
          "name": "version",
          "type": "bytes"
        },
        {
          "internalType": "uint64",
          "name": "publishedAt",
          "type": "uint64"
        },
        {
          "internalType": "bytes",
          "name": "externalLink",
          "type": "bytes"
        }
      ],
      "stateMutability": "view",
      "type": "function"
    },
    {
      "inputs": [
        {
          "internalType": "uint256",
          "name": "_amount",
          "type": "uint256"
        }
      ],
      "name": "mint",
      "outputs": [],
      "stateMutability": "nonpayable",
      "type": "function"
    },
    {
      "inputs": [],
      "name": "name",
      "outputs": [
        {
          "internalType": "string",
          "name": "",
          "type": "string"
        }
      ],
      "stateMutability": "view",
      "type": "function"
    },
    {
      "inputs": [],
      "name": "symbol",
      "outputs": [
        {
          "internalType": "string",
          "name": "",
          "type": "string"
        }
      ],
      "stateMutability": "view",
      "type": "function"
    },
    {
      "inputs": [],
      "name": "totalSupply",
      "outputs": [
        {
          "internalType": "uint256",
          "name": "",
          "type": "uint256"
        }
      ],
      "stateMutability": "view",
      "type": "function"
    },
    {
      "inputs": [
        {
          "internalType": "address",
          "name": "_to",
          "type": "address"
        },
        {
          "internalType": "uint256",
          "name": "_value",
          "type": "uint256"
        }
      ],
      "name": "transfer",
      "outputs": [
        {
          "internalType": "bool",
          "name": "",
          "type": "bool"
        }
      ],
      "stateMutability": "nonpayable",
      "type": "function"
    },
    {
      "inputs": [
        {
          "internalType": "address",
          "name": "_from",
          "type": "address"
        },
        {
          "internalType": "address",
          "name": "_to",
          "type": "address"
        },
        {
          "internalType": "uint256",
          "name": "_value",
          "type": "uint256"
        }
      ],
      "name": "transferFrom",
      "outputs": [
        {
          "internalType": "bool",
          "name": "",
          "type": "bool"
        }
      ],
      "stateMutability": "nonpayable",
      "type": "function"
    }
  ],
  "bytecode": "0x60a06040523480156200001157600080fd5b506040516200272f3803806200272f833981810160405281019062000037919062000403565b6040518060a001604052806040518060400160405280600581526020017f546f6b656e000000000000000000000000000000000000000000000000000000815250815260200160405180604001604052808473ffffffffffffffffffffffffffffffffffffffff1681526020016040518060400160405280601881526020017f68747470733a2f2f65787465726e616c6c696e6b2e6e6574000000000000000081525081525081526020016040518060400160405280600581526020017f302e302e31000000000000000000000000000000000000000000000000000000815250815260200165032a361e860667ffffffffffffffff1681526020016040518060400160405280601881526020017f68747470733a2f2f65787465726e616c4c696e6b2e6e657400000000000000008152508152506000808201518160000190805190602001906200018b929190620002ab565b5060208201518160010160008201518160000160006101000a81548173ffffffffffffffffffffffffffffffffffffffff021916908373ffffffffffffffffffffffffffffffffffffffff1602179055506020820151816001019080519060200190620001fa9291906200033c565b50505060408201518160030190805190602001906200021b929190620002ab565b5060608201518160040160006101000a81548167ffffffffffffffff021916908367ffffffffffffffff160217905550608082015181600501908051906020019062000269929190620002ab565b509050508073ffffffffffffffffffffffffffffffffffffffff1660808173ffffffffffffffffffffffffffffffffffffffff1660601b8152505050620004e2565b828054620002b99062000463565b90600052602060002090601f016020900481019282620002dd576000855562000329565b82601f10620002f857805160ff191683800117855562000329565b8280016001018555821562000329579182015b82811115620003285782518255916020019190600101906200030b565b5b509050620003389190620003cd565b5090565b8280546200034a9062000463565b90600052602060002090601f0160209004810192826200036e5760008555620003ba565b82601f106200038957805160ff1916838001178555620003ba565b82800160010185558215620003ba579182015b82811115620003b95782518255916020019190600101906200039c565b5b509050620003c99190620003cd565b5090565b5b80821115620003e8576000816000905550600101620003ce565b5090565b600081519050620003fd81620004c8565b92915050565b6000602082840312156200041657600080fd5b60006200042684828501620003ec565b91505092915050565b60006200043c8262000443565b9050919050565b600073ffffffffffffffffffffffffffffffffffffffff82169050919050565b600060028204905060018216806200047c57607f821691505b6020821081141562000493576200049262000499565b5b50919050565b7f4e487b7100000000000000000000000000000000000000000000000000000000600052602260045260246000fd5b620004d3816200042f565b8114620004df57600080fd5b50565b60805160601c61222e6200050160003960006114cf015261222e6000f3fe608060405234801561001057600080fd5b506004361061010b5760003560e01c806370a08231116100a2578063b69ef8a811610071578063b69ef8a8146102c0578063bd3a13f6146102de578063ce606ee0146102fa578063dd62ed3e14610318578063fc540cd3146103485761010b565b806370a082311461022657806395d89b4114610256578063a0712d6814610274578063a9059cbb146102905761010b565b8063313ce567116100de578063313ce567146101ac578063378dc3dc146101ca578063392f37e9146101e857806342966c681461020a5761010b565b806306fdde0314610110578063095ea7b31461012e57806318160ddd1461015e57806323b872dd1461017c575b600080fd5b610118610366565b6040516101259190611bf0565b60405180910390f35b610148600480360381019061014391906118b0565b6103f4565b6040516101559190611b4b565b60405180910390f35b6101666104e6565b6040516101739190611c52565b60405180910390f35b61019660048036038101906101919190611861565b6104ec565b6040516101a39190611b4b565b60405180910390f35b6101b46109a1565b6040516101c19190611c52565b60405180910390f35b6101d26109a7565b6040516101df9190611c52565b60405180910390f35b6101f06109ad565b604051610201959493929190611b66565b60405180910390f35b610224600480360381019061021f919061197f565b610c6f565b005b610240600480360381019061023b91906117fc565b610d89565b60405161024d9190611c52565b60405180910390f35b61025e610dd2565b60405161026b9190611bf0565b60405180910390f35b61028e6004803603810190610289919061197f565b610e60565b005b6102aa60048036038101906102a591906118b0565b610fbf565b6040516102b79190611b4b565b60405180910390f35b6102c86112a5565b6040516102d59190611c52565b60405180910390f35b6102f860048036038101906102f391906118ec565b6112b5565b005b6103026114cd565b60405161030f9190611b30565b60405180910390f35b610332600480360381019061032d9190611825565b6114f1565b60405161033f9190611c52565b60405180910390f35b610350611578565b60405161035d9190611c52565b60405180910390f35b600880546103739061201e565b80601f016020809104026020016040519081016040528092919081815260200182805461039f9061201e565b80156103ec5780601f106103c1576101008083540402835291602001916103ec565b820191906000526020600020905b8154815290600101906020018083116103cf57829003601f168201915b505050505081565b600081600c60003373ffffffffffffffffffffffffffffffffffffffff1673ffffffffffffffffffffffffffffffffffffffff16815260200190815260200160002060008573ffffffffffffffffffffffffffffffffffffffff1673ffffffffffffffffffffffffffffffffffffffff168152602001908152602001600020819055508273ffffffffffffffffffffffffffffffffffffffff163373ffffffffffffffffffffffffffffffffffffffff167f8c5be1e5ebec7d5bd14f71427d1e84f3dd0314c0f7b2291e5b200ac8c7c3b925846040516104d49190611c52565b60405180910390a36001905092915050565b600d5481565b60008383838173ffffffffffffffffffffffffffffffffffffffff168373ffffffffffffffffffffffffffffffffffffffff161415610557576040517f367558c300000000000000000000000000000000000000000000000000000000815260040160405180910390fd5b600073ffffffffffffffffffffffffffffffffffffffff168273ffffffffffffffffffffffffffffffffffffffff1614806105be5750600073ffffffffffffffffffffffffffffffffffffffff168373ffffffffffffffffffffffffffffffffffffffff16145b156105f5576040517fd92e233d00000000000000000000000000000000000000000000000000000000815260040160405180910390fd5b806105ff84610d89565b11610636576040517ff4d678b800000000000000000000000000000000000000000000000000000000815260040160405180910390fd5b600c60008873ffffffffffffffffffffffffffffffffffffffff1673ffffffffffffffffffffffffffffffffffffffff16815260200190815260200160002060003373ffffffffffffffffffffffffffffffffffffffff1673ffffffffffffffffffffffffffffffffffffffff168152602001908152602001600020548511156106f5576040517f08c379a00000000000000000000000000000000000000000000000000000000081526004016106ec90611c32565b60405180910390fd5b61074785600b60008a73ffffffffffffffffffffffffffffffffffffffff1673ffffffffffffffffffffffffffffffffffffffff1681526020019081526020016000205461157e90919063ffffffff16565b600b60008973ffffffffffffffffffffffffffffffffffffffff1673ffffffffffffffffffffffffffffffffffffffff168152602001908152602001600020819055506107dc85600b60008973ffffffffffffffffffffffffffffffffffffffff1673ffffffffffffffffffffffffffffffffffffffff1681526020019081526020016000205461159490919063ffffffff16565b600b60008873ffffffffffffffffffffffffffffffffffffffff1673ffffffffffffffffffffffffffffffffffffffff168152602001908152602001600020819055506108ae85600c60008a73ffffffffffffffffffffffffffffffffffffffff1673ffffffffffffffffffffffffffffffffffffffff16815260200190815260200160002060003373ffffffffffffffffffffffffffffffffffffffff1673ffffffffffffffffffffffffffffffffffffffff1681526020019081526020016000205461157e90919063ffffffff16565b600c60008973ffffffffffffffffffffffffffffffffffffffff1673ffffffffffffffffffffffffffffffffffffffff16815260200190815260200160002060003373ffffffffffffffffffffffffffffffffffffffff1673ffffffffffffffffffffffffffffffffffffffff168152602001908152602001600020819055508573ffffffffffffffffffffffffffffffffffffffff168773ffffffffffffffffffffffffffffffffffffffff167fddf252ad1be2c89b69c2b068fc378daa952ba7f163c4a11628f55a4df523b3ef8760405161098b9190611c52565b60405180910390a3600193505050509392505050565b600a5481565b600e5481565b60008060000180546109be9061201e565b80601f01602080910402602001604051908101604052809291908181526020018280546109ea9061201e565b8015610a375780601f10610a0c57610100808354040283529160200191610a37565b820191906000526020600020905b815481529060010190602001808311610a1a57829003601f168201915b505050505090806001016040518060400160405290816000820160009054906101000a900473ffffffffffffffffffffffffffffffffffffffff1673ffffffffffffffffffffffffffffffffffffffff1673ffffffffffffffffffffffffffffffffffffffff168152602001600182018054610ab29061201e565b80601f0160208091040260200160405190810160405280929190818152602001828054610ade9061201e565b8015610b2b5780601f10610b0057610100808354040283529160200191610b2b565b820191906000526020600020905b815481529060010190602001808311610b0e57829003601f168201915b50505050508152505090806003018054610b449061201e565b80601f0160208091040260200160405190810160405280929190818152602001828054610b709061201e565b8015610bbd5780601f10610b9257610100808354040283529160200191610bbd565b820191906000526020600020905b815481529060010190602001808311610ba057829003601f168201915b5050505050908060040160009054906101000a900467ffffffffffffffff1690806005018054610bec9061201e565b80601f0160208091040260200160405190810160405280929190818152602001828054610c189061201e565b8015610c655780601f10610c3a57610100808354040283529160200191610c65565b820191906000526020600020905b815481529060010190602001808311610c4857829003601f168201915b5050505050905085565b80610c7933610d89565b1015610cb1576040517ff4d678b800000000000000000000000000000000000000000000000000000000815260040160405180910390fd5b80600b60003373ffffffffffffffffffffffffffffffffffffffff1673ffffffffffffffffffffffffffffffffffffffff1681526020019081526020016000206000828254610d009190611f2d565b9250508190555080600d6000828254610d199190611f2d565b92505081905550600073ffffffffffffffffffffffffffffffffffffffff163373ffffffffffffffffffffffffffffffffffffffff167fddf252ad1be2c89b69c2b068fc378daa952ba7f163c4a11628f55a4df523b3ef83604051610d7e9190611c52565b60405180910390a350565b6000600b60008373ffffffffffffffffffffffffffffffffffffffff1673ffffffffffffffffffffffffffffffffffffffff168152602001908152602001600020549050919050565b60098054610ddf9061201e565b80601f0160208091040260200160405190810160405280929190818152602001828054610e0b9061201e565b8015610e585780601f10610e2d57610100808354040283529160200191610e58565b820191906000526020600020905b815481529060010190602001808311610e3b57829003601f168201915b505050505081565b600760009054906101000a900473ffffffffffffffffffffffffffffffffffffffff1673ffffffffffffffffffffffffffffffffffffffff163373ffffffffffffffffffffffffffffffffffffffff1614610ee7576040517f82b4290000000000000000000000000000000000000000000000000000000000815260040160405180910390fd5b80600b60003373ffffffffffffffffffffffffffffffffffffffff1673ffffffffffffffffffffffffffffffffffffffff1681526020019081526020016000206000828254610f369190611d0c565b9250508190555080600d6000828254610f4f9190611d0c565b925050819055503373ffffffffffffffffffffffffffffffffffffffff16600073ffffffffffffffffffffffffffffffffffffffff167fddf252ad1be2c89b69c2b068fc378daa952ba7f163c4a11628f55a4df523b3ef83604051610fb49190611c52565b60405180910390a350565b60003383838173ffffffffffffffffffffffffffffffffffffffff168373ffffffffffffffffffffffffffffffffffffffff16141561102a576040517f367558c300000000000000000000000000000000000000000000000000000000815260040160405180910390fd5b600073ffffffffffffffffffffffffffffffffffffffff168273ffffffffffffffffffffffffffffffffffffffff1614806110915750600073ffffffffffffffffffffffffffffffffffffffff168373ffffffffffffffffffffffffffffffffffffffff16145b156110c8576040517fd92e233d00000000000000000000000000000000000000000000000000000000815260040160405180910390fd5b806110d284610d89565b11611109576040517ff4d678b800000000000000000000000000000000000000000000000000000000815260040160405180910390fd5b61115b85600b60003373ffffffffffffffffffffffffffffffffffffffff1673ffffffffffffffffffffffffffffffffffffffff1681526020019081526020016000205461157e90919063ffffffff16565b600b60003373ffffffffffffffffffffffffffffffffffffffff1673ffffffffffffffffffffffffffffffffffffffff168152602001908152602001600020819055506111f085600b60008973ffffffffffffffffffffffffffffffffffffffff1673ffffffffffffffffffffffffffffffffffffffff1681526020019081526020016000205461159490919063ffffffff16565b600b60008873ffffffffffffffffffffffffffffffffffffffff1673ffffffffffffffffffffffffffffffffffffffff168152602001908152602001600020819055508573ffffffffffffffffffffffffffffffffffffffff163373ffffffffffffffffffffffffffffffffffffffff167fddf252ad1be2c89b69c2b068fc378daa952ba7f163c4a11628f55a4df523b3ef876040516112909190611c52565b60405180910390a36001935050505092915050565b60006112b033610d89565b905090565b60006112c160016115aa565b905080156112e5576001600660156101000a81548160ff0219169083151502179055505b81600073ffffffffffffffffffffffffffffffffffffffff16600760009054906101000a900473ffffffffffffffffffffffffffffffffffffffff1673ffffffffffffffffffffffffffffffffffffffff161461136e576040517f0dc149f000000000000000000000000000000000000000000000000000000000815260040160405180910390fd5b85600890805190602001906113849291906116c7565b50846009908051906020019061139b9291906116c7565b5083600a81905550600a54600a6113b29190611db5565b600f8190555060006103e890506113d4600f548261169e90919063ffffffff16565b600d81905550600d54600e81905550600d54600b60008673ffffffffffffffffffffffffffffffffffffffff1673ffffffffffffffffffffffffffffffffffffffff1681526020019081526020016000208190555083600760006101000a81548173ffffffffffffffffffffffffffffffffffffffff021916908373ffffffffffffffffffffffffffffffffffffffff160217905550505080156114c6576000600660156101000a81548160ff0219169083151502179055507f7f26b83ff96e1f2b6a682f133852f6798a09c465da95921460cefb384740249860016040516114bd9190611bd5565b60405180910390a15b5050505050565b7f000000000000000000000000000000000000000000000000000000000000000081565b6000600c60008473ffffffffffffffffffffffffffffffffffffffff1673ffffffffffffffffffffffffffffffffffffffff16815260200190815260200160002060008373ffffffffffffffffffffffffffffffffffffffff1673ffffffffffffffffffffffffffffffffffffffff16815260200190815260200160002054905092915050565b600f5481565b6000818361158c9190611f2d565b905092915050565b600081836115a29190611d0c565b905092915050565b6000600660159054906101000a900460ff16156116225760018260ff161480156115da57506115d8306116b4565b155b611619576040517f08c379a000000000000000000000000000000000000000000000000000000000815260040161161090611c12565b60405180910390fd5b60009050611699565b8160ff16600660149054906101000a900460ff1660ff1610611679576040517f08c379a000000000000000000000000000000000000000000000000000000000815260040161167090611c12565b60405180910390fd5b81600660146101000a81548160ff021916908360ff160217905550600190505b919050565b600081836116ac9190611ed3565b905092915050565b600080823b905060008111915050919050565b8280546116d39061201e565b90600052602060002090601f0160209004810192826116f5576000855561173c565b82601f1061170e57805160ff191683800117855561173c565b8280016001018555821561173c579182015b8281111561173b578251825591602001919060010190611720565b5b509050611749919061174d565b5090565b5b8082111561176657600081600090555060010161174e565b5090565b600061177d61177884611c92565b611c6d565b90508281526020810184848401111561179557600080fd5b6117a0848285611fdc565b509392505050565b6000813590506117b7816121ca565b92915050565b600082601f8301126117ce57600080fd5b81356117de84826020860161176a565b91505092915050565b6000813590506117f6816121e1565b92915050565b60006020828403121561180e57600080fd5b600061181c848285016117a8565b91505092915050565b6000806040838503121561183857600080fd5b6000611846858286016117a8565b9250506020611857858286016117a8565b9150509250929050565b60008060006060848603121561187657600080fd5b6000611884868287016117a8565b9350506020611895868287016117a8565b92505060406118a6868287016117e7565b9150509250925092565b600080604083850312156118c357600080fd5b60006118d1858286016117a8565b92505060206118e2858286016117e7565b9150509250929050565b6000806000806080858703121561190257600080fd5b600085013567ffffffffffffffff81111561191c57600080fd5b611928878288016117bd565b945050602085013567ffffffffffffffff81111561194557600080fd5b611951878288016117bd565b9350506040611962878288016117e7565b9250506060611973878288016117a8565b91505092959194509250565b60006020828403121561199157600080fd5b600061199f848285016117e7565b91505092915050565b6119b181611f61565b82525050565b6119c081611f61565b82525050565b6119cf81611f73565b82525050565b60006119e082611cc3565b6119ea8185611cd9565b93506119fa818560208601611feb565b611a038161210e565b840191505092915050565b611a1781611fca565b82525050565b6000611a2882611cce565b611a328185611cea565b9350611a42818560208601611feb565b611a4b8161210e565b840191505092915050565b6000611a6182611cce565b611a6b8185611cfb565b9350611a7b818560208601611feb565b611a848161210e565b840191505092915050565b6000611a9c602e83611cfb565b9150611aa78261212c565b604082019050919050565b6000611abf602783611cfb565b9150611aca8261217b565b604082019050919050565b6000604083016000830151611aed60008601826119a8565b5060208301518482036020860152611b058282611a1d565b9150508091505092915050565b611b1b81611f9f565b82525050565b611b2a81611fa9565b82525050565b6000602082019050611b4560008301846119b7565b92915050565b6000602082019050611b6060008301846119c6565b92915050565b600060a0820190508181036000830152611b8081886119d5565b90508181036020830152611b948187611ad5565b90508181036040830152611ba881866119d5565b9050611bb76060830185611b21565b8181036080830152611bc981846119d5565b90509695505050505050565b6000602082019050611bea6000830184611a0e565b92915050565b60006020820190508181036000830152611c0a8184611a56565b905092915050565b60006020820190508181036000830152611c2b81611a8f565b9050919050565b60006020820190508181036000830152611c4b81611ab2565b9050919050565b6000602082019050611c676000830184611b12565b92915050565b6000611c77611c88565b9050611c838282612050565b919050565b6000604051905090565b600067ffffffffffffffff821115611cad57611cac6120df565b5b611cb68261210e565b9050602081019050919050565b600081519050919050565b600081519050919050565b600082825260208201905092915050565b600082825260208201905092915050565b600082825260208201905092915050565b6000611d1782611f9f565b9150611d2283611f9f565b9250827fffffffffffffffffffffffffffffffffffffffffffffffffffffffffffffffff03821115611d5757611d56612081565b5b828201905092915050565b6000808291508390505b6001851115611dac57808604811115611d8857611d87612081565b5b6001851615611d975780820291505b8081029050611da58561211f565b9450611d6c565b94509492505050565b6000611dc082611f9f565b9150611dcb83611f9f565b9250611df87fffffffffffffffffffffffffffffffffffffffffffffffffffffffffffffffff8484611e00565b905092915050565b600082611e105760019050611ecc565b81611e1e5760009050611ecc565b8160018114611e345760028114611e3e57611e6d565b6001915050611ecc565b60ff841115611e5057611e4f612081565b5b8360020a915084821115611e6757611e66612081565b5b50611ecc565b5060208310610133831016604e8410600b8410161715611ea25782820a905083811115611e9d57611e9c612081565b5b611ecc565b611eaf8484846001611d62565b92509050818404811115611ec657611ec5612081565b5b81810290505b9392505050565b6000611ede82611f9f565b9150611ee983611f9f565b9250817fffffffffffffffffffffffffffffffffffffffffffffffffffffffffffffffff0483118215151615611f2257611f21612081565b5b828202905092915050565b6000611f3882611f9f565b9150611f4383611f9f565b925082821015611f5657611f55612081565b5b828203905092915050565b6000611f6c82611f7f565b9050919050565b60008115159050919050565b600073ffffffffffffffffffffffffffffffffffffffff82169050919050565b6000819050919050565b600067ffffffffffffffff82169050919050565b600060ff82169050919050565b6000611fd582611fbd565b9050919050565b82818337600083830152505050565b60005b83811015612009578082015181840152602081019050611fee565b83811115612018576000848401525b50505050565b6000600282049050600182168061203657607f821691505b6020821081141561204a576120496120b0565b5b50919050565b6120598261210e565b810181811067ffffffffffffffff82111715612078576120776120df565b5b80604052505050565b7f4e487b7100000000000000000000000000000000000000000000000000000000600052601160045260246000fd5b7f4e487b7100000000000000000000000000000000000000000000000000000000600052602260045260246000fd5b7f4e487b7100000000000000000000000000000000000000000000000000000000600052604160045260246000fd5b6000601f19601f8301169050919050565b60008160011c9050919050565b7f496e697469616c697a61626c653a20636f6e747261637420697320616c72656160008201527f647920696e697469616c697a6564000000000000000000000000000000000000602082015250565b7f4e6f7420656e6f75676820616c6c6f7765642062616c616e636520666f72207460008201527f72616e7366657200000000000000000000000000000000000000000000000000602082015250565b6121d381611f61565b81146121de57600080fd5b50565b6121ea81611f9f565b81146121f557600080fd5b5056fea2646970667358221220ef50ca2b7aa94e8ec7231a3c2d78b8005e6a68a82d802b090963247540b46a4764736f6c63430008040033",
  "linkReferences": {},
  "deployedLinkReferences": {}
}