{
  "_format": "hh-sol-artifact-1",
  "contractName": "ERC20",
  "sourceName": "contracts/ERC20.sol",
  "abi": [
    {
      "inputs": [
        {
          "internalType": "address",
          "name": "_owner",
          "type": "address"
        }
      ],
      "stateMutability": "nonpayable",
      "type": "constructor"
    },
    {
      "anonymous": false,
      "inputs": [
        {
          "indexed": true,
          "internalType": "address",
          "name": "owner",
          "type": "address"
        },
        {
          "indexed": true,
          "internalType": "address",
          "name": "spender",
          "type": "address"
        },
        {
          "indexed": false,
          "internalType": "uint256",
          "name": "value",
          "type": "uint256"
        }
      ],
      "name": "Approval",
      "type": "event"
    },
    {
      "anonymous": false,
      "inputs": [
        {
          "indexed": false,
          "internalType": "uint8",
          "name": "version",
          "type": "uint8"
        }
      ],
      "name": "Initialized",
      "type": "event"
    },
    {
      "anonymous": false,
      "inputs": [
        {
          "indexed": true,
          "internalType": "address",
          "name": "from",
          "type": "address"
        },
        {
          "indexed": true,
          "internalType": "address",
          "name": "to",
          "type": "address"
        },
        {
          "indexed": false,
          "internalType": "uint256",
          "name": "value",
          "type": "uint256"
        }
      ],
      "name": "Transfer",
      "type": "event"
    },
    {
      "inputs": [],
      "name": "UNIT_MULTIPLIER",
      "outputs": [
        {
          "internalType": "uint256",
          "name": "",
          "type": "uint256"
        }
      ],
      "stateMutability": "view",
      "type": "function"
    },
    {
      "inputs": [
        {
          "internalType": "address",
          "name": "_owner",
          "type": "address"
        },
        {
          "internalType": "address",
          "name": "_spender",
          "type": "address"
        }
      ],
      "name": "allowance",
      "outputs": [
        {
          "internalType": "uint256",
          "name": "",
          "type": "uint256"
        }
      ],
      "stateMutability": "view",
      "type": "function"
    },
    {
      "inputs": [
        {
          "internalType": "address",
          "name": "_spender",
          "type": "address"
        },
        {
          "internalType": "uint256",
          "name": "_value",
          "type": "uint256"
        }
      ],
      "name": "approve",
      "outputs": [
        {
          "internalType": "bool",
          "name": "",
          "type": "bool"
        }
      ],
      "stateMutability": "nonpayable",
      "type": "function"
    },
    {
      "inputs": [],
      "name": "balance",
      "outputs": [
        {
          "internalType": "uint256",
          "name": "",
          "type": "uint256"
        }
      ],
      "stateMutability": "view",
      "type": "function"
    },
    {
      "inputs": [
        {
          "internalType": "address",
          "name": "_owner",
          "type": "address"
        }
      ],
      "name": "balanceOf",
      "outputs": [
        {
          "internalType": "uint256",
          "name": "",
          "type": "uint256"
        }
      ],
      "stateMutability": "view",
      "type": "function"
    },
    {
      "inputs": [
        {
          "internalType": "uint256",
          "name": "_amount",
          "type": "uint256"
        }
      ],
      "name": "burn",
      "outputs": [],
      "stateMutability": "nonpayable",
      "type": "function"
    },
    {
      "inputs": [],
      "name": "contractOwner",
      "outputs": [
        {
          "internalType": "address",
          "name": "",
          "type": "address"
        }
      ],
      "stateMutability": "view",
      "type": "function"
    },
    {
      "inputs": [],
      "name": "decimals",
      "outputs": [
        {
          "internalType": "uint256",
          "name": "",
          "type": "uint256"
        }
      ],
      "stateMutability": "view",
      "type": "function"
    },
    {
      "inputs": [],
      "name": "initialSupply",
      "outputs": [
        {
          "internalType": "uint256",
          "name": "",
          "type": "uint256"
        }
      ],
      "stateMutability": "view",
      "type": "function"
    },
    {
      "inputs": [
        {
          "internalType": "string",
          "name": "_name",
          "type": "string"
        },
        {
          "internalType": "string",
          "name": "_symbol",
          "type": "string"
        },
        {
          "internalType": "uint256",
          "name": "_decimal",
          "type": "uint256"
        },
        {
          "internalType": "address",
          "name": "_tenant",
          "type": "address"
        }
      ],
      "name": "initialize",
      "outputs": [],
      "stateMutability": "nonpayable",
      "type": "function"
    },
    {
      "inputs": [],
      "name": "metadata",
      "outputs": [
        {
          "internalType": "bytes",
          "name": "title",
          "type": "bytes"
        },
        {
          "components": [
            {
              "internalType": "address",
              "name": "authorAddress",
              "type": "address"
            },
            {
              "internalType": "string",
              "name": "externalLink",
              "type": "string"
            }
          ],
          "internalType": "struct IHyperverseModule.Author",
          "name": "author",
          "type": "tuple"
        },
        {
          "internalType": "bytes",
          "name": "version",
          "type": "bytes"
        },
        {
          "internalType": "uint64",
          "name": "publishedAt",
          "type": "uint64"
        },
        {
          "internalType": "bytes",
          "name": "externalLink",
          "type": "bytes"
        }
      ],
      "stateMutability": "view",
      "type": "function"
    },
    {
      "inputs": [
        {
          "internalType": "uint256",
          "name": "_amount",
          "type": "uint256"
        }
      ],
      "name": "mint",
      "outputs": [],
      "stateMutability": "nonpayable",
      "type": "function"
    },
    {
      "inputs": [],
      "name": "name",
      "outputs": [
        {
          "internalType": "string",
          "name": "",
          "type": "string"
        }
      ],
      "stateMutability": "view",
      "type": "function"
    },
    {
      "inputs": [],
      "name": "symbol",
      "outputs": [
        {
          "internalType": "string",
          "name": "",
          "type": "string"
        }
      ],
      "stateMutability": "view",
      "type": "function"
    },
    {
      "inputs": [],
      "name": "total",
      "outputs": [
        {
          "internalType": "uint256",
          "name": "",
          "type": "uint256"
        }
      ],
      "stateMutability": "view",
      "type": "function"
    },
    {
      "inputs": [],
      "name": "totalSupply",
      "outputs": [
        {
          "internalType": "uint256",
          "name": "",
          "type": "uint256"
        }
      ],
      "stateMutability": "view",
      "type": "function"
    },
    {
      "inputs": [
        {
          "internalType": "address",
          "name": "_to",
          "type": "address"
        },
        {
          "internalType": "uint256",
          "name": "_value",
          "type": "uint256"
        }
      ],
      "name": "transfer",
      "outputs": [
        {
          "internalType": "bool",
          "name": "",
          "type": "bool"
        }
      ],
      "stateMutability": "nonpayable",
      "type": "function"
    },
    {
      "inputs": [
        {
          "internalType": "address",
          "name": "_from",
          "type": "address"
        },
        {
          "internalType": "address",
          "name": "_to",
          "type": "address"
        },
        {
          "internalType": "uint256",
          "name": "_value",
          "type": "uint256"
        }
      ],
      "name": "transferFrom",
      "outputs": [
        {
          "internalType": "bool",
          "name": "",
          "type": "bool"
        }
      ],
      "stateMutability": "nonpayable",
      "type": "function"
    }
  ],
  "bytecode": "0x60a06040523480156200001157600080fd5b5060405162002b0d38038062002b0d833981810160405281019062000037919062000403565b6040518060a001604052806040518060400160405280600581526020017f546f6b656e000000000000000000000000000000000000000000000000000000815250815260200160405180604001604052808473ffffffffffffffffffffffffffffffffffffffff1681526020016040518060400160405280601881526020017f68747470733a2f2f65787465726e616c6c696e6b2e6e6574000000000000000081525081525081526020016040518060400160405280600581526020017f302e302e31000000000000000000000000000000000000000000000000000000815250815260200165032a361e860667ffffffffffffffff1681526020016040518060400160405280601881526020017f68747470733a2f2f65787465726e616c4c696e6b2e6e657400000000000000008152508152506000808201518160000190805190602001906200018b929190620002ab565b5060208201518160010160008201518160000160006101000a81548173ffffffffffffffffffffffffffffffffffffffff021916908373ffffffffffffffffffffffffffffffffffffffff1602179055506020820151816001019080519060200190620001fa9291906200033c565b50505060408201518160030190805190602001906200021b929190620002ab565b5060608201518160040160006101000a81548167ffffffffffffffff021916908367ffffffffffffffff160217905550608082015181600501908051906020019062000269929190620002ab565b509050508073ffffffffffffffffffffffffffffffffffffffff1660808173ffffffffffffffffffffffffffffffffffffffff1660601b8152505050620004e2565b828054620002b99062000463565b90600052602060002090601f016020900481019282620002dd576000855562000329565b82601f10620002f857805160ff191683800117855562000329565b8280016001018555821562000329579182015b82811115620003285782518255916020019190600101906200030b565b5b509050620003389190620003cd565b5090565b8280546200034a9062000463565b90600052602060002090601f0160209004810192826200036e5760008555620003ba565b82601f106200038957805160ff1916838001178555620003ba565b82800160010185558215620003ba579182015b82811115620003b95782518255916020019190600101906200039c565b5b509050620003c99190620003cd565b5090565b5b80821115620003e8576000816000905550600101620003ce565b5090565b600081519050620003fd81620004c8565b92915050565b6000602082840312156200041657600080fd5b60006200042684828501620003ec565b91505092915050565b60006200043c8262000443565b9050919050565b600073ffffffffffffffffffffffffffffffffffffffff82169050919050565b600060028204905060018216806200047c57607f821691505b6020821081141562000493576200049262000499565b5b50919050565b7f4e487b7100000000000000000000000000000000000000000000000000000000600052602260045260246000fd5b620004d3816200042f565b8114620004df57600080fd5b50565b60805160601c61260c620005016000396000611547015261260c6000f3fe608060405234801561001057600080fd5b50600436106101165760003560e01c806370a08231116100a2578063b69ef8a811610071578063b69ef8a8146102e9578063bd3a13f614610307578063ce606ee014610323578063dd62ed3e14610341578063fc540cd31461037157610116565b806370a082311461024f57806395d89b411461027f578063a0712d681461029d578063a9059cbb146102b957610116565b80632ddbd13a116100e95780632ddbd13a146101b7578063313ce567146101d5578063378dc3dc146101f3578063392f37e91461021157806342966c681461023357610116565b806306fdde031461011b578063095ea7b31461013957806318160ddd1461016957806323b872dd14610187575b600080fd5b61012361038f565b6040516101309190611d5d565b60405180910390f35b610153600480360381019061014e9190611928565b61041d565b6040516101609190611cb8565b60405180910390f35b61017161050f565b60405161017e9190611e9f565b60405180910390f35b6101a1600480360381019061019c91906118d9565b610519565b6040516101ae9190611cb8565b60405180910390f35b6101bf610a1c565b6040516101cc9190611e9f565b60405180910390f35b6101dd610a22565b6040516101ea9190611e9f565b60405180910390f35b6101fb610a28565b6040516102089190611e9f565b60405180910390f35b610219610a2e565b60405161022a959493929190611cd3565b60405180910390f35b61024d600480360381019061024891906119f7565b610cf0565b005b61026960048036038101906102649190611874565b610e13565b6040516102769190611e9f565b60405180910390f35b610287610e5c565b6040516102949190611d5d565b60405180910390f35b6102b760048036038101906102b291906119f7565b610eea565b005b6102d360048036038101906102ce9190611928565b611052565b6040516102e09190611cb8565b60405180910390f35b6102f1611316565b6040516102fe9190611e9f565b60405180910390f35b610321600480360381019061031c9190611964565b611326565b005b61032b611545565b6040516103389190611c9d565b60405180910390f35b61035b6004803603810190610356919061189d565b611569565b6040516103689190611e9f565b60405180910390f35b6103796115f0565b6040516103869190611e9f565b60405180910390f35b6008805461039c9061226b565b80601f01602080910402602001604051908101604052809291908181526020018280546103c89061226b565b80156104155780601f106103ea57610100808354040283529160200191610415565b820191906000526020600020905b8154815290600101906020018083116103f857829003601f168201915b505050505081565b600081600c60003373ffffffffffffffffffffffffffffffffffffffff1673ffffffffffffffffffffffffffffffffffffffff16815260200190815260200160002060008573ffffffffffffffffffffffffffffffffffffffff1673ffffffffffffffffffffffffffffffffffffffff168152602001908152602001600020819055508273ffffffffffffffffffffffffffffffffffffffff163373ffffffffffffffffffffffffffffffffffffffff167f8c5be1e5ebec7d5bd14f71427d1e84f3dd0314c0f7b2291e5b200ac8c7c3b925846040516104fd9190611e9f565b60405180910390a36001905092915050565b6000600d54905090565b60008073ffffffffffffffffffffffffffffffffffffffff168473ffffffffffffffffffffffffffffffffffffffff16141561058a576040517f08c379a000000000000000000000000000000000000000000000000000000000815260040161058190611d9f565b60405180910390fd5b600c60008573ffffffffffffffffffffffffffffffffffffffff1673ffffffffffffffffffffffffffffffffffffffff16815260200190815260200160002060003373ffffffffffffffffffffffffffffffffffffffff1673ffffffffffffffffffffffffffffffffffffffff16815260200190815260200160002054821115610649576040517f08c379a000000000000000000000000000000000000000000000000000000000815260040161064090611e5f565b60405180910390fd5b61065284610e13565b821115610694576040517f08c379a000000000000000000000000000000000000000000000000000000000815260040161068b90611d7f565b60405180910390fd5b600073ffffffffffffffffffffffffffffffffffffffff168373ffffffffffffffffffffffffffffffffffffffff161415610704576040517f08c379a00000000000000000000000000000000000000000000000000000000081526004016106fb90611d9f565b60405180910390fd5b8273ffffffffffffffffffffffffffffffffffffffff168473ffffffffffffffffffffffffffffffffffffffff161415610773576040517f08c379a000000000000000000000000000000000000000000000000000000000815260040161076a90611e1f565b60405180910390fd5b6107c582600b60008773ffffffffffffffffffffffffffffffffffffffff1673ffffffffffffffffffffffffffffffffffffffff168152602001908152602001600020546115f690919063ffffffff16565b600b60008673ffffffffffffffffffffffffffffffffffffffff1673ffffffffffffffffffffffffffffffffffffffff1681526020019081526020016000208190555061085a82600b60008673ffffffffffffffffffffffffffffffffffffffff1673ffffffffffffffffffffffffffffffffffffffff1681526020019081526020016000205461160c90919063ffffffff16565b600b60008573ffffffffffffffffffffffffffffffffffffffff1673ffffffffffffffffffffffffffffffffffffffff1681526020019081526020016000208190555061092c82600c60008773ffffffffffffffffffffffffffffffffffffffff1673ffffffffffffffffffffffffffffffffffffffff16815260200190815260200160002060003373ffffffffffffffffffffffffffffffffffffffff1673ffffffffffffffffffffffffffffffffffffffff168152602001908152602001600020546115f690919063ffffffff16565b600c60008673ffffffffffffffffffffffffffffffffffffffff1673ffffffffffffffffffffffffffffffffffffffff16815260200190815260200160002060003373ffffffffffffffffffffffffffffffffffffffff1673ffffffffffffffffffffffffffffffffffffffff168152602001908152602001600020819055508273ffffffffffffffffffffffffffffffffffffffff168473ffffffffffffffffffffffffffffffffffffffff167fddf252ad1be2c89b69c2b068fc378daa952ba7f163c4a11628f55a4df523b3ef84604051610a099190611e9f565b60405180910390a3600190509392505050565b600d5481565b600a5481565b600e5481565b6000806000018054610a3f9061226b565b80601f0160208091040260200160405190810160405280929190818152602001828054610a6b9061226b565b8015610ab85780601f10610a8d57610100808354040283529160200191610ab8565b820191906000526020600020905b815481529060010190602001808311610a9b57829003601f168201915b505050505090806001016040518060400160405290816000820160009054906101000a900473ffffffffffffffffffffffffffffffffffffffff1673ffffffffffffffffffffffffffffffffffffffff1673ffffffffffffffffffffffffffffffffffffffff168152602001600182018054610b339061226b565b80601f0160208091040260200160405190810160405280929190818152602001828054610b5f9061226b565b8015610bac5780601f10610b8157610100808354040283529160200191610bac565b820191906000526020600020905b815481529060010190602001808311610b8f57829003601f168201915b50505050508152505090806003018054610bc59061226b565b80601f0160208091040260200160405190810160405280929190818152602001828054610bf19061226b565b8015610c3e5780601f10610c1357610100808354040283529160200191610c3e565b820191906000526020600020905b815481529060010190602001808311610c2157829003601f168201915b5050505050908060040160009054906101000a900467ffffffffffffffff1690806005018054610c6d9061226b565b80601f0160208091040260200160405190810160405280929190818152602001828054610c999061226b565b8015610ce65780601f10610cbb57610100808354040283529160200191610ce6565b820191906000526020600020905b815481529060010190602001808311610cc957829003601f168201915b5050505050905085565b80610cfa33610e13565b1015610d3b576040517f08c379a0000000000000000000000000000000000000000000000000000000008152600401610d3290611ddf565b60405180910390fd5b80600b60003373ffffffffffffffffffffffffffffffffffffffff1673ffffffffffffffffffffffffffffffffffffffff1681526020019081526020016000206000828254610d8a919061217a565b9250508190555080600d6000828254610da3919061217a565b92505081905550600073ffffffffffffffffffffffffffffffffffffffff163373ffffffffffffffffffffffffffffffffffffffff167fddf252ad1be2c89b69c2b068fc378daa952ba7f163c4a11628f55a4df523b3ef83604051610e089190611e9f565b60405180910390a350565b6000600b60008373ffffffffffffffffffffffffffffffffffffffff1673ffffffffffffffffffffffffffffffffffffffff168152602001908152602001600020549050919050565b60098054610e699061226b565b80601f0160208091040260200160405190810160405280929190818152602001828054610e959061226b565b8015610ee25780601f10610eb757610100808354040283529160200191610ee2565b820191906000526020600020905b815481529060010190602001808311610ec557829003601f168201915b505050505081565b600760009054906101000a900473ffffffffffffffffffffffffffffffffffffffff1673ffffffffffffffffffffffffffffffffffffffff163373ffffffffffffffffffffffffffffffffffffffff1614610f7a576040517f08c379a0000000000000000000000000000000000000000000000000000000008152600401610f7190611e7f565b60405180910390fd5b80600b60003373ffffffffffffffffffffffffffffffffffffffff1673ffffffffffffffffffffffffffffffffffffffff1681526020019081526020016000206000828254610fc99190611f59565b9250508190555080600d6000828254610fe29190611f59565b925050819055503373ffffffffffffffffffffffffffffffffffffffff16600073ffffffffffffffffffffffffffffffffffffffff167fddf252ad1be2c89b69c2b068fc378daa952ba7f163c4a11628f55a4df523b3ef836040516110479190611e9f565b60405180910390a350565b60008073ffffffffffffffffffffffffffffffffffffffff168373ffffffffffffffffffffffffffffffffffffffff1614156110c3576040517f08c379a00000000000000000000000000000000000000000000000000000000081526004016110ba90611d9f565b60405180910390fd5b3373ffffffffffffffffffffffffffffffffffffffff168373ffffffffffffffffffffffffffffffffffffffff161415611132576040517f08c379a000000000000000000000000000000000000000000000000000000000815260040161112990611dff565b60405180910390fd5b61113b33610e13565b82111561117d576040517f08c379a000000000000000000000000000000000000000000000000000000000815260040161117490611ddf565b60405180910390fd5b6111cf82600b60003373ffffffffffffffffffffffffffffffffffffffff1673ffffffffffffffffffffffffffffffffffffffff168152602001908152602001600020546115f690919063ffffffff16565b600b60003373ffffffffffffffffffffffffffffffffffffffff1673ffffffffffffffffffffffffffffffffffffffff1681526020019081526020016000208190555061126482600b60008673ffffffffffffffffffffffffffffffffffffffff1673ffffffffffffffffffffffffffffffffffffffff1681526020019081526020016000205461160c90919063ffffffff16565b600b60008573ffffffffffffffffffffffffffffffffffffffff1673ffffffffffffffffffffffffffffffffffffffff168152602001908152602001600020819055508273ffffffffffffffffffffffffffffffffffffffff163373ffffffffffffffffffffffffffffffffffffffff167fddf252ad1be2c89b69c2b068fc378daa952ba7f163c4a11628f55a4df523b3ef846040516113049190611e9f565b60405180910390a36001905092915050565b600061132133610e13565b905090565b60006113326001611622565b90508015611356576001600660156101000a81548160ff0219169083151502179055505b600073ffffffffffffffffffffffffffffffffffffffff16600760009054906101000a900473ffffffffffffffffffffffffffffffffffffffff1673ffffffffffffffffffffffffffffffffffffffff16146113e7576040517f08c379a00000000000000000000000000000000000000000000000000000000081526004016113de90611dbf565b60405180910390fd5b81600760006101000a81548173ffffffffffffffffffffffffffffffffffffffff021916908373ffffffffffffffffffffffffffffffffffffffff160217905550846008908051906020019061143e92919061173f565b50836009908051906020019061145592919061173f565b5082600a81905550600a54600a61146c9190612002565b600f8190555060006103e8905061148e600f548261171690919063ffffffff16565b600d81905550600d54600e81905550600d54600b60008573ffffffffffffffffffffffffffffffffffffffff1673ffffffffffffffffffffffffffffffffffffffff1681526020019081526020016000208190555050801561153e576000600660156101000a81548160ff0219169083151502179055507f7f26b83ff96e1f2b6a682f133852f6798a09c465da95921460cefb384740249860016040516115359190611d42565b60405180910390a15b5050505050565b7f000000000000000000000000000000000000000000000000000000000000000081565b6000600c60008473ffffffffffffffffffffffffffffffffffffffff1673ffffffffffffffffffffffffffffffffffffffff16815260200190815260200160002060008373ffffffffffffffffffffffffffffffffffffffff1673ffffffffffffffffffffffffffffffffffffffff16815260200190815260200160002054905092915050565b600f5481565b60008183611604919061217a565b905092915050565b6000818361161a9190611f59565b905092915050565b6000600660159054906101000a900460ff161561169a5760018260ff1614801561165257506116503061172c565b155b611691576040517f08c379a000000000000000000000000000000000000000000000000000000000815260040161168890611e3f565b60405180910390fd5b60009050611711565b8160ff16600660149054906101000a900460ff1660ff16106116f1576040517f08c379a00000000000000000000000000000000000000000000000000000000081526004016116e890611e3f565b60405180910390fd5b81600660146101000a81548160ff021916908360ff160217905550600190505b919050565b600081836117249190612120565b905092915050565b600080823b905060008111915050919050565b82805461174b9061226b565b90600052602060002090601f01602090048101928261176d57600085556117b4565b82601f1061178657805160ff19168380011785556117b4565b828001600101855582156117b4579182015b828111156117b3578251825591602001919060010190611798565b5b5090506117c191906117c5565b5090565b5b808211156117de5760008160009055506001016117c6565b5090565b60006117f56117f084611edf565b611eba565b90508281526020810184848401111561180d57600080fd5b611818848285612229565b509392505050565b60008135905061182f816125a8565b92915050565b600082601f83011261184657600080fd5b81356118568482602086016117e2565b91505092915050565b60008135905061186e816125bf565b92915050565b60006020828403121561188657600080fd5b600061189484828501611820565b91505092915050565b600080604083850312156118b057600080fd5b60006118be85828601611820565b92505060206118cf85828601611820565b9150509250929050565b6000806000606084860312156118ee57600080fd5b60006118fc86828701611820565b935050602061190d86828701611820565b925050604061191e8682870161185f565b9150509250925092565b6000806040838503121561193b57600080fd5b600061194985828601611820565b925050602061195a8582860161185f565b9150509250929050565b6000806000806080858703121561197a57600080fd5b600085013567ffffffffffffffff81111561199457600080fd5b6119a087828801611835565b945050602085013567ffffffffffffffff8111156119bd57600080fd5b6119c987828801611835565b93505060406119da8782880161185f565b92505060606119eb87828801611820565b91505092959194509250565b600060208284031215611a0957600080fd5b6000611a178482850161185f565b91505092915050565b611a29816121ae565b82525050565b611a38816121ae565b82525050565b611a47816121c0565b82525050565b6000611a5882611f10565b611a628185611f26565b9350611a72818560208601612238565b611a7b8161235b565b840191505092915050565b611a8f81612217565b82525050565b6000611aa082611f1b565b611aaa8185611f37565b9350611aba818560208601612238565b611ac38161235b565b840191505092915050565b6000611ad982611f1b565b611ae38185611f48565b9350611af3818560208601612238565b611afc8161235b565b840191505092915050565b6000611b14601f83611f48565b9150611b1f82612379565b602082019050919050565b6000611b37602b83611f48565b9150611b42826123a2565b604082019050919050565b6000611b5a601f83611f48565b9150611b65826123f1565b602082019050919050565b6000611b7d601283611f48565b9150611b888261241a565b602082019050919050565b6000611ba0602383611f48565b9150611bab82612443565b604082019050919050565b6000611bc3603483611f48565b9150611bce82612492565b604082019050919050565b6000611be6602e83611f48565b9150611bf1826124e1565b604082019050919050565b6000611c09602783611f48565b9150611c1482612530565b604082019050919050565b6000611c2c601c83611f48565b9150611c378261257f565b602082019050919050565b6000604083016000830151611c5a6000860182611a20565b5060208301518482036020860152611c728282611a95565b9150508091505092915050565b611c88816121ec565b82525050565b611c97816121f6565b82525050565b6000602082019050611cb26000830184611a2f565b92915050565b6000602082019050611ccd6000830184611a3e565b92915050565b600060a0820190508181036000830152611ced8188611a4d565b90508181036020830152611d018187611c42565b90508181036040830152611d158186611a4d565b9050611d246060830185611c8e565b8181036080830152611d368184611a4d565b90509695505050505050565b6000602082019050611d576000830184611a86565b92915050565b60006020820190508181036000830152611d778184611ace565b905092915050565b60006020820190508181036000830152611d9881611b07565b9050919050565b60006020820190508181036000830152611db881611b2a565b9050919050565b60006020820190508181036000830152611dd881611b4d565b9050919050565b60006020820190508181036000830152611df881611b70565b9050919050565b60006020820190508181036000830152611e1881611b93565b9050919050565b60006020820190508181036000830152611e3881611bb6565b9050919050565b60006020820190508181036000830152611e5881611bd9565b9050919050565b60006020820190508181036000830152611e7881611bfc565b9050919050565b60006020820190508181036000830152611e9881611c1f565b9050919050565b6000602082019050611eb46000830184611c7f565b92915050565b6000611ec4611ed5565b9050611ed0828261229d565b919050565b6000604051905090565b600067ffffffffffffffff821115611efa57611ef961232c565b5b611f038261235b565b9050602081019050919050565b600081519050919050565b600081519050919050565b600082825260208201905092915050565b600082825260208201905092915050565b600082825260208201905092915050565b6000611f64826121ec565b9150611f6f836121ec565b9250827fffffffffffffffffffffffffffffffffffffffffffffffffffffffffffffffff03821115611fa457611fa36122ce565b5b828201905092915050565b6000808291508390505b6001851115611ff957808604811115611fd557611fd46122ce565b5b6001851615611fe45780820291505b8081029050611ff28561236c565b9450611fb9565b94509492505050565b600061200d826121ec565b9150612018836121ec565b92506120457fffffffffffffffffffffffffffffffffffffffffffffffffffffffffffffffff848461204d565b905092915050565b60008261205d5760019050612119565b8161206b5760009050612119565b8160018114612081576002811461208b576120ba565b6001915050612119565b60ff84111561209d5761209c6122ce565b5b8360020a9150848211156120b4576120b36122ce565b5b50612119565b5060208310610133831016604e8410600b84101617156120ef5782820a9050838111156120ea576120e96122ce565b5b612119565b6120fc8484846001611faf565b92509050818404811115612113576121126122ce565b5b81810290505b9392505050565b600061212b826121ec565b9150612136836121ec565b9250817fffffffffffffffffffffffffffffffffffffffffffffffffffffffffffffffff048311821515161561216f5761216e6122ce565b5b828202905092915050565b6000612185826121ec565b9150612190836121ec565b9250828210156121a3576121a26122ce565b5b828203905092915050565b60006121b9826121cc565b9050919050565b60008115159050919050565b600073ffffffffffffffffffffffffffffffffffffffff82169050919050565b6000819050919050565b600067ffffffffffffffff82169050919050565b600060ff82169050919050565b60006122228261220a565b9050919050565b82818337600083830152505050565b60005b8381101561225657808201518184015260208101905061223b565b83811115612265576000848401525b50505050565b6000600282049050600182168061228357607f821691505b60208210811415612297576122966122fd565b5b50919050565b6122a68261235b565b810181811067ffffffffffffffff821117156122c5576122c461232c565b5b80604052505050565b7f4e487b7100000000000000000000000000000000000000000000000000000000600052601160045260246000fd5b7f4e487b7100000000000000000000000000000000000000000000000000000000600052602260045260246000fd5b7f4e487b7100000000000000000000000000000000000000000000000000000000600052604160045260246000fd5b6000601f19601f8301169050919050565b60008160011c9050919050565b7f4e6f7420656e6f7567682062616c616e636520666f72207472616e7366657200600082015250565b7f5472616e7366657220746f20746865207a65726f20616464726573732069732060008201527f6e6f7420616c6c6f776564000000000000000000000000000000000000000000602082015250565b7f436f6e747261637420697320616c726561647920696e697469616c697a656400600082015250565b7f4e6f7420656e6f7567682062616c616e63650000000000000000000000000000600082015250565b7f5472616e7366657220746f20796f757273656c66206973206e6f7420616c6c6f60008201527f7765640000000000000000000000000000000000000000000000000000000000602082015250565b7f5472616e736665722066726f6d20616e6420746f207468652073616d6520616460008201527f6472657373206973206e6f7420616c6c6f776564000000000000000000000000602082015250565b7f496e697469616c697a61626c653a20636f6e747261637420697320616c72656160008201527f647920696e697469616c697a6564000000000000000000000000000000000000602082015250565b7f4e6f7420656e6f75676820616c6c6f7765642062616c616e636520666f72207460008201527f72616e7366657200000000000000000000000000000000000000000000000000602082015250565b7f596f7520617265206e6f74207468652074656e616e74206f776e657200000000600082015250565b6125b1816121ae565b81146125bc57600080fd5b50565b6125c8816121ec565b81146125d357600080fd5b5056fea2646970667358221220bf1ce309e1b49aacb76f29b841e639454b4d8c53284fbf1c0a98ae27c9be0ff564736f6c63430008040033",
  "linkReferences": {},
  "deployedLinkReferences": {}
}