{
  "_format": "hh-sol-artifact-1",
  "contractName": "ERC20",
  "sourceName": "contracts/ERC20.sol",
  "abi": [
    {
      "inputs": [
        {
          "internalType": "address",
          "name": "_owner",
          "type": "address"
        }
      ],
      "stateMutability": "nonpayable",
      "type": "constructor"
    },
    {
      "inputs": [],
      "name": "AlreadyInitialized",
      "type": "error"
    },
    {
      "inputs": [],
      "name": "InsufficientAllowance",
      "type": "error"
    },
    {
      "inputs": [],
      "name": "InsufficientBalance",
      "type": "error"
    },
    {
      "inputs": [],
      "name": "SameAddress",
      "type": "error"
    },
    {
      "inputs": [],
      "name": "Unauthorized",
      "type": "error"
    },
    {
      "inputs": [],
      "name": "ZeroAddress",
      "type": "error"
    },
    {
      "anonymous": false,
      "inputs": [
        {
          "indexed": true,
          "internalType": "address",
          "name": "owner",
          "type": "address"
        },
        {
          "indexed": true,
          "internalType": "address",
          "name": "spender",
          "type": "address"
        },
        {
          "indexed": false,
          "internalType": "uint256",
          "name": "value",
          "type": "uint256"
        }
      ],
      "name": "Approval",
      "type": "event"
    },
    {
      "anonymous": false,
      "inputs": [
        {
          "indexed": false,
          "internalType": "uint8",
          "name": "version",
          "type": "uint8"
        }
      ],
      "name": "Initialized",
      "type": "event"
    },
    {
      "anonymous": false,
      "inputs": [
        {
          "indexed": true,
          "internalType": "address",
          "name": "from",
          "type": "address"
        },
        {
          "indexed": true,
          "internalType": "address",
          "name": "to",
          "type": "address"
        },
        {
          "indexed": false,
          "internalType": "uint256",
          "name": "value",
          "type": "uint256"
        }
      ],
      "name": "Transfer",
      "type": "event"
    },
    {
      "inputs": [],
      "name": "UNIT_MULTIPLIER",
      "outputs": [
        {
          "internalType": "uint256",
          "name": "",
          "type": "uint256"
        }
      ],
      "stateMutability": "view",
      "type": "function"
    },
    {
      "inputs": [
        {
          "internalType": "address",
          "name": "_owner",
          "type": "address"
        },
        {
          "internalType": "address",
          "name": "_spender",
          "type": "address"
        }
      ],
      "name": "allowance",
      "outputs": [
        {
          "internalType": "uint256",
          "name": "",
          "type": "uint256"
        }
      ],
      "stateMutability": "view",
      "type": "function"
    },
    {
      "inputs": [
        {
          "internalType": "address",
          "name": "_spender",
          "type": "address"
        },
        {
          "internalType": "uint256",
          "name": "_value",
          "type": "uint256"
        }
      ],
      "name": "approve",
      "outputs": [
        {
          "internalType": "bool",
          "name": "",
          "type": "bool"
        }
      ],
      "stateMutability": "nonpayable",
      "type": "function"
    },
    {
      "inputs": [],
      "name": "balance",
      "outputs": [
        {
          "internalType": "uint256",
          "name": "",
          "type": "uint256"
        }
      ],
      "stateMutability": "view",
      "type": "function"
    },
    {
      "inputs": [
        {
          "internalType": "address",
          "name": "_owner",
          "type": "address"
        }
      ],
      "name": "balanceOf",
      "outputs": [
        {
          "internalType": "uint256",
          "name": "",
          "type": "uint256"
        }
      ],
      "stateMutability": "view",
      "type": "function"
    },
    {
      "inputs": [
        {
          "internalType": "uint256",
          "name": "_amount",
          "type": "uint256"
        }
      ],
      "name": "burn",
      "outputs": [],
      "stateMutability": "nonpayable",
      "type": "function"
    },
    {
      "inputs": [],
      "name": "contractOwner",
      "outputs": [
        {
          "internalType": "address",
          "name": "",
          "type": "address"
        }
      ],
      "stateMutability": "view",
      "type": "function"
    },
    {
      "inputs": [],
      "name": "decimals",
      "outputs": [
        {
          "internalType": "uint256",
          "name": "",
          "type": "uint256"
        }
      ],
      "stateMutability": "view",
      "type": "function"
    },
    {
      "inputs": [],
      "name": "initialSupply",
      "outputs": [
        {
          "internalType": "uint256",
          "name": "",
          "type": "uint256"
        }
      ],
      "stateMutability": "view",
      "type": "function"
    },
    {
      "inputs": [
        {
          "internalType": "string",
          "name": "_name",
          "type": "string"
        },
        {
          "internalType": "string",
          "name": "_symbol",
          "type": "string"
        },
        {
          "internalType": "uint256",
          "name": "_decimal",
          "type": "uint256"
        },
        {
          "internalType": "address",
          "name": "_tenant",
          "type": "address"
        }
      ],
      "name": "initialize",
      "outputs": [],
      "stateMutability": "nonpayable",
      "type": "function"
    },
    {
      "inputs": [],
      "name": "metadata",
      "outputs": [
        {
          "internalType": "bytes",
          "name": "title",
          "type": "bytes"
        },
        {
          "components": [
            {
              "internalType": "address",
              "name": "authorAddress",
              "type": "address"
            },
            {
              "internalType": "string",
              "name": "externalLink",
              "type": "string"
            }
          ],
          "internalType": "struct IHyperverseModule.Author",
          "name": "author",
          "type": "tuple"
        },
        {
          "internalType": "bytes",
          "name": "version",
          "type": "bytes"
        },
        {
          "internalType": "uint64",
          "name": "publishedAt",
          "type": "uint64"
        },
        {
          "internalType": "bytes",
          "name": "externalLink",
          "type": "bytes"
        }
      ],
      "stateMutability": "view",
      "type": "function"
    },
    {
      "inputs": [
        {
          "internalType": "uint256",
          "name": "_amount",
          "type": "uint256"
        }
      ],
      "name": "mint",
      "outputs": [],
      "stateMutability": "nonpayable",
      "type": "function"
    },
    {
      "inputs": [],
      "name": "name",
      "outputs": [
        {
          "internalType": "string",
          "name": "",
          "type": "string"
        }
      ],
      "stateMutability": "view",
      "type": "function"
    },
    {
      "inputs": [],
      "name": "symbol",
      "outputs": [
        {
          "internalType": "string",
          "name": "",
          "type": "string"
        }
      ],
      "stateMutability": "view",
      "type": "function"
    },
    {
      "inputs": [],
      "name": "totalSupply",
      "outputs": [
        {
          "internalType": "uint256",
          "name": "",
          "type": "uint256"
        }
      ],
      "stateMutability": "view",
      "type": "function"
    },
    {
      "inputs": [
        {
          "internalType": "address",
          "name": "_to",
          "type": "address"
        },
        {
          "internalType": "uint256",
          "name": "_value",
          "type": "uint256"
        }
      ],
      "name": "transfer",
      "outputs": [
        {
          "internalType": "bool",
          "name": "",
          "type": "bool"
        }
      ],
      "stateMutability": "nonpayable",
      "type": "function"
    },
    {
      "inputs": [
        {
          "internalType": "address",
          "name": "_from",
          "type": "address"
        },
        {
          "internalType": "address",
          "name": "_to",
          "type": "address"
        },
        {
          "internalType": "uint256",
          "name": "_value",
          "type": "uint256"
        }
      ],
      "name": "transferFrom",
      "outputs": [
        {
          "internalType": "bool",
          "name": "",
          "type": "bool"
        }
      ],
      "stateMutability": "nonpayable",
      "type": "function"
    }
  ],
  "bytecode": "0x60a06040523480156200001157600080fd5b506040516200265038038062002650833981810160405281019062000037919062000403565b6040518060a001604052806040518060400160405280600581526020017f4552433230000000000000000000000000000000000000000000000000000000815250815260200160405180604001604052808473ffffffffffffffffffffffffffffffffffffffff1681526020016040518060400160405280601881526020017f68747470733a2f2f65787465726e616c6c696e6b2e6e6574000000000000000081525081525081526020016040518060400160405280600581526020017f302e302e31000000000000000000000000000000000000000000000000000000815250815260200165032a361e860667ffffffffffffffff1681526020016040518060400160405280601881526020017f68747470733a2f2f65787465726e616c4c696e6b2e6e657400000000000000008152508152506000808201518160000190805190602001906200018b929190620002ab565b5060208201518160010160008201518160000160006101000a81548173ffffffffffffffffffffffffffffffffffffffff021916908373ffffffffffffffffffffffffffffffffffffffff1602179055506020820151816001019080519060200190620001fa9291906200033c565b50505060408201518160030190805190602001906200021b929190620002ab565b5060608201518160040160006101000a81548167ffffffffffffffff021916908367ffffffffffffffff160217905550608082015181600501908051906020019062000269929190620002ab565b509050508073ffffffffffffffffffffffffffffffffffffffff1660808173ffffffffffffffffffffffffffffffffffffffff1660601b8152505050620004e2565b828054620002b99062000463565b90600052602060002090601f016020900481019282620002dd576000855562000329565b82601f10620002f857805160ff191683800117855562000329565b8280016001018555821562000329579182015b82811115620003285782518255916020019190600101906200030b565b5b509050620003389190620003cd565b5090565b8280546200034a9062000463565b90600052602060002090601f0160209004810192826200036e5760008555620003ba565b82601f106200038957805160ff1916838001178555620003ba565b82800160010185558215620003ba579182015b82811115620003b95782518255916020019190600101906200039c565b5b509050620003c99190620003cd565b5090565b5b80821115620003e8576000816000905550600101620003ce565b5090565b600081519050620003fd81620004c8565b92915050565b6000602082840312156200041657600080fd5b60006200042684828501620003ec565b91505092915050565b60006200043c8262000443565b9050919050565b600073ffffffffffffffffffffffffffffffffffffffff82169050919050565b600060028204905060018216806200047c57607f821691505b6020821081141562000493576200049262000499565b5b50919050565b7f4e487b7100000000000000000000000000000000000000000000000000000000600052602260045260246000fd5b620004d3816200042f565b8114620004df57600080fd5b50565b60805160601c61214f620005016000396000611482015261214f6000f3fe608060405234801561001057600080fd5b506004361061010b5760003560e01c806370a08231116100a2578063b69ef8a811610071578063b69ef8a8146102c0578063bd3a13f6146102de578063ce606ee0146102fa578063dd62ed3e14610318578063fc540cd3146103485761010b565b806370a082311461022657806395d89b4114610256578063a0712d6814610274578063a9059cbb146102905761010b565b8063313ce567116100de578063313ce567146101ac578063378dc3dc146101ca578063392f37e9146101e857806342966c681461020a5761010b565b806306fdde0314610110578063095ea7b31461012e57806318160ddd1461015e57806323b872dd1461017c575b600080fd5b610118610366565b6040516101259190611b80565b60405180910390f35b61014860048036038101906101439190611863565b6103f4565b6040516101559190611adb565b60405180910390f35b6101666104e6565b6040516101739190611bc2565b60405180910390f35b61019660048036038101906101919190611814565b6104ec565b6040516101a39190611adb565b60405180910390f35b6101b4610955565b6040516101c19190611bc2565b60405180910390f35b6101d261095b565b6040516101df9190611bc2565b60405180910390f35b6101f0610961565b604051610201959493929190611af6565b60405180910390f35b610224600480360381019061021f9190611932565b610c23565b005b610240600480360381019061023b91906117af565b610d3d565b60405161024d9190611bc2565b60405180910390f35b61025e610d86565b60405161026b9190611b80565b60405180910390f35b61028e60048036038101906102899190611932565b610e14565b005b6102aa60048036038101906102a59190611863565b610f73565b6040516102b79190611adb565b60405180910390f35b6102c8611258565b6040516102d59190611bc2565b60405180910390f35b6102f860048036038101906102f3919061189f565b611268565b005b610302611480565b60405161030f9190611ac0565b60405180910390f35b610332600480360381019061032d91906117d8565b6114a4565b60405161033f9190611bc2565b60405180910390f35b61035061152b565b60405161035d9190611bc2565b60405180910390f35b6008805461037390611f8e565b80601f016020809104026020016040519081016040528092919081815260200182805461039f90611f8e565b80156103ec5780601f106103c1576101008083540402835291602001916103ec565b820191906000526020600020905b8154815290600101906020018083116103cf57829003601f168201915b505050505081565b600081600c60003373ffffffffffffffffffffffffffffffffffffffff1673ffffffffffffffffffffffffffffffffffffffff16815260200190815260200160002060008573ffffffffffffffffffffffffffffffffffffffff1673ffffffffffffffffffffffffffffffffffffffff168152602001908152602001600020819055508273ffffffffffffffffffffffffffffffffffffffff163373ffffffffffffffffffffffffffffffffffffffff167f8c5be1e5ebec7d5bd14f71427d1e84f3dd0314c0f7b2291e5b200ac8c7c3b925846040516104d49190611bc2565b60405180910390a36001905092915050565b600d5481565b600083838073ffffffffffffffffffffffffffffffffffffffff168273ffffffffffffffffffffffffffffffffffffffff161415610556576040517f367558c300000000000000000000000000000000000000000000000000000000815260040160405180910390fd5b600073ffffffffffffffffffffffffffffffffffffffff168173ffffffffffffffffffffffffffffffffffffffff1614806105bd5750600073ffffffffffffffffffffffffffffffffffffffff168273ffffffffffffffffffffffffffffffffffffffff16145b156105f4576040517fd92e233d00000000000000000000000000000000000000000000000000000000815260040160405180910390fd5b83600c60008873ffffffffffffffffffffffffffffffffffffffff1673ffffffffffffffffffffffffffffffffffffffff16815260200190815260200160002060003373ffffffffffffffffffffffffffffffffffffffff1673ffffffffffffffffffffffffffffffffffffffff1681526020019081526020016000205410156106aa576040517f13be252b00000000000000000000000000000000000000000000000000000000815260040160405180910390fd5b6106fc84600b60008973ffffffffffffffffffffffffffffffffffffffff1673ffffffffffffffffffffffffffffffffffffffff1681526020019081526020016000205461153190919063ffffffff16565b600b60008873ffffffffffffffffffffffffffffffffffffffff1673ffffffffffffffffffffffffffffffffffffffff1681526020019081526020016000208190555061079184600b60008873ffffffffffffffffffffffffffffffffffffffff1673ffffffffffffffffffffffffffffffffffffffff1681526020019081526020016000205461154790919063ffffffff16565b600b60008773ffffffffffffffffffffffffffffffffffffffff1673ffffffffffffffffffffffffffffffffffffffff1681526020019081526020016000208190555061086384600c60008973ffffffffffffffffffffffffffffffffffffffff1673ffffffffffffffffffffffffffffffffffffffff16815260200190815260200160002060003373ffffffffffffffffffffffffffffffffffffffff1673ffffffffffffffffffffffffffffffffffffffff1681526020019081526020016000205461153190919063ffffffff16565b600c60008873ffffffffffffffffffffffffffffffffffffffff1673ffffffffffffffffffffffffffffffffffffffff16815260200190815260200160002060003373ffffffffffffffffffffffffffffffffffffffff1673ffffffffffffffffffffffffffffffffffffffff168152602001908152602001600020819055508473ffffffffffffffffffffffffffffffffffffffff168673ffffffffffffffffffffffffffffffffffffffff167fddf252ad1be2c89b69c2b068fc378daa952ba7f163c4a11628f55a4df523b3ef866040516109409190611bc2565b60405180910390a36001925050509392505050565b600a5481565b600e5481565b600080600001805461097290611f8e565b80601f016020809104026020016040519081016040528092919081815260200182805461099e90611f8e565b80156109eb5780601f106109c0576101008083540402835291602001916109eb565b820191906000526020600020905b8154815290600101906020018083116109ce57829003601f168201915b505050505090806001016040518060400160405290816000820160009054906101000a900473ffffffffffffffffffffffffffffffffffffffff1673ffffffffffffffffffffffffffffffffffffffff1673ffffffffffffffffffffffffffffffffffffffff168152602001600182018054610a6690611f8e565b80601f0160208091040260200160405190810160405280929190818152602001828054610a9290611f8e565b8015610adf5780601f10610ab457610100808354040283529160200191610adf565b820191906000526020600020905b815481529060010190602001808311610ac257829003601f168201915b50505050508152505090806003018054610af890611f8e565b80601f0160208091040260200160405190810160405280929190818152602001828054610b2490611f8e565b8015610b715780601f10610b4657610100808354040283529160200191610b71565b820191906000526020600020905b815481529060010190602001808311610b5457829003601f168201915b5050505050908060040160009054906101000a900467ffffffffffffffff1690806005018054610ba090611f8e565b80601f0160208091040260200160405190810160405280929190818152602001828054610bcc90611f8e565b8015610c195780601f10610bee57610100808354040283529160200191610c19565b820191906000526020600020905b815481529060010190602001808311610bfc57829003601f168201915b5050505050905085565b80610c2d33610d3d565b1015610c65576040517ff4d678b800000000000000000000000000000000000000000000000000000000815260040160405180910390fd5b80600b60003373ffffffffffffffffffffffffffffffffffffffff1673ffffffffffffffffffffffffffffffffffffffff1681526020019081526020016000206000828254610cb49190611e9d565b9250508190555080600d6000828254610ccd9190611e9d565b92505081905550600073ffffffffffffffffffffffffffffffffffffffff163373ffffffffffffffffffffffffffffffffffffffff167fddf252ad1be2c89b69c2b068fc378daa952ba7f163c4a11628f55a4df523b3ef83604051610d329190611bc2565b60405180910390a350565b6000600b60008373ffffffffffffffffffffffffffffffffffffffff1673ffffffffffffffffffffffffffffffffffffffff168152602001908152602001600020549050919050565b60098054610d9390611f8e565b80601f0160208091040260200160405190810160405280929190818152602001828054610dbf90611f8e565b8015610e0c5780601f10610de157610100808354040283529160200191610e0c565b820191906000526020600020905b815481529060010190602001808311610def57829003601f168201915b505050505081565b600760009054906101000a900473ffffffffffffffffffffffffffffffffffffffff1673ffffffffffffffffffffffffffffffffffffffff163373ffffffffffffffffffffffffffffffffffffffff1614610e9b576040517f82b4290000000000000000000000000000000000000000000000000000000000815260040160405180910390fd5b80600b60003373ffffffffffffffffffffffffffffffffffffffff1673ffffffffffffffffffffffffffffffffffffffff1681526020019081526020016000206000828254610eea9190611c7c565b9250508190555080600d6000828254610f039190611c7c565b925050819055503373ffffffffffffffffffffffffffffffffffffffff16600073ffffffffffffffffffffffffffffffffffffffff167fddf252ad1be2c89b69c2b068fc378daa952ba7f163c4a11628f55a4df523b3ef83604051610f689190611bc2565b60405180910390a350565b600033838073ffffffffffffffffffffffffffffffffffffffff168273ffffffffffffffffffffffffffffffffffffffff161415610fdd576040517f367558c300000000000000000000000000000000000000000000000000000000815260040160405180910390fd5b600073ffffffffffffffffffffffffffffffffffffffff168173ffffffffffffffffffffffffffffffffffffffff1614806110445750600073ffffffffffffffffffffffffffffffffffffffff168273ffffffffffffffffffffffffffffffffffffffff16145b1561107b576040517fd92e233d00000000000000000000000000000000000000000000000000000000815260040160405180910390fd5b8361108533610d3d565b10156110bd576040517ff4d678b800000000000000000000000000000000000000000000000000000000815260040160405180910390fd5b61110f84600b60003373ffffffffffffffffffffffffffffffffffffffff1673ffffffffffffffffffffffffffffffffffffffff1681526020019081526020016000205461153190919063ffffffff16565b600b60003373ffffffffffffffffffffffffffffffffffffffff1673ffffffffffffffffffffffffffffffffffffffff168152602001908152602001600020819055506111a484600b60008873ffffffffffffffffffffffffffffffffffffffff1673ffffffffffffffffffffffffffffffffffffffff1681526020019081526020016000205461154790919063ffffffff16565b600b60008773ffffffffffffffffffffffffffffffffffffffff1673ffffffffffffffffffffffffffffffffffffffff168152602001908152602001600020819055508473ffffffffffffffffffffffffffffffffffffffff163373ffffffffffffffffffffffffffffffffffffffff167fddf252ad1be2c89b69c2b068fc378daa952ba7f163c4a11628f55a4df523b3ef866040516112449190611bc2565b60405180910390a360019250505092915050565b600061126333610d3d565b905090565b6000611274600161155d565b90508015611298576001600660156101000a81548160ff0219169083151502179055505b81600073ffffffffffffffffffffffffffffffffffffffff16600760009054906101000a900473ffffffffffffffffffffffffffffffffffffffff1673ffffffffffffffffffffffffffffffffffffffff1614611321576040517f0dc149f000000000000000000000000000000000000000000000000000000000815260040160405180910390fd5b856008908051906020019061133792919061167a565b50846009908051906020019061134e92919061167a565b5083600a81905550600a54600a6113659190611d25565b600f8190555060006103e89050611387600f548261165190919063ffffffff16565b600d81905550600d54600e81905550600d54600b60008673ffffffffffffffffffffffffffffffffffffffff1673ffffffffffffffffffffffffffffffffffffffff1681526020019081526020016000208190555083600760006101000a81548173ffffffffffffffffffffffffffffffffffffffff021916908373ffffffffffffffffffffffffffffffffffffffff16021790555050508015611479576000600660156101000a81548160ff0219169083151502179055507f7f26b83ff96e1f2b6a682f133852f6798a09c465da95921460cefb384740249860016040516114709190611b65565b60405180910390a15b5050505050565b7f000000000000000000000000000000000000000000000000000000000000000081565b6000600c60008473ffffffffffffffffffffffffffffffffffffffff1673ffffffffffffffffffffffffffffffffffffffff16815260200190815260200160002060008373ffffffffffffffffffffffffffffffffffffffff1673ffffffffffffffffffffffffffffffffffffffff16815260200190815260200160002054905092915050565b600f5481565b6000818361153f9190611e9d565b905092915050565b600081836115559190611c7c565b905092915050565b6000600660159054906101000a900460ff16156115d55760018260ff1614801561158d575061158b30611667565b155b6115cc576040517f08c379a00000000000000000000000000000000000000000000000000000000081526004016115c390611ba2565b60405180910390fd5b6000905061164c565b8160ff16600660149054906101000a900460ff1660ff161061162c576040517f08c379a000000000000000000000000000000000000000000000000000000000815260040161162390611ba2565b60405180910390fd5b81600660146101000a81548160ff021916908360ff160217905550600190505b919050565b6000818361165f9190611e43565b905092915050565b600080823b905060008111915050919050565b82805461168690611f8e565b90600052602060002090601f0160209004810192826116a857600085556116ef565b82601f106116c157805160ff19168380011785556116ef565b828001600101855582156116ef579182015b828111156116ee5782518255916020019190600101906116d3565b5b5090506116fc9190611700565b5090565b5b80821115611719576000816000905550600101611701565b5090565b600061173061172b84611c02565b611bdd565b90508281526020810184848401111561174857600080fd5b611753848285611f4c565b509392505050565b60008135905061176a816120eb565b92915050565b600082601f83011261178157600080fd5b813561179184826020860161171d565b91505092915050565b6000813590506117a981612102565b92915050565b6000602082840312156117c157600080fd5b60006117cf8482850161175b565b91505092915050565b600080604083850312156117eb57600080fd5b60006117f98582860161175b565b925050602061180a8582860161175b565b9150509250929050565b60008060006060848603121561182957600080fd5b60006118378682870161175b565b93505060206118488682870161175b565b92505060406118598682870161179a565b9150509250925092565b6000806040838503121561187657600080fd5b60006118848582860161175b565b92505060206118958582860161179a565b9150509250929050565b600080600080608085870312156118b557600080fd5b600085013567ffffffffffffffff8111156118cf57600080fd5b6118db87828801611770565b945050602085013567ffffffffffffffff8111156118f857600080fd5b61190487828801611770565b93505060406119158782880161179a565b92505060606119268782880161175b565b91505092959194509250565b60006020828403121561194457600080fd5b60006119528482850161179a565b91505092915050565b61196481611ed1565b82525050565b61197381611ed1565b82525050565b61198281611ee3565b82525050565b600061199382611c33565b61199d8185611c49565b93506119ad818560208601611f5b565b6119b68161207e565b840191505092915050565b6119ca81611f3a565b82525050565b60006119db82611c3e565b6119e58185611c5a565b93506119f5818560208601611f5b565b6119fe8161207e565b840191505092915050565b6000611a1482611c3e565b611a1e8185611c6b565b9350611a2e818560208601611f5b565b611a378161207e565b840191505092915050565b6000611a4f602e83611c6b565b9150611a5a8261209c565b604082019050919050565b6000604083016000830151611a7d600086018261195b565b5060208301518482036020860152611a9582826119d0565b9150508091505092915050565b611aab81611f0f565b82525050565b611aba81611f19565b82525050565b6000602082019050611ad5600083018461196a565b92915050565b6000602082019050611af06000830184611979565b92915050565b600060a0820190508181036000830152611b108188611988565b90508181036020830152611b248187611a65565b90508181036040830152611b388186611988565b9050611b476060830185611ab1565b8181036080830152611b598184611988565b90509695505050505050565b6000602082019050611b7a60008301846119c1565b92915050565b60006020820190508181036000830152611b9a8184611a09565b905092915050565b60006020820190508181036000830152611bbb81611a42565b9050919050565b6000602082019050611bd76000830184611aa2565b92915050565b6000611be7611bf8565b9050611bf38282611fc0565b919050565b6000604051905090565b600067ffffffffffffffff821115611c1d57611c1c61204f565b5b611c268261207e565b9050602081019050919050565b600081519050919050565b600081519050919050565b600082825260208201905092915050565b600082825260208201905092915050565b600082825260208201905092915050565b6000611c8782611f0f565b9150611c9283611f0f565b9250827fffffffffffffffffffffffffffffffffffffffffffffffffffffffffffffffff03821115611cc757611cc6611ff1565b5b828201905092915050565b6000808291508390505b6001851115611d1c57808604811115611cf857611cf7611ff1565b5b6001851615611d075780820291505b8081029050611d158561208f565b9450611cdc565b94509492505050565b6000611d3082611f0f565b9150611d3b83611f0f565b9250611d687fffffffffffffffffffffffffffffffffffffffffffffffffffffffffffffffff8484611d70565b905092915050565b600082611d805760019050611e3c565b81611d8e5760009050611e3c565b8160018114611da45760028114611dae57611ddd565b6001915050611e3c565b60ff841115611dc057611dbf611ff1565b5b8360020a915084821115611dd757611dd6611ff1565b5b50611e3c565b5060208310610133831016604e8410600b8410161715611e125782820a905083811115611e0d57611e0c611ff1565b5b611e3c565b611e1f8484846001611cd2565b92509050818404811115611e3657611e35611ff1565b5b81810290505b9392505050565b6000611e4e82611f0f565b9150611e5983611f0f565b9250817fffffffffffffffffffffffffffffffffffffffffffffffffffffffffffffffff0483118215151615611e9257611e91611ff1565b5b828202905092915050565b6000611ea882611f0f565b9150611eb383611f0f565b925082821015611ec657611ec5611ff1565b5b828203905092915050565b6000611edc82611eef565b9050919050565b60008115159050919050565b600073ffffffffffffffffffffffffffffffffffffffff82169050919050565b6000819050919050565b600067ffffffffffffffff82169050919050565b600060ff82169050919050565b6000611f4582611f2d565b9050919050565b82818337600083830152505050565b60005b83811015611f79578082015181840152602081019050611f5e565b83811115611f88576000848401525b50505050565b60006002820490506001821680611fa657607f821691505b60208210811415611fba57611fb9612020565b5b50919050565b611fc98261207e565b810181811067ffffffffffffffff82111715611fe857611fe761204f565b5b80604052505050565b7f4e487b7100000000000000000000000000000000000000000000000000000000600052601160045260246000fd5b7f4e487b7100000000000000000000000000000000000000000000000000000000600052602260045260246000fd5b7f4e487b7100000000000000000000000000000000000000000000000000000000600052604160045260246000fd5b6000601f19601f8301169050919050565b60008160011c9050919050565b7f496e697469616c697a61626c653a20636f6e747261637420697320616c72656160008201527f647920696e697469616c697a6564000000000000000000000000000000000000602082015250565b6120f481611ed1565b81146120ff57600080fd5b50565b61210b81611f0f565b811461211657600080fd5b5056fea2646970667358221220a6dd785012d1384db756aa0d668a5784e5fb2fcf344f8323cbfb0b673c18ab1164736f6c63430008040033",
  "linkReferences": {},
  "deployedLinkReferences": {}
}