{
  "_format": "hh-sol-artifact-1",
  "contractName": "RandomPick",
  "sourceName": "contracts/RandomPick.sol",
  "abi": [
    {
      "inputs": [],
      "stateMutability": "nonpayable",
      "type": "constructor"
    },
    {
      "inputs": [
        {
          "internalType": "bytes32",
          "name": "",
          "type": "bytes32"
        },
        {
          "internalType": "uint256",
          "name": "",
          "type": "uint256"
        }
      ],
      "name": "randomList",
      "outputs": [
        {
          "internalType": "int256",
          "name": "",
          "type": "int256"
        }
      ],
      "stateMutability": "view",
      "type": "function"
    },
    {
      "inputs": [
        {
          "internalType": "bytes32",
          "name": "requestId",
          "type": "bytes32"
        },
        {
          "internalType": "uint256",
          "name": "randomness",
          "type": "uint256"
        }
      ],
      "name": "rawFulfillRandomness",
      "outputs": [],
      "stateMutability": "nonpayable",
      "type": "function"
    },
    {
      "inputs": [
        {
          "internalType": "bytes32",
          "name": "",
          "type": "bytes32"
        }
      ],
      "name": "requestIdToAddress",
      "outputs": [
        {
          "internalType": "address",
          "name": "",
          "type": "address"
        }
      ],
      "stateMutability": "view",
      "type": "function"
    },
    {
      "inputs": [
        {
          "internalType": "bytes32",
          "name": "",
          "type": "bytes32"
        }
      ],
      "name": "results",
      "outputs": [
        {
          "internalType": "int256",
          "name": "",
          "type": "int256"
        }
      ],
      "stateMutability": "view",
      "type": "function"
    },
    {
      "inputs": [
        {
          "internalType": "int256[]",
          "name": "numbers",
          "type": "int256[]"
        }
      ],
      "name": "startRandomPick",
      "outputs": [
        {
          "internalType": "bytes32",
          "name": "",
          "type": "bytes32"
        }
      ],
      "stateMutability": "nonpayable",
      "type": "function"
    }
  ],
  "bytecode": "0x60c060405234801561001057600080fd5b5073b3dccb4cf7a26f6cf6b120cf5a73875b7bbc655b7301be23585060835e02b77ef475b0cc51aa1e07098173ffffffffffffffffffffffffffffffffffffffff1660a08173ffffffffffffffffffffffffffffffffffffffff1660601b815250508073ffffffffffffffffffffffffffffffffffffffff1660808173ffffffffffffffffffffffffffffffffffffffff1660601b8152505050507f2ed0feb3e7fd2022120aa84fab1945545a9f2ffc9076fd6156fa96eaff4c131160001b60018190555067016345785d8a000060028190555060805160601c60a05160601c610e7461011d60003960008181610307015261041401526000818161015701526103d80152610e746000f3fe608060405234801561001057600080fd5b50600436106100575760003560e01c80634c6b25b11461005c578063816dd4901461008c57806394917f4c146100bc57806394985ddd146100ec578063bc64beee14610108575b600080fd5b61007660048036038101906100719190610813565b610138565b6040516100839190610a98565b60405180910390f35b6100a660048036038101906100a191906107a9565b610150565b6040516100b39190610a0f565b60405180910390f35b6100d660048036038101906100d1919061083c565b6102d4565b6040516100e39190610a98565b60405180910390f35b6101066004803603810190610101919061083c565b610305565b005b610122600480360381019061011d9190610813565b6103a1565b60405161012f91906109b6565b60405180910390f35b60036020528060005260406000206000915090505481565b60006002547f000000000000000000000000000000000000000000000000000000000000000073ffffffffffffffffffffffffffffffffffffffff166370a08231306040518263ffffffff1660e01b81526004016101ae91906109b6565b60206040518083038186803b1580156101c657600080fd5b505afa1580156101da573d6000803e3d6000fd5b505050506040513d601f19601f820116820180604052508101906101fe9190610878565b101561023f576040517f08c379a000000000000000000000000000000000000000000000000000000000815260040161023690610ab3565b60405180910390fd5b600061024f6001546002546103d4565b905082600460008381526020019081526020016000209080519060200190610278929190610640565b50336005600083815260200190815260200160002060006101000a81548173ffffffffffffffffffffffffffffffffffffffff021916908373ffffffffffffffffffffffffffffffffffffffff16021790555080915050919050565b600460205281600052604060002081815481106102f057600080fd5b90600052602060002001600091509150505481565b7f000000000000000000000000000000000000000000000000000000000000000073ffffffffffffffffffffffffffffffffffffffff163373ffffffffffffffffffffffffffffffffffffffff1614610393576040517f08c379a000000000000000000000000000000000000000000000000000000000815260040161038a90610ad3565b60405180910390fd5b61039d8282610533565b5050565b60056020528060005260406000206000915054906101000a900473ffffffffffffffffffffffffffffffffffffffff1681565b60007f000000000000000000000000000000000000000000000000000000000000000073ffffffffffffffffffffffffffffffffffffffff16634000aea07f000000000000000000000000000000000000000000000000000000000000000084866000604051602001610448929190610a2a565b6040516020818303038152906040526040518463ffffffff1660e01b8152600401610475939291906109d1565b602060405180830381600087803b15801561048f57600080fd5b505af11580156104a3573d6000803e3d6000fd5b505050506040513d601f19601f820116820180604052508101906104c791906107ea565b5060006104e984600030600080898152602001908152602001600020546105d1565b905060016000808681526020019081526020016000205461050a9190610b71565b6000808681526020019081526020016000208190555061052a848261060d565b91505092915050565b6000600460008481526020019081526020016000208054905090506000818361055c9190610c9b565b90506004600085815260200190815260200160002081815481106105a9577f4e487b7100000000000000000000000000000000000000000000000000000000600052603260045260246000fd5b9060005260206000200154600360008681526020019081526020016000208190555050505050565b6000848484846040516020016105ea9493929190610a53565b6040516020818303038152906040528051906020012060001c9050949350505050565b6000828260405160200161062292919061098a565b60405160208183030381529060405280519060200120905092915050565b82805482825590600052602060002090810192821561067c579160200282015b8281111561067b578251825591602001919060010190610660565b5b509050610689919061068d565b5090565b5b808211156106a657600081600090555060010161068e565b5090565b60006106bd6106b884610b18565b610af3565b905080838252602082019050828560208602820111156106dc57600080fd5b60005b8581101561070c57816106f2888261076a565b8452602084019350602083019250506001810190506106df565b5050509392505050565b600082601f83011261072757600080fd5b81356107378482602086016106aa565b91505092915050565b60008151905061074f81610de2565b92915050565b60008135905061076481610df9565b92915050565b60008135905061077981610e10565b92915050565b60008135905061078e81610e27565b92915050565b6000815190506107a381610e27565b92915050565b6000602082840312156107bb57600080fd5b600082013567ffffffffffffffff8111156107d557600080fd5b6107e184828501610716565b91505092915050565b6000602082840312156107fc57600080fd5b600061080a84828501610740565b91505092915050565b60006020828403121561082557600080fd5b600061083384828501610755565b91505092915050565b6000806040838503121561084f57600080fd5b600061085d85828601610755565b925050602061086e8582860161077f565b9150509250929050565b60006020828403121561088a57600080fd5b600061089884828501610794565b91505092915050565b6108aa81610bc7565b82525050565b6108b981610be5565b82525050565b6108d06108cb82610be5565b610c87565b82525050565b60006108e182610b44565b6108eb8185610b4f565b93506108fb818560208601610c23565b61090481610d59565b840191505092915050565b61091881610bef565b82525050565b600061092b602b83610b60565b915061093682610d6a565b604082019050919050565b600061094e601f83610b60565b915061095982610db9565b602082019050919050565b61096d81610c19565b82525050565b61098461097f82610c19565b610c91565b82525050565b600061099682856108bf565b6020820191506109a68284610973565b6020820191508190509392505050565b60006020820190506109cb60008301846108a1565b92915050565b60006060820190506109e660008301866108a1565b6109f36020830185610964565b8181036040830152610a0581846108d6565b9050949350505050565b6000602082019050610a2460008301846108b0565b92915050565b6000604082019050610a3f60008301856108b0565b610a4c6020830184610964565b9392505050565b6000608082019050610a6860008301876108b0565b610a756020830186610964565b610a8260408301856108a1565b610a8f6060830184610964565b95945050505050565b6000602082019050610aad600083018461090f565b92915050565b60006020820190508181036000830152610acc8161091e565b9050919050565b60006020820190508181036000830152610aec81610941565b9050919050565b6000610afd610b0e565b9050610b098282610c56565b919050565b6000604051905090565b600067ffffffffffffffff821115610b3357610b32610d2a565b5b602082029050602081019050919050565b600081519050919050565b600082825260208201905092915050565b600082825260208201905092915050565b6000610b7c82610c19565b9150610b8783610c19565b9250827fffffffffffffffffffffffffffffffffffffffffffffffffffffffffffffffff03821115610bbc57610bbb610ccc565b5b828201905092915050565b6000610bd282610bf9565b9050919050565b60008115159050919050565b6000819050919050565b6000819050919050565b600073ffffffffffffffffffffffffffffffffffffffff82169050919050565b6000819050919050565b60005b83811015610c41578082015181840152602081019050610c26565b83811115610c50576000848401525b50505050565b610c5f82610d59565b810181811067ffffffffffffffff82111715610c7e57610c7d610d2a565b5b80604052505050565b6000819050919050565b6000819050919050565b6000610ca682610c19565b9150610cb183610c19565b925082610cc157610cc0610cfb565b5b828206905092915050565b7f4e487b7100000000000000000000000000000000000000000000000000000000600052601160045260246000fd5b7f4e487b7100000000000000000000000000000000000000000000000000000000600052601260045260246000fd5b7f4e487b7100000000000000000000000000000000000000000000000000000000600052604160045260246000fd5b6000601f19601f8301169050919050565b7f4e6f7420656e6f756768204c494e4b202d2066696c6c20636f6e74726163742060008201527f7769746820666175636574000000000000000000000000000000000000000000602082015250565b7f4f6e6c7920565246436f6f7264696e61746f722063616e2066756c66696c6c00600082015250565b610deb81610bd9565b8114610df657600080fd5b50565b610e0281610be5565b8114610e0d57600080fd5b50565b610e1981610bef565b8114610e2457600080fd5b50565b610e3081610c19565b8114610e3b57600080fd5b5056fea26469706673582212201a5240d51292192cca8ff4b9d8d22847cf0c1d158f1496e65a633eb39ae4fd3964736f6c63430008040033",
  "linkReferences": {},
  "deployedLinkReferences": {}
}