{
  "_format": "hh-sol-artifact-1",
  "contractName": "RandomPick",
  "sourceName": "contracts/RandomPick.sol",
  "abi": [
    {
      "inputs": [],
      "stateMutability": "nonpayable",
      "type": "constructor"
    },
    {
      "inputs": [
        {
          "internalType": "bytes32",
          "name": "",
          "type": "bytes32"
        },
        {
          "internalType": "uint256",
          "name": "",
          "type": "uint256"
        }
      ],
      "name": "randomList",
      "outputs": [
        {
          "internalType": "int256",
          "name": "",
          "type": "int256"
        }
      ],
      "stateMutability": "view",
      "type": "function"
    },
    {
      "inputs": [
        {
          "internalType": "bytes32",
          "name": "requestId",
          "type": "bytes32"
        },
        {
          "internalType": "uint256",
          "name": "randomness",
          "type": "uint256"
        }
      ],
      "name": "rawFulfillRandomness",
      "outputs": [],
      "stateMutability": "nonpayable",
      "type": "function"
    },
    {
      "inputs": [
        {
          "internalType": "bytes32",
          "name": "",
          "type": "bytes32"
        }
      ],
      "name": "requestIdToAddress",
      "outputs": [
        {
          "internalType": "address",
          "name": "",
          "type": "address"
        }
      ],
      "stateMutability": "view",
      "type": "function"
    },
    {
      "inputs": [
        {
          "internalType": "address",
          "name": "",
          "type": "address"
        }
      ],
      "name": "results",
      "outputs": [
        {
          "internalType": "int256",
          "name": "",
          "type": "int256"
        }
      ],
      "stateMutability": "view",
      "type": "function"
    },
    {
      "inputs": [
        {
          "internalType": "int256[]",
          "name": "numbers",
          "type": "int256[]"
        }
      ],
      "name": "startRandomPick",
      "outputs": [
        {
          "internalType": "bytes32",
          "name": "",
          "type": "bytes32"
        }
      ],
      "stateMutability": "nonpayable",
      "type": "function"
    }
  ],
  "bytecode": "0x60c060405234801561001057600080fd5b5073b3dccb4cf7a26f6cf6b120cf5a73875b7bbc655b7301be23585060835e02b77ef475b0cc51aa1e07098173ffffffffffffffffffffffffffffffffffffffff1660a08173ffffffffffffffffffffffffffffffffffffffff1660601b815250508073ffffffffffffffffffffffffffffffffffffffff1660808173ffffffffffffffffffffffffffffffffffffffff1660601b8152505050507f2ed0feb3e7fd2022120aa84fab1945545a9f2ffc9076fd6156fa96eaff4c131160001b60018190555067016345785d8a000060028190555060805160601c60a05160601c610f2861011d600039600081816102ef015261041401526000818161013f01526103d80152610f286000f3fe608060405234801561001057600080fd5b50600436106100575760003560e01c8063816dd4901461005c57806394917f4c1461008c57806394985ddd146100bc578063bc64beee146100d8578063ef378f6214610108575b600080fd5b61007660048036038101906100719190610846565b610138565b6040516100839190610aac565b60405180910390f35b6100a660048036038101906100a191906108d9565b6102bc565b6040516100b39190610b35565b60405180910390f35b6100d660048036038101906100d191906108d9565b6102ed565b005b6100f260048036038101906100ed91906108b0565b610389565b6040516100ff9190610a53565b60405180910390f35b610122600480360381019061011d919061081d565b6103bc565b60405161012f9190610b35565b60405180910390f35b60006002547f000000000000000000000000000000000000000000000000000000000000000073ffffffffffffffffffffffffffffffffffffffff166370a08231306040518263ffffffff1660e01b81526004016101969190610a53565b60206040518083038186803b1580156101ae57600080fd5b505afa1580156101c2573d6000803e3d6000fd5b505050506040513d601f19601f820116820180604052508101906101e69190610915565b1015610227576040517f08c379a000000000000000000000000000000000000000000000000000000000815260040161021e90610b50565b60405180910390fd5b60006102376001546002546103d4565b90508260046000838152602001908152602001600020908051906020019061026092919061069f565b50336005600083815260200190815260200160002060006101000a81548173ffffffffffffffffffffffffffffffffffffffff021916908373ffffffffffffffffffffffffffffffffffffffff16021790555080915050919050565b600460205281600052604060002081815481106102d857600080fd5b90600052602060002001600091509150505481565b7f000000000000000000000000000000000000000000000000000000000000000073ffffffffffffffffffffffffffffffffffffffff163373ffffffffffffffffffffffffffffffffffffffff161461037b576040517f08c379a000000000000000000000000000000000000000000000000000000000815260040161037290610b70565b60405180910390fd5b6103858282610533565b5050565b60056020528060005260406000206000915054906101000a900473ffffffffffffffffffffffffffffffffffffffff1681565b60036020528060005260406000206000915090505481565b60007f000000000000000000000000000000000000000000000000000000000000000073ffffffffffffffffffffffffffffffffffffffff16634000aea07f000000000000000000000000000000000000000000000000000000000000000084866000604051602001610448929190610ac7565b6040516020818303038152906040526040518463ffffffff1660e01b815260040161047593929190610a6e565b602060405180830381600087803b15801561048f57600080fd5b505af11580156104a3573d6000803e3d6000fd5b505050506040513d601f19601f820116820180604052508101906104c79190610887565b5060006104e98460003060008089815260200190815260200160002054610630565b905060016000808681526020019081526020016000205461050a9190610c0e565b6000808681526020019081526020016000208190555061052a848261066c565b91505092915050565b6000600460008481526020019081526020016000208054905090506000818361055c9190610d38565b90506004600085815260200190815260200160002081815481106105a9577f4e487b7100000000000000000000000000000000000000000000000000000000600052603260045260246000fd5b9060005260206000200154600360006005600088815260200190815260200160002060009054906101000a900473ffffffffffffffffffffffffffffffffffffffff1673ffffffffffffffffffffffffffffffffffffffff1673ffffffffffffffffffffffffffffffffffffffff1681526020019081526020016000208190555050505050565b6000848484846040516020016106499493929190610af0565b6040516020818303038152906040528051906020012060001c9050949350505050565b60008282604051602001610681929190610a27565b60405160208183030381529060405280519060200120905092915050565b8280548282559060005260206000209081019282156106db579160200282015b828111156106da5782518255916020019190600101906106bf565b5b5090506106e891906106ec565b5090565b5b808211156107055760008160009055506001016106ed565b5090565b600061071c61071784610bb5565b610b90565b9050808382526020820190508285602086028201111561073b57600080fd5b60005b8581101561076b578161075188826107de565b84526020840193506020830192505060018101905061073e565b5050509392505050565b60008135905061078481610e7f565b92915050565b600082601f83011261079b57600080fd5b81356107ab848260208601610709565b91505092915050565b6000815190506107c381610e96565b92915050565b6000813590506107d881610ead565b92915050565b6000813590506107ed81610ec4565b92915050565b60008135905061080281610edb565b92915050565b60008151905061081781610edb565b92915050565b60006020828403121561082f57600080fd5b600061083d84828501610775565b91505092915050565b60006020828403121561085857600080fd5b600082013567ffffffffffffffff81111561087257600080fd5b61087e8482850161078a565b91505092915050565b60006020828403121561089957600080fd5b60006108a7848285016107b4565b91505092915050565b6000602082840312156108c257600080fd5b60006108d0848285016107c9565b91505092915050565b600080604083850312156108ec57600080fd5b60006108fa858286016107c9565b925050602061090b858286016107f3565b9150509250929050565b60006020828403121561092757600080fd5b600061093584828501610808565b91505092915050565b61094781610c64565b82525050565b61095681610c82565b82525050565b61096d61096882610c82565b610d24565b82525050565b600061097e82610be1565b6109888185610bec565b9350610998818560208601610cc0565b6109a181610df6565b840191505092915050565b6109b581610c8c565b82525050565b60006109c8602b83610bfd565b91506109d382610e07565b604082019050919050565b60006109eb601f83610bfd565b91506109f682610e56565b602082019050919050565b610a0a81610cb6565b82525050565b610a21610a1c82610cb6565b610d2e565b82525050565b6000610a33828561095c565b602082019150610a438284610a10565b6020820191508190509392505050565b6000602082019050610a68600083018461093e565b92915050565b6000606082019050610a83600083018661093e565b610a906020830185610a01565b8181036040830152610aa28184610973565b9050949350505050565b6000602082019050610ac1600083018461094d565b92915050565b6000604082019050610adc600083018561094d565b610ae96020830184610a01565b9392505050565b6000608082019050610b05600083018761094d565b610b126020830186610a01565b610b1f604083018561093e565b610b2c6060830184610a01565b95945050505050565b6000602082019050610b4a60008301846109ac565b92915050565b60006020820190508181036000830152610b69816109bb565b9050919050565b60006020820190508181036000830152610b89816109de565b9050919050565b6000610b9a610bab565b9050610ba68282610cf3565b919050565b6000604051905090565b600067ffffffffffffffff821115610bd057610bcf610dc7565b5b602082029050602081019050919050565b600081519050919050565b600082825260208201905092915050565b600082825260208201905092915050565b6000610c1982610cb6565b9150610c2483610cb6565b9250827fffffffffffffffffffffffffffffffffffffffffffffffffffffffffffffffff03821115610c5957610c58610d69565b5b828201905092915050565b6000610c6f82610c96565b9050919050565b60008115159050919050565b6000819050919050565b6000819050919050565b600073ffffffffffffffffffffffffffffffffffffffff82169050919050565b6000819050919050565b60005b83811015610cde578082015181840152602081019050610cc3565b83811115610ced576000848401525b50505050565b610cfc82610df6565b810181811067ffffffffffffffff82111715610d1b57610d1a610dc7565b5b80604052505050565b6000819050919050565b6000819050919050565b6000610d4382610cb6565b9150610d4e83610cb6565b925082610d5e57610d5d610d98565b5b828206905092915050565b7f4e487b7100000000000000000000000000000000000000000000000000000000600052601160045260246000fd5b7f4e487b7100000000000000000000000000000000000000000000000000000000600052601260045260246000fd5b7f4e487b7100000000000000000000000000000000000000000000000000000000600052604160045260246000fd5b6000601f19601f8301169050919050565b7f4e6f7420656e6f756768204c494e4b202d2066696c6c20636f6e74726163742060008201527f7769746820666175636574000000000000000000000000000000000000000000602082015250565b7f4f6e6c7920565246436f6f7264696e61746f722063616e2066756c66696c6c00600082015250565b610e8881610c64565b8114610e9357600080fd5b50565b610e9f81610c76565b8114610eaa57600080fd5b50565b610eb681610c82565b8114610ec157600080fd5b50565b610ecd81610c8c565b8114610ed857600080fd5b50565b610ee481610cb6565b8114610eef57600080fd5b5056fea264697066735822122085305b40be3b918d1128b2d93960d0a90aaeb3c964b786de0408ade2160693e264736f6c63430008040033",
  "linkReferences": {},
  "deployedLinkReferences": {}
}