{
  "_format": "hh-sol-artifact-1",
  "contractName": "RandomPick",
  "sourceName": "contracts/RandomPick.sol",
  "abi": [
    {
      "inputs": [
        {
          "internalType": "address",
          "name": "vrfCoordinator",
          "type": "address"
        },
        {
          "internalType": "address",
          "name": "linkToken",
          "type": "address"
        },
        {
          "internalType": "bytes32",
          "name": "key",
          "type": "bytes32"
        }
      ],
      "stateMutability": "nonpayable",
      "type": "constructor"
    },
    {
      "anonymous": false,
      "inputs": [
        {
          "indexed": false,
          "internalType": "address",
          "name": "tenant",
          "type": "address"
        },
        {
          "indexed": false,
          "internalType": "bytes32",
          "name": "requestId",
          "type": "bytes32"
        }
      ],
      "name": "StartedRandomPick",
      "type": "event"
    },
    {
      "inputs": [
        {
          "internalType": "bytes32",
          "name": "",
          "type": "bytes32"
        },
        {
          "internalType": "uint256",
          "name": "",
          "type": "uint256"
        }
      ],
      "name": "randomList",
      "outputs": [
        {
          "internalType": "int256",
          "name": "",
          "type": "int256"
        }
      ],
      "stateMutability": "view",
      "type": "function"
    },
    {
      "inputs": [
        {
          "internalType": "bytes32",
          "name": "requestId",
          "type": "bytes32"
        },
        {
          "internalType": "uint256",
          "name": "randomness",
          "type": "uint256"
        }
      ],
      "name": "rawFulfillRandomness",
      "outputs": [],
      "stateMutability": "nonpayable",
      "type": "function"
    },
    {
      "inputs": [
        {
          "internalType": "bytes32",
          "name": "",
          "type": "bytes32"
        }
      ],
      "name": "requestIdToAddress",
      "outputs": [
        {
          "internalType": "address",
          "name": "",
          "type": "address"
        }
      ],
      "stateMutability": "view",
      "type": "function"
    },
    {
      "inputs": [
        {
          "internalType": "bytes32",
          "name": "",
          "type": "bytes32"
        }
      ],
      "name": "results",
      "outputs": [
        {
          "internalType": "int256",
          "name": "",
          "type": "int256"
        }
      ],
      "stateMutability": "view",
      "type": "function"
    },
    {
      "inputs": [
        {
          "internalType": "int256[]",
          "name": "numbers",
          "type": "int256[]"
        }
      ],
      "name": "startRandomPick",
      "outputs": [
        {
          "internalType": "bytes32",
          "name": "",
          "type": "bytes32"
        }
      ],
      "stateMutability": "nonpayable",
      "type": "function"
    }
  ],
  "bytecode": "0x60c06040523480156200001157600080fd5b50604051620010ce380380620010ce8339818101604052810190620000379190620000f6565b82828173ffffffffffffffffffffffffffffffffffffffff1660a08173ffffffffffffffffffffffffffffffffffffffff1660601b815250508073ffffffffffffffffffffffffffffffffffffffff1660808173ffffffffffffffffffffffffffffffffffffffff1660601b8152505050508060018190555067016345785d8a0000600281905550505050620001be565b600081519050620000d9816200018a565b92915050565b600081519050620000f081620001a4565b92915050565b6000806000606084860312156200010c57600080fd5b60006200011c86828701620000c8565b93505060206200012f86828701620000c8565b92505060406200014286828701620000df565b9150509250925092565b600062000159826200016a565b9050919050565b6000819050919050565b600073ffffffffffffffffffffffffffffffffffffffff82169050919050565b62000195816200014c565b8114620001a157600080fd5b50565b620001af8162000160565b8114620001bb57600080fd5b50565b60805160601c60a05160601c610ed6620001f860003960008181610340015261044d01526000818161015701526104110152610ed66000f3fe608060405234801561001057600080fd5b50600436106100575760003560e01c80634c6b25b11461005c578063816dd4901461008c57806394917f4c146100bc57806394985ddd146100ec578063bc64beee14610108575b600080fd5b6100766004803603810190610071919061084c565b610138565b6040516100839190610afa565b60405180910390f35b6100a660048036038101906100a191906107e2565b610150565b6040516100b39190610a71565b60405180910390f35b6100d660048036038101906100d19190610875565b61030d565b6040516100e39190610afa565b60405180910390f35b61010660048036038101906101019190610875565b61033e565b005b610122600480360381019061011d919061084c565b6103da565b60405161012f91906109ef565b60405180910390f35b60036020528060005260406000206000915090505481565b60006002547f000000000000000000000000000000000000000000000000000000000000000073ffffffffffffffffffffffffffffffffffffffff166370a08231306040518263ffffffff1660e01b81526004016101ae91906109ef565b60206040518083038186803b1580156101c657600080fd5b505afa1580156101da573d6000803e3d6000fd5b505050506040513d601f19601f820116820180604052508101906101fe91906108b1565b101561023f576040517f08c379a000000000000000000000000000000000000000000000000000000000815260040161023690610b15565b60405180910390fd5b600061024f60015460025461040d565b905082600460008381526020019081526020016000209080519060200190610278929190610679565b50336005600083815260200190815260200160002060006101000a81548173ffffffffffffffffffffffffffffffffffffffff021916908373ffffffffffffffffffffffffffffffffffffffff1602179055507f3d95cbc75e00c352f4ac7c91bc32f77836c6eff14f4cbef2a3eb8905a4eca7b433826040516102fc929190610a0a565b60405180910390a180915050919050565b6004602052816000526040600020818154811061032957600080fd5b90600052602060002001600091509150505481565b7f000000000000000000000000000000000000000000000000000000000000000073ffffffffffffffffffffffffffffffffffffffff163373ffffffffffffffffffffffffffffffffffffffff16146103cc576040517f08c379a00000000000000000000000000000000000000000000000000000000081526004016103c390610b35565b60405180910390fd5b6103d6828261056c565b5050565b60056020528060005260406000206000915054906101000a900473ffffffffffffffffffffffffffffffffffffffff1681565b60007f000000000000000000000000000000000000000000000000000000000000000073ffffffffffffffffffffffffffffffffffffffff16634000aea07f000000000000000000000000000000000000000000000000000000000000000084866000604051602001610481929190610a8c565b6040516020818303038152906040526040518463ffffffff1660e01b81526004016104ae93929190610a33565b602060405180830381600087803b1580156104c857600080fd5b505af11580156104dc573d6000803e3d6000fd5b505050506040513d601f19601f820116820180604052508101906105009190610823565b506000610522846000306000808981526020019081526020016000205461060a565b90506001600080868152602001908152602001600020546105439190610bd3565b600080868152602001908152602001600020819055506105638482610646565b91505092915050565b600060046000848152602001908152602001600020805490509050600081836105959190610cfd565b90506004600085815260200190815260200160002081815481106105e2577f4e487b7100000000000000000000000000000000000000000000000000000000600052603260045260246000fd5b9060005260206000200154600360008681526020019081526020016000208190555050505050565b6000848484846040516020016106239493929190610ab5565b6040516020818303038152906040528051906020012060001c9050949350505050565b6000828260405160200161065b9291906109c3565b60405160208183030381529060405280519060200120905092915050565b8280548282559060005260206000209081019282156106b5579160200282015b828111156106b4578251825591602001919060010190610699565b5b5090506106c291906106c6565b5090565b5b808211156106df5760008160009055506001016106c7565b5090565b60006106f66106f184610b7a565b610b55565b9050808382526020820190508285602086028201111561071557600080fd5b60005b85811015610745578161072b88826107a3565b845260208401935060208301925050600181019050610718565b5050509392505050565b600082601f83011261076057600080fd5b81356107708482602086016106e3565b91505092915050565b60008151905061078881610e44565b92915050565b60008135905061079d81610e5b565b92915050565b6000813590506107b281610e72565b92915050565b6000813590506107c781610e89565b92915050565b6000815190506107dc81610e89565b92915050565b6000602082840312156107f457600080fd5b600082013567ffffffffffffffff81111561080e57600080fd5b61081a8482850161074f565b91505092915050565b60006020828403121561083557600080fd5b600061084384828501610779565b91505092915050565b60006020828403121561085e57600080fd5b600061086c8482850161078e565b91505092915050565b6000806040838503121561088857600080fd5b60006108968582860161078e565b92505060206108a7858286016107b8565b9150509250929050565b6000602082840312156108c357600080fd5b60006108d1848285016107cd565b91505092915050565b6108e381610c29565b82525050565b6108f281610c47565b82525050565b61090961090482610c47565b610ce9565b82525050565b600061091a82610ba6565b6109248185610bb1565b9350610934818560208601610c85565b61093d81610dbb565b840191505092915050565b61095181610c51565b82525050565b6000610964602b83610bc2565b915061096f82610dcc565b604082019050919050565b6000610987601f83610bc2565b915061099282610e1b565b602082019050919050565b6109a681610c7b565b82525050565b6109bd6109b882610c7b565b610cf3565b82525050565b60006109cf82856108f8565b6020820191506109df82846109ac565b6020820191508190509392505050565b6000602082019050610a0460008301846108da565b92915050565b6000604082019050610a1f60008301856108da565b610a2c60208301846108e9565b9392505050565b6000606082019050610a4860008301866108da565b610a55602083018561099d565b8181036040830152610a67818461090f565b9050949350505050565b6000602082019050610a8660008301846108e9565b92915050565b6000604082019050610aa160008301856108e9565b610aae602083018461099d565b9392505050565b6000608082019050610aca60008301876108e9565b610ad7602083018661099d565b610ae460408301856108da565b610af1606083018461099d565b95945050505050565b6000602082019050610b0f6000830184610948565b92915050565b60006020820190508181036000830152610b2e81610957565b9050919050565b60006020820190508181036000830152610b4e8161097a565b9050919050565b6000610b5f610b70565b9050610b6b8282610cb8565b919050565b6000604051905090565b600067ffffffffffffffff821115610b9557610b94610d8c565b5b602082029050602081019050919050565b600081519050919050565b600082825260208201905092915050565b600082825260208201905092915050565b6000610bde82610c7b565b9150610be983610c7b565b9250827fffffffffffffffffffffffffffffffffffffffffffffffffffffffffffffffff03821115610c1e57610c1d610d2e565b5b828201905092915050565b6000610c3482610c5b565b9050919050565b60008115159050919050565b6000819050919050565b6000819050919050565b600073ffffffffffffffffffffffffffffffffffffffff82169050919050565b6000819050919050565b60005b83811015610ca3578082015181840152602081019050610c88565b83811115610cb2576000848401525b50505050565b610cc182610dbb565b810181811067ffffffffffffffff82111715610ce057610cdf610d8c565b5b80604052505050565b6000819050919050565b6000819050919050565b6000610d0882610c7b565b9150610d1383610c7b565b925082610d2357610d22610d5d565b5b828206905092915050565b7f4e487b7100000000000000000000000000000000000000000000000000000000600052601160045260246000fd5b7f4e487b7100000000000000000000000000000000000000000000000000000000600052601260045260246000fd5b7f4e487b7100000000000000000000000000000000000000000000000000000000600052604160045260246000fd5b6000601f19601f8301169050919050565b7f4e6f7420656e6f756768204c494e4b202d2066696c6c20636f6e74726163742060008201527f7769746820666175636574000000000000000000000000000000000000000000602082015250565b7f4f6e6c7920565246436f6f7264696e61746f722063616e2066756c66696c6c00600082015250565b610e4d81610c3b565b8114610e5857600080fd5b50565b610e6481610c47565b8114610e6f57600080fd5b50565b610e7b81610c51565b8114610e8657600080fd5b50565b610e9281610c7b565b8114610e9d57600080fd5b5056fea264697066735822122077e0b9c801d7478b29c8e9a6afdf2ad3b5e810372e8e97634420ffd5dafb066d64736f6c63430008040033",
  "linkReferences": {},
  "deployedLinkReferences": {}
}