{
  "_format": "hh-sol-artifact-1",
  "contractName": "FluidNFT",
  "sourceName": "contracts/FluidNFT.sol",
  "abi": [
    {
      "inputs": [],
      "stateMutability": "nonpayable",
      "type": "constructor"
    },
    {
      "anonymous": false,
      "inputs": [
        {
          "indexed": true,
          "internalType": "address",
          "name": "owner",
          "type": "address"
        },
        {
          "indexed": true,
          "internalType": "address",
          "name": "approved",
          "type": "address"
        },
        {
          "indexed": true,
          "internalType": "uint256",
          "name": "tokenId",
          "type": "uint256"
        }
      ],
      "name": "Approval",
      "type": "event"
    },
    {
      "anonymous": false,
      "inputs": [
        {
          "indexed": true,
          "internalType": "address",
          "name": "owner",
          "type": "address"
        },
        {
          "indexed": true,
          "internalType": "address",
          "name": "operator",
          "type": "address"
        },
        {
          "indexed": false,
          "internalType": "bool",
          "name": "approved",
          "type": "bool"
        }
      ],
      "name": "ApprovalForAll",
      "type": "event"
    },
    {
      "anonymous": false,
      "inputs": [
        {
          "indexed": false,
          "internalType": "uint256",
          "name": "tokenId",
          "type": "uint256"
        },
        {
          "indexed": false,
          "internalType": "address",
          "name": "receiver",
          "type": "address"
        },
        {
          "indexed": false,
          "internalType": "int96",
          "name": "flowRate",
          "type": "int96"
        }
      ],
      "name": "NFTIssued",
      "type": "event"
    },
    {
      "anonymous": false,
      "inputs": [
        {
          "indexed": true,
          "internalType": "address",
          "name": "previousOwner",
          "type": "address"
        },
        {
          "indexed": true,
          "internalType": "address",
          "name": "newOwner",
          "type": "address"
        }
      ],
      "name": "OwnershipTransferred",
      "type": "event"
    },
    {
      "anonymous": false,
      "inputs": [
        {
          "indexed": true,
          "internalType": "address",
          "name": "from",
          "type": "address"
        },
        {
          "indexed": true,
          "internalType": "address",
          "name": "to",
          "type": "address"
        },
        {
          "indexed": true,
          "internalType": "uint256",
          "name": "tokenId",
          "type": "uint256"
        }
      ],
      "name": "Transfer",
      "type": "event"
    },
    {
      "anonymous": false,
      "inputs": [
        {
          "indexed": false,
          "internalType": "address",
          "name": "_from",
          "type": "address"
        },
        {
          "indexed": false,
          "internalType": "address",
          "name": "_destAddr",
          "type": "address"
        },
        {
          "indexed": false,
          "internalType": "uint256",
          "name": "_amount",
          "type": "uint256"
        }
      ],
      "name": "TransferSent",
      "type": "event"
    },
    {
      "inputs": [],
      "name": "_acceptedToken",
      "outputs": [
        {
          "internalType": "contract ISuperToken",
          "name": "",
          "type": "address"
        }
      ],
      "stateMutability": "view",
      "type": "function"
    },
    {
      "inputs": [
        {
          "internalType": "address",
          "name": "",
          "type": "address"
        }
      ],
      "name": "addressMintedBalance",
      "outputs": [
        {
          "internalType": "uint256",
          "name": "",
          "type": "uint256"
        }
      ],
      "stateMutability": "view",
      "type": "function"
    },
    {
      "inputs": [
        {
          "internalType": "address",
          "name": "to",
          "type": "address"
        },
        {
          "internalType": "uint256",
          "name": "tokenId",
          "type": "uint256"
        }
      ],
      "name": "approve",
      "outputs": [],
      "stateMutability": "nonpayable",
      "type": "function"
    },
    {
      "inputs": [
        {
          "internalType": "address",
          "name": "owner",
          "type": "address"
        }
      ],
      "name": "balanceOf",
      "outputs": [
        {
          "internalType": "uint256",
          "name": "",
          "type": "uint256"
        }
      ],
      "stateMutability": "view",
      "type": "function"
    },
    {
      "inputs": [],
      "name": "baseURI",
      "outputs": [
        {
          "internalType": "string",
          "name": "",
          "type": "string"
        }
      ],
      "stateMutability": "view",
      "type": "function"
    },
    {
      "inputs": [
        {
          "internalType": "uint256",
          "name": "tokenId",
          "type": "uint256"
        }
      ],
      "name": "burnNFT",
      "outputs": [],
      "stateMutability": "nonpayable",
      "type": "function"
    },
    {
      "inputs": [
        {
          "internalType": "int96",
          "name": "_flowRate",
          "type": "int96"
        }
      ],
      "name": "changeFlowRate",
      "outputs": [],
      "stateMutability": "nonpayable",
      "type": "function"
    },
    {
      "inputs": [
        {
          "internalType": "uint256",
          "name": "_newmaxSupplyAmount",
          "type": "uint256"
        }
      ],
      "name": "changeMaxSupply",
      "outputs": [],
      "stateMutability": "nonpayable",
      "type": "function"
    },
    {
      "inputs": [],
      "name": "contractOwner",
      "outputs": [
        {
          "internalType": "address",
          "name": "",
          "type": "address"
        }
      ],
      "stateMutability": "view",
      "type": "function"
    },
    {
      "inputs": [],
      "name": "cost",
      "outputs": [
        {
          "internalType": "uint256",
          "name": "",
          "type": "uint256"
        }
      ],
      "stateMutability": "view",
      "type": "function"
    },
    {
      "inputs": [
        {
          "internalType": "uint256",
          "name": "",
          "type": "uint256"
        }
      ],
      "name": "flowRates",
      "outputs": [
        {
          "internalType": "int96",
          "name": "",
          "type": "int96"
        }
      ],
      "stateMutability": "view",
      "type": "function"
    },
    {
      "inputs": [
        {
          "internalType": "uint256",
          "name": "tokenId",
          "type": "uint256"
        }
      ],
      "name": "getApproved",
      "outputs": [
        {
          "internalType": "address",
          "name": "",
          "type": "address"
        }
      ],
      "stateMutability": "view",
      "type": "function"
    },
    {
      "inputs": [
        {
          "internalType": "string",
          "name": "name_",
          "type": "string"
        },
        {
          "internalType": "string",
          "name": "symbol_",
          "type": "string"
        },
        {
          "internalType": "address",
          "name": "_tenant",
          "type": "address"
        },
        {
          "internalType": "contract ISuperfluid",
          "name": "host",
          "type": "address"
        },
        {
          "internalType": "contract IConstantFlowAgreementV1",
          "name": "cfa",
          "type": "address"
        },
        {
          "internalType": "contract ISuperToken",
          "name": "acceptedToken",
          "type": "address"
        }
      ],
      "name": "init",
      "outputs": [],
      "stateMutability": "nonpayable",
      "type": "function"
    },
    {
      "inputs": [],
      "name": "initialized",
      "outputs": [
        {
          "internalType": "bool",
          "name": "",
          "type": "bool"
        }
      ],
      "stateMutability": "view",
      "type": "function"
    },
    {
      "inputs": [
        {
          "internalType": "address",
          "name": "owner",
          "type": "address"
        },
        {
          "internalType": "address",
          "name": "operator",
          "type": "address"
        }
      ],
      "name": "isApprovedForAll",
      "outputs": [
        {
          "internalType": "bool",
          "name": "",
          "type": "bool"
        }
      ],
      "stateMutability": "view",
      "type": "function"
    },
    {
      "inputs": [],
      "name": "issueNFT",
      "outputs": [],
      "stateMutability": "payable",
      "type": "function"
    },
    {
      "inputs": [],
      "name": "maxSupply",
      "outputs": [
        {
          "internalType": "uint256",
          "name": "",
          "type": "uint256"
        }
      ],
      "stateMutability": "view",
      "type": "function"
    },
    {
      "inputs": [],
      "name": "name",
      "outputs": [
        {
          "internalType": "string",
          "name": "",
          "type": "string"
        }
      ],
      "stateMutability": "view",
      "type": "function"
    },
    {
      "inputs": [],
      "name": "nftBaseURI",
      "outputs": [
        {
          "internalType": "string",
          "name": "",
          "type": "string"
        }
      ],
      "stateMutability": "view",
      "type": "function"
    },
    {
      "inputs": [],
      "name": "owner",
      "outputs": [
        {
          "internalType": "address",
          "name": "",
          "type": "address"
        }
      ],
      "stateMutability": "view",
      "type": "function"
    },
    {
      "inputs": [
        {
          "internalType": "uint256",
          "name": "tokenId",
          "type": "uint256"
        }
      ],
      "name": "ownerOf",
      "outputs": [
        {
          "internalType": "address",
          "name": "",
          "type": "address"
        }
      ],
      "stateMutability": "view",
      "type": "function"
    },
    {
      "inputs": [
        {
          "internalType": "bool",
          "name": "_state",
          "type": "bool"
        }
      ],
      "name": "pause",
      "outputs": [],
      "stateMutability": "nonpayable",
      "type": "function"
    },
    {
      "inputs": [],
      "name": "paused",
      "outputs": [
        {
          "internalType": "bool",
          "name": "",
          "type": "bool"
        }
      ],
      "stateMutability": "view",
      "type": "function"
    },
    {
      "inputs": [],
      "name": "renounceOwnership",
      "outputs": [],
      "stateMutability": "nonpayable",
      "type": "function"
    },
    {
      "inputs": [
        {
          "internalType": "address",
          "name": "from",
          "type": "address"
        },
        {
          "internalType": "address",
          "name": "to",
          "type": "address"
        },
        {
          "internalType": "uint256",
          "name": "tokenId",
          "type": "uint256"
        }
      ],
      "name": "safeTransferFrom",
      "outputs": [],
      "stateMutability": "nonpayable",
      "type": "function"
    },
    {
      "inputs": [
        {
          "internalType": "address",
          "name": "from",
          "type": "address"
        },
        {
          "internalType": "address",
          "name": "to",
          "type": "address"
        },
        {
          "internalType": "uint256",
          "name": "tokenId",
          "type": "uint256"
        },
        {
          "internalType": "bytes",
          "name": "_data",
          "type": "bytes"
        }
      ],
      "name": "safeTransferFrom",
      "outputs": [],
      "stateMutability": "nonpayable",
      "type": "function"
    },
    {
      "inputs": [
        {
          "internalType": "address",
          "name": "operator",
          "type": "address"
        },
        {
          "internalType": "bool",
          "name": "approved",
          "type": "bool"
        }
      ],
      "name": "setApprovalForAll",
      "outputs": [],
      "stateMutability": "nonpayable",
      "type": "function"
    },
    {
      "inputs": [
        {
          "internalType": "uint256",
          "name": "_newCost",
          "type": "uint256"
        }
      ],
      "name": "setCost",
      "outputs": [],
      "stateMutability": "nonpayable",
      "type": "function"
    },
    {
      "inputs": [
        {
          "internalType": "string",
          "name": "_nftBaseURI",
          "type": "string"
        }
      ],
      "name": "setNFTBaseURI",
      "outputs": [],
      "stateMutability": "nonpayable",
      "type": "function"
    },
    {
      "inputs": [
        {
          "internalType": "bytes4",
          "name": "interfaceId",
          "type": "bytes4"
        }
      ],
      "name": "supportsInterface",
      "outputs": [
        {
          "internalType": "bool",
          "name": "",
          "type": "bool"
        }
      ],
      "stateMutability": "view",
      "type": "function"
    },
    {
      "inputs": [],
      "name": "symbol",
      "outputs": [
        {
          "internalType": "string",
          "name": "",
          "type": "string"
        }
      ],
      "stateMutability": "view",
      "type": "function"
    },
    {
      "inputs": [],
      "name": "tokenCounter",
      "outputs": [
        {
          "internalType": "uint256",
          "name": "",
          "type": "uint256"
        }
      ],
      "stateMutability": "view",
      "type": "function"
    },
    {
      "inputs": [],
      "name": "tokenFlowRate",
      "outputs": [
        {
          "internalType": "int96",
          "name": "",
          "type": "int96"
        }
      ],
      "stateMutability": "view",
      "type": "function"
    },
    {
      "inputs": [
        {
          "internalType": "uint256",
          "name": "tokenId",
          "type": "uint256"
        }
      ],
      "name": "tokenURI",
      "outputs": [
        {
          "internalType": "string",
          "name": "",
          "type": "string"
        }
      ],
      "stateMutability": "view",
      "type": "function"
    },
    {
      "inputs": [
        {
          "internalType": "contract IERC20",
          "name": "token",
          "type": "address"
        },
        {
          "internalType": "address",
          "name": "_to",
          "type": "address"
        },
        {
          "internalType": "uint256",
          "name": "_amount",
          "type": "uint256"
        }
      ],
      "name": "transferERC20",
      "outputs": [],
      "stateMutability": "nonpayable",
      "type": "function"
    },
    {
      "inputs": [
        {
          "internalType": "address",
          "name": "from",
          "type": "address"
        },
        {
          "internalType": "address",
          "name": "to",
          "type": "address"
        },
        {
          "internalType": "uint256",
          "name": "tokenId",
          "type": "uint256"
        }
      ],
      "name": "transferFrom",
      "outputs": [],
      "stateMutability": "nonpayable",
      "type": "function"
    },
    {
      "inputs": [
        {
          "internalType": "address",
          "name": "newOwner",
          "type": "address"
        }
      ],
      "name": "transferOwnership",
      "outputs": [],
      "stateMutability": "nonpayable",
      "type": "function"
    },
    {
      "inputs": [],
      "name": "withdraw",
      "outputs": [],
      "stateMutability": "payable",
      "type": "function"
    }
  ],
  "bytecode": "0x600f80546001600160601b03191666015ee2a32055b8179055662386f26fc100006010556005601155610100604052603c60a08181529062002e4060c0398051620000539160139160209091019062000144565b506014805460ff191690553480156200006b57600080fd5b506200007e6301ffc9a760e01b620000e5565b60006200008a62000140565b600980546001600160a01b0319166001600160a01b038316908117909155604051919250906000907f8be0079c531659141344cd1fd0a4f28419497f9722a3daafe3b4186f6b6457e0908290a3503360601b60805262000217565b6001600160e01b031980821614156200011b5760405162461bcd60e51b81526004016200011290620001e0565b60405180910390fd5b6001600160e01b0319166000908152602081905260409020805460ff19166001179055565b3390565b828054600181600116156101000203166002900490600052602060002090601f016020900481019282601f106200018757805160ff1916838001178555620001b7565b82800160010185558215620001b7579182015b82811115620001b75782518255916020019190600101906200019a565b50620001c5929150620001c9565b5090565b5b80821115620001c55760008155600101620001ca565b6020808252601c908201527f4552433136353a20696e76616c696420696e7465726661636520696400000000604082015260600190565b60805160601c612c0b62000235600039806111fa5250612c0b6000f3fe6080604052600436106102255760003560e01c80636c0360eb11610123578063a30735b0116100ab578063d5abeb011161006f578063d5abeb01146105e2578063daa886b1146105f7578063db8116b714610617578063e985e9c51461062c578063f2fde38b1461064c57610225565b8063a30735b014610558578063b88d4fde14610578578063c87b56dd14610598578063ce606ee0146105b8578063d082e381146105cd57610225565b80638da5cb5b116100f25780638da5cb5b146104d9578063933de0ac146104ee57806395d89b41146105035780639db5dbe414610518578063a22cb4651461053857610225565b80636c0360eb1461046257806370a0823114610477578063715018a61461049757806379bcb8df146104ac57610225565b806323b872dd116101b157806344a0d68a1161017557806344a0d68a146103d85780634e5b3c7c146103f85780635c975abb1461040d5780636352211e14610422578063663de5cb1461044257610225565b806323b872dd146103505780632890e0d7146103705780633ccfd60b14610390578063404c7cdd1461039857806342842e0e146103b857610225565b8063095ea7b3116101f8578063095ea7b3146102d157806310287b85146102f157806313faede6146102f9578063158ef93e1461031b57806318cae2691461033057610225565b806301ffc9a71461022a57806302329a291461026057806306fdde0314610282578063081812fc146102a4575b600080fd5b34801561023657600080fd5b5061024a6102453660046120fa565b61066c565b60405161025791906123e6565b60405180910390f35b34801561026c57600080fd5b5061028061027b3660046120c2565b6106b2565b005b34801561028e57600080fd5b5061029761070d565b60405161025791906124d3565b3480156102b057600080fd5b506102c46102bf3660046122a0565b6107a2565b6040516102579190612358565b3480156102dd57600080fd5b506102806102ec366004612097565b6107e5565b61028061087d565b34801561030557600080fd5b5061030e61099a565b6040516102579190612aeb565b34801561032757600080fd5b5061024a6109a0565b34801561033c57600080fd5b5061030e61034b366004611f6c565b6109a9565b34801561035c57600080fd5b5061028061036b366004611fc0565b6109bb565b34801561037c57600080fd5b5061028061038b3660046122a0565b6109f3565b610280610aa0565b3480156103a457600080fd5b506102806103b33660046122a0565b610b4b565b3480156103c457600080fd5b506102806103d3366004611fc0565b610b8f565b3480156103e457600080fd5b506102806103f33660046122a0565b610baa565b34801561040457600080fd5b506102c4610bee565b34801561041957600080fd5b5061024a610bfd565b34801561042e57600080fd5b506102c461043d3660046122a0565b610c06565b34801561044e57600080fd5b5061028061045d3660046121a5565b610c3b565b34801561046e57600080fd5b50610297610ca6565b34801561048357600080fd5b5061030e610492366004611f6c565b610d07565b3480156104a357600080fd5b50610280610d4b565b3480156104b857600080fd5b506104cc6104c73660046122a0565b610dd4565b60405161025791906124c5565b3480156104e557600080fd5b506102c4610de9565b3480156104fa57600080fd5b506104cc610df8565b34801561050f57600080fd5b50610297610e01565b34801561052457600080fd5b50610280610533366004611fc0565b610e5f565b34801561054457600080fd5b5061028061055336600461206a565b611001565b34801561056457600080fd5b506102806105733660046121f4565b611017565b34801561058457600080fd5b50610280610593366004612000565b611146565b3480156105a457600080fd5b506102976105b33660046122a0565b61117f565b3480156105c457600080fd5b506102c46111f8565b3480156105d957600080fd5b5061030e61121c565b3480156105ee57600080fd5b5061030e611222565b34801561060357600080fd5b506102806106123660046121c1565b611228565b34801561062357600080fd5b5061029761127a565b34801561063857600080fd5b5061024a610647366004611f88565b611308565b34801561065857600080fd5b50610280610667366004611f6c565b611336565b60006001600160e01b031982166380ac58cd60e01b148061069d57506001600160e01b03198216635b5e139f60e01b145b806106ac57506106ac826113f7565b92915050565b6106ba611416565b6001600160a01b03166106cb610de9565b6001600160a01b0316146106fa5760405162461bcd60e51b81526004016106f190612912565b60405180910390fd5b6014805460ff1916911515919091179055565b60018054604080516020601f600260001961010087891615020190951694909404938401819004810282018101909252828152606093909290918301828280156107985780601f1061076d57610100808354040283529160200191610798565b820191906000526020600020905b81548152906001019060200180831161077b57829003601f168201915b5050505050905090565b60006107ad8261141a565b6107c95760405162461bcd60e51b81526004016106f1906128c6565b506000908152600660205260409020546001600160a01b031690565b60006107f082610c06565b9050806001600160a01b0316836001600160a01b031614156108245760405162461bcd60e51b81526004016106f1906129c6565b806001600160a01b0316610836611416565b6001600160a01b03161480610852575061085281610647611416565b61086e5760405162461bcd60e51b81526004016106f19061272f565b6108788383611437565b505050565b60145460ff16156108a05760405162461bcd60e51b81526004016106f190612947565b333014156108c05760405162461bcd60e51b81526004016106f190612a07565b60115460125411156108e45760405162461bcd60e51b81526004016106f19061281f565b6010543410156109065760405162461bcd60e51b81526004016106f190612a37565b60128054600101808255600f546000918252600d602052604080832080546001600160601b0319166bffffffffffffffffffffffff600b94850b850b161790559254808352918390205492517f6e89a354929848553af9a2898855fe0486bb36807f1512041a8fcf8e19f4a584936109849392339291900b90612af4565b60405180910390a1610998336012546114a5565b565b60105481565b60035460ff1681565b600e6020526000908152604090205481565b6109cc6109c6611416565b826114bf565b6109e85760405162461bcd60e51b81526004016106f190612a63565b610878838383611544565b6109fb611416565b6001600160a01b0316610a0c610de9565b6001600160a01b031614610a325760405162461bcd60e51b81526004016106f190612912565b80610a3c8161141a565b610a585760405162461bcd60e51b81526004016106f19061250f565b6000610a6383610c06565b6000848152600d6020526040902080546001600160601b03198116909155909150600b0b610a908461163c565b610a9a82826116d1565b50505050565b610aa8611416565b6001600160a01b0316610ab9610de9565b6001600160a01b031614610adf5760405162461bcd60e51b81526004016106f190612912565b6000336001600160a01b031647604051610af890612355565b60006040518083038185875af1925050503d8060008114610b35576040519150601f19603f3d011682016040523d82523d6000602084013e610b3a565b606091505b5050905080610b4857600080fd5b50565b610b53611416565b6001600160a01b0316610b64610de9565b6001600160a01b031614610b8a5760405162461bcd60e51b81526004016106f190612912565b601155565b61087883838360405180602001604052806000815250611146565b610bb2611416565b6001600160a01b0316610bc3610de9565b6001600160a01b031614610be95760405162461bcd60e51b81526004016106f190612912565b601055565b600c546001600160a01b031681565b60145460ff1681565b6000818152600460205260408120546001600160a01b0316806106ac5760405162461bcd60e51b81526004016106f1906127d6565b610c43611416565b6001600160a01b0316610c54610de9565b6001600160a01b031614610c7a5760405162461bcd60e51b81526004016106f190612912565b600f8054600b9290920b6bffffffffffffffffffffffff166001600160601b0319909216919091179055565b60088054604080516020601f60026000196101006001881615020190951694909404938401819004810282018101909252828152606093909290918301828280156107985780601f1061076d57610100808354040283529160200191610798565b60006001600160a01b038216610d2f5760405162461bcd60e51b81526004016106f19061278c565b506001600160a01b031660009081526005602052604090205490565b610d53611416565b6001600160a01b0316610d64610de9565b6001600160a01b031614610d8a5760405162461bcd60e51b81526004016106f190612912565b6009546040516000916001600160a01b0316907f8be0079c531659141344cd1fd0a4f28419497f9722a3daafe3b4186f6b6457e0908390a3600980546001600160a01b0319169055565b600d60205260009081526040902054600b0b81565b6009546001600160a01b031690565b600f54600b0b81565b60028054604080516020601f60001961010060018716150201909416859004938401819004810282018101909252828152606093909290918301828280156107985780601f1061076d57610100808354040283529160200191610798565b610e67611416565b6001600160a01b0316610e78610de9565b6001600160a01b031614610e9e5760405162461bcd60e51b81526004016106f190612912565b6040516370a0823160e01b81526000906001600160a01b038516906370a0823190610ecd903090600401612358565b60206040518083038186803b158015610ee557600080fd5b505afa158015610ef9573d6000803e3d6000fd5b505050506040513d601f19601f82011682018060405250810190610f1d91906122b8565b905080821115610f3f5760405162461bcd60e51b81526004016106f1906124e6565b60405163a9059cbb60e01b81526001600160a01b0385169063a9059cbb90610f6d90869086906004016123cd565b602060405180830381600087803b158015610f8757600080fd5b505af1158015610f9b573d6000803e3d6000fd5b505050506040513d601f19601f82011682018060405250810190610fbf91906120de565b507ffda3a3e0e1479b43cb1c701f7576187f4c4ad80768d627387e00184302f7d88e338484604051610ff39392919061236c565b60405180910390a150505050565b61101361100c611416565b83836117af565b5050565b6110218686611852565b600a80546001600160a01b03199081166001600160a01b038681169190911792839055600b80548316868316179055600c80549092168482161790915560148054610100600160a81b0319166101008884160217905560006012551661108357fe5b600b546001600160a01b031661109557fe5b600c546001600160a01b03166110a757fe5b60138054604080516020601f6002600019610100600188161502019095169490940493840181900481028201810190925282815261113e93909290918301828280156111345780601f1061110957610100808354040283529160200191611134565b820191906000526020600020905b81548152906001019060200180831161111757829003601f168201915b50505050506118ae565b505050505050565b611157611151611416565b836114bf565b6111735760405162461bcd60e51b81526004016106f190612a63565b610a9a848484846118c1565b606061118a8261141a565b6111a65760405162461bcd60e51b81526004016106f190612977565b60606111b0610ca6565b905060008151116111d057604051806020016040528060008152506111f1565b806040516020016111e19190612339565b6040516020818303038152906040525b9392505050565b7f000000000000000000000000000000000000000000000000000000000000000081565b60125481565b60115481565b611230611416565b6001600160a01b0316611241610de9565b6001600160a01b0316146112675760405162461bcd60e51b81526004016106f190612912565b8051611013906013906020840190611e86565b6013805460408051602060026001851615610100026000190190941693909304601f810184900484028201840190925281815292918301828280156113005780601f106112d557610100808354040283529160200191611300565b820191906000526020600020905b8154815290600101906020018083116112e357829003601f168201915b505050505081565b6001600160a01b03918216600090815260076020908152604080832093909416825291909152205460ff1690565b61133e611416565b6001600160a01b031661134f610de9565b6001600160a01b0316146113755760405162461bcd60e51b81526004016106f190612912565b6001600160a01b03811661139b5760405162461bcd60e51b81526004016106f1906125a6565b6009546040516001600160a01b038084169216907f8be0079c531659141344cd1fd0a4f28419497f9722a3daafe3b4186f6b6457e090600090a3600980546001600160a01b0319166001600160a01b0392909216919091179055565b6001600160e01b03191660009081526020819052604090205460ff1690565b3390565b6000908152600460205260409020546001600160a01b0316151590565b600081815260066020526040902080546001600160a01b0319166001600160a01b038416908117909155819061146c82610c06565b6001600160a01b03167f8c5be1e5ebec7d5bd14f71427d1e84f3dd0314c0f7b2291e5b200ac8c7c3b92560405160405180910390a45050565b6110138282604051806020016040528060008152506118f4565b60006114ca8261141a565b6114e65760405162461bcd60e51b81526004016106f1906126e3565b60006114f183610c06565b9050806001600160a01b0316846001600160a01b0316148061152c5750836001600160a01b0316611521846107a2565b6001600160a01b0316145b8061153c575061153c8185611308565b949350505050565b826001600160a01b031661155782610c06565b6001600160a01b03161461157d5760405162461bcd60e51b81526004016106f1906125ec565b6001600160a01b0382166115a35760405162461bcd60e51b81526004016106f190612668565b6115ae838383611927565b6115b9600082611437565b6001600160a01b038084166000818152600560209081526040808320805460001901905593861680835284832080546001019055858352600490915283822080546001600160a01b031916821790559251849392917fddf252ad1be2c89b69c2b068fc378daa952ba7f163c4a11628f55a4df523b3ef91a4610878838383610878565b600061164782610c06565b905061165581600084611927565b611660600083611437565b6001600160a01b03811660008181526005602090815260408083208054600019019055858352600490915280822080546001600160a01b0319169055518492907fddf252ad1be2c89b69c2b068fc378daa952ba7f163c4a11628f55a4df523b3ef908390a461101381600084610878565b6001600160a01b0382163014156116e757611013565b600b54600c54604051631cd43d1160e31b81526000926001600160a01b039081169263e6a1e88892611723929091169030908890600401612438565b60806040518083038186803b15801561173b57600080fd5b505afa15801561174f573d6000803e3d6000fd5b505050506040513d601f19601f8201168201806040525081019061177391906122d0565b505091505081600b0b81600b0b1415611795576117903084611a11565b610878565b81600b0b81600b0b13156108785761087883838303611af8565b816001600160a01b0316836001600160a01b031614156117e15760405162461bcd60e51b81526004016106f1906126ac565b6001600160a01b0383811660008181526007602090815260408083209487168084529490915290819020805460ff1916851515179055517f17307eab39ab6107e8899845ad3d59bd9653f200f220920489ca2b5937696c31906118459085906123e6565b60405180910390a3505050565b60035460ff16156118755760405162461bcd60e51b81526004016106f190612ab4565b8151611888906001906020850190611e86565b50805161189c906002906020840190611e86565b50506003805460ff1916600117905550565b8051611013906008906020840190611e86565b6118cc848484611544565b6118d884848484611b8d565b610a9a5760405162461bcd60e51b81526004016106f190612554565b6118fe8383611ca8565b61190b6000848484611b8d565b6108785760405162461bcd60e51b81526004016106f190612554565b600a54604051631e51d6a760e11b81526001600160a01b0390911690633ca3ad4e90611957908590600401612358565b60206040518083038186803b15801561196f57600080fd5b505afa158015611983573d6000803e3d6000fd5b505050506040513d601f19601f820116820180604052508101906119a791906120de565b15806119bb57506001600160a01b03821630145b6119d75760405162461bcd60e51b81526004016106f19061284f565b6000818152600d60205260409020546119f4908490600b0b6116d1565b6000818152600d6020526040902054610878908390600b0b611d73565b600a54600b54600c546040805160008152602081019091526001600160a01b03938416936339255d5b93811692635a5999e360e11b92611a5c9290911690889088906044810161245b565b60408051601f198184030181529181526020820180516001600160e01b03166001600160e01b03199485161790525160e085901b9092168252611aa292916004016123f1565b600060405180830381600087803b158015611abc57600080fd5b505af1158015611ad0573d6000803e3d6000fd5b505050506040513d6000823e601f3d908101601f191682016040526108789190810190612132565b6001600160a01b038216301480611b1657506001600160a01b038216155b15611b2057611013565b600a54600b54600c546001600160a01b03928316926339255d5b928116916328104d3160e11b911686866000805b506040519080825280601f01601f191660200182016040528015611b79576020820181803683370190505b50604051602401611a5c949392919061248f565b6000611ba1846001600160a01b0316611e26565b15611c9d57836001600160a01b031663150b7a02611bbd611416565b8786866040518563ffffffff1660e01b8152600401611bdf9493929190612390565b602060405180830381600087803b158015611bf957600080fd5b505af1925050508015611c29575060408051601f3d908101601f19168201909252611c2691810190612116565b60015b611c83573d808015611c57576040519150601f19603f3d011682016040523d82523d6000602084013e611c5c565b606091505b508051611c7b5760405162461bcd60e51b81526004016106f190612554565b805181602001fd5b6001600160e01b031916630a85bd0160e11b14905061153c565b506001949350505050565b6001600160a01b038216611cce5760405162461bcd60e51b81526004016106f190612891565b611cd78161141a565b15611cf45760405162461bcd60e51b81526004016106f190612631565b611d0060008383611927565b6001600160a01b038216600081815260056020908152604080832080546001019055848352600490915280822080546001600160a01b0319168417905551839291907fddf252ad1be2c89b69c2b068fc378daa952ba7f163c4a11628f55a4df523b3ef908290a461101360008383610878565b600b54600c54604051631cd43d1160e31b81526000926001600160a01b039081169263e6a1e88892611daf929091169030908890600401612438565b60806040518083038186803b158015611dc757600080fd5b505afa158015611ddb573d6000803e3d6000fd5b505050506040513d601f19601f82011682018060405250810190611dff91906122d0565b505091505080600b0b60001415611e1a576117908383611e2c565b61087883838301611af8565b3b151590565b6001600160a01b038216301480611e4a57506001600160a01b038216155b15611e5457611013565b600a54600b54600c546001600160a01b03928316926339255d5b9281169163317e182f60e11b91168686600080611b4e565b828054600181600116156101000203166002900490600052602060002090601f016020900481019282601f10611ec757805160ff1916838001178555611ef4565b82800160010185558215611ef4579182015b82811115611ef4578251825591602001919060010190611ed9565b50611f00929150611f04565b5090565b5b80821115611f005760008155600101611f05565b600082601f830112611f29578081fd5b8135611f3c611f3782612b3d565b612b16565b9150808252836020828501011115611f5357600080fd5b8060208401602084013760009082016020015292915050565b600060208284031215611f7d578081fd5b81356111f181612b8d565b60008060408385031215611f9a578081fd5b8235611fa581612b8d565b91506020830135611fb581612b8d565b809150509250929050565b600080600060608486031215611fd4578081fd5b8335611fdf81612b8d565b92506020840135611fef81612b8d565b929592945050506040919091013590565b60008060008060808587031215612015578081fd5b843561202081612b8d565b9350602085013561203081612b8d565b925060408501359150606085013567ffffffffffffffff811115612052578182fd5b61205e87828801611f19565b91505092959194509250565b6000806040838503121561207c578182fd5b823561208781612b8d565b91506020830135611fb581612ba2565b600080604083850312156120a9578182fd5b82356120b481612b8d565b946020939093013593505050565b6000602082840312156120d3578081fd5b81356111f181612ba2565b6000602082840312156120ef578081fd5b81516111f181612ba2565b60006020828403121561210b578081fd5b81356111f181612bb0565b600060208284031215612127578081fd5b81516111f181612bb0565b600060208284031215612143578081fd5b815167ffffffffffffffff811115612159578182fd5b8201601f81018413612169578182fd5b8051612177611f3782612b3d565b81815285602083850101111561218b578384fd5b61219c826020830160208601612b61565b95945050505050565b6000602082840312156121b6578081fd5b81356111f181612bc6565b6000602082840312156121d2578081fd5b813567ffffffffffffffff8111156121e8578182fd5b61153c84828501611f19565b60008060008060008060c0878903121561220c578384fd5b863567ffffffffffffffff80821115612223578586fd5b61222f8a838b01611f19565b97506020890135915080821115612244578586fd5b5061225189828a01611f19565b955050604087013561226281612b8d565b9350606087013561227281612b8d565b9250608087013561228281612b8d565b915060a087013561229281612b8d565b809150509295509295509295565b6000602082840312156122b1578081fd5b5035919050565b6000602082840312156122c9578081fd5b5051919050565b600080600080608085870312156122e5578182fd5b8451935060208501516122f781612bc6565b6040860151606090960151949790965092505050565b60008151808452612325816020860160208601612b61565b601f01601f19169290920160200192915050565b6000825161234b818460208701612b61565b9190910192915050565b90565b6001600160a01b0391909116815260200190565b6001600160a01b039384168152919092166020820152604081019190915260600190565b6001600160a01b03858116825284166020820152604081018390526080606082018190526000906123c39083018461230d565b9695505050505050565b6001600160a01b03929092168252602082015260400190565b901515815260200190565b6001600160a01b03831681526060602082018190526000906124159083018461230d565b8281036040938401526002815261060f60f31b6020820152919091019392505050565b6001600160a01b0393841681529183166020830152909116604082015260600190565b6001600160a01b0385811682528481166020830152831660408201526080606082018190526000906123c39083018461230d565b6001600160a01b03858116825284166020820152600b83900b60408201526080606082018190526000906123c39083018461230d565b600b9190910b815260200190565b6000602082526111f1602083018461230d565b6020808252600f908201526e42616c616e636520746f6f206c6f7760881b604082015260600190565b60208082526025908201527f746f6b656e20646f65736e2774206578697374206f7220686173206265656e20604082015264189d5c9b9d60da1b606082015260800190565b60208082526032908201527f4552433732313a207472616e7366657220746f206e6f6e20455243373231526560408201527131b2b4bb32b91034b6b83632b6b2b73a32b960711b606082015260800190565b60208082526026908201527f4f776e61626c653a206e6577206f776e657220697320746865207a65726f206160408201526564647265737360d01b606082015260800190565b60208082526025908201527f4552433732313a207472616e736665722066726f6d20696e636f72726563742060408201526437bbb732b960d91b606082015260800190565b6020808252601c908201527f4552433732313a20746f6b656e20616c7265616479206d696e74656400000000604082015260600190565b60208082526024908201527f4552433732313a207472616e7366657220746f20746865207a65726f206164646040820152637265737360e01b606082015260800190565b60208082526019908201527f4552433732313a20617070726f766520746f2063616c6c657200000000000000604082015260600190565b6020808252602c908201527f4552433732313a206f70657261746f7220717565727920666f72206e6f6e657860408201526b34b9ba32b73a103a37b5b2b760a11b606082015260800190565b60208082526038908201527f4552433732313a20617070726f76652063616c6c6572206973206e6f74206f7760408201527f6e6572206e6f7220617070726f76656420666f7220616c6c0000000000000000606082015260800190565b6020808252602a908201527f4552433732313a2062616c616e636520717565727920666f7220746865207a65604082015269726f206164647265737360b01b606082015260800190565b60208082526029908201527f4552433732313a206f776e657220717565727920666f72206e6f6e657869737460408201526832b73a103a37b5b2b760b91b606082015260800190565b6020808252601690820152751b585e08139195081b1a5b5a5d08195e18d95959195960521b604082015260600190565b60208082526022908201527f4e65772072656365697665722063616e206e6f74206265206120737570657241604082015261070760f41b606082015260800190565b6020808252818101527f4552433732313a206d696e7420746f20746865207a65726f2061646472657373604082015260600190565b6020808252602c908201527f4552433732313a20617070726f76656420717565727920666f72206e6f6e657860408201526b34b9ba32b73a103a37b5b2b760a11b606082015260800190565b6020808252818101527f4f776e61626c653a2063616c6c6572206973206e6f7420746865206f776e6572604082015260600190565b6020808252601690820152751d1a194818dbdb9d1c9858dd081a5cc81c185d5cd95960521b604082015260600190565b6020808252602f908201527f4552433732314d657461646174613a2055524920717565727920666f72206e6f60408201526e3732bc34b9ba32b73a103a37b5b2b760891b606082015260800190565b60208082526021908201527f4552433732313a20617070726f76616c20746f2063757272656e74206f776e656040820152603960f91b606082015260800190565b602080825260169082015275497373756520746f2061206e6577206164647265737360501b604082015260600190565b602080825260129082015271696e73756666696369656e742066756e647360701b604082015260600190565b60208082526031908201527f4552433732313a207472616e736665722063616c6c6572206973206e6f74206f6040820152701ddb995c881b9bdc88185c1c1c9bdd9959607a1b606082015260800190565b6020808252601e908201527f416c726561647920696e697469616c697a6564207468652073746174652e0000604082015260600190565b90815260200190565b9283526001600160a01b03919091166020830152600b0b604082015260600190565b60405181810167ffffffffffffffff81118282101715612b3557600080fd5b604052919050565b600067ffffffffffffffff821115612b53578081fd5b50601f01601f191660200190565b60005b83811015612b7c578181015183820152602001612b64565b83811115610a9a5750506000910152565b6001600160a01b0381168114610b4857600080fd5b8015158114610b4857600080fd5b6001600160e01b031981168114610b4857600080fd5b80600b0b8114610b4857600080fdfea2646970667358221220668d9328e0733538e70b2c08750f504eb7465176cfafd7bf07bf4814b598807b64736f6c63430007010033697066733a2f2f516d52336e4b367375754b6d7367445a4472615946354a434a4e554e44334a4859676e594a587a47556f684c394c2f312e6a736f6e",
  "linkReferences": {},
  "deployedLinkReferences": {}
}