{
  "_format": "hh-sol-artifact-1",
  "contractName": "StakeRewardsToken",
  "sourceName": "contracts/StakeRewardsToken.sol",
  "abi": [
    {
      "inputs": [
        {
          "internalType": "address",
          "name": "_owner",
          "type": "address"
        }
      ],
      "stateMutability": "nonpayable",
      "type": "constructor"
    },
    {
      "inputs": [],
      "name": "_totalSupply",
      "outputs": [
        {
          "internalType": "uint256",
          "name": "",
          "type": "uint256"
        }
      ],
      "stateMutability": "view",
      "type": "function"
    },
    {
      "inputs": [],
      "name": "balance",
      "outputs": [
        {
          "internalType": "uint256",
          "name": "",
          "type": "uint256"
        }
      ],
      "stateMutability": "view",
      "type": "function"
    },
    {
      "inputs": [
        {
          "internalType": "address",
          "name": "_account",
          "type": "address"
        }
      ],
      "name": "balanceOf",
      "outputs": [
        {
          "internalType": "uint256",
          "name": "",
          "type": "uint256"
        }
      ],
      "stateMutability": "view",
      "type": "function"
    },
    {
      "inputs": [
        {
          "internalType": "address",
          "name": "_account",
          "type": "address"
        }
      ],
      "name": "earned",
      "outputs": [
        {
          "internalType": "uint256",
          "name": "",
          "type": "uint256"
        }
      ],
      "stateMutability": "view",
      "type": "function"
    },
    {
      "inputs": [],
      "name": "getReward",
      "outputs": [],
      "stateMutability": "nonpayable",
      "type": "function"
    },
    {
      "inputs": [
        {
          "internalType": "address",
          "name": "_tenant",
          "type": "address"
        },
        {
          "internalType": "address",
          "name": "_stakingToken",
          "type": "address"
        },
        {
          "internalType": "address",
          "name": "_rewardsToken",
          "type": "address"
        },
        {
          "internalType": "uint256",
          "name": "_rewardRate",
          "type": "uint256"
        }
      ],
      "name": "init",
      "outputs": [],
      "stateMutability": "nonpayable",
      "type": "function"
    },
    {
      "inputs": [],
      "name": "lastUpdatedTime",
      "outputs": [
        {
          "internalType": "uint256",
          "name": "",
          "type": "uint256"
        }
      ],
      "stateMutability": "view",
      "type": "function"
    },
    {
      "inputs": [],
      "name": "metadata",
      "outputs": [
        {
          "internalType": "bytes",
          "name": "title",
          "type": "bytes"
        },
        {
          "components": [
            {
              "internalType": "address",
              "name": "authorAddress",
              "type": "address"
            },
            {
              "internalType": "string",
              "name": "externalLink",
              "type": "string"
            }
          ],
          "internalType": "struct IHyperverseModule.Author",
          "name": "author",
          "type": "tuple"
        },
        {
          "internalType": "bytes",
          "name": "version",
          "type": "bytes"
        },
        {
          "internalType": "uint64",
          "name": "publishedAt",
          "type": "uint64"
        },
        {
          "internalType": "bytes",
          "name": "externalLink",
          "type": "bytes"
        }
      ],
      "stateMutability": "view",
      "type": "function"
    },
    {
      "inputs": [],
      "name": "rewardPerToken",
      "outputs": [
        {
          "internalType": "uint256",
          "name": "",
          "type": "uint256"
        }
      ],
      "stateMutability": "view",
      "type": "function"
    },
    {
      "inputs": [],
      "name": "rewardPerTokenStored",
      "outputs": [
        {
          "internalType": "uint256",
          "name": "",
          "type": "uint256"
        }
      ],
      "stateMutability": "view",
      "type": "function"
    },
    {
      "inputs": [],
      "name": "rewardRate",
      "outputs": [
        {
          "internalType": "uint256",
          "name": "",
          "type": "uint256"
        }
      ],
      "stateMutability": "view",
      "type": "function"
    },
    {
      "inputs": [
        {
          "internalType": "address",
          "name": "",
          "type": "address"
        }
      ],
      "name": "rewards",
      "outputs": [
        {
          "internalType": "uint256",
          "name": "",
          "type": "uint256"
        }
      ],
      "stateMutability": "view",
      "type": "function"
    },
    {
      "inputs": [],
      "name": "rewardsToken",
      "outputs": [
        {
          "internalType": "contract IERC20",
          "name": "",
          "type": "address"
        }
      ],
      "stateMutability": "view",
      "type": "function"
    },
    {
      "inputs": [
        {
          "internalType": "uint256",
          "name": "_amount",
          "type": "uint256"
        }
      ],
      "name": "stake",
      "outputs": [],
      "stateMutability": "nonpayable",
      "type": "function"
    },
    {
      "inputs": [],
      "name": "stakingToken",
      "outputs": [
        {
          "internalType": "contract IERC20",
          "name": "",
          "type": "address"
        }
      ],
      "stateMutability": "view",
      "type": "function"
    },
    {
      "inputs": [],
      "name": "totalSupply",
      "outputs": [
        {
          "internalType": "uint256",
          "name": "",
          "type": "uint256"
        }
      ],
      "stateMutability": "view",
      "type": "function"
    },
    {
      "inputs": [
        {
          "internalType": "address",
          "name": "",
          "type": "address"
        }
      ],
      "name": "userRewardPerTokenPaid",
      "outputs": [
        {
          "internalType": "uint256",
          "name": "",
          "type": "uint256"
        }
      ],
      "stateMutability": "view",
      "type": "function"
    },
    {
      "inputs": [
        {
          "internalType": "uint256",
          "name": "_amount",
          "type": "uint256"
        }
      ],
      "name": "withdraw",
      "outputs": [],
      "stateMutability": "nonpayable",
      "type": "function"
    }
  ],
  "bytecode": "0x60a06040526000600e553480156200001657600080fd5b5060405162001d6f38038062001d6f83398181016040528101906200003c919062000408565b6040518060a001604052806040518060400160405280601381526020017f5374616b65205265776172647320546f6b656e00000000000000000000000000815250815260200160405180604001604052808473ffffffffffffffffffffffffffffffffffffffff1681526020016040518060400160405280601881526020017f68747470733a2f2f65787465726e616c6c696e6b2e6e6574000000000000000081525081525081526020016040518060400160405280600581526020017f302e302e31000000000000000000000000000000000000000000000000000000815250815260200165032a361e860667ffffffffffffffff1681526020016040518060400160405280601881526020017f68747470733a2f2f65787465726e616c4c696e6b2e6e6574000000000000000081525081525060008082015181600001908051906020019062000190929190620002b0565b5060208201518160010160008201518160000160006101000a81548173ffffffffffffffffffffffffffffffffffffffff021916908373ffffffffffffffffffffffffffffffffffffffff1602179055506020820151816001019080519060200190620001ff92919062000341565b505050604082015181600301908051906020019062000220929190620002b0565b5060608201518160040160006101000a81548167ffffffffffffffff021916908367ffffffffffffffff16021790555060808201518160050190805190602001906200026e929190620002b0565b509050508073ffffffffffffffffffffffffffffffffffffffff1660808173ffffffffffffffffffffffffffffffffffffffff1660601b8152505050620004e7565b828054620002be9062000468565b90600052602060002090601f016020900481019282620002e257600085556200032e565b82601f10620002fd57805160ff19168380011785556200032e565b828001600101855582156200032e579182015b828111156200032d57825182559160200191906001019062000310565b5b5090506200033d9190620003d2565b5090565b8280546200034f9062000468565b90600052602060002090601f016020900481019282620003735760008555620003bf565b82601f106200038e57805160ff1916838001178555620003bf565b82800160010185558215620003bf579182015b82811115620003be578251825591602001919060010190620003a1565b5b509050620003ce9190620003d2565b5090565b5b80821115620003ed576000816000905550600101620003d3565b5090565b6000815190506200040281620004cd565b92915050565b6000602082840312156200041b57600080fd5b60006200042b84828501620003f1565b91505092915050565b6000620004418262000448565b9050919050565b600073ffffffffffffffffffffffffffffffffffffffff82169050919050565b600060028204905060018216806200048157607f821691505b602082108114156200049857620004976200049e565b5b50919050565b7f4e487b7100000000000000000000000000000000000000000000000000000000600052602260045260246000fd5b620004d88162000434565b8114620004e457600080fd5b50565b60805160601c61186c620005036000396000505061186c6000f3fe608060405234801561001057600080fd5b50600436106101155760003560e01c806372f702f3116100a2578063b69ef8a811610071578063b69ef8a8146102d2578063bf856895146102f0578063cd3daf9d1461030e578063d1af0c7d1461032c578063df136d651461034a57610115565b806372f702f31461024a5780637b0a47ee146102685780638b87634714610286578063a694fc3a146102b657610115565b8063392f37e9116100e9578063392f37e9146101b45780633d18b912146101d65780633eaaf86b146101e057806346639dba146101fe57806370a082311461021a57610115565b80628cc2621461011a5780630700037d1461014a57806318160ddd1461017a5780632e1a7d4d14610198575b600080fd5b610134600480360381019061012f919061115b565b610368565b60405161014191906114a3565b60405180910390f35b610164600480360381019061015f919061115b565b61046a565b60405161017191906114a3565b60405180910390f35b610182610482565b60405161018f91906114a3565b60405180910390f35b6101b260048036038101906101ad9190611210565b61048c565b005b6101bc61071e565b6040516101cd9594939291906113d9565b60405180910390f35b6101de6109e0565b005b6101e8610c49565b6040516101f591906114a3565b60405180910390f35b61021860048036038101906102139190611184565b610c4f565b005b610234600480360381019061022f919061115b565b610db0565b60405161024191906114a3565b60405180910390f35b610252610df9565b60405161025f9190611448565b60405180910390f35b610270610e1f565b60405161027d91906114a3565b60405180910390f35b6102a0600480360381019061029b919061115b565b610e25565b6040516102ad91906114a3565b60405180910390f35b6102d060048036038101906102cb9190611210565b610e3d565b005b6102da61104b565b6040516102e791906114a3565b60405180910390f35b6102f861105b565b60405161030591906114a3565b60405180910390f35b610316611061565b60405161032391906114a3565b60405180910390f35b6103346110c4565b6040516103419190611448565b60405180910390f35b6103526110ea565b60405161035f91906114a3565b60405180910390f35b6000600d60008373ffffffffffffffffffffffffffffffffffffffff1673ffffffffffffffffffffffffffffffffffffffff16815260200190815260200160002054670de0b6b3a7640000600c60008573ffffffffffffffffffffffffffffffffffffffff1673ffffffffffffffffffffffffffffffffffffffff168152602001908152602001600020546103fb611061565b61040591906115e8565b600f60008673ffffffffffffffffffffffffffffffffffffffff1673ffffffffffffffffffffffffffffffffffffffff1681526020019081526020016000205461044f919061158e565b610459919061155d565b6104639190611507565b9050919050565b600d6020528060005260406000206000915090505481565b6000600e54905090565b338180600f60008473ffffffffffffffffffffffffffffffffffffffff1673ffffffffffffffffffffffffffffffffffffffff168152602001908152602001600020541015610510576040517f08c379a000000000000000000000000000000000000000000000000000000000815260040161050790611463565b60405180910390fd5b33610519611061565b600b8190555042600a8190555061052f81610368565b600d60008373ffffffffffffffffffffffffffffffffffffffff1673ffffffffffffffffffffffffffffffffffffffff16815260200190815260200160002081905550600b54600c60008373ffffffffffffffffffffffffffffffffffffffff1673ffffffffffffffffffffffffffffffffffffffff168152602001908152602001600020819055506105cd84600e546110f090919063ffffffff16565b600e8190555061062584600f60003373ffffffffffffffffffffffffffffffffffffffff1673ffffffffffffffffffffffffffffffffffffffff168152602001908152602001600020546110f090919063ffffffff16565b600f60003373ffffffffffffffffffffffffffffffffffffffff1673ffffffffffffffffffffffffffffffffffffffff16815260200190815260200160002081905550600860009054906101000a900473ffffffffffffffffffffffffffffffffffffffff1673ffffffffffffffffffffffffffffffffffffffff1663a9059cbb33866040518363ffffffff1660e01b81526004016106c59291906113b0565b602060405180830381600087803b1580156106df57600080fd5b505af11580156106f3573d6000803e3d6000fd5b505050506040513d601f19601f8201168201806040525081019061071791906111e7565b5050505050565b600080600001805461072f906116cf565b80601f016020809104026020016040519081016040528092919081815260200182805461075b906116cf565b80156107a85780601f1061077d576101008083540402835291602001916107a8565b820191906000526020600020905b81548152906001019060200180831161078b57829003601f168201915b505050505090806001016040518060400160405290816000820160009054906101000a900473ffffffffffffffffffffffffffffffffffffffff1673ffffffffffffffffffffffffffffffffffffffff1673ffffffffffffffffffffffffffffffffffffffff168152602001600182018054610823906116cf565b80601f016020809104026020016040519081016040528092919081815260200182805461084f906116cf565b801561089c5780601f106108715761010080835404028352916020019161089c565b820191906000526020600020905b81548152906001019060200180831161087f57829003601f168201915b505050505081525050908060030180546108b5906116cf565b80601f01602080910402602001604051908101604052809291908181526020018280546108e1906116cf565b801561092e5780601f106109035761010080835404028352916020019161092e565b820191906000526020600020905b81548152906001019060200180831161091157829003601f168201915b5050505050908060040160009054906101000a900467ffffffffffffffff169080600501805461095d906116cf565b80601f0160208091040260200160405190810160405280929190818152602001828054610989906116cf565b80156109d65780601f106109ab576101008083540402835291602001916109d6565b820191906000526020600020905b8154815290600101906020018083116109b957829003601f168201915b5050505050905085565b336000600d60008373ffffffffffffffffffffffffffffffffffffffff1673ffffffffffffffffffffffffffffffffffffffff1681526020019081526020016000205411610a63576040517f08c379a0000000000000000000000000000000000000000000000000000000008152600401610a5a90611463565b60405180910390fd5b33610a6c611061565b600b8190555042600a81905550610a8281610368565b600d60008373ffffffffffffffffffffffffffffffffffffffff1673ffffffffffffffffffffffffffffffffffffffff16815260200190815260200160002081905550600b54600c60008373ffffffffffffffffffffffffffffffffffffffff1673ffffffffffffffffffffffffffffffffffffffff168152602001908152602001600020819055506000600d60003373ffffffffffffffffffffffffffffffffffffffff1673ffffffffffffffffffffffffffffffffffffffff1681526020019081526020016000205490506000600d60003373ffffffffffffffffffffffffffffffffffffffff1673ffffffffffffffffffffffffffffffffffffffff16815260200190815260200160002081905550600760009054906101000a900473ffffffffffffffffffffffffffffffffffffffff1673ffffffffffffffffffffffffffffffffffffffff1663a9059cbb33836040518363ffffffff1660e01b8152600401610bf19291906113b0565b602060405180830381600087803b158015610c0b57600080fd5b505af1158015610c1f573d6000803e3d6000fd5b505050506040513d601f19601f82011682018060405250810190610c4391906111e7565b50505050565b600e5481565b600073ffffffffffffffffffffffffffffffffffffffff16601060009054906101000a900473ffffffffffffffffffffffffffffffffffffffff1673ffffffffffffffffffffffffffffffffffffffff1614610ce0576040517f08c379a0000000000000000000000000000000000000000000000000000000008152600401610cd790611483565b60405180910390fd5b83601060006101000a81548173ffffffffffffffffffffffffffffffffffffffff021916908373ffffffffffffffffffffffffffffffffffffffff16021790555082600860006101000a81548173ffffffffffffffffffffffffffffffffffffffff021916908373ffffffffffffffffffffffffffffffffffffffff16021790555081600760006101000a81548173ffffffffffffffffffffffffffffffffffffffff021916908373ffffffffffffffffffffffffffffffffffffffff1602179055508060098190555050505050565b6000600f60008373ffffffffffffffffffffffffffffffffffffffff1673ffffffffffffffffffffffffffffffffffffffff168152602001908152602001600020549050919050565b600860009054906101000a900473ffffffffffffffffffffffffffffffffffffffff1681565b60095481565b600c6020528060005260406000206000915090505481565b33610e46611061565b600b8190555042600a81905550610e5c81610368565b600d60008373ffffffffffffffffffffffffffffffffffffffff1673ffffffffffffffffffffffffffffffffffffffff16815260200190815260200160002081905550600b54600c60008373ffffffffffffffffffffffffffffffffffffffff1673ffffffffffffffffffffffffffffffffffffffff16815260200190815260200160002081905550610efa82600e5461110690919063ffffffff16565b600e81905550610f5282600f60003373ffffffffffffffffffffffffffffffffffffffff1673ffffffffffffffffffffffffffffffffffffffff1681526020019081526020016000205461110690919063ffffffff16565b600f60003373ffffffffffffffffffffffffffffffffffffffff1673ffffffffffffffffffffffffffffffffffffffff16815260200190815260200160002081905550600860009054906101000a900473ffffffffffffffffffffffffffffffffffffffff1673ffffffffffffffffffffffffffffffffffffffff166323b872dd3330856040518463ffffffff1660e01b8152600401610ff493929190611379565b602060405180830381600087803b15801561100e57600080fd5b505af1158015611022573d6000803e3d6000fd5b505050506040513d601f19601f8201168201806040525081019061104691906111e7565b505050565b600061105633610db0565b905090565b600a5481565b600080600e54141561107657600090506110c1565b600e54670de0b6b3a7640000600954600a544261109391906115e8565b61109d919061158e565b6110a7919061158e565b6110b1919061155d565b600b546110be9190611507565b90505b90565b600760009054906101000a900473ffffffffffffffffffffffffffffffffffffffff1681565b600b5481565b600081836110fe91906115e8565b905092915050565b600081836111149190611507565b905092915050565b60008135905061112b816117f1565b92915050565b60008151905061114081611808565b92915050565b6000813590506111558161181f565b92915050565b60006020828403121561116d57600080fd5b600061117b8482850161111c565b91505092915050565b6000806000806080858703121561119a57600080fd5b60006111a88782880161111c565b94505060206111b98782880161111c565b93505060406111ca8782880161111c565b92505060606111db87828801611146565b91505092959194509250565b6000602082840312156111f957600080fd5b600061120784828501611131565b91505092915050565b60006020828403121561122257600080fd5b600061123084828501611146565b91505092915050565b6112428161161c565b82525050565b6112518161161c565b82525050565b6000611262826114be565b61126c81856114d4565b935061127c81856020860161169c565b6112858161178e565b840191505092915050565b61129981611678565b82525050565b60006112aa826114c9565b6112b481856114e5565b93506112c481856020860161169c565b6112cd8161178e565b840191505092915050565b60006112e56014836114f6565b91506112f08261179f565b602082019050919050565b6000611308601f836114f6565b9150611313826117c8565b602082019050919050565b60006040830160008301516113366000860182611239565b506020830151848203602086015261134e828261129f565b9150508091505092915050565b6113648161165a565b82525050565b61137381611664565b82525050565b600060608201905061138e6000830186611248565b61139b6020830185611248565b6113a8604083018461135b565b949350505050565b60006040820190506113c56000830185611248565b6113d2602083018461135b565b9392505050565b600060a08201905081810360008301526113f38188611257565b90508181036020830152611407818761131e565b9050818103604083015261141b8186611257565b905061142a606083018561136a565b818103608083015261143c8184611257565b90509695505050505050565b600060208201905061145d6000830184611290565b92915050565b6000602082019050818103600083015261147c816112d8565b9050919050565b6000602082019050818103600083015261149c816112fb565b9050919050565b60006020820190506114b8600083018461135b565b92915050565b600081519050919050565b600081519050919050565b600082825260208201905092915050565b600082825260208201905092915050565b600082825260208201905092915050565b60006115128261165a565b915061151d8361165a565b9250827fffffffffffffffffffffffffffffffffffffffffffffffffffffffffffffffff0382111561155257611551611701565b5b828201905092915050565b60006115688261165a565b91506115738361165a565b92508261158357611582611730565b5b828204905092915050565b60006115998261165a565b91506115a48361165a565b9250817fffffffffffffffffffffffffffffffffffffffffffffffffffffffffffffffff04831182151516156115dd576115dc611701565b5b828202905092915050565b60006115f38261165a565b91506115fe8361165a565b92508282101561161157611610611701565b5b828203905092915050565b60006116278261163a565b9050919050565b60008115159050919050565b600073ffffffffffffffffffffffffffffffffffffffff82169050919050565b6000819050919050565b600067ffffffffffffffff82169050919050565b60006116838261168a565b9050919050565b60006116958261163a565b9050919050565b60005b838110156116ba57808201518184015260208101905061169f565b838111156116c9576000848401525b50505050565b600060028204905060018216806116e757607f821691505b602082108114156116fb576116fa61175f565b5b50919050565b7f4e487b7100000000000000000000000000000000000000000000000000000000600052601160045260246000fd5b7f4e487b7100000000000000000000000000000000000000000000000000000000600052601260045260246000fd5b7f4e487b7100000000000000000000000000000000000000000000000000000000600052602260045260246000fd5b6000601f19601f8301169050919050565b7f496e73756666696369656e742062616c616e6365000000000000000000000000600082015250565b7f436f6e747261637420697320616c726561647920696e697469616c697a656400600082015250565b6117fa8161161c565b811461180557600080fd5b50565b6118118161162e565b811461181c57600080fd5b50565b6118288161165a565b811461183357600080fd5b5056fea26469706673582212205f4c7f78ea7471ae2a7f8700e1e6f355be3761a12e4a5efba22d94cce858b93464736f6c63430008040033",
  "linkReferences": {},
  "deployedLinkReferences": {}
}