{
  "_format": "hh-sol-artifact-1",
  "contractName": "StakeRewardsToken",
  "sourceName": "contracts/StakeRewardsToken.sol",
  "abi": [
    {
      "inputs": [
        {
          "internalType": "address",
          "name": "_owner",
          "type": "address"
        }
      ],
      "stateMutability": "nonpayable",
      "type": "constructor"
    },
    {
      "inputs": [],
      "name": "_totalSupply",
      "outputs": [
        {
          "internalType": "uint256",
          "name": "",
          "type": "uint256"
        }
      ],
      "stateMutability": "view",
      "type": "function"
    },
    {
      "inputs": [],
      "name": "balance",
      "outputs": [
        {
          "internalType": "uint256",
          "name": "",
          "type": "uint256"
        }
      ],
      "stateMutability": "view",
      "type": "function"
    },
    {
      "inputs": [
        {
          "internalType": "address",
          "name": "_account",
          "type": "address"
        }
      ],
      "name": "balanceOf",
      "outputs": [
        {
          "internalType": "uint256",
          "name": "",
          "type": "uint256"
        }
      ],
      "stateMutability": "view",
      "type": "function"
    },
    {
      "inputs": [
        {
          "internalType": "address",
          "name": "_account",
          "type": "address"
        }
      ],
      "name": "earned",
      "outputs": [
        {
          "internalType": "uint256",
          "name": "",
          "type": "uint256"
        }
      ],
      "stateMutability": "view",
      "type": "function"
    },
    {
      "inputs": [],
      "name": "getReward",
      "outputs": [],
      "stateMutability": "nonpayable",
      "type": "function"
    },
    {
      "inputs": [
        {
          "internalType": "address",
          "name": "_tenant",
          "type": "address"
        },
        {
          "internalType": "address",
          "name": "_stakingToken",
          "type": "address"
        },
        {
          "internalType": "address",
          "name": "_rewardsToken",
          "type": "address"
        },
        {
          "internalType": "uint256",
          "name": "_rewardRate",
          "type": "uint256"
        }
      ],
      "name": "init",
      "outputs": [],
      "stateMutability": "nonpayable",
      "type": "function"
    },
    {
      "inputs": [],
      "name": "lastUpdatedTime",
      "outputs": [
        {
          "internalType": "uint256",
          "name": "",
          "type": "uint256"
        }
      ],
      "stateMutability": "view",
      "type": "function"
    },
    {
      "inputs": [],
      "name": "metadata",
      "outputs": [
        {
          "internalType": "bytes",
          "name": "title",
          "type": "bytes"
        },
        {
          "components": [
            {
              "internalType": "address",
              "name": "authorAddress",
              "type": "address"
            },
            {
              "internalType": "string",
              "name": "externalLink",
              "type": "string"
            }
          ],
          "internalType": "struct IHyperverseModule.Author",
          "name": "author",
          "type": "tuple"
        },
        {
          "internalType": "bytes",
          "name": "version",
          "type": "bytes"
        },
        {
          "internalType": "uint64",
          "name": "publishedAt",
          "type": "uint64"
        },
        {
          "internalType": "bytes",
          "name": "externalLink",
          "type": "bytes"
        }
      ],
      "stateMutability": "view",
      "type": "function"
    },
    {
      "inputs": [],
      "name": "rewardPerToken",
      "outputs": [
        {
          "internalType": "uint256",
          "name": "",
          "type": "uint256"
        }
      ],
      "stateMutability": "view",
      "type": "function"
    },
    {
      "inputs": [],
      "name": "rewardPerTokenStored",
      "outputs": [
        {
          "internalType": "uint256",
          "name": "",
          "type": "uint256"
        }
      ],
      "stateMutability": "view",
      "type": "function"
    },
    {
      "inputs": [],
      "name": "rewardRate",
      "outputs": [
        {
          "internalType": "uint256",
          "name": "",
          "type": "uint256"
        }
      ],
      "stateMutability": "view",
      "type": "function"
    },
    {
      "inputs": [
        {
          "internalType": "address",
          "name": "",
          "type": "address"
        }
      ],
      "name": "rewards",
      "outputs": [
        {
          "internalType": "uint256",
          "name": "",
          "type": "uint256"
        }
      ],
      "stateMutability": "view",
      "type": "function"
    },
    {
      "inputs": [],
      "name": "rewardsToken",
      "outputs": [
        {
          "internalType": "contract IERC20",
          "name": "",
          "type": "address"
        }
      ],
      "stateMutability": "view",
      "type": "function"
    },
    {
      "inputs": [
        {
          "internalType": "uint256",
          "name": "_amount",
          "type": "uint256"
        }
      ],
      "name": "stake",
      "outputs": [],
      "stateMutability": "nonpayable",
      "type": "function"
    },
    {
      "inputs": [],
      "name": "stakingToken",
      "outputs": [
        {
          "internalType": "contract IERC20",
          "name": "",
          "type": "address"
        }
      ],
      "stateMutability": "view",
      "type": "function"
    },
    {
      "inputs": [],
      "name": "totalSupply",
      "outputs": [
        {
          "internalType": "uint256",
          "name": "",
          "type": "uint256"
        }
      ],
      "stateMutability": "view",
      "type": "function"
    },
    {
      "inputs": [
        {
          "internalType": "address",
          "name": "",
          "type": "address"
        }
      ],
      "name": "userRewardPerTokenPaid",
      "outputs": [
        {
          "internalType": "uint256",
          "name": "",
          "type": "uint256"
        }
      ],
      "stateMutability": "view",
      "type": "function"
    },
    {
      "inputs": [
        {
          "internalType": "uint256",
          "name": "_amount",
          "type": "uint256"
        }
      ],
      "name": "withdraw",
      "outputs": [],
      "stateMutability": "nonpayable",
      "type": "function"
    }
  ],
  "bytecode": "0x60a06040526000600e553480156200001657600080fd5b5060405162001c7238038062001c7283398181016040528101906200003c919062000408565b6040518060a001604052806040518060400160405280601381526020017f5374616b65205265776172647320546f6b656e00000000000000000000000000815250815260200160405180604001604052808473ffffffffffffffffffffffffffffffffffffffff1681526020016040518060400160405280601881526020017f68747470733a2f2f65787465726e616c6c696e6b2e6e6574000000000000000081525081525081526020016040518060400160405280600581526020017f302e302e31000000000000000000000000000000000000000000000000000000815250815260200165032a361e860667ffffffffffffffff1681526020016040518060400160405280601881526020017f68747470733a2f2f65787465726e616c4c696e6b2e6e6574000000000000000081525081525060008082015181600001908051906020019062000190929190620002b0565b5060208201518160010160008201518160000160006101000a81548173ffffffffffffffffffffffffffffffffffffffff021916908373ffffffffffffffffffffffffffffffffffffffff1602179055506020820151816001019080519060200190620001ff92919062000341565b505050604082015181600301908051906020019062000220929190620002b0565b5060608201518160040160006101000a81548167ffffffffffffffff021916908367ffffffffffffffff16021790555060808201518160050190805190602001906200026e929190620002b0565b509050508073ffffffffffffffffffffffffffffffffffffffff1660808173ffffffffffffffffffffffffffffffffffffffff1660601b8152505050620004e7565b828054620002be9062000468565b90600052602060002090601f016020900481019282620002e257600085556200032e565b82601f10620002fd57805160ff19168380011785556200032e565b828001600101855582156200032e579182015b828111156200032d57825182559160200191906001019062000310565b5b5090506200033d9190620003d2565b5090565b8280546200034f9062000468565b90600052602060002090601f016020900481019282620003735760008555620003bf565b82601f106200038e57805160ff1916838001178555620003bf565b82800160010185558215620003bf579182015b82811115620003be578251825591602001919060010190620003a1565b5b509050620003ce9190620003d2565b5090565b5b80821115620003ed576000816000905550600101620003d3565b5090565b6000815190506200040281620004cd565b92915050565b6000602082840312156200041b57600080fd5b60006200042b84828501620003f1565b91505092915050565b6000620004418262000448565b9050919050565b600073ffffffffffffffffffffffffffffffffffffffff82169050919050565b600060028204905060018216806200048157607f821691505b602082108114156200049857620004976200049e565b5b50919050565b7f4e487b7100000000000000000000000000000000000000000000000000000000600052602260045260246000fd5b620004d88162000434565b8114620004e457600080fd5b50565b60805160601c61176f620005036000396000505061176f6000f3fe608060405234801561001057600080fd5b50600436106101155760003560e01c806372f702f3116100a2578063b69ef8a811610071578063b69ef8a8146102d2578063bf856895146102f0578063cd3daf9d1461030e578063d1af0c7d1461032c578063df136d651461034a57610115565b806372f702f31461024a5780637b0a47ee146102685780638b87634714610286578063a694fc3a146102b657610115565b8063392f37e9116100e9578063392f37e9146101b45780633d18b912146101d65780633eaaf86b146101e057806346639dba146101fe57806370a082311461021a57610115565b80628cc2621461011a5780630700037d1461014a57806318160ddd1461017a5780632e1a7d4d14610198575b600080fd5b610134600480360381019061012f91906110ca565b610368565b60405161014191906113cf565b60405180910390f35b610164600480360381019061015f91906110ca565b61046a565b60405161017191906113cf565b60405180910390f35b610182610482565b60405161018f91906113cf565b60405180910390f35b6101b260048036038101906101ad919061117f565b61048c565b005b6101bc61071e565b6040516101cd959493929190611325565b60405180910390f35b6101de6109e0565b005b6101e8610c49565b6040516101f591906113cf565b60405180910390f35b610218600480360381019061021391906110f3565b610c4f565b005b610234600480360381019061022f91906110ca565b610d1f565b60405161024191906113cf565b60405180910390f35b610252610d68565b60405161025f9190611394565b60405180910390f35b610270610d8e565b60405161027d91906113cf565b60405180910390f35b6102a0600480360381019061029b91906110ca565b610d94565b6040516102ad91906113cf565b60405180910390f35b6102d060048036038101906102cb919061117f565b610dac565b005b6102da610fba565b6040516102e791906113cf565b60405180910390f35b6102f8610fca565b60405161030591906113cf565b60405180910390f35b610316610fd0565b60405161032391906113cf565b60405180910390f35b610334611033565b6040516103419190611394565b60405180910390f35b610352611059565b60405161035f91906113cf565b60405180910390f35b6000600d60008373ffffffffffffffffffffffffffffffffffffffff1673ffffffffffffffffffffffffffffffffffffffff16815260200190815260200160002054670de0b6b3a7640000600c60008573ffffffffffffffffffffffffffffffffffffffff1673ffffffffffffffffffffffffffffffffffffffff168152602001908152602001600020546103fb610fd0565b6104059190611514565b600f60008673ffffffffffffffffffffffffffffffffffffffff1673ffffffffffffffffffffffffffffffffffffffff1681526020019081526020016000205461044f91906114ba565b6104599190611489565b6104639190611433565b9050919050565b600d6020528060005260406000206000915090505481565b6000600e54905090565b338180600f60008473ffffffffffffffffffffffffffffffffffffffff1673ffffffffffffffffffffffffffffffffffffffff168152602001908152602001600020541015610510576040517f08c379a0000000000000000000000000000000000000000000000000000000008152600401610507906113af565b60405180910390fd5b33610519610fd0565b600b8190555042600a8190555061052f81610368565b600d60008373ffffffffffffffffffffffffffffffffffffffff1673ffffffffffffffffffffffffffffffffffffffff16815260200190815260200160002081905550600b54600c60008373ffffffffffffffffffffffffffffffffffffffff1673ffffffffffffffffffffffffffffffffffffffff168152602001908152602001600020819055506105cd84600e5461105f90919063ffffffff16565b600e8190555061062584600f60003373ffffffffffffffffffffffffffffffffffffffff1673ffffffffffffffffffffffffffffffffffffffff1681526020019081526020016000205461105f90919063ffffffff16565b600f60003373ffffffffffffffffffffffffffffffffffffffff1673ffffffffffffffffffffffffffffffffffffffff16815260200190815260200160002081905550600860009054906101000a900473ffffffffffffffffffffffffffffffffffffffff1673ffffffffffffffffffffffffffffffffffffffff1663a9059cbb33866040518363ffffffff1660e01b81526004016106c59291906112fc565b602060405180830381600087803b1580156106df57600080fd5b505af11580156106f3573d6000803e3d6000fd5b505050506040513d601f19601f820116820180604052508101906107179190611156565b5050505050565b600080600001805461072f906115fb565b80601f016020809104026020016040519081016040528092919081815260200182805461075b906115fb565b80156107a85780601f1061077d576101008083540402835291602001916107a8565b820191906000526020600020905b81548152906001019060200180831161078b57829003601f168201915b505050505090806001016040518060400160405290816000820160009054906101000a900473ffffffffffffffffffffffffffffffffffffffff1673ffffffffffffffffffffffffffffffffffffffff1673ffffffffffffffffffffffffffffffffffffffff168152602001600182018054610823906115fb565b80601f016020809104026020016040519081016040528092919081815260200182805461084f906115fb565b801561089c5780601f106108715761010080835404028352916020019161089c565b820191906000526020600020905b81548152906001019060200180831161087f57829003601f168201915b505050505081525050908060030180546108b5906115fb565b80601f01602080910402602001604051908101604052809291908181526020018280546108e1906115fb565b801561092e5780601f106109035761010080835404028352916020019161092e565b820191906000526020600020905b81548152906001019060200180831161091157829003601f168201915b5050505050908060040160009054906101000a900467ffffffffffffffff169080600501805461095d906115fb565b80601f0160208091040260200160405190810160405280929190818152602001828054610989906115fb565b80156109d65780601f106109ab576101008083540402835291602001916109d6565b820191906000526020600020905b8154815290600101906020018083116109b957829003601f168201915b5050505050905085565b336000600d60008373ffffffffffffffffffffffffffffffffffffffff1673ffffffffffffffffffffffffffffffffffffffff1681526020019081526020016000205411610a63576040517f08c379a0000000000000000000000000000000000000000000000000000000008152600401610a5a906113af565b60405180910390fd5b33610a6c610fd0565b600b8190555042600a81905550610a8281610368565b600d60008373ffffffffffffffffffffffffffffffffffffffff1673ffffffffffffffffffffffffffffffffffffffff16815260200190815260200160002081905550600b54600c60008373ffffffffffffffffffffffffffffffffffffffff1673ffffffffffffffffffffffffffffffffffffffff168152602001908152602001600020819055506000600d60003373ffffffffffffffffffffffffffffffffffffffff1673ffffffffffffffffffffffffffffffffffffffff1681526020019081526020016000205490506000600d60003373ffffffffffffffffffffffffffffffffffffffff1673ffffffffffffffffffffffffffffffffffffffff16815260200190815260200160002081905550600760009054906101000a900473ffffffffffffffffffffffffffffffffffffffff1673ffffffffffffffffffffffffffffffffffffffff1663a9059cbb33836040518363ffffffff1660e01b8152600401610bf19291906112fc565b602060405180830381600087803b158015610c0b57600080fd5b505af1158015610c1f573d6000803e3d6000fd5b505050506040513d601f19601f82011682018060405250810190610c439190611156565b50505050565b600e5481565b83601060006101000a81548173ffffffffffffffffffffffffffffffffffffffff021916908373ffffffffffffffffffffffffffffffffffffffff16021790555082600860006101000a81548173ffffffffffffffffffffffffffffffffffffffff021916908373ffffffffffffffffffffffffffffffffffffffff16021790555081600760006101000a81548173ffffffffffffffffffffffffffffffffffffffff021916908373ffffffffffffffffffffffffffffffffffffffff1602179055508060098190555050505050565b6000600f60008373ffffffffffffffffffffffffffffffffffffffff1673ffffffffffffffffffffffffffffffffffffffff168152602001908152602001600020549050919050565b600860009054906101000a900473ffffffffffffffffffffffffffffffffffffffff1681565b60095481565b600c6020528060005260406000206000915090505481565b33610db5610fd0565b600b8190555042600a81905550610dcb81610368565b600d60008373ffffffffffffffffffffffffffffffffffffffff1673ffffffffffffffffffffffffffffffffffffffff16815260200190815260200160002081905550600b54600c60008373ffffffffffffffffffffffffffffffffffffffff1673ffffffffffffffffffffffffffffffffffffffff16815260200190815260200160002081905550610e6982600e5461107590919063ffffffff16565b600e81905550610ec182600f60003373ffffffffffffffffffffffffffffffffffffffff1673ffffffffffffffffffffffffffffffffffffffff1681526020019081526020016000205461107590919063ffffffff16565b600f60003373ffffffffffffffffffffffffffffffffffffffff1673ffffffffffffffffffffffffffffffffffffffff16815260200190815260200160002081905550600860009054906101000a900473ffffffffffffffffffffffffffffffffffffffff1673ffffffffffffffffffffffffffffffffffffffff166323b872dd3330856040518463ffffffff1660e01b8152600401610f63939291906112c5565b602060405180830381600087803b158015610f7d57600080fd5b505af1158015610f91573d6000803e3d6000fd5b505050506040513d601f19601f82011682018060405250810190610fb59190611156565b505050565b6000610fc533610d1f565b905090565b600a5481565b600080600e541415610fe55760009050611030565b600e54670de0b6b3a7640000600954600a54426110029190611514565b61100c91906114ba565b61101691906114ba565b6110209190611489565b600b5461102d9190611433565b90505b90565b600760009054906101000a900473ffffffffffffffffffffffffffffffffffffffff1681565b600b5481565b6000818361106d9190611514565b905092915050565b600081836110839190611433565b905092915050565b60008135905061109a816116f4565b92915050565b6000815190506110af8161170b565b92915050565b6000813590506110c481611722565b92915050565b6000602082840312156110dc57600080fd5b60006110ea8482850161108b565b91505092915050565b6000806000806080858703121561110957600080fd5b60006111178782880161108b565b94505060206111288782880161108b565b93505060406111398782880161108b565b925050606061114a878288016110b5565b91505092959194509250565b60006020828403121561116857600080fd5b6000611176848285016110a0565b91505092915050565b60006020828403121561119157600080fd5b600061119f848285016110b5565b91505092915050565b6111b181611548565b82525050565b6111c081611548565b82525050565b60006111d1826113ea565b6111db8185611400565b93506111eb8185602086016115c8565b6111f4816116ba565b840191505092915050565b611208816115a4565b82525050565b6000611219826113f5565b6112238185611411565b93506112338185602086016115c8565b61123c816116ba565b840191505092915050565b6000611254601483611422565b915061125f826116cb565b602082019050919050565b600060408301600083015161128260008601826111a8565b506020830151848203602086015261129a828261120e565b9150508091505092915050565b6112b081611586565b82525050565b6112bf81611590565b82525050565b60006060820190506112da60008301866111b7565b6112e760208301856111b7565b6112f460408301846112a7565b949350505050565b600060408201905061131160008301856111b7565b61131e60208301846112a7565b9392505050565b600060a082019050818103600083015261133f81886111c6565b90508181036020830152611353818761126a565b9050818103604083015261136781866111c6565b905061137660608301856112b6565b818103608083015261138881846111c6565b90509695505050505050565b60006020820190506113a960008301846111ff565b92915050565b600060208201905081810360008301526113c881611247565b9050919050565b60006020820190506113e460008301846112a7565b92915050565b600081519050919050565b600081519050919050565b600082825260208201905092915050565b600082825260208201905092915050565b600082825260208201905092915050565b600061143e82611586565b915061144983611586565b9250827fffffffffffffffffffffffffffffffffffffffffffffffffffffffffffffffff0382111561147e5761147d61162d565b5b828201905092915050565b600061149482611586565b915061149f83611586565b9250826114af576114ae61165c565b5b828204905092915050565b60006114c582611586565b91506114d083611586565b9250817fffffffffffffffffffffffffffffffffffffffffffffffffffffffffffffffff04831182151516156115095761150861162d565b5b828202905092915050565b600061151f82611586565b915061152a83611586565b92508282101561153d5761153c61162d565b5b828203905092915050565b600061155382611566565b9050919050565b60008115159050919050565b600073ffffffffffffffffffffffffffffffffffffffff82169050919050565b6000819050919050565b600067ffffffffffffffff82169050919050565b60006115af826115b6565b9050919050565b60006115c182611566565b9050919050565b60005b838110156115e65780820151818401526020810190506115cb565b838111156115f5576000848401525b50505050565b6000600282049050600182168061161357607f821691505b602082108114156116275761162661168b565b5b50919050565b7f4e487b7100000000000000000000000000000000000000000000000000000000600052601160045260246000fd5b7f4e487b7100000000000000000000000000000000000000000000000000000000600052601260045260246000fd5b7f4e487b7100000000000000000000000000000000000000000000000000000000600052602260045260246000fd5b6000601f19601f8301169050919050565b7f496e73756666696369656e742062616c616e6365000000000000000000000000600082015250565b6116fd81611548565b811461170857600080fd5b50565b6117148161155a565b811461171f57600080fd5b50565b61172b81611586565b811461173657600080fd5b5056fea2646970667358221220227fc1af168504f04b96c6d3886d82e7d2cc500b83020348b16b682ed7150fb964736f6c63430008040033",
  "linkReferences": {},
  "deployedLinkReferences": {}
}