{
  "_format": "hh-sol-artifact-1",
  "contractName": "TribesFactory",
  "sourceName": "contracts/TribesFactory.sol",
  "abi": [
    {
      "inputs": [
        {
          "internalType": "address",
          "name": "_masterContract",
          "type": "address"
        },
        {
          "internalType": "address",
          "name": "_owner",
          "type": "address"
        }
      ],
      "stateMutability": "nonpayable",
      "type": "constructor"
    },
    {
      "inputs": [
        {
          "internalType": "address",
          "name": "_tenant",
          "type": "address"
        }
      ],
      "name": "createInstance",
      "outputs": [],
      "stateMutability": "nonpayable",
      "type": "function"
    },
    {
      "inputs": [
        {
          "internalType": "address",
          "name": "_tenant",
          "type": "address"
        }
      ],
      "name": "getProxy",
      "outputs": [
        {
          "internalType": "contract Tribes",
          "name": "",
          "type": "address"
        }
      ],
      "stateMutability": "view",
      "type": "function"
    },
    {
      "inputs": [
        {
          "internalType": "address",
          "name": "",
          "type": "address"
        }
      ],
      "name": "instance",
      "outputs": [
        {
          "internalType": "bool",
          "name": "",
          "type": "bool"
        }
      ],
      "stateMutability": "view",
      "type": "function"
    },
    {
      "inputs": [],
      "name": "masterContract",
      "outputs": [
        {
          "internalType": "address",
          "name": "",
          "type": "address"
        }
      ],
      "stateMutability": "view",
      "type": "function"
    },
    {
      "inputs": [],
      "name": "owner",
      "outputs": [
        {
          "internalType": "address",
          "name": "",
          "type": "address"
        }
      ],
      "stateMutability": "view",
      "type": "function"
    },
    {
      "inputs": [],
      "name": "tenantCounter",
      "outputs": [
        {
          "internalType": "uint256",
          "name": "_value",
          "type": "uint256"
        }
      ],
      "stateMutability": "view",
      "type": "function"
    },
    {
      "inputs": [
        {
          "internalType": "address",
          "name": "",
          "type": "address"
        }
      ],
      "name": "tenants",
      "outputs": [
        {
          "internalType": "contract Tribes",
          "name": "tribes",
          "type": "address"
        },
        {
          "internalType": "address",
          "name": "owner",
          "type": "address"
        }
      ],
      "stateMutability": "view",
      "type": "function"
    }
  ],
  "bytecode": "0x60c06040527362a7aa79a52591ccc62b71729329a80a666fa50f600360006101000a81548173ffffffffffffffffffffffffffffffffffffffff021916908373ffffffffffffffffffffffffffffffffffffffff16021790555034801561006557600080fd5b50604051610b37380380610b3783398181016040528101906100879190610111565b8173ffffffffffffffffffffffffffffffffffffffff1660a08173ffffffffffffffffffffffffffffffffffffffff1660601b815250508073ffffffffffffffffffffffffffffffffffffffff1660808173ffffffffffffffffffffffffffffffffffffffff1660601b815250505050610196565b60008151905061010b8161017f565b92915050565b6000806040838503121561012457600080fd5b6000610132858286016100fc565b9250506020610143858286016100fc565b9150509250929050565b60006101588261015f565b9050919050565b600073ffffffffffffffffffffffffffffffffffffffff82169050919050565b6101888161014d565b811461019357600080fd5b50565b60805160601c60a05160601c61096f6101c8600039600081816102f7015261054c015260006104bc015261096f6000f3fe608060405234801561001057600080fd5b506004361061007d5760003560e01c8063b7fba4d31161005b578063b7fba4d3146100da578063cd446e221461010a578063cf33d58814610128578063fd9153a3146101585761007d565b80631e9b4755146100825780637726f776146100a05780638da5cb5b146100bc575b600080fd5b61008a610189565b60405161009791906107ec565b60405180910390f35b6100ba60048036038101906100b59190610687565b610195565b005b6100c46104ba565b6040516100d19190610732565b60405180910390f35b6100f460048036038101906100ef9190610687565b6104de565b6040516101019190610768565b60405180910390f35b61011261054a565b60405161011f9190610732565b60405180910390f35b610142600480360381019061013d9190610687565b61056e565b60405161014f919061074d565b60405180910390f35b610172600480360381019061016d9190610687565b61058e565b604051610180929190610783565b60405180910390f35b60008060000154905081565b8060001515600260008373ffffffffffffffffffffffffffffffffffffffff1673ffffffffffffffffffffffffffffffffffffffff16815260200190815260200160002060009054906101000a900460ff16151514610229576040517f08c379a0000000000000000000000000000000000000000000000000000000008152600401610220906107ac565b60405180910390fd5b818073ffffffffffffffffffffffffffffffffffffffff163373ffffffffffffffffffffffffffffffffffffffff1614806102b15750600360009054906101000a900473ffffffffffffffffffffffffffffffffffffffff1673ffffffffffffffffffffffffffffffffffffffff163373ffffffffffffffffffffffffffffffffffffffff16145b6102f0576040517f08c379a00000000000000000000000000000000000000000000000000000000081526004016102e7906107cc565b60405180910390fd5b600061031b7f00000000000000000000000000000000000000000000000000000000000000006105f2565b90508073ffffffffffffffffffffffffffffffffffffffff166319ab453c336040518263ffffffff1660e01b81526004016103569190610732565b600060405180830381600087803b15801561037057600080fd5b505af1158015610384573d6000803e3d6000fd5b505050506000600160008673ffffffffffffffffffffffffffffffffffffffff1673ffffffffffffffffffffffffffffffffffffffff1681526020019081526020016000209050818160000160006101000a81548173ffffffffffffffffffffffffffffffffffffffff021916908373ffffffffffffffffffffffffffffffffffffffff160217905550848160010160006101000a81548173ffffffffffffffffffffffffffffffffffffffff021916908373ffffffffffffffffffffffffffffffffffffffff1602179055506001600260008773ffffffffffffffffffffffffffffffffffffffff1673ffffffffffffffffffffffffffffffffffffffff16815260200190815260200160002060006101000a81548160ff0219169083151502179055506104b3600061065c565b5050505050565b7f000000000000000000000000000000000000000000000000000000000000000081565b6000600160008373ffffffffffffffffffffffffffffffffffffffff1673ffffffffffffffffffffffffffffffffffffffff16815260200190815260200160002060000160009054906101000a900473ffffffffffffffffffffffffffffffffffffffff169050919050565b7f000000000000000000000000000000000000000000000000000000000000000081565b60026020528060005260406000206000915054906101000a900460ff1681565b60016020528060005260406000206000915090508060000160009054906101000a900473ffffffffffffffffffffffffffffffffffffffff16908060010160009054906101000a900473ffffffffffffffffffffffffffffffffffffffff16905082565b6000808260601b90506040517f3d602d80600a3d3981f3363d3d373d3d3d363d7300000000000000000000000081528160148201527f5af43d82803e903d91602b57fd5bf3000000000000000000000000000000000060288201526037816000f092505050919050565b6001816000016000828254019250508190555050565b60008135905061068181610922565b92915050565b60006020828403121561069957600080fd5b60006106a784828501610672565b91505092915050565b6106b981610818565b82525050565b6106c88161082a565b82525050565b6106d781610860565b82525050565b60006106ea602283610807565b91506106f582610884565b604082019050919050565b600061070d603083610807565b9150610718826108d3565b604082019050919050565b61072c81610856565b82525050565b600060208201905061074760008301846106b0565b92915050565b600060208201905061076260008301846106bf565b92915050565b600060208201905061077d60008301846106ce565b92915050565b600060408201905061079860008301856106ce565b6107a560208301846106b0565b9392505050565b600060208201905081810360008301526107c5816106dd565b9050919050565b600060208201905081810360008301526107e581610700565b9050919050565b60006020820190506108016000830184610723565b92915050565b600082825260208201905092915050565b600061082382610836565b9050919050565b60008115159050919050565b600073ffffffffffffffffffffffffffffffffffffffff82169050919050565b6000819050919050565b600061086b82610872565b9050919050565b600061087d82610836565b9050919050565b7f5468652074656e616e7420616c72656164792068617320616e20696e7374616e60008201527f6365000000000000000000000000000000000000000000000000000000000000602082015250565b7f506c656173652075736520612076616c6964206164647265737320746f20637260008201527f6561746520616e20696e7374616e636500000000000000000000000000000000602082015250565b61092b81610818565b811461093657600080fd5b5056fea2646970667358221220b382bff52c386ede2bf13b21cce4b255f3edbae32b6bc0619179d4da7ffe8e3564736f6c63430008040033",
  "linkReferences": {},
  "deployedLinkReferences": {}
}