{
  "_format": "hh-sol-artifact-1",
  "contractName": "NFTFactory",
  "sourceName": "contracts/NFTFactory.sol",
  "abi": [
    {
      "inputs": [
        {
          "internalType": "address",
          "name": "_masterContract",
          "type": "address"
        }
      ],
      "stateMutability": "nonpayable",
      "type": "constructor"
    },
    {
      "inputs": [
        {
          "internalType": "string",
          "name": "name",
          "type": "string"
        },
        {
          "internalType": "string",
          "name": "symbol",
          "type": "string"
        }
      ],
      "name": "createInstance",
      "outputs": [],
      "stateMutability": "nonpayable",
      "type": "function"
    },
    {
      "inputs": [
        {
          "internalType": "address",
          "name": "_tenant",
          "type": "address"
        }
      ],
      "name": "getProxy",
      "outputs": [
        {
          "internalType": "contract NFT",
          "name": "",
          "type": "address"
        }
      ],
      "stateMutability": "view",
      "type": "function"
    },
    {
      "inputs": [],
      "name": "masterContract",
      "outputs": [
        {
          "internalType": "address",
          "name": "",
          "type": "address"
        }
      ],
      "stateMutability": "view",
      "type": "function"
    },
    {
      "inputs": [
        {
          "internalType": "address",
          "name": "",
          "type": "address"
        }
      ],
      "name": "tenants",
      "outputs": [
        {
          "internalType": "contract NFT",
          "name": "nft",
          "type": "address"
        },
        {
          "internalType": "address",
          "name": "owner",
          "type": "address"
        }
      ],
      "stateMutability": "view",
      "type": "function"
    }
  ],
  "bytecode": "0x60a060405273d847c7408c48b6b6720cca75eb30a93acbf5163d600160006101000a81548173ffffffffffffffffffffffffffffffffffffffff021916908373ffffffffffffffffffffffffffffffffffffffff16021790555034801561006557600080fd5b506040516108fd3803806108fd833981810160405281019061008791906100d9565b8073ffffffffffffffffffffffffffffffffffffffff1660808173ffffffffffffffffffffffffffffffffffffffff1660601b815250505061014b565b6000815190506100d381610134565b92915050565b6000602082840312156100eb57600080fd5b60006100f9848285016100c4565b91505092915050565b600061010d82610114565b9050919050565b600073ffffffffffffffffffffffffffffffffffffffff82169050919050565b61013d81610102565b811461014857600080fd5b50565b60805160601c61078e61016f6000396000818160f801526102c9015261078e6000f3fe608060405234801561001057600080fd5b506004361061004c5760003560e01c806397162f4214610051578063b7fba4d31461006d578063cd446e221461009d578063fd9153a3146100bb575b600080fd5b61006b6004803603810190610066919061045f565b6100ec565b005b61008760048036038101906100829190610436565b61025c565b604051610094919061053d565b60405180910390f35b6100a56102c7565b6040516100b29190610522565b60405180910390f35b6100d560048036038101906100d09190610436565b6102eb565b6040516100e3929190610558565b60405180910390f35b6000339050600061011c7f000000000000000000000000000000000000000000000000000000000000000061034f565b90508073ffffffffffffffffffffffffffffffffffffffff16636ee5741a8585856040518463ffffffff1660e01b815260040161015b93929190610581565b600060405180830381600087803b15801561017557600080fd5b505af1158015610189573d6000803e3d6000fd5b5050505060008060008473ffffffffffffffffffffffffffffffffffffffff1673ffffffffffffffffffffffffffffffffffffffff1681526020019081526020016000209050818160000160006101000a81548173ffffffffffffffffffffffffffffffffffffffff021916908373ffffffffffffffffffffffffffffffffffffffff160217905550828160010160006101000a81548173ffffffffffffffffffffffffffffffffffffffff021916908373ffffffffffffffffffffffffffffffffffffffff1602179055505050505050565b60008060008373ffffffffffffffffffffffffffffffffffffffff1673ffffffffffffffffffffffffffffffffffffffff16815260200190815260200160002060000160009054906101000a900473ffffffffffffffffffffffffffffffffffffffff169050919050565b7f000000000000000000000000000000000000000000000000000000000000000081565b60006020528060005260406000206000915090508060000160009054906101000a900473ffffffffffffffffffffffffffffffffffffffff16908060010160009054906101000a900473ffffffffffffffffffffffffffffffffffffffff16905082565b6000808260601b90506040517f3d602d80600a3d3981f3363d3d373d3d3d363d7300000000000000000000000081528160148201527f5af43d82803e903d91602b57fd5bf3000000000000000000000000000000000060288201526037816000f092505050919050565b60006103cc6103c7846105eb565b6105c6565b9050828152602081018484840111156103e457600080fd5b6103ef84828561068e565b509392505050565b60008135905061040681610741565b92915050565b600082601f83011261041d57600080fd5b813561042d8482602086016103b9565b91505092915050565b60006020828403121561044857600080fd5b6000610456848285016103f7565b91505092915050565b6000806040838503121561047257600080fd5b600083013567ffffffffffffffff81111561048c57600080fd5b6104988582860161040c565b925050602083013567ffffffffffffffff8111156104b557600080fd5b6104c18582860161040c565b9150509250929050565b6104d481610638565b82525050565b6104e38161066a565b82525050565b60006104f48261061c565b6104fe8185610627565b935061050e81856020860161069d565b61051781610730565b840191505092915050565b600060208201905061053760008301846104cb565b92915050565b600060208201905061055260008301846104da565b92915050565b600060408201905061056d60008301856104da565b61057a60208301846104cb565b9392505050565b6000606082019050818103600083015261059b81866104e9565b905081810360208301526105af81856104e9565b90506105be60408301846104cb565b949350505050565b60006105d06105e1565b90506105dc82826106d0565b919050565b6000604051905090565b600067ffffffffffffffff82111561060657610605610701565b5b61060f82610730565b9050602081019050919050565b600081519050919050565b600082825260208201905092915050565b60006106438261064a565b9050919050565b600073ffffffffffffffffffffffffffffffffffffffff82169050919050565b60006106758261067c565b9050919050565b60006106878261064a565b9050919050565b82818337600083830152505050565b60005b838110156106bb5780820151818401526020810190506106a0565b838111156106ca576000848401525b50505050565b6106d982610730565b810181811067ffffffffffffffff821117156106f8576106f7610701565b5b80604052505050565b7f4e487b7100000000000000000000000000000000000000000000000000000000600052604160045260246000fd5b6000601f19601f8301169050919050565b61074a81610638565b811461075557600080fd5b5056fea2646970667358221220779e6745f76f83944f0672858f38ab241588b4d18d6d6f8bfe859147d6bc0c6e64736f6c63430008040033",
  "linkReferences": {},
  "deployedLinkReferences": {}
}